{
  "_format": "hh-sol-artifact-1",
  "contractName": "LiquidityMiningReward",
  "sourceName": "contracts/LiquidityMiningReward.sol",
  "abi": [
    {
      "inputs": [
        {
          "internalType": "address",
          "name": "_MFI",
          "type": "address"
        },
        {
          "internalType": "address",
          "name": "LiquidityToken",
          "type": "address"
        },
        {
          "internalType": "address",
          "name": "_roles",
          "type": "address"
        }
      ],
      "stateMutability": "nonpayable",
      "type": "constructor"
    },
    {
      "inputs": [],
      "name": "MFI",
      "outputs": [
        {
          "internalType": "contract IERC20",
          "name": "",
          "type": "address"
        }
      ],
      "stateMutability": "view",
      "type": "function"
    },
    {
      "inputs": [],
      "name": "cumulativeReward",
      "outputs": [
        {
          "internalType": "uint256",
          "name": "",
          "type": "uint256"
        }
      ],
      "stateMutability": "view",
      "type": "function"
    },
    {
      "inputs": [],
      "name": "lastCumulativeUpdateBlock",
      "outputs": [
        {
          "internalType": "uint256",
          "name": "",
          "type": "uint256"
        }
      ],
      "stateMutability": "view",
      "type": "function"
    },
    {
      "inputs": [
        {
          "internalType": "uint256",
          "name": "rewardPerBlock",
          "type": "uint256"
        }
      ],
      "name": "setTotalRewardPerBlock",
      "outputs": [],
      "stateMutability": "nonpayable",
      "type": "function"
    },
    {
      "inputs": [
        {
          "internalType": "uint256",
          "name": "amount",
          "type": "uint256"
        },
        {
          "internalType": "uint256",
          "name": "duration",
          "type": "uint256"
        }
      ],
      "name": "stake",
      "outputs": [],
      "stateMutability": "nonpayable",
      "type": "function"
    },
    {
      "inputs": [
        {
          "internalType": "address",
          "name": "",
          "type": "address"
        }
      ],
      "name": "stakeAccounts",
      "outputs": [
        {
          "internalType": "uint256",
          "name": "stakeAmount",
          "type": "uint256"
        },
        {
          "internalType": "uint256",
          "name": "stakeWeight",
          "type": "uint256"
        },
        {
          "internalType": "uint256",
          "name": "cumulativeStart",
          "type": "uint256"
        },
        {
          "internalType": "uint256",
          "name": "lockEnd",
          "type": "uint256"
        }
      ],
      "stateMutability": "view",
      "type": "function"
    },
    {
      "inputs": [],
      "name": "stakeToken",
      "outputs": [
        {
          "internalType": "contract IERC20",
          "name": "",
          "type": "address"
        }
      ],
      "stateMutability": "view",
      "type": "function"
    },
    {
      "inputs": [],
      "name": "totalCurrentRewardPerBlock",
      "outputs": [
        {
          "internalType": "uint256",
          "name": "",
          "type": "uint256"
        }
      ],
      "stateMutability": "view",
      "type": "function"
    },
    {
      "inputs": [],
      "name": "totalCurrentWeights",
      "outputs": [
        {
          "internalType": "uint256",
          "name": "",
          "type": "uint256"
        }
      ],
      "stateMutability": "view",
      "type": "function"
    },
    {
      "inputs": [],
      "name": "updateCumulativeReward",
      "outputs": [
        {
          "internalType": "uint256",
          "name": "",
          "type": "uint256"
        }
      ],
      "stateMutability": "nonpayable",
      "type": "function"
    },
    {
      "inputs": [
        {
          "internalType": "address",
          "name": "account",
          "type": "address"
        }
      ],
      "name": "viewRewardAmount",
      "outputs": [
        {
          "internalType": "uint256",
          "name": "",
          "type": "uint256"
        }
      ],
      "stateMutability": "view",
      "type": "function"
    },
    {
      "inputs": [],
      "name": "viewUpdatedCumulativeReward",
      "outputs": [
        {
          "internalType": "uint256",
          "name": "",
          "type": "uint256"
        }
      ],
      "stateMutability": "view",
      "type": "function"
    },
    {
      "inputs": [],
      "name": "withdrawReward",
      "outputs": [],
      "stateMutability": "nonpayable",
      "type": "function"
    },
    {
      "inputs": [
        {
          "internalType": "uint256",
          "name": "amount",
          "type": "uint256"
        }
      ],
      "name": "withdrawStake",
      "outputs": [],
      "stateMutability": "nonpayable",
      "type": "function"
    }
  ],
  "bytecode": "0x60c060405234801561001057600080fd5b50604051610fca380380610fca83398101604081905261002f9161008b565b606092831b6001600160601b031990811660a0529190921b16608052600080546001600160a01b0319166001600160a01b039092169190911790556100cd565b80516001600160a01b038116811461008657600080fd5b919050565b60008060006060848603121561009f578283fd5b6100a88461006f565b92506100b66020850161006f565b91506100c46040850161006f565b90509250925092565b60805160601c60a05160601c610ebd61010d6000396000818161022a015281816106d3015261078301526000818161012e01526104950152610ebd6000f3fe608060405234801561001057600080fd5b50600436106100ea5760003560e01c8063c1e4db561161008c578063dbe85f7011610066578063dbe85f70146101bc578063e57466fd146101cf578063ed29c12b14610225578063fb3935ee1461024c576100ea565b8063c1e4db56146101a3578063c885bc58146101ac578063c8d65d59146101b4576100ea565b806351ed6a30116100c857806351ed6a30146101295780635fc754b2146101755780636eb2d89a1461017d5780637b0472f014610190576100ea565b806320ef8c06146100ef57806325d5971f1461010b5780634fbfa2fc14610120575b600080fd5b6100f860035481565b6040519081526020015b60405180910390f35b61011e610119366004610ca4565b610255565b005b6100f860055481565b6101507f000000000000000000000000000000000000000000000000000000000000000081565b60405173ffffffffffffffffffffffffffffffffffffffff9091168152602001610102565b6100f8610321565b61011e61018b366004610ca4565b610344565b61011e61019e366004610cd4565b61047b565b6100f860025481565b61011e6105a3565b6100f86105c6565b6100f86101ca366004610c4c565b6105f5565b6102056101dd366004610c4c565b6001602081905260009182526040909120805491810154600282015460039092015490919084565b604080519485526020850193909352918301526060820152608001610102565b6101507f000000000000000000000000000000000000000000000000000000000000000081565b6100f860045481565b33600090815260016020526040902060038101544210156102d7576040517f08c379a000000000000000000000000000000000000000000000000000000000815260206004820152601560248201527f5374616b65206973207374696c6c206c6f636b6564000000000000000000000060448201526064015b60405180910390fd5b6102e13382610629565b818160000160008282546102f59190610df0565b909155506103039050610321565b60028201556001810154610318908390610d7a565b60019091015550565b600060035443111561033d576103356105c6565b600255436003555b5060025490565b60008054906101000a900473ffffffffffffffffffffffffffffffffffffffff1673ffffffffffffffffffffffffffffffffffffffff16638da5cb5b6040518163ffffffff1660e01b815260040160206040518083038186803b1580156103aa57600080fd5b505afa1580156103be573d6000803e3d6000fd5b505050506040513d601f19601f820116820180604052508101906103e29190610c68565b73ffffffffffffffffffffffffffffffffffffffff163373ffffffffffffffffffffffffffffffffffffffff1614610476576040517f08c379a000000000000000000000000000000000000000000000000000000000815260206004820152600e60248201527f4e6f7420617574686f72697a656400000000000000000000000000000000000060448201526064016102ce565b600555565b6104bd73ffffffffffffffffffffffffffffffffffffffff7f0000000000000000000000000000000000000000000000000000000000000000163330856107af565b336000908152600160205260409020805480156104de576104de3383610629565b6104e88482610d62565b825560006276a7008410156105245762278d0084101561051c5762093a80841015610514576000610517565b60015b61051f565b60025b610527565b60035b60ff1690506105368582610db3565b8360010160008282546105499190610d62565b9091555061055990508582610db3565b6004600082825461056a9190610d62565b909155506105789050610321565b600284015561059461058a8542610d62565b8460030154610891565b83600301819055505050505050565b336000818152600160205260409020906105bd9082610629565b60028054910155565b6000600554600354436105d99190610df0565b6105e39190610db3565b6002546105f09190610d62565b905090565b73ffffffffffffffffffffffffffffffffffffffff81166000908152600160205260408120610623906108a8565b92915050565b6000816002015411610697576040517f08c379a000000000000000000000000000000000000000000000000000000000815260206004820152601260248201527f4163636f756e74206e6f7420616374697665000000000000000000000000000060448201526064016102ce565b60006107676106a5836108a8565b6040517f70a082310000000000000000000000000000000000000000000000000000000081523060048201527f000000000000000000000000000000000000000000000000000000000000000073ffffffffffffffffffffffffffffffffffffffff16906370a082319060240160206040518083038186803b15801561072a57600080fd5b505afa15801561073e573d6000803e3d6000fd5b505050506040513d601f19601f820116820180604052508101906107629190610cbc565b6108e8565b90506107aa73ffffffffffffffffffffffffffffffffffffffff7f0000000000000000000000000000000000000000000000000000000000000000168483610900565b505050565b60405173ffffffffffffffffffffffffffffffffffffffff8085166024830152831660448201526064810182905261088b9085907f23b872dd00000000000000000000000000000000000000000000000000000000906084015b604080517fffffffffffffffffffffffffffffffffffffffffffffffffffffffffffffffe08184030181529190526020810180517bffffffffffffffffffffffffffffffffffffffffffffffffffffffff167fffffffff0000000000000000000000000000000000000000000000000000000090931692909217909152610956565b50505050565b6000818311156108a2575081610623565b50919050565b6000806108b36105c6565b905060045483600101548460020154836108cd9190610df0565b6108d79190610db3565b6108e19190610d7a565b9392505050565b6000818311156108f9575080610623565b5081610623565b60405173ffffffffffffffffffffffffffffffffffffffff83166024820152604481018290526107aa9084907fa9059cbb0000000000000000000000000000000000000000000000000000000090606401610809565b60006109b8826040518060400160405280602081526020017f5361666545524332303a206c6f772d6c6576656c2063616c6c206661696c65648152508573ffffffffffffffffffffffffffffffffffffffff16610a629092919063ffffffff16565b8051909150156107aa57808060200190518101906109d69190610c84565b6107aa576040517f08c379a000000000000000000000000000000000000000000000000000000000815260206004820152602a60248201527f5361666545524332303a204552433230206f7065726174696f6e20646964206e60448201527f6f7420737563636565640000000000000000000000000000000000000000000060648201526084016102ce565b6060610a718484600085610a79565b949350505050565b606082471015610b0b576040517f08c379a000000000000000000000000000000000000000000000000000000000815260206004820152602660248201527f416464726573733a20696e73756666696369656e742062616c616e636520666f60448201527f722063616c6c000000000000000000000000000000000000000000000000000060648201526084016102ce565b843b610b73576040517f08c379a000000000000000000000000000000000000000000000000000000000815260206004820152601d60248201527f416464726573733a2063616c6c20746f206e6f6e2d636f6e747261637400000060448201526064016102ce565b6000808673ffffffffffffffffffffffffffffffffffffffff168587604051610b9c9190610cf5565b60006040518083038185875af1925050503d8060008114610bd9576040519150601f19603f3d011682016040523d82523d6000602084013e610bde565b606091505b5091509150610bee828286610bf9565b979650505050505050565b60608315610c085750816108e1565b825115610c185782518084602001fd5b816040517f08c379a00000000000000000000000000000000000000000000000000000000081526004016102ce9190610d11565b600060208284031215610c5d578081fd5b81356108e181610e62565b600060208284031215610c79578081fd5b81516108e181610e62565b600060208284031215610c95578081fd5b815180151581146108e1578182fd5b600060208284031215610cb5578081fd5b5035919050565b600060208284031215610ccd578081fd5b5051919050565b60008060408385031215610ce6578081fd5b50508035926020909101359150565b60008251610d07818460208701610e07565b9190910192915050565b6000602082528251806020840152610d30816040850160208701610e07565b601f017fffffffffffffffffffffffffffffffffffffffffffffffffffffffffffffffe0169190910160400192915050565b60008219821115610d7557610d75610e33565b500190565b600082610dae577f4e487b710000000000000000000000000000000000000000000000000000000081526012600452602481fd5b500490565b6000817fffffffffffffffffffffffffffffffffffffffffffffffffffffffffffffffff0483118215151615610deb57610deb610e33565b500290565b600082821015610e0257610e02610e33565b500390565b60005b83811015610e22578181015183820152602001610e0a565b8381111561088b5750506000910152565b7f4e487b7100000000000000000000000000000000000000000000000000000000600052601160045260246000fd5b73ffffffffffffffffffffffffffffffffffffffff81168114610e8457600080fd5b5056fea2646970667358221220ce70a8089b3040c6fda948c816dfc874f5035b4e8e81c4faa88a62bc9db34e9264736f6c63430008030033",
  "linkReferences": {},
  "deployedLinkReferences": {}
}