{
  "_format": "hh-sol-artifact-1",
  "contractName": "LiquidityMiningReward",
  "sourceName": "contracts/LiquidityMiningReward.sol",
  "abi": [
    {
      "inputs": [
        {
          "internalType": "address",
          "name": "_roles",
          "type": "address"
        },
        {
          "internalType": "address",
          "name": "_stakeToken",
          "type": "address"
        },
        {
          "internalType": "uint256",
          "name": "startTimestamp",
          "type": "uint256"
        }
      ],
      "stateMutability": "nonpayable",
      "type": "constructor"
    },
    {
      "inputs": [
        {
          "internalType": "uint256",
          "name": "amount",
          "type": "uint256"
        }
      ],
      "name": "depositStake",
      "outputs": [],
      "stateMutability": "nonpayable",
      "type": "function"
    },
    {
      "inputs": [],
      "name": "incentiveStart",
      "outputs": [
        {
          "internalType": "uint256",
          "name": "",
          "type": "uint256"
        }
      ],
      "stateMutability": "view",
      "type": "function"
    },
    {
      "inputs": [
        {
          "internalType": "uint256",
          "name": "",
          "type": "uint256"
        }
      ],
      "name": "mainCharacterCache",
      "outputs": [
        {
          "internalType": "address",
          "name": "",
          "type": "address"
        }
      ],
      "stateMutability": "view",
      "type": "function"
    },
    {
      "inputs": [
        {
          "internalType": "address",
          "name": "",
          "type": "address"
        },
        {
          "internalType": "uint256",
          "name": "",
          "type": "uint256"
        }
      ],
      "name": "roleCache",
      "outputs": [
        {
          "internalType": "bool",
          "name": "",
          "type": "bool"
        }
      ],
      "stateMutability": "view",
      "type": "function"
    },
    {
      "inputs": [],
      "name": "roles",
      "outputs": [
        {
          "internalType": "contract Roles",
          "name": "",
          "type": "address"
        }
      ],
      "stateMutability": "view",
      "type": "function"
    },
    {
      "inputs": [
        {
          "internalType": "address",
          "name": "",
          "type": "address"
        }
      ],
      "name": "stakeAmounts",
      "outputs": [
        {
          "internalType": "uint256",
          "name": "",
          "type": "uint256"
        }
      ],
      "stateMutability": "view",
      "type": "function"
    },
    {
      "inputs": [],
      "name": "stakeToken",
      "outputs": [
        {
          "internalType": "contract IERC20",
          "name": "",
          "type": "address"
        }
      ],
      "stateMutability": "view",
      "type": "function"
    },
    {
      "inputs": [
        {
          "internalType": "uint256",
          "name": "role",
          "type": "uint256"
        }
      ],
      "name": "updateMainCharacterCache",
      "outputs": [],
      "stateMutability": "nonpayable",
      "type": "function"
    },
    {
      "inputs": [
        {
          "internalType": "uint256",
          "name": "role",
          "type": "uint256"
        },
        {
          "internalType": "address",
          "name": "contr",
          "type": "address"
        }
      ],
      "name": "updateRoleCache",
      "outputs": [],
      "stateMutability": "nonpayable",
      "type": "function"
    },
    {
      "inputs": [
        {
          "internalType": "uint256",
          "name": "amount",
          "type": "uint256"
        }
      ],
      "name": "withdrawStake",
      "outputs": [],
      "stateMutability": "nonpayable",
      "type": "function"
    }
  ],
  "bytecode": "0x60e060405234801561001057600080fd5b50604051610f24380380610f2483398101604081905261002f916100d6565b826001600160a01b0381166100955760405162461bcd60e51b815260206004820152602260248201527f506c656173652070726f766964652076616c696420726f6c6573206164647265604482015261737360f01b606482015260840160405180910390fd5b6001600160601b0319606091821b811660805292901b90911660a05260c05250610111565b80516001600160a01b03811681146100d157600080fd5b919050565b6000806000606084860312156100ea578283fd5b6100f3846100ba565b9250610101602085016100ba565b9150604084015190509250925092565b60805160601c60a05160601c60c051610dae610176600039600081816101b9015261059b01526000818161015401528181610405015281816104460152818161063c015261068e01526000818160f00152818161028101526104bc0152610dae6000f3fe608060405234801561001057600080fd5b50600436106100be5760003560e01c80637a1a04df11610076578063cb82cc8f1161005b578063cb82cc8f146101e9578063e5afa566146101fc578063e9c3f77d1461021c576100be565b80637a1a04df14610176578063c1a3b9fa146101b4576100be565b8063392f5f64116100a7578063392f5f64146100eb578063447d52ba1461013c57806351ed6a301461014f576100be565b8063071060a6146100c357806325d5971f146100d8575b600080fd5b6100d66100d1366004610c18565b610252565b005b6100d66100e6366004610c18565b610363565b6101127f000000000000000000000000000000000000000000000000000000000000000081565b60405173ffffffffffffffffffffffffffffffffffffffff90911681526020015b60405180910390f35b6100d661014a366004610c30565b610470565b6101127f000000000000000000000000000000000000000000000000000000000000000081565b6101a4610184366004610bcd565b600160209081526000928352604080842090915290825290205460ff1681565b6040519015158152602001610133565b6101db7f000000000000000000000000000000000000000000000000000000000000000081565b604051908152602001610133565b6100d66101f7366004610c18565b610599565b6101db61020a366004610b95565b60026020526000908152604090205481565b61011261022a366004610c18565b60006020819052908152604090205473ffffffffffffffffffffffffffffffffffffffff1681565b6040517fb4ed0b6d000000000000000000000000000000000000000000000000000000008152600481018290527f000000000000000000000000000000000000000000000000000000000000000073ffffffffffffffffffffffffffffffffffffffff169063b4ed0b6d9060240160206040518083038186803b1580156102d857600080fd5b505afa1580156102ec573d6000803e3d6000fd5b505050506040513d601f19601f820116820180604052508101906103109190610bb1565b60009182526020829052604090912080547fffffffffffffffffffffffff00000000000000000000000000000000000000001673ffffffffffffffffffffffffffffffffffffffff909216919091179055565b33600090815260026020526040902054818110156103e2576040517f08c379a000000000000000000000000000000000000000000000000000000000815260206004820152601c60248201527f4e6f7420656e6f756768207374616b6520746f2077697468647261770000000060448201526064015b60405180910390fd5b6103ec8282610ce4565b33600081815260026020526040902091909155610441907f000000000000000000000000000000000000000000000000000000000000000073ffffffffffffffffffffffffffffffffffffffff1690846106b7565b61046c7f00000000000000000000000000000000000000000000000000000000000000003384610790565b5050565b6040517f93552a3d0000000000000000000000000000000000000000000000000000000081526004810183905273ffffffffffffffffffffffffffffffffffffffff82811660248301527f000000000000000000000000000000000000000000000000000000000000000016906393552a3d9060440160206040518083038186803b1580156104fe57600080fd5b505afa158015610512573d6000803e3d6000fd5b505050506040513d601f19601f820116820180604052508101906105369190610bf8565b73ffffffffffffffffffffffffffffffffffffffff9190911660009081526001602090815260408083209483529390529190912080547fffffffffffffffffffffffffffffffffffffffffffffffffffffffffffffff0016911515919091179055565b7f00000000000000000000000000000000000000000000000000000000000000004211610622576040517f08c379a000000000000000000000000000000000000000000000000000000000815260206004820152601c60248201527f496e63656e74697665206861736e27742073746172746564207965740000000060448201526064016103d9565b61066473ffffffffffffffffffffffffffffffffffffffff7f0000000000000000000000000000000000000000000000000000000000000000163330846107e9565b3360009081526002602052604081208054839290610683908490610ccc565b909155506106b490507f0000000000000000000000000000000000000000000000000000000000000000338361084d565b50565b60405173ffffffffffffffffffffffffffffffffffffffff831660248201526044810182905261078b9084907fa9059cbb00000000000000000000000000000000000000000000000000000000906064015b604080517fffffffffffffffffffffffffffffffffffffffffffffffffffffffffffffffe08184030181529190526020810180517bffffffffffffffffffffffffffffffffffffffffffffffffffffffff167fffffffff000000000000000000000000000000000000000000000000000000009093169290921790915261089d565b505050565b6040805173ffffffffffffffffffffffffffffffffffffffff8581168252602082018490528416917f3397b60e3ca1e9c0c75a033d62ab8731e9b2937c0690ae5d7f1bd37886b19d7d91015b60405180910390a2505050565b60405173ffffffffffffffffffffffffffffffffffffffff808516602483015283166044820152606481018290526108479085907f23b872dd0000000000000000000000000000000000000000000000000000000090608401610709565b50505050565b6040805173ffffffffffffffffffffffffffffffffffffffff8581168252602082018490528416917f8ec70c9430377a4bba035133e27a5b0f3b9951bc080833f6832bcbbb70a96dba91016107dc565b60006108ff826040518060400160405280602081526020017f5361666545524332303a206c6f772d6c6576656c2063616c6c206661696c65648152508573ffffffffffffffffffffffffffffffffffffffff166109a99092919063ffffffff16565b80519091501561078b578080602001905181019061091d9190610bf8565b61078b576040517f08c379a000000000000000000000000000000000000000000000000000000000815260206004820152602a60248201527f5361666545524332303a204552433230206f7065726174696f6e20646964206e60448201527f6f7420737563636565640000000000000000000000000000000000000000000060648201526084016103d9565b60606109b884846000856109c2565b90505b9392505050565b606082471015610a54576040517f08c379a000000000000000000000000000000000000000000000000000000000815260206004820152602660248201527f416464726573733a20696e73756666696369656e742062616c616e636520666f60448201527f722063616c6c000000000000000000000000000000000000000000000000000060648201526084016103d9565b843b610abc576040517f08c379a000000000000000000000000000000000000000000000000000000000815260206004820152601d60248201527f416464726573733a2063616c6c20746f206e6f6e2d636f6e747261637400000060448201526064016103d9565b6000808673ffffffffffffffffffffffffffffffffffffffff168587604051610ae59190610c5f565b60006040518083038185875af1925050503d8060008114610b22576040519150601f19603f3d011682016040523d82523d6000602084013e610b27565b606091505b5091509150610b37828286610b42565b979650505050505050565b60608315610b515750816109bb565b825115610b615782518084602001fd5b816040517f08c379a00000000000000000000000000000000000000000000000000000000081526004016103d99190610c7b565b600060208284031215610ba6578081fd5b81356109bb81610d56565b600060208284031215610bc2578081fd5b81516109bb81610d56565b60008060408385031215610bdf578081fd5b8235610bea81610d56565b946020939093013593505050565b600060208284031215610c09578081fd5b815180151581146109bb578182fd5b600060208284031215610c29578081fd5b5035919050565b60008060408385031215610c42578182fd5b823591506020830135610c5481610d56565b809150509250929050565b60008251610c71818460208701610cfb565b9190910192915050565b6000602082528251806020840152610c9a816040850160208701610cfb565b601f017fffffffffffffffffffffffffffffffffffffffffffffffffffffffffffffffe0169190910160400192915050565b60008219821115610cdf57610cdf610d27565b500190565b600082821015610cf657610cf6610d27565b500390565b60005b83811015610d16578181015183820152602001610cfe565b838111156108475750506000910152565b7f4e487b7100000000000000000000000000000000000000000000000000000000600052601160045260246000fd5b73ffffffffffffffffffffffffffffffffffffffff811681146106b457600080fdfea2646970667358221220acf7e4d218da69c1e7e73320a8bcc98f8476115b9edd3f6c0f5f910ce0e97b5664736f6c63430008030033",
  "linkReferences": {},
  "deployedLinkReferences": {}
}