{
  "_format": "hh-sol-artifact-1",
  "contractName": "LiquidityMiningReward",
  "sourceName": "contracts/LiquidityMiningReward.sol",
  "abi": [
    {
      "inputs": [
        {
          "internalType": "address",
          "name": "_MFI",
          "type": "address"
        },
        {
          "internalType": "address",
          "name": "LiquidityToken",
          "type": "address"
        },
        {
          "internalType": "uint256",
          "name": "initialRewardPerBlock",
          "type": "uint256"
        },
        {
          "internalType": "address",
          "name": "_roles",
          "type": "address"
        }
      ],
      "stateMutability": "nonpayable",
      "type": "constructor"
    },
    {
      "inputs": [],
      "name": "MFI",
      "outputs": [
        {
          "internalType": "contract IERC20",
          "name": "",
          "type": "address"
        }
      ],
      "stateMutability": "view",
      "type": "function"
    },
    {
      "inputs": [
        {
          "internalType": "uint256",
          "name": "amount",
          "type": "uint256"
        }
      ],
      "name": "add2RewardTarget",
      "outputs": [],
      "stateMutability": "nonpayable",
      "type": "function"
    },
    {
      "inputs": [],
      "name": "cumulativeReward",
      "outputs": [
        {
          "internalType": "uint256",
          "name": "",
          "type": "uint256"
        }
      ],
      "stateMutability": "view",
      "type": "function"
    },
    {
      "inputs": [],
      "name": "lastCumulativeUpdateBlock",
      "outputs": [
        {
          "internalType": "uint256",
          "name": "",
          "type": "uint256"
        }
      ],
      "stateMutability": "view",
      "type": "function"
    },
    {
      "inputs": [
        {
          "internalType": "uint256",
          "name": "amount",
          "type": "uint256"
        },
        {
          "internalType": "address",
          "name": "recipient",
          "type": "address"
        }
      ],
      "name": "removeFromRewardTarget",
      "outputs": [],
      "stateMutability": "nonpayable",
      "type": "function"
    },
    {
      "inputs": [],
      "name": "rewardTarget",
      "outputs": [
        {
          "internalType": "uint256",
          "name": "",
          "type": "uint256"
        }
      ],
      "stateMutability": "view",
      "type": "function"
    },
    {
      "inputs": [
        {
          "internalType": "uint256",
          "name": "rewardPerBlock",
          "type": "uint256"
        }
      ],
      "name": "setTotalRewardPerBlock",
      "outputs": [],
      "stateMutability": "nonpayable",
      "type": "function"
    },
    {
      "inputs": [
        {
          "internalType": "uint256",
          "name": "amount",
          "type": "uint256"
        },
        {
          "internalType": "uint256",
          "name": "duration",
          "type": "uint256"
        }
      ],
      "name": "stake",
      "outputs": [],
      "stateMutability": "nonpayable",
      "type": "function"
    },
    {
      "inputs": [
        {
          "internalType": "address",
          "name": "",
          "type": "address"
        }
      ],
      "name": "stakeAccounts",
      "outputs": [
        {
          "internalType": "uint256",
          "name": "stakeAmount",
          "type": "uint256"
        },
        {
          "internalType": "uint256",
          "name": "stakeWeight",
          "type": "uint256"
        },
        {
          "internalType": "uint256",
          "name": "cumulativeStart",
          "type": "uint256"
        },
        {
          "internalType": "uint256",
          "name": "lockEnd",
          "type": "uint256"
        }
      ],
      "stateMutability": "view",
      "type": "function"
    },
    {
      "inputs": [],
      "name": "stakeToken",
      "outputs": [
        {
          "internalType": "contract IERC20",
          "name": "",
          "type": "address"
        }
      ],
      "stateMutability": "view",
      "type": "function"
    },
    {
      "inputs": [],
      "name": "totalCurrentRewardPerBlock",
      "outputs": [
        {
          "internalType": "uint256",
          "name": "",
          "type": "uint256"
        }
      ],
      "stateMutability": "view",
      "type": "function"
    },
    {
      "inputs": [],
      "name": "totalCurrentWeights",
      "outputs": [
        {
          "internalType": "uint256",
          "name": "",
          "type": "uint256"
        }
      ],
      "stateMutability": "view",
      "type": "function"
    },
    {
      "inputs": [],
      "name": "updateCumulativeReward",
      "outputs": [
        {
          "internalType": "uint256",
          "name": "",
          "type": "uint256"
        }
      ],
      "stateMutability": "nonpayable",
      "type": "function"
    },
    {
      "inputs": [
        {
          "internalType": "address",
          "name": "account",
          "type": "address"
        }
      ],
      "name": "viewRewardAmount",
      "outputs": [
        {
          "internalType": "uint256",
          "name": "",
          "type": "uint256"
        }
      ],
      "stateMutability": "view",
      "type": "function"
    },
    {
      "inputs": [],
      "name": "viewUpdatedCumulativeReward",
      "outputs": [
        {
          "internalType": "uint256",
          "name": "",
          "type": "uint256"
        }
      ],
      "stateMutability": "view",
      "type": "function"
    },
    {
      "inputs": [],
      "name": "withdrawReward",
      "outputs": [],
      "stateMutability": "nonpayable",
      "type": "function"
    },
    {
      "inputs": [
        {
          "internalType": "uint256",
          "name": "amount",
          "type": "uint256"
        }
      ],
      "name": "withdrawStake",
      "outputs": [],
      "stateMutability": "nonpayable",
      "type": "function"
    }
  ],
  "bytecode": "0x60c060405234801561001057600080fd5b506040516110e73803806110e783398101604081905261002f91610095565b606093841b6001600160601b031990811660a0529290931b909116608052600080546001600160a01b0319166001600160a01b0390931692909217909155436003556005556100e1565b80516001600160a01b038116811461009057600080fd5b919050565b600080600080608085870312156100aa578384fd5b6100b385610079565b93506100c160208601610079565b9250604085015191506100d660608601610079565b905092959194509250565b60805160601c60a05160601c610fb861012f6000396000818161026d0152818161042001528181610875015281816109d90152610a6a015260008181610162015261075a0152610fb86000f3fe608060405234801561001057600080fd5b506004361061010b5760003560e01c806382751982116100a2578063c8d65d5911610071578063c8d65d59146101f7578063dbe85f70146101ff578063e57466fd14610212578063ed29c12b14610268578063fb3935ee1461028f5761010b565b806382751982146101ca578063b675e13c146101d3578063c1e4db56146101e6578063c885bc58146101ef5761010b565b806351ed6a30116100de57806351ed6a301461015d5780635fc754b21461019c5780636eb2d89a146101a45780637b0472f0146101b75761010b565b80631bef6b701461011057806320ef8c061461012557806325d5971f146101415780634fbfa2fc14610154575b600080fd5b61012361011e366004610e1b565b610298565b005b61012e60035481565b6040519081526020015b60405180910390f35b61012361014f366004610deb565b6104bf565b61012e60055481565b6101847f000000000000000000000000000000000000000000000000000000000000000081565b6040516001600160a01b039091168152602001610138565b61012e6105a6565b6101236101b2366004610deb565b6105c9565b6101236101c5366004610e4a565b61074d565b61012e60065481565b6101236101e1366004610deb565b610868565b61012e60025481565b6101236108c0565b61012e6108e3565b61012e61020d366004610d93565b61091d565b610248610220366004610d93565b6001602081905260009182526040909120805491810154600282015460039092015490919084565b604080519485526020850193909352918301526060820152608001610138565b6101847f000000000000000000000000000000000000000000000000000000000000000081565b61012e60045481565b60008054906101000a90046001600160a01b03166001600160a01b0316638da5cb5b6040518163ffffffff1660e01b815260040160206040518083038186803b1580156102e457600080fd5b505afa1580156102f8573d6000803e3d6000fd5b505050506040513d601f19601f8201168201806040525081019061031c9190610daf565b6001600160a01b0316336001600160a01b031614806103d1575060008054906101000a90046001600160a01b03166001600160a01b031663c34c08e56040518163ffffffff1660e01b8152600401602060405180830381600087803b15801561038457600080fd5b505af1158015610398573d6000803e3d6000fd5b505050506040513d601f19601f820116820180604052508101906103bc9190610daf565b6001600160a01b0316336001600160a01b0316145b6104135760405162461bcd60e51b815260206004820152600e60248201526d139bdd08185d5d1a1bdc9a5e995960921b60448201526064015b60405180910390fd5b6104476001600160a01b037f0000000000000000000000000000000000000000000000000000000000000000168284610944565b61044f6105a6565b5081600660008282546104629190610f11565b909155505060025460065410156104bb5760405162461bcd60e51b815260206004820152601960248201527f547279696e6720746f2072656d6f766520746f6f206d75636800000000000000604482015260640161040a565b5050565b336000908152600160205260409020600381015442101561051a5760405162461bcd60e51b815260206004820152601560248201527414dd185ad9481a5cc81cdd1a5b1b081b1bd8dad959605a1b604482015260640161040a565b61052433826109ac565b80546001820154600091906105399085610ef2565b6105439190610ed2565b9050808260010160008282546105599190610f11565b9250508190555080600460008282546105729190610f11565b909155505081548390839060009061058b908490610f11565b9091555061059990506105a6565b8260020181905550505050565b60006003544311156105c2576105ba6108e3565b600255436003555b5060025490565b60008054906101000a90046001600160a01b03166001600160a01b0316638da5cb5b6040518163ffffffff1660e01b815260040160206040518083038186803b15801561061557600080fd5b505afa158015610629573d6000803e3d6000fd5b505050506040513d601f19601f8201168201806040525081019061064d9190610daf565b6001600160a01b0316336001600160a01b03161480610702575060008054906101000a90046001600160a01b03166001600160a01b031663c34c08e56040518163ffffffff1660e01b8152600401602060405180830381600087803b1580156106b557600080fd5b505af11580156106c9573d6000803e3d6000fd5b505050506040513d601f19601f820116820180604052508101906106ed9190610daf565b6001600160a01b0316336001600160a01b0316145b61073f5760405162461bcd60e51b815260206004820152600e60248201526d139bdd08185d5d1a1bdc9a5e995960921b604482015260640161040a565b6107476105a6565b50600555565b6107826001600160a01b037f000000000000000000000000000000000000000000000000000000000000000016333085610a91565b336000908152600160205260409020805480156107a3576107a333836109ac565b6107ad8482610eba565b825560006276a7008410156107e95762278d008410156107e15762093a808410156107d95760006107dc565b60015b6107e4565b60025b6107ec565b60035b60ff1690506107fb8582610ef2565b83600101600082825461080e9190610eba565b9091555061081e90508582610ef2565b6004600082825461082f9190610eba565b9091555061083d90506105a6565b600284015561085961084f8542610eba565b8460030154610acf565b83600301819055505050505050565b61089d6001600160a01b037f000000000000000000000000000000000000000000000000000000000000000016333084610a91565b6108a56105a6565b5080600660008282546108b89190610eba565b909155505050565b336000818152600160205260409020906108da90826109ac565b60028054910155565b6000610918600654600554600354436108fc9190610f11565b6109069190610ef2565b6002546109139190610eba565b610ae6565b905090565b6001600160a01b038116600090815260016020526040812061093e90610afe565b92915050565b6040516001600160a01b0383166024820152604481018290526109a790849063a9059cbb60e01b906064015b60408051601f198184030181529190526020810180516001600160e01b03166001600160e01b031990931692909217909152610b49565b505050565b6001810154156104bb576000610a5b6109c483610afe565b6040516370a0823160e01b81523060048201527f00000000000000000000000000000000000000000000000000000000000000006001600160a01b0316906370a082319060240160206040518083038186803b158015610a2357600080fd5b505afa158015610a37573d6000803e3d6000fd5b505050506040513d601f19601f820116820180604052508101906109139190610e03565b90506109a76001600160a01b037f0000000000000000000000000000000000000000000000000000000000000000168483610944565b6040516001600160a01b0380851660248301528316604482015260648101829052610ac99085906323b872dd60e01b90608401610970565b50505050565b600081831115610ae057508161093e565b50919050565b600081831115610af757508061093e565b508161093e565b600080610b096108e3565b90506004546001610b1a9190610eba565b60018401546002850154610b2e9084610f11565b610b389190610ef2565b610b429190610ed2565b9392505050565b6000610b9e826040518060400160405280602081526020017f5361666545524332303a206c6f772d6c6576656c2063616c6c206661696c6564815250856001600160a01b0316610c1b9092919063ffffffff16565b8051909150156109a75780806020019051810190610bbc9190610dcb565b6109a75760405162461bcd60e51b815260206004820152602a60248201527f5361666545524332303a204552433230206f7065726174696f6e20646964206e6044820152691bdd081cdd58d8d9595960b21b606482015260840161040a565b6060610c2a8484600085610c32565b949350505050565b606082471015610c935760405162461bcd60e51b815260206004820152602660248201527f416464726573733a20696e73756666696369656e742062616c616e636520666f6044820152651c8818d85b1b60d21b606482015260840161040a565b843b610ce15760405162461bcd60e51b815260206004820152601d60248201527f416464726573733a2063616c6c20746f206e6f6e2d636f6e7472616374000000604482015260640161040a565b600080866001600160a01b03168587604051610cfd9190610e6b565b60006040518083038185875af1925050503d8060008114610d3a576040519150601f19603f3d011682016040523d82523d6000602084013e610d3f565b606091505b5091509150610d4f828286610d5a565b979650505050505050565b60608315610d69575081610b42565b825115610d795782518084602001fd5b8160405162461bcd60e51b815260040161040a9190610e87565b600060208284031215610da4578081fd5b8135610b4281610f6a565b600060208284031215610dc0578081fd5b8151610b4281610f6a565b600060208284031215610ddc578081fd5b81518015158114610b42578182fd5b600060208284031215610dfc578081fd5b5035919050565b600060208284031215610e14578081fd5b5051919050565b60008060408385031215610e2d578081fd5b823591506020830135610e3f81610f6a565b809150509250929050565b60008060408385031215610e5c578182fd5b50508035926020909101359150565b60008251610e7d818460208701610f28565b9190910192915050565b6000602082528251806020840152610ea6816040850160208701610f28565b601f01601f19169190910160400192915050565b60008219821115610ecd57610ecd610f54565b500190565b600082610eed57634e487b7160e01b81526012600452602481fd5b500490565b6000816000190483118215151615610f0c57610f0c610f54565b500290565b600082821015610f2357610f23610f54565b500390565b60005b83811015610f43578181015183820152602001610f2b565b83811115610ac95750506000910152565b634e487b7160e01b600052601160045260246000fd5b6001600160a01b0381168114610f7f57600080fd5b5056fea26469706673582212208e890c012d45ff97b34b80c9c963e1d56ab69c35e2843bf292d3036b37349fac64736f6c63430008030033",
  "linkReferences": {},
  "deployedLinkReferences": {}
}