{
  "_format": "hh-sol-artifact-1",
  "contractName": "LiquidityMiningReward",
  "sourceName": "contracts/LiquidityMiningReward.sol",
  "abi": [
    {
      "inputs": [
        {
          "internalType": "address",
          "name": "_MFI",
          "type": "address"
        },
        {
          "internalType": "address",
          "name": "LiquidityToken",
          "type": "address"
        },
        {
          "internalType": "address",
          "name": "_roles",
          "type": "address"
        }
      ],
      "stateMutability": "nonpayable",
      "type": "constructor"
    },
    {
      "inputs": [],
      "name": "MFI",
      "outputs": [
        {
          "internalType": "contract IERC20",
          "name": "",
          "type": "address"
        }
      ],
      "stateMutability": "view",
      "type": "function"
    },
    {
      "inputs": [],
      "name": "cumulativeReward",
      "outputs": [
        {
          "internalType": "uint256",
          "name": "",
          "type": "uint256"
        }
      ],
      "stateMutability": "view",
      "type": "function"
    },
    {
      "inputs": [],
      "name": "lastCumulativeUpdateBlock",
      "outputs": [
        {
          "internalType": "uint256",
          "name": "",
          "type": "uint256"
        }
      ],
      "stateMutability": "view",
      "type": "function"
    },
    {
      "inputs": [
        {
          "internalType": "uint256",
          "name": "rewardPerBlock",
          "type": "uint256"
        }
      ],
      "name": "setTotalRewardPerBlock",
      "outputs": [],
      "stateMutability": "nonpayable",
      "type": "function"
    },
    {
      "inputs": [
        {
          "internalType": "uint256",
          "name": "amount",
          "type": "uint256"
        },
        {
          "internalType": "uint256",
          "name": "duration",
          "type": "uint256"
        }
      ],
      "name": "stake",
      "outputs": [],
      "stateMutability": "nonpayable",
      "type": "function"
    },
    {
      "inputs": [
        {
          "internalType": "address",
          "name": "",
          "type": "address"
        }
      ],
      "name": "stakeAccounts",
      "outputs": [
        {
          "internalType": "uint256",
          "name": "stakeAmount",
          "type": "uint256"
        },
        {
          "internalType": "uint256",
          "name": "stakeWeight",
          "type": "uint256"
        },
        {
          "internalType": "uint256",
          "name": "cumulativeStart",
          "type": "uint256"
        },
        {
          "internalType": "uint256",
          "name": "lockEnd",
          "type": "uint256"
        }
      ],
      "stateMutability": "view",
      "type": "function"
    },
    {
      "inputs": [],
      "name": "stakeToken",
      "outputs": [
        {
          "internalType": "contract IERC20",
          "name": "",
          "type": "address"
        }
      ],
      "stateMutability": "view",
      "type": "function"
    },
    {
      "inputs": [],
      "name": "totalCurrentRewardPerBlock",
      "outputs": [
        {
          "internalType": "uint256",
          "name": "",
          "type": "uint256"
        }
      ],
      "stateMutability": "view",
      "type": "function"
    },
    {
      "inputs": [],
      "name": "totalCurrentWeights",
      "outputs": [
        {
          "internalType": "uint256",
          "name": "",
          "type": "uint256"
        }
      ],
      "stateMutability": "view",
      "type": "function"
    },
    {
      "inputs": [],
      "name": "updateCumulativeReward",
      "outputs": [
        {
          "internalType": "uint256",
          "name": "",
          "type": "uint256"
        }
      ],
      "stateMutability": "nonpayable",
      "type": "function"
    },
    {
      "inputs": [
        {
          "internalType": "address",
          "name": "account",
          "type": "address"
        }
      ],
      "name": "viewRewardAmount",
      "outputs": [
        {
          "internalType": "uint256",
          "name": "",
          "type": "uint256"
        }
      ],
      "stateMutability": "view",
      "type": "function"
    },
    {
      "inputs": [],
      "name": "viewUpdatedCumulativeReward",
      "outputs": [
        {
          "internalType": "uint256",
          "name": "",
          "type": "uint256"
        }
      ],
      "stateMutability": "view",
      "type": "function"
    },
    {
      "inputs": [],
      "name": "withdrawReward",
      "outputs": [],
      "stateMutability": "nonpayable",
      "type": "function"
    },
    {
      "inputs": [
        {
          "internalType": "uint256",
          "name": "amount",
          "type": "uint256"
        }
      ],
      "name": "withdrawStake",
      "outputs": [],
      "stateMutability": "nonpayable",
      "type": "function"
    }
  ],
  "bytecode": "0x60c060405234801561001057600080fd5b5060405161101738038061101783398101604081905261002f9161008b565b606092831b6001600160601b031990811660a0529190921b16608052600080546001600160a01b0319166001600160a01b039092169190911790556100cd565b80516001600160a01b038116811461008657600080fd5b919050565b60008060006060848603121561009f578283fd5b6100a88461006f565b92506100b66020850161006f565b91506100c46040850161006f565b90509250925092565b60805160601c60a05160601c610f0a61010d6000396000818161022a0152818161071501526107c501526000818161012e01526104d70152610f0a6000f3fe608060405234801561001057600080fd5b50600436106100ea5760003560e01c8063c1e4db561161008c578063dbe85f7011610066578063dbe85f70146101bc578063e57466fd146101cf578063ed29c12b14610225578063fb3935ee1461024c576100ea565b8063c1e4db56146101a3578063c885bc58146101ac578063c8d65d59146101b4576100ea565b806351ed6a30116100c857806351ed6a30146101295780635fc754b2146101755780636eb2d89a1461017d5780637b0472f014610190576100ea565b806320ef8c06146100ef57806325d5971f1461010b5780634fbfa2fc14610120575b600080fd5b6100f860035481565b6040519081526020015b60405180910390f35b61011e610119366004610cf1565b610255565b005b6100f860055481565b6101507f000000000000000000000000000000000000000000000000000000000000000081565b60405173ffffffffffffffffffffffffffffffffffffffff9091168152602001610102565b6100f8610363565b61011e61018b366004610cf1565b610386565b61011e61019e366004610d21565b6104bd565b6100f860025481565b61011e6105e5565b6100f8610608565b6100f86101ca366004610c99565b610637565b6102056101dd366004610c99565b6001602081905260009182526040909120805491810154600282015460039092015490919084565b604080519485526020850193909352918301526060820152608001610102565b6101507f000000000000000000000000000000000000000000000000000000000000000081565b6100f860045481565b33600090815260016020526040902060038101544210156102d7576040517f08c379a000000000000000000000000000000000000000000000000000000000815260206004820152601560248201527f5374616b65206973207374696c6c206c6f636b6564000000000000000000000060448201526064015b60405180910390fd5b6102e1338261066b565b80546001820154600091906102f69085610e00565b6103009190610dc7565b9050808260010160008282546103169190610e3d565b92505081905550806004600082825461032f9190610e3d565b9091555050815483908390600090610348908490610e3d565b909155506103569050610363565b8260020181905550505050565b600060035443111561037f57610377610608565b600255436003555b5060025490565b60008054906101000a900473ffffffffffffffffffffffffffffffffffffffff1673ffffffffffffffffffffffffffffffffffffffff16638da5cb5b6040518163ffffffff1660e01b815260040160206040518083038186803b1580156103ec57600080fd5b505afa158015610400573d6000803e3d6000fd5b505050506040513d601f19601f820116820180604052508101906104249190610cb5565b73ffffffffffffffffffffffffffffffffffffffff163373ffffffffffffffffffffffffffffffffffffffff16146104b8576040517f08c379a000000000000000000000000000000000000000000000000000000000815260206004820152600e60248201527f4e6f7420617574686f72697a656400000000000000000000000000000000000060448201526064016102ce565b600555565b6104ff73ffffffffffffffffffffffffffffffffffffffff7f0000000000000000000000000000000000000000000000000000000000000000163330856107f1565b3360009081526001602052604090208054801561052057610520338361066b565b61052a8482610daf565b825560006276a7008410156105665762278d0084101561055e5762093a80841015610556576000610559565b60015b610561565b60025b610569565b60035b60ff1690506105788582610e00565b83600101600082825461058b9190610daf565b9091555061059b90508582610e00565b600460008282546105ac9190610daf565b909155506105ba9050610363565b60028401556105d66105cc8542610daf565b84600301546108d3565b83600301819055505050505050565b336000818152600160205260409020906105ff908261066b565b60028054910155565b60006005546003544361061b9190610e3d565b6106259190610e00565b6002546106329190610daf565b905090565b73ffffffffffffffffffffffffffffffffffffffff81166000908152600160205260408120610665906108ea565b92915050565b60008160020154116106d9576040517f08c379a000000000000000000000000000000000000000000000000000000000815260206004820152601260248201527f4163636f756e74206e6f7420616374697665000000000000000000000000000060448201526064016102ce565b60006107a96106e7836108ea565b6040517f70a082310000000000000000000000000000000000000000000000000000000081523060048201527f000000000000000000000000000000000000000000000000000000000000000073ffffffffffffffffffffffffffffffffffffffff16906370a082319060240160206040518083038186803b15801561076c57600080fd5b505afa158015610780573d6000803e3d6000fd5b505050506040513d601f19601f820116820180604052508101906107a49190610d09565b610935565b90506107ec73ffffffffffffffffffffffffffffffffffffffff7f000000000000000000000000000000000000000000000000000000000000000016848361094d565b505050565b60405173ffffffffffffffffffffffffffffffffffffffff808516602483015283166044820152606481018290526108cd9085907f23b872dd00000000000000000000000000000000000000000000000000000000906084015b604080517fffffffffffffffffffffffffffffffffffffffffffffffffffffffffffffffe08184030181529190526020810180517bffffffffffffffffffffffffffffffffffffffffffffffffffffffff167fffffffff00000000000000000000000000000000000000000000000000000000909316929092179091526109a3565b50505050565b6000818311156108e4575081610665565b50919050565b6000806108f5610608565b905060045460016109069190610daf565b6001840154600285015461091a9084610e3d565b6109249190610e00565b61092e9190610dc7565b9392505050565b600081831115610946575080610665565b5081610665565b60405173ffffffffffffffffffffffffffffffffffffffff83166024820152604481018290526107ec9084907fa9059cbb000000000000000000000000000000000000000000000000000000009060640161084b565b6000610a05826040518060400160405280602081526020017f5361666545524332303a206c6f772d6c6576656c2063616c6c206661696c65648152508573ffffffffffffffffffffffffffffffffffffffff16610aaf9092919063ffffffff16565b8051909150156107ec5780806020019051810190610a239190610cd1565b6107ec576040517f08c379a000000000000000000000000000000000000000000000000000000000815260206004820152602a60248201527f5361666545524332303a204552433230206f7065726174696f6e20646964206e60448201527f6f7420737563636565640000000000000000000000000000000000000000000060648201526084016102ce565b6060610abe8484600085610ac6565b949350505050565b606082471015610b58576040517f08c379a000000000000000000000000000000000000000000000000000000000815260206004820152602660248201527f416464726573733a20696e73756666696369656e742062616c616e636520666f60448201527f722063616c6c000000000000000000000000000000000000000000000000000060648201526084016102ce565b843b610bc0576040517f08c379a000000000000000000000000000000000000000000000000000000000815260206004820152601d60248201527f416464726573733a2063616c6c20746f206e6f6e2d636f6e747261637400000060448201526064016102ce565b6000808673ffffffffffffffffffffffffffffffffffffffff168587604051610be99190610d42565b60006040518083038185875af1925050503d8060008114610c26576040519150601f19603f3d011682016040523d82523d6000602084013e610c2b565b606091505b5091509150610c3b828286610c46565b979650505050505050565b60608315610c5557508161092e565b825115610c655782518084602001fd5b816040517f08c379a00000000000000000000000000000000000000000000000000000000081526004016102ce9190610d5e565b600060208284031215610caa578081fd5b813561092e81610eaf565b600060208284031215610cc6578081fd5b815161092e81610eaf565b600060208284031215610ce2578081fd5b8151801515811461092e578182fd5b600060208284031215610d02578081fd5b5035919050565b600060208284031215610d1a578081fd5b5051919050565b60008060408385031215610d33578081fd5b50508035926020909101359150565b60008251610d54818460208701610e54565b9190910192915050565b6000602082528251806020840152610d7d816040850160208701610e54565b601f017fffffffffffffffffffffffffffffffffffffffffffffffffffffffffffffffe0169190910160400192915050565b60008219821115610dc257610dc2610e80565b500190565b600082610dfb577f4e487b710000000000000000000000000000000000000000000000000000000081526012600452602481fd5b500490565b6000817fffffffffffffffffffffffffffffffffffffffffffffffffffffffffffffffff0483118215151615610e3857610e38610e80565b500290565b600082821015610e4f57610e4f610e80565b500390565b60005b83811015610e6f578181015183820152602001610e57565b838111156108cd5750506000910152565b7f4e487b7100000000000000000000000000000000000000000000000000000000600052601160045260246000fd5b73ffffffffffffffffffffffffffffffffffffffff81168114610ed157600080fd5b5056fea264697066735822122011ed537faebb46a098b3d57dabf17363552d5f264c91177ff3007e4b0be44fbe64736f6c63430008030033",
  "linkReferences": {},
  "deployedLinkReferences": {}
}