{
  "_format": "hh-sol-artifact-1",
  "contractName": "LiquidityMiningReward",
  "sourceName": "contracts/LiquidityMiningReward.sol",
  "abi": [
    {
      "inputs": [
        {
          "internalType": "address",
          "name": "_roles",
          "type": "address"
        },
        {
          "internalType": "address",
          "name": "_stakeToken",
          "type": "address"
        },
        {
          "internalType": "uint256",
          "name": "startTimestamp",
          "type": "uint256"
        }
      ],
      "stateMutability": "nonpayable",
      "type": "constructor"
    },
    {
      "inputs": [
        {
          "internalType": "uint256",
          "name": "amount",
          "type": "uint256"
        }
      ],
      "name": "depositStake",
      "outputs": [],
      "stateMutability": "nonpayable",
      "type": "function"
    },
    {
      "inputs": [],
      "name": "incentiveStart",
      "outputs": [
        {
          "internalType": "uint256",
          "name": "",
          "type": "uint256"
        }
      ],
      "stateMutability": "view",
      "type": "function"
    },
    {
      "inputs": [
        {
          "internalType": "uint256",
          "name": "",
          "type": "uint256"
        }
      ],
      "name": "mainCharacterCache",
      "outputs": [
        {
          "internalType": "address",
          "name": "",
          "type": "address"
        }
      ],
      "stateMutability": "view",
      "type": "function"
    },
    {
      "inputs": [
        {
          "internalType": "address",
          "name": "",
          "type": "address"
        },
        {
          "internalType": "uint256",
          "name": "",
          "type": "uint256"
        }
      ],
      "name": "roleCache",
      "outputs": [
        {
          "internalType": "bool",
          "name": "",
          "type": "bool"
        }
      ],
      "stateMutability": "view",
      "type": "function"
    },
    {
      "inputs": [],
      "name": "roles",
      "outputs": [
        {
          "internalType": "contract Roles",
          "name": "",
          "type": "address"
        }
      ],
      "stateMutability": "view",
      "type": "function"
    },
    {
      "inputs": [
        {
          "internalType": "address",
          "name": "",
          "type": "address"
        }
      ],
      "name": "stakeAmounts",
      "outputs": [
        {
          "internalType": "uint256",
          "name": "",
          "type": "uint256"
        }
      ],
      "stateMutability": "view",
      "type": "function"
    },
    {
      "inputs": [],
      "name": "stakeToken",
      "outputs": [
        {
          "internalType": "contract IERC20",
          "name": "",
          "type": "address"
        }
      ],
      "stateMutability": "view",
      "type": "function"
    },
    {
      "inputs": [
        {
          "internalType": "uint256",
          "name": "role",
          "type": "uint256"
        }
      ],
      "name": "updateMainCharacterCache",
      "outputs": [],
      "stateMutability": "nonpayable",
      "type": "function"
    },
    {
      "inputs": [
        {
          "internalType": "uint256",
          "name": "role",
          "type": "uint256"
        },
        {
          "internalType": "address",
          "name": "contr",
          "type": "address"
        }
      ],
      "name": "updateRoleCache",
      "outputs": [],
      "stateMutability": "nonpayable",
      "type": "function"
    },
    {
      "inputs": [
        {
          "internalType": "uint256",
          "name": "amount",
          "type": "uint256"
        }
      ],
      "name": "withdrawStake",
      "outputs": [],
      "stateMutability": "nonpayable",
      "type": "function"
    }
  ],
  "bytecode": "0x60e060405234801561001057600080fd5b50604051610e0b380380610e0b83398101604081905261002f916100d6565b826001600160a01b0381166100955760405162461bcd60e51b815260206004820152602260248201527f506c656173652070726f766964652076616c696420726f6c6573206164647265604482015261737360f01b606482015260840160405180910390fd5b6001600160601b0319606091821b811660805292901b90911660a05260c05250610111565b80516001600160a01b03811681146100d157600080fd5b919050565b6000806000606084860312156100ea578283fd5b6100f3846100ba565b9250610101602085016100ba565b9150604084015190509250925092565b60805160601c60a05160601c60c051610ca3610168600039600081816101ac01526105b601526000818161014701528181610478015261063001526000818160f00152818161026701526104e40152610ca36000f3fe608060405234801561001057600080fd5b50600436106100be5760003560e01c80637a1a04df11610076578063cb82cc8f1161005b578063cb82cc8f146101dc578063e5afa566146101ef578063e9c3f77d1461020f576100be565b80637a1a04df14610169578063c1a3b9fa146101a7576100be565b8063392f5f64116100a7578063392f5f64146100eb578063447d52ba1461012f57806351ed6a3014610142576100be565b8063071060a6146100c357806325d5971f146100d8575b600080fd5b6100d66100d1366004610b35565b610238565b005b6100d66100e6366004610b35565b61032f565b6101127f000000000000000000000000000000000000000000000000000000000000000081565b6040516001600160a01b0390911681526020015b60405180910390f35b6100d661013d366004610b4d565b6104a5565b6101127f000000000000000000000000000000000000000000000000000000000000000081565b610197610177366004610aea565b600160209081526000928352604080842090915290825290205460ff1681565b6040519015158152602001610126565b6101ce7f000000000000000000000000000000000000000000000000000000000000000081565b604051908152602001610126565b6100d66101ea366004610b35565b6105b4565b6101ce6101fd366004610ab2565b60026020526000908152604090205481565b61011261021d366004610b35565b6000602081905290815260409020546001600160a01b031681565b6040517fb4ed0b6d000000000000000000000000000000000000000000000000000000008152600481018290527f00000000000000000000000000000000000000000000000000000000000000006001600160a01b03169063b4ed0b6d9060240160206040518083038186803b1580156102b157600080fd5b505afa1580156102c5573d6000803e3d6000fd5b505050506040513d601f19601f820116820180604052508101906102e99190610ace565b60009182526020829052604090912080547fffffffffffffffffffffffff0000000000000000000000000000000000000000166001600160a01b03909216919091179055565b33600090815260026020526040902054818110156103945760405162461bcd60e51b815260206004820152601c60248201527f4e6f7420656e6f756768207374616b6520746f2077697468647261770000000060448201526064015b60405180910390fd5b61039e8282610be3565b336000908152600260205260409020556103e9606c60009081526020527f3c1fcba39712202dbd455253568bf32dd0a3bedb5c3ff0de4b22d4e45e50dc92546001600160a01b031690565b6040517fc6c9faa100000000000000000000000000000000000000000000000000000000815260006004820152336024820152604481018490526001600160a01b03919091169063c6c9faa190606401600060405180830381600087803b15801561045357600080fd5b505af1158015610467573d6000803e3d6000fd5b506104a19250506001600160a01b037f00000000000000000000000000000000000000000000000000000000000000001690503384610737565b5050565b6040517f93552a3d000000000000000000000000000000000000000000000000000000008152600481018390526001600160a01b0382811660248301527f000000000000000000000000000000000000000000000000000000000000000016906393552a3d9060440160206040518083038186803b15801561052657600080fd5b505afa15801561053a573d6000803e3d6000fd5b505050506040513d601f19601f8201168201806040525081019061055e9190610b15565b6001600160a01b039190911660009081526001602090815260408083209483529390529190912080547fffffffffffffffffffffffffffffffffffffffffffffffffffffffffffffff0016911515919091179055565b7f000000000000000000000000000000000000000000000000000000000000000042116106235760405162461bcd60e51b815260206004820152601c60248201527f496e63656e74697665206861736e277420737461727465642079657400000000604482015260640161038b565b6106586001600160a01b037f0000000000000000000000000000000000000000000000000000000000000000163330846107e5565b606c60009081526020527f3c1fcba39712202dbd455253568bf32dd0a3bedb5c3ff0de4b22d4e45e50dc92546001600160a01b03166040517f2b5de28600000000000000000000000000000000000000000000000000000000815260006004820152336024820152604481018390526001600160a01b039190911690632b5de28690606401600060405180830381600087803b1580156106f757600080fd5b505af115801561070b573d6000803e3d6000fd5b5050336000908152600260205260408120805485945090925061072f908490610bcb565b909155505050565b6040516001600160a01b0383166024820152604481018290526107e09084907fa9059cbb00000000000000000000000000000000000000000000000000000000906064015b60408051601f198184030181529190526020810180517bffffffffffffffffffffffffffffffffffffffffffffffffffffffff167fffffffff000000000000000000000000000000000000000000000000000000009093169290921790915261083c565b505050565b6040516001600160a01b03808516602483015283166044820152606481018290526108369085907f23b872dd000000000000000000000000000000000000000000000000000000009060840161077c565b50505050565b6000610891826040518060400160405280602081526020017f5361666545524332303a206c6f772d6c6576656c2063616c6c206661696c6564815250856001600160a01b03166109219092919063ffffffff16565b8051909150156107e057808060200190518101906108af9190610b15565b6107e05760405162461bcd60e51b815260206004820152602a60248201527f5361666545524332303a204552433230206f7065726174696f6e20646964206e60448201527f6f74207375636365656400000000000000000000000000000000000000000000606482015260840161038b565b6060610930848460008561093a565b90505b9392505050565b6060824710156109b25760405162461bcd60e51b815260206004820152602660248201527f416464726573733a20696e73756666696369656e742062616c616e636520666f60448201527f722063616c6c0000000000000000000000000000000000000000000000000000606482015260840161038b565b843b610a005760405162461bcd60e51b815260206004820152601d60248201527f416464726573733a2063616c6c20746f206e6f6e2d636f6e7472616374000000604482015260640161038b565b600080866001600160a01b03168587604051610a1c9190610b7c565b60006040518083038185875af1925050503d8060008114610a59576040519150601f19603f3d011682016040523d82523d6000602084013e610a5e565b606091505b5091509150610a6e828286610a79565b979650505050505050565b60608315610a88575081610933565b825115610a985782518084602001fd5b8160405162461bcd60e51b815260040161038b9190610b98565b600060208284031215610ac3578081fd5b813561093381610c55565b600060208284031215610adf578081fd5b815161093381610c55565b60008060408385031215610afc578081fd5b8235610b0781610c55565b946020939093013593505050565b600060208284031215610b26578081fd5b81518015158114610933578182fd5b600060208284031215610b46578081fd5b5035919050565b60008060408385031215610b5f578182fd5b823591506020830135610b7181610c55565b809150509250929050565b60008251610b8e818460208701610bfa565b9190910192915050565b6000602082528251806020840152610bb7816040850160208701610bfa565b601f01601f19169190910160400192915050565b60008219821115610bde57610bde610c26565b500190565b600082821015610bf557610bf5610c26565b500390565b60005b83811015610c15578181015183820152602001610bfd565b838111156108365750506000910152565b7f4e487b7100000000000000000000000000000000000000000000000000000000600052601160045260246000fd5b6001600160a01b0381168114610c6a57600080fd5b5056fea2646970667358221220e2c344cd31af9ee67525e7691163b876c1bb8dfaf247ca18e0c4732657d051df64736f6c63430008030033",
  "linkReferences": {},
  "deployedLinkReferences": {}
}