{
  "_format": "hh-sol-artifact-1",
  "contractName": "IncentiveDistribution",
  "sourceName": "contracts/IncentiveDistribution.sol",
  "abi": [
    {
      "inputs": [
        {
          "internalType": "address",
          "name": "_MFI",
          "type": "address"
        },
        {
          "internalType": "address",
          "name": "_roles",
          "type": "address"
        }
      ],
      "stateMutability": "nonpayable",
      "type": "constructor"
    },
    {
      "inputs": [
        {
          "internalType": "address[]",
          "name": "claimants",
          "type": "address[]"
        },
        {
          "internalType": "uint256[]",
          "name": "rewards",
          "type": "uint256[]"
        }
      ],
      "name": "inputRewards",
      "outputs": [],
      "stateMutability": "nonpayable",
      "type": "function"
    },
    {
      "inputs": [
        {
          "internalType": "uint256",
          "name": "",
          "type": "uint256"
        }
      ],
      "name": "mainCharacterCache",
      "outputs": [
        {
          "internalType": "address",
          "name": "",
          "type": "address"
        }
      ],
      "stateMutability": "view",
      "type": "function"
    },
    {
      "inputs": [
        {
          "internalType": "address",
          "name": "",
          "type": "address"
        }
      ],
      "name": "rewardAmount",
      "outputs": [
        {
          "internalType": "uint256",
          "name": "",
          "type": "uint256"
        }
      ],
      "stateMutability": "view",
      "type": "function"
    },
    {
      "inputs": [
        {
          "internalType": "address",
          "name": "",
          "type": "address"
        },
        {
          "internalType": "uint256",
          "name": "",
          "type": "uint256"
        }
      ],
      "name": "roleCache",
      "outputs": [
        {
          "internalType": "bool",
          "name": "",
          "type": "bool"
        }
      ],
      "stateMutability": "view",
      "type": "function"
    },
    {
      "inputs": [],
      "name": "roles",
      "outputs": [
        {
          "internalType": "contract Roles",
          "name": "",
          "type": "address"
        }
      ],
      "stateMutability": "view",
      "type": "function"
    },
    {
      "inputs": [
        {
          "internalType": "uint256",
          "name": "role",
          "type": "uint256"
        }
      ],
      "name": "updateMainCharacterCache",
      "outputs": [],
      "stateMutability": "nonpayable",
      "type": "function"
    },
    {
      "inputs": [
        {
          "internalType": "uint256",
          "name": "role",
          "type": "uint256"
        },
        {
          "internalType": "address",
          "name": "contr",
          "type": "address"
        }
      ],
      "name": "updateRoleCache",
      "outputs": [],
      "stateMutability": "nonpayable",
      "type": "function"
    },
    {
      "inputs": [],
      "name": "withdrawReward",
      "outputs": [
        {
          "internalType": "uint256",
          "name": "withdrawAmount",
          "type": "uint256"
        }
      ],
      "stateMutability": "nonpayable",
      "type": "function"
    }
  ],
  "bytecode": "0x60c060405234801561001057600080fd5b50604051610c1d380380610c1d83398101604081905261002f916100d3565b806001600160a01b0381166100955760405162461bcd60e51b815260206004820152602260248201527f506c656173652070726f766964652076616c696420726f6c6573206164647265604482015261737360f01b606482015260840160405180910390fd5b6001600160601b0319606091821b811660805292901b90911660a05250610105565b80516001600160a01b03811681146100ce57600080fd5b919050565b600080604083850312156100e5578182fd5b6100ee836100b7565b91506100fc602084016100b7565b90509250929050565b60805160601c60a05160601c610ad261014b60003960006106da01526000818160a7015281816101f2015281816103200152818161075401526107f90152610ad26000f3fe608060405234801561001057600080fd5b50600436106100885760003560e01c80637a1a04df1161005b5780637a1a04df146101345780638f5bfb6a14610172578063c885bc5814610185578063e9c3f77d1461018d57610088565b8063071060a61461008d578063392f5f64146100a2578063447d52ba146100f3578063645a8a5614610106575b600080fd5b6100a061009b3660046109b0565b6101c3565b005b6100c97f000000000000000000000000000000000000000000000000000000000000000081565b60405173ffffffffffffffffffffffffffffffffffffffff90911681526020015b60405180910390f35b6100a06101013660046109c8565b6102d4565b6101266101143660046108bd565b60026020526000908152604090205481565b6040519081526020016100ea565b6101626101423660046108fc565b600160209081526000928352604080842090915290825290205460ff1681565b60405190151581526020016100ea565b6100a0610180366004610927565b6103fd565b610126610641565b6100c961019b3660046109b0565b60006020819052908152604090205473ffffffffffffffffffffffffffffffffffffffff1681565b6040517fb4ed0b6d000000000000000000000000000000000000000000000000000000008152600481018290527f000000000000000000000000000000000000000000000000000000000000000073ffffffffffffffffffffffffffffffffffffffff169063b4ed0b6d9060240160206040518083038186803b15801561024957600080fd5b505afa15801561025d573d6000803e3d6000fd5b505050506040513d601f19601f8201168201806040525081019061028191906108e0565b60009182526020829052604090912080547fffffffffffffffffffffffff00000000000000000000000000000000000000001673ffffffffffffffffffffffffffffffffffffffff909216919091179055565b6040517f93552a3d0000000000000000000000000000000000000000000000000000000081526004810183905273ffffffffffffffffffffffffffffffffffffffff82811660248301527f000000000000000000000000000000000000000000000000000000000000000016906393552a3d9060440160206040518083038186803b15801561036257600080fd5b505afa158015610376573d6000803e3d6000fd5b505050506040513d601f19601f8201168201806040525081019061039a9190610990565b73ffffffffffffffffffffffffffffffffffffffff9190911660009081526001602090815260408083209483529390529190912080547fffffffffffffffffffffffffffffffffffffffffffffffffffffffffffffff0016911515919091179055565b33610406610750565b73ffffffffffffffffffffffffffffffffffffffff16148061044457503361042c6107f5565b73ffffffffffffffffffffffffffffffffffffffff16145b806104ac5750336104946103e960009081526020527f236f539bf6e1b3b15a335e3cd157d360bc4be88c071635c19ba8a82b4f665e9f5473ffffffffffffffffffffffffffffffffffffffff1690565b73ffffffffffffffffffffffffffffffffffffffff16145b61053c576040517f08c379a000000000000000000000000000000000000000000000000000000000815260206004820152603860248201527f43616c6c6572206973206e6f7420746865206f776e65722c206578656375746f60448201527f72206f7220617574686f72697a65642064697361626c65720000000000000000606482015260840160405180910390fd5b60005b8084111561063a57828282818110610580577f4e487b7100000000000000000000000000000000000000000000000000000000600052603260045260246000fd5b90506020020135600260008787858181106105c4577f4e487b7100000000000000000000000000000000000000000000000000000000600052603260045260246000fd5b90506020020160208101906105d991906108bd565b73ffffffffffffffffffffffffffffffffffffffff1673ffffffffffffffffffffffffffffffffffffffff168152602001908152602001600020600082825461062291906109f7565b9091555081905061063281610a0f565b91505061053f565b5050505050565b336000908152600260205260408120805491905561069d606560009081526020527f4a7203f705e51df4a56139a9b86b4a0970bed7ab7a3446eaffe2289989c1645c5473ffffffffffffffffffffffffffffffffffffffff1690565b6040517fd9caed1200000000000000000000000000000000000000000000000000000000815273ffffffffffffffffffffffffffffffffffffffff7f00000000000000000000000000000000000000000000000000000000000000008116600483015233602483015260448201849052919091169063d9caed1290606401600060405180830381600087803b15801561073557600080fd5b505af1158015610749573d6000803e3d6000fd5b5050505090565b60007f000000000000000000000000000000000000000000000000000000000000000073ffffffffffffffffffffffffffffffffffffffff16638da5cb5b6040518163ffffffff1660e01b815260040160206040518083038186803b1580156107b857600080fd5b505afa1580156107cc573d6000803e3d6000fd5b505050506040513d601f19601f820116820180604052508101906107f091906108e0565b905090565b60007f000000000000000000000000000000000000000000000000000000000000000073ffffffffffffffffffffffffffffffffffffffff1663c34c08e56040518163ffffffff1660e01b8152600401602060405180830381600087803b15801561085f57600080fd5b505af11580156107cc573d6000803e3d6000fd5b60008083601f840112610884578182fd5b50813567ffffffffffffffff81111561089b578182fd5b6020830191508360208260051b85010111156108b657600080fd5b9250929050565b6000602082840312156108ce578081fd5b81356108d981610a77565b9392505050565b6000602082840312156108f1578081fd5b81516108d981610a77565b6000806040838503121561090e578081fd5b823561091981610a77565b946020939093013593505050565b6000806000806040858703121561093c578182fd5b843567ffffffffffffffff80821115610953578384fd5b61095f88838901610873565b90965094506020870135915080821115610977578384fd5b5061098487828801610873565b95989497509550505050565b6000602082840312156109a1578081fd5b815180151581146108d9578182fd5b6000602082840312156109c1578081fd5b5035919050565b600080604083850312156109da578182fd5b8235915060208301356109ec81610a77565b809150509250929050565b60008219821115610a0a57610a0a610a48565b500190565b60007fffffffffffffffffffffffffffffffffffffffffffffffffffffffffffffffff821415610a4157610a41610a48565b5060010190565b7f4e487b7100000000000000000000000000000000000000000000000000000000600052601160045260246000fd5b73ffffffffffffffffffffffffffffffffffffffff81168114610a9957600080fd5b5056fea2646970667358221220dbb4499ade2c95b8058140b6e43232757ab794c41c8bb569f97507939cf49ab464736f6c63430008030033",
  "linkReferences": {},
  "deployedLinkReferences": {}
}