{
  "_format": "hh-sol-artifact-1",
  "contractName": "IncentiveDistribution",
  "sourceName": "contracts/IncentiveDistribution.sol",
  "abi": [
    {
      "inputs": [
        {
          "internalType": "address",
          "name": "_MFI",
          "type": "address"
        },
        {
          "internalType": "address",
          "name": "_roles",
          "type": "address"
        }
      ],
      "stateMutability": "nonpayable",
      "type": "constructor"
    },
    {
      "anonymous": false,
      "inputs": [
        {
          "indexed": true,
          "internalType": "uint256",
          "name": "tranche",
          "type": "uint256"
        },
        {
          "indexed": true,
          "internalType": "address",
          "name": "claimant",
          "type": "address"
        },
        {
          "indexed": false,
          "internalType": "uint256",
          "name": "amount",
          "type": "uint256"
        }
      ],
      "name": "AddToClaim",
      "type": "event"
    },
    {
      "anonymous": false,
      "inputs": [
        {
          "indexed": true,
          "internalType": "uint256",
          "name": "tranche",
          "type": "uint256"
        },
        {
          "indexed": true,
          "internalType": "address",
          "name": "claimant",
          "type": "address"
        },
        {
          "indexed": false,
          "internalType": "uint256",
          "name": "amount",
          "type": "uint256"
        }
      ],
      "name": "SubtractFromClaim",
      "type": "event"
    },
    {
      "inputs": [
        {
          "internalType": "uint256",
          "name": "tranche",
          "type": "uint256"
        },
        {
          "internalType": "address",
          "name": "recipient",
          "type": "address"
        },
        {
          "internalType": "uint256",
          "name": "claimAmount",
          "type": "uint256"
        }
      ],
      "name": "addToClaimAmount",
      "outputs": [],
      "stateMutability": "nonpayable",
      "type": "function"
    },
    {
      "inputs": [
        {
          "internalType": "address[]",
          "name": "claimants",
          "type": "address[]"
        },
        {
          "internalType": "uint256[]",
          "name": "rewards",
          "type": "uint256[]"
        }
      ],
      "name": "inputRewards",
      "outputs": [],
      "stateMutability": "nonpayable",
      "type": "function"
    },
    {
      "inputs": [
        {
          "internalType": "uint256",
          "name": "",
          "type": "uint256"
        }
      ],
      "name": "mainCharacterCache",
      "outputs": [
        {
          "internalType": "address",
          "name": "",
          "type": "address"
        }
      ],
      "stateMutability": "view",
      "type": "function"
    },
    {
      "inputs": [
        {
          "internalType": "address",
          "name": "",
          "type": "address"
        }
      ],
      "name": "rewardAmount",
      "outputs": [
        {
          "internalType": "uint256",
          "name": "",
          "type": "uint256"
        }
      ],
      "stateMutability": "view",
      "type": "function"
    },
    {
      "inputs": [
        {
          "internalType": "address",
          "name": "",
          "type": "address"
        },
        {
          "internalType": "uint256",
          "name": "",
          "type": "uint256"
        }
      ],
      "name": "roleCache",
      "outputs": [
        {
          "internalType": "bool",
          "name": "",
          "type": "bool"
        }
      ],
      "stateMutability": "view",
      "type": "function"
    },
    {
      "inputs": [],
      "name": "roles",
      "outputs": [
        {
          "internalType": "contract Roles",
          "name": "",
          "type": "address"
        }
      ],
      "stateMutability": "view",
      "type": "function"
    },
    {
      "inputs": [
        {
          "internalType": "uint256",
          "name": "tranche",
          "type": "uint256"
        },
        {
          "internalType": "address",
          "name": "recipient",
          "type": "address"
        },
        {
          "internalType": "uint256",
          "name": "subtractAmount",
          "type": "uint256"
        }
      ],
      "name": "subtractFromClaimAmount",
      "outputs": [],
      "stateMutability": "nonpayable",
      "type": "function"
    },
    {
      "inputs": [
        {
          "internalType": "uint256",
          "name": "role",
          "type": "uint256"
        }
      ],
      "name": "updateMainCharacterCache",
      "outputs": [],
      "stateMutability": "nonpayable",
      "type": "function"
    },
    {
      "inputs": [
        {
          "internalType": "uint256",
          "name": "role",
          "type": "uint256"
        },
        {
          "internalType": "address",
          "name": "contr",
          "type": "address"
        }
      ],
      "name": "updateRoleCache",
      "outputs": [],
      "stateMutability": "nonpayable",
      "type": "function"
    },
    {
      "inputs": [],
      "name": "withdrawReward",
      "outputs": [
        {
          "internalType": "uint256",
          "name": "withdrawAmount",
          "type": "uint256"
        }
      ],
      "stateMutability": "nonpayable",
      "type": "function"
    }
  ],
  "bytecode": "0x60c060405234801561001057600080fd5b50604051610ea6380380610ea683398101604081905261002f916100d3565b806001600160a01b0381166100955760405162461bcd60e51b815260206004820152602260248201527f506c656173652070726f766964652076616c696420726f6c6573206164647265604482015261737360f01b606482015260840160405180910390fd5b6001600160601b0319606091821b811660805292901b90911660a05250610105565b80516001600160a01b03811681146100ce57600080fd5b919050565b600080604083850312156100e5578182fd5b6100ee836100b7565b91506100fc602084016100b7565b90509250929050565b60805160601c60a05160601c610d5b61014b600039600061092c01526000818160f00152818161024e01528181610482015281816109a60152610a4b0152610d5b6000f3fe608060405234801561001057600080fd5b50600436106100be5760003560e01c80637a1a04df11610076578063c6c9faa11161005b578063c6c9faa1146101ce578063c885bc58146101e1578063e9c3f77d146101e9576100be565b80637a1a04df1461017d5780638f5bfb6a146101bb576100be565b8063392f5f64116100a7578063392f5f64146100eb578063447d52ba1461013c578063645a8a561461014f576100be565b8063071060a6146100c35780632b5de286146100d8575b600080fd5b6100d66100d1366004610c02565b61021f565b005b6100d66100e6366004610c49565b610330565b6101127f000000000000000000000000000000000000000000000000000000000000000081565b60405173ffffffffffffffffffffffffffffffffffffffff90911681526020015b60405180910390f35b6100d661014a366004610c1a565b610436565b61016f61015d366004610b0f565b60026020526000908152604090205481565b604051908152602001610133565b6101ab61018b366004610b4e565b600160209081526000928352604080842090915290825290205460ff1681565b6040519015158152602001610133565b6100d66101c9366004610b79565b61055f565b6100d66101dc366004610c49565b61079f565b61016f610893565b6101126101f7366004610c02565b60006020819052908152604090205473ffffffffffffffffffffffffffffffffffffffff1681565b6040517fb4ed0b6d000000000000000000000000000000000000000000000000000000008152600481018290527f000000000000000000000000000000000000000000000000000000000000000073ffffffffffffffffffffffffffffffffffffffff169063b4ed0b6d9060240160206040518083038186803b1580156102a557600080fd5b505afa1580156102b9573d6000803e3d6000fd5b505050506040513d601f19601f820116820180604052508101906102dd9190610b32565b60009182526020829052604090912080547fffffffffffffffffffffffff00000000000000000000000000000000000000001673ffffffffffffffffffffffffffffffffffffffff909216919091179055565b3360009081526001602090815260408083206008845290915290205460ff166103e0576040517f08c379a000000000000000000000000000000000000000000000000000000000815260206004820152602c60248201527f436f6e7472616374206e6f7420617574686f72697a656420746f207265706f7260448201527f7420696e63656e7469766573000000000000000000000000000000000000000060648201526084015b60405180910390fd5b8173ffffffffffffffffffffffffffffffffffffffff16837fdddaae4e9888dc5ea72cc2f4d022e5eb4aa78e858f0d97a03a19858e2416e5158360405161042991815260200190565b60405180910390a3505050565b6040517f93552a3d0000000000000000000000000000000000000000000000000000000081526004810183905273ffffffffffffffffffffffffffffffffffffffff82811660248301527f000000000000000000000000000000000000000000000000000000000000000016906393552a3d9060440160206040518083038186803b1580156104c457600080fd5b505afa1580156104d8573d6000803e3d6000fd5b505050506040513d601f19601f820116820180604052508101906104fc9190610be2565b73ffffffffffffffffffffffffffffffffffffffff9190911660009081526001602090815260408083209483529390529190912080547fffffffffffffffffffffffffffffffffffffffffffffffffffffffffffffff0016911515919091179055565b336105686109a2565b73ffffffffffffffffffffffffffffffffffffffff1614806105a657503361058e610a47565b73ffffffffffffffffffffffffffffffffffffffff16145b8061060e5750336105f66103e960009081526020527f236f539bf6e1b3b15a335e3cd157d360bc4be88c071635c19ba8a82b4f665e9f5473ffffffffffffffffffffffffffffffffffffffff1690565b73ffffffffffffffffffffffffffffffffffffffff16145b61069a576040517f08c379a000000000000000000000000000000000000000000000000000000000815260206004820152603860248201527f43616c6c6572206973206e6f7420746865206f776e65722c206578656375746f60448201527f72206f7220617574686f72697a65642064697361626c6572000000000000000060648201526084016103d7565b60005b80841115610798578282828181106106de577f4e487b7100000000000000000000000000000000000000000000000000000000600052603260045260246000fd5b9050602002013560026000878785818110610722577f4e487b7100000000000000000000000000000000000000000000000000000000600052603260045260246000fd5b90506020020160208101906107379190610b0f565b73ffffffffffffffffffffffffffffffffffffffff1673ffffffffffffffffffffffffffffffffffffffff16815260200190815260200160002060008282546107809190610c80565b9091555081905061079081610c98565b91505061069d565b5050505050565b3360009081526001602090815260408083206008845290915290205460ff1661084a576040517f08c379a000000000000000000000000000000000000000000000000000000000815260206004820152602c60248201527f436f6e7472616374206e6f7420617574686f72697a656420746f207265706f7260448201527f7420696e63656e7469766573000000000000000000000000000000000000000060648201526084016103d7565b8173ffffffffffffffffffffffffffffffffffffffff16837ff2ca6e207c89384434646a56f220dd60f98cb37ca0b6ae50cb2354bc2894508e8360405161042991815260200190565b33600090815260026020526040812080549190556108ef606560009081526020527f4a7203f705e51df4a56139a9b86b4a0970bed7ab7a3446eaffe2289989c1645c5473ffffffffffffffffffffffffffffffffffffffff1690565b6040517fd9caed1200000000000000000000000000000000000000000000000000000000815273ffffffffffffffffffffffffffffffffffffffff7f00000000000000000000000000000000000000000000000000000000000000008116600483015233602483015260448201849052919091169063d9caed1290606401600060405180830381600087803b15801561098757600080fd5b505af115801561099b573d6000803e3d6000fd5b5050505090565b60007f000000000000000000000000000000000000000000000000000000000000000073ffffffffffffffffffffffffffffffffffffffff16638da5cb5b6040518163ffffffff1660e01b815260040160206040518083038186803b158015610a0a57600080fd5b505afa158015610a1e573d6000803e3d6000fd5b505050506040513d601f19601f82011682018060405250810190610a429190610b32565b905090565b60007f000000000000000000000000000000000000000000000000000000000000000073ffffffffffffffffffffffffffffffffffffffff1663c34c08e56040518163ffffffff1660e01b8152600401602060405180830381600087803b158015610ab157600080fd5b505af1158015610a1e573d6000803e3d6000fd5b60008083601f840112610ad6578182fd5b50813567ffffffffffffffff811115610aed578182fd5b6020830191508360208260051b8501011115610b0857600080fd5b9250929050565b600060208284031215610b20578081fd5b8135610b2b81610d00565b9392505050565b600060208284031215610b43578081fd5b8151610b2b81610d00565b60008060408385031215610b60578081fd5b8235610b6b81610d00565b946020939093013593505050565b60008060008060408587031215610b8e578182fd5b843567ffffffffffffffff80821115610ba5578384fd5b610bb188838901610ac5565b90965094506020870135915080821115610bc9578384fd5b50610bd687828801610ac5565b95989497509550505050565b600060208284031215610bf3578081fd5b81518015158114610b2b578182fd5b600060208284031215610c13578081fd5b5035919050565b60008060408385031215610c2c578182fd5b823591506020830135610c3e81610d00565b809150509250929050565b600080600060608486031215610c5d578283fd5b833592506020840135610c6f81610d00565b929592945050506040919091013590565b60008219821115610c9357610c93610cd1565b500190565b60007fffffffffffffffffffffffffffffffffffffffffffffffffffffffffffffffff821415610cca57610cca610cd1565b5060010190565b7f4e487b7100000000000000000000000000000000000000000000000000000000600052601160045260246000fd5b73ffffffffffffffffffffffffffffffffffffffff81168114610d2257600080fd5b5056fea26469706673582212206a6dddb39f861cb69be96ac25cf84f692f69d03b9fc6e52d2ca0a5daea9004bf64736f6c63430008030033",
  "linkReferences": {},
  "deployedLinkReferences": {}
}