{
  "_format": "hh-sol-artifact-1",
  "contractName": "IncentiveDistribution",
  "sourceName": "contracts/IncentiveDistribution.sol",
  "abi": [
    {
      "inputs": [
        {
          "internalType": "address",
          "name": "_MFI",
          "type": "address"
        },
        {
          "internalType": "address",
          "name": "_roles",
          "type": "address"
        }
      ],
      "stateMutability": "nonpayable",
      "type": "constructor"
    },
    {
      "inputs": [
        {
          "internalType": "address[]",
          "name": "claimants",
          "type": "address[]"
        },
        {
          "internalType": "uint256[]",
          "name": "rewards",
          "type": "uint256[]"
        }
      ],
      "name": "inputRewards",
      "outputs": [],
      "stateMutability": "nonpayable",
      "type": "function"
    },
    {
      "inputs": [
        {
          "internalType": "uint256",
          "name": "",
          "type": "uint256"
        }
      ],
      "name": "mainCharacterCache",
      "outputs": [
        {
          "internalType": "address",
          "name": "",
          "type": "address"
        }
      ],
      "stateMutability": "view",
      "type": "function"
    },
    {
      "inputs": [
        {
          "internalType": "address",
          "name": "",
          "type": "address"
        }
      ],
      "name": "rewardAmount",
      "outputs": [
        {
          "internalType": "uint256",
          "name": "",
          "type": "uint256"
        }
      ],
      "stateMutability": "view",
      "type": "function"
    },
    {
      "inputs": [
        {
          "internalType": "address",
          "name": "",
          "type": "address"
        },
        {
          "internalType": "uint256",
          "name": "",
          "type": "uint256"
        }
      ],
      "name": "roleCache",
      "outputs": [
        {
          "internalType": "bool",
          "name": "",
          "type": "bool"
        }
      ],
      "stateMutability": "view",
      "type": "function"
    },
    {
      "inputs": [],
      "name": "roles",
      "outputs": [
        {
          "internalType": "contract Roles",
          "name": "",
          "type": "address"
        }
      ],
      "stateMutability": "view",
      "type": "function"
    },
    {
      "inputs": [
        {
          "internalType": "uint256",
          "name": "role",
          "type": "uint256"
        }
      ],
      "name": "updateMainCharacterCache",
      "outputs": [],
      "stateMutability": "nonpayable",
      "type": "function"
    },
    {
      "inputs": [
        {
          "internalType": "uint256",
          "name": "role",
          "type": "uint256"
        },
        {
          "internalType": "address",
          "name": "contr",
          "type": "address"
        }
      ],
      "name": "updateRoleCache",
      "outputs": [],
      "stateMutability": "nonpayable",
      "type": "function"
    },
    {
      "inputs": [],
      "name": "withdrawReward",
      "outputs": [
        {
          "internalType": "uint256",
          "name": "withdrawAmount",
          "type": "uint256"
        }
      ],
      "stateMutability": "nonpayable",
      "type": "function"
    }
  ],
  "bytecode": "0x60c060405234801561001057600080fd5b50604051610a3c380380610a3c83398101604081905261002f916100d3565b806001600160a01b0381166100955760405162461bcd60e51b815260206004820152602260248201527f506c656173652070726f766964652076616c696420726f6c6573206164647265604482015261737360f01b606482015260840160405180910390fd5b6001600160601b0319606091821b811660805292901b90911660a05250610105565b80516001600160a01b03811681146100ce57600080fd5b919050565b600080604083850312156100e5578182fd5b6100ee836100b7565b91506100fc602084016100b7565b90509250929050565b60805160601c60a05160601c6108f161014b600039600061055701526000818160a7015281816101bf01528181610295015281816105d1015261066901526108f16000f3fe608060405234801561001057600080fd5b50600436106100885760003560e01c80637a1a04df1161005b5780637a1a04df146101275780638f5bfb6a14610165578063c885bc5814610178578063e9c3f77d1461018057610088565b8063071060a61461008d578063392f5f64146100a2578063447d52ba146100e6578063645a8a56146100f9575b600080fd5b6100a061009b366004610813565b6101a9565b005b6100c97f000000000000000000000000000000000000000000000000000000000000000081565b6040516001600160a01b0390911681526020015b60405180910390f35b6100a06100f436600461082b565b61026f565b610119610107366004610720565b60026020526000908152604090205481565b6040519081526020016100dd565b61015561013536600461075f565b600160209081526000928352604080842090915290825290205460ff1681565b60405190151581526020016100dd565b6100a061017336600461078a565b610347565b6101196104f1565b6100c961018e366004610813565b6000602081905290815260409020546001600160a01b031681565b60405163b4ed0b6d60e01b8152600481018290527f00000000000000000000000000000000000000000000000000000000000000006001600160a01b03169063b4ed0b6d9060240160206040518083038186803b15801561020957600080fd5b505afa15801561021d573d6000803e3d6000fd5b505050506040513d601f19601f820116820180604052508101906102419190610743565b60009182526020829052604090912080546001600160a01b0319166001600160a01b03909216919091179055565b6040516393552a3d60e01b8152600481018390526001600160a01b0382811660248301527f000000000000000000000000000000000000000000000000000000000000000016906393552a3d9060440160206040518083038186803b1580156102d757600080fd5b505afa1580156102eb573d6000803e3d6000fd5b505050506040513d601f19601f8201168201806040525081019061030f91906107f3565b6001600160a01b0391909116600090815260016020908152604080832094835293905291909120805460ff1916911515919091179055565b336103506105cd565b6001600160a01b03161480610374575033610369610665565b6001600160a01b0316145b806103c25750336103b76103e960009081526020527f236f539bf6e1b3b15a335e3cd157d360bc4be88c071635c19ba8a82b4f665e9f546001600160a01b031690565b6001600160a01b0316145b6104385760405162461bcd60e51b815260206004820152603860248201527f43616c6c6572206973206e6f7420746865206f776e65722c206578656375746f60448201527f72206f7220617574686f72697a65642064697361626c65720000000000000000606482015260840160405180910390fd5b60005b808411156104ea5782828281811061046357634e487b7160e01b600052603260045260246000fd5b905060200201356002600087878581811061048e57634e487b7160e01b600052603260045260246000fd5b90506020020160208101906104a39190610720565b6001600160a01b03166001600160a01b0316815260200190815260200160002060008282546104d2919061085a565b909155508190506104e281610872565b91505061043b565b5050505050565b3360009081526002602052604081208054919055610540606560009081526020527f4a7203f705e51df4a56139a9b86b4a0970bed7ab7a3446eaffe2289989c1645c546001600160a01b031690565b604051636ce5768960e11b81526001600160a01b037f00000000000000000000000000000000000000000000000000000000000000008116600483015233602483015260448201849052919091169063d9caed1290606401600060405180830381600087803b1580156105b257600080fd5b505af11580156105c6573d6000803e3d6000fd5b5050505090565b60007f00000000000000000000000000000000000000000000000000000000000000006001600160a01b0316638da5cb5b6040518163ffffffff1660e01b815260040160206040518083038186803b15801561062857600080fd5b505afa15801561063c573d6000803e3d6000fd5b505050506040513d601f19601f820116820180604052508101906106609190610743565b905090565b60007f00000000000000000000000000000000000000000000000000000000000000006001600160a01b031663c34c08e56040518163ffffffff1660e01b8152600401602060405180830381600087803b1580156106c257600080fd5b505af115801561063c573d6000803e3d6000fd5b60008083601f8401126106e7578182fd5b50813567ffffffffffffffff8111156106fe578182fd5b6020830191508360208260051b850101111561071957600080fd5b9250929050565b600060208284031215610731578081fd5b813561073c816108a3565b9392505050565b600060208284031215610754578081fd5b815161073c816108a3565b60008060408385031215610771578081fd5b823561077c816108a3565b946020939093013593505050565b6000806000806040858703121561079f578182fd5b843567ffffffffffffffff808211156107b6578384fd5b6107c2888389016106d6565b909650945060208701359150808211156107da578384fd5b506107e7878288016106d6565b95989497509550505050565b600060208284031215610804578081fd5b8151801515811461073c578182fd5b600060208284031215610824578081fd5b5035919050565b6000806040838503121561083d578182fd5b82359150602083013561084f816108a3565b809150509250929050565b6000821982111561086d5761086d61088d565b500190565b60006000198214156108865761088661088d565b5060010190565b634e487b7160e01b600052601160045260246000fd5b6001600160a01b03811681146108b857600080fd5b5056fea2646970667358221220a413b087a6abd67d90e25b62f3c9ba6de69bd867151db69a936c073988e4293964736f6c63430008030033",
  "linkReferences": {},
  "deployedLinkReferences": {}
}