{
  "_format": "hh-sol-artifact-1",
  "contractName": "IncentiveDistribution",
  "sourceName": "contracts/IncentiveDistribution.sol",
  "abi": [
    {
      "inputs": [
        {
          "internalType": "address",
          "name": "_MFI",
          "type": "address"
        },
        {
          "internalType": "uint256",
          "name": "startingDailyDistributionWithoutDecimals",
          "type": "uint256"
        },
        {
          "internalType": "address",
          "name": "_roles",
          "type": "address"
        }
      ],
      "stateMutability": "nonpayable",
      "type": "constructor"
    },
    {
      "inputs": [],
      "name": "MFI",
      "outputs": [
        {
          "internalType": "address",
          "name": "",
          "type": "address"
        }
      ],
      "stateMutability": "view",
      "type": "function"
    },
    {
      "inputs": [
        {
          "internalType": "address",
          "name": "",
          "type": "address"
        }
      ],
      "name": "accruedReward",
      "outputs": [
        {
          "internalType": "uint256",
          "name": "",
          "type": "uint256"
        }
      ],
      "stateMutability": "view",
      "type": "function"
    },
    {
      "inputs": [
        {
          "internalType": "uint256",
          "name": "tranche",
          "type": "uint256"
        },
        {
          "internalType": "address",
          "name": "recipient",
          "type": "address"
        },
        {
          "internalType": "uint256",
          "name": "claimAmount",
          "type": "uint256"
        }
      ],
      "name": "addToClaimAmount",
      "outputs": [],
      "stateMutability": "nonpayable",
      "type": "function"
    },
    {
      "inputs": [
        {
          "internalType": "uint256",
          "name": "",
          "type": "uint256"
        }
      ],
      "name": "allTranches",
      "outputs": [
        {
          "internalType": "uint256",
          "name": "",
          "type": "uint256"
        }
      ],
      "stateMutability": "view",
      "type": "function"
    },
    {
      "inputs": [],
      "name": "contractionPerMil",
      "outputs": [
        {
          "internalType": "uint256",
          "name": "",
          "type": "uint256"
        }
      ],
      "stateMutability": "view",
      "type": "function"
    },
    {
      "inputs": [],
      "name": "currentDailyDistribution",
      "outputs": [
        {
          "internalType": "uint256",
          "name": "",
          "type": "uint256"
        }
      ],
      "stateMutability": "view",
      "type": "function"
    },
    {
      "inputs": [
        {
          "internalType": "uint256",
          "name": "tranche",
          "type": "uint256"
        },
        {
          "internalType": "uint256",
          "name": "share",
          "type": "uint256"
        }
      ],
      "name": "initTranche",
      "outputs": [],
      "stateMutability": "nonpayable",
      "type": "function"
    },
    {
      "inputs": [],
      "name": "lastUpdatedDay",
      "outputs": [
        {
          "internalType": "uint256",
          "name": "",
          "type": "uint256"
        }
      ],
      "stateMutability": "view",
      "type": "function"
    },
    {
      "inputs": [
        {
          "internalType": "uint256",
          "name": "",
          "type": "uint256"
        }
      ],
      "name": "mainCharacterCache",
      "outputs": [
        {
          "internalType": "address",
          "name": "",
          "type": "address"
        }
      ],
      "stateMutability": "view",
      "type": "function"
    },
    {
      "inputs": [
        {
          "internalType": "address",
          "name": "",
          "type": "address"
        },
        {
          "internalType": "uint256",
          "name": "",
          "type": "uint256"
        }
      ],
      "name": "roleCache",
      "outputs": [
        {
          "internalType": "bool",
          "name": "",
          "type": "bool"
        }
      ],
      "stateMutability": "view",
      "type": "function"
    },
    {
      "inputs": [],
      "name": "roles",
      "outputs": [
        {
          "internalType": "contract Roles",
          "name": "",
          "type": "address"
        }
      ],
      "stateMutability": "view",
      "type": "function"
    },
    {
      "inputs": [
        {
          "internalType": "uint256",
          "name": "tranche",
          "type": "uint256"
        },
        {
          "internalType": "uint256",
          "name": "share",
          "type": "uint256"
        }
      ],
      "name": "setTrancheShare",
      "outputs": [],
      "stateMutability": "nonpayable",
      "type": "function"
    },
    {
      "inputs": [
        {
          "internalType": "uint256",
          "name": "tranche",
          "type": "uint256"
        },
        {
          "internalType": "address",
          "name": "recipient",
          "type": "address"
        },
        {
          "internalType": "uint256",
          "name": "subtractAmount",
          "type": "uint256"
        }
      ],
      "name": "subtractFromClaimAmount",
      "outputs": [],
      "stateMutability": "nonpayable",
      "type": "function"
    },
    {
      "inputs": [
        {
          "internalType": "uint256",
          "name": "",
          "type": "uint256"
        }
      ],
      "name": "trancheMetadata",
      "outputs": [
        {
          "internalType": "uint256",
          "name": "rewardShare",
          "type": "uint256"
        },
        {
          "internalType": "uint256",
          "name": "currentDayGains",
          "type": "uint256"
        },
        {
          "internalType": "uint256",
          "name": "currentDayLosses",
          "type": "uint256"
        },
        {
          "internalType": "uint256",
          "name": "tomorrowOngoingTotals",
          "type": "uint256"
        },
        {
          "internalType": "uint256",
          "name": "yesterdayOngoingTotals",
          "type": "uint256"
        },
        {
          "internalType": "uint256",
          "name": "intraDayGains",
          "type": "uint256"
        },
        {
          "internalType": "uint256",
          "name": "intraDayLosses",
          "type": "uint256"
        },
        {
          "internalType": "uint256",
          "name": "intraDayRewardGains",
          "type": "uint256"
        },
        {
          "internalType": "uint256",
          "name": "intraDayRewardLosses",
          "type": "uint256"
        },
        {
          "internalType": "uint256",
          "name": "aggregateDailyRewardRateFP",
          "type": "uint256"
        },
        {
          "internalType": "uint256",
          "name": "yesterdayRewardRateFP",
          "type": "uint256"
        }
      ],
      "stateMutability": "view",
      "type": "function"
    },
    {
      "inputs": [],
      "name": "trancheShareTotal",
      "outputs": [
        {
          "internalType": "uint256",
          "name": "",
          "type": "uint256"
        }
      ],
      "stateMutability": "view",
      "type": "function"
    },
    {
      "inputs": [
        {
          "internalType": "uint256",
          "name": "role",
          "type": "uint256"
        }
      ],
      "name": "updateMainCharacterCache",
      "outputs": [],
      "stateMutability": "nonpayable",
      "type": "function"
    },
    {
      "inputs": [
        {
          "internalType": "uint256",
          "name": "role",
          "type": "uint256"
        },
        {
          "internalType": "address",
          "name": "contr",
          "type": "address"
        }
      ],
      "name": "updateRoleCache",
      "outputs": [],
      "stateMutability": "nonpayable",
      "type": "function"
    },
    {
      "inputs": [
        {
          "internalType": "uint256",
          "name": "tranche",
          "type": "uint256"
        },
        {
          "internalType": "address",
          "name": "claimant",
          "type": "address"
        }
      ],
      "name": "viewRewardAmount",
      "outputs": [
        {
          "internalType": "uint256",
          "name": "",
          "type": "uint256"
        }
      ],
      "stateMutability": "view",
      "type": "function"
    },
    {
      "inputs": [
        {
          "internalType": "uint256[]",
          "name": "tranches",
          "type": "uint256[]"
        }
      ],
      "name": "withdrawReward",
      "outputs": [
        {
          "internalType": "uint256",
          "name": "withdrawAmount",
          "type": "uint256"
        }
      ],
      "stateMutability": "nonpayable",
      "type": "function"
    }
  ],
  "bytecode": "0x60c06040523480156200001157600080fd5b50604051620017d3380380620017d3833981016040819052620000349162000106565b806001600160a01b0381166200009b5760405162461bcd60e51b815260206004820152602260248201527f506c656173652070726f766964652076616c696420726f6c6573206164647265604482015261737360f01b606482015260840160405180910390fd5b6001600160601b0319606091821b81166080529084901b1660a052620000ca82670de0b6b3a764000062000146565b600255620000dc620151804262000172565b6006555062000193915050565b80516001600160a01b03811681146200010157600080fd5b919050565b6000806000606084860312156200011b578283fd5b6200012684620000e9565b9250602084015191506200013d60408501620000e9565b90509250925092565b60008160001904831182151516156200016d57634e487b7160e01b81526011600452602481fd5b500290565b6000826200018e57634e487b7160e01b81526012600452602481fd5b500690565b60805160601c60a05160601c6115f1620001e2600039600081816103c00152610dc501526000818161028d015281816104110152818161081101528181610e630152610efb01526115f16000f3fe608060405234801561001057600080fd5b50600436106101515760003560e01c80636138c248116100cd578063d1e8462111610081578063db38342311610066578063db3834231461037f578063e9c3f77d14610392578063ed29c12b146103bb57610151565b8063d1e8462114610363578063d5d97e781461037657610151565b8063678337f8116100b2578063678337f8146103095780637a1a04df14610312578063c6c9faa11461035057610151565b80636138c248146102ed578063614e3aed1461030057610151565b80632908244711610124578063392f5f6411610109578063392f5f6414610288578063447d52ba146102c75780635a668956146102da57610151565b806329082447146102625780632b5de2861461027557610151565b80630392991514610156578063071060a61461021657806317eef6f31461022b578063189212f014610242575b600080fd5b6101be61016436600461144a565b600560205280600052604060002060009150905080600001549080600101549080600201549080600301549080600401549080600501549080600601549080600701549080600801549080600901549080600a015490508b565b604080519b8c5260208c019a909a52988a01979097526060890195909552608088019390935260a087019190915260c086015260e0850152610100840152610120830152610140820152610160015b60405180910390f35b61022961022436600461144a565b6103e2565b005b61023460025481565b60405190815260200161020d565b610234610250366004611350565b60076020526000908152604090205481565b6102296102703660046114c8565b6104d9565b610229610283366004611491565b61064c565b6102af7f000000000000000000000000000000000000000000000000000000000000000081565b6040516001600160a01b03909116815260200161020d565b6102296102d5366004611462565b6107d2565b6102296102e83660046114c8565b6108e1565b6102346102fb366004611462565b610a0f565b6102346103e781565b61023460035481565b61034061032036600461138f565b600160209081526000928352604080842090915290825290205460ff1681565b604051901515815260200161020d565b61022961035e366004611491565b610a98565b6102346103713660046113ba565b610c00565b61023460065481565b61023461038d36600461144a565b610e3e565b6102af6103a036600461144a565b6000602081905290815260409020546001600160a01b031681565b6102af7f000000000000000000000000000000000000000000000000000000000000000081565b6040517fb4ed0b6d000000000000000000000000000000000000000000000000000000008152600481018290527f00000000000000000000000000000000000000000000000000000000000000006001600160a01b03169063b4ed0b6d9060240160206040518083038186803b15801561045b57600080fd5b505afa15801561046f573d6000803e3d6000fd5b505050506040513d601f19601f820116820180604052508101906104939190611373565b60009182526020829052604090912080547fffffffffffffffffffffffff0000000000000000000000000000000000000000166001600160a01b03909216919091179055565b336104e2610e5f565b6001600160a01b031614806105065750336104fb610ef7565b6001600160a01b0316145b8061052c57503360009081526001602090815260408083206009845290915290205460ff165b6105a35760405162461bcd60e51b815260206004820152603960248201527f43616c6c6572206973206e6f7420746865206f776e65722c206578656375746f60448201527f72206f7220617574686f72697a656420616374697661746f720000000000000060648201526084015b60405180910390fd5b60008281526005602052604090208054156106005760405162461bcd60e51b815260206004820152601b60248201527f5472616e63686520616c726561647920696e697469616c697a65640000000000604482015260640161059a565b61060a8383610f68565b64010000000060099091015550600480546001810182556000919091527f8a35acfbc15ff81a39ae7d344fd709f28e8600b4aa8c65c6b64bfe7fe36bd19b0155565b3360009081526001602090815260408083206008845290915290205460ff166106dd5760405162461bcd60e51b815260206004820152602c60248201527f436f6e7472616374206e6f7420617574686f72697a656420746f207265706f7260448201527f7420696e63656e74697665730000000000000000000000000000000000000000606482015260840161059a565b600254156107cd5760008381526005602090815260408083206001600160a01b0386168452600b81019092528220909161071a6201518042611566565b6107279062015180611534565b6107319085611515565b90508083600101600082825461074791906114e9565b90915550506002546107599082611515565b82600201600082825461076c91906114e9565b9091555061077f90508462015180611515565b83600301600082825461079291906114e9565b909155506107a39050838684610fcf565b506107b18462015180611515565b8260010160008282546107c491906114e9565b90915550505050505b505050565b6040517f93552a3d000000000000000000000000000000000000000000000000000000008152600481018390526001600160a01b0382811660248301527f000000000000000000000000000000000000000000000000000000000000000016906393552a3d9060440160206040518083038186803b15801561085357600080fd5b505afa158015610867573d6000803e3d6000fd5b505050506040513d601f19601f8201168201806040525081019061088b919061142a565b6001600160a01b039190911660009081526001602090815260408083209483529390529190912080547fffffffffffffffffffffffffffffffffffffffffffffffffffffffffffffff0016911515919091179055565b336108ea610e5f565b6001600160a01b0316148061090e575033610903610ef7565b6001600160a01b0316145b8061093457503360009081526001602090815260408083206009845290915290205460ff165b6109a65760405162461bcd60e51b815260206004820152603960248201527f43616c6c6572206973206e6f7420746865206f776e65722c206578656375746f60448201527f72206f7220617574686f72697a656420616374697661746f7200000000000000606482015260840161059a565b600082815260056020526040902054610a015760405162461bcd60e51b815260206004820152601760248201527f5472616e636865206e6f7420696e697469616c697a6564000000000000000000604482015260640161059a565b610a0b8282610f68565b5050565b60008281526005602090815260408083206001600160a01b0385168452600b8101909252822082610a408383611033565b6001600160a01b038616600090815260076020526040902054610a6391906114e9565b9050600080610a72858561107a565b909250905080610a8283856114e9565b610a8c9190611534565b98975050505050505050565b3360009081526001602090815260408083206008845290915290205460ff16610b295760405162461bcd60e51b815260206004820152602c60248201527f436f6e7472616374206e6f7420617574686f72697a656420746f207265706f7260448201527f7420696e63656e74697665730000000000000000000000000000000000000000606482015260840161059a565b6000610b386201518042611566565b610b429083611515565b60008581526005602090815260408083206001600160a01b0388168452600b8101909252822060028201805494955091939092859291610b839084906114e9565b9091555050600254610b959084611515565b816003016000828254610ba891906114e9565b90915550610bbb90508462015180611515565b826003016000828254610bce9190611534565b90915550610bdf9050828683610fcf565b50610bed8462015180611515565b8160010160008282546107c49190611534565b6000610c0a6110fb565b5033600090815260076020526040812054905b80831115610d49576000848483818110610c4757634e487b7160e01b600052603260045260246000fd5b60209081029290920135600081815260058452604080822033808452600b8201909652912091945092909150610c7f90839083610fcf565b610c8990866114e9565b9450600080610c98848461107a565b909250905080610ca883896114e9565b610cb29190611534565b96508260020154846005016000828254610ccc9190611534565b90915550506003830154600685018054600090610cea908490611534565b9250508190555081846007016000828254610d059190611534565b9250508190555080846008016000828254610d209190611534565b925050819055506000836002018190555050505050508080610d419061154b565b915050610c1d565b5033600090815260076020526040812055610d95606560009081526020527f4a7203f705e51df4a56139a9b86b4a0970bed7ab7a3446eaffe2289989c1645c546001600160a01b031690565b6040517fd9caed120000000000000000000000000000000000000000000000000000000081526001600160a01b037f00000000000000000000000000000000000000000000000000000000000000008116600483015233602483015260448201849052919091169063d9caed1290606401600060405180830381600087803b158015610e2057600080fd5b505af1158015610e34573d6000803e3d6000fd5b5050505092915050565b60048181548110610e4e57600080fd5b600091825260209091200154905081565b60007f00000000000000000000000000000000000000000000000000000000000000006001600160a01b0316638da5cb5b6040518163ffffffff1660e01b815260040160206040518083038186803b158015610eba57600080fd5b505afa158015610ece573d6000803e3d6000fd5b505050506040513d601f19601f82011682018060405250810190610ef29190611373565b905090565b60007f00000000000000000000000000000000000000000000000000000000000000006001600160a01b031663c34c08e56040518163ffffffff1660e01b8152600401602060405180830381600087803b158015610f5457600080fd5b505af1158015610ece573d6000803e3d6000fd5b60008281526005602052604090208054821115610fa7578054610f8b9083611534565b60036000828254610f9c91906114e9565b90915550610fcb9050565b8054610fb4908390611534565b60036000828254610fc59190611534565b90915550505b5550565b80546000901561101657610fe38483611033565b6001600160a01b0384166000908152600760205260408120805492935083929091906110109084906114e9565b90915550505b836009015484600a015461102a91906114e9565b90915592915050565b805460098301546000919081811115611072576401000000006110568383611534565b85600101546110659190611515565b61106f9190611501565b92505b505092915050565b6002810154600382015460009182918261109482846114e9565b11156110f25760058601546110aa9060016114e9565b60078701546110b99084611515565b6110c39190611501565b9350856006015460016110d691906114e9565b60088701546110e59083611515565b6110ef9190611501565b92505b50509250929050565b600061110a6201518042611501565b905060006006548261111c9190611534565b905060005b818110156107cd5761113161117f565b6103e86103e76002546111449190611515565b61114e9190611501565b60028190555060016006600082825461116791906114e9565b909155508190506111778161154b565b915050611121565b60005b60045481101561134d576000600482815481106111af57634e487b7160e01b600052603260045260246000fd5b90600052602060002001549050600060056000838152602001908152602001600020905060008160020154826001015483600401546111ee91906114e9565b6111f89190611534565b905060008160035484600001546002546112129190611515565b61122190640100000000611515565b61122b9190611501565b6112359190611501565b90508083600a01819055508083600901600082825461125491906114e9565b9091555050600254600184015461126b9190611515565b83600501600082825461127e91906114e9565b909155505060028054908401546112959190611515565b8360060160008282546112a891906114e9565b90915550506001830154640100000000906112c4908390611515565b6112ce9190611501565b8360070160008282546112e191906114e9565b90915550506002830154640100000000906112fd908390611515565b6113079190611501565b83600801600082825461131a91906114e9565b909155505050600382015460048301555060006001820181905560029091015550806113458161154b565b915050611182565b50565b600060208284031215611361578081fd5b813561136c816115a6565b9392505050565b600060208284031215611384578081fd5b815161136c816115a6565b600080604083850312156113a1578081fd5b82356113ac816115a6565b946020939093013593505050565b600080602083850312156113cc578182fd5b823567ffffffffffffffff808211156113e3578384fd5b818501915085601f8301126113f6578384fd5b813581811115611404578485fd5b8660208260051b8501011115611418578485fd5b60209290920196919550909350505050565b60006020828403121561143b578081fd5b8151801515811461136c578182fd5b60006020828403121561145b578081fd5b5035919050565b60008060408385031215611474578182fd5b823591506020830135611486816115a6565b809150509250929050565b6000806000606084860312156114a5578081fd5b8335925060208401356114b7816115a6565b929592945050506040919091013590565b600080604083850312156114da578182fd5b50508035926020909101359150565b600082198211156114fc576114fc61157a565b500190565b60008261151057611510611590565b500490565b600081600019048311821515161561152f5761152f61157a565b500290565b6000828210156115465761154661157a565b500390565b600060001982141561155f5761155f61157a565b5060010190565b60008261157557611575611590565b500690565b634e487b7160e01b600052601160045260246000fd5b634e487b7160e01b600052601260045260246000fd5b6001600160a01b038116811461134d57600080fdfea2646970667358221220b82e0b2d27b4a0075f3dd0d3cd926a46d386539306d556210fcf58d3b64be35964736f6c63430008030033",
  "linkReferences": {},
  "deployedLinkReferences": {}
}