{
  "_format": "hh-sol-artifact-1",
  "contractName": "IncentiveDistribution",
  "sourceName": "contracts/IncentiveDistribution.sol",
  "abi": [
    {
      "inputs": [
        {
          "internalType": "address",
          "name": "_MFI",
          "type": "address"
        },
        {
          "internalType": "uint256",
          "name": "startingDailyDistributionWithoutDecimals",
          "type": "uint256"
        },
        {
          "internalType": "address",
          "name": "_roles",
          "type": "address"
        }
      ],
      "stateMutability": "nonpayable",
      "type": "constructor"
    },
    {
      "inputs": [],
      "name": "MFI",
      "outputs": [
        {
          "internalType": "address",
          "name": "",
          "type": "address"
        }
      ],
      "stateMutability": "view",
      "type": "function"
    },
    {
      "inputs": [
        {
          "internalType": "address",
          "name": "",
          "type": "address"
        }
      ],
      "name": "accruedReward",
      "outputs": [
        {
          "internalType": "uint256",
          "name": "",
          "type": "uint256"
        }
      ],
      "stateMutability": "view",
      "type": "function"
    },
    {
      "inputs": [
        {
          "internalType": "uint256",
          "name": "tranche",
          "type": "uint256"
        },
        {
          "internalType": "address",
          "name": "recipient",
          "type": "address"
        },
        {
          "internalType": "uint256",
          "name": "claimAmount",
          "type": "uint256"
        }
      ],
      "name": "addToClaimAmount",
      "outputs": [],
      "stateMutability": "nonpayable",
      "type": "function"
    },
    {
      "inputs": [
        {
          "internalType": "uint256",
          "name": "",
          "type": "uint256"
        }
      ],
      "name": "allTranches",
      "outputs": [
        {
          "internalType": "uint256",
          "name": "",
          "type": "uint256"
        }
      ],
      "stateMutability": "view",
      "type": "function"
    },
    {
      "inputs": [],
      "name": "contractionPerMil",
      "outputs": [
        {
          "internalType": "uint256",
          "name": "",
          "type": "uint256"
        }
      ],
      "stateMutability": "view",
      "type": "function"
    },
    {
      "inputs": [],
      "name": "currentDailyDistribution",
      "outputs": [
        {
          "internalType": "uint256",
          "name": "",
          "type": "uint256"
        }
      ],
      "stateMutability": "view",
      "type": "function"
    },
    {
      "inputs": [
        {
          "internalType": "uint256",
          "name": "tranche",
          "type": "uint256"
        },
        {
          "internalType": "uint256",
          "name": "share",
          "type": "uint256"
        }
      ],
      "name": "initTranche",
      "outputs": [],
      "stateMutability": "nonpayable",
      "type": "function"
    },
    {
      "inputs": [],
      "name": "lastUpdatedDay",
      "outputs": [
        {
          "internalType": "uint256",
          "name": "",
          "type": "uint256"
        }
      ],
      "stateMutability": "view",
      "type": "function"
    },
    {
      "inputs": [
        {
          "internalType": "uint256",
          "name": "",
          "type": "uint256"
        }
      ],
      "name": "mainCharacterCache",
      "outputs": [
        {
          "internalType": "address",
          "name": "",
          "type": "address"
        }
      ],
      "stateMutability": "view",
      "type": "function"
    },
    {
      "inputs": [
        {
          "internalType": "address",
          "name": "",
          "type": "address"
        },
        {
          "internalType": "uint256",
          "name": "",
          "type": "uint256"
        }
      ],
      "name": "roleCache",
      "outputs": [
        {
          "internalType": "bool",
          "name": "",
          "type": "bool"
        }
      ],
      "stateMutability": "view",
      "type": "function"
    },
    {
      "inputs": [],
      "name": "roles",
      "outputs": [
        {
          "internalType": "contract Roles",
          "name": "",
          "type": "address"
        }
      ],
      "stateMutability": "view",
      "type": "function"
    },
    {
      "inputs": [
        {
          "internalType": "uint256",
          "name": "tranche",
          "type": "uint256"
        },
        {
          "internalType": "uint256",
          "name": "share",
          "type": "uint256"
        }
      ],
      "name": "setTrancheShare",
      "outputs": [],
      "stateMutability": "nonpayable",
      "type": "function"
    },
    {
      "inputs": [
        {
          "internalType": "uint256",
          "name": "tranche",
          "type": "uint256"
        },
        {
          "internalType": "address",
          "name": "recipient",
          "type": "address"
        },
        {
          "internalType": "uint256",
          "name": "subtractAmount",
          "type": "uint256"
        }
      ],
      "name": "subtractFromClaimAmount",
      "outputs": [],
      "stateMutability": "nonpayable",
      "type": "function"
    },
    {
      "inputs": [
        {
          "internalType": "uint256",
          "name": "",
          "type": "uint256"
        }
      ],
      "name": "trancheMetadata",
      "outputs": [
        {
          "internalType": "uint256",
          "name": "rewardShare",
          "type": "uint256"
        },
        {
          "internalType": "uint256",
          "name": "currentDayGains",
          "type": "uint256"
        },
        {
          "internalType": "uint256",
          "name": "currentDayLosses",
          "type": "uint256"
        },
        {
          "internalType": "uint256",
          "name": "tomorrowOngoingTotals",
          "type": "uint256"
        },
        {
          "internalType": "uint256",
          "name": "yesterdayOngoingTotals",
          "type": "uint256"
        },
        {
          "internalType": "uint256",
          "name": "intraDayGains",
          "type": "uint256"
        },
        {
          "internalType": "uint256",
          "name": "intraDayLosses",
          "type": "uint256"
        },
        {
          "internalType": "uint256",
          "name": "intraDayRewardGains",
          "type": "uint256"
        },
        {
          "internalType": "uint256",
          "name": "intraDayRewardLosses",
          "type": "uint256"
        },
        {
          "internalType": "uint256",
          "name": "aggregateDailyRewardRateFP",
          "type": "uint256"
        },
        {
          "internalType": "uint256",
          "name": "yesterdayRewardRateFP",
          "type": "uint256"
        }
      ],
      "stateMutability": "view",
      "type": "function"
    },
    {
      "inputs": [],
      "name": "trancheShareTotal",
      "outputs": [
        {
          "internalType": "uint256",
          "name": "",
          "type": "uint256"
        }
      ],
      "stateMutability": "view",
      "type": "function"
    },
    {
      "inputs": [
        {
          "internalType": "uint256",
          "name": "role",
          "type": "uint256"
        }
      ],
      "name": "updateMainCharacterCache",
      "outputs": [],
      "stateMutability": "nonpayable",
      "type": "function"
    },
    {
      "inputs": [
        {
          "internalType": "uint256",
          "name": "role",
          "type": "uint256"
        },
        {
          "internalType": "address",
          "name": "contr",
          "type": "address"
        }
      ],
      "name": "updateRoleCache",
      "outputs": [],
      "stateMutability": "nonpayable",
      "type": "function"
    },
    {
      "inputs": [
        {
          "internalType": "uint256",
          "name": "tranche",
          "type": "uint256"
        },
        {
          "internalType": "address",
          "name": "claimant",
          "type": "address"
        }
      ],
      "name": "viewRewardAmount",
      "outputs": [
        {
          "internalType": "uint256",
          "name": "",
          "type": "uint256"
        }
      ],
      "stateMutability": "view",
      "type": "function"
    },
    {
      "inputs": [
        {
          "internalType": "uint256[]",
          "name": "tranches",
          "type": "uint256[]"
        }
      ],
      "name": "withdrawReward",
      "outputs": [
        {
          "internalType": "uint256",
          "name": "withdrawAmount",
          "type": "uint256"
        }
      ],
      "stateMutability": "nonpayable",
      "type": "function"
    }
  ],
  "bytecode": "0x60c06040523480156200001157600080fd5b5060405162001804380380620018048339810160408190526200003491620000f4565b806001600160a01b0381166200009b5760405162461bcd60e51b815260206004820152602260248201527f506c656173652070726f766964652076616c696420726f6c6573206164647265604482015261737360f01b606482015260840160405180910390fd5b6001600160601b0319606091821b81166080529084901b1660a052620000ca82670de0b6b3a764000062000134565b6002555062000160915050565b80516001600160a01b0381168114620000ef57600080fd5b919050565b60008060006060848603121562000109578283fd5b6200011484620000d7565b9250602084015191506200012b60408501620000d7565b90509250925092565b60008160001904831182151516156200015b57634e487b7160e01b81526011600452602481fd5b500290565b60805160601c60a05160601c611655620001af600039600081816103c00152610e2901526000818161028d015281816104110152818161080001528181610ec70152610f5f01526116556000f3fe608060405234801561001057600080fd5b50600436106101515760003560e01c80636138c248116100cd578063d1e8462111610081578063db38342311610066578063db3834231461037f578063e9c3f77d14610392578063ed29c12b146103bb57610151565b8063d1e8462114610363578063d5d97e781461037657610151565b8063678337f8116100b2578063678337f8146103095780637a1a04df14610312578063c6c9faa11461035057610151565b80636138c248146102ed578063614e3aed1461030057610151565b80632908244711610124578063392f5f6411610109578063392f5f6414610288578063447d52ba146102c75780635a668956146102da57610151565b806329082447146102625780632b5de2861461027557610151565b80630392991514610156578063071060a61461021657806317eef6f31461022b578063189212f014610242575b600080fd5b6101be6101643660046114ae565b600560205280600052604060002060009150905080600001549080600101549080600201549080600301549080600401549080600501549080600601549080600701549080600801549080600901549080600a015490508b565b604080519b8c5260208c019a909a52988a01979097526060890195909552608088019390935260a087019190915260c086015260e0850152610100840152610120830152610140820152610160015b60405180910390f35b6102296102243660046114ae565b6103e2565b005b61023460025481565b60405190815260200161020d565b6102346102503660046113b4565b60076020526000908152604090205481565b61022961027036600461152c565b6104d9565b6102296102833660046114f5565b61064c565b6102af7f000000000000000000000000000000000000000000000000000000000000000081565b6040516001600160a01b03909116815260200161020d565b6102296102d53660046114c6565b6107c1565b6102296102e836600461152c565b6108b2565b6102346102fb3660046114c6565b610a06565b6102346103e781565b61023460035481565b6103406103203660046113f3565b600160209081526000928352604080842090915290825290205460ff1681565b604051901515815260200161020d565b61022961035e3660046114f5565b610a8f565b61023461037136600461141e565b610be6565b61023460065481565b61023461038d3660046114ae565b610ea2565b6102af6103a03660046114ae565b6000602081905290815260409020546001600160a01b031681565b6102af7f000000000000000000000000000000000000000000000000000000000000000081565b6040517fb4ed0b6d000000000000000000000000000000000000000000000000000000008152600481018290527f00000000000000000000000000000000000000000000000000000000000000006001600160a01b03169063b4ed0b6d9060240160206040518083038186803b15801561045b57600080fd5b505afa15801561046f573d6000803e3d6000fd5b505050506040513d601f19601f8201168201806040525081019061049391906113d7565b60009182526020829052604090912080547fffffffffffffffffffffffff0000000000000000000000000000000000000000166001600160a01b03909216919091179055565b336104e2610ec3565b6001600160a01b031614806105065750336104fb610f5b565b6001600160a01b0316145b8061052c57503360009081526001602090815260408083206009845290915290205460ff165b6105a35760405162461bcd60e51b815260206004820152603960248201527f43616c6c6572206973206e6f7420746865206f776e65722c206578656375746f60448201527f72206f7220617574686f72697a656420616374697661746f720000000000000060648201526084015b60405180910390fd5b60008281526005602052604090208054156106005760405162461bcd60e51b815260206004820152601b60248201527f5472616e63686520616c726561647920696e697469616c697a65640000000000604482015260640161059a565b61060a8383610fcc565b64010000000060099091015550600480546001810182556000919091527f8a35acfbc15ff81a39ae7d344fd709f28e8600b4aa8c65c6b64bfe7fe36bd19b0155565b3360009081526001602090815260408083206008845290915290205460ff166106cc5760405162461bcd60e51b815260206004820152602c60248201527f436f6e7472616374206e6f7420617574686f72697a656420746f207265706f7260448201526b7420696e63656e746976657360a01b606482015260840161059a565b600254156107bc5760008381526005602090815260408083206001600160a01b0386168452600b81019092528220909161070962015180426115ca565b6107169062015180611598565b6107209085611579565b905080836001016000828254610736919061154d565b90915550506002546107489082611579565b82600201600082825461075b919061154d565b9091555061076e90508462015180611579565b836003016000828254610781919061154d565b909155506107929050838684611033565b506107a08462015180611579565b8260010160008282546107b3919061154d565b90915550505050505b505050565b6040517f93552a3d000000000000000000000000000000000000000000000000000000008152600481018390526001600160a01b0382811660248301527f000000000000000000000000000000000000000000000000000000000000000016906393552a3d9060440160206040518083038186803b15801561084257600080fd5b505afa158015610856573d6000803e3d6000fd5b505050506040513d601f19601f8201168201806040525081019061087a919061148e565b6001600160a01b0391909116600090815260016020908152604080832094835293905291909120805460ff1916911515919091179055565b336108bb610ec3565b6001600160a01b031614806108df5750336108d4610f5b565b6001600160a01b0316145b8061090557503360009081526001602090815260408083206009845290915290205460ff165b6109775760405162461bcd60e51b815260206004820152603960248201527f43616c6c6572206973206e6f7420746865206f776e65722c206578656375746f60448201527f72206f7220617574686f72697a656420616374697661746f7200000000000000606482015260840161059a565b6000828152600560205260409020546109f85760405162461bcd60e51b815260206004820152603360248201527f5472616e636865206973206e6f7420696e697469616c697a65642c20706c656160448201527f736520696e697469616c697a6520666972737400000000000000000000000000606482015260840161059a565b610a028282610fcc565b5050565b60008281526005602090815260408083206001600160a01b0385168452600b8101909252822082610a378383611097565b6001600160a01b038616600090815260076020526040902054610a5a919061154d565b9050600080610a6985856110de565b909250905080610a79838561154d565b610a839190611598565b98975050505050505050565b3360009081526001602090815260408083206008845290915290205460ff16610b0f5760405162461bcd60e51b815260206004820152602c60248201527f436f6e7472616374206e6f7420617574686f72697a656420746f207265706f7260448201526b7420696e63656e746976657360a01b606482015260840161059a565b6000610b1e62015180426115ca565b610b289083611579565b60008581526005602090815260408083206001600160a01b0388168452600b8101909252822060028201805494955091939092859291610b6990849061154d565b9091555050600254610b7b9084611579565b816003016000828254610b8e919061154d565b90915550610ba190508462015180611579565b826003016000828254610bb49190611598565b90915550610bc59050828683611033565b50610bd38462015180611579565b8160010160008282546107b39190611598565b3360009081526001602090815260408083206008845290915281205460ff16610c665760405162461bcd60e51b815260206004820152602c60248201527f436f6e7472616374206e6f7420617574686f72697a656420746f207265706f7260448201526b7420696e63656e746976657360a01b606482015260840161059a565b610c6e61115f565b5033600090815260076020526040812054905b80831115610dad576000848483818110610cab57634e487b7160e01b600052603260045260246000fd5b60209081029290920135600081815260058452604080822033808452600b8201909652912091945092909150610ce390839083611033565b610ced908661154d565b9450600080610cfc84846110de565b909250905080610d0c838961154d565b610d169190611598565b96508260020154846005016000828254610d309190611598565b90915550506003830154600685018054600090610d4e908490611598565b9250508190555081846007016000828254610d699190611598565b9250508190555080846008016000828254610d849190611598565b925050819055506000836002018190555050505050508080610da5906115af565b915050610c81565b5033600090815260076020526040812055610df9606560009081526020527f4a7203f705e51df4a56139a9b86b4a0970bed7ab7a3446eaffe2289989c1645c546001600160a01b031690565b6040517fd9caed120000000000000000000000000000000000000000000000000000000081526001600160a01b037f00000000000000000000000000000000000000000000000000000000000000008116600483015233602483015260448201849052919091169063d9caed1290606401600060405180830381600087803b158015610e8457600080fd5b505af1158015610e98573d6000803e3d6000fd5b5050505092915050565b60048181548110610eb257600080fd5b600091825260209091200154905081565b60007f00000000000000000000000000000000000000000000000000000000000000006001600160a01b0316638da5cb5b6040518163ffffffff1660e01b815260040160206040518083038186803b158015610f1e57600080fd5b505afa158015610f32573d6000803e3d6000fd5b505050506040513d601f19601f82011682018060405250810190610f5691906113d7565b905090565b60007f00000000000000000000000000000000000000000000000000000000000000006001600160a01b031663c34c08e56040518163ffffffff1660e01b8152600401602060405180830381600087803b158015610fb857600080fd5b505af1158015610f32573d6000803e3d6000fd5b6000828152600560205260409020805482111561100b578054610fef9083611598565b60036000828254611000919061154d565b9091555061102f9050565b8054611018908390611598565b600360008282546110299190611598565b90915550505b5550565b80546000901561107a576110478483611097565b6001600160a01b03841660009081526007602052604081208054929350839290919061107490849061154d565b90915550505b836009015484600a015461108e919061154d565b90915592915050565b8054600983015460009190818111156110d6576401000000006110ba8383611598565b85600101546110c99190611579565b6110d39190611565565b92505b505092915050565b600281015460038201546000918291826110f8828461154d565b111561115657600586015461110e90600161154d565b600787015461111d9084611579565b6111279190611565565b93508560060154600161113a919061154d565b60088701546111499083611579565b6111539190611565565b92505b50509250929050565b600061116e6201518042611565565b90506000600654826111809190611598565b905060005b818110156107bc576111956111e3565b6103e86103e76002546111a89190611579565b6111b29190611565565b6002819055506001600660008282546111cb919061154d565b909155508190506111db816115af565b915050611185565b60005b6004548110156113b15760006004828154811061121357634e487b7160e01b600052603260045260246000fd5b9060005260206000200154905060006005600083815260200190815260200160002090506000816002015482600101548360040154611252919061154d565b61125c9190611598565b905060008160035484600001546002546112769190611579565b61128590640100000000611579565b61128f9190611565565b6112999190611565565b90508083600a0181905550808360090160008282546112b8919061154d565b909155505060025460018401546112cf9190611579565b8360050160008282546112e2919061154d565b909155505060028054908401546112f99190611579565b83600601600082825461130c919061154d565b9091555050600183015464010000000090611328908390611579565b6113329190611565565b836007016000828254611345919061154d565b9091555050600283015464010000000090611361908390611579565b61136b9190611565565b83600801600082825461137e919061154d565b909155505050600382015460048301555060006001820181905560029091015550806113a9816115af565b9150506111e6565b50565b6000602082840312156113c5578081fd5b81356113d08161160a565b9392505050565b6000602082840312156113e8578081fd5b81516113d08161160a565b60008060408385031215611405578081fd5b82356114108161160a565b946020939093013593505050565b60008060208385031215611430578182fd5b823567ffffffffffffffff80821115611447578384fd5b818501915085601f83011261145a578384fd5b813581811115611468578485fd5b8660208260051b850101111561147c578485fd5b60209290920196919550909350505050565b60006020828403121561149f578081fd5b815180151581146113d0578182fd5b6000602082840312156114bf578081fd5b5035919050565b600080604083850312156114d8578182fd5b8235915060208301356114ea8161160a565b809150509250929050565b600080600060608486031215611509578081fd5b83359250602084013561151b8161160a565b929592945050506040919091013590565b6000806040838503121561153e578182fd5b50508035926020909101359150565b60008219821115611560576115606115de565b500190565b600082611574576115746115f4565b500490565b6000816000190483118215151615611593576115936115de565b500290565b6000828210156115aa576115aa6115de565b500390565b60006000198214156115c3576115c36115de565b5060010190565b6000826115d9576115d96115f4565b500690565b634e487b7160e01b600052601160045260246000fd5b634e487b7160e01b600052601260045260246000fd5b6001600160a01b03811681146113b157600080fdfea264697066735822122068d00f3a326f996fab82ce00ac4142971c6849518e37630fe2cccb1c28ca83ea64736f6c63430008030033",
  "linkReferences": {},
  "deployedLinkReferences": {}
}