{
  "_format": "hh-sol-artifact-1",
  "contractName": "MarginRouter",
  "sourceName": "contracts/MarginRouter.sol",
  "abi": [
    {
      "inputs": [
        {
          "internalType": "address",
          "name": "_WETH",
          "type": "address"
        },
        {
          "internalType": "address",
          "name": "_amm1Factory",
          "type": "address"
        },
        {
          "internalType": "address",
          "name": "_amm2Factory",
          "type": "address"
        },
        {
          "internalType": "address",
          "name": "_amm3Factory",
          "type": "address"
        },
        {
          "internalType": "bytes32",
          "name": "_amm1InitHash",
          "type": "bytes32"
        },
        {
          "internalType": "bytes32",
          "name": "_amm2InitHash",
          "type": "bytes32"
        },
        {
          "internalType": "bytes32",
          "name": "_amm3InitHash",
          "type": "bytes32"
        },
        {
          "internalType": "uint256",
          "name": "_feeBase",
          "type": "uint256"
        },
        {
          "internalType": "address",
          "name": "_feeRecipient",
          "type": "address"
        },
        {
          "internalType": "address",
          "name": "_roles",
          "type": "address"
        }
      ],
      "stateMutability": "nonpayable",
      "type": "constructor"
    },
    {
      "anonymous": false,
      "inputs": [
        {
          "indexed": true,
          "internalType": "address",
          "name": "trader",
          "type": "address"
        }
      ],
      "name": "AccountUpdated",
      "type": "event"
    },
    {
      "anonymous": false,
      "inputs": [
        {
          "indexed": true,
          "internalType": "address",
          "name": "trader",
          "type": "address"
        },
        {
          "indexed": false,
          "internalType": "address",
          "name": "fromToken",
          "type": "address"
        },
        {
          "indexed": false,
          "internalType": "address",
          "name": "toToken",
          "type": "address"
        },
        {
          "indexed": false,
          "internalType": "uint256",
          "name": "fromAmount",
          "type": "uint256"
        },
        {
          "indexed": false,
          "internalType": "uint256",
          "name": "toAmount",
          "type": "uint256"
        }
      ],
      "name": "MarginTrade",
      "type": "event"
    },
    {
      "inputs": [],
      "name": "WETH",
      "outputs": [
        {
          "internalType": "address",
          "name": "",
          "type": "address"
        }
      ],
      "stateMutability": "view",
      "type": "function"
    },
    {
      "inputs": [],
      "name": "amm1Factory",
      "outputs": [
        {
          "internalType": "address",
          "name": "",
          "type": "address"
        }
      ],
      "stateMutability": "view",
      "type": "function"
    },
    {
      "inputs": [],
      "name": "amm1InitHash",
      "outputs": [
        {
          "internalType": "bytes32",
          "name": "",
          "type": "bytes32"
        }
      ],
      "stateMutability": "view",
      "type": "function"
    },
    {
      "inputs": [],
      "name": "amm2Factory",
      "outputs": [
        {
          "internalType": "address",
          "name": "",
          "type": "address"
        }
      ],
      "stateMutability": "view",
      "type": "function"
    },
    {
      "inputs": [],
      "name": "amm2InitHash",
      "outputs": [
        {
          "internalType": "bytes32",
          "name": "",
          "type": "bytes32"
        }
      ],
      "stateMutability": "view",
      "type": "function"
    },
    {
      "inputs": [],
      "name": "amm3Factory",
      "outputs": [
        {
          "internalType": "address",
          "name": "",
          "type": "address"
        }
      ],
      "stateMutability": "view",
      "type": "function"
    },
    {
      "inputs": [],
      "name": "amm3InitHash",
      "outputs": [
        {
          "internalType": "bytes32",
          "name": "",
          "type": "bytes32"
        }
      ],
      "stateMutability": "view",
      "type": "function"
    },
    {
      "inputs": [
        {
          "internalType": "uint256",
          "name": "amountIn",
          "type": "uint256"
        },
        {
          "internalType": "uint256",
          "name": "amountOutMin",
          "type": "uint256"
        },
        {
          "internalType": "bytes32",
          "name": "amms",
          "type": "bytes32"
        },
        {
          "internalType": "address[]",
          "name": "tokens",
          "type": "address[]"
        }
      ],
      "name": "authorizedSwapExactT4T",
      "outputs": [
        {
          "internalType": "uint256[]",
          "name": "amounts",
          "type": "uint256[]"
        }
      ],
      "stateMutability": "nonpayable",
      "type": "function"
    },
    {
      "inputs": [
        {
          "internalType": "uint256",
          "name": "amountOut",
          "type": "uint256"
        },
        {
          "internalType": "uint256",
          "name": "amountInMax",
          "type": "uint256"
        },
        {
          "internalType": "bytes32",
          "name": "amms",
          "type": "bytes32"
        },
        {
          "internalType": "address[]",
          "name": "tokens",
          "type": "address[]"
        }
      ],
      "name": "authorizedSwapT4ExactT",
      "outputs": [
        {
          "internalType": "uint256[]",
          "name": "amounts",
          "type": "uint256[]"
        }
      ],
      "stateMutability": "nonpayable",
      "type": "function"
    },
    {
      "inputs": [
        {
          "internalType": "address",
          "name": "borrowToken",
          "type": "address"
        },
        {
          "internalType": "uint256",
          "name": "borrowAmount",
          "type": "uint256"
        }
      ],
      "name": "crossBorrow",
      "outputs": [],
      "stateMutability": "nonpayable",
      "type": "function"
    },
    {
      "inputs": [],
      "name": "crossCloseAccount",
      "outputs": [],
      "stateMutability": "nonpayable",
      "type": "function"
    },
    {
      "inputs": [
        {
          "internalType": "address",
          "name": "depositToken",
          "type": "address"
        },
        {
          "internalType": "uint256",
          "name": "depositAmount",
          "type": "uint256"
        }
      ],
      "name": "crossDeposit",
      "outputs": [],
      "stateMutability": "nonpayable",
      "type": "function"
    },
    {
      "inputs": [],
      "name": "crossDepositETH",
      "outputs": [],
      "stateMutability": "payable",
      "type": "function"
    },
    {
      "inputs": [
        {
          "internalType": "address",
          "name": "depositToken",
          "type": "address"
        },
        {
          "internalType": "uint256",
          "name": "depositAmount",
          "type": "uint256"
        },
        {
          "internalType": "address",
          "name": "borrowToken",
          "type": "address"
        },
        {
          "internalType": "uint256",
          "name": "withdrawAmount",
          "type": "uint256"
        }
      ],
      "name": "crossOvercollateralizedBorrow",
      "outputs": [],
      "stateMutability": "nonpayable",
      "type": "function"
    },
    {
      "inputs": [
        {
          "internalType": "address",
          "name": "withdrawToken",
          "type": "address"
        },
        {
          "internalType": "uint256",
          "name": "withdrawAmount",
          "type": "uint256"
        }
      ],
      "name": "crossWithdraw",
      "outputs": [],
      "stateMutability": "nonpayable",
      "type": "function"
    },
    {
      "inputs": [
        {
          "internalType": "uint256",
          "name": "withdrawAmount",
          "type": "uint256"
        }
      ],
      "name": "crossWithdrawETH",
      "outputs": [],
      "stateMutability": "nonpayable",
      "type": "function"
    },
    {
      "inputs": [],
      "name": "feeBase",
      "outputs": [
        {
          "internalType": "uint256",
          "name": "",
          "type": "uint256"
        }
      ],
      "stateMutability": "view",
      "type": "function"
    },
    {
      "inputs": [],
      "name": "feeRecipient",
      "outputs": [
        {
          "internalType": "address",
          "name": "",
          "type": "address"
        }
      ],
      "stateMutability": "view",
      "type": "function"
    },
    {
      "inputs": [
        {
          "internalType": "uint256",
          "name": "outAmount",
          "type": "uint256"
        },
        {
          "internalType": "bytes32",
          "name": "amms",
          "type": "bytes32"
        },
        {
          "internalType": "address[]",
          "name": "tokens",
          "type": "address[]"
        }
      ],
      "name": "getAmountsIn",
      "outputs": [
        {
          "internalType": "uint256[]",
          "name": "amounts",
          "type": "uint256[]"
        }
      ],
      "stateMutability": "view",
      "type": "function"
    },
    {
      "inputs": [
        {
          "internalType": "uint256",
          "name": "inAmount",
          "type": "uint256"
        },
        {
          "internalType": "bytes32",
          "name": "amms",
          "type": "bytes32"
        },
        {
          "internalType": "address[]",
          "name": "tokens",
          "type": "address[]"
        }
      ],
      "name": "getAmountsOut",
      "outputs": [
        {
          "internalType": "uint256[]",
          "name": "amounts",
          "type": "uint256[]"
        }
      ],
      "stateMutability": "view",
      "type": "function"
    },
    {
      "inputs": [
        {
          "internalType": "uint256",
          "name": "",
          "type": "uint256"
        }
      ],
      "name": "mainCharacterCache",
      "outputs": [
        {
          "internalType": "address",
          "name": "",
          "type": "address"
        }
      ],
      "stateMutability": "view",
      "type": "function"
    },
    {
      "inputs": [],
      "name": "mswapFeesPer10k",
      "outputs": [
        {
          "internalType": "uint256",
          "name": "",
          "type": "uint256"
        }
      ],
      "stateMutability": "view",
      "type": "function"
    },
    {
      "inputs": [
        {
          "internalType": "address",
          "name": "",
          "type": "address"
        },
        {
          "internalType": "uint256",
          "name": "",
          "type": "uint256"
        }
      ],
      "name": "roleCache",
      "outputs": [
        {
          "internalType": "bool",
          "name": "",
          "type": "bool"
        }
      ],
      "stateMutability": "view",
      "type": "function"
    },
    {
      "inputs": [],
      "name": "roles",
      "outputs": [
        {
          "internalType": "contract Roles",
          "name": "",
          "type": "address"
        }
      ],
      "stateMutability": "view",
      "type": "function"
    },
    {
      "inputs": [
        {
          "internalType": "address",
          "name": "recipient",
          "type": "address"
        }
      ],
      "name": "setFeeRecipient",
      "outputs": [],
      "stateMutability": "nonpayable",
      "type": "function"
    },
    {
      "inputs": [
        {
          "internalType": "uint256",
          "name": "amountIn",
          "type": "uint256"
        },
        {
          "internalType": "uint256",
          "name": "amountOutMin",
          "type": "uint256"
        },
        {
          "internalType": "bytes32",
          "name": "amms",
          "type": "bytes32"
        },
        {
          "internalType": "address[]",
          "name": "tokens",
          "type": "address[]"
        },
        {
          "internalType": "uint256",
          "name": "deadline",
          "type": "uint256"
        }
      ],
      "name": "swapExactTokensForTokens",
      "outputs": [
        {
          "internalType": "uint256[]",
          "name": "amounts",
          "type": "uint256[]"
        }
      ],
      "stateMutability": "nonpayable",
      "type": "function"
    },
    {
      "inputs": [
        {
          "internalType": "uint256",
          "name": "amountOut",
          "type": "uint256"
        },
        {
          "internalType": "uint256",
          "name": "amountInMax",
          "type": "uint256"
        },
        {
          "internalType": "bytes32",
          "name": "amms",
          "type": "bytes32"
        },
        {
          "internalType": "address[]",
          "name": "tokens",
          "type": "address[]"
        },
        {
          "internalType": "uint256",
          "name": "deadline",
          "type": "uint256"
        }
      ],
      "name": "swapTokensForExactTokens",
      "outputs": [
        {
          "internalType": "uint256[]",
          "name": "amounts",
          "type": "uint256[]"
        }
      ],
      "stateMutability": "nonpayable",
      "type": "function"
    },
    {
      "inputs": [
        {
          "internalType": "uint256",
          "name": "role",
          "type": "uint256"
        }
      ],
      "name": "updateMainCharacterCache",
      "outputs": [],
      "stateMutability": "nonpayable",
      "type": "function"
    },
    {
      "inputs": [
        {
          "internalType": "uint256",
          "name": "role",
          "type": "uint256"
        },
        {
          "internalType": "address",
          "name": "contr",
          "type": "address"
        }
      ],
      "name": "updateRoleCache",
      "outputs": [],
      "stateMutability": "nonpayable",
      "type": "function"
    }
  ],
  "bytecode": "0x6101406040523480156200001257600080fd5b50604051620038f6380380620038f6833981016040819052620000359162000136565b88888888888888876001600160a01b038116620000a35760405162461bcd60e51b815260206004820152602260248201527f506c656173652070726f766964652076616c696420726f6c6573206164647265604482015261737360f01b606482015260840160405180910390fd5b606090811b6001600160601b031990811660805297811b881660a05295861b871660c05293851b861660e052600292909255600355600455610100529a909a1b90991661012052600580546001600160a01b0319166001600160a01b039290921691909117905550620001e09650505050505050565b80516001600160a01b03811681146200013157600080fd5b919050565b6000806000806000806000806000806101408b8d03121562000156578586fd5b620001618b62000119565b99506200017160208c0162000119565b98506200018160408c0162000119565b97506200019160608c0162000119565b965060808b0151955060a08b0151945060c08b0151935060e08b01519250620001be6101008c0162000119565b9150620001cf6101208c0162000119565b90509295989b9194979a5092959850565b60805160601c60a05160601c60c05160601c60e05160601c610100516101205160601c61365c6200029a6000396000818161046201528181610a9f01528181611002015281816110b9015261112b01526000818161041801528181612a580152612d8601526000818161050a01526127a30152600081816101d901526128360152600081816104b601526128a80152600081816102fc0152818161062401528181610c3e015281816126890152612721015261365c6000f3fe6080604052600436106101c25760003560e01c806394427b20116100f7578063db42923511610095578063e3ee432711610064578063e3ee432714610578578063e74b981b14610598578063e9c3f77d146105b8578063eedb97c7146105ee576101c2565b8063db429235146104f8578063df7c20f91461052c578063e2abb5c414610542578063e3e0626b14610558576101c2565b8063ad5c4648116100d1578063ad5c464814610450578063b7453e2714610484578063b852eb0d146104a4578063cb6067dd146104d8576101c2565b806394427b20146103fe57806395e911a814610406578063a75208a81461043a576101c2565b8063392f5f641161016457806353d7ff9f1161013e57806353d7ff9f1461035e578063696986701461037e578063799d34e1146103935780637a1a04df146103b3576101c2565b8063392f5f64146102ea578063447d52ba1461031e578063469048401461033e576101c2565b80631084bd6d116101a05780631084bd6d146102675780631306d9021461028a5780631dce3baa146102aa578063351ae610146102ca576101c2565b8063059b157a146101c7578063071060a6146102185780630abb674c1461023a575b600080fd5b3480156101d357600080fd5b506101fb7f000000000000000000000000000000000000000000000000000000000000000081565b6040516001600160a01b0390911681526020015b60405180910390f35b34801561022457600080fd5b50610238610233366004613157565b61060e565b005b34801561024657600080fd5b5061025a610255366004613289565b6106d4565b60405161020f9190613373565b34801561027357600080fd5b5061027c600a81565b60405190815260200161020f565b34801561029657600080fd5b506102386102a5366004612fb1565b6108f5565b3480156102b657600080fd5b506102386102c5366004613157565b610a86565b3480156102d657600080fd5b5061025a6102e536600461322a565b610b95565b3480156102f657600080fd5b506101fb7f000000000000000000000000000000000000000000000000000000000000000081565b34801561032a57600080fd5b50610238610339366004613187565b610c18565b34801561034a57600080fd5b506005546101fb906001600160a01b031681565b34801561036a57600080fd5b5061025a61037936600461322a565b610cf0565b34801561038a57600080fd5b50610238610d69565b34801561039f57600080fd5b5061025a6103ae3660046131b6565b610f4c565b3480156103bf57600080fd5b506103ee6103ce366004612fb1565b600160209081526000928352604080842090915290825290205460ff1681565b604051901515815260200161020f565b610238610f8c565b34801561041257600080fd5b5061027c7f000000000000000000000000000000000000000000000000000000000000000081565b34801561044657600080fd5b5061027c60025481565b34801561045c57600080fd5b506101fb7f000000000000000000000000000000000000000000000000000000000000000081565b34801561049057600080fd5b5061025a61049f3660046131b6565b61116d565b3480156104b057600080fd5b506101fb7f000000000000000000000000000000000000000000000000000000000000000081565b3480156104e457600080fd5b506102386104f3366004612fdc565b6111ad565b34801561050457600080fd5b506101fb7f000000000000000000000000000000000000000000000000000000000000000081565b34801561053857600080fd5b5061027c60035481565b34801561054e57600080fd5b5061027c60045481565b34801561056457600080fd5b50610238610573366004612fb1565b61141c565b34801561058457600080fd5b5061025a610593366004613289565b61150b565b3480156105a457600080fd5b506102386105b3366004612f72565b6116e5565b3480156105c457600080fd5b506101fb6105d3366004613157565b6000602081905290815260409020546001600160a01b031681565b3480156105fa57600080fd5b50610238610609366004612fb1565b611780565b60405163b4ed0b6d60e01b8152600481018290527f00000000000000000000000000000000000000000000000000000000000000006001600160a01b03169063b4ed0b6d9060240160206040518083038186803b15801561066e57600080fd5b505afa158015610682573d6000803e3d6000fd5b505050506040513d601f19601f820116820180604052508101906106a69190612f95565b60009182526020829052604090912080546001600160a01b0319166001600160a01b03909216919091179055565b606081428110156107205760405162461bcd60e51b8152602060048201526011602482015270151c985919481a185cc8195e1c1a5c9959607a1b60448201526064015b60405180910390fd5b600061072b89611903565b9050606061077661073c838c613579565b8989898080602002602001604051908101604052809392919081815260200183836020028082843760009201919091525061192d92505050565b909450905061082d33888860008161079e57634e487b7160e01b600052603260045260246000fd5b90506020020160208101906107b39190612f72565b89896107c0600182613579565b8181106107dd57634e487b7160e01b600052603260045260246000fd5b90506020020160208101906107f29190612f72565b8d8860018a516108029190613579565b8151811061082057634e487b7160e01b600052603260045260246000fd5b6020026020010151611c4a565b61083a848a838a8a611f7c565b61084261214d565b6001600160a01b031663d9caed128888600081811061087157634e487b7160e01b600052603260045260246000fd5b90506020020160208101906108869190612f72565b6005546040516001600160e01b031960e085901b1681526108b692916001600160a01b031690879060040161334f565b600060405180830381600087803b1580156108d057600080fd5b505af11580156108e4573d6000803e3d6000fd5b505050505050509695505050505050565b6108fd61214d565b6001600160a01b031663b3db428b3384846040518463ffffffff1660e01b815260040161092c9392919061334f565b600060405180830381600087803b15801561094657600080fd5b505af115801561095a573d6000803e3d6000fd5b505050506000610968612185565b6001600160a01b03166352a664d93385856040518463ffffffff1660e01b81526004016109979392919061334f565b602060405180830381600087803b1580156109b157600080fd5b505af11580156109c5573d6000803e3d6000fd5b505050506040513d601f19601f820116820180604052508101906109e9919061316f565b90508015610a68576109f96121bd565b604051632a6a897b60e01b81526001600160a01b038581166004830152602482018490529190911690632a6a897b90604401600060405180830381600087803b158015610a4557600080fd5b505af1158015610a59573d6000803e3d6000fd5b50505050610a688333836121f5565b604051339060008051602061360783398151915290600090a2505050565b610a8e612185565b6001600160a01b031663d0eb6653337f0000000000000000000000000000000000000000000000000000000000000000846040518463ffffffff1660e01b8152600401610add9392919061334f565b600060405180830381600087803b158015610af757600080fd5b505af1158015610b0b573d6000803e3d6000fd5b50505050610b1761214d565b604051634782f77960e01b8152336004820152602481018390526001600160a01b039190911690634782f77990604401600060405180830381600087803b158015610b6157600080fd5b505af1158015610b75573d6000803e3d6000fd5b50506040513392506000805160206136078339815191529150600090a250565b6060610ba033612241565b610bbc5760405162461bcd60e51b8152600401610717906133b7565b6060610bfc878686868080602002602001604051908101604052809392919081815260200183836020028082843760009201919091525061192d92505050565b9092509050610c0e8287838787611f7c565b5095945050505050565b6040516393552a3d60e01b8152600481018390526001600160a01b0382811660248301527f000000000000000000000000000000000000000000000000000000000000000016906393552a3d9060440160206040518083038186803b158015610c8057600080fd5b505afa158015610c94573d6000803e3d6000fd5b505050506040513d601f19601f82011682018060405250810190610cb891906130e9565b6001600160a01b0391909116600090815260016020908152604080832094835293905291909120805460ff1916911515919091179055565b6060610cfb33612241565b610d175760405162461bcd60e51b8152600401610717906133b7565b6060610d57878686868080602002602001604051908101604052809392919081815260200183836020028082843760009201919091525061226f92505050565b9092509050610c0e82878387876125ae565b600080610d74612185565b60405163204fedb960e11b81523360048201526001600160a01b03919091169063409fdb729060240160006040518083038186803b158015610db557600080fd5b505afa158015610dc9573d6000803e3d6000fd5b505050506040513d6000823e601f3d908101601f19168201604052610df19190810190613023565b91509150610dfd612185565b60405163db2d904d60e01b81523360048201526001600160a01b03919091169063db2d904d90602401600060405180830381600087803b158015610e4057600080fd5b505af1158015610e54573d6000803e3d6000fd5b5050505060005b8083511115610f2e57610e6c61214d565b6001600160a01b031663d9caed12848381518110610e9a57634e487b7160e01b600052603260045260246000fd5b602002602001015133858581518110610ec357634e487b7160e01b600052603260045260246000fd5b60200260200101516040518463ffffffff1660e01b8152600401610ee99392919061334f565b600060405180830381600087803b158015610f0357600080fd5b505af1158015610f17573d6000803e3d6000fd5b505050508080610f26906135a7565b915050610e5b565b50604051339060008051602061360783398151915290600090a25050565b6060610c0e858585858080602002602001604051908101604052809392919081815260200183836020028082843760009201919091525061226f92505050565b610f9461214d565b6001600160a01b031663a6a5f9fe346040518263ffffffff1660e01b81526004016000604051808303818588803b158015610fce57600080fd5b505af1158015610fe2573d6000803e3d6000fd5b50505050506000610ff1612185565b6001600160a01b03166352a664d9337f0000000000000000000000000000000000000000000000000000000000000000346040518463ffffffff1660e01b81526004016110409392919061334f565b602060405180830381600087803b15801561105a57600080fd5b505af115801561106e573d6000803e3d6000fd5b505050506040513d601f19601f82011682018060405250810190611092919061316f565b90508015611151576110a26121bd565b604051632a6a897b60e01b81526001600160a01b037f000000000000000000000000000000000000000000000000000000000000000081166004830152602482018490529190911690632a6a897b90604401600060405180830381600087803b15801561110e57600080fd5b505af1158015611122573d6000803e3d6000fd5b505050506111517f000000000000000000000000000000000000000000000000000000000000000033836121f5565b604051339060008051602061360783398151915290600090a250565b6060610c0e858585858080602002602001604051908101604052809392919081815260200183836020028082843760009201919091525061192d92505050565b6111b561214d565b6001600160a01b031663b3db428b3386866040518463ffffffff1660e01b81526004016111e49392919061334f565b600060405180830381600087803b1580156111fe57600080fd5b505af1158015611212573d6000803e3d6000fd5b5050505061121e6121bd565b60405163ee0862bf60e01b81526001600160a01b03848116600483015260248201849052919091169063ee0862bf90604401600060405180830381600087803b15801561126a57600080fd5b505af115801561127e573d6000803e3d6000fd5b5050505061128a612185565b6040516303b0998360e31b81523360048201526001600160a01b038681166024830152604482018690528481166064830152608482018490529190911690631d84cc189060a401600060405180830381600087803b1580156112eb57600080fd5b505af11580156112ff573d6000803e3d6000fd5b5050505061130b6121bd565b60405163dc683bcf60e01b81526001600160a01b038481166004830152919091169063dc683bcf90602401602060405180830381600087803b15801561135057600080fd5b505af1158015611364573d6000803e3d6000fd5b505050506040513d601f19601f82011682018060405250810190611388919061316f565b5061139161214d565b6001600160a01b031663d9caed128333846040518463ffffffff1660e01b81526004016113c09392919061334f565b600060405180830381600087803b1580156113da57600080fd5b505af11580156113ee573d6000803e3d6000fd5b505050506113fd823383612632565b604051339060008051602061360783398151915290600090a250505050565b611424612185565b6001600160a01b031663d0eb66533384846040518463ffffffff1660e01b81526004016114539392919061334f565b600060405180830381600087803b15801561146d57600080fd5b505af1158015611481573d6000803e3d6000fd5b5050505061148d61214d565b6001600160a01b031663d9caed128333846040518463ffffffff1660e01b81526004016114bc9392919061334f565b600060405180830381600087803b1580156114d657600080fd5b505af11580156114ea573d6000803e3d6000fd5b50506040513392506000805160206136078339815191529150600090a25050565b606081428110156115525760405162461bcd60e51b8152602060048201526011602482015270151c985919481a185cc8195e1c1a5c9959607a1b6044820152606401610717565b6060600061155f8a612675565b90506115a861156e828c613522565b8989898080602002602001604051908101604052809392919081815260200183836020028082843760009201919091525061226f92505050565b90945091506116533388886000816115d057634e487b7160e01b600052603260045260246000fd5b90506020020160208101906115e59190612f72565b89896115f2600182613579565b81811061160f57634e487b7160e01b600052603260045260246000fd5b90506020020160208101906116249190612f72565b8760008151811061164557634e487b7160e01b600052603260045260246000fd5b60200260200101518e611c4a565b611660848a848a8a6125ae565b61166861214d565b6001600160a01b031663d9caed128888611683600182613579565b8181106116a057634e487b7160e01b600052603260045260246000fd5b90506020020160208101906116b59190612f72565b6005546040516001600160e01b031960e085901b1681526108b692916001600160a01b031690869060040161334f565b336116ee612685565b6001600160a01b0316148061171257503361170761271d565b6001600160a01b0316145b61175e5760405162461bcd60e51b815260206004820152601e60248201527f526f6c65733a2063616c6c6572206973206e6f7420746865206f776e657200006044820152606401610717565b600580546001600160a01b0319166001600160a01b0392909216919091179055565b6117886121bd565b60405163ee0862bf60e01b81526001600160a01b03848116600483015260248201849052919091169063ee0862bf90604401600060405180830381600087803b1580156117d457600080fd5b505af11580156117e8573d6000803e3d6000fd5b505050506117f4612185565b6001600160a01b031663498d55eb3384846040518463ffffffff1660e01b81526004016118239392919061334f565b600060405180830381600087803b15801561183d57600080fd5b505af1158015611851573d6000803e3d6000fd5b5050505061185d6121bd565b60405163dc683bcf60e01b81526001600160a01b038481166004830152919091169063dc683bcf90602401602060405180830381600087803b1580156118a257600080fd5b505af11580156118b6573d6000803e3d6000fd5b505050506040513d601f19601f820116820180604052508101906118da919061316f565b506118e6823383612632565b604051339060008051602061360783398151915290600090a25050565b6000611912600a612710613522565b61191d83600a61355a565b611927919061353a565b92915050565b6060806002835110156119795760405162461bcd60e51b81526020600482015260146024820152731d1bdad95b881c185d1a081d1bdbc81cda1bdc9d60621b6044820152606401610717565b825167ffffffffffffffff8111156119a157634e487b7160e01b600052604160045260246000fd5b6040519080825280602002602001820160405280156119ca578160200160208202803683370190505b50915084826000815181106119ef57634e487b7160e01b600052603260045260246000fd5b60200260200101818152505060018351611a099190613579565b67ffffffffffffffff811115611a2f57634e487b7160e01b600052604160045260246000fd5b604051908082528060200260200182016040528015611a58578160200160208202803683370190505b50905060005b60018451611a6c9190613579565b811015611c41576000848281518110611a9557634e487b7160e01b600052603260045260246000fd5b60200260200101519050600085836001611aaf9190613522565b81518110611acd57634e487b7160e01b600052603260045260246000fd5b602002602001015190506000878460208110611af957634e487b7160e01b600052603260045260246000fd5b1a60f81b6001600160f81b03191615611b6257878460208110611b2c57634e487b7160e01b600052603260045260246000fd5b1a60f81b6001600160f81b031916600160f81b14611b5357611b4e838361278e565b611b5d565b611b5d8383612821565b611b6c565b611b6c8383612893565b905080858581518110611b8f57634e487b7160e01b600052603260045260246000fd5b60200260200101906001600160a01b031690816001600160a01b031681525050600080611bbd838686612905565b91509150611bf3888781518110611be457634e487b7160e01b600052603260045260246000fd5b602002602001015183836129d4565b88611bff886001613522565b81518110611c1d57634e487b7160e01b600052603260045260246000fd5b60200260200101818152505050505050508080611c39906135a7565b915050611a5e565b50935093915050565b600080611c55612185565b604051633500aa0b60e01b81526001600160a01b0389811660048301528881166024830152878116604483015260648201879052608482018690529190911690633500aa0b9060a4016040805180830381600087803b158015611cb757600080fd5b505af1158015611ccb573d6000803e3d6000fd5b505050506040513d601f19601f82011682018060405250810190611cef9190613207565b90925090508115611df757611d026121bd565b604051632a6a897b60e01b81526001600160a01b038781166004830152602482018590529190911690632a6a897b90604401600060405180830381600087803b158015611d4e57600080fd5b505af1158015611d62573d6000803e3d6000fd5b50505050611d6e6121bd565b60405163dc683bcf60e01b81526001600160a01b038781166004830152919091169063dc683bcf90602401602060405180830381600087803b158015611db357600080fd5b505af1158015611dc7573d6000803e3d6000fd5b505050506040513d601f19601f82011682018060405250810190611deb919061316f565b50611df78588846121f5565b8015611efa57611e056121bd565b60405163ee0862bf60e01b81526001600160a01b03888116600483015260248201849052919091169063ee0862bf90604401600060405180830381600087803b158015611e5157600080fd5b505af1158015611e65573d6000803e3d6000fd5b50505050611e716121bd565b60405163dc683bcf60e01b81526001600160a01b038881166004830152919091169063dc683bcf90602401602060405180830381600087803b158015611eb657600080fd5b505af1158015611eca573d6000803e3d6000fd5b505050506040513d601f19601f82011682018060405250810190611eee919061316f565b50611efa868883612632565b6040516001600160a01b0388169060008051602061360783398151915290600090a2604080516001600160a01b038881168252878116602083015291810186905260608101859052908816907f610a6fcfd0e5da3e1f98054761ba753182ff6f350467da719cae9d94e5f541369060800160405180910390a250505050505050565b838560018751611f8c9190613579565b81518110611faa57634e487b7160e01b600052603260045260246000fd5b602002602001015110156120115760405162461bcd60e51b815260206004820152602860248201527f4d617267696e526f757465723a20494e53554646494349454e545f4f555450556044820152671517d05353d5539560c21b6064820152608401610717565b61201961214d565b6001600160a01b031663d9caed128383600081811061204857634e487b7160e01b600052603260045260246000fd5b905060200201602081019061205d9190612f72565b8560008151811061207e57634e487b7160e01b600052603260045260246000fd5b6020026020010151886000815181106120a757634e487b7160e01b600052603260045260246000fd5b60200260200101516040518463ffffffff1660e01b81526004016120cd9392919061334f565b600060405180830381600087803b1580156120e757600080fd5b505af11580156120fb573d6000803e3d6000fd5b505050506121468584848480806020026020016040519081016040528093929190818152602001838360200280828437600092019190915250612141925061214d915050565b612abd565b5050505050565b606560009081526020527f4a7203f705e51df4a56139a9b86b4a0970bed7ab7a3446eaffe2289989c1645c546001600160a01b031690565b606860009081526020527faa071f48f62aaaa1f6320aaa7bd2ad2d552d05160892c14d699d38c9920d5f99546001600160a01b031690565b606660009081526020527f422cccb7cea5c0e46f340bb7b21b81debac329f72e31669c20ff0f3a05cc2b5b546001600160a01b031690565b604080516001600160a01b038581168252602082018490528416917f3397b60e3ca1e9c0c75a033d62ab8731e9b2937c0690ae5d7f1bd37886b19d7d91015b60405180910390a2505050565b6001600160a01b03811660009081526001602090815260408083206007845290915290205460ff165b919050565b6060806002835110156122bb5760405162461bcd60e51b81526020600482015260146024820152731d1bdad95b881c185d1a081d1bdbc81cda1bdc9d60621b6044820152606401610717565b825167ffffffffffffffff8111156122e357634e487b7160e01b600052604160045260246000fd5b60405190808252806020026020018201604052801561230c578160200160208202803683370190505b50915084826001845161231f9190613579565b8151811061233d57634e487b7160e01b600052603260045260246000fd5b602002602001018181525050600183516123579190613579565b67ffffffffffffffff81111561237d57634e487b7160e01b600052604160045260246000fd5b6040519080825280602002602001820160405280156123a6578160200160208202803683370190505b5090506000600184516123b99190613579565b90505b8015611c41576000846123d0600184613579565b815181106123ee57634e487b7160e01b600052603260045260246000fd5b60200260200101519050600085838151811061241a57634e487b7160e01b600052603260045260246000fd5b602002602001015190506000876001856124349190613579565b6020811061245257634e487b7160e01b600052603260045260246000fd5b1a60f81b6001600160f81b031916156124c55787612471600186613579565b6020811061248f57634e487b7160e01b600052603260045260246000fd5b1a60f81b6001600160f81b031916600160f81b146124b6576124b1838361278e565b6124c0565b6124c08383612821565b6124cf565b6124cf8383612893565b905080856124de600187613579565b815181106124fc57634e487b7160e01b600052603260045260246000fd5b60200260200101906001600160a01b031690816001600160a01b03168152505060008061252a838686612905565b9150915061256088878151811061255157634e487b7160e01b600052603260045260246000fd5b60200260200101518383612ceb565b8861256c600189613579565b8151811061258a57634e487b7160e01b600052603260045260246000fd5b602002602001018181525050505050505080806125a690613590565b9150506123bc565b83856000815181106125d057634e487b7160e01b600052603260045260246000fd5b602002602001015111156120115760405162461bcd60e51b8152602060048201526024808201527f4d617267696e526f757465723a204558434553534956455f494e5055545f414d60448201526313d5539560e21b6064820152608401610717565b604080516001600160a01b038581168252602082018490528416917f8ec70c9430377a4bba035133e27a5b0f3b9951bc080833f6832bcbbb70a96dba9101612234565b600061271061191d83600a61355a565b60007f00000000000000000000000000000000000000000000000000000000000000006001600160a01b0316638da5cb5b6040518163ffffffff1660e01b815260040160206040518083038186803b1580156126e057600080fd5b505afa1580156126f4573d6000803e3d6000fd5b505050506040513d601f19601f820116820180604052508101906127189190612f95565b905090565b60007f00000000000000000000000000000000000000000000000000000000000000006001600160a01b031663c34c08e56040518163ffffffff1660e01b8152600401602060405180830381600087803b15801561277a57600080fd5b505af11580156126f4573d6000803e3d6000fd5b600080600061279d8585612dda565b915091507f000000000000000000000000000000000000000000000000000000000000000082826040516020016127d59291906132f0565b6040516020818303038152906040528051906020012060045460405160200161280093929190613317565b60408051601f19818403018152919052805160209091012095945050505050565b60008060006128308585612dda565b915091507f000000000000000000000000000000000000000000000000000000000000000082826040516020016128689291906132f0565b6040516020818303038152906040528051906020012060035460405160200161280093929190613317565b60008060006128a28585612dda565b915091507f000000000000000000000000000000000000000000000000000000000000000082826040516020016128da9291906132f0565b6040516020818303038152906040528051906020012060025460405160200161280093929190613317565b60008060006129148585612dda565b509050600080876001600160a01b0316630902f1ac6040518163ffffffff1660e01b815260040160606040518083038186803b15801561295357600080fd5b505afa158015612967573d6000803e3d6000fd5b505050506040513d601f19601f8201168201806040525081019061298b9190613109565b506001600160701b031691506001600160701b03169150826001600160a01b0316876001600160a01b0316146129c25780826129c5565b81815b90999098509650505050505050565b6000808411612a255760405162461bcd60e51b815260206004820152601960248201527f494e53554646494349454e545f494e5055545f414d4f554e54000000000000006044820152606401610717565b600083118015612a355750600082115b612a515760405162461bcd60e51b815260040161071790613414565b6000612a7d7f00000000000000000000000000000000000000000000000000000000000000008661355a565b90506000612a8b848361355a565b9050600082612a9c8761271061355a565b612aa69190613522565b9050612ab2818361353a565b979650505050505050565b60005b835181101561214657600080848381518110612aec57634e487b7160e01b600052603260045260246000fd5b602002602001015185846001612b029190613522565b81518110612b2057634e487b7160e01b600052603260045260246000fd5b6020026020010151915091506000612b388383612dda565b509050600088612b49866001613522565b81518110612b6757634e487b7160e01b600052603260045260246000fd5b60200260200101519050600080836001600160a01b0316866001600160a01b031614612b9557826000612b99565b6000835b91509150600060018b51612bad9190613579565b8810612bb95788612bec565b8a612bc5896001613522565b81518110612be357634e487b7160e01b600052603260045260246000fd5b60200260200101515b905060008b8981518110612c1057634e487b7160e01b600052603260045260246000fd5b60200260200101519050806001600160a01b031663022c0d9f858585600067ffffffffffffffff811115612c5457634e487b7160e01b600052604160045260246000fd5b6040519080825280601f01601f191660200182016040528015612c7e576020820181803683370190505b506040518563ffffffff1660e01b8152600401612c9e949392919061345c565b600060405180830381600087803b158015612cb857600080fd5b505af1158015612ccc573d6000803e3d6000fd5b5050505050505050505050508080612ce3906135a7565b915050612ac0565b6000808411612d3c5760405162461bcd60e51b815260206004820152601a60248201527f494e53554646494349454e545f4f55545055545f414d4f554e540000000000006044820152606401610717565b600083118015612d4c5750600082115b612d685760405162461bcd60e51b815260040161071790613414565b6000612d74858561355a565b612d809061271061355a565b905060007f0000000000000000000000000000000000000000000000000000000000000000612daf8786613579565b612db9919061355a565b9050612dc5818361353a565b612dd0906001613522565b9695505050505050565b600080826001600160a01b0316846001600160a01b03161415612e345760405162461bcd60e51b81526020600482015260126024820152714964656e746963616c20616464726573732160701b6044820152606401610717565b826001600160a01b0316846001600160a01b031610612e54578284612e57565b83835b90925090506001600160a01b038216612ea25760405162461bcd60e51b815260206004820152600d60248201526c5a65726f20616464726573732160981b6044820152606401610717565b9250929050565b60008083601f840112612eba578182fd5b50813567ffffffffffffffff811115612ed1578182fd5b6020830191508360208260051b8501011115612ea257600080fd5b600082601f830112612efc578081fd5b81516020612f11612f0c836134fe565b6134cd565b80838252828201915082860187848660051b8901011115612f30578586fd5b855b85811015612f4e57815184529284019290840190600101612f32565b5090979650505050505050565b80516001600160701b038116811461226a57600080fd5b600060208284031215612f83578081fd5b8135612f8e816135ee565b9392505050565b600060208284031215612fa6578081fd5b8151612f8e816135ee565b60008060408385031215612fc3578081fd5b8235612fce816135ee565b946020939093013593505050565b60008060008060808587031215612ff1578182fd5b8435612ffc816135ee565b9350602085013592506040850135613013816135ee565b9396929550929360600135925050565b60008060408385031215613035578182fd5b825167ffffffffffffffff8082111561304c578384fd5b818501915085601f83011261305f578384fd5b8151602061306f612f0c836134fe565b8083825282820191508286018a848660051b890101111561308e578889fd5b8896505b848710156130b95780516130a5816135ee565b835260019690960195918301918301613092565b50918801519196509093505050808211156130d2578283fd5b506130df85828601612eec565b9150509250929050565b6000602082840312156130fa578081fd5b81518015158114612f8e578182fd5b60008060006060848603121561311d578283fd5b61312684612f5b565b925061313460208501612f5b565b9150604084015163ffffffff8116811461314c578182fd5b809150509250925092565b600060208284031215613168578081fd5b5035919050565b600060208284031215613180578081fd5b5051919050565b60008060408385031215613199578182fd5b8235915060208301356131ab816135ee565b809150509250929050565b600080600080606085870312156131cb578384fd5b8435935060208501359250604085013567ffffffffffffffff8111156131ef578283fd5b6131fb87828801612ea9565b95989497509550505050565b60008060408385031215613219578182fd5b505080516020909101519092909150565b600080600080600060808688031215613241578283fd5b853594506020860135935060408601359250606086013567ffffffffffffffff81111561326c578182fd5b61327888828901612ea9565b969995985093965092949392505050565b60008060008060008060a087890312156132a1578384fd5b863595506020870135945060408701359350606087013567ffffffffffffffff8111156132cc578182fd5b6132d889828a01612ea9565b979a9699509497949695608090950135949350505050565b6bffffffffffffffffffffffff19606093841b811682529190921b16601482015260280190565b6001600160f81b0319815260609390931b6bffffffffffffffffffffffff191660018401526015830191909152603582015260550190565b6001600160a01b039384168152919092166020820152604081019190915260600190565b6020808252825182820181905260009190848201906040850190845b818110156133ab5783518352928401929184019160010161338f565b50909695505050505050565b6020808252603e908201527f43616c6c696e6720636f6e7472616374206973206e6f7420617574686f72697a60408201527f656420746f20747261646520776974682070726f746f636c2066756e64730000606082015260800190565b60208082526028908201527f556e697377617056324c6962726172793a20494e53554646494349454e545f4c604082015267495155494449545960c01b606082015260800190565b60008582526020858184015260018060a01b0385166040840152608060608401528351806080850152825b818110156134a35785810183015185820160a001528201613487565b818111156134b4578360a083870101525b50601f01601f19169290920160a0019695505050505050565b604051601f8201601f1916810167ffffffffffffffff811182821017156134f6576134f66135d8565b604052919050565b600067ffffffffffffffff821115613518576135186135d8565b5060051b60200190565b60008219821115613535576135356135c2565b500190565b60008261355557634e487b7160e01b81526012600452602481fd5b500490565b6000816000190483118215151615613574576135746135c2565b500290565b60008282101561358b5761358b6135c2565b500390565b60008161359f5761359f6135c2565b506000190190565b60006000198214156135bb576135bb6135c2565b5060010190565b634e487b7160e01b600052601160045260246000fd5b634e487b7160e01b600052604160045260246000fd5b6001600160a01b038116811461360357600080fd5b5056fee7b1fae3a790ceab07642c09617df79428b02832cd512bbfdd4db50272dcdf30a264697066735822122012da8429d5328d2f68a6bf502346765e90a41c716f5fd29ff068ee1a241a03bd64736f6c63430008030033",
  "linkReferences": {},
  "deployedLinkReferences": {}
}