{
  "_format": "hh-sol-artifact-1",
  "contractName": "MarginRouter",
  "sourceName": "contracts/MarginRouter.sol",
  "abi": [
    {
      "inputs": [
        {
          "internalType": "address",
          "name": "_WETH",
          "type": "address"
        },
        {
          "internalType": "address",
          "name": "_roles",
          "type": "address"
        }
      ],
      "stateMutability": "nonpayable",
      "type": "constructor"
    },
    {
      "anonymous": false,
      "inputs": [
        {
          "indexed": true,
          "internalType": "address",
          "name": "trader",
          "type": "address"
        }
      ],
      "name": "AccountUpdated",
      "type": "event"
    },
    {
      "inputs": [],
      "name": "WETH",
      "outputs": [
        {
          "internalType": "address",
          "name": "",
          "type": "address"
        }
      ],
      "stateMutability": "view",
      "type": "function"
    },
    {
      "inputs": [
        {
          "internalType": "uint256",
          "name": "amountIn",
          "type": "uint256"
        },
        {
          "internalType": "uint256",
          "name": "amountOutMin",
          "type": "uint256"
        },
        {
          "internalType": "bytes32",
          "name": "amms",
          "type": "bytes32"
        },
        {
          "internalType": "address[]",
          "name": "tokens",
          "type": "address[]"
        }
      ],
      "name": "authorizedSwapExactT4T",
      "outputs": [
        {
          "internalType": "uint256[]",
          "name": "amounts",
          "type": "uint256[]"
        }
      ],
      "stateMutability": "nonpayable",
      "type": "function"
    },
    {
      "inputs": [
        {
          "internalType": "uint256",
          "name": "amountOut",
          "type": "uint256"
        },
        {
          "internalType": "uint256",
          "name": "amountInMax",
          "type": "uint256"
        },
        {
          "internalType": "bytes32",
          "name": "amms",
          "type": "bytes32"
        },
        {
          "internalType": "address[]",
          "name": "tokens",
          "type": "address[]"
        }
      ],
      "name": "authorizedSwapT4ExactT",
      "outputs": [
        {
          "internalType": "uint256[]",
          "name": "amounts",
          "type": "uint256[]"
        }
      ],
      "stateMutability": "nonpayable",
      "type": "function"
    },
    {
      "inputs": [
        {
          "internalType": "address",
          "name": "borrowToken",
          "type": "address"
        },
        {
          "internalType": "uint256",
          "name": "borrowAmount",
          "type": "uint256"
        }
      ],
      "name": "crossBorrow",
      "outputs": [],
      "stateMutability": "nonpayable",
      "type": "function"
    },
    {
      "inputs": [],
      "name": "crossCloseAccount",
      "outputs": [],
      "stateMutability": "nonpayable",
      "type": "function"
    },
    {
      "inputs": [
        {
          "internalType": "address",
          "name": "depositToken",
          "type": "address"
        },
        {
          "internalType": "uint256",
          "name": "depositAmount",
          "type": "uint256"
        }
      ],
      "name": "crossDeposit",
      "outputs": [],
      "stateMutability": "nonpayable",
      "type": "function"
    },
    {
      "inputs": [],
      "name": "crossDepositETH",
      "outputs": [],
      "stateMutability": "payable",
      "type": "function"
    },
    {
      "inputs": [
        {
          "internalType": "address",
          "name": "depositToken",
          "type": "address"
        },
        {
          "internalType": "uint256",
          "name": "depositAmount",
          "type": "uint256"
        },
        {
          "internalType": "address",
          "name": "borrowToken",
          "type": "address"
        },
        {
          "internalType": "uint256",
          "name": "withdrawAmount",
          "type": "uint256"
        }
      ],
      "name": "crossOvercollateralizedBorrow",
      "outputs": [],
      "stateMutability": "nonpayable",
      "type": "function"
    },
    {
      "inputs": [
        {
          "internalType": "uint256",
          "name": "amountIn",
          "type": "uint256"
        },
        {
          "internalType": "uint256",
          "name": "amountOutMin",
          "type": "uint256"
        },
        {
          "internalType": "bytes32",
          "name": "amms",
          "type": "bytes32"
        },
        {
          "internalType": "address[]",
          "name": "tokens",
          "type": "address[]"
        },
        {
          "internalType": "uint256",
          "name": "deadline",
          "type": "uint256"
        }
      ],
      "name": "crossSwapExactTokensForTokens",
      "outputs": [
        {
          "internalType": "uint256[]",
          "name": "amounts",
          "type": "uint256[]"
        }
      ],
      "stateMutability": "nonpayable",
      "type": "function"
    },
    {
      "inputs": [
        {
          "internalType": "uint256",
          "name": "amountOut",
          "type": "uint256"
        },
        {
          "internalType": "uint256",
          "name": "amountInMax",
          "type": "uint256"
        },
        {
          "internalType": "bytes32",
          "name": "amms",
          "type": "bytes32"
        },
        {
          "internalType": "address[]",
          "name": "tokens",
          "type": "address[]"
        },
        {
          "internalType": "uint256",
          "name": "deadline",
          "type": "uint256"
        }
      ],
      "name": "crossSwapTokensForExactTokens",
      "outputs": [
        {
          "internalType": "uint256[]",
          "name": "amounts",
          "type": "uint256[]"
        }
      ],
      "stateMutability": "nonpayable",
      "type": "function"
    },
    {
      "inputs": [
        {
          "internalType": "address",
          "name": "withdrawToken",
          "type": "address"
        },
        {
          "internalType": "uint256",
          "name": "withdrawAmount",
          "type": "uint256"
        }
      ],
      "name": "crossWithdraw",
      "outputs": [],
      "stateMutability": "nonpayable",
      "type": "function"
    },
    {
      "inputs": [
        {
          "internalType": "uint256",
          "name": "withdrawAmount",
          "type": "uint256"
        }
      ],
      "name": "crossWithdrawETH",
      "outputs": [],
      "stateMutability": "nonpayable",
      "type": "function"
    },
    {
      "inputs": [
        {
          "internalType": "uint256",
          "name": "outAmount",
          "type": "uint256"
        },
        {
          "internalType": "bytes32",
          "name": "amms",
          "type": "bytes32"
        },
        {
          "internalType": "address[]",
          "name": "tokens",
          "type": "address[]"
        }
      ],
      "name": "getAmountsIn",
      "outputs": [
        {
          "internalType": "uint256[]",
          "name": "amounts",
          "type": "uint256[]"
        }
      ],
      "stateMutability": "view",
      "type": "function"
    },
    {
      "inputs": [
        {
          "internalType": "uint256",
          "name": "inAmount",
          "type": "uint256"
        },
        {
          "internalType": "bytes32",
          "name": "amms",
          "type": "bytes32"
        },
        {
          "internalType": "address[]",
          "name": "tokens",
          "type": "address[]"
        }
      ],
      "name": "getAmountsOut",
      "outputs": [
        {
          "internalType": "uint256[]",
          "name": "amounts",
          "type": "uint256[]"
        }
      ],
      "stateMutability": "view",
      "type": "function"
    },
    {
      "inputs": [
        {
          "internalType": "address",
          "name": "",
          "type": "address"
        }
      ],
      "name": "incentiveTranches",
      "outputs": [
        {
          "internalType": "uint256",
          "name": "",
          "type": "uint256"
        }
      ],
      "stateMutability": "view",
      "type": "function"
    },
    {
      "inputs": [
        {
          "internalType": "uint256",
          "name": "",
          "type": "uint256"
        }
      ],
      "name": "mainCharacterCache",
      "outputs": [
        {
          "internalType": "address",
          "name": "",
          "type": "address"
        }
      ],
      "stateMutability": "view",
      "type": "function"
    },
    {
      "inputs": [],
      "name": "mswapFeesPer10k",
      "outputs": [
        {
          "internalType": "uint256",
          "name": "",
          "type": "uint256"
        }
      ],
      "stateMutability": "view",
      "type": "function"
    },
    {
      "inputs": [
        {
          "internalType": "address",
          "name": "",
          "type": "address"
        },
        {
          "internalType": "uint256",
          "name": "",
          "type": "uint256"
        }
      ],
      "name": "roleCache",
      "outputs": [
        {
          "internalType": "bool",
          "name": "",
          "type": "bool"
        }
      ],
      "stateMutability": "view",
      "type": "function"
    },
    {
      "inputs": [],
      "name": "roles",
      "outputs": [
        {
          "internalType": "contract Roles",
          "name": "",
          "type": "address"
        }
      ],
      "stateMutability": "view",
      "type": "function"
    },
    {
      "inputs": [
        {
          "internalType": "address",
          "name": "token",
          "type": "address"
        },
        {
          "internalType": "uint8",
          "name": "tranche",
          "type": "uint8"
        }
      ],
      "name": "setIncentiveTranche",
      "outputs": [],
      "stateMutability": "nonpayable",
      "type": "function"
    },
    {
      "inputs": [
        {
          "internalType": "uint256",
          "name": "role",
          "type": "uint256"
        }
      ],
      "name": "updateMainCharacterCache",
      "outputs": [],
      "stateMutability": "nonpayable",
      "type": "function"
    },
    {
      "inputs": [
        {
          "internalType": "uint256",
          "name": "role",
          "type": "uint256"
        },
        {
          "internalType": "address",
          "name": "contr",
          "type": "address"
        }
      ],
      "name": "updateRoleCache",
      "outputs": [],
      "stateMutability": "nonpayable",
      "type": "function"
    }
  ],
  "bytecode": "0x60c06040523480156200001157600080fd5b5060405162004310380380620043108339810160408190526200003491620000db565b806001600160a01b0381166200009b5760405162461bcd60e51b815260206004820152602260248201527f506c656173652070726f766964652076616c696420726f6c6573206164647265604482015261737360f01b606482015260840160405180910390fd5b6001600160601b0319606091821b811660805292901b90911660a0525062000112565b80516001600160a01b0381168114620000d657600080fd5b919050565b60008060408385031215620000ee578182fd5b620000f983620000be565b91506200010960208401620000be565b90509250929050565b60805160601c60a05160601c61419a62000176600039600081816103d101528181610947015281816113c9015281816114dc015261154f0152600081816102630152818161050501528181610d180152818161217f0152612224015261419a6000f3fe6080604052600436106101755760003560e01c80637a1a04df116100cb578063b7453e271161007f578063e3e0626b11610059578063e3e0626b14610453578063e9c3f77d14610473578063eedb97c7146104b657610175565b8063b7453e27146103f3578063cb6067dd14610413578063cbe72d291461043357610175565b806394427b20116100b057806394427b2014610397578063a8d83a681461039f578063ad5c4648146103bf57610175565b80637a1a04df1461031f5780638824cbba1461036a57610175565b8063351ae6101161012d57806353d7ff9f1161010757806353d7ff9f146102ca57806369698670146102ea578063799d34e1146102ff57610175565b8063351ae61014610224578063392f5f6414610251578063447d52ba146102aa57610175565b80631306d9021161015e5780631306d902146101c45780631dce3baa146101e45780632864f4011461020457610175565b8063071060a61461017a5780631084bd6d1461019c575b600080fd5b34801561018657600080fd5b5061019a610195366004613d37565b6104d6565b005b3480156101a857600080fd5b506101b1600a81565b6040519081526020015b60405180910390f35b3480156101d057600080fd5b5061019a6101df366004613b54565b6105e7565b3480156101f057600080fd5b5061019a6101ff366004613d37565b6108c2565b34801561021057600080fd5b5061019a61021f366004613bc6565b610aac565b34801561023057600080fd5b5061024461023f366004613dff565b610bc2565b6040516101bb9190613ec5565b34801561025d57600080fd5b506102857f000000000000000000000000000000000000000000000000000000000000000081565b60405173ffffffffffffffffffffffffffffffffffffffff90911681526020016101bb565b3480156102b657600080fd5b5061019a6102c5366004613d67565b610ccc565b3480156102d657600080fd5b506102446102e5366004613dff565b610df5565b3480156102f657600080fd5b5061019a610ef5565b34801561030b57600080fd5b5061024461031a366004613d8b565b61125a565b34801561032b57600080fd5b5061035a61033a366004613b54565b600160209081526000928352604080842090915290825290205460ff1681565b60405190151581526020016101bb565b34801561037657600080fd5b506101b1610385366004613b15565b60026020526000908152604090205481565b61019a61129a565b3480156103ab57600080fd5b506102446103ba366004613e5e565b6115a2565b3480156103cb57600080fd5b506102857f000000000000000000000000000000000000000000000000000000000000000081565b3480156103ff57600080fd5b5061024461040e366004613d8b565b611725565b34801561041f57600080fd5b5061019a61042e366004613b7f565b611765565b34801561043f57600080fd5b5061024461044e366004613e5e565b611af2565b34801561045f57600080fd5b5061019a61046e366004613b54565b611c86565b34801561047f57600080fd5b5061028561048e366004613d37565b60006020819052908152604090205473ffffffffffffffffffffffffffffffffffffffff1681565b3480156104c257600080fd5b5061019a6104d1366004613b54565b611e59565b6040517fb4ed0b6d000000000000000000000000000000000000000000000000000000008152600481018290527f000000000000000000000000000000000000000000000000000000000000000073ffffffffffffffffffffffffffffffffffffffff169063b4ed0b6d9060240160206040518083038186803b15801561055c57600080fd5b505afa158015610570573d6000803e3d6000fd5b505050506040513d601f19601f820116820180604052508101906105949190613b38565b60009182526020829052604090912080547fffffffffffffffffffffffff00000000000000000000000000000000000000001673ffffffffffffffffffffffffffffffffffffffff909216919091179055565b606560009081526020527f4a7203f705e51df4a56139a9b86b4a0970bed7ab7a3446eaffe2289989c1645c5473ffffffffffffffffffffffffffffffffffffffff166040517fb3db428b00000000000000000000000000000000000000000000000000000000815233600482015273ffffffffffffffffffffffffffffffffffffffff848116602483015260448201849052919091169063b3db428b90606401600060405180830381600087803b1580156106a157600080fd5b505af11580156106b5573d6000803e3d6000fd5b505050506000610703606860009081526020527faa071f48f62aaaa1f6320aaa7bd2ad2d552d05160892c14d699d38c9920d5f995473ffffffffffffffffffffffffffffffffffffffff1690565b6040517f52a664d900000000000000000000000000000000000000000000000000000000815233600482015273ffffffffffffffffffffffffffffffffffffffff85811660248301526044820185905291909116906352a664d990606401602060405180830381600087803b15801561077b57600080fd5b505af115801561078f573d6000803e3d6000fd5b505050506040513d601f19601f820116820180604052508101906107b39190613d4f565b9050801561089257606660009081526020527f422cccb7cea5c0e46f340bb7b21b81debac329f72e31669c20ff0f3a05cc2b5b5473ffffffffffffffffffffffffffffffffffffffff166040517f2a6a897b00000000000000000000000000000000000000000000000000000000815273ffffffffffffffffffffffffffffffffffffffff8581166004830152602482018490529190911690632a6a897b90604401600060405180830381600087803b15801561086f57600080fd5b505af1158015610883573d6000803e3d6000fd5b50505050610892338483612076565b60405133907fe7b1fae3a790ceab07642c09617df79428b02832cd512bbfdd4db50272dcdf3090600090a2505050565b606860009081526020527faa071f48f62aaaa1f6320aaa7bd2ad2d552d05160892c14d699d38c9920d5f995473ffffffffffffffffffffffffffffffffffffffff166040517fd0eb665300000000000000000000000000000000000000000000000000000000815233600482015273ffffffffffffffffffffffffffffffffffffffff7f00000000000000000000000000000000000000000000000000000000000000008116602483015260448201849052919091169063d0eb665390606401600060405180830381600087803b15801561099c57600080fd5b505af11580156109b0573d6000803e3d6000fd5b50506065600090815260205250507f4a7203f705e51df4a56139a9b86b4a0970bed7ab7a3446eaffe2289989c1645c5473ffffffffffffffffffffffffffffffffffffffff166040517f4782f7790000000000000000000000000000000000000000000000000000000081523360048201526024810183905273ffffffffffffffffffffffffffffffffffffffff9190911690634782f77990604401600060405180830381600087803b158015610a6657600080fd5b505af1158015610a7a573d6000803e3d6000fd5b50506040513392507fe7b1fae3a790ceab07642c09617df79428b02832cd512bbfdd4db50272dcdf309150600090a250565b33610ab561217b565b73ffffffffffffffffffffffffffffffffffffffff161480610af3575033610adb612220565b73ffffffffffffffffffffffffffffffffffffffff16145b80610b025750610b023361229e565b610b93576040517f08c379a000000000000000000000000000000000000000000000000000000000815260206004820152603960248201527f43616c6c6572206973206e6f7420746865206f776e65722c206578656375746f60448201527f72206f7220617574686f72697a656420616374697661746f720000000000000060648201526084015b60405180910390fd5b73ffffffffffffffffffffffffffffffffffffffff909116600090815260026020526040902060ff9091169055565b3360009081526001602090815260408083206007845290915290205460609060ff16610c70576040517f08c379a000000000000000000000000000000000000000000000000000000000815260206004820152603e60248201527f43616c6c696e6720636f6e7472616374206973206e6f7420617574686f72697a60448201527f656420746f20747261646520776974682070726f746f636c2066756e647300006064820152608401610b8a565b6060610cb087868686808060200260200160405190810160405280939291908181526020018383602002808284376000920191909152506122d992505050565b9092509050610cc28287838787612604565b5095945050505050565b6040517f93552a3d0000000000000000000000000000000000000000000000000000000081526004810183905273ffffffffffffffffffffffffffffffffffffffff82811660248301527f000000000000000000000000000000000000000000000000000000000000000016906393552a3d9060440160206040518083038186803b158015610d5a57600080fd5b505afa158015610d6e573d6000803e3d6000fd5b505050506040513d601f19601f82011682018060405250810190610d929190613cc9565b73ffffffffffffffffffffffffffffffffffffffff9190911660009081526001602090815260408083209483529390529190912080547fffffffffffffffffffffffffffffffffffffffffffffffffffffffffffffff0016911515919091179055565b3360009081526001602090815260408083206007845290915290205460609060ff16610ea3576040517f08c379a000000000000000000000000000000000000000000000000000000000815260206004820152603e60248201527f43616c6c696e6720636f6e7472616374206973206e6f7420617574686f72697a60448201527f656420746f20747261646520776974682070726f746f636c2066756e647300006064820152608401610b8a565b6060610ee3878686868080602002602001604051908101604052809392919081815260200183836020028082843760009201919091525061288a92505050565b9092509050610cc28287838787612bcd565b600080610f40606860009081526020527faa071f48f62aaaa1f6320aaa7bd2ad2d552d05160892c14d699d38c9920d5f995473ffffffffffffffffffffffffffffffffffffffff1690565b6040517f409fdb7200000000000000000000000000000000000000000000000000000000815233600482015273ffffffffffffffffffffffffffffffffffffffff919091169063409fdb729060240160006040518083038186803b158015610fa757600080fd5b505afa158015610fbb573d6000803e3d6000fd5b505050506040513d6000823e601f3d9081017fffffffffffffffffffffffffffffffffffffffffffffffffffffffffffffffe01682016040526110019190810190613c03565b9150915061104d606860009081526020527faa071f48f62aaaa1f6320aaa7bd2ad2d552d05160892c14d699d38c9920d5f995473ffffffffffffffffffffffffffffffffffffffff1690565b6040517fdb2d904d00000000000000000000000000000000000000000000000000000000815233600482015273ffffffffffffffffffffffffffffffffffffffff919091169063db2d904d90602401600060405180830381600087803b1580156110b657600080fd5b505af11580156110ca573d6000803e3d6000fd5b5050505060005b808351111561122a57606560009081526020527f4a7203f705e51df4a56139a9b86b4a0970bed7ab7a3446eaffe2289989c1645c5473ffffffffffffffffffffffffffffffffffffffff1673ffffffffffffffffffffffffffffffffffffffff1663d9caed1284838151811061115757634e487b7160e01b600052603260045260246000fd5b60200260200101513385858151811061118057634e487b7160e01b600052603260045260246000fd5b60209081029190910101516040517fffffffff0000000000000000000000000000000000000000000000000000000060e086901b16815273ffffffffffffffffffffffffffffffffffffffff93841660048201529290911660248301526044820152606401600060405180830381600087803b1580156111ff57600080fd5b505af1158015611213573d6000803e3d6000fd5b505050508080611222906140da565b9150506110d1565b5060405133907fe7b1fae3a790ceab07642c09617df79428b02832cd512bbfdd4db50272dcdf3090600090a25050565b6060610cc2858585858080602002602001604051908101604052809392919081815260200183836020028082843760009201919091525061288a92505050565b606560009081526020527f4a7203f705e51df4a56139a9b86b4a0970bed7ab7a3446eaffe2289989c1645c5473ffffffffffffffffffffffffffffffffffffffff1673ffffffffffffffffffffffffffffffffffffffff1663a6a5f9fe346040518263ffffffff1660e01b81526004016000604051808303818588803b15801561132357600080fd5b505af1158015611337573d6000803e3d6000fd5b50505050506000611386606860009081526020527faa071f48f62aaaa1f6320aaa7bd2ad2d552d05160892c14d699d38c9920d5f995473ffffffffffffffffffffffffffffffffffffffff1690565b6040517f52a664d900000000000000000000000000000000000000000000000000000000815233600482015273ffffffffffffffffffffffffffffffffffffffff7f00000000000000000000000000000000000000000000000000000000000000008116602483015234604483015291909116906352a664d990606401602060405180830381600087803b15801561141d57600080fd5b505af1158015611431573d6000803e3d6000fd5b505050506040513d601f19601f820116820180604052508101906114559190613d4f565b9050801561157457606660009081526020527f422cccb7cea5c0e46f340bb7b21b81debac329f72e31669c20ff0f3a05cc2b5b5473ffffffffffffffffffffffffffffffffffffffff166040517f2a6a897b00000000000000000000000000000000000000000000000000000000815273ffffffffffffffffffffffffffffffffffffffff7f000000000000000000000000000000000000000000000000000000000000000081166004830152602482018490529190911690632a6a897b90604401600060405180830381600087803b15801561153157600080fd5b505af1158015611545573d6000803e3d6000fd5b50505050611574337f000000000000000000000000000000000000000000000000000000000000000083612076565b60405133907fe7b1fae3a790ceab07642c09617df79428b02832cd512bbfdd4db50272dcdf3090600090a250565b6060814281101561160f576040517f08c379a000000000000000000000000000000000000000000000000000000000815260206004820152601160248201527f54726164652068617320657870697265640000000000000000000000000000006044820152606401610b8a565b606061166161161d8a612c84565b611627908b614019565b8888888080602002602001604051908101604052809392919081815260200183836020028082843760009201919091525061288a92505050565b909350905061170c33878760008161168957634e487b7160e01b600052603260045260246000fd5b905060200201602081019061169e9190613b15565b88886116ab60018261408e565b8181106116c857634e487b7160e01b600052603260045260246000fd5b90506020020160208101906116dd9190613b15565b866000815181106116fe57634e487b7160e01b600052603260045260246000fd5b60200260200101518d612ca4565b6117198389838989612bcd565b50509695505050505050565b6060610cc285858585808060200260200160405190810160405280939291908181526020018383602002808284376000920191909152506122d992505050565b606560009081526020527f4a7203f705e51df4a56139a9b86b4a0970bed7ab7a3446eaffe2289989c1645c5473ffffffffffffffffffffffffffffffffffffffff166040517fb3db428b00000000000000000000000000000000000000000000000000000000815233600482015273ffffffffffffffffffffffffffffffffffffffff868116602483015260448201869052919091169063b3db428b90606401600060405180830381600087803b15801561181f57600080fd5b505af1158015611833573d6000803e3d6000fd5b50506066600090815260205250507f422cccb7cea5c0e46f340bb7b21b81debac329f72e31669c20ff0f3a05cc2b5b5473ffffffffffffffffffffffffffffffffffffffff166040517fee0862bf00000000000000000000000000000000000000000000000000000000815273ffffffffffffffffffffffffffffffffffffffff848116600483015260248201849052919091169063ee0862bf90604401600060405180830381600087803b1580156118eb57600080fd5b505af11580156118ff573d6000803e3d6000fd5b50506068600090815260205250507faa071f48f62aaaa1f6320aaa7bd2ad2d552d05160892c14d699d38c9920d5f995473ffffffffffffffffffffffffffffffffffffffff166040517f1d84cc1800000000000000000000000000000000000000000000000000000000815233600482015273ffffffffffffffffffffffffffffffffffffffff8681166024830152604482018690528481166064830152608482018490529190911690631d84cc189060a401600060405180830381600087803b1580156119cc57600080fd5b505af11580156119e0573d6000803e3d6000fd5b50506065600090815260205250507f4a7203f705e51df4a56139a9b86b4a0970bed7ab7a3446eaffe2289989c1645c5473ffffffffffffffffffffffffffffffffffffffff166040517fd9caed1200000000000000000000000000000000000000000000000000000000815273ffffffffffffffffffffffffffffffffffffffff848116600483015233602483015260448201849052919091169063d9caed1290606401600060405180830381600087803b158015611a9e57600080fd5b505af1158015611ab2573d6000803e3d6000fd5b50505050611ac1338383612fb8565b60405133907fe7b1fae3a790ceab07642c09617df79428b02832cd512bbfdd4db50272dcdf3090600090a250505050565b60608142811015611b5f576040517f08c379a000000000000000000000000000000000000000000000000000000000815260206004820152601160248201527f54726164652068617320657870697265640000000000000000000000000000006044820152606401610b8a565b6000611b6a896130b0565b90506060611bb5611b7b838c61408e565b898989808060200260200160405190810160405280939291908181526020018383602002808284376000920191909152506122d992505050565b9094509050611c6c338888600081611bdd57634e487b7160e01b600052603260045260246000fd5b9050602002016020810190611bf29190613b15565b8989611bff60018261408e565b818110611c1c57634e487b7160e01b600052603260045260246000fd5b9050602002016020810190611c319190613b15565b8d8860018a51611c41919061408e565b81518110611c5f57634e487b7160e01b600052603260045260246000fd5b6020026020010151612ca4565b611c79848a838a8a612604565b5050509695505050505050565b606860009081526020527faa071f48f62aaaa1f6320aaa7bd2ad2d552d05160892c14d699d38c9920d5f995473ffffffffffffffffffffffffffffffffffffffff166040517fd0eb665300000000000000000000000000000000000000000000000000000000815233600482015273ffffffffffffffffffffffffffffffffffffffff848116602483015260448201849052919091169063d0eb665390606401600060405180830381600087803b158015611d4057600080fd5b505af1158015611d54573d6000803e3d6000fd5b50506065600090815260205250507f4a7203f705e51df4a56139a9b86b4a0970bed7ab7a3446eaffe2289989c1645c5473ffffffffffffffffffffffffffffffffffffffff166040517fd9caed1200000000000000000000000000000000000000000000000000000000815273ffffffffffffffffffffffffffffffffffffffff848116600483015233602483015260448201849052919091169063d9caed1290606401600060405180830381600087803b158015611e1257600080fd5b505af1158015611e26573d6000803e3d6000fd5b50506040513392507fe7b1fae3a790ceab07642c09617df79428b02832cd512bbfdd4db50272dcdf309150600090a25050565b606660009081526020527f422cccb7cea5c0e46f340bb7b21b81debac329f72e31669c20ff0f3a05cc2b5b5473ffffffffffffffffffffffffffffffffffffffff166040517fee0862bf00000000000000000000000000000000000000000000000000000000815273ffffffffffffffffffffffffffffffffffffffff848116600483015260248201849052919091169063ee0862bf90604401600060405180830381600087803b158015611f0d57600080fd5b505af1158015611f21573d6000803e3d6000fd5b50506068600090815260205250507faa071f48f62aaaa1f6320aaa7bd2ad2d552d05160892c14d699d38c9920d5f995473ffffffffffffffffffffffffffffffffffffffff166040517f498d55eb00000000000000000000000000000000000000000000000000000000815233600482015273ffffffffffffffffffffffffffffffffffffffff848116602483015260448201849052919091169063498d55eb90606401600060405180830381600087803b158015611fdf57600080fd5b505af1158015611ff3573d6000803e3d6000fd5b50505050612002338383612fb8565b60405133907fe7b1fae3a790ceab07642c09617df79428b02832cd512bbfdd4db50272dcdf3090600090a25050565b606560009081526020527f4a7203f705e51df4a56139a9b86b4a0970bed7ab7a3446eaffe2289989c1645c5473ffffffffffffffffffffffffffffffffffffffff1690565b73ffffffffffffffffffffffffffffffffffffffff82166000908152600260205260409020546120e4606c60009081526020527f3c1fcba39712202dbd455253568bf32dd0a3bedb5c3ff0de4b22d4e45e50dc925473ffffffffffffffffffffffffffffffffffffffff1690565b6040517fc6c9faa10000000000000000000000000000000000000000000000000000000081526004810183905273ffffffffffffffffffffffffffffffffffffffff868116602483015260448201859052919091169063c6c9faa190606401600060405180830381600087803b15801561215d57600080fd5b505af1158015612171573d6000803e3d6000fd5b5050505050505050565b60007f000000000000000000000000000000000000000000000000000000000000000073ffffffffffffffffffffffffffffffffffffffff16638da5cb5b6040518163ffffffff1660e01b815260040160206040518083038186803b1580156121e357600080fd5b505afa1580156121f7573d6000803e3d6000fd5b505050506040513d601f19601f8201168201806040525081019061221b9190613b38565b905090565b60007f000000000000000000000000000000000000000000000000000000000000000073ffffffffffffffffffffffffffffffffffffffff1663c34c08e56040518163ffffffff1660e01b8152600401602060405180830381600087803b15801561228a57600080fd5b505af11580156121f7573d6000803e3d6000fd5b73ffffffffffffffffffffffffffffffffffffffff811660009081526001602090815260408083206009845290915290205460ff165b919050565b606080600283511015612348576040517f08c379a000000000000000000000000000000000000000000000000000000000815260206004820152601460248201527f746f6b656e207061746820746f6f2073686f72740000000000000000000000006044820152606401610b8a565b825167ffffffffffffffff81111561237057634e487b7160e01b600052604160045260246000fd5b604051908082528060200260200182016040528015612399578160200160208202803683370190505b50915084826000815181106123be57634e487b7160e01b600052603260045260246000fd5b602002602001018181525050600183516123d8919061408e565b67ffffffffffffffff8111156123fe57634e487b7160e01b600052604160045260246000fd5b604051908082528060200260200182016040528015612427578160200160208202803683370190505b50905060005b6001845161243b919061408e565b8110156125fb57600084828151811061246457634e487b7160e01b600052603260045260246000fd5b6020026020010151905060008583600161247e9190614019565b8151811061249c57634e487b7160e01b600052603260045260246000fd5b6020026020010151905060008784602081106124c857634e487b7160e01b600052603260045260246000fd5b1a60f81b7fff000000000000000000000000000000000000000000000000000000000000001615612502576124fd83836130ca565b61250c565b61250c83836131f1565b90508085858151811061252f57634e487b7160e01b600052603260045260246000fd5b602002602001019073ffffffffffffffffffffffffffffffffffffffff16908173ffffffffffffffffffffffffffffffffffffffff16815250506000806125778386866132dd565b915091506125ad88878151811061259e57634e487b7160e01b600052603260045260246000fd5b602002602001015183836133e1565b886125b9886001614019565b815181106125d757634e487b7160e01b600052603260045260246000fd5b602002602001018181525050505050505080806125f3906140da565b91505061242d565b50935093915050565b838560018751612614919061408e565b8151811061263257634e487b7160e01b600052603260045260246000fd5b602002602001015110156126c8576040517f08c379a000000000000000000000000000000000000000000000000000000000815260206004820152602860248201527f4d617267696e526f757465723a20494e53554646494349454e545f4f5554505560448201527f545f414d4f554e540000000000000000000000000000000000000000000000006064820152608401610b8a565b606560009081526020527f4a7203f705e51df4a56139a9b86b4a0970bed7ab7a3446eaffe2289989c1645c5473ffffffffffffffffffffffffffffffffffffffff1673ffffffffffffffffffffffffffffffffffffffff1663d9caed128383600081811061274657634e487b7160e01b600052603260045260246000fd5b905060200201602081019061275b9190613b15565b8560008151811061277c57634e487b7160e01b600052603260045260246000fd5b6020026020010151886000815181106127a557634e487b7160e01b600052603260045260246000fd5b60209081029190910101516040517fffffffff0000000000000000000000000000000000000000000000000000000060e086901b16815273ffffffffffffffffffffffffffffffffffffffff93841660048201529290911660248301526044820152606401600060405180830381600087803b15801561282457600080fd5b505af1158015612838573d6000803e3d6000fd5b50505050612883858484848080602002602001604051908101604052809392919081815260200183836020028082843760009201919091525061287e9250612031915050565b613536565b5050505050565b6060806002835110156128f9576040517f08c379a000000000000000000000000000000000000000000000000000000000815260206004820152601460248201527f746f6b656e207061746820746f6f2073686f72740000000000000000000000006044820152606401610b8a565b825167ffffffffffffffff81111561292157634e487b7160e01b600052604160045260246000fd5b60405190808252806020026020018201604052801561294a578160200160208202803683370190505b50915084826001845161295d919061408e565b8151811061297b57634e487b7160e01b600052603260045260246000fd5b60200260200101818152505060018351612995919061408e565b67ffffffffffffffff8111156129bb57634e487b7160e01b600052604160045260246000fd5b6040519080825280602002602001820160405280156129e4578160200160208202803683370190505b5090506000600184516129f7919061408e565b90505b80156125fb57600084612a0e60018461408e565b81518110612a2c57634e487b7160e01b600052603260045260246000fd5b602002602001015190506000858381518110612a5857634e487b7160e01b600052603260045260246000fd5b60200260200101519050600087600185612a72919061408e565b60208110612a9057634e487b7160e01b600052603260045260246000fd5b1a60f81b7fff000000000000000000000000000000000000000000000000000000000000001615612aca57612ac583836130ca565b612ad4565b612ad483836131f1565b90508085612ae360018761408e565b81518110612b0157634e487b7160e01b600052603260045260246000fd5b602002602001019073ffffffffffffffffffffffffffffffffffffffff16908173ffffffffffffffffffffffffffffffffffffffff1681525050600080612b498386866132dd565b91509150612b7f888781518110612b7057634e487b7160e01b600052603260045260246000fd5b6020026020010151838361378b565b88612b8b60018961408e565b81518110612ba957634e487b7160e01b600052603260045260246000fd5b60200260200101818152505050505050508080612bc5906140a5565b9150506129fa565b8385600081518110612bef57634e487b7160e01b600052603260045260246000fd5b602002602001015111156126c8576040517f08c379a0000000000000000000000000000000000000000000000000000000008152602060048201526024808201527f4d617267696e526f757465723a204558434553534956455f494e5055545f414d60448201527f4f554e54000000000000000000000000000000000000000000000000000000006064820152608401610b8a565b6000612710612c9483600a614051565b612c9e9190614031565b92915050565b600080612cef606860009081526020527faa071f48f62aaaa1f6320aaa7bd2ad2d552d05160892c14d699d38c9920d5f995473ffffffffffffffffffffffffffffffffffffffff1690565b6040517f3500aa0b00000000000000000000000000000000000000000000000000000000815273ffffffffffffffffffffffffffffffffffffffff89811660048301528881166024830152878116604483015260648201879052608482018690529190911690633500aa0b9060a4016040805180830381600087803b158015612d7757600080fd5b505af1158015612d8b573d6000803e3d6000fd5b505050506040513d601f19601f82011682018060405250810190612daf9190613ddc565b90925090508115612e9157606660009081526020527f422cccb7cea5c0e46f340bb7b21b81debac329f72e31669c20ff0f3a05cc2b5b5473ffffffffffffffffffffffffffffffffffffffff166040517f2a6a897b00000000000000000000000000000000000000000000000000000000815273ffffffffffffffffffffffffffffffffffffffff8781166004830152602482018590529190911690632a6a897b90604401600060405180830381600087803b158015612e6e57600080fd5b505af1158015612e82573d6000803e3d6000fd5b50505050612e91878684612076565b8015612f6e57606660009081526020527f422cccb7cea5c0e46f340bb7b21b81debac329f72e31669c20ff0f3a05cc2b5b5473ffffffffffffffffffffffffffffffffffffffff166040517fee0862bf00000000000000000000000000000000000000000000000000000000815273ffffffffffffffffffffffffffffffffffffffff888116600483015260248201849052919091169063ee0862bf90604401600060405180830381600087803b158015612f4b57600080fd5b505af1158015612f5f573d6000803e3d6000fd5b50505050612f6e878783612fb8565b60405173ffffffffffffffffffffffffffffffffffffffff8816907fe7b1fae3a790ceab07642c09617df79428b02832cd512bbfdd4db50272dcdf3090600090a250505050505050565b6000613002606c60009081526020527f3c1fcba39712202dbd455253568bf32dd0a3bedb5c3ff0de4b22d4e45e50dc925473ffffffffffffffffffffffffffffffffffffffff1690565b73ffffffffffffffffffffffffffffffffffffffff848116600090815260026020526040908190205490517f2b5de286000000000000000000000000000000000000000000000000000000008152600481018290528783166024820152604481018690529293509190831690632b5de28690606401600060405180830381600087803b15801561309157600080fd5b505af11580156130a5573d6000803e3d6000fd5b505050505050505050565b60006130bf600a612710614019565b612c9483600a614051565b60008060006130d985856138e6565b60408051606084811b7fffffffffffffffffffffffffffffffffffffffff0000000000000000000000009081166020808501919091529185901b166034830152825160288184030181526048830190935282519201919091207fff0000000000000000000000000000000000000000000000000000000000000060688301527fc0aee478e3658e2610c5f7a4a2e1777ce9e4f2ac0000000000000000000000006069830152607d8201527fe18a34eb0e04b04f7a0ac29a6e80748dca96319b42c54d679cb821dca90c6303609d820152919350915060bd015b604080517fffffffffffffffffffffffffffffffffffffffffffffffffffffffffffffffe0818403018152919052805160209091012095945050505050565b600080600061320085856138e6565b60408051606084811b7fffffffffffffffffffffffffffffffffffffffff0000000000000000000000009081166020808501919091529185901b166034830152825160288184030181526048830190935282519201919091207fff0000000000000000000000000000000000000000000000000000000000000060688301527f5c69bee701ef814a2b6a3edd4b1652cb9cc5aa6f0000000000000000000000006069830152607d8201527f96e8ac4277198ff8b6f785478aa9a39f403cb768dd02cbee326c3e7da348845f609d820152919350915060bd016131b2565b60008060006132ec85856138e6565b5090506000808773ffffffffffffffffffffffffffffffffffffffff16630902f1ac6040518163ffffffff1660e01b815260040160606040518083038186803b15801561333857600080fd5b505afa15801561334c573d6000803e3d6000fd5b505050506040513d601f19601f820116820180604052508101906133709190613ce9565b506dffffffffffffffffffffffffffff1691506dffffffffffffffffffffffffffff1691508273ffffffffffffffffffffffffffffffffffffffff168773ffffffffffffffffffffffffffffffffffffffff16146133cf5780826133d2565b81815b90999098509650505050505050565b600080841161344c576040517f08c379a000000000000000000000000000000000000000000000000000000000815260206004820152601960248201527f494e53554646494349454e545f494e5055545f414d4f554e54000000000000006044820152606401610b8a565b60008311801561345c5750600082115b6134e8576040517f08c379a000000000000000000000000000000000000000000000000000000000815260206004820152602860248201527f556e697377617056324c6962726172793a20494e53554646494349454e545f4c60448201527f49515549444954590000000000000000000000000000000000000000000000006064820152608401610b8a565b60006134f6856103e5614051565b905060006135048483614051565b9050600082613515876103e8614051565b61351f9190614019565b905061352b8183614031565b979650505050505050565b60005b83518110156128835760008084838151811061356557634e487b7160e01b600052603260045260246000fd5b60200260200101518584600161357b9190614019565b8151811061359957634e487b7160e01b600052603260045260246000fd5b60200260200101519150915060006135b183836138e6565b5090506000886135c2866001614019565b815181106135e057634e487b7160e01b600052603260045260246000fd5b602002602001015190506000808373ffffffffffffffffffffffffffffffffffffffff168673ffffffffffffffffffffffffffffffffffffffff16146136285782600061362c565b6000835b91509150600060018b51613640919061408e565b881061364c578861367f565b8a613658896001614019565b8151811061367657634e487b7160e01b600052603260045260246000fd5b60200260200101515b905060008b89815181106136a357634e487b7160e01b600052603260045260246000fd5b602002602001015190508073ffffffffffffffffffffffffffffffffffffffff1663022c0d9f858585600067ffffffffffffffff8111156136f457634e487b7160e01b600052604160045260246000fd5b6040519080825280601f01601f19166020018201604052801561371e576020820181803683370190505b506040518563ffffffff1660e01b815260040161373e9493929190613f09565b600060405180830381600087803b15801561375857600080fd5b505af115801561376c573d6000803e3d6000fd5b5050505050505050505050508080613783906140da565b915050613539565b60008084116137f6576040517f08c379a000000000000000000000000000000000000000000000000000000000815260206004820152601a60248201527f494e53554646494349454e545f4f55545055545f414d4f554e540000000000006044820152606401610b8a565b6000831180156138065750600082115b613892576040517f08c379a000000000000000000000000000000000000000000000000000000000815260206004820152602860248201527f556e697377617056324c6962726172793a20494e53554646494349454e545f4c60448201527f49515549444954590000000000000000000000000000000000000000000000006064820152608401610b8a565b600061389e8585614051565b6138aa906103e8614051565b905060006103e56138bb878661408e565b6138c5919061408e565b90506138d18183614031565b6138dc906001614019565b9695505050505050565b6000808273ffffffffffffffffffffffffffffffffffffffff168473ffffffffffffffffffffffffffffffffffffffff16141561397f576040517f08c379a000000000000000000000000000000000000000000000000000000000815260206004820152601260248201527f4964656e746963616c20616464726573732100000000000000000000000000006044820152606401610b8a565b8273ffffffffffffffffffffffffffffffffffffffff168473ffffffffffffffffffffffffffffffffffffffff16106139b95782846139bc565b83835b909250905073ffffffffffffffffffffffffffffffffffffffff8216613a3e576040517f08c379a000000000000000000000000000000000000000000000000000000000815260206004820152600d60248201527f5a65726f206164647265737321000000000000000000000000000000000000006044820152606401610b8a565b9250929050565b60008083601f840112613a56578182fd5b50813567ffffffffffffffff811115613a6d578182fd5b6020830191508360208260051b8501011115613a3e57600080fd5b600082601f830112613a98578081fd5b81516020613aad613aa883613ff5565b613fa6565b80838252828201915082860187848660051b8901011115613acc578586fd5b855b85811015613aea57815184529284019290840190600101613ace565b5090979650505050505050565b80516dffffffffffffffffffffffffffff811681146122d457600080fd5b600060208284031215613b26578081fd5b8135613b318161413f565b9392505050565b600060208284031215613b49578081fd5b8151613b318161413f565b60008060408385031215613b66578081fd5b8235613b718161413f565b946020939093013593505050565b60008060008060808587031215613b94578182fd5b8435613b9f8161413f565b9350602085013592506040850135613bb68161413f565b9396929550929360600135925050565b60008060408385031215613bd8578182fd5b8235613be38161413f565b9150602083013560ff81168114613bf8578182fd5b809150509250929050565b60008060408385031215613c15578182fd5b825167ffffffffffffffff80821115613c2c578384fd5b818501915085601f830112613c3f578384fd5b81516020613c4f613aa883613ff5565b8083825282820191508286018a848660051b8901011115613c6e578889fd5b8896505b84871015613c99578051613c858161413f565b835260019690960195918301918301613c72565b5091880151919650909350505080821115613cb2578283fd5b50613cbf85828601613a88565b9150509250929050565b600060208284031215613cda578081fd5b81518015158114613b31578182fd5b600080600060608486031215613cfd578283fd5b613d0684613af7565b9250613d1460208501613af7565b9150604084015163ffffffff81168114613d2c578182fd5b809150509250925092565b600060208284031215613d48578081fd5b5035919050565b600060208284031215613d60578081fd5b5051919050565b60008060408385031215613d79578182fd5b823591506020830135613bf88161413f565b60008060008060608587031215613da0578182fd5b8435935060208501359250604085013567ffffffffffffffff811115613dc4578283fd5b613dd087828801613a45565b95989497509550505050565b60008060408385031215613dee578182fd5b505080516020909101519092909150565b600080600080600060808688031215613e16578283fd5b853594506020860135935060408601359250606086013567ffffffffffffffff811115613e41578182fd5b613e4d88828901613a45565b969995985093965092949392505050565b60008060008060008060a08789031215613e76578384fd5b863595506020870135945060408701359350606087013567ffffffffffffffff811115613ea1578182fd5b613ead89828a01613a45565b979a9699509497949695608090950135949350505050565b6020808252825182820181905260009190848201906040850190845b81811015613efd57835183529284019291840191600101613ee1565b50909695505050505050565b60008582526020858184015273ffffffffffffffffffffffffffffffffffffffff85166040840152608060608401528351806080850152825b81811015613f5e5785810183015185820160a001528201613f42565b81811115613f6f578360a083870101525b50601f017fffffffffffffffffffffffffffffffffffffffffffffffffffffffffffffffe0169290920160a0019695505050505050565b604051601f82017fffffffffffffffffffffffffffffffffffffffffffffffffffffffffffffffe016810167ffffffffffffffff81118282101715613fed57613fed614129565b604052919050565b600067ffffffffffffffff82111561400f5761400f614129565b5060051b60200190565b6000821982111561402c5761402c614113565b500190565b60008261404c57634e487b7160e01b81526012600452602481fd5b500490565b6000817fffffffffffffffffffffffffffffffffffffffffffffffffffffffffffffffff048311821515161561408957614089614113565b500290565b6000828210156140a0576140a0614113565b500390565b6000816140b4576140b4614113565b507fffffffffffffffffffffffffffffffffffffffffffffffffffffffffffffffff0190565b60007fffffffffffffffffffffffffffffffffffffffffffffffffffffffffffffffff82141561410c5761410c614113565b5060010190565b634e487b7160e01b600052601160045260246000fd5b634e487b7160e01b600052604160045260246000fd5b73ffffffffffffffffffffffffffffffffffffffff8116811461416157600080fd5b5056fea2646970667358221220e5f1e59b3e3a303ed8488c435e786ea215691a3d02d87a9d1259ef835ce2a8d564736f6c63430008030033",
  "linkReferences": {},
  "deployedLinkReferences": {}
}