{
  "_format": "hh-sol-artifact-1",
  "contractName": "MarginRouter",
  "sourceName": "contracts/MarginRouter.sol",
  "abi": [
    {
      "inputs": [
        {
          "internalType": "address",
          "name": "_WETH",
          "type": "address"
        },
        {
          "internalType": "address",
          "name": "_amm1Factory",
          "type": "address"
        },
        {
          "internalType": "address",
          "name": "_amm2Factory",
          "type": "address"
        },
        {
          "internalType": "address",
          "name": "_amm3Factory",
          "type": "address"
        },
        {
          "internalType": "bytes32",
          "name": "_amm1InitHash",
          "type": "bytes32"
        },
        {
          "internalType": "bytes32",
          "name": "_amm2InitHash",
          "type": "bytes32"
        },
        {
          "internalType": "bytes32",
          "name": "_amm3InitHash",
          "type": "bytes32"
        },
        {
          "internalType": "uint256",
          "name": "_feeBase",
          "type": "uint256"
        },
        {
          "internalType": "address",
          "name": "_roles",
          "type": "address"
        }
      ],
      "stateMutability": "nonpayable",
      "type": "constructor"
    },
    {
      "anonymous": false,
      "inputs": [
        {
          "indexed": true,
          "internalType": "address",
          "name": "trader",
          "type": "address"
        }
      ],
      "name": "AccountUpdated",
      "type": "event"
    },
    {
      "anonymous": false,
      "inputs": [
        {
          "indexed": true,
          "internalType": "address",
          "name": "trader",
          "type": "address"
        },
        {
          "indexed": false,
          "internalType": "address",
          "name": "fromToken",
          "type": "address"
        },
        {
          "indexed": false,
          "internalType": "address",
          "name": "toToken",
          "type": "address"
        },
        {
          "indexed": false,
          "internalType": "uint256",
          "name": "fromAmount",
          "type": "uint256"
        },
        {
          "indexed": false,
          "internalType": "uint256",
          "name": "toAmount",
          "type": "uint256"
        }
      ],
      "name": "MarginTrade",
      "type": "event"
    },
    {
      "anonymous": false,
      "inputs": [
        {
          "indexed": false,
          "internalType": "uint256",
          "name": "orderId",
          "type": "uint256"
        },
        {
          "indexed": false,
          "internalType": "address",
          "name": "fromToken",
          "type": "address"
        },
        {
          "indexed": false,
          "internalType": "address",
          "name": "toToken",
          "type": "address"
        },
        {
          "indexed": false,
          "internalType": "uint256",
          "name": "inAmount",
          "type": "uint256"
        },
        {
          "indexed": false,
          "internalType": "uint256",
          "name": "outAmout",
          "type": "uint256"
        },
        {
          "indexed": false,
          "internalType": "address",
          "name": "maker",
          "type": "address"
        },
        {
          "indexed": false,
          "internalType": "uint256",
          "name": "expiration",
          "type": "uint256"
        }
      ],
      "name": "OrderMade",
      "type": "event"
    },
    {
      "anonymous": false,
      "inputs": [
        {
          "indexed": false,
          "internalType": "uint256",
          "name": "orderId",
          "type": "uint256"
        },
        {
          "indexed": true,
          "internalType": "address",
          "name": "taker",
          "type": "address"
        },
        {
          "indexed": false,
          "internalType": "uint256",
          "name": "remainingInAmount",
          "type": "uint256"
        },
        {
          "indexed": false,
          "internalType": "uint256",
          "name": "amountTaken",
          "type": "uint256"
        }
      ],
      "name": "OrderTaken",
      "type": "event"
    },
    {
      "inputs": [],
      "name": "WETH",
      "outputs": [
        {
          "internalType": "address",
          "name": "",
          "type": "address"
        }
      ],
      "stateMutability": "view",
      "type": "function"
    },
    {
      "inputs": [],
      "name": "amm1Factory",
      "outputs": [
        {
          "internalType": "address",
          "name": "",
          "type": "address"
        }
      ],
      "stateMutability": "view",
      "type": "function"
    },
    {
      "inputs": [],
      "name": "amm1InitHash",
      "outputs": [
        {
          "internalType": "bytes32",
          "name": "",
          "type": "bytes32"
        }
      ],
      "stateMutability": "view",
      "type": "function"
    },
    {
      "inputs": [],
      "name": "amm2Factory",
      "outputs": [
        {
          "internalType": "address",
          "name": "",
          "type": "address"
        }
      ],
      "stateMutability": "view",
      "type": "function"
    },
    {
      "inputs": [],
      "name": "amm2InitHash",
      "outputs": [
        {
          "internalType": "bytes32",
          "name": "",
          "type": "bytes32"
        }
      ],
      "stateMutability": "view",
      "type": "function"
    },
    {
      "inputs": [],
      "name": "amm3Factory",
      "outputs": [
        {
          "internalType": "address",
          "name": "",
          "type": "address"
        }
      ],
      "stateMutability": "view",
      "type": "function"
    },
    {
      "inputs": [],
      "name": "amm3InitHash",
      "outputs": [
        {
          "internalType": "bytes32",
          "name": "",
          "type": "bytes32"
        }
      ],
      "stateMutability": "view",
      "type": "function"
    },
    {
      "inputs": [
        {
          "internalType": "uint256",
          "name": "amountIn",
          "type": "uint256"
        },
        {
          "internalType": "uint256",
          "name": "amountOutMin",
          "type": "uint256"
        },
        {
          "internalType": "bytes32",
          "name": "amms",
          "type": "bytes32"
        },
        {
          "internalType": "address[]",
          "name": "tokens",
          "type": "address[]"
        }
      ],
      "name": "authorizedSwapExactT4T",
      "outputs": [
        {
          "internalType": "uint256[]",
          "name": "amounts",
          "type": "uint256[]"
        }
      ],
      "stateMutability": "nonpayable",
      "type": "function"
    },
    {
      "inputs": [
        {
          "internalType": "uint256",
          "name": "amountOut",
          "type": "uint256"
        },
        {
          "internalType": "uint256",
          "name": "amountInMax",
          "type": "uint256"
        },
        {
          "internalType": "bytes32",
          "name": "amms",
          "type": "bytes32"
        },
        {
          "internalType": "address[]",
          "name": "tokens",
          "type": "address[]"
        }
      ],
      "name": "authorizedSwapT4ExactT",
      "outputs": [
        {
          "internalType": "uint256[]",
          "name": "amounts",
          "type": "uint256[]"
        }
      ],
      "stateMutability": "nonpayable",
      "type": "function"
    },
    {
      "inputs": [
        {
          "internalType": "address",
          "name": "borrowToken",
          "type": "address"
        },
        {
          "internalType": "uint256",
          "name": "borrowAmount",
          "type": "uint256"
        }
      ],
      "name": "crossBorrow",
      "outputs": [],
      "stateMutability": "nonpayable",
      "type": "function"
    },
    {
      "inputs": [],
      "name": "crossCloseAccount",
      "outputs": [],
      "stateMutability": "nonpayable",
      "type": "function"
    },
    {
      "inputs": [
        {
          "internalType": "address",
          "name": "depositToken",
          "type": "address"
        },
        {
          "internalType": "uint256",
          "name": "depositAmount",
          "type": "uint256"
        }
      ],
      "name": "crossDeposit",
      "outputs": [],
      "stateMutability": "nonpayable",
      "type": "function"
    },
    {
      "inputs": [],
      "name": "crossDepositETH",
      "outputs": [],
      "stateMutability": "payable",
      "type": "function"
    },
    {
      "inputs": [
        {
          "internalType": "address",
          "name": "depositToken",
          "type": "address"
        },
        {
          "internalType": "uint256",
          "name": "depositAmount",
          "type": "uint256"
        },
        {
          "internalType": "address",
          "name": "borrowToken",
          "type": "address"
        },
        {
          "internalType": "uint256",
          "name": "withdrawAmount",
          "type": "uint256"
        }
      ],
      "name": "crossOvercollateralizedBorrow",
      "outputs": [],
      "stateMutability": "nonpayable",
      "type": "function"
    },
    {
      "inputs": [
        {
          "internalType": "address",
          "name": "withdrawToken",
          "type": "address"
        },
        {
          "internalType": "uint256",
          "name": "withdrawAmount",
          "type": "uint256"
        }
      ],
      "name": "crossWithdraw",
      "outputs": [],
      "stateMutability": "nonpayable",
      "type": "function"
    },
    {
      "inputs": [
        {
          "internalType": "uint256",
          "name": "withdrawAmount",
          "type": "uint256"
        }
      ],
      "name": "crossWithdrawETH",
      "outputs": [],
      "stateMutability": "nonpayable",
      "type": "function"
    },
    {
      "inputs": [],
      "name": "feeBase",
      "outputs": [
        {
          "internalType": "uint256",
          "name": "",
          "type": "uint256"
        }
      ],
      "stateMutability": "view",
      "type": "function"
    },
    {
      "inputs": [
        {
          "internalType": "uint256",
          "name": "outAmount",
          "type": "uint256"
        },
        {
          "internalType": "bytes32",
          "name": "amms",
          "type": "bytes32"
        },
        {
          "internalType": "address[]",
          "name": "tokens",
          "type": "address[]"
        }
      ],
      "name": "getAmountsIn",
      "outputs": [
        {
          "internalType": "uint256[]",
          "name": "amounts",
          "type": "uint256[]"
        }
      ],
      "stateMutability": "view",
      "type": "function"
    },
    {
      "inputs": [
        {
          "internalType": "uint256",
          "name": "inAmount",
          "type": "uint256"
        },
        {
          "internalType": "bytes32",
          "name": "amms",
          "type": "bytes32"
        },
        {
          "internalType": "address[]",
          "name": "tokens",
          "type": "address[]"
        }
      ],
      "name": "getAmountsOut",
      "outputs": [
        {
          "internalType": "uint256[]",
          "name": "amounts",
          "type": "uint256[]"
        }
      ],
      "stateMutability": "view",
      "type": "function"
    },
    {
      "inputs": [
        {
          "internalType": "address",
          "name": "user",
          "type": "address"
        }
      ],
      "name": "getPendingOrderPerUser",
      "outputs": [
        {
          "internalType": "uint256[]",
          "name": "",
          "type": "uint256[]"
        }
      ],
      "stateMutability": "view",
      "type": "function"
    },
    {
      "inputs": [],
      "name": "getPendingOrderRecords",
      "outputs": [
        {
          "components": [
            {
              "internalType": "address",
              "name": "fromToken",
              "type": "address"
            },
            {
              "internalType": "address",
              "name": "toToken",
              "type": "address"
            },
            {
              "internalType": "uint256",
              "name": "inAmount",
              "type": "uint256"
            },
            {
              "internalType": "uint256",
              "name": "outAmount",
              "type": "uint256"
            },
            {
              "internalType": "address",
              "name": "maker",
              "type": "address"
            },
            {
              "internalType": "uint256",
              "name": "expiration",
              "type": "uint256"
            }
          ],
          "internalType": "struct MarginRouter.Order[]",
          "name": "",
          "type": "tuple[]"
        }
      ],
      "stateMutability": "view",
      "type": "function"
    },
    {
      "inputs": [
        {
          "internalType": "address",
          "name": "user",
          "type": "address"
        }
      ],
      "name": "getPendingOrderRecordsPerUser",
      "outputs": [
        {
          "components": [
            {
              "internalType": "address",
              "name": "fromToken",
              "type": "address"
            },
            {
              "internalType": "address",
              "name": "toToken",
              "type": "address"
            },
            {
              "internalType": "uint256",
              "name": "inAmount",
              "type": "uint256"
            },
            {
              "internalType": "uint256",
              "name": "outAmount",
              "type": "uint256"
            },
            {
              "internalType": "address",
              "name": "maker",
              "type": "address"
            },
            {
              "internalType": "uint256",
              "name": "expiration",
              "type": "uint256"
            }
          ],
          "internalType": "struct MarginRouter.Order[]",
          "name": "",
          "type": "tuple[]"
        }
      ],
      "stateMutability": "view",
      "type": "function"
    },
    {
      "inputs": [],
      "name": "getPendingOrders",
      "outputs": [
        {
          "internalType": "uint256[]",
          "name": "",
          "type": "uint256[]"
        }
      ],
      "stateMutability": "view",
      "type": "function"
    },
    {
      "inputs": [
        {
          "internalType": "uint256",
          "name": "orderId",
          "type": "uint256"
        }
      ],
      "name": "invalidateOrder",
      "outputs": [],
      "stateMutability": "nonpayable",
      "type": "function"
    },
    {
      "inputs": [
        {
          "internalType": "uint256",
          "name": "",
          "type": "uint256"
        }
      ],
      "name": "mainCharacterCache",
      "outputs": [
        {
          "internalType": "address",
          "name": "",
          "type": "address"
        }
      ],
      "stateMutability": "view",
      "type": "function"
    },
    {
      "inputs": [
        {
          "internalType": "address",
          "name": "_fromToken",
          "type": "address"
        },
        {
          "internalType": "address",
          "name": "_toToken",
          "type": "address"
        },
        {
          "internalType": "uint256",
          "name": "_inAmount",
          "type": "uint256"
        },
        {
          "internalType": "uint256",
          "name": "_outAmount",
          "type": "uint256"
        },
        {
          "internalType": "uint256",
          "name": "_expiration",
          "type": "uint256"
        }
      ],
      "name": "makeOrder",
      "outputs": [],
      "stateMutability": "nonpayable",
      "type": "function"
    },
    {
      "inputs": [],
      "name": "mswapFeesPer10k",
      "outputs": [
        {
          "internalType": "uint256",
          "name": "",
          "type": "uint256"
        }
      ],
      "stateMutability": "view",
      "type": "function"
    },
    {
      "inputs": [
        {
          "internalType": "uint256",
          "name": "",
          "type": "uint256"
        }
      ],
      "name": "orders",
      "outputs": [
        {
          "internalType": "address",
          "name": "fromToken",
          "type": "address"
        },
        {
          "internalType": "address",
          "name": "toToken",
          "type": "address"
        },
        {
          "internalType": "uint256",
          "name": "inAmount",
          "type": "uint256"
        },
        {
          "internalType": "uint256",
          "name": "outAmount",
          "type": "uint256"
        },
        {
          "internalType": "address",
          "name": "maker",
          "type": "address"
        },
        {
          "internalType": "uint256",
          "name": "expiration",
          "type": "uint256"
        }
      ],
      "stateMutability": "view",
      "type": "function"
    },
    {
      "inputs": [
        {
          "internalType": "address",
          "name": "",
          "type": "address"
        },
        {
          "internalType": "uint256",
          "name": "",
          "type": "uint256"
        }
      ],
      "name": "roleCache",
      "outputs": [
        {
          "internalType": "bool",
          "name": "",
          "type": "bool"
        }
      ],
      "stateMutability": "view",
      "type": "function"
    },
    {
      "inputs": [],
      "name": "roles",
      "outputs": [
        {
          "internalType": "contract Roles",
          "name": "",
          "type": "address"
        }
      ],
      "stateMutability": "view",
      "type": "function"
    },
    {
      "inputs": [
        {
          "internalType": "uint256",
          "name": "amountIn",
          "type": "uint256"
        },
        {
          "internalType": "uint256",
          "name": "amountOutMin",
          "type": "uint256"
        },
        {
          "internalType": "bytes32",
          "name": "amms",
          "type": "bytes32"
        },
        {
          "internalType": "address[]",
          "name": "tokens",
          "type": "address[]"
        },
        {
          "internalType": "uint256",
          "name": "deadline",
          "type": "uint256"
        }
      ],
      "name": "swapExactTokensForTokens",
      "outputs": [
        {
          "internalType": "uint256[]",
          "name": "amounts",
          "type": "uint256[]"
        }
      ],
      "stateMutability": "nonpayable",
      "type": "function"
    },
    {
      "inputs": [
        {
          "internalType": "uint256",
          "name": "amountOut",
          "type": "uint256"
        },
        {
          "internalType": "uint256",
          "name": "amountInMax",
          "type": "uint256"
        },
        {
          "internalType": "bytes32",
          "name": "amms",
          "type": "bytes32"
        },
        {
          "internalType": "address[]",
          "name": "tokens",
          "type": "address[]"
        },
        {
          "internalType": "uint256",
          "name": "deadline",
          "type": "uint256"
        }
      ],
      "name": "swapTokensForExactTokens",
      "outputs": [
        {
          "internalType": "uint256[]",
          "name": "amounts",
          "type": "uint256[]"
        }
      ],
      "stateMutability": "nonpayable",
      "type": "function"
    },
    {
      "inputs": [
        {
          "internalType": "uint256",
          "name": "orderId",
          "type": "uint256"
        },
        {
          "internalType": "uint256",
          "name": "maxInAmount",
          "type": "uint256"
        }
      ],
      "name": "takeOrder",
      "outputs": [],
      "stateMutability": "nonpayable",
      "type": "function"
    },
    {
      "inputs": [
        {
          "internalType": "uint256",
          "name": "orderId",
          "type": "uint256"
        },
        {
          "internalType": "bytes32",
          "name": "amms",
          "type": "bytes32"
        },
        {
          "internalType": "address[]",
          "name": "tokens",
          "type": "address[]"
        }
      ],
      "name": "takeOrderOnAMM",
      "outputs": [],
      "stateMutability": "nonpayable",
      "type": "function"
    },
    {
      "inputs": [
        {
          "internalType": "uint256",
          "name": "role",
          "type": "uint256"
        }
      ],
      "name": "updateMainCharacterCache",
      "outputs": [],
      "stateMutability": "nonpayable",
      "type": "function"
    },
    {
      "inputs": [
        {
          "internalType": "uint256",
          "name": "role",
          "type": "uint256"
        },
        {
          "internalType": "address",
          "name": "contr",
          "type": "address"
        }
      ],
      "name": "updateRoleCache",
      "outputs": [],
      "stateMutability": "nonpayable",
      "type": "function"
    }
  ],
  "bytecode": "0x61014060405260016009553480156200001757600080fd5b5060405162004c3c38038062004c3c8339810160408190526200003a916200011a565b87878787878787876001600160a01b038116620000a85760405162461bcd60e51b815260206004820152602260248201527f506c656173652070726f766964652076616c696420726f6c6573206164647265604482015261737360f01b606482015260840160405180910390fd5b6001600160601b0319606091821b811660805297811b881660a05295861b871660c05293851b861660e052600292909255600355600455610100529990991b9098166101205250620001b09650505050505050565b80516001600160a01b03811681146200011557600080fd5b919050565b60008060008060008060008060006101208a8c03121562000139578485fd5b620001448a620000fd565b98506200015460208b01620000fd565b97506200016460408b01620000fd565b96506200017460608b01620000fd565b955060808a0151945060a08a0151935060c08a0151925060e08a01519150620001a16101008b01620000fd565b90509295985092959850929598565b60805160601c60a05160601c60c05160601c60e05160601c610100516101205160601c6149e06200025c6000396000818161060501528181610d6f015281816120bb0152818161216b01526121df0152600081816104fc01528181613a880152613f0a0152600081816106cd01526137d3015260008181610226015261386601526000818161065901526138d801526000818161038b015281816107c7015261148801526149e06000f3fe60806040526004361061020f5760003560e01c80638c98b7f611610118578063ca91d511116100a0578063e2abb5c41161006f578063e2abb5c414610705578063e3e0626b1461071b578063e3ee43271461073b578063e9c3f77d1461075b578063eedb97c7146107915761020f565b8063ca91d5111461067b578063cb6067dd1461069b578063db429235146106bb578063df7c20f9146106ef5761020f565b8063a75208a8116100e7578063a75208a81461053e578063a85c38ef14610554578063ad5c4648146105f3578063b7453e2714610627578063b852eb0d146106475761020f565b80638c98b7f6146104c257806394427b20146104e257806395e911a8146104ea578063a1c665701461051e5761020f565b8063392f5f641161019b578063696986701161016a578063696986701461040d5780636d62629014610422578063799d34e1146104425780637a1a04df146104625780637c350624146104ad5761020f565b8063392f5f6414610379578063447d52ba146103ad57806353d7ff9f146103cd5780635565792c146103ed5761020f565b80631084bd6d116101e25780631084bd6d146102d65780631306d902146102f95780631dce3baa146103195780632eab93cb14610339578063351ae610146103595761020f565b8063059b157a14610214578063071060a6146102655780630abb674c146102875780630e5c4999146102b4575b600080fd5b34801561022057600080fd5b506102487f000000000000000000000000000000000000000000000000000000000000000081565b6040516001600160a01b0390911681526020015b60405180910390f35b34801561027157600080fd5b5061028561028036600461441e565b6107b1565b005b34801561029357600080fd5b506102a76102a236600461456f565b610877565b60405161025c91906146f9565b3480156102c057600080fd5b506102c9610a8f565b60405161025c9190614671565b3480156102e257600080fd5b506102eb600a81565b60405190815260200161025c565b34801561030557600080fd5b50610285610314366004614279565b610bca565b34801561032557600080fd5b5061028561033436600461441e565b610d56565b34801561034557600080fd5b506102856103543660046144cd565b610e62565b34801561036557600080fd5b506102a7610374366004614511565b6113c8565b34801561038557600080fd5b506102487f000000000000000000000000000000000000000000000000000000000000000081565b3480156103b957600080fd5b506102856103c836600461444e565b611462565b3480156103d957600080fd5b506102a76103e8366004614511565b61153a565b3480156103f957600080fd5b506102c96104083660046141f1565b6115ca565b34801561041957600080fd5b5061028561171e565b34801561042e57600080fd5b5061028561043d366004614229565b611901565b34801561044e57600080fd5b506102a761045d36600461447d565b611a69565b34801561046e57600080fd5b5061049d61047d366004614279565b600160209081526000928352604080842090915290825290205460ff1681565b604051901515815260200161025c565b3480156104b957600080fd5b506102a7611aa9565b3480156104ce57600080fd5b506102856104dd36600461447d565b611aba565b610285612045565b3480156104f657600080fd5b506102eb7f000000000000000000000000000000000000000000000000000000000000000081565b34801561052a57600080fd5b5061028561053936600461441e565b612221565b34801561054a57600080fd5b506102eb60025481565b34801561056057600080fd5b506105b461056f36600461441e565b6008602052600090815260409020805460018201546002830154600384015460048501546005909501546001600160a01b039485169593851694929391929091169086565b604080516001600160a01b03978816815295871660208701528501939093526060840191909152909216608082015260a081019190915260c00161025c565b3480156105ff57600080fd5b506102487f000000000000000000000000000000000000000000000000000000000000000081565b34801561063357600080fd5b506102a761064236600461447d565b6122e6565b34801561065357600080fd5b506102487f000000000000000000000000000000000000000000000000000000000000000081565b34801561068757600080fd5b506102a76106963660046141f1565b612326565b3480156106a757600080fd5b506102856106b63660046142a4565b612350565b3480156106c757600080fd5b506102487f000000000000000000000000000000000000000000000000000000000000000081565b3480156106fb57600080fd5b506102eb60035481565b34801561071157600080fd5b506102eb60045481565b34801561072757600080fd5b50610285610736366004614279565b6125ba565b34801561074757600080fd5b506102a761075636600461456f565b6126a9565b34801561076757600080fd5b5061024861077636600461441e565b6000602081905290815260409020546001600160a01b031681565b34801561079d57600080fd5b506102856107ac366004614279565b61287a565b60405163b4ed0b6d60e01b8152600481018290527f00000000000000000000000000000000000000000000000000000000000000006001600160a01b03169063b4ed0b6d9060240160206040518083038186803b15801561081157600080fd5b505afa158015610825573d6000803e3d6000fd5b505050506040513d601f19601f82011682018060405250810190610849919061420d565b60009182526020829052604090912080546001600160a01b0319166001600160a01b03909216919091179055565b606081428110156108c35760405162461bcd60e51b8152602060048201526011602482015270151c985919481a185cc8195e1c1a5c9959607a1b60448201526064015b60405180910390fd5b60006108ce896129f8565b905060606109196108df838c6148fd565b89898980806020026020016040519081016040528093929190818152602001838360200280828437600092019190915250612a1c92505050565b90945090506109d033888860008161094157634e487b7160e01b600052603260045260246000fd5b905060200201602081019061095691906141f1565b89896109636001826148fd565b81811061098057634e487b7160e01b600052603260045260246000fd5b905060200201602081019061099591906141f1565b8d8860018a516109a591906148fd565b815181106109c357634e487b7160e01b600052603260045260246000fd5b6020026020010151612d37565b6109dd848a838a8a61305f565b6109e5613230565b6001600160a01b031663d9caed1288886000818110610a1457634e487b7160e01b600052603260045260246000fd5b9050602002016020810190610a2991906141f1565b610a31613268565b856040518463ffffffff1660e01b8152600401610a5093929190614634565b600060405180830381600087803b158015610a6a57600080fd5b505af1158015610a7e573d6000803e3d6000fd5b505050505050509695505050505050565b60606000610a9d60056132a0565b90506000816001600160401b03811115610ac757634e487b7160e01b600052604160045260246000fd5b604051908082528060200260200182016040528015610b0057816020015b610aed6140d8565b815260200190600190039081610ae55790505b50905060005b80831115610bc35760086000610b1d6005846132aa565b81526020808201929092526040908101600020815160c08101835281546001600160a01b0390811682526001830154811694820194909452600282015492810192909252600381015460608301526004810154909216608082015260059091015460a08201528251839083908110610ba557634e487b7160e01b600052603260045260246000fd5b60200260200101819052508080610bbb9061492b565b915050610b06565b5091505090565b610bd2613230565b6001600160a01b031663b3db428b3384846040518463ffffffff1660e01b8152600401610c0193929190614634565b600060405180830381600087803b158015610c1b57600080fd5b505af1158015610c2f573d6000803e3d6000fd5b505050506000610c3d6132bd565b6001600160a01b03166352a664d93385856040518463ffffffff1660e01b8152600401610c6c93929190614634565b602060405180830381600087803b158015610c8657600080fd5b505af1158015610c9a573d6000803e3d6000fd5b505050506040513d601f19601f82011682018060405250810190610cbe9190614436565b90508015610d3857610cce6132f5565b6001600160a01b0316632a6a897b84836040518363ffffffff1660e01b8152600401610cfb929190614658565b600060405180830381600087803b158015610d1557600080fd5b505af1158015610d29573d6000803e3d6000fd5b50505050610d3883338361332d565b604051339060008051602061498b83398151915290600090a2505050565b610d5e6132bd565b6001600160a01b031663d0eb6653337f0000000000000000000000000000000000000000000000000000000000000000846040518463ffffffff1660e01b8152600401610dad93929190614634565b600060405180830381600087803b158015610dc757600080fd5b505af1158015610ddb573d6000803e3d6000fd5b50505050610de7613230565b6001600160a01b0316634782f77933836040518363ffffffff1660e01b8152600401610e14929190614658565b600060405180830381600087803b158015610e2e57600080fd5b505af1158015610e42573d6000803e3d6000fd5b505060405133925060008051602061498b8339815191529150600090a250565b60008281526008602052604090206002810154610eb15760405162461bcd60e51b815260206004820152600d60248201526c34b73b30b634b21037b93232b960991b60448201526064016108ba565b60058101541580610ec6575042816005015410155b610f025760405162461bcd60e51b815260206004820152600d60248201526c1bdc99195c88195e1c1a5c9959609a1b60448201526064016108ba565b6000610f12838360020154613375565b90508160020154811415610f5457610f2b60058561338d565b5060048201546001600160a01b03166000908152600760205260409020610f52908561338d565b505b60008260020154836003015483610f6b91906148de565b610f7591906148be565b90506000610f8283613399565b600485015485546001870154929350610fb6926001600160a01b03928316929182169116610fb085886148a6565b86612d37565b60018401548454610fe09133916001600160a01b03918216911685610fdb86896148fd565b612d37565b6000610fea6132bd565b6004868101546040516307da4a9960e21b81526001600160a01b0391821692810192909252919250600091831690631f692a649060240160206040518083038186803b15801561103957600080fd5b505afa15801561104d573d6000803e3d6000fd5b505050506040513d601f19601f820116820180604052508101906110719190614436565b6040516307da4a9960e21b81523360048201529091506000906001600160a01b03841690631f692a649060240160206040518083038186803b1580156110b657600080fd5b505afa1580156110ca573d6000803e3d6000fd5b505050506040513d601f19601f820116820180604052508101906110ee9190614436565b60048881015460405163a17ab52760e01b81526001600160a01b039182169281019290925291925060009185169063a17ab5279060240160206040518083038186803b15801561113d57600080fd5b505afa158015611151573d6000803e3d6000fd5b505050506040513d601f19601f820116820180604052508101906111759190614436565b60405163a17ab52760e01b81523360048201529091506000906001600160a01b0386169063a17ab5279060240160206040518083038186803b1580156111ba57600080fd5b505afa1580156111ce573d6000803e3d6000fd5b505050506040513d601f19601f820116820180604052508101906111f29190614436565b9050606e846112028460646148de565b61120c91906148be565b116112595760405162461bcd60e51b815260206004820152601e60248201527f4d616b65722062616c616e636520746f6f206c6f7720746f207472616465000060448201526064016108ba565b606e836112678360646148de565b61127191906148be565b116112be5760405162461bcd60e51b815260206004820152601e60248201527f54616b65722062616c616e636520746f6f206c6f7720746f207472616465000060448201526064016108ba565b878960020160008282546112d291906148fd565b92505081905550868960030160008282546112ed91906148fd565b909155506112fb9050613230565b89546001600160a01b039182169163d9caed129116611318613268565b6113238a60026148de565b6040518463ffffffff1660e01b815260040161134193929190614634565b600060405180830381600087803b15801561135b57600080fd5b505af115801561136f573d6000803e3d6000fd5b50505060028a0154604080518e8152602081019290925281018a90523391507ff1f421281ef88a22fb183db507ab0909e31346a50a36ff791b7e8bd046ff54d09060600160405180910390a25050505050505050505050565b3360009081526001602090815260408083206007845290915290205460609060ff166114065760405162461bcd60e51b81526004016108ba9061473d565b60606114468786868680806020026020016040519081016040528093929190818152602001838360200280828437600092019190915250612a1c92505050565b9092509050611458828783878761305f565b5095945050505050565b6040516393552a3d60e01b8152600481018390526001600160a01b0382811660248301527f000000000000000000000000000000000000000000000000000000000000000016906393552a3d9060440160206040518083038186803b1580156114ca57600080fd5b505afa1580156114de573d6000803e3d6000fd5b505050506040513d601f19601f8201168201806040525081019061150291906143b0565b6001600160a01b0391909116600090815260016020908152604080832094835293905291909120805460ff1916911515919091179055565b3360009081526001602090815260408083206007845290915290205460609060ff166115785760405162461bcd60e51b81526004016108ba9061473d565b60606115b887868686808060200260200160405190810160405280939291908181526020018383602002808284376000920191909152506133a992505050565b909250905061145882878387876136e6565b6001600160a01b03811660009081526007602052604081206060916115ee826132a0565b90506000816001600160401b0381111561161857634e487b7160e01b600052604160045260246000fd5b60405190808252806020026020018201604052801561165157816020015b61163e6140d8565b8152602001906001900390816116365790505b50905060005b80831115611713576008600061166d86846132aa565b81526020808201929092526040908101600020815160c08101835281546001600160a01b0390811682526001830154811694820194909452600282015492810192909252600381015460608301526004810154909216608082015260059091015460a082015282518390839081106116f557634e487b7160e01b600052603260045260246000fd5b6020026020010181905250808061170b9061492b565b915050611657565b50925050505b919050565b6000806117296132bd565b60405163204fedb960e11b81523360048201526001600160a01b03919091169063409fdb729060240160006040518083038186803b15801561176a57600080fd5b505afa15801561177e573d6000803e3d6000fd5b505050506040513d6000823e601f3d908101601f191682016040526117a691908101906142eb565b915091506117b26132bd565b60405163db2d904d60e01b81523360048201526001600160a01b03919091169063db2d904d90602401600060405180830381600087803b1580156117f557600080fd5b505af1158015611809573d6000803e3d6000fd5b5050505060005b80835111156118e357611821613230565b6001600160a01b031663d9caed1284838151811061184f57634e487b7160e01b600052603260045260246000fd5b60200260200101513385858151811061187857634e487b7160e01b600052603260045260246000fd5b60200260200101516040518463ffffffff1660e01b815260040161189e93929190614634565b600060405180830381600087803b1580156118b857600080fd5b505af11580156118cc573d6000803e3d6000fd5b5050505080806118db9061492b565b915050611810565b50604051339060008051602061498b83398151915290600090a25050565b6040805160c0810182526001600160a01b038088168252868116602080840191825283850188815260608501888152336080870181815260a088018a81526009805460009081526008909752958a9020985189549089166001600160a01b0319918216178a55965160018a018054918a16918916919091179055935160028901559151600388015590516004870180549190961694169390931790935591516005909301929092555491517f3581f86351475b96adc884b14bf733128b4cf4d8a9fd303db8b5bbc4a9be6d5092611a19929091899189918991899189909687526001600160a01b03958616602088015293851660408701526060860192909252608085015290911660a083015260c082015260e00190565b60405180910390a1600954611a309060059061376a565b50600954336000908152600760205260409020611a4c9161376a565b5060098054906000611a5d8361492b565b91905055505050505050565b606061145885858585808060200260200160405190810160405280939291908181526020018383602002808284376000920191909152506133a992505050565b6060611ab56005613776565b905090565b60008481526008602052604090206002810154611b095760405162461bcd60e51b815260206004820152600d60248201526c34b73b30b634b21037b93232b960991b60448201526064016108ba565b60058101541580611b1e575042816005015410155b611b5a5760405162461bcd60e51b815260206004820152600d60248201526c1bdc99195c88195e1c1a5c9959609a1b60448201526064016108ba565b611b6560058661338d565b5060048101546001600160a01b03166000908152600760205260409020611b8c908661338d565b5082826000818110611bae57634e487b7160e01b600052603260045260246000fd5b9050602002016020810190611bc391906141f1565b81546001600160a01b039081169116148015611c2d57508282611be76001826148fd565b818110611c0457634e487b7160e01b600052603260045260246000fd5b9050602002016020810190611c1991906141f1565b60018201546001600160a01b039081169116145b611c715760405162461bcd60e51b81526020600482015260156024820152740a8e4c2c8d2dcce40e0c2e8d040dad2e6dac2e8c6d605b1b60448201526064016108ba565b6000611c8082600201546129f8565b9050600080611cd2838560020154611c9891906148fd565b88888880806020026020016040519081016040528093929190818152602001838360200280828437600092019190915250612a1c92505050565b60048601549193509150611d6b906001600160a01b03168787600081611d0857634e487b7160e01b600052603260045260246000fd5b9050602002016020810190611d1d91906141f1565b8888611d2a6001826148fd565b818110611d4757634e487b7160e01b600052603260045260246000fd5b9050602002016020810190611d5c91906141f1565b87600201548860030154612d37565b611d7c82856003015483898961305f565b600084600301548360018551611d9291906148fd565b81518110611db057634e487b7160e01b600052603260045260246000fd5b6020026020010151611dc291906148fd565b90506000611dce6132bd565b60018701546040516352a664d960e01b81526001600160a01b03928316926352a664d992611e06923392909116908790600401614634565b602060405180830381600087803b158015611e2057600080fd5b505af1158015611e34573d6000803e3d6000fd5b505050506040513d601f19601f82011682018060405250810190611e589190614436565b90508015611ee857611e686132f5565b6001870154604051632a6a897b60e01b81526001600160a01b0392831692632a6a897b92611e9d929116908590600401614658565b600060405180830381600087803b158015611eb757600080fd5b505af1158015611ecb573d6000803e3d6000fd5b5050506001870154611ee891506001600160a01b0316338461332d565b611ef0613230565b6001600160a01b031663d9caed1289896000818110611f1f57634e487b7160e01b600052603260045260246000fd5b9050602002016020810190611f3491906141f1565b611f3c613268565b886040518463ffffffff1660e01b8152600401611f5b93929190614634565b600060405180830381600087803b158015611f7557600080fd5b505af1158015611f89573d6000803e3d6000fd5b505060405133925060008051602061498b8339815191529150600090a26000866002018190555060008660030181905550336001600160a01b03167ff1f421281ef88a22fb183db507ab0909e31346a50a36ff791b7e8bd046ff54d08b60008760008151811061200957634e487b7160e01b600052603260045260246000fd5b6020026020010151604051612031939291909283526020830191909152604082015260600190565b60405180910390a250505050505050505050565b61204d613230565b6001600160a01b031663a6a5f9fe346040518263ffffffff1660e01b81526004016000604051808303818588803b15801561208757600080fd5b505af115801561209b573d6000803e3d6000fd5b505050505060006120aa6132bd565b6001600160a01b03166352a664d9337f0000000000000000000000000000000000000000000000000000000000000000346040518463ffffffff1660e01b81526004016120f993929190614634565b602060405180830381600087803b15801561211357600080fd5b505af1158015612127573d6000803e3d6000fd5b505050506040513d601f19601f8201168201806040525081019061214b9190614436565b905080156122055761215b6132f5565b6001600160a01b0316632a6a897b7f0000000000000000000000000000000000000000000000000000000000000000836040518363ffffffff1660e01b81526004016121a8929190614658565b600060405180830381600087803b1580156121c257600080fd5b505af11580156121d6573d6000803e3d6000fd5b505050506122057f0000000000000000000000000000000000000000000000000000000000000000338361332d565b604051339060008051602061498b83398151915290600090a250565b600081815260086020526040902060048101546001600160a01b031633146122825760405162461bcd60e51b81526020600482015260146024820152733737ba1030baba3437b934bd32b21036b0b5b2b960611b60448201526064016108ba565b6000600282018190556003820181905560408051848152602081018390529081019190915233907ff1f421281ef88a22fb183db507ab0909e31346a50a36ff791b7e8bd046ff54d09060600160405180910390a26122e160058361338d565b505050565b60606114588585858580806020026020016040519081016040528093929190818152602001838360200280828437600092019190915250612a1c92505050565b6001600160a01b038116600090815260076020526040902060609061234a90613776565b92915050565b612358613230565b6001600160a01b031663b3db428b3386866040518463ffffffff1660e01b815260040161238793929190614634565b600060405180830381600087803b1580156123a157600080fd5b505af11580156123b5573d6000803e3d6000fd5b505050506123c16132f5565b6001600160a01b031663ee0862bf83836040518363ffffffff1660e01b81526004016123ee929190614658565b600060405180830381600087803b15801561240857600080fd5b505af115801561241c573d6000803e3d6000fd5b505050506124286132bd565b6040516303b0998360e31b81523360048201526001600160a01b038681166024830152604482018690528481166064830152608482018490529190911690631d84cc189060a401600060405180830381600087803b15801561248957600080fd5b505af115801561249d573d6000803e3d6000fd5b505050506124a96132f5565b60405163dc683bcf60e01b81526001600160a01b038481166004830152919091169063dc683bcf90602401602060405180830381600087803b1580156124ee57600080fd5b505af1158015612502573d6000803e3d6000fd5b505050506040513d601f19601f820116820180604052508101906125269190614436565b5061252f613230565b6001600160a01b031663d9caed128333846040518463ffffffff1660e01b815260040161255e93929190614634565b600060405180830381600087803b15801561257857600080fd5b505af115801561258c573d6000803e3d6000fd5b5050505061259b823383613783565b604051339060008051602061498b83398151915290600090a250505050565b6125c26132bd565b6001600160a01b031663d0eb66533384846040518463ffffffff1660e01b81526004016125f193929190614634565b600060405180830381600087803b15801561260b57600080fd5b505af115801561261f573d6000803e3d6000fd5b5050505061262b613230565b6001600160a01b031663d9caed128333846040518463ffffffff1660e01b815260040161265a93929190614634565b600060405180830381600087803b15801561267457600080fd5b505af1158015612688573d6000803e3d6000fd5b505060405133925060008051602061498b8339815191529150600090a25050565b606081428110156126f05760405162461bcd60e51b8152602060048201526011602482015270151c985919481a185cc8195e1c1a5c9959607a1b60448201526064016108ba565b606060006126fd8a613399565b905061274661270c828c6148a6565b898989808060200260200160405190810160405280939291908181526020018383602002808284376000920191909152506133a992505050565b90945091506127f133888860008161276e57634e487b7160e01b600052603260045260246000fd5b905060200201602081019061278391906141f1565b89896127906001826148fd565b8181106127ad57634e487b7160e01b600052603260045260246000fd5b90506020020160208101906127c291906141f1565b876000815181106127e357634e487b7160e01b600052603260045260246000fd5b60200260200101518e612d37565b6127fe848a848a8a6136e6565b612806613230565b6001600160a01b031663d9caed1288886128216001826148fd565b81811061283e57634e487b7160e01b600052603260045260246000fd5b905060200201602081019061285391906141f1565b61285b613268565b846040518463ffffffff1660e01b8152600401610a5093929190614634565b6128826132f5565b6001600160a01b031663ee0862bf83836040518363ffffffff1660e01b81526004016128af929190614658565b600060405180830381600087803b1580156128c957600080fd5b505af11580156128dd573d6000803e3d6000fd5b505050506128e96132bd565b6001600160a01b031663498d55eb3384846040518463ffffffff1660e01b815260040161291893929190614634565b600060405180830381600087803b15801561293257600080fd5b505af1158015612946573d6000803e3d6000fd5b505050506129526132f5565b60405163dc683bcf60e01b81526001600160a01b038481166004830152919091169063dc683bcf90602401602060405180830381600087803b15801561299757600080fd5b505af11580156129ab573d6000803e3d6000fd5b505050506040513d601f19601f820116820180604052508101906129cf9190614436565b506129db823383613783565b604051339060008051602061498b83398151915290600090a25050565b6000612a07600a6127106148a6565b612a1283600a6148de565b61234a91906148be565b606080600283511015612a685760405162461bcd60e51b81526020600482015260146024820152731d1bdad95b881c185d1a081d1bdbc81cda1bdc9d60621b60448201526064016108ba565b82516001600160401b03811115612a8f57634e487b7160e01b600052604160045260246000fd5b604051908082528060200260200182016040528015612ab8578160200160208202803683370190505b5091508482600081518110612add57634e487b7160e01b600052603260045260246000fd5b60200260200101818152505060018351612af791906148fd565b6001600160401b03811115612b1c57634e487b7160e01b600052604160045260246000fd5b604051908082528060200260200182016040528015612b45578160200160208202803683370190505b50905060005b60018451612b5991906148fd565b811015612d2e576000848281518110612b8257634e487b7160e01b600052603260045260246000fd5b60200260200101519050600085836001612b9c91906148a6565b81518110612bba57634e487b7160e01b600052603260045260246000fd5b602002602001015190506000878460208110612be657634e487b7160e01b600052603260045260246000fd5b1a60f81b6001600160f81b03191615612c4f57878460208110612c1957634e487b7160e01b600052603260045260246000fd5b1a60f81b6001600160f81b031916600160f81b14612c4057612c3b83836137be565b612c4a565b612c4a8383613851565b612c59565b612c5983836138c3565b905080858581518110612c7c57634e487b7160e01b600052603260045260246000fd5b60200260200101906001600160a01b031690816001600160a01b031681525050600080612caa838686613935565b91509150612ce0888781518110612cd157634e487b7160e01b600052603260045260246000fd5b60200260200101518383613a04565b88612cec8860016148a6565b81518110612d0a57634e487b7160e01b600052603260045260246000fd5b60200260200101818152505050505050508080612d269061492b565b915050612b4b565b50935093915050565b600080612d426132bd565b604051633500aa0b60e01b81526001600160a01b0389811660048301528881166024830152878116604483015260648201879052608482018690529190911690633500aa0b9060a4016040805180830381600087803b158015612da457600080fd5b505af1158015612db8573d6000803e3d6000fd5b505050506040513d601f19601f82011682018060405250810190612ddc91906144ee565b90925090508115612edf57612def6132f5565b6001600160a01b0316632a6a897b86846040518363ffffffff1660e01b8152600401612e1c929190614658565b600060405180830381600087803b158015612e3657600080fd5b505af1158015612e4a573d6000803e3d6000fd5b50505050612e566132f5565b60405163dc683bcf60e01b81526001600160a01b038781166004830152919091169063dc683bcf90602401602060405180830381600087803b158015612e9b57600080fd5b505af1158015612eaf573d6000803e3d6000fd5b505050506040513d601f19601f82011682018060405250810190612ed39190614436565b50612edf85888461332d565b8015612fdd57612eed6132f5565b6001600160a01b031663ee0862bf87836040518363ffffffff1660e01b8152600401612f1a929190614658565b600060405180830381600087803b158015612f3457600080fd5b505af1158015612f48573d6000803e3d6000fd5b50505050612f546132f5565b60405163dc683bcf60e01b81526001600160a01b038881166004830152919091169063dc683bcf90602401602060405180830381600087803b158015612f9957600080fd5b505af1158015612fad573d6000803e3d6000fd5b505050506040513d601f19601f82011682018060405250810190612fd19190614436565b50612fdd868883613783565b6040516001600160a01b0388169060008051602061498b83398151915290600090a2604080516001600160a01b038881168252878116602083015291810186905260608101859052908816907f610a6fcfd0e5da3e1f98054761ba753182ff6f350467da719cae9d94e5f541369060800160405180910390a250505050505050565b83856001875161306f91906148fd565b8151811061308d57634e487b7160e01b600052603260045260246000fd5b602002602001015110156130f45760405162461bcd60e51b815260206004820152602860248201527f4d617267696e526f757465723a20494e53554646494349454e545f4f555450556044820152671517d05353d5539560c21b60648201526084016108ba565b6130fc613230565b6001600160a01b031663d9caed128383600081811061312b57634e487b7160e01b600052603260045260246000fd5b905060200201602081019061314091906141f1565b8560008151811061316157634e487b7160e01b600052603260045260246000fd5b60200260200101518860008151811061318a57634e487b7160e01b600052603260045260246000fd5b60200260200101516040518463ffffffff1660e01b81526004016131b093929190614634565b600060405180830381600087803b1580156131ca57600080fd5b505af11580156131de573d6000803e3d6000fd5b5050505061322985848484808060200260200160405190810160405280939291908181526020018383602002808284376000920191909152506132249250613230915050565b613aed565b5050505050565b606560009081526020527f4a7203f705e51df4a56139a9b86b4a0970bed7ab7a3446eaffe2289989c1645c546001600160a01b031690565b606e60009081526020527f6ce4024642c4779dc119f2ece9b9cc34663ef4cfd6a7942d809a7de1813aca7d546001600160a01b031690565b600061234a825490565b60006132b68383613d1a565b9392505050565b606860009081526020527faa071f48f62aaaa1f6320aaa7bd2ad2d552d05160892c14d699d38c9920d5f99546001600160a01b031690565b606660009081526020527f422cccb7cea5c0e46f340bb7b21b81debac329f72e31669c20ff0f3a05cc2b5b546001600160a01b031690565b816001600160a01b03167f3397b60e3ca1e9c0c75a033d62ab8731e9b2937c0690ae5d7f1bd37886b19d7d8483604051613368929190614658565b60405180910390a2505050565b60008183111561338657508061234a565b508161234a565b60006132b68383613d52565b6000612710612a1283600a6148de565b6060806002835110156133f55760405162461bcd60e51b81526020600482015260146024820152731d1bdad95b881c185d1a081d1bdbc81cda1bdc9d60621b60448201526064016108ba565b82516001600160401b0381111561341c57634e487b7160e01b600052604160045260246000fd5b604051908082528060200260200182016040528015613445578160200160208202803683370190505b50915084826001845161345891906148fd565b8151811061347657634e487b7160e01b600052603260045260246000fd5b6020026020010181815250506001835161349091906148fd565b6001600160401b038111156134b557634e487b7160e01b600052604160045260246000fd5b6040519080825280602002602001820160405280156134de578160200160208202803683370190505b5090506000600184516134f191906148fd565b90505b8015612d2e576000846135086001846148fd565b8151811061352657634e487b7160e01b600052603260045260246000fd5b60200260200101519050600085838151811061355257634e487b7160e01b600052603260045260246000fd5b6020026020010151905060008760018561356c91906148fd565b6020811061358a57634e487b7160e01b600052603260045260246000fd5b1a60f81b6001600160f81b031916156135fd57876135a96001866148fd565b602081106135c757634e487b7160e01b600052603260045260246000fd5b1a60f81b6001600160f81b031916600160f81b146135ee576135e983836137be565b6135f8565b6135f88383613851565b613607565b61360783836138c3565b905080856136166001876148fd565b8151811061363457634e487b7160e01b600052603260045260246000fd5b60200260200101906001600160a01b031690816001600160a01b031681525050600080613662838686613935565b9150915061369888878151811061368957634e487b7160e01b600052603260045260246000fd5b60200260200101518383613e6f565b886136a46001896148fd565b815181106136c257634e487b7160e01b600052603260045260246000fd5b602002602001018181525050505050505080806136de90614914565b9150506134f4565b838560008151811061370857634e487b7160e01b600052603260045260246000fd5b602002602001015111156130f45760405162461bcd60e51b8152602060048201526024808201527f4d617267696e526f757465723a204558434553534956455f494e5055545f414d60448201526313d5539560e21b60648201526084016108ba565b60006132b68383613f5e565b606060006132b683613fad565b816001600160a01b03167f8ec70c9430377a4bba035133e27a5b0f3b9951bc080833f6832bcbbb70a96dba8483604051613368929190614658565b60008060006137cd8585614009565b915091507f000000000000000000000000000000000000000000000000000000000000000082826040516020016138059291906145d5565b60405160208183030381529060405280519060200120600454604051602001613830939291906145fc565b60408051601f19818403018152919052805160209091012095945050505050565b60008060006138608585614009565b915091507f000000000000000000000000000000000000000000000000000000000000000082826040516020016138989291906145d5565b60405160208183030381529060405280519060200120600354604051602001613830939291906145fc565b60008060006138d28585614009565b915091507f0000000000000000000000000000000000000000000000000000000000000000828260405160200161390a9291906145d5565b60405160208183030381529060405280519060200120600254604051602001613830939291906145fc565b60008060006139448585614009565b509050600080876001600160a01b0316630902f1ac6040518163ffffffff1660e01b815260040160606040518083038186803b15801561398357600080fd5b505afa158015613997573d6000803e3d6000fd5b505050506040513d601f19601f820116820180604052508101906139bb91906143d0565b506001600160701b031691506001600160701b03169150826001600160a01b0316876001600160a01b0316146139f25780826139f5565b81815b90999098509650505050505050565b6000808411613a555760405162461bcd60e51b815260206004820152601960248201527f494e53554646494349454e545f494e5055545f414d4f554e540000000000000060448201526064016108ba565b600083118015613a655750600082115b613a815760405162461bcd60e51b81526004016108ba9061479a565b6000613aad7f0000000000000000000000000000000000000000000000000000000000000000866148de565b90506000613abb84836148de565b9050600082613acc876127106148de565b613ad691906148a6565b9050613ae281836148be565b979650505050505050565b60005b835181101561322957600080848381518110613b1c57634e487b7160e01b600052603260045260246000fd5b602002602001015185846001613b3291906148a6565b81518110613b5057634e487b7160e01b600052603260045260246000fd5b6020026020010151915091506000613b688383614009565b509050600088613b798660016148a6565b81518110613b9757634e487b7160e01b600052603260045260246000fd5b60200260200101519050600080836001600160a01b0316866001600160a01b031614613bc557826000613bc9565b6000835b91509150600060018b51613bdd91906148fd565b8810613be95788613c1c565b8a613bf58960016148a6565b81518110613c1357634e487b7160e01b600052603260045260246000fd5b60200260200101515b905060008b8981518110613c4057634e487b7160e01b600052603260045260246000fd5b60200260200101519050806001600160a01b031663022c0d9f85858560006001600160401b03811115613c8357634e487b7160e01b600052604160045260246000fd5b6040519080825280601f01601f191660200182016040528015613cad576020820181803683370190505b506040518563ffffffff1660e01b8152600401613ccd94939291906147e2565b600060405180830381600087803b158015613ce757600080fd5b505af1158015613cfb573d6000803e3d6000fd5b5050505050505050505050508080613d129061492b565b915050613af0565b6000826000018281548110613d3f57634e487b7160e01b600052603260045260246000fd5b9060005260206000200154905092915050565b60008181526001830160205260408120548015613e65576000613d766001836148fd565b8554909150600090613d8a906001906148fd565b9050818114613e0b576000866000018281548110613db857634e487b7160e01b600052603260045260246000fd5b9060005260206000200154905080876000018481548110613de957634e487b7160e01b600052603260045260246000fd5b6000918252602080832090910192909255918252600188019052604090208390555b8554869080613e2a57634e487b7160e01b600052603160045260246000fd5b60019003818190600052602060002001600090559055856001016000868152602001908152602001600020600090556001935050505061234a565b600091505061234a565b6000808411613ec05760405162461bcd60e51b815260206004820152601a60248201527f494e53554646494349454e545f4f55545055545f414d4f554e5400000000000060448201526064016108ba565b600083118015613ed05750600082115b613eec5760405162461bcd60e51b81526004016108ba9061479a565b6000613ef885856148de565b613f04906127106148de565b905060007f0000000000000000000000000000000000000000000000000000000000000000613f3387866148fd565b613f3d91906148de565b9050613f4981836148be565b613f549060016148a6565b9695505050505050565b6000818152600183016020526040812054613fa55750815460018181018455600084815260208082209093018490558454848252828601909352604090209190915561234a565b50600061234a565b606081600001805480602002602001604051908101604052809291908181526020018280548015613ffd57602002820191906000526020600020905b815481526020019060010190808311613fe9575b50505050509050919050565b600080826001600160a01b0316846001600160a01b031614156140635760405162461bcd60e51b81526020600482015260126024820152714964656e746963616c20616464726573732160701b60448201526064016108ba565b826001600160a01b0316846001600160a01b031610614083578284614086565b83835b90925090506001600160a01b0382166140d15760405162461bcd60e51b815260206004820152600d60248201526c5a65726f20616464726573732160981b60448201526064016108ba565b9250929050565b6040518060c0016040528060006001600160a01b0316815260200160006001600160a01b03168152602001600081526020016000815260200160006001600160a01b03168152602001600081525090565b60008083601f84011261413a578182fd5b5081356001600160401b03811115614150578182fd5b6020830191508360208260051b85010111156140d157600080fd5b600082601f83011261417b578081fd5b8151602061419061418b83614883565b614853565b80838252828201915082860187848660051b89010111156141af578586fd5b855b858110156141cd578151845292840192908401906001016141b1565b5090979650505050505050565b80516001600160701b038116811461171957600080fd5b600060208284031215614202578081fd5b81356132b681614972565b60006020828403121561421e578081fd5b81516132b681614972565b600080600080600060a08688031215614240578081fd5b853561424b81614972565b9450602086013561425b81614972565b94979496505050506040830135926060810135926080909101359150565b6000806040838503121561428b578182fd5b823561429681614972565b946020939093013593505050565b600080600080608085870312156142b9578384fd5b84356142c481614972565b93506020850135925060408501356142db81614972565b9396929550929360600135925050565b600080604083850312156142fd578182fd5b82516001600160401b0380821115614313578384fd5b818501915085601f830112614326578384fd5b8151602061433661418b83614883565b8083825282820191508286018a848660051b8901011115614355578889fd5b8896505b8487101561438057805161436c81614972565b835260019690960195918301918301614359565b5091880151919650909350505080821115614399578283fd5b506143a68582860161416b565b9150509250929050565b6000602082840312156143c1578081fd5b815180151581146132b6578182fd5b6000806000606084860312156143e4578283fd5b6143ed846141da565b92506143fb602085016141da565b9150604084015163ffffffff81168114614413578182fd5b809150509250925092565b60006020828403121561442f578081fd5b5035919050565b600060208284031215614447578081fd5b5051919050565b60008060408385031215614460578182fd5b82359150602083013561447281614972565b809150509250929050565b60008060008060608587031215614492578182fd5b843593506020850135925060408501356001600160401b038111156144b5578283fd5b6144c187828801614129565b95989497509550505050565b600080604083850312156144df578182fd5b50508035926020909101359150565b60008060408385031215614500578182fd5b505080516020909101519092909150565b600080600080600060808688031215614528578283fd5b85359450602086013593506040860135925060608601356001600160401b03811115614552578182fd5b61455e88828901614129565b969995985093965092949392505050565b60008060008060008060a08789031215614587578384fd5b86359550602087013594506040870135935060608701356001600160401b038111156145b1578182fd5b6145bd89828a01614129565b979a9699509497949695608090950135949350505050565b6bffffffffffffffffffffffff19606093841b811682529190921b16601482015260280190565b6001600160f81b0319815260609390931b6bffffffffffffffffffffffff191660018401526015830191909152603582015260550190565b6001600160a01b039384168152919092166020820152604081019190915260600190565b6001600160a01b03929092168252602082015260400190565b602080825282518282018190526000919060409081850190868401855b828110156146ec57815180516001600160a01b039081168652878201518116888701528682015187870152606080830151908701526080808301519091169086015260a0908101519085015260c0909301929085019060010161468e565b5091979650505050505050565b6020808252825182820181905260009190848201906040850190845b8181101561473157835183529284019291840191600101614715565b50909695505050505050565b6020808252603e908201527f43616c6c696e6720636f6e7472616374206973206e6f7420617574686f72697a60408201527f656420746f20747261646520776974682070726f746f636c2066756e64730000606082015260800190565b60208082526028908201527f556e697377617056324c6962726172793a20494e53554646494349454e545f4c604082015267495155494449545960c01b606082015260800190565b60008582526020858184015260018060a01b0385166040840152608060608401528351806080850152825b818110156148295785810183015185820160a00152820161480d565b8181111561483a578360a083870101525b50601f01601f19169290920160a0019695505050505050565b604051601f8201601f191681016001600160401b038111828210171561487b5761487b61495c565b604052919050565b60006001600160401b0382111561489c5761489c61495c565b5060051b60200190565b600082198211156148b9576148b9614946565b500190565b6000826148d957634e487b7160e01b81526012600452602481fd5b500490565b60008160001904831182151516156148f8576148f8614946565b500290565b60008282101561490f5761490f614946565b500390565b60008161492357614923614946565b506000190190565b600060001982141561493f5761493f614946565b5060010190565b634e487b7160e01b600052601160045260246000fd5b634e487b7160e01b600052604160045260246000fd5b6001600160a01b038116811461498757600080fd5b5056fee7b1fae3a790ceab07642c09617df79428b02832cd512bbfdd4db50272dcdf30a26469706673582212204e4c5e1319a11cf256bb30b4f03d7718dccefd58590b329204ebf57778de561464736f6c63430008030033",
  "linkReferences": {},
  "deployedLinkReferences": {}
}