{
  "_format": "hh-sol-artifact-1",
  "contractName": "MarginRouter",
  "sourceName": "contracts/MarginRouter.sol",
  "abi": [
    {
      "inputs": [
        {
          "internalType": "address",
          "name": "_WETH",
          "type": "address"
        },
        {
          "internalType": "address",
          "name": "_roles",
          "type": "address"
        }
      ],
      "stateMutability": "nonpayable",
      "type": "constructor"
    },
    {
      "anonymous": false,
      "inputs": [
        {
          "indexed": false,
          "internalType": "address",
          "name": "trader",
          "type": "address"
        },
        {
          "indexed": false,
          "internalType": "address",
          "name": "borrowToken",
          "type": "address"
        },
        {
          "indexed": false,
          "internalType": "uint256",
          "name": "borrowAmount",
          "type": "uint256"
        }
      ],
      "name": "CrossBorrow",
      "type": "event"
    },
    {
      "anonymous": false,
      "inputs": [
        {
          "indexed": false,
          "internalType": "address",
          "name": "trader",
          "type": "address"
        },
        {
          "indexed": false,
          "internalType": "address",
          "name": "depositToken",
          "type": "address"
        },
        {
          "indexed": false,
          "internalType": "uint256",
          "name": "depositAmount",
          "type": "uint256"
        }
      ],
      "name": "CrossDeposit",
      "type": "event"
    },
    {
      "anonymous": false,
      "inputs": [
        {
          "indexed": false,
          "internalType": "address",
          "name": "trader",
          "type": "address"
        },
        {
          "indexed": false,
          "internalType": "address",
          "name": "depositToken",
          "type": "address"
        },
        {
          "indexed": false,
          "internalType": "uint256",
          "name": "depositAmount",
          "type": "uint256"
        },
        {
          "indexed": false,
          "internalType": "address",
          "name": "borrowToken",
          "type": "address"
        },
        {
          "indexed": false,
          "internalType": "uint256",
          "name": "withdrawAmount",
          "type": "uint256"
        }
      ],
      "name": "CrossOvercollateralizedBorrow",
      "type": "event"
    },
    {
      "anonymous": false,
      "inputs": [
        {
          "indexed": false,
          "internalType": "address",
          "name": "trader",
          "type": "address"
        },
        {
          "indexed": false,
          "internalType": "address",
          "name": "inToken",
          "type": "address"
        },
        {
          "indexed": false,
          "internalType": "uint256",
          "name": "inTokenAmount",
          "type": "uint256"
        },
        {
          "indexed": false,
          "internalType": "uint256",
          "name": "inTokenBorrow",
          "type": "uint256"
        },
        {
          "indexed": false,
          "internalType": "address",
          "name": "outToken",
          "type": "address"
        },
        {
          "indexed": false,
          "internalType": "uint256",
          "name": "outTokenAmount",
          "type": "uint256"
        },
        {
          "indexed": false,
          "internalType": "uint256",
          "name": "outTokenExtinguish",
          "type": "uint256"
        }
      ],
      "name": "CrossTrade",
      "type": "event"
    },
    {
      "anonymous": false,
      "inputs": [
        {
          "indexed": false,
          "internalType": "address",
          "name": "trader",
          "type": "address"
        },
        {
          "indexed": false,
          "internalType": "address",
          "name": "withdrawToken",
          "type": "address"
        },
        {
          "indexed": false,
          "internalType": "uint256",
          "name": "withdrawAmount",
          "type": "uint256"
        }
      ],
      "name": "CrossWithdraw",
      "type": "event"
    },
    {
      "inputs": [],
      "name": "WETH",
      "outputs": [
        {
          "internalType": "address",
          "name": "",
          "type": "address"
        }
      ],
      "stateMutability": "view",
      "type": "function"
    },
    {
      "inputs": [
        {
          "internalType": "uint256",
          "name": "amountIn",
          "type": "uint256"
        },
        {
          "internalType": "uint256",
          "name": "amountOutMin",
          "type": "uint256"
        },
        {
          "internalType": "address[]",
          "name": "pairs",
          "type": "address[]"
        },
        {
          "internalType": "address[]",
          "name": "tokens",
          "type": "address[]"
        }
      ],
      "name": "authorizedSwapExactT4T",
      "outputs": [
        {
          "internalType": "uint256[]",
          "name": "amounts",
          "type": "uint256[]"
        }
      ],
      "stateMutability": "nonpayable",
      "type": "function"
    },
    {
      "inputs": [
        {
          "internalType": "uint256",
          "name": "amountOut",
          "type": "uint256"
        },
        {
          "internalType": "uint256",
          "name": "amountInMax",
          "type": "uint256"
        },
        {
          "internalType": "address[]",
          "name": "pairs",
          "type": "address[]"
        },
        {
          "internalType": "address[]",
          "name": "tokens",
          "type": "address[]"
        }
      ],
      "name": "authorizedSwapT4ExactT",
      "outputs": [
        {
          "internalType": "uint256[]",
          "name": "amounts",
          "type": "uint256[]"
        }
      ],
      "stateMutability": "nonpayable",
      "type": "function"
    },
    {
      "inputs": [
        {
          "internalType": "address",
          "name": "borrowToken",
          "type": "address"
        },
        {
          "internalType": "uint256",
          "name": "borrowAmount",
          "type": "uint256"
        }
      ],
      "name": "crossBorrow",
      "outputs": [],
      "stateMutability": "nonpayable",
      "type": "function"
    },
    {
      "inputs": [],
      "name": "crossCloseAccount",
      "outputs": [],
      "stateMutability": "nonpayable",
      "type": "function"
    },
    {
      "inputs": [
        {
          "internalType": "address",
          "name": "depositToken",
          "type": "address"
        },
        {
          "internalType": "uint256",
          "name": "depositAmount",
          "type": "uint256"
        }
      ],
      "name": "crossDeposit",
      "outputs": [],
      "stateMutability": "nonpayable",
      "type": "function"
    },
    {
      "inputs": [],
      "name": "crossDepositETH",
      "outputs": [],
      "stateMutability": "payable",
      "type": "function"
    },
    {
      "inputs": [
        {
          "internalType": "address",
          "name": "depositToken",
          "type": "address"
        },
        {
          "internalType": "uint256",
          "name": "depositAmount",
          "type": "uint256"
        },
        {
          "internalType": "address",
          "name": "borrowToken",
          "type": "address"
        },
        {
          "internalType": "uint256",
          "name": "withdrawAmount",
          "type": "uint256"
        }
      ],
      "name": "crossOvercollateralizedBorrow",
      "outputs": [],
      "stateMutability": "nonpayable",
      "type": "function"
    },
    {
      "inputs": [
        {
          "internalType": "uint256",
          "name": "amountIn",
          "type": "uint256"
        },
        {
          "internalType": "uint256",
          "name": "amountOutMin",
          "type": "uint256"
        },
        {
          "internalType": "address[]",
          "name": "pairs",
          "type": "address[]"
        },
        {
          "internalType": "address[]",
          "name": "tokens",
          "type": "address[]"
        },
        {
          "internalType": "uint256",
          "name": "deadline",
          "type": "uint256"
        }
      ],
      "name": "crossSwapExactTokensForTokens",
      "outputs": [
        {
          "internalType": "uint256[]",
          "name": "amounts",
          "type": "uint256[]"
        }
      ],
      "stateMutability": "nonpayable",
      "type": "function"
    },
    {
      "inputs": [
        {
          "internalType": "uint256",
          "name": "amountOut",
          "type": "uint256"
        },
        {
          "internalType": "uint256",
          "name": "amountInMax",
          "type": "uint256"
        },
        {
          "internalType": "address[]",
          "name": "pairs",
          "type": "address[]"
        },
        {
          "internalType": "address[]",
          "name": "tokens",
          "type": "address[]"
        },
        {
          "internalType": "uint256",
          "name": "deadline",
          "type": "uint256"
        }
      ],
      "name": "crossSwapTokensForExactTokens",
      "outputs": [
        {
          "internalType": "uint256[]",
          "name": "amounts",
          "type": "uint256[]"
        }
      ],
      "stateMutability": "nonpayable",
      "type": "function"
    },
    {
      "inputs": [
        {
          "internalType": "address",
          "name": "withdrawToken",
          "type": "address"
        },
        {
          "internalType": "uint256",
          "name": "withdrawAmount",
          "type": "uint256"
        }
      ],
      "name": "crossWithdraw",
      "outputs": [],
      "stateMutability": "nonpayable",
      "type": "function"
    },
    {
      "inputs": [
        {
          "internalType": "uint256",
          "name": "withdrawAmount",
          "type": "uint256"
        }
      ],
      "name": "crossWithdrawETH",
      "outputs": [],
      "stateMutability": "nonpayable",
      "type": "function"
    },
    {
      "inputs": [
        {
          "internalType": "uint256",
          "name": "outAmount",
          "type": "uint256"
        },
        {
          "internalType": "address[]",
          "name": "pairs",
          "type": "address[]"
        },
        {
          "internalType": "address[]",
          "name": "tokens",
          "type": "address[]"
        }
      ],
      "name": "getAmountsIn",
      "outputs": [
        {
          "internalType": "uint256[]",
          "name": "",
          "type": "uint256[]"
        }
      ],
      "stateMutability": "view",
      "type": "function"
    },
    {
      "inputs": [
        {
          "internalType": "uint256",
          "name": "inAmount",
          "type": "uint256"
        },
        {
          "internalType": "address[]",
          "name": "pairs",
          "type": "address[]"
        },
        {
          "internalType": "address[]",
          "name": "tokens",
          "type": "address[]"
        }
      ],
      "name": "getAmountsOut",
      "outputs": [
        {
          "internalType": "uint256[]",
          "name": "",
          "type": "uint256[]"
        }
      ],
      "stateMutability": "view",
      "type": "function"
    },
    {
      "inputs": [
        {
          "internalType": "address",
          "name": "",
          "type": "address"
        }
      ],
      "name": "incentiveTranches",
      "outputs": [
        {
          "internalType": "uint256",
          "name": "",
          "type": "uint256"
        }
      ],
      "stateMutability": "view",
      "type": "function"
    },
    {
      "inputs": [
        {
          "internalType": "uint256",
          "name": "",
          "type": "uint256"
        }
      ],
      "name": "mainCharacterCache",
      "outputs": [
        {
          "internalType": "address",
          "name": "",
          "type": "address"
        }
      ],
      "stateMutability": "view",
      "type": "function"
    },
    {
      "inputs": [],
      "name": "mswapFeesPer10k",
      "outputs": [
        {
          "internalType": "uint256",
          "name": "",
          "type": "uint256"
        }
      ],
      "stateMutability": "view",
      "type": "function"
    },
    {
      "inputs": [
        {
          "internalType": "address",
          "name": "",
          "type": "address"
        },
        {
          "internalType": "uint256",
          "name": "",
          "type": "uint256"
        }
      ],
      "name": "roleCache",
      "outputs": [
        {
          "internalType": "bool",
          "name": "",
          "type": "bool"
        }
      ],
      "stateMutability": "view",
      "type": "function"
    },
    {
      "inputs": [],
      "name": "roles",
      "outputs": [
        {
          "internalType": "contract Roles",
          "name": "",
          "type": "address"
        }
      ],
      "stateMutability": "view",
      "type": "function"
    },
    {
      "inputs": [
        {
          "internalType": "address",
          "name": "token",
          "type": "address"
        },
        {
          "internalType": "uint8",
          "name": "tranche",
          "type": "uint8"
        }
      ],
      "name": "setIncentiveTranche",
      "outputs": [],
      "stateMutability": "nonpayable",
      "type": "function"
    },
    {
      "inputs": [
        {
          "internalType": "uint256",
          "name": "role",
          "type": "uint256"
        }
      ],
      "name": "updateMainCharacterCache",
      "outputs": [],
      "stateMutability": "nonpayable",
      "type": "function"
    },
    {
      "inputs": [
        {
          "internalType": "uint256",
          "name": "role",
          "type": "uint256"
        },
        {
          "internalType": "address",
          "name": "contr",
          "type": "address"
        }
      ],
      "name": "updateRoleCache",
      "outputs": [],
      "stateMutability": "nonpayable",
      "type": "function"
    }
  ],
  "bytecode": "0x60c06040523480156200001157600080fd5b5060405162003e1038038062003e108339810160408190526200003491620000db565b806001600160a01b0381166200009b5760405162461bcd60e51b815260206004820152602260248201527f506c656173652070726f766964652076616c696420726f6c6573206164647265604482015261737360f01b606482015260840160405180910390fd5b6001600160601b0319606091821b811660805292901b90911660a0525062000112565b80516001600160a01b0381168114620000d657600080fd5b919050565b60008060408385031215620000ee578182fd5b620000f983620000be565b91506200010960208401620000be565b90509250929050565b60805160601c60a05160601c613c936200017d60003960008181610404015281816108c9015281816115140152818161160d0152818161168001526116ae015260008181610236015281816104eb01528181610ca501528181611fd4015261206c0152613c936000f3fe6080604052600436106101755760003560e01c80637a1a04df116100cb578063a8312b1d1161007f578063e3e0626b11610059578063e3e0626b14610446578063e9c3f77d14610466578063eedb97c71461049c57610175565b8063a8312b1d146103d2578063ad5c4648146103f2578063cb6067dd1461042657610175565b80638824cbba116100b05780638824cbba1461037d57806394427b20146103aa5780639e269b68146103b257610175565b80637a1a04df14610312578063808f67131461035d57610175565b8063392f5f641161012d5780634a297599116101075780634a297599146102bd578063612d1800146102dd57806369698670146102fd57610175565b8063392f5f64146102245780633ad4892414610270578063447d52ba1461029d57610175565b80631306d9021161015e5780631306d902146101c45780631dce3baa146101e45780632864f4011461020457610175565b8063071060a61461017a5780631084bd6d1461019c575b600080fd5b34801561018657600080fd5b5061019a6101953660046137e1565b6104bc565b005b3480156101a857600080fd5b506101b1600a81565b6040519081526020015b60405180910390f35b3480156101d057600080fd5b5061019a6101df3660046135fe565b6105b3565b3480156101f057600080fd5b5061019a6101ff3660046137e1565b61085e565b34801561021057600080fd5b5061019a61021f366004613670565b6109e9565b34801561023057600080fd5b506102587f000000000000000000000000000000000000000000000000000000000000000081565b6040516001600160a01b0390911681526020016101bb565b34801561027c57600080fd5b5061029061028b36600461394f565b610abe565b6040516101bb91906139d8565b3480156102a957600080fd5b5061019a6102b8366004613811565b610c66565b3480156102c957600080fd5b506102906102d83660046138cf565b610d75565b3480156102e957600080fd5b506102906102f836600461394f565b610e91565b34801561030957600080fd5b5061019a611028565b34801561031e57600080fd5b5061034d61032d3660046135fe565b600160209081526000928352604080842090915290825290205460ff1681565b60405190151581526020016101bb565b34801561036957600080fd5b506102906103783660046138cf565b611307565b34801561038957600080fd5b506101b16103983660046135bf565b60026020526000908152604090205481565b61019a611419565b3480156103be57600080fd5b506102906103cd366004613835565b61170f565b3480156103de57600080fd5b506102906103ed366004613835565b61177f565b3480156103fe57600080fd5b506102587f000000000000000000000000000000000000000000000000000000000000000081565b34801561043257600080fd5b5061019a610441366004613629565b6117ef565b34801561045257600080fd5b5061019a6104613660046135fe565b611b40565b34801561047257600080fd5b506102586104813660046137e1565b6000602081905290815260409020546001600160a01b031681565b3480156104a857600080fd5b5061019a6104b73660046135fe565b611cff565b6040517fb4ed0b6d000000000000000000000000000000000000000000000000000000008152600481018290527f00000000000000000000000000000000000000000000000000000000000000006001600160a01b03169063b4ed0b6d9060240160206040518083038186803b15801561053557600080fd5b505afa158015610549573d6000803e3d6000fd5b505050506040513d601f19601f8201168201806040525081019061056d91906135e2565b60009182526020829052604090912080547fffffffffffffffffffffffff0000000000000000000000000000000000000000166001600160a01b03909216919091179055565b606560009081526020527f4a7203f705e51df4a56139a9b86b4a0970bed7ab7a3446eaffe2289989c1645c546001600160a01b03166040517fb3db428b0000000000000000000000000000000000000000000000000000000081523360048201526001600160a01b03848116602483015260448201849052919091169063b3db428b90606401600060405180830381600087803b15801561065357600080fd5b505af1158015610667573d6000803e3d6000fd5b5050505060006106a8606860009081526020527faa071f48f62aaaa1f6320aaa7bd2ad2d552d05160892c14d699d38c9920d5f99546001600160a01b031690565b6040517f52a664d90000000000000000000000000000000000000000000000000000000081523360048201526001600160a01b0385811660248301526044820185905291909116906352a664d990606401602060405180830381600087803b15801561071357600080fd5b505af1158015610727573d6000803e3d6000fd5b505050506040513d601f19601f8201168201806040525081019061074b91906137f9565b9050801561081057606660009081526020527f422cccb7cea5c0e46f340bb7b21b81debac329f72e31669c20ff0f3a05cc2b5b546001600160a01b03166040517f2a6a897b0000000000000000000000000000000000000000000000000000000081526001600160a01b038581166004830152602482018490529190911690632a6a897b90604401600060405180830381600087803b1580156107ed57600080fd5b505af1158015610801573d6000803e3d6000fd5b50505050610810338483611ef2565b604080513381526001600160a01b03851660208201529081018390527f2f7971a38b280a622029ac616d8d562df278b4b5839a7b124c33a1715ae092999060600160405180910390a1505050565b606860009081526020527faa071f48f62aaaa1f6320aaa7bd2ad2d552d05160892c14d699d38c9920d5f99546001600160a01b03166040517fd0eb66530000000000000000000000000000000000000000000000000000000081523360048201526001600160a01b037f00000000000000000000000000000000000000000000000000000000000000008116602483015260448201849052919091169063d0eb665390606401600060405180830381600087803b15801561091e57600080fd5b505af1158015610932573d6000803e3d6000fd5b50506065600090815260205250507f4a7203f705e51df4a56139a9b86b4a0970bed7ab7a3446eaffe2289989c1645c546001600160a01b03166040517f4782f779000000000000000000000000000000000000000000000000000000008152336004820152602481018390526001600160a01b039190911690634782f77990604401600060405180830381600087803b1580156109ce57600080fd5b505af11580156109e2573d6000803e3d6000fd5b5050505050565b336109f2611fd0565b6001600160a01b03161480610a16575033610a0b612068565b6001600160a01b0316145b80610a255750610a25336120d9565b610a9c5760405162461bcd60e51b815260206004820152603960248201527f43616c6c6572206973206e6f7420746865206f776e65722c206578656375746f60448201527f72206f7220617574686f72697a656420616374697661746f720000000000000060648201526084015b60405180910390fd5b6001600160a01b03909116600090815260026020526040902060ff9091169055565b60608142811015610b115760405162461bcd60e51b815260206004820152601160248201527f54726164652068617320657870697265640000000000000000000000000000006044820152606401610a93565b6000610b1c8a612107565b9050610b95610b2b828c613b94565b89898080602002602001604051908101604052809392919081815260200183836020028082843760009201919091525050604080516020808d0282810182019093528c82529093508c92508b91829185019084908082843760009201919091525061213192505050565b9250610c4b3387876000818110610bbc57634e487b7160e01b600052603260045260246000fd5b9050602002016020810190610bd191906135bf565b8888610bde600182613b94565b818110610bfb57634e487b7160e01b600052603260045260246000fd5b9050602002016020810190610c1091906135bf565b8d8760018951610c209190613b94565b81518110610c3e57634e487b7160e01b600052603260045260246000fd5b602002602001015161233d565b610c59838a8a8a8a8a612629565b5050979650505050505050565b6040517f93552a3d000000000000000000000000000000000000000000000000000000008152600481018390526001600160a01b0382811660248301527f000000000000000000000000000000000000000000000000000000000000000016906393552a3d9060440160206040518083038186803b158015610ce757600080fd5b505afa158015610cfb573d6000803e3d6000fd5b505050506040513d601f19601f82011682018060405250810190610d1f9190613773565b6001600160a01b039190911660009081526001602090815260408083209483529390529190912080547fffffffffffffffffffffffffffffffffffffffffffffffffffffffffffffff0016911515919091179055565b3360009081526001602090815260408083206007845290915290205460609060ff16610e095760405162461bcd60e51b815260206004820152603e60248201527f43616c6c696e6720636f6e7472616374206973206e6f7420617574686f72697a60448201527f656420746f20747261646520776974682070726f746f636c2066756e647300006064820152608401610a93565b610e778786868080602002602001604051908101604052809392919081815260200183836020028082843760009201919091525050604080516020808a028281018201909352898252909350899250889182918501908490808284376000920191909152506128ac92505050565b9050610e87818787878787612aba565b9695505050505050565b60608142811015610ee45760405162461bcd60e51b815260206004820152601160248201527f54726164652068617320657870697265640000000000000000000000000000006044820152606401610a93565b610f64610ef08a612b57565b610efa908b613b1f565b88888080602002602001604051908101604052809392919081815260200183836020028082843760009201919091525050604080516020808c0282810182019093528b82529093508b92508a9182918501908490808284376000920191909152506128ac92505050565b915061100e3386866000818110610f8b57634e487b7160e01b600052603260045260246000fd5b9050602002016020810190610fa091906135bf565b8787610fad600182613b94565b818110610fca57634e487b7160e01b600052603260045260246000fd5b9050602002016020810190610fdf91906135bf565b8560008151811061100057634e487b7160e01b600052603260045260246000fd5b60200260200101518d61233d565b61101c828989898989612aba565b50979650505050505050565b600080611066606860009081526020527faa071f48f62aaaa1f6320aaa7bd2ad2d552d05160892c14d699d38c9920d5f99546001600160a01b031690565b6040517f409fdb720000000000000000000000000000000000000000000000000000000081523360048201526001600160a01b03919091169063409fdb729060240160006040518083038186803b1580156110c057600080fd5b505afa1580156110d4573d6000803e3d6000fd5b505050506040513d6000823e601f3d9081017fffffffffffffffffffffffffffffffffffffffffffffffffffffffffffffffe016820160405261111a91908101906136ad565b91509150611159606860009081526020527faa071f48f62aaaa1f6320aaa7bd2ad2d552d05160892c14d699d38c9920d5f99546001600160a01b031690565b6040517fdb2d904d0000000000000000000000000000000000000000000000000000000081523360048201526001600160a01b03919091169063db2d904d90602401600060405180830381600087803b1580156111b557600080fd5b505af11580156111c9573d6000803e3d6000fd5b5050505060005b808351111561130257606560009081526020527f4a7203f705e51df4a56139a9b86b4a0970bed7ab7a3446eaffe2289989c1645c546001600160a01b03166001600160a01b031663d9caed1284838151811061123c57634e487b7160e01b600052603260045260246000fd5b60200260200101513385858151811061126557634e487b7160e01b600052603260045260246000fd5b60209081029190910101516040517fffffffff0000000000000000000000000000000000000000000000000000000060e086901b1681526001600160a01b0393841660048201529290911660248301526044820152606401600060405180830381600087803b1580156112d757600080fd5b505af11580156112eb573d6000803e3d6000fd5b5050505080806112fa90613be0565b9150506111d0565b505050565b3360009081526001602090815260408083206007845290915290205460609060ff1661139b5760405162461bcd60e51b815260206004820152603e60248201527f43616c6c696e6720636f6e7472616374206973206e6f7420617574686f72697a60448201527f656420746f20747261646520776974682070726f746f636c2066756e647300006064820152608401610a93565b6114098786868080602002602001604051908101604052809392919081815260200183836020028082843760009201919091525050604080516020808a0282810182019093528982529093508992508891829185019084908082843760009201919091525061213192505050565b9050610e87818787878787612629565b606560009081526020527f4a7203f705e51df4a56139a9b86b4a0970bed7ab7a3446eaffe2289989c1645c546001600160a01b03166001600160a01b031663a6a5f9fe346040518263ffffffff1660e01b81526004016000604051808303818588803b15801561148857600080fd5b505af115801561149c573d6000803e3d6000fd5b505050505060006114de606860009081526020527faa071f48f62aaaa1f6320aaa7bd2ad2d552d05160892c14d699d38c9920d5f99546001600160a01b031690565b6040517f52a664d90000000000000000000000000000000000000000000000000000000081523360048201526001600160a01b037f00000000000000000000000000000000000000000000000000000000000000008116602483015234604483015291909116906352a664d990606401602060405180830381600087803b15801561156857600080fd5b505af115801561157c573d6000803e3d6000fd5b505050506040513d601f19601f820116820180604052508101906115a091906137f9565b905080156116a557606660009081526020527f422cccb7cea5c0e46f340bb7b21b81debac329f72e31669c20ff0f3a05cc2b5b546001600160a01b03166040517f2a6a897b0000000000000000000000000000000000000000000000000000000081526001600160a01b037f000000000000000000000000000000000000000000000000000000000000000081166004830152602482018490529190911690632a6a897b90604401600060405180830381600087803b15801561166257600080fd5b505af1158015611676573d6000803e3d6000fd5b505050506116a5337f000000000000000000000000000000000000000000000000000000000000000083611ef2565b604080513381527f00000000000000000000000000000000000000000000000000000000000000006001600160a01b03166020820152348183015290517f2f7971a38b280a622029ac616d8d562df278b4b5839a7b124c33a1715ae092999181900360600190a150565b6060610e878686868080602002602001604051908101604052809392919081815260200183836020028082843760009201919091525050604080516020808a028281018201909352898252909350899250889182918501908490808284376000920191909152506128ac92505050565b6060610e878686868080602002602001604051908101604052809392919081815260200183836020028082843760009201919091525050604080516020808a0282810182019093528982529093508992508891829185019084908082843760009201919091525061213192505050565b606560009081526020527f4a7203f705e51df4a56139a9b86b4a0970bed7ab7a3446eaffe2289989c1645c546001600160a01b03166040517fb3db428b0000000000000000000000000000000000000000000000000000000081523360048201526001600160a01b03868116602483015260448201869052919091169063b3db428b90606401600060405180830381600087803b15801561188f57600080fd5b505af11580156118a3573d6000803e3d6000fd5b50506066600090815260205250507f422cccb7cea5c0e46f340bb7b21b81debac329f72e31669c20ff0f3a05cc2b5b546001600160a01b03166040517fee0862bf0000000000000000000000000000000000000000000000000000000081526001600160a01b03848116600483015260248201849052919091169063ee0862bf90604401600060405180830381600087803b15801561194157600080fd5b505af1158015611955573d6000803e3d6000fd5b50506068600090815260205250507faa071f48f62aaaa1f6320aaa7bd2ad2d552d05160892c14d699d38c9920d5f99546001600160a01b03166040517f1d84cc180000000000000000000000000000000000000000000000000000000081523360048201526001600160a01b038681166024830152604482018690528481166064830152608482018490529190911690631d84cc189060a401600060405180830381600087803b158015611a0857600080fd5b505af1158015611a1c573d6000803e3d6000fd5b50506065600090815260205250507f4a7203f705e51df4a56139a9b86b4a0970bed7ab7a3446eaffe2289989c1645c546001600160a01b03166040517fd9caed120000000000000000000000000000000000000000000000000000000081526001600160a01b03848116600483015233602483015260448201849052919091169063d9caed1290606401600060405180830381600087803b158015611ac057600080fd5b505af1158015611ad4573d6000803e3d6000fd5b50505050611ae3338383612b67565b604080513381526001600160a01b038681166020830152818301869052841660608201526080810183905290517f59df04bd51ea0829a640c9b6be1da5e33d4d15160663510284a2b896670c305b9181900360a00190a150505050565b606860009081526020527faa071f48f62aaaa1f6320aaa7bd2ad2d552d05160892c14d699d38c9920d5f99546001600160a01b03166040517fd0eb66530000000000000000000000000000000000000000000000000000000081523360048201526001600160a01b03848116602483015260448201849052919091169063d0eb665390606401600060405180830381600087803b158015611be057600080fd5b505af1158015611bf4573d6000803e3d6000fd5b50506065600090815260205250507f4a7203f705e51df4a56139a9b86b4a0970bed7ab7a3446eaffe2289989c1645c546001600160a01b03166040517fd9caed120000000000000000000000000000000000000000000000000000000081526001600160a01b03848116600483015233602483015260448201849052919091169063d9caed1290606401600060405180830381600087803b158015611c9857600080fd5b505af1158015611cac573d6000803e3d6000fd5b5050604080513381526001600160a01b03861660208201529081018490527f69725482a69b3feb662528aa4b8028c1f9f6288b9ef746d5c84a847e05ad0d6b925060600190505b60405180910390a15050565b606660009081526020527f422cccb7cea5c0e46f340bb7b21b81debac329f72e31669c20ff0f3a05cc2b5b546001600160a01b03166040517fee0862bf0000000000000000000000000000000000000000000000000000000081526001600160a01b03848116600483015260248201849052919091169063ee0862bf90604401600060405180830381600087803b158015611d9957600080fd5b505af1158015611dad573d6000803e3d6000fd5b50506068600090815260205250507faa071f48f62aaaa1f6320aaa7bd2ad2d552d05160892c14d699d38c9920d5f99546001600160a01b03166040517f498d55eb0000000000000000000000000000000000000000000000000000000081523360048201526001600160a01b03848116602483015260448201849052919091169063498d55eb90606401600060405180830381600087803b158015611e5157600080fd5b505af1158015611e65573d6000803e3d6000fd5b50505050611e74338383612b67565b604080513381526001600160a01b03841660208201529081018290527fd160a035f47ba1f22446570a0c0f33960590c1e03b5ae81e67f8fdc4c721f4da90606001611cf3565b606560009081526020527f4a7203f705e51df4a56139a9b86b4a0970bed7ab7a3446eaffe2289989c1645c546001600160a01b031690565b6001600160a01b038216600090815260026020526040902054611f46606c60009081526020527f3c1fcba39712202dbd455253568bf32dd0a3bedb5c3ff0de4b22d4e45e50dc92546001600160a01b031690565b6040517fc6c9faa1000000000000000000000000000000000000000000000000000000008152600481018390526001600160a01b03868116602483015260448201859052919091169063c6c9faa190606401600060405180830381600087803b158015611fb257600080fd5b505af1158015611fc6573d6000803e3d6000fd5b5050505050505050565b60007f00000000000000000000000000000000000000000000000000000000000000006001600160a01b0316638da5cb5b6040518163ffffffff1660e01b815260040160206040518083038186803b15801561202b57600080fd5b505afa15801561203f573d6000803e3d6000fd5b505050506040513d601f19601f8201168201806040525081019061206391906135e2565b905090565b60007f00000000000000000000000000000000000000000000000000000000000000006001600160a01b031663c34c08e56040518163ffffffff1660e01b8152600401602060405180830381600087803b1580156120c557600080fd5b505af115801561203f573d6000803e3d6000fd5b6001600160a01b03811660009081526001602090815260408083206009845290915290205460ff165b919050565b6000612116600a612710613b1f565b61212183600a613b57565b61212b9190613b37565b92915050565b60606001835110156121855760405162461bcd60e51b815260206004820152601260248201527f706169727320697320746f6f2073686f727400000000000000000000000000006044820152606401610a93565b815167ffffffffffffffff8111156121ad57634e487b7160e01b600052604160045260246000fd5b6040519080825280602002602001820160405280156121d6578160200160208202803683370190505b50905083816000815181106121fb57634e487b7160e01b600052603260045260246000fd5b60200260200101818152505060005b600183516122189190613b94565b81101561233557600084828151811061224157634e487b7160e01b600052603260045260246000fd5b602002602001015190506000806122b38387868151811061227257634e487b7160e01b600052603260045260246000fd5b6020026020010151888760016122889190613b1f565b815181106122a657634e487b7160e01b600052603260045260246000fd5b6020026020010151612c45565b915091506122e98585815181106122da57634e487b7160e01b600052603260045260246000fd5b60200260200101518383612d22565b856122f5866001613b1f565b8151811061231357634e487b7160e01b600052603260045260246000fd5b602002602001018181525050505050808061232d90613be0565b91505061220a565b509392505050565b60008061237b606860009081526020527faa071f48f62aaaa1f6320aaa7bd2ad2d552d05160892c14d699d38c9920d5f99546001600160a01b031690565b6040517f3500aa0b0000000000000000000000000000000000000000000000000000000081526001600160a01b0389811660048301528881166024830152878116604483015260648201879052608482018690529190911690633500aa0b9060a4016040805180830381600087803b1580156123f657600080fd5b505af115801561240a573d6000803e3d6000fd5b505050506040513d601f19601f8201168201806040525081019061242e91906138ac565b909250905081156124f657606660009081526020527f422cccb7cea5c0e46f340bb7b21b81debac329f72e31669c20ff0f3a05cc2b5b546001600160a01b03166040517f2a6a897b0000000000000000000000000000000000000000000000000000000081526001600160a01b038781166004830152602482018590529190911690632a6a897b90604401600060405180830381600087803b1580156124d357600080fd5b505af11580156124e7573d6000803e3d6000fd5b505050506124f6878684611ef2565b80156125b957606660009081526020527f422cccb7cea5c0e46f340bb7b21b81debac329f72e31669c20ff0f3a05cc2b5b546001600160a01b03166040517fee0862bf0000000000000000000000000000000000000000000000000000000081526001600160a01b03888116600483015260248201849052919091169063ee0862bf90604401600060405180830381600087803b15801561259657600080fd5b505af11580156125aa573d6000803e3d6000fd5b505050506125b9878783612b67565b604080516001600160a01b0389811682528881166020830152818301879052606082018490528716608082015260a0810185905260c0810184905290517ffda7842105bd0ae9d4c9616a1d48b1e9f17e2d97cb890d021c291e7d1b53929f9181900360e00190a150505050505050565b8486600188516126399190613b94565b8151811061265757634e487b7160e01b600052603260045260246000fd5b602002602001015110156126d35760405162461bcd60e51b815260206004820152602860248201527f4d617267696e526f757465723a20494e53554646494349454e545f4f5554505560448201527f545f414d4f554e540000000000000000000000000000000000000000000000006064820152608401610a93565b606560009081526020527f4a7203f705e51df4a56139a9b86b4a0970bed7ab7a3446eaffe2289989c1645c546001600160a01b03166001600160a01b031663d9caed128383600081811061273757634e487b7160e01b600052603260045260246000fd5b905060200201602081019061274c91906135bf565b8686600081811061276d57634e487b7160e01b600052603260045260246000fd5b905060200201602081019061278291906135bf565b896000815181106127a357634e487b7160e01b600052603260045260246000fd5b60209081029190910101516040517fffffffff0000000000000000000000000000000000000000000000000000000060e086901b1681526001600160a01b0393841660048201529290911660248301526044820152606401600060405180830381600087803b15801561281557600080fd5b505af1158015612829573d6000803e3d6000fd5b505050506128a4868585808060200260200160405190810160405280939291908181526020018383602002808284376000920191909152505060408051602080890282810182019093528882529093508892508791829185019084908082843760009201919091525061289f9250611eba915050565b612e69565b505050505050565b60606001835110156129005760405162461bcd60e51b815260206004820152601260248201527f706169727320697320746f6f2073686f727400000000000000000000000000006044820152606401610a93565b815167ffffffffffffffff81111561292857634e487b7160e01b600052604160045260246000fd5b604051908082528060200260200182016040528015612951578160200160208202803683370190505b5090508381600183516129649190613b94565b8151811061298257634e487b7160e01b600052603260045260246000fd5b60200260200101818152505060006001835161299e9190613b94565b90505b8015612335576000846129b5600184613b94565b815181106129d357634e487b7160e01b600052603260045260246000fd5b60200260200101519050600080612a3883876001876129f29190613b94565b81518110612a1057634e487b7160e01b600052603260045260246000fd5b60200260200101518887815181106122a657634e487b7160e01b600052603260045260246000fd5b91509150612a6e858581518110612a5f57634e487b7160e01b600052603260045260246000fd5b602002602001015183836132c2565b85612a7a600187613b94565b81518110612a9857634e487b7160e01b600052603260045260246000fd5b6020026020010181815250505050508080612ab290613bab565b9150506129a1565b8486600081518110612adc57634e487b7160e01b600052603260045260246000fd5b602002602001015111156126d35760405162461bcd60e51b8152602060048201526024808201527f4d617267696e526f757465723a204558434553534956455f494e5055545f414d60448201527f4f554e54000000000000000000000000000000000000000000000000000000006064820152608401610a93565b600061271061212183600a613b57565b6000612ba4606c60009081526020527f3c1fcba39712202dbd455253568bf32dd0a3bedb5c3ff0de4b22d4e45e50dc92546001600160a01b031690565b6001600160a01b03848116600090815260026020526040908190205490517f2b5de286000000000000000000000000000000000000000000000000000000008152600481018290528783166024820152604481018690529293509190831690632b5de28690606401600060405180830381600087803b158015612c2657600080fd5b505af1158015612c3a573d6000803e3d6000fd5b505050505050505050565b6000806000612c548585613405565b509050600080876001600160a01b0316630902f1ac6040518163ffffffff1660e01b815260040160606040518083038186803b158015612c9357600080fd5b505afa158015612ca7573d6000803e3d6000fd5b505050506040513d601f19601f82011682018060405250810190612ccb9190613793565b506dffffffffffffffffffffffffffff1691506dffffffffffffffffffffffffffff169150826001600160a01b0316876001600160a01b031614612d10578082612d13565b81815b90999098509650505050505050565b6000808411612d995760405162461bcd60e51b815260206004820152602b60248201527f556e697377617056324c6962726172793a20494e53554646494349454e545f4960448201527f4e5055545f414d4f554e540000000000000000000000000000000000000000006064820152608401610a93565b600083118015612da95750600082115b612e1b5760405162461bcd60e51b815260206004820152602860248201527f556e697377617056324c6962726172793a20494e53554646494349454e545f4c60448201527f49515549444954590000000000000000000000000000000000000000000000006064820152608401610a93565b6000612e29856103e5613b57565b90506000612e378483613b57565b9050600082612e48876103e8613b57565b612e529190613b1f565b9050612e5e8183613b37565b979650505050505050565b60008260018451612e7a9190613b94565b81518110612e9857634e487b7160e01b600052603260045260246000fd5b60209081029190910101516040517f70a082310000000000000000000000000000000000000000000000000000000081526001600160a01b0384811660048301529192506000918316906370a082319060240160206040518083038186803b158015612f0357600080fd5b505afa158015612f17573d6000803e3d6000fd5b505050506040513d601f19601f82011682018060405250810190612f3b91906137f9565b905060005b855181101561316b57600080868381518110612f6c57634e487b7160e01b600052603260045260246000fd5b602002602001015187846001612f829190613b1f565b81518110612fa057634e487b7160e01b600052603260045260246000fd5b6020026020010151915091506000612fb88383613405565b50905060008a612fc9866001613b1f565b81518110612fe757634e487b7160e01b600052603260045260246000fd5b60200260200101519050600080836001600160a01b0316866001600160a01b03161461301557826000613019565b6000835b91509150600060018d5161302d9190613b94565b8810613039578a61306c565b8c613045896001613b1f565b8151811061306357634e487b7160e01b600052603260045260246000fd5b60200260200101515b905060008d898151811061309057634e487b7160e01b600052603260045260246000fd5b60200260200101519050806001600160a01b031663022c0d9f858585600067ffffffffffffffff8111156130d457634e487b7160e01b600052604160045260246000fd5b6040519080825280601f01601f1916602001820160405280156130fe576020820181803683370190505b506040518563ffffffff1660e01b815260040161311e9493929190613a1c565b600060405180830381600087803b15801561313857600080fd5b505af115801561314c573d6000803e3d6000fd5b505050505050505050505050808061316390613be0565b915050612f40565b506040517f70a082310000000000000000000000000000000000000000000000000000000081526001600160a01b038481166004830152600091908416906370a082319060240160206040518083038186803b1580156131ca57600080fd5b505afa1580156131de573d6000803e3d6000fd5b505050506040513d601f19601f8201168201806040525081019061320291906137f9565b905086600188516132139190613b94565b8151811061323157634e487b7160e01b600052603260045260246000fd5b6020026020010151826132449190613b1f565b8110156132b95760405162461bcd60e51b815260206004820152602960248201527f44656665637469766520414d4d20726f7574653b2062616c616e63657320646f60448201527f6e2774206d6174636800000000000000000000000000000000000000000000006064820152608401610a93565b50505050505050565b60008084116133395760405162461bcd60e51b815260206004820152602c60248201527f556e697377617056324c6962726172793a20494e53554646494349454e545f4f60448201527f55545055545f414d4f554e5400000000000000000000000000000000000000006064820152608401610a93565b6000831180156133495750600082115b6133bb5760405162461bcd60e51b815260206004820152602860248201527f556e697377617056324c6962726172793a20494e53554646494349454e545f4c60448201527f49515549444954590000000000000000000000000000000000000000000000006064820152608401610a93565b60006133c78585613b57565b6133d3906103e8613b57565b905060006103e56133e48786613b94565b6133ee9190613b94565b90506133fa8183613b37565b610e87906001613b1f565b600080826001600160a01b0316846001600160a01b0316141561346a5760405162461bcd60e51b815260206004820152601260248201527f4964656e746963616c20616464726573732100000000000000000000000000006044820152606401610a93565b826001600160a01b0316846001600160a01b03161061348a57828461348d565b83835b90925090506001600160a01b0382166134e85760405162461bcd60e51b815260206004820152600d60248201527f5a65726f206164647265737321000000000000000000000000000000000000006044820152606401610a93565b9250929050565b60008083601f840112613500578182fd5b50813567ffffffffffffffff811115613517578182fd5b6020830191508360208260051b85010111156134e857600080fd5b600082601f830112613542578081fd5b8151602061355761355283613afb565b613aac565b80838252828201915082860187848660051b8901011115613576578586fd5b855b8581101561359457815184529284019290840190600101613578565b5090979650505050505050565b80516dffffffffffffffffffffffffffff8116811461210257600080fd5b6000602082840312156135d0578081fd5b81356135db81613c45565b9392505050565b6000602082840312156135f3578081fd5b81516135db81613c45565b60008060408385031215613610578081fd5b823561361b81613c45565b946020939093013593505050565b6000806000806080858703121561363e578182fd5b843561364981613c45565b935060208501359250604085013561366081613c45565b9396929550929360600135925050565b60008060408385031215613682578182fd5b823561368d81613c45565b9150602083013560ff811681146136a2578182fd5b809150509250929050565b600080604083850312156136bf578182fd5b825167ffffffffffffffff808211156136d6578384fd5b818501915085601f8301126136e9578384fd5b815160206136f961355283613afb565b8083825282820191508286018a848660051b8901011115613718578889fd5b8896505b8487101561374357805161372f81613c45565b83526001969096019591830191830161371c565b509188015191965090935050508082111561375c578283fd5b5061376985828601613532565b9150509250929050565b600060208284031215613784578081fd5b815180151581146135db578182fd5b6000806000606084860312156137a7578283fd5b6137b0846135a1565b92506137be602085016135a1565b9150604084015163ffffffff811681146137d6578182fd5b809150509250925092565b6000602082840312156137f2578081fd5b5035919050565b60006020828403121561380a578081fd5b5051919050565b60008060408385031215613823578182fd5b8235915060208301356136a281613c45565b60008060008060006060868803121561384c578283fd5b85359450602086013567ffffffffffffffff8082111561386a578485fd5b61387689838a016134ef565b9096509450604088013591508082111561388e578283fd5b5061389b888289016134ef565b969995985093965092949392505050565b600080604083850312156138be578182fd5b505080516020909101519092909150565b600080600080600080608087890312156138e7578384fd5b8635955060208701359450604087013567ffffffffffffffff8082111561390c578586fd5b6139188a838b016134ef565b90965094506060890135915080821115613930578283fd5b5061393d89828a016134ef565b979a9699509497509295939492505050565b600080600080600080600060a0888a031215613969578485fd5b8735965060208801359550604088013567ffffffffffffffff8082111561398e578687fd5b61399a8b838c016134ef565b909750955060608a01359150808211156139b2578283fd5b506139bf8a828b016134ef565b989b979a50959894979596608090950135949350505050565b6020808252825182820181905260009190848201906040850190845b81811015613a10578351835292840192918401916001016139f4565b50909695505050505050565b6000858252602085818401526001600160a01b0385166040840152608060608401528351806080850152825b81811015613a645785810183015185820160a001528201613a48565b81811115613a75578360a083870101525b50601f017fffffffffffffffffffffffffffffffffffffffffffffffffffffffffffffffe0169290920160a0019695505050505050565b604051601f82017fffffffffffffffffffffffffffffffffffffffffffffffffffffffffffffffe016810167ffffffffffffffff81118282101715613af357613af3613c2f565b604052919050565b600067ffffffffffffffff821115613b1557613b15613c2f565b5060051b60200190565b60008219821115613b3257613b32613c19565b500190565b600082613b5257634e487b7160e01b81526012600452602481fd5b500490565b6000817fffffffffffffffffffffffffffffffffffffffffffffffffffffffffffffffff0483118215151615613b8f57613b8f613c19565b500290565b600082821015613ba657613ba6613c19565b500390565b600081613bba57613bba613c19565b507fffffffffffffffffffffffffffffffffffffffffffffffffffffffffffffffff0190565b60007fffffffffffffffffffffffffffffffffffffffffffffffffffffffffffffffff821415613c1257613c12613c19565b5060010190565b634e487b7160e01b600052601160045260246000fd5b634e487b7160e01b600052604160045260246000fd5b6001600160a01b0381168114613c5a57600080fd5b5056fea2646970667358221220994ef590823d389768b8e56aa5b89d27945a911caee2384e47dde9aae630141564736f6c63430008030033",
  "linkReferences": {},
  "deployedLinkReferences": {}
}