{
  "_format": "hh-sol-artifact-1",
  "contractName": "MarginRouter",
  "sourceName": "contracts/MarginRouter.sol",
  "abi": [
    {
      "inputs": [
        {
          "internalType": "address",
          "name": "_WETH",
          "type": "address"
        },
        {
          "internalType": "address",
          "name": "_roles",
          "type": "address"
        }
      ],
      "stateMutability": "nonpayable",
      "type": "constructor"
    },
    {
      "anonymous": false,
      "inputs": [
        {
          "indexed": true,
          "internalType": "address",
          "name": "trader",
          "type": "address"
        }
      ],
      "name": "AccountUpdated",
      "type": "event"
    },
    {
      "inputs": [],
      "name": "WETH",
      "outputs": [
        {
          "internalType": "address",
          "name": "",
          "type": "address"
        }
      ],
      "stateMutability": "view",
      "type": "function"
    },
    {
      "inputs": [
        {
          "internalType": "uint256",
          "name": "amountIn",
          "type": "uint256"
        },
        {
          "internalType": "uint256",
          "name": "amountOutMin",
          "type": "uint256"
        },
        {
          "internalType": "bytes32",
          "name": "amms",
          "type": "bytes32"
        },
        {
          "internalType": "address[]",
          "name": "tokens",
          "type": "address[]"
        }
      ],
      "name": "authorizedSwapExactT4T",
      "outputs": [
        {
          "internalType": "uint256[]",
          "name": "amounts",
          "type": "uint256[]"
        }
      ],
      "stateMutability": "nonpayable",
      "type": "function"
    },
    {
      "inputs": [
        {
          "internalType": "uint256",
          "name": "amountOut",
          "type": "uint256"
        },
        {
          "internalType": "uint256",
          "name": "amountInMax",
          "type": "uint256"
        },
        {
          "internalType": "bytes32",
          "name": "amms",
          "type": "bytes32"
        },
        {
          "internalType": "address[]",
          "name": "tokens",
          "type": "address[]"
        }
      ],
      "name": "authorizedSwapT4ExactT",
      "outputs": [
        {
          "internalType": "uint256[]",
          "name": "amounts",
          "type": "uint256[]"
        }
      ],
      "stateMutability": "nonpayable",
      "type": "function"
    },
    {
      "inputs": [
        {
          "internalType": "address",
          "name": "borrowToken",
          "type": "address"
        },
        {
          "internalType": "uint256",
          "name": "borrowAmount",
          "type": "uint256"
        }
      ],
      "name": "crossBorrow",
      "outputs": [],
      "stateMutability": "nonpayable",
      "type": "function"
    },
    {
      "inputs": [],
      "name": "crossCloseAccount",
      "outputs": [],
      "stateMutability": "nonpayable",
      "type": "function"
    },
    {
      "inputs": [
        {
          "internalType": "address",
          "name": "depositToken",
          "type": "address"
        },
        {
          "internalType": "uint256",
          "name": "depositAmount",
          "type": "uint256"
        }
      ],
      "name": "crossDeposit",
      "outputs": [],
      "stateMutability": "nonpayable",
      "type": "function"
    },
    {
      "inputs": [],
      "name": "crossDepositETH",
      "outputs": [],
      "stateMutability": "payable",
      "type": "function"
    },
    {
      "inputs": [
        {
          "internalType": "address",
          "name": "depositToken",
          "type": "address"
        },
        {
          "internalType": "uint256",
          "name": "depositAmount",
          "type": "uint256"
        },
        {
          "internalType": "address",
          "name": "borrowToken",
          "type": "address"
        },
        {
          "internalType": "uint256",
          "name": "withdrawAmount",
          "type": "uint256"
        }
      ],
      "name": "crossOvercollateralizedBorrow",
      "outputs": [],
      "stateMutability": "nonpayable",
      "type": "function"
    },
    {
      "inputs": [
        {
          "internalType": "address",
          "name": "withdrawToken",
          "type": "address"
        },
        {
          "internalType": "uint256",
          "name": "withdrawAmount",
          "type": "uint256"
        }
      ],
      "name": "crossWithdraw",
      "outputs": [],
      "stateMutability": "nonpayable",
      "type": "function"
    },
    {
      "inputs": [
        {
          "internalType": "uint256",
          "name": "withdrawAmount",
          "type": "uint256"
        }
      ],
      "name": "crossWithdrawETH",
      "outputs": [],
      "stateMutability": "nonpayable",
      "type": "function"
    },
    {
      "inputs": [
        {
          "internalType": "uint256",
          "name": "outAmount",
          "type": "uint256"
        },
        {
          "internalType": "bytes32",
          "name": "amms",
          "type": "bytes32"
        },
        {
          "internalType": "address[]",
          "name": "tokens",
          "type": "address[]"
        }
      ],
      "name": "getAmountsIn",
      "outputs": [
        {
          "internalType": "uint256[]",
          "name": "amounts",
          "type": "uint256[]"
        }
      ],
      "stateMutability": "view",
      "type": "function"
    },
    {
      "inputs": [
        {
          "internalType": "uint256",
          "name": "inAmount",
          "type": "uint256"
        },
        {
          "internalType": "bytes32",
          "name": "amms",
          "type": "bytes32"
        },
        {
          "internalType": "address[]",
          "name": "tokens",
          "type": "address[]"
        }
      ],
      "name": "getAmountsOut",
      "outputs": [
        {
          "internalType": "uint256[]",
          "name": "amounts",
          "type": "uint256[]"
        }
      ],
      "stateMutability": "view",
      "type": "function"
    },
    {
      "inputs": [
        {
          "internalType": "address",
          "name": "",
          "type": "address"
        }
      ],
      "name": "incentiveTranches",
      "outputs": [
        {
          "internalType": "uint256",
          "name": "",
          "type": "uint256"
        }
      ],
      "stateMutability": "view",
      "type": "function"
    },
    {
      "inputs": [
        {
          "internalType": "uint256",
          "name": "",
          "type": "uint256"
        }
      ],
      "name": "mainCharacterCache",
      "outputs": [
        {
          "internalType": "address",
          "name": "",
          "type": "address"
        }
      ],
      "stateMutability": "view",
      "type": "function"
    },
    {
      "inputs": [],
      "name": "mswapFeesPer10k",
      "outputs": [
        {
          "internalType": "uint256",
          "name": "",
          "type": "uint256"
        }
      ],
      "stateMutability": "view",
      "type": "function"
    },
    {
      "inputs": [
        {
          "internalType": "address",
          "name": "",
          "type": "address"
        },
        {
          "internalType": "uint256",
          "name": "",
          "type": "uint256"
        }
      ],
      "name": "roleCache",
      "outputs": [
        {
          "internalType": "bool",
          "name": "",
          "type": "bool"
        }
      ],
      "stateMutability": "view",
      "type": "function"
    },
    {
      "inputs": [],
      "name": "roles",
      "outputs": [
        {
          "internalType": "contract Roles",
          "name": "",
          "type": "address"
        }
      ],
      "stateMutability": "view",
      "type": "function"
    },
    {
      "inputs": [
        {
          "internalType": "address",
          "name": "token",
          "type": "address"
        },
        {
          "internalType": "uint8",
          "name": "tranche",
          "type": "uint8"
        }
      ],
      "name": "setIncentiveTranche",
      "outputs": [],
      "stateMutability": "nonpayable",
      "type": "function"
    },
    {
      "inputs": [
        {
          "internalType": "uint256",
          "name": "amountIn",
          "type": "uint256"
        },
        {
          "internalType": "uint256",
          "name": "amountOutMin",
          "type": "uint256"
        },
        {
          "internalType": "bytes32",
          "name": "amms",
          "type": "bytes32"
        },
        {
          "internalType": "address[]",
          "name": "tokens",
          "type": "address[]"
        },
        {
          "internalType": "uint256",
          "name": "deadline",
          "type": "uint256"
        }
      ],
      "name": "swapExactTokensForTokens",
      "outputs": [
        {
          "internalType": "uint256[]",
          "name": "amounts",
          "type": "uint256[]"
        }
      ],
      "stateMutability": "nonpayable",
      "type": "function"
    },
    {
      "inputs": [
        {
          "internalType": "uint256",
          "name": "amountOut",
          "type": "uint256"
        },
        {
          "internalType": "uint256",
          "name": "amountInMax",
          "type": "uint256"
        },
        {
          "internalType": "bytes32",
          "name": "amms",
          "type": "bytes32"
        },
        {
          "internalType": "address[]",
          "name": "tokens",
          "type": "address[]"
        },
        {
          "internalType": "uint256",
          "name": "deadline",
          "type": "uint256"
        }
      ],
      "name": "swapTokensForExactTokens",
      "outputs": [
        {
          "internalType": "uint256[]",
          "name": "amounts",
          "type": "uint256[]"
        }
      ],
      "stateMutability": "nonpayable",
      "type": "function"
    },
    {
      "inputs": [
        {
          "internalType": "uint256",
          "name": "role",
          "type": "uint256"
        }
      ],
      "name": "updateMainCharacterCache",
      "outputs": [],
      "stateMutability": "nonpayable",
      "type": "function"
    },
    {
      "inputs": [
        {
          "internalType": "uint256",
          "name": "role",
          "type": "uint256"
        },
        {
          "internalType": "address",
          "name": "contr",
          "type": "address"
        }
      ],
      "name": "updateRoleCache",
      "outputs": [],
      "stateMutability": "nonpayable",
      "type": "function"
    }
  ],
  "bytecode": "0x60c06040523480156200001157600080fd5b5060405162004479380380620044798339810160408190526200003491620000db565b806001600160a01b0381166200009b5760405162461bcd60e51b815260206004820152602260248201527f506c656173652070726f766964652076616c696420726f6c6573206164647265604482015261737360f01b606482015260840160405180910390fd5b6001600160601b0319606091821b811660805292901b90911660a0525062000112565b80516001600160a01b0381168114620000d657600080fd5b919050565b60008060408385031215620000ee578182fd5b620000f983620000be565b91506200010960208401620000be565b90509250929050565b60805160601c60a05160601c61430362000176600039600081816103d501528181610af6015281816115730152818161168601526116f90152600081816102870152818161050901528181610ec201528181612bb90152612c5e01526143036000f3fe6080604052600436106101755760003560e01c8063799d34e1116100cb578063b7453e271161007f578063e3ee432711610059578063e3ee432714610457578063e9c3f77d14610477578063eedb97c7146104ba57610175565b8063b7453e27146103f7578063cb6067dd14610417578063e3e0626b1461043757610175565b80638824cbba116100b05780638824cbba1461038e57806394427b20146103bb578063ad5c4648146103c357610175565b8063799d34e1146103235780637a1a04df1461034357610175565b80632864f4011161012d578063447d52ba11610107578063447d52ba146102ce57806353d7ff9f146102ee578063696986701461030e57610175565b80632864f40114610235578063351ae61014610255578063392f5f641461027557610175565b80631084bd6d1161015e5780631084bd6d146101d25780631306d902146101f55780631dce3baa1461021557610175565b8063071060a61461017a5780630abb674c1461019c575b600080fd5b34801561018657600080fd5b5061019a610195366004613ea3565b6104da565b005b3480156101a857600080fd5b506101bc6101b7366004613fca565b6105eb565b6040516101c99190614031565b60405180910390f35b3480156101de57600080fd5b506101e7600a81565b6040519081526020016101c9565b34801561020157600080fd5b5061019a610210366004613cc0565b610784565b34801561022157600080fd5b5061019a610230366004613ea3565b610a71565b34801561024157600080fd5b5061019a610250366004613d32565b610c5b565b34801561026157600080fd5b506101bc610270366004613f6b565b610d6c565b34801561028157600080fd5b506102a97f000000000000000000000000000000000000000000000000000000000000000081565b60405173ffffffffffffffffffffffffffffffffffffffff90911681526020016101c9565b3480156102da57600080fd5b5061019a6102e9366004613ed3565b610e76565b3480156102fa57600080fd5b506101bc610309366004613f6b565b610f9f565b34801561031a57600080fd5b5061019a61109f565b34801561032f57600080fd5b506101bc61033e366004613ef7565b611404565b34801561034f57600080fd5b5061037e61035e366004613cc0565b600160209081526000928352604080842090915290825290205460ff1681565b60405190151581526020016101c9565b34801561039a57600080fd5b506101e76103a9366004613c81565b60026020526000908152604090205481565b61019a611444565b3480156103cf57600080fd5b506102a97f000000000000000000000000000000000000000000000000000000000000000081565b34801561040357600080fd5b506101bc610412366004613ef7565b61174c565b34801561042357600080fd5b5061019a610432366004613ceb565b61178c565b34801561044357600080fd5b5061019a610452366004613cc0565b611b19565b34801561046357600080fd5b506101bc610472366004613fca565b611cec565b34801561048357600080fd5b506102a9610492366004613ea3565b60006020819052908152604090205473ffffffffffffffffffffffffffffffffffffffff1681565b3480156104c657600080fd5b5061019a6104d5366004613cc0565b611e6f565b6040517fb4ed0b6d000000000000000000000000000000000000000000000000000000008152600481018290527f000000000000000000000000000000000000000000000000000000000000000073ffffffffffffffffffffffffffffffffffffffff169063b4ed0b6d9060240160206040518083038186803b15801561056057600080fd5b505afa158015610574573d6000803e3d6000fd5b505050506040513d601f19601f820116820180604052508101906105989190613ca4565b60009182526020829052604090912080547fffffffffffffffffffffffff00000000000000000000000000000000000000001673ffffffffffffffffffffffffffffffffffffffff909216919091179055565b6060814281101561065d576040517f08c379a000000000000000000000000000000000000000000000000000000000815260206004820152601160248201527f547261646520686173206578706972656400000000000000000000000000000060448201526064015b60405180910390fd5b600061066889612047565b905060606106b3610679838c6141fa565b8989898080602002602001604051908101604052809392919081815260200183836020028082843760009201919091525061207192505050565b909450905061076a3388886000816106db57634e487b7160e01b600052603260045260246000fd5b90506020020160208101906106f09190613c81565b89896106fd6001826141fa565b81811061071a57634e487b7160e01b600052603260045260246000fd5b905060200201602081019061072f9190613c81565b8d8860018a5161073f91906141fa565b8151811061075d57634e487b7160e01b600052603260045260246000fd5b602002602001015161239c565b610777848a838a8a6126b0565b5050509695505050505050565b61078d82612936565b610796816129da565b606560009081526020527f4a7203f705e51df4a56139a9b86b4a0970bed7ab7a3446eaffe2289989c1645c5473ffffffffffffffffffffffffffffffffffffffff166040517fb3db428b00000000000000000000000000000000000000000000000000000000815233600482015273ffffffffffffffffffffffffffffffffffffffff848116602483015260448201849052919091169063b3db428b90606401600060405180830381600087803b15801561085057600080fd5b505af1158015610864573d6000803e3d6000fd5b5050505060006108b2606860009081526020527faa071f48f62aaaa1f6320aaa7bd2ad2d552d05160892c14d699d38c9920d5f995473ffffffffffffffffffffffffffffffffffffffff1690565b6040517f52a664d900000000000000000000000000000000000000000000000000000000815233600482015273ffffffffffffffffffffffffffffffffffffffff85811660248301526044820185905291909116906352a664d990606401602060405180830381600087803b15801561092a57600080fd5b505af115801561093e573d6000803e3d6000fd5b505050506040513d601f19601f820116820180604052508101906109629190613ebb565b90508015610a4157606660009081526020527f422cccb7cea5c0e46f340bb7b21b81debac329f72e31669c20ff0f3a05cc2b5b5473ffffffffffffffffffffffffffffffffffffffff166040517f2a6a897b00000000000000000000000000000000000000000000000000000000815273ffffffffffffffffffffffffffffffffffffffff8581166004830152602482018490529190911690632a6a897b90604401600060405180830381600087803b158015610a1e57600080fd5b505af1158015610a32573d6000803e3d6000fd5b50505050610a41338483612ab0565b60405133907fe7b1fae3a790ceab07642c09617df79428b02832cd512bbfdd4db50272dcdf3090600090a2505050565b606860009081526020527faa071f48f62aaaa1f6320aaa7bd2ad2d552d05160892c14d699d38c9920d5f995473ffffffffffffffffffffffffffffffffffffffff166040517fd0eb665300000000000000000000000000000000000000000000000000000000815233600482015273ffffffffffffffffffffffffffffffffffffffff7f00000000000000000000000000000000000000000000000000000000000000008116602483015260448201849052919091169063d0eb665390606401600060405180830381600087803b158015610b4b57600080fd5b505af1158015610b5f573d6000803e3d6000fd5b50506065600090815260205250507f4a7203f705e51df4a56139a9b86b4a0970bed7ab7a3446eaffe2289989c1645c5473ffffffffffffffffffffffffffffffffffffffff166040517f4782f7790000000000000000000000000000000000000000000000000000000081523360048201526024810183905273ffffffffffffffffffffffffffffffffffffffff9190911690634782f77990604401600060405180830381600087803b158015610c1557600080fd5b505af1158015610c29573d6000803e3d6000fd5b50506040513392507fe7b1fae3a790ceab07642c09617df79428b02832cd512bbfdd4db50272dcdf309150600090a250565b33610c64612bb5565b73ffffffffffffffffffffffffffffffffffffffff161480610ca2575033610c8a612c5a565b73ffffffffffffffffffffffffffffffffffffffff16145b80610cb15750610cb133612cd8565b610d3d576040517f08c379a000000000000000000000000000000000000000000000000000000000815260206004820152603960248201527f43616c6c6572206973206e6f7420746865206f776e65722c206578656375746f60448201527f72206f7220617574686f72697a656420616374697661746f72000000000000006064820152608401610654565b73ffffffffffffffffffffffffffffffffffffffff909116600090815260026020526040902060ff9091169055565b3360009081526001602090815260408083206007845290915290205460609060ff16610e1a576040517f08c379a000000000000000000000000000000000000000000000000000000000815260206004820152603e60248201527f43616c6c696e6720636f6e7472616374206973206e6f7420617574686f72697a60448201527f656420746f20747261646520776974682070726f746f636c2066756e647300006064820152608401610654565b6060610e5a878686868080602002602001604051908101604052809392919081815260200183836020028082843760009201919091525061207192505050565b9092509050610e6c82878387876126b0565b5095945050505050565b6040517f93552a3d0000000000000000000000000000000000000000000000000000000081526004810183905273ffffffffffffffffffffffffffffffffffffffff82811660248301527f000000000000000000000000000000000000000000000000000000000000000016906393552a3d9060440160206040518083038186803b158015610f0457600080fd5b505afa158015610f18573d6000803e3d6000fd5b505050506040513d601f19601f82011682018060405250810190610f3c9190613e35565b73ffffffffffffffffffffffffffffffffffffffff9190911660009081526001602090815260408083209483529390529190912080547fffffffffffffffffffffffffffffffffffffffffffffffffffffffffffffff0016911515919091179055565b3360009081526001602090815260408083206007845290915290205460609060ff1661104d576040517f08c379a000000000000000000000000000000000000000000000000000000000815260206004820152603e60248201527f43616c6c696e6720636f6e7472616374206973206e6f7420617574686f72697a60448201527f656420746f20747261646520776974682070726f746f636c2066756e647300006064820152608401610654565b606061108d8786868680806020026020016040519081016040528093929190818152602001838360200280828437600092019190915250612d1392505050565b9092509050610e6c8287838787613056565b6000806110ea606860009081526020527faa071f48f62aaaa1f6320aaa7bd2ad2d552d05160892c14d699d38c9920d5f995473ffffffffffffffffffffffffffffffffffffffff1690565b6040517f409fdb7200000000000000000000000000000000000000000000000000000000815233600482015273ffffffffffffffffffffffffffffffffffffffff919091169063409fdb729060240160006040518083038186803b15801561115157600080fd5b505afa158015611165573d6000803e3d6000fd5b505050506040513d6000823e601f3d9081017fffffffffffffffffffffffffffffffffffffffffffffffffffffffffffffffe01682016040526111ab9190810190613d6f565b915091506111f7606860009081526020527faa071f48f62aaaa1f6320aaa7bd2ad2d552d05160892c14d699d38c9920d5f995473ffffffffffffffffffffffffffffffffffffffff1690565b6040517fdb2d904d00000000000000000000000000000000000000000000000000000000815233600482015273ffffffffffffffffffffffffffffffffffffffff919091169063db2d904d90602401600060405180830381600087803b15801561126057600080fd5b505af1158015611274573d6000803e3d6000fd5b5050505060005b80835111156113d457606560009081526020527f4a7203f705e51df4a56139a9b86b4a0970bed7ab7a3446eaffe2289989c1645c5473ffffffffffffffffffffffffffffffffffffffff1673ffffffffffffffffffffffffffffffffffffffff1663d9caed1284838151811061130157634e487b7160e01b600052603260045260246000fd5b60200260200101513385858151811061132a57634e487b7160e01b600052603260045260246000fd5b60209081029190910101516040517fffffffff0000000000000000000000000000000000000000000000000000000060e086901b16815273ffffffffffffffffffffffffffffffffffffffff93841660048201529290911660248301526044820152606401600060405180830381600087803b1580156113a957600080fd5b505af11580156113bd573d6000803e3d6000fd5b5050505080806113cc90614246565b91505061127b565b5060405133907fe7b1fae3a790ceab07642c09617df79428b02832cd512bbfdd4db50272dcdf3090600090a25050565b6060610e6c8585858580806020026020016040519081016040528093929190818152602001838360200280828437600092019190915250612d1392505050565b606560009081526020527f4a7203f705e51df4a56139a9b86b4a0970bed7ab7a3446eaffe2289989c1645c5473ffffffffffffffffffffffffffffffffffffffff1673ffffffffffffffffffffffffffffffffffffffff1663a6a5f9fe346040518263ffffffff1660e01b81526004016000604051808303818588803b1580156114cd57600080fd5b505af11580156114e1573d6000803e3d6000fd5b50505050506000611530606860009081526020527faa071f48f62aaaa1f6320aaa7bd2ad2d552d05160892c14d699d38c9920d5f995473ffffffffffffffffffffffffffffffffffffffff1690565b6040517f52a664d900000000000000000000000000000000000000000000000000000000815233600482015273ffffffffffffffffffffffffffffffffffffffff7f00000000000000000000000000000000000000000000000000000000000000008116602483015234604483015291909116906352a664d990606401602060405180830381600087803b1580156115c757600080fd5b505af11580156115db573d6000803e3d6000fd5b505050506040513d601f19601f820116820180604052508101906115ff9190613ebb565b9050801561171e57606660009081526020527f422cccb7cea5c0e46f340bb7b21b81debac329f72e31669c20ff0f3a05cc2b5b5473ffffffffffffffffffffffffffffffffffffffff166040517f2a6a897b00000000000000000000000000000000000000000000000000000000815273ffffffffffffffffffffffffffffffffffffffff7f000000000000000000000000000000000000000000000000000000000000000081166004830152602482018490529190911690632a6a897b90604401600060405180830381600087803b1580156116db57600080fd5b505af11580156116ef573d6000803e3d6000fd5b5050505061171e337f000000000000000000000000000000000000000000000000000000000000000083612ab0565b60405133907fe7b1fae3a790ceab07642c09617df79428b02832cd512bbfdd4db50272dcdf3090600090a250565b6060610e6c858585858080602002602001604051908101604052809392919081815260200183836020028082843760009201919091525061207192505050565b606560009081526020527f4a7203f705e51df4a56139a9b86b4a0970bed7ab7a3446eaffe2289989c1645c5473ffffffffffffffffffffffffffffffffffffffff166040517fb3db428b00000000000000000000000000000000000000000000000000000000815233600482015273ffffffffffffffffffffffffffffffffffffffff868116602483015260448201869052919091169063b3db428b90606401600060405180830381600087803b15801561184657600080fd5b505af115801561185a573d6000803e3d6000fd5b50506066600090815260205250507f422cccb7cea5c0e46f340bb7b21b81debac329f72e31669c20ff0f3a05cc2b5b5473ffffffffffffffffffffffffffffffffffffffff166040517fee0862bf00000000000000000000000000000000000000000000000000000000815273ffffffffffffffffffffffffffffffffffffffff848116600483015260248201849052919091169063ee0862bf90604401600060405180830381600087803b15801561191257600080fd5b505af1158015611926573d6000803e3d6000fd5b50506068600090815260205250507faa071f48f62aaaa1f6320aaa7bd2ad2d552d05160892c14d699d38c9920d5f995473ffffffffffffffffffffffffffffffffffffffff166040517f1d84cc1800000000000000000000000000000000000000000000000000000000815233600482015273ffffffffffffffffffffffffffffffffffffffff8681166024830152604482018690528481166064830152608482018490529190911690631d84cc189060a401600060405180830381600087803b1580156119f357600080fd5b505af1158015611a07573d6000803e3d6000fd5b50506065600090815260205250507f4a7203f705e51df4a56139a9b86b4a0970bed7ab7a3446eaffe2289989c1645c5473ffffffffffffffffffffffffffffffffffffffff166040517fd9caed1200000000000000000000000000000000000000000000000000000000815273ffffffffffffffffffffffffffffffffffffffff848116600483015233602483015260448201849052919091169063d9caed1290606401600060405180830381600087803b158015611ac557600080fd5b505af1158015611ad9573d6000803e3d6000fd5b50505050611ae833838361310d565b60405133907fe7b1fae3a790ceab07642c09617df79428b02832cd512bbfdd4db50272dcdf3090600090a250505050565b606860009081526020527faa071f48f62aaaa1f6320aaa7bd2ad2d552d05160892c14d699d38c9920d5f995473ffffffffffffffffffffffffffffffffffffffff166040517fd0eb665300000000000000000000000000000000000000000000000000000000815233600482015273ffffffffffffffffffffffffffffffffffffffff848116602483015260448201849052919091169063d0eb665390606401600060405180830381600087803b158015611bd357600080fd5b505af1158015611be7573d6000803e3d6000fd5b50506065600090815260205250507f4a7203f705e51df4a56139a9b86b4a0970bed7ab7a3446eaffe2289989c1645c5473ffffffffffffffffffffffffffffffffffffffff166040517fd9caed1200000000000000000000000000000000000000000000000000000000815273ffffffffffffffffffffffffffffffffffffffff848116600483015233602483015260448201849052919091169063d9caed1290606401600060405180830381600087803b158015611ca557600080fd5b505af1158015611cb9573d6000803e3d6000fd5b50506040513392507fe7b1fae3a790ceab07642c09617df79428b02832cd512bbfdd4db50272dcdf309150600090a25050565b60608142811015611d59576040517f08c379a000000000000000000000000000000000000000000000000000000000815260206004820152601160248201527f54726164652068617320657870697265640000000000000000000000000000006044820152606401610654565b6060611dab611d678a613205565b611d71908b614185565b88888880806020026020016040519081016040528093929190818152602001838360200280828437600092019190915250612d1392505050565b9093509050611e56338787600081611dd357634e487b7160e01b600052603260045260246000fd5b9050602002016020810190611de89190613c81565b8888611df56001826141fa565b818110611e1257634e487b7160e01b600052603260045260246000fd5b9050602002016020810190611e279190613c81565b86600081518110611e4857634e487b7160e01b600052603260045260246000fd5b60200260200101518d61239c565b611e638389838989613056565b50509695505050505050565b606660009081526020527f422cccb7cea5c0e46f340bb7b21b81debac329f72e31669c20ff0f3a05cc2b5b5473ffffffffffffffffffffffffffffffffffffffff166040517fee0862bf00000000000000000000000000000000000000000000000000000000815273ffffffffffffffffffffffffffffffffffffffff848116600483015260248201849052919091169063ee0862bf90604401600060405180830381600087803b158015611f2357600080fd5b505af1158015611f37573d6000803e3d6000fd5b50506068600090815260205250507faa071f48f62aaaa1f6320aaa7bd2ad2d552d05160892c14d699d38c9920d5f995473ffffffffffffffffffffffffffffffffffffffff166040517f498d55eb00000000000000000000000000000000000000000000000000000000815233600482015273ffffffffffffffffffffffffffffffffffffffff848116602483015260448201849052919091169063498d55eb90606401600060405180830381600087803b158015611ff557600080fd5b505af1158015612009573d6000803e3d6000fd5b5050505061201833838361310d565b60405133907fe7b1fae3a790ceab07642c09617df79428b02832cd512bbfdd4db50272dcdf3090600090a25050565b6000612056600a612710614185565b61206183600a6141bd565b61206b919061419d565b92915050565b6060806002835110156120e0576040517f08c379a000000000000000000000000000000000000000000000000000000000815260206004820152601460248201527f746f6b656e207061746820746f6f2073686f72740000000000000000000000006044820152606401610654565b825167ffffffffffffffff81111561210857634e487b7160e01b600052604160045260246000fd5b604051908082528060200260200182016040528015612131578160200160208202803683370190505b509150848260008151811061215657634e487b7160e01b600052603260045260246000fd5b6020026020010181815250506001835161217091906141fa565b67ffffffffffffffff81111561219657634e487b7160e01b600052604160045260246000fd5b6040519080825280602002602001820160405280156121bf578160200160208202803683370190505b50905060005b600184516121d391906141fa565b8110156123935760008482815181106121fc57634e487b7160e01b600052603260045260246000fd5b602002602001015190506000858360016122169190614185565b8151811061223457634e487b7160e01b600052603260045260246000fd5b60200260200101519050600087846020811061226057634e487b7160e01b600052603260045260246000fd5b1a60f81b7fff00000000000000000000000000000000000000000000000000000000000000161561229a576122958383613215565b6122a4565b6122a4838361333c565b9050808585815181106122c757634e487b7160e01b600052603260045260246000fd5b602002602001019073ffffffffffffffffffffffffffffffffffffffff16908173ffffffffffffffffffffffffffffffffffffffff168152505060008061230f838686613428565b9150915061234588878151811061233657634e487b7160e01b600052603260045260246000fd5b6020026020010151838361352c565b88612351886001614185565b8151811061236f57634e487b7160e01b600052603260045260246000fd5b6020026020010181815250505050505050808061238b90614246565b9150506121c5565b50935093915050565b6000806123e7606860009081526020527faa071f48f62aaaa1f6320aaa7bd2ad2d552d05160892c14d699d38c9920d5f995473ffffffffffffffffffffffffffffffffffffffff1690565b6040517f3500aa0b00000000000000000000000000000000000000000000000000000000815273ffffffffffffffffffffffffffffffffffffffff89811660048301528881166024830152878116604483015260648201879052608482018690529190911690633500aa0b9060a4016040805180830381600087803b15801561246f57600080fd5b505af1158015612483573d6000803e3d6000fd5b505050506040513d601f19601f820116820180604052508101906124a79190613f48565b9092509050811561258957606660009081526020527f422cccb7cea5c0e46f340bb7b21b81debac329f72e31669c20ff0f3a05cc2b5b5473ffffffffffffffffffffffffffffffffffffffff166040517f2a6a897b00000000000000000000000000000000000000000000000000000000815273ffffffffffffffffffffffffffffffffffffffff8781166004830152602482018590529190911690632a6a897b90604401600060405180830381600087803b15801561256657600080fd5b505af115801561257a573d6000803e3d6000fd5b50505050612589878684612ab0565b801561266657606660009081526020527f422cccb7cea5c0e46f340bb7b21b81debac329f72e31669c20ff0f3a05cc2b5b5473ffffffffffffffffffffffffffffffffffffffff166040517fee0862bf00000000000000000000000000000000000000000000000000000000815273ffffffffffffffffffffffffffffffffffffffff888116600483015260248201849052919091169063ee0862bf90604401600060405180830381600087803b15801561264357600080fd5b505af1158015612657573d6000803e3d6000fd5b5050505061266687878361310d565b60405173ffffffffffffffffffffffffffffffffffffffff8816907fe7b1fae3a790ceab07642c09617df79428b02832cd512bbfdd4db50272dcdf3090600090a250505050505050565b8385600187516126c091906141fa565b815181106126de57634e487b7160e01b600052603260045260246000fd5b60200260200101511015612774576040517f08c379a000000000000000000000000000000000000000000000000000000000815260206004820152602860248201527f4d617267696e526f757465723a20494e53554646494349454e545f4f5554505560448201527f545f414d4f554e540000000000000000000000000000000000000000000000006064820152608401610654565b606560009081526020527f4a7203f705e51df4a56139a9b86b4a0970bed7ab7a3446eaffe2289989c1645c5473ffffffffffffffffffffffffffffffffffffffff1673ffffffffffffffffffffffffffffffffffffffff1663d9caed12838360008181106127f257634e487b7160e01b600052603260045260246000fd5b90506020020160208101906128079190613c81565b8560008151811061282857634e487b7160e01b600052603260045260246000fd5b60200260200101518860008151811061285157634e487b7160e01b600052603260045260246000fd5b60209081029190910101516040517fffffffff0000000000000000000000000000000000000000000000000000000060e086901b16815273ffffffffffffffffffffffffffffffffffffffff93841660048201529290911660248301526044820152606401600060405180830381600087803b1580156128d057600080fd5b505af11580156128e4573d6000803e3d6000fd5b5050505061292f858484848080602002602001604051908101604052809392919081815260200183836020028082843760009201919091525061292a9250612a6b915050565b613681565b5050505050565b60405173ffffffffffffffffffffffffffffffffffffffff821660248201526129d790604401604080517fffffffffffffffffffffffffffffffffffffffffffffffffffffffffffffffe08184030181529190526020810180517bffffffffffffffffffffffffffffffffffffffffffffffffffffffff167f2c2ecbc2000000000000000000000000000000000000000000000000000000001790526138d6565b50565b6129d7816040516024016129f091815260200190565b604080517fffffffffffffffffffffffffffffffffffffffffffffffffffffffffffffffe08184030181529190526020810180517bffffffffffffffffffffffffffffffffffffffffffffffffffffffff167ff5b1bba9000000000000000000000000000000000000000000000000000000001790526138d6565b606560009081526020527f4a7203f705e51df4a56139a9b86b4a0970bed7ab7a3446eaffe2289989c1645c5473ffffffffffffffffffffffffffffffffffffffff1690565b73ffffffffffffffffffffffffffffffffffffffff8216600090815260026020526040902054612b1e606c60009081526020527f3c1fcba39712202dbd455253568bf32dd0a3bedb5c3ff0de4b22d4e45e50dc925473ffffffffffffffffffffffffffffffffffffffff1690565b6040517fc6c9faa10000000000000000000000000000000000000000000000000000000081526004810183905273ffffffffffffffffffffffffffffffffffffffff868116602483015260448201859052919091169063c6c9faa190606401600060405180830381600087803b158015612b9757600080fd5b505af1158015612bab573d6000803e3d6000fd5b5050505050505050565b60007f000000000000000000000000000000000000000000000000000000000000000073ffffffffffffffffffffffffffffffffffffffff16638da5cb5b6040518163ffffffff1660e01b815260040160206040518083038186803b158015612c1d57600080fd5b505afa158015612c31573d6000803e3d6000fd5b505050506040513d601f19601f82011682018060405250810190612c559190613ca4565b905090565b60007f000000000000000000000000000000000000000000000000000000000000000073ffffffffffffffffffffffffffffffffffffffff1663c34c08e56040518163ffffffff1660e01b8152600401602060405180830381600087803b158015612cc457600080fd5b505af1158015612c31573d6000803e3d6000fd5b73ffffffffffffffffffffffffffffffffffffffff811660009081526001602090815260408083206009845290915290205460ff165b919050565b606080600283511015612d82576040517f08c379a000000000000000000000000000000000000000000000000000000000815260206004820152601460248201527f746f6b656e207061746820746f6f2073686f72740000000000000000000000006044820152606401610654565b825167ffffffffffffffff811115612daa57634e487b7160e01b600052604160045260246000fd5b604051908082528060200260200182016040528015612dd3578160200160208202803683370190505b509150848260018451612de691906141fa565b81518110612e0457634e487b7160e01b600052603260045260246000fd5b60200260200101818152505060018351612e1e91906141fa565b67ffffffffffffffff811115612e4457634e487b7160e01b600052604160045260246000fd5b604051908082528060200260200182016040528015612e6d578160200160208202803683370190505b509050600060018451612e8091906141fa565b90505b801561239357600084612e976001846141fa565b81518110612eb557634e487b7160e01b600052603260045260246000fd5b602002602001015190506000858381518110612ee157634e487b7160e01b600052603260045260246000fd5b60200260200101519050600087600185612efb91906141fa565b60208110612f1957634e487b7160e01b600052603260045260246000fd5b1a60f81b7fff000000000000000000000000000000000000000000000000000000000000001615612f5357612f4e8383613215565b612f5d565b612f5d838361333c565b90508085612f6c6001876141fa565b81518110612f8a57634e487b7160e01b600052603260045260246000fd5b602002602001019073ffffffffffffffffffffffffffffffffffffffff16908173ffffffffffffffffffffffffffffffffffffffff1681525050600080612fd2838686613428565b91509150613008888781518110612ff957634e487b7160e01b600052603260045260246000fd5b602002602001015183836138f7565b886130146001896141fa565b8151811061303257634e487b7160e01b600052603260045260246000fd5b6020026020010181815250505050505050808061304e90614211565b915050612e83565b838560008151811061307857634e487b7160e01b600052603260045260246000fd5b60200260200101511115612774576040517f08c379a0000000000000000000000000000000000000000000000000000000008152602060048201526024808201527f4d617267696e526f757465723a204558434553534956455f494e5055545f414d60448201527f4f554e54000000000000000000000000000000000000000000000000000000006064820152608401610654565b6000613157606c60009081526020527f3c1fcba39712202dbd455253568bf32dd0a3bedb5c3ff0de4b22d4e45e50dc925473ffffffffffffffffffffffffffffffffffffffff1690565b73ffffffffffffffffffffffffffffffffffffffff848116600090815260026020526040908190205490517f2b5de286000000000000000000000000000000000000000000000000000000008152600481018290528783166024820152604481018690529293509190831690632b5de28690606401600060405180830381600087803b1580156131e657600080fd5b505af11580156131fa573d6000803e3d6000fd5b505050505050505050565b600061271061206183600a6141bd565b60008060006132248585613a52565b60408051606084811b7fffffffffffffffffffffffffffffffffffffffff0000000000000000000000009081166020808501919091529185901b166034830152825160288184030181526048830190935282519201919091207fff0000000000000000000000000000000000000000000000000000000000000060688301527fc0aee478e3658e2610c5f7a4a2e1777ce9e4f2ac0000000000000000000000006069830152607d8201527fe18a34eb0e04b04f7a0ac29a6e80748dca96319b42c54d679cb821dca90c6303609d820152919350915060bd015b604080517fffffffffffffffffffffffffffffffffffffffffffffffffffffffffffffffe0818403018152919052805160209091012095945050505050565b600080600061334b8585613a52565b60408051606084811b7fffffffffffffffffffffffffffffffffffffffff0000000000000000000000009081166020808501919091529185901b166034830152825160288184030181526048830190935282519201919091207fff0000000000000000000000000000000000000000000000000000000000000060688301527f5c69bee701ef814a2b6a3edd4b1652cb9cc5aa6f0000000000000000000000006069830152607d8201527f96e8ac4277198ff8b6f785478aa9a39f403cb768dd02cbee326c3e7da348845f609d820152919350915060bd016132fd565b60008060006134378585613a52565b5090506000808773ffffffffffffffffffffffffffffffffffffffff16630902f1ac6040518163ffffffff1660e01b815260040160606040518083038186803b15801561348357600080fd5b505afa158015613497573d6000803e3d6000fd5b505050506040513d601f19601f820116820180604052508101906134bb9190613e55565b506dffffffffffffffffffffffffffff1691506dffffffffffffffffffffffffffff1691508273ffffffffffffffffffffffffffffffffffffffff168773ffffffffffffffffffffffffffffffffffffffff161461351a57808261351d565b81815b90999098509650505050505050565b6000808411613597576040517f08c379a000000000000000000000000000000000000000000000000000000000815260206004820152601960248201527f494e53554646494349454e545f494e5055545f414d4f554e54000000000000006044820152606401610654565b6000831180156135a75750600082115b613633576040517f08c379a000000000000000000000000000000000000000000000000000000000815260206004820152602860248201527f556e697377617056324c6962726172793a20494e53554646494349454e545f4c60448201527f49515549444954590000000000000000000000000000000000000000000000006064820152608401610654565b6000613641856103e56141bd565b9050600061364f84836141bd565b9050600082613660876103e86141bd565b61366a9190614185565b9050613676818361419d565b979650505050505050565b60005b835181101561292f576000808483815181106136b057634e487b7160e01b600052603260045260246000fd5b6020026020010151858460016136c69190614185565b815181106136e457634e487b7160e01b600052603260045260246000fd5b60200260200101519150915060006136fc8383613a52565b50905060008861370d866001614185565b8151811061372b57634e487b7160e01b600052603260045260246000fd5b602002602001015190506000808373ffffffffffffffffffffffffffffffffffffffff168673ffffffffffffffffffffffffffffffffffffffff161461377357826000613777565b6000835b91509150600060018b5161378b91906141fa565b881061379757886137ca565b8a6137a3896001614185565b815181106137c157634e487b7160e01b600052603260045260246000fd5b60200260200101515b905060008b89815181106137ee57634e487b7160e01b600052603260045260246000fd5b602002602001015190508073ffffffffffffffffffffffffffffffffffffffff1663022c0d9f858585600067ffffffffffffffff81111561383f57634e487b7160e01b600052604160045260246000fd5b6040519080825280601f01601f191660200182016040528015613869576020820181803683370190505b506040518563ffffffff1660e01b81526004016138899493929190614075565b600060405180830381600087803b1580156138a357600080fd5b505af11580156138b7573d6000803e3d6000fd5b50505050505050505050505080806138ce90614246565b915050613684565b80516a636f6e736f6c652e6c6f67602083016000808483855afa5050505050565b6000808411613962576040517f08c379a000000000000000000000000000000000000000000000000000000000815260206004820152601a60248201527f494e53554646494349454e545f4f55545055545f414d4f554e540000000000006044820152606401610654565b6000831180156139725750600082115b6139fe576040517f08c379a000000000000000000000000000000000000000000000000000000000815260206004820152602860248201527f556e697377617056324c6962726172793a20494e53554646494349454e545f4c60448201527f49515549444954590000000000000000000000000000000000000000000000006064820152608401610654565b6000613a0a85856141bd565b613a16906103e86141bd565b905060006103e5613a2787866141fa565b613a3191906141fa565b9050613a3d818361419d565b613a48906001614185565b9695505050505050565b6000808273ffffffffffffffffffffffffffffffffffffffff168473ffffffffffffffffffffffffffffffffffffffff161415613aeb576040517f08c379a000000000000000000000000000000000000000000000000000000000815260206004820152601260248201527f4964656e746963616c20616464726573732100000000000000000000000000006044820152606401610654565b8273ffffffffffffffffffffffffffffffffffffffff168473ffffffffffffffffffffffffffffffffffffffff1610613b25578284613b28565b83835b909250905073ffffffffffffffffffffffffffffffffffffffff8216613baa576040517f08c379a000000000000000000000000000000000000000000000000000000000815260206004820152600d60248201527f5a65726f206164647265737321000000000000000000000000000000000000006044820152606401610654565b9250929050565b60008083601f840112613bc2578182fd5b50813567ffffffffffffffff811115613bd9578182fd5b6020830191508360208260051b8501011115613baa57600080fd5b600082601f830112613c04578081fd5b81516020613c19613c1483614161565b614112565b80838252828201915082860187848660051b8901011115613c38578586fd5b855b85811015613c5657815184529284019290840190600101613c3a565b5090979650505050505050565b80516dffffffffffffffffffffffffffff81168114612d0e57600080fd5b600060208284031215613c92578081fd5b8135613c9d816142ab565b9392505050565b600060208284031215613cb5578081fd5b8151613c9d816142ab565b60008060408385031215613cd2578081fd5b8235613cdd816142ab565b946020939093013593505050565b60008060008060808587031215613d00578182fd5b8435613d0b816142ab565b9350602085013592506040850135613d22816142ab565b9396929550929360600135925050565b60008060408385031215613d44578182fd5b8235613d4f816142ab565b9150602083013560ff81168114613d64578182fd5b809150509250929050565b60008060408385031215613d81578182fd5b825167ffffffffffffffff80821115613d98578384fd5b818501915085601f830112613dab578384fd5b81516020613dbb613c1483614161565b8083825282820191508286018a848660051b8901011115613dda578889fd5b8896505b84871015613e05578051613df1816142ab565b835260019690960195918301918301613dde565b5091880151919650909350505080821115613e1e578283fd5b50613e2b85828601613bf4565b9150509250929050565b600060208284031215613e46578081fd5b81518015158114613c9d578182fd5b600080600060608486031215613e69578283fd5b613e7284613c63565b9250613e8060208501613c63565b9150604084015163ffffffff81168114613e98578182fd5b809150509250925092565b600060208284031215613eb4578081fd5b5035919050565b600060208284031215613ecc578081fd5b5051919050565b60008060408385031215613ee5578182fd5b823591506020830135613d64816142ab565b60008060008060608587031215613f0c578182fd5b8435935060208501359250604085013567ffffffffffffffff811115613f30578283fd5b613f3c87828801613bb1565b95989497509550505050565b60008060408385031215613f5a578182fd5b505080516020909101519092909150565b600080600080600060808688031215613f82578283fd5b853594506020860135935060408601359250606086013567ffffffffffffffff811115613fad578182fd5b613fb988828901613bb1565b969995985093965092949392505050565b60008060008060008060a08789031215613fe2578384fd5b863595506020870135945060408701359350606087013567ffffffffffffffff81111561400d578182fd5b61401989828a01613bb1565b979a9699509497949695608090950135949350505050565b6020808252825182820181905260009190848201906040850190845b818110156140695783518352928401929184019160010161404d565b50909695505050505050565b60008582526020858184015273ffffffffffffffffffffffffffffffffffffffff85166040840152608060608401528351806080850152825b818110156140ca5785810183015185820160a0015282016140ae565b818111156140db578360a083870101525b50601f017fffffffffffffffffffffffffffffffffffffffffffffffffffffffffffffffe0169290920160a0019695505050505050565b604051601f82017fffffffffffffffffffffffffffffffffffffffffffffffffffffffffffffffe016810167ffffffffffffffff8111828210171561415957614159614295565b604052919050565b600067ffffffffffffffff82111561417b5761417b614295565b5060051b60200190565b600082198211156141985761419861427f565b500190565b6000826141b857634e487b7160e01b81526012600452602481fd5b500490565b6000817fffffffffffffffffffffffffffffffffffffffffffffffffffffffffffffffff04831182151516156141f5576141f561427f565b500290565b60008282101561420c5761420c61427f565b500390565b6000816142205761422061427f565b507fffffffffffffffffffffffffffffffffffffffffffffffffffffffffffffffff0190565b60007fffffffffffffffffffffffffffffffffffffffffffffffffffffffffffffffff8214156142785761427861427f565b5060010190565b634e487b7160e01b600052601160045260246000fd5b634e487b7160e01b600052604160045260246000fd5b73ffffffffffffffffffffffffffffffffffffffff811681146129d757600080fdfea26469706673582212200edb6beea6b6f401164d2db898830c798529a72ba662a76c6cdb3b7ec2356acf64736f6c63430008030033",
  "linkReferences": {},
  "deployedLinkReferences": {}
}