{
  "_format": "hh-sol-artifact-1",
  "contractName": "MarginRouter",
  "sourceName": "contracts/MarginRouter.sol",
  "abi": [
    {
      "inputs": [
        {
          "internalType": "address",
          "name": "_WETH",
          "type": "address"
        },
        {
          "internalType": "address",
          "name": "_amm1Factory",
          "type": "address"
        },
        {
          "internalType": "address",
          "name": "_amm2Factory",
          "type": "address"
        },
        {
          "internalType": "address",
          "name": "_amm3Factory",
          "type": "address"
        },
        {
          "internalType": "bytes32",
          "name": "_amm1InitHash",
          "type": "bytes32"
        },
        {
          "internalType": "bytes32",
          "name": "_amm2InitHash",
          "type": "bytes32"
        },
        {
          "internalType": "bytes32",
          "name": "_amm3InitHash",
          "type": "bytes32"
        },
        {
          "internalType": "uint256",
          "name": "_feeBase",
          "type": "uint256"
        },
        {
          "internalType": "address",
          "name": "_roles",
          "type": "address"
        }
      ],
      "stateMutability": "nonpayable",
      "type": "constructor"
    },
    {
      "anonymous": false,
      "inputs": [
        {
          "indexed": true,
          "internalType": "address",
          "name": "trader",
          "type": "address"
        }
      ],
      "name": "AccountUpdated",
      "type": "event"
    },
    {
      "anonymous": false,
      "inputs": [
        {
          "indexed": true,
          "internalType": "address",
          "name": "trader",
          "type": "address"
        },
        {
          "indexed": false,
          "internalType": "address",
          "name": "fromToken",
          "type": "address"
        },
        {
          "indexed": false,
          "internalType": "address",
          "name": "toToken",
          "type": "address"
        },
        {
          "indexed": false,
          "internalType": "uint256",
          "name": "fromAmount",
          "type": "uint256"
        },
        {
          "indexed": false,
          "internalType": "uint256",
          "name": "toAmount",
          "type": "uint256"
        }
      ],
      "name": "MarginTrade",
      "type": "event"
    },
    {
      "inputs": [],
      "name": "WETH",
      "outputs": [
        {
          "internalType": "address",
          "name": "",
          "type": "address"
        }
      ],
      "stateMutability": "view",
      "type": "function"
    },
    {
      "inputs": [],
      "name": "amm1Factory",
      "outputs": [
        {
          "internalType": "address",
          "name": "",
          "type": "address"
        }
      ],
      "stateMutability": "view",
      "type": "function"
    },
    {
      "inputs": [],
      "name": "amm1InitHash",
      "outputs": [
        {
          "internalType": "bytes32",
          "name": "",
          "type": "bytes32"
        }
      ],
      "stateMutability": "view",
      "type": "function"
    },
    {
      "inputs": [],
      "name": "amm2Factory",
      "outputs": [
        {
          "internalType": "address",
          "name": "",
          "type": "address"
        }
      ],
      "stateMutability": "view",
      "type": "function"
    },
    {
      "inputs": [],
      "name": "amm2InitHash",
      "outputs": [
        {
          "internalType": "bytes32",
          "name": "",
          "type": "bytes32"
        }
      ],
      "stateMutability": "view",
      "type": "function"
    },
    {
      "inputs": [],
      "name": "amm3Factory",
      "outputs": [
        {
          "internalType": "address",
          "name": "",
          "type": "address"
        }
      ],
      "stateMutability": "view",
      "type": "function"
    },
    {
      "inputs": [],
      "name": "amm3InitHash",
      "outputs": [
        {
          "internalType": "bytes32",
          "name": "",
          "type": "bytes32"
        }
      ],
      "stateMutability": "view",
      "type": "function"
    },
    {
      "inputs": [
        {
          "internalType": "uint256",
          "name": "amountIn",
          "type": "uint256"
        },
        {
          "internalType": "uint256",
          "name": "amountOutMin",
          "type": "uint256"
        },
        {
          "internalType": "bytes32",
          "name": "amms",
          "type": "bytes32"
        },
        {
          "internalType": "address[]",
          "name": "tokens",
          "type": "address[]"
        }
      ],
      "name": "authorizedSwapExactT4T",
      "outputs": [
        {
          "internalType": "uint256[]",
          "name": "amounts",
          "type": "uint256[]"
        }
      ],
      "stateMutability": "nonpayable",
      "type": "function"
    },
    {
      "inputs": [
        {
          "internalType": "uint256",
          "name": "amountOut",
          "type": "uint256"
        },
        {
          "internalType": "uint256",
          "name": "amountInMax",
          "type": "uint256"
        },
        {
          "internalType": "bytes32",
          "name": "amms",
          "type": "bytes32"
        },
        {
          "internalType": "address[]",
          "name": "tokens",
          "type": "address[]"
        }
      ],
      "name": "authorizedSwapT4ExactT",
      "outputs": [
        {
          "internalType": "uint256[]",
          "name": "amounts",
          "type": "uint256[]"
        }
      ],
      "stateMutability": "nonpayable",
      "type": "function"
    },
    {
      "inputs": [
        {
          "internalType": "address",
          "name": "borrowToken",
          "type": "address"
        },
        {
          "internalType": "uint256",
          "name": "borrowAmount",
          "type": "uint256"
        }
      ],
      "name": "crossBorrow",
      "outputs": [],
      "stateMutability": "nonpayable",
      "type": "function"
    },
    {
      "inputs": [],
      "name": "crossCloseAccount",
      "outputs": [],
      "stateMutability": "nonpayable",
      "type": "function"
    },
    {
      "inputs": [
        {
          "internalType": "address",
          "name": "depositToken",
          "type": "address"
        },
        {
          "internalType": "uint256",
          "name": "depositAmount",
          "type": "uint256"
        }
      ],
      "name": "crossDeposit",
      "outputs": [],
      "stateMutability": "nonpayable",
      "type": "function"
    },
    {
      "inputs": [],
      "name": "crossDepositETH",
      "outputs": [],
      "stateMutability": "payable",
      "type": "function"
    },
    {
      "inputs": [
        {
          "internalType": "address",
          "name": "depositToken",
          "type": "address"
        },
        {
          "internalType": "uint256",
          "name": "depositAmount",
          "type": "uint256"
        },
        {
          "internalType": "address",
          "name": "borrowToken",
          "type": "address"
        },
        {
          "internalType": "uint256",
          "name": "withdrawAmount",
          "type": "uint256"
        }
      ],
      "name": "crossOvercollateralizedBorrow",
      "outputs": [],
      "stateMutability": "nonpayable",
      "type": "function"
    },
    {
      "inputs": [
        {
          "internalType": "address",
          "name": "withdrawToken",
          "type": "address"
        },
        {
          "internalType": "uint256",
          "name": "withdrawAmount",
          "type": "uint256"
        }
      ],
      "name": "crossWithdraw",
      "outputs": [],
      "stateMutability": "nonpayable",
      "type": "function"
    },
    {
      "inputs": [
        {
          "internalType": "uint256",
          "name": "withdrawAmount",
          "type": "uint256"
        }
      ],
      "name": "crossWithdrawETH",
      "outputs": [],
      "stateMutability": "nonpayable",
      "type": "function"
    },
    {
      "inputs": [],
      "name": "feeBase",
      "outputs": [
        {
          "internalType": "uint256",
          "name": "",
          "type": "uint256"
        }
      ],
      "stateMutability": "view",
      "type": "function"
    },
    {
      "inputs": [
        {
          "internalType": "uint256",
          "name": "outAmount",
          "type": "uint256"
        },
        {
          "internalType": "bytes32",
          "name": "amms",
          "type": "bytes32"
        },
        {
          "internalType": "address[]",
          "name": "tokens",
          "type": "address[]"
        }
      ],
      "name": "getAmountsIn",
      "outputs": [
        {
          "internalType": "uint256[]",
          "name": "amounts",
          "type": "uint256[]"
        }
      ],
      "stateMutability": "view",
      "type": "function"
    },
    {
      "inputs": [
        {
          "internalType": "uint256",
          "name": "inAmount",
          "type": "uint256"
        },
        {
          "internalType": "bytes32",
          "name": "amms",
          "type": "bytes32"
        },
        {
          "internalType": "address[]",
          "name": "tokens",
          "type": "address[]"
        }
      ],
      "name": "getAmountsOut",
      "outputs": [
        {
          "internalType": "uint256[]",
          "name": "amounts",
          "type": "uint256[]"
        }
      ],
      "stateMutability": "view",
      "type": "function"
    },
    {
      "inputs": [
        {
          "internalType": "uint256",
          "name": "",
          "type": "uint256"
        }
      ],
      "name": "mainCharacterCache",
      "outputs": [
        {
          "internalType": "address",
          "name": "",
          "type": "address"
        }
      ],
      "stateMutability": "view",
      "type": "function"
    },
    {
      "inputs": [],
      "name": "mswapFeesPer10k",
      "outputs": [
        {
          "internalType": "uint256",
          "name": "",
          "type": "uint256"
        }
      ],
      "stateMutability": "view",
      "type": "function"
    },
    {
      "inputs": [
        {
          "internalType": "address",
          "name": "",
          "type": "address"
        },
        {
          "internalType": "uint256",
          "name": "",
          "type": "uint256"
        }
      ],
      "name": "roleCache",
      "outputs": [
        {
          "internalType": "bool",
          "name": "",
          "type": "bool"
        }
      ],
      "stateMutability": "view",
      "type": "function"
    },
    {
      "inputs": [],
      "name": "roles",
      "outputs": [
        {
          "internalType": "contract Roles",
          "name": "",
          "type": "address"
        }
      ],
      "stateMutability": "view",
      "type": "function"
    },
    {
      "inputs": [
        {
          "internalType": "uint256",
          "name": "amountIn",
          "type": "uint256"
        },
        {
          "internalType": "uint256",
          "name": "amountOutMin",
          "type": "uint256"
        },
        {
          "internalType": "bytes32",
          "name": "amms",
          "type": "bytes32"
        },
        {
          "internalType": "address[]",
          "name": "tokens",
          "type": "address[]"
        },
        {
          "internalType": "uint256",
          "name": "deadline",
          "type": "uint256"
        }
      ],
      "name": "swapExactTokensForTokens",
      "outputs": [
        {
          "internalType": "uint256[]",
          "name": "amounts",
          "type": "uint256[]"
        }
      ],
      "stateMutability": "nonpayable",
      "type": "function"
    },
    {
      "inputs": [
        {
          "internalType": "uint256",
          "name": "amountOut",
          "type": "uint256"
        },
        {
          "internalType": "uint256",
          "name": "amountInMax",
          "type": "uint256"
        },
        {
          "internalType": "bytes32",
          "name": "amms",
          "type": "bytes32"
        },
        {
          "internalType": "address[]",
          "name": "tokens",
          "type": "address[]"
        },
        {
          "internalType": "uint256",
          "name": "deadline",
          "type": "uint256"
        }
      ],
      "name": "swapTokensForExactTokens",
      "outputs": [
        {
          "internalType": "uint256[]",
          "name": "amounts",
          "type": "uint256[]"
        }
      ],
      "stateMutability": "nonpayable",
      "type": "function"
    },
    {
      "inputs": [
        {
          "internalType": "uint256",
          "name": "role",
          "type": "uint256"
        }
      ],
      "name": "updateMainCharacterCache",
      "outputs": [],
      "stateMutability": "nonpayable",
      "type": "function"
    },
    {
      "inputs": [
        {
          "internalType": "uint256",
          "name": "role",
          "type": "uint256"
        },
        {
          "internalType": "address",
          "name": "contr",
          "type": "address"
        }
      ],
      "name": "updateRoleCache",
      "outputs": [],
      "stateMutability": "nonpayable",
      "type": "function"
    }
  ],
  "bytecode": "0x6101406040523480156200001257600080fd5b506040516200402138038062004021833981016040819052620000359162000115565b87878787878787876001600160a01b038116620000a35760405162461bcd60e51b815260206004820152602260248201527f506c656173652070726f766964652076616c696420726f6c6573206164647265604482015261737360f01b606482015260840160405180910390fd5b6001600160601b0319606091821b811660805297811b881660a05295861b871660c05293851b861660e052600292909255600355600455610100529990991b9098166101205250620001ab9650505050505050565b80516001600160a01b03811681146200011057600080fd5b919050565b60008060008060008060008060006101208a8c03121562000134578485fd5b6200013f8a620000f8565b98506200014f60208b01620000f8565b97506200015f60408b01620000f8565b96506200016f60608b01620000f8565b955060808a0151945060a08a0151935060c08a0151925060e08a015191506200019c6101008b01620000f8565b90509295985092959850929598565b60805160601c60a05160601c60c05160601c60e05160601c610100516101205160601c613dca620002576000396000818161042c01528181610b260152818161134f0152818161144801526114ba0152600081816103e20152818161329501526136190152600081816104d40152612e7a0152600081816101c30152612f7001526000818161048001526130450152600081816102e6015281816105e70152610d890152613dca6000f3fe6080604052600436106101ac5760003560e01c806394427b20116100ec578063db4292351161008a578063e3e0626b11610064578063e3e0626b14610522578063e3ee432714610542578063e9c3f77d14610562578063eedb97c714610598576101ac565b8063db429235146104c2578063df7c20f9146104f6578063e2abb5c41461050c576101ac565b8063ad5c4648116100c6578063ad5c46481461041a578063b7453e271461044e578063b852eb0d1461046e578063cb6067dd146104a2576101ac565b806394427b20146103c857806395e911a8146103d0578063a75208a814610404576101ac565b8063351ae6101161015957806353d7ff9f1161013357806353d7ff9f146103285780636969867014610348578063799d34e11461035d5780637a1a04df1461037d576101ac565b8063351ae610146102b4578063392f5f64146102d4578063447d52ba14610308576101ac565b80631084bd6d1161018a5780631084bd6d146102515780631306d902146102745780631dce3baa14610294576101ac565b8063059b157a146101b1578063071060a6146102025780630abb674c14610224575b600080fd5b3480156101bd57600080fd5b506101e57f000000000000000000000000000000000000000000000000000000000000000081565b6040516001600160a01b0390911681526020015b60405180910390f35b34801561020e57600080fd5b5061022261021d366004613a0c565b6105b8565b005b34801561023057600080fd5b5061024461023f366004613b3e565b6106af565b6040516101f99190613ba5565b34801561025d57600080fd5b50610266600a81565b6040519081526020016101f9565b34801561028057600080fd5b5061022261028f366004613866565b61082e565b3480156102a057600080fd5b506102226102af366004613a0c565b610abb565b3480156102c057600080fd5b506102446102cf366004613adf565b610c71565b3480156102e057600080fd5b506101e57f000000000000000000000000000000000000000000000000000000000000000081565b34801561031457600080fd5b50610222610323366004613a3c565b610d4a565b34801561033457600080fd5b50610244610343366004613adf565b610e59565b34801561035457600080fd5b50610222610f28565b34801561036957600080fd5b50610244610378366004613a6b565b611214565b34801561038957600080fd5b506103b8610398366004613866565b600160209081526000928352604080842090915290825290205460ff1681565b60405190151581526020016101f9565b610222611254565b3480156103dc57600080fd5b506102667f000000000000000000000000000000000000000000000000000000000000000081565b34801561041057600080fd5b5061026660025481565b34801561042657600080fd5b506101e57f000000000000000000000000000000000000000000000000000000000000000081565b34801561045a57600080fd5b50610244610469366004613a6b565b61150e565b34801561047a57600080fd5b506101e57f000000000000000000000000000000000000000000000000000000000000000081565b3480156104ae57600080fd5b506102226104bd366004613891565b61154e565b3480156104ce57600080fd5b506101e57f000000000000000000000000000000000000000000000000000000000000000081565b34801561050257600080fd5b5061026660035481565b34801561051857600080fd5b5061026660045481565b34801561052e57600080fd5b5061022261053d366004613866565b61193f565b34801561054e57600080fd5b5061024461055d366004613b3e565b611ade565b34801561056e57600080fd5b506101e561057d366004613a0c565b6000602081905290815260409020546001600160a01b031681565b3480156105a457600080fd5b506102226105b3366004613866565b611c47565b6040517fb4ed0b6d000000000000000000000000000000000000000000000000000000008152600481018290527f00000000000000000000000000000000000000000000000000000000000000006001600160a01b03169063b4ed0b6d9060240160206040518083038186803b15801561063157600080fd5b505afa158015610645573d6000803e3d6000fd5b505050506040513d601f19601f82011682018060405250810190610669919061384a565b60009182526020829052604090912080547fffffffffffffffffffffffff0000000000000000000000000000000000000000166001600160a01b03909216919091179055565b606081428110156107075760405162461bcd60e51b815260206004820152601160248201527f547261646520686173206578706972656400000000000000000000000000000060448201526064015b60405180910390fd5b600061071289611eb7565b9050606061075d610723838c613d07565b89898980806020026020016040519081016040528093929190818152602001838360200280828437600092019190915250611ee192505050565b909450905061081433888860008161078557634e487b7160e01b600052603260045260246000fd5b905060200201602081019061079a9190613827565b89896107a7600182613d07565b8181106107c457634e487b7160e01b600052603260045260246000fd5b90506020020160208101906107d99190613827565b8d8860018a516107e99190613d07565b8151811061080757634e487b7160e01b600052603260045260246000fd5b6020026020010151612237565b610821848a838a8a6126df565b5050509695505050505050565b606560009081526020527f4a7203f705e51df4a56139a9b86b4a0970bed7ab7a3446eaffe2289989c1645c546001600160a01b03166040517fb3db428b0000000000000000000000000000000000000000000000000000000081523360048201526001600160a01b03848116602483015260448201849052919091169063b3db428b90606401600060405180830381600087803b1580156108ce57600080fd5b505af11580156108e2573d6000803e3d6000fd5b505050506000610923606860009081526020527faa071f48f62aaaa1f6320aaa7bd2ad2d552d05160892c14d699d38c9920d5f99546001600160a01b031690565b6040517f52a664d90000000000000000000000000000000000000000000000000000000081523360048201526001600160a01b0385811660248301526044820185905291909116906352a664d990606401602060405180830381600087803b15801561098e57600080fd5b505af11580156109a2573d6000803e3d6000fd5b505050506040513d601f19601f820116820180604052508101906109c69190613a24565b90508015610a8b57606660009081526020527f422cccb7cea5c0e46f340bb7b21b81debac329f72e31669c20ff0f3a05cc2b5b546001600160a01b03166040517f2a6a897b0000000000000000000000000000000000000000000000000000000081526001600160a01b038581166004830152602482018490529190911690632a6a897b90604401600060405180830381600087803b158015610a6857600080fd5b505af1158015610a7c573d6000803e3d6000fd5b50505050610a8b83338361295c565b60405133907fe7b1fae3a790ceab07642c09617df79428b02832cd512bbfdd4db50272dcdf3090600090a2505050565b606860009081526020527faa071f48f62aaaa1f6320aaa7bd2ad2d552d05160892c14d699d38c9920d5f99546001600160a01b03166040517fd0eb66530000000000000000000000000000000000000000000000000000000081523360048201526001600160a01b037f00000000000000000000000000000000000000000000000000000000000000008116602483015260448201849052919091169063d0eb665390606401600060405180830381600087803b158015610b7b57600080fd5b505af1158015610b8f573d6000803e3d6000fd5b50506065600090815260205250507f4a7203f705e51df4a56139a9b86b4a0970bed7ab7a3446eaffe2289989c1645c546001600160a01b03166040517f4782f779000000000000000000000000000000000000000000000000000000008152336004820152602481018390526001600160a01b039190911690634782f77990604401600060405180830381600087803b158015610c2b57600080fd5b505af1158015610c3f573d6000803e3d6000fd5b50506040513392507fe7b1fae3a790ceab07642c09617df79428b02832cd512bbfdd4db50272dcdf309150600090a250565b6060610c7c336129a8565b610cee5760405162461bcd60e51b815260206004820152603e60248201527f43616c6c696e6720636f6e7472616374206973206e6f7420617574686f72697a60448201527f656420746f20747261646520776974682070726f746f636c2066756e6473000060648201526084016106fe565b6060610d2e8786868680806020026020016040519081016040528093929190818152602001838360200280828437600092019190915250611ee192505050565b9092509050610d4082878387876126df565b5095945050505050565b6040517f93552a3d000000000000000000000000000000000000000000000000000000008152600481018390526001600160a01b0382811660248301527f000000000000000000000000000000000000000000000000000000000000000016906393552a3d9060440160206040518083038186803b158015610dcb57600080fd5b505afa158015610ddf573d6000803e3d6000fd5b505050506040513d601f19601f82011682018060405250810190610e03919061399e565b6001600160a01b039190911660009081526001602090815260408083209483529390529190912080547fffffffffffffffffffffffffffffffffffffffffffffffffffffffffffffff0016911515919091179055565b6060610e64336129a8565b610ed65760405162461bcd60e51b815260206004820152603e60248201527f43616c6c696e6720636f6e7472616374206973206e6f7420617574686f72697a60448201527f656420746f20747261646520776974682070726f746f636c2066756e6473000060648201526084016106fe565b6060610f1687868686808060200260200160405190810160405280939291908181526020018383602002808284376000920191909152506129d692505050565b9092509050610d408287838787612d4e565b600080610f66606860009081526020527faa071f48f62aaaa1f6320aaa7bd2ad2d552d05160892c14d699d38c9920d5f99546001600160a01b031690565b6040517f409fdb720000000000000000000000000000000000000000000000000000000081523360048201526001600160a01b03919091169063409fdb729060240160006040518083038186803b158015610fc057600080fd5b505afa158015610fd4573d6000803e3d6000fd5b505050506040513d6000823e601f3d908101601f19168201604052610ffc91908101906138d8565b9150915061103b606860009081526020527faa071f48f62aaaa1f6320aaa7bd2ad2d552d05160892c14d699d38c9920d5f99546001600160a01b031690565b6040517fdb2d904d0000000000000000000000000000000000000000000000000000000081523360048201526001600160a01b03919091169063db2d904d90602401600060405180830381600087803b15801561109757600080fd5b505af11580156110ab573d6000803e3d6000fd5b5050505060005b80835111156111e457606560009081526020527f4a7203f705e51df4a56139a9b86b4a0970bed7ab7a3446eaffe2289989c1645c546001600160a01b03166001600160a01b031663d9caed1284838151811061111e57634e487b7160e01b600052603260045260246000fd5b60200260200101513385858151811061114757634e487b7160e01b600052603260045260246000fd5b60209081029190910101516040517fffffffff0000000000000000000000000000000000000000000000000000000060e086901b1681526001600160a01b0393841660048201529290911660248301526044820152606401600060405180830381600087803b1580156111b957600080fd5b505af11580156111cd573d6000803e3d6000fd5b5050505080806111dc90613d35565b9150506110b2565b5060405133907fe7b1fae3a790ceab07642c09617df79428b02832cd512bbfdd4db50272dcdf3090600090a25050565b6060610d4085858585808060200260200160405190810160405280939291908181526020018383602002808284376000920191909152506129d692505050565b606560009081526020527f4a7203f705e51df4a56139a9b86b4a0970bed7ab7a3446eaffe2289989c1645c546001600160a01b03166001600160a01b031663a6a5f9fe346040518263ffffffff1660e01b81526004016000604051808303818588803b1580156112c357600080fd5b505af11580156112d7573d6000803e3d6000fd5b50505050506000611319606860009081526020527faa071f48f62aaaa1f6320aaa7bd2ad2d552d05160892c14d699d38c9920d5f99546001600160a01b031690565b6040517f52a664d90000000000000000000000000000000000000000000000000000000081523360048201526001600160a01b037f00000000000000000000000000000000000000000000000000000000000000008116602483015234604483015291909116906352a664d990606401602060405180830381600087803b1580156113a357600080fd5b505af11580156113b7573d6000803e3d6000fd5b505050506040513d601f19601f820116820180604052508101906113db9190613a24565b905080156114e057606660009081526020527f422cccb7cea5c0e46f340bb7b21b81debac329f72e31669c20ff0f3a05cc2b5b546001600160a01b03166040517f2a6a897b0000000000000000000000000000000000000000000000000000000081526001600160a01b037f000000000000000000000000000000000000000000000000000000000000000081166004830152602482018490529190911690632a6a897b90604401600060405180830381600087803b15801561149d57600080fd5b505af11580156114b1573d6000803e3d6000fd5b505050506114e07f0000000000000000000000000000000000000000000000000000000000000000338361295c565b60405133907fe7b1fae3a790ceab07642c09617df79428b02832cd512bbfdd4db50272dcdf3090600090a250565b6060610d408585858580806020026020016040519081016040528093929190818152602001838360200280828437600092019190915250611ee192505050565b606560009081526020527f4a7203f705e51df4a56139a9b86b4a0970bed7ab7a3446eaffe2289989c1645c546001600160a01b03166040517fb3db428b0000000000000000000000000000000000000000000000000000000081523360048201526001600160a01b03868116602483015260448201869052919091169063b3db428b90606401600060405180830381600087803b1580156115ee57600080fd5b505af1158015611602573d6000803e3d6000fd5b50506066600090815260205250507f422cccb7cea5c0e46f340bb7b21b81debac329f72e31669c20ff0f3a05cc2b5b546001600160a01b03166040517fee0862bf0000000000000000000000000000000000000000000000000000000081526001600160a01b03848116600483015260248201849052919091169063ee0862bf90604401600060405180830381600087803b1580156116a057600080fd5b505af11580156116b4573d6000803e3d6000fd5b50506068600090815260205250507faa071f48f62aaaa1f6320aaa7bd2ad2d552d05160892c14d699d38c9920d5f99546001600160a01b03166040517f1d84cc180000000000000000000000000000000000000000000000000000000081523360048201526001600160a01b038681166024830152604482018690528481166064830152608482018490529190911690631d84cc189060a401600060405180830381600087803b15801561176757600080fd5b505af115801561177b573d6000803e3d6000fd5b50506066600090815260205250507f422cccb7cea5c0e46f340bb7b21b81debac329f72e31669c20ff0f3a05cc2b5b546001600160a01b03166040517fdc683bcf0000000000000000000000000000000000000000000000000000000081526001600160a01b038481166004830152919091169063dc683bcf90602401602060405180830381600087803b15801561181257600080fd5b505af1158015611826573d6000803e3d6000fd5b505050506040513d601f19601f8201168201806040525081019061184a9190613a24565b50606560009081526020527f4a7203f705e51df4a56139a9b86b4a0970bed7ab7a3446eaffe2289989c1645c546001600160a01b03166040517fd9caed120000000000000000000000000000000000000000000000000000000081526001600160a01b03848116600483015233602483015260448201849052919091169063d9caed1290606401600060405180830381600087803b1580156118eb57600080fd5b505af11580156118ff573d6000803e3d6000fd5b5050505061190e823383612deb565b60405133907fe7b1fae3a790ceab07642c09617df79428b02832cd512bbfdd4db50272dcdf3090600090a250505050565b606860009081526020527faa071f48f62aaaa1f6320aaa7bd2ad2d552d05160892c14d699d38c9920d5f99546001600160a01b03166040517fd0eb66530000000000000000000000000000000000000000000000000000000081523360048201526001600160a01b03848116602483015260448201849052919091169063d0eb665390606401600060405180830381600087803b1580156119df57600080fd5b505af11580156119f3573d6000803e3d6000fd5b50506065600090815260205250507f4a7203f705e51df4a56139a9b86b4a0970bed7ab7a3446eaffe2289989c1645c546001600160a01b03166040517fd9caed120000000000000000000000000000000000000000000000000000000081526001600160a01b03848116600483015233602483015260448201849052919091169063d9caed1290606401600060405180830381600087803b158015611a9757600080fd5b505af1158015611aab573d6000803e3d6000fd5b50506040513392507fe7b1fae3a790ceab07642c09617df79428b02832cd512bbfdd4db50272dcdf309150600090a25050565b60608142811015611b315760405162461bcd60e51b815260206004820152601160248201527f547261646520686173206578706972656400000000000000000000000000000060448201526064016106fe565b6060611b83611b3f8a612e2e565b611b49908b613cb0565b888888808060200260200160405190810160405280939291908181526020018383602002808284376000920191909152506129d692505050565b9093509050611c2e338787600081611bab57634e487b7160e01b600052603260045260246000fd5b9050602002016020810190611bc09190613827565b8888611bcd600182613d07565b818110611bea57634e487b7160e01b600052603260045260246000fd5b9050602002016020810190611bff9190613827565b86600081518110611c2057634e487b7160e01b600052603260045260246000fd5b60200260200101518d612237565b611c3b8389838989612d4e565b50509695505050505050565b606660009081526020527f422cccb7cea5c0e46f340bb7b21b81debac329f72e31669c20ff0f3a05cc2b5b546001600160a01b03166040517fee0862bf0000000000000000000000000000000000000000000000000000000081526001600160a01b03848116600483015260248201849052919091169063ee0862bf90604401600060405180830381600087803b158015611ce157600080fd5b505af1158015611cf5573d6000803e3d6000fd5b50506068600090815260205250507faa071f48f62aaaa1f6320aaa7bd2ad2d552d05160892c14d699d38c9920d5f99546001600160a01b03166040517f498d55eb0000000000000000000000000000000000000000000000000000000081523360048201526001600160a01b03848116602483015260448201849052919091169063498d55eb90606401600060405180830381600087803b158015611d9957600080fd5b505af1158015611dad573d6000803e3d6000fd5b50506066600090815260205250507f422cccb7cea5c0e46f340bb7b21b81debac329f72e31669c20ff0f3a05cc2b5b546001600160a01b03166040517fdc683bcf0000000000000000000000000000000000000000000000000000000081526001600160a01b038481166004830152919091169063dc683bcf90602401602060405180830381600087803b158015611e4457600080fd5b505af1158015611e58573d6000803e3d6000fd5b505050506040513d601f19601f82011682018060405250810190611e7c9190613a24565b50611e88823383612deb565b60405133907fe7b1fae3a790ceab07642c09617df79428b02832cd512bbfdd4db50272dcdf3090600090a25050565b6000611ec6600a612710613cb0565b611ed183600a613ce8565b611edb9190613cc8565b92915050565b606080600283511015611f365760405162461bcd60e51b815260206004820152601460248201527f746f6b656e207061746820746f6f2073686f727400000000000000000000000060448201526064016106fe565b825167ffffffffffffffff811115611f5e57634e487b7160e01b600052604160045260246000fd5b604051908082528060200260200182016040528015611f87578160200160208202803683370190505b5091508482600081518110611fac57634e487b7160e01b600052603260045260246000fd5b60200260200101818152505060018351611fc69190613d07565b67ffffffffffffffff811115611fec57634e487b7160e01b600052604160045260246000fd5b604051908082528060200260200182016040528015612015578160200160208202803683370190505b50905060005b600184516120299190613d07565b81101561222e57600084828151811061205257634e487b7160e01b600052603260045260246000fd5b6020026020010151905060008583600161206c9190613cb0565b8151811061208a57634e487b7160e01b600052603260045260246000fd5b6020026020010151905060008784602081106120b657634e487b7160e01b600052603260045260246000fd5b1a60f81b7fff00000000000000000000000000000000000000000000000000000000000000161561214f5787846020811061210157634e487b7160e01b600052603260045260246000fd5b1a60f81b7effffffffffffffffffffffffffffffffffffffffffffffffffffffffffffff1916600160f81b146121405761213b8383612e3e565b61214a565b61214a8383612f34565b612159565b6121598383613009565b90508085858151811061217c57634e487b7160e01b600052603260045260246000fd5b60200260200101906001600160a01b031690816001600160a01b0316815250506000806121aa8386866130de565b915091506121e08887815181106121d157634e487b7160e01b600052603260045260246000fd5b602002602001015183836131bb565b886121ec886001613cb0565b8151811061220a57634e487b7160e01b600052603260045260246000fd5b6020026020010181815250505050505050808061222690613d35565b91505061201b565b50935093915050565b600080612275606860009081526020527faa071f48f62aaaa1f6320aaa7bd2ad2d552d05160892c14d699d38c9920d5f99546001600160a01b031690565b6040517f3500aa0b0000000000000000000000000000000000000000000000000000000081526001600160a01b0389811660048301528881166024830152878116604483015260648201879052608482018690529190911690633500aa0b9060a4016040805180830381600087803b1580156122f057600080fd5b505af1158015612304573d6000803e3d6000fd5b505050506040513d601f19601f820116820180604052508101906123289190613abc565b909250905081156124bc57606660009081526020527f422cccb7cea5c0e46f340bb7b21b81debac329f72e31669c20ff0f3a05cc2b5b546001600160a01b03166040517f2a6a897b0000000000000000000000000000000000000000000000000000000081526001600160a01b038781166004830152602482018590529190911690632a6a897b90604401600060405180830381600087803b1580156123cd57600080fd5b505af11580156123e1573d6000803e3d6000fd5b50506066600090815260205250507f422cccb7cea5c0e46f340bb7b21b81debac329f72e31669c20ff0f3a05cc2b5b546001600160a01b03166040517fdc683bcf0000000000000000000000000000000000000000000000000000000081526001600160a01b038781166004830152919091169063dc683bcf90602401602060405180830381600087803b15801561247857600080fd5b505af115801561248c573d6000803e3d6000fd5b505050506040513d601f19601f820116820180604052508101906124b09190613a24565b506124bc85888461295c565b801561264b57606660009081526020527f422cccb7cea5c0e46f340bb7b21b81debac329f72e31669c20ff0f3a05cc2b5b546001600160a01b03166040517fee0862bf0000000000000000000000000000000000000000000000000000000081526001600160a01b03888116600483015260248201849052919091169063ee0862bf90604401600060405180830381600087803b15801561255c57600080fd5b505af1158015612570573d6000803e3d6000fd5b50506066600090815260205250507f422cccb7cea5c0e46f340bb7b21b81debac329f72e31669c20ff0f3a05cc2b5b546001600160a01b03166040517fdc683bcf0000000000000000000000000000000000000000000000000000000081526001600160a01b038881166004830152919091169063dc683bcf90602401602060405180830381600087803b15801561260757600080fd5b505af115801561261b573d6000803e3d6000fd5b505050506040513d601f19601f8201168201806040525081019061263f9190613a24565b5061264b868883612deb565b6040516001600160a01b038816907fe7b1fae3a790ceab07642c09617df79428b02832cd512bbfdd4db50272dcdf3090600090a2604080516001600160a01b038881168252878116602083015291810186905260608101859052908816907f610a6fcfd0e5da3e1f98054761ba753182ff6f350467da719cae9d94e5f541369060800160405180910390a250505050505050565b8385600187516126ef9190613d07565b8151811061270d57634e487b7160e01b600052603260045260246000fd5b602002602001015110156127895760405162461bcd60e51b815260206004820152602860248201527f4d617267696e526f757465723a20494e53554646494349454e545f4f5554505560448201527f545f414d4f554e5400000000000000000000000000000000000000000000000060648201526084016106fe565b606560009081526020527f4a7203f705e51df4a56139a9b86b4a0970bed7ab7a3446eaffe2289989c1645c546001600160a01b03166001600160a01b031663d9caed12838360008181106127ed57634e487b7160e01b600052603260045260246000fd5b90506020020160208101906128029190613827565b8560008151811061282357634e487b7160e01b600052603260045260246000fd5b60200260200101518860008151811061284c57634e487b7160e01b600052603260045260246000fd5b60209081029190910101516040517fffffffff0000000000000000000000000000000000000000000000000000000060e086901b1681526001600160a01b0393841660048201529290911660248301526044820152606401600060405180830381600087803b1580156128be57600080fd5b505af11580156128d2573d6000803e3d6000fd5b5050505061291d85848484808060200260200160405190810160405280939291908181526020018383602002808284376000920191909152506129189250612924915050565b6132fa565b5050505050565b606560009081526020527f4a7203f705e51df4a56139a9b86b4a0970bed7ab7a3446eaffe2289989c1645c546001600160a01b031690565b604080516001600160a01b038581168252602082018490528416917f3397b60e3ca1e9c0c75a033d62ab8731e9b2937c0690ae5d7f1bd37886b19d7d91015b60405180910390a2505050565b6001600160a01b03811660009081526001602090815260408083206007845290915290205460ff165b919050565b606080600283511015612a2b5760405162461bcd60e51b815260206004820152601460248201527f746f6b656e207061746820746f6f2073686f727400000000000000000000000060448201526064016106fe565b825167ffffffffffffffff811115612a5357634e487b7160e01b600052604160045260246000fd5b604051908082528060200260200182016040528015612a7c578160200160208202803683370190505b509150848260018451612a8f9190613d07565b81518110612aad57634e487b7160e01b600052603260045260246000fd5b60200260200101818152505060018351612ac79190613d07565b67ffffffffffffffff811115612aed57634e487b7160e01b600052604160045260246000fd5b604051908082528060200260200182016040528015612b16578160200160208202803683370190505b509050600060018451612b299190613d07565b90505b801561222e57600084612b40600184613d07565b81518110612b5e57634e487b7160e01b600052603260045260246000fd5b602002602001015190506000858381518110612b8a57634e487b7160e01b600052603260045260246000fd5b60200260200101519050600087600185612ba49190613d07565b60208110612bc257634e487b7160e01b600052603260045260246000fd5b1a60f81b7fff000000000000000000000000000000000000000000000000000000000000001615612c655787612bf9600186613d07565b60208110612c1757634e487b7160e01b600052603260045260246000fd5b1a60f81b7effffffffffffffffffffffffffffffffffffffffffffffffffffffffffffff1916600160f81b14612c5657612c518383612e3e565b612c60565b612c608383612f34565b612c6f565b612c6f8383613009565b90508085612c7e600187613d07565b81518110612c9c57634e487b7160e01b600052603260045260246000fd5b60200260200101906001600160a01b031690816001600160a01b031681525050600080612cca8386866130de565b91509150612d00888781518110612cf157634e487b7160e01b600052603260045260246000fd5b60200260200101518383613528565b88612d0c600189613d07565b81518110612d2a57634e487b7160e01b600052603260045260246000fd5b60200260200101818152505050505050508080612d4690613d1e565b915050612b2c565b8385600081518110612d7057634e487b7160e01b600052603260045260246000fd5b602002602001015111156127895760405162461bcd60e51b8152602060048201526024808201527f4d617267696e526f757465723a204558434553534956455f494e5055545f414d60448201527f4f554e540000000000000000000000000000000000000000000000000000000060648201526084016106fe565b604080516001600160a01b038581168252602082018490528416917f8ec70c9430377a4bba035133e27a5b0f3b9951bc080833f6832bcbbb70a96dba910161299b565b6000612710611ed183600a613ce8565b6000806000612e4d858561366d565b6040516bffffffffffffffffffffffff19606084811b8216602084015283901b16603482015291935091507f00000000000000000000000000000000000000000000000000000000000000009060480160405160208183030381529060405280519060200120600454604051602001612f13939291907fff00000000000000000000000000000000000000000000000000000000000000815260609390931b6bffffffffffffffffffffffff191660018401526015830191909152603582015260550190565b60408051601f19818403018152919052805160209091012095945050505050565b6000806000612f43858561366d565b6040516bffffffffffffffffffffffff19606084811b8216602084015283901b16603482015291935091507f00000000000000000000000000000000000000000000000000000000000000009060480160405160208183030381529060405280519060200120600354604051602001612f13939291907fff00000000000000000000000000000000000000000000000000000000000000815260609390931b6bffffffffffffffffffffffff191660018401526015830191909152603582015260550190565b6000806000613018858561366d565b6040516bffffffffffffffffffffffff19606084811b8216602084015283901b16603482015291935091507f00000000000000000000000000000000000000000000000000000000000000009060480160405160208183030381529060405280519060200120600254604051602001612f13939291907fff00000000000000000000000000000000000000000000000000000000000000815260609390931b6bffffffffffffffffffffffff191660018401526015830191909152603582015260550190565b60008060006130ed858561366d565b509050600080876001600160a01b0316630902f1ac6040518163ffffffff1660e01b815260040160606040518083038186803b15801561312c57600080fd5b505afa158015613140573d6000803e3d6000fd5b505050506040513d601f19601f8201168201806040525081019061316491906139be565b506dffffffffffffffffffffffffffff1691506dffffffffffffffffffffffffffff169150826001600160a01b0316876001600160a01b0316146131a95780826131ac565b81815b90999098509650505050505050565b600080841161320c5760405162461bcd60e51b815260206004820152601960248201527f494e53554646494349454e545f494e5055545f414d4f554e540000000000000060448201526064016106fe565b60008311801561321c5750600082115b61328e5760405162461bcd60e51b815260206004820152602860248201527f556e697377617056324c6962726172793a20494e53554646494349454e545f4c60448201527f495155494449545900000000000000000000000000000000000000000000000060648201526084016106fe565b60006132ba7f000000000000000000000000000000000000000000000000000000000000000086613ce8565b905060006132c88483613ce8565b90506000826132d9876103e8613ce8565b6132e39190613cb0565b90506132ef8183613cc8565b979650505050505050565b60005b835181101561291d5760008084838151811061332957634e487b7160e01b600052603260045260246000fd5b60200260200101518584600161333f9190613cb0565b8151811061335d57634e487b7160e01b600052603260045260246000fd5b6020026020010151915091506000613375838361366d565b509050600088613386866001613cb0565b815181106133a457634e487b7160e01b600052603260045260246000fd5b60200260200101519050600080836001600160a01b0316866001600160a01b0316146133d2578260006133d6565b6000835b91509150600060018b516133ea9190613d07565b88106133f65788613429565b8a613402896001613cb0565b8151811061342057634e487b7160e01b600052603260045260246000fd5b60200260200101515b905060008b898151811061344d57634e487b7160e01b600052603260045260246000fd5b60200260200101519050806001600160a01b031663022c0d9f858585600067ffffffffffffffff81111561349157634e487b7160e01b600052604160045260246000fd5b6040519080825280601f01601f1916602001820160405280156134bb576020820181803683370190505b506040518563ffffffff1660e01b81526004016134db9493929190613be9565b600060405180830381600087803b1580156134f557600080fd5b505af1158015613509573d6000803e3d6000fd5b505050505050505050505050808061352090613d35565b9150506132fd565b60008084116135795760405162461bcd60e51b815260206004820152601a60248201527f494e53554646494349454e545f4f55545055545f414d4f554e5400000000000060448201526064016106fe565b6000831180156135895750600082115b6135fb5760405162461bcd60e51b815260206004820152602860248201527f556e697377617056324c6962726172793a20494e53554646494349454e545f4c60448201527f495155494449545900000000000000000000000000000000000000000000000060648201526084016106fe565b60006136078585613ce8565b613613906103e8613ce8565b905060007f00000000000000000000000000000000000000000000000000000000000000006136428786613d07565b61364c9190613ce8565b90506136588183613cc8565b613663906001613cb0565b9695505050505050565b600080826001600160a01b0316846001600160a01b031614156136d25760405162461bcd60e51b815260206004820152601260248201527f4964656e746963616c206164647265737321000000000000000000000000000060448201526064016106fe565b826001600160a01b0316846001600160a01b0316106136f25782846136f5565b83835b90925090506001600160a01b0382166137505760405162461bcd60e51b815260206004820152600d60248201527f5a65726f2061646472657373210000000000000000000000000000000000000060448201526064016106fe565b9250929050565b60008083601f840112613768578182fd5b50813567ffffffffffffffff81111561377f578182fd5b6020830191508360208260051b850101111561375057600080fd5b600082601f8301126137aa578081fd5b815160206137bf6137ba83613c8c565b613c5b565b80838252828201915082860187848660051b89010111156137de578586fd5b855b858110156137fc578151845292840192908401906001016137e0565b5090979650505050505050565b80516dffffffffffffffffffffffffffff811681146129d157600080fd5b600060208284031215613838578081fd5b813561384381613d7c565b9392505050565b60006020828403121561385b578081fd5b815161384381613d7c565b60008060408385031215613878578081fd5b823561388381613d7c565b946020939093013593505050565b600080600080608085870312156138a6578182fd5b84356138b181613d7c565b93506020850135925060408501356138c881613d7c565b9396929550929360600135925050565b600080604083850312156138ea578182fd5b825167ffffffffffffffff80821115613901578384fd5b818501915085601f830112613914578384fd5b815160206139246137ba83613c8c565b8083825282820191508286018a848660051b8901011115613943578889fd5b8896505b8487101561396e57805161395a81613d7c565b835260019690960195918301918301613947565b5091880151919650909350505080821115613987578283fd5b506139948582860161379a565b9150509250929050565b6000602082840312156139af578081fd5b81518015158114613843578182fd5b6000806000606084860312156139d2578283fd5b6139db84613809565b92506139e960208501613809565b9150604084015163ffffffff81168114613a01578182fd5b809150509250925092565b600060208284031215613a1d578081fd5b5035919050565b600060208284031215613a35578081fd5b5051919050565b60008060408385031215613a4e578182fd5b823591506020830135613a6081613d7c565b809150509250929050565b60008060008060608587031215613a80578384fd5b8435935060208501359250604085013567ffffffffffffffff811115613aa4578283fd5b613ab087828801613757565b95989497509550505050565b60008060408385031215613ace578182fd5b505080516020909101519092909150565b600080600080600060808688031215613af6578283fd5b853594506020860135935060408601359250606086013567ffffffffffffffff811115613b21578182fd5b613b2d88828901613757565b969995985093965092949392505050565b60008060008060008060a08789031215613b56578384fd5b863595506020870135945060408701359350606087013567ffffffffffffffff811115613b81578182fd5b613b8d89828a01613757565b979a9699509497949695608090950135949350505050565b6020808252825182820181905260009190848201906040850190845b81811015613bdd57835183529284019291840191600101613bc1565b50909695505050505050565b6000858252602085818401526001600160a01b0385166040840152608060608401528351806080850152825b81811015613c315785810183015185820160a001528201613c15565b81811115613c42578360a083870101525b50601f01601f19169290920160a0019695505050505050565b604051601f8201601f1916810167ffffffffffffffff81118282101715613c8457613c84613d66565b604052919050565b600067ffffffffffffffff821115613ca657613ca6613d66565b5060051b60200190565b60008219821115613cc357613cc3613d50565b500190565b600082613ce357634e487b7160e01b81526012600452602481fd5b500490565b6000816000190483118215151615613d0257613d02613d50565b500290565b600082821015613d1957613d19613d50565b500390565b600081613d2d57613d2d613d50565b506000190190565b6000600019821415613d4957613d49613d50565b5060010190565b634e487b7160e01b600052601160045260246000fd5b634e487b7160e01b600052604160045260246000fd5b6001600160a01b0381168114613d9157600080fd5b5056fea264697066735822122017d97be03810297bed04e4efd74eb0ec68c8c59084cd1c0b3ea39a5ddf52521864736f6c63430008030033",
  "linkReferences": {},
  "deployedLinkReferences": {}
}