{
  "_format": "hh-sol-artifact-1",
  "contractName": "MarginRouter",
  "sourceName": "contracts/MarginRouter.sol",
  "abi": [
    {
      "inputs": [
        {
          "internalType": "address",
          "name": "_WETH",
          "type": "address"
        },
        {
          "internalType": "address",
          "name": "_amm1Factory",
          "type": "address"
        },
        {
          "internalType": "address",
          "name": "_amm2Factory",
          "type": "address"
        },
        {
          "internalType": "address",
          "name": "_amm3Factory",
          "type": "address"
        },
        {
          "internalType": "bytes32",
          "name": "_amm1InitHash",
          "type": "bytes32"
        },
        {
          "internalType": "bytes32",
          "name": "_amm2InitHash",
          "type": "bytes32"
        },
        {
          "internalType": "bytes32",
          "name": "_amm3InitHash",
          "type": "bytes32"
        },
        {
          "internalType": "uint256",
          "name": "_feeBase",
          "type": "uint256"
        },
        {
          "internalType": "address",
          "name": "_roles",
          "type": "address"
        }
      ],
      "stateMutability": "nonpayable",
      "type": "constructor"
    },
    {
      "anonymous": false,
      "inputs": [
        {
          "indexed": true,
          "internalType": "address",
          "name": "trader",
          "type": "address"
        }
      ],
      "name": "AccountUpdated",
      "type": "event"
    },
    {
      "anonymous": false,
      "inputs": [
        {
          "indexed": true,
          "internalType": "address",
          "name": "trader",
          "type": "address"
        },
        {
          "indexed": false,
          "internalType": "address",
          "name": "fromToken",
          "type": "address"
        },
        {
          "indexed": false,
          "internalType": "address",
          "name": "toToken",
          "type": "address"
        },
        {
          "indexed": false,
          "internalType": "uint256",
          "name": "fromAmount",
          "type": "uint256"
        },
        {
          "indexed": false,
          "internalType": "uint256",
          "name": "toAmount",
          "type": "uint256"
        }
      ],
      "name": "MarginTrade",
      "type": "event"
    },
    {
      "anonymous": false,
      "inputs": [
        {
          "indexed": false,
          "internalType": "uint256",
          "name": "orderId",
          "type": "uint256"
        },
        {
          "indexed": false,
          "internalType": "address",
          "name": "fromToken",
          "type": "address"
        },
        {
          "indexed": false,
          "internalType": "address",
          "name": "toToken",
          "type": "address"
        },
        {
          "indexed": false,
          "internalType": "uint256",
          "name": "inAmount",
          "type": "uint256"
        },
        {
          "indexed": false,
          "internalType": "uint256",
          "name": "outAmout",
          "type": "uint256"
        },
        {
          "indexed": false,
          "internalType": "address",
          "name": "maker",
          "type": "address"
        },
        {
          "indexed": false,
          "internalType": "uint256",
          "name": "expiration",
          "type": "uint256"
        }
      ],
      "name": "OrderMade",
      "type": "event"
    },
    {
      "anonymous": false,
      "inputs": [
        {
          "indexed": false,
          "internalType": "uint256",
          "name": "orderId",
          "type": "uint256"
        },
        {
          "indexed": true,
          "internalType": "address",
          "name": "taker",
          "type": "address"
        },
        {
          "indexed": false,
          "internalType": "uint256",
          "name": "remainingInAmount",
          "type": "uint256"
        },
        {
          "indexed": false,
          "internalType": "uint256",
          "name": "amountTaken",
          "type": "uint256"
        }
      ],
      "name": "OrderTaken",
      "type": "event"
    },
    {
      "inputs": [],
      "name": "WETH",
      "outputs": [
        {
          "internalType": "address",
          "name": "",
          "type": "address"
        }
      ],
      "stateMutability": "view",
      "type": "function"
    },
    {
      "inputs": [],
      "name": "amm1Factory",
      "outputs": [
        {
          "internalType": "address",
          "name": "",
          "type": "address"
        }
      ],
      "stateMutability": "view",
      "type": "function"
    },
    {
      "inputs": [],
      "name": "amm1InitHash",
      "outputs": [
        {
          "internalType": "bytes32",
          "name": "",
          "type": "bytes32"
        }
      ],
      "stateMutability": "view",
      "type": "function"
    },
    {
      "inputs": [],
      "name": "amm2Factory",
      "outputs": [
        {
          "internalType": "address",
          "name": "",
          "type": "address"
        }
      ],
      "stateMutability": "view",
      "type": "function"
    },
    {
      "inputs": [],
      "name": "amm2InitHash",
      "outputs": [
        {
          "internalType": "bytes32",
          "name": "",
          "type": "bytes32"
        }
      ],
      "stateMutability": "view",
      "type": "function"
    },
    {
      "inputs": [],
      "name": "amm3Factory",
      "outputs": [
        {
          "internalType": "address",
          "name": "",
          "type": "address"
        }
      ],
      "stateMutability": "view",
      "type": "function"
    },
    {
      "inputs": [],
      "name": "amm3InitHash",
      "outputs": [
        {
          "internalType": "bytes32",
          "name": "",
          "type": "bytes32"
        }
      ],
      "stateMutability": "view",
      "type": "function"
    },
    {
      "inputs": [
        {
          "internalType": "uint256",
          "name": "amountIn",
          "type": "uint256"
        },
        {
          "internalType": "uint256",
          "name": "amountOutMin",
          "type": "uint256"
        },
        {
          "internalType": "bytes32",
          "name": "amms",
          "type": "bytes32"
        },
        {
          "internalType": "address[]",
          "name": "tokens",
          "type": "address[]"
        }
      ],
      "name": "authorizedSwapExactT4T",
      "outputs": [
        {
          "internalType": "uint256[]",
          "name": "amounts",
          "type": "uint256[]"
        }
      ],
      "stateMutability": "nonpayable",
      "type": "function"
    },
    {
      "inputs": [
        {
          "internalType": "uint256",
          "name": "amountOut",
          "type": "uint256"
        },
        {
          "internalType": "uint256",
          "name": "amountInMax",
          "type": "uint256"
        },
        {
          "internalType": "bytes32",
          "name": "amms",
          "type": "bytes32"
        },
        {
          "internalType": "address[]",
          "name": "tokens",
          "type": "address[]"
        }
      ],
      "name": "authorizedSwapT4ExactT",
      "outputs": [
        {
          "internalType": "uint256[]",
          "name": "amounts",
          "type": "uint256[]"
        }
      ],
      "stateMutability": "nonpayable",
      "type": "function"
    },
    {
      "inputs": [
        {
          "internalType": "address",
          "name": "borrowToken",
          "type": "address"
        },
        {
          "internalType": "uint256",
          "name": "borrowAmount",
          "type": "uint256"
        }
      ],
      "name": "crossBorrow",
      "outputs": [],
      "stateMutability": "nonpayable",
      "type": "function"
    },
    {
      "inputs": [],
      "name": "crossCloseAccount",
      "outputs": [],
      "stateMutability": "nonpayable",
      "type": "function"
    },
    {
      "inputs": [
        {
          "internalType": "address",
          "name": "depositToken",
          "type": "address"
        },
        {
          "internalType": "uint256",
          "name": "depositAmount",
          "type": "uint256"
        }
      ],
      "name": "crossDeposit",
      "outputs": [],
      "stateMutability": "nonpayable",
      "type": "function"
    },
    {
      "inputs": [],
      "name": "crossDepositETH",
      "outputs": [],
      "stateMutability": "payable",
      "type": "function"
    },
    {
      "inputs": [
        {
          "internalType": "address",
          "name": "depositToken",
          "type": "address"
        },
        {
          "internalType": "uint256",
          "name": "depositAmount",
          "type": "uint256"
        },
        {
          "internalType": "address",
          "name": "borrowToken",
          "type": "address"
        },
        {
          "internalType": "uint256",
          "name": "withdrawAmount",
          "type": "uint256"
        }
      ],
      "name": "crossOvercollateralizedBorrow",
      "outputs": [],
      "stateMutability": "nonpayable",
      "type": "function"
    },
    {
      "inputs": [
        {
          "internalType": "address",
          "name": "withdrawToken",
          "type": "address"
        },
        {
          "internalType": "uint256",
          "name": "withdrawAmount",
          "type": "uint256"
        }
      ],
      "name": "crossWithdraw",
      "outputs": [],
      "stateMutability": "nonpayable",
      "type": "function"
    },
    {
      "inputs": [
        {
          "internalType": "uint256",
          "name": "withdrawAmount",
          "type": "uint256"
        }
      ],
      "name": "crossWithdrawETH",
      "outputs": [],
      "stateMutability": "nonpayable",
      "type": "function"
    },
    {
      "inputs": [],
      "name": "feeBase",
      "outputs": [
        {
          "internalType": "uint256",
          "name": "",
          "type": "uint256"
        }
      ],
      "stateMutability": "view",
      "type": "function"
    },
    {
      "inputs": [
        {
          "internalType": "uint256",
          "name": "outAmount",
          "type": "uint256"
        },
        {
          "internalType": "bytes32",
          "name": "amms",
          "type": "bytes32"
        },
        {
          "internalType": "address[]",
          "name": "tokens",
          "type": "address[]"
        }
      ],
      "name": "getAmountsIn",
      "outputs": [
        {
          "internalType": "uint256[]",
          "name": "amounts",
          "type": "uint256[]"
        }
      ],
      "stateMutability": "view",
      "type": "function"
    },
    {
      "inputs": [
        {
          "internalType": "uint256",
          "name": "inAmount",
          "type": "uint256"
        },
        {
          "internalType": "bytes32",
          "name": "amms",
          "type": "bytes32"
        },
        {
          "internalType": "address[]",
          "name": "tokens",
          "type": "address[]"
        }
      ],
      "name": "getAmountsOut",
      "outputs": [
        {
          "internalType": "uint256[]",
          "name": "amounts",
          "type": "uint256[]"
        }
      ],
      "stateMutability": "view",
      "type": "function"
    },
    {
      "inputs": [
        {
          "internalType": "address",
          "name": "user",
          "type": "address"
        }
      ],
      "name": "getPendingOrderPerUser",
      "outputs": [
        {
          "internalType": "uint256[]",
          "name": "",
          "type": "uint256[]"
        }
      ],
      "stateMutability": "view",
      "type": "function"
    },
    {
      "inputs": [],
      "name": "getPendingOrders",
      "outputs": [
        {
          "internalType": "uint256[]",
          "name": "",
          "type": "uint256[]"
        }
      ],
      "stateMutability": "view",
      "type": "function"
    },
    {
      "inputs": [
        {
          "internalType": "uint256",
          "name": "orderId",
          "type": "uint256"
        }
      ],
      "name": "invalidateOrder",
      "outputs": [],
      "stateMutability": "nonpayable",
      "type": "function"
    },
    {
      "inputs": [
        {
          "internalType": "uint256",
          "name": "",
          "type": "uint256"
        }
      ],
      "name": "mainCharacterCache",
      "outputs": [
        {
          "internalType": "address",
          "name": "",
          "type": "address"
        }
      ],
      "stateMutability": "view",
      "type": "function"
    },
    {
      "inputs": [
        {
          "internalType": "address",
          "name": "_fromToken",
          "type": "address"
        },
        {
          "internalType": "address",
          "name": "_toToken",
          "type": "address"
        },
        {
          "internalType": "uint256",
          "name": "_inAmount",
          "type": "uint256"
        },
        {
          "internalType": "uint256",
          "name": "_outAmount",
          "type": "uint256"
        },
        {
          "internalType": "uint256",
          "name": "_expiration",
          "type": "uint256"
        }
      ],
      "name": "makeOrder",
      "outputs": [],
      "stateMutability": "nonpayable",
      "type": "function"
    },
    {
      "inputs": [],
      "name": "mswapFeesPer10k",
      "outputs": [
        {
          "internalType": "uint256",
          "name": "",
          "type": "uint256"
        }
      ],
      "stateMutability": "view",
      "type": "function"
    },
    {
      "inputs": [
        {
          "internalType": "uint256",
          "name": "",
          "type": "uint256"
        }
      ],
      "name": "orders",
      "outputs": [
        {
          "internalType": "address",
          "name": "fromToken",
          "type": "address"
        },
        {
          "internalType": "address",
          "name": "toToken",
          "type": "address"
        },
        {
          "internalType": "uint256",
          "name": "inAmount",
          "type": "uint256"
        },
        {
          "internalType": "uint256",
          "name": "outAmount",
          "type": "uint256"
        },
        {
          "internalType": "address",
          "name": "maker",
          "type": "address"
        },
        {
          "internalType": "uint256",
          "name": "expiration",
          "type": "uint256"
        }
      ],
      "stateMutability": "view",
      "type": "function"
    },
    {
      "inputs": [
        {
          "internalType": "address",
          "name": "",
          "type": "address"
        },
        {
          "internalType": "uint256",
          "name": "",
          "type": "uint256"
        }
      ],
      "name": "roleCache",
      "outputs": [
        {
          "internalType": "bool",
          "name": "",
          "type": "bool"
        }
      ],
      "stateMutability": "view",
      "type": "function"
    },
    {
      "inputs": [],
      "name": "roles",
      "outputs": [
        {
          "internalType": "contract Roles",
          "name": "",
          "type": "address"
        }
      ],
      "stateMutability": "view",
      "type": "function"
    },
    {
      "inputs": [
        {
          "internalType": "uint256",
          "name": "amountIn",
          "type": "uint256"
        },
        {
          "internalType": "uint256",
          "name": "amountOutMin",
          "type": "uint256"
        },
        {
          "internalType": "bytes32",
          "name": "amms",
          "type": "bytes32"
        },
        {
          "internalType": "address[]",
          "name": "tokens",
          "type": "address[]"
        },
        {
          "internalType": "uint256",
          "name": "deadline",
          "type": "uint256"
        }
      ],
      "name": "swapExactTokensForTokens",
      "outputs": [
        {
          "internalType": "uint256[]",
          "name": "amounts",
          "type": "uint256[]"
        }
      ],
      "stateMutability": "nonpayable",
      "type": "function"
    },
    {
      "inputs": [
        {
          "internalType": "uint256",
          "name": "amountOut",
          "type": "uint256"
        },
        {
          "internalType": "uint256",
          "name": "amountInMax",
          "type": "uint256"
        },
        {
          "internalType": "bytes32",
          "name": "amms",
          "type": "bytes32"
        },
        {
          "internalType": "address[]",
          "name": "tokens",
          "type": "address[]"
        },
        {
          "internalType": "uint256",
          "name": "deadline",
          "type": "uint256"
        }
      ],
      "name": "swapTokensForExactTokens",
      "outputs": [
        {
          "internalType": "uint256[]",
          "name": "amounts",
          "type": "uint256[]"
        }
      ],
      "stateMutability": "nonpayable",
      "type": "function"
    },
    {
      "inputs": [
        {
          "internalType": "uint256",
          "name": "orderId",
          "type": "uint256"
        },
        {
          "internalType": "uint256",
          "name": "maxInAmount",
          "type": "uint256"
        }
      ],
      "name": "takeOrder",
      "outputs": [],
      "stateMutability": "nonpayable",
      "type": "function"
    },
    {
      "inputs": [
        {
          "internalType": "uint256",
          "name": "orderId",
          "type": "uint256"
        },
        {
          "internalType": "bytes32",
          "name": "amms",
          "type": "bytes32"
        },
        {
          "internalType": "address[]",
          "name": "tokens",
          "type": "address[]"
        }
      ],
      "name": "takeOrderOnAMM",
      "outputs": [],
      "stateMutability": "nonpayable",
      "type": "function"
    },
    {
      "inputs": [
        {
          "internalType": "uint256",
          "name": "role",
          "type": "uint256"
        }
      ],
      "name": "updateMainCharacterCache",
      "outputs": [],
      "stateMutability": "nonpayable",
      "type": "function"
    },
    {
      "inputs": [
        {
          "internalType": "uint256",
          "name": "role",
          "type": "uint256"
        },
        {
          "internalType": "address",
          "name": "contr",
          "type": "address"
        }
      ],
      "name": "updateRoleCache",
      "outputs": [],
      "stateMutability": "nonpayable",
      "type": "function"
    }
  ],
  "bytecode": "0x61014060405260016009553480156200001757600080fd5b5060405162004858380380620048588339810160408190526200003a916200011a565b87878787878787876001600160a01b038116620000a85760405162461bcd60e51b815260206004820152602260248201527f506c656173652070726f766964652076616c696420726f6c6573206164647265604482015261737360f01b606482015260840160405180910390fd5b6001600160601b0319606091821b811660805297811b881660a05295861b871660c05293851b861660e052600292909255600355600455610100529990991b9098166101205250620001b09650505050505050565b80516001600160a01b03811681146200011557600080fd5b919050565b60008060008060008060008060006101208a8c03121562000139578485fd5b620001448a620000fd565b98506200015460208b01620000fd565b97506200016460408b01620000fd565b96506200017460608b01620000fd565b955060808a0151945060a08a0151935060c08a0151925060e08a01519150620001a16101008b01620000fd565b90509295985092959850929598565b60805160601c60a05160601c60c05160601c60e05160601c610100516101205160601c6145fc6200025c600039600081816105ad01528181610bdc01528181611dd401528181611e840152611ef80152600081816104a4015281816137ad0152613bf801526000818161067501526134f8015260008181610210015261358b01526000818161060101526135fd0152600081816103530152818161076f01526112f501526145fc6000f3fe6080604052600436106101f95760003560e01c806394427b201161010d578063ca91d511116100a0578063e2abb5c41161006f578063e2abb5c4146106ad578063e3e0626b146106c3578063e3ee4327146106e3578063e9c3f77d14610703578063eedb97c714610739576101f9565b8063ca91d51114610623578063cb6067dd14610643578063db42923514610663578063df7c20f914610697576101f9565b8063a85c38ef116100dc578063a85c38ef146104fc578063ad5c46481461059b578063b7453e27146105cf578063b852eb0d146105ef576101f9565b806394427b201461048a57806395e911a814610492578063a1c66570146104c6578063a75208a8146104e6576101f9565b8063392f5f64116101905780636d6262901161015f5780636d626290146103ca578063799d34e1146103ea5780637a1a04df1461040a5780637c350624146104555780638c98b7f61461046a576101f9565b8063392f5f6414610341578063447d52ba1461037557806353d7ff9f1461039557806369698670146103b5576101f9565b80631306d902116101cc5780631306d902146102c15780631dce3baa146102e15780632eab93cb14610301578063351ae61014610321576101f9565b8063059b157a146101fe578063071060a61461024f5780630abb674c146102715780631084bd6d1461029e575b600080fd5b34801561020a57600080fd5b506102327f000000000000000000000000000000000000000000000000000000000000000081565b6040516001600160a01b0390911681526020015b60405180910390f35b34801561025b57600080fd5b5061026f61026a3660046140bd565b610759565b005b34801561027d57600080fd5b5061029161028c366004614210565b61081f565b6040516102469190614313565b3480156102aa57600080fd5b506102b3600a81565b604051908152602001610246565b3480156102cd57600080fd5b5061026f6102dc366004613f17565b610a37565b3480156102ed57600080fd5b5061026f6102fc3660046140bd565b610bc3565b34801561030d57600080fd5b5061026f61031c36600461416d565b610ccf565b34801561032d57600080fd5b5061029161033c3660046141b1565b611235565b34801561034d57600080fd5b506102327f000000000000000000000000000000000000000000000000000000000000000081565b34801561038157600080fd5b5061026f6103903660046140ed565b6112cf565b3480156103a157600080fd5b506102916103b03660046141b1565b6113a7565b3480156103c157600080fd5b5061026f611437565b3480156103d657600080fd5b5061026f6103e5366004613ec7565b61161a565b3480156103f657600080fd5b5061029161040536600461411c565b611782565b34801561041657600080fd5b50610445610425366004613f17565b600160209081526000928352604080842090915290825290205460ff1681565b6040519015158152602001610246565b34801561046157600080fd5b506102916117c2565b34801561047657600080fd5b5061026f61048536600461411c565b6117d3565b61026f611d5e565b34801561049e57600080fd5b506102b37f000000000000000000000000000000000000000000000000000000000000000081565b3480156104d257600080fd5b5061026f6104e13660046140bd565b611f3a565b3480156104f257600080fd5b506102b360025481565b34801561050857600080fd5b5061055c6105173660046140bd565b6008602052600090815260409020805460018201546002830154600384015460048501546005909501546001600160a01b039485169593851694929391929091169086565b604080516001600160a01b03978816815295871660208701528501939093526060840191909152909216608082015260a081019190915260c001610246565b3480156105a757600080fd5b506102327f000000000000000000000000000000000000000000000000000000000000000081565b3480156105db57600080fd5b506102916105ea36600461411c565b612019565b3480156105fb57600080fd5b506102327f000000000000000000000000000000000000000000000000000000000000000081565b34801561062f57600080fd5b5061029161063e366004613e8f565b612059565b34801561064f57600080fd5b5061026f61065e366004613f42565b612085565b34801561066f57600080fd5b506102327f000000000000000000000000000000000000000000000000000000000000000081565b3480156106a357600080fd5b506102b360035481565b3480156106b957600080fd5b506102b360045481565b3480156106cf57600080fd5b5061026f6106de366004613f17565b6122ef565b3480156106ef57600080fd5b506102916106fe366004614210565b6123de565b34801561070f57600080fd5b5061023261071e3660046140bd565b6000602081905290815260409020546001600160a01b031681565b34801561074557600080fd5b5061026f610754366004613f17565b6125af565b60405163b4ed0b6d60e01b8152600481018290527f00000000000000000000000000000000000000000000000000000000000000006001600160a01b03169063b4ed0b6d9060240160206040518083038186803b1580156107b957600080fd5b505afa1580156107cd573d6000803e3d6000fd5b505050506040513d601f19601f820116820180604052508101906107f19190613eab565b60009182526020829052604090912080546001600160a01b0319166001600160a01b03909216919091179055565b6060814281101561086b5760405162461bcd60e51b8152602060048201526011602482015270151c985919481a185cc8195e1c1a5c9959607a1b60448201526064015b60405180910390fd5b60006108768961272d565b905060606108c1610887838c614519565b8989898080602002602001604051908101604052809392919081815260200183836020028082843760009201919091525061275192505050565b90945090506109783388886000816108e957634e487b7160e01b600052603260045260246000fd5b90506020020160208101906108fe9190613e8f565b898961090b600182614519565b81811061092857634e487b7160e01b600052603260045260246000fd5b905060200201602081019061093d9190613e8f565b8d8860018a5161094d9190614519565b8151811061096b57634e487b7160e01b600052603260045260246000fd5b6020026020010151612a6e565b610985848a838a8a612d96565b61098d612f67565b6001600160a01b031663d9caed12888860008181106109bc57634e487b7160e01b600052603260045260246000fd5b90506020020160208101906109d19190613e8f565b6109d9612f9f565b856040518463ffffffff1660e01b81526004016109f8939291906142d6565b600060405180830381600087803b158015610a1257600080fd5b505af1158015610a26573d6000803e3d6000fd5b505050505050509695505050505050565b610a3f612f67565b6001600160a01b031663b3db428b3384846040518463ffffffff1660e01b8152600401610a6e939291906142d6565b600060405180830381600087803b158015610a8857600080fd5b505af1158015610a9c573d6000803e3d6000fd5b505050506000610aaa612fd7565b6001600160a01b03166352a664d93385856040518463ffffffff1660e01b8152600401610ad9939291906142d6565b602060405180830381600087803b158015610af357600080fd5b505af1158015610b07573d6000803e3d6000fd5b505050506040513d601f19601f82011682018060405250810190610b2b91906140d5565b90508015610ba557610b3b61300f565b6001600160a01b0316632a6a897b84836040518363ffffffff1660e01b8152600401610b689291906142fa565b600060405180830381600087803b158015610b8257600080fd5b505af1158015610b96573d6000803e3d6000fd5b50505050610ba5833383613047565b60405133906000805160206145a783398151915290600090a2505050565b610bcb612fd7565b6001600160a01b031663d0eb6653337f0000000000000000000000000000000000000000000000000000000000000000846040518463ffffffff1660e01b8152600401610c1a939291906142d6565b600060405180830381600087803b158015610c3457600080fd5b505af1158015610c48573d6000803e3d6000fd5b50505050610c54612f67565b6001600160a01b0316634782f77933836040518363ffffffff1660e01b8152600401610c819291906142fa565b600060405180830381600087803b158015610c9b57600080fd5b505af1158015610caf573d6000803e3d6000fd5b50506040513392506000805160206145a78339815191529150600090a250565b60008281526008602052604090206002810154610d1e5760405162461bcd60e51b815260206004820152600d60248201526c34b73b30b634b21037b93232b960991b6044820152606401610862565b60058101541580610d33575042816005015410155b610d6f5760405162461bcd60e51b815260206004820152600d60248201526c1bdc99195c88195e1c1a5c9959609a1b6044820152606401610862565b6000610d7f83836002015461308f565b90508160020154811415610dc157610d986005856130a9565b5060048201546001600160a01b03166000908152600760205260409020610dbf90856130a9565b505b60008260020154836003015483610dd891906144fa565b610de291906144da565b90506000610def836130bc565b600485015485546001870154929350610e23926001600160a01b03928316929182169116610e1d85886144c2565b86612a6e565b60018401548454610e4d9133916001600160a01b03918216911685610e488689614519565b612a6e565b6000610e57612fd7565b6004868101546040516307da4a9960e21b81526001600160a01b0391821692810192909252919250600091831690631f692a649060240160206040518083038186803b158015610ea657600080fd5b505afa158015610eba573d6000803e3d6000fd5b505050506040513d601f19601f82011682018060405250810190610ede91906140d5565b6040516307da4a9960e21b81523360048201529091506000906001600160a01b03841690631f692a649060240160206040518083038186803b158015610f2357600080fd5b505afa158015610f37573d6000803e3d6000fd5b505050506040513d601f19601f82011682018060405250810190610f5b91906140d5565b60048881015460405163a17ab52760e01b81526001600160a01b039182169281019290925291925060009185169063a17ab5279060240160206040518083038186803b158015610faa57600080fd5b505afa158015610fbe573d6000803e3d6000fd5b505050506040513d601f19601f82011682018060405250810190610fe291906140d5565b60405163a17ab52760e01b81523360048201529091506000906001600160a01b0386169063a17ab5279060240160206040518083038186803b15801561102757600080fd5b505afa15801561103b573d6000803e3d6000fd5b505050506040513d601f19601f8201168201806040525081019061105f91906140d5565b9050606e8461106f8460646144fa565b61107991906144da565b116110c65760405162461bcd60e51b815260206004820152601e60248201527f4d616b65722062616c616e636520746f6f206c6f7720746f20747261646500006044820152606401610862565b606e836110d48360646144fa565b6110de91906144da565b1161112b5760405162461bcd60e51b815260206004820152601e60248201527f54616b65722062616c616e636520746f6f206c6f7720746f20747261646500006044820152606401610862565b8789600201600082825461113f9190614519565b925050819055508689600301600082825461115a9190614519565b909155506111689050612f67565b89546001600160a01b039182169163d9caed129116611185612f9f565b6111908a60026144fa565b6040518463ffffffff1660e01b81526004016111ae939291906142d6565b600060405180830381600087803b1580156111c857600080fd5b505af11580156111dc573d6000803e3d6000fd5b50505060028a0154604080518e8152602081019290925281018a90523391507ff1f421281ef88a22fb183db507ab0909e31346a50a36ff791b7e8bd046ff54d09060600160405180910390a25050505050505050505050565b3360009081526001602090815260408083206007845290915290205460609060ff166112735760405162461bcd60e51b815260040161086290614357565b60606112b3878686868080602002602001604051908101604052809392919081815260200183836020028082843760009201919091525061275192505050565b90925090506112c58287838787612d96565b5095945050505050565b6040516393552a3d60e01b8152600481018390526001600160a01b0382811660248301527f000000000000000000000000000000000000000000000000000000000000000016906393552a3d9060440160206040518083038186803b15801561133757600080fd5b505afa15801561134b573d6000803e3d6000fd5b505050506040513d601f19601f8201168201806040525081019061136f919061404f565b6001600160a01b0391909116600090815260016020908152604080832094835293905291909120805460ff1916911515919091179055565b3360009081526001602090815260408083206007845290915290205460609060ff166113e55760405162461bcd60e51b815260040161086290614357565b606061142587868686808060200260200160405190810160405280939291908181526020018383602002808284376000920191909152506130cc92505050565b90925090506112c5828783878761340b565b600080611442612fd7565b60405163204fedb960e11b81523360048201526001600160a01b03919091169063409fdb729060240160006040518083038186803b15801561148357600080fd5b505afa158015611497573d6000803e3d6000fd5b505050506040513d6000823e601f3d908101601f191682016040526114bf9190810190613f89565b915091506114cb612fd7565b60405163db2d904d60e01b81523360048201526001600160a01b03919091169063db2d904d90602401600060405180830381600087803b15801561150e57600080fd5b505af1158015611522573d6000803e3d6000fd5b5050505060005b80835111156115fc5761153a612f67565b6001600160a01b031663d9caed1284838151811061156857634e487b7160e01b600052603260045260246000fd5b60200260200101513385858151811061159157634e487b7160e01b600052603260045260246000fd5b60200260200101516040518463ffffffff1660e01b81526004016115b7939291906142d6565b600060405180830381600087803b1580156115d157600080fd5b505af11580156115e5573d6000803e3d6000fd5b5050505080806115f490614547565b915050611529565b5060405133906000805160206145a783398151915290600090a25050565b6040805160c0810182526001600160a01b038088168252868116602080840191825283850188815260608501888152336080870181815260a088018a81526009805460009081526008909752958a9020985189549089166001600160a01b0319918216178a55965160018a018054918a16918916919091179055935160028901559151600388015590516004870180549190961694169390931790935591516005909301929092555491517f3581f86351475b96adc884b14bf733128b4cf4d8a9fd303db8b5bbc4a9be6d5092611732929091899189918991899189909687526001600160a01b03958616602088015293851660408701526060860192909252608085015290911660a083015260c082015260e00190565b60405180910390a16009546117499060059061348f565b506009543360009081526007602052604090206117659161348f565b506009805490600061177683614547565b91905055505050505050565b60606112c585858585808060200260200160405190810160405280939291908181526020018383602002808284376000920191909152506130cc92505050565b60606117ce600561349b565b905090565b600084815260086020526040902060028101546118225760405162461bcd60e51b815260206004820152600d60248201526c34b73b30b634b21037b93232b960991b6044820152606401610862565b60058101541580611837575042816005015410155b6118735760405162461bcd60e51b815260206004820152600d60248201526c1bdc99195c88195e1c1a5c9959609a1b6044820152606401610862565b61187e6005866130a9565b5060048101546001600160a01b031660009081526007602052604090206118a590866130a9565b50828260008181106118c757634e487b7160e01b600052603260045260246000fd5b90506020020160208101906118dc9190613e8f565b81546001600160a01b03908116911614801561194657508282611900600182614519565b81811061191d57634e487b7160e01b600052603260045260246000fd5b90506020020160208101906119329190613e8f565b60018201546001600160a01b039081169116145b61198a5760405162461bcd60e51b81526020600482015260156024820152740a8e4c2c8d2dcce40e0c2e8d040dad2e6dac2e8c6d605b1b6044820152606401610862565b6000611999826002015461272d565b90506000806119eb8385600201546119b19190614519565b8888888080602002602001604051908101604052809392919081815260200183836020028082843760009201919091525061275192505050565b60048601549193509150611a84906001600160a01b03168787600081611a2157634e487b7160e01b600052603260045260246000fd5b9050602002016020810190611a369190613e8f565b8888611a43600182614519565b818110611a6057634e487b7160e01b600052603260045260246000fd5b9050602002016020810190611a759190613e8f565b87600201548860030154612a6e565b611a95828560030154838989612d96565b600084600301548360018551611aab9190614519565b81518110611ac957634e487b7160e01b600052603260045260246000fd5b6020026020010151611adb9190614519565b90506000611ae7612fd7565b60018701546040516352a664d960e01b81526001600160a01b03928316926352a664d992611b1f9233929091169087906004016142d6565b602060405180830381600087803b158015611b3957600080fd5b505af1158015611b4d573d6000803e3d6000fd5b505050506040513d601f19601f82011682018060405250810190611b7191906140d5565b90508015611c0157611b8161300f565b6001870154604051632a6a897b60e01b81526001600160a01b0392831692632a6a897b92611bb69291169085906004016142fa565b600060405180830381600087803b158015611bd057600080fd5b505af1158015611be4573d6000803e3d6000fd5b5050506001870154611c0191506001600160a01b03163384613047565b611c09612f67565b6001600160a01b031663d9caed1289896000818110611c3857634e487b7160e01b600052603260045260246000fd5b9050602002016020810190611c4d9190613e8f565b611c55612f9f565b886040518463ffffffff1660e01b8152600401611c74939291906142d6565b600060405180830381600087803b158015611c8e57600080fd5b505af1158015611ca2573d6000803e3d6000fd5b50506040513392506000805160206145a78339815191529150600090a26000866002018190555060008660030181905550336001600160a01b03167ff1f421281ef88a22fb183db507ab0909e31346a50a36ff791b7e8bd046ff54d08b600087600081518110611d2257634e487b7160e01b600052603260045260246000fd5b6020026020010151604051611d4a939291909283526020830191909152604082015260600190565b60405180910390a250505050505050505050565b611d66612f67565b6001600160a01b031663a6a5f9fe346040518263ffffffff1660e01b81526004016000604051808303818588803b158015611da057600080fd5b505af1158015611db4573d6000803e3d6000fd5b50505050506000611dc3612fd7565b6001600160a01b03166352a664d9337f0000000000000000000000000000000000000000000000000000000000000000346040518463ffffffff1660e01b8152600401611e12939291906142d6565b602060405180830381600087803b158015611e2c57600080fd5b505af1158015611e40573d6000803e3d6000fd5b505050506040513d601f19601f82011682018060405250810190611e6491906140d5565b90508015611f1e57611e7461300f565b6001600160a01b0316632a6a897b7f0000000000000000000000000000000000000000000000000000000000000000836040518363ffffffff1660e01b8152600401611ec19291906142fa565b600060405180830381600087803b158015611edb57600080fd5b505af1158015611eef573d6000803e3d6000fd5b50505050611f1e7f00000000000000000000000000000000000000000000000000000000000000003383613047565b60405133906000805160206145a783398151915290600090a250565b600081815260086020526040902060048101546001600160a01b03163314611f9b5760405162461bcd60e51b81526020600482015260146024820152733737ba1030baba3437b934bd32b21036b0b5b2b960611b6044820152606401610862565b6000600282018190556003820181905560408051848152602081018390529081019190915233907ff1f421281ef88a22fb183db507ab0909e31346a50a36ff791b7e8bd046ff54d09060600160405180910390a2611ffa6005836130a9565b5033600090815260076020526040902061201490836130a9565b505050565b60606112c5858585858080602002602001604051908101604052809392919081815260200183836020028082843760009201919091525061275192505050565b6001600160a01b038116600090815260076020526040902060609061207d9061349b565b90505b919050565b61208d612f67565b6001600160a01b031663b3db428b3386866040518463ffffffff1660e01b81526004016120bc939291906142d6565b600060405180830381600087803b1580156120d657600080fd5b505af11580156120ea573d6000803e3d6000fd5b505050506120f661300f565b6001600160a01b031663ee0862bf83836040518363ffffffff1660e01b81526004016121239291906142fa565b600060405180830381600087803b15801561213d57600080fd5b505af1158015612151573d6000803e3d6000fd5b5050505061215d612fd7565b6040516303b0998360e31b81523360048201526001600160a01b038681166024830152604482018690528481166064830152608482018490529190911690631d84cc189060a401600060405180830381600087803b1580156121be57600080fd5b505af11580156121d2573d6000803e3d6000fd5b505050506121de61300f565b60405163dc683bcf60e01b81526001600160a01b038481166004830152919091169063dc683bcf90602401602060405180830381600087803b15801561222357600080fd5b505af1158015612237573d6000803e3d6000fd5b505050506040513d601f19601f8201168201806040525081019061225b91906140d5565b50612264612f67565b6001600160a01b031663d9caed128333846040518463ffffffff1660e01b8152600401612293939291906142d6565b600060405180830381600087803b1580156122ad57600080fd5b505af11580156122c1573d6000803e3d6000fd5b505050506122d08233836134a8565b60405133906000805160206145a783398151915290600090a250505050565b6122f7612fd7565b6001600160a01b031663d0eb66533384846040518463ffffffff1660e01b8152600401612326939291906142d6565b600060405180830381600087803b15801561234057600080fd5b505af1158015612354573d6000803e3d6000fd5b50505050612360612f67565b6001600160a01b031663d9caed128333846040518463ffffffff1660e01b815260040161238f939291906142d6565b600060405180830381600087803b1580156123a957600080fd5b505af11580156123bd573d6000803e3d6000fd5b50506040513392506000805160206145a78339815191529150600090a25050565b606081428110156124255760405162461bcd60e51b8152602060048201526011602482015270151c985919481a185cc8195e1c1a5c9959607a1b6044820152606401610862565b606060006124328a6130bc565b905061247b612441828c6144c2565b898989808060200260200160405190810160405280939291908181526020018383602002808284376000920191909152506130cc92505050565b90945091506125263388886000816124a357634e487b7160e01b600052603260045260246000fd5b90506020020160208101906124b89190613e8f565b89896124c5600182614519565b8181106124e257634e487b7160e01b600052603260045260246000fd5b90506020020160208101906124f79190613e8f565b8760008151811061251857634e487b7160e01b600052603260045260246000fd5b60200260200101518e612a6e565b612533848a848a8a61340b565b61253b612f67565b6001600160a01b031663d9caed128888612556600182614519565b81811061257357634e487b7160e01b600052603260045260246000fd5b90506020020160208101906125889190613e8f565b612590612f9f565b846040518463ffffffff1660e01b81526004016109f8939291906142d6565b6125b761300f565b6001600160a01b031663ee0862bf83836040518363ffffffff1660e01b81526004016125e49291906142fa565b600060405180830381600087803b1580156125fe57600080fd5b505af1158015612612573d6000803e3d6000fd5b5050505061261e612fd7565b6001600160a01b031663498d55eb3384846040518463ffffffff1660e01b815260040161264d939291906142d6565b600060405180830381600087803b15801561266757600080fd5b505af115801561267b573d6000803e3d6000fd5b5050505061268761300f565b60405163dc683bcf60e01b81526001600160a01b038481166004830152919091169063dc683bcf90602401602060405180830381600087803b1580156126cc57600080fd5b505af11580156126e0573d6000803e3d6000fd5b505050506040513d601f19601f8201168201806040525081019061270491906140d5565b506127108233836134a8565b60405133906000805160206145a783398151915290600090a25050565b600061273c600a6127106144c2565b61274783600a6144fa565b61207d91906144da565b60608060028351101561279d5760405162461bcd60e51b81526020600482015260146024820152731d1bdad95b881c185d1a081d1bdbc81cda1bdc9d60621b6044820152606401610862565b825167ffffffffffffffff8111156127c557634e487b7160e01b600052604160045260246000fd5b6040519080825280602002602001820160405280156127ee578160200160208202803683370190505b509150848260008151811061281357634e487b7160e01b600052603260045260246000fd5b6020026020010181815250506001835161282d9190614519565b67ffffffffffffffff81111561285357634e487b7160e01b600052604160045260246000fd5b60405190808252806020026020018201604052801561287c578160200160208202803683370190505b50905060005b600184516128909190614519565b811015612a655760008482815181106128b957634e487b7160e01b600052603260045260246000fd5b602002602001015190506000858360016128d391906144c2565b815181106128f157634e487b7160e01b600052603260045260246000fd5b60200260200101519050600087846020811061291d57634e487b7160e01b600052603260045260246000fd5b1a60f81b6001600160f81b031916156129865787846020811061295057634e487b7160e01b600052603260045260246000fd5b1a60f81b6001600160f81b031916600160f81b146129775761297283836134e3565b612981565b6129818383613576565b612990565b61299083836135e8565b9050808585815181106129b357634e487b7160e01b600052603260045260246000fd5b60200260200101906001600160a01b031690816001600160a01b0316815250506000806129e183868661365a565b91509150612a17888781518110612a0857634e487b7160e01b600052603260045260246000fd5b60200260200101518383613729565b88612a238860016144c2565b81518110612a4157634e487b7160e01b600052603260045260246000fd5b60200260200101818152505050505050508080612a5d90614547565b915050612882565b50935093915050565b600080612a79612fd7565b604051633500aa0b60e01b81526001600160a01b0389811660048301528881166024830152878116604483015260648201879052608482018690529190911690633500aa0b9060a4016040805180830381600087803b158015612adb57600080fd5b505af1158015612aef573d6000803e3d6000fd5b505050506040513d601f19601f82011682018060405250810190612b13919061418e565b90925090508115612c1657612b2661300f565b6001600160a01b0316632a6a897b86846040518363ffffffff1660e01b8152600401612b539291906142fa565b600060405180830381600087803b158015612b6d57600080fd5b505af1158015612b81573d6000803e3d6000fd5b50505050612b8d61300f565b60405163dc683bcf60e01b81526001600160a01b038781166004830152919091169063dc683bcf90602401602060405180830381600087803b158015612bd257600080fd5b505af1158015612be6573d6000803e3d6000fd5b505050506040513d601f19601f82011682018060405250810190612c0a91906140d5565b50612c16858884613047565b8015612d1457612c2461300f565b6001600160a01b031663ee0862bf87836040518363ffffffff1660e01b8152600401612c519291906142fa565b600060405180830381600087803b158015612c6b57600080fd5b505af1158015612c7f573d6000803e3d6000fd5b50505050612c8b61300f565b60405163dc683bcf60e01b81526001600160a01b038881166004830152919091169063dc683bcf90602401602060405180830381600087803b158015612cd057600080fd5b505af1158015612ce4573d6000803e3d6000fd5b505050506040513d601f19601f82011682018060405250810190612d0891906140d5565b50612d148688836134a8565b6040516001600160a01b038816906000805160206145a783398151915290600090a2604080516001600160a01b038881168252878116602083015291810186905260608101859052908816907f610a6fcfd0e5da3e1f98054761ba753182ff6f350467da719cae9d94e5f541369060800160405180910390a250505050505050565b838560018751612da69190614519565b81518110612dc457634e487b7160e01b600052603260045260246000fd5b60200260200101511015612e2b5760405162461bcd60e51b815260206004820152602860248201527f4d617267696e526f757465723a20494e53554646494349454e545f4f555450556044820152671517d05353d5539560c21b6064820152608401610862565b612e33612f67565b6001600160a01b031663d9caed1283836000818110612e6257634e487b7160e01b600052603260045260246000fd5b9050602002016020810190612e779190613e8f565b85600081518110612e9857634e487b7160e01b600052603260045260246000fd5b602002602001015188600081518110612ec157634e487b7160e01b600052603260045260246000fd5b60200260200101516040518463ffffffff1660e01b8152600401612ee7939291906142d6565b600060405180830381600087803b158015612f0157600080fd5b505af1158015612f15573d6000803e3d6000fd5b50505050612f608584848480806020026020016040519081016040528093929190818152602001838360200280828437600092019190915250612f5b9250612f67915050565b613812565b5050505050565b606560009081526020527f4a7203f705e51df4a56139a9b86b4a0970bed7ab7a3446eaffe2289989c1645c546001600160a01b031690565b606e60009081526020527f6ce4024642c4779dc119f2ece9b9cc34663ef4cfd6a7942d809a7de1813aca7d546001600160a01b031690565b606860009081526020527faa071f48f62aaaa1f6320aaa7bd2ad2d552d05160892c14d699d38c9920d5f99546001600160a01b031690565b606660009081526020527f422cccb7cea5c0e46f340bb7b21b81debac329f72e31669c20ff0f3a05cc2b5b546001600160a01b031690565b816001600160a01b03167f3397b60e3ca1e9c0c75a033d62ab8731e9b2937c0690ae5d7f1bd37886b19d7d84836040516130829291906142fa565b60405180910390a2505050565b6000818311156130a05750806130a3565b50815b92915050565b60006130b58383613a40565b9392505050565b600061271061274783600a6144fa565b6060806002835110156131185760405162461bcd60e51b81526020600482015260146024820152731d1bdad95b881c185d1a081d1bdbc81cda1bdc9d60621b6044820152606401610862565b825167ffffffffffffffff81111561314057634e487b7160e01b600052604160045260246000fd5b604051908082528060200260200182016040528015613169578160200160208202803683370190505b50915084826001845161317c9190614519565b8151811061319a57634e487b7160e01b600052603260045260246000fd5b602002602001018181525050600183516131b49190614519565b67ffffffffffffffff8111156131da57634e487b7160e01b600052604160045260246000fd5b604051908082528060200260200182016040528015613203578160200160208202803683370190505b5090506000600184516132169190614519565b90505b8015612a655760008461322d600184614519565b8151811061324b57634e487b7160e01b600052603260045260246000fd5b60200260200101519050600085838151811061327757634e487b7160e01b600052603260045260246000fd5b602002602001015190506000876001856132919190614519565b602081106132af57634e487b7160e01b600052603260045260246000fd5b1a60f81b6001600160f81b0319161561332257876132ce600186614519565b602081106132ec57634e487b7160e01b600052603260045260246000fd5b1a60f81b6001600160f81b031916600160f81b146133135761330e83836134e3565b61331d565b61331d8383613576565b61332c565b61332c83836135e8565b9050808561333b600187614519565b8151811061335957634e487b7160e01b600052603260045260246000fd5b60200260200101906001600160a01b031690816001600160a01b03168152505060008061338783868661365a565b915091506133bd8887815181106133ae57634e487b7160e01b600052603260045260246000fd5b60200260200101518383613b5d565b886133c9600189614519565b815181106133e757634e487b7160e01b600052603260045260246000fd5b6020026020010181815250505050505050808061340390614530565b915050613219565b838560008151811061342d57634e487b7160e01b600052603260045260246000fd5b60200260200101511115612e2b5760405162461bcd60e51b8152602060048201526024808201527f4d617267696e526f757465723a204558434553534956455f494e5055545f414d60448201526313d5539560e21b6064820152608401610862565b60006130b58383613c4c565b606060006130b583613c9b565b816001600160a01b03167f8ec70c9430377a4bba035133e27a5b0f3b9951bc080833f6832bcbbb70a96dba84836040516130829291906142fa565b60008060006134f28585613cf7565b915091507f0000000000000000000000000000000000000000000000000000000000000000828260405160200161352a929190614277565b604051602081830303815290604052805190602001206004546040516020016135559392919061429e565b60408051601f19818403018152919052805160209091012095945050505050565b60008060006135858585613cf7565b915091507f000000000000000000000000000000000000000000000000000000000000000082826040516020016135bd929190614277565b604051602081830303815290604052805190602001206003546040516020016135559392919061429e565b60008060006135f78585613cf7565b915091507f0000000000000000000000000000000000000000000000000000000000000000828260405160200161362f929190614277565b604051602081830303815290604052805190602001206002546040516020016135559392919061429e565b60008060006136698585613cf7565b509050600080876001600160a01b0316630902f1ac6040518163ffffffff1660e01b815260040160606040518083038186803b1580156136a857600080fd5b505afa1580156136bc573d6000803e3d6000fd5b505050506040513d601f19601f820116820180604052508101906136e0919061406f565b506001600160701b031691506001600160701b03169150826001600160a01b0316876001600160a01b03161461371757808261371a565b81815b90999098509650505050505050565b600080841161377a5760405162461bcd60e51b815260206004820152601960248201527f494e53554646494349454e545f494e5055545f414d4f554e54000000000000006044820152606401610862565b60008311801561378a5750600082115b6137a65760405162461bcd60e51b8152600401610862906143b4565b60006137d27f0000000000000000000000000000000000000000000000000000000000000000866144fa565b905060006137e084836144fa565b90506000826137f1876127106144fa565b6137fb91906144c2565b905061380781836144da565b979650505050505050565b60005b8351811015612f605760008084838151811061384157634e487b7160e01b600052603260045260246000fd5b60200260200101518584600161385791906144c2565b8151811061387557634e487b7160e01b600052603260045260246000fd5b602002602001015191509150600061388d8383613cf7565b50905060008861389e8660016144c2565b815181106138bc57634e487b7160e01b600052603260045260246000fd5b60200260200101519050600080836001600160a01b0316866001600160a01b0316146138ea578260006138ee565b6000835b91509150600060018b516139029190614519565b881061390e5788613941565b8a61391a8960016144c2565b8151811061393857634e487b7160e01b600052603260045260246000fd5b60200260200101515b905060008b898151811061396557634e487b7160e01b600052603260045260246000fd5b60200260200101519050806001600160a01b031663022c0d9f858585600067ffffffffffffffff8111156139a957634e487b7160e01b600052604160045260246000fd5b6040519080825280601f01601f1916602001820160405280156139d3576020820181803683370190505b506040518563ffffffff1660e01b81526004016139f394939291906143fc565b600060405180830381600087803b158015613a0d57600080fd5b505af1158015613a21573d6000803e3d6000fd5b5050505050505050505050508080613a3890614547565b915050613815565b60008181526001830160205260408120548015613b53576000613a64600183614519565b8554909150600090613a7890600190614519565b9050818114613af9576000866000018281548110613aa657634e487b7160e01b600052603260045260246000fd5b9060005260206000200154905080876000018481548110613ad757634e487b7160e01b600052603260045260246000fd5b6000918252602080832090910192909255918252600188019052604090208390555b8554869080613b1857634e487b7160e01b600052603160045260246000fd5b6001900381819060005260206000200160009055905585600101600086815260200190815260200160002060009055600193505050506130a3565b60009150506130a3565b6000808411613bae5760405162461bcd60e51b815260206004820152601a60248201527f494e53554646494349454e545f4f55545055545f414d4f554e540000000000006044820152606401610862565b600083118015613bbe5750600082115b613bda5760405162461bcd60e51b8152600401610862906143b4565b6000613be685856144fa565b613bf2906127106144fa565b905060007f0000000000000000000000000000000000000000000000000000000000000000613c218786614519565b613c2b91906144fa565b9050613c3781836144da565b613c429060016144c2565b9695505050505050565b6000818152600183016020526040812054613c93575081546001818101845560008481526020808220909301849055845484825282860190935260409020919091556130a3565b5060006130a3565b606081600001805480602002602001604051908101604052809291908181526020018280548015613ceb57602002820191906000526020600020905b815481526020019060010190808311613cd7575b50505050509050919050565b600080826001600160a01b0316846001600160a01b03161415613d515760405162461bcd60e51b81526020600482015260126024820152714964656e746963616c20616464726573732160701b6044820152606401610862565b826001600160a01b0316846001600160a01b031610613d71578284613d74565b83835b90925090506001600160a01b038216613dbf5760405162461bcd60e51b815260206004820152600d60248201526c5a65726f20616464726573732160981b6044820152606401610862565b9250929050565b60008083601f840112613dd7578182fd5b50813567ffffffffffffffff811115613dee578182fd5b6020830191508360208260051b8501011115613dbf57600080fd5b600082601f830112613e19578081fd5b81516020613e2e613e298361449e565b61446d565b80838252828201915082860187848660051b8901011115613e4d578586fd5b855b85811015613e6b57815184529284019290840190600101613e4f565b5090979650505050505050565b80516001600160701b038116811461208057600080fd5b600060208284031215613ea0578081fd5b81356130b58161458e565b600060208284031215613ebc578081fd5b81516130b58161458e565b600080600080600060a08688031215613ede578081fd5b8535613ee98161458e565b94506020860135613ef98161458e565b94979496505050506040830135926060810135926080909101359150565b60008060408385031215613f29578182fd5b8235613f348161458e565b946020939093013593505050565b60008060008060808587031215613f57578384fd5b8435613f628161458e565b9350602085013592506040850135613f798161458e565b9396929550929360600135925050565b60008060408385031215613f9b578182fd5b825167ffffffffffffffff80821115613fb2578384fd5b818501915085601f830112613fc5578384fd5b81516020613fd5613e298361449e565b8083825282820191508286018a848660051b8901011115613ff4578889fd5b8896505b8487101561401f57805161400b8161458e565b835260019690960195918301918301613ff8565b5091880151919650909350505080821115614038578283fd5b5061404585828601613e09565b9150509250929050565b600060208284031215614060578081fd5b815180151581146130b5578182fd5b600080600060608486031215614083578283fd5b61408c84613e78565b925061409a60208501613e78565b9150604084015163ffffffff811681146140b2578182fd5b809150509250925092565b6000602082840312156140ce578081fd5b5035919050565b6000602082840312156140e6578081fd5b5051919050565b600080604083850312156140ff578182fd5b8235915060208301356141118161458e565b809150509250929050565b60008060008060608587031215614131578182fd5b8435935060208501359250604085013567ffffffffffffffff811115614155578283fd5b61416187828801613dc6565b95989497509550505050565b6000806040838503121561417f578182fd5b50508035926020909101359150565b600080604083850312156141a0578182fd5b505080516020909101519092909150565b6000806000806000608086880312156141c8578283fd5b853594506020860135935060408601359250606086013567ffffffffffffffff8111156141f3578182fd5b6141ff88828901613dc6565b969995985093965092949392505050565b60008060008060008060a08789031215614228578384fd5b863595506020870135945060408701359350606087013567ffffffffffffffff811115614253578182fd5b61425f89828a01613dc6565b979a9699509497949695608090950135949350505050565b6bffffffffffffffffffffffff19606093841b811682529190921b16601482015260280190565b6001600160f81b0319815260609390931b6bffffffffffffffffffffffff191660018401526015830191909152603582015260550190565b6001600160a01b039384168152919092166020820152604081019190915260600190565b6001600160a01b03929092168252602082015260400190565b6020808252825182820181905260009190848201906040850190845b8181101561434b5783518352928401929184019160010161432f565b50909695505050505050565b6020808252603e908201527f43616c6c696e6720636f6e7472616374206973206e6f7420617574686f72697a60408201527f656420746f20747261646520776974682070726f746f636c2066756e64730000606082015260800190565b60208082526028908201527f556e697377617056324c6962726172793a20494e53554646494349454e545f4c604082015267495155494449545960c01b606082015260800190565b60008582526020858184015260018060a01b0385166040840152608060608401528351806080850152825b818110156144435785810183015185820160a001528201614427565b81811115614454578360a083870101525b50601f01601f19169290920160a0019695505050505050565b604051601f8201601f1916810167ffffffffffffffff8111828210171561449657614496614578565b604052919050565b600067ffffffffffffffff8211156144b8576144b8614578565b5060051b60200190565b600082198211156144d5576144d5614562565b500190565b6000826144f557634e487b7160e01b81526012600452602481fd5b500490565b600081600019048311821515161561451457614514614562565b500290565b60008282101561452b5761452b614562565b500390565b60008161453f5761453f614562565b506000190190565b600060001982141561455b5761455b614562565b5060010190565b634e487b7160e01b600052601160045260246000fd5b634e487b7160e01b600052604160045260246000fd5b6001600160a01b03811681146145a357600080fd5b5056fee7b1fae3a790ceab07642c09617df79428b02832cd512bbfdd4db50272dcdf30a2646970667358221220576464d2ee2b26417b21e4de8773c76fddbde5b1817cbef471be2908c0f1b99864736f6c63430008030033",
  "linkReferences": {},
  "deployedLinkReferences": {}
}