{
  "_format": "hh-sol-artifact-1",
  "contractName": "MarginRouter",
  "sourceName": "contracts/MarginRouter.sol",
  "abi": [
    {
      "inputs": [
        {
          "internalType": "address",
          "name": "_WETH",
          "type": "address"
        },
        {
          "internalType": "address",
          "name": "_roles",
          "type": "address"
        }
      ],
      "stateMutability": "nonpayable",
      "type": "constructor"
    },
    {
      "anonymous": false,
      "inputs": [
        {
          "indexed": true,
          "internalType": "address",
          "name": "trader",
          "type": "address"
        }
      ],
      "name": "AccountUpdated",
      "type": "event"
    },
    {
      "inputs": [],
      "name": "WETH",
      "outputs": [
        {
          "internalType": "address",
          "name": "",
          "type": "address"
        }
      ],
      "stateMutability": "view",
      "type": "function"
    },
    {
      "inputs": [
        {
          "internalType": "uint256",
          "name": "amountIn",
          "type": "uint256"
        },
        {
          "internalType": "uint256",
          "name": "amountOutMin",
          "type": "uint256"
        },
        {
          "internalType": "bytes32",
          "name": "amms",
          "type": "bytes32"
        },
        {
          "internalType": "address[]",
          "name": "tokens",
          "type": "address[]"
        }
      ],
      "name": "authorizedSwapExactT4T",
      "outputs": [
        {
          "internalType": "uint256[]",
          "name": "amounts",
          "type": "uint256[]"
        }
      ],
      "stateMutability": "nonpayable",
      "type": "function"
    },
    {
      "inputs": [
        {
          "internalType": "uint256",
          "name": "amountOut",
          "type": "uint256"
        },
        {
          "internalType": "uint256",
          "name": "amountInMax",
          "type": "uint256"
        },
        {
          "internalType": "bytes32",
          "name": "amms",
          "type": "bytes32"
        },
        {
          "internalType": "address[]",
          "name": "tokens",
          "type": "address[]"
        }
      ],
      "name": "authorizedSwapT4ExactT",
      "outputs": [
        {
          "internalType": "uint256[]",
          "name": "amounts",
          "type": "uint256[]"
        }
      ],
      "stateMutability": "nonpayable",
      "type": "function"
    },
    {
      "inputs": [
        {
          "internalType": "address",
          "name": "borrowToken",
          "type": "address"
        },
        {
          "internalType": "uint256",
          "name": "borrowAmount",
          "type": "uint256"
        }
      ],
      "name": "crossBorrow",
      "outputs": [],
      "stateMutability": "nonpayable",
      "type": "function"
    },
    {
      "inputs": [],
      "name": "crossCloseAccount",
      "outputs": [],
      "stateMutability": "nonpayable",
      "type": "function"
    },
    {
      "inputs": [
        {
          "internalType": "address",
          "name": "depositToken",
          "type": "address"
        },
        {
          "internalType": "uint256",
          "name": "depositAmount",
          "type": "uint256"
        }
      ],
      "name": "crossDeposit",
      "outputs": [],
      "stateMutability": "nonpayable",
      "type": "function"
    },
    {
      "inputs": [],
      "name": "crossDepositETH",
      "outputs": [],
      "stateMutability": "payable",
      "type": "function"
    },
    {
      "inputs": [
        {
          "internalType": "address",
          "name": "depositToken",
          "type": "address"
        },
        {
          "internalType": "uint256",
          "name": "depositAmount",
          "type": "uint256"
        },
        {
          "internalType": "address",
          "name": "borrowToken",
          "type": "address"
        },
        {
          "internalType": "uint256",
          "name": "withdrawAmount",
          "type": "uint256"
        }
      ],
      "name": "crossOvercollateralizedBorrow",
      "outputs": [],
      "stateMutability": "nonpayable",
      "type": "function"
    },
    {
      "inputs": [
        {
          "internalType": "address",
          "name": "withdrawToken",
          "type": "address"
        },
        {
          "internalType": "uint256",
          "name": "withdrawAmount",
          "type": "uint256"
        }
      ],
      "name": "crossWithdraw",
      "outputs": [],
      "stateMutability": "nonpayable",
      "type": "function"
    },
    {
      "inputs": [
        {
          "internalType": "uint256",
          "name": "withdrawAmount",
          "type": "uint256"
        }
      ],
      "name": "crossWithdrawETH",
      "outputs": [],
      "stateMutability": "nonpayable",
      "type": "function"
    },
    {
      "inputs": [
        {
          "internalType": "uint256",
          "name": "outAmount",
          "type": "uint256"
        },
        {
          "internalType": "bytes32",
          "name": "amms",
          "type": "bytes32"
        },
        {
          "internalType": "address[]",
          "name": "tokens",
          "type": "address[]"
        }
      ],
      "name": "getAmountsIn",
      "outputs": [
        {
          "internalType": "uint256[]",
          "name": "amounts",
          "type": "uint256[]"
        }
      ],
      "stateMutability": "view",
      "type": "function"
    },
    {
      "inputs": [
        {
          "internalType": "uint256",
          "name": "inAmount",
          "type": "uint256"
        },
        {
          "internalType": "bytes32",
          "name": "amms",
          "type": "bytes32"
        },
        {
          "internalType": "address[]",
          "name": "tokens",
          "type": "address[]"
        }
      ],
      "name": "getAmountsOut",
      "outputs": [
        {
          "internalType": "uint256[]",
          "name": "amounts",
          "type": "uint256[]"
        }
      ],
      "stateMutability": "view",
      "type": "function"
    },
    {
      "inputs": [
        {
          "internalType": "address",
          "name": "",
          "type": "address"
        }
      ],
      "name": "incentiveTranches",
      "outputs": [
        {
          "internalType": "uint256",
          "name": "",
          "type": "uint256"
        }
      ],
      "stateMutability": "view",
      "type": "function"
    },
    {
      "inputs": [
        {
          "internalType": "uint256",
          "name": "",
          "type": "uint256"
        }
      ],
      "name": "mainCharacterCache",
      "outputs": [
        {
          "internalType": "address",
          "name": "",
          "type": "address"
        }
      ],
      "stateMutability": "view",
      "type": "function"
    },
    {
      "inputs": [],
      "name": "mswapFeesPer10k",
      "outputs": [
        {
          "internalType": "uint256",
          "name": "",
          "type": "uint256"
        }
      ],
      "stateMutability": "view",
      "type": "function"
    },
    {
      "inputs": [
        {
          "internalType": "address",
          "name": "",
          "type": "address"
        },
        {
          "internalType": "uint256",
          "name": "",
          "type": "uint256"
        }
      ],
      "name": "roleCache",
      "outputs": [
        {
          "internalType": "bool",
          "name": "",
          "type": "bool"
        }
      ],
      "stateMutability": "view",
      "type": "function"
    },
    {
      "inputs": [],
      "name": "roles",
      "outputs": [
        {
          "internalType": "contract Roles",
          "name": "",
          "type": "address"
        }
      ],
      "stateMutability": "view",
      "type": "function"
    },
    {
      "inputs": [
        {
          "internalType": "address",
          "name": "token",
          "type": "address"
        },
        {
          "internalType": "uint8",
          "name": "tranche",
          "type": "uint8"
        }
      ],
      "name": "setIncentiveTranche",
      "outputs": [],
      "stateMutability": "nonpayable",
      "type": "function"
    },
    {
      "inputs": [
        {
          "internalType": "uint256",
          "name": "amountIn",
          "type": "uint256"
        },
        {
          "internalType": "uint256",
          "name": "amountOutMin",
          "type": "uint256"
        },
        {
          "internalType": "bytes32",
          "name": "amms",
          "type": "bytes32"
        },
        {
          "internalType": "address[]",
          "name": "tokens",
          "type": "address[]"
        },
        {
          "internalType": "uint256",
          "name": "deadline",
          "type": "uint256"
        }
      ],
      "name": "swapExactTokensForTokens",
      "outputs": [
        {
          "internalType": "uint256[]",
          "name": "amounts",
          "type": "uint256[]"
        }
      ],
      "stateMutability": "nonpayable",
      "type": "function"
    },
    {
      "inputs": [
        {
          "internalType": "uint256",
          "name": "amountOut",
          "type": "uint256"
        },
        {
          "internalType": "uint256",
          "name": "amountInMax",
          "type": "uint256"
        },
        {
          "internalType": "bytes32",
          "name": "amms",
          "type": "bytes32"
        },
        {
          "internalType": "address[]",
          "name": "tokens",
          "type": "address[]"
        },
        {
          "internalType": "uint256",
          "name": "deadline",
          "type": "uint256"
        }
      ],
      "name": "swapTokensForExactTokens",
      "outputs": [
        {
          "internalType": "uint256[]",
          "name": "amounts",
          "type": "uint256[]"
        }
      ],
      "stateMutability": "nonpayable",
      "type": "function"
    },
    {
      "inputs": [
        {
          "internalType": "uint256",
          "name": "role",
          "type": "uint256"
        }
      ],
      "name": "updateMainCharacterCache",
      "outputs": [],
      "stateMutability": "nonpayable",
      "type": "function"
    },
    {
      "inputs": [
        {
          "internalType": "uint256",
          "name": "role",
          "type": "uint256"
        },
        {
          "internalType": "address",
          "name": "contr",
          "type": "address"
        }
      ],
      "name": "updateRoleCache",
      "outputs": [],
      "stateMutability": "nonpayable",
      "type": "function"
    }
  ],
  "bytecode": "0x60c06040523480156200001157600080fd5b5060405162003c7838038062003c788339810160408190526200003491620000db565b806001600160a01b0381166200009b5760405162461bcd60e51b815260206004820152602260248201527f506c656173652070726f766964652076616c696420726f6c6573206164647265604482015261737360f01b606482015260840160405180910390fd5b6001600160601b0319606091821b811660805292901b90911660a0525062000112565b80516001600160a01b0381168114620000d657600080fd5b919050565b60008060408385031215620000ee578182fd5b620000f983620000be565b91506200010960208401620000be565b90509250929050565b60805160601c60a05160601c613b0262000176600039600081816103c801528181610a2e015281816113550152818161144e01526114c1015260008181610287015281816104ef01528181610d780152818161265e01526126f60152613b026000f3fe6080604052600436106101755760003560e01c8063799d34e1116100cb578063b7453e271161007f578063e3ee432711610059578063e3ee43271461044a578063e9c3f77d1461046a578063eedb97c7146104a057610175565b8063b7453e27146103ea578063cb6067dd1461040a578063e3e0626b1461042a57610175565b80638824cbba116100b05780638824cbba1461038157806394427b20146103ae578063ad5c4648146103b657610175565b8063799d34e1146103165780637a1a04df1461033657610175565b80632864f4011161012d578063447d52ba11610107578063447d52ba146102c157806353d7ff9f146102e1578063696986701461030157610175565b80632864f40114610235578063351ae61014610255578063392f5f641461027557610175565b80631084bd6d1161015e5780631084bd6d146101d25780631306d902146101f55780631dce3baa1461021557610175565b8063071060a61461017a5780630abb674c1461019c575b600080fd5b34801561018657600080fd5b5061019a61019536600461374f565b6104c0565b005b3480156101a857600080fd5b506101bc6101b7366004613876565b6105b7565b6040516101c991906138dd565b60405180910390f35b3480156101de57600080fd5b506101e7600a81565b6040519081526020016101c9565b34801561020157600080fd5b5061019a61021036600461356c565b610736565b34801561022157600080fd5b5061019a61023036600461374f565b6109c3565b34801561024157600080fd5b5061019a6102503660046135de565b610b79565b34801561026157600080fd5b506101bc610270366004613817565b610c49565b34801561028157600080fd5b506102a97f000000000000000000000000000000000000000000000000000000000000000081565b6040516001600160a01b0390911681526020016101c9565b3480156102cd57600080fd5b5061019a6102dc36600461377f565b610d39565b3480156102ed57600080fd5b506101bc6102fc366004613817565b610e48565b34801561030d57600080fd5b5061019a610f2e565b34801561032257600080fd5b506101bc6103313660046137a3565b61121a565b34801561034257600080fd5b5061037161035136600461356c565b600160209081526000928352604080842090915290825290205460ff1681565b60405190151581526020016101c9565b34801561038d57600080fd5b506101e761039c36600461352d565b60026020526000908152604090205481565b61019a61125a565b3480156103c257600080fd5b506102a97f000000000000000000000000000000000000000000000000000000000000000081565b3480156103f657600080fd5b506101bc6104053660046137a3565b611514565b34801561041657600080fd5b5061019a610425366004613597565b611554565b34801561043657600080fd5b5061019a61044536600461356c565b611879565b34801561045657600080fd5b506101bc610465366004613876565b611a18565b34801561047657600080fd5b506102a961048536600461374f565b6000602081905290815260409020546001600160a01b031681565b3480156104ac57600080fd5b5061019a6104bb36600461356c565b611b81565b6040517fb4ed0b6d000000000000000000000000000000000000000000000000000000008152600481018290527f00000000000000000000000000000000000000000000000000000000000000006001600160a01b03169063b4ed0b6d9060240160206040518083038186803b15801561053957600080fd5b505afa15801561054d573d6000803e3d6000fd5b505050506040513d601f19601f820116820180604052508101906105719190613550565b60009182526020829052604090912080547fffffffffffffffffffffffff0000000000000000000000000000000000000000166001600160a01b03909216919091179055565b6060814281101561060f5760405162461bcd60e51b815260206004820152601160248201527f547261646520686173206578706972656400000000000000000000000000000060448201526064015b60405180910390fd5b600061061a89611d25565b9050606061066561062b838c613a3f565b89898980806020026020016040519081016040528093929190818152602001838360200280828437600092019190915250611d4f92505050565b909450905061071c33888860008161068d57634e487b7160e01b600052603260045260246000fd5b90506020020160208101906106a2919061352d565b89896106af600182613a3f565b8181106106cc57634e487b7160e01b600052603260045260246000fd5b90506020020160208101906106e1919061352d565b8d8860018a516106f19190613a3f565b8151811061070f57634e487b7160e01b600052603260045260246000fd5b6020026020010151612046565b610729848a838a8a6122ff565b5050509695505050505050565b606560009081526020527f4a7203f705e51df4a56139a9b86b4a0970bed7ab7a3446eaffe2289989c1645c546001600160a01b03166040517fb3db428b0000000000000000000000000000000000000000000000000000000081523360048201526001600160a01b03848116602483015260448201849052919091169063b3db428b90606401600060405180830381600087803b1580156107d657600080fd5b505af11580156107ea573d6000803e3d6000fd5b50505050600061082b606860009081526020527faa071f48f62aaaa1f6320aaa7bd2ad2d552d05160892c14d699d38c9920d5f99546001600160a01b031690565b6040517f52a664d90000000000000000000000000000000000000000000000000000000081523360048201526001600160a01b0385811660248301526044820185905291909116906352a664d990606401602060405180830381600087803b15801561089657600080fd5b505af11580156108aa573d6000803e3d6000fd5b505050506040513d601f19601f820116820180604052508101906108ce9190613767565b9050801561099357606660009081526020527f422cccb7cea5c0e46f340bb7b21b81debac329f72e31669c20ff0f3a05cc2b5b546001600160a01b03166040517f2a6a897b0000000000000000000000000000000000000000000000000000000081526001600160a01b038581166004830152602482018490529190911690632a6a897b90604401600060405180830381600087803b15801561097057600080fd5b505af1158015610984573d6000803e3d6000fd5b5050505061099333848361257c565b60405133907fe7b1fae3a790ceab07642c09617df79428b02832cd512bbfdd4db50272dcdf3090600090a2505050565b606860009081526020527faa071f48f62aaaa1f6320aaa7bd2ad2d552d05160892c14d699d38c9920d5f99546001600160a01b03166040517fd0eb66530000000000000000000000000000000000000000000000000000000081523360048201526001600160a01b037f00000000000000000000000000000000000000000000000000000000000000008116602483015260448201849052919091169063d0eb665390606401600060405180830381600087803b158015610a8357600080fd5b505af1158015610a97573d6000803e3d6000fd5b50506065600090815260205250507f4a7203f705e51df4a56139a9b86b4a0970bed7ab7a3446eaffe2289989c1645c546001600160a01b03166040517f4782f779000000000000000000000000000000000000000000000000000000008152336004820152602481018390526001600160a01b039190911690634782f77990604401600060405180830381600087803b158015610b3357600080fd5b505af1158015610b47573d6000803e3d6000fd5b50506040513392507fe7b1fae3a790ceab07642c09617df79428b02832cd512bbfdd4db50272dcdf309150600090a250565b33610b8261265a565b6001600160a01b03161480610ba6575033610b9b6126f2565b6001600160a01b0316145b80610bb55750610bb533612763565b610c275760405162461bcd60e51b815260206004820152603960248201527f43616c6c6572206973206e6f7420746865206f776e65722c206578656375746f60448201527f72206f7220617574686f72697a656420616374697661746f72000000000000006064820152608401610606565b6001600160a01b03909116600090815260026020526040902060ff9091169055565b3360009081526001602090815260408083206007845290915290205460609060ff16610cdd5760405162461bcd60e51b815260206004820152603e60248201527f43616c6c696e6720636f6e7472616374206973206e6f7420617574686f72697a60448201527f656420746f20747261646520776974682070726f746f636c2066756e647300006064820152608401610606565b6060610d1d8786868680806020026020016040519081016040528093929190818152602001838360200280828437600092019190915250611d4f92505050565b9092509050610d2f82878387876122ff565b5095945050505050565b6040517f93552a3d000000000000000000000000000000000000000000000000000000008152600481018390526001600160a01b0382811660248301527f000000000000000000000000000000000000000000000000000000000000000016906393552a3d9060440160206040518083038186803b158015610dba57600080fd5b505afa158015610dce573d6000803e3d6000fd5b505050506040513d601f19601f82011682018060405250810190610df291906136e1565b6001600160a01b039190911660009081526001602090815260408083209483529390529190912080547fffffffffffffffffffffffffffffffffffffffffffffffffffffffffffffff0016911515919091179055565b3360009081526001602090815260408083206007845290915290205460609060ff16610edc5760405162461bcd60e51b815260206004820152603e60248201527f43616c6c696e6720636f6e7472616374206973206e6f7420617574686f72697a60448201527f656420746f20747261646520776974682070726f746f636c2066756e647300006064820152608401610606565b6060610f1c878686868080602002602001604051908101604052809392919081815260200183836020028082843760009201919091525061279192505050565b9092509050610d2f8287838787612aa0565b600080610f6c606860009081526020527faa071f48f62aaaa1f6320aaa7bd2ad2d552d05160892c14d699d38c9920d5f99546001600160a01b031690565b6040517f409fdb720000000000000000000000000000000000000000000000000000000081523360048201526001600160a01b03919091169063409fdb729060240160006040518083038186803b158015610fc657600080fd5b505afa158015610fda573d6000803e3d6000fd5b505050506040513d6000823e601f3d908101601f19168201604052611002919081019061361b565b91509150611041606860009081526020527faa071f48f62aaaa1f6320aaa7bd2ad2d552d05160892c14d699d38c9920d5f99546001600160a01b031690565b6040517fdb2d904d0000000000000000000000000000000000000000000000000000000081523360048201526001600160a01b03919091169063db2d904d90602401600060405180830381600087803b15801561109d57600080fd5b505af11580156110b1573d6000803e3d6000fd5b5050505060005b80835111156111ea57606560009081526020527f4a7203f705e51df4a56139a9b86b4a0970bed7ab7a3446eaffe2289989c1645c546001600160a01b03166001600160a01b031663d9caed1284838151811061112457634e487b7160e01b600052603260045260246000fd5b60200260200101513385858151811061114d57634e487b7160e01b600052603260045260246000fd5b60209081029190910101516040517fffffffff0000000000000000000000000000000000000000000000000000000060e086901b1681526001600160a01b0393841660048201529290911660248301526044820152606401600060405180830381600087803b1580156111bf57600080fd5b505af11580156111d3573d6000803e3d6000fd5b5050505080806111e290613a6d565b9150506110b8565b5060405133907fe7b1fae3a790ceab07642c09617df79428b02832cd512bbfdd4db50272dcdf3090600090a25050565b6060610d2f858585858080602002602001604051908101604052809392919081815260200183836020028082843760009201919091525061279192505050565b606560009081526020527f4a7203f705e51df4a56139a9b86b4a0970bed7ab7a3446eaffe2289989c1645c546001600160a01b03166001600160a01b031663a6a5f9fe346040518263ffffffff1660e01b81526004016000604051808303818588803b1580156112c957600080fd5b505af11580156112dd573d6000803e3d6000fd5b5050505050600061131f606860009081526020527faa071f48f62aaaa1f6320aaa7bd2ad2d552d05160892c14d699d38c9920d5f99546001600160a01b031690565b6040517f52a664d90000000000000000000000000000000000000000000000000000000081523360048201526001600160a01b037f00000000000000000000000000000000000000000000000000000000000000008116602483015234604483015291909116906352a664d990606401602060405180830381600087803b1580156113a957600080fd5b505af11580156113bd573d6000803e3d6000fd5b505050506040513d601f19601f820116820180604052508101906113e19190613767565b905080156114e657606660009081526020527f422cccb7cea5c0e46f340bb7b21b81debac329f72e31669c20ff0f3a05cc2b5b546001600160a01b03166040517f2a6a897b0000000000000000000000000000000000000000000000000000000081526001600160a01b037f000000000000000000000000000000000000000000000000000000000000000081166004830152602482018490529190911690632a6a897b90604401600060405180830381600087803b1580156114a357600080fd5b505af11580156114b7573d6000803e3d6000fd5b505050506114e6337f00000000000000000000000000000000000000000000000000000000000000008361257c565b60405133907fe7b1fae3a790ceab07642c09617df79428b02832cd512bbfdd4db50272dcdf3090600090a250565b6060610d2f8585858580806020026020016040519081016040528093929190818152602001838360200280828437600092019190915250611d4f92505050565b606560009081526020527f4a7203f705e51df4a56139a9b86b4a0970bed7ab7a3446eaffe2289989c1645c546001600160a01b03166040517fb3db428b0000000000000000000000000000000000000000000000000000000081523360048201526001600160a01b03868116602483015260448201869052919091169063b3db428b90606401600060405180830381600087803b1580156115f457600080fd5b505af1158015611608573d6000803e3d6000fd5b50506066600090815260205250507f422cccb7cea5c0e46f340bb7b21b81debac329f72e31669c20ff0f3a05cc2b5b546001600160a01b03166040517fee0862bf0000000000000000000000000000000000000000000000000000000081526001600160a01b03848116600483015260248201849052919091169063ee0862bf90604401600060405180830381600087803b1580156116a657600080fd5b505af11580156116ba573d6000803e3d6000fd5b50506068600090815260205250507faa071f48f62aaaa1f6320aaa7bd2ad2d552d05160892c14d699d38c9920d5f99546001600160a01b03166040517f1d84cc180000000000000000000000000000000000000000000000000000000081523360048201526001600160a01b038681166024830152604482018690528481166064830152608482018490529190911690631d84cc189060a401600060405180830381600087803b15801561176d57600080fd5b505af1158015611781573d6000803e3d6000fd5b50506065600090815260205250507f4a7203f705e51df4a56139a9b86b4a0970bed7ab7a3446eaffe2289989c1645c546001600160a01b03166040517fd9caed120000000000000000000000000000000000000000000000000000000081526001600160a01b03848116600483015233602483015260448201849052919091169063d9caed1290606401600060405180830381600087803b15801561182557600080fd5b505af1158015611839573d6000803e3d6000fd5b50505050611848338383612b3d565b60405133907fe7b1fae3a790ceab07642c09617df79428b02832cd512bbfdd4db50272dcdf3090600090a250505050565b606860009081526020527faa071f48f62aaaa1f6320aaa7bd2ad2d552d05160892c14d699d38c9920d5f99546001600160a01b03166040517fd0eb66530000000000000000000000000000000000000000000000000000000081523360048201526001600160a01b03848116602483015260448201849052919091169063d0eb665390606401600060405180830381600087803b15801561191957600080fd5b505af115801561192d573d6000803e3d6000fd5b50506065600090815260205250507f4a7203f705e51df4a56139a9b86b4a0970bed7ab7a3446eaffe2289989c1645c546001600160a01b03166040517fd9caed120000000000000000000000000000000000000000000000000000000081526001600160a01b03848116600483015233602483015260448201849052919091169063d9caed1290606401600060405180830381600087803b1580156119d157600080fd5b505af11580156119e5573d6000803e3d6000fd5b50506040513392507fe7b1fae3a790ceab07642c09617df79428b02832cd512bbfdd4db50272dcdf309150600090a25050565b60608142811015611a6b5760405162461bcd60e51b815260206004820152601160248201527f54726164652068617320657870697265640000000000000000000000000000006044820152606401610606565b6060611abd611a798a612c1b565b611a83908b6139e8565b8888888080602002602001604051908101604052809392919081815260200183836020028082843760009201919091525061279192505050565b9093509050611b68338787600081611ae557634e487b7160e01b600052603260045260246000fd5b9050602002016020810190611afa919061352d565b8888611b07600182613a3f565b818110611b2457634e487b7160e01b600052603260045260246000fd5b9050602002016020810190611b39919061352d565b86600081518110611b5a57634e487b7160e01b600052603260045260246000fd5b60200260200101518d612046565b611b758389838989612aa0565b50509695505050505050565b606660009081526020527f422cccb7cea5c0e46f340bb7b21b81debac329f72e31669c20ff0f3a05cc2b5b546001600160a01b03166040517fee0862bf0000000000000000000000000000000000000000000000000000000081526001600160a01b03848116600483015260248201849052919091169063ee0862bf90604401600060405180830381600087803b158015611c1b57600080fd5b505af1158015611c2f573d6000803e3d6000fd5b50506068600090815260205250507faa071f48f62aaaa1f6320aaa7bd2ad2d552d05160892c14d699d38c9920d5f99546001600160a01b03166040517f498d55eb0000000000000000000000000000000000000000000000000000000081523360048201526001600160a01b03848116602483015260448201849052919091169063498d55eb90606401600060405180830381600087803b158015611cd357600080fd5b505af1158015611ce7573d6000803e3d6000fd5b50505050611cf6338383612b3d565b60405133907fe7b1fae3a790ceab07642c09617df79428b02832cd512bbfdd4db50272dcdf3090600090a25050565b6000611d34600a6127106139e8565b611d3f83600a613a20565b611d499190613a00565b92915050565b606080600283511015611da45760405162461bcd60e51b815260206004820152601460248201527f746f6b656e207061746820746f6f2073686f72740000000000000000000000006044820152606401610606565b825167ffffffffffffffff811115611dcc57634e487b7160e01b600052604160045260246000fd5b604051908082528060200260200182016040528015611df5578160200160208202803683370190505b5091508482600081518110611e1a57634e487b7160e01b600052603260045260246000fd5b60200260200101818152505060018351611e349190613a3f565b67ffffffffffffffff811115611e5a57634e487b7160e01b600052604160045260246000fd5b604051908082528060200260200182016040528015611e83578160200160208202803683370190505b50905060005b60018451611e979190613a3f565b81101561203d576000848281518110611ec057634e487b7160e01b600052603260045260246000fd5b60200260200101519050600085836001611eda91906139e8565b81518110611ef857634e487b7160e01b600052603260045260246000fd5b602002602001015190506000878460208110611f2457634e487b7160e01b600052603260045260246000fd5b1a60f81b7fff000000000000000000000000000000000000000000000000000000000000001615611f5e57611f598383612c2b565b611f68565b611f688383612d34565b905080858581518110611f8b57634e487b7160e01b600052603260045260246000fd5b60200260200101906001600160a01b031690816001600160a01b031681525050600080611fb9838686612e20565b91509150611fef888781518110611fe057634e487b7160e01b600052603260045260246000fd5b60200260200101518383612efd565b88611ffb8860016139e8565b8151811061201957634e487b7160e01b600052603260045260246000fd5b6020026020010181815250505050505050808061203590613a6d565b915050611e89565b50935093915050565b600080612084606860009081526020527faa071f48f62aaaa1f6320aaa7bd2ad2d552d05160892c14d699d38c9920d5f99546001600160a01b031690565b6040517f3500aa0b0000000000000000000000000000000000000000000000000000000081526001600160a01b0389811660048301528881166024830152878116604483015260648201879052608482018690529190911690633500aa0b9060a4016040805180830381600087803b1580156120ff57600080fd5b505af1158015612113573d6000803e3d6000fd5b505050506040513d601f19601f8201168201806040525081019061213791906137f4565b909250905081156121ff57606660009081526020527f422cccb7cea5c0e46f340bb7b21b81debac329f72e31669c20ff0f3a05cc2b5b546001600160a01b03166040517f2a6a897b0000000000000000000000000000000000000000000000000000000081526001600160a01b038781166004830152602482018590529190911690632a6a897b90604401600060405180830381600087803b1580156121dc57600080fd5b505af11580156121f0573d6000803e3d6000fd5b505050506121ff87868461257c565b80156122c257606660009081526020527f422cccb7cea5c0e46f340bb7b21b81debac329f72e31669c20ff0f3a05cc2b5b546001600160a01b03166040517fee0862bf0000000000000000000000000000000000000000000000000000000081526001600160a01b03888116600483015260248201849052919091169063ee0862bf90604401600060405180830381600087803b15801561229f57600080fd5b505af11580156122b3573d6000803e3d6000fd5b505050506122c2878783612b3d565b6040516001600160a01b038816907fe7b1fae3a790ceab07642c09617df79428b02832cd512bbfdd4db50272dcdf3090600090a250505050505050565b83856001875161230f9190613a3f565b8151811061232d57634e487b7160e01b600052603260045260246000fd5b602002602001015110156123a95760405162461bcd60e51b815260206004820152602860248201527f4d617267696e526f757465723a20494e53554646494349454e545f4f5554505560448201527f545f414d4f554e540000000000000000000000000000000000000000000000006064820152608401610606565b606560009081526020527f4a7203f705e51df4a56139a9b86b4a0970bed7ab7a3446eaffe2289989c1645c546001600160a01b03166001600160a01b031663d9caed128383600081811061240d57634e487b7160e01b600052603260045260246000fd5b9050602002016020810190612422919061352d565b8560008151811061244357634e487b7160e01b600052603260045260246000fd5b60200260200101518860008151811061246c57634e487b7160e01b600052603260045260246000fd5b60209081029190910101516040517fffffffff0000000000000000000000000000000000000000000000000000000060e086901b1681526001600160a01b0393841660048201529290911660248301526044820152606401600060405180830381600087803b1580156124de57600080fd5b505af11580156124f2573d6000803e3d6000fd5b5050505061253d85848484808060200260200160405190810160405280939291908181526020018383602002808284376000920191909152506125389250612544915050565b61301e565b5050505050565b606560009081526020527f4a7203f705e51df4a56139a9b86b4a0970bed7ab7a3446eaffe2289989c1645c546001600160a01b031690565b6001600160a01b0382166000908152600260205260409020546125d0606c60009081526020527f3c1fcba39712202dbd455253568bf32dd0a3bedb5c3ff0de4b22d4e45e50dc92546001600160a01b031690565b6040517fc6c9faa1000000000000000000000000000000000000000000000000000000008152600481018390526001600160a01b03868116602483015260448201859052919091169063c6c9faa190606401600060405180830381600087803b15801561263c57600080fd5b505af1158015612650573d6000803e3d6000fd5b5050505050505050565b60007f00000000000000000000000000000000000000000000000000000000000000006001600160a01b0316638da5cb5b6040518163ffffffff1660e01b815260040160206040518083038186803b1580156126b557600080fd5b505afa1580156126c9573d6000803e3d6000fd5b505050506040513d601f19601f820116820180604052508101906126ed9190613550565b905090565b60007f00000000000000000000000000000000000000000000000000000000000000006001600160a01b031663c34c08e56040518163ffffffff1660e01b8152600401602060405180830381600087803b15801561274f57600080fd5b505af11580156126c9573d6000803e3d6000fd5b6001600160a01b03811660009081526001602090815260408083206009845290915290205460ff165b919050565b6060806002835110156127e65760405162461bcd60e51b815260206004820152601460248201527f746f6b656e207061746820746f6f2073686f72740000000000000000000000006044820152606401610606565b825167ffffffffffffffff81111561280e57634e487b7160e01b600052604160045260246000fd5b604051908082528060200260200182016040528015612837578160200160208202803683370190505b50915084826001845161284a9190613a3f565b8151811061286857634e487b7160e01b600052603260045260246000fd5b602002602001018181525050600183516128829190613a3f565b67ffffffffffffffff8111156128a857634e487b7160e01b600052604160045260246000fd5b6040519080825280602002602001820160405280156128d1578160200160208202803683370190505b5090506000600184516128e49190613a3f565b90505b801561203d576000846128fb600184613a3f565b8151811061291957634e487b7160e01b600052603260045260246000fd5b60200260200101519050600085838151811061294557634e487b7160e01b600052603260045260246000fd5b6020026020010151905060008760018561295f9190613a3f565b6020811061297d57634e487b7160e01b600052603260045260246000fd5b1a60f81b7fff0000000000000000000000000000000000000000000000000000000000000016156129b7576129b28383612c2b565b6129c1565b6129c18383612d34565b905080856129d0600187613a3f565b815181106129ee57634e487b7160e01b600052603260045260246000fd5b60200260200101906001600160a01b031690816001600160a01b031681525050600080612a1c838686612e20565b91509150612a52888781518110612a4357634e487b7160e01b600052603260045260246000fd5b6020026020010151838361324c565b88612a5e600189613a3f565b81518110612a7c57634e487b7160e01b600052603260045260246000fd5b60200260200101818152505050505050508080612a9890613a56565b9150506128e7565b8385600081518110612ac257634e487b7160e01b600052603260045260246000fd5b602002602001015111156123a95760405162461bcd60e51b8152602060048201526024808201527f4d617267696e526f757465723a204558434553534956455f494e5055545f414d60448201527f4f554e54000000000000000000000000000000000000000000000000000000006064820152608401610606565b6000612b7a606c60009081526020527f3c1fcba39712202dbd455253568bf32dd0a3bedb5c3ff0de4b22d4e45e50dc92546001600160a01b031690565b6001600160a01b03848116600090815260026020526040908190205490517f2b5de286000000000000000000000000000000000000000000000000000000008152600481018290528783166024820152604481018690529293509190831690632b5de28690606401600060405180830381600087803b158015612bfc57600080fd5b505af1158015612c10573d6000803e3d6000fd5b505050505050505050565b6000612710611d3f83600a613a20565b6000806000612c3a8585613373565b60408051606084811b7fffffffffffffffffffffffffffffffffffffffff0000000000000000000000009081166020808501919091529185901b166034830152825160288184030181526048830190935282519201919091207fff0000000000000000000000000000000000000000000000000000000000000060688301527fc0aee478e3658e2610c5f7a4a2e1777ce9e4f2ac0000000000000000000000006069830152607d8201527fe18a34eb0e04b04f7a0ac29a6e80748dca96319b42c54d679cb821dca90c6303609d820152919350915060bd015b60408051601f19818403018152919052805160209091012095945050505050565b6000806000612d438585613373565b60408051606084811b7fffffffffffffffffffffffffffffffffffffffff0000000000000000000000009081166020808501919091529185901b166034830152825160288184030181526048830190935282519201919091207fff0000000000000000000000000000000000000000000000000000000000000060688301527f5c69bee701ef814a2b6a3edd4b1652cb9cc5aa6f0000000000000000000000006069830152607d8201527f96e8ac4277198ff8b6f785478aa9a39f403cb768dd02cbee326c3e7da348845f609d820152919350915060bd01612d13565b6000806000612e2f8585613373565b509050600080876001600160a01b0316630902f1ac6040518163ffffffff1660e01b815260040160606040518083038186803b158015612e6e57600080fd5b505afa158015612e82573d6000803e3d6000fd5b505050506040513d601f19601f82011682018060405250810190612ea69190613701565b506dffffffffffffffffffffffffffff1691506dffffffffffffffffffffffffffff169150826001600160a01b0316876001600160a01b031614612eeb578082612eee565b81815b90999098509650505050505050565b6000808411612f4e5760405162461bcd60e51b815260206004820152601960248201527f494e53554646494349454e545f494e5055545f414d4f554e54000000000000006044820152606401610606565b600083118015612f5e5750600082115b612fd05760405162461bcd60e51b815260206004820152602860248201527f556e697377617056324c6962726172793a20494e53554646494349454e545f4c60448201527f49515549444954590000000000000000000000000000000000000000000000006064820152608401610606565b6000612fde856103e5613a20565b90506000612fec8483613a20565b9050600082612ffd876103e8613a20565b61300791906139e8565b90506130138183613a00565b979650505050505050565b60005b835181101561253d5760008084838151811061304d57634e487b7160e01b600052603260045260246000fd5b60200260200101518584600161306391906139e8565b8151811061308157634e487b7160e01b600052603260045260246000fd5b60200260200101519150915060006130998383613373565b5090506000886130aa8660016139e8565b815181106130c857634e487b7160e01b600052603260045260246000fd5b60200260200101519050600080836001600160a01b0316866001600160a01b0316146130f6578260006130fa565b6000835b91509150600060018b5161310e9190613a3f565b881061311a578861314d565b8a6131268960016139e8565b8151811061314457634e487b7160e01b600052603260045260246000fd5b60200260200101515b905060008b898151811061317157634e487b7160e01b600052603260045260246000fd5b60200260200101519050806001600160a01b031663022c0d9f858585600067ffffffffffffffff8111156131b557634e487b7160e01b600052604160045260246000fd5b6040519080825280601f01601f1916602001820160405280156131df576020820181803683370190505b506040518563ffffffff1660e01b81526004016131ff9493929190613921565b600060405180830381600087803b15801561321957600080fd5b505af115801561322d573d6000803e3d6000fd5b505050505050505050505050808061324490613a6d565b915050613021565b600080841161329d5760405162461bcd60e51b815260206004820152601a60248201527f494e53554646494349454e545f4f55545055545f414d4f554e540000000000006044820152606401610606565b6000831180156132ad5750600082115b61331f5760405162461bcd60e51b815260206004820152602860248201527f556e697377617056324c6962726172793a20494e53554646494349454e545f4c60448201527f49515549444954590000000000000000000000000000000000000000000000006064820152608401610606565b600061332b8585613a20565b613337906103e8613a20565b905060006103e56133488786613a3f565b6133529190613a3f565b905061335e8183613a00565b6133699060016139e8565b9695505050505050565b600080826001600160a01b0316846001600160a01b031614156133d85760405162461bcd60e51b815260206004820152601260248201527f4964656e746963616c20616464726573732100000000000000000000000000006044820152606401610606565b826001600160a01b0316846001600160a01b0316106133f85782846133fb565b83835b90925090506001600160a01b0382166134565760405162461bcd60e51b815260206004820152600d60248201527f5a65726f206164647265737321000000000000000000000000000000000000006044820152606401610606565b9250929050565b60008083601f84011261346e578182fd5b50813567ffffffffffffffff811115613485578182fd5b6020830191508360208260051b850101111561345657600080fd5b600082601f8301126134b0578081fd5b815160206134c56134c0836139c4565b613993565b80838252828201915082860187848660051b89010111156134e4578586fd5b855b85811015613502578151845292840192908401906001016134e6565b5090979650505050505050565b80516dffffffffffffffffffffffffffff8116811461278c57600080fd5b60006020828403121561353e578081fd5b813561354981613ab4565b9392505050565b600060208284031215613561578081fd5b815161354981613ab4565b6000806040838503121561357e578081fd5b823561358981613ab4565b946020939093013593505050565b600080600080608085870312156135ac578182fd5b84356135b781613ab4565b93506020850135925060408501356135ce81613ab4565b9396929550929360600135925050565b600080604083850312156135f0578182fd5b82356135fb81613ab4565b9150602083013560ff81168114613610578182fd5b809150509250929050565b6000806040838503121561362d578182fd5b825167ffffffffffffffff80821115613644578384fd5b818501915085601f830112613657578384fd5b815160206136676134c0836139c4565b8083825282820191508286018a848660051b8901011115613686578889fd5b8896505b848710156136b157805161369d81613ab4565b83526001969096019591830191830161368a565b50918801519196509093505050808211156136ca578283fd5b506136d7858286016134a0565b9150509250929050565b6000602082840312156136f2578081fd5b81518015158114613549578182fd5b600080600060608486031215613715578283fd5b61371e8461350f565b925061372c6020850161350f565b9150604084015163ffffffff81168114613744578182fd5b809150509250925092565b600060208284031215613760578081fd5b5035919050565b600060208284031215613778578081fd5b5051919050565b60008060408385031215613791578182fd5b82359150602083013561361081613ab4565b600080600080606085870312156137b8578182fd5b8435935060208501359250604085013567ffffffffffffffff8111156137dc578283fd5b6137e88782880161345d565b95989497509550505050565b60008060408385031215613806578182fd5b505080516020909101519092909150565b60008060008060006080868803121561382e578283fd5b853594506020860135935060408601359250606086013567ffffffffffffffff811115613859578182fd5b6138658882890161345d565b969995985093965092949392505050565b60008060008060008060a0878903121561388e578384fd5b863595506020870135945060408701359350606087013567ffffffffffffffff8111156138b9578182fd5b6138c589828a0161345d565b979a9699509497949695608090950135949350505050565b6020808252825182820181905260009190848201906040850190845b81811015613915578351835292840192918401916001016138f9565b50909695505050505050565b6000858252602085818401526001600160a01b0385166040840152608060608401528351806080850152825b818110156139695785810183015185820160a00152820161394d565b8181111561397a578360a083870101525b50601f01601f19169290920160a0019695505050505050565b604051601f8201601f1916810167ffffffffffffffff811182821017156139bc576139bc613a9e565b604052919050565b600067ffffffffffffffff8211156139de576139de613a9e565b5060051b60200190565b600082198211156139fb576139fb613a88565b500190565b600082613a1b57634e487b7160e01b81526012600452602481fd5b500490565b6000816000190483118215151615613a3a57613a3a613a88565b500290565b600082821015613a5157613a51613a88565b500390565b600081613a6557613a65613a88565b506000190190565b6000600019821415613a8157613a81613a88565b5060010190565b634e487b7160e01b600052601160045260246000fd5b634e487b7160e01b600052604160045260246000fd5b6001600160a01b0381168114613ac957600080fd5b5056fea26469706673582212209b405ea0b17257ea185db534e995cc514b4d1bb78d68ee5db605ddeab0f8b4fd64736f6c63430008030033",
  "linkReferences": {},
  "deployedLinkReferences": {}
}