{
  "_format": "hh-sol-artifact-1",
  "contractName": "MarginRouter",
  "sourceName": "contracts/MarginRouter.sol",
  "abi": [
    {
      "inputs": [
        {
          "internalType": "address",
          "name": "_WETH",
          "type": "address"
        },
        {
          "internalType": "address",
          "name": "_amm1Factory",
          "type": "address"
        },
        {
          "internalType": "address",
          "name": "_amm2Factory",
          "type": "address"
        },
        {
          "internalType": "bytes32",
          "name": "_amm1InitHash",
          "type": "bytes32"
        },
        {
          "internalType": "bytes32",
          "name": "_amm2InitHash",
          "type": "bytes32"
        },
        {
          "internalType": "address",
          "name": "_roles",
          "type": "address"
        }
      ],
      "stateMutability": "nonpayable",
      "type": "constructor"
    },
    {
      "anonymous": false,
      "inputs": [
        {
          "indexed": true,
          "internalType": "address",
          "name": "trader",
          "type": "address"
        }
      ],
      "name": "AccountUpdated",
      "type": "event"
    },
    {
      "anonymous": false,
      "inputs": [
        {
          "indexed": true,
          "internalType": "address",
          "name": "trader",
          "type": "address"
        },
        {
          "indexed": false,
          "internalType": "address",
          "name": "fromToken",
          "type": "address"
        },
        {
          "indexed": false,
          "internalType": "address",
          "name": "toToken",
          "type": "address"
        },
        {
          "indexed": false,
          "internalType": "uint256",
          "name": "fromAmount",
          "type": "uint256"
        },
        {
          "indexed": false,
          "internalType": "uint256",
          "name": "toAmount",
          "type": "uint256"
        }
      ],
      "name": "MarginTrade",
      "type": "event"
    },
    {
      "inputs": [],
      "name": "WETH",
      "outputs": [
        {
          "internalType": "address",
          "name": "",
          "type": "address"
        }
      ],
      "stateMutability": "view",
      "type": "function"
    },
    {
      "inputs": [],
      "name": "amm1Factory",
      "outputs": [
        {
          "internalType": "address",
          "name": "",
          "type": "address"
        }
      ],
      "stateMutability": "view",
      "type": "function"
    },
    {
      "inputs": [],
      "name": "amm1InitHash",
      "outputs": [
        {
          "internalType": "bytes32",
          "name": "",
          "type": "bytes32"
        }
      ],
      "stateMutability": "view",
      "type": "function"
    },
    {
      "inputs": [],
      "name": "amm2Factory",
      "outputs": [
        {
          "internalType": "address",
          "name": "",
          "type": "address"
        }
      ],
      "stateMutability": "view",
      "type": "function"
    },
    {
      "inputs": [],
      "name": "amm2InitHash",
      "outputs": [
        {
          "internalType": "bytes32",
          "name": "",
          "type": "bytes32"
        }
      ],
      "stateMutability": "view",
      "type": "function"
    },
    {
      "inputs": [
        {
          "internalType": "uint256",
          "name": "amountIn",
          "type": "uint256"
        },
        {
          "internalType": "uint256",
          "name": "amountOutMin",
          "type": "uint256"
        },
        {
          "internalType": "bytes32",
          "name": "amms",
          "type": "bytes32"
        },
        {
          "internalType": "address[]",
          "name": "tokens",
          "type": "address[]"
        }
      ],
      "name": "authorizedSwapExactT4T",
      "outputs": [
        {
          "internalType": "uint256[]",
          "name": "amounts",
          "type": "uint256[]"
        }
      ],
      "stateMutability": "nonpayable",
      "type": "function"
    },
    {
      "inputs": [
        {
          "internalType": "uint256",
          "name": "amountOut",
          "type": "uint256"
        },
        {
          "internalType": "uint256",
          "name": "amountInMax",
          "type": "uint256"
        },
        {
          "internalType": "bytes32",
          "name": "amms",
          "type": "bytes32"
        },
        {
          "internalType": "address[]",
          "name": "tokens",
          "type": "address[]"
        }
      ],
      "name": "authorizedSwapT4ExactT",
      "outputs": [
        {
          "internalType": "uint256[]",
          "name": "amounts",
          "type": "uint256[]"
        }
      ],
      "stateMutability": "nonpayable",
      "type": "function"
    },
    {
      "inputs": [
        {
          "internalType": "address",
          "name": "borrowToken",
          "type": "address"
        },
        {
          "internalType": "uint256",
          "name": "borrowAmount",
          "type": "uint256"
        }
      ],
      "name": "crossBorrow",
      "outputs": [],
      "stateMutability": "nonpayable",
      "type": "function"
    },
    {
      "inputs": [],
      "name": "crossCloseAccount",
      "outputs": [],
      "stateMutability": "nonpayable",
      "type": "function"
    },
    {
      "inputs": [
        {
          "internalType": "address",
          "name": "depositToken",
          "type": "address"
        },
        {
          "internalType": "uint256",
          "name": "depositAmount",
          "type": "uint256"
        }
      ],
      "name": "crossDeposit",
      "outputs": [],
      "stateMutability": "nonpayable",
      "type": "function"
    },
    {
      "inputs": [],
      "name": "crossDepositETH",
      "outputs": [],
      "stateMutability": "payable",
      "type": "function"
    },
    {
      "inputs": [
        {
          "internalType": "address",
          "name": "depositToken",
          "type": "address"
        },
        {
          "internalType": "uint256",
          "name": "depositAmount",
          "type": "uint256"
        },
        {
          "internalType": "address",
          "name": "borrowToken",
          "type": "address"
        },
        {
          "internalType": "uint256",
          "name": "withdrawAmount",
          "type": "uint256"
        }
      ],
      "name": "crossOvercollateralizedBorrow",
      "outputs": [],
      "stateMutability": "nonpayable",
      "type": "function"
    },
    {
      "inputs": [
        {
          "internalType": "address",
          "name": "withdrawToken",
          "type": "address"
        },
        {
          "internalType": "uint256",
          "name": "withdrawAmount",
          "type": "uint256"
        }
      ],
      "name": "crossWithdraw",
      "outputs": [],
      "stateMutability": "nonpayable",
      "type": "function"
    },
    {
      "inputs": [
        {
          "internalType": "uint256",
          "name": "withdrawAmount",
          "type": "uint256"
        }
      ],
      "name": "crossWithdrawETH",
      "outputs": [],
      "stateMutability": "nonpayable",
      "type": "function"
    },
    {
      "inputs": [
        {
          "internalType": "uint256",
          "name": "outAmount",
          "type": "uint256"
        },
        {
          "internalType": "bytes32",
          "name": "amms",
          "type": "bytes32"
        },
        {
          "internalType": "address[]",
          "name": "tokens",
          "type": "address[]"
        }
      ],
      "name": "getAmountsIn",
      "outputs": [
        {
          "internalType": "uint256[]",
          "name": "amounts",
          "type": "uint256[]"
        }
      ],
      "stateMutability": "view",
      "type": "function"
    },
    {
      "inputs": [
        {
          "internalType": "uint256",
          "name": "inAmount",
          "type": "uint256"
        },
        {
          "internalType": "bytes32",
          "name": "amms",
          "type": "bytes32"
        },
        {
          "internalType": "address[]",
          "name": "tokens",
          "type": "address[]"
        }
      ],
      "name": "getAmountsOut",
      "outputs": [
        {
          "internalType": "uint256[]",
          "name": "amounts",
          "type": "uint256[]"
        }
      ],
      "stateMutability": "view",
      "type": "function"
    },
    {
      "inputs": [
        {
          "internalType": "uint256",
          "name": "",
          "type": "uint256"
        }
      ],
      "name": "mainCharacterCache",
      "outputs": [
        {
          "internalType": "address",
          "name": "",
          "type": "address"
        }
      ],
      "stateMutability": "view",
      "type": "function"
    },
    {
      "inputs": [],
      "name": "mswapFeesPer10k",
      "outputs": [
        {
          "internalType": "uint256",
          "name": "",
          "type": "uint256"
        }
      ],
      "stateMutability": "view",
      "type": "function"
    },
    {
      "inputs": [
        {
          "internalType": "address",
          "name": "",
          "type": "address"
        },
        {
          "internalType": "uint256",
          "name": "",
          "type": "uint256"
        }
      ],
      "name": "roleCache",
      "outputs": [
        {
          "internalType": "bool",
          "name": "",
          "type": "bool"
        }
      ],
      "stateMutability": "view",
      "type": "function"
    },
    {
      "inputs": [],
      "name": "roles",
      "outputs": [
        {
          "internalType": "contract Roles",
          "name": "",
          "type": "address"
        }
      ],
      "stateMutability": "view",
      "type": "function"
    },
    {
      "inputs": [
        {
          "internalType": "uint256",
          "name": "amountIn",
          "type": "uint256"
        },
        {
          "internalType": "uint256",
          "name": "amountOutMin",
          "type": "uint256"
        },
        {
          "internalType": "bytes32",
          "name": "amms",
          "type": "bytes32"
        },
        {
          "internalType": "address[]",
          "name": "tokens",
          "type": "address[]"
        },
        {
          "internalType": "uint256",
          "name": "deadline",
          "type": "uint256"
        }
      ],
      "name": "swapExactTokensForTokens",
      "outputs": [
        {
          "internalType": "uint256[]",
          "name": "amounts",
          "type": "uint256[]"
        }
      ],
      "stateMutability": "nonpayable",
      "type": "function"
    },
    {
      "inputs": [
        {
          "internalType": "uint256",
          "name": "amountOut",
          "type": "uint256"
        },
        {
          "internalType": "uint256",
          "name": "amountInMax",
          "type": "uint256"
        },
        {
          "internalType": "bytes32",
          "name": "amms",
          "type": "bytes32"
        },
        {
          "internalType": "address[]",
          "name": "tokens",
          "type": "address[]"
        },
        {
          "internalType": "uint256",
          "name": "deadline",
          "type": "uint256"
        }
      ],
      "name": "swapTokensForExactTokens",
      "outputs": [
        {
          "internalType": "uint256[]",
          "name": "amounts",
          "type": "uint256[]"
        }
      ],
      "stateMutability": "nonpayable",
      "type": "function"
    },
    {
      "inputs": [
        {
          "internalType": "uint256",
          "name": "role",
          "type": "uint256"
        }
      ],
      "name": "updateMainCharacterCache",
      "outputs": [],
      "stateMutability": "nonpayable",
      "type": "function"
    },
    {
      "inputs": [
        {
          "internalType": "uint256",
          "name": "role",
          "type": "uint256"
        },
        {
          "internalType": "address",
          "name": "contr",
          "type": "address"
        }
      ],
      "name": "updateRoleCache",
      "outputs": [],
      "stateMutability": "nonpayable",
      "type": "function"
    }
  ],
  "bytecode": "0x6101006040523480156200001257600080fd5b506040516200407f3803806200407f8339810160408190526200003591620000ff565b84848484846001600160a01b038116620000a05760405162461bcd60e51b815260206004820152602260248201527f506c656173652070726f766964652076616c696420726f6c6573206164647265604482015261737360f01b606482015260840160405180910390fd5b6001600160601b0319606091821b811660805294811b851660a05292831b841660c0526002919091556003559690961b90951660e052506200016d9350505050565b80516001600160a01b0381168114620000fa57600080fd5b919050565b60008060008060008060c0878903121562000118578182fd5b6200012387620000e2565b95506200013360208801620000e2565b94506200014360408801620000e2565b935060608701519250608087015191506200016160a08801620000e2565b90509295509295509295565b60805160601c60a05160601c60c05160601c60e05160601c613e94620001eb600039600081816103e401528181610b3d0152818161147b0152818161158e01526116000152600081816101a20152612e240152600081816104380152612f5e0152600081816102d2015281816105620152610de10152613e946000f3fe60806040526004361061018b5760003560e01c80637a1a04df116100d6578063cb6067dd1161007f578063e3ee432711610059578063e3ee4327146104b0578063e9c3f77d146104d0578063eedb97c7146105135761018b565b8063cb6067dd1461045a578063df7c20f91461047a578063e3e0626b146104905761018b565b8063ad5c4648116100b0578063ad5c4648146103d2578063b7453e2714610406578063b852eb0d146104265761018b565b80637a1a04df1461036957806394427b20146103b4578063a75208a8146103bc5761018b565b8063351ae6101161013857806353d7ff9f1161011257806353d7ff9f146103145780636969867014610334578063799d34e1146103495761018b565b8063351ae610146102a0578063392f5f64146102c0578063447d52ba146102f45761018b565b80631084bd6d116101695780631084bd6d1461023d5780631306d902146102605780631dce3baa146102805761018b565b8063059b157a14610190578063071060a6146101ee5780630abb674c14610210575b600080fd5b34801561019c57600080fd5b506101c47f000000000000000000000000000000000000000000000000000000000000000081565b60405173ffffffffffffffffffffffffffffffffffffffff90911681526020015b60405180910390f35b3480156101fa57600080fd5b5061020e610209366004613a26565b610533565b005b34801561021c57600080fd5b5061023061022b366004613b58565b610644565b6040516101e59190613bbf565b34801561024957600080fd5b50610252600a81565b6040519081526020016101e5565b34801561026c57600080fd5b5061020e61027b366004613880565b6107dd565b34801561028c57600080fd5b5061020e61029b366004613a26565b610ab8565b3480156102ac57600080fd5b506102306102bb366004613af9565b610ca2565b3480156102cc57600080fd5b506101c47f000000000000000000000000000000000000000000000000000000000000000081565b34801561030057600080fd5b5061020e61030f366004613a56565b610d95565b34801561032057600080fd5b5061023061032f366004613af9565b610ebe565b34801561034057600080fd5b5061020e610fa7565b34801561035557600080fd5b50610230610364366004613a85565b61130c565b34801561037557600080fd5b506103a4610384366004613880565b600160209081526000928352604080842090915290825290205460ff1681565b60405190151581526020016101e5565b61020e61134c565b3480156103c857600080fd5b5061025260025481565b3480156103de57600080fd5b506101c47f000000000000000000000000000000000000000000000000000000000000000081565b34801561041257600080fd5b50610230610421366004613a85565b611654565b34801561043257600080fd5b506101c47f000000000000000000000000000000000000000000000000000000000000000081565b34801561046657600080fd5b5061020e6104753660046138ab565b611694565b34801561048657600080fd5b5061025260035481565b34801561049c57600080fd5b5061020e6104ab366004613880565b611a21565b3480156104bc57600080fd5b506102306104cb366004613b58565b611bf4565b3480156104dc57600080fd5b506101c46104eb366004613a26565b60006020819052908152604090205473ffffffffffffffffffffffffffffffffffffffff1681565b34801561051f57600080fd5b5061020e61052e366004613880565b611d77565b6040517fb4ed0b6d000000000000000000000000000000000000000000000000000000008152600481018290527f000000000000000000000000000000000000000000000000000000000000000073ffffffffffffffffffffffffffffffffffffffff169063b4ed0b6d9060240160206040518083038186803b1580156105b957600080fd5b505afa1580156105cd573d6000803e3d6000fd5b505050506040513d601f19601f820116820180604052508101906105f19190613864565b60009182526020829052604090912080547fffffffffffffffffffffffff00000000000000000000000000000000000000001673ffffffffffffffffffffffffffffffffffffffff909216919091179055565b606081428110156106b6576040517f08c379a000000000000000000000000000000000000000000000000000000000815260206004820152601160248201527f547261646520686173206578706972656400000000000000000000000000000060448201526064015b60405180910390fd5b60006106c189611f4f565b9050606061070c6106d2838c613d88565b89898980806020026020016040519081016040528093929190818152602001838360200280828437600092019190915250611f7992505050565b90945090506107c333888860008161073457634e487b7160e01b600052603260045260246000fd5b90506020020160208101906107499190613841565b8989610756600182613d88565b81811061077357634e487b7160e01b600052603260045260246000fd5b90506020020160208101906107889190613841565b8d8860018a516107989190613d88565b815181106107b657634e487b7160e01b600052603260045260246000fd5b60200260200101516122a4565b6107d0848a838a8a61261c565b5050509695505050505050565b606560009081526020527f4a7203f705e51df4a56139a9b86b4a0970bed7ab7a3446eaffe2289989c1645c5473ffffffffffffffffffffffffffffffffffffffff166040517fb3db428b00000000000000000000000000000000000000000000000000000000815233600482015273ffffffffffffffffffffffffffffffffffffffff848116602483015260448201849052919091169063b3db428b90606401600060405180830381600087803b15801561089757600080fd5b505af11580156108ab573d6000803e3d6000fd5b5050505060006108f9606860009081526020527faa071f48f62aaaa1f6320aaa7bd2ad2d552d05160892c14d699d38c9920d5f995473ffffffffffffffffffffffffffffffffffffffff1690565b6040517f52a664d900000000000000000000000000000000000000000000000000000000815233600482015273ffffffffffffffffffffffffffffffffffffffff85811660248301526044820185905291909116906352a664d990606401602060405180830381600087803b15801561097157600080fd5b505af1158015610985573d6000803e3d6000fd5b505050506040513d601f19601f820116820180604052508101906109a99190613a3e565b90508015610a8857606660009081526020527f422cccb7cea5c0e46f340bb7b21b81debac329f72e31669c20ff0f3a05cc2b5b5473ffffffffffffffffffffffffffffffffffffffff166040517f2a6a897b00000000000000000000000000000000000000000000000000000000815273ffffffffffffffffffffffffffffffffffffffff8581166004830152602482018490529190911690632a6a897b90604401600060405180830381600087803b158015610a6557600080fd5b505af1158015610a79573d6000803e3d6000fd5b50505050610a888333836128e7565b60405133907fe7b1fae3a790ceab07642c09617df79428b02832cd512bbfdd4db50272dcdf3090600090a2505050565b606860009081526020527faa071f48f62aaaa1f6320aaa7bd2ad2d552d05160892c14d699d38c9920d5f995473ffffffffffffffffffffffffffffffffffffffff166040517fd0eb665300000000000000000000000000000000000000000000000000000000815233600482015273ffffffffffffffffffffffffffffffffffffffff7f00000000000000000000000000000000000000000000000000000000000000008116602483015260448201849052919091169063d0eb665390606401600060405180830381600087803b158015610b9257600080fd5b505af1158015610ba6573d6000803e3d6000fd5b50506065600090815260205250507f4a7203f705e51df4a56139a9b86b4a0970bed7ab7a3446eaffe2289989c1645c5473ffffffffffffffffffffffffffffffffffffffff166040517f4782f7790000000000000000000000000000000000000000000000000000000081523360048201526024810183905273ffffffffffffffffffffffffffffffffffffffff9190911690634782f77990604401600060405180830381600087803b158015610c5c57600080fd5b505af1158015610c70573d6000803e3d6000fd5b50506040513392507fe7b1fae3a790ceab07642c09617df79428b02832cd512bbfdd4db50272dcdf309150600090a250565b6060610cad33612940565b610d39576040517f08c379a000000000000000000000000000000000000000000000000000000000815260206004820152603e60248201527f43616c6c696e6720636f6e7472616374206973206e6f7420617574686f72697a60448201527f656420746f20747261646520776974682070726f746f636c2066756e6473000060648201526084016106ad565b6060610d798786868680806020026020016040519081016040528093929190818152602001838360200280828437600092019190915250611f7992505050565b9092509050610d8b828783878761261c565b5095945050505050565b6040517f93552a3d0000000000000000000000000000000000000000000000000000000081526004810183905273ffffffffffffffffffffffffffffffffffffffff82811660248301527f000000000000000000000000000000000000000000000000000000000000000016906393552a3d9060440160206040518083038186803b158015610e2357600080fd5b505afa158015610e37573d6000803e3d6000fd5b505050506040513d601f19601f82011682018060405250810190610e5b91906139b8565b73ffffffffffffffffffffffffffffffffffffffff9190911660009081526001602090815260408083209483529390529190912080547fffffffffffffffffffffffffffffffffffffffffffffffffffffffffffffff0016911515919091179055565b6060610ec933612940565b610f55576040517f08c379a000000000000000000000000000000000000000000000000000000000815260206004820152603e60248201527f43616c6c696e6720636f6e7472616374206973206e6f7420617574686f72697a60448201527f656420746f20747261646520776974682070726f746f636c2066756e6473000060648201526084016106ad565b6060610f95878686868080602002602001604051908101604052809392919081815260200183836020028082843760009201919091525061297b92505050565b9092509050610d8b8287838787612cbe565b600080610ff2606860009081526020527faa071f48f62aaaa1f6320aaa7bd2ad2d552d05160892c14d699d38c9920d5f995473ffffffffffffffffffffffffffffffffffffffff1690565b6040517f409fdb7200000000000000000000000000000000000000000000000000000000815233600482015273ffffffffffffffffffffffffffffffffffffffff919091169063409fdb729060240160006040518083038186803b15801561105957600080fd5b505afa15801561106d573d6000803e3d6000fd5b505050506040513d6000823e601f3d9081017fffffffffffffffffffffffffffffffffffffffffffffffffffffffffffffffe01682016040526110b391908101906138f2565b915091506110ff606860009081526020527faa071f48f62aaaa1f6320aaa7bd2ad2d552d05160892c14d699d38c9920d5f995473ffffffffffffffffffffffffffffffffffffffff1690565b6040517fdb2d904d00000000000000000000000000000000000000000000000000000000815233600482015273ffffffffffffffffffffffffffffffffffffffff919091169063db2d904d90602401600060405180830381600087803b15801561116857600080fd5b505af115801561117c573d6000803e3d6000fd5b5050505060005b80835111156112dc57606560009081526020527f4a7203f705e51df4a56139a9b86b4a0970bed7ab7a3446eaffe2289989c1645c5473ffffffffffffffffffffffffffffffffffffffff1673ffffffffffffffffffffffffffffffffffffffff1663d9caed1284838151811061120957634e487b7160e01b600052603260045260246000fd5b60200260200101513385858151811061123257634e487b7160e01b600052603260045260246000fd5b60209081029190910101516040517fffffffff0000000000000000000000000000000000000000000000000000000060e086901b16815273ffffffffffffffffffffffffffffffffffffffff93841660048201529290911660248301526044820152606401600060405180830381600087803b1580156112b157600080fd5b505af11580156112c5573d6000803e3d6000fd5b5050505080806112d490613dd4565b915050611183565b5060405133907fe7b1fae3a790ceab07642c09617df79428b02832cd512bbfdd4db50272dcdf3090600090a25050565b6060610d8b858585858080602002602001604051908101604052809392919081815260200183836020028082843760009201919091525061297b92505050565b606560009081526020527f4a7203f705e51df4a56139a9b86b4a0970bed7ab7a3446eaffe2289989c1645c5473ffffffffffffffffffffffffffffffffffffffff1673ffffffffffffffffffffffffffffffffffffffff1663a6a5f9fe346040518263ffffffff1660e01b81526004016000604051808303818588803b1580156113d557600080fd5b505af11580156113e9573d6000803e3d6000fd5b50505050506000611438606860009081526020527faa071f48f62aaaa1f6320aaa7bd2ad2d552d05160892c14d699d38c9920d5f995473ffffffffffffffffffffffffffffffffffffffff1690565b6040517f52a664d900000000000000000000000000000000000000000000000000000000815233600482015273ffffffffffffffffffffffffffffffffffffffff7f00000000000000000000000000000000000000000000000000000000000000008116602483015234604483015291909116906352a664d990606401602060405180830381600087803b1580156114cf57600080fd5b505af11580156114e3573d6000803e3d6000fd5b505050506040513d601f19601f820116820180604052508101906115079190613a3e565b9050801561162657606660009081526020527f422cccb7cea5c0e46f340bb7b21b81debac329f72e31669c20ff0f3a05cc2b5b5473ffffffffffffffffffffffffffffffffffffffff166040517f2a6a897b00000000000000000000000000000000000000000000000000000000815273ffffffffffffffffffffffffffffffffffffffff7f000000000000000000000000000000000000000000000000000000000000000081166004830152602482018490529190911690632a6a897b90604401600060405180830381600087803b1580156115e357600080fd5b505af11580156115f7573d6000803e3d6000fd5b505050506116267f000000000000000000000000000000000000000000000000000000000000000033836128e7565b60405133907fe7b1fae3a790ceab07642c09617df79428b02832cd512bbfdd4db50272dcdf3090600090a250565b6060610d8b8585858580806020026020016040519081016040528093929190818152602001838360200280828437600092019190915250611f7992505050565b606560009081526020527f4a7203f705e51df4a56139a9b86b4a0970bed7ab7a3446eaffe2289989c1645c5473ffffffffffffffffffffffffffffffffffffffff166040517fb3db428b00000000000000000000000000000000000000000000000000000000815233600482015273ffffffffffffffffffffffffffffffffffffffff868116602483015260448201869052919091169063b3db428b90606401600060405180830381600087803b15801561174e57600080fd5b505af1158015611762573d6000803e3d6000fd5b50506066600090815260205250507f422cccb7cea5c0e46f340bb7b21b81debac329f72e31669c20ff0f3a05cc2b5b5473ffffffffffffffffffffffffffffffffffffffff166040517fee0862bf00000000000000000000000000000000000000000000000000000000815273ffffffffffffffffffffffffffffffffffffffff848116600483015260248201849052919091169063ee0862bf90604401600060405180830381600087803b15801561181a57600080fd5b505af115801561182e573d6000803e3d6000fd5b50506068600090815260205250507faa071f48f62aaaa1f6320aaa7bd2ad2d552d05160892c14d699d38c9920d5f995473ffffffffffffffffffffffffffffffffffffffff166040517f1d84cc1800000000000000000000000000000000000000000000000000000000815233600482015273ffffffffffffffffffffffffffffffffffffffff8681166024830152604482018690528481166064830152608482018490529190911690631d84cc189060a401600060405180830381600087803b1580156118fb57600080fd5b505af115801561190f573d6000803e3d6000fd5b50506065600090815260205250507f4a7203f705e51df4a56139a9b86b4a0970bed7ab7a3446eaffe2289989c1645c5473ffffffffffffffffffffffffffffffffffffffff166040517fd9caed1200000000000000000000000000000000000000000000000000000000815273ffffffffffffffffffffffffffffffffffffffff848116600483015233602483015260448201849052919091169063d9caed1290606401600060405180830381600087803b1580156119cd57600080fd5b505af11580156119e1573d6000803e3d6000fd5b505050506119f0823383612d75565b60405133907fe7b1fae3a790ceab07642c09617df79428b02832cd512bbfdd4db50272dcdf3090600090a250505050565b606860009081526020527faa071f48f62aaaa1f6320aaa7bd2ad2d552d05160892c14d699d38c9920d5f995473ffffffffffffffffffffffffffffffffffffffff166040517fd0eb665300000000000000000000000000000000000000000000000000000000815233600482015273ffffffffffffffffffffffffffffffffffffffff848116602483015260448201849052919091169063d0eb665390606401600060405180830381600087803b158015611adb57600080fd5b505af1158015611aef573d6000803e3d6000fd5b50506065600090815260205250507f4a7203f705e51df4a56139a9b86b4a0970bed7ab7a3446eaffe2289989c1645c5473ffffffffffffffffffffffffffffffffffffffff166040517fd9caed1200000000000000000000000000000000000000000000000000000000815273ffffffffffffffffffffffffffffffffffffffff848116600483015233602483015260448201849052919091169063d9caed1290606401600060405180830381600087803b158015611bad57600080fd5b505af1158015611bc1573d6000803e3d6000fd5b50506040513392507fe7b1fae3a790ceab07642c09617df79428b02832cd512bbfdd4db50272dcdf309150600090a25050565b60608142811015611c61576040517f08c379a000000000000000000000000000000000000000000000000000000000815260206004820152601160248201527f547261646520686173206578706972656400000000000000000000000000000060448201526064016106ad565b6060611cb3611c6f8a612dc5565b611c79908b613d13565b8888888080602002602001604051908101604052809392919081815260200183836020028082843760009201919091525061297b92505050565b9093509050611d5e338787600081611cdb57634e487b7160e01b600052603260045260246000fd5b9050602002016020810190611cf09190613841565b8888611cfd600182613d88565b818110611d1a57634e487b7160e01b600052603260045260246000fd5b9050602002016020810190611d2f9190613841565b86600081518110611d5057634e487b7160e01b600052603260045260246000fd5b60200260200101518d6122a4565b611d6b8389838989612cbe565b50509695505050505050565b606660009081526020527f422cccb7cea5c0e46f340bb7b21b81debac329f72e31669c20ff0f3a05cc2b5b5473ffffffffffffffffffffffffffffffffffffffff166040517fee0862bf00000000000000000000000000000000000000000000000000000000815273ffffffffffffffffffffffffffffffffffffffff848116600483015260248201849052919091169063ee0862bf90604401600060405180830381600087803b158015611e2b57600080fd5b505af1158015611e3f573d6000803e3d6000fd5b50506068600090815260205250507faa071f48f62aaaa1f6320aaa7bd2ad2d552d05160892c14d699d38c9920d5f995473ffffffffffffffffffffffffffffffffffffffff166040517f498d55eb00000000000000000000000000000000000000000000000000000000815233600482015273ffffffffffffffffffffffffffffffffffffffff848116602483015260448201849052919091169063498d55eb90606401600060405180830381600087803b158015611efd57600080fd5b505af1158015611f11573d6000803e3d6000fd5b50505050611f20823383612d75565b60405133907fe7b1fae3a790ceab07642c09617df79428b02832cd512bbfdd4db50272dcdf3090600090a25050565b6000611f5e600a612710613d13565b611f6983600a613d4b565b611f739190613d2b565b92915050565b606080600283511015611fe8576040517f08c379a000000000000000000000000000000000000000000000000000000000815260206004820152601460248201527f746f6b656e207061746820746f6f2073686f727400000000000000000000000060448201526064016106ad565b825167ffffffffffffffff81111561201057634e487b7160e01b600052604160045260246000fd5b604051908082528060200260200182016040528015612039578160200160208202803683370190505b509150848260008151811061205e57634e487b7160e01b600052603260045260246000fd5b602002602001018181525050600183516120789190613d88565b67ffffffffffffffff81111561209e57634e487b7160e01b600052604160045260246000fd5b6040519080825280602002602001820160405280156120c7578160200160208202803683370190505b50905060005b600184516120db9190613d88565b81101561229b57600084828151811061210457634e487b7160e01b600052603260045260246000fd5b6020026020010151905060008583600161211e9190613d13565b8151811061213c57634e487b7160e01b600052603260045260246000fd5b60200260200101519050600087846020811061216857634e487b7160e01b600052603260045260246000fd5b1a60f81b7fff0000000000000000000000000000000000000000000000000000000000000016156121a25761219d8383612dd5565b6121ac565b6121ac8383612f0f565b9050808585815181106121cf57634e487b7160e01b600052603260045260246000fd5b602002602001019073ffffffffffffffffffffffffffffffffffffffff16908173ffffffffffffffffffffffffffffffffffffffff168152505060008061221783868661300a565b9150915061224d88878151811061223e57634e487b7160e01b600052603260045260246000fd5b6020026020010151838361310e565b88612259886001613d13565b8151811061227757634e487b7160e01b600052603260045260246000fd5b6020026020010181815250505050505050808061229390613dd4565b9150506120cd565b50935093915050565b6000806122ef606860009081526020527faa071f48f62aaaa1f6320aaa7bd2ad2d552d05160892c14d699d38c9920d5f995473ffffffffffffffffffffffffffffffffffffffff1690565b6040517f3500aa0b00000000000000000000000000000000000000000000000000000000815273ffffffffffffffffffffffffffffffffffffffff89811660048301528881166024830152878116604483015260648201879052608482018690529190911690633500aa0b9060a4016040805180830381600087803b15801561237757600080fd5b505af115801561238b573d6000803e3d6000fd5b505050506040513d601f19601f820116820180604052508101906123af9190613ad6565b9092509050811561249157606660009081526020527f422cccb7cea5c0e46f340bb7b21b81debac329f72e31669c20ff0f3a05cc2b5b5473ffffffffffffffffffffffffffffffffffffffff166040517f2a6a897b00000000000000000000000000000000000000000000000000000000815273ffffffffffffffffffffffffffffffffffffffff8781166004830152602482018590529190911690632a6a897b90604401600060405180830381600087803b15801561246e57600080fd5b505af1158015612482573d6000803e3d6000fd5b505050506124918588846128e7565b801561256e57606660009081526020527f422cccb7cea5c0e46f340bb7b21b81debac329f72e31669c20ff0f3a05cc2b5b5473ffffffffffffffffffffffffffffffffffffffff166040517fee0862bf00000000000000000000000000000000000000000000000000000000815273ffffffffffffffffffffffffffffffffffffffff888116600483015260248201849052919091169063ee0862bf90604401600060405180830381600087803b15801561254b57600080fd5b505af115801561255f573d6000803e3d6000fd5b5050505061256e868883612d75565b60405173ffffffffffffffffffffffffffffffffffffffff8816907fe7b1fae3a790ceab07642c09617df79428b02832cd512bbfdd4db50272dcdf3090600090a26040805173ffffffffffffffffffffffffffffffffffffffff8881168252878116602083015291810186905260608101859052908816907f610a6fcfd0e5da3e1f98054761ba753182ff6f350467da719cae9d94e5f541369060800160405180910390a250505050505050565b83856001875161262c9190613d88565b8151811061264a57634e487b7160e01b600052603260045260246000fd5b602002602001015110156126e0576040517f08c379a000000000000000000000000000000000000000000000000000000000815260206004820152602860248201527f4d617267696e526f757465723a20494e53554646494349454e545f4f5554505560448201527f545f414d4f554e5400000000000000000000000000000000000000000000000060648201526084016106ad565b606560009081526020527f4a7203f705e51df4a56139a9b86b4a0970bed7ab7a3446eaffe2289989c1645c5473ffffffffffffffffffffffffffffffffffffffff1673ffffffffffffffffffffffffffffffffffffffff1663d9caed128383600081811061275e57634e487b7160e01b600052603260045260246000fd5b90506020020160208101906127739190613841565b8560008151811061279457634e487b7160e01b600052603260045260246000fd5b6020026020010151886000815181106127bd57634e487b7160e01b600052603260045260246000fd5b60209081029190910101516040517fffffffff0000000000000000000000000000000000000000000000000000000060e086901b16815273ffffffffffffffffffffffffffffffffffffffff93841660048201529290911660248301526044820152606401600060405180830381600087803b15801561283c57600080fd5b505af1158015612850573d6000803e3d6000fd5b5050505061289b858484848080602002602001604051908101604052809392919081815260200183836020028082843760009201919091525061289692506128a2915050565b613263565b5050505050565b606560009081526020527f4a7203f705e51df4a56139a9b86b4a0970bed7ab7a3446eaffe2289989c1645c5473ffffffffffffffffffffffffffffffffffffffff1690565b6040805173ffffffffffffffffffffffffffffffffffffffff8581168252602082018490528416917f3397b60e3ca1e9c0c75a033d62ab8731e9b2937c0690ae5d7f1bd37886b19d7d91015b60405180910390a2505050565b73ffffffffffffffffffffffffffffffffffffffff811660009081526001602090815260408083206007845290915290205460ff165b919050565b6060806002835110156129ea576040517f08c379a000000000000000000000000000000000000000000000000000000000815260206004820152601460248201527f746f6b656e207061746820746f6f2073686f727400000000000000000000000060448201526064016106ad565b825167ffffffffffffffff811115612a1257634e487b7160e01b600052604160045260246000fd5b604051908082528060200260200182016040528015612a3b578160200160208202803683370190505b509150848260018451612a4e9190613d88565b81518110612a6c57634e487b7160e01b600052603260045260246000fd5b60200260200101818152505060018351612a869190613d88565b67ffffffffffffffff811115612aac57634e487b7160e01b600052604160045260246000fd5b604051908082528060200260200182016040528015612ad5578160200160208202803683370190505b509050600060018451612ae89190613d88565b90505b801561229b57600084612aff600184613d88565b81518110612b1d57634e487b7160e01b600052603260045260246000fd5b602002602001015190506000858381518110612b4957634e487b7160e01b600052603260045260246000fd5b60200260200101519050600087600185612b639190613d88565b60208110612b8157634e487b7160e01b600052603260045260246000fd5b1a60f81b7fff000000000000000000000000000000000000000000000000000000000000001615612bbb57612bb68383612dd5565b612bc5565b612bc58383612f0f565b90508085612bd4600187613d88565b81518110612bf257634e487b7160e01b600052603260045260246000fd5b602002602001019073ffffffffffffffffffffffffffffffffffffffff16908173ffffffffffffffffffffffffffffffffffffffff1681525050600080612c3a83868661300a565b91509150612c70888781518110612c6157634e487b7160e01b600052603260045260246000fd5b602002602001015183836134b8565b88612c7c600189613d88565b81518110612c9a57634e487b7160e01b600052603260045260246000fd5b60200260200101818152505050505050508080612cb690613d9f565b915050612aeb565b8385600081518110612ce057634e487b7160e01b600052603260045260246000fd5b602002602001015111156126e0576040517f08c379a0000000000000000000000000000000000000000000000000000000008152602060048201526024808201527f4d617267696e526f757465723a204558434553534956455f494e5055545f414d60448201527f4f554e540000000000000000000000000000000000000000000000000000000060648201526084016106ad565b6040805173ffffffffffffffffffffffffffffffffffffffff8581168252602082018490528416917f8ec70c9430377a4bba035133e27a5b0f3b9951bc080833f6832bcbbb70a96dba9101612933565b6000612710611f6983600a613d4b565b6000806000612de48585613612565b6040517fffffffffffffffffffffffffffffffffffffffff000000000000000000000000606084811b8216602084015283901b16603482015291935091507f00000000000000000000000000000000000000000000000000000000000000009060480160405160208183030381529060405280519060200120600354604051602001612ed0939291907fff00000000000000000000000000000000000000000000000000000000000000815260609390931b7fffffffffffffffffffffffffffffffffffffffff0000000000000000000000001660018401526015830191909152603582015260550190565b604080517fffffffffffffffffffffffffffffffffffffffffffffffffffffffffffffffe0818403018152919052805160209091012095945050505050565b6000806000612f1e8585613612565b6040517fffffffffffffffffffffffffffffffffffffffff000000000000000000000000606084811b8216602084015283901b16603482015291935091507f00000000000000000000000000000000000000000000000000000000000000009060480160405160208183030381529060405280519060200120600254604051602001612ed0939291907fff00000000000000000000000000000000000000000000000000000000000000815260609390931b7fffffffffffffffffffffffffffffffffffffffff0000000000000000000000001660018401526015830191909152603582015260550190565b60008060006130198585613612565b5090506000808773ffffffffffffffffffffffffffffffffffffffff16630902f1ac6040518163ffffffff1660e01b815260040160606040518083038186803b15801561306557600080fd5b505afa158015613079573d6000803e3d6000fd5b505050506040513d601f19601f8201168201806040525081019061309d91906139d8565b506dffffffffffffffffffffffffffff1691506dffffffffffffffffffffffffffff1691508273ffffffffffffffffffffffffffffffffffffffff168773ffffffffffffffffffffffffffffffffffffffff16146130fc5780826130ff565b81815b90999098509650505050505050565b6000808411613179576040517f08c379a000000000000000000000000000000000000000000000000000000000815260206004820152601960248201527f494e53554646494349454e545f494e5055545f414d4f554e540000000000000060448201526064016106ad565b6000831180156131895750600082115b613215576040517f08c379a000000000000000000000000000000000000000000000000000000000815260206004820152602860248201527f556e697377617056324c6962726172793a20494e53554646494349454e545f4c60448201527f495155494449545900000000000000000000000000000000000000000000000060648201526084016106ad565b6000613223856103e5613d4b565b905060006132318483613d4b565b9050600082613242876103e8613d4b565b61324c9190613d13565b90506132588183613d2b565b979650505050505050565b60005b835181101561289b5760008084838151811061329257634e487b7160e01b600052603260045260246000fd5b6020026020010151858460016132a89190613d13565b815181106132c657634e487b7160e01b600052603260045260246000fd5b60200260200101519150915060006132de8383613612565b5090506000886132ef866001613d13565b8151811061330d57634e487b7160e01b600052603260045260246000fd5b602002602001015190506000808373ffffffffffffffffffffffffffffffffffffffff168673ffffffffffffffffffffffffffffffffffffffff161461335557826000613359565b6000835b91509150600060018b5161336d9190613d88565b881061337957886133ac565b8a613385896001613d13565b815181106133a357634e487b7160e01b600052603260045260246000fd5b60200260200101515b905060008b89815181106133d057634e487b7160e01b600052603260045260246000fd5b602002602001015190508073ffffffffffffffffffffffffffffffffffffffff1663022c0d9f858585600067ffffffffffffffff81111561342157634e487b7160e01b600052604160045260246000fd5b6040519080825280601f01601f19166020018201604052801561344b576020820181803683370190505b506040518563ffffffff1660e01b815260040161346b9493929190613c03565b600060405180830381600087803b15801561348557600080fd5b505af1158015613499573d6000803e3d6000fd5b50505050505050505050505080806134b090613dd4565b915050613266565b6000808411613523576040517f08c379a000000000000000000000000000000000000000000000000000000000815260206004820152601a60248201527f494e53554646494349454e545f4f55545055545f414d4f554e5400000000000060448201526064016106ad565b6000831180156135335750600082115b6135bf576040517f08c379a000000000000000000000000000000000000000000000000000000000815260206004820152602860248201527f556e697377617056324c6962726172793a20494e53554646494349454e545f4c60448201527f495155494449545900000000000000000000000000000000000000000000000060648201526084016106ad565b60006135cb8585613d4b565b6135d7906103e8613d4b565b905060006135e58685613d88565b6135f1906103e5613d4b565b90506135fd8183613d2b565b613608906001613d13565b9695505050505050565b6000808273ffffffffffffffffffffffffffffffffffffffff168473ffffffffffffffffffffffffffffffffffffffff1614156136ab576040517f08c379a000000000000000000000000000000000000000000000000000000000815260206004820152601260248201527f4964656e746963616c206164647265737321000000000000000000000000000060448201526064016106ad565b8273ffffffffffffffffffffffffffffffffffffffff168473ffffffffffffffffffffffffffffffffffffffff16106136e55782846136e8565b83835b909250905073ffffffffffffffffffffffffffffffffffffffff821661376a576040517f08c379a000000000000000000000000000000000000000000000000000000000815260206004820152600d60248201527f5a65726f2061646472657373210000000000000000000000000000000000000060448201526064016106ad565b9250929050565b60008083601f840112613782578182fd5b50813567ffffffffffffffff811115613799578182fd5b6020830191508360208260051b850101111561376a57600080fd5b600082601f8301126137c4578081fd5b815160206137d96137d483613cef565b613ca0565b80838252828201915082860187848660051b89010111156137f8578586fd5b855b85811015613816578151845292840192908401906001016137fa565b5090979650505050505050565b80516dffffffffffffffffffffffffffff8116811461297657600080fd5b600060208284031215613852578081fd5b813561385d81613e39565b9392505050565b600060208284031215613875578081fd5b815161385d81613e39565b60008060408385031215613892578081fd5b823561389d81613e39565b946020939093013593505050565b600080600080608085870312156138c0578182fd5b84356138cb81613e39565b93506020850135925060408501356138e281613e39565b9396929550929360600135925050565b60008060408385031215613904578182fd5b825167ffffffffffffffff8082111561391b578384fd5b818501915085601f83011261392e578384fd5b8151602061393e6137d483613cef565b8083825282820191508286018a848660051b890101111561395d578889fd5b8896505b8487101561398857805161397481613e39565b835260019690960195918301918301613961565b50918801519196509093505050808211156139a1578283fd5b506139ae858286016137b4565b9150509250929050565b6000602082840312156139c9578081fd5b8151801515811461385d578182fd5b6000806000606084860312156139ec578283fd5b6139f584613823565b9250613a0360208501613823565b9150604084015163ffffffff81168114613a1b578182fd5b809150509250925092565b600060208284031215613a37578081fd5b5035919050565b600060208284031215613a4f578081fd5b5051919050565b60008060408385031215613a68578182fd5b823591506020830135613a7a81613e39565b809150509250929050565b60008060008060608587031215613a9a578384fd5b8435935060208501359250604085013567ffffffffffffffff811115613abe578283fd5b613aca87828801613771565b95989497509550505050565b60008060408385031215613ae8578182fd5b505080516020909101519092909150565b600080600080600060808688031215613b10578283fd5b853594506020860135935060408601359250606086013567ffffffffffffffff811115613b3b578182fd5b613b4788828901613771565b969995985093965092949392505050565b60008060008060008060a08789031215613b70578384fd5b863595506020870135945060408701359350606087013567ffffffffffffffff811115613b9b578182fd5b613ba789828a01613771565b979a9699509497949695608090950135949350505050565b6020808252825182820181905260009190848201906040850190845b81811015613bf757835183529284019291840191600101613bdb565b50909695505050505050565b60008582526020858184015273ffffffffffffffffffffffffffffffffffffffff85166040840152608060608401528351806080850152825b81811015613c585785810183015185820160a001528201613c3c565b81811115613c69578360a083870101525b50601f017fffffffffffffffffffffffffffffffffffffffffffffffffffffffffffffffe0169290920160a0019695505050505050565b604051601f82017fffffffffffffffffffffffffffffffffffffffffffffffffffffffffffffffe016810167ffffffffffffffff81118282101715613ce757613ce7613e23565b604052919050565b600067ffffffffffffffff821115613d0957613d09613e23565b5060051b60200190565b60008219821115613d2657613d26613e0d565b500190565b600082613d4657634e487b7160e01b81526012600452602481fd5b500490565b6000817fffffffffffffffffffffffffffffffffffffffffffffffffffffffffffffffff0483118215151615613d8357613d83613e0d565b500290565b600082821015613d9a57613d9a613e0d565b500390565b600081613dae57613dae613e0d565b507fffffffffffffffffffffffffffffffffffffffffffffffffffffffffffffffff0190565b60007fffffffffffffffffffffffffffffffffffffffffffffffffffffffffffffffff821415613e0657613e06613e0d565b5060010190565b634e487b7160e01b600052601160045260246000fd5b634e487b7160e01b600052604160045260246000fd5b73ffffffffffffffffffffffffffffffffffffffff81168114613e5b57600080fd5b5056fea26469706673582212208d2006b810e5311efa75429e9980860000d3f086a2a3c23ee738f51a4e474d9664736f6c63430008030033",
  "linkReferences": {},
  "deployedLinkReferences": {}
}