{
  "_format": "hh-sol-artifact-1",
  "contractName": "Lending",
  "sourceName": "contracts/Lending.sol",
  "abi": [
    {
      "inputs": [
        {
          "internalType": "address",
          "name": "_roles",
          "type": "address"
        }
      ],
      "stateMutability": "nonpayable",
      "type": "constructor"
    },
    {
      "inputs": [
        {
          "internalType": "address",
          "name": "issuer",
          "type": "address"
        }
      ],
      "name": "activateIssuer",
      "outputs": [],
      "stateMutability": "nonpayable",
      "type": "function"
    },
    {
      "inputs": [
        {
          "internalType": "address",
          "name": "issuer",
          "type": "address"
        },
        {
          "internalType": "address",
          "name": "token",
          "type": "address"
        }
      ],
      "name": "activateIssuer",
      "outputs": [],
      "stateMutability": "nonpayable",
      "type": "function"
    },
    {
      "inputs": [
        {
          "internalType": "address",
          "name": "",
          "type": "address"
        }
      ],
      "name": "activeIssuers",
      "outputs": [
        {
          "internalType": "bool",
          "name": "",
          "type": "bool"
        }
      ],
      "stateMutability": "view",
      "type": "function"
    },
    {
      "inputs": [
        {
          "internalType": "uint256",
          "name": "balance",
          "type": "uint256"
        },
        {
          "internalType": "address",
          "name": "issuer",
          "type": "address"
        },
        {
          "internalType": "uint256",
          "name": "yieldQuotientFP",
          "type": "uint256"
        }
      ],
      "name": "applyBorrowInterest",
      "outputs": [
        {
          "internalType": "uint256",
          "name": "balanceWithInterest",
          "type": "uint256"
        },
        {
          "internalType": "uint256",
          "name": "accumulatorFP",
          "type": "uint256"
        }
      ],
      "stateMutability": "nonpayable",
      "type": "function"
    },
    {
      "inputs": [
        {
          "internalType": "address",
          "name": "",
          "type": "address"
        }
      ],
      "name": "borrowYieldAccumulators",
      "outputs": [
        {
          "internalType": "uint256",
          "name": "accumulatorFP",
          "type": "uint256"
        },
        {
          "internalType": "uint256",
          "name": "lastUpdated",
          "type": "uint256"
        },
        {
          "internalType": "uint256",
          "name": "hourlyYieldFP",
          "type": "uint256"
        }
      ],
      "stateMutability": "view",
      "type": "function"
    },
    {
      "inputs": [],
      "name": "borrowingFactorPercent",
      "outputs": [
        {
          "internalType": "uint256",
          "name": "",
          "type": "uint256"
        }
      ],
      "stateMutability": "view",
      "type": "function"
    },
    {
      "inputs": [
        {
          "internalType": "address",
          "name": "issuer",
          "type": "address"
        },
        {
          "internalType": "uint256",
          "name": "amount",
          "type": "uint256"
        }
      ],
      "name": "buyHourlyBondSubscription",
      "outputs": [],
      "stateMutability": "nonpayable",
      "type": "function"
    },
    {
      "inputs": [
        {
          "internalType": "address",
          "name": "issuer",
          "type": "address"
        }
      ],
      "name": "closeHourlyBondAccount",
      "outputs": [],
      "stateMutability": "nonpayable",
      "type": "function"
    },
    {
      "inputs": [
        {
          "internalType": "address",
          "name": "issuer",
          "type": "address"
        }
      ],
      "name": "deactivateIssuer",
      "outputs": [],
      "stateMutability": "nonpayable",
      "type": "function"
    },
    {
      "inputs": [
        {
          "internalType": "address",
          "name": "issuer",
          "type": "address"
        }
      ],
      "name": "getUpdatedBorrowYieldAccuFP",
      "outputs": [
        {
          "internalType": "uint256",
          "name": "",
          "type": "uint256"
        }
      ],
      "stateMutability": "nonpayable",
      "type": "function"
    },
    {
      "inputs": [
        {
          "internalType": "uint256",
          "name": "amount",
          "type": "uint256"
        }
      ],
      "name": "haircut",
      "outputs": [],
      "stateMutability": "nonpayable",
      "type": "function"
    },
    {
      "inputs": [
        {
          "internalType": "address",
          "name": "",
          "type": "address"
        }
      ],
      "name": "haircuts",
      "outputs": [
        {
          "internalType": "uint256",
          "name": "",
          "type": "uint256"
        }
      ],
      "stateMutability": "view",
      "type": "function"
    },
    {
      "inputs": [],
      "name": "highRatePerPercent",
      "outputs": [
        {
          "internalType": "uint256",
          "name": "",
          "type": "uint256"
        }
      ],
      "stateMutability": "view",
      "type": "function"
    },
    {
      "inputs": [
        {
          "internalType": "address",
          "name": "",
          "type": "address"
        },
        {
          "internalType": "address",
          "name": "",
          "type": "address"
        }
      ],
      "name": "hourlyBondAccounts",
      "outputs": [
        {
          "internalType": "uint256",
          "name": "amount",
          "type": "uint256"
        },
        {
          "internalType": "uint256",
          "name": "yieldQuotientFP",
          "type": "uint256"
        },
        {
          "internalType": "uint256",
          "name": "moduloHour",
          "type": "uint256"
        }
      ],
      "stateMutability": "view",
      "type": "function"
    },
    {
      "inputs": [
        {
          "internalType": "address",
          "name": "",
          "type": "address"
        }
      ],
      "name": "incentiveTranches",
      "outputs": [
        {
          "internalType": "uint256",
          "name": "",
          "type": "uint256"
        }
      ],
      "stateMutability": "view",
      "type": "function"
    },
    {
      "inputs": [
        {
          "internalType": "address",
          "name": "issuer",
          "type": "address"
        }
      ],
      "name": "initBorrowYieldAccumulator",
      "outputs": [],
      "stateMutability": "nonpayable",
      "type": "function"
    },
    {
      "inputs": [
        {
          "internalType": "address",
          "name": "",
          "type": "address"
        }
      ],
      "name": "issuerTokens",
      "outputs": [
        {
          "internalType": "address",
          "name": "",
          "type": "address"
        }
      ],
      "stateMutability": "view",
      "type": "function"
    },
    {
      "inputs": [
        {
          "internalType": "address",
          "name": "",
          "type": "address"
        }
      ],
      "name": "lendingMeta",
      "outputs": [
        {
          "internalType": "uint256",
          "name": "totalLending",
          "type": "uint256"
        },
        {
          "internalType": "uint256",
          "name": "totalBorrowed",
          "type": "uint256"
        },
        {
          "internalType": "uint256",
          "name": "lendingCap",
          "type": "uint256"
        }
      ],
      "stateMutability": "view",
      "type": "function"
    },
    {
      "inputs": [
        {
          "internalType": "uint256",
          "name": "",
          "type": "uint256"
        }
      ],
      "name": "mainCharacterCache",
      "outputs": [
        {
          "internalType": "address",
          "name": "",
          "type": "address"
        }
      ],
      "stateMutability": "view",
      "type": "function"
    },
    {
      "inputs": [
        {
          "internalType": "address",
          "name": "issuer",
          "type": "address"
        },
        {
          "internalType": "address",
          "name": "holder",
          "type": "address"
        },
        {
          "internalType": "uint256",
          "name": "amount",
          "type": "uint256"
        }
      ],
      "name": "makeFallbackBond",
      "outputs": [],
      "stateMutability": "nonpayable",
      "type": "function"
    },
    {
      "inputs": [],
      "name": "normalRatePerPercent",
      "outputs": [
        {
          "internalType": "uint256",
          "name": "",
          "type": "uint256"
        }
      ],
      "stateMutability": "view",
      "type": "function"
    },
    {
      "inputs": [
        {
          "internalType": "address",
          "name": "issuer",
          "type": "address"
        },
        {
          "internalType": "uint256",
          "name": "amount",
          "type": "uint256"
        }
      ],
      "name": "payOff",
      "outputs": [],
      "stateMutability": "nonpayable",
      "type": "function"
    },
    {
      "inputs": [
        {
          "internalType": "address",
          "name": "issuer",
          "type": "address"
        },
        {
          "internalType": "uint256",
          "name": "amount",
          "type": "uint256"
        }
      ],
      "name": "registerBorrow",
      "outputs": [],
      "stateMutability": "nonpayable",
      "type": "function"
    },
    {
      "inputs": [
        {
          "internalType": "address",
          "name": "issuer",
          "type": "address"
        },
        {
          "internalType": "uint256",
          "name": "amount",
          "type": "uint256"
        }
      ],
      "name": "registerLend",
      "outputs": [],
      "stateMutability": "nonpayable",
      "type": "function"
    },
    {
      "inputs": [
        {
          "internalType": "address",
          "name": "issuer",
          "type": "address"
        },
        {
          "internalType": "uint256",
          "name": "amount",
          "type": "uint256"
        }
      ],
      "name": "registerWithdrawal",
      "outputs": [],
      "stateMutability": "nonpayable",
      "type": "function"
    },
    {
      "inputs": [
        {
          "internalType": "address",
          "name": "",
          "type": "address"
        },
        {
          "internalType": "uint256",
          "name": "",
          "type": "uint256"
        }
      ],
      "name": "roleCache",
      "outputs": [
        {
          "internalType": "bool",
          "name": "",
          "type": "bool"
        }
      ],
      "stateMutability": "view",
      "type": "function"
    },
    {
      "inputs": [],
      "name": "roles",
      "outputs": [
        {
          "internalType": "contract Roles",
          "name": "",
          "type": "address"
        }
      ],
      "stateMutability": "view",
      "type": "function"
    },
    {
      "inputs": [
        {
          "internalType": "uint256",
          "name": "borrowingFactor",
          "type": "uint256"
        }
      ],
      "name": "setBorrowingFactorPercent",
      "outputs": [],
      "stateMutability": "nonpayable",
      "type": "function"
    },
    {
      "inputs": [
        {
          "internalType": "uint256",
          "name": "rate",
          "type": "uint256"
        }
      ],
      "name": "setHighRatePerPercent",
      "outputs": [],
      "stateMutability": "nonpayable",
      "type": "function"
    },
    {
      "inputs": [
        {
          "internalType": "address",
          "name": "issuer",
          "type": "address"
        },
        {
          "internalType": "uint256",
          "name": "aprPercent",
          "type": "uint256"
        }
      ],
      "name": "setHourlyYieldAPR",
      "outputs": [],
      "stateMutability": "nonpayable",
      "type": "function"
    },
    {
      "inputs": [
        {
          "internalType": "address",
          "name": "token",
          "type": "address"
        },
        {
          "internalType": "uint8",
          "name": "tranche",
          "type": "uint8"
        }
      ],
      "name": "setIncentiveTranche",
      "outputs": [],
      "stateMutability": "nonpayable",
      "type": "function"
    },
    {
      "inputs": [
        {
          "internalType": "address",
          "name": "issuer",
          "type": "address"
        },
        {
          "internalType": "uint256",
          "name": "cap",
          "type": "uint256"
        }
      ],
      "name": "setLendingCap",
      "outputs": [],
      "stateMutability": "nonpayable",
      "type": "function"
    },
    {
      "inputs": [
        {
          "internalType": "uint256",
          "name": "rate",
          "type": "uint256"
        }
      ],
      "name": "setNormalRatePerPercent",
      "outputs": [],
      "stateMutability": "nonpayable",
      "type": "function"
    },
    {
      "inputs": [
        {
          "internalType": "uint256",
          "name": "window",
          "type": "uint256"
        }
      ],
      "name": "setWithdrawalWindow",
      "outputs": [],
      "stateMutability": "nonpayable",
      "type": "function"
    },
    {
      "inputs": [
        {
          "internalType": "address",
          "name": "issuer",
          "type": "address"
        }
      ],
      "name": "updateHourlyYield",
      "outputs": [
        {
          "internalType": "uint256",
          "name": "hourlyYield",
          "type": "uint256"
        }
      ],
      "stateMutability": "nonpayable",
      "type": "function"
    },
    {
      "inputs": [
        {
          "internalType": "uint256",
          "name": "role",
          "type": "uint256"
        }
      ],
      "name": "updateMainCharacterCache",
      "outputs": [],
      "stateMutability": "nonpayable",
      "type": "function"
    },
    {
      "inputs": [
        {
          "internalType": "uint256",
          "name": "role",
          "type": "uint256"
        },
        {
          "internalType": "address",
          "name": "contr",
          "type": "address"
        }
      ],
      "name": "updateRoleCache",
      "outputs": [],
      "stateMutability": "nonpayable",
      "type": "function"
    },
    {
      "inputs": [
        {
          "internalType": "address",
          "name": "issuer",
          "type": "address"
        }
      ],
      "name": "viewAccumulatedBorrowingYieldFP",
      "outputs": [
        {
          "internalType": "uint256",
          "name": "",
          "type": "uint256"
        }
      ],
      "stateMutability": "view",
      "type": "function"
    },
    {
      "inputs": [
        {
          "internalType": "address",
          "name": "issuer",
          "type": "address"
        }
      ],
      "name": "viewBorrowAPRPer10k",
      "outputs": [
        {
          "internalType": "uint256",
          "name": "",
          "type": "uint256"
        }
      ],
      "stateMutability": "view",
      "type": "function"
    },
    {
      "inputs": [
        {
          "internalType": "address",
          "name": "issuer",
          "type": "address"
        }
      ],
      "name": "viewHourlyBondAPRPer10k",
      "outputs": [
        {
          "internalType": "uint256",
          "name": "",
          "type": "uint256"
        }
      ],
      "stateMutability": "view",
      "type": "function"
    },
    {
      "inputs": [
        {
          "internalType": "address",
          "name": "issuer",
          "type": "address"
        },
        {
          "internalType": "address",
          "name": "holder",
          "type": "address"
        }
      ],
      "name": "viewHourlyBondAmount",
      "outputs": [
        {
          "internalType": "uint256",
          "name": "",
          "type": "uint256"
        }
      ],
      "stateMutability": "view",
      "type": "function"
    },
    {
      "inputs": [
        {
          "internalType": "uint256",
          "name": "balance",
          "type": "uint256"
        },
        {
          "internalType": "address",
          "name": "issuer",
          "type": "address"
        },
        {
          "internalType": "uint256",
          "name": "yieldQuotientFP",
          "type": "uint256"
        }
      ],
      "name": "viewWithBorrowInterest",
      "outputs": [
        {
          "internalType": "uint256",
          "name": "",
          "type": "uint256"
        }
      ],
      "stateMutability": "view",
      "type": "function"
    },
    {
      "inputs": [
        {
          "internalType": "address",
          "name": "issuer",
          "type": "address"
        },
        {
          "internalType": "uint256",
          "name": "amount",
          "type": "uint256"
        }
      ],
      "name": "withdrawHourlyBond",
      "outputs": [],
      "stateMutability": "nonpayable",
      "type": "function"
    },
    {
      "inputs": [],
      "name": "withdrawalWindow",
      "outputs": [
        {
          "internalType": "uint256",
          "name": "",
          "type": "uint256"
        }
      ],
      "stateMutability": "view",
      "type": "function"
    }
  ],
  "bytecode": "0x60a06040526064604f6122386200001f6601000000000000600f6200019d565b6200002b91906200017c565b6200003791906200017c565b6200004391906200017c565b600055606462000055604f82620001bf565b6122386200006c660100000000000060b36200019d565b6200007891906200017c565b6200008491906200017c565b6200009091906200017c565b6001556104b060075560c8600955348015620000ab57600080fd5b506040516200321538038062003215833981016040819052620000ce916200014c565b806001600160a01b038116620001355760405162461bcd60e51b815260206004820152602260248201527f506c656173652070726f766964652076616c696420726f6c6573206164647265604482015261737360f01b606482015260840160405180910390fd5b60601b6001600160601b03191660805250620001ef565b6000602082840312156200015e578081fd5b81516001600160a01b038116811462000175578182fd5b9392505050565b6000826200019857634e487b7160e01b81526012600452602481fd5b500490565b6000816000190483118215151615620001ba57620001ba620001d9565b500290565b600082821015620001d457620001d4620001d9565b500390565b634e487b7160e01b600052601160045260246000fd5b60805160601c612feb6200022a600039600081816103fc015281816107bb01528181610d1d0152818161280a01526128af0152612feb6000f3fe608060405234801561001057600080fd5b50600436106102f45760003560e01c80637a1a04df11610191578063db41039f116100e3578063ebe64bcc11610097578063f848767311610071578063f848767314610753578063f884614b14610766578063f90889c914610779576102f4565b8063ebe64bcc1461071a578063ee0862bf1461072d578063f51dfe7a14610740576102f4565b8063e695fa68116100c8578063e695fa68146106b3578063e69e2662146106db578063e9c3f77d146106e4576102f4565b8063db41039f1461068d578063dc683bcf146106a0576102f4565b8063ae4479dd11610145578063d19bd0a71161011f578063d19bd0a71461065e578063d2b4893414610667578063d4437dd81461067a576102f4565b8063ae4479dd14610609578063cc4b26a31461061c578063cd3b5dfb1461062f576102f4565b80638824cbba116101765780638824cbba146105a857806391b46e05146105c8578063ad037af6146105db576102f4565b80637a1a04df1461052557806383a0422914610553576102f4565b806346c87f801161024a5780636e60e249116101fe57806376c308f2116101d857806376c308f2146104d6578063797384b2146104df5780637a00913514610512576102f4565b80636e60e2491461049d57806372d01257146104b057806376668b67146104c3576102f4565b80634b86daab1161022f5780634b86daab1461045757806364f85ab11461046a5780636d8d36ba1461048a576102f4565b806346c87f801461043157806349d0e2ee14610444576102f4565b806328108026116102ac578063369539121161028657806336953912146103e4578063392f5f64146103f7578063447d52ba1461041e576102f4565b806328108026146103635780632864f401146103be5780632a6a897b146103d1576102f4565b806314189db2116102dd57806314189db21461032157806316de7a4314610347578063267031b81461035a576102f4565b8063071060a6146102f95780630f7c43dc1461030e575b600080fd5b61030c610307366004612e06565b61078c565b005b61030c61031c366004612d89565b61089d565b61033461032f366004612cd9565b610942565b6040519081526020015b60405180910390f35b61030c610355366004612d89565b610978565b61033460095481565b610399610371366004612cd9565b600b6020526000908152604090205473ffffffffffffffffffffffffffffffffffffffff1681565b60405173ffffffffffffffffffffffffffffffffffffffff909116815260200161033e565b61030c6103cc366004612db4565b610a31565b61030c6103df366004612d89565b610b59565b61030c6103f2366004612e06565b610c1f565b6103997f000000000000000000000000000000000000000000000000000000000000000081565b61030c61042c366004612e1e565b610cd1565b61033461043f366004612cd9565b610dfa565b61030c610452366004612e06565b610e2f565b61030c610465366004612cd9565b610ee1565b610334610478366004612cd9565b600c6020526000908152604090205481565b61030c610498366004612d89565b610eee565b6103346104ab366004612d11565b611079565b6103346104be366004612cd9565b611100565b6103346104d1366004612e42565b61112e565b61033460005481565b6105026104ed366004612cd9565b600d6020526000908152604090205460ff1681565b604051901515815260200161033e565b61030c610520366004612cd9565b611175565b610502610533366004612d89565b600560209081526000928352604080842090915290825290205460ff1681565b61058d610561366004612d11565b600860209081526000928352604080842090915290825290208054600182015460029092015490919083565b6040805193845260208401929092529082015260600161033e565b6103346105b6366004612cd9565b600a6020526000908152604090205481565b61030c6105d6366004612e06565b6112ba565b61058d6105e9366004612cd9565b600260208190526000918252604090912080546001820154919092015483565b61030c610617366004612d89565b61136c565b61030c61062a366004612cd9565b6114b9565b61058d61063d366004612cd9565b60036020526000908152604090208054600182015460029092015490919083565b61033460075481565b61030c610675366004612d89565b611678565b61030c610688366004612e06565b61179e565b61030c61069b366004612d49565b6117c5565b6103346106ae366004612cd9565b611855565b6106c66106c1366004612e42565b611892565b6040805192835260208301919091520161033e565b61033460015481565b6103996106f2366004612e06565b60046020526000908152604090205473ffffffffffffffffffffffffffffffffffffffff1681565b61030c610728366004612d11565b6119b4565b61030c61073b366004612d89565b611b35565b61033461074e366004612cd9565b611d2b565b61030c610761366004612e06565b611d59565b61030c610774366004612cd9565b611e0b565b61030c610787366004612d89565b611ea9565b6040517fb4ed0b6d000000000000000000000000000000000000000000000000000000008152600481018290527f000000000000000000000000000000000000000000000000000000000000000073ffffffffffffffffffffffffffffffffffffffff169063b4ed0b6d9060240160206040518083038186803b15801561081257600080fd5b505afa158015610826573d6000803e3d6000fd5b505050506040513d601f19601f8201168201806040525081019061084a9190612cf5565b60009182526004602052604090912080547fffffffffffffffffffffffff00000000000000000000000000000000000000001673ffffffffffffffffffffffffffffffffffffffff909216919091179055565b73ffffffffffffffffffffffffffffffffffffffff8216600090815260086020908152604080832033845290915290206108d783826120bb565b6108e2838284612165565b80546109275773ffffffffffffffffffffffffffffffffffffffff83166000908152600860209081526040808320338452909152812081815560018101829055600201555b610932833384612271565b61093d338484612449565b505050565b73ffffffffffffffffffffffffffffffffffffffff81166000908152600360205260408120610971814261254e565b9392505050565b73ffffffffffffffffffffffffffffffffffffffff82166000908152600d602052604090205460ff16610a0c576040517f08c379a000000000000000000000000000000000000000000000000000000000815260206004820152601360248201527f4e6f7420617070726f766564206973737565720000000000000000000000000060448201526064015b60405180910390fd5b610a1782338361258f565b610a22823383612668565b610a2d338383612742565b5050565b33610a3a612806565b73ffffffffffffffffffffffffffffffffffffffff161480610a78575033610a606128ab565b73ffffffffffffffffffffffffffffffffffffffff16145b80610a9e57503360009081526005602090815260408083206009845290915290205460ff165b610b2a576040517f08c379a000000000000000000000000000000000000000000000000000000000815260206004820152603960248201527f43616c6c6572206973206e6f7420746865206f776e65722c206578656375746f60448201527f72206f7220617574686f72697a656420616374697661746f72000000000000006064820152608401610a03565b73ffffffffffffffffffffffffffffffffffffffff9091166000908152600a6020526040902060ff9091169055565b3360009081526005602090815260408083206003845290915290205460ff16610bde576040517f08c379a000000000000000000000000000000000000000000000000000000000815260206004820152601560248201527f4e6f7420617070726f76656420626f72726f77657200000000000000000000006044820152606401610a03565b73ffffffffffffffffffffffffffffffffffffffff821660009081526002602052604081206001018054839290610c16908490612ed1565b90915550505050565b33610c28612806565b73ffffffffffffffffffffffffffffffffffffffff161480610c66575033610c4e6128ab565b73ffffffffffffffffffffffffffffffffffffffff16145b610ccc576040517f08c379a000000000000000000000000000000000000000000000000000000000815260206004820152601e60248201527f526f6c65733a2063616c6c6572206973206e6f7420746865206f776e657200006044820152606401610a03565b600755565b6040517f93552a3d0000000000000000000000000000000000000000000000000000000081526004810183905273ffffffffffffffffffffffffffffffffffffffff82811660248301527f000000000000000000000000000000000000000000000000000000000000000016906393552a3d9060440160206040518083038186803b158015610d5f57600080fd5b505afa158015610d73573d6000803e3d6000fd5b505050506040513d601f19601f82011682018060405250810190610d979190612de6565b73ffffffffffffffffffffffffffffffffffffffff9190911660009081526005602090815260408083209483529390529190912080547fffffffffffffffffffffffffffffffffffffffffffffffffffffffffffffff0016911515919091179055565b73ffffffffffffffffffffffffffffffffffffffff81166000908152600360205260408120610e2881612929565b5492915050565b33610e38612806565b73ffffffffffffffffffffffffffffffffffffffff161480610e76575033610e5e6128ab565b73ffffffffffffffffffffffffffffffffffffffff16145b610edc576040517f08c379a000000000000000000000000000000000000000000000000000000000815260206004820152601e60248201527f526f6c65733a2063616c6c6572206973206e6f7420746865206f776e657200006044820152606401610a03565b600155565b610eeb81826119b4565b50565b336000908152600560209081526040808320600b845290915290205460ff16610f73576040517f08c379a000000000000000000000000000000000000000000000000000000000815260206004820152601660248201527f4e6f7420616e20617070726f766564206c656e646572000000000000000000006044820152606401610a03565b73ffffffffffffffffffffffffffffffffffffffff82166000908152600d602052604090205460ff16611002576040517f08c379a000000000000000000000000000000000000000000000000000000000815260206004820152601360248201527f4e6f7420617070726f76656420697373756572000000000000000000000000006044820152606401610a03565b73ffffffffffffffffffffffffffffffffffffffff8216600090815260026020526040812080549091839183919061103b908490612ed1565b909155505073ffffffffffffffffffffffffffffffffffffffff831660009081526006602052604090206110739084906104b061295d565b50505050565b73ffffffffffffffffffffffffffffffffffffffff80831660008181526008602090815260408083209486168352938152838220600181015493835260069091529281209092919083906110cd904261254e565b905081156110ec5782546110e2908284612a8f565b93505050506110fa565b50505490506110fa565b5050505b92915050565b73ffffffffffffffffffffffffffffffffffffffff811660009081526006602052604081206110fa90612aae565b73ffffffffffffffffffffffffffffffffffffffff82166000908152600360205260408120819061115f904261254e565b905061116c858285612a8f565b95945050505050565b3361117e612806565b73ffffffffffffffffffffffffffffffffffffffff1614806111bc5750336111a46128ab565b73ffffffffffffffffffffffffffffffffffffffff16145b806111e257503360009081526005602090815260408083206009845290915290205460ff165b61126e576040517f08c379a000000000000000000000000000000000000000000000000000000000815260206004820152603960248201527f43616c6c6572206973206e6f7420746865206f776e65722c206578656375746f60448201527f72206f7220617574686f72697a656420616374697661746f72000000000000006064820152608401610a03565b73ffffffffffffffffffffffffffffffffffffffff166000908152600d6020526040902080547fffffffffffffffffffffffffffffffffffffffffffffffffffffffffffffff00169055565b336112c3612806565b73ffffffffffffffffffffffffffffffffffffffff1614806113015750336112e96128ab565b73ffffffffffffffffffffffffffffffffffffffff16145b611367576040517f08c379a000000000000000000000000000000000000000000000000000000000815260206004820152601e60248201527f526f6c65733a2063616c6c6572206973206e6f7420746865206f776e657200006044820152606401610a03565b600955565b336000908152600560209081526040808320600b845290915290205460ff166113f1576040517f08c379a000000000000000000000000000000000000000000000000000000000815260206004820152601660248201527f4e6f7420616e20617070726f766564206c656e646572000000000000000000006044820152606401610a03565b73ffffffffffffffffffffffffffffffffffffffff82166000908152600d602052604090205460ff16611480576040517f08c379a000000000000000000000000000000000000000000000000000000000815260206004820152601360248201527f4e6f7420617070726f76656420697373756572000000000000000000000000006044820152606401610a03565b73ffffffffffffffffffffffffffffffffffffffff8216600090815260026020526040812080549091839183919061103b908490612e68565b336114c2612806565b73ffffffffffffffffffffffffffffffffffffffff1614806115005750336114e86128ab565b73ffffffffffffffffffffffffffffffffffffffff16145b8061152657503360009081526005602090815260408083206009845290915290205460ff165b6115b2576040517f08c379a000000000000000000000000000000000000000000000000000000000815260206004820152603960248201527f43616c6c6572206973206e6f7420746865206f776e65722c206578656375746f60448201527f72206f7220617574686f72697a656420616374697661746f72000000000000006064820152608401610a03565b73ffffffffffffffffffffffffffffffffffffffff81166000908152600360205260409020805415611640576040517f08c379a000000000000000000000000000000000000000000000000000000000815260206004820152601360248201527f646f6e27742072652d696e697469616c697a65000000000000000000000000006044820152606401610a03565b660100000000000080825542600183015561165e9061223890612e80565b61166f906601000000000000612e68565b60029091015550565b33611681612806565b73ffffffffffffffffffffffffffffffffffffffff1614806116bf5750336116a76128ab565b73ffffffffffffffffffffffffffffffffffffffff16145b806116e557503360009081526005602090815260408083206009845290915290205460ff165b611771576040517f08c379a000000000000000000000000000000000000000000000000000000000815260206004820152603960248201527f43616c6c6572206973206e6f7420746865206f776e65722c206578656375746f60448201527f72206f7220617574686f72697a656420616374697661746f72000000000000006064820152608401610a03565b73ffffffffffffffffffffffffffffffffffffffff90911660009081526002602081905260409091200155565b336000908152600c6020526040812080548392906117bd908490612e68565b909155505050565b336000908152600560209081526040808320600b845290915290205460ff1661184a576040517f08c379a000000000000000000000000000000000000000000000000000000000815260206004820152601660248201527f4e6f7420616e20617070726f766564206c656e646572000000000000000000006044820152606401610a03565b61093d838383612668565b73ffffffffffffffffffffffffffffffffffffffff811660009081526006602052604081206118889083906104b061295d565b6002015492915050565b33600090815260056020908152604080832060038452909152812054819060ff16611919576040517f08c379a000000000000000000000000000000000000000000000000000000000815260206004820152601160248201527f4e6f7420617070726f7665642063616c6c0000000000000000000000000000006044820152606401610a03565b73ffffffffffffffffffffffffffffffffffffffff8416600090815260036020526040902061194781612929565b80549150611956868386612a8f565b925060006119648785612ed1565b73ffffffffffffffffffffffffffffffffffffffff8716600090815260026020526040812060018101805493945090928492906119a2908490612e68565b92505081905550505050935093915050565b336119bd612806565b73ffffffffffffffffffffffffffffffffffffffff1614806119fb5750336119e36128ab565b73ffffffffffffffffffffffffffffffffffffffff16145b80611a2157503360009081526005602090815260408083206009845290915290205460ff165b611aad576040517f08c379a000000000000000000000000000000000000000000000000000000000815260206004820152603960248201527f43616c6c6572206973206e6f7420746865206f776e65722c206578656375746f60448201527f72206f7220617574686f72697a656420616374697661746f72000000000000006064820152608401610a03565b73ffffffffffffffffffffffffffffffffffffffff9182166000908152600d6020908152604080832080547fffffffffffffffffffffffffffffffffffffffffffffffffffffffffffffff00166001179055600b90915290208054919092167fffffffffffffffffffffffff0000000000000000000000000000000000000000909116179055565b3360009081526005602090815260408083206003845290915290205460ff16611bba576040517f08c379a000000000000000000000000000000000000000000000000000000000815260206004820152601560248201527f4e6f7420617070726f76656420626f72726f77657200000000000000000000006044820152606401610a03565b73ffffffffffffffffffffffffffffffffffffffff82166000908152600d602052604090205460ff16611c49576040517f08c379a000000000000000000000000000000000000000000000000000000000815260206004820152601360248201527f4e6f7420617070726f76656420697373756572000000000000000000000000006044820152606401610a03565b73ffffffffffffffffffffffffffffffffffffffff8216600090815260026020526040812060018101805491928492611c83908490612e68565b909155505073ffffffffffffffffffffffffffffffffffffffff83166000908152600660205260409020611cbb908490610e1061295d565b5060018101548154101561093d576040517f08c379a000000000000000000000000000000000000000000000000000000000815260206004820152601460248201527f496e73756666696369656e74206c656e64696e670000000000000000000000006044820152606401610a03565b73ffffffffffffffffffffffffffffffffffffffff811660009081526003602052604081206110fa90612aae565b33611d62612806565b73ffffffffffffffffffffffffffffffffffffffff161480611da0575033611d886128ab565b73ffffffffffffffffffffffffffffffffffffffff16145b611e06576040517f08c379a000000000000000000000000000000000000000000000000000000000815260206004820152601e60248201527f526f6c65733a2063616c6c6572206973206e6f7420746865206f776e657200006044820152606401610a03565b600055565b73ffffffffffffffffffffffffffffffffffffffff811660009081526008602090815260408083203384529091529020611e4582826120bb565b8054611e52838383612165565b611e5d833383612271565b73ffffffffffffffffffffffffffffffffffffffff831660009081526008602090815260408083203380855292528220828155600181018390556002019190915561093d908483612449565b33611eb2612806565b73ffffffffffffffffffffffffffffffffffffffff161480611ef0575033611ed86128ab565b73ffffffffffffffffffffffffffffffffffffffff16145b80611f1657503360009081526005602090815260408083206009845290915290205460ff165b611fa2576040517f08c379a000000000000000000000000000000000000000000000000000000000815260206004820152603960248201527f43616c6c6572206973206e6f7420746865206f776e65722c206578656375746f60448201527f72206f7220617574686f72697a656420616374697661746f72000000000000006064820152608401610a03565b73ffffffffffffffffffffffffffffffffffffffff82166000908152600660205260409020805461206b5760006122386064611fe5856601000000000000612e94565b611fef9190612e80565b611ff99190612e80565b61200a906601000000000000612e68565b604080516060810182526601000000000000815242602080830191825282840194855273ffffffffffffffffffffffffffffffffffffffff89166000908152600690915292909220905181559051600182015590516002909101555061093d565b600061207a84836104b061295d565b9050612238606461208b8582612e68565b61209c906601000000000000612e94565b6120a69190612e80565b6120b09190612e80565b600290910155505050565b6001810154801561093d5773ffffffffffffffffffffffffffffffffffffffff831660009081526006602052604081206120f99085906104b061295d565b835481549192509061210d90829085612a8f565b80855560009061211e908390612ed1565b73ffffffffffffffffffffffffffffffffffffffff8716600090815260026020526040812080549293508392909190612158908490612e68565b9091555050505050505050565b6000610e1083600201544261217a9190612ed1565b6121849190612f21565b9050806007541015612218576040517f08c379a000000000000000000000000000000000000000000000000000000000815260206004820152603f60248201527f5472696564207769746864726177696e67206f7574736964652073756273637260448201527f697074696f6e2063616e63656c6c6174696f6e2074696d652077696e646f77006064820152608401610a03565b8183600001600082825461222c9190612ed1565b909155505073ffffffffffffffffffffffffffffffffffffffff841660009081526002602052604081208054849290612266908490612ed1565b909155505050505050565b73ffffffffffffffffffffffffffffffffffffffff83166000908152600c602052604090205480158015906122a65750600082115b1561233f5773ffffffffffffffffffffffffffffffffffffffff841660009081526002602052604081205490816122dd8185612b0e565b6122e79086612e94565b6122f19190612e80565b90506122fd8185612ed1565b73ffffffffffffffffffffffffffffffffffffffff87166000908152600c6020526040812080549296508392909190612337908490612ed1565b909155505050505b73ffffffffffffffffffffffffffffffffffffffff8085166000908152600b6020526040902054166123af606560005260046020527ffe4d1297c5434445a55041cf44037c0799556cc55064da684dc6eed1a5dccabf5473ffffffffffffffffffffffffffffffffffffffff1690565b6040517fd9caed1200000000000000000000000000000000000000000000000000000000815273ffffffffffffffffffffffffffffffffffffffff8381166004830152868116602483015260448201869052919091169063d9caed12906064015b600060405180830381600087803b15801561242a57600080fd5b505af115801561243e573d6000803e3d6000fd5b505050505050505050565b73ffffffffffffffffffffffffffffffffffffffff82166000908152600a60205260409020546124b7606c60005260046020527f8b685361ee213407f41a019b5dbc17edecc44c9f276819680a1bcb10c2f13bb85473ffffffffffffffffffffffffffffffffffffffff1690565b6040517fc6c9faa10000000000000000000000000000000000000000000000000000000081526004810183905273ffffffffffffffffffffffffffffffffffffffff868116602483015260448201859052919091169063c6c9faa190606401600060405180830381600087803b15801561253057600080fd5b505af1158015612544573d6000803e3d6000fd5b5050505050505050565b6000808360010154836125619190612ed1565b90506104b081111561257f576125778482612b26565b9150506110fa565b505081546110fa565b5092915050565b606560005260046020527ffe4d1297c5434445a55041cf44037c0799556cc55064da684dc6eed1a5dccabf5473ffffffffffffffffffffffffffffffffffffffff166040517fb3db428b00000000000000000000000000000000000000000000000000000000815273ffffffffffffffffffffffffffffffffffffffff8481166004830152858116602483015260448201849052919091169063b3db428b90606401600060405180830381600087803b15801561264b57600080fd5b505af115801561265f573d6000803e3d6000fd5b50505050505050565b73ffffffffffffffffffffffffffffffffffffffff80841660009081526008602090815260408083209386168352929052206126a484826120bb565b73ffffffffffffffffffffffffffffffffffffffff841660009081526006602052604090208054600183015581546126e8576126e2610e1042612f21565b60028301555b828260000160008282546126fc9190612e68565b909155505073ffffffffffffffffffffffffffffffffffffffff851660009081526002602052604081208054859290612736908490612e68565b90915550505050505050565b600061278c606c60005260046020527f8b685361ee213407f41a019b5dbc17edecc44c9f276819680a1bcb10c2f13bb85473ffffffffffffffffffffffffffffffffffffffff1690565b73ffffffffffffffffffffffffffffffffffffffff8481166000908152600a6020526040908190205490517f2b5de286000000000000000000000000000000000000000000000000000000008152600481018290528783166024820152604481018690529293509190831690632b5de28690606401612410565b60007f000000000000000000000000000000000000000000000000000000000000000073ffffffffffffffffffffffffffffffffffffffff16638da5cb5b6040518163ffffffff1660e01b815260040160206040518083038186803b15801561286e57600080fd5b505afa158015612882573d6000803e3d6000fd5b505050506040513d601f19601f820116820180604052508101906128a69190612cf5565b905090565b60007f000000000000000000000000000000000000000000000000000000000000000073ffffffffffffffffffffffffffffffffffffffff1663c34c08e56040518163ffffffff1660e01b8152600401602060405180830381600087803b15801561291557600080fd5b505af1158015612882573d6000803e3d6000fd5b600081600101544261293b9190612ed1565b90506104b0811115610a2d576129518282612b26565b82554260018301555050565b6001820154600090816129708242612ed1565b905083811115612a855773ffffffffffffffffffffffffffffffffffffffff861660009081526003602052604090206129a98683612b26565b865573ffffffffffffffffffffffffffffffffffffffff87166000908152600260205260409020805460018201546129e19190612c3e565b60028801554260018801556129f582612929565b612a7a6122386064612a0f66010000000000006006612e94565b612a199190612e80565b612a239190612e80565b612a34906601000000000000612e68565b606466010000000000008a60020154612a4d9190612ed1565b600954612a5a9190612e94565b612a649190612e80565b612a75906601000000000000612e68565b612cc1565b826002018190555050505b5092949350505050565b600081612a9c8486612e94565b612aa69190612e80565b949350505050565b600281015460009081610e10612acd6601000000000000612710612e94565b612ad984612710612e94565b612ae39190612ed1565b612af1906301e13380612e94565b612afb9190612e80565b9050612aa6660100000000000082612e80565b600081831115612b1f5750806110fa565b50816110fa565b600080612b35610e1084612f21565b9050612b4a6601000000000000610e10612e94565b8166010000000000008660020154612b629190612ed1565b8654612b6e9190612e94565b612b789190612e94565b612b829190612e80565b8454612b8e9190612e68565b91506000612b9e610e1085612e80565b90508015612c36578260005b8083118015612bb95750806004115b15612bf4576601000000000000876002015486612bd69190612e94565b612be09190612e80565b945080612bec81612ee8565b915050612baa565b5060048211156110f6576004612c0a8184612ed1565b612c148387612ed1565b612c1e9190612e94565b612c289190612e80565b612c329085612e68565b9350505b505092915050565b6601000000000000600083612c54846064612e94565b612c5e9190612e80565b9050604f811015612c8757600054612c769082612e94565b612c809083612e68565b9150612588565b600154612c95604f83612ed1565b612c9f9190612e94565b600054612cad90604f612e94565b612cb79190612e68565b612aa69083612e68565b600081831115612cd25750816110fa565b50806110fa565b600060208284031215612cea578081fd5b813561097181612f93565b600060208284031215612d06578081fd5b815161097181612f93565b60008060408385031215612d23578081fd5b8235612d2e81612f93565b91506020830135612d3e81612f93565b809150509250929050565b600080600060608486031215612d5d578081fd5b8335612d6881612f93565b92506020840135612d7881612f93565b929592945050506040919091013590565b60008060408385031215612d9b578182fd5b8235612da681612f93565b946020939093013593505050565b60008060408385031215612dc6578182fd5b8235612dd181612f93565b9150602083013560ff81168114612d3e578182fd5b600060208284031215612df7578081fd5b81518015158114610971578182fd5b600060208284031215612e17578081fd5b5035919050565b60008060408385031215612e30578182fd5b823591506020830135612d3e81612f93565b600080600060608486031215612e56578283fd5b833592506020840135612d7881612f93565b60008219821115612e7b57612e7b612f35565b500190565b600082612e8f57612e8f612f64565b500490565b6000817fffffffffffffffffffffffffffffffffffffffffffffffffffffffffffffffff0483118215151615612ecc57612ecc612f35565b500290565b600082821015612ee357612ee3612f35565b500390565b60007fffffffffffffffffffffffffffffffffffffffffffffffffffffffffffffffff821415612f1a57612f1a612f35565b5060010190565b600082612f3057612f30612f64565b500690565b7f4e487b7100000000000000000000000000000000000000000000000000000000600052601160045260246000fd5b7f4e487b7100000000000000000000000000000000000000000000000000000000600052601260045260246000fd5b73ffffffffffffffffffffffffffffffffffffffff81168114610eeb57600080fdfea26469706673582212203488cd6014dc81368eadad206f64c017fee5f0a17a71caae125bdfd6310f56e564736f6c63430008030033",
  "linkReferences": {},
  "deployedLinkReferences": {}
}