{
  "_format": "hh-sol-artifact-1",
  "contractName": "Lending",
  "sourceName": "contracts/Lending.sol",
  "abi": [
    {
      "inputs": [
        {
          "internalType": "address",
          "name": "_roles",
          "type": "address"
        }
      ],
      "stateMutability": "nonpayable",
      "type": "constructor"
    },
    {
      "anonymous": false,
      "inputs": [
        {
          "indexed": true,
          "internalType": "address",
          "name": "issuer",
          "type": "address"
        },
        {
          "indexed": true,
          "internalType": "address",
          "name": "holder",
          "type": "address"
        },
        {
          "indexed": false,
          "internalType": "uint256",
          "name": "value",
          "type": "uint256"
        }
      ],
      "name": "LiquidityWarning",
      "type": "event"
    },
    {
      "inputs": [],
      "name": "WEIGHT_TOTAL_10k",
      "outputs": [
        {
          "internalType": "uint256",
          "name": "",
          "type": "uint256"
        }
      ],
      "stateMutability": "view",
      "type": "function"
    },
    {
      "inputs": [
        {
          "internalType": "address",
          "name": "issuer",
          "type": "address"
        }
      ],
      "name": "activateIssuer",
      "outputs": [],
      "stateMutability": "nonpayable",
      "type": "function"
    },
    {
      "inputs": [
        {
          "internalType": "address",
          "name": "issuer",
          "type": "address"
        },
        {
          "internalType": "address",
          "name": "token",
          "type": "address"
        }
      ],
      "name": "activateIssuer",
      "outputs": [],
      "stateMutability": "nonpayable",
      "type": "function"
    },
    {
      "inputs": [
        {
          "internalType": "address",
          "name": "",
          "type": "address"
        }
      ],
      "name": "activeIssuers",
      "outputs": [
        {
          "internalType": "bool",
          "name": "",
          "type": "bool"
        }
      ],
      "stateMutability": "view",
      "type": "function"
    },
    {
      "inputs": [
        {
          "internalType": "uint256",
          "name": "balance",
          "type": "uint256"
        },
        {
          "internalType": "address",
          "name": "issuer",
          "type": "address"
        },
        {
          "internalType": "uint256",
          "name": "yieldQuotientFP",
          "type": "uint256"
        }
      ],
      "name": "applyBorrowInterest",
      "outputs": [
        {
          "internalType": "uint256",
          "name": "balanceWithInterest",
          "type": "uint256"
        },
        {
          "internalType": "uint256",
          "name": "accumulatorFP",
          "type": "uint256"
        }
      ],
      "stateMutability": "nonpayable",
      "type": "function"
    },
    {
      "inputs": [
        {
          "internalType": "address",
          "name": "",
          "type": "address"
        },
        {
          "internalType": "uint256",
          "name": "",
          "type": "uint256"
        }
      ],
      "name": "bondBucketMetadata",
      "outputs": [
        {
          "internalType": "uint256",
          "name": "runtimeWeight",
          "type": "uint256"
        },
        {
          "internalType": "uint256",
          "name": "buyingSpeed",
          "type": "uint256"
        },
        {
          "internalType": "uint256",
          "name": "lastBought",
          "type": "uint256"
        },
        {
          "internalType": "uint256",
          "name": "withdrawingSpeed",
          "type": "uint256"
        },
        {
          "internalType": "uint256",
          "name": "lastWithdrawn",
          "type": "uint256"
        },
        {
          "internalType": "uint256",
          "name": "yieldLastUpdated",
          "type": "uint256"
        },
        {
          "internalType": "uint256",
          "name": "totalLending",
          "type": "uint256"
        },
        {
          "internalType": "uint256",
          "name": "runtimeYieldFP",
          "type": "uint256"
        }
      ],
      "stateMutability": "view",
      "type": "function"
    },
    {
      "inputs": [
        {
          "internalType": "address",
          "name": "",
          "type": "address"
        },
        {
          "internalType": "uint256",
          "name": "",
          "type": "uint256"
        }
      ],
      "name": "bondIds",
      "outputs": [
        {
          "internalType": "uint256",
          "name": "",
          "type": "uint256"
        }
      ],
      "stateMutability": "view",
      "type": "function"
    },
    {
      "inputs": [
        {
          "internalType": "uint256",
          "name": "",
          "type": "uint256"
        }
      ],
      "name": "bonds",
      "outputs": [
        {
          "internalType": "address",
          "name": "holder",
          "type": "address"
        },
        {
          "internalType": "address",
          "name": "issuer",
          "type": "address"
        },
        {
          "internalType": "uint256",
          "name": "originalPrice",
          "type": "uint256"
        },
        {
          "internalType": "uint256",
          "name": "returnAmount",
          "type": "uint256"
        },
        {
          "internalType": "uint256",
          "name": "maturityTimestamp",
          "type": "uint256"
        },
        {
          "internalType": "uint256",
          "name": "runtime",
          "type": "uint256"
        },
        {
          "internalType": "uint256",
          "name": "yieldFP",
          "type": "uint256"
        }
      ],
      "stateMutability": "view",
      "type": "function"
    },
    {
      "inputs": [
        {
          "internalType": "address",
          "name": "",
          "type": "address"
        }
      ],
      "name": "borrowYieldAccumulators",
      "outputs": [
        {
          "internalType": "uint256",
          "name": "accumulatorFP",
          "type": "uint256"
        },
        {
          "internalType": "uint256",
          "name": "lastUpdated",
          "type": "uint256"
        },
        {
          "internalType": "uint256",
          "name": "hourlyYieldFP",
          "type": "uint256"
        }
      ],
      "stateMutability": "view",
      "type": "function"
    },
    {
      "inputs": [],
      "name": "borrowingFactorPercent",
      "outputs": [
        {
          "internalType": "uint256",
          "name": "",
          "type": "uint256"
        }
      ],
      "stateMutability": "view",
      "type": "function"
    },
    {
      "inputs": [
        {
          "internalType": "address",
          "name": "issuer",
          "type": "address"
        },
        {
          "internalType": "uint256",
          "name": "runtime",
          "type": "uint256"
        },
        {
          "internalType": "uint256",
          "name": "amount",
          "type": "uint256"
        },
        {
          "internalType": "uint256",
          "name": "minReturn",
          "type": "uint256"
        }
      ],
      "name": "buyBond",
      "outputs": [
        {
          "internalType": "uint256",
          "name": "bondIndex",
          "type": "uint256"
        }
      ],
      "stateMutability": "nonpayable",
      "type": "function"
    },
    {
      "inputs": [
        {
          "internalType": "address",
          "name": "issuer",
          "type": "address"
        },
        {
          "internalType": "uint256",
          "name": "amount",
          "type": "uint256"
        }
      ],
      "name": "buyHourlyBondSubscription",
      "outputs": [],
      "stateMutability": "nonpayable",
      "type": "function"
    },
    {
      "inputs": [
        {
          "internalType": "address",
          "name": "issuer",
          "type": "address"
        }
      ],
      "name": "closeHourlyBondAccount",
      "outputs": [],
      "stateMutability": "nonpayable",
      "type": "function"
    },
    {
      "inputs": [
        {
          "internalType": "address",
          "name": "issuer",
          "type": "address"
        }
      ],
      "name": "deactivateIssuer",
      "outputs": [],
      "stateMutability": "nonpayable",
      "type": "function"
    },
    {
      "inputs": [],
      "name": "diffMaxMinRuntime",
      "outputs": [
        {
          "internalType": "uint256",
          "name": "",
          "type": "uint256"
        }
      ],
      "stateMutability": "view",
      "type": "function"
    },
    {
      "inputs": [
        {
          "internalType": "address",
          "name": "issuer",
          "type": "address"
        }
      ],
      "name": "getUpdatedBorrowYieldAccuFP",
      "outputs": [
        {
          "internalType": "uint256",
          "name": "",
          "type": "uint256"
        }
      ],
      "stateMutability": "nonpayable",
      "type": "function"
    },
    {
      "inputs": [
        {
          "internalType": "uint256",
          "name": "amount",
          "type": "uint256"
        }
      ],
      "name": "haircut",
      "outputs": [],
      "stateMutability": "nonpayable",
      "type": "function"
    },
    {
      "inputs": [
        {
          "internalType": "address",
          "name": "",
          "type": "address"
        }
      ],
      "name": "haircuts",
      "outputs": [
        {
          "internalType": "uint256",
          "name": "",
          "type": "uint256"
        }
      ],
      "stateMutability": "view",
      "type": "function"
    },
    {
      "inputs": [
        {
          "internalType": "address",
          "name": "",
          "type": "address"
        },
        {
          "internalType": "address",
          "name": "",
          "type": "address"
        }
      ],
      "name": "hourlyBondAccounts",
      "outputs": [
        {
          "internalType": "uint256",
          "name": "amount",
          "type": "uint256"
        },
        {
          "internalType": "uint256",
          "name": "yieldQuotientFP",
          "type": "uint256"
        },
        {
          "internalType": "uint256",
          "name": "moduloHour",
          "type": "uint256"
        }
      ],
      "stateMutability": "view",
      "type": "function"
    },
    {
      "inputs": [
        {
          "internalType": "address",
          "name": "",
          "type": "address"
        }
      ],
      "name": "incentiveTranches",
      "outputs": [
        {
          "internalType": "uint256",
          "name": "",
          "type": "uint256"
        }
      ],
      "stateMutability": "view",
      "type": "function"
    },
    {
      "inputs": [
        {
          "internalType": "address",
          "name": "issuer",
          "type": "address"
        }
      ],
      "name": "initBorrowYieldAccumulator",
      "outputs": [],
      "stateMutability": "nonpayable",
      "type": "function"
    },
    {
      "inputs": [
        {
          "internalType": "address",
          "name": "",
          "type": "address"
        }
      ],
      "name": "issuerTokens",
      "outputs": [
        {
          "internalType": "address",
          "name": "",
          "type": "address"
        }
      ],
      "stateMutability": "view",
      "type": "function"
    },
    {
      "inputs": [
        {
          "internalType": "address",
          "name": "",
          "type": "address"
        }
      ],
      "name": "lendingMeta",
      "outputs": [
        {
          "internalType": "uint256",
          "name": "totalLending",
          "type": "uint256"
        },
        {
          "internalType": "uint256",
          "name": "totalBorrowed",
          "type": "uint256"
        },
        {
          "internalType": "uint256",
          "name": "lendingBuffer",
          "type": "uint256"
        },
        {
          "internalType": "uint256",
          "name": "lendingCap",
          "type": "uint256"
        }
      ],
      "stateMutability": "view",
      "type": "function"
    },
    {
      "inputs": [
        {
          "internalType": "uint256",
          "name": "",
          "type": "uint256"
        }
      ],
      "name": "mainCharacterCache",
      "outputs": [
        {
          "internalType": "address",
          "name": "",
          "type": "address"
        }
      ],
      "stateMutability": "view",
      "type": "function"
    },
    {
      "inputs": [],
      "name": "maxHourlyYieldFP",
      "outputs": [
        {
          "internalType": "uint256",
          "name": "",
          "type": "uint256"
        }
      ],
      "stateMutability": "view",
      "type": "function"
    },
    {
      "inputs": [],
      "name": "maxRuntime",
      "outputs": [
        {
          "internalType": "uint256",
          "name": "",
          "type": "uint256"
        }
      ],
      "stateMutability": "view",
      "type": "function"
    },
    {
      "inputs": [],
      "name": "minRuntime",
      "outputs": [
        {
          "internalType": "uint256",
          "name": "",
          "type": "uint256"
        }
      ],
      "stateMutability": "view",
      "type": "function"
    },
    {
      "inputs": [],
      "name": "nextBondIndex",
      "outputs": [
        {
          "internalType": "uint256",
          "name": "",
          "type": "uint256"
        }
      ],
      "stateMutability": "view",
      "type": "function"
    },
    {
      "inputs": [
        {
          "internalType": "address",
          "name": "issuer",
          "type": "address"
        },
        {
          "internalType": "uint256",
          "name": "amount",
          "type": "uint256"
        }
      ],
      "name": "payOff",
      "outputs": [],
      "stateMutability": "nonpayable",
      "type": "function"
    },
    {
      "inputs": [
        {
          "internalType": "address",
          "name": "issuer",
          "type": "address"
        },
        {
          "internalType": "uint256",
          "name": "amount",
          "type": "uint256"
        }
      ],
      "name": "registerBorrow",
      "outputs": [],
      "stateMutability": "nonpayable",
      "type": "function"
    },
    {
      "inputs": [
        {
          "internalType": "address",
          "name": "",
          "type": "address"
        },
        {
          "internalType": "uint256",
          "name": "",
          "type": "uint256"
        }
      ],
      "name": "roleCache",
      "outputs": [
        {
          "internalType": "bool",
          "name": "",
          "type": "bool"
        }
      ],
      "stateMutability": "view",
      "type": "function"
    },
    {
      "inputs": [],
      "name": "roles",
      "outputs": [
        {
          "internalType": "contract Roles",
          "name": "",
          "type": "address"
        }
      ],
      "stateMutability": "view",
      "type": "function"
    },
    {
      "inputs": [
        {
          "internalType": "uint256",
          "name": "borrowingFactor",
          "type": "uint256"
        }
      ],
      "name": "setBorrowingFactorPercent",
      "outputs": [],
      "stateMutability": "nonpayable",
      "type": "function"
    },
    {
      "inputs": [
        {
          "internalType": "address",
          "name": "issuer",
          "type": "address"
        },
        {
          "internalType": "uint256",
          "name": "aprPercent",
          "type": "uint256"
        }
      ],
      "name": "setHourlyYieldAPR",
      "outputs": [],
      "stateMutability": "nonpayable",
      "type": "function"
    },
    {
      "inputs": [
        {
          "internalType": "address",
          "name": "token",
          "type": "address"
        },
        {
          "internalType": "uint8",
          "name": "tranche",
          "type": "uint8"
        }
      ],
      "name": "setIncentiveTranche",
      "outputs": [],
      "stateMutability": "nonpayable",
      "type": "function"
    },
    {
      "inputs": [
        {
          "internalType": "address",
          "name": "issuer",
          "type": "address"
        },
        {
          "internalType": "uint256",
          "name": "buffer",
          "type": "uint256"
        }
      ],
      "name": "setLendingBuffer",
      "outputs": [],
      "stateMutability": "nonpayable",
      "type": "function"
    },
    {
      "inputs": [
        {
          "internalType": "address",
          "name": "issuer",
          "type": "address"
        },
        {
          "internalType": "uint256",
          "name": "cap",
          "type": "uint256"
        }
      ],
      "name": "setLendingCap",
      "outputs": [],
      "stateMutability": "nonpayable",
      "type": "function"
    },
    {
      "inputs": [
        {
          "internalType": "uint256",
          "name": "maxYieldFP",
          "type": "uint256"
        }
      ],
      "name": "setMaxHourlyYieldFP",
      "outputs": [],
      "stateMutability": "nonpayable",
      "type": "function"
    },
    {
      "inputs": [
        {
          "internalType": "uint256",
          "name": "runtime",
          "type": "uint256"
        }
      ],
      "name": "setMaxRuntime",
      "outputs": [],
      "stateMutability": "nonpayable",
      "type": "function"
    },
    {
      "inputs": [
        {
          "internalType": "uint256",
          "name": "runtime",
          "type": "uint256"
        }
      ],
      "name": "setMinRuntime",
      "outputs": [],
      "stateMutability": "nonpayable",
      "type": "function"
    },
    {
      "inputs": [
        {
          "internalType": "address",
          "name": "issuer",
          "type": "address"
        },
        {
          "internalType": "uint256[]",
          "name": "weights",
          "type": "uint256[]"
        }
      ],
      "name": "setRuntimeWeights",
      "outputs": [],
      "stateMutability": "nonpayable",
      "type": "function"
    },
    {
      "inputs": [
        {
          "internalType": "address",
          "name": "issuer",
          "type": "address"
        },
        {
          "internalType": "uint256[]",
          "name": "yieldsFP",
          "type": "uint256[]"
        }
      ],
      "name": "setRuntimeYieldsFP",
      "outputs": [],
      "stateMutability": "nonpayable",
      "type": "function"
    },
    {
      "inputs": [
        {
          "internalType": "uint256",
          "name": "window",
          "type": "uint256"
        }
      ],
      "name": "setWithdrawalWindow",
      "outputs": [],
      "stateMutability": "nonpayable",
      "type": "function"
    },
    {
      "inputs": [
        {
          "internalType": "uint256",
          "name": "changePerSecondFP",
          "type": "uint256"
        }
      ],
      "name": "setYieldChangePerSecondFP",
      "outputs": [],
      "stateMutability": "nonpayable",
      "type": "function"
    },
    {
      "inputs": [
        {
          "internalType": "uint256",
          "name": "role",
          "type": "uint256"
        }
      ],
      "name": "updateMainCharacterCache",
      "outputs": [],
      "stateMutability": "nonpayable",
      "type": "function"
    },
    {
      "inputs": [
        {
          "internalType": "uint256",
          "name": "role",
          "type": "uint256"
        },
        {
          "internalType": "address",
          "name": "contr",
          "type": "address"
        }
      ],
      "name": "updateRoleCache",
      "outputs": [],
      "stateMutability": "nonpayable",
      "type": "function"
    },
    {
      "inputs": [
        {
          "internalType": "address",
          "name": "issuer",
          "type": "address"
        }
      ],
      "name": "viewAccumulatedBorrowingYieldFP",
      "outputs": [
        {
          "internalType": "uint256",
          "name": "",
          "type": "uint256"
        }
      ],
      "stateMutability": "view",
      "type": "function"
    },
    {
      "inputs": [
        {
          "internalType": "address",
          "name": "issuer",
          "type": "address"
        },
        {
          "internalType": "uint256",
          "name": "runtime",
          "type": "uint256"
        },
        {
          "internalType": "uint256",
          "name": "amount",
          "type": "uint256"
        }
      ],
      "name": "viewBondReturn",
      "outputs": [
        {
          "internalType": "uint256",
          "name": "",
          "type": "uint256"
        }
      ],
      "stateMutability": "view",
      "type": "function"
    },
    {
      "inputs": [
        {
          "internalType": "address",
          "name": "issuer",
          "type": "address"
        }
      ],
      "name": "viewBorrowAPRPer10k",
      "outputs": [
        {
          "internalType": "uint256",
          "name": "",
          "type": "uint256"
        }
      ],
      "stateMutability": "view",
      "type": "function"
    },
    {
      "inputs": [
        {
          "internalType": "address",
          "name": "issuer",
          "type": "address"
        }
      ],
      "name": "viewHourlyBondAPRPer10k",
      "outputs": [
        {
          "internalType": "uint256",
          "name": "",
          "type": "uint256"
        }
      ],
      "stateMutability": "view",
      "type": "function"
    },
    {
      "inputs": [
        {
          "internalType": "address",
          "name": "issuer",
          "type": "address"
        },
        {
          "internalType": "address",
          "name": "holder",
          "type": "address"
        }
      ],
      "name": "viewHourlyBondAmount",
      "outputs": [
        {
          "internalType": "uint256",
          "name": "",
          "type": "uint256"
        }
      ],
      "stateMutability": "view",
      "type": "function"
    },
    {
      "inputs": [
        {
          "internalType": "address",
          "name": "issuer",
          "type": "address"
        }
      ],
      "name": "viewLendingTarget",
      "outputs": [
        {
          "internalType": "uint256",
          "name": "",
          "type": "uint256"
        }
      ],
      "stateMutability": "view",
      "type": "function"
    },
    {
      "inputs": [
        {
          "internalType": "uint256",
          "name": "balance",
          "type": "uint256"
        },
        {
          "internalType": "address",
          "name": "issuer",
          "type": "address"
        },
        {
          "internalType": "uint256",
          "name": "yieldQuotientFP",
          "type": "uint256"
        }
      ],
      "name": "viewWithBorrowInterest",
      "outputs": [
        {
          "internalType": "uint256",
          "name": "",
          "type": "uint256"
        }
      ],
      "stateMutability": "view",
      "type": "function"
    },
    {
      "inputs": [
        {
          "internalType": "uint256",
          "name": "bondId",
          "type": "uint256"
        }
      ],
      "name": "withdrawBond",
      "outputs": [],
      "stateMutability": "nonpayable",
      "type": "function"
    },
    {
      "inputs": [
        {
          "internalType": "address",
          "name": "issuer",
          "type": "address"
        },
        {
          "internalType": "uint256",
          "name": "amount",
          "type": "uint256"
        }
      ],
      "name": "withdrawHourlyBond",
      "outputs": [],
      "stateMutability": "nonpayable",
      "type": "function"
    },
    {
      "inputs": [],
      "name": "withdrawalWindow",
      "outputs": [
        {
          "internalType": "uint256",
          "name": "",
          "type": "uint256"
        }
      ],
      "stateMutability": "view",
      "type": "function"
    },
    {
      "inputs": [],
      "name": "yieldChangePerSecondFP",
      "outputs": [
        {
          "internalType": "uint256",
          "name": "",
          "type": "uint256"
        }
      ],
      "stateMutability": "view",
      "type": "function"
    }
  ],
  "bytecode": "0x60a060405261038460075560c860095562278d00600a556301e13380600b55600a54600b54620000309190620001b5565b600c556001600f553480156200004557600080fd5b5060405162003da538038062003da5833981016040819052620000689162000142565b806001600160a01b038116620000cf5760405162461bcd60e51b815260206004820152602260248201527f506c656173652070726f766964652076616c696420726f6c6573206164647265604482015261737360f01b606482015260840160405180910390fd5b60601b6001600160601b0319166080526103836122386064620000f88364010000000062000193565b62000104919062000172565b62000110919062000172565b60025560036103e8620001298264010000000062000193565b62000135919062000172565b60035550620001e5915050565b60006020828403121562000154578081fd5b81516001600160a01b03811681146200016b578182fd5b9392505050565b6000826200018e57634e487b7160e01b81526012600452602481fd5b500490565b6000816000190483118215151615620001b057620001b0620001cf565b500290565b600082821015620001ca57620001ca620001cf565b500390565b634e487b7160e01b600052601160045260246000fd5b60805160601c613b8562000220600039600081816104ee015281816109cd01528181610fbf01528181612d4a0152612de20152613b856000f3fe608060405234801561001057600080fd5b50600436106103835760003560e01c80637b8b4ee2116101de578063cc4b26a31161010f578063ebc22731116100ad578063f11f97951161007c578063f11f97951461095c578063f51dfe7a14610965578063f884614b14610978578063f90889c91461098b57610383565b8063ebc2273114610910578063ebe64bcc14610923578063ee0862bf14610936578063ef2cd3b81461094957610383565b8063d2b48934116100e9578063d2b4893414610899578063d4437dd8146108ac578063e695fa68146108bf578063e9c3f77d146108e757610383565b8063cc4b26a31461084f578063cd3b5dfb14610862578063d19bd0a71461089057610383565b8063a387832f1161017c578063ad037af611610156578063ad037af6146107cb578063b8139c6d14610820578063c3daab9614610829578063c94426a01461083c57610383565b8063a387832f1461079c578063a772404b146107af578063aa7e321d146107c257610383565b806383a04229116101b857806383a042291461070b5780638824cbba1461076057806391b46e05146107805780639229e73f1461079357610383565b80637b8b4ee2146106d25780637d34e405146106e5578063803a99b7146106f857610383565b8063447d52ba116102b85780636e60e24911610256578063773bbb3b11610230578063773bbb3b14610655578063797384b21461065e5780637a009135146106915780637a1a04df146106a457610383565b80636e60e2491461061c57806372d012571461062f57806376668b671461064257610383565b80634b86daab116102925780634b86daab146105495780635f1c17c01461055c57806364f85ab1146105f357806367e2de921461061357610383565b8063447d52ba1461051057806346c87f80146105235780634804dd341461053657610383565b8063267031b8116103255780632864f401116102ff5780632864f401146104b05780632a6a897b146104c357806336953912146104d6578063392f5f64146104e957610383565b8063267031b81461041857806326e0b35314610421578063281080261461046f57610383565b80630f7c43dc116103615780630f7c43dc146103cc578063117b2630146103df57806314189db2146103f257806316de7a431461040557610383565b8063071060a6146103885780630b5505461461039d5780630bba92b3146103b9575b600080fd5b61039b6103963660046139dc565b61099e565b005b6103a6600c5481565b6040519081526020015b60405180910390f35b6103a66103c736600461391c565b610a95565b61039b6103da3660046138f1565b610b7f565b6103a66103ed366004613787565b610c0a565b6103a6610400366004613787565b610c34565b61039b6104133660046138f1565b610c56565b6103a660095481565b61043461042f3660046138f1565b610d17565b604080519889526020890197909752958701949094526060860192909252608085015260a084015260c083015260e0820152610100016103b0565b61049861047d366004613787565b6012602052600090815260409020546001600160a01b031681565b6040516001600160a01b0390911681526020016103b0565b61039b6104be36600461398a565b610d7c565b61039b6104d13660046138f1565b610e63565b61039b6104e43660046139dc565b610f02565b6104987f000000000000000000000000000000000000000000000000000000000000000081565b61039b61051e366004613a0c565b610f80565b6103a6610531366004613787565b611071565b61039b6105443660046139dc565b611099565b61039b610557366004613787565b611117565b6105b361056a3660046139dc565b600d6020526000908152604090208054600182015460028301546003840154600485015460058601546006909601546001600160a01b0395861696959094169492939192909187565b604080516001600160a01b039889168152979096166020880152948601939093526060850191909152608084015260a083015260c082015260e0016103b0565b6103a6610601366004613787565b60136020526000908152604090205481565b6103a660025481565b6103a661062a3660046137c6565b611124565b6103a661063d366004613787565b61119e565b6103a6610650366004613a30565b6111bf565b6103a6600a5481565b61068161066c366004613787565b60146020526000908152604090205460ff1681565b60405190151581526020016103b0565b61039b61069f366004613787565b6111f9565b6106816106b23660046138f1565b600560209081526000928352604080842090915290825290205460ff1681565b6103a66106e0366004613950565b6112df565b61039b6106f33660046137fe565b6113ef565b61039b6107063660046139dc565b6114ff565b6107456107193660046137c6565b600860209081526000928352604080842090915290825290208054600182015460029092015490919083565b604080519384526020840192909252908201526060016103b0565b6103a661076e366004613787565b60106020526000908152604090205481565b61039b61078e3660046139dc565b61161f565b6103a6600b5481565b61039b6107aa3660046138f1565b61169d565b61039b6107bd3660046137fe565b611781565b6103a6600f5481565b6108006107d9366004613787565b60006020819052908152604090208054600182015460028301546003909301549192909184565b6040805194855260208501939093529183015260608201526080016103b0565b6103a661271081565b61039b6108373660046139dc565b611a90565b61039b61084a3660046139dc565b611b93565b61039b61085d366004613787565b611c11565b610745610870366004613787565b600160208190526000918252604090912080549181015460029091015483565b6103a660075481565b61039b6108a73660046138f1565b611d71565b61039b6108ba3660046139dc565b611e55565b6108d26108cd366004613a30565b611e7c565b604080519283526020830191909152016103b0565b6104986108f53660046139dc565b6004602052600090815260409020546001600160a01b031681565b61039b61091e3660046139dc565b611f6a565b61039b6109313660046137c6565b612039565b61039b6109443660046138f1565b61215b565b6103a66109573660046138f1565b6122b5565b6103a660035481565b6103a6610973366004613787565b6122e6565b61039b610986366004613787565b612307565b61039b6109993660046138f1565b61238b565b6040517fb4ed0b6d000000000000000000000000000000000000000000000000000000008152600481018290527f00000000000000000000000000000000000000000000000000000000000000006001600160a01b03169063b4ed0b6d9060240160206040518083038186803b158015610a1757600080fd5b505afa158015610a2b573d6000803e3d6000fd5b505050506040513d601f19601f82011682018060405250810190610a4f91906137aa565b60009182526004602052604090912080547fffffffffffffffffffffffff0000000000000000000000000000000000000000166001600160a01b03909216919091179055565b600080610aa28585612548565b90506000610b5986600e6000896001600160a01b03166001600160a01b031681526020019081526020016000208481548110610aee57634e487b7160e01b600052603260045260246000fd5b90600052602060002090600802016006015486610b0b9190613a67565b6001600160a01b0389166000908152600e60205260409020805489919087908110610b4657634e487b7160e01b600052603260045260246000fd5b9060005260206000209060080201612592565b9050640100000000610b6b8583613a93565b610b759190613a7f565b9695505050505050565b6001600160a01b03821660009081526008602090815260408083203384529091529020610bac8382612696565b610bb7838284612723565b8054610bef576001600160a01b0383166000908152600860209081526040808320338452909152812081815560018101829055600201555b610bfa83338461284a565b610c053384846129d4565b505050565b6001600160a01b0381166000908152602081905260408120610c2b81612ab2565b9150505b919050565b6001600160a01b0381166000908152600160205260408120610c2b8142612ad5565b6001600160a01b03821660009081526014602052604090205460ff16610cc35760405162461bcd60e51b815260206004820152601360248201527f4e6f7420617070726f766564206973737565720000000000000000000000000060448201526064015b60405180910390fd5b6001600160a01b03821660009081526020819052604090208054610ce8908390613a67565b610cf182612ab2565b10610c0557610d01833384612b0f565b610d0c833384612bce565b610c05338484612c9c565b600e6020528160005260406000208181548110610d3357600080fd5b9060005260206000209060080201600091509150508060000154908060010154908060020154908060030154908060040154908060050154908060060154908060070154905088565b33610d85612d46565b6001600160a01b03161480610da9575033610d9e612dde565b6001600160a01b0316145b80610dcf57503360009081526005602090815260408083206009845290915290205460ff165b610e415760405162461bcd60e51b815260206004820152603960248201527f43616c6c6572206973206e6f7420746865206f776e65722c206578656375746f60448201527f72206f7220617574686f72697a656420616374697661746f72000000000000006064820152608401610cba565b6001600160a01b03909116600090815260106020526040902060ff9091169055565b3360009081526005602090815260408083206003845290915290205460ff16610ece5760405162461bcd60e51b815260206004820152601560248201527f4e6f7420617070726f76656420626f72726f77657200000000000000000000006044820152606401610cba565b6001600160a01b03821660009081526020819052604081206001018054839290610ef9908490613ab2565b90915550505050565b33610f0b612d46565b6001600160a01b03161480610f2f575033610f24612dde565b6001600160a01b0316145b610f7b5760405162461bcd60e51b815260206004820152601e60248201527f526f6c65733a2063616c6c6572206973206e6f7420746865206f776e657200006044820152606401610cba565b600755565b6040517f93552a3d000000000000000000000000000000000000000000000000000000008152600481018390526001600160a01b0382811660248301527f000000000000000000000000000000000000000000000000000000000000000016906393552a3d9060440160206040518083038186803b15801561100157600080fd5b505afa158015611015573d6000803e3d6000fd5b505050506040513d601f19601f8201168201806040525081019061103991906139bc565b6001600160a01b0391909116600090815260056020908152604080832094835293905291909120805460ff1916911515919091179055565b6001600160a01b038116600090815260016020526040812061109281612e4f565b5492915050565b336110a2612d46565b6001600160a01b031614806110c65750336110bb612dde565b6001600160a01b0316145b6111125760405162461bcd60e51b815260206004820152601e60248201527f526f6c65733a2063616c6c6572206973206e6f7420746865206f776e657200006044820152606401610cba565b600255565b6111218182612039565b50565b6001600160a01b03808316600081815260086020908152604080832094861683529381528382206001810154938352600690915292812090929190839061116b9042612ad5565b9050811561118a578254611180908284612e84565b9350505050611198565b5050549050611198565b5050505b92915050565b6001600160a01b038116600090815260066020526040812061119890612e91565b6001600160a01b038216600090815260016020526040812081906111e39042612ad5565b90506111f0858285612e84565b95945050505050565b33611202612d46565b6001600160a01b0316148061122657503361121b612dde565b6001600160a01b0316145b8061124c57503360009081526005602090815260408083206009845290915290205460ff165b6112be5760405162461bcd60e51b815260206004820152603960248201527f43616c6c6572206973206e6f7420746865206f776e65722c206578656375746f60448201527f72206f7220617574686f72697a656420616374697661746f72000000000000006064820152608401610cba565b6001600160a01b03166000908152601460205260409020805460ff19169055565b6001600160a01b03841660009081526014602052604081205460ff166113475760405162461bcd60e51b815260206004820152601360248201527f4e6f7420617070726f76656420697373756572000000000000000000000000006044820152606401610cba565b6001600160a01b0385166000908152602081905260409020805461136c908590613a67565b61137582612ab2565b10158015611385575084600b5410155b80156113935750600a548510155b156113e6576113a53387878787612eed565b915081156113e657336000818152601160209081526040822080546001810182559083529120018390556113db90879086612b0f565b6113e6338786612c9c565b50949350505050565b336113f8612d46565b6001600160a01b0316148061141c575033611411612dde565b6001600160a01b0316145b6114685760405162461bcd60e51b815260206004820152601e60248201527f526f6c65733a2063616c6c6572206973206e6f7420746865206f776e657200006044820152606401610cba565b6001600160a01b0382166000908152600e60205260408120905b81548110156114f9578281815181106114ab57634e487b7160e01b600052603260045260246000fd5b60200260200101518282815481106114d357634e487b7160e01b600052603260045260246000fd5b6000918252602090912060076008909202010155806114f181613ac9565b915050611482565b50505050565b33611508612d46565b6001600160a01b0316148061152c575033611521612dde565b6001600160a01b0316145b6115785760405162461bcd60e51b815260206004820152601e60248201527f526f6c65733a2063616c6c6572206973206e6f7420746865206f776e657200006044820152606401610cba565b610e1081116115c95760405162461bcd60e51b815260206004820152601460248201527f4d696e2072756e74696d65203e203120686f75720000000000000000000000006044820152606401610cba565b80600b541161161a5760405162461bcd60e51b815260206004820152601060248201527f52756e74696d6520746f6f206c6f6e67000000000000000000000000000000006044820152606401610cba565b600a55565b33611628612d46565b6001600160a01b0316148061164c575033611641612dde565b6001600160a01b0316145b6116985760405162461bcd60e51b815260206004820152601e60248201527f526f6c65733a2063616c6c6572206973206e6f7420746865206f776e657200006044820152606401610cba565b600955565b336116a6612d46565b6001600160a01b031614806116ca5750336116bf612dde565b6001600160a01b0316145b806116f057503360009081526005602090815260408083206009845290915290205460ff165b6117625760405162461bcd60e51b815260206004820152603960248201527f43616c6c6572206973206e6f7420746865206f776e65722c206578656375746f60448201527f72206f7220617574686f72697a656420616374697661746f72000000000000006064820152608401610cba565b6001600160a01b03909116600090815260208190526040902060020155565b3361178a612d46565b6001600160a01b031614806117ae5750336117a3612dde565b6001600160a01b0316145b806117d457503360009081526005602090815260408083206009845290915290205460ff165b6118465760405162461bcd60e51b815260206004820152603960248201527f43616c6c6572206973206e6f7420746865206f776e65722c206578656375746f60448201527f72206f7220617574686f72697a656420616374697661746f72000000000000006064820152608401610cba565b6001600160a01b0382166000908152600e6020526040902080546119c8576000612238606461187b640100000000606e613a93565b6118859190613a7f565b61188f9190613a7f565b905060008351600c546118a29190613a7f565b905060005b80855111156119c05760006118bc8284613a93565b600a546118c99190613a67565b9050846040518061010001604052808885815181106118f857634e487b7160e01b600052603260045260246000fd5b60200260200101518152602001600181526020014281526020016001815260200142815260200142815260200160008152602001610e10848861193b9190613a93565b6119459190613a7f565b905281546001818101845560009384526020938490208351600890930201918255928201519281019290925560408101516002830155606081015160038301556080810151600483015560a0810151600583015560c0810151600683015560e0015160079091015550806119b881613ac9565b9150506118a7565b505050610c05565b8054825114611a195760405162461bcd60e51b815260206004820152601360248201527f5765696768747320646f6e2774206d61746368000000000000000000000000006044820152606401610cba565b60005b80835111156114f957828181518110611a4557634e487b7160e01b600052603260045260246000fd5b6020026020010151828281548110611a6d57634e487b7160e01b600052603260045260246000fd5b600091825260209091206008909102015580611a8881613ac9565b915050611a1c565b6000818152600d6020526040902080546001600160a01b03163314611af75760405162461bcd60e51b815260206004820152600f60248201527f4e6f7420626f6e6420686f6c64657200000000000000000000000000000000006044820152606401610cba565b80600401544211611b4a5760405162461bcd60e51b815260206004820152601660248201527f626f6e64206973207374696c6c20696d6d6174757265000000000000000000006044820152606401610cba565b60018101546002820154611b6b9133916001600160a01b03909116906129d4565b6000611b77838361310a565b6001830154909150610c05906001600160a01b0316338361284a565b33611b9c612d46565b6001600160a01b03161480611bc0575033611bb5612dde565b6001600160a01b0316145b611c0c5760405162461bcd60e51b815260206004820152601e60248201527f526f6c65733a2063616c6c6572206973206e6f7420746865206f776e657200006044820152606401610cba565b600355565b33611c1a612d46565b6001600160a01b03161480611c3e575033611c33612dde565b6001600160a01b0316145b80611c6457503360009081526005602090815260408083206009845290915290205460ff165b611cd65760405162461bcd60e51b815260206004820152603960248201527f43616c6c6572206973206e6f7420746865206f776e65722c206578656375746f60448201527f72206f7220617574686f72697a656420616374697661746f72000000000000006064820152608401610cba565b6001600160a01b0381166000908152600160205260409020805415611d3d5760405162461bcd60e51b815260206004820152601360248201527f646f6e27742072652d696e697469616c697a65000000000000000000000000006044820152606401610cba565b640100000000808255426001830155611d599061223890613a7f565b611d6890640100000000613a67565b60029091015550565b33611d7a612d46565b6001600160a01b03161480611d9e575033611d93612dde565b6001600160a01b0316145b80611dc457503360009081526005602090815260408083206009845290915290205460ff165b611e365760405162461bcd60e51b815260206004820152603960248201527f43616c6c6572206973206e6f7420746865206f776e65722c206578656375746f60448201527f72206f7220617574686f72697a656420616374697661746f72000000000000006064820152608401610cba565b6001600160a01b03909116600090815260208190526040902060030155565b3360009081526013602052604081208054839290611e74908490613a67565b909155505050565b33600090815260056020908152604080832060038452909152812054819060ff16611ee95760405162461bcd60e51b815260206004820152601160248201527f4e6f7420617070726f7665642063616c6c0000000000000000000000000000006044820152606401610cba565b6001600160a01b0384166000908152600160205260409020611f0a81612e4f565b80549150611f19868386612e84565b92506000611f278785613ab2565b6001600160a01b03871660009081526020819052604081206001810180549394509092849290611f58908490613a67565b92505081905550505050935093915050565b33611f73612d46565b6001600160a01b03161480611f97575033611f8c612dde565b6001600160a01b0316145b611fe35760405162461bcd60e51b815260206004820152601e60248201527f526f6c65733a2063616c6c6572206973206e6f7420746865206f776e657200006044820152606401610cba565b600a5481116120345760405162461bcd60e51b815260206004820152601160248201527f4d6178203e206d696e2072756e74696d650000000000000000000000000000006044820152606401610cba565b600b55565b33612042612d46565b6001600160a01b0316148061206657503361205b612dde565b6001600160a01b0316145b8061208c57503360009081526005602090815260408083206009845290915290205460ff165b6120fe5760405162461bcd60e51b815260206004820152603960248201527f43616c6c6572206973206e6f7420746865206f776e65722c206578656375746f60448201527f72206f7220617574686f72697a656420616374697661746f72000000000000006064820152608401610cba565b6001600160a01b039182166000908152601460209081526040808320805460ff19166001179055601290915290208054919092167fffffffffffffffffffffffff0000000000000000000000000000000000000000909116179055565b3360009081526005602090815260408083206003845290915290205460ff166121c65760405162461bcd60e51b815260206004820152601560248201527f4e6f7420617070726f76656420626f72726f77657200000000000000000000006044820152606401610cba565b6001600160a01b03821660009081526014602052604090205460ff1661222e5760405162461bcd60e51b815260206004820152601360248201527f4e6f7420617070726f76656420697373756572000000000000000000000000006044820152606401610cba565b6001600160a01b03821660009081526020819052604081206001810180549192849261225b908490613a67565b9091555050600181015481541015610c055760405162461bcd60e51b815260206004820152601460248201527f496e73756666696369656e74206c656e64696e670000000000000000000000006044820152606401610cba565b601160205281600052604060002081815481106122d157600080fd5b90600052602060002001600091509150505481565b6001600160a01b038116600090815260016020526040812061119890612e91565b6001600160a01b038116600090815260086020908152604080832033845290915290206123348282612696565b8054612341838383612723565b61234c83338361284a565b6001600160a01b038316600090815260086020908152604080832033808552925282208281556001810183905560020191909155610c059084836129d4565b33612394612d46565b6001600160a01b031614806123b85750336123ad612dde565b6001600160a01b0316145b806123de57503360009081526005602090815260408083206009845290915290205460ff165b6124505760405162461bcd60e51b815260206004820152603960248201527f43616c6c6572206973206e6f7420746865206f776e65722c206578656375746f60448201527f72206f7220617574686f72697a656420616374697661746f72000000000000006064820152608401610cba565b6001600160a01b038216600090815260066020526040902080546124fd576000612238606461248485640100000000613a93565b61248e9190613a7f565b6124989190613a7f565b6124a790640100000000613a67565b604080516060810182526401000000008082524260208301819052919092018390529084556001808501829055600285019290925560038401829055600484019190915560058301819055600683015550610c05565b6000612509848361331d565b9050612238606461251a8582613a67565b61252990640100000000613a93565b6125339190613a7f565b61253d9190613a7f565b600290910155505050565b6001600160a01b0382166000908152600e6020526040812054600c54829161256f91613a7f565b905080600a54846125809190613ab2565b61258a9190613a7f565b949350505050565b6000808260060154856125a59190613a67565b600784015460058501546001600160a01b03891660009081526020819052604081208754939650939450909291612710906125df84612ab2565b6125e99190613a93565b6125f39190613a7f565b60018088015460038901546001600160a01b038d166000908152602084905260408120875495965092949193909161262a91613a67565b8660010154836002015461263e9190613a93565b6126489190613a7f565b9050600061265860025483613430565b90506000612668610e108e613a7f565b6126729083613a93565b90506126838b8a8c8a8a8a87613448565b9f9e505050505050505050505050505050565b60018101548015610c05576001600160a01b03831660009081526006602052604081206126c490859061331d565b83548154919250906126d890829085612e84565b8085556000906126e9908390613ab2565b6001600160a01b038716600090815260208190526040812080549293508392909190612716908490613a67565b9091555050505050505050565b6000610e108360020154426127389190613ab2565b6127429190613ae4565b90508060075410156127bc5760405162461bcd60e51b815260206004820152603f60248201527f5472696564207769746864726177696e67206f7574736964652073756273637260448201527f697074696f6e2063616e63656c6c6174696f6e2074696d652077696e646f77006064820152608401610cba565b818360000160008282546127d09190613ab2565b90915550506001600160a01b038416600090815260208190526040812080548492906127fd908490613ab2565b90915550506001600160a01b03841660009081526006602081905260409091206004810154918101548554919261283992909190610e106134cd565b600683015560049091015550505050565b6001600160a01b03831660009081526013602052604090205480158015906128725750600082115b156128f1576001600160a01b038416600090815260208190526040812054908161289c8185613430565b6128a69086613a93565b6128b09190613a7f565b90506128bc8185613ab2565b6001600160a01b0387166000908152601360205260408120805492965083929091906128e9908490613ab2565b909155505050505b6001600160a01b0380851660009081526012602052604090205416612947606560005260046020527ffe4d1297c5434445a55041cf44037c0799556cc55064da684dc6eed1a5dccabf546001600160a01b031690565b6040517fd9caed120000000000000000000000000000000000000000000000000000000081526001600160a01b038381166004830152868116602483015260448201869052919091169063d9caed12906064015b600060405180830381600087803b1580156129b557600080fd5b505af11580156129c9573d6000803e3d6000fd5b505050505050505050565b6001600160a01b038216600090815260106020526040902054612a28606c60005260046020527f8b685361ee213407f41a019b5dbc17edecc44c9f276819680a1bcb10c2f13bb8546001600160a01b031690565b6040517fc6c9faa1000000000000000000000000000000000000000000000000000000008152600481018390526001600160a01b03868116602483015260448201859052919091169063c6c9faa190606401600060405180830381600087803b158015612a9457600080fd5b505af1158015612aa8573d6000803e3d6000fd5b5050505050505050565b6000611198826003015483600201548460010154612ad09190613a67565b613430565b600080836001015483612ae89190613ab2565b905061012c811115612b0657612afe848261356d565b915050611198565b50508154611198565b606560005260046020527ffe4d1297c5434445a55041cf44037c0799556cc55064da684dc6eed1a5dccabf546001600160a01b03166040517fb3db428b0000000000000000000000000000000000000000000000000000000081526001600160a01b038481166004830152858116602483015260448201849052919091169063b3db428b90606401600060405180830381600087803b158015612bb157600080fd5b505af1158015612bc5573d6000803e3d6000fd5b50505050505050565b6001600160a01b038084166000908152600860209081526040808320938616835292905220612bfd8482612696565b6001600160a01b038416600090815260066020526040902080546001830155612c28610e1042613ae4565b6002830155815483908390600090612c41908490613a67565b90915550506001600160a01b03851660009081526020819052604081208054859290612c6e908490613a67565b92505081905550612c8b8160030154826005015485610e106134cd565b600583015560039091015550505050565b6000612cd9606c60005260046020527f8b685361ee213407f41a019b5dbc17edecc44c9f276819680a1bcb10c2f13bb8546001600160a01b031690565b6001600160a01b03848116600090815260106020526040908190205490517f2b5de286000000000000000000000000000000000000000000000000000000008152600481018290528783166024820152604481018690529293509190831690632b5de2869060640161299b565b60007f00000000000000000000000000000000000000000000000000000000000000006001600160a01b0316638da5cb5b6040518163ffffffff1660e01b815260040160206040518083038186803b158015612da157600080fd5b505afa158015612db5573d6000803e3d6000fd5b505050506040513d601f19601f82011682018060405250810190612dd991906137aa565b905090565b60007f00000000000000000000000000000000000000000000000000000000000000006001600160a01b031663c34c08e56040518163ffffffff1660e01b8152600401602060405180830381600087803b158015612e3b57600080fd5b505af1158015612db5573d6000803e3d6000fd5b6000816001015442612e619190613ab2565b905061012c811115612e8057612e77828261356d565b82554260018301555b5050565b6000816125808486613a93565b600281015460009081610e10612eae640100000000612710613a93565b612eba84612710613a93565b612ec49190613ab2565b612ed2906301e13380613a93565b612edc9190613a7f565b905061258a64010000000082613a7f565b600080612efa8686612548565b6001600160a01b0387166000908152600e602052604081208054929350909183908110612f3757634e487b7160e01b600052603260045260246000fd5b906000526020600020906008020190506000612f5588878985612592565b90506000640100000000612f698884613a93565b612f739190613a7f565b90508581106130fd5760006002612f8a838a613a67565b612f949190613a7f565b6001600160a01b038b16600090815260208190526040812080549293508392909190612fc1908490613a67565b9250508190555080846006016000828254612fdc9190613a67565b9091555050600f8054965086906000612ff483613ac9565b91905055506040518060e001604052808c6001600160a01b031681526020018b6001600160a01b031681526020018981526020018381526020018a4261303a9190613a67565b815260208082018c905260409182018690526000898152600d8252829020835181546001600160a01b039182167fffffffffffffffffffffffff00000000000000000000000000000000000000009182161783559285015160018084018054929093169190941617905591830151600280840191909155606084015160038401556080840151600484015560a0840151600584015560c090930151600690920191909155850154908501546130f191908a8c6134cd565b60028601556001850155505b5050505095945050505050565b600181015460058201546000916001600160a01b031690829061312e908390612548565b6001600160a01b0383166000908152600e60205260408120805492935090918390811061316b57634e487b7160e01b600052603260045260246000fd5b600091825260208220600388015488546002808b01546008909502909301955090936001600160a01b03909116929091906131a7908590613a67565b6131b19190613a7f565b6001600160a01b0387166000908152602081905260408120805492935091839183916131de908490613ab2565b92505081905550818560060160008282546131f99190613ab2565b9250508190555061321c856003015486600401548b600201548c600501546134cd565b60048088019190915560038088019290925560008c8152600d6020526040812080547fffffffffffffffffffffffff0000000000000000000000000000000000000000908116825560018281018054909216909155600282018390559381018290559182018190556005820181905560069091015581549082015411806132aa5750836132a888613630565b105b1561330c57826001600160a01b0316876001600160a01b03167fbcab653cf73e12f7bb78aa625dccb002864f5de7de2518796fb5b82fd6e6ab05866040516132f491815260200190565b60405180910390a3613307878486613764565b613310565b8397505b5050505050505092915050565b6001810154819060006133308242613ab2565b6001600160a01b038616600090815260016020526040902090915061012c8211156133ef5761335f848361356d565b84556001600160a01b03861660009081526020819052604081208054909190613389906001613a67565b8260010154846002015461339d9190613a93565b6133a79190613a7f565b905060006133b760025483613430565b90506133e087600201548785600001546133d087612ab2565b8c600301548d6004015487613448565b60028801555050426001860155505b6133f881612e4f565b6064846002015460095461340c9190613a93565b6134169190613a7f565b613421906001613a67565b60029091015550909392505050565b600081831115613441575080611198565b5081611198565b6000806134558842613ab2565b90506000600354826134679190613a93565b905086881015806134785750848610155b15613498576134878a82613430565b613491908b613ab2565b99506134b0565b6134a2818b613a67565b9950838a11156134b0578399505b6134bf6401000000008b61376f565b9a9950505050505050505050565b600080806134db8642613ab2565b905060006134ea826001613a67565b6134f48688613a93565b6134fe9190613a7f565b90506000600361351087611c20613a67565b61351a9190613a7f565b90506000613529846001613a67565b90506135358183613a67565b61353f8285613a93565b613549848d613a93565b6135539190613a67565b61355d9190613a7f565b9a429a5098505050505050505050565b60008061357c610e1084613ae4565b905061358f640100000000610e10613a93565b8164010000000086600201546135a59190613ab2565b86546135b19190613a93565b6135bb9190613a93565b6135c59190613a7f565b84546135d19190613a67565b915060006135e1610e1085613a7f565b905080156136285760005b808211156111945764010000000086600201548561360a9190613a93565b6136149190613a7f565b93508061362081613ac9565b9150506135ec565b505092915050565b6001600160a01b038082166000818152601260205260408120549092169081141561373657806001600160a01b03166370a0823161369f606560005260046020527ffe4d1297c5434445a55041cf44037c0799556cc55064da684dc6eed1a5dccabf546001600160a01b031690565b6040517fffffffff0000000000000000000000000000000000000000000000000000000060e084901b1681526001600160a01b03909116600482015260240160206040518083038186803b1580156136f657600080fd5b505afa15801561370a573d6000803e3d6000fd5b505050506040513d601f19601f8201168201806040525081019061372e91906139f4565b915050610c2f565b6001600160a01b038316600090815260136020908152604080832054918390529091205461372e9190613ab2565b610c05838383612bce565b600081831115613780575081611198565b5080611198565b600060208284031215613798578081fd5b81356137a381613b3a565b9392505050565b6000602082840312156137bb578081fd5b81516137a381613b3a565b600080604083850312156137d8578081fd5b82356137e381613b3a565b915060208301356137f381613b3a565b809150509250929050565b60008060408385031215613810578182fd5b823561381b81613b3a565b915060208381013567ffffffffffffffff80821115613838578384fd5b818601915086601f83011261384b578384fd5b81358181111561385d5761385d613b24565b8060051b6040517fffffffffffffffffffffffffffffffffffffffffffffffffffffffffffffffe0603f830116810181811085821117156138a0576138a0613b24565b604052828152858101935084860182860187018b10156138be578788fd5b8795505b838610156138e05780358552600195909501949386019386016138c2565b508096505050505050509250929050565b60008060408385031215613903578182fd5b823561390e81613b3a565b946020939093013593505050565b600080600060608486031215613930578081fd5b833561393b81613b3a565b95602085013595506040909401359392505050565b60008060008060808587031215613965578081fd5b843561397081613b3a565b966020860135965060408601359560600135945092505050565b6000806040838503121561399c578182fd5b82356139a781613b3a565b9150602083013560ff811681146137f3578182fd5b6000602082840312156139cd578081fd5b815180151581146137a3578182fd5b6000602082840312156139ed578081fd5b5035919050565b600060208284031215613a05578081fd5b5051919050565b60008060408385031215613a1e578182fd5b8235915060208301356137f381613b3a565b600080600060608486031215613a44578283fd5b833592506020840135613a5681613b3a565b929592945050506040919091013590565b60008219821115613a7a57613a7a613af8565b500190565b600082613a8e57613a8e613b0e565b500490565b6000816000190483118215151615613aad57613aad613af8565b500290565b600082821015613ac457613ac4613af8565b500390565b6000600019821415613add57613add613af8565b5060010190565b600082613af357613af3613b0e565b500690565b634e487b7160e01b600052601160045260246000fd5b634e487b7160e01b600052601260045260246000fd5b634e487b7160e01b600052604160045260246000fd5b6001600160a01b038116811461112157600080fdfea264697066735822122032cc030b9f47f48cfa1b021a2aeec978756580cda13367c812f385341a36759164736f6c63430008030033",
  "linkReferences": {},
  "deployedLinkReferences": {}
}