{
  "_format": "hh-sol-artifact-1",
  "contractName": "Lending",
  "sourceName": "contracts/Lending.sol",
  "abi": [
    {
      "inputs": [
        {
          "internalType": "address",
          "name": "_roles",
          "type": "address"
        }
      ],
      "stateMutability": "nonpayable",
      "type": "constructor"
    },
    {
      "anonymous": false,
      "inputs": [
        {
          "indexed": true,
          "internalType": "address",
          "name": "issuer",
          "type": "address"
        },
        {
          "indexed": true,
          "internalType": "address",
          "name": "holder",
          "type": "address"
        },
        {
          "indexed": false,
          "internalType": "uint256",
          "name": "value",
          "type": "uint256"
        }
      ],
      "name": "LiquidityWarning",
      "type": "event"
    },
    {
      "inputs": [],
      "name": "WEIGHT_TOTAL_10k",
      "outputs": [
        {
          "internalType": "uint256",
          "name": "",
          "type": "uint256"
        }
      ],
      "stateMutability": "view",
      "type": "function"
    },
    {
      "inputs": [
        {
          "internalType": "address",
          "name": "issuer",
          "type": "address"
        }
      ],
      "name": "activateIssuer",
      "outputs": [],
      "stateMutability": "nonpayable",
      "type": "function"
    },
    {
      "inputs": [
        {
          "internalType": "address",
          "name": "issuer",
          "type": "address"
        },
        {
          "internalType": "address",
          "name": "token",
          "type": "address"
        }
      ],
      "name": "activateIssuer",
      "outputs": [],
      "stateMutability": "nonpayable",
      "type": "function"
    },
    {
      "inputs": [
        {
          "internalType": "address",
          "name": "",
          "type": "address"
        }
      ],
      "name": "activeIssuers",
      "outputs": [
        {
          "internalType": "bool",
          "name": "",
          "type": "bool"
        }
      ],
      "stateMutability": "view",
      "type": "function"
    },
    {
      "inputs": [
        {
          "internalType": "uint256",
          "name": "balance",
          "type": "uint256"
        },
        {
          "internalType": "address",
          "name": "issuer",
          "type": "address"
        },
        {
          "internalType": "uint256",
          "name": "yieldQuotientFP",
          "type": "uint256"
        }
      ],
      "name": "applyBorrowInterest",
      "outputs": [
        {
          "internalType": "uint256",
          "name": "balanceWithInterest",
          "type": "uint256"
        },
        {
          "internalType": "uint256",
          "name": "accumulatorFP",
          "type": "uint256"
        }
      ],
      "stateMutability": "nonpayable",
      "type": "function"
    },
    {
      "inputs": [
        {
          "internalType": "address",
          "name": "",
          "type": "address"
        },
        {
          "internalType": "uint256",
          "name": "",
          "type": "uint256"
        }
      ],
      "name": "bondBucketMetadata",
      "outputs": [
        {
          "internalType": "uint256",
          "name": "runtimeWeight",
          "type": "uint256"
        },
        {
          "internalType": "uint256",
          "name": "buyingSpeed",
          "type": "uint256"
        },
        {
          "internalType": "uint256",
          "name": "lastBought",
          "type": "uint256"
        },
        {
          "internalType": "uint256",
          "name": "withdrawingSpeed",
          "type": "uint256"
        },
        {
          "internalType": "uint256",
          "name": "lastWithdrawn",
          "type": "uint256"
        },
        {
          "internalType": "uint256",
          "name": "yieldLastUpdated",
          "type": "uint256"
        },
        {
          "internalType": "uint256",
          "name": "totalLending",
          "type": "uint256"
        },
        {
          "internalType": "uint256",
          "name": "runtimeYieldFP",
          "type": "uint256"
        }
      ],
      "stateMutability": "view",
      "type": "function"
    },
    {
      "inputs": [
        {
          "internalType": "address",
          "name": "",
          "type": "address"
        },
        {
          "internalType": "uint256",
          "name": "",
          "type": "uint256"
        }
      ],
      "name": "bondIds",
      "outputs": [
        {
          "internalType": "uint256",
          "name": "",
          "type": "uint256"
        }
      ],
      "stateMutability": "view",
      "type": "function"
    },
    {
      "inputs": [
        {
          "internalType": "uint256",
          "name": "",
          "type": "uint256"
        }
      ],
      "name": "bonds",
      "outputs": [
        {
          "internalType": "address",
          "name": "holder",
          "type": "address"
        },
        {
          "internalType": "address",
          "name": "issuer",
          "type": "address"
        },
        {
          "internalType": "uint256",
          "name": "originalPrice",
          "type": "uint256"
        },
        {
          "internalType": "uint256",
          "name": "returnAmount",
          "type": "uint256"
        },
        {
          "internalType": "uint256",
          "name": "maturityTimestamp",
          "type": "uint256"
        },
        {
          "internalType": "uint256",
          "name": "runtime",
          "type": "uint256"
        },
        {
          "internalType": "uint256",
          "name": "yieldFP",
          "type": "uint256"
        }
      ],
      "stateMutability": "view",
      "type": "function"
    },
    {
      "inputs": [
        {
          "internalType": "address",
          "name": "",
          "type": "address"
        }
      ],
      "name": "borrowYieldAccumulators",
      "outputs": [
        {
          "internalType": "uint256",
          "name": "accumulatorFP",
          "type": "uint256"
        },
        {
          "internalType": "uint256",
          "name": "lastUpdated",
          "type": "uint256"
        },
        {
          "internalType": "uint256",
          "name": "hourlyYieldFP",
          "type": "uint256"
        }
      ],
      "stateMutability": "view",
      "type": "function"
    },
    {
      "inputs": [],
      "name": "borrowingFactorPercent",
      "outputs": [
        {
          "internalType": "uint256",
          "name": "",
          "type": "uint256"
        }
      ],
      "stateMutability": "view",
      "type": "function"
    },
    {
      "inputs": [],
      "name": "borrowingMarkupFP",
      "outputs": [
        {
          "internalType": "uint256",
          "name": "",
          "type": "uint256"
        }
      ],
      "stateMutability": "view",
      "type": "function"
    },
    {
      "inputs": [
        {
          "internalType": "address",
          "name": "issuer",
          "type": "address"
        },
        {
          "internalType": "uint256",
          "name": "runtime",
          "type": "uint256"
        },
        {
          "internalType": "uint256",
          "name": "amount",
          "type": "uint256"
        },
        {
          "internalType": "uint256",
          "name": "minReturn",
          "type": "uint256"
        }
      ],
      "name": "buyBond",
      "outputs": [
        {
          "internalType": "uint256",
          "name": "bondIndex",
          "type": "uint256"
        }
      ],
      "stateMutability": "nonpayable",
      "type": "function"
    },
    {
      "inputs": [
        {
          "internalType": "address",
          "name": "issuer",
          "type": "address"
        },
        {
          "internalType": "uint256",
          "name": "amount",
          "type": "uint256"
        }
      ],
      "name": "buyHourlyBondSubscription",
      "outputs": [],
      "stateMutability": "nonpayable",
      "type": "function"
    },
    {
      "inputs": [
        {
          "internalType": "address",
          "name": "issuer",
          "type": "address"
        }
      ],
      "name": "closeHourlyBondAccount",
      "outputs": [],
      "stateMutability": "nonpayable",
      "type": "function"
    },
    {
      "inputs": [
        {
          "internalType": "address",
          "name": "issuer",
          "type": "address"
        }
      ],
      "name": "deactivateIssuer",
      "outputs": [],
      "stateMutability": "nonpayable",
      "type": "function"
    },
    {
      "inputs": [],
      "name": "diffMaxMinRuntime",
      "outputs": [
        {
          "internalType": "uint256",
          "name": "",
          "type": "uint256"
        }
      ],
      "stateMutability": "view",
      "type": "function"
    },
    {
      "inputs": [
        {
          "internalType": "address",
          "name": "issuer",
          "type": "address"
        }
      ],
      "name": "getUpdatedBorrowYieldAccuFP",
      "outputs": [
        {
          "internalType": "uint256",
          "name": "",
          "type": "uint256"
        }
      ],
      "stateMutability": "nonpayable",
      "type": "function"
    },
    {
      "inputs": [
        {
          "internalType": "uint256",
          "name": "amount",
          "type": "uint256"
        }
      ],
      "name": "haircut",
      "outputs": [],
      "stateMutability": "nonpayable",
      "type": "function"
    },
    {
      "inputs": [
        {
          "internalType": "address",
          "name": "",
          "type": "address"
        }
      ],
      "name": "haircuts",
      "outputs": [
        {
          "internalType": "uint256",
          "name": "",
          "type": "uint256"
        }
      ],
      "stateMutability": "view",
      "type": "function"
    },
    {
      "inputs": [
        {
          "internalType": "address",
          "name": "",
          "type": "address"
        },
        {
          "internalType": "address",
          "name": "",
          "type": "address"
        }
      ],
      "name": "hourlyBondAccounts",
      "outputs": [
        {
          "internalType": "uint256",
          "name": "amount",
          "type": "uint256"
        },
        {
          "internalType": "uint256",
          "name": "yieldQuotientFP",
          "type": "uint256"
        },
        {
          "internalType": "uint256",
          "name": "moduloHour",
          "type": "uint256"
        }
      ],
      "stateMutability": "view",
      "type": "function"
    },
    {
      "inputs": [
        {
          "internalType": "address",
          "name": "",
          "type": "address"
        }
      ],
      "name": "incentiveTranches",
      "outputs": [
        {
          "internalType": "uint256",
          "name": "",
          "type": "uint256"
        }
      ],
      "stateMutability": "view",
      "type": "function"
    },
    {
      "inputs": [
        {
          "internalType": "address",
          "name": "issuer",
          "type": "address"
        }
      ],
      "name": "initBorrowYieldAccumulator",
      "outputs": [],
      "stateMutability": "nonpayable",
      "type": "function"
    },
    {
      "inputs": [
        {
          "internalType": "address",
          "name": "",
          "type": "address"
        }
      ],
      "name": "issuerTokens",
      "outputs": [
        {
          "internalType": "address",
          "name": "",
          "type": "address"
        }
      ],
      "stateMutability": "view",
      "type": "function"
    },
    {
      "inputs": [
        {
          "internalType": "address",
          "name": "",
          "type": "address"
        }
      ],
      "name": "lendingMeta",
      "outputs": [
        {
          "internalType": "uint256",
          "name": "totalLending",
          "type": "uint256"
        },
        {
          "internalType": "uint256",
          "name": "totalBorrowed",
          "type": "uint256"
        },
        {
          "internalType": "uint256",
          "name": "lendingBuffer",
          "type": "uint256"
        },
        {
          "internalType": "uint256",
          "name": "lendingCap",
          "type": "uint256"
        }
      ],
      "stateMutability": "view",
      "type": "function"
    },
    {
      "inputs": [
        {
          "internalType": "uint256",
          "name": "",
          "type": "uint256"
        }
      ],
      "name": "mainCharacterCache",
      "outputs": [
        {
          "internalType": "address",
          "name": "",
          "type": "address"
        }
      ],
      "stateMutability": "view",
      "type": "function"
    },
    {
      "inputs": [],
      "name": "maxHourlyYieldFP",
      "outputs": [
        {
          "internalType": "uint256",
          "name": "",
          "type": "uint256"
        }
      ],
      "stateMutability": "view",
      "type": "function"
    },
    {
      "inputs": [],
      "name": "maxRuntime",
      "outputs": [
        {
          "internalType": "uint256",
          "name": "",
          "type": "uint256"
        }
      ],
      "stateMutability": "view",
      "type": "function"
    },
    {
      "inputs": [],
      "name": "minRuntime",
      "outputs": [
        {
          "internalType": "uint256",
          "name": "",
          "type": "uint256"
        }
      ],
      "stateMutability": "view",
      "type": "function"
    },
    {
      "inputs": [],
      "name": "nextBondIndex",
      "outputs": [
        {
          "internalType": "uint256",
          "name": "",
          "type": "uint256"
        }
      ],
      "stateMutability": "view",
      "type": "function"
    },
    {
      "inputs": [
        {
          "internalType": "address",
          "name": "issuer",
          "type": "address"
        },
        {
          "internalType": "uint256",
          "name": "amount",
          "type": "uint256"
        }
      ],
      "name": "payOff",
      "outputs": [],
      "stateMutability": "nonpayable",
      "type": "function"
    },
    {
      "inputs": [
        {
          "internalType": "address",
          "name": "issuer",
          "type": "address"
        },
        {
          "internalType": "uint256",
          "name": "amount",
          "type": "uint256"
        }
      ],
      "name": "registerBorrow",
      "outputs": [],
      "stateMutability": "nonpayable",
      "type": "function"
    },
    {
      "inputs": [
        {
          "internalType": "address",
          "name": "",
          "type": "address"
        },
        {
          "internalType": "uint256",
          "name": "",
          "type": "uint256"
        }
      ],
      "name": "roleCache",
      "outputs": [
        {
          "internalType": "bool",
          "name": "",
          "type": "bool"
        }
      ],
      "stateMutability": "view",
      "type": "function"
    },
    {
      "inputs": [],
      "name": "roles",
      "outputs": [
        {
          "internalType": "contract Roles",
          "name": "",
          "type": "address"
        }
      ],
      "stateMutability": "view",
      "type": "function"
    },
    {
      "inputs": [
        {
          "internalType": "uint256",
          "name": "borrowingFactor",
          "type": "uint256"
        }
      ],
      "name": "setBorrowingFactorPercent",
      "outputs": [],
      "stateMutability": "nonpayable",
      "type": "function"
    },
    {
      "inputs": [
        {
          "internalType": "address",
          "name": "issuer",
          "type": "address"
        },
        {
          "internalType": "uint256",
          "name": "aprPercent",
          "type": "uint256"
        }
      ],
      "name": "setHourlyYieldAPR",
      "outputs": [],
      "stateMutability": "nonpayable",
      "type": "function"
    },
    {
      "inputs": [
        {
          "internalType": "address",
          "name": "token",
          "type": "address"
        },
        {
          "internalType": "uint8",
          "name": "tranche",
          "type": "uint8"
        }
      ],
      "name": "setIncentiveTranche",
      "outputs": [],
      "stateMutability": "nonpayable",
      "type": "function"
    },
    {
      "inputs": [
        {
          "internalType": "address",
          "name": "issuer",
          "type": "address"
        },
        {
          "internalType": "uint256",
          "name": "buffer",
          "type": "uint256"
        }
      ],
      "name": "setLendingBuffer",
      "outputs": [],
      "stateMutability": "nonpayable",
      "type": "function"
    },
    {
      "inputs": [
        {
          "internalType": "address",
          "name": "issuer",
          "type": "address"
        },
        {
          "internalType": "uint256",
          "name": "cap",
          "type": "uint256"
        }
      ],
      "name": "setLendingCap",
      "outputs": [],
      "stateMutability": "nonpayable",
      "type": "function"
    },
    {
      "inputs": [
        {
          "internalType": "uint256",
          "name": "maxYieldFP",
          "type": "uint256"
        }
      ],
      "name": "setMaxHourlyYieldFP",
      "outputs": [],
      "stateMutability": "nonpayable",
      "type": "function"
    },
    {
      "inputs": [
        {
          "internalType": "uint256",
          "name": "runtime",
          "type": "uint256"
        }
      ],
      "name": "setMaxRuntime",
      "outputs": [],
      "stateMutability": "nonpayable",
      "type": "function"
    },
    {
      "inputs": [
        {
          "internalType": "uint256",
          "name": "runtime",
          "type": "uint256"
        }
      ],
      "name": "setMinRuntime",
      "outputs": [],
      "stateMutability": "nonpayable",
      "type": "function"
    },
    {
      "inputs": [
        {
          "internalType": "address",
          "name": "issuer",
          "type": "address"
        },
        {
          "internalType": "uint256[]",
          "name": "weights",
          "type": "uint256[]"
        }
      ],
      "name": "setRuntimeWeights",
      "outputs": [],
      "stateMutability": "nonpayable",
      "type": "function"
    },
    {
      "inputs": [
        {
          "internalType": "address",
          "name": "issuer",
          "type": "address"
        },
        {
          "internalType": "uint256[]",
          "name": "yieldsFP",
          "type": "uint256[]"
        }
      ],
      "name": "setRuntimeYieldsFP",
      "outputs": [],
      "stateMutability": "nonpayable",
      "type": "function"
    },
    {
      "inputs": [
        {
          "internalType": "uint256",
          "name": "window",
          "type": "uint256"
        }
      ],
      "name": "setWithdrawalWindow",
      "outputs": [],
      "stateMutability": "nonpayable",
      "type": "function"
    },
    {
      "inputs": [
        {
          "internalType": "uint256",
          "name": "changePerSecondFP",
          "type": "uint256"
        }
      ],
      "name": "setYieldChangePerSecondFP",
      "outputs": [],
      "stateMutability": "nonpayable",
      "type": "function"
    },
    {
      "inputs": [
        {
          "internalType": "uint256",
          "name": "role",
          "type": "uint256"
        }
      ],
      "name": "updateMainCharacterCache",
      "outputs": [],
      "stateMutability": "nonpayable",
      "type": "function"
    },
    {
      "inputs": [
        {
          "internalType": "uint256",
          "name": "role",
          "type": "uint256"
        },
        {
          "internalType": "address",
          "name": "contr",
          "type": "address"
        }
      ],
      "name": "updateRoleCache",
      "outputs": [],
      "stateMutability": "nonpayable",
      "type": "function"
    },
    {
      "inputs": [
        {
          "internalType": "address",
          "name": "issuer",
          "type": "address"
        }
      ],
      "name": "viewAccumulatedBorrowingYieldFP",
      "outputs": [
        {
          "internalType": "uint256",
          "name": "",
          "type": "uint256"
        }
      ],
      "stateMutability": "view",
      "type": "function"
    },
    {
      "inputs": [
        {
          "internalType": "address",
          "name": "issuer",
          "type": "address"
        },
        {
          "internalType": "uint256",
          "name": "runtime",
          "type": "uint256"
        },
        {
          "internalType": "uint256",
          "name": "amount",
          "type": "uint256"
        }
      ],
      "name": "viewBondReturn",
      "outputs": [
        {
          "internalType": "uint256",
          "name": "",
          "type": "uint256"
        }
      ],
      "stateMutability": "view",
      "type": "function"
    },
    {
      "inputs": [
        {
          "internalType": "address",
          "name": "issuer",
          "type": "address"
        }
      ],
      "name": "viewBorrowAPRPer10k",
      "outputs": [
        {
          "internalType": "uint256",
          "name": "",
          "type": "uint256"
        }
      ],
      "stateMutability": "view",
      "type": "function"
    },
    {
      "inputs": [
        {
          "internalType": "address",
          "name": "issuer",
          "type": "address"
        }
      ],
      "name": "viewHourlyBondAPRPer10k",
      "outputs": [
        {
          "internalType": "uint256",
          "name": "",
          "type": "uint256"
        }
      ],
      "stateMutability": "view",
      "type": "function"
    },
    {
      "inputs": [
        {
          "internalType": "address",
          "name": "issuer",
          "type": "address"
        },
        {
          "internalType": "address",
          "name": "holder",
          "type": "address"
        }
      ],
      "name": "viewHourlyBondAmount",
      "outputs": [
        {
          "internalType": "uint256",
          "name": "",
          "type": "uint256"
        }
      ],
      "stateMutability": "view",
      "type": "function"
    },
    {
      "inputs": [
        {
          "internalType": "address",
          "name": "issuer",
          "type": "address"
        }
      ],
      "name": "viewLendingTarget",
      "outputs": [
        {
          "internalType": "uint256",
          "name": "",
          "type": "uint256"
        }
      ],
      "stateMutability": "view",
      "type": "function"
    },
    {
      "inputs": [
        {
          "internalType": "uint256",
          "name": "balance",
          "type": "uint256"
        },
        {
          "internalType": "address",
          "name": "issuer",
          "type": "address"
        },
        {
          "internalType": "uint256",
          "name": "yieldQuotientFP",
          "type": "uint256"
        }
      ],
      "name": "viewWithBorrowInterest",
      "outputs": [
        {
          "internalType": "uint256",
          "name": "",
          "type": "uint256"
        }
      ],
      "stateMutability": "view",
      "type": "function"
    },
    {
      "inputs": [
        {
          "internalType": "uint256",
          "name": "bondId",
          "type": "uint256"
        }
      ],
      "name": "withdrawBond",
      "outputs": [],
      "stateMutability": "nonpayable",
      "type": "function"
    },
    {
      "inputs": [
        {
          "internalType": "address",
          "name": "issuer",
          "type": "address"
        },
        {
          "internalType": "uint256",
          "name": "amount",
          "type": "uint256"
        }
      ],
      "name": "withdrawHourlyBond",
      "outputs": [],
      "stateMutability": "nonpayable",
      "type": "function"
    },
    {
      "inputs": [],
      "name": "withdrawalWindow",
      "outputs": [
        {
          "internalType": "uint256",
          "name": "",
          "type": "uint256"
        }
      ],
      "stateMutability": "view",
      "type": "function"
    },
    {
      "inputs": [],
      "name": "yieldChangePerSecondFP",
      "outputs": [
        {
          "internalType": "uint256",
          "name": "",
          "type": "uint256"
        }
      ],
      "stateMutability": "view",
      "type": "function"
    }
  ],
  "bytecode": "0x60a060405261025860075560c860095562278d00600a556301e13380600b5560016010553480156200003057600080fd5b5060405162003e1c38038062003e1c83398101604081905262000053916200012d565b806001600160a01b038116620000ba5760405162461bcd60e51b815260206004820152602260248201527f506c656173652070726f766964652076616c696420726f6c6573206164647265604482015261737360f01b606482015260840160405180910390fd5b60601b6001600160601b0319166080526103836122386064620000e3836401000000006200017e565b620000ef91906200015d565b620000fb91906200015d565b60045560036103e862000114826401000000006200017e565b6200012091906200015d565b60055550620001aa915050565b6000602082840312156200013f578081fd5b81516001600160a01b038116811462000156578182fd5b9392505050565b6000826200017957634e487b7160e01b81526012600452602481fd5b500490565b6000816000190483118215151615620001a557634e487b7160e01b81526011600452602481fd5b500290565b60805160601c613c37620001e5600039600081816104f9015281816109e401528181610fc701528181612e710152612f090152613c376000f3fe608060405234801561001057600080fd5b506004361061038e5760003560e01c80637b8b4ee2116101de578063cc4b26a31161010f578063ebc22731116100ad578063f11f97951161007c578063f11f979514610973578063f51dfe7a1461097c578063f884614b1461098f578063f90889c9146109a25761038e565b8063ebc2273114610927578063ebe64bcc1461093a578063ee0862bf1461094d578063ef2cd3b8146109605761038e565b8063d2b48934116100e9578063d2b48934146108b0578063d4437dd8146108c3578063e695fa68146108d6578063e9c3f77d146108fe5761038e565b8063cc4b26a314610865578063cd3b5dfb14610878578063d19bd0a7146108a75761038e565b8063a387832f1161017c578063ad037af611610156578063ad037af6146107df578063b8139c6d14610836578063c3daab961461083f578063c94426a0146108525761038e565b8063a387832f146107b0578063a772404b146107c3578063aa7e321d146107d65761038e565b806383a04229116101b857806383a042291461071f5780638824cbba1461077457806391b46e05146107945780639229e73f146107a75761038e565b80637b8b4ee2146106e65780637d34e405146106f9578063803a99b71461070c5761038e565b8063447d52ba116102c357806367e2de9211610261578063773bbb3b11610230578063773bbb3b14610669578063797384b2146106725780637a009135146106a55780637a1a04df146106b85761038e565b806367e2de92146106275780636e60e2491461063057806372d012571461064357806376668b67146106565761038e565b80634b86daab1161029d5780634b86daab1461055457806358d51f91146105675780635f1c17c01461057057806364f85ab1146106075761038e565b8063447d52ba1461051b57806346c87f801461052e5780634804dd34146105415761038e565b8063267031b8116103305780632864f4011161030a5780632864f401146104bb5780632a6a897b146104ce57806336953912146104e1578063392f5f64146104f45761038e565b8063267031b81461042357806326e0b3531461042c578063281080261461047a5761038e565b80630f7c43dc1161036c5780630f7c43dc146103d7578063117b2630146103ea57806314189db2146103fd57806316de7a43146104105761038e565b8063071060a6146103935780630b550546146103a85780630bba92b3146103c4575b600080fd5b6103a66103a1366004613a8e565b6109b5565b005b6103b1600c5481565b6040519081526020015b60405180910390f35b6103b16103d23660046139ce565b610aa1565b6103a66103e53660046139a3565b610b8b565b6103b16103f8366004613857565b610c16565b6103b161040b366004613857565b610c40565b6103a661041e3660046139a3565b610c62565b6103b160095481565b61043f61043a3660046139a3565b610d23565b604080519889526020890197909752958701949094526060860192909252608085015260a084015260c083015260e0820152610100016103bb565b6104a3610488366004613857565b6013602052600090815260409020546001600160a01b031681565b6040516001600160a01b0390911681526020016103bb565b6103a66104c9366004613a3c565b610d88565b6103a66104dc3660046139a3565b610e6b565b6103a66104ef366004613a8e565b610f0a565b6104a37f000000000000000000000000000000000000000000000000000000000000000081565b6103a6610529366004613abe565b610f88565b6103b161053c366004613857565b611079565b6103a661054f366004613a8e565b6110a1565b6103a6610562366004613857565b61111f565b6103b1600d5481565b6105c761057e366004613a8e565b600e6020526000908152604090208054600182015460028301546003840154600485015460058601546006909601546001600160a01b0395861696959094169492939192909187565b604080516001600160a01b039889168152979096166020880152948601939093526060850191909152608084015260a083015260c082015260e0016103bb565b6103b1610615366004613857565b60146020526000908152604090205481565b6103b160045481565b6103b161063e366004613896565b61112c565b6103b1610651366004613857565b6111b7565b6103b1610664366004613ae2565b6111d8565b6103b1600a5481565b610695610680366004613857565b60156020526000908152604090205460ff1681565b60405190151581526020016103bb565b6103a66106b3366004613857565b611212565b6106956106c63660046139a3565b600160209081526000928352604080842090915290825290205460ff1681565b6103b16106f4366004613a02565b6112f4565b6103a66107073660046138ce565b6114a3565b6103a661071a366004613a8e565b6115b3565b61075961072d366004613896565b600860209081526000928352604080842090915290825290208054600182015460029092015490919083565b604080519384526020840192909252908201526060016103bb565b6103b1610782366004613857565b60116020526000908152604090205481565b6103a66107a2366004613a8e565b61171f565b6103b1600b5481565b6103a66107be3660046139a3565b61179d565b6103a66107d13660046138ce565b61187e565b6103b160105481565b6108166107ed366004613857565b600260208190526000918252604090912080546001820154928201546003909201549092919084565b6040805194855260208501939093529183015260608201526080016103bb565b6103b161271081565b6103a661084d366004613a8e565b611b89565b6103a6610860366004613a8e565b611c8c565b6103a6610873366004613857565b611d0a565b610759610886366004613857565b60036020526000908152604090208054600182015460029092015490919083565b6103b160075481565b6103a66108be3660046139a3565b611e78565b6103a66108d1366004613a8e565b611f58565b6108e96108e4366004613ae2565b611f7f565b604080519283526020830191909152016103bb565b6104a361090c366004613a8e565b6000602081905290815260409020546001600160a01b031681565b6103a6610935366004613a8e565b61206d565b6103a6610948366004613896565b612162565b6103a661095b3660046139a3565b612275565b6103b161096e3660046139a3565b6123f5565b6103b160055481565b6103b161098a366004613857565b612426565b6103a661099d366004613857565b612447565b6103a66109b03660046139a3565b6124cb565b6040517fb4ed0b6d000000000000000000000000000000000000000000000000000000008152600481018290527f00000000000000000000000000000000000000000000000000000000000000006001600160a01b03169063b4ed0b6d9060240160206040518083038186803b158015610a2e57600080fd5b505afa158015610a42573d6000803e3d6000fd5b505050506040513d601f19601f82011682018060405250810190610a66919061387a565b600091825260208290526040909120805473ffffffffffffffffffffffffffffffffffffffff19166001600160a01b03909216919091179055565b600080610aae8585612687565b90506000610b6586600f6000896001600160a01b03166001600160a01b031681526020019081526020016000208481548110610afa57634e487b7160e01b600052603260045260246000fd5b90600052602060002090600802016006015486610b179190613b19565b6001600160a01b0389166000908152600f60205260409020805489919087908110610b5257634e487b7160e01b600052603260045260246000fd5b90600052602060002090600802016126d1565b9050640100000000610b778583613b45565b610b819190613b31565b9695505050505050565b6001600160a01b03821660009081526008602090815260408083203384529091529020610bb883826127d6565b610bc3838284612863565b8054610bfb576001600160a01b0383166000908152600860209081526040808320338452909152812081815560018101829055600201555b610c0683338461298a565b610c11338484612b14565b505050565b6001600160a01b0381166000908152600260205260408120610c3781612bf2565b9150505b919050565b6001600160a01b0381166000908152600360205260408120610c378142612c15565b6001600160a01b03821660009081526015602052604090205460ff16610ccf5760405162461bcd60e51b815260206004820152601660248201527f4e6f7420616e20617070726f766564206973737565720000000000000000000060448201526064015b60405180910390fd5b6001600160a01b03821660009081526002602052604090208054610cf4908390613b19565b610cfd82612bf2565b10610c1157610d0d833384612c4f565b610d18833384612cf5565b610c11338484612dc3565b600f6020528160005260406000208181548110610d3f57600080fd5b9060005260206000209060080201600091509150508060000154908060010154908060020154908060030154908060040154908060050154908060060154908060070154905088565b33610d91612e6d565b6001600160a01b03161480610db5575033610daa612f05565b6001600160a01b0316145b80610ddb57503360009081526001602090815260408083206009845290915290205460ff165b610e495760405162461bcd60e51b815260206004820152603960248201527f43616c6c6572206973206e6f7420746865206f776e65722c206578656375746f604482015278391037b91030baba3437b934bd32b21030b1ba34bb30ba37b960391b6064820152608401610cc6565b6001600160a01b03909116600090815260116020526040902060ff9091169055565b3360009081526001602090815260408083206003845290915290205460ff16610ed65760405162461bcd60e51b815260206004820152601860248201527f4e6f7420616e20617070726f76656420626f72726f77657200000000000000006044820152606401610cc6565b6001600160a01b03821660009081526002602052604081206001018054839290610f01908490613b64565b90915550505050565b33610f13612e6d565b6001600160a01b03161480610f37575033610f2c612f05565b6001600160a01b0316145b610f835760405162461bcd60e51b815260206004820152601e60248201527f526f6c65733a2063616c6c6572206973206e6f7420746865206f776e657200006044820152606401610cc6565b600755565b6040517f93552a3d000000000000000000000000000000000000000000000000000000008152600481018390526001600160a01b0382811660248301527f000000000000000000000000000000000000000000000000000000000000000016906393552a3d9060440160206040518083038186803b15801561100957600080fd5b505afa15801561101d573d6000803e3d6000fd5b505050506040513d601f19601f820116820180604052508101906110419190613a6e565b6001600160a01b0391909116600090815260016020908152604080832094835293905291909120805460ff1916911515919091179055565b6001600160a01b038116600090815260036020526040812061109a81612f76565b5492915050565b336110aa612e6d565b6001600160a01b031614806110ce5750336110c3612f05565b6001600160a01b0316145b61111a5760405162461bcd60e51b815260206004820152601e60248201527f526f6c65733a2063616c6c6572206973206e6f7420746865206f776e657200006044820152606401610cc6565b600455565b6111298182612162565b50565b6001600160a01b0380831660008181526008602090815260408083209486168352938152838220600181015493835260069091529281209092919083906111739042612c15565b9050811561119e578254611188908284612fab565b83546111949190613b19565b93505050506111b1565b82546111ab906000613b19565b93505050505b92915050565b6001600160a01b03811660009081526006602052604081206111b190612fb8565b6001600160a01b038216600090815260036020526040812081906111fc9042612c15565b9050611209858285612fab565b95945050505050565b3361121b612e6d565b6001600160a01b0316148061123f575033611234612f05565b6001600160a01b0316145b8061126557503360009081526001602090815260408083206009845290915290205460ff165b6112d35760405162461bcd60e51b815260206004820152603960248201527f43616c6c6572206973206e6f7420746865206f776e65722c206578656375746f604482015278391037b91030baba3437b934bd32b21030b1ba34bb30ba37b960391b6064820152608401610cc6565b6001600160a01b03166000908152601560205260409020805460ff19169055565b6001600160a01b03841660009081526015602052604081205460ff1661135c5760405162461bcd60e51b815260206004820152601660248201527f4e6f7420616e20617070726f76656420697373756572000000000000000000006044820152606401610cc6565b6001600160a01b03851660009081526002602052604090208054611381908590613b19565b61138a82612bf2565b1015801561139a575084600b5410155b80156113a85750600a548510155b1561149a576113ba3387878787613014565b9150811561149a57606560009081526020527f4a7203f705e51df4a56139a9b86b4a0970bed7ab7a3446eaffe2289989c1645c546001600160a01b031660405163b3db428b60e01b81523360048201526001600160a01b03888116602483015260448201879052919091169063b3db428b90606401600060405180830381600087803b15801561144957600080fd5b505af115801561145d573d6000803e3d6000fd5b50503360008181526012602090815260408220805460018101825590835291200185905561148f925088915086612c4f565b61149a338786612dc3565b50949350505050565b336114ac612e6d565b6001600160a01b031614806114d05750336114c5612f05565b6001600160a01b0316145b61151c5760405162461bcd60e51b815260206004820152601e60248201527f526f6c65733a2063616c6c6572206973206e6f7420746865206f776e657200006044820152606401610cc6565b6001600160a01b0382166000908152600f60205260408120905b81548110156115ad5782818151811061155f57634e487b7160e01b600052603260045260246000fd5b602002602001015182828154811061158757634e487b7160e01b600052603260045260246000fd5b6000918252602090912060076008909202010155806115a581613b7b565b915050611536565b50505050565b336115bc612e6d565b6001600160a01b031614806115e05750336115d5612f05565b6001600160a01b0316145b61162c5760405162461bcd60e51b815260206004820152601e60248201527f526f6c65733a2063616c6c6572206973206e6f7420746865206f776e657200006044820152606401610cc6565b610e1081116116a35760405162461bcd60e51b815260206004820152602760248201527f4d696e2072756e74696d65206e6565647320746f206265206174206c6561737460448201527f203120686f7572000000000000000000000000000000000000000000000000006064820152608401610cc6565b80600b541161171a5760405162461bcd60e51b815260206004820152602c60248201527f4d696e2072756e74696d65206d75737420626520736d616c6c6572207468616e60448201527f206d61782072756e74696d6500000000000000000000000000000000000000006064820152608401610cc6565b600a55565b33611728612e6d565b6001600160a01b0316148061174c575033611741612f05565b6001600160a01b0316145b6117985760405162461bcd60e51b815260206004820152601e60248201527f526f6c65733a2063616c6c6572206973206e6f7420746865206f776e657200006044820152606401610cc6565b600955565b336117a6612e6d565b6001600160a01b031614806117ca5750336117bf612f05565b6001600160a01b0316145b806117f057503360009081526001602090815260408083206009845290915290205460ff165b61185e5760405162461bcd60e51b815260206004820152603960248201527f43616c6c6572206973206e6f7420746865206f776e65722c206578656375746f604482015278391037b91030baba3437b934bd32b21030b1ba34bb30ba37b960391b6064820152608401610cc6565b6001600160a01b0390911660009081526002602081905260409091200155565b33611887612e6d565b6001600160a01b031614806118ab5750336118a0612f05565b6001600160a01b0316145b806118d157503360009081526001602090815260408083206009845290915290205460ff165b61193f5760405162461bcd60e51b815260206004820152603960248201527f43616c6c6572206973206e6f7420746865206f776e65722c206578656375746f604482015278391037b91030baba3437b934bd32b21030b1ba34bb30ba37b960391b6064820152608401610cc6565b6001600160a01b0382166000908152600f602052604090208054611ac15760006122386064611974640100000000606e613b45565b61197e9190613b31565b6119889190613b31565b905060008351600c5461199b9190613b31565b905060005b8085511115611ab95760006119b58284613b45565b600a546119c29190613b19565b9050846040518061010001604052808885815181106119f157634e487b7160e01b600052603260045260246000fd5b60200260200101518152602001600181526020014281526020016001815260200142815260200142815260200160008152602001610e108488611a349190613b45565b611a3e9190613b31565b905281546001818101845560009384526020938490208351600890930201918255928201519281019290925560408101516002830155606081015160038301556080810151600483015560a0810151600583015560c0810151600683015560e001516007909101555080611ab181613b7b565b9150506119a0565b505050610c11565b8054825114611b125760405162461bcd60e51b815260206004820152601b60248201527f5765696768747320646f6e2774206d61746368206275636b65747300000000006044820152606401610cc6565b60005b80835111156115ad57828181518110611b3e57634e487b7160e01b600052603260045260246000fd5b6020026020010151828281548110611b6657634e487b7160e01b600052603260045260246000fd5b600091825260209091206008909102015580611b8181613b7b565b915050611b15565b6000818152600e6020526040902080546001600160a01b03163314611bf05760405162461bcd60e51b815260206004820152601260248201527f4e6f7420686f6c646572206f6620626f6e6400000000000000000000000000006044820152606401610cc6565b80600401544211611c435760405162461bcd60e51b815260206004820152601660248201527f626f6e64206973207374696c6c20696d6d6174757265000000000000000000006044820152606401610cc6565b60018101546002820154611c649133916001600160a01b0390911690612b14565b6000611c708383613226565b6001830154909150610c11906001600160a01b0316338361298a565b33611c95612e6d565b6001600160a01b03161480611cb9575033611cae612f05565b6001600160a01b0316145b611d055760405162461bcd60e51b815260206004820152601e60248201527f526f6c65733a2063616c6c6572206973206e6f7420746865206f776e657200006044820152606401610cc6565b600555565b33611d13612e6d565b6001600160a01b03161480611d37575033611d2c612f05565b6001600160a01b0316145b80611d5d57503360009081526001602090815260408083206009845290915290205460ff165b611dcb5760405162461bcd60e51b815260206004820152603960248201527f43616c6c6572206973206e6f7420746865206f776e65722c206578656375746f604482015278391037b91030baba3437b934bd32b21030b1ba34bb30ba37b960391b6064820152608401610cc6565b6001600160a01b03811660009081526003602052604090205415611e575760405162461bcd60e51b815260206004820152602960248201527f747279696e6720746f2072652d696e697469616c697a65207969656c6420616360448201527f63756d756c61746f7200000000000000000000000000000000000000000000006064820152608401610cc6565b6001600160a01b031660009081526003602052604090206401000000009055565b33611e81612e6d565b6001600160a01b03161480611ea5575033611e9a612f05565b6001600160a01b0316145b80611ecb57503360009081526001602090815260408083206009845290915290205460ff165b611f395760405162461bcd60e51b815260206004820152603960248201527f43616c6c6572206973206e6f7420746865206f776e65722c206578656375746f604482015278391037b91030baba3437b934bd32b21030b1ba34bb30ba37b960391b6064820152608401610cc6565b6001600160a01b03909116600090815260026020526040902060030155565b3360009081526014602052604081208054839290611f77908490613b19565b909155505050565b33600090815260016020908152604080832060038452909152812054819060ff16611fec5760405162461bcd60e51b815260206004820152601860248201527f4e6f7420616e20617070726f76656420626f72726f77657200000000000000006044820152606401610cc6565b6001600160a01b038416600090815260036020526040902061200d81612f76565b8054915061201c868386612fab565b9250600061202a8785613b64565b6001600160a01b0387166000908152600260205260408120600181018054939450909284929061205b908490613b19565b92505081905550505050935093915050565b33612076612e6d565b6001600160a01b0316148061209a57503361208f612f05565b6001600160a01b0316145b6120e65760405162461bcd60e51b815260206004820152601e60248201527f526f6c65733a2063616c6c6572206973206e6f7420746865206f776e657200006044820152606401610cc6565b600a54811161215d5760405162461bcd60e51b815260206004820152602c60248201527f4d61782072756e74696d65206d7573742062652067726561746572207468616e60448201527f206d696e2072756e74696d6500000000000000000000000000000000000000006064820152608401610cc6565b600b55565b3361216b612e6d565b6001600160a01b0316148061218f575033612184612f05565b6001600160a01b0316145b806121b557503360009081526001602090815260408083206009845290915290205460ff165b6122235760405162461bcd60e51b815260206004820152603960248201527f43616c6c6572206973206e6f7420746865206f776e65722c206578656375746f604482015278391037b91030baba3437b934bd32b21030b1ba34bb30ba37b960391b6064820152608401610cc6565b6001600160a01b039182166000908152601560209081526040808320805460ff191660011790556013909152902080549190921673ffffffffffffffffffffffffffffffffffffffff19909116179055565b3360009081526001602090815260408083206003845290915290205460ff166122e05760405162461bcd60e51b815260206004820152601860248201527f4e6f7420616e20617070726f76656420626f72726f77657200000000000000006044820152606401610cc6565b6001600160a01b03821660009081526015602052604090205460ff166123485760405162461bcd60e51b815260206004820152601660248201527f4e6f7420616e20617070726f76656420697373756572000000000000000000006044820152606401610cc6565b6001600160a01b038216600090815260026020526040812060018101805491928492612375908490613b19565b9091555050600181015481541015610c115760405162461bcd60e51b815260206004820152602e60248201527f496e73756666696369656e74206361706974616c20746f206c656e642c20747260448201527f7920616761696e206c61746572210000000000000000000000000000000000006064820152608401610cc6565b6012602052816000526040600020818154811061241157600080fd5b90600052602060002001600091509150505481565b6001600160a01b03811660009081526003602052604081206111b190612fb8565b6001600160a01b0381166000908152600860209081526040808320338452909152902061247482826127d6565b8054612481838383612863565b61248c83338361298a565b6001600160a01b038316600090815260086020908152604080832033808552925282208281556001810183905560020191909155610c11908483612b14565b336124d4612e6d565b6001600160a01b031614806124f85750336124ed612f05565b6001600160a01b0316145b8061251e57503360009081526001602090815260408083206009845290915290205460ff165b61258c5760405162461bcd60e51b815260206004820152603960248201527f43616c6c6572206973206e6f7420746865206f776e65722c206578656375746f604482015278391037b91030baba3437b934bd32b21030b1ba34bb30ba37b960391b6064820152608401610cc6565b6001600160a01b0382166000908152600660205260409020805461263c57604051806060016040528064010000000081526020014281526020016122386064856401000000006125dc9190613b45565b6125e69190613b31565b6125f09190613b31565b6125ff90640100000000613b19565b9052805182556020810151600180840191909155604090910151600283015560038201819055600482015542600582018190556006820155610c11565b6000612648848361342e565b905061223860646126598582613b19565b61266890640100000000613b45565b6126729190613b31565b61267c9190613b31565b600290910155505050565b6001600160a01b0382166000908152600f6020526040812054600c5482916126ae91613b31565b905080600a54846126bf9190613b64565b6126c99190613b31565b949350505050565b6000808260060154856126e49190613b19565b600784015460058501546001600160a01b038916600090815260026020526040812087549396509394509092916127109061271e84612bf2565b6127289190613b45565b6127329190613b31565b6001808801546003808a01546001600160a01b038e1660009081526020929092526040822087549596509294909361276a9190613b19565b8660010154836002015461277e9190613b45565b6127889190613b31565b9050600061279860045483613541565b905060006127a8610e108e613b31565b6127b29083613b45565b90506127c38b8a8c8a8a8a87613559565b9f9e505050505050505050505050505050565b60018101548015610c11576001600160a01b038316600090815260066020526040812061280490859061342e565b835481549192509061281890829085612fab565b808555600090612829908390613b64565b6001600160a01b038716600090815260026020526040812080549293508392909190612856908490613b19565b9091555050505050505050565b6000610e108360020154426128789190613b64565b6128829190613b96565b90508060075410156128fc5760405162461bcd60e51b815260206004820152603f60248201527f5472696564207769746864726177696e67206f7574736964652073756273637260448201527f697074696f6e2063616e63656c6c6174696f6e2074696d652077696e646f77006064820152608401610cc6565b818360000160008282546129109190613b64565b90915550506001600160a01b0384166000908152600260205260408120805484929061293d908490613b64565b90915550506001600160a01b03841660009081526006602081905260409091206004810154918101548554919261297992909190610e106135ce565b600683015560049091015550505050565b6001600160a01b03831660009081526014602052604090205480158015906129b25750600082115b15612a31576001600160a01b03841660009081526002602052604081205490816129dc8185613541565b6129e69086613b45565b6129f09190613b31565b90506129fc8185613b64565b6001600160a01b038716600090815260146020526040812080549296508392909190612a29908490613b64565b909155505050505b6001600160a01b0380851660009081526013602052604090205416612a87606560009081526020527f4a7203f705e51df4a56139a9b86b4a0970bed7ab7a3446eaffe2289989c1645c546001600160a01b031690565b6040517fd9caed120000000000000000000000000000000000000000000000000000000081526001600160a01b038381166004830152868116602483015260448201869052919091169063d9caed12906064015b600060405180830381600087803b158015612af557600080fd5b505af1158015612b09573d6000803e3d6000fd5b505050505050505050565b6001600160a01b038216600090815260116020526040902054612b68606c60009081526020527f3c1fcba39712202dbd455253568bf32dd0a3bedb5c3ff0de4b22d4e45e50dc92546001600160a01b031690565b6040517fc6c9faa1000000000000000000000000000000000000000000000000000000008152600481018390526001600160a01b03868116602483015260448201859052919091169063c6c9faa190606401600060405180830381600087803b158015612bd457600080fd5b505af1158015612be8573d6000803e3d6000fd5b5050505050505050565b60006111b1826003015483600201548460010154612c109190613b19565b613541565b600080836001015483612c289190613b64565b905061012c811115612c4657612c3e848261366e565b9150506111b1565b505081546111b1565b606560009081526020527f4a7203f705e51df4a56139a9b86b4a0970bed7ab7a3446eaffe2289989c1645c546001600160a01b031660405163b3db428b60e01b81526001600160a01b038481166004830152858116602483015260448201849052919091169063b3db428b90606401600060405180830381600087803b158015612cd857600080fd5b505af1158015612cec573d6000803e3d6000fd5b50505050505050565b6001600160a01b038084166000908152600860209081526040808320938616835292905220612d2484826127d6565b6001600160a01b038416600090815260066020526040902080546001830155612d4f610e1042613b96565b6002830155815483908390600090612d68908490613b19565b90915550506001600160a01b03851660009081526002602052604081208054859290612d95908490613b19565b92505081905550612db28160030154826005015485610e106135ce565b600583015560039091015550505050565b6000612e00606c60009081526020527f3c1fcba39712202dbd455253568bf32dd0a3bedb5c3ff0de4b22d4e45e50dc92546001600160a01b031690565b6001600160a01b03848116600090815260116020526040908190205490517f2b5de286000000000000000000000000000000000000000000000000000000008152600481018290528783166024820152604481018690529293509190831690632b5de28690606401612adb565b60007f00000000000000000000000000000000000000000000000000000000000000006001600160a01b0316638da5cb5b6040518163ffffffff1660e01b815260040160206040518083038186803b158015612ec857600080fd5b505afa158015612edc573d6000803e3d6000fd5b505050506040513d601f19601f82011682018060405250810190612f00919061387a565b905090565b60007f00000000000000000000000000000000000000000000000000000000000000006001600160a01b031663c34c08e56040518163ffffffff1660e01b8152600401602060405180830381600087803b158015612f6257600080fd5b505af1158015612edc573d6000803e3d6000fd5b6000816001015442612f889190613b64565b905061012c811115612fa757612f9e828261366e565b82554260018301555b5050565b6000816126bf8486613b45565b600281015460009081610e10612fd5640100000000612710613b45565b612fe184612710613b45565b612feb9190613b64565b612ff9906301e13380613b45565b6130039190613b31565b90506126c964010000000082613b31565b6000806130218686612687565b6001600160a01b0387166000908152600f60205260408120805492935090918390811061305e57634e487b7160e01b600052603260045260246000fd5b90600052602060002090600802019050600061307c888789856126d1565b905060006401000000006130908884613b45565b61309a9190613b31565b905085811061321957600060026130b1838a613b19565b6130bb9190613b31565b6001600160a01b038b166000908152600260205260408120805492935083929091906130e8908490613b19565b92505081905550808460060160008282546131039190613b19565b90915550506010805496508690600061311b83613b7b565b91905055506040518060e001604052808c6001600160a01b031681526020018b6001600160a01b031681526020018981526020018381526020018a426131619190613b19565b815260208082018c905260409182018690526000898152600e8252829020835181546001600160a01b0391821673ffffffffffffffffffffffffffffffffffffffff199182161783559285015160018084018054929093169190941617905591830151600280840191909155606084015160038401556080840151600484015560a0840151600584015560c0909301516006909201919091558501549085015461320d91908a8c6135ce565b60028601556001850155505b5050505095945050505050565b600181015460058201546000916001600160a01b031690829061324a908390612687565b6001600160a01b0383166000908152600f60205260408120805492935090918390811061328757634e487b7160e01b600052603260045260246000fd5b600091825260208220600388015488546002808b01546008909502909301955090936001600160a01b03909116929091906132c3908590613b19565b6132cd9190613b31565b6001600160a01b0387166000908152600260205260408120805492935091839183916132fa908490613b64565b92505081905550818560060160008282546133159190613b64565b92505081905550613338856003015486600401548b600201548c600501546135ce565b60048088019190915560038088019290925560008c8152600e60205260408120805473ffffffffffffffffffffffffffffffffffffffff19908116825560018281018054909216909155600282018390559381018290559182018190556005820181905560069091015581549082015411806133bb5750836133b988613717565b105b1561341d57826001600160a01b0316876001600160a01b03167fbcab653cf73e12f7bb78aa625dccb002864f5de7de2518796fb5b82fd6e6ab058660405161340591815260200190565b60405180910390a361341887848661384c565b613421565b8397505b5050505050505092915050565b6001810154819060006134418242613b64565b6001600160a01b038616600090815260036020526040902090915061012c82111561350057613470848361366e565b84556001600160a01b0386166000908152600260205260408120805490919061349a906001613b19565b826001015484600201546134ae9190613b45565b6134b89190613b31565b905060006134c860045483613541565b90506134f187600201548785600001546134e187612bf2565b8c600301548d6004015487613559565b60028801555050426001860155505b61350981612f76565b6064846002015460095461351d9190613b45565b6135279190613b31565b613532906001613b19565b60029091015550909392505050565b6000818311156135525750806111b1565b50816111b1565b8660006135668842613b64565b90506000600554826135789190613b45565b905086881015806135895750848610155b156135a9576135988382613541565b6135a29084613b64565b92506135c1565b6135b38184613b19565b9250838311156135c1578392505b5050979650505050505050565b600080806135dc8642613b64565b905060006135eb826001613b19565b6135f58688613b45565b6135ff9190613b31565b90506000600361361187611c20613b19565b61361b9190613b31565b9050600061362a846001613b19565b90506136368183613b19565b6136408285613b45565b61364a848d613b45565b6136549190613b19565b61365e9190613b31565b9a429a5098505050505050505050565b60008061367d610e1084613b96565b9050613690640100000000610e10613b45565b6002850154855483916136a291613b45565b6136ac9190613b45565b6136b69190613b31565b915060006136c6610e1085613b31565b9050801561370f5760005b8082111561370d576401000000008660020154856136ef9190613b45565b6136f99190613b31565b93508061370581613b7b565b9150506136d1565b505b505092915050565b6001600160a01b038082166000818152601360205260408120549092169081141561381d57806001600160a01b03166370a08231613786606560009081526020527f4a7203f705e51df4a56139a9b86b4a0970bed7ab7a3446eaffe2289989c1645c546001600160a01b031690565b6040517fffffffff0000000000000000000000000000000000000000000000000000000060e084901b1681526001600160a01b03909116600482015260240160206040518083038186803b1580156137dd57600080fd5b505afa1580156137f1573d6000803e3d6000fd5b505050506040513d601f19601f820116820180604052508101906138159190613aa6565b915050610c3b565b6001600160a01b0383166000908152601460209081526040808320546002909252909120546138159190613b64565b610c11838383612cf5565b600060208284031215613868578081fd5b813561387381613bec565b9392505050565b60006020828403121561388b578081fd5b815161387381613bec565b600080604083850312156138a8578081fd5b82356138b381613bec565b915060208301356138c381613bec565b809150509250929050565b600080604083850312156138e0578182fd5b82356138eb81613bec565b915060208381013567ffffffffffffffff80821115613908578384fd5b818601915086601f83011261391b578384fd5b81358181111561392d5761392d613bd6565b8060051b604051601f19603f8301168101818110858211171561395257613952613bd6565b604052828152858101935084860182860187018b1015613970578788fd5b8795505b83861015613992578035855260019590950194938601938601613974565b508096505050505050509250929050565b600080604083850312156139b5578182fd5b82356139c081613bec565b946020939093013593505050565b6000806000606084860312156139e2578081fd5b83356139ed81613bec565b95602085013595506040909401359392505050565b60008060008060808587031215613a17578081fd5b8435613a2281613bec565b966020860135965060408601359560600135945092505050565b60008060408385031215613a4e578182fd5b8235613a5981613bec565b9150602083013560ff811681146138c3578182fd5b600060208284031215613a7f578081fd5b81518015158114613873578182fd5b600060208284031215613a9f578081fd5b5035919050565b600060208284031215613ab7578081fd5b5051919050565b60008060408385031215613ad0578182fd5b8235915060208301356138c381613bec565b600080600060608486031215613af6578283fd5b833592506020840135613b0881613bec565b929592945050506040919091013590565b60008219821115613b2c57613b2c613baa565b500190565b600082613b4057613b40613bc0565b500490565b6000816000190483118215151615613b5f57613b5f613baa565b500290565b600082821015613b7657613b76613baa565b500390565b6000600019821415613b8f57613b8f613baa565b5060010190565b600082613ba557613ba5613bc0565b500690565b634e487b7160e01b600052601160045260246000fd5b634e487b7160e01b600052601260045260246000fd5b634e487b7160e01b600052604160045260246000fd5b6001600160a01b038116811461112957600080fdfea2646970667358221220383eb71975c67ce333de2c06a0036e7ebabdd2737ef99353e7709005d955632e64736f6c63430008030033",
  "linkReferences": {},
  "deployedLinkReferences": {}
}