{
  "_format": "hh-sol-artifact-1",
  "contractName": "Lending",
  "sourceName": "contracts/Lending.sol",
  "abi": [
    {
      "inputs": [
        {
          "internalType": "address",
          "name": "_roles",
          "type": "address"
        }
      ],
      "stateMutability": "nonpayable",
      "type": "constructor"
    },
    {
      "anonymous": false,
      "inputs": [
        {
          "indexed": true,
          "internalType": "address",
          "name": "issuer",
          "type": "address"
        },
        {
          "indexed": true,
          "internalType": "address",
          "name": "holder",
          "type": "address"
        },
        {
          "indexed": false,
          "internalType": "uint256",
          "name": "value",
          "type": "uint256"
        }
      ],
      "name": "LiquidityWarning",
      "type": "event"
    },
    {
      "inputs": [],
      "name": "WEIGHT_TOTAL_10k",
      "outputs": [
        {
          "internalType": "uint256",
          "name": "",
          "type": "uint256"
        }
      ],
      "stateMutability": "view",
      "type": "function"
    },
    {
      "inputs": [
        {
          "internalType": "address",
          "name": "issuer",
          "type": "address"
        }
      ],
      "name": "activateIssuer",
      "outputs": [],
      "stateMutability": "nonpayable",
      "type": "function"
    },
    {
      "inputs": [
        {
          "internalType": "address",
          "name": "issuer",
          "type": "address"
        },
        {
          "internalType": "address",
          "name": "token",
          "type": "address"
        }
      ],
      "name": "activateIssuer",
      "outputs": [],
      "stateMutability": "nonpayable",
      "type": "function"
    },
    {
      "inputs": [
        {
          "internalType": "address",
          "name": "",
          "type": "address"
        }
      ],
      "name": "activeIssuers",
      "outputs": [
        {
          "internalType": "bool",
          "name": "",
          "type": "bool"
        }
      ],
      "stateMutability": "view",
      "type": "function"
    },
    {
      "inputs": [
        {
          "internalType": "uint256",
          "name": "balance",
          "type": "uint256"
        },
        {
          "internalType": "address",
          "name": "issuer",
          "type": "address"
        },
        {
          "internalType": "uint256",
          "name": "yieldQuotientFP",
          "type": "uint256"
        }
      ],
      "name": "applyBorrowInterest",
      "outputs": [
        {
          "internalType": "uint256",
          "name": "balanceWithInterest",
          "type": "uint256"
        },
        {
          "internalType": "uint256",
          "name": "accumulatorFP",
          "type": "uint256"
        }
      ],
      "stateMutability": "nonpayable",
      "type": "function"
    },
    {
      "inputs": [
        {
          "internalType": "address",
          "name": "",
          "type": "address"
        },
        {
          "internalType": "uint256",
          "name": "",
          "type": "uint256"
        }
      ],
      "name": "bondBucketMetadata",
      "outputs": [
        {
          "internalType": "uint256",
          "name": "runtimeWeight",
          "type": "uint256"
        },
        {
          "internalType": "uint256",
          "name": "buyingSpeed",
          "type": "uint256"
        },
        {
          "internalType": "uint256",
          "name": "lastBought",
          "type": "uint256"
        },
        {
          "internalType": "uint256",
          "name": "withdrawingSpeed",
          "type": "uint256"
        },
        {
          "internalType": "uint256",
          "name": "lastWithdrawn",
          "type": "uint256"
        },
        {
          "internalType": "uint256",
          "name": "yieldLastUpdated",
          "type": "uint256"
        },
        {
          "internalType": "uint256",
          "name": "totalLending",
          "type": "uint256"
        },
        {
          "internalType": "uint256",
          "name": "runtimeYieldFP",
          "type": "uint256"
        }
      ],
      "stateMutability": "view",
      "type": "function"
    },
    {
      "inputs": [
        {
          "internalType": "address",
          "name": "",
          "type": "address"
        },
        {
          "internalType": "uint256",
          "name": "",
          "type": "uint256"
        }
      ],
      "name": "bondIds",
      "outputs": [
        {
          "internalType": "uint256",
          "name": "",
          "type": "uint256"
        }
      ],
      "stateMutability": "view",
      "type": "function"
    },
    {
      "inputs": [
        {
          "internalType": "uint256",
          "name": "",
          "type": "uint256"
        }
      ],
      "name": "bonds",
      "outputs": [
        {
          "internalType": "address",
          "name": "holder",
          "type": "address"
        },
        {
          "internalType": "address",
          "name": "issuer",
          "type": "address"
        },
        {
          "internalType": "uint256",
          "name": "originalPrice",
          "type": "uint256"
        },
        {
          "internalType": "uint256",
          "name": "returnAmount",
          "type": "uint256"
        },
        {
          "internalType": "uint256",
          "name": "maturityTimestamp",
          "type": "uint256"
        },
        {
          "internalType": "uint256",
          "name": "runtime",
          "type": "uint256"
        },
        {
          "internalType": "uint256",
          "name": "yieldFP",
          "type": "uint256"
        }
      ],
      "stateMutability": "view",
      "type": "function"
    },
    {
      "inputs": [
        {
          "internalType": "address",
          "name": "",
          "type": "address"
        }
      ],
      "name": "borrowYieldAccumulators",
      "outputs": [
        {
          "internalType": "uint256",
          "name": "accumulatorFP",
          "type": "uint256"
        },
        {
          "internalType": "uint256",
          "name": "lastUpdated",
          "type": "uint256"
        },
        {
          "internalType": "uint256",
          "name": "hourlyYieldFP",
          "type": "uint256"
        }
      ],
      "stateMutability": "view",
      "type": "function"
    },
    {
      "inputs": [],
      "name": "borrowingFactorPercent",
      "outputs": [
        {
          "internalType": "uint256",
          "name": "",
          "type": "uint256"
        }
      ],
      "stateMutability": "view",
      "type": "function"
    },
    {
      "inputs": [],
      "name": "borrowingMarkupFP",
      "outputs": [
        {
          "internalType": "uint256",
          "name": "",
          "type": "uint256"
        }
      ],
      "stateMutability": "view",
      "type": "function"
    },
    {
      "inputs": [
        {
          "internalType": "address",
          "name": "issuer",
          "type": "address"
        },
        {
          "internalType": "uint256",
          "name": "runtime",
          "type": "uint256"
        },
        {
          "internalType": "uint256",
          "name": "amount",
          "type": "uint256"
        },
        {
          "internalType": "uint256",
          "name": "minReturn",
          "type": "uint256"
        }
      ],
      "name": "buyBond",
      "outputs": [
        {
          "internalType": "uint256",
          "name": "bondIndex",
          "type": "uint256"
        }
      ],
      "stateMutability": "nonpayable",
      "type": "function"
    },
    {
      "inputs": [
        {
          "internalType": "address",
          "name": "issuer",
          "type": "address"
        },
        {
          "internalType": "uint256",
          "name": "amount",
          "type": "uint256"
        }
      ],
      "name": "buyHourlyBondSubscription",
      "outputs": [],
      "stateMutability": "nonpayable",
      "type": "function"
    },
    {
      "inputs": [
        {
          "internalType": "address",
          "name": "issuer",
          "type": "address"
        }
      ],
      "name": "closeHourlyBondAccount",
      "outputs": [],
      "stateMutability": "nonpayable",
      "type": "function"
    },
    {
      "inputs": [
        {
          "internalType": "address",
          "name": "issuer",
          "type": "address"
        }
      ],
      "name": "deactivateIssuer",
      "outputs": [],
      "stateMutability": "nonpayable",
      "type": "function"
    },
    {
      "inputs": [],
      "name": "diffMaxMinRuntime",
      "outputs": [
        {
          "internalType": "uint256",
          "name": "",
          "type": "uint256"
        }
      ],
      "stateMutability": "view",
      "type": "function"
    },
    {
      "inputs": [
        {
          "internalType": "address",
          "name": "issuer",
          "type": "address"
        }
      ],
      "name": "getUpdatedBorrowYieldAccuFP",
      "outputs": [
        {
          "internalType": "uint256",
          "name": "",
          "type": "uint256"
        }
      ],
      "stateMutability": "nonpayable",
      "type": "function"
    },
    {
      "inputs": [
        {
          "internalType": "uint256",
          "name": "amount",
          "type": "uint256"
        }
      ],
      "name": "haircut",
      "outputs": [],
      "stateMutability": "nonpayable",
      "type": "function"
    },
    {
      "inputs": [
        {
          "internalType": "address",
          "name": "",
          "type": "address"
        }
      ],
      "name": "haircuts",
      "outputs": [
        {
          "internalType": "uint256",
          "name": "",
          "type": "uint256"
        }
      ],
      "stateMutability": "view",
      "type": "function"
    },
    {
      "inputs": [
        {
          "internalType": "address",
          "name": "",
          "type": "address"
        },
        {
          "internalType": "address",
          "name": "",
          "type": "address"
        }
      ],
      "name": "hourlyBondAccounts",
      "outputs": [
        {
          "internalType": "uint256",
          "name": "amount",
          "type": "uint256"
        },
        {
          "internalType": "uint256",
          "name": "yieldQuotientFP",
          "type": "uint256"
        },
        {
          "internalType": "uint256",
          "name": "moduloHour",
          "type": "uint256"
        }
      ],
      "stateMutability": "view",
      "type": "function"
    },
    {
      "inputs": [
        {
          "internalType": "address",
          "name": "",
          "type": "address"
        }
      ],
      "name": "incentiveTranches",
      "outputs": [
        {
          "internalType": "uint256",
          "name": "",
          "type": "uint256"
        }
      ],
      "stateMutability": "view",
      "type": "function"
    },
    {
      "inputs": [
        {
          "internalType": "address",
          "name": "issuer",
          "type": "address"
        }
      ],
      "name": "initBorrowYieldAccumulator",
      "outputs": [],
      "stateMutability": "nonpayable",
      "type": "function"
    },
    {
      "inputs": [
        {
          "internalType": "address",
          "name": "",
          "type": "address"
        }
      ],
      "name": "issuerTokens",
      "outputs": [
        {
          "internalType": "address",
          "name": "",
          "type": "address"
        }
      ],
      "stateMutability": "view",
      "type": "function"
    },
    {
      "inputs": [
        {
          "internalType": "address",
          "name": "",
          "type": "address"
        }
      ],
      "name": "lendingMeta",
      "outputs": [
        {
          "internalType": "uint256",
          "name": "totalLending",
          "type": "uint256"
        },
        {
          "internalType": "uint256",
          "name": "totalBorrowed",
          "type": "uint256"
        },
        {
          "internalType": "uint256",
          "name": "lendingBuffer",
          "type": "uint256"
        },
        {
          "internalType": "uint256",
          "name": "lendingCap",
          "type": "uint256"
        }
      ],
      "stateMutability": "view",
      "type": "function"
    },
    {
      "inputs": [
        {
          "internalType": "uint256",
          "name": "",
          "type": "uint256"
        }
      ],
      "name": "mainCharacterCache",
      "outputs": [
        {
          "internalType": "address",
          "name": "",
          "type": "address"
        }
      ],
      "stateMutability": "view",
      "type": "function"
    },
    {
      "inputs": [],
      "name": "maxHourlyYieldFP",
      "outputs": [
        {
          "internalType": "uint256",
          "name": "",
          "type": "uint256"
        }
      ],
      "stateMutability": "view",
      "type": "function"
    },
    {
      "inputs": [],
      "name": "maxRuntime",
      "outputs": [
        {
          "internalType": "uint256",
          "name": "",
          "type": "uint256"
        }
      ],
      "stateMutability": "view",
      "type": "function"
    },
    {
      "inputs": [],
      "name": "minRuntime",
      "outputs": [
        {
          "internalType": "uint256",
          "name": "",
          "type": "uint256"
        }
      ],
      "stateMutability": "view",
      "type": "function"
    },
    {
      "inputs": [],
      "name": "nextBondIndex",
      "outputs": [
        {
          "internalType": "uint256",
          "name": "",
          "type": "uint256"
        }
      ],
      "stateMutability": "view",
      "type": "function"
    },
    {
      "inputs": [
        {
          "internalType": "address",
          "name": "issuer",
          "type": "address"
        },
        {
          "internalType": "uint256",
          "name": "amount",
          "type": "uint256"
        }
      ],
      "name": "payOff",
      "outputs": [],
      "stateMutability": "nonpayable",
      "type": "function"
    },
    {
      "inputs": [
        {
          "internalType": "address",
          "name": "issuer",
          "type": "address"
        },
        {
          "internalType": "uint256",
          "name": "amount",
          "type": "uint256"
        }
      ],
      "name": "registerBorrow",
      "outputs": [],
      "stateMutability": "nonpayable",
      "type": "function"
    },
    {
      "inputs": [
        {
          "internalType": "address",
          "name": "",
          "type": "address"
        },
        {
          "internalType": "uint256",
          "name": "",
          "type": "uint256"
        }
      ],
      "name": "roleCache",
      "outputs": [
        {
          "internalType": "bool",
          "name": "",
          "type": "bool"
        }
      ],
      "stateMutability": "view",
      "type": "function"
    },
    {
      "inputs": [],
      "name": "roles",
      "outputs": [
        {
          "internalType": "contract Roles",
          "name": "",
          "type": "address"
        }
      ],
      "stateMutability": "view",
      "type": "function"
    },
    {
      "inputs": [
        {
          "internalType": "uint256",
          "name": "borrowingFactor",
          "type": "uint256"
        }
      ],
      "name": "setBorrowingFactorPercent",
      "outputs": [],
      "stateMutability": "nonpayable",
      "type": "function"
    },
    {
      "inputs": [
        {
          "internalType": "address",
          "name": "issuer",
          "type": "address"
        },
        {
          "internalType": "uint256",
          "name": "aprPercent",
          "type": "uint256"
        }
      ],
      "name": "setHourlyYieldAPR",
      "outputs": [],
      "stateMutability": "nonpayable",
      "type": "function"
    },
    {
      "inputs": [
        {
          "internalType": "address",
          "name": "token",
          "type": "address"
        },
        {
          "internalType": "uint8",
          "name": "tranche",
          "type": "uint8"
        }
      ],
      "name": "setIncentiveTranche",
      "outputs": [],
      "stateMutability": "nonpayable",
      "type": "function"
    },
    {
      "inputs": [
        {
          "internalType": "address",
          "name": "issuer",
          "type": "address"
        },
        {
          "internalType": "uint256",
          "name": "buffer",
          "type": "uint256"
        }
      ],
      "name": "setLendingBuffer",
      "outputs": [],
      "stateMutability": "nonpayable",
      "type": "function"
    },
    {
      "inputs": [
        {
          "internalType": "address",
          "name": "issuer",
          "type": "address"
        },
        {
          "internalType": "uint256",
          "name": "cap",
          "type": "uint256"
        }
      ],
      "name": "setLendingCap",
      "outputs": [],
      "stateMutability": "nonpayable",
      "type": "function"
    },
    {
      "inputs": [
        {
          "internalType": "uint256",
          "name": "maxYieldFP",
          "type": "uint256"
        }
      ],
      "name": "setMaxHourlyYieldFP",
      "outputs": [],
      "stateMutability": "nonpayable",
      "type": "function"
    },
    {
      "inputs": [
        {
          "internalType": "uint256",
          "name": "runtime",
          "type": "uint256"
        }
      ],
      "name": "setMaxRuntime",
      "outputs": [],
      "stateMutability": "nonpayable",
      "type": "function"
    },
    {
      "inputs": [
        {
          "internalType": "uint256",
          "name": "runtime",
          "type": "uint256"
        }
      ],
      "name": "setMinRuntime",
      "outputs": [],
      "stateMutability": "nonpayable",
      "type": "function"
    },
    {
      "inputs": [
        {
          "internalType": "address",
          "name": "issuer",
          "type": "address"
        },
        {
          "internalType": "uint256[]",
          "name": "weights",
          "type": "uint256[]"
        }
      ],
      "name": "setRuntimeWeights",
      "outputs": [],
      "stateMutability": "nonpayable",
      "type": "function"
    },
    {
      "inputs": [
        {
          "internalType": "address",
          "name": "issuer",
          "type": "address"
        },
        {
          "internalType": "uint256[]",
          "name": "yieldsFP",
          "type": "uint256[]"
        }
      ],
      "name": "setRuntimeYieldsFP",
      "outputs": [],
      "stateMutability": "nonpayable",
      "type": "function"
    },
    {
      "inputs": [
        {
          "internalType": "uint256",
          "name": "window",
          "type": "uint256"
        }
      ],
      "name": "setWithdrawalWindow",
      "outputs": [],
      "stateMutability": "nonpayable",
      "type": "function"
    },
    {
      "inputs": [
        {
          "internalType": "uint256",
          "name": "changePerSecondFP",
          "type": "uint256"
        }
      ],
      "name": "setYieldChangePerSecondFP",
      "outputs": [],
      "stateMutability": "nonpayable",
      "type": "function"
    },
    {
      "inputs": [
        {
          "internalType": "uint256",
          "name": "role",
          "type": "uint256"
        }
      ],
      "name": "updateMainCharacterCache",
      "outputs": [],
      "stateMutability": "nonpayable",
      "type": "function"
    },
    {
      "inputs": [
        {
          "internalType": "uint256",
          "name": "role",
          "type": "uint256"
        },
        {
          "internalType": "address",
          "name": "contr",
          "type": "address"
        }
      ],
      "name": "updateRoleCache",
      "outputs": [],
      "stateMutability": "nonpayable",
      "type": "function"
    },
    {
      "inputs": [
        {
          "internalType": "address",
          "name": "issuer",
          "type": "address"
        }
      ],
      "name": "viewAccumulatedBorrowingYieldFP",
      "outputs": [
        {
          "internalType": "uint256",
          "name": "",
          "type": "uint256"
        }
      ],
      "stateMutability": "view",
      "type": "function"
    },
    {
      "inputs": [
        {
          "internalType": "address",
          "name": "issuer",
          "type": "address"
        },
        {
          "internalType": "uint256",
          "name": "runtime",
          "type": "uint256"
        },
        {
          "internalType": "uint256",
          "name": "amount",
          "type": "uint256"
        }
      ],
      "name": "viewBondReturn",
      "outputs": [
        {
          "internalType": "uint256",
          "name": "",
          "type": "uint256"
        }
      ],
      "stateMutability": "view",
      "type": "function"
    },
    {
      "inputs": [
        {
          "internalType": "address",
          "name": "issuer",
          "type": "address"
        }
      ],
      "name": "viewBorrowAPRPer10k",
      "outputs": [
        {
          "internalType": "uint256",
          "name": "",
          "type": "uint256"
        }
      ],
      "stateMutability": "view",
      "type": "function"
    },
    {
      "inputs": [
        {
          "internalType": "address",
          "name": "issuer",
          "type": "address"
        }
      ],
      "name": "viewHourlyBondAPRPer10k",
      "outputs": [
        {
          "internalType": "uint256",
          "name": "",
          "type": "uint256"
        }
      ],
      "stateMutability": "view",
      "type": "function"
    },
    {
      "inputs": [
        {
          "internalType": "address",
          "name": "issuer",
          "type": "address"
        },
        {
          "internalType": "address",
          "name": "holder",
          "type": "address"
        }
      ],
      "name": "viewHourlyBondAmount",
      "outputs": [
        {
          "internalType": "uint256",
          "name": "",
          "type": "uint256"
        }
      ],
      "stateMutability": "view",
      "type": "function"
    },
    {
      "inputs": [
        {
          "internalType": "address",
          "name": "issuer",
          "type": "address"
        }
      ],
      "name": "viewLendingTarget",
      "outputs": [
        {
          "internalType": "uint256",
          "name": "",
          "type": "uint256"
        }
      ],
      "stateMutability": "view",
      "type": "function"
    },
    {
      "inputs": [
        {
          "internalType": "uint256",
          "name": "balance",
          "type": "uint256"
        },
        {
          "internalType": "address",
          "name": "issuer",
          "type": "address"
        },
        {
          "internalType": "uint256",
          "name": "yieldQuotientFP",
          "type": "uint256"
        }
      ],
      "name": "viewWithBorrowInterest",
      "outputs": [
        {
          "internalType": "uint256",
          "name": "",
          "type": "uint256"
        }
      ],
      "stateMutability": "view",
      "type": "function"
    },
    {
      "inputs": [
        {
          "internalType": "uint256",
          "name": "bondId",
          "type": "uint256"
        }
      ],
      "name": "withdrawBond",
      "outputs": [],
      "stateMutability": "nonpayable",
      "type": "function"
    },
    {
      "inputs": [
        {
          "internalType": "address",
          "name": "issuer",
          "type": "address"
        },
        {
          "internalType": "uint256",
          "name": "amount",
          "type": "uint256"
        }
      ],
      "name": "withdrawHourlyBond",
      "outputs": [],
      "stateMutability": "nonpayable",
      "type": "function"
    },
    {
      "inputs": [],
      "name": "withdrawalWindow",
      "outputs": [
        {
          "internalType": "uint256",
          "name": "",
          "type": "uint256"
        }
      ],
      "stateMutability": "view",
      "type": "function"
    },
    {
      "inputs": [],
      "name": "yieldChangePerSecondFP",
      "outputs": [
        {
          "internalType": "uint256",
          "name": "",
          "type": "uint256"
        }
      ],
      "stateMutability": "view",
      "type": "function"
    }
  ],
  "bytecode": "0x60a060405261025860075560c860095562278d00600a556301e13380600b5560016010553480156200003057600080fd5b5060405162003f4638038062003f4683398101604081905262000053916200012d565b806001600160a01b038116620000ba5760405162461bcd60e51b815260206004820152602260248201527f506c656173652070726f766964652076616c696420726f6c6573206164647265604482015261737360f01b606482015260840160405180910390fd5b60601b6001600160601b0319166080526103836122386064620000e3836401000000006200017e565b620000ef91906200015d565b620000fb91906200015d565b60045560036103e862000114826401000000006200017e565b6200012091906200015d565b60055550620001aa915050565b6000602082840312156200013f578081fd5b81516001600160a01b038116811462000156578182fd5b9392505050565b6000826200017957634e487b7160e01b81526012600452602481fd5b500490565b6000816000190483118215151615620001a557634e487b7160e01b81526011600452602481fd5b500290565b60805160601c613d61620001e5600039600081816104f9015281816109e401528181610fd601528181612f2b0152612fc30152613d616000f3fe608060405234801561001057600080fd5b506004361061038e5760003560e01c80637b8b4ee2116101de578063cc4b26a31161010f578063ebc22731116100ad578063f11f97951161007c578063f11f979514610973578063f51dfe7a1461097c578063f884614b1461098f578063f90889c9146109a25761038e565b8063ebc2273114610927578063ebe64bcc1461093a578063ee0862bf1461094d578063ef2cd3b8146109605761038e565b8063d2b48934116100e9578063d2b48934146108b0578063d4437dd8146108c3578063e695fa68146108d6578063e9c3f77d146108fe5761038e565b8063cc4b26a314610865578063cd3b5dfb14610878578063d19bd0a7146108a75761038e565b8063a387832f1161017c578063ad037af611610156578063ad037af6146107df578063b8139c6d14610836578063c3daab961461083f578063c94426a0146108525761038e565b8063a387832f146107b0578063a772404b146107c3578063aa7e321d146107d65761038e565b806383a04229116101b857806383a042291461071f5780638824cbba1461077457806391b46e05146107945780639229e73f146107a75761038e565b80637b8b4ee2146106e65780637d34e405146106f9578063803a99b71461070c5761038e565b8063447d52ba116102c357806367e2de9211610261578063773bbb3b11610230578063773bbb3b14610669578063797384b2146106725780637a009135146106a55780637a1a04df146106b85761038e565b806367e2de92146106275780636e60e2491461063057806372d012571461064357806376668b67146106565761038e565b80634b86daab1161029d5780634b86daab1461055457806358d51f91146105675780635f1c17c01461057057806364f85ab1146106075761038e565b8063447d52ba1461051b57806346c87f801461052e5780634804dd34146105415761038e565b8063267031b8116103305780632864f4011161030a5780632864f401146104bb5780632a6a897b146104ce57806336953912146104e1578063392f5f64146104f45761038e565b8063267031b81461042357806326e0b3531461042c578063281080261461047a5761038e565b80630f7c43dc1161036c5780630f7c43dc146103d7578063117b2630146103ea57806314189db2146103fd57806316de7a43146104105761038e565b8063071060a6146103935780630b550546146103a85780630bba92b3146103c4575b600080fd5b6103a66103a1366004613b7c565b6109b5565b005b6103b1600c5481565b6040519081526020015b60405180910390f35b6103b16103d2366004613abc565b610aac565b6103a66103e5366004613a91565b610b96565b6103b16103f8366004613927565b610c21565b6103b161040b366004613927565b610c4b565b6103a661041e366004613a91565b610c6d565b6103b160095481565b61043f61043a366004613a91565b610d2e565b604080519889526020890197909752958701949094526060860192909252608085015260a084015260c083015260e0820152610100016103bb565b6104a3610488366004613927565b6013602052600090815260409020546001600160a01b031681565b6040516001600160a01b0390911681526020016103bb565b6103a66104c9366004613b2a565b610d93565b6103a66104dc366004613a91565b610e7a565b6103a66104ef366004613b7c565b610f19565b6104a37f000000000000000000000000000000000000000000000000000000000000000081565b6103a6610529366004613bac565b610f97565b6103b161053c366004613927565b6110a6565b6103a661054f366004613b7c565b6110ce565b6103a6610562366004613927565b61114c565b6103b1600d5481565b6105c761057e366004613b7c565b600e6020526000908152604090208054600182015460028301546003840154600485015460058601546006909601546001600160a01b0395861696959094169492939192909187565b604080516001600160a01b039889168152979096166020880152948601939093526060850191909152608084015260a083015260c082015260e0016103bb565b6103b1610615366004613927565b60146020526000908152604090205481565b6103b160045481565b6103b161063e366004613966565b611159565b6103b1610651366004613927565b6111e4565b6103b1610664366004613bd0565b611205565b6103b1600a5481565b610695610680366004613927565b60156020526000908152604090205460ff1681565b60405190151581526020016103bb565b6103a66106b3366004613927565b61123f565b6106956106c6366004613a91565b600160209081526000928352604080842090915290825290205460ff1681565b6103b16106f4366004613af0565b611343565b6103a661070736600461399e565b61150b565b6103a661071a366004613b7c565b61161b565b61075961072d366004613966565b600860209081526000928352604080842090915290825290208054600182015460029092015490919083565b604080519384526020840192909252908201526060016103bb565b6103b1610782366004613927565b60116020526000908152604090205481565b6103a66107a2366004613b7c565b611787565b6103b1600b5481565b6103a66107be366004613a91565b611805565b6103a66107d136600461399e565b6118ea565b6103b160105481565b6108166107ed366004613927565b600260208190526000918252604090912080546001820154928201546003909201549092919084565b6040805194855260208501939093529183015260608201526080016103bb565b6103b161271081565b6103a661084d366004613b7c565b611bf9565b6103a6610860366004613b7c565b611cfc565b6103a6610873366004613927565b611d7a565b610759610886366004613927565b60036020526000908152604090208054600182015460029092015490919083565b6103b160075481565b6103a66108be366004613a91565b611eec565b6103a66108d1366004613b7c565b611fd0565b6108e96108e4366004613bd0565b611ff7565b604080519283526020830191909152016103bb565b6104a361090c366004613b7c565b6000602081905290815260409020546001600160a01b031681565b6103a6610935366004613b7c565b6120e5565b6103a6610948366004613966565b6121da565b6103a661095b366004613a91565b61231a565b6103b161096e366004613a91565b61249a565b6103b160055481565b6103b161098a366004613927565b6124cb565b6103a661099d366004613927565b6124ec565b6103a66109b0366004613a91565b612570565b6040517fb4ed0b6d000000000000000000000000000000000000000000000000000000008152600481018290527f00000000000000000000000000000000000000000000000000000000000000006001600160a01b03169063b4ed0b6d9060240160206040518083038186803b158015610a2e57600080fd5b505afa158015610a42573d6000803e3d6000fd5b505050506040513d601f19601f82011682018060405250810190610a66919061394a565b60009182526020829052604090912080547fffffffffffffffffffffffff0000000000000000000000000000000000000000166001600160a01b03909216919091179055565b600080610ab98585612728565b90506000610b7086600f6000896001600160a01b03166001600160a01b031681526020019081526020016000208481548110610b0557634e487b7160e01b600052603260045260246000fd5b90600052602060002090600802016006015486610b229190613c07565b6001600160a01b0389166000908152600f60205260409020805489919087908110610b5d57634e487b7160e01b600052603260045260246000fd5b9060005260206000209060080201612772565b9050640100000000610b828583613c33565b610b8c9190613c1f565b9695505050505050565b6001600160a01b03821660009081526008602090815260408083203384529091529020610bc38382612877565b610bce838284612904565b8054610c06576001600160a01b0383166000908152600860209081526040808320338452909152812081815560018101829055600201555b610c11833384612a2b565b610c1c338484612bb5565b505050565b6001600160a01b0381166000908152600260205260408120610c4281612c93565b9150505b919050565b6001600160a01b0381166000908152600360205260408120610c428142612cb6565b6001600160a01b03821660009081526015602052604090205460ff16610cda5760405162461bcd60e51b815260206004820152601660248201527f4e6f7420616e20617070726f766564206973737565720000000000000000000060448201526064015b60405180910390fd5b6001600160a01b03821660009081526002602052604090208054610cff908390613c07565b610d0882612c93565b10610c1c57610d18833384612cf0565b610d23833384612daf565b610c1c338484612e7d565b600f6020528160005260406000208181548110610d4a57600080fd5b9060005260206000209060080201600091509150508060000154908060010154908060020154908060030154908060040154908060050154908060060154908060070154905088565b33610d9c612f27565b6001600160a01b03161480610dc0575033610db5612fbf565b6001600160a01b0316145b80610de657503360009081526001602090815260408083206009845290915290205460ff165b610e585760405162461bcd60e51b815260206004820152603960248201527f43616c6c6572206973206e6f7420746865206f776e65722c206578656375746f60448201527f72206f7220617574686f72697a656420616374697661746f72000000000000006064820152608401610cd1565b6001600160a01b03909116600090815260116020526040902060ff9091169055565b3360009081526001602090815260408083206003845290915290205460ff16610ee55760405162461bcd60e51b815260206004820152601860248201527f4e6f7420616e20617070726f76656420626f72726f77657200000000000000006044820152606401610cd1565b6001600160a01b03821660009081526002602052604081206001018054839290610f10908490613c70565b90915550505050565b33610f22612f27565b6001600160a01b03161480610f46575033610f3b612fbf565b6001600160a01b0316145b610f925760405162461bcd60e51b815260206004820152601e60248201527f526f6c65733a2063616c6c6572206973206e6f7420746865206f776e657200006044820152606401610cd1565b600755565b6040517f93552a3d000000000000000000000000000000000000000000000000000000008152600481018390526001600160a01b0382811660248301527f000000000000000000000000000000000000000000000000000000000000000016906393552a3d9060440160206040518083038186803b15801561101857600080fd5b505afa15801561102c573d6000803e3d6000fd5b505050506040513d601f19601f820116820180604052508101906110509190613b5c565b6001600160a01b039190911660009081526001602090815260408083209483529390529190912080547fffffffffffffffffffffffffffffffffffffffffffffffffffffffffffffff0016911515919091179055565b6001600160a01b03811660009081526003602052604081206110c781613030565b5492915050565b336110d7612f27565b6001600160a01b031614806110fb5750336110f0612fbf565b6001600160a01b0316145b6111475760405162461bcd60e51b815260206004820152601e60248201527f526f6c65733a2063616c6c6572206973206e6f7420746865206f776e657200006044820152606401610cd1565b600455565b61115681826121da565b50565b6001600160a01b0380831660008181526008602090815260408083209486168352938152838220600181015493835260069091529281209092919083906111a09042612cb6565b905081156111cb5782546111b5908284613065565b83546111c19190613c07565b93505050506111de565b82546111d8906000613c07565b93505050505b92915050565b6001600160a01b03811660009081526006602052604081206111de90613072565b6001600160a01b038216600090815260036020526040812081906112299042612cb6565b9050611236858285613065565b95945050505050565b33611248612f27565b6001600160a01b0316148061126c575033611261612fbf565b6001600160a01b0316145b8061129257503360009081526001602090815260408083206009845290915290205460ff165b6113045760405162461bcd60e51b815260206004820152603960248201527f43616c6c6572206973206e6f7420746865206f776e65722c206578656375746f60448201527f72206f7220617574686f72697a656420616374697661746f72000000000000006064820152608401610cd1565b6001600160a01b0316600090815260156020526040902080547fffffffffffffffffffffffffffffffffffffffffffffffffffffffffffffff00169055565b6001600160a01b03841660009081526015602052604081205460ff166113ab5760405162461bcd60e51b815260206004820152601660248201527f4e6f7420616e20617070726f76656420697373756572000000000000000000006044820152606401610cd1565b6001600160a01b038516600090815260026020526040902080546113d0908590613c07565b6113d982612c93565b101580156113e9575084600b5410155b80156113f75750600a548510155b156115025761140933878787876130ce565b9150811561150257606560009081526020527f4a7203f705e51df4a56139a9b86b4a0970bed7ab7a3446eaffe2289989c1645c546001600160a01b03166040517fb3db428b0000000000000000000000000000000000000000000000000000000081523360048201526001600160a01b03888116602483015260448201879052919091169063b3db428b90606401600060405180830381600087803b1580156114b157600080fd5b505af11580156114c5573d6000803e3d6000fd5b5050336000818152601260209081526040822080546001810182559083529120018590556114f7925088915086612cf0565b611502338786612e7d565b50949350505050565b33611514612f27565b6001600160a01b0316148061153857503361152d612fbf565b6001600160a01b0316145b6115845760405162461bcd60e51b815260206004820152601e60248201527f526f6c65733a2063616c6c6572206973206e6f7420746865206f776e657200006044820152606401610cd1565b6001600160a01b0382166000908152600f60205260408120905b8154811015611615578281815181106115c757634e487b7160e01b600052603260045260246000fd5b60200260200101518282815481106115ef57634e487b7160e01b600052603260045260246000fd5b60009182526020909120600760089092020101558061160d81613c87565b91505061159e565b50505050565b33611624612f27565b6001600160a01b0316148061164857503361163d612fbf565b6001600160a01b0316145b6116945760405162461bcd60e51b815260206004820152601e60248201527f526f6c65733a2063616c6c6572206973206e6f7420746865206f776e657200006044820152606401610cd1565b610e10811161170b5760405162461bcd60e51b815260206004820152602760248201527f4d696e2072756e74696d65206e6565647320746f206265206174206c6561737460448201527f203120686f7572000000000000000000000000000000000000000000000000006064820152608401610cd1565b80600b54116117825760405162461bcd60e51b815260206004820152602c60248201527f4d696e2072756e74696d65206d75737420626520736d616c6c6572207468616e60448201527f206d61782072756e74696d6500000000000000000000000000000000000000006064820152608401610cd1565b600a55565b33611790612f27565b6001600160a01b031614806117b45750336117a9612fbf565b6001600160a01b0316145b6118005760405162461bcd60e51b815260206004820152601e60248201527f526f6c65733a2063616c6c6572206973206e6f7420746865206f776e657200006044820152606401610cd1565b600955565b3361180e612f27565b6001600160a01b03161480611832575033611827612fbf565b6001600160a01b0316145b8061185857503360009081526001602090815260408083206009845290915290205460ff165b6118ca5760405162461bcd60e51b815260206004820152603960248201527f43616c6c6572206973206e6f7420746865206f776e65722c206578656375746f60448201527f72206f7220617574686f72697a656420616374697661746f72000000000000006064820152608401610cd1565b6001600160a01b0390911660009081526002602081905260409091200155565b336118f3612f27565b6001600160a01b0316148061191757503361190c612fbf565b6001600160a01b0316145b8061193d57503360009081526001602090815260408083206009845290915290205460ff165b6119af5760405162461bcd60e51b815260206004820152603960248201527f43616c6c6572206973206e6f7420746865206f776e65722c206578656375746f60448201527f72206f7220617574686f72697a656420616374697661746f72000000000000006064820152608401610cd1565b6001600160a01b0382166000908152600f602052604090208054611b3157600061223860646119e4640100000000606e613c33565b6119ee9190613c1f565b6119f89190613c1f565b905060008351600c54611a0b9190613c1f565b905060005b8085511115611b29576000611a258284613c33565b600a54611a329190613c07565b905084604051806101000160405280888581518110611a6157634e487b7160e01b600052603260045260246000fd5b60200260200101518152602001600181526020014281526020016001815260200142815260200142815260200160008152602001610e108488611aa49190613c33565b611aae9190613c1f565b905281546001818101845560009384526020938490208351600890930201918255928201519281019290925560408101516002830155606081015160038301556080810151600483015560a0810151600583015560c0810151600683015560e001516007909101555080611b2181613c87565b915050611a10565b505050610c1c565b8054825114611b825760405162461bcd60e51b815260206004820152601b60248201527f5765696768747320646f6e2774206d61746368206275636b65747300000000006044820152606401610cd1565b60005b808351111561161557828181518110611bae57634e487b7160e01b600052603260045260246000fd5b6020026020010151828281548110611bd657634e487b7160e01b600052603260045260246000fd5b600091825260209091206008909102015580611bf181613c87565b915050611b85565b6000818152600e6020526040902080546001600160a01b03163314611c605760405162461bcd60e51b815260206004820152601260248201527f4e6f7420686f6c646572206f6620626f6e6400000000000000000000000000006044820152606401610cd1565b80600401544211611cb35760405162461bcd60e51b815260206004820152601660248201527f626f6e64206973207374696c6c20696d6d6174757265000000000000000000006044820152606401610cd1565b60018101546002820154611cd49133916001600160a01b0390911690612bb5565b6000611ce083836132eb565b6001830154909150610c1c906001600160a01b03163383612a2b565b33611d05612f27565b6001600160a01b03161480611d29575033611d1e612fbf565b6001600160a01b0316145b611d755760405162461bcd60e51b815260206004820152601e60248201527f526f6c65733a2063616c6c6572206973206e6f7420746865206f776e657200006044820152606401610cd1565b600555565b33611d83612f27565b6001600160a01b03161480611da7575033611d9c612fbf565b6001600160a01b0316145b80611dcd57503360009081526001602090815260408083206009845290915290205460ff165b611e3f5760405162461bcd60e51b815260206004820152603960248201527f43616c6c6572206973206e6f7420746865206f776e65722c206578656375746f60448201527f72206f7220617574686f72697a656420616374697661746f72000000000000006064820152608401610cd1565b6001600160a01b03811660009081526003602052604090205415611ecb5760405162461bcd60e51b815260206004820152602960248201527f747279696e6720746f2072652d696e697469616c697a65207969656c6420616360448201527f63756d756c61746f7200000000000000000000000000000000000000000000006064820152608401610cd1565b6001600160a01b031660009081526003602052604090206401000000009055565b33611ef5612f27565b6001600160a01b03161480611f19575033611f0e612fbf565b6001600160a01b0316145b80611f3f57503360009081526001602090815260408083206009845290915290205460ff165b611fb15760405162461bcd60e51b815260206004820152603960248201527f43616c6c6572206973206e6f7420746865206f776e65722c206578656375746f60448201527f72206f7220617574686f72697a656420616374697661746f72000000000000006064820152608401610cd1565b6001600160a01b03909116600090815260026020526040902060030155565b3360009081526014602052604081208054839290611fef908490613c07565b909155505050565b33600090815260016020908152604080832060038452909152812054819060ff166120645760405162461bcd60e51b815260206004820152601860248201527f4e6f7420616e20617070726f76656420626f72726f77657200000000000000006044820152606401610cd1565b6001600160a01b038416600090815260036020526040902061208581613030565b80549150612094868386613065565b925060006120a28785613c70565b6001600160a01b038716600090815260026020526040812060018101805493945090928492906120d3908490613c07565b92505081905550505050935093915050565b336120ee612f27565b6001600160a01b03161480612112575033612107612fbf565b6001600160a01b0316145b61215e5760405162461bcd60e51b815260206004820152601e60248201527f526f6c65733a2063616c6c6572206973206e6f7420746865206f776e657200006044820152606401610cd1565b600a5481116121d55760405162461bcd60e51b815260206004820152602c60248201527f4d61782072756e74696d65206d7573742062652067726561746572207468616e60448201527f206d696e2072756e74696d6500000000000000000000000000000000000000006064820152608401610cd1565b600b55565b336121e3612f27565b6001600160a01b031614806122075750336121fc612fbf565b6001600160a01b0316145b8061222d57503360009081526001602090815260408083206009845290915290205460ff165b61229f5760405162461bcd60e51b815260206004820152603960248201527f43616c6c6572206973206e6f7420746865206f776e65722c206578656375746f60448201527f72206f7220617574686f72697a656420616374697661746f72000000000000006064820152608401610cd1565b6001600160a01b03918216600090815260156020908152604080832080547fffffffffffffffffffffffffffffffffffffffffffffffffffffffffffffff00166001179055601390915290208054919092167fffffffffffffffffffffffff0000000000000000000000000000000000000000909116179055565b3360009081526001602090815260408083206003845290915290205460ff166123855760405162461bcd60e51b815260206004820152601860248201527f4e6f7420616e20617070726f76656420626f72726f77657200000000000000006044820152606401610cd1565b6001600160a01b03821660009081526015602052604090205460ff166123ed5760405162461bcd60e51b815260206004820152601660248201527f4e6f7420616e20617070726f76656420697373756572000000000000000000006044820152606401610cd1565b6001600160a01b03821660009081526002602052604081206001810180549192849261241a908490613c07565b9091555050600181015481541015610c1c5760405162461bcd60e51b815260206004820152602e60248201527f496e73756666696369656e74206361706974616c20746f206c656e642c20747260448201527f7920616761696e206c61746572210000000000000000000000000000000000006064820152608401610cd1565b601260205281600052604060002081815481106124b657600080fd5b90600052602060002001600091509150505481565b6001600160a01b03811660009081526003602052604081206111de90613072565b6001600160a01b038116600090815260086020908152604080832033845290915290206125198282612877565b8054612526838383612904565b612531833383612a2b565b6001600160a01b038316600090815260086020908152604080832033808552925282208281556001810183905560020191909155610c1c908483612bb5565b33612579612f27565b6001600160a01b0316148061259d575033612592612fbf565b6001600160a01b0316145b806125c357503360009081526001602090815260408083206009845290915290205460ff165b6126355760405162461bcd60e51b815260206004820152603960248201527f43616c6c6572206973206e6f7420746865206f776e65722c206578656375746f60448201527f72206f7220617574686f72697a656420616374697661746f72000000000000006064820152608401610cd1565b6001600160a01b038216600090815260066020526040902080546126dd57604080516060810182526401000000008152426020820152908101612238606461267d8682613c07565b61268c90640100000000613c33565b6126969190613c1f565b6126a09190613c1f565b9052805182556020810151600180840191909155604090910151600283015560038201819055600482015542600582018190556006820155610c1c565b60006126e984836134fe565b905061223860646126fa8582613c07565b61270990640100000000613c33565b6127139190613c1f565b61271d9190613c1f565b600290910155505050565b6001600160a01b0382166000908152600f6020526040812054600c54829161274f91613c1f565b905080600a54846127609190613c70565b61276a9190613c1f565b949350505050565b6000808260060154856127859190613c07565b600784015460058501546001600160a01b03891660009081526002602052604081208754939650939450909291612710906127bf84612c93565b6127c99190613c33565b6127d39190613c1f565b6001808801546003808a01546001600160a01b038e1660009081526020929092526040822087549596509294909361280b9190613c07565b8660010154836002015461281f9190613c33565b6128299190613c1f565b9050600061283960045483613611565b90506000612849610e108e613c1f565b6128539083613c33565b90506128648b8a8c8a8a8a87613629565b9f9e505050505050505050505050505050565b60018101548015610c1c576001600160a01b03831660009081526006602052604081206128a59085906134fe565b83548154919250906128b990829085613065565b8085556000906128ca908390613c70565b6001600160a01b0387166000908152600260205260408120805492935083929091906128f7908490613c07565b9091555050505050505050565b6000610e108360020154426129199190613c70565b6129239190613cc0565b905080600754101561299d5760405162461bcd60e51b815260206004820152603f60248201527f5472696564207769746864726177696e67206f7574736964652073756273637260448201527f697074696f6e2063616e63656c6c6174696f6e2074696d652077696e646f77006064820152608401610cd1565b818360000160008282546129b19190613c70565b90915550506001600160a01b038416600090815260026020526040812080548492906129de908490613c70565b90915550506001600160a01b038416600090815260066020819052604090912060048101549181015485549192612a1a92909190610e1061369e565b600683015560049091015550505050565b6001600160a01b0383166000908152601460205260409020548015801590612a535750600082115b15612ad2576001600160a01b0384166000908152600260205260408120549081612a7d8185613611565b612a879086613c33565b612a919190613c1f565b9050612a9d8185613c70565b6001600160a01b038716600090815260146020526040812080549296508392909190612aca908490613c70565b909155505050505b6001600160a01b0380851660009081526013602052604090205416612b28606560009081526020527f4a7203f705e51df4a56139a9b86b4a0970bed7ab7a3446eaffe2289989c1645c546001600160a01b031690565b6040517fd9caed120000000000000000000000000000000000000000000000000000000081526001600160a01b038381166004830152868116602483015260448201869052919091169063d9caed12906064015b600060405180830381600087803b158015612b9657600080fd5b505af1158015612baa573d6000803e3d6000fd5b505050505050505050565b6001600160a01b038216600090815260116020526040902054612c09606c60009081526020527f3c1fcba39712202dbd455253568bf32dd0a3bedb5c3ff0de4b22d4e45e50dc92546001600160a01b031690565b6040517fc6c9faa1000000000000000000000000000000000000000000000000000000008152600481018390526001600160a01b03868116602483015260448201859052919091169063c6c9faa190606401600060405180830381600087803b158015612c7557600080fd5b505af1158015612c89573d6000803e3d6000fd5b5050505050505050565b60006111de826003015483600201548460010154612cb19190613c07565b613611565b600080836001015483612cc99190613c70565b905061012c811115612ce757612cdf848261373e565b9150506111de565b505081546111de565b606560009081526020527f4a7203f705e51df4a56139a9b86b4a0970bed7ab7a3446eaffe2289989c1645c546001600160a01b03166040517fb3db428b0000000000000000000000000000000000000000000000000000000081526001600160a01b038481166004830152858116602483015260448201849052919091169063b3db428b90606401600060405180830381600087803b158015612d9257600080fd5b505af1158015612da6573d6000803e3d6000fd5b50505050505050565b6001600160a01b038084166000908152600860209081526040808320938616835292905220612dde8482612877565b6001600160a01b038416600090815260066020526040902080546001830155612e09610e1042613cc0565b6002830155815483908390600090612e22908490613c07565b90915550506001600160a01b03851660009081526002602052604081208054859290612e4f908490613c07565b92505081905550612e6c8160030154826005015485610e1061369e565b600583015560039091015550505050565b6000612eba606c60009081526020527f3c1fcba39712202dbd455253568bf32dd0a3bedb5c3ff0de4b22d4e45e50dc92546001600160a01b031690565b6001600160a01b03848116600090815260116020526040908190205490517f2b5de286000000000000000000000000000000000000000000000000000000008152600481018290528783166024820152604481018690529293509190831690632b5de28690606401612b7c565b60007f00000000000000000000000000000000000000000000000000000000000000006001600160a01b0316638da5cb5b6040518163ffffffff1660e01b815260040160206040518083038186803b158015612f8257600080fd5b505afa158015612f96573d6000803e3d6000fd5b505050506040513d601f19601f82011682018060405250810190612fba919061394a565b905090565b60007f00000000000000000000000000000000000000000000000000000000000000006001600160a01b031663c34c08e56040518163ffffffff1660e01b8152600401602060405180830381600087803b15801561301c57600080fd5b505af1158015612f96573d6000803e3d6000fd5b60008160010154426130429190613c70565b905061012c81111561306157613058828261373e565b82554260018301555b5050565b6000816127608486613c33565b600281015460009081610e1061308f640100000000612710613c33565b61309b84612710613c33565b6130a59190613c70565b6130b3906301e13380613c33565b6130bd9190613c1f565b905061276a64010000000082613c1f565b6000806130db8686612728565b6001600160a01b0387166000908152600f60205260408120805492935090918390811061311857634e487b7160e01b600052603260045260246000fd5b90600052602060002090600802019050600061313688878985612772565b9050600064010000000061314a8884613c33565b6131549190613c1f565b90508581106132de576000600261316b838a613c07565b6131759190613c1f565b6001600160a01b038b166000908152600260205260408120805492935083929091906131a2908490613c07565b92505081905550808460060160008282546131bd9190613c07565b9091555050601080549650869060006131d583613c87565b91905055506040518060e001604052808c6001600160a01b031681526020018b6001600160a01b031681526020018981526020018381526020018a4261321b9190613c07565b815260208082018c905260409182018690526000898152600e8252829020835181546001600160a01b039182167fffffffffffffffffffffffff00000000000000000000000000000000000000009182161783559285015160018084018054929093169190941617905591830151600280840191909155606084015160038401556080840151600484015560a0840151600584015560c090930151600690920191909155850154908501546132d291908a8c61369e565b60028601556001850155505b5050505095945050505050565b600181015460058201546000916001600160a01b031690829061330f908390612728565b6001600160a01b0383166000908152600f60205260408120805492935090918390811061334c57634e487b7160e01b600052603260045260246000fd5b600091825260208220600388015488546002808b01546008909502909301955090936001600160a01b0390911692909190613388908590613c07565b6133929190613c1f565b6001600160a01b0387166000908152600260205260408120805492935091839183916133bf908490613c70565b92505081905550818560060160008282546133da9190613c70565b925050819055506133fd856003015486600401548b600201548c6005015461369e565b60048088019190915560038088019290925560008c8152600e6020526040812080547fffffffffffffffffffffffff00000000000000000000000000000000000000009081168255600182810180549092169091556002820183905593810182905591820181905560058201819055600690910155815490820154118061348b575083613489886137e7565b105b156134ed57826001600160a01b0316876001600160a01b03167fbcab653cf73e12f7bb78aa625dccb002864f5de7de2518796fb5b82fd6e6ab05866040516134d591815260200190565b60405180910390a36134e887848661391c565b6134f1565b8397505b5050505050505092915050565b6001810154819060006135118242613c70565b6001600160a01b038616600090815260036020526040902090915061012c8211156135d057613540848361373e565b84556001600160a01b0386166000908152600260205260408120805490919061356a906001613c07565b8260010154846002015461357e9190613c33565b6135889190613c1f565b9050600061359860045483613611565b90506135c187600201548785600001546135b187612c93565b8c600301548d6004015487613629565b60028801555050426001860155505b6135d981613030565b606484600201546009546135ed9190613c33565b6135f79190613c1f565b613602906001613c07565b60029091015550909392505050565b6000818311156136225750806111de565b50816111de565b8660006136368842613c70565b90506000600554826136489190613c33565b905086881015806136595750848610155b15613679576136688382613611565b6136729084613c70565b9250613691565b6136838184613c07565b925083831115613691578392505b5050979650505050505050565b600080806136ac8642613c70565b905060006136bb826001613c07565b6136c58688613c33565b6136cf9190613c1f565b9050600060036136e187611c20613c07565b6136eb9190613c1f565b905060006136fa846001613c07565b90506137068183613c07565b6137108285613c33565b61371a848d613c33565b6137249190613c07565b61372e9190613c1f565b9a429a5098505050505050505050565b60008061374d610e1084613cc0565b9050613760640100000000610e10613c33565b60028501548554839161377291613c33565b61377c9190613c33565b6137869190613c1f565b91506000613796610e1085613c1f565b905080156137df5760005b808211156137dd576401000000008660020154856137bf9190613c33565b6137c99190613c1f565b9350806137d581613c87565b9150506137a1565b505b505092915050565b6001600160a01b03808216600081815260136020526040812054909216908114156138ed57806001600160a01b03166370a08231613856606560009081526020527f4a7203f705e51df4a56139a9b86b4a0970bed7ab7a3446eaffe2289989c1645c546001600160a01b031690565b6040517fffffffff0000000000000000000000000000000000000000000000000000000060e084901b1681526001600160a01b03909116600482015260240160206040518083038186803b1580156138ad57600080fd5b505afa1580156138c1573d6000803e3d6000fd5b505050506040513d601f19601f820116820180604052508101906138e59190613b94565b915050610c46565b6001600160a01b0383166000908152601460209081526040808320546002909252909120546138e59190613c70565b610c1c838383612daf565b600060208284031215613938578081fd5b813561394381613d16565b9392505050565b60006020828403121561395b578081fd5b815161394381613d16565b60008060408385031215613978578081fd5b823561398381613d16565b9150602083013561399381613d16565b809150509250929050565b600080604083850312156139b0578182fd5b82356139bb81613d16565b915060208381013567ffffffffffffffff808211156139d8578384fd5b818601915086601f8301126139eb578384fd5b8135818111156139fd576139fd613d00565b8060051b6040517fffffffffffffffffffffffffffffffffffffffffffffffffffffffffffffffe0603f83011681018181108582111715613a4057613a40613d00565b604052828152858101935084860182860187018b1015613a5e578788fd5b8795505b83861015613a80578035855260019590950194938601938601613a62565b508096505050505050509250929050565b60008060408385031215613aa3578182fd5b8235613aae81613d16565b946020939093013593505050565b600080600060608486031215613ad0578081fd5b8335613adb81613d16565b95602085013595506040909401359392505050565b60008060008060808587031215613b05578081fd5b8435613b1081613d16565b966020860135965060408601359560600135945092505050565b60008060408385031215613b3c578182fd5b8235613b4781613d16565b9150602083013560ff81168114613993578182fd5b600060208284031215613b6d578081fd5b81518015158114613943578182fd5b600060208284031215613b8d578081fd5b5035919050565b600060208284031215613ba5578081fd5b5051919050565b60008060408385031215613bbe578182fd5b82359150602083013561399381613d16565b600080600060608486031215613be4578283fd5b833592506020840135613bf681613d16565b929592945050506040919091013590565b60008219821115613c1a57613c1a613cd4565b500190565b600082613c2e57613c2e613cea565b500490565b6000817fffffffffffffffffffffffffffffffffffffffffffffffffffffffffffffffff0483118215151615613c6b57613c6b613cd4565b500290565b600082821015613c8257613c82613cd4565b500390565b60007fffffffffffffffffffffffffffffffffffffffffffffffffffffffffffffffff821415613cb957613cb9613cd4565b5060010190565b600082613ccf57613ccf613cea565b500690565b634e487b7160e01b600052601160045260246000fd5b634e487b7160e01b600052601260045260246000fd5b634e487b7160e01b600052604160045260246000fd5b6001600160a01b038116811461115657600080fdfea26469706673582212202f5f2c8df1f7c32e7f4358643f06343cae4d3dd9ba22851ac2451fa521aae65b64736f6c63430008030033",
  "linkReferences": {},
  "deployedLinkReferences": {}
}