{
  "_format": "hh-sol-artifact-1",
  "contractName": "Lending",
  "sourceName": "contracts/Lending.sol",
  "abi": [
    {
      "inputs": [
        {
          "internalType": "address",
          "name": "_roles",
          "type": "address"
        }
      ],
      "stateMutability": "nonpayable",
      "type": "constructor"
    },
    {
      "inputs": [
        {
          "internalType": "address",
          "name": "issuer",
          "type": "address"
        }
      ],
      "name": "activateIssuer",
      "outputs": [],
      "stateMutability": "nonpayable",
      "type": "function"
    },
    {
      "inputs": [
        {
          "internalType": "address",
          "name": "issuer",
          "type": "address"
        },
        {
          "internalType": "address",
          "name": "token",
          "type": "address"
        }
      ],
      "name": "activateIssuer",
      "outputs": [],
      "stateMutability": "nonpayable",
      "type": "function"
    },
    {
      "inputs": [
        {
          "internalType": "address",
          "name": "",
          "type": "address"
        }
      ],
      "name": "activeIssuers",
      "outputs": [
        {
          "internalType": "bool",
          "name": "",
          "type": "bool"
        }
      ],
      "stateMutability": "view",
      "type": "function"
    },
    {
      "inputs": [
        {
          "internalType": "uint256",
          "name": "balance",
          "type": "uint256"
        },
        {
          "internalType": "address",
          "name": "issuer",
          "type": "address"
        },
        {
          "internalType": "uint256",
          "name": "yieldQuotientFP",
          "type": "uint256"
        }
      ],
      "name": "applyBorrowInterest",
      "outputs": [
        {
          "internalType": "uint256",
          "name": "balanceWithInterest",
          "type": "uint256"
        },
        {
          "internalType": "uint256",
          "name": "accumulatorFP",
          "type": "uint256"
        }
      ],
      "stateMutability": "nonpayable",
      "type": "function"
    },
    {
      "inputs": [
        {
          "internalType": "address",
          "name": "",
          "type": "address"
        }
      ],
      "name": "borrowYieldAccumulators",
      "outputs": [
        {
          "internalType": "uint256",
          "name": "accumulatorFP",
          "type": "uint256"
        },
        {
          "internalType": "uint256",
          "name": "lastUpdated",
          "type": "uint256"
        },
        {
          "internalType": "uint256",
          "name": "hourlyYieldFP",
          "type": "uint256"
        }
      ],
      "stateMutability": "view",
      "type": "function"
    },
    {
      "inputs": [],
      "name": "borrowingFactorPercent",
      "outputs": [
        {
          "internalType": "uint256",
          "name": "",
          "type": "uint256"
        }
      ],
      "stateMutability": "view",
      "type": "function"
    },
    {
      "inputs": [
        {
          "internalType": "address",
          "name": "issuer",
          "type": "address"
        },
        {
          "internalType": "uint256",
          "name": "amount",
          "type": "uint256"
        }
      ],
      "name": "buyHourlyBondSubscription",
      "outputs": [],
      "stateMutability": "nonpayable",
      "type": "function"
    },
    {
      "inputs": [
        {
          "internalType": "address",
          "name": "issuer",
          "type": "address"
        }
      ],
      "name": "closeHourlyBondAccount",
      "outputs": [],
      "stateMutability": "nonpayable",
      "type": "function"
    },
    {
      "inputs": [
        {
          "internalType": "address",
          "name": "issuer",
          "type": "address"
        }
      ],
      "name": "deactivateIssuer",
      "outputs": [],
      "stateMutability": "nonpayable",
      "type": "function"
    },
    {
      "inputs": [
        {
          "internalType": "address",
          "name": "issuer",
          "type": "address"
        }
      ],
      "name": "getUpdatedBorrowYieldAccuFP",
      "outputs": [
        {
          "internalType": "uint256",
          "name": "",
          "type": "uint256"
        }
      ],
      "stateMutability": "nonpayable",
      "type": "function"
    },
    {
      "inputs": [
        {
          "internalType": "uint256",
          "name": "amount",
          "type": "uint256"
        }
      ],
      "name": "haircut",
      "outputs": [],
      "stateMutability": "nonpayable",
      "type": "function"
    },
    {
      "inputs": [
        {
          "internalType": "address",
          "name": "",
          "type": "address"
        }
      ],
      "name": "haircuts",
      "outputs": [
        {
          "internalType": "uint256",
          "name": "",
          "type": "uint256"
        }
      ],
      "stateMutability": "view",
      "type": "function"
    },
    {
      "inputs": [],
      "name": "highRatePerPercent",
      "outputs": [
        {
          "internalType": "uint256",
          "name": "",
          "type": "uint256"
        }
      ],
      "stateMutability": "view",
      "type": "function"
    },
    {
      "inputs": [
        {
          "internalType": "address",
          "name": "",
          "type": "address"
        },
        {
          "internalType": "address",
          "name": "",
          "type": "address"
        }
      ],
      "name": "hourlyBondAccounts",
      "outputs": [
        {
          "internalType": "uint256",
          "name": "amount",
          "type": "uint256"
        },
        {
          "internalType": "uint256",
          "name": "yieldQuotientFP",
          "type": "uint256"
        },
        {
          "internalType": "uint256",
          "name": "moduloHour",
          "type": "uint256"
        }
      ],
      "stateMutability": "view",
      "type": "function"
    },
    {
      "inputs": [
        {
          "internalType": "address",
          "name": "",
          "type": "address"
        }
      ],
      "name": "incentiveTranches",
      "outputs": [
        {
          "internalType": "uint256",
          "name": "",
          "type": "uint256"
        }
      ],
      "stateMutability": "view",
      "type": "function"
    },
    {
      "inputs": [
        {
          "internalType": "address",
          "name": "issuer",
          "type": "address"
        }
      ],
      "name": "initBorrowYieldAccumulator",
      "outputs": [],
      "stateMutability": "nonpayable",
      "type": "function"
    },
    {
      "inputs": [
        {
          "internalType": "address",
          "name": "",
          "type": "address"
        }
      ],
      "name": "issuerTokens",
      "outputs": [
        {
          "internalType": "address",
          "name": "",
          "type": "address"
        }
      ],
      "stateMutability": "view",
      "type": "function"
    },
    {
      "inputs": [
        {
          "internalType": "address",
          "name": "",
          "type": "address"
        }
      ],
      "name": "lendingMeta",
      "outputs": [
        {
          "internalType": "uint256",
          "name": "totalLending",
          "type": "uint256"
        },
        {
          "internalType": "uint256",
          "name": "totalBorrowed",
          "type": "uint256"
        },
        {
          "internalType": "uint256",
          "name": "lendingCap",
          "type": "uint256"
        }
      ],
      "stateMutability": "view",
      "type": "function"
    },
    {
      "inputs": [
        {
          "internalType": "uint256",
          "name": "",
          "type": "uint256"
        }
      ],
      "name": "mainCharacterCache",
      "outputs": [
        {
          "internalType": "address",
          "name": "",
          "type": "address"
        }
      ],
      "stateMutability": "view",
      "type": "function"
    },
    {
      "inputs": [],
      "name": "normalRatePerPercent",
      "outputs": [
        {
          "internalType": "uint256",
          "name": "",
          "type": "uint256"
        }
      ],
      "stateMutability": "view",
      "type": "function"
    },
    {
      "inputs": [
        {
          "internalType": "address",
          "name": "issuer",
          "type": "address"
        },
        {
          "internalType": "uint256",
          "name": "amount",
          "type": "uint256"
        }
      ],
      "name": "payOff",
      "outputs": [],
      "stateMutability": "nonpayable",
      "type": "function"
    },
    {
      "inputs": [
        {
          "internalType": "address",
          "name": "issuer",
          "type": "address"
        },
        {
          "internalType": "uint256",
          "name": "amount",
          "type": "uint256"
        }
      ],
      "name": "registerBorrow",
      "outputs": [],
      "stateMutability": "nonpayable",
      "type": "function"
    },
    {
      "inputs": [
        {
          "internalType": "address",
          "name": "issuer",
          "type": "address"
        },
        {
          "internalType": "uint256",
          "name": "amount",
          "type": "uint256"
        }
      ],
      "name": "registerLend",
      "outputs": [],
      "stateMutability": "nonpayable",
      "type": "function"
    },
    {
      "inputs": [
        {
          "internalType": "address",
          "name": "issuer",
          "type": "address"
        },
        {
          "internalType": "uint256",
          "name": "amount",
          "type": "uint256"
        }
      ],
      "name": "registerWithdrawal",
      "outputs": [],
      "stateMutability": "nonpayable",
      "type": "function"
    },
    {
      "inputs": [
        {
          "internalType": "address",
          "name": "",
          "type": "address"
        },
        {
          "internalType": "uint256",
          "name": "",
          "type": "uint256"
        }
      ],
      "name": "roleCache",
      "outputs": [
        {
          "internalType": "bool",
          "name": "",
          "type": "bool"
        }
      ],
      "stateMutability": "view",
      "type": "function"
    },
    {
      "inputs": [],
      "name": "roles",
      "outputs": [
        {
          "internalType": "contract Roles",
          "name": "",
          "type": "address"
        }
      ],
      "stateMutability": "view",
      "type": "function"
    },
    {
      "inputs": [
        {
          "internalType": "uint256",
          "name": "borrowingFactor",
          "type": "uint256"
        }
      ],
      "name": "setBorrowingFactorPercent",
      "outputs": [],
      "stateMutability": "nonpayable",
      "type": "function"
    },
    {
      "inputs": [
        {
          "internalType": "uint256",
          "name": "rate",
          "type": "uint256"
        }
      ],
      "name": "setHighRatePerPercent",
      "outputs": [],
      "stateMutability": "nonpayable",
      "type": "function"
    },
    {
      "inputs": [
        {
          "internalType": "address",
          "name": "issuer",
          "type": "address"
        },
        {
          "internalType": "uint256",
          "name": "aprPercent",
          "type": "uint256"
        }
      ],
      "name": "setHourlyYieldAPR",
      "outputs": [],
      "stateMutability": "nonpayable",
      "type": "function"
    },
    {
      "inputs": [
        {
          "internalType": "address",
          "name": "token",
          "type": "address"
        },
        {
          "internalType": "uint8",
          "name": "tranche",
          "type": "uint8"
        }
      ],
      "name": "setIncentiveTranche",
      "outputs": [],
      "stateMutability": "nonpayable",
      "type": "function"
    },
    {
      "inputs": [
        {
          "internalType": "address",
          "name": "issuer",
          "type": "address"
        },
        {
          "internalType": "uint256",
          "name": "cap",
          "type": "uint256"
        }
      ],
      "name": "setLendingCap",
      "outputs": [],
      "stateMutability": "nonpayable",
      "type": "function"
    },
    {
      "inputs": [
        {
          "internalType": "uint256",
          "name": "rate",
          "type": "uint256"
        }
      ],
      "name": "setNormalRatePerPercent",
      "outputs": [],
      "stateMutability": "nonpayable",
      "type": "function"
    },
    {
      "inputs": [
        {
          "internalType": "uint256",
          "name": "window",
          "type": "uint256"
        }
      ],
      "name": "setWithdrawalWindow",
      "outputs": [],
      "stateMutability": "nonpayable",
      "type": "function"
    },
    {
      "inputs": [
        {
          "internalType": "address",
          "name": "issuer",
          "type": "address"
        }
      ],
      "name": "updateHourlyYield",
      "outputs": [
        {
          "internalType": "uint256",
          "name": "hourlyYield",
          "type": "uint256"
        }
      ],
      "stateMutability": "nonpayable",
      "type": "function"
    },
    {
      "inputs": [
        {
          "internalType": "uint256",
          "name": "role",
          "type": "uint256"
        }
      ],
      "name": "updateMainCharacterCache",
      "outputs": [],
      "stateMutability": "nonpayable",
      "type": "function"
    },
    {
      "inputs": [
        {
          "internalType": "uint256",
          "name": "role",
          "type": "uint256"
        },
        {
          "internalType": "address",
          "name": "contr",
          "type": "address"
        }
      ],
      "name": "updateRoleCache",
      "outputs": [],
      "stateMutability": "nonpayable",
      "type": "function"
    },
    {
      "inputs": [
        {
          "internalType": "address",
          "name": "issuer",
          "type": "address"
        }
      ],
      "name": "viewAccumulatedBorrowingYieldFP",
      "outputs": [
        {
          "internalType": "uint256",
          "name": "",
          "type": "uint256"
        }
      ],
      "stateMutability": "view",
      "type": "function"
    },
    {
      "inputs": [
        {
          "internalType": "address",
          "name": "issuer",
          "type": "address"
        }
      ],
      "name": "viewBorrowAPRPer10k",
      "outputs": [
        {
          "internalType": "uint256",
          "name": "",
          "type": "uint256"
        }
      ],
      "stateMutability": "view",
      "type": "function"
    },
    {
      "inputs": [
        {
          "internalType": "address",
          "name": "issuer",
          "type": "address"
        }
      ],
      "name": "viewHourlyBondAPRPer10k",
      "outputs": [
        {
          "internalType": "uint256",
          "name": "",
          "type": "uint256"
        }
      ],
      "stateMutability": "view",
      "type": "function"
    },
    {
      "inputs": [
        {
          "internalType": "address",
          "name": "issuer",
          "type": "address"
        },
        {
          "internalType": "address",
          "name": "holder",
          "type": "address"
        }
      ],
      "name": "viewHourlyBondAmount",
      "outputs": [
        {
          "internalType": "uint256",
          "name": "",
          "type": "uint256"
        }
      ],
      "stateMutability": "view",
      "type": "function"
    },
    {
      "inputs": [
        {
          "internalType": "uint256",
          "name": "balance",
          "type": "uint256"
        },
        {
          "internalType": "address",
          "name": "issuer",
          "type": "address"
        },
        {
          "internalType": "uint256",
          "name": "yieldQuotientFP",
          "type": "uint256"
        }
      ],
      "name": "viewWithBorrowInterest",
      "outputs": [
        {
          "internalType": "uint256",
          "name": "",
          "type": "uint256"
        }
      ],
      "stateMutability": "view",
      "type": "function"
    },
    {
      "inputs": [
        {
          "internalType": "address",
          "name": "issuer",
          "type": "address"
        },
        {
          "internalType": "uint256",
          "name": "amount",
          "type": "uint256"
        }
      ],
      "name": "withdrawHourlyBond",
      "outputs": [],
      "stateMutability": "nonpayable",
      "type": "function"
    },
    {
      "inputs": [],
      "name": "withdrawalWindow",
      "outputs": [
        {
          "internalType": "uint256",
          "name": "",
          "type": "uint256"
        }
      ],
      "stateMutability": "view",
      "type": "function"
    }
  ],
  "bytecode": "0x60a06040526064604f6122386200001f6601000000000000600f6200019d565b6200002b91906200017c565b6200003791906200017c565b6200004391906200017c565b600055606462000055604f82620001bf565b6122386200006c660100000000000060b36200019d565b6200007891906200017c565b6200008491906200017c565b6200009091906200017c565b6001556104b060075560c8600955348015620000ab57600080fd5b506040516200310e3803806200310e833981016040819052620000ce916200014c565b806001600160a01b038116620001355760405162461bcd60e51b815260206004820152602260248201527f506c656173652070726f766964652076616c696420726f6c6573206164647265604482015261737360f01b606482015260840160405180910390fd5b60601b6001600160601b03191660805250620001ef565b6000602082840312156200015e578081fd5b81516001600160a01b038116811462000175578182fd5b9392505050565b6000826200019857634e487b7160e01b81526012600452602481fd5b500490565b6000816000190483118215151615620001ba57620001ba620001d9565b500290565b600082821015620001d457620001d4620001d9565b500390565b634e487b7160e01b600052601160045260246000fd5b60805160601c612ee46200022a600039600081816103f10152818161079d01528181610cff0152818161275501526127fa0152612ee46000f3fe608060405234801561001057600080fd5b50600436106102e95760003560e01c80637a00913511610191578063d4437dd8116100e3578063ebe64bcc11610097578063f848767311610071578063f848767314610735578063f884614b14610748578063f90889c91461075b576102e9565b8063ebe64bcc146106fc578063ee0862bf1461070f578063f51dfe7a14610722576102e9565b8063e695fa68116100c8578063e695fa6814610695578063e69e2662146106bd578063e9c3f77d146106c6576102e9565b8063d4437dd81461066f578063dc683bcf14610682576102e9565b8063ad037af611610145578063cd3b5dfb1161011f578063cd3b5dfb14610624578063d19bd0a714610653578063d2b489341461065c576102e9565b8063ad037af6146105d0578063ae4479dd146105fe578063cc4b26a314610611576102e9565b806383a042291161017657806383a04229146105485780638824cbba1461059d57806391b46e05146105bd576102e9565b80637a009135146105075780637a1a04df1461051a576102e9565b8063447d52ba1161024a5780636d8d36ba116101fe57806376668b67116101d857806376668b67146104b857806376c308f2146104cb578063797384b2146104d4576102e9565b80636d8d36ba1461047f5780636e60e2491461049257806372d01257146104a5576102e9565b806349d0e2ee1161022f57806349d0e2ee146104395780634b86daab1461044c57806364f85ab11461045f576102e9565b8063447d52ba1461041357806346c87f8014610426576102e9565b806328108026116102a15780632a6a897b116102865780632a6a897b146103c657806336953912146103d9578063392f5f64146103ec576102e9565b806328108026146103585780632864f401146103b3576102e9565b806314189db2116102d257806314189db21461031657806316de7a431461033c578063267031b81461034f576102e9565b8063071060a6146102ee5780630f7c43dc14610303575b600080fd5b6103016102fc366004612cee565b61076e565b005b610301610311366004612c71565b61087f565b610329610324366004612c01565b610924565b6040519081526020015b60405180910390f35b61030161034a366004612c71565b61095a565b61032960095481565b61038e610366366004612c01565b600b6020526000908152604090205473ffffffffffffffffffffffffffffffffffffffff1681565b60405173ffffffffffffffffffffffffffffffffffffffff9091168152602001610333565b6103016103c1366004612c9c565b610a13565b6103016103d4366004612c71565b610b3b565b6103016103e7366004612cee565b610c01565b61038e7f000000000000000000000000000000000000000000000000000000000000000081565b610301610421366004612d06565b610cb3565b610329610434366004612c01565b610ddc565b610301610447366004612cee565b610e11565b61030161045a366004612c01565b610ec3565b61032961046d366004612c01565b600c6020526000908152604090205481565b61030161048d366004612c71565b610ed0565b6103296104a0366004612c39565b61105b565b6103296104b3366004612c01565b6110e2565b6103296104c6366004612d2a565b611110565b61032960005481565b6104f76104e2366004612c01565b600d6020526000908152604090205460ff1681565b6040519015158152602001610333565b610301610515366004612c01565b611157565b6104f7610528366004612c71565b600560209081526000928352604080842090915290825290205460ff1681565b610582610556366004612c39565b600860209081526000928352604080842090915290825290208054600182015460029092015490919083565b60408051938452602084019290925290820152606001610333565b6103296105ab366004612c01565b600a6020526000908152604090205481565b6103016105cb366004612cee565b61129c565b6105826105de366004612c01565b600260208190526000918252604090912080546001820154919092015483565b61030161060c366004612c71565b61134e565b61030161061f366004612c01565b61149b565b610582610632366004612c01565b60036020526000908152604090208054600182015460029092015490919083565b61032960075481565b61030161066a366004612c71565b61165a565b61030161067d366004612cee565b611780565b610329610690366004612c01565b6117a7565b6106a86106a3366004612d2a565b6117e4565b60408051928352602083019190915201610333565b61032960015481565b61038e6106d4366004612cee565b60046020526000908152604090205473ffffffffffffffffffffffffffffffffffffffff1681565b61030161070a366004612c39565b611906565b61030161071d366004612c71565b611a87565b610329610730366004612c01565b611c7d565b610301610743366004612cee565b611cab565b610301610756366004612c01565b611d5d565b610301610769366004612c71565b611dfb565b6040517fb4ed0b6d000000000000000000000000000000000000000000000000000000008152600481018290527f000000000000000000000000000000000000000000000000000000000000000073ffffffffffffffffffffffffffffffffffffffff169063b4ed0b6d9060240160206040518083038186803b1580156107f457600080fd5b505afa158015610808573d6000803e3d6000fd5b505050506040513d601f19601f8201168201806040525081019061082c9190612c1d565b60009182526004602052604090912080547fffffffffffffffffffffffff00000000000000000000000000000000000000001673ffffffffffffffffffffffffffffffffffffffff909216919091179055565b73ffffffffffffffffffffffffffffffffffffffff8216600090815260086020908152604080832033845290915290206108b9838261200d565b6108c48382846120b7565b80546109095773ffffffffffffffffffffffffffffffffffffffff83166000908152600860209081526040808320338452909152812081815560018101829055600201555b6109148333846121c3565b61091f33848461239b565b505050565b73ffffffffffffffffffffffffffffffffffffffff8116600090815260036020526040812061095381426124a0565b9392505050565b73ffffffffffffffffffffffffffffffffffffffff82166000908152600d602052604090205460ff166109ee576040517f08c379a000000000000000000000000000000000000000000000000000000000815260206004820152601360248201527f4e6f7420617070726f766564206973737565720000000000000000000000000060448201526064015b60405180910390fd5b6109f98233836124e1565b610a048233836125ba565b610a0f33838361268d565b5050565b33610a1c612751565b73ffffffffffffffffffffffffffffffffffffffff161480610a5a575033610a426127f6565b73ffffffffffffffffffffffffffffffffffffffff16145b80610a8057503360009081526005602090815260408083206009845290915290205460ff165b610b0c576040517f08c379a000000000000000000000000000000000000000000000000000000000815260206004820152603960248201527f43616c6c6572206973206e6f7420746865206f776e65722c206578656375746f60448201527f72206f7220617574686f72697a656420616374697661746f720000000000000060648201526084016109e5565b73ffffffffffffffffffffffffffffffffffffffff9091166000908152600a6020526040902060ff9091169055565b3360009081526005602090815260408083206003845290915290205460ff16610bc0576040517f08c379a000000000000000000000000000000000000000000000000000000000815260206004820152601560248201527f4e6f7420617070726f76656420626f72726f776572000000000000000000000060448201526064016109e5565b73ffffffffffffffffffffffffffffffffffffffff821660009081526002602052604081206001018054839290610bf8908490612dca565b90915550505050565b33610c0a612751565b73ffffffffffffffffffffffffffffffffffffffff161480610c48575033610c306127f6565b73ffffffffffffffffffffffffffffffffffffffff16145b610cae576040517f08c379a000000000000000000000000000000000000000000000000000000000815260206004820152601e60248201527f526f6c65733a2063616c6c6572206973206e6f7420746865206f776e6572000060448201526064016109e5565b600755565b6040517f93552a3d0000000000000000000000000000000000000000000000000000000081526004810183905273ffffffffffffffffffffffffffffffffffffffff82811660248301527f000000000000000000000000000000000000000000000000000000000000000016906393552a3d9060440160206040518083038186803b158015610d4157600080fd5b505afa158015610d55573d6000803e3d6000fd5b505050506040513d601f19601f82011682018060405250810190610d799190612cce565b73ffffffffffffffffffffffffffffffffffffffff9190911660009081526005602090815260408083209483529390529190912080547fffffffffffffffffffffffffffffffffffffffffffffffffffffffffffffff0016911515919091179055565b73ffffffffffffffffffffffffffffffffffffffff81166000908152600360205260408120610e0a81612874565b5492915050565b33610e1a612751565b73ffffffffffffffffffffffffffffffffffffffff161480610e58575033610e406127f6565b73ffffffffffffffffffffffffffffffffffffffff16145b610ebe576040517f08c379a000000000000000000000000000000000000000000000000000000000815260206004820152601e60248201527f526f6c65733a2063616c6c6572206973206e6f7420746865206f776e6572000060448201526064016109e5565b600155565b610ecd8182611906565b50565b336000908152600560209081526040808320600b845290915290205460ff16610f55576040517f08c379a000000000000000000000000000000000000000000000000000000000815260206004820152601660248201527f4e6f7420616e20617070726f766564206c656e6465720000000000000000000060448201526064016109e5565b73ffffffffffffffffffffffffffffffffffffffff82166000908152600d602052604090205460ff16610fe4576040517f08c379a000000000000000000000000000000000000000000000000000000000815260206004820152601360248201527f4e6f7420617070726f766564206973737565720000000000000000000000000060448201526064016109e5565b73ffffffffffffffffffffffffffffffffffffffff8216600090815260026020526040812080549091839183919061101d908490612dca565b909155505073ffffffffffffffffffffffffffffffffffffffff831660009081526006602052604090206110559084906104b06128a8565b50505050565b73ffffffffffffffffffffffffffffffffffffffff80831660008181526008602090815260408083209486168352938152838220600181015493835260069091529281209092919083906110af90426124a0565b905081156110ce5782546110c49082846129b7565b93505050506110dc565b50505490506110dc565b5050505b92915050565b73ffffffffffffffffffffffffffffffffffffffff811660009081526006602052604081206110dc906129d6565b73ffffffffffffffffffffffffffffffffffffffff82166000908152600360205260408120819061114190426124a0565b905061114e8582856129b7565b95945050505050565b33611160612751565b73ffffffffffffffffffffffffffffffffffffffff16148061119e5750336111866127f6565b73ffffffffffffffffffffffffffffffffffffffff16145b806111c457503360009081526005602090815260408083206009845290915290205460ff165b611250576040517f08c379a000000000000000000000000000000000000000000000000000000000815260206004820152603960248201527f43616c6c6572206973206e6f7420746865206f776e65722c206578656375746f60448201527f72206f7220617574686f72697a656420616374697661746f720000000000000060648201526084016109e5565b73ffffffffffffffffffffffffffffffffffffffff166000908152600d6020526040902080547fffffffffffffffffffffffffffffffffffffffffffffffffffffffffffffff00169055565b336112a5612751565b73ffffffffffffffffffffffffffffffffffffffff1614806112e35750336112cb6127f6565b73ffffffffffffffffffffffffffffffffffffffff16145b611349576040517f08c379a000000000000000000000000000000000000000000000000000000000815260206004820152601e60248201527f526f6c65733a2063616c6c6572206973206e6f7420746865206f776e6572000060448201526064016109e5565b600955565b336000908152600560209081526040808320600b845290915290205460ff166113d3576040517f08c379a000000000000000000000000000000000000000000000000000000000815260206004820152601660248201527f4e6f7420616e20617070726f766564206c656e6465720000000000000000000060448201526064016109e5565b73ffffffffffffffffffffffffffffffffffffffff82166000908152600d602052604090205460ff16611462576040517f08c379a000000000000000000000000000000000000000000000000000000000815260206004820152601360248201527f4e6f7420617070726f766564206973737565720000000000000000000000000060448201526064016109e5565b73ffffffffffffffffffffffffffffffffffffffff8216600090815260026020526040812080549091839183919061101d908490612d61565b336114a4612751565b73ffffffffffffffffffffffffffffffffffffffff1614806114e25750336114ca6127f6565b73ffffffffffffffffffffffffffffffffffffffff16145b8061150857503360009081526005602090815260408083206009845290915290205460ff165b611594576040517f08c379a000000000000000000000000000000000000000000000000000000000815260206004820152603960248201527f43616c6c6572206973206e6f7420746865206f776e65722c206578656375746f60448201527f72206f7220617574686f72697a656420616374697661746f720000000000000060648201526084016109e5565b73ffffffffffffffffffffffffffffffffffffffff81166000908152600360205260409020805415611622576040517f08c379a000000000000000000000000000000000000000000000000000000000815260206004820152601360248201527f646f6e27742072652d696e697469616c697a650000000000000000000000000060448201526064016109e5565b66010000000000008082554260018301556116409061223890612d79565b611651906601000000000000612d61565b60029091015550565b33611663612751565b73ffffffffffffffffffffffffffffffffffffffff1614806116a15750336116896127f6565b73ffffffffffffffffffffffffffffffffffffffff16145b806116c757503360009081526005602090815260408083206009845290915290205460ff165b611753576040517f08c379a000000000000000000000000000000000000000000000000000000000815260206004820152603960248201527f43616c6c6572206973206e6f7420746865206f776e65722c206578656375746f60448201527f72206f7220617574686f72697a656420616374697661746f720000000000000060648201526084016109e5565b73ffffffffffffffffffffffffffffffffffffffff90911660009081526002602081905260409091200155565b336000908152600c60205260408120805483929061179f908490612d61565b909155505050565b73ffffffffffffffffffffffffffffffffffffffff811660009081526006602052604081206117da9083906104b06128a8565b6002015492915050565b33600090815260056020908152604080832060038452909152812054819060ff1661186b576040517f08c379a000000000000000000000000000000000000000000000000000000000815260206004820152601160248201527f4e6f7420617070726f7665642063616c6c00000000000000000000000000000060448201526064016109e5565b73ffffffffffffffffffffffffffffffffffffffff8416600090815260036020526040902061189981612874565b805491506118a88683866129b7565b925060006118b68785612dca565b73ffffffffffffffffffffffffffffffffffffffff8716600090815260026020526040812060018101805493945090928492906118f4908490612d61565b92505081905550505050935093915050565b3361190f612751565b73ffffffffffffffffffffffffffffffffffffffff16148061194d5750336119356127f6565b73ffffffffffffffffffffffffffffffffffffffff16145b8061197357503360009081526005602090815260408083206009845290915290205460ff165b6119ff576040517f08c379a000000000000000000000000000000000000000000000000000000000815260206004820152603960248201527f43616c6c6572206973206e6f7420746865206f776e65722c206578656375746f60448201527f72206f7220617574686f72697a656420616374697661746f720000000000000060648201526084016109e5565b73ffffffffffffffffffffffffffffffffffffffff9182166000908152600d6020908152604080832080547fffffffffffffffffffffffffffffffffffffffffffffffffffffffffffffff00166001179055600b90915290208054919092167fffffffffffffffffffffffff0000000000000000000000000000000000000000909116179055565b3360009081526005602090815260408083206003845290915290205460ff16611b0c576040517f08c379a000000000000000000000000000000000000000000000000000000000815260206004820152601560248201527f4e6f7420617070726f76656420626f72726f776572000000000000000000000060448201526064016109e5565b73ffffffffffffffffffffffffffffffffffffffff82166000908152600d602052604090205460ff16611b9b576040517f08c379a000000000000000000000000000000000000000000000000000000000815260206004820152601360248201527f4e6f7420617070726f766564206973737565720000000000000000000000000060448201526064016109e5565b73ffffffffffffffffffffffffffffffffffffffff8216600090815260026020526040812060018101805491928492611bd5908490612d61565b909155505073ffffffffffffffffffffffffffffffffffffffff83166000908152600660205260409020611c0d908490610e106128a8565b5060018101548154101561091f576040517f08c379a000000000000000000000000000000000000000000000000000000000815260206004820152601460248201527f496e73756666696369656e74206c656e64696e6700000000000000000000000060448201526064016109e5565b73ffffffffffffffffffffffffffffffffffffffff811660009081526003602052604081206110dc906129d6565b33611cb4612751565b73ffffffffffffffffffffffffffffffffffffffff161480611cf2575033611cda6127f6565b73ffffffffffffffffffffffffffffffffffffffff16145b611d58576040517f08c379a000000000000000000000000000000000000000000000000000000000815260206004820152601e60248201527f526f6c65733a2063616c6c6572206973206e6f7420746865206f776e6572000060448201526064016109e5565b600055565b73ffffffffffffffffffffffffffffffffffffffff811660009081526008602090815260408083203384529091529020611d97828261200d565b8054611da48383836120b7565b611daf8333836121c3565b73ffffffffffffffffffffffffffffffffffffffff831660009081526008602090815260408083203380855292528220828155600181018390556002019190915561091f90848361239b565b33611e04612751565b73ffffffffffffffffffffffffffffffffffffffff161480611e42575033611e2a6127f6565b73ffffffffffffffffffffffffffffffffffffffff16145b80611e6857503360009081526005602090815260408083206009845290915290205460ff165b611ef4576040517f08c379a000000000000000000000000000000000000000000000000000000000815260206004820152603960248201527f43616c6c6572206973206e6f7420746865206f776e65722c206578656375746f60448201527f72206f7220617574686f72697a656420616374697661746f720000000000000060648201526084016109e5565b73ffffffffffffffffffffffffffffffffffffffff821660009081526006602052604090208054611fbd5760006122386064611f37856601000000000000612d8d565b611f419190612d79565b611f4b9190612d79565b611f5c906601000000000000612d61565b604080516060810182526601000000000000815242602080830191825282840194855273ffffffffffffffffffffffffffffffffffffffff89166000908152600690915292909220905181559051600182015590516002909101555061091f565b6000611fcc84836104b06128a8565b90506122386064611fdd8582612d61565b611fee906601000000000000612d8d565b611ff89190612d79565b6120029190612d79565b600290910155505050565b6001810154801561091f5773ffffffffffffffffffffffffffffffffffffffff8316600090815260066020526040812061204b9085906104b06128a8565b835481549192509061205f908290856129b7565b808555600090612070908390612dca565b73ffffffffffffffffffffffffffffffffffffffff87166000908152600260205260408120805492935083929091906120aa908490612d61565b9091555050505050505050565b6000610e108360020154426120cc9190612dca565b6120d69190612e1a565b905080600754101561216a576040517f08c379a000000000000000000000000000000000000000000000000000000000815260206004820152603f60248201527f5472696564207769746864726177696e67206f7574736964652073756273637260448201527f697074696f6e2063616e63656c6c6174696f6e2074696d652077696e646f770060648201526084016109e5565b8183600001600082825461217e9190612dca565b909155505073ffffffffffffffffffffffffffffffffffffffff8416600090815260026020526040812080548492906121b8908490612dca565b909155505050505050565b73ffffffffffffffffffffffffffffffffffffffff83166000908152600c602052604090205480158015906121f85750600082115b156122915773ffffffffffffffffffffffffffffffffffffffff8416600090815260026020526040812054908161222f8185612a36565b6122399086612d8d565b6122439190612d79565b905061224f8185612dca565b73ffffffffffffffffffffffffffffffffffffffff87166000908152600c6020526040812080549296508392909190612289908490612dca565b909155505050505b73ffffffffffffffffffffffffffffffffffffffff8085166000908152600b602052604090205416612301606560005260046020527ffe4d1297c5434445a55041cf44037c0799556cc55064da684dc6eed1a5dccabf5473ffffffffffffffffffffffffffffffffffffffff1690565b6040517fd9caed1200000000000000000000000000000000000000000000000000000000815273ffffffffffffffffffffffffffffffffffffffff8381166004830152868116602483015260448201869052919091169063d9caed12906064015b600060405180830381600087803b15801561237c57600080fd5b505af1158015612390573d6000803e3d6000fd5b505050505050505050565b73ffffffffffffffffffffffffffffffffffffffff82166000908152600a6020526040902054612409606c60005260046020527f8b685361ee213407f41a019b5dbc17edecc44c9f276819680a1bcb10c2f13bb85473ffffffffffffffffffffffffffffffffffffffff1690565b6040517fc6c9faa10000000000000000000000000000000000000000000000000000000081526004810183905273ffffffffffffffffffffffffffffffffffffffff868116602483015260448201859052919091169063c6c9faa190606401600060405180830381600087803b15801561248257600080fd5b505af1158015612496573d6000803e3d6000fd5b5050505050505050565b6000808360010154836124b39190612dca565b90506104b08111156124d1576124c98482612a4e565b9150506110dc565b505081546110dc565b5092915050565b606560005260046020527ffe4d1297c5434445a55041cf44037c0799556cc55064da684dc6eed1a5dccabf5473ffffffffffffffffffffffffffffffffffffffff166040517fb3db428b00000000000000000000000000000000000000000000000000000000815273ffffffffffffffffffffffffffffffffffffffff8481166004830152858116602483015260448201849052919091169063b3db428b90606401600060405180830381600087803b15801561259d57600080fd5b505af11580156125b1573d6000803e3d6000fd5b50505050505050565b73ffffffffffffffffffffffffffffffffffffffff80841660009081526008602090815260408083209386168352929052206125f6848261200d565b73ffffffffffffffffffffffffffffffffffffffff841660009081526006602052604090208054600183015561262e610e1042612e1a565b6002830155815483908390600090612647908490612d61565b909155505073ffffffffffffffffffffffffffffffffffffffff851660009081526002602052604081208054859290612681908490612d61565b90915550505050505050565b60006126d7606c60005260046020527f8b685361ee213407f41a019b5dbc17edecc44c9f276819680a1bcb10c2f13bb85473ffffffffffffffffffffffffffffffffffffffff1690565b73ffffffffffffffffffffffffffffffffffffffff8481166000908152600a6020526040908190205490517f2b5de286000000000000000000000000000000000000000000000000000000008152600481018290528783166024820152604481018690529293509190831690632b5de28690606401612362565b60007f000000000000000000000000000000000000000000000000000000000000000073ffffffffffffffffffffffffffffffffffffffff16638da5cb5b6040518163ffffffff1660e01b815260040160206040518083038186803b1580156127b957600080fd5b505afa1580156127cd573d6000803e3d6000fd5b505050506040513d601f19601f820116820180604052508101906127f19190612c1d565b905090565b60007f000000000000000000000000000000000000000000000000000000000000000073ffffffffffffffffffffffffffffffffffffffff1663c34c08e56040518163ffffffff1660e01b8152600401602060405180830381600087803b15801561286057600080fd5b505af11580156127cd573d6000803e3d6000fd5b60008160010154426128869190612dca565b90506104b0811115610a0f5761289c8282612a4e565b82554260018301555050565b6001820154600090816128bb8242612dca565b9050838111156129ad5773ffffffffffffffffffffffffffffffffffffffff861660009081526003602052604090206128f48683612a4e565b865573ffffffffffffffffffffffffffffffffffffffff871660009081526002602052604090208054600182015461292c9190612b66565b600288015542600188015561294082612874565b6129a2612238606461295a66010000000000006006612d8d565b6129649190612d79565b61296e9190612d79565b61297f906601000000000000612d61565b606489600201546009546129939190612d8d565b61299d9190612d79565b612be9565b826002018190555050505b5092949350505050565b6000816129c48486612d8d565b6129ce9190612d79565b949350505050565b600281015460009081610e106129f56601000000000000612710612d8d565b612a0184612710612d8d565b612a0b9190612dca565b612a19906301e13380612d8d565b612a239190612d79565b90506129ce660100000000000082612d79565b600081831115612a475750806110dc565b50816110dc565b600080612a5d610e1084612e1a565b9050612a726601000000000000610e10612d8d565b8166010000000000008660020154612a8a9190612dca565b8654612a969190612d8d565b612aa09190612d8d565b612aaa9190612d79565b8454612ab69190612d61565b91506000612ac6610e1085612d79565b90508015612b5e578260005b8083118015612ae15750806004115b15612b1c576601000000000000876002015486612afe9190612d8d565b612b089190612d79565b945080612b1481612de1565b915050612ad2565b5060048211156110d8576004612b328184612dca565b612b3c8387612dca565b612b469190612d8d565b612b509190612d79565b612b5a9085612d61565b9350505b505092915050565b6601000000000000600083612b7c846064612d8d565b612b869190612d79565b9050604f811015612baf57600054612b9e9082612d8d565b612ba89083612d61565b91506124da565b600154612bbd604f83612dca565b612bc79190612d8d565b600054612bd590604f612d8d565b612bdf9190612d61565b6129ce9083612d61565b600081831115612bfa5750816110dc565b50806110dc565b600060208284031215612c12578081fd5b813561095381612e8c565b600060208284031215612c2e578081fd5b815161095381612e8c565b60008060408385031215612c4b578081fd5b8235612c5681612e8c565b91506020830135612c6681612e8c565b809150509250929050565b60008060408385031215612c83578182fd5b8235612c8e81612e8c565b946020939093013593505050565b60008060408385031215612cae578182fd5b8235612cb981612e8c565b9150602083013560ff81168114612c66578182fd5b600060208284031215612cdf578081fd5b81518015158114610953578182fd5b600060208284031215612cff578081fd5b5035919050565b60008060408385031215612d18578182fd5b823591506020830135612c6681612e8c565b600080600060608486031215612d3e578081fd5b833592506020840135612d5081612e8c565b929592945050506040919091013590565b60008219821115612d7457612d74612e2e565b500190565b600082612d8857612d88612e5d565b500490565b6000817fffffffffffffffffffffffffffffffffffffffffffffffffffffffffffffffff0483118215151615612dc557612dc5612e2e565b500290565b600082821015612ddc57612ddc612e2e565b500390565b60007fffffffffffffffffffffffffffffffffffffffffffffffffffffffffffffffff821415612e1357612e13612e2e565b5060010190565b600082612e2957612e29612e5d565b500690565b7f4e487b7100000000000000000000000000000000000000000000000000000000600052601160045260246000fd5b7f4e487b7100000000000000000000000000000000000000000000000000000000600052601260045260246000fd5b73ffffffffffffffffffffffffffffffffffffffff81168114610ecd57600080fdfea26469706673582212201da19195650f6f0d2109a966731138f8df2ed5b1efffe95520bb9354f2f35daa64736f6c63430008030033",
  "linkReferences": {},
  "deployedLinkReferences": {}
}