{
  "_format": "hh-sol-artifact-1",
  "contractName": "TokenActivation",
  "sourceName": "contracts/controller-actions/TokenActivation.sol",
  "abi": [
    {
      "inputs": [
        {
          "internalType": "address",
          "name": "_roles",
          "type": "address"
        },
        {
          "internalType": "address[]",
          "name": "tokens2activate",
          "type": "address[]"
        },
        {
          "internalType": "uint256[]",
          "name": "_exposureCaps",
          "type": "uint256[]"
        },
        {
          "internalType": "uint256[]",
          "name": "_lendingBuffers",
          "type": "uint256[]"
        },
        {
          "internalType": "bytes32[]",
          "name": "_amms",
          "type": "bytes32[]"
        },
        {
          "internalType": "address[][]",
          "name": "_liquidationTokens",
          "type": "address[][]"
        }
      ],
      "stateMutability": "nonpayable",
      "type": "constructor"
    },
    {
      "inputs": [
        {
          "internalType": "uint256",
          "name": "",
          "type": "uint256"
        }
      ],
      "name": "amms",
      "outputs": [
        {
          "internalType": "bytes32",
          "name": "",
          "type": "bytes32"
        }
      ],
      "stateMutability": "view",
      "type": "function"
    },
    {
      "inputs": [],
      "name": "execute",
      "outputs": [],
      "stateMutability": "nonpayable",
      "type": "function"
    },
    {
      "inputs": [
        {
          "internalType": "uint256",
          "name": "",
          "type": "uint256"
        }
      ],
      "name": "exposureCaps",
      "outputs": [
        {
          "internalType": "uint256",
          "name": "",
          "type": "uint256"
        }
      ],
      "stateMutability": "view",
      "type": "function"
    },
    {
      "inputs": [
        {
          "internalType": "uint256",
          "name": "",
          "type": "uint256"
        }
      ],
      "name": "lendingBuffers",
      "outputs": [
        {
          "internalType": "uint256",
          "name": "",
          "type": "uint256"
        }
      ],
      "stateMutability": "view",
      "type": "function"
    },
    {
      "inputs": [
        {
          "internalType": "uint256",
          "name": "",
          "type": "uint256"
        },
        {
          "internalType": "uint256",
          "name": "",
          "type": "uint256"
        }
      ],
      "name": "liquidationTokens",
      "outputs": [
        {
          "internalType": "address",
          "name": "",
          "type": "address"
        }
      ],
      "stateMutability": "view",
      "type": "function"
    },
    {
      "inputs": [
        {
          "internalType": "uint256",
          "name": "",
          "type": "uint256"
        }
      ],
      "name": "mainCharacterCache",
      "outputs": [
        {
          "internalType": "address",
          "name": "",
          "type": "address"
        }
      ],
      "stateMutability": "view",
      "type": "function"
    },
    {
      "inputs": [],
      "name": "requiredRoles",
      "outputs": [
        {
          "internalType": "uint256[]",
          "name": "required",
          "type": "uint256[]"
        }
      ],
      "stateMutability": "nonpayable",
      "type": "function"
    },
    {
      "inputs": [
        {
          "internalType": "address",
          "name": "",
          "type": "address"
        },
        {
          "internalType": "uint256",
          "name": "",
          "type": "uint256"
        }
      ],
      "name": "roleCache",
      "outputs": [
        {
          "internalType": "bool",
          "name": "",
          "type": "bool"
        }
      ],
      "stateMutability": "view",
      "type": "function"
    },
    {
      "inputs": [],
      "name": "roles",
      "outputs": [
        {
          "internalType": "contract Roles",
          "name": "",
          "type": "address"
        }
      ],
      "stateMutability": "view",
      "type": "function"
    },
    {
      "inputs": [
        {
          "internalType": "uint256",
          "name": "",
          "type": "uint256"
        }
      ],
      "name": "tokens",
      "outputs": [
        {
          "internalType": "address",
          "name": "",
          "type": "address"
        }
      ],
      "stateMutability": "view",
      "type": "function"
    },
    {
      "inputs": [
        {
          "internalType": "uint256",
          "name": "role",
          "type": "uint256"
        }
      ],
      "name": "updateMainCharacterCache",
      "outputs": [],
      "stateMutability": "nonpayable",
      "type": "function"
    },
    {
      "inputs": [
        {
          "internalType": "uint256",
          "name": "role",
          "type": "uint256"
        },
        {
          "internalType": "address",
          "name": "contr",
          "type": "address"
        }
      ],
      "name": "updateRoleCache",
      "outputs": [],
      "stateMutability": "nonpayable",
      "type": "function"
    }
  ],
  "bytecode": "0x60a06040523480156200001157600080fd5b50604051620018dc380380620018dc8339810160408190526200003491620003e6565b856001600160a01b0381166200009b5760405162461bcd60e51b815260206004820152602260248201527f506c656173652070726f766964652076616c696420726f6c6573206164647265604482015261737360f01b606482015260840160405180910390fd5b60601b6001600160601b0319166080528451620000c090600290602088019062000125565b508351620000d69060039060208701906200018f565b508251620000ec9060049060208601906200018f565b508151620001029060059060208501906200018f565b50805162000118906006906020840190620001cd565b5050505050505062000542565b8280548282559060005260206000209081019282156200017d579160200282015b828111156200017d57825182546001600160a01b0319166001600160a01b0390911617825560209092019160019091019062000146565b506200018b9291506200022d565b5090565b8280548282559060005260206000209081019282156200017d579160200282015b828111156200017d578251825591602001919060010190620001b0565b8280548282559060005260206000209081019282156200021f579160200282015b828111156200021f57825180516200020e91849160209091019062000125565b5091602001919060010190620001ee565b506200018b92915062000244565b5b808211156200018b57600081556001016200022e565b808211156200018b5760006200025b828262000265565b5060010162000244565b50805460008255906000526020600020908101906200028591906200022d565b50565b80516001600160a01b0381168114620002a057600080fd5b919050565b600082601f830112620002b6578081fd5b81516020620002cf620002c98362000506565b620004d3565b80838252828201915082860187848660051b8901011115620002ef578586fd5b855b858110156200031857620003058262000288565b84529284019290840190600101620002f1565b5090979650505050505050565b600082601f83011262000336578081fd5b8151602062000349620002c98362000506565b82815281810190858301855b8581101562000318576200036f898684518b0101620002a5565b8452928401929084019060010162000355565b600082601f83011262000393578081fd5b81516020620003a6620002c98362000506565b80838252828201915082860187848660051b8901011115620003c6578586fd5b855b858110156200031857815184529284019290840190600101620003c8565b60008060008060008060c08789031215620003ff578182fd5b6200040a8762000288565b60208801519096506001600160401b038082111562000427578384fd5b620004358a838b01620002a5565b965060408901519150808211156200044b578384fd5b620004598a838b0162000382565b955060608901519150808211156200046f578384fd5b6200047d8a838b0162000382565b9450608089015191508082111562000493578384fd5b620004a18a838b0162000382565b935060a0890151915080821115620004b7578283fd5b50620004c689828a0162000325565b9150509295509295509295565b604051601f8201601f191681016001600160401b0381118282101715620004fe57620004fe6200052c565b604052919050565b60006001600160401b038211156200052257620005226200052c565b5060051b60200190565b634e487b7160e01b600052604160045260246000fd5b60805160601c61136d6200056f600039600081816101300152818161027901526103f8015261136d6000f3fe608060405234801561001057600080fd5b50600436106100d45760003560e01c80637a1a04df11610081578063cd28fc8f1161005b578063cd28fc8f146101f2578063e9c3f77d14610201578063f7fe95a814610237576100d4565b80637a1a04df1461018057806386a8cdbc146101be578063b792be6f146101df576100d4565b8063447d52ba116100b2578063447d52ba146101525780634f64b2be146101655780636146195414610178576100d4565b8063071060a6146100d9578063276ce2c8146100ee578063392f5f641461012b575b600080fd5b6100ec6100e736600461119d565b61024a565b005b6101016100fc3660046111e4565b61035b565b60405173ffffffffffffffffffffffffffffffffffffffff90911681526020015b60405180910390f35b6101017f000000000000000000000000000000000000000000000000000000000000000081565b6100ec6101603660046111b5565b6103ac565b61010161017336600461119d565b6104d5565b6100ec61050c565b6101ae61018e366004611152565b600160209081526000928352604080842090915290825290205460ff1681565b6040519015158152602001610122565b6101d16101cc36600461119d565b611079565b604051908152602001610122565b6101d16101ed36600461119d565b61109a565b60606040516101229190611205565b61010161020f36600461119d565b60006020819052908152604090205473ffffffffffffffffffffffffffffffffffffffff1681565b6101d161024536600461119d565b6110aa565b6040517fb4ed0b6d000000000000000000000000000000000000000000000000000000008152600481018290527f000000000000000000000000000000000000000000000000000000000000000073ffffffffffffffffffffffffffffffffffffffff169063b4ed0b6d9060240160206040518083038186803b1580156102d057600080fd5b505afa1580156102e4573d6000803e3d6000fd5b505050506040513d601f19601f82011682018060405250810190610308919061112f565b60009182526020829052604090912080547fffffffffffffffffffffffff00000000000000000000000000000000000000001673ffffffffffffffffffffffffffffffffffffffff909216919091179055565b6006828154811061036b57600080fd5b90600052602060002001818154811061038357600080fd5b60009182526020909120015473ffffffffffffffffffffffffffffffffffffffff169150829050565b6040517f93552a3d0000000000000000000000000000000000000000000000000000000081526004810183905273ffffffffffffffffffffffffffffffffffffffff82811660248301527f000000000000000000000000000000000000000000000000000000000000000016906393552a3d9060440160206040518083038186803b15801561043a57600080fd5b505afa15801561044e573d6000803e3d6000fd5b505050506040513d601f19601f82011682018060405250810190610472919061117d565b73ffffffffffffffffffffffffffffffffffffffff9190911660009081526001602090815260408083209483529390529190912080547fffffffffffffffffffffffffffffffffffffffffffffffffffffffffffffff0016911515919091179055565b600281815481106104e557600080fd5b60009182526020909120015473ffffffffffffffffffffffffffffffffffffffff16905081565b60005b60025462ffffff8216101561103957600060028262ffffff168154811061055f577f4e487b7100000000000000000000000000000000000000000000000000000000600052603260045260246000fd5b60009182526020822001546003805473ffffffffffffffffffffffffffffffffffffffff90921693509062ffffff85169081106105c5577f4e487b7100000000000000000000000000000000000000000000000000000000600052603260045260246000fd5b90600052602060002001549050600060048462ffffff1681548110610613577f4e487b7100000000000000000000000000000000000000000000000000000000600052603260045260246000fd5b90600052602060002001549050600060058562ffffff1681548110610661577f4e487b7100000000000000000000000000000000000000000000000000000000600052603260045260246000fd5b90600052602060002001549050600060068662ffffff16815481106106af577f4e487b7100000000000000000000000000000000000000000000000000000000600052603260045260246000fd5b9060005260206000200180548060200260200160405190810160405280929190818152602001828054801561071a57602002820191906000526020600020905b815473ffffffffffffffffffffffffffffffffffffffff1681526001909101906020018083116106ef575b50505050509050610769606660009081526020527f422cccb7cea5c0e46f340bb7b21b81debac329f72e31669c20ff0f3a05cc2b5b5473ffffffffffffffffffffffffffffffffffffffff1690565b6040517f797384b200000000000000000000000000000000000000000000000000000000815273ffffffffffffffffffffffffffffffffffffffff8781166004830152919091169063797384b29060240160206040518083038186803b1580156107d257600080fd5b505afa1580156107e6573d6000803e3d6000fd5b505050506040513d601f19601f8201168201806040525081019061080a919061117d565b15610876576040517f08c379a000000000000000000000000000000000000000000000000000000000815260206004820152601760248201527f546f6b656e20616c72656164792069732061637469766500000000000000000060448201526064015b60405180910390fd5b606660009081526020527f422cccb7cea5c0e46f340bb7b21b81debac329f72e31669c20ff0f3a05cc2b5b5473ffffffffffffffffffffffffffffffffffffffff166040517f4b86daab00000000000000000000000000000000000000000000000000000000815273ffffffffffffffffffffffffffffffffffffffff87811660048301529190911690634b86daab90602401600060405180830381600087803b15801561092357600080fd5b505af1158015610937573d6000803e3d6000fd5b50506068600090815260205250507faa071f48f62aaaa1f6320aaa7bd2ad2d552d05160892c14d699d38c9920d5f995473ffffffffffffffffffffffffffffffffffffffff166040517f1d47e4a300000000000000000000000000000000000000000000000000000000815273ffffffffffffffffffffffffffffffffffffffff8781166004830152602482018790529190911690631d47e4a390604401600060405180830381600087803b1580156109ef57600080fd5b505af1158015610a03573d6000803e3d6000fd5b50506066600090815260205250507f422cccb7cea5c0e46f340bb7b21b81debac329f72e31669c20ff0f3a05cc2b5b5473ffffffffffffffffffffffffffffffffffffffff166040517fd2b4893400000000000000000000000000000000000000000000000000000000815273ffffffffffffffffffffffffffffffffffffffff878116600483015260248201879052919091169063d2b4893490604401600060405180830381600087803b158015610abb57600080fd5b505af1158015610acf573d6000803e3d6000fd5b50506066600090815260205250507f422cccb7cea5c0e46f340bb7b21b81debac329f72e31669c20ff0f3a05cc2b5b5473ffffffffffffffffffffffffffffffffffffffff166040517fa387832f00000000000000000000000000000000000000000000000000000000815273ffffffffffffffffffffffffffffffffffffffff878116600483015260248201869052919091169063a387832f90604401600060405180830381600087803b158015610b8757600080fd5b505af1158015610b9b573d6000803e3d6000fd5b50506066600090815260205250507f422cccb7cea5c0e46f340bb7b21b81debac329f72e31669c20ff0f3a05cc2b5b5473ffffffffffffffffffffffffffffffffffffffff166040517ff90889c900000000000000000000000000000000000000000000000000000000815273ffffffffffffffffffffffffffffffffffffffff878116600483015260006024830152919091169063f90889c990604401600060405180830381600087803b158015610c5357600080fd5b505af1158015610c67573d6000803e3d6000fd5b50506066600090815260205250507f422cccb7cea5c0e46f340bb7b21b81debac329f72e31669c20ff0f3a05cc2b5b5473ffffffffffffffffffffffffffffffffffffffff166040517fcc4b26a300000000000000000000000000000000000000000000000000000000815273ffffffffffffffffffffffffffffffffffffffff8781166004830152919091169063cc4b26a390602401600060405180830381600087803b158015610d1857600080fd5b505af1158015610d2c573d6000803e3d6000fd5b505050508473ffffffffffffffffffffffffffffffffffffffff1681600081518110610d81577f4e487b7100000000000000000000000000000000000000000000000000000000600052603260045260246000fd5b602002602001015173ffffffffffffffffffffffffffffffffffffffff16148015610ee25750606860009081526020527faa071f48f62aaaa1f6320aaa7bd2ad2d552d05160892c14d699d38c9920d5f995473ffffffffffffffffffffffffffffffffffffffff1673ffffffffffffffffffffffffffffffffffffffff16631f1cb62b6040518163ffffffff1660e01b815260040160206040518083038186803b158015610e2e57600080fd5b505afa158015610e42573d6000803e3d6000fd5b505050506040513d601f19601f82011682018060405250810190610e66919061112f565b73ffffffffffffffffffffffffffffffffffffffff168160018351610e8b91906112ac565b81518110610ec2577f4e487b7100000000000000000000000000000000000000000000000000000000600052603260045260246000fd5b602002602001015173ffffffffffffffffffffffffffffffffffffffff16145b610f6e576040517f08c379a000000000000000000000000000000000000000000000000000000000815260206004820152603860248201527f496e76616c6964206c69717569646174696f6e546f6b656e73202d2d2073686f60448201527f756c6420676f2066726f6d20746f6b656e20746f207065670000000000000000606482015260840161086d565b606860009081526020527faa071f48f62aaaa1f6320aaa7bd2ad2d552d05160892c14d699d38c9920d5f99546040517f2b23f85700000000000000000000000000000000000000000000000000000000815273ffffffffffffffffffffffffffffffffffffffff90911690632b23f85790610fef9085908590600401611249565b600060405180830381600087803b15801561100957600080fd5b505af115801561101d573d6000803e3d6000fd5b5050505050505050508080611031906112c3565b91505061050f565b50611046600260006110ba565b611052600360006110ba565b61105e600460006110ba565b61106a600560006110ba565b611076600660006110db565b32ff5b6005818154811061108957600080fd5b600091825260209091200154905081565b6004818154811061108957600080fd5b6003818154811061108957600080fd5b50805460008255906000526020600020908101906110d891906110f9565b50565b50805460008255906000526020600020908101906110d89190611112565b5b8082111561110e57600081556001016110fa565b5090565b8082111561110e57600061112682826110ba565b50600101611112565b600060208284031215611140578081fd5b815161114b81611315565b9392505050565b60008060408385031215611164578081fd5b823561116f81611315565b946020939093013593505050565b60006020828403121561118e578081fd5b8151801515811461114b578182fd5b6000602082840312156111ae578081fd5b5035919050565b600080604083850312156111c7578182fd5b8235915060208301356111d981611315565b809150509250929050565b600080604083850312156111f6578182fd5b50508035926020909101359150565b6020808252825182820181905260009190848201906040850190845b8181101561123d57835183529284019291840191600101611221565b50909695505050505050565b60006040820184835260206040818501528185518084526060860191508287019350845b8181101561129f57845173ffffffffffffffffffffffffffffffffffffffff168352938301939183019160010161126d565b5090979650505050505050565b6000828210156112be576112be6112e6565b500390565b600062ffffff808316818114156112dc576112dc6112e6565b6001019392505050565b7f4e487b7100000000000000000000000000000000000000000000000000000000600052601160045260246000fd5b73ffffffffffffffffffffffffffffffffffffffff811681146110d857600080fdfea264697066735822122076fe00ce0ce3c99a7871bb4498542b8f5e3b24eeaea7502b025006118e2cb71b64736f6c63430008030033",
  "linkReferences": {},
  "deployedLinkReferences": {}
}