{
  "_format": "hh-sol-artifact-1",
  "contractName": "TokenActivation",
  "sourceName": "contracts/controller-actions/TokenActivation.sol",
  "abi": [
    {
      "inputs": [
        {
          "internalType": "address",
          "name": "_roles",
          "type": "address"
        },
        {
          "internalType": "address[]",
          "name": "tokens2activate",
          "type": "address[]"
        },
        {
          "internalType": "uint256[]",
          "name": "_exposureCaps",
          "type": "uint256[]"
        },
        {
          "internalType": "bytes32[]",
          "name": "_amms",
          "type": "bytes32[]"
        },
        {
          "internalType": "address[][]",
          "name": "_liquidationTokens",
          "type": "address[][]"
        }
      ],
      "stateMutability": "nonpayable",
      "type": "constructor"
    },
    {
      "inputs": [
        {
          "internalType": "uint256",
          "name": "",
          "type": "uint256"
        }
      ],
      "name": "amms",
      "outputs": [
        {
          "internalType": "bytes32",
          "name": "",
          "type": "bytes32"
        }
      ],
      "stateMutability": "view",
      "type": "function"
    },
    {
      "inputs": [],
      "name": "execute",
      "outputs": [],
      "stateMutability": "nonpayable",
      "type": "function"
    },
    {
      "inputs": [
        {
          "internalType": "uint256",
          "name": "",
          "type": "uint256"
        }
      ],
      "name": "exposureCaps",
      "outputs": [
        {
          "internalType": "uint256",
          "name": "",
          "type": "uint256"
        }
      ],
      "stateMutability": "view",
      "type": "function"
    },
    {
      "inputs": [
        {
          "internalType": "uint256",
          "name": "",
          "type": "uint256"
        },
        {
          "internalType": "uint256",
          "name": "",
          "type": "uint256"
        }
      ],
      "name": "liquidationTokens",
      "outputs": [
        {
          "internalType": "address",
          "name": "",
          "type": "address"
        }
      ],
      "stateMutability": "view",
      "type": "function"
    },
    {
      "inputs": [
        {
          "internalType": "uint256",
          "name": "",
          "type": "uint256"
        }
      ],
      "name": "mainCharacterCache",
      "outputs": [
        {
          "internalType": "address",
          "name": "",
          "type": "address"
        }
      ],
      "stateMutability": "view",
      "type": "function"
    },
    {
      "inputs": [],
      "name": "requiredRoles",
      "outputs": [
        {
          "internalType": "uint256[]",
          "name": "required",
          "type": "uint256[]"
        }
      ],
      "stateMutability": "nonpayable",
      "type": "function"
    },
    {
      "inputs": [
        {
          "internalType": "address",
          "name": "",
          "type": "address"
        },
        {
          "internalType": "uint256",
          "name": "",
          "type": "uint256"
        }
      ],
      "name": "roleCache",
      "outputs": [
        {
          "internalType": "bool",
          "name": "",
          "type": "bool"
        }
      ],
      "stateMutability": "view",
      "type": "function"
    },
    {
      "inputs": [],
      "name": "roles",
      "outputs": [
        {
          "internalType": "contract Roles",
          "name": "",
          "type": "address"
        }
      ],
      "stateMutability": "view",
      "type": "function"
    },
    {
      "inputs": [
        {
          "internalType": "uint256",
          "name": "",
          "type": "uint256"
        }
      ],
      "name": "tokens",
      "outputs": [
        {
          "internalType": "address",
          "name": "",
          "type": "address"
        }
      ],
      "stateMutability": "view",
      "type": "function"
    },
    {
      "inputs": [
        {
          "internalType": "uint256",
          "name": "role",
          "type": "uint256"
        }
      ],
      "name": "updateMainCharacterCache",
      "outputs": [],
      "stateMutability": "nonpayable",
      "type": "function"
    },
    {
      "inputs": [
        {
          "internalType": "uint256",
          "name": "role",
          "type": "uint256"
        },
        {
          "internalType": "address",
          "name": "contr",
          "type": "address"
        }
      ],
      "name": "updateRoleCache",
      "outputs": [],
      "stateMutability": "nonpayable",
      "type": "function"
    }
  ],
  "bytecode": "0x60a06040523480156200001157600080fd5b5060405162001308380380620013088339810160408190526200003491620003cf565b846001600160a01b0381166200009b5760405162461bcd60e51b815260206004820152602260248201527f506c656173652070726f766964652076616c696420726f6c6573206164647265604482015261737360f01b606482015260840160405180910390fd5b60601b6001600160601b0319166080528351620000c09060029060208701906200010e565b508251620000d690600390602086019062000178565b508151620000ec90600490602085019062000178565b50805162000102906005906020840190620001b6565b50505050505062000568565b82805482825590600052602060002090810192821562000166579160200282015b828111156200016657825182546001600160a01b0319166001600160a01b039091161782556020909201916001909101906200012f565b506200017492915062000216565b5090565b82805482825590600052602060002090810192821562000166579160200282015b828111156200016657825182559160200191906001019062000199565b82805482825590600052602060002090810192821562000208579160200282015b82811115620002085782518051620001f79184916020909101906200010e565b5091602001919060010190620001d7565b50620001749291506200022d565b5b8082111562000174576000815560010162000217565b80821115620001745760006200024482826200024e565b506001016200022d565b50805460008255906000526020600020908101906200026e919062000216565b50565b80516001600160a01b03811681146200028957600080fd5b919050565b600082601f8301126200029f578081fd5b81516020620002b8620002b2836200052c565b620004f9565b80838252828201915082860187848660051b8901011115620002d8578586fd5b855b858110156200030157620002ee8262000271565b84529284019290840190600101620002da565b5090979650505050505050565b600082601f8301126200031f578081fd5b8151602062000332620002b2836200052c565b82815281810190858301855b85811015620003015762000358898684518b01016200028e565b845292840192908401906001016200033e565b600082601f8301126200037c578081fd5b815160206200038f620002b2836200052c565b80838252828201915082860187848660051b8901011115620003af578586fd5b855b858110156200030157815184529284019290840190600101620003b1565b600080600080600060a08688031215620003e7578081fd5b620003f28662000271565b602087810151919650906001600160401b038082111562000411578384fd5b6200041f8a838b016200028e565b9650604089015191508082111562000435578384fd5b818901915089601f83011262000449578384fd5b81516200045a620002b2826200052c565b8082825285820191508585018d878560051b88010111156200047a578788fd5b8795505b838610156200049e5780518352600195909501949186019186016200047e565b5060608c01519098509450505080831115620004b8578384fd5b620004c68a848b016200036b565b94506080890151925080831115620004dc578384fd5b5050620004ec888289016200030e565b9150509295509295909350565b604051601f8201601f191681016001600160401b038111828210171562000524576200052462000552565b604052919050565b60006001600160401b0382111562000548576200054862000552565b5060051b60200190565b634e487b7160e01b600052604160045260246000fd5b60805160601c610d74620005946000396000818160f80152818161020801526103220152610d746000f3fe608060405234801561001057600080fd5b50600436106100a95760003560e01c8063614619541161007157806361461954146101405780637a1a04df1461014857806386a8cdbc14610186578063cd28fc8f146101a7578063e9c3f77d146101b6578063f7fe95a8146101df576100a9565b8063071060a6146100ae578063276ce2c8146100c3578063392f5f64146100f3578063447d52ba1461011a5780634f64b2be1461012d575b600080fd5b6100c16100bc366004610bd7565b6101f2565b005b6100d66100d1366004610c1e565b6102b8565b6040516001600160a01b0390911681526020015b60405180910390f35b6100d67f000000000000000000000000000000000000000000000000000000000000000081565b6100c1610128366004610bef565b6102fc565b6100d661013b366004610bd7565b6103d4565b6100c16103fe565b610176610156366004610b8c565b600160209081526000928352604080842090915290825290205460ff1681565b60405190151581526020016100ea565b610199610194366004610bd7565b610a53565b6040519081526020016100ea565b60606040516100ea9190610c3f565b6100d66101c4366004610bd7565b6000602081905290815260409020546001600160a01b031681565b6101996101ed366004610bd7565b610a74565b60405163b4ed0b6d60e01b8152600481018290527f00000000000000000000000000000000000000000000000000000000000000006001600160a01b03169063b4ed0b6d9060240160206040518083038186803b15801561025257600080fd5b505afa158015610266573d6000803e3d6000fd5b505050506040513d601f19601f8201168201806040525081019061028a9190610b69565b60009182526020829052604090912080546001600160a01b0319166001600160a01b03909216919091179055565b600582815481106102c857600080fd5b9060005260206000200181815481106102e057600080fd5b6000918252602090912001546001600160a01b03169150829050565b6040516393552a3d60e01b8152600481018390526001600160a01b0382811660248301527f000000000000000000000000000000000000000000000000000000000000000016906393552a3d9060440160206040518083038186803b15801561036457600080fd5b505afa158015610378573d6000803e3d6000fd5b505050506040513d601f19601f8201168201806040525081019061039c9190610bb7565b6001600160a01b0391909116600090815260016020908152604080832094835293905291909120805460ff1916911515919091179055565b600281815481106103e457600080fd5b6000918252602090912001546001600160a01b0316905081565b60005b60025462ffffff82161015610a1f57600060028262ffffff168154811061043857634e487b7160e01b600052603260045260246000fd5b6000918252602082200154600380546001600160a01b0390921693509062ffffff851690811061047857634e487b7160e01b600052603260045260246000fd5b90600052602060002001549050600060048462ffffff16815481106104ad57634e487b7160e01b600052603260045260246000fd5b90600052602060002001549050600060058562ffffff16815481106104e257634e487b7160e01b600052603260045260246000fd5b9060005260206000200180548060200260200160405190810160405280929190818152602001828054801561054057602002820191906000526020600020905b81546001600160a01b03168152600190910190602001808311610522575b5050505050905061054f610a84565b604051633cb9c25960e11b81526001600160a01b038681166004830152919091169063797384b29060240160206040518083038186803b15801561059257600080fd5b505afa1580156105a6573d6000803e3d6000fd5b505050506040513d601f19601f820116820180604052508101906105ca9190610bb7565b1561061c5760405162461bcd60e51b815260206004820152601760248201527f546f6b656e20616c72656164792069732061637469766500000000000000000060448201526064015b60405180910390fd5b610624610a84565b604051634b86daab60e01b81526001600160a01b0386811660048301529190911690634b86daab90602401600060405180830381600087803b15801561066957600080fd5b505af115801561067d573d6000803e3d6000fd5b50505050610689610abc565b604051631d47e4a360e01b81526001600160a01b038681166004830152602482018690529190911690631d47e4a390604401600060405180830381600087803b1580156106d557600080fd5b505af11580156106e9573d6000803e3d6000fd5b505050506106f5610a84565b6040516334ad224d60e21b81526001600160a01b03868116600483015260248201869052919091169063d2b4893490604401600060405180830381600087803b15801561074157600080fd5b505af1158015610755573d6000803e3d6000fd5b50505050610761610a84565b60405163f90889c960e01b81526001600160a01b03868116600483015260006024830152919091169063f90889c990604401600060405180830381600087803b1580156107ad57600080fd5b505af11580156107c1573d6000803e3d6000fd5b505050506107cd610a84565b60405163cc4b26a360e01b81526001600160a01b038681166004830152919091169063cc4b26a390602401600060405180830381600087803b15801561081257600080fd5b505af1158015610826573d6000803e3d6000fd5b50505050836001600160a01b03168160008151811061085557634e487b7160e01b600052603260045260246000fd5b60200260200101516001600160a01b031614801561092f5750610876610abc565b6001600160a01b0316631f1cb62b6040518163ffffffff1660e01b815260040160206040518083038186803b1580156108ae57600080fd5b505afa1580156108c2573d6000803e3d6000fd5b505050506040513d601f19601f820116820180604052508101906108e69190610b69565b6001600160a01b031681600183516108fe9190610cd9565b8151811061091c57634e487b7160e01b600052603260045260246000fd5b60200260200101516001600160a01b0316145b6109a15760405162461bcd60e51b815260206004820152603860248201527f496e76616c6964206c69717569646174696f6e546f6b656e73202d2d2073686f60448201527f756c6420676f2066726f6d20746f6b656e20746f2070656700000000000000006064820152608401610613565b6109a9610abc565b6001600160a01b0316632b23f85783836040518363ffffffff1660e01b81526004016109d6929190610c83565b600060405180830381600087803b1580156109f057600080fd5b505af1158015610a04573d6000803e3d6000fd5b50505050505050508080610a1790610cf0565b915050610401565b50610a2c60026000610af4565b610a3860036000610af4565b610a4460046000610af4565b610a5060056000610b15565b32ff5b60048181548110610a6357600080fd5b600091825260209091200154905081565b60038181548110610a6357600080fd5b606660009081526020527f422cccb7cea5c0e46f340bb7b21b81debac329f72e31669c20ff0f3a05cc2b5b546001600160a01b031690565b606860009081526020527faa071f48f62aaaa1f6320aaa7bd2ad2d552d05160892c14d699d38c9920d5f99546001600160a01b031690565b5080546000825590600052602060002090810190610b129190610b33565b50565b5080546000825590600052602060002090810190610b129190610b4c565b5b80821115610b485760008155600101610b34565b5090565b80821115610b48576000610b608282610af4565b50600101610b4c565b600060208284031215610b7a578081fd5b8151610b8581610d29565b9392505050565b60008060408385031215610b9e578081fd5b8235610ba981610d29565b946020939093013593505050565b600060208284031215610bc8578081fd5b81518015158114610b85578182fd5b600060208284031215610be8578081fd5b5035919050565b60008060408385031215610c01578182fd5b823591506020830135610c1381610d29565b809150509250929050565b60008060408385031215610c30578182fd5b50508035926020909101359150565b6020808252825182820181905260009190848201906040850190845b81811015610c7757835183529284019291840191600101610c5b565b50909695505050505050565b60006040820184835260206040818501528185518084526060860191508287019350845b81811015610ccc5784516001600160a01b031683529383019391830191600101610ca7565b5090979650505050505050565b600082821015610ceb57610ceb610d13565b500390565b600062ffffff80831681811415610d0957610d09610d13565b6001019392505050565b634e487b7160e01b600052601160045260246000fd5b6001600160a01b0381168114610b1257600080fdfea264697066735822122004e8b1fdf86e221d0548c948b14156264ca7ac6cbb19b19632452d72b208f38564736f6c63430008030033",
  "linkReferences": {},
  "deployedLinkReferences": {}
}