{
  "_format": "hh-sol-artifact-1",
  "contractName": "TokenActivation",
  "sourceName": "contracts/controller-actions/TokenActivation.sol",
  "abi": [
    {
      "inputs": [
        {
          "internalType": "address",
          "name": "controller",
          "type": "address"
        },
        {
          "internalType": "address[]",
          "name": "tokens2activate",
          "type": "address[]"
        },
        {
          "internalType": "uint256[]",
          "name": "_exposureCaps",
          "type": "uint256[]"
        },
        {
          "internalType": "uint256[]",
          "name": "_lendingBuffers",
          "type": "uint256[]"
        },
        {
          "internalType": "uint256[]",
          "name": "_incentiveWeights",
          "type": "uint256[]"
        },
        {
          "internalType": "address[][]",
          "name": "_liquidationPaths",
          "type": "address[][]"
        }
      ],
      "stateMutability": "nonpayable",
      "type": "constructor"
    },
    {
      "inputs": [],
      "name": "TOKEN_ADMIN",
      "outputs": [
        {
          "internalType": "uint16",
          "name": "",
          "type": "uint16"
        }
      ],
      "stateMutability": "view",
      "type": "function"
    },
    {
      "inputs": [
        {
          "internalType": "uint256",
          "name": "",
          "type": "uint256"
        }
      ],
      "name": "_requiredRoles",
      "outputs": [
        {
          "internalType": "uint16",
          "name": "",
          "type": "uint16"
        }
      ],
      "stateMutability": "view",
      "type": "function"
    },
    {
      "inputs": [],
      "name": "execute",
      "outputs": [],
      "stateMutability": "nonpayable",
      "type": "function"
    },
    {
      "inputs": [
        {
          "internalType": "uint256",
          "name": "",
          "type": "uint256"
        }
      ],
      "name": "exposureCaps",
      "outputs": [
        {
          "internalType": "uint256",
          "name": "",
          "type": "uint256"
        }
      ],
      "stateMutability": "view",
      "type": "function"
    },
    {
      "inputs": [
        {
          "internalType": "uint256",
          "name": "",
          "type": "uint256"
        }
      ],
      "name": "extraProperties",
      "outputs": [
        {
          "internalType": "address",
          "name": "",
          "type": "address"
        }
      ],
      "stateMutability": "view",
      "type": "function"
    },
    {
      "inputs": [
        {
          "internalType": "uint256",
          "name": "",
          "type": "uint256"
        }
      ],
      "name": "incentiveWeights",
      "outputs": [
        {
          "internalType": "uint256",
          "name": "",
          "type": "uint256"
        }
      ],
      "stateMutability": "view",
      "type": "function"
    },
    {
      "inputs": [
        {
          "internalType": "uint256",
          "name": "",
          "type": "uint256"
        }
      ],
      "name": "lendingBuffers",
      "outputs": [
        {
          "internalType": "uint256",
          "name": "",
          "type": "uint256"
        }
      ],
      "stateMutability": "view",
      "type": "function"
    },
    {
      "inputs": [
        {
          "internalType": "uint256",
          "name": "",
          "type": "uint256"
        },
        {
          "internalType": "uint256",
          "name": "",
          "type": "uint256"
        }
      ],
      "name": "liquidationPaths",
      "outputs": [
        {
          "internalType": "address",
          "name": "",
          "type": "address"
        }
      ],
      "stateMutability": "view",
      "type": "function"
    },
    {
      "inputs": [
        {
          "internalType": "uint256",
          "name": "",
          "type": "uint256"
        }
      ],
      "name": "propertyCharacters",
      "outputs": [
        {
          "internalType": "uint16",
          "name": "",
          "type": "uint16"
        }
      ],
      "stateMutability": "view",
      "type": "function"
    },
    {
      "inputs": [],
      "name": "requiredProperties",
      "outputs": [
        {
          "internalType": "address[]",
          "name": "",
          "type": "address[]"
        }
      ],
      "stateMutability": "view",
      "type": "function"
    },
    {
      "inputs": [],
      "name": "requiredRoles",
      "outputs": [
        {
          "internalType": "uint16[]",
          "name": "",
          "type": "uint16[]"
        }
      ],
      "stateMutability": "view",
      "type": "function"
    },
    {
      "inputs": [],
      "name": "rightfulOwner",
      "outputs": [
        {
          "internalType": "address",
          "name": "",
          "type": "address"
        }
      ],
      "stateMutability": "view",
      "type": "function"
    },
    {
      "inputs": [
        {
          "internalType": "uint256",
          "name": "",
          "type": "uint256"
        }
      ],
      "name": "tokens",
      "outputs": [
        {
          "internalType": "address",
          "name": "",
          "type": "address"
        }
      ],
      "stateMutability": "view",
      "type": "function"
    }
  ],
  "bytecode": "0x60806040523480156200001157600080fd5b50604051620013dc380380620013dc8339810160408190526200003491620003d9565b600080546001600160a01b0319166001600160a01b0388161790558451620000649060049060208801906200011e565b5083516200007a90600590602087019062000188565b5082516200009090600690602086019062000188565b508151620000a690600790602085019062000188565b508051620000bc906008906020840190620001c6565b5050600280546001810182556000829052601081047f405787fa12a823e0f2b7631cc41b3ba8828b3321ca811111fa75cd3aa3bb5ace018054600f9092169092026101000a606d810261ffff9091021990911617905550620005359350505050565b82805482825590600052602060002090810192821562000176579160200282015b828111156200017657825182546001600160a01b0319166001600160a01b039091161782556020909201916001909101906200013f565b506200018492915062000226565b5090565b82805482825590600052602060002090810192821562000176579160200282015b8281111562000176578251825591602001919060010190620001a9565b82805482825590600052602060002090810192821562000218579160200282015b82811115620002185782518051620002079184916020909101906200011e565b5091602001919060010190620001e7565b50620001849291506200023d565b5b8082111562000184576000815560010162000227565b80821115620001845760006200025482826200025e565b506001016200023d565b50805460008255906000526020600020908101906200027e919062000226565b50565b80516001600160a01b03811681146200029957600080fd5b919050565b600082601f830112620002af578081fd5b81516020620002c8620002c283620004f9565b620004c6565b8281528181019085830183850287018401881015620002e5578586fd5b855b858110156200030e57620002fb8262000281565b84529284019290840190600101620002e7565b5090979650505050505050565b600082601f8301126200032c578081fd5b815160206200033f620002c283620004f9565b82815281810190858301855b858110156200030e5762000365898684518b01016200029e565b845292840192908401906001016200034b565b600082601f83011262000389578081fd5b815160206200039c620002c283620004f9565b8281528181019085830183850287018401881015620003b9578586fd5b855b858110156200030e57815184529284019290840190600101620003bb565b60008060008060008060c08789031215620003f2578182fd5b620003fd8762000281565b60208801519096506001600160401b03808211156200041a578384fd5b620004288a838b016200029e565b965060408901519150808211156200043e578384fd5b6200044c8a838b0162000378565b9550606089015191508082111562000462578384fd5b620004708a838b0162000378565b9450608089015191508082111562000486578384fd5b620004948a838b0162000378565b935060a0890151915080821115620004aa578283fd5b50620004b989828a016200031b565b9150509295509295509295565b604051601f8201601f191681016001600160401b0381118282101715620004f157620004f16200051f565b604052919050565b60006001600160401b038211156200051557620005156200051f565b5060209081020190565b634e487b7160e01b600052604160045260246000fd5b610e9780620005456000396000f3fe608060405234801561001057600080fd5b50600436106100df5760003560e01c806362b4b9a61161008c578063d1efebfe11610066578063d1efebfe146101af578063e17092ae146101b7578063e72d3638146101ca578063f7fe95a8146101dd576100df565b806362b4b9a614610167578063b792be6f14610187578063cd28fc8f1461019a576100df565b80634865cbc2116100bd5780634865cbc2146101425780634f64b2be1461014a578063614619541461015d576100df565b80631303fd13146100e457806316a45ab71461010d57806340eb15d114610122575b600080fd5b6100f76100f2366004610c27565b6101f0565b6040516101049190610c98565b60405180910390f35b610115610241565b6040516101049190610d05565b610135610130366004610c0f565b610250565b6040516101049190610dbd565b6100f7610288565b6100f7610158366004610c0f565b6102a4565b6101656102db565b005b61017a610175366004610c0f565b610443565b6040516101049190610dcc565b61017a610195366004610c0f565b610464565b6101a2610474565b6040516101049190610d18565b6101356104f4565b6101356101c5366004610c0f565b6104f9565b6100f76101d8366004610c0f565b610509565b61017a6101eb366004610c0f565b610519565b6008828154811061020057600080fd5b90600052602060002001818154811061021857600080fd5b60009182526020909120015473ffffffffffffffffffffffffffffffffffffffff169150829050565b606061024b610529565b905090565b6002818154811061026057600080fd5b9060005260206000209060109182820401919006600202915054906101000a900461ffff1681565b60005473ffffffffffffffffffffffffffffffffffffffff1681565b600481815481106102b457600080fd5b60009182526020909120015473ffffffffffffffffffffffffffffffffffffffff16905081565b60005473ffffffffffffffffffffffffffffffffffffffff163314610335576040517f08c379a000000000000000000000000000000000000000000000000000000000815260040161032c90610d60565b60405180910390fd5b61033d61081c565b6000610347610529565b905060005b8062ffffff168251111561043f57818162ffffff1681518110610398577f4e487b7100000000000000000000000000000000000000000000000000000000600052603260045260246000fd5b60209081029190910101516000546040517ff2fde38b00000000000000000000000000000000000000000000000000000000815273ffffffffffffffffffffffffffffffffffffffff9283169263f2fde38b926103fa92911690600401610c98565b600060405180830381600087803b15801561041457600080fd5b505af1158015610428573d6000803e3d6000fd5b50505050808061043790610ded565b91505061034c565b5032ff5b6007818154811061045357600080fd5b600091825260209091200154905081565b6006818154811061045357600080fd5b606060018054806020026020016040519081016040528092919081815260200182805480156104ea57602002820191906000526020600020906000905b82829054906101000a900461ffff1661ffff16815260200190600201906020826001010492830192600103820291508084116104b15790505b5050505050905090565b606d81565b6001818154811061026057600080fd5b600381815481106102b457600080fd5b6005818154811061045357600080fd5b60025460035460609161053b91610dd5565b67ffffffffffffffff81111561057a577f4e487b7100000000000000000000000000000000000000000000000000000000600052604160045260246000fd5b6040519080825280602002602001820160405280156105a3578160200160208202803683370190505b50905060005b60025462ffffff8216101561071f576105c0610b4f565b73ffffffffffffffffffffffffffffffffffffffff16633c9c8f9c60028362ffffff168154811061061a577f4e487b7100000000000000000000000000000000000000000000000000000000600052603260045260246000fd5b90600052602060002090601091828204019190066002029054906101000a900461ffff166040518263ffffffff1660e01b815260040161065a9190610dbd565b60206040518083038186803b15801561067257600080fd5b505afa158015610686573d6000803e3d6000fd5b505050506040513d601f19601f820116820180604052508101906106aa9190610bec565b828262ffffff16815181106106e8577f4e487b7100000000000000000000000000000000000000000000000000000000600052603260045260246000fd5b73ffffffffffffffffffffffffffffffffffffffff909216602092830291909101909101528061071781610ded565b9150506105a9565b5060005b60035462ffffff821610156108185760038162ffffff1681548110610771577f4e487b7100000000000000000000000000000000000000000000000000000000600052603260045260246000fd5b60009182526020909120015460025473ffffffffffffffffffffffffffffffffffffffff9091169083906107aa9062ffffff8516610dd5565b815181106107e1577f4e487b7100000000000000000000000000000000000000000000000000000000600052603260045260246000fd5b73ffffffffffffffffffffffffffffffffffffffff909216602092830291909101909101528061081081610ded565b915050610723565b5090565b60005b60045462ffffff82161015610b4c57600060048262ffffff168154811061086f577f4e487b7100000000000000000000000000000000000000000000000000000000600052603260045260246000fd5b60009182526020822001546005805473ffffffffffffffffffffffffffffffffffffffff90921693509062ffffff85169081106108d5577f4e487b7100000000000000000000000000000000000000000000000000000000600052603260045260246000fd5b90600052602060002001549050600060068462ffffff1681548110610923577f4e487b7100000000000000000000000000000000000000000000000000000000600052603260045260246000fd5b90600052602060002001549050600060078562ffffff1681548110610971577f4e487b7100000000000000000000000000000000000000000000000000000000600052603260045260246000fd5b90600052602060002001549050600060088662ffffff16815481106109bf577f4e487b7100000000000000000000000000000000000000000000000000000000600052603260045260246000fd5b90600052602060002001805480602002602001604051908101604052809291908181526020018280548015610a2a57602002820191906000526020600020905b815473ffffffffffffffffffffffffffffffffffffffff1681526001909101906020018083116109ff575b50505050509050610a39610b4f565b73ffffffffffffffffffffffffffffffffffffffff16633c9c8f9c606d6040518263ffffffff1660e01b8152600401610a729190610dbd565b60206040518083038186803b158015610a8a57600080fd5b505afa158015610a9e573d6000803e3d6000fd5b505050506040513d601f19601f82011682018060405250810190610ac29190610bec565b73ffffffffffffffffffffffffffffffffffffffff1663b72b650186868686866040518663ffffffff1660e01b8152600401610b02959493929190610cb9565b600060405180830381600087803b158015610b1c57600080fd5b505af1158015610b30573d6000803e3d6000fd5b5050505050505050508080610b4490610ded565b91505061081f565b50565b60008060009054906101000a900473ffffffffffffffffffffffffffffffffffffffff1673ffffffffffffffffffffffffffffffffffffffff1663392f5f646040518163ffffffff1660e01b815260040160206040518083038186803b158015610bb857600080fd5b505afa158015610bcc573d6000803e3d6000fd5b505050506040513d601f19601f8201168201806040525081019061024b91905b600060208284031215610bfd578081fd5b8151610c0881610e3f565b9392505050565b600060208284031215610c20578081fd5b5035919050565b60008060408385031215610c39578081fd5b50508035926020909101359150565b6000815180845260208085019450808401835b83811015610c8d57815173ffffffffffffffffffffffffffffffffffffffff1687529582019590820190600101610c5b565b509495945050505050565b73ffffffffffffffffffffffffffffffffffffffff91909116815260200190565b600073ffffffffffffffffffffffffffffffffffffffff8716825285602083015284604083015283606083015260a06080830152610cfa60a0830184610c48565b979650505050505050565b600060208252610c086020830184610c48565b6020808252825182820181905260009190848201906040850190845b81811015610d5457835161ffff1683529284019291840191600101610d34565b50909695505050505050565b60208082526030908201527f4f6e6c7920726967687466756c206f776e657220697320616c6c6f776564207460408201527f6f2063616c6c2065786563757465282900000000000000000000000000000000606082015260800190565b61ffff91909116815260200190565b90815260200190565b60008219821115610de857610de8610e10565b500190565b600062ffffff80831681811415610e0657610e06610e10565b6001019392505050565b7f4e487b7100000000000000000000000000000000000000000000000000000000600052601160045260246000fd5b73ffffffffffffffffffffffffffffffffffffffff81168114610b4c57600080fdfea26469706673582212208b369f4c3da371c5f0ca2a95cd35433d7347b543612adad8e15a8e57126e51dd64736f6c63430008010033",
  "linkReferences": {},
  "deployedLinkReferences": {}
}