{
  "_format": "hh-sol-artifact-1",
  "contractName": "TokenActivation",
  "sourceName": "contracts/controller-actions/TokenActivation.sol",
  "abi": [
    {
      "inputs": [
        {
          "internalType": "address",
          "name": "_roles",
          "type": "address"
        },
        {
          "internalType": "address[]",
          "name": "tokens2activate",
          "type": "address[]"
        },
        {
          "internalType": "uint256[]",
          "name": "_exposureCaps",
          "type": "uint256[]"
        },
        {
          "internalType": "bytes32[]",
          "name": "_amms",
          "type": "bytes32[]"
        },
        {
          "internalType": "address[][]",
          "name": "_liquidationTokens",
          "type": "address[][]"
        },
        {
          "internalType": "address[]",
          "name": "_oracleContracts",
          "type": "address[]"
        }
      ],
      "stateMutability": "nonpayable",
      "type": "constructor"
    },
    {
      "inputs": [
        {
          "internalType": "uint256",
          "name": "",
          "type": "uint256"
        }
      ],
      "name": "amms",
      "outputs": [
        {
          "internalType": "bytes32",
          "name": "",
          "type": "bytes32"
        }
      ],
      "stateMutability": "view",
      "type": "function"
    },
    {
      "inputs": [],
      "name": "execute",
      "outputs": [],
      "stateMutability": "nonpayable",
      "type": "function"
    },
    {
      "inputs": [
        {
          "internalType": "uint256",
          "name": "",
          "type": "uint256"
        }
      ],
      "name": "exposureCaps",
      "outputs": [
        {
          "internalType": "uint256",
          "name": "",
          "type": "uint256"
        }
      ],
      "stateMutability": "view",
      "type": "function"
    },
    {
      "inputs": [
        {
          "internalType": "uint256",
          "name": "",
          "type": "uint256"
        },
        {
          "internalType": "uint256",
          "name": "",
          "type": "uint256"
        }
      ],
      "name": "liquidationTokens",
      "outputs": [
        {
          "internalType": "address",
          "name": "",
          "type": "address"
        }
      ],
      "stateMutability": "view",
      "type": "function"
    },
    {
      "inputs": [
        {
          "internalType": "uint256",
          "name": "",
          "type": "uint256"
        }
      ],
      "name": "mainCharacterCache",
      "outputs": [
        {
          "internalType": "address",
          "name": "",
          "type": "address"
        }
      ],
      "stateMutability": "view",
      "type": "function"
    },
    {
      "inputs": [
        {
          "internalType": "uint256",
          "name": "",
          "type": "uint256"
        }
      ],
      "name": "oracleContracts",
      "outputs": [
        {
          "internalType": "address",
          "name": "",
          "type": "address"
        }
      ],
      "stateMutability": "view",
      "type": "function"
    },
    {
      "inputs": [],
      "name": "requiredRoles",
      "outputs": [
        {
          "internalType": "uint256[]",
          "name": "required",
          "type": "uint256[]"
        }
      ],
      "stateMutability": "nonpayable",
      "type": "function"
    },
    {
      "inputs": [
        {
          "internalType": "address",
          "name": "",
          "type": "address"
        },
        {
          "internalType": "uint256",
          "name": "",
          "type": "uint256"
        }
      ],
      "name": "roleCache",
      "outputs": [
        {
          "internalType": "bool",
          "name": "",
          "type": "bool"
        }
      ],
      "stateMutability": "view",
      "type": "function"
    },
    {
      "inputs": [],
      "name": "roles",
      "outputs": [
        {
          "internalType": "contract Roles",
          "name": "",
          "type": "address"
        }
      ],
      "stateMutability": "view",
      "type": "function"
    },
    {
      "inputs": [
        {
          "internalType": "uint256",
          "name": "",
          "type": "uint256"
        }
      ],
      "name": "tokens",
      "outputs": [
        {
          "internalType": "address",
          "name": "",
          "type": "address"
        }
      ],
      "stateMutability": "view",
      "type": "function"
    },
    {
      "inputs": [
        {
          "internalType": "uint256",
          "name": "role",
          "type": "uint256"
        }
      ],
      "name": "updateMainCharacterCache",
      "outputs": [],
      "stateMutability": "nonpayable",
      "type": "function"
    },
    {
      "inputs": [
        {
          "internalType": "uint256",
          "name": "role",
          "type": "uint256"
        },
        {
          "internalType": "address",
          "name": "contr",
          "type": "address"
        }
      ],
      "name": "updateRoleCache",
      "outputs": [],
      "stateMutability": "nonpayable",
      "type": "function"
    }
  ],
  "bytecode": "0x60a06040523480156200001157600080fd5b50604051620014b1380380620014b18339810160408190526200003491620003e6565b856001600160a01b0381166200009b5760405162461bcd60e51b815260206004820152602260248201527f506c656173652070726f766964652076616c696420726f6c6573206164647265604482015261737360f01b606482015260840160405180910390fd5b60601b6001600160601b0319166080528451620000c090600290602088019062000125565b508351620000d69060039060208701906200018f565b508251620000ec9060059060208601906200018f565b50815162000102906006906020850190620001cd565b5080516200011890600490602084019062000125565b5050505050505062000542565b8280548282559060005260206000209081019282156200017d579160200282015b828111156200017d57825182546001600160a01b0319166001600160a01b0390911617825560209092019160019091019062000146565b506200018b9291506200022d565b5090565b8280548282559060005260206000209081019282156200017d579160200282015b828111156200017d578251825591602001919060010190620001b0565b8280548282559060005260206000209081019282156200021f579160200282015b828111156200021f57825180516200020e91849160209091019062000125565b5091602001919060010190620001ee565b506200018b92915062000244565b5b808211156200018b57600081556001016200022e565b808211156200018b5760006200025b828262000265565b5060010162000244565b50805460008255906000526020600020908101906200028591906200022d565b50565b80516001600160a01b0381168114620002a057600080fd5b919050565b600082601f830112620002b6578081fd5b81516020620002cf620002c98362000506565b620004d3565b80838252828201915082860187848660051b8901011115620002ef578586fd5b855b858110156200031857620003058262000288565b84529284019290840190600101620002f1565b5090979650505050505050565b600082601f83011262000336578081fd5b8151602062000349620002c98362000506565b82815281810190858301855b8581101562000318576200036f898684518b0101620002a5565b8452928401929084019060010162000355565b600082601f83011262000393578081fd5b81516020620003a6620002c98362000506565b80838252828201915082860187848660051b8901011115620003c6578586fd5b855b858110156200031857815184529284019290840190600101620003c8565b60008060008060008060c08789031215620003ff578182fd5b6200040a8762000288565b60208801519096506001600160401b038082111562000427578384fd5b620004358a838b01620002a5565b965060408901519150808211156200044b578384fd5b620004598a838b0162000382565b955060608901519150808211156200046f578384fd5b6200047d8a838b0162000382565b9450608089015191508082111562000493578384fd5b620004a18a838b0162000325565b935060a0890151915080821115620004b7578283fd5b50620004c689828a01620002a5565b9150509295509295509295565b604051601f8201601f191681016001600160401b0381118282101715620004fe57620004fe6200052c565b604052919050565b60006001600160401b038211156200052257620005226200052c565b5060051b60200190565b634e487b7160e01b600052604160045260246000fd5b60805160601c610f426200056f600039600081816101030152818161022601526103400152610f426000f3fe608060405234801561001057600080fd5b50600436106100b45760003560e01c80637a1a04df116100715780637a1a04df1461015357806386a8cdbc14610191578063cd28fc8f146101b2578063dc2f3709146101c1578063e9c3f77d146101d4578063f7fe95a8146101fd576100b4565b8063071060a6146100b9578063276ce2c8146100ce578063392f5f64146100fe578063447d52ba146101255780634f64b2be14610138578063614619541461014b575b600080fd5b6100cc6100c7366004610da5565b610210565b005b6100e16100dc366004610dec565b6102d6565b6040516001600160a01b0390911681526020015b60405180910390f35b6100e17f000000000000000000000000000000000000000000000000000000000000000081565b6100cc610133366004610dbd565b61031a565b6100e1610146366004610da5565b6103f2565b6100cc61041c565b610181610161366004610d5a565b600160209081526000928352604080842090915290825290205460ff1681565b60405190151581526020016100f5565b6101a461019f366004610da5565b610c11565b6040519081526020016100f5565b60606040516100f59190610e0d565b6100e16101cf366004610da5565b610c32565b6100e16101e2366004610da5565b6000602081905290815260409020546001600160a01b031681565b6101a461020b366004610da5565b610c42565b60405163b4ed0b6d60e01b8152600481018290527f00000000000000000000000000000000000000000000000000000000000000006001600160a01b03169063b4ed0b6d9060240160206040518083038186803b15801561027057600080fd5b505afa158015610284573d6000803e3d6000fd5b505050506040513d601f19601f820116820180604052508101906102a89190610d37565b60009182526020829052604090912080546001600160a01b0319166001600160a01b03909216919091179055565b600682815481106102e657600080fd5b9060005260206000200181815481106102fe57600080fd5b6000918252602090912001546001600160a01b03169150829050565b6040516393552a3d60e01b8152600481018390526001600160a01b0382811660248301527f000000000000000000000000000000000000000000000000000000000000000016906393552a3d9060440160206040518083038186803b15801561038257600080fd5b505afa158015610396573d6000803e3d6000fd5b505050506040513d601f19601f820116820180604052508101906103ba9190610d85565b6001600160a01b0391909116600090815260016020908152604080832094835293905291909120805460ff1916911515919091179055565b6002818154811061040257600080fd5b6000918252602090912001546001600160a01b0316905081565b60005b60025462ffffff82161015610bdd57600060028262ffffff168154811061045657634e487b7160e01b600052603260045260246000fd5b6000918252602082200154600380546001600160a01b0390921693509062ffffff851690811061049657634e487b7160e01b600052603260045260246000fd5b90600052602060002001549050600060058462ffffff16815481106104cb57634e487b7160e01b600052603260045260246000fd5b90600052602060002001549050600060068562ffffff168154811061050057634e487b7160e01b600052603260045260246000fd5b9060005260206000200180548060200260200160405190810160405280929190818152602001828054801561055e57602002820191906000526020600020905b81546001600160a01b03168152600190910190602001808311610540575b5050505050905061056d610c52565b604051633cb9c25960e11b81526001600160a01b038681166004830152919091169063797384b29060240160206040518083038186803b1580156105b057600080fd5b505afa1580156105c4573d6000803e3d6000fd5b505050506040513d601f19601f820116820180604052508101906105e89190610d85565b1561063a5760405162461bcd60e51b815260206004820152601760248201527f546f6b656e20616c72656164792069732061637469766500000000000000000060448201526064015b60405180910390fd5b610642610c52565b604051634b86daab60e01b81526001600160a01b0386811660048301529190911690634b86daab90602401600060405180830381600087803b15801561068757600080fd5b505af115801561069b573d6000803e3d6000fd5b505050506106a7610c8a565b604051631d47e4a360e01b81526001600160a01b038681166004830152602482018690529190911690631d47e4a390604401600060405180830381600087803b1580156106f357600080fd5b505af1158015610707573d6000803e3d6000fd5b50505050610713610c52565b6040516334ad224d60e21b81526001600160a01b03868116600483015260248201869052919091169063d2b4893490604401600060405180830381600087803b15801561075f57600080fd5b505af1158015610773573d6000803e3d6000fd5b5050505061077f610c52565b60405163f90889c960e01b81526001600160a01b03868116600483015260006024830152919091169063f90889c990604401600060405180830381600087803b1580156107cb57600080fd5b505af11580156107df573d6000803e3d6000fd5b505050506107eb610c52565b60405163cc4b26a360e01b81526001600160a01b038681166004830152919091169063cc4b26a390602401600060405180830381600087803b15801561083057600080fd5b505af1158015610844573d6000803e3d6000fd5b505050508051600014806109585750836001600160a01b03168160008151811061087e57634e487b7160e01b600052603260045260246000fd5b60200260200101516001600160a01b0316148015610958575061089f610c8a565b6001600160a01b0316631f1cb62b6040518163ffffffff1660e01b815260040160206040518083038186803b1580156108d757600080fd5b505afa1580156108eb573d6000803e3d6000fd5b505050506040513d601f19601f8201168201806040525081019061090f9190610d37565b6001600160a01b031681600183516109279190610ea7565b8151811061094557634e487b7160e01b600052603260045260246000fd5b60200260200101516001600160a01b0316145b6109ca5760405162461bcd60e51b815260206004820152603860248201527f496e76616c6964206c69717569646174696f6e546f6b656e73202d2d2073686f60448201527f756c6420676f2066726f6d20746f6b656e20746f2070656700000000000000006064820152608401610631565b60006001600160a01b031660048662ffffff16815481106109fb57634e487b7160e01b600052603260045260246000fd5b6000918252602090912001546001600160a01b031614610b5e57805115610ab05760048562ffffff1681548110610a4257634e487b7160e01b600052603260045260246000fd5b600091825260209091200154604051632b23f85760e01b81526001600160a01b0390911690632b23f85790610a7d9085908590600401610e51565b600060405180830381600087803b158015610a9757600080fd5b505af1158015610aab573d6000803e3d6000fd5b505050505b610ab8610c8a565b6001600160a01b03166367a74ddc8560048862ffffff1681548110610aed57634e487b7160e01b600052603260045260246000fd5b60009182526020909120015460405160e084901b6001600160e01b03191681526001600160a01b03928316600482015291166024820152604401600060405180830381600087803b158015610b4157600080fd5b505af1158015610b55573d6000803e3d6000fd5b50505050610bc6565b610b66610c8a565b6001600160a01b0316632b23f85783836040518363ffffffff1660e01b8152600401610b93929190610e51565b600060405180830381600087803b158015610bad57600080fd5b505af1158015610bc1573d6000803e3d6000fd5b505050505b505050508080610bd590610ebe565b91505061041f565b50610bea60026000610cc2565b610bf660036000610cc2565b610c0260056000610cc2565b610c0e60066000610ce3565b32ff5b60058181548110610c2157600080fd5b600091825260209091200154905081565b6004818154811061040257600080fd5b60038181548110610c2157600080fd5b606660009081526020527f422cccb7cea5c0e46f340bb7b21b81debac329f72e31669c20ff0f3a05cc2b5b546001600160a01b031690565b606860009081526020527faa071f48f62aaaa1f6320aaa7bd2ad2d552d05160892c14d699d38c9920d5f99546001600160a01b031690565b5080546000825590600052602060002090810190610ce09190610d01565b50565b5080546000825590600052602060002090810190610ce09190610d1a565b5b80821115610d165760008155600101610d02565b5090565b80821115610d16576000610d2e8282610cc2565b50600101610d1a565b600060208284031215610d48578081fd5b8151610d5381610ef7565b9392505050565b60008060408385031215610d6c578081fd5b8235610d7781610ef7565b946020939093013593505050565b600060208284031215610d96578081fd5b81518015158114610d53578182fd5b600060208284031215610db6578081fd5b5035919050565b60008060408385031215610dcf578182fd5b823591506020830135610de181610ef7565b809150509250929050565b60008060408385031215610dfe578182fd5b50508035926020909101359150565b6020808252825182820181905260009190848201906040850190845b81811015610e4557835183529284019291840191600101610e29565b50909695505050505050565b60006040820184835260206040818501528185518084526060860191508287019350845b81811015610e9a5784516001600160a01b031683529383019391830191600101610e75565b5090979650505050505050565b600082821015610eb957610eb9610ee1565b500390565b600062ffffff80831681811415610ed757610ed7610ee1565b6001019392505050565b634e487b7160e01b600052601160045260246000fd5b6001600160a01b0381168114610ce057600080fdfea2646970667358221220237583b665b44cadddfd0eef7c9e24bcc9307acd9b8c546582bdc0af36ff0fbd64736f6c63430008030033",
  "linkReferences": {},
  "deployedLinkReferences": {}
}