{
  "_format": "hh-sol-artifact-1",
  "contractName": "TokenActivation",
  "sourceName": "contracts/controller-actions/TokenActivation.sol",
  "abi": [
    {
      "inputs": [
        {
          "internalType": "address",
          "name": "_roles",
          "type": "address"
        },
        {
          "internalType": "address[]",
          "name": "tokens2activate",
          "type": "address[]"
        },
        {
          "internalType": "uint256[]",
          "name": "_exposureCaps",
          "type": "uint256[]"
        },
        {
          "internalType": "uint256[]",
          "name": "_lendingBuffers",
          "type": "uint256[]"
        },
        {
          "internalType": "uint256[]",
          "name": "_incentiveWeights",
          "type": "uint256[]"
        },
        {
          "internalType": "address[][]",
          "name": "_liquidationPairs",
          "type": "address[][]"
        },
        {
          "internalType": "address[][]",
          "name": "_liquidationTokens",
          "type": "address[][]"
        }
      ],
      "stateMutability": "nonpayable",
      "type": "constructor"
    },
    {
      "inputs": [],
      "name": "execute",
      "outputs": [],
      "stateMutability": "nonpayable",
      "type": "function"
    },
    {
      "inputs": [
        {
          "internalType": "uint256",
          "name": "",
          "type": "uint256"
        }
      ],
      "name": "exposureCaps",
      "outputs": [
        {
          "internalType": "uint256",
          "name": "",
          "type": "uint256"
        }
      ],
      "stateMutability": "view",
      "type": "function"
    },
    {
      "inputs": [
        {
          "internalType": "uint256",
          "name": "",
          "type": "uint256"
        }
      ],
      "name": "incentiveWeights",
      "outputs": [
        {
          "internalType": "uint256",
          "name": "",
          "type": "uint256"
        }
      ],
      "stateMutability": "view",
      "type": "function"
    },
    {
      "inputs": [
        {
          "internalType": "uint256",
          "name": "",
          "type": "uint256"
        }
      ],
      "name": "lendingBuffers",
      "outputs": [
        {
          "internalType": "uint256",
          "name": "",
          "type": "uint256"
        }
      ],
      "stateMutability": "view",
      "type": "function"
    },
    {
      "inputs": [
        {
          "internalType": "uint256",
          "name": "",
          "type": "uint256"
        },
        {
          "internalType": "uint256",
          "name": "",
          "type": "uint256"
        }
      ],
      "name": "liquidationPairs",
      "outputs": [
        {
          "internalType": "address",
          "name": "",
          "type": "address"
        }
      ],
      "stateMutability": "view",
      "type": "function"
    },
    {
      "inputs": [
        {
          "internalType": "uint256",
          "name": "",
          "type": "uint256"
        },
        {
          "internalType": "uint256",
          "name": "",
          "type": "uint256"
        }
      ],
      "name": "liquidationTokens",
      "outputs": [
        {
          "internalType": "address",
          "name": "",
          "type": "address"
        }
      ],
      "stateMutability": "view",
      "type": "function"
    },
    {
      "inputs": [
        {
          "internalType": "uint256",
          "name": "",
          "type": "uint256"
        }
      ],
      "name": "mainCharacterCache",
      "outputs": [
        {
          "internalType": "address",
          "name": "",
          "type": "address"
        }
      ],
      "stateMutability": "view",
      "type": "function"
    },
    {
      "inputs": [],
      "name": "requiredRoles",
      "outputs": [
        {
          "internalType": "uint256[]",
          "name": "required",
          "type": "uint256[]"
        }
      ],
      "stateMutability": "nonpayable",
      "type": "function"
    },
    {
      "inputs": [
        {
          "internalType": "address",
          "name": "",
          "type": "address"
        },
        {
          "internalType": "uint256",
          "name": "",
          "type": "uint256"
        }
      ],
      "name": "roleCache",
      "outputs": [
        {
          "internalType": "bool",
          "name": "",
          "type": "bool"
        }
      ],
      "stateMutability": "view",
      "type": "function"
    },
    {
      "inputs": [],
      "name": "roles",
      "outputs": [
        {
          "internalType": "contract Roles",
          "name": "",
          "type": "address"
        }
      ],
      "stateMutability": "view",
      "type": "function"
    },
    {
      "inputs": [
        {
          "internalType": "uint256",
          "name": "",
          "type": "uint256"
        }
      ],
      "name": "tokens",
      "outputs": [
        {
          "internalType": "address",
          "name": "",
          "type": "address"
        }
      ],
      "stateMutability": "view",
      "type": "function"
    },
    {
      "inputs": [
        {
          "internalType": "uint256",
          "name": "role",
          "type": "uint256"
        }
      ],
      "name": "updateMainCharacterCache",
      "outputs": [],
      "stateMutability": "nonpayable",
      "type": "function"
    },
    {
      "inputs": [
        {
          "internalType": "uint256",
          "name": "role",
          "type": "uint256"
        },
        {
          "internalType": "address",
          "name": "contr",
          "type": "address"
        }
      ],
      "name": "updateRoleCache",
      "outputs": [],
      "stateMutability": "nonpayable",
      "type": "function"
    }
  ],
  "bytecode": "0x60a06040523480156200001157600080fd5b5060405162001137380380620011378339810160408190526200003491620003fd565b866001600160a01b0381166200009b5760405162461bcd60e51b815260206004820152602260248201527f506c656173652070726f766964652076616c696420726f6c6573206164647265604482015261737360f01b606482015260840160405180910390fd5b60601b6001600160601b0319166080528551620000c09060029060208901906200013c565b508451620000d6906003906020880190620001a6565b508351620000ec906004906020870190620001a6565b50825162000102906005906020860190620001a6565b50815162000118906006906020850190620001e4565b5080516200012e906007906020840190620001e4565b505050505050505062000581565b82805482825590600052602060002090810192821562000194579160200282015b828111156200019457825182546001600160a01b0319166001600160a01b039091161782556020909201916001909101906200015d565b50620001a292915062000244565b5090565b82805482825590600052602060002090810192821562000194579160200282015b8281111562000194578251825591602001919060010190620001c7565b82805482825590600052602060002090810192821562000236579160200282015b82811115620002365782518051620002259184916020909101906200013c565b509160200191906001019062000205565b50620001a29291506200025b565b5b80821115620001a2576000815560010162000245565b80821115620001a25760006200027282826200027c565b506001016200025b565b50805460008255906000526020600020908101906200029c919062000244565b50565b80516001600160a01b0381168114620002b757600080fd5b919050565b600082601f830112620002cd578081fd5b81516020620002e6620002e08362000545565b62000512565b80838252828201915082860187848660051b890101111562000306578586fd5b855b858110156200032f576200031c826200029f565b8452928401929084019060010162000308565b5090979650505050505050565b600082601f8301126200034d578081fd5b8151602062000360620002e08362000545565b82815281810190858301855b858110156200032f5762000386898684518b0101620002bc565b845292840192908401906001016200036c565b600082601f830112620003aa578081fd5b81516020620003bd620002e08362000545565b80838252828201915082860187848660051b8901011115620003dd578586fd5b855b858110156200032f57815184529284019290840190600101620003df565b600080600080600080600060e0888a03121562000418578283fd5b62000423886200029f565b60208901519097506001600160401b038082111562000440578485fd5b6200044e8b838c01620002bc565b975060408a015191508082111562000464578485fd5b620004728b838c0162000399565b965060608a015191508082111562000488578485fd5b620004968b838c0162000399565b955060808a0151915080821115620004ac578485fd5b620004ba8b838c0162000399565b945060a08a0151915080821115620004d0578384fd5b620004de8b838c016200033c565b935060c08a0151915080821115620004f4578283fd5b50620005038a828b016200033c565b91505092959891949750929550565b604051601f8201601f191681016001600160401b03811182821017156200053d576200053d6200056b565b604052919050565b60006001600160401b038211156200056157620005616200056b565b5060051b60200190565b634e487b7160e01b600052604160045260246000fd5b60805160601c610b89620005ae6000396000818161013b0152818161029701526104160152610b896000f3fe608060405234801561001057600080fd5b50600436106100df5760003560e01c806362b4b9a61161008c578063bfb2c55711610066578063bfb2c557146101fd578063cd28fc8f14610210578063e9c3f77d1461021f578063f7fe95a814610255576100df565b806362b4b9a61461018b5780637a1a04df146101ac578063b792be6f146101ea576100df565b8063447d52ba116100bd578063447d52ba1461015d5780634f64b2be146101705780636146195414610183576100df565b8063071060a6146100e4578063276ce2c8146100f9578063392f5f6414610136575b600080fd5b6100f76100f236600461098a565b610268565b005b61010c6101073660046109d1565b610379565b60405173ffffffffffffffffffffffffffffffffffffffff90911681526020015b60405180910390f35b61010c7f000000000000000000000000000000000000000000000000000000000000000081565b6100f761016b3660046109a2565b6103ca565b61010c61017e36600461098a565b6104f3565b6100f761052a565b61019e61019936600461098a565b6108cb565b60405190815260200161012d565b6101da6101ba36600461093f565b600160209081526000928352604080842090915290825290205460ff1681565b604051901515815260200161012d565b61019e6101f836600461098a565b6108ec565b61010c61020b3660046109d1565b6108fc565b606060405161012d9190610aa2565b61010c61022d36600461098a565b60006020819052908152604090205473ffffffffffffffffffffffffffffffffffffffff1681565b61019e61026336600461098a565b61090c565b6040517fb4ed0b6d000000000000000000000000000000000000000000000000000000008152600481018290527f000000000000000000000000000000000000000000000000000000000000000073ffffffffffffffffffffffffffffffffffffffff169063b4ed0b6d9060240160206040518083038186803b1580156102ee57600080fd5b505afa158015610302573d6000803e3d6000fd5b505050506040513d601f19601f82011682018060405250810190610326919061091c565b60009182526020829052604090912080547fffffffffffffffffffffffff00000000000000000000000000000000000000001673ffffffffffffffffffffffffffffffffffffffff909216919091179055565b6007828154811061038957600080fd5b9060005260206000200181815481106103a157600080fd5b60009182526020909120015473ffffffffffffffffffffffffffffffffffffffff169150829050565b6040517f93552a3d0000000000000000000000000000000000000000000000000000000081526004810183905273ffffffffffffffffffffffffffffffffffffffff82811660248301527f000000000000000000000000000000000000000000000000000000000000000016906393552a3d9060440160206040518083038186803b15801561045857600080fd5b505afa15801561046c573d6000803e3d6000fd5b505050506040513d601f19601f82011682018060405250810190610490919061096a565b73ffffffffffffffffffffffffffffffffffffffff9190911660009081526001602090815260408083209483529390529190912080547fffffffffffffffffffffffffffffffffffffffffffffffffffffffffffffff0016911515919091179055565b6002818154811061050357600080fd5b60009182526020909120015473ffffffffffffffffffffffffffffffffffffffff16905081565b60005b60025462ffffff821610156108c757600060028262ffffff168154811061057d577f4e487b7100000000000000000000000000000000000000000000000000000000600052603260045260246000fd5b60009182526020822001546003805473ffffffffffffffffffffffffffffffffffffffff90921693509062ffffff85169081106105e3577f4e487b7100000000000000000000000000000000000000000000000000000000600052603260045260246000fd5b90600052602060002001549050600060048462ffffff1681548110610631577f4e487b7100000000000000000000000000000000000000000000000000000000600052603260045260246000fd5b90600052602060002001549050600060058562ffffff168154811061067f577f4e487b7100000000000000000000000000000000000000000000000000000000600052603260045260246000fd5b90600052602060002001549050600060068662ffffff16815481106106cd577f4e487b7100000000000000000000000000000000000000000000000000000000600052603260045260246000fd5b9060005260206000200180548060200260200160405190810160405280929190818152602001828054801561073857602002820191906000526020600020905b815473ffffffffffffffffffffffffffffffffffffffff16815260019091019060200180831161070d575b50505050509050600060078762ffffff1681548110610780577f4e487b7100000000000000000000000000000000000000000000000000000000600052603260045260246000fd5b906000526020600020018054806020026020016040519081016040528092919081815260200182805480156107eb57602002820191906000526020600020905b815473ffffffffffffffffffffffffffffffffffffffff1681526001909101906020018083116107c0575b5050505050905061083a606d60009081526020527faa31d2a33b224bee3888830916f2f56f41bb5a40ed8a3273c6e72e6992d6223a5473ffffffffffffffffffffffffffffffffffffffff1690565b73ffffffffffffffffffffffffffffffffffffffff1663bf5313528787878787876040518763ffffffff1660e01b815260040161087c96959493929190610a42565b600060405180830381600087803b15801561089657600080fd5b505af11580156108aa573d6000803e3d6000fd5b5050505050505050505080806108bf90610ae6565b91505061052d565b5032ff5b600581815481106108db57600080fd5b600091825260209091200154905081565b600481815481106108db57600080fd5b6006828154811061038957600080fd5b600381815481106108db57600080fd5b60006020828403121561092d578081fd5b815161093881610b2e565b9392505050565b60008060408385031215610951578081fd5b823561095c81610b2e565b946020939093013593505050565b60006020828403121561097b578081fd5b81518015158114610938578182fd5b60006020828403121561099b578081fd5b5035919050565b600080604083850312156109b4578182fd5b8235915060208301356109c681610b2e565b809150509250929050565b600080604083850312156109e3578182fd5b50508035926020909101359150565b6000815180845260208085019450808401835b83811015610a3757815173ffffffffffffffffffffffffffffffffffffffff1687529582019590820190600101610a05565b509495945050505050565b600073ffffffffffffffffffffffffffffffffffffffff8816825286602083015285604083015284606083015260c06080830152610a8360c08301856109f2565b82810360a0840152610a9581856109f2565b9998505050505050505050565b6020808252825182820181905260009190848201906040850190845b81811015610ada57835183529284019291840191600101610abe565b50909695505050505050565b600062ffffff80831681811415610b24577f4e487b710000000000000000000000000000000000000000000000000000000083526011600452602483fd5b6001019392505050565b73ffffffffffffffffffffffffffffffffffffffff81168114610b5057600080fd5b5056fea264697066735822122028fc9e005a9a2c3c5c893d5af68a0f16b24ffed29c692dd89861f7bc0f5e817164736f6c63430008030033",
  "linkReferences": {},
  "deployedLinkReferences": {}
}