{
  "_format": "hh-sol-artifact-1",
  "contractName": "TokenActivation",
  "sourceName": "contracts/controller-actions/TokenActivation.sol",
  "abi": [
    {
      "inputs": [
        {
          "internalType": "address",
          "name": "_roles",
          "type": "address"
        },
        {
          "internalType": "address[]",
          "name": "tokens2activate",
          "type": "address[]"
        },
        {
          "internalType": "uint256[]",
          "name": "_exposureCaps",
          "type": "uint256[]"
        },
        {
          "internalType": "uint256[]",
          "name": "_lendingBuffers",
          "type": "uint256[]"
        },
        {
          "internalType": "uint256[]",
          "name": "_incentiveWeights",
          "type": "uint256[]"
        },
        {
          "internalType": "bytes32[]",
          "name": "_amms",
          "type": "bytes32[]"
        },
        {
          "internalType": "address[][]",
          "name": "_liquidationTokens",
          "type": "address[][]"
        }
      ],
      "stateMutability": "nonpayable",
      "type": "constructor"
    },
    {
      "inputs": [
        {
          "internalType": "uint256",
          "name": "",
          "type": "uint256"
        }
      ],
      "name": "amms",
      "outputs": [
        {
          "internalType": "bytes32",
          "name": "",
          "type": "bytes32"
        }
      ],
      "stateMutability": "view",
      "type": "function"
    },
    {
      "inputs": [],
      "name": "execute",
      "outputs": [],
      "stateMutability": "nonpayable",
      "type": "function"
    },
    {
      "inputs": [
        {
          "internalType": "uint256",
          "name": "",
          "type": "uint256"
        }
      ],
      "name": "exposureCaps",
      "outputs": [
        {
          "internalType": "uint256",
          "name": "",
          "type": "uint256"
        }
      ],
      "stateMutability": "view",
      "type": "function"
    },
    {
      "inputs": [
        {
          "internalType": "uint256",
          "name": "",
          "type": "uint256"
        }
      ],
      "name": "incentiveWeights",
      "outputs": [
        {
          "internalType": "uint256",
          "name": "",
          "type": "uint256"
        }
      ],
      "stateMutability": "view",
      "type": "function"
    },
    {
      "inputs": [
        {
          "internalType": "uint256",
          "name": "",
          "type": "uint256"
        }
      ],
      "name": "lendingBuffers",
      "outputs": [
        {
          "internalType": "uint256",
          "name": "",
          "type": "uint256"
        }
      ],
      "stateMutability": "view",
      "type": "function"
    },
    {
      "inputs": [
        {
          "internalType": "uint256",
          "name": "",
          "type": "uint256"
        },
        {
          "internalType": "uint256",
          "name": "",
          "type": "uint256"
        }
      ],
      "name": "liquidationTokens",
      "outputs": [
        {
          "internalType": "address",
          "name": "",
          "type": "address"
        }
      ],
      "stateMutability": "view",
      "type": "function"
    },
    {
      "inputs": [
        {
          "internalType": "uint256",
          "name": "",
          "type": "uint256"
        }
      ],
      "name": "mainCharacterCache",
      "outputs": [
        {
          "internalType": "address",
          "name": "",
          "type": "address"
        }
      ],
      "stateMutability": "view",
      "type": "function"
    },
    {
      "inputs": [],
      "name": "requiredRoles",
      "outputs": [
        {
          "internalType": "uint256[]",
          "name": "required",
          "type": "uint256[]"
        }
      ],
      "stateMutability": "nonpayable",
      "type": "function"
    },
    {
      "inputs": [
        {
          "internalType": "address",
          "name": "",
          "type": "address"
        },
        {
          "internalType": "uint256",
          "name": "",
          "type": "uint256"
        }
      ],
      "name": "roleCache",
      "outputs": [
        {
          "internalType": "bool",
          "name": "",
          "type": "bool"
        }
      ],
      "stateMutability": "view",
      "type": "function"
    },
    {
      "inputs": [],
      "name": "roles",
      "outputs": [
        {
          "internalType": "contract Roles",
          "name": "",
          "type": "address"
        }
      ],
      "stateMutability": "view",
      "type": "function"
    },
    {
      "inputs": [
        {
          "internalType": "uint256",
          "name": "",
          "type": "uint256"
        }
      ],
      "name": "tokens",
      "outputs": [
        {
          "internalType": "address",
          "name": "",
          "type": "address"
        }
      ],
      "stateMutability": "view",
      "type": "function"
    },
    {
      "inputs": [
        {
          "internalType": "uint256",
          "name": "role",
          "type": "uint256"
        }
      ],
      "name": "updateMainCharacterCache",
      "outputs": [],
      "stateMutability": "nonpayable",
      "type": "function"
    },
    {
      "inputs": [
        {
          "internalType": "uint256",
          "name": "role",
          "type": "uint256"
        },
        {
          "internalType": "address",
          "name": "contr",
          "type": "address"
        }
      ],
      "name": "updateRoleCache",
      "outputs": [],
      "stateMutability": "nonpayable",
      "type": "function"
    }
  ],
  "bytecode": "0x60a06040523480156200001157600080fd5b5060405162000f2238038062000f228339810160408190526200003491620003fd565b866001600160a01b0381166200009b5760405162461bcd60e51b815260206004820152602260248201527f506c656173652070726f766964652076616c696420726f6c6573206164647265604482015261737360f01b606482015260840160405180910390fd5b60601b6001600160601b0319166080528551620000c09060029060208901906200013c565b508451620000d6906003906020880190620001a6565b508351620000ec906004906020870190620001a6565b50825162000102906005906020860190620001a6565b50815162000118906006906020850190620001a6565b5080516200012e906007906020840190620001e4565b505050505050505062000581565b82805482825590600052602060002090810192821562000194579160200282015b828111156200019457825182546001600160a01b0319166001600160a01b039091161782556020909201916001909101906200015d565b50620001a292915062000244565b5090565b82805482825590600052602060002090810192821562000194579160200282015b8281111562000194578251825591602001919060010190620001c7565b82805482825590600052602060002090810192821562000236579160200282015b82811115620002365782518051620002259184916020909101906200013c565b509160200191906001019062000205565b50620001a29291506200025b565b5b80821115620001a2576000815560010162000245565b80821115620001a25760006200027282826200027c565b506001016200025b565b50805460008255906000526020600020908101906200029c919062000244565b50565b80516001600160a01b0381168114620002b757600080fd5b919050565b600082601f830112620002cd578081fd5b81516020620002e6620002e08362000545565b62000512565b80838252828201915082860187848660051b890101111562000306578586fd5b855b858110156200032f576200031c826200029f565b8452928401929084019060010162000308565b5090979650505050505050565b600082601f8301126200034d578081fd5b8151602062000360620002e08362000545565b82815281810190858301855b858110156200032f5762000386898684518b0101620002bc565b845292840192908401906001016200036c565b600082601f830112620003aa578081fd5b81516020620003bd620002e08362000545565b80838252828201915082860187848660051b8901011115620003dd578586fd5b855b858110156200032f57815184529284019290840190600101620003df565b600080600080600080600060e0888a03121562000418578283fd5b62000423886200029f565b60208901519097506001600160401b038082111562000440578485fd5b6200044e8b838c01620002bc565b975060408a015191508082111562000464578485fd5b620004728b838c0162000399565b965060608a015191508082111562000488578485fd5b620004968b838c0162000399565b955060808a0151915080821115620004ac578485fd5b620004ba8b838c0162000399565b945060a08a0151915080821115620004d0578384fd5b620004de8b838c0162000399565b935060c08a0151915080821115620004f4578283fd5b50620005038a828b016200033c565b91505092959891949750929550565b604051601f8201601f191681016001600160401b03811182821017156200053d576200053d6200056b565b604052919050565b60006001600160401b038211156200056157620005616200056b565b5060051b60200190565b634e487b7160e01b600052604160045260246000fd5b60805160601c610974620005ae6000396000818161012e0152818161027d01526103c801526109746000f3fe608060405234801561001057600080fd5b50600436106100df5760003560e01c806362b4b9a61161008c578063b792be6f11610066578063b792be6f146101f0578063cd28fc8f14610203578063e9c3f77d14610212578063f7fe95a81461023b576100df565b806362b4b9a61461017e5780637a1a04df1461019f57806386a8cdbc146101dd576100df565b8063447d52ba116100bd578063447d52ba146101505780634f64b2be146101635780636146195414610176576100df565b8063071060a6146100e4578063276ce2c8146100f9578063392f5f6414610129575b600080fd5b6100f76100f23660046107d5565b61024e565b005b61010c61010736600461081c565b610345565b6040516001600160a01b0390911681526020015b60405180910390f35b61010c7f000000000000000000000000000000000000000000000000000000000000000081565b6100f761015e3660046107ed565b610389565b61010c6101713660046107d5565b61047a565b6100f76104a4565b61019161018c3660046107d5565b610716565b604051908152602001610120565b6101cd6101ad36600461078a565b600160209081526000928352604080842090915290825290205460ff1681565b6040519015158152602001610120565b6101916101eb3660046107d5565b610737565b6101916101fe3660046107d5565b610747565b606060405161012091906108b3565b61010c6102203660046107d5565b6000602081905290815260409020546001600160a01b031681565b6101916102493660046107d5565b610757565b6040517fb4ed0b6d000000000000000000000000000000000000000000000000000000008152600481018290527f00000000000000000000000000000000000000000000000000000000000000006001600160a01b03169063b4ed0b6d9060240160206040518083038186803b1580156102c757600080fd5b505afa1580156102db573d6000803e3d6000fd5b505050506040513d601f19601f820116820180604052508101906102ff9190610767565b60009182526020829052604090912080547fffffffffffffffffffffffff0000000000000000000000000000000000000000166001600160a01b03909216919091179055565b6007828154811061035557600080fd5b90600052602060002001818154811061036d57600080fd5b6000918252602090912001546001600160a01b03169150829050565b6040517f93552a3d000000000000000000000000000000000000000000000000000000008152600481018390526001600160a01b0382811660248301527f000000000000000000000000000000000000000000000000000000000000000016906393552a3d9060440160206040518083038186803b15801561040a57600080fd5b505afa15801561041e573d6000803e3d6000fd5b505050506040513d601f19601f8201168201806040525081019061044291906107b5565b6001600160a01b0391909116600090815260016020908152604080832094835293905291909120805460ff1916911515919091179055565b6002818154811061048a57600080fd5b6000918252602090912001546001600160a01b0316905081565b60005b60025462ffffff8216101561071257600060028262ffffff16815481106104de57634e487b7160e01b600052603260045260246000fd5b6000918252602082200154600380546001600160a01b0390921693509062ffffff851690811061051e57634e487b7160e01b600052603260045260246000fd5b90600052602060002001549050600060048462ffffff168154811061055357634e487b7160e01b600052603260045260246000fd5b90600052602060002001549050600060058562ffffff168154811061058857634e487b7160e01b600052603260045260246000fd5b90600052602060002001549050600060068662ffffff16815481106105bd57634e487b7160e01b600052603260045260246000fd5b90600052602060002001549050600060078762ffffff16815481106105f257634e487b7160e01b600052603260045260246000fd5b9060005260206000200180548060200260200160405190810160405280929190818152602001828054801561065057602002820191906000526020600020905b81546001600160a01b03168152600190910190602001808311610632575b50505050509050610692606d60009081526020527faa31d2a33b224bee3888830916f2f56f41bb5a40ed8a3273c6e72e6992d6223a546001600160a01b031690565b6001600160a01b031663b5f1fb518787878787876040518763ffffffff1660e01b81526004016106c79695949392919061083d565b600060405180830381600087803b1580156106e157600080fd5b505af11580156106f5573d6000803e3d6000fd5b50505050505050505050808061070a906108f7565b9150506104a7565b5032ff5b6005818154811061072657600080fd5b600091825260209091200154905081565b6006818154811061072657600080fd5b6004818154811061072657600080fd5b6003818154811061072657600080fd5b600060208284031215610778578081fd5b815161078381610926565b9392505050565b6000806040838503121561079c578081fd5b82356107a781610926565b946020939093013593505050565b6000602082840312156107c6578081fd5b81518015158114610783578182fd5b6000602082840312156107e6578081fd5b5035919050565b600080604083850312156107ff578182fd5b82359150602083013561081181610926565b809150509250929050565b6000806040838503121561082e578182fd5b50508035926020909101359150565b600060c082016001600160a01b03808a1684526020898186015288604086015287606086015286608086015260c060a086015282865180855260e0870191508288019450855b818110156108a1578551851683529483019491830191600101610883565b50909c9b505050505050505050505050565b6020808252825182820181905260009190848201906040850190845b818110156108eb578351835292840192918401916001016108cf565b50909695505050505050565b600062ffffff8083168181141561091c57634e487b7160e01b83526011600452602483fd5b6001019392505050565b6001600160a01b038116811461093b57600080fd5b5056fea2646970667358221220c66eb18972042d2b1f80dca85280b35e2b100379026d4680c299c87a69a4b4f564736f6c63430008030033",
  "linkReferences": {},
  "deployedLinkReferences": {}
}