{
  "_format": "hh-sol-artifact-1",
  "contractName": "DependencyCleaner",
  "sourceName": "contracts/controller-actions/DependencyCleaner.sol",
  "abi": [
    {
      "inputs": [
        {
          "internalType": "address[]",
          "name": "_contracts",
          "type": "address[]"
        },
        {
          "internalType": "uint256[]",
          "name": "_roles2nix",
          "type": "uint256[]"
        },
        {
          "internalType": "address",
          "name": "_roles",
          "type": "address"
        }
      ],
      "stateMutability": "nonpayable",
      "type": "constructor"
    },
    {
      "inputs": [],
      "name": "execute",
      "outputs": [],
      "stateMutability": "nonpayable",
      "type": "function"
    },
    {
      "inputs": [
        {
          "internalType": "uint256",
          "name": "",
          "type": "uint256"
        }
      ],
      "name": "mainCharacterCache",
      "outputs": [
        {
          "internalType": "address",
          "name": "",
          "type": "address"
        }
      ],
      "stateMutability": "view",
      "type": "function"
    },
    {
      "inputs": [],
      "name": "requiredRoles",
      "outputs": [
        {
          "internalType": "uint256[]",
          "name": "required",
          "type": "uint256[]"
        }
      ],
      "stateMutability": "pure",
      "type": "function"
    },
    {
      "inputs": [
        {
          "internalType": "address",
          "name": "",
          "type": "address"
        },
        {
          "internalType": "uint256",
          "name": "",
          "type": "uint256"
        }
      ],
      "name": "roleCache",
      "outputs": [
        {
          "internalType": "bool",
          "name": "",
          "type": "bool"
        }
      ],
      "stateMutability": "view",
      "type": "function"
    },
    {
      "inputs": [],
      "name": "roles",
      "outputs": [
        {
          "internalType": "contract Roles",
          "name": "",
          "type": "address"
        }
      ],
      "stateMutability": "view",
      "type": "function"
    },
    {
      "inputs": [
        {
          "internalType": "uint256",
          "name": "role",
          "type": "uint256"
        }
      ],
      "name": "updateMainCharacterCache",
      "outputs": [],
      "stateMutability": "nonpayable",
      "type": "function"
    },
    {
      "inputs": [
        {
          "internalType": "uint256",
          "name": "role",
          "type": "uint256"
        },
        {
          "internalType": "address",
          "name": "contr",
          "type": "address"
        }
      ],
      "name": "updateRoleCache",
      "outputs": [],
      "stateMutability": "nonpayable",
      "type": "function"
    }
  ],
  "bytecode": "0x60a06040523480156200001157600080fd5b506040516200096e3803806200096e833981016040819052620000349162000233565b806001600160a01b0381166200009b5760405162461bcd60e51b815260206004820152602260248201527f506c656173652070726f766964652076616c696420726f6c6573206164647265604482015261737360f01b606482015260840160405180910390fd5b60601b6001600160601b0319166080528251620000c0906002906020860190620000e0565b508151620000d69060039060208501906200014a565b5050505062000385565b82805482825590600052602060002090810192821562000138579160200282015b828111156200013857825182546001600160a01b0319166001600160a01b0390911617825560209092019160019091019062000101565b506200014692915062000188565b5090565b82805482825590600052602060002090810192821562000138579160200282015b82811115620001385782518255916020019190600101906200016b565b5b8082111562000146576000815560010162000189565b80516001600160a01b0381168114620001b757600080fd5b919050565b600082601f830112620001cd578081fd5b81516020620001e6620001e08362000349565b62000316565b80838252828201915082860187848660051b890101111562000206578586fd5b855b85811015620002265781518452928401929084019060010162000208565b5090979650505050505050565b60008060006060848603121562000248578283fd5b83516001600160401b03808211156200025f578485fd5b818601915086601f83011262000273578485fd5b8151602062000286620001e08362000349565b8083825282820191508286018b848660051b8901011115620002a657898afd5b8996505b84871015620002d357620002be816200019f565b835260019690960195918301918301620002aa565b5091890151919750909350505080821115620002ed578384fd5b50620002fc86828701620001bc565b9250506200030d604085016200019f565b90509250925092565b604051601f8201601f191681016001600160401b03811182821017156200034157620003416200036f565b604052919050565b60006001600160401b038211156200036557620003656200036f565b5060051b60200190565b634e487b7160e01b600052604160045260246000fd5b60805160601c6105bd620003b160003960008181609c0152818161018c015261026201526105bd6000f3fe608060405234801561001057600080fd5b506004361061007d5760003560e01c8063614619541161005b57806361461954146100ee5780637a1a04df146100f6578063cd28fc8f14610134578063e9c3f77d1461014d5761007d565b8063071060a614610082578063392f5f6414610097578063447d52ba146100db575b600080fd5b6100956100903660046104c0565b610176565b005b6100be7f000000000000000000000000000000000000000000000000000000000000000081565b6040516001600160a01b0390911681526020015b60405180910390f35b6100956100e93660046104d8565b61023c565b610095610314565b610124610104366004610475565b600160209081526000928352604080842090915290825290205460ff1681565b60405190151581526020016100d2565b604080516000815260208101918290526100d291610507565b6100be61015b3660046104c0565b6000602081905290815260409020546001600160a01b031681565b60405163b4ed0b6d60e01b8152600481018290527f00000000000000000000000000000000000000000000000000000000000000006001600160a01b03169063b4ed0b6d9060240160206040518083038186803b1580156101d657600080fd5b505afa1580156101ea573d6000803e3d6000fd5b505050506040513d601f19601f8201168201806040525081019061020e9190610452565b60009182526020829052604090912080546001600160a01b0319166001600160a01b03909216919091179055565b6040516393552a3d60e01b8152600481018390526001600160a01b0382811660248301527f000000000000000000000000000000000000000000000000000000000000000016906393552a3d9060440160206040518083038186803b1580156102a457600080fd5b505afa1580156102b8573d6000803e3d6000fd5b505050506040513d601f19601f820116820180604052508101906102dc91906104a0565b6001600160a01b0391909116600090815260016020908152604080832094835293905291909120805460ff1916911515919091179055565b3360005b6002548110156103fc57816001600160a01b0316633238405b6003838154811061035257634e487b7160e01b600052603260045260246000fd5b90600052602060002001546002848154811061037e57634e487b7160e01b600052603260045260246000fd5b60009182526020909120015460405160e084901b6001600160e01b031916815260048101929092526001600160a01b03166024820152604401600060405180830381600087803b1580156103d157600080fd5b505af11580156103e5573d6000803e3d6000fd5b5050505080806103f49061054b565b915050610318565b5061040960026000610418565b61041560036000610418565b32ff5b50805460008255906000526020600020908101906104369190610439565b50565b5b8082111561044e576000815560010161043a565b5090565b600060208284031215610463578081fd5b815161046e81610572565b9392505050565b60008060408385031215610487578081fd5b823561049281610572565b946020939093013593505050565b6000602082840312156104b1578081fd5b8151801515811461046e578182fd5b6000602082840312156104d1578081fd5b5035919050565b600080604083850312156104ea578182fd5b8235915060208301356104fc81610572565b809150509250929050565b6020808252825182820181905260009190848201906040850190845b8181101561053f57835183529284019291840191600101610523565b50909695505050505050565b600060001982141561056b57634e487b7160e01b81526011600452602481fd5b5060010190565b6001600160a01b038116811461043657600080fdfea26469706673582212209c07dab4caf878cbfcbfe16dae09da94fb3e9b064ad5b036c37e999474847b6d64736f6c63430008030033",
  "linkReferences": {},
  "deployedLinkReferences": {}
}