{
  "_format": "hh-sol-artifact-1",
  "contractName": "IsolatedMarginTrading",
  "sourceName": "contracts/IsolatedMarginTrading.sol",
  "abi": [
    {
      "inputs": [
        {
          "internalType": "address",
          "name": "_roles",
          "type": "address"
        }
      ],
      "stateMutability": "nonpayable",
      "type": "constructor"
    },
    {
      "anonymous": false,
      "inputs": [
        {
          "indexed": false,
          "internalType": "address",
          "name": "account",
          "type": "address"
        }
      ],
      "name": "AccountLiquidated",
      "type": "event"
    },
    {
      "anonymous": false,
      "inputs": [
        {
          "indexed": false,
          "internalType": "uint256",
          "name": "amount",
          "type": "uint256"
        }
      ],
      "name": "LiquidationShortfall",
      "type": "event"
    },
    {
      "inputs": [],
      "name": "MAINTAINER_CUT_PERCENT",
      "outputs": [
        {
          "internalType": "uint256",
          "name": "",
          "type": "uint256"
        }
      ],
      "stateMutability": "view",
      "type": "function"
    },
    {
      "inputs": [],
      "name": "amms",
      "outputs": [
        {
          "internalType": "bytes32",
          "name": "",
          "type": "bytes32"
        }
      ],
      "stateMutability": "view",
      "type": "function"
    },
    {
      "inputs": [],
      "name": "avgLiquidationPerCall",
      "outputs": [
        {
          "internalType": "uint256",
          "name": "",
          "type": "uint256"
        }
      ],
      "stateMutability": "view",
      "type": "function"
    },
    {
      "inputs": [],
      "name": "borrowToken",
      "outputs": [
        {
          "internalType": "address",
          "name": "",
          "type": "address"
        }
      ],
      "stateMutability": "view",
      "type": "function"
    },
    {
      "inputs": [],
      "name": "coolingOffPeriod",
      "outputs": [
        {
          "internalType": "uint256",
          "name": "",
          "type": "uint256"
        }
      ],
      "stateMutability": "view",
      "type": "function"
    },
    {
      "inputs": [
        {
          "internalType": "address[]",
          "name": "liquidatedAccounts",
          "type": "address[]"
        }
      ],
      "name": "disburseLiqStakeAttacks",
      "outputs": [],
      "stateMutability": "nonpayable",
      "type": "function"
    },
    {
      "inputs": [],
      "name": "failureThreshold",
      "outputs": [
        {
          "internalType": "uint256",
          "name": "",
          "type": "uint256"
        }
      ],
      "stateMutability": "view",
      "type": "function"
    },
    {
      "inputs": [
        {
          "internalType": "address",
          "name": "trader",
          "type": "address"
        }
      ],
      "name": "getLastDepositBlock",
      "outputs": [
        {
          "internalType": "uint256",
          "name": "",
          "type": "uint256"
        }
      ],
      "stateMutability": "view",
      "type": "function"
    },
    {
      "inputs": [],
      "name": "holdingToken",
      "outputs": [
        {
          "internalType": "address",
          "name": "",
          "type": "address"
        }
      ],
      "stateMutability": "view",
      "type": "function"
    },
    {
      "inputs": [],
      "name": "leveragePercent",
      "outputs": [
        {
          "internalType": "uint256",
          "name": "",
          "type": "uint256"
        }
      ],
      "stateMutability": "view",
      "type": "function"
    },
    {
      "inputs": [],
      "name": "liqStakeAttackWindow",
      "outputs": [
        {
          "internalType": "uint256",
          "name": "",
          "type": "uint256"
        }
      ],
      "stateMutability": "view",
      "type": "function"
    },
    {
      "inputs": [
        {
          "internalType": "address[]",
          "name": "liquidationCandidates",
          "type": "address[]"
        }
      ],
      "name": "liquidate",
      "outputs": [
        {
          "internalType": "uint256",
          "name": "maintainerCut",
          "type": "uint256"
        }
      ],
      "stateMutability": "nonpayable",
      "type": "function"
    },
    {
      "inputs": [],
      "name": "liquidationThresholdPercent",
      "outputs": [
        {
          "internalType": "uint256",
          "name": "",
          "type": "uint256"
        }
      ],
      "stateMutability": "view",
      "type": "function"
    },
    {
      "inputs": [
        {
          "internalType": "uint256",
          "name": "",
          "type": "uint256"
        }
      ],
      "name": "liquidationTokens",
      "outputs": [
        {
          "internalType": "address",
          "name": "",
          "type": "address"
        }
      ],
      "stateMutability": "view",
      "type": "function"
    },
    {
      "inputs": [
        {
          "internalType": "uint256",
          "name": "",
          "type": "uint256"
        }
      ],
      "name": "mainCharacterCache",
      "outputs": [
        {
          "internalType": "address",
          "name": "",
          "type": "address"
        }
      ],
      "stateMutability": "view",
      "type": "function"
    },
    {
      "inputs": [
        {
          "internalType": "address",
          "name": "",
          "type": "address"
        }
      ],
      "name": "maintenanceFailures",
      "outputs": [
        {
          "internalType": "uint256",
          "name": "",
          "type": "uint256"
        }
      ],
      "stateMutability": "view",
      "type": "function"
    },
    {
      "inputs": [
        {
          "internalType": "address",
          "name": "",
          "type": "address"
        }
      ],
      "name": "marginAccounts",
      "outputs": [
        {
          "internalType": "uint256",
          "name": "lastDepositBlock",
          "type": "uint256"
        },
        {
          "internalType": "uint256",
          "name": "borrowed",
          "type": "uint256"
        },
        {
          "internalType": "uint256",
          "name": "borrowedYieldQuotientFP",
          "type": "uint256"
        },
        {
          "internalType": "uint256",
          "name": "holding",
          "type": "uint256"
        }
      ],
      "stateMutability": "view",
      "type": "function"
    },
    {
      "inputs": [
        {
          "internalType": "address",
          "name": "trader",
          "type": "address"
        }
      ],
      "name": "registerCloseAccount",
      "outputs": [
        {
          "internalType": "uint256",
          "name": "holdingAmount",
          "type": "uint256"
        }
      ],
      "stateMutability": "nonpayable",
      "type": "function"
    },
    {
      "inputs": [
        {
          "internalType": "address",
          "name": "trader",
          "type": "address"
        },
        {
          "internalType": "uint256",
          "name": "borrowed",
          "type": "uint256"
        },
        {
          "internalType": "uint256",
          "name": "holdingsAdded",
          "type": "uint256"
        },
        {
          "internalType": "bool",
          "name": "deposited",
          "type": "bool"
        }
      ],
      "name": "registerPosition",
      "outputs": [],
      "stateMutability": "nonpayable",
      "type": "function"
    },
    {
      "inputs": [
        {
          "internalType": "address",
          "name": "trader",
          "type": "address"
        },
        {
          "internalType": "uint256",
          "name": "extinguished",
          "type": "uint256"
        },
        {
          "internalType": "uint256",
          "name": "holdingsSold",
          "type": "uint256"
        }
      ],
      "name": "registerUnwind",
      "outputs": [],
      "stateMutability": "nonpayable",
      "type": "function"
    },
    {
      "inputs": [
        {
          "internalType": "address",
          "name": "",
          "type": "address"
        },
        {
          "internalType": "uint256",
          "name": "",
          "type": "uint256"
        }
      ],
      "name": "roleCache",
      "outputs": [
        {
          "internalType": "bool",
          "name": "",
          "type": "bool"
        }
      ],
      "stateMutability": "view",
      "type": "function"
    },
    {
      "inputs": [],
      "name": "roles",
      "outputs": [
        {
          "internalType": "contract Roles",
          "name": "",
          "type": "address"
        }
      ],
      "stateMutability": "view",
      "type": "function"
    },
    {
      "inputs": [
        {
          "internalType": "uint256",
          "name": "blocks",
          "type": "uint256"
        }
      ],
      "name": "setCoolingOffPeriod",
      "outputs": [],
      "stateMutability": "nonpayable",
      "type": "function"
    },
    {
      "inputs": [
        {
          "internalType": "uint256",
          "name": "threshFactor",
          "type": "uint256"
        }
      ],
      "name": "setFailureThreshold",
      "outputs": [],
      "stateMutability": "nonpayable",
      "type": "function"
    },
    {
      "inputs": [
        {
          "internalType": "uint256",
          "name": "_leveragePercent",
          "type": "uint256"
        }
      ],
      "name": "setLeveragePercent",
      "outputs": [],
      "stateMutability": "nonpayable",
      "type": "function"
    },
    {
      "inputs": [
        {
          "internalType": "uint256",
          "name": "window",
          "type": "uint256"
        }
      ],
      "name": "setLiqStakeAttackWindow",
      "outputs": [],
      "stateMutability": "nonpayable",
      "type": "function"
    },
    {
      "inputs": [
        {
          "internalType": "uint256",
          "name": "threshold",
          "type": "uint256"
        }
      ],
      "name": "setLiquidationThresholdPercent",
      "outputs": [],
      "stateMutability": "nonpayable",
      "type": "function"
    },
    {
      "inputs": [
        {
          "internalType": "uint256",
          "name": "cut",
          "type": "uint256"
        }
      ],
      "name": "setMaintainerCutPercent",
      "outputs": [],
      "stateMutability": "nonpayable",
      "type": "function"
    },
    {
      "inputs": [
        {
          "internalType": "address",
          "name": "",
          "type": "address"
        }
      ],
      "name": "stakeAttackRecords",
      "outputs": [
        {
          "internalType": "uint256",
          "name": "blockNum",
          "type": "uint256"
        },
        {
          "internalType": "address",
          "name": "loser",
          "type": "address"
        },
        {
          "internalType": "uint256",
          "name": "amount",
          "type": "uint256"
        },
        {
          "internalType": "address",
          "name": "stakeAttacker",
          "type": "address"
        }
      ],
      "stateMutability": "view",
      "type": "function"
    },
    {
      "inputs": [],
      "name": "totalDebt",
      "outputs": [
        {
          "internalType": "uint256",
          "name": "",
          "type": "uint256"
        }
      ],
      "stateMutability": "view",
      "type": "function"
    },
    {
      "inputs": [
        {
          "internalType": "uint256",
          "name": "role",
          "type": "uint256"
        }
      ],
      "name": "updateMainCharacterCache",
      "outputs": [],
      "stateMutability": "nonpayable",
      "type": "function"
    },
    {
      "inputs": [
        {
          "internalType": "uint256",
          "name": "role",
          "type": "uint256"
        },
        {
          "internalType": "address",
          "name": "contr",
          "type": "address"
        }
      ],
      "name": "updateRoleCache",
      "outputs": [],
      "stateMutability": "nonpayable",
      "type": "function"
    }
  ],
  "bytecode": "0x60a0604052607360075560146009556101f4600a55600a600e556005600f556005601055600a6011553480156200003557600080fd5b50604051620028f7380380620028f78339810160408190526200005891620000d6565b806001600160a01b038116620000bf5760405162461bcd60e51b815260206004820152602260248201527f506c656173652070726f766964652076616c696420726f6c6573206164647265604482015261737360f01b606482015260840160405180910390fd5b60601b6001600160601b0319166080525062000106565b600060208284031215620000e8578081fd5b81516001600160a01b0381168114620000ff578182fd5b9392505050565b60805160601c6127b66200014160003960008181610275015281816105540152818161083e01528181611a600152611af801526127b66000f3fe608060405234801561001057600080fd5b50600436106101ef5760003560e01c806391dfcb481161010f578063c5f1d5c2116100a2578063eac29dd611610071578063eac29dd6146104e3578063f99fd97c146104f6578063fb62f43114610509578063fc7b9c181461051c576101ef565b8063c5f1d5c214610481578063c73afac214610494578063c74303aa146104a7578063e9c3f77d146104ba576101ef565b8063a53ac0d9116100de578063a53ac0d9146103d8578063a75697a5146103e1578063a985994b14610401578063badb504814610414576101ef565b806391dfcb481461034a5780639c498bc31461035d578063a1ad54e6146103b2578063a3718919146103c5576101ef565b8063447d52ba116101875780636585b5a6116101565780636585b5a6146102e75780637a1a04df146102f05780637d100e841461032e5780638b2db56914610337576101ef565b8063447d52ba146102af578063456dc17a146102c25780634aa4aca3146102d5578063538edb29146102de576101ef565b806316317e7e116101c357806316317e7e1461024b5780632febaa741461025e578063320d2fa014610267578063392f5f6414610270576101ef565b80620a0016146101f4578063071060a61461021057806307c201751461022557806310d5843414610238575b600080fd5b6101fd60055481565b6040519081526020015b60405180910390f35b61022361021e366004612567565b610525565b005b610223610233366004612423565b610611565b610223610246366004612567565b6106fe565b610223610259366004612567565b610781565b6101fd60095481565b6101fd60075481565b6102977f000000000000000000000000000000000000000000000000000000000000000081565b6040516001600160a01b039091168152602001610207565b6102236102bd366004612597565b6107ff565b600254610297906001600160a01b031681565b6101fd600f5481565b6101fd60105481565b6101fd600e5481565b61031e6102fe36600461234e565b600160209081526000928352604080842090915290825290205460ff1681565b6040519015158152602001610207565b6101fd60115481565b6102236103453660046123da565b61090e565b6101fd61035836600461230f565b6109ed565b61039261036b36600461230f565b60086020526000908152604090208054600182015460028301546003909301549192909184565b604080519485526020850193909352918301526060820152608001610207565b600354610297906001600160a01b031681565b6102236103d3366004612567565b610bee565b6101fd600a5481565b6101fd6103ef36600461230f565b600c6020526000908152604090205481565b6101fd61040f366004612423565b610c6c565b61045661042236600461230f565b600d60205260009081526040902080546001820154600283015460039093015491926001600160a01b039182169290911684565b604080519485526001600160a01b039384166020860152840191909152166060820152608001610207565b61022361048f3660046123a6565b611477565b6102236104a2366004612567565b6115f3565b6102236104b5366004612567565b611671565b6102976104c8366004612567565b6000602081905290815260409020546001600160a01b031681565b6101fd6104f136600461230f565b6116ef565b610223610504366004612567565b61170e565b610297610517366004612567565b61178c565b6101fd60045481565b6040517fb4ed0b6d000000000000000000000000000000000000000000000000000000008152600481018290527f00000000000000000000000000000000000000000000000000000000000000006001600160a01b03169063b4ed0b6d9060240160206040518083038186803b15801561059e57600080fd5b505afa1580156105b2573d6000803e3d6000fd5b505050506040513d601f19601f820116820180604052508101906105d69190612332565b600091825260208290526040909120805473ffffffffffffffffffffffffffffffffffffffff19166001600160a01b03909216919091179055565b60005b80825111156106fa57600082828151811061063f57634e487b7160e01b600052603260045260246000fd5b602002602001015190506000600d6000836001600160a01b03166001600160a01b031681526020019081526020016000209050600f54816000015461068491906126a5565b4311156106e557610694816117b6565b506001600160a01b0382166000908152600d6020526040812081815560018101805473ffffffffffffffffffffffffffffffffffffffff199081169091556002820192909255600301805490911690555b505080806106f290612713565b915050610614565b5050565b33610707611a5c565b6001600160a01b0316148061072b575033610720611af4565b6001600160a01b0316145b61077c5760405162461bcd60e51b815260206004820152601e60248201527f526f6c65733a2063616c6c6572206973206e6f7420746865206f776e6572000060448201526064015b60405180910390fd5b601155565b3361078a611a5c565b6001600160a01b031614806107ae5750336107a3611af4565b6001600160a01b0316145b6107fa5760405162461bcd60e51b815260206004820152601e60248201527f526f6c65733a2063616c6c6572206973206e6f7420746865206f776e657200006044820152606401610773565b600755565b6040517f93552a3d000000000000000000000000000000000000000000000000000000008152600481018390526001600160a01b0382811660248301527f000000000000000000000000000000000000000000000000000000000000000016906393552a3d9060440160206040518083038186803b15801561088057600080fd5b505afa158015610894573d6000803e3d6000fd5b505050506040513d601f19601f820116820180604052508101906108b8919061254b565b6001600160a01b039190911660009081526001602090815260408083209483529390529190912080547fffffffffffffffffffffffffffffffffffffffffffffffffffffffffffffff0016911515919091179055565b3360009081526001602090815260408083206004845290915290205460ff1661099f5760405162461bcd60e51b815260206004820152602a60248201527f43616c6c696e6720636f6e7472616374206e6f7420617574686f72697a65642060448201527f746f206465706f736974000000000000000000000000000000000000000000006064820152608401610773565b6001600160a01b0384166000908152600860205260408120600381018054919285926109cc9084906126a5565b909155506109dc90508185611b65565b81156109e6574381555b5050505050565b3360009081526001602090815260408083206004845290915281205460ff16610a7e5760405162461bcd60e51b815260206004820152602a60248201527f43616c6c696e6720636f6e7472616374206e6f7420617574686f72697a65642060448201527f746f206465706f736974000000000000000000000000000000000000000000006064820152608401610773565b6001600160a01b03821660009081526008602052604090206009548154610aa591906126a5565b4311610b3f5760405162461bcd60e51b815260206004820152605260248201527f546f2070726576656e742061747461636b7320796f75206d757374207761697460448201527f20756e74696c20796f757220636f6f6c696e67206f666620706572696f64206960648201527f73206f76657220746f2077697468647261770000000000000000000000000000608482015260a401610773565b600181015415610bb65760405162461bcd60e51b8152602060048201526024808201527f43616e277420636c6f7365206163636f756e742074686174277320626f72726f60448201527f77696e67000000000000000000000000000000000000000000000000000000006064820152608401610773565b6003908101546001600160a01b0390931660009081526008602052604081208181556001810182905560028101829055909101555090565b33610bf7611a5c565b6001600160a01b03161480610c1b575033610c10611af4565b6001600160a01b0316145b610c675760405162461bcd60e51b815260206004820152601e60248201527f526f6c65733a2063616c6c6572206973206e6f7420746865206f776e657200006044820152606401610773565b600f55565b6000333214610ce35760405162461bcd60e51b815260206004820152603a60248201527f43757272656e746c79206e6f20696e7465726d656469617269657320616c6c6f60448201527f77656420666f7220746869732066756e6374696f6e2063616c6c0000000000006064820152608401610773565b6000610d20606b60009081526020527f2dc7a963308417ad45132da282495eb244f38a7db03940a4d808be607669c622546001600160a01b031690565b6040517f7b23cbce0000000000000000000000000000000000000000000000000000000081523360048201526001600160a01b039190911690637b23cbce90602401602060405180830381600087803b158015610d7c57600080fd5b505af1158015610d90573d6000803e3d6000fd5b505050506040513d601f19601f82011682018060405250810190610db4919061254b565b905060008180610dc75750610dc7611c03565b9050600080610dd68685611ce3565b919650925090506000610de883611e4f565b905060646010546064610dfb91906126a5565b610e0591906126bd565b610e0f90836126dd565b915080821115610f02576000610e2582846126fc565b90507f3555ffae7677eb42103f0b9e11b61c758f452fae446684dec7a363dd38ab58fc81604051610e5891815260200190565b60405180910390a1606660009081526020527f422cccb7cea5c0e46f340bb7b21b81debac329f72e31669c20ff0f3a05cc2b5b546040517fd4437dd8000000000000000000000000000000000000000000000000000000008152600481018390526001600160a01b039091169063d4437dd890602401600060405180830381600087803b158015610ee857600080fd5b505af1158015610efc573d6000803e3d6000fd5b50505050505b600084610fb357606b60009081526020527f2dc7a963308417ad45132da282495eb244f38a7db03940a4d808be607669c622546001600160a01b03166001600160a01b0316631a38de1d6040518163ffffffff1660e01b8152600401602060405180830381600087803b158015610f7857600080fd5b505af1158015610f8c573d6000803e3d6000fd5b505050506040513d601f19601f82011682018060405250810190610fb09190612332565b90505b60005b600b5481101561122a576000600b8281548110610fe357634e487b7160e01b600052603260045260246000fd5b60009182526020808320909101546001600160a01b03168083526008909152604082206010546001820154929450909291606491611020916126dd565b61102a91906126bd565b9050611036818c6126a5565b9a5088611098576001600160a01b038381166000908152600d60205260409020600281018390556003810180543373ffffffffffffffffffffffffffffffffffffffff1991821617909155438255600190910180549091169187169190911790555b6000888784600301546110ab91906126dd565b6110b591906126bd565b90508260010154826110c791906126a5565b81106111ad57606560009081526020527f4a7203f705e51df4a56139a9b86b4a0970bed7ab7a3446eaffe2289989c1645c5460025460018501546001600160a01b039283169263d9caed129216908790869061112390876126fc565b61112d91906126fc565b6040517fffffffff0000000000000000000000000000000000000000000000000000000060e086901b1681526001600160a01b0393841660048201529290911660248301526044820152606401600060405180830381600087803b15801561119457600080fd5b505af11580156111a8573d6000803e3d6000fd5b505050505b6040516001600160a01b03851681527f1d2cc4c8661a04a00b4e727426220501b36d85bb330947642c2d4320667028cf9060200160405180910390a15050506001600160a01b031660009081526008602052604081208181556001810182905560028101829055600301558061122281612713565b915050610fb6565b50606487600e54606361123d91906126dd565b61124791906126a5565b61125191906126bd565b600e55841561131457606560009081526020527f4a7203f705e51df4a56139a9b86b4a0970bed7ab7a3446eaffe2289989c1645c546001600160a01b03166002546040517fd9caed120000000000000000000000000000000000000000000000000000000081526001600160a01b039182166004820152336024820152604481018a905291169063d9caed1290606401600060405180830381600087803b1580156112fb57600080fd5b505af115801561130f573d6000803e3d6000fd5b505050505b6000611351606b60009081526020527f2dc7a963308417ad45132da282495eb244f38a7db03940a4d808be607669c622546001600160a01b031690565b6001600160a01b0316631a38de1d6040518163ffffffff1660e01b8152600401602060405180830381600087803b15801561138b57600080fd5b505af115801561139f573d6000803e3d6000fd5b505050506040513d601f19601f820116820180604052508101906113c39190612332565b9050861561143d576001600160a01b0381166000908152600c602052604090205488101561141e576001600160a01b0381166000908152600c6020526040812080548a92906114139084906126fc565b909155506114389050565b6001600160a01b0381166000908152600c60205260408120555b61146b565b6001600160a01b0381166000908152600c6020526040812080548a92906114659084906126a5565b90915550505b50505050505050919050565b3360009081526001602090815260408083206004845290915290205460ff166115085760405162461bcd60e51b815260206004820152602b60248201527f43616c6c696e6720636f6e7472616374206e6f7420617574686f72697a65642060448201527f746f2077697468647261770000000000000000000000000000000000000000006064820152608401610773565b6001600160a01b0383166000908152600860205260409020600954815461152f91906126a5565b43116115c95760405162461bcd60e51b815260206004820152605260248201527f546f2070726576656e742061747461636b7320796f75206d757374207761697460448201527f20756e74696c20796f757220636f6f6c696e67206f666620706572696f64206960648201527f73206f76657220746f2077697468647261770000000000000000000000000000608482015260a401610773565b818160030160008282546115dd91906126fc565b909155506115ed90508184611f5d565b50505050565b336115fc611a5c565b6001600160a01b03161480611620575033611615611af4565b6001600160a01b0316145b61166c5760405162461bcd60e51b815260206004820152601e60248201527f526f6c65733a2063616c6c6572206973206e6f7420746865206f776e657200006044820152606401610773565b601055565b3361167a611a5c565b6001600160a01b0316148061169e575033611693611af4565b6001600160a01b0316145b6116ea5760405162461bcd60e51b815260206004820152601e60248201527f526f6c65733a2063616c6c6572206973206e6f7420746865206f776e657200006044820152606401610773565b600a55565b6001600160a01b0381166000908152600860205260409020545b919050565b33611717611a5c565b6001600160a01b0316148061173b575033611730611af4565b6001600160a01b0316145b6117875760405162461bcd60e51b815260206004820152601e60248201527f526f6c65733a2063616c6c6572206973206e6f7420746865206f776e657200006044820152606401610773565b600955565b6006818154811061179c57600080fd5b6000918252602090912001546001600160a01b0316905081565b6002810154600090156117095781546000906117de906117d690436126fc565b600f54611f83565b90506000600f548285600201546117f591906126dd565b6117ff91906126bd565b905061183c606560009081526020527f4a7203f705e51df4a56139a9b86b4a0970bed7ab7a3446eaffe2289989c1645c546001600160a01b031690565b60025460038601546040517fd9caed120000000000000000000000000000000000000000000000000000000081526001600160a01b03928316600482015290821660248201526044810184905291169063d9caed1290606401600060405180830381600087803b1580156118af57600080fd5b505af11580156118c3573d6000803e3d6000fd5b505050506000611904606b60009081526020527f2dc7a963308417ad45132da282495eb244f38a7db03940a4d808be607669c622546001600160a01b031690565b90506000600e5483836001600160a01b0316630ad691506040518163ffffffff1660e01b815260040160206040518083038186803b15801561194557600080fd5b505afa158015611959573d6000803e3d6000fd5b505050506040513d601f19601f8201168201806040525081019061197d919061257f565b61198791906126dd565b61199191906126bd565b600187015460038801546040517f0a45bc1b0000000000000000000000000000000000000000000000000000000081526001600160a01b039283166004820152602481018490529082166044820152919250831690630a45bc1b90606401602060405180830381600087803b158015611a0957600080fd5b505af1158015611a1d573d6000803e3d6000fd5b505050506040513d601f19601f82011682018060405250810190611a41919061257f565b50828660020154611a5291906126fc565b9695505050505050565b60007f00000000000000000000000000000000000000000000000000000000000000006001600160a01b0316638da5cb5b6040518163ffffffff1660e01b815260040160206040518083038186803b158015611ab757600080fd5b505afa158015611acb573d6000803e3d6000fd5b505050506040513d601f19601f82011682018060405250810190611aef9190612332565b905090565b60007f00000000000000000000000000000000000000000000000000000000000000006001600160a01b031663c34c08e56040518163ffffffff1660e01b8152600401602060405180830381600087803b158015611b5157600080fd5b505af1158015611acb573d6000803e3d6000fd5b611b6e82611f9d565b80826001016000828254611b8291906126a5565b90915550611b91905082612089565b6106fa5760405162461bcd60e51b815260206004820152602260248201527f43616e277420626f72726f773a20696e73756666696369656e742062616c616e60448201527f63650000000000000000000000000000000000000000000000000000000000006064820152608401610773565b600080611c41606b60009081526020527f2dc7a963308417ad45132da282495eb244f38a7db03940a4d808be607669c622546001600160a01b031690565b6001600160a01b031663b0411f466040518163ffffffff1660e01b8152600401604080518083038186803b158015611c7857600080fd5b505afa158015611c8c573d6000803e3d6000fd5b505050506040513d601f19601f82011682018060405250810190611cb09190612379565b509050600e54601154611cc391906126dd565b6001600160a01b039091166000908152600c602052604090205411905090565b60408051600080825260208201928390529051909182918291611d0991600b9190612288565b5060005b8086511115611e47576000868281518110611d3857634e487b7160e01b600052603260045260246000fd5b60200260200101519050600060086000836001600160a01b03166001600160a01b031681526020019081526020016000209050611d74816120d5565b15611dfd57600b80546001810182556000919091527f0175b7a638427703f0dbe7bb9bbf987a2551717b34e79f33b5b1008d1fa01db901805473ffffffffffffffffffffffffffffffffffffffff19166001600160a01b0384161790556003810154611de090866126a5565b9450611deb81611f9d565b6001810154611dfa90856126a5565b93505b6001600160a01b0382166000908152600d602052604090208715611e3157611e24816117b6565b611e2e90886126a5565b96505b5050508080611e3f90612713565b915050611d0d565b509250925092565b600080611e8d606760009081526020527f682158d08466d11c566d5712d4396197fdd67e65be71d83c97ef719ec468867b546001600160a01b031690565b6001600160a01b031663351ae61084600060055460066040518563ffffffff1660e01b8152600401611ec294939291906125e9565b600060405180830381600087803b158015611edc57600080fd5b505af1158015611ef0573d6000803e3d6000fd5b505050506040513d6000823e601f3d908101601f19168201604052611f1891908101906124c4565b905060008160018351611f2b91906126fc565b81518110611f4957634e487b7160e01b600052603260045260246000fd5b602002602001015190508092505050919050565b611f6682611f9d565b80826001016000828254611f7a91906126fc565b90915550505050565b600081831115611f94575080611f97565b50815b92915050565b606660009081526020527f422cccb7cea5c0e46f340bb7b21b81debac329f72e31669c20ff0f3a05cc2b5b546001600160a01b0316600182015460028301546040517fe695fa68000000000000000000000000000000000000000000000000000000008152600481019290925230602483015260448201526001600160a01b03919091169063e695fa68906064016040805180830381600087803b15801561204457600080fd5b505af1158015612058573d6000803e3d6000fd5b505050506040513d601f19601f8201168201806040525081019061207c91906125c6565b6002830155600190910155565b60008061209583612112565b905060006120a2846121f4565b9050600a54826120b291906126dd565b6064600a546120c191906126fc565b6120cb90836126dd565b1015949350505050565b6000806120e183612112565b905060006120ee846121f4565b9050816007546120fe91906126dd565b6121098260646126dd565b10949350505050565b600061214f606a60009081526020527ff3261457f4fd0b7c00a1511877ab27b74183ac470be8db3a7ecdc64335f6f979546001600160a01b031690565b60025460018401546040517f4cb776620000000000000000000000000000000000000000000000000000000081526001600160a01b0392831660048201526024810191909152911690634cb77662906044015b602060405180830381600087803b1580156121bc57600080fd5b505af11580156121d0573d6000803e3d6000fd5b505050506040513d601f19601f82011682018060405250810190611f97919061257f565b6000612231606a60009081526020527ff3261457f4fd0b7c00a1511877ab27b74183ac470be8db3a7ecdc64335f6f979546001600160a01b031690565b60038054908401546040517f4cb776620000000000000000000000000000000000000000000000000000000081526001600160a01b0392831660048201526024810191909152911690634cb77662906044016121a2565b8280548282559060005260206000209081019282156122ea579160200282015b828111156122ea578251825473ffffffffffffffffffffffffffffffffffffffff19166001600160a01b039091161782556020909201916001909101906122a8565b506122f69291506122fa565b5090565b5b808211156122f657600081556001016122fb565b600060208284031215612320578081fd5b813561232b8161275a565b9392505050565b600060208284031215612343578081fd5b815161232b8161275a565b60008060408385031215612360578081fd5b823561236b8161275a565b946020939093013593505050565b6000806040838503121561238b578182fd5b82516123968161275a565b6020939093015192949293505050565b6000806000606084860312156123ba578081fd5b83356123c58161275a565b95602085013595506040909401359392505050565b600080600080608085870312156123ef578081fd5b84356123fa8161275a565b93506020850135925060408501359150606085013561241881612772565b939692955090935050565b60006020808385031215612435578182fd5b823567ffffffffffffffff81111561244b578283fd5b8301601f8101851361245b578283fd5b803561246e61246982612681565b612650565b80828252848201915084840188868560051b870101111561248d578687fd5b8694505b838510156124b85780356124a48161275a565b835260019490940193918501918501612491565b50979650505050505050565b600060208083850312156124d6578182fd5b825167ffffffffffffffff8111156124ec578283fd5b8301601f810185136124fc578283fd5b805161250a61246982612681565b80828252848201915084840188868560051b8701011115612529578687fd5b8694505b838510156124b857805183526001949094019391850191850161252d565b60006020828403121561255c578081fd5b815161232b81612772565b600060208284031215612578578081fd5b5035919050565b600060208284031215612590578081fd5b5051919050565b600080604083850312156125a9578182fd5b8235915060208301356125bb8161275a565b809150509250929050565b600080604083850312156125d8578182fd5b505080516020909101519092909150565b600060808201868352602086818501528560408501526080606085015281855480845260a0860191508685528285209350845b818110156126415784546001600160a01b03168352600194850194928401920161261c565b50909998505050505050505050565b604051601f8201601f1916810167ffffffffffffffff8111828210171561267957612679612744565b604052919050565b600067ffffffffffffffff82111561269b5761269b612744565b5060051b60200190565b600082198211156126b8576126b861272e565b500190565b6000826126d857634e487b7160e01b81526012600452602481fd5b500490565b60008160001904831182151516156126f7576126f761272e565b500290565b60008282101561270e5761270e61272e565b500390565b60006000198214156127275761272761272e565b5060010190565b634e487b7160e01b600052601160045260246000fd5b634e487b7160e01b600052604160045260246000fd5b6001600160a01b038116811461276f57600080fd5b50565b801515811461276f57600080fdfea264697066735822122045483bdd0b22d527b987ad77531dbcef2f61a0f5aef505c64c88db4ffe61f97664736f6c63430008030033",
  "linkReferences": {},
  "deployedLinkReferences": {}
}