{
  "_format": "hh-sol-artifact-1",
  "contractName": "IsolatedMarginTrading",
  "sourceName": "contracts/IsolatedMarginTrading.sol",
  "abi": [
    {
      "inputs": [
        {
          "internalType": "address",
          "name": "_roles",
          "type": "address"
        }
      ],
      "stateMutability": "nonpayable",
      "type": "constructor"
    },
    {
      "anonymous": false,
      "inputs": [
        {
          "indexed": false,
          "internalType": "address",
          "name": "account",
          "type": "address"
        }
      ],
      "name": "AccountLiquidated",
      "type": "event"
    },
    {
      "anonymous": false,
      "inputs": [
        {
          "indexed": false,
          "internalType": "uint256",
          "name": "amount",
          "type": "uint256"
        }
      ],
      "name": "LiquidationShortfall",
      "type": "event"
    },
    {
      "inputs": [],
      "name": "MAINTAINER_CUT_PERCENT",
      "outputs": [
        {
          "internalType": "uint256",
          "name": "",
          "type": "uint256"
        }
      ],
      "stateMutability": "view",
      "type": "function"
    },
    {
      "inputs": [],
      "name": "amms",
      "outputs": [
        {
          "internalType": "bytes32",
          "name": "",
          "type": "bytes32"
        }
      ],
      "stateMutability": "view",
      "type": "function"
    },
    {
      "inputs": [],
      "name": "avgLiquidationPerCall",
      "outputs": [
        {
          "internalType": "uint256",
          "name": "",
          "type": "uint256"
        }
      ],
      "stateMutability": "view",
      "type": "function"
    },
    {
      "inputs": [],
      "name": "borrowToken",
      "outputs": [
        {
          "internalType": "address",
          "name": "",
          "type": "address"
        }
      ],
      "stateMutability": "view",
      "type": "function"
    },
    {
      "inputs": [],
      "name": "coolingOffPeriod",
      "outputs": [
        {
          "internalType": "uint256",
          "name": "",
          "type": "uint256"
        }
      ],
      "stateMutability": "view",
      "type": "function"
    },
    {
      "inputs": [
        {
          "internalType": "address[]",
          "name": "liquidatedAccounts",
          "type": "address[]"
        }
      ],
      "name": "disburseLiqStakeAttacks",
      "outputs": [],
      "stateMutability": "nonpayable",
      "type": "function"
    },
    {
      "inputs": [],
      "name": "failureThreshold",
      "outputs": [
        {
          "internalType": "uint256",
          "name": "",
          "type": "uint256"
        }
      ],
      "stateMutability": "view",
      "type": "function"
    },
    {
      "inputs": [
        {
          "internalType": "address",
          "name": "trader",
          "type": "address"
        }
      ],
      "name": "getLastDepositBlock",
      "outputs": [
        {
          "internalType": "uint256",
          "name": "",
          "type": "uint256"
        }
      ],
      "stateMutability": "view",
      "type": "function"
    },
    {
      "inputs": [],
      "name": "holdingToken",
      "outputs": [
        {
          "internalType": "address",
          "name": "",
          "type": "address"
        }
      ],
      "stateMutability": "view",
      "type": "function"
    },
    {
      "inputs": [],
      "name": "leveragePercent",
      "outputs": [
        {
          "internalType": "uint256",
          "name": "",
          "type": "uint256"
        }
      ],
      "stateMutability": "view",
      "type": "function"
    },
    {
      "inputs": [],
      "name": "liqStakeAttackWindow",
      "outputs": [
        {
          "internalType": "uint256",
          "name": "",
          "type": "uint256"
        }
      ],
      "stateMutability": "view",
      "type": "function"
    },
    {
      "inputs": [
        {
          "internalType": "address[]",
          "name": "liquidationCandidates",
          "type": "address[]"
        }
      ],
      "name": "liquidate",
      "outputs": [
        {
          "internalType": "uint256",
          "name": "maintainerCut",
          "type": "uint256"
        }
      ],
      "stateMutability": "nonpayable",
      "type": "function"
    },
    {
      "inputs": [],
      "name": "liquidationThresholdPercent",
      "outputs": [
        {
          "internalType": "uint256",
          "name": "",
          "type": "uint256"
        }
      ],
      "stateMutability": "view",
      "type": "function"
    },
    {
      "inputs": [
        {
          "internalType": "uint256",
          "name": "",
          "type": "uint256"
        }
      ],
      "name": "liquidationTokens",
      "outputs": [
        {
          "internalType": "address",
          "name": "",
          "type": "address"
        }
      ],
      "stateMutability": "view",
      "type": "function"
    },
    {
      "inputs": [
        {
          "internalType": "uint256",
          "name": "",
          "type": "uint256"
        }
      ],
      "name": "mainCharacterCache",
      "outputs": [
        {
          "internalType": "address",
          "name": "",
          "type": "address"
        }
      ],
      "stateMutability": "view",
      "type": "function"
    },
    {
      "inputs": [
        {
          "internalType": "address",
          "name": "",
          "type": "address"
        }
      ],
      "name": "maintenanceFailures",
      "outputs": [
        {
          "internalType": "uint256",
          "name": "",
          "type": "uint256"
        }
      ],
      "stateMutability": "view",
      "type": "function"
    },
    {
      "inputs": [
        {
          "internalType": "address",
          "name": "",
          "type": "address"
        }
      ],
      "name": "marginAccounts",
      "outputs": [
        {
          "internalType": "uint256",
          "name": "lastDepositBlock",
          "type": "uint256"
        },
        {
          "internalType": "uint256",
          "name": "borrowed",
          "type": "uint256"
        },
        {
          "internalType": "uint256",
          "name": "borrowedYieldQuotientFP",
          "type": "uint256"
        },
        {
          "internalType": "uint256",
          "name": "holding",
          "type": "uint256"
        }
      ],
      "stateMutability": "view",
      "type": "function"
    },
    {
      "inputs": [
        {
          "internalType": "address",
          "name": "trader",
          "type": "address"
        }
      ],
      "name": "registerCloseAccount",
      "outputs": [
        {
          "internalType": "uint256",
          "name": "holdingAmount",
          "type": "uint256"
        }
      ],
      "stateMutability": "nonpayable",
      "type": "function"
    },
    {
      "inputs": [
        {
          "internalType": "address",
          "name": "trader",
          "type": "address"
        },
        {
          "internalType": "uint256",
          "name": "borrowed",
          "type": "uint256"
        },
        {
          "internalType": "uint256",
          "name": "holdingsAdded",
          "type": "uint256"
        },
        {
          "internalType": "bool",
          "name": "deposited",
          "type": "bool"
        }
      ],
      "name": "registerPosition",
      "outputs": [],
      "stateMutability": "nonpayable",
      "type": "function"
    },
    {
      "inputs": [
        {
          "internalType": "address",
          "name": "trader",
          "type": "address"
        },
        {
          "internalType": "uint256",
          "name": "extinguished",
          "type": "uint256"
        },
        {
          "internalType": "uint256",
          "name": "holdingsSold",
          "type": "uint256"
        }
      ],
      "name": "registerUnwind",
      "outputs": [],
      "stateMutability": "nonpayable",
      "type": "function"
    },
    {
      "inputs": [
        {
          "internalType": "address",
          "name": "",
          "type": "address"
        },
        {
          "internalType": "uint256",
          "name": "",
          "type": "uint256"
        }
      ],
      "name": "roleCache",
      "outputs": [
        {
          "internalType": "bool",
          "name": "",
          "type": "bool"
        }
      ],
      "stateMutability": "view",
      "type": "function"
    },
    {
      "inputs": [],
      "name": "roles",
      "outputs": [
        {
          "internalType": "contract Roles",
          "name": "",
          "type": "address"
        }
      ],
      "stateMutability": "view",
      "type": "function"
    },
    {
      "inputs": [
        {
          "internalType": "uint256",
          "name": "blocks",
          "type": "uint256"
        }
      ],
      "name": "setCoolingOffPeriod",
      "outputs": [],
      "stateMutability": "nonpayable",
      "type": "function"
    },
    {
      "inputs": [
        {
          "internalType": "uint256",
          "name": "threshFactor",
          "type": "uint256"
        }
      ],
      "name": "setFailureThreshold",
      "outputs": [],
      "stateMutability": "nonpayable",
      "type": "function"
    },
    {
      "inputs": [
        {
          "internalType": "uint256",
          "name": "_leveragePercent",
          "type": "uint256"
        }
      ],
      "name": "setLeveragePercent",
      "outputs": [],
      "stateMutability": "nonpayable",
      "type": "function"
    },
    {
      "inputs": [
        {
          "internalType": "uint256",
          "name": "window",
          "type": "uint256"
        }
      ],
      "name": "setLiqStakeAttackWindow",
      "outputs": [],
      "stateMutability": "nonpayable",
      "type": "function"
    },
    {
      "inputs": [
        {
          "internalType": "uint256",
          "name": "threshold",
          "type": "uint256"
        }
      ],
      "name": "setLiquidationThresholdPercent",
      "outputs": [],
      "stateMutability": "nonpayable",
      "type": "function"
    },
    {
      "inputs": [
        {
          "internalType": "uint256",
          "name": "cut",
          "type": "uint256"
        }
      ],
      "name": "setMaintainerCutPercent",
      "outputs": [],
      "stateMutability": "nonpayable",
      "type": "function"
    },
    {
      "inputs": [
        {
          "internalType": "address",
          "name": "",
          "type": "address"
        }
      ],
      "name": "stakeAttackRecords",
      "outputs": [
        {
          "internalType": "uint256",
          "name": "blockNum",
          "type": "uint256"
        },
        {
          "internalType": "address",
          "name": "loser",
          "type": "address"
        },
        {
          "internalType": "uint256",
          "name": "amount",
          "type": "uint256"
        },
        {
          "internalType": "address",
          "name": "stakeAttacker",
          "type": "address"
        }
      ],
      "stateMutability": "view",
      "type": "function"
    },
    {
      "inputs": [],
      "name": "totalDebt",
      "outputs": [
        {
          "internalType": "uint256",
          "name": "",
          "type": "uint256"
        }
      ],
      "stateMutability": "view",
      "type": "function"
    },
    {
      "inputs": [
        {
          "internalType": "uint256",
          "name": "role",
          "type": "uint256"
        }
      ],
      "name": "updateMainCharacterCache",
      "outputs": [],
      "stateMutability": "nonpayable",
      "type": "function"
    },
    {
      "inputs": [
        {
          "internalType": "uint256",
          "name": "role",
          "type": "uint256"
        },
        {
          "internalType": "address",
          "name": "contr",
          "type": "address"
        }
      ],
      "name": "updateRoleCache",
      "outputs": [],
      "stateMutability": "nonpayable",
      "type": "function"
    }
  ],
  "bytecode": "0x60a0604052607360075560146009556101f4600a55600a600e556005600f556005601055600a6011553480156200003557600080fd5b5060405162002f9e38038062002f9e8339810160408190526200005891620000d6565b806001600160a01b038116620000bf5760405162461bcd60e51b815260206004820152602260248201527f506c656173652070726f766964652076616c696420726f6c6573206164647265604482015261737360f01b606482015260840160405180910390fd5b60601b6001600160601b0319166080525062000106565b600060208284031215620000e8578081fd5b81516001600160a01b0381168114620000ff578182fd5b9392505050565b60805160601c612e5d6200014160003960008181610275015281816105a20152818161097101528181611ed00152611f750152612e5d6000f3fe608060405234801561001057600080fd5b50600436106101ef5760003560e01c806391dfcb481161010f578063c5f1d5c2116100a2578063eac29dd611610071578063eac29dd614610531578063f99fd97c14610544578063fb62f43114610557578063fc7b9c181461056a576101ef565b8063c5f1d5c2146104c2578063c73afac2146104d5578063c74303aa146104e8578063e9c3f77d146104fb576101ef565b8063a53ac0d9116100de578063a53ac0d9146103ff578063a75697a514610408578063a985994b14610428578063badb50481461043b576101ef565b806391dfcb48146103645780639c498bc314610377578063a1ad54e6146103cc578063a3718919146103ec576101ef565b8063447d52ba116101875780636585b5a6116101565780636585b5a6146103015780637a1a04df1461030a5780637d100e84146103485780638b2db56914610351576101ef565b8063447d52ba146102bc578063456dc17a146102cf5780634aa4aca3146102ef578063538edb29146102f8576101ef565b806316317e7e116101c357806316317e7e1461024b5780632febaa741461025e578063320d2fa014610267578063392f5f6414610270576101ef565b80620a0016146101f4578063071060a61461021057806307c201751461022557806310d5843414610238575b600080fd5b6101fd60055481565b6040519081526020015b60405180910390f35b61022361021e366004612b4f565b610573565b005b610223610233366004612a0b565b610684565b610223610246366004612b4f565b6107bc565b610223610259366004612b4f565b610873565b6101fd60095481565b6101fd60075481565b6102977f000000000000000000000000000000000000000000000000000000000000000081565b60405173ffffffffffffffffffffffffffffffffffffffff9091168152602001610207565b6102236102ca366004612b7f565b610925565b6002546102979073ffffffffffffffffffffffffffffffffffffffff1681565b6101fd600f5481565b6101fd60105481565b6101fd600e5481565b610338610318366004612936565b600160209081526000928352604080842090915290825290205460ff1681565b6040519015158152602001610207565b6101fd60115481565b61022361035f3660046129c2565b610a4e565b6101fd6103723660046128f7565b610b54565b6103ac6103853660046128f7565b60086020526000908152604090208054600182015460028301546003909301549192909184565b604080519485526020850193909352918301526060820152608001610207565b6003546102979073ffffffffffffffffffffffffffffffffffffffff1681565b6102236103fa366004612b4f565b610dbd565b6101fd600a5481565b6101fd6104163660046128f7565b600c6020526000908152604090205481565b6101fd610436366004612a0b565b610e6f565b61048a6104493660046128f7565b600d602052600090815260409020805460018201546002830154600390930154919273ffffffffffffffffffffffffffffffffffffffff9182169290911684565b6040805194855273ffffffffffffffffffffffffffffffffffffffff9384166020860152840191909152166060820152608001610207565b6102236104d036600461298e565b6117af565b6102236104e3366004612b4f565b61196c565b6102236104f6366004612b4f565b611a1e565b610297610509366004612b4f565b60006020819052908152604090205473ffffffffffffffffffffffffffffffffffffffff1681565b6101fd61053f3660046128f7565b611ad0565b610223610552366004612b4f565b611afc565b610297610565366004612b4f565b611bae565b6101fd60045481565b6040517fb4ed0b6d000000000000000000000000000000000000000000000000000000008152600481018290527f000000000000000000000000000000000000000000000000000000000000000073ffffffffffffffffffffffffffffffffffffffff169063b4ed0b6d9060240160206040518083038186803b1580156105f957600080fd5b505afa15801561060d573d6000803e3d6000fd5b505050506040513d601f19601f82011682018060405250810190610631919061291a565b60009182526020829052604090912080547fffffffffffffffffffffffff00000000000000000000000000000000000000001673ffffffffffffffffffffffffffffffffffffffff909216919091179055565b60005b80825111156107b85760008282815181106106cb577f4e487b7100000000000000000000000000000000000000000000000000000000600052603260045260246000fd5b602002602001015190506000600d60008373ffffffffffffffffffffffffffffffffffffffff1673ffffffffffffffffffffffffffffffffffffffff1681526020019081526020016000209050600f54816000015461072a9190612cb8565b4311156107a35761073a81611be5565b5073ffffffffffffffffffffffffffffffffffffffff82166000908152600d602052604081208181556001810180547fffffffffffffffffffffffff00000000000000000000000000000000000000009081169091556002820192909255600301805490911690555b505080806107b090612d5d565b915050610687565b5050565b336107c5611ecc565b73ffffffffffffffffffffffffffffffffffffffff1614806108035750336107eb611f71565b73ffffffffffffffffffffffffffffffffffffffff16145b61086e576040517f08c379a000000000000000000000000000000000000000000000000000000000815260206004820152601e60248201527f526f6c65733a2063616c6c6572206973206e6f7420746865206f776e6572000060448201526064015b60405180910390fd5b601155565b3361087c611ecc565b73ffffffffffffffffffffffffffffffffffffffff1614806108ba5750336108a2611f71565b73ffffffffffffffffffffffffffffffffffffffff16145b610920576040517f08c379a000000000000000000000000000000000000000000000000000000000815260206004820152601e60248201527f526f6c65733a2063616c6c6572206973206e6f7420746865206f776e657200006044820152606401610865565b600755565b6040517f93552a3d0000000000000000000000000000000000000000000000000000000081526004810183905273ffffffffffffffffffffffffffffffffffffffff82811660248301527f000000000000000000000000000000000000000000000000000000000000000016906393552a3d9060440160206040518083038186803b1580156109b357600080fd5b505afa1580156109c7573d6000803e3d6000fd5b505050506040513d601f19601f820116820180604052508101906109eb9190612b33565b73ffffffffffffffffffffffffffffffffffffffff9190911660009081526001602090815260408083209483529390529190912080547fffffffffffffffffffffffffffffffffffffffffffffffffffffffffffffff0016911515919091179055565b3360009081526001602090815260408083206004845290915290205460ff16610af9576040517f08c379a000000000000000000000000000000000000000000000000000000000815260206004820152602a60248201527f43616c6c696e6720636f6e7472616374206e6f7420617574686f72697a65642060448201527f746f206465706f736974000000000000000000000000000000000000000000006064820152608401610865565b73ffffffffffffffffffffffffffffffffffffffff8416600090815260086020526040812060038101805491928592610b33908490612cb8565b90915550610b4390508185611fef565b8115610b4d574381555b5050505050565b3360009081526001602090815260408083206004845290915281205460ff16610bff576040517f08c379a000000000000000000000000000000000000000000000000000000000815260206004820152602a60248201527f43616c6c696e6720636f6e7472616374206e6f7420617574686f72697a65642060448201527f746f206465706f736974000000000000000000000000000000000000000000006064820152608401610865565b73ffffffffffffffffffffffffffffffffffffffff821660009081526008602052604090206009548154610c339190612cb8565b4311610ce7576040517f08c379a000000000000000000000000000000000000000000000000000000000815260206004820152605260248201527f546f2070726576656e742061747461636b7320796f75206d757374207761697460448201527f20756e74696c20796f757220636f6f6c696e67206f666620706572696f64206960648201527f73206f76657220746f2077697468647261770000000000000000000000000000608482015260a401610865565b600181015415610d78576040517f08c379a0000000000000000000000000000000000000000000000000000000008152602060048201526024808201527f43616e277420636c6f7365206163636f756e742074686174277320626f72726f60448201527f77696e67000000000000000000000000000000000000000000000000000000006064820152608401610865565b60039081015473ffffffffffffffffffffffffffffffffffffffff90931660009081526008602052604081208181556001810182905560028101829055909101555090565b33610dc6611ecc565b73ffffffffffffffffffffffffffffffffffffffff161480610e04575033610dec611f71565b73ffffffffffffffffffffffffffffffffffffffff16145b610e6a576040517f08c379a000000000000000000000000000000000000000000000000000000000815260206004820152601e60248201527f526f6c65733a2063616c6c6572206973206e6f7420746865206f776e657200006044820152606401610865565b600f55565b6000333214610f00576040517f08c379a000000000000000000000000000000000000000000000000000000000815260206004820152603a60248201527f43757272656e746c79206e6f20696e7465726d656469617269657320616c6c6f60448201527f77656420666f7220746869732066756e6374696f6e2063616c6c0000000000006064820152608401610865565b6000610f4a606b60009081526020527f2dc7a963308417ad45132da282495eb244f38a7db03940a4d808be607669c6225473ffffffffffffffffffffffffffffffffffffffff1690565b6040517f7b23cbce00000000000000000000000000000000000000000000000000000000815233600482015273ffffffffffffffffffffffffffffffffffffffff9190911690637b23cbce90602401602060405180830381600087803b158015610fb357600080fd5b505af1158015610fc7573d6000803e3d6000fd5b505050506040513d601f19601f82011682018060405250810190610feb9190612b33565b905060008180610ffe5750610ffe6120a7565b905060008061100d86856121ae565b91965092509050600061101f83612372565b9050606460105460646110329190612cb8565b61103c9190612cd0565b6110469083612d09565b91508082111561114657600061105c8284612d46565b90507f3555ffae7677eb42103f0b9e11b61c758f452fae446684dec7a363dd38ab58fc8160405161108f91815260200190565b60405180910390a1606660009081526020527f422cccb7cea5c0e46f340bb7b21b81debac329f72e31669c20ff0f3a05cc2b5b546040517fd4437dd80000000000000000000000000000000000000000000000000000000081526004810183905273ffffffffffffffffffffffffffffffffffffffff9091169063d4437dd890602401600060405180830381600087803b15801561112c57600080fd5b505af1158015611140573d6000803e3d6000fd5b50505050505b60008461121157606b60009081526020527f2dc7a963308417ad45132da282495eb244f38a7db03940a4d808be607669c6225473ffffffffffffffffffffffffffffffffffffffff1673ffffffffffffffffffffffffffffffffffffffff16631a38de1d6040518163ffffffff1660e01b8152600401602060405180830381600087803b1580156111d657600080fd5b505af11580156111ea573d6000803e3d6000fd5b505050506040513d601f19601f8201168201806040525081019061120e919061291a565b90505b60005b600b548110156114fa576000600b828154811061125a577f4e487b7100000000000000000000000000000000000000000000000000000000600052603260045260246000fd5b600091825260208083209091015473ffffffffffffffffffffffffffffffffffffffff1680835260089091526040822060105460018201549294509092916064916112a491612d09565b6112ae9190612cd0565b90506112ba818c612cb8565b9a50886113345773ffffffffffffffffffffffffffffffffffffffff8381166000908152600d6020526040902060028101839055600381018054337fffffffffffffffffffffffff000000000000000000000000000000000000000091821617909155438255600190910180549091169187169190911790555b6000888784600301546113479190612d09565b6113519190612cd0565b90508260010154826113639190612cb8565b811061146357606560009081526020527f4a7203f705e51df4a56139a9b86b4a0970bed7ab7a3446eaffe2289989c1645c54600254600185015473ffffffffffffffffffffffffffffffffffffffff9283169263d9caed12921690879086906113cc9087612d46565b6113d69190612d46565b6040517fffffffff0000000000000000000000000000000000000000000000000000000060e086901b16815273ffffffffffffffffffffffffffffffffffffffff93841660048201529290911660248301526044820152606401600060405180830381600087803b15801561144a57600080fd5b505af115801561145e573d6000803e3d6000fd5b505050505b60405173ffffffffffffffffffffffffffffffffffffffff851681527f1d2cc4c8661a04a00b4e727426220501b36d85bb330947642c2d4320667028cf9060200160405180910390a150505073ffffffffffffffffffffffffffffffffffffffff166000908152600860205260408120818155600181018290556002810182905560030155806114f281612d5d565b915050611214565b50606487600e54606361150d9190612d09565b6115179190612cb8565b6115219190612cd0565b600e5584156115fe57606560009081526020527f4a7203f705e51df4a56139a9b86b4a0970bed7ab7a3446eaffe2289989c1645c5473ffffffffffffffffffffffffffffffffffffffff166002546040517fd9caed1200000000000000000000000000000000000000000000000000000000815273ffffffffffffffffffffffffffffffffffffffff9182166004820152336024820152604481018a905291169063d9caed1290606401600060405180830381600087803b1580156115e557600080fd5b505af11580156115f9573d6000803e3d6000fd5b505050505b6000611648606b60009081526020527f2dc7a963308417ad45132da282495eb244f38a7db03940a4d808be607669c6225473ffffffffffffffffffffffffffffffffffffffff1690565b73ffffffffffffffffffffffffffffffffffffffff16631a38de1d6040518163ffffffff1660e01b8152600401602060405180830381600087803b15801561168f57600080fd5b505af11580156116a3573d6000803e3d6000fd5b505050506040513d601f19601f820116820180604052508101906116c7919061291a565b905086156117685773ffffffffffffffffffffffffffffffffffffffff81166000908152600c602052604090205488101561173c5773ffffffffffffffffffffffffffffffffffffffff81166000908152600c6020526040812080548a9290611731908490612d46565b909155506117639050565b73ffffffffffffffffffffffffffffffffffffffff81166000908152600c60205260408120555b6117a3565b73ffffffffffffffffffffffffffffffffffffffff81166000908152600c6020526040812080548a929061179d908490612cb8565b90915550505b50505050505050919050565b3360009081526001602090815260408083206004845290915290205460ff1661185a576040517f08c379a000000000000000000000000000000000000000000000000000000000815260206004820152602b60248201527f43616c6c696e6720636f6e7472616374206e6f7420617574686f72697a65642060448201527f746f2077697468647261770000000000000000000000000000000000000000006064820152608401610865565b73ffffffffffffffffffffffffffffffffffffffff83166000908152600860205260409020600954815461188e9190612cb8565b4311611942576040517f08c379a000000000000000000000000000000000000000000000000000000000815260206004820152605260248201527f546f2070726576656e742061747461636b7320796f75206d757374207761697460448201527f20756e74696c20796f757220636f6f6c696e67206f666620706572696f64206960648201527f73206f76657220746f2077697468647261770000000000000000000000000000608482015260a401610865565b818160030160008282546119569190612d46565b90915550611966905081846124d1565b50505050565b33611975611ecc565b73ffffffffffffffffffffffffffffffffffffffff1614806119b357503361199b611f71565b73ffffffffffffffffffffffffffffffffffffffff16145b611a19576040517f08c379a000000000000000000000000000000000000000000000000000000000815260206004820152601e60248201527f526f6c65733a2063616c6c6572206973206e6f7420746865206f776e657200006044820152606401610865565b601055565b33611a27611ecc565b73ffffffffffffffffffffffffffffffffffffffff161480611a65575033611a4d611f71565b73ffffffffffffffffffffffffffffffffffffffff16145b611acb576040517f08c379a000000000000000000000000000000000000000000000000000000000815260206004820152601e60248201527f526f6c65733a2063616c6c6572206973206e6f7420746865206f776e657200006044820152606401610865565b600a55565b73ffffffffffffffffffffffffffffffffffffffff81166000908152600860205260409020545b919050565b33611b05611ecc565b73ffffffffffffffffffffffffffffffffffffffff161480611b43575033611b2b611f71565b73ffffffffffffffffffffffffffffffffffffffff16145b611ba9576040517f08c379a000000000000000000000000000000000000000000000000000000000815260206004820152601e60248201527f526f6c65733a2063616c6c6572206973206e6f7420746865206f776e657200006044820152606401610865565b600955565b60068181548110611bbe57600080fd5b60009182526020909120015473ffffffffffffffffffffffffffffffffffffffff16905081565b600281015460009015611af7578154600090611c0d90611c059043612d46565b600f546124f7565b90506000600f54828560020154611c249190612d09565b611c2e9190612cd0565b9050611c78606560009081526020527f4a7203f705e51df4a56139a9b86b4a0970bed7ab7a3446eaffe2289989c1645c5473ffffffffffffffffffffffffffffffffffffffff1690565b60025460038601546040517fd9caed1200000000000000000000000000000000000000000000000000000000815273ffffffffffffffffffffffffffffffffffffffff928316600482015290821660248201526044810184905291169063d9caed1290606401600060405180830381600087803b158015611cf857600080fd5b505af1158015611d0c573d6000803e3d6000fd5b505050506000611d5a606b60009081526020527f2dc7a963308417ad45132da282495eb244f38a7db03940a4d808be607669c6225473ffffffffffffffffffffffffffffffffffffffff1690565b90506000600e54838373ffffffffffffffffffffffffffffffffffffffff16630ad691506040518163ffffffff1660e01b815260040160206040518083038186803b158015611da857600080fd5b505afa158015611dbc573d6000803e3d6000fd5b505050506040513d601f19601f82011682018060405250810190611de09190612b67565b611dea9190612d09565b611df49190612cd0565b600187015460038801546040517f0a45bc1b00000000000000000000000000000000000000000000000000000000815273ffffffffffffffffffffffffffffffffffffffff9283166004820152602481018490529082166044820152919250831690630a45bc1b90606401602060405180830381600087803b158015611e7957600080fd5b505af1158015611e8d573d6000803e3d6000fd5b505050506040513d601f19601f82011682018060405250810190611eb19190612b67565b50828660020154611ec29190612d46565b9695505050505050565b60007f000000000000000000000000000000000000000000000000000000000000000073ffffffffffffffffffffffffffffffffffffffff16638da5cb5b6040518163ffffffff1660e01b815260040160206040518083038186803b158015611f3457600080fd5b505afa158015611f48573d6000803e3d6000fd5b505050506040513d601f19601f82011682018060405250810190611f6c919061291a565b905090565b60007f000000000000000000000000000000000000000000000000000000000000000073ffffffffffffffffffffffffffffffffffffffff1663c34c08e56040518163ffffffff1660e01b8152600401602060405180830381600087803b158015611fdb57600080fd5b505af1158015611f48573d6000803e3d6000fd5b611ff882612511565b8082600101600082825461200c9190612cb8565b9091555061201b905082612617565b6107b8576040517f08c379a000000000000000000000000000000000000000000000000000000000815260206004820152602260248201527f43616e277420626f72726f773a20696e73756666696369656e742062616c616e60448201527f63650000000000000000000000000000000000000000000000000000000000006064820152608401610865565b6000806120f2606b60009081526020527f2dc7a963308417ad45132da282495eb244f38a7db03940a4d808be607669c6225473ffffffffffffffffffffffffffffffffffffffff1690565b73ffffffffffffffffffffffffffffffffffffffff1663b0411f466040518163ffffffff1660e01b8152600401604080518083038186803b15801561213657600080fd5b505afa15801561214a573d6000803e3d6000fd5b505050506040513d601f19601f8201168201806040525081019061216e9190612961565b509050600e546011546121819190612d09565b73ffffffffffffffffffffffffffffffffffffffff9091166000908152600c602052604090205411905090565b604080516000808252602082019283905290519091829182916121d491600b9190612858565b5060005b808651111561236a57600086828151811061221c577f4e487b7100000000000000000000000000000000000000000000000000000000600052603260045260246000fd5b602002602001015190506000600860008373ffffffffffffffffffffffffffffffffffffffff1673ffffffffffffffffffffffffffffffffffffffff168152602001908152602001600020905061227281612663565b1561231357600b80546001810182556000919091527f0175b7a638427703f0dbe7bb9bbf987a2551717b34e79f33b5b1008d1fa01db90180547fffffffffffffffffffffffff00000000000000000000000000000000000000001673ffffffffffffffffffffffffffffffffffffffff841617905560038101546122f69086612cb8565b945061230181612511565b60018101546123109085612cb8565b93505b73ffffffffffffffffffffffffffffffffffffffff82166000908152600d6020526040902087156123545761234781611be5565b6123519088612cb8565b96505b505050808061236290612d5d565b9150506121d8565b509250925092565b6000806123bd606760009081526020527f682158d08466d11c566d5712d4396197fdd67e65be71d83c97ef719ec468867b5473ffffffffffffffffffffffffffffffffffffffff1690565b73ffffffffffffffffffffffffffffffffffffffff1663351ae61084600060055460066040518563ffffffff1660e01b81526004016123ff9493929190612bd1565b600060405180830381600087803b15801561241957600080fd5b505af115801561242d573d6000803e3d6000fd5b505050506040513d6000823e601f3d9081017fffffffffffffffffffffffffffffffffffffffffffffffffffffffffffffffe01682016040526124739190810190612aac565b9050600081600183516124869190612d46565b815181106124bd577f4e487b7100000000000000000000000000000000000000000000000000000000600052603260045260246000fd5b602002602001015190508092505050919050565b6124da82612511565b808260010160008282546124ee9190612d46565b90915550505050565b60008183111561250857508061250b565b50815b92915050565b606660009081526020527f422cccb7cea5c0e46f340bb7b21b81debac329f72e31669c20ff0f3a05cc2b5b5473ffffffffffffffffffffffffffffffffffffffff16600182015460028301546040517fe695fa680000000000000000000000000000000000000000000000000000000081526004810192909252306024830152604482015273ffffffffffffffffffffffffffffffffffffffff919091169063e695fa68906064016040805180830381600087803b1580156125d257600080fd5b505af11580156125e6573d6000803e3d6000fd5b505050506040513d601f19601f8201168201806040525081019061260a9190612bae565b6002830155600190910155565b600080612623836126a0565b90506000612630846127a3565b9050600a54826126409190612d09565b6064600a5461264f9190612d46565b6126599083612d09565b1015949350505050565b60008061266f836126a0565b9050600061267c846127a3565b90508160075461268c9190612d09565b612697826064612d09565b10949350505050565b60006126ea606a60009081526020527ff3261457f4fd0b7c00a1511877ab27b74183ac470be8db3a7ecdc64335f6f9795473ffffffffffffffffffffffffffffffffffffffff1690565b60025460018401546040517f60b3fa4000000000000000000000000000000000000000000000000000000000815273ffffffffffffffffffffffffffffffffffffffff92831660048201526024810191909152600060448201529116906360b3fa40906064015b602060405180830381600087803b15801561276b57600080fd5b505af115801561277f573d6000803e3d6000fd5b505050506040513d601f19601f8201168201806040525081019061250b9190612b67565b60006127ed606a60009081526020527ff3261457f4fd0b7c00a1511877ab27b74183ac470be8db3a7ecdc64335f6f9795473ffffffffffffffffffffffffffffffffffffffff1690565b60038054908401546040517f60b3fa4000000000000000000000000000000000000000000000000000000000815273ffffffffffffffffffffffffffffffffffffffff92831660048201526024810191909152600060448201529116906360b3fa4090606401612751565b8280548282559060005260206000209081019282156128d2579160200282015b828111156128d257825182547fffffffffffffffffffffffff00000000000000000000000000000000000000001673ffffffffffffffffffffffffffffffffffffffff909116178255602090920191600190910190612878565b506128de9291506128e2565b5090565b5b808211156128de57600081556001016128e3565b600060208284031215612908578081fd5b813561291381612df4565b9392505050565b60006020828403121561292b578081fd5b815161291381612df4565b60008060408385031215612948578081fd5b823561295381612df4565b946020939093013593505050565b60008060408385031215612973578182fd5b825161297e81612df4565b6020939093015192949293505050565b6000806000606084860312156129a2578081fd5b83356129ad81612df4565b95602085013595506040909401359392505050565b600080600080608085870312156129d7578081fd5b84356129e281612df4565b935060208501359250604085013591506060850135612a0081612e19565b939692955090935050565b60006020808385031215612a1d578182fd5b823567ffffffffffffffff811115612a33578283fd5b8301601f81018513612a43578283fd5b8035612a56612a5182612c94565b612c45565b80828252848201915084840188868560051b8701011115612a75578687fd5b8694505b83851015612aa0578035612a8c81612df4565b835260019490940193918501918501612a79565b50979650505050505050565b60006020808385031215612abe578182fd5b825167ffffffffffffffff811115612ad4578283fd5b8301601f81018513612ae4578283fd5b8051612af2612a5182612c94565b80828252848201915084840188868560051b8701011115612b11578687fd5b8694505b83851015612aa0578051835260019490940193918501918501612b15565b600060208284031215612b44578081fd5b815161291381612e19565b600060208284031215612b60578081fd5b5035919050565b600060208284031215612b78578081fd5b5051919050565b60008060408385031215612b91578182fd5b823591506020830135612ba381612df4565b809150509250929050565b60008060408385031215612bc0578182fd5b505080516020909101519092909150565b600060808201868352602086818501528560408501526080606085015281855480845260a0860191508685528285209350845b81811015612c3657845473ffffffffffffffffffffffffffffffffffffffff1683526001948501949284019201612c04565b50909998505050505050505050565b604051601f82017fffffffffffffffffffffffffffffffffffffffffffffffffffffffffffffffe016810167ffffffffffffffff81118282101715612c8c57612c8c612dc5565b604052919050565b600067ffffffffffffffff821115612cae57612cae612dc5565b5060051b60200190565b60008219821115612ccb57612ccb612d96565b500190565b600082612d04577f4e487b710000000000000000000000000000000000000000000000000000000081526012600452602481fd5b500490565b6000817fffffffffffffffffffffffffffffffffffffffffffffffffffffffffffffffff0483118215151615612d4157612d41612d96565b500290565b600082821015612d5857612d58612d96565b500390565b60007fffffffffffffffffffffffffffffffffffffffffffffffffffffffffffffffff821415612d8f57612d8f612d96565b5060010190565b7f4e487b7100000000000000000000000000000000000000000000000000000000600052601160045260246000fd5b7f4e487b7100000000000000000000000000000000000000000000000000000000600052604160045260246000fd5b73ffffffffffffffffffffffffffffffffffffffff81168114612e1657600080fd5b50565b8015158114612e1657600080fdfea26469706673582212207465e39a13ca22b55d18112d3e0878d10e6744221c91fef0a4562bc0fd84126364736f6c63430008030033",
  "linkReferences": {},
  "deployedLinkReferences": {}
}