{
  "_format": "hh-sol-artifact-1",
  "contractName": "IsolatedMarginTrading",
  "sourceName": "contracts/IsolatedMarginTrading.sol",
  "abi": [
    {
      "inputs": [
        {
          "internalType": "address",
          "name": "_roles",
          "type": "address"
        }
      ],
      "stateMutability": "nonpayable",
      "type": "constructor"
    },
    {
      "anonymous": false,
      "inputs": [
        {
          "indexed": false,
          "internalType": "address",
          "name": "account",
          "type": "address"
        }
      ],
      "name": "AccountLiquidated",
      "type": "event"
    },
    {
      "anonymous": false,
      "inputs": [
        {
          "indexed": false,
          "internalType": "uint256",
          "name": "amount",
          "type": "uint256"
        }
      ],
      "name": "LiquidationShortfall",
      "type": "event"
    },
    {
      "inputs": [],
      "name": "MAINTAINER_CUT_PERCENT",
      "outputs": [
        {
          "internalType": "uint256",
          "name": "",
          "type": "uint256"
        }
      ],
      "stateMutability": "view",
      "type": "function"
    },
    {
      "inputs": [],
      "name": "UPDATE_RATE_PERMIL",
      "outputs": [
        {
          "internalType": "uint256",
          "name": "",
          "type": "uint256"
        }
      ],
      "stateMutability": "view",
      "type": "function"
    },
    {
      "inputs": [],
      "name": "amms",
      "outputs": [
        {
          "internalType": "bytes32",
          "name": "",
          "type": "bytes32"
        }
      ],
      "stateMutability": "view",
      "type": "function"
    },
    {
      "inputs": [],
      "name": "avgLiquidationPerCall",
      "outputs": [
        {
          "internalType": "uint256",
          "name": "",
          "type": "uint256"
        }
      ],
      "stateMutability": "view",
      "type": "function"
    },
    {
      "inputs": [],
      "name": "borrowToken",
      "outputs": [
        {
          "internalType": "address",
          "name": "",
          "type": "address"
        }
      ],
      "stateMutability": "view",
      "type": "function"
    },
    {
      "inputs": [],
      "name": "coolingOffPeriod",
      "outputs": [
        {
          "internalType": "uint256",
          "name": "",
          "type": "uint256"
        }
      ],
      "stateMutability": "view",
      "type": "function"
    },
    {
      "inputs": [
        {
          "internalType": "address[]",
          "name": "liquidatedAccounts",
          "type": "address[]"
        }
      ],
      "name": "disburseLiqStakeAttacks",
      "outputs": [],
      "stateMutability": "nonpayable",
      "type": "function"
    },
    {
      "inputs": [],
      "name": "failureThreshold",
      "outputs": [
        {
          "internalType": "uint256",
          "name": "",
          "type": "uint256"
        }
      ],
      "stateMutability": "view",
      "type": "function"
    },
    {
      "inputs": [
        {
          "internalType": "address",
          "name": "trader",
          "type": "address"
        }
      ],
      "name": "getLastDepositBlock",
      "outputs": [
        {
          "internalType": "uint256",
          "name": "",
          "type": "uint256"
        }
      ],
      "stateMutability": "view",
      "type": "function"
    },
    {
      "inputs": [],
      "name": "holdingToken",
      "outputs": [
        {
          "internalType": "address",
          "name": "",
          "type": "address"
        }
      ],
      "stateMutability": "view",
      "type": "function"
    },
    {
      "inputs": [],
      "name": "leveragePercent",
      "outputs": [
        {
          "internalType": "uint256",
          "name": "",
          "type": "uint256"
        }
      ],
      "stateMutability": "view",
      "type": "function"
    },
    {
      "inputs": [],
      "name": "liqStakeAttackWindow",
      "outputs": [
        {
          "internalType": "uint256",
          "name": "",
          "type": "uint256"
        }
      ],
      "stateMutability": "view",
      "type": "function"
    },
    {
      "inputs": [
        {
          "internalType": "address[]",
          "name": "liquidationCandidates",
          "type": "address[]"
        }
      ],
      "name": "liquidate",
      "outputs": [
        {
          "internalType": "uint256",
          "name": "maintainerCut",
          "type": "uint256"
        }
      ],
      "stateMutability": "nonpayable",
      "type": "function"
    },
    {
      "inputs": [],
      "name": "liquidationThresholdPercent",
      "outputs": [
        {
          "internalType": "uint256",
          "name": "",
          "type": "uint256"
        }
      ],
      "stateMutability": "view",
      "type": "function"
    },
    {
      "inputs": [
        {
          "internalType": "uint256",
          "name": "",
          "type": "uint256"
        }
      ],
      "name": "liquidationTokens",
      "outputs": [
        {
          "internalType": "address",
          "name": "",
          "type": "address"
        }
      ],
      "stateMutability": "view",
      "type": "function"
    },
    {
      "inputs": [
        {
          "internalType": "uint256",
          "name": "",
          "type": "uint256"
        }
      ],
      "name": "mainCharacterCache",
      "outputs": [
        {
          "internalType": "address",
          "name": "",
          "type": "address"
        }
      ],
      "stateMutability": "view",
      "type": "function"
    },
    {
      "inputs": [
        {
          "internalType": "address",
          "name": "",
          "type": "address"
        }
      ],
      "name": "maintenanceFailures",
      "outputs": [
        {
          "internalType": "uint256",
          "name": "",
          "type": "uint256"
        }
      ],
      "stateMutability": "view",
      "type": "function"
    },
    {
      "inputs": [
        {
          "internalType": "address",
          "name": "",
          "type": "address"
        }
      ],
      "name": "marginAccounts",
      "outputs": [
        {
          "internalType": "uint256",
          "name": "lastDepositBlock",
          "type": "uint256"
        },
        {
          "internalType": "uint256",
          "name": "borrowed",
          "type": "uint256"
        },
        {
          "internalType": "uint256",
          "name": "borrowedYieldQuotientFP",
          "type": "uint256"
        },
        {
          "internalType": "uint256",
          "name": "holding",
          "type": "uint256"
        }
      ],
      "stateMutability": "view",
      "type": "function"
    },
    {
      "inputs": [],
      "name": "priceUpdateWindow",
      "outputs": [
        {
          "internalType": "uint16",
          "name": "",
          "type": "uint16"
        }
      ],
      "stateMutability": "view",
      "type": "function"
    },
    {
      "inputs": [
        {
          "internalType": "address",
          "name": "trader",
          "type": "address"
        }
      ],
      "name": "registerCloseAccount",
      "outputs": [
        {
          "internalType": "uint256",
          "name": "holdingAmount",
          "type": "uint256"
        }
      ],
      "stateMutability": "nonpayable",
      "type": "function"
    },
    {
      "inputs": [
        {
          "internalType": "address",
          "name": "trader",
          "type": "address"
        },
        {
          "internalType": "uint256",
          "name": "borrowed",
          "type": "uint256"
        },
        {
          "internalType": "uint256",
          "name": "holdingsAdded",
          "type": "uint256"
        }
      ],
      "name": "registerPosition",
      "outputs": [],
      "stateMutability": "nonpayable",
      "type": "function"
    },
    {
      "inputs": [
        {
          "internalType": "address",
          "name": "trader",
          "type": "address"
        },
        {
          "internalType": "uint256",
          "name": "extinguished",
          "type": "uint256"
        },
        {
          "internalType": "uint256",
          "name": "holdingsSold",
          "type": "uint256"
        }
      ],
      "name": "registerUnwind",
      "outputs": [],
      "stateMutability": "nonpayable",
      "type": "function"
    },
    {
      "inputs": [
        {
          "internalType": "address",
          "name": "",
          "type": "address"
        },
        {
          "internalType": "uint256",
          "name": "",
          "type": "uint256"
        }
      ],
      "name": "roleCache",
      "outputs": [
        {
          "internalType": "bool",
          "name": "",
          "type": "bool"
        }
      ],
      "stateMutability": "view",
      "type": "function"
    },
    {
      "inputs": [],
      "name": "roles",
      "outputs": [
        {
          "internalType": "contract Roles",
          "name": "",
          "type": "address"
        }
      ],
      "stateMutability": "view",
      "type": "function"
    },
    {
      "inputs": [
        {
          "internalType": "uint256",
          "name": "blocks",
          "type": "uint256"
        }
      ],
      "name": "setCoolingOffPeriod",
      "outputs": [],
      "stateMutability": "nonpayable",
      "type": "function"
    },
    {
      "inputs": [
        {
          "internalType": "uint256",
          "name": "threshFactor",
          "type": "uint256"
        }
      ],
      "name": "setFailureThreshold",
      "outputs": [],
      "stateMutability": "nonpayable",
      "type": "function"
    },
    {
      "inputs": [
        {
          "internalType": "uint256",
          "name": "_leveragePercent",
          "type": "uint256"
        }
      ],
      "name": "setLeveragePercent",
      "outputs": [],
      "stateMutability": "nonpayable",
      "type": "function"
    },
    {
      "inputs": [
        {
          "internalType": "uint256",
          "name": "window",
          "type": "uint256"
        }
      ],
      "name": "setLiqStakeAttackWindow",
      "outputs": [],
      "stateMutability": "nonpayable",
      "type": "function"
    },
    {
      "inputs": [
        {
          "internalType": "uint256",
          "name": "threshold",
          "type": "uint256"
        }
      ],
      "name": "setLiquidationThresholdPercent",
      "outputs": [],
      "stateMutability": "nonpayable",
      "type": "function"
    },
    {
      "inputs": [
        {
          "internalType": "uint256",
          "name": "cut",
          "type": "uint256"
        }
      ],
      "name": "setMaintainerCutPercent",
      "outputs": [],
      "stateMutability": "nonpayable",
      "type": "function"
    },
    {
      "inputs": [
        {
          "internalType": "address",
          "name": "",
          "type": "address"
        }
      ],
      "name": "stakeAttackRecords",
      "outputs": [
        {
          "internalType": "uint256",
          "name": "blockNum",
          "type": "uint256"
        },
        {
          "internalType": "address",
          "name": "loser",
          "type": "address"
        },
        {
          "internalType": "uint256",
          "name": "amount",
          "type": "uint256"
        },
        {
          "internalType": "address",
          "name": "stakeAttacker",
          "type": "address"
        }
      ],
      "stateMutability": "view",
      "type": "function"
    },
    {
      "inputs": [],
      "name": "totalDebt",
      "outputs": [
        {
          "internalType": "uint256",
          "name": "",
          "type": "uint256"
        }
      ],
      "stateMutability": "view",
      "type": "function"
    },
    {
      "inputs": [
        {
          "internalType": "uint256",
          "name": "role",
          "type": "uint256"
        }
      ],
      "name": "updateMainCharacterCache",
      "outputs": [],
      "stateMutability": "nonpayable",
      "type": "function"
    },
    {
      "inputs": [
        {
          "internalType": "uint256",
          "name": "role",
          "type": "uint256"
        },
        {
          "internalType": "address",
          "name": "contr",
          "type": "address"
        }
      ],
      "name": "updateRoleCache",
      "outputs": [],
      "stateMutability": "nonpayable",
      "type": "function"
    }
  ],
  "bytecode": "0x60a06040526007805461ffff19166008908117909155605090556014600b556101f4600c55600a6010819055600560118190556012556013553480156200004557600080fd5b50604051620026ad380380620026ad8339810160408190526200006891620000e6565b806001600160a01b038116620000cf5760405162461bcd60e51b815260206004820152602260248201527f506c656173652070726f766964652076616c696420726f6c6573206164647265604482015261737360f01b606482015260840160405180910390fd5b60601b6001600160601b0319166080525062000116565b600060208284031215620000f8578081fd5b81516001600160a01b03811681146200010f578182fd5b9392505050565b60805160601c61255c62000151600039600081816102ab015281816105b40152818161088401528181611896015261192e015261255c6000f3fe608060405234801561001057600080fd5b50600436106102255760003560e01c806391dfcb481161012a578063c56903c2116100bd578063e9c3f77d1161008c578063f99fd97c11610071578063f99fd97c14610556578063fb62f43114610569578063fc7b9c181461057c57610225565b8063e9c3f77d1461051a578063eac29dd61461054357610225565b8063c56903c2146104ce578063c5f1d5c2146104e1578063c73afac2146104f4578063c74303aa1461050757610225565b8063a53ac0d9116100f9578063a53ac0d914610425578063a75697a51461042e578063a985994b1461044e578063badb50481461046157610225565b806391dfcb48146103975780639c498bc3146103aa578063a1ad54e6146103ff578063a37189191461041257610225565b80633ed456fa116101bd578063519bda851161018c5780636585b5a6116101715780636585b5a6146103475780637a1a04df146103505780637d100e841461038e57610225565b8063519bda8514610335578063538edb291461033e57610225565b80633ed456fa146102e5578063447d52ba14610306578063456dc17a146103195780634aa4aca31461032c57610225565b806316317e7e116101f957806316317e7e146102815780632febaa7414610294578063320d2fa01461029d578063392f5f64146102a657610225565b80620a00161461022a578063071060a61461024657806307c201751461025b57806310d584341461026e575b600080fd5b61023360055481565b6040519081526020015b60405180910390f35b61025961025436600461231b565b610585565b005b6102596102693660046121d3565b610664565b61025961027c36600461231b565b610744565b61025961028f36600461231b565b6107c7565b610233600b5481565b61023360095481565b6102cd7f000000000000000000000000000000000000000000000000000000000000000081565b6040516001600160a01b03909116815260200161023d565b6007546102f39061ffff1681565b60405161ffff909116815260200161023d565b61025961031436600461234b565b610845565b6002546102cd906001600160a01b031681565b61023360115481565b61023360085481565b61023360125481565b61023360105481565b61037e61035e366004612147565b600160209081526000928352604080842090915290825290205460ff1681565b604051901515815260200161023d565b61023360135481565b6102336103a536600461210f565b610936565b6103df6103b836600461210f565b600a6020526000908152604090208054600182015460028301546003909301549192909184565b60408051948552602085019390935291830152606082015260800161023d565b6003546102cd906001600160a01b031681565b61025961042036600461231b565b610a7b565b610233600c5481565b61023361043c36600461210f565b600e6020526000908152604090205481565b61023361045c3660046121d3565b610af9565b6104a361046f36600461210f565b600f60205260009081526040902080546001820154600283015460039093015491926001600160a01b039182169290911684565b604080519485526001600160a01b03938416602086015284019190915216606082015260800161023d565b6102596104dc36600461219f565b6112c6565b6102596104ef36600461219f565b611387565b61025961050236600461231b565b611442565b61025961051536600461231b565b6114c0565b6102cd61052836600461231b565b6000602081905290815260409020546001600160a01b031681565b61023361055136600461210f565b61153e565b61025961056436600461231b565b61155d565b6102cd61057736600461231b565b6115db565b61023360045481565b6040517fb4ed0b6d000000000000000000000000000000000000000000000000000000008152600481018290527f00000000000000000000000000000000000000000000000000000000000000006001600160a01b03169063b4ed0b6d9060240160206040518083038186803b1580156105fe57600080fd5b505afa158015610612573d6000803e3d6000fd5b505050506040513d601f19601f82011682018060405250810190610636919061212b565b60009182526020829052604090912080546001600160a01b0319166001600160a01b03909216919091179055565b60005b808251111561074057600082828151811061069257634e487b7160e01b600052603260045260246000fd5b602002602001015190506000600f6000836001600160a01b03166001600160a01b03168152602001908152602001600020905060115481600001546106d79190612459565b43111561072b576106e781611605565b506001600160a01b0382166000908152600f602052604081208181556001810180546001600160a01b03199081169091556002820192909255600301805490911690555b50508080610738906124c7565b915050610667565b5050565b3361074d611892565b6001600160a01b0316148061077157503361076661192a565b6001600160a01b0316145b6107c25760405162461bcd60e51b815260206004820152601e60248201527f526f6c65733a2063616c6c6572206973206e6f7420746865206f776e6572000060448201526064015b60405180910390fd5b601355565b336107d0611892565b6001600160a01b031614806107f45750336107e961192a565b6001600160a01b0316145b6108405760405162461bcd60e51b815260206004820152601e60248201527f526f6c65733a2063616c6c6572206973206e6f7420746865206f776e6572000060448201526064016107b9565b600955565b6040517f93552a3d000000000000000000000000000000000000000000000000000000008152600481018390526001600160a01b0382811660248301527f000000000000000000000000000000000000000000000000000000000000000016906393552a3d9060440160206040518083038186803b1580156108c657600080fd5b505afa1580156108da573d6000803e3d6000fd5b505050506040513d601f19601f820116820180604052508101906108fe91906122fb565b6001600160a01b0391909116600090815260016020908152604080832094835293905291909120805460ff1916911515919091179055565b3360009081526001602090815260408083206004845290915281205460ff166109b45760405162461bcd60e51b815260206004820152602a60248201527f43616c6c696e6720636f6e7472616374206e6f7420617574686f72697a6564206044820152691d1bc819195c1bdcda5d60b21b60648201526084016107b9565b6001600160a01b0382166000908152600a60205260409020600181015415610a435760405162461bcd60e51b8152602060048201526024808201527f43616e277420636c6f7365206163636f756e742074686174277320626f72726f60448201527f77696e670000000000000000000000000000000000000000000000000000000060648201526084016107b9565b6003908101546001600160a01b039093166000908152600a602052604081208181556001810182905560028101829055909101555090565b33610a84611892565b6001600160a01b03161480610aa8575033610a9d61192a565b6001600160a01b0316145b610af45760405162461bcd60e51b815260206004820152601e60248201527f526f6c65733a2063616c6c6572206973206e6f7420746865206f776e6572000060448201526064016107b9565b601155565b6000333214610b705760405162461bcd60e51b815260206004820152603a60248201527f43757272656e746c79206e6f20696e7465726d656469617269657320616c6c6f60448201527f77656420666f7220746869732066756e6374696f6e2063616c6c00000000000060648201526084016107b9565b6000610bad606b60009081526020527f2dc7a963308417ad45132da282495eb244f38a7db03940a4d808be607669c622546001600160a01b031690565b6040517f7b23cbce0000000000000000000000000000000000000000000000000000000081523360048201526001600160a01b039190911690637b23cbce90602401602060405180830381600087803b158015610c0957600080fd5b505af1158015610c1d573d6000803e3d6000fd5b505050506040513d601f19601f82011682018060405250810190610c4191906122fb565b905060008180610c545750610c5461199b565b9050600080610c638685611a7b565b919650925090506000610c7583611bda565b905060646012546064610c889190612459565b610c929190612471565b610c9c9083612491565b915080821115610d77577f3555ffae7677eb42103f0b9e11b61c758f452fae446684dec7a363dd38ab58fc610cd182846124b0565b60405190815260200160405180910390a1606660009081526020527f422cccb7cea5c0e46f340bb7b21b81debac329f72e31669c20ff0f3a05cc2b5b546001600160a01b031663d4437dd8610d2683856124b0565b6040518263ffffffff1660e01b8152600401610d4491815260200190565b600060405180830381600087803b158015610d5e57600080fd5b505af1158015610d72573d6000803e3d6000fd5b505050505b600084610e2857606b60009081526020527f2dc7a963308417ad45132da282495eb244f38a7db03940a4d808be607669c622546001600160a01b03166001600160a01b0316631a38de1d6040518163ffffffff1660e01b8152600401602060405180830381600087803b158015610ded57600080fd5b505af1158015610e01573d6000803e3d6000fd5b505050506040513d601f19601f82011682018060405250810190610e25919061212b565b90505b60005b600d54811015611092576000600d8281548110610e5857634e487b7160e01b600052603260045260246000fd5b60009182526020808320909101546001600160a01b0316808352600a909152604082206012546001820154929450909291606491610e9591612491565b610e9f9190612471565b9050610eab818c612459565b9a5088610f00576001600160a01b038381166000908152600f6020526040902060028101839055600381018054336001600160a01b031991821617909155438255600190910180549091169187169190911790555b600088878460030154610f139190612491565b610f1d9190612471565b9050826001015482610f2f9190612459565b811061101557606560009081526020527f4a7203f705e51df4a56139a9b86b4a0970bed7ab7a3446eaffe2289989c1645c5460025460018501546001600160a01b039283169263d9caed1292169087908690610f8b90876124b0565b610f9591906124b0565b6040517fffffffff0000000000000000000000000000000000000000000000000000000060e086901b1681526001600160a01b0393841660048201529290911660248301526044820152606401600060405180830381600087803b158015610ffc57600080fd5b505af1158015611010573d6000803e3d6000fd5b505050505b6040516001600160a01b03851681527f1d2cc4c8661a04a00b4e727426220501b36d85bb330947642c2d4320667028cf9060200160405180910390a15050506001600160a01b03166000908152600a602052604081208181556001810182905560028101829055600301558061108a816124c7565b915050610e2b565b5060648760105460636110a59190612491565b6110af9190612459565b6110b99190612471565b601055841561116357606560009081526020527f4a7203f705e51df4a56139a9b86b4a0970bed7ab7a3446eaffe2289989c1645c546001600160a01b0316600254604051636ce5768960e11b81526001600160a01b039182166004820152336024820152604481018a905291169063d9caed1290606401600060405180830381600087803b15801561114a57600080fd5b505af115801561115e573d6000803e3d6000fd5b505050505b60006111a0606b60009081526020527f2dc7a963308417ad45132da282495eb244f38a7db03940a4d808be607669c622546001600160a01b031690565b6001600160a01b0316631a38de1d6040518163ffffffff1660e01b8152600401602060405180830381600087803b1580156111da57600080fd5b505af11580156111ee573d6000803e3d6000fd5b505050506040513d601f19601f82011682018060405250810190611212919061212b565b9050861561128c576001600160a01b0381166000908152600e602052604090205488101561126d576001600160a01b0381166000908152600e6020526040812080548a92906112629084906124b0565b909155506112879050565b6001600160a01b0381166000908152600e60205260408120555b6112ba565b6001600160a01b0381166000908152600e6020526040812080548a92906112b4908490612459565b90915550505b50505050505050919050565b3360009081526001602090815260408083206004845290915290205460ff166113445760405162461bcd60e51b815260206004820152602a60248201527f43616c6c696e6720636f6e7472616374206e6f7420617574686f72697a6564206044820152691d1bc819195c1bdcda5d60b21b60648201526084016107b9565b6001600160a01b0383166000908152600a6020526040812060038101805491928492611371908490612459565b9091555061138190508184611ce8565b50505050565b3360009081526001602090815260408083206004845290915290205460ff166114055760405162461bcd60e51b815260206004820152602a60248201527f43616c6c696e6720636f6e7472616374206e6f7420617574686f72697a6564206044820152691d1bc819195c1bdcda5d60b21b60648201526084016107b9565b6001600160a01b0383166000908152600a60205260408120600381018054919284926114329084906124b0565b9091555061138190508184611d86565b3361144b611892565b6001600160a01b0316148061146f57503361146461192a565b6001600160a01b0316145b6114bb5760405162461bcd60e51b815260206004820152601e60248201527f526f6c65733a2063616c6c6572206973206e6f7420746865206f776e6572000060448201526064016107b9565b601255565b336114c9611892565b6001600160a01b031614806114ed5750336114e261192a565b6001600160a01b0316145b6115395760405162461bcd60e51b815260206004820152601e60248201527f526f6c65733a2063616c6c6572206973206e6f7420746865206f776e6572000060448201526064016107b9565b600c55565b6001600160a01b0381166000908152600a60205260409020545b919050565b33611566611892565b6001600160a01b0316148061158a57503361157f61192a565b6001600160a01b0316145b6115d65760405162461bcd60e51b815260206004820152601e60248201527f526f6c65733a2063616c6c6572206973206e6f7420746865206f776e6572000060448201526064016107b9565b600b55565b600681815481106115eb57600080fd5b6000918252602090912001546001600160a01b0316905081565b60028101546000901561155857815460009061162d9061162590436124b0565b601154611dac565b905060006011548285600201546116449190612491565b61164e9190612471565b905061168b606560009081526020527f4a7203f705e51df4a56139a9b86b4a0970bed7ab7a3446eaffe2289989c1645c546001600160a01b031690565b6002546003860154604051636ce5768960e11b81526001600160a01b03928316600482015290821660248201526044810184905291169063d9caed1290606401600060405180830381600087803b1580156116e557600080fd5b505af11580156116f9573d6000803e3d6000fd5b50505050600061173a606b60009081526020527f2dc7a963308417ad45132da282495eb244f38a7db03940a4d808be607669c622546001600160a01b031690565b9050600060105483836001600160a01b0316630ad691506040518163ffffffff1660e01b815260040160206040518083038186803b15801561177b57600080fd5b505afa15801561178f573d6000803e3d6000fd5b505050506040513d601f19601f820116820180604052508101906117b39190612333565b6117bd9190612491565b6117c79190612471565b600187015460038801546040517f0a45bc1b0000000000000000000000000000000000000000000000000000000081526001600160a01b039283166004820152602481018490529082166044820152919250831690630a45bc1b90606401602060405180830381600087803b15801561183f57600080fd5b505af1158015611853573d6000803e3d6000fd5b505050506040513d601f19601f820116820180604052508101906118779190612333565b5082866002015461188891906124b0565b9695505050505050565b60007f00000000000000000000000000000000000000000000000000000000000000006001600160a01b0316638da5cb5b6040518163ffffffff1660e01b815260040160206040518083038186803b1580156118ed57600080fd5b505afa158015611901573d6000803e3d6000fd5b505050506040513d601f19601f82011682018060405250810190611925919061212b565b905090565b60007f00000000000000000000000000000000000000000000000000000000000000006001600160a01b031663c34c08e56040518163ffffffff1660e01b8152600401602060405180830381600087803b15801561198757600080fd5b505af1158015611901573d6000803e3d6000fd5b6000806119d9606b60009081526020527f2dc7a963308417ad45132da282495eb244f38a7db03940a4d808be607669c622546001600160a01b031690565b6001600160a01b031663b0411f466040518163ffffffff1660e01b8152600401604080518083038186803b158015611a1057600080fd5b505afa158015611a24573d6000803e3d6000fd5b505050506040513d601f19601f82011682018060405250810190611a489190612172565b509050601054601354611a5b9190612491565b6001600160a01b039091166000908152600e602052604090205411905090565b60408051600080825260208201928390529051909182918291611aa191600d9190612095565b5060005b8086511115611bd2576000868281518110611ad057634e487b7160e01b600052603260045260246000fd5b602002602001015190506000600a6000836001600160a01b03166001600160a01b031681526020019081526020016000209050611b0c81611dc6565b15611b8857600d80546001810182556000919091527fd7b6990105719101dabeb77144f2a3385c8033acd3af97e9423a695e81ad1eb50180546001600160a01b0319166001600160a01b0384161790556003810154611b6b9086612459565b9450611b7681611e08565b6001810154611b859085612459565b93505b6001600160a01b0382166000908152600f602052604090208715611bbc57611baf81611605565b611bb99088612459565b96505b5050508080611bca906124c7565b915050611aa5565b509250925092565b600080611c18606760009081526020527f682158d08466d11c566d5712d4396197fdd67e65be71d83c97ef719ec468867b546001600160a01b031690565b6001600160a01b031663351ae61084600060055460066040518563ffffffff1660e01b8152600401611c4d949392919061239d565b600060405180830381600087803b158015611c6757600080fd5b505af1158015611c7b573d6000803e3d6000fd5b505050506040513d6000823e601f3d908101601f19168201604052611ca39190810190612274565b905060008160018351611cb691906124b0565b81518110611cd457634e487b7160e01b600052603260045260246000fd5b602002602001015190508092505050919050565b611cf182611e08565b80826001016000828254611d059190612459565b90915550611d14905082611ef4565b6107405760405162461bcd60e51b815260206004820152602260248201527f43616e277420626f72726f773a20696e73756666696369656e742062616c616e60448201527f636500000000000000000000000000000000000000000000000000000000000060648201526084016107b9565b611d8f82611e08565b80826001016000828254611da391906124b0565b90915550505050565b600081831115611dbd575080611dc0565b50815b92915050565b600080611dd4836001611f3a565b90506000611de3846001612012565b905081600954611df39190612491565b611dfe826064612491565b1015949350505050565b606660009081526020527f422cccb7cea5c0e46f340bb7b21b81debac329f72e31669c20ff0f3a05cc2b5b546001600160a01b0316600182015460028301546040517fe695fa68000000000000000000000000000000000000000000000000000000008152600481019290925230602483015260448201526001600160a01b03919091169063e695fa68906064016040805180830381600087803b158015611eaf57600080fd5b505af1158015611ec3573d6000803e3d6000fd5b505050506040513d601f19601f82011682018060405250810190611ee7919061237a565b6002830155600190910155565b600080611f02836000611f3a565b90506000611f11846000612012565b9050600c5482611f219190612491565b6064600c54611f3091906124b0565b611dfe9083612491565b6000611f77606a60009081526020527ff3261457f4fd0b7c00a1511877ab27b74183ac470be8db3a7ecdc64335f6f979546001600160a01b031690565b6002546001850154604051630182cfe960e61b81526001600160a01b039283166004820152602481019190915284151560448201529116906360b3fa40906064015b602060405180830381600087803b158015611fd357600080fd5b505af1158015611fe7573d6000803e3d6000fd5b505050506040513d601f19601f8201168201806040525081019061200b9190612333565b9392505050565b600061204f606a60009081526020527ff3261457f4fd0b7c00a1511877ab27b74183ac470be8db3a7ecdc64335f6f979546001600160a01b031690565b6003805490850154604051630182cfe960e61b81526001600160a01b039283166004820152602481019190915284151560448201529116906360b3fa4090606401611fb9565b8280548282559060005260206000209081019282156120ea579160200282015b828111156120ea57825182546001600160a01b0319166001600160a01b039091161782556020909201916001909101906120b5565b506120f69291506120fa565b5090565b5b808211156120f657600081556001016120fb565b600060208284031215612120578081fd5b813561200b8161250e565b60006020828403121561213c578081fd5b815161200b8161250e565b60008060408385031215612159578081fd5b82356121648161250e565b946020939093013593505050565b60008060408385031215612184578182fd5b825161218f8161250e565b6020939093015192949293505050565b6000806000606084860312156121b3578081fd5b83356121be8161250e565b95602085013595506040909401359392505050565b600060208083850312156121e5578182fd5b823567ffffffffffffffff8111156121fb578283fd5b8301601f8101851361220b578283fd5b803561221e61221982612435565b612404565b80828252848201915084840188868560051b870101111561223d578687fd5b8694505b838510156122685780356122548161250e565b835260019490940193918501918501612241565b50979650505050505050565b60006020808385031215612286578182fd5b825167ffffffffffffffff81111561229c578283fd5b8301601f810185136122ac578283fd5b80516122ba61221982612435565b80828252848201915084840188868560051b87010111156122d9578687fd5b8694505b838510156122685780518352600194909401939185019185016122dd565b60006020828403121561230c578081fd5b8151801515811461200b578182fd5b60006020828403121561232c578081fd5b5035919050565b600060208284031215612344578081fd5b5051919050565b6000806040838503121561235d578182fd5b82359150602083013561236f8161250e565b809150509250929050565b6000806040838503121561238c578182fd5b505080516020909101519092909150565b600060808201868352602086818501528560408501526080606085015281855480845260a0860191508685528285209350845b818110156123f55784546001600160a01b0316835260019485019492840192016123d0565b50909998505050505050505050565b604051601f8201601f1916810167ffffffffffffffff8111828210171561242d5761242d6124f8565b604052919050565b600067ffffffffffffffff82111561244f5761244f6124f8565b5060051b60200190565b6000821982111561246c5761246c6124e2565b500190565b60008261248c57634e487b7160e01b81526012600452602481fd5b500490565b60008160001904831182151516156124ab576124ab6124e2565b500290565b6000828210156124c2576124c26124e2565b500390565b60006000198214156124db576124db6124e2565b5060010190565b634e487b7160e01b600052601160045260246000fd5b634e487b7160e01b600052604160045260246000fd5b6001600160a01b038116811461252357600080fd5b5056fea2646970667358221220c67673afc5052143816e0d8dabd4fd638311957185878403cb0514d517b2061764736f6c63430008030033",
  "linkReferences": {},
  "deployedLinkReferences": {}
}