{
  "_format": "hh-sol-artifact-1",
  "contractName": "IsolatedMarginTrading",
  "sourceName": "contracts/IsolatedMarginTrading.sol",
  "abi": [
    {
      "inputs": [
        {
          "internalType": "address",
          "name": "_roles",
          "type": "address"
        }
      ],
      "stateMutability": "nonpayable",
      "type": "constructor"
    },
    {
      "anonymous": false,
      "inputs": [
        {
          "indexed": false,
          "internalType": "address",
          "name": "account",
          "type": "address"
        }
      ],
      "name": "AccountLiquidated",
      "type": "event"
    },
    {
      "anonymous": false,
      "inputs": [
        {
          "indexed": false,
          "internalType": "uint256",
          "name": "amount",
          "type": "uint256"
        }
      ],
      "name": "LiquidationShortfall",
      "type": "event"
    },
    {
      "inputs": [],
      "name": "MAINTAINER_CUT_PERCENT",
      "outputs": [
        {
          "internalType": "uint256",
          "name": "",
          "type": "uint256"
        }
      ],
      "stateMutability": "view",
      "type": "function"
    },
    {
      "inputs": [],
      "name": "UPDATE_RATE_PERMIL",
      "outputs": [
        {
          "internalType": "uint256",
          "name": "",
          "type": "uint256"
        }
      ],
      "stateMutability": "view",
      "type": "function"
    },
    {
      "inputs": [],
      "name": "avgLiquidationPerCall",
      "outputs": [
        {
          "internalType": "uint256",
          "name": "",
          "type": "uint256"
        }
      ],
      "stateMutability": "view",
      "type": "function"
    },
    {
      "inputs": [],
      "name": "borrowToken",
      "outputs": [
        {
          "internalType": "address",
          "name": "",
          "type": "address"
        }
      ],
      "stateMutability": "view",
      "type": "function"
    },
    {
      "inputs": [],
      "name": "coolingOffPeriod",
      "outputs": [
        {
          "internalType": "uint256",
          "name": "",
          "type": "uint256"
        }
      ],
      "stateMutability": "view",
      "type": "function"
    },
    {
      "inputs": [
        {
          "internalType": "address[]",
          "name": "liquidatedAccounts",
          "type": "address[]"
        }
      ],
      "name": "disburseLiqStakeAttacks",
      "outputs": [],
      "stateMutability": "nonpayable",
      "type": "function"
    },
    {
      "inputs": [],
      "name": "failureThreshold",
      "outputs": [
        {
          "internalType": "uint256",
          "name": "",
          "type": "uint256"
        }
      ],
      "stateMutability": "view",
      "type": "function"
    },
    {
      "inputs": [
        {
          "internalType": "address",
          "name": "trader",
          "type": "address"
        }
      ],
      "name": "getLastDepositBlock",
      "outputs": [
        {
          "internalType": "uint256",
          "name": "",
          "type": "uint256"
        }
      ],
      "stateMutability": "view",
      "type": "function"
    },
    {
      "inputs": [],
      "name": "holdingToken",
      "outputs": [
        {
          "internalType": "address",
          "name": "",
          "type": "address"
        }
      ],
      "stateMutability": "view",
      "type": "function"
    },
    {
      "inputs": [],
      "name": "leveragePercent",
      "outputs": [
        {
          "internalType": "uint256",
          "name": "",
          "type": "uint256"
        }
      ],
      "stateMutability": "view",
      "type": "function"
    },
    {
      "inputs": [],
      "name": "liqStakeAttackWindow",
      "outputs": [
        {
          "internalType": "uint256",
          "name": "",
          "type": "uint256"
        }
      ],
      "stateMutability": "view",
      "type": "function"
    },
    {
      "inputs": [
        {
          "internalType": "address[]",
          "name": "liquidationCandidates",
          "type": "address[]"
        }
      ],
      "name": "liquidate",
      "outputs": [
        {
          "internalType": "uint256",
          "name": "maintainerCut",
          "type": "uint256"
        }
      ],
      "stateMutability": "nonpayable",
      "type": "function"
    },
    {
      "inputs": [
        {
          "internalType": "uint256",
          "name": "",
          "type": "uint256"
        }
      ],
      "name": "liquidationPairs",
      "outputs": [
        {
          "internalType": "address",
          "name": "",
          "type": "address"
        }
      ],
      "stateMutability": "view",
      "type": "function"
    },
    {
      "inputs": [],
      "name": "liquidationThresholdPercent",
      "outputs": [
        {
          "internalType": "uint256",
          "name": "",
          "type": "uint256"
        }
      ],
      "stateMutability": "view",
      "type": "function"
    },
    {
      "inputs": [
        {
          "internalType": "uint256",
          "name": "",
          "type": "uint256"
        }
      ],
      "name": "liquidationTokens",
      "outputs": [
        {
          "internalType": "address",
          "name": "",
          "type": "address"
        }
      ],
      "stateMutability": "view",
      "type": "function"
    },
    {
      "inputs": [
        {
          "internalType": "uint256",
          "name": "",
          "type": "uint256"
        }
      ],
      "name": "mainCharacterCache",
      "outputs": [
        {
          "internalType": "address",
          "name": "",
          "type": "address"
        }
      ],
      "stateMutability": "view",
      "type": "function"
    },
    {
      "inputs": [
        {
          "internalType": "address",
          "name": "",
          "type": "address"
        }
      ],
      "name": "maintenanceFailures",
      "outputs": [
        {
          "internalType": "uint256",
          "name": "",
          "type": "uint256"
        }
      ],
      "stateMutability": "view",
      "type": "function"
    },
    {
      "inputs": [
        {
          "internalType": "address",
          "name": "",
          "type": "address"
        }
      ],
      "name": "marginAccounts",
      "outputs": [
        {
          "internalType": "uint256",
          "name": "lastDepositBlock",
          "type": "uint256"
        },
        {
          "internalType": "uint256",
          "name": "borrowed",
          "type": "uint256"
        },
        {
          "internalType": "uint256",
          "name": "borrowedYieldQuotientFP",
          "type": "uint256"
        },
        {
          "internalType": "uint256",
          "name": "holding",
          "type": "uint256"
        }
      ],
      "stateMutability": "view",
      "type": "function"
    },
    {
      "inputs": [],
      "name": "priceUpdateWindow",
      "outputs": [
        {
          "internalType": "uint16",
          "name": "",
          "type": "uint16"
        }
      ],
      "stateMutability": "view",
      "type": "function"
    },
    {
      "inputs": [
        {
          "internalType": "address",
          "name": "trader",
          "type": "address"
        }
      ],
      "name": "registerCloseAccount",
      "outputs": [
        {
          "internalType": "uint256",
          "name": "holdingAmount",
          "type": "uint256"
        }
      ],
      "stateMutability": "nonpayable",
      "type": "function"
    },
    {
      "inputs": [
        {
          "internalType": "address",
          "name": "trader",
          "type": "address"
        },
        {
          "internalType": "uint256",
          "name": "borrowed",
          "type": "uint256"
        },
        {
          "internalType": "uint256",
          "name": "holdingsAdded",
          "type": "uint256"
        }
      ],
      "name": "registerPosition",
      "outputs": [],
      "stateMutability": "nonpayable",
      "type": "function"
    },
    {
      "inputs": [
        {
          "internalType": "address",
          "name": "trader",
          "type": "address"
        },
        {
          "internalType": "uint256",
          "name": "extinguished",
          "type": "uint256"
        },
        {
          "internalType": "uint256",
          "name": "holdingsSold",
          "type": "uint256"
        }
      ],
      "name": "registerUnwind",
      "outputs": [],
      "stateMutability": "nonpayable",
      "type": "function"
    },
    {
      "inputs": [
        {
          "internalType": "address",
          "name": "",
          "type": "address"
        },
        {
          "internalType": "uint256",
          "name": "",
          "type": "uint256"
        }
      ],
      "name": "roleCache",
      "outputs": [
        {
          "internalType": "bool",
          "name": "",
          "type": "bool"
        }
      ],
      "stateMutability": "view",
      "type": "function"
    },
    {
      "inputs": [],
      "name": "roles",
      "outputs": [
        {
          "internalType": "contract Roles",
          "name": "",
          "type": "address"
        }
      ],
      "stateMutability": "view",
      "type": "function"
    },
    {
      "inputs": [
        {
          "internalType": "uint256",
          "name": "blocks",
          "type": "uint256"
        }
      ],
      "name": "setCoolingOffPeriod",
      "outputs": [],
      "stateMutability": "nonpayable",
      "type": "function"
    },
    {
      "inputs": [
        {
          "internalType": "uint256",
          "name": "threshFactor",
          "type": "uint256"
        }
      ],
      "name": "setFailureThreshold",
      "outputs": [],
      "stateMutability": "nonpayable",
      "type": "function"
    },
    {
      "inputs": [
        {
          "internalType": "uint256",
          "name": "_leveragePercent",
          "type": "uint256"
        }
      ],
      "name": "setLeveragePercent",
      "outputs": [],
      "stateMutability": "nonpayable",
      "type": "function"
    },
    {
      "inputs": [
        {
          "internalType": "uint256",
          "name": "window",
          "type": "uint256"
        }
      ],
      "name": "setLiqStakeAttackWindow",
      "outputs": [],
      "stateMutability": "nonpayable",
      "type": "function"
    },
    {
      "inputs": [
        {
          "internalType": "uint256",
          "name": "threshold",
          "type": "uint256"
        }
      ],
      "name": "setLiquidationThresholdPercent",
      "outputs": [],
      "stateMutability": "nonpayable",
      "type": "function"
    },
    {
      "inputs": [
        {
          "internalType": "uint256",
          "name": "cut",
          "type": "uint256"
        }
      ],
      "name": "setMaintainerCutPercent",
      "outputs": [],
      "stateMutability": "nonpayable",
      "type": "function"
    },
    {
      "inputs": [
        {
          "internalType": "address",
          "name": "",
          "type": "address"
        }
      ],
      "name": "stakeAttackRecords",
      "outputs": [
        {
          "internalType": "uint256",
          "name": "blockNum",
          "type": "uint256"
        },
        {
          "internalType": "address",
          "name": "loser",
          "type": "address"
        },
        {
          "internalType": "uint256",
          "name": "amount",
          "type": "uint256"
        },
        {
          "internalType": "address",
          "name": "stakeAttacker",
          "type": "address"
        }
      ],
      "stateMutability": "view",
      "type": "function"
    },
    {
      "inputs": [],
      "name": "totalDebt",
      "outputs": [
        {
          "internalType": "uint256",
          "name": "",
          "type": "uint256"
        }
      ],
      "stateMutability": "view",
      "type": "function"
    },
    {
      "inputs": [
        {
          "internalType": "uint256",
          "name": "role",
          "type": "uint256"
        }
      ],
      "name": "updateMainCharacterCache",
      "outputs": [],
      "stateMutability": "nonpayable",
      "type": "function"
    },
    {
      "inputs": [
        {
          "internalType": "uint256",
          "name": "role",
          "type": "uint256"
        },
        {
          "internalType": "address",
          "name": "contr",
          "type": "address"
        }
      ],
      "name": "updateRoleCache",
      "outputs": [],
      "stateMutability": "nonpayable",
      "type": "function"
    }
  ],
  "bytecode": "0x60a06040526007805461ffff19166008908117909155605090556014600b556101f4600c55600a6010819055600560118190556012556013553480156200004557600080fd5b50604051620029e1380380620029e18339810160408190526200006891620000e6565b806001600160a01b038116620000cf5760405162461bcd60e51b815260206004820152602260248201527f506c656173652070726f766964652076616c696420726f6c6573206164647265604482015261737360f01b606482015260840160405180910390fd5b60601b6001600160601b0319166080525062000116565b600060208284031215620000f8578081fd5b81516001600160a01b03811681146200010f578182fd5b9392505050565b60805160601c61289062000151600039600081816102a3015281816105bf015281816108d8015281816119b40152611a4c01526128906000f3fe608060405234801561001057600080fd5b50600436106102265760003560e01c80639c498bc31161012a578063c5f1d5c2116100bd578063e9c3f77d1161008c578063f99fd97c11610071578063f99fd97c14610561578063fb62f43114610574578063fc7b9c181461058757610226565b8063e9c3f77d14610525578063eac29dd61461054e57610226565b8063c5f1d5c2146104d9578063c73afac2146104ec578063c74303aa146104ff578063e2c0c1781461051257610226565b8063a75697a5116100f9578063a75697a514610426578063a985994b14610446578063badb504814610459578063c56903c2146104c657610226565b80639c498bc3146103a2578063a1ad54e6146103f7578063a37189191461040a578063a53ac0d91461041d57610226565b8063447d52ba116101bd578063538edb291161018c5780637a1a04df116101715780637a1a04df146103485780637d100e841461038657806391dfcb481461038f57610226565b8063538edb29146103365780636585b5a61461033f57610226565b8063447d52ba146102fe578063456dc17a146103115780634aa4aca314610324578063519bda851461032d57610226565b80632febaa74116101f95780632febaa7414610279578063320d2fa014610295578063392f5f641461029e5780633ed456fa146102dd57610226565b8063071060a61461022b57806307c201751461024057806310d584341461025357806316317e7e14610266575b600080fd5b61023e6102393660046125b2565b610590565b005b61023e61024e36600461246a565b610687565b61023e6102613660046125b2565b610798565b61023e6102743660046125b2565b61081b565b610282600b5481565b6040519081526020015b60405180910390f35b61028260095481565b6102c57f000000000000000000000000000000000000000000000000000000000000000081565b6040516001600160a01b03909116815260200161028c565b6007546102eb9061ffff1681565b60405161ffff909116815260200161028c565b61023e61030c3660046125e2565b610899565b6002546102c5906001600160a01b031681565b61028260115481565b61028260085481565b61028260125481565b61028260105481565b6103766103563660046123de565b600160209081526000928352604080842090915290825290205460ff1681565b604051901515815260200161028c565b61028260135481565b61028261039d3660046123a6565b6109a8565b6103d76103b03660046123a6565b600a6020526000908152604090208054600182015460028301546003909301549192909184565b60408051948552602085019390935291830152606082015260800161028c565b6003546102c5906001600160a01b031681565b61023e6104183660046125b2565b610b00565b610282600c5481565b6102826104343660046123a6565b600e6020526000908152604090205481565b61028261045436600461246a565b610b7e565b61049b6104673660046123a6565b600f60205260009081526040902080546001820154600283015460039093015491926001600160a01b039182169290911684565b604080519485526001600160a01b03938416602086015284019190915216606082015260800161028c565b61023e6104d4366004612436565b611395565b61023e6104e7366004612436565b611469565b61023e6104fa3660046125b2565b611537565b61023e61050d3660046125b2565b6115b5565b6102c56105203660046125b2565b611633565b6102c56105333660046125b2565b6000602081905290815260409020546001600160a01b031681565b61028261055c3660046123a6565b61165d565b61023e61056f3660046125b2565b61167c565b6102c56105823660046125b2565b6116fa565b61028260045481565b6040517fb4ed0b6d000000000000000000000000000000000000000000000000000000008152600481018290527f00000000000000000000000000000000000000000000000000000000000000006001600160a01b03169063b4ed0b6d9060240160206040518083038186803b15801561060957600080fd5b505afa15801561061d573d6000803e3d6000fd5b505050506040513d601f19601f8201168201806040525081019061064191906123c2565b60009182526020829052604090912080547fffffffffffffffffffffffff0000000000000000000000000000000000000000166001600160a01b03909216919091179055565b60005b80825111156107945760008282815181106106ce577f4e487b7100000000000000000000000000000000000000000000000000000000600052603260045260246000fd5b602002602001015190506000600f6000836001600160a01b03166001600160a01b03168152602001908152602001600020905060115481600001546107139190612706565b43111561077f576107238161170a565b506001600160a01b0382166000908152600f602052604081208181556001810180547fffffffffffffffffffffffff00000000000000000000000000000000000000009081169091556002820192909255600301805490911690555b5050808061078c906127ab565b91505061068a565b5050565b336107a16119b0565b6001600160a01b031614806107c55750336107ba611a48565b6001600160a01b0316145b6108165760405162461bcd60e51b815260206004820152601e60248201527f526f6c65733a2063616c6c6572206973206e6f7420746865206f776e6572000060448201526064015b60405180910390fd5b601355565b336108246119b0565b6001600160a01b0316148061084857503361083d611a48565b6001600160a01b0316145b6108945760405162461bcd60e51b815260206004820152601e60248201527f526f6c65733a2063616c6c6572206973206e6f7420746865206f776e65720000604482015260640161080d565b600955565b6040517f93552a3d000000000000000000000000000000000000000000000000000000008152600481018390526001600160a01b0382811660248301527f000000000000000000000000000000000000000000000000000000000000000016906393552a3d9060440160206040518083038186803b15801561091a57600080fd5b505afa15801561092e573d6000803e3d6000fd5b505050506040513d601f19601f820116820180604052508101906109529190612592565b6001600160a01b039190911660009081526001602090815260408083209483529390529190912080547fffffffffffffffffffffffffffffffffffffffffffffffffffffffffffffff0016911515919091179055565b3360009081526001602090815260408083206004845290915281205460ff16610a395760405162461bcd60e51b815260206004820152602a60248201527f43616c6c696e6720636f6e7472616374206e6f7420617574686f72697a65642060448201527f746f206465706f73697400000000000000000000000000000000000000000000606482015260840161080d565b6001600160a01b0382166000908152600a60205260409020600181015415610ac85760405162461bcd60e51b8152602060048201526024808201527f43616e277420636c6f7365206163636f756e742074686174277320626f72726f60448201527f77696e6700000000000000000000000000000000000000000000000000000000606482015260840161080d565b6003908101546001600160a01b039093166000908152600a602052604081208181556001810182905560028101829055909101555090565b33610b096119b0565b6001600160a01b03161480610b2d575033610b22611a48565b6001600160a01b0316145b610b795760405162461bcd60e51b815260206004820152601e60248201527f526f6c65733a2063616c6c6572206973206e6f7420746865206f776e65720000604482015260640161080d565b601155565b6000333214610bf55760405162461bcd60e51b815260206004820152603a60248201527f43757272656e746c79206e6f20696e7465726d656469617269657320616c6c6f60448201527f77656420666f7220746869732066756e6374696f6e2063616c6c000000000000606482015260840161080d565b6000610c32606b60009081526020527f2dc7a963308417ad45132da282495eb244f38a7db03940a4d808be607669c622546001600160a01b031690565b6040517f7b23cbce0000000000000000000000000000000000000000000000000000000081523360048201526001600160a01b039190911690637b23cbce90602401602060405180830381600087803b158015610c8e57600080fd5b505af1158015610ca2573d6000803e3d6000fd5b505050506040513d601f19601f82011682018060405250810190610cc69190612592565b905060008180610cd95750610cd9611ab9565b9050600080610ce88685611b99565b919650925090506000610cfa83611d29565b905060646012546064610d0d9190612706565b610d17919061271e565b610d219083612757565b915080821115610dfc577f3555ffae7677eb42103f0b9e11b61c758f452fae446684dec7a363dd38ab58fc610d568284612794565b60405190815260200160405180910390a1606660009081526020527f422cccb7cea5c0e46f340bb7b21b81debac329f72e31669c20ff0f3a05cc2b5b546001600160a01b031663d4437dd8610dab8385612794565b6040518263ffffffff1660e01b8152600401610dc991815260200190565b600060405180830381600087803b158015610de357600080fd5b505af1158015610df7573d6000803e3d6000fd5b505050505b600084610ead57606b60009081526020527f2dc7a963308417ad45132da282495eb244f38a7db03940a4d808be607669c622546001600160a01b03166001600160a01b0316631a38de1d6040518163ffffffff1660e01b8152600401602060405180830381600087803b158015610e7257600080fd5b505af1158015610e86573d6000803e3d6000fd5b505050506040513d601f19601f82011682018060405250810190610eaa91906123c2565b90505b60005b600d54811015611148576000600d8281548110610ef6577f4e487b7100000000000000000000000000000000000000000000000000000000600052603260045260246000fd5b60009182526020808320909101546001600160a01b0316808352600a909152604082206012546001820154929450909291606491610f3391612757565b610f3d919061271e565b9050610f49818c612706565b9a5088610fb6576001600160a01b038381166000908152600f6020526040902060028101839055600381018054337fffffffffffffffffffffffff000000000000000000000000000000000000000091821617909155438255600190910180549091169187169190911790555b600088878460030154610fc99190612757565b610fd3919061271e565b9050826001015482610fe59190612706565b81106110cb57606560009081526020527f4a7203f705e51df4a56139a9b86b4a0970bed7ab7a3446eaffe2289989c1645c5460025460018501546001600160a01b039283169263d9caed12921690879086906110419087612794565b61104b9190612794565b6040517fffffffff0000000000000000000000000000000000000000000000000000000060e086901b1681526001600160a01b0393841660048201529290911660248301526044820152606401600060405180830381600087803b1580156110b257600080fd5b505af11580156110c6573d6000803e3d6000fd5b505050505b6040516001600160a01b03851681527f1d2cc4c8661a04a00b4e727426220501b36d85bb330947642c2d4320667028cf9060200160405180910390a15050506001600160a01b03166000908152600a6020526040812081815560018101829055600281018290556003015580611140816127ab565b915050610eb0565b50606487601054606361115b9190612757565b6111659190612706565b61116f919061271e565b601055841561123257606560009081526020527f4a7203f705e51df4a56139a9b86b4a0970bed7ab7a3446eaffe2289989c1645c546001600160a01b03166002546040517fd9caed120000000000000000000000000000000000000000000000000000000081526001600160a01b039182166004820152336024820152604481018a905291169063d9caed1290606401600060405180830381600087803b15801561121957600080fd5b505af115801561122d573d6000803e3d6000fd5b505050505b600061126f606b60009081526020527f2dc7a963308417ad45132da282495eb244f38a7db03940a4d808be607669c622546001600160a01b031690565b6001600160a01b0316631a38de1d6040518163ffffffff1660e01b8152600401602060405180830381600087803b1580156112a957600080fd5b505af11580156112bd573d6000803e3d6000fd5b505050506040513d601f19601f820116820180604052508101906112e191906123c2565b9050861561135b576001600160a01b0381166000908152600e602052604090205488101561133c576001600160a01b0381166000908152600e6020526040812080548a9290611331908490612794565b909155506113569050565b6001600160a01b0381166000908152600e60205260408120555b611389565b6001600160a01b0381166000908152600e6020526040812080548a9290611383908490612706565b90915550505b50505050505050919050565b3360009081526001602090815260408083206004845290915290205460ff166114265760405162461bcd60e51b815260206004820152602a60248201527f43616c6c696e6720636f6e7472616374206e6f7420617574686f72697a65642060448201527f746f206465706f73697400000000000000000000000000000000000000000000606482015260840161080d565b6001600160a01b0383166000908152600a6020526040812060038101805491928492611453908490612706565b9091555061146390508184611e6d565b50505050565b3360009081526001602090815260408083206004845290915290205460ff166114fa5760405162461bcd60e51b815260206004820152602a60248201527f43616c6c696e6720636f6e7472616374206e6f7420617574686f72697a65642060448201527f746f206465706f73697400000000000000000000000000000000000000000000606482015260840161080d565b6001600160a01b0383166000908152600a6020526040812060038101805491928492611527908490612794565b9091555061146390508184611f0b565b336115406119b0565b6001600160a01b03161480611564575033611559611a48565b6001600160a01b0316145b6115b05760405162461bcd60e51b815260206004820152601e60248201527f526f6c65733a2063616c6c6572206973206e6f7420746865206f776e65720000604482015260640161080d565b601255565b336115be6119b0565b6001600160a01b031614806115e25750336115d7611a48565b6001600160a01b0316145b61162e5760405162461bcd60e51b815260206004820152601e60248201527f526f6c65733a2063616c6c6572206973206e6f7420746865206f776e65720000604482015260640161080d565b600c55565b6005818154811061164357600080fd5b6000918252602090912001546001600160a01b0316905081565b6001600160a01b0381166000908152600a60205260409020545b919050565b336116856119b0565b6001600160a01b031614806116a957503361169e611a48565b6001600160a01b0316145b6116f55760405162461bcd60e51b815260206004820152601e60248201527f526f6c65733a2063616c6c6572206973206e6f7420746865206f776e65720000604482015260640161080d565b600b55565b6006818154811061164357600080fd5b6002810154600090156116775781546000906117329061172a9043612794565b601154611f31565b905060006011548285600201546117499190612757565b611753919061271e565b9050611790606560009081526020527f4a7203f705e51df4a56139a9b86b4a0970bed7ab7a3446eaffe2289989c1645c546001600160a01b031690565b60025460038601546040517fd9caed120000000000000000000000000000000000000000000000000000000081526001600160a01b03928316600482015290821660248201526044810184905291169063d9caed1290606401600060405180830381600087803b15801561180357600080fd5b505af1158015611817573d6000803e3d6000fd5b505050506000611858606b60009081526020527f2dc7a963308417ad45132da282495eb244f38a7db03940a4d808be607669c622546001600160a01b031690565b9050600060105483836001600160a01b0316630ad691506040518163ffffffff1660e01b815260040160206040518083038186803b15801561189957600080fd5b505afa1580156118ad573d6000803e3d6000fd5b505050506040513d601f19601f820116820180604052508101906118d191906125ca565b6118db9190612757565b6118e5919061271e565b600187015460038801546040517f0a45bc1b0000000000000000000000000000000000000000000000000000000081526001600160a01b039283166004820152602481018490529082166044820152919250831690630a45bc1b90606401602060405180830381600087803b15801561195d57600080fd5b505af1158015611971573d6000803e3d6000fd5b505050506040513d601f19601f8201168201806040525081019061199591906125ca565b508286600201546119a69190612794565b9695505050505050565b60007f00000000000000000000000000000000000000000000000000000000000000006001600160a01b0316638da5cb5b6040518163ffffffff1660e01b815260040160206040518083038186803b158015611a0b57600080fd5b505afa158015611a1f573d6000803e3d6000fd5b505050506040513d601f19601f82011682018060405250810190611a4391906123c2565b905090565b60007f00000000000000000000000000000000000000000000000000000000000000006001600160a01b031663c34c08e56040518163ffffffff1660e01b8152600401602060405180830381600087803b158015611aa557600080fd5b505af1158015611a1f573d6000803e3d6000fd5b600080611af7606b60009081526020527f2dc7a963308417ad45132da282495eb244f38a7db03940a4d808be607669c622546001600160a01b031690565b6001600160a01b031663b0411f466040518163ffffffff1660e01b8152600401604080518083038186803b158015611b2e57600080fd5b505afa158015611b42573d6000803e3d6000fd5b505050506040513d601f19601f82011682018060405250810190611b669190612409565b509050601054601354611b799190612757565b6001600160a01b039091166000908152600e602052604090205411905090565b60408051600080825260208201928390529051909182918291611bbf91600d9190612314565b5060005b8086511115611d21576000868281518110611c07577f4e487b7100000000000000000000000000000000000000000000000000000000600052603260045260246000fd5b602002602001015190506000600a6000836001600160a01b03166001600160a01b031681526020019081526020016000209050611c4381611f4b565b15611cd757600d80546001810182556000919091527fd7b6990105719101dabeb77144f2a3385c8033acd3af97e9423a695e81ad1eb50180547fffffffffffffffffffffffff0000000000000000000000000000000000000000166001600160a01b0384161790556003810154611cba9086612706565b9450611cc581611f8d565b6001810154611cd49085612706565b93505b6001600160a01b0382166000908152600f602052604090208715611d0b57611cfe8161170a565b611d089088612706565b96505b5050508080611d19906127ab565b915050611bc3565b509250925092565b600080611d67606760009081526020527f682158d08466d11c566d5712d4396197fdd67e65be71d83c97ef719ec468867b546001600160a01b031690565b6001600160a01b031663808f6713846000600560066040518563ffffffff1660e01b8152600401611d9b9493929190612657565b600060405180830381600087803b158015611db557600080fd5b505af1158015611dc9573d6000803e3d6000fd5b505050506040513d6000823e601f3d9081017fffffffffffffffffffffffffffffffffffffffffffffffffffffffffffffffe0168201604052611e0f919081019061250b565b905060008160018351611e229190612794565b81518110611e59577f4e487b7100000000000000000000000000000000000000000000000000000000600052603260045260246000fd5b602002602001015190508092505050919050565b611e7682611f8d565b80826001016000828254611e8a9190612706565b90915550611e99905082612141565b6107945760405162461bcd60e51b815260206004820152602260248201527f43616e277420626f72726f773a20696e73756666696369656e742062616c616e60448201527f6365000000000000000000000000000000000000000000000000000000000000606482015260840161080d565b611f1482611f8d565b80826001016000828254611f289190612794565b90915550505050565b600081831115611f42575080611f45565b50815b92915050565b600080611f59836001612187565b90506000611f68846001612278565b905081600954611f789190612757565b611f83826064612757565b1015949350505050565b606660009081526020527f422cccb7cea5c0e46f340bb7b21b81debac329f72e31669c20ff0f3a05cc2b5b546001600160a01b0316600182015460028301546040517fe695fa68000000000000000000000000000000000000000000000000000000008152600481019290925230602483015260448201526001600160a01b03919091169063e695fa6890606401602060405180830381600087803b15801561203557600080fd5b505af1158015612049573d6000803e3d6000fd5b505050506040513d601f19601f8201168201806040525081019061206d91906125ca565b6001820155606660009081526020527f422cccb7cea5c0e46f340bb7b21b81debac329f72e31669c20ff0f3a05cc2b5b546001600160a01b03166040517fe5ea66060000000000000000000000000000000000000000000000000000000081523060048201526001600160a01b03919091169063e5ea66069060240160206040518083038186803b15801561210157600080fd5b505afa158015612115573d6000803e3d6000fd5b505050506040513d601f19601f8201168201806040525081019061213991906125ca565b600290910155565b60008061214f836000612187565b9050600061215e846000612278565b9050600c548261216e9190612757565b6064600c5461217d9190612794565b611f839083612757565b60006121c4606a60009081526020527ff3261457f4fd0b7c00a1511877ab27b74183ac470be8db3a7ecdc64335f6f979546001600160a01b031690565b60025460018501546040517f60b3fa400000000000000000000000000000000000000000000000000000000081526001600160a01b039283166004820152602481019190915284151560448201529116906360b3fa40906064015b602060405180830381600087803b15801561223957600080fd5b505af115801561224d573d6000803e3d6000fd5b505050506040513d601f19601f8201168201806040525081019061227191906125ca565b9392505050565b60006122b5606a60009081526020527ff3261457f4fd0b7c00a1511877ab27b74183ac470be8db3a7ecdc64335f6f979546001600160a01b031690565b60038054908501546040517f60b3fa400000000000000000000000000000000000000000000000000000000081526001600160a01b039283166004820152602481019190915284151560448201529116906360b3fa409060640161221f565b828054828255906000526020600020908101928215612381579160200282015b8281111561238157825182547fffffffffffffffffffffffff0000000000000000000000000000000000000000166001600160a01b03909116178255602090920191600190910190612334565b5061238d929150612391565b5090565b5b8082111561238d5760008155600101612392565b6000602082840312156123b7578081fd5b813561227181612842565b6000602082840312156123d3578081fd5b815161227181612842565b600080604083850312156123f0578081fd5b82356123fb81612842565b946020939093013593505050565b6000806040838503121561241b578182fd5b825161242681612842565b6020939093015192949293505050565b60008060006060848603121561244a578081fd5b833561245581612842565b95602085013595506040909401359392505050565b6000602080838503121561247c578182fd5b823567ffffffffffffffff811115612492578283fd5b8301601f810185136124a2578283fd5b80356124b56124b0826126e2565b612693565b80828252848201915084840188868560051b87010111156124d4578687fd5b8694505b838510156124ff5780356124eb81612842565b8352600194909401939185019185016124d8565b50979650505050505050565b6000602080838503121561251d578182fd5b825167ffffffffffffffff811115612533578283fd5b8301601f81018513612543578283fd5b80516125516124b0826126e2565b80828252848201915084840188868560051b8701011115612570578687fd5b8694505b838510156124ff578051835260019490940193918501918501612574565b6000602082840312156125a3578081fd5b81518015158114612271578182fd5b6000602082840312156125c3578081fd5b5035919050565b6000602082840312156125db578081fd5b5051919050565b600080604083850312156125f4578182fd5b82359150602083013561260681612842565b809150509250929050565b6000815480845260208085019450838352808320835b8381101561264c5781546001600160a01b031687529582019560019182019101612627565b509495945050505050565b6000858252846020830152608060408301526126766080830185612611565b82810360608401526126888185612611565b979650505050505050565b604051601f82017fffffffffffffffffffffffffffffffffffffffffffffffffffffffffffffffe016810167ffffffffffffffff811182821017156126da576126da612813565b604052919050565b600067ffffffffffffffff8211156126fc576126fc612813565b5060051b60200190565b60008219821115612719576127196127e4565b500190565b600082612752577f4e487b710000000000000000000000000000000000000000000000000000000081526012600452602481fd5b500490565b6000817fffffffffffffffffffffffffffffffffffffffffffffffffffffffffffffffff048311821515161561278f5761278f6127e4565b500290565b6000828210156127a6576127a66127e4565b500390565b60007fffffffffffffffffffffffffffffffffffffffffffffffffffffffffffffffff8214156127dd576127dd6127e4565b5060010190565b7f4e487b7100000000000000000000000000000000000000000000000000000000600052601160045260246000fd5b7f4e487b7100000000000000000000000000000000000000000000000000000000600052604160045260246000fd5b6001600160a01b038116811461285757600080fd5b5056fea2646970667358221220957990f0fc68f12cf9579c1fb3ab9e8cf4556235c9fa86c1c8322f0b1b226c3864736f6c63430008030033",
  "linkReferences": {},
  "deployedLinkReferences": {}
}