{
  "_format": "hh-sol-artifact-1",
  "contractName": "IsolatedMarginRouter",
  "sourceName": "contracts/isolated/IsolatedMarginRouter.sol",
  "abi": [
    {
      "inputs": [
        {
          "internalType": "address",
          "name": "_WETH",
          "type": "address"
        },
        {
          "internalType": "address",
          "name": "_amm1Factory",
          "type": "address"
        },
        {
          "internalType": "address",
          "name": "_amm2Factory",
          "type": "address"
        },
        {
          "internalType": "address",
          "name": "_amm3Factory",
          "type": "address"
        },
        {
          "internalType": "bytes32",
          "name": "_amm1InitHash",
          "type": "bytes32"
        },
        {
          "internalType": "bytes32",
          "name": "_amm2InitHash",
          "type": "bytes32"
        },
        {
          "internalType": "bytes32",
          "name": "_amm3InitHash",
          "type": "bytes32"
        },
        {
          "internalType": "uint256",
          "name": "_feeBase",
          "type": "uint256"
        },
        {
          "internalType": "address",
          "name": "_roles",
          "type": "address"
        }
      ],
      "stateMutability": "nonpayable",
      "type": "constructor"
    },
    {
      "anonymous": false,
      "inputs": [
        {
          "indexed": true,
          "internalType": "address",
          "name": "trader",
          "type": "address"
        },
        {
          "indexed": false,
          "internalType": "address",
          "name": "isolatedPair",
          "type": "address"
        }
      ],
      "name": "IsolatedAccountUpdated",
      "type": "event"
    },
    {
      "anonymous": false,
      "inputs": [
        {
          "indexed": true,
          "internalType": "address",
          "name": "trader",
          "type": "address"
        },
        {
          "indexed": false,
          "internalType": "address",
          "name": "fromToken",
          "type": "address"
        },
        {
          "indexed": false,
          "internalType": "address",
          "name": "toToken",
          "type": "address"
        },
        {
          "indexed": false,
          "internalType": "uint256",
          "name": "fromAmount",
          "type": "uint256"
        },
        {
          "indexed": false,
          "internalType": "uint256",
          "name": "toAmount",
          "type": "uint256"
        }
      ],
      "name": "IsolatedMarginTrade",
      "type": "event"
    },
    {
      "inputs": [],
      "name": "WETH",
      "outputs": [
        {
          "internalType": "address",
          "name": "",
          "type": "address"
        }
      ],
      "stateMutability": "view",
      "type": "function"
    },
    {
      "inputs": [],
      "name": "amm1Factory",
      "outputs": [
        {
          "internalType": "address",
          "name": "",
          "type": "address"
        }
      ],
      "stateMutability": "view",
      "type": "function"
    },
    {
      "inputs": [],
      "name": "amm1InitHash",
      "outputs": [
        {
          "internalType": "bytes32",
          "name": "",
          "type": "bytes32"
        }
      ],
      "stateMutability": "view",
      "type": "function"
    },
    {
      "inputs": [],
      "name": "amm2Factory",
      "outputs": [
        {
          "internalType": "address",
          "name": "",
          "type": "address"
        }
      ],
      "stateMutability": "view",
      "type": "function"
    },
    {
      "inputs": [],
      "name": "amm2InitHash",
      "outputs": [
        {
          "internalType": "bytes32",
          "name": "",
          "type": "bytes32"
        }
      ],
      "stateMutability": "view",
      "type": "function"
    },
    {
      "inputs": [],
      "name": "amm3Factory",
      "outputs": [
        {
          "internalType": "address",
          "name": "",
          "type": "address"
        }
      ],
      "stateMutability": "view",
      "type": "function"
    },
    {
      "inputs": [],
      "name": "amm3InitHash",
      "outputs": [
        {
          "internalType": "bytes32",
          "name": "",
          "type": "bytes32"
        }
      ],
      "stateMutability": "view",
      "type": "function"
    },
    {
      "inputs": [],
      "name": "feeBase",
      "outputs": [
        {
          "internalType": "uint256",
          "name": "",
          "type": "uint256"
        }
      ],
      "stateMutability": "view",
      "type": "function"
    },
    {
      "inputs": [
        {
          "internalType": "uint256",
          "name": "",
          "type": "uint256"
        }
      ],
      "name": "mainCharacterCache",
      "outputs": [
        {
          "internalType": "address",
          "name": "",
          "type": "address"
        }
      ],
      "stateMutability": "view",
      "type": "function"
    },
    {
      "inputs": [],
      "name": "mswapFeesPer10k",
      "outputs": [
        {
          "internalType": "uint256",
          "name": "",
          "type": "uint256"
        }
      ],
      "stateMutability": "view",
      "type": "function"
    },
    {
      "inputs": [
        {
          "internalType": "address",
          "name": "",
          "type": "address"
        },
        {
          "internalType": "uint256",
          "name": "",
          "type": "uint256"
        }
      ],
      "name": "roleCache",
      "outputs": [
        {
          "internalType": "bool",
          "name": "",
          "type": "bool"
        }
      ],
      "stateMutability": "view",
      "type": "function"
    },
    {
      "inputs": [],
      "name": "roles",
      "outputs": [
        {
          "internalType": "contract Roles",
          "name": "",
          "type": "address"
        }
      ],
      "stateMutability": "view",
      "type": "function"
    },
    {
      "inputs": [
        {
          "internalType": "uint256",
          "name": "amountIn",
          "type": "uint256"
        },
        {
          "internalType": "uint256",
          "name": "amountOutMin",
          "type": "uint256"
        },
        {
          "internalType": "bytes32",
          "name": "amms",
          "type": "bytes32"
        },
        {
          "internalType": "address[]",
          "name": "tokens",
          "type": "address[]"
        },
        {
          "internalType": "address",
          "name": "_isolatedPair",
          "type": "address"
        },
        {
          "internalType": "uint256",
          "name": "depositFrom",
          "type": "uint256"
        },
        {
          "internalType": "uint256",
          "name": "depositTo",
          "type": "uint256"
        },
        {
          "internalType": "uint256",
          "name": "deadline",
          "type": "uint256"
        }
      ],
      "name": "swapExactTokensForTokensPosition",
      "outputs": [
        {
          "internalType": "uint256[]",
          "name": "amounts",
          "type": "uint256[]"
        }
      ],
      "stateMutability": "nonpayable",
      "type": "function"
    },
    {
      "inputs": [
        {
          "internalType": "uint256",
          "name": "amountIn",
          "type": "uint256"
        },
        {
          "internalType": "uint256",
          "name": "amountOutMin",
          "type": "uint256"
        },
        {
          "internalType": "bytes32",
          "name": "amms",
          "type": "bytes32"
        },
        {
          "internalType": "address[]",
          "name": "tokens",
          "type": "address[]"
        },
        {
          "internalType": "address",
          "name": "_isolatedPair",
          "type": "address"
        },
        {
          "internalType": "uint256",
          "name": "withdrawFrom",
          "type": "uint256"
        },
        {
          "internalType": "uint256",
          "name": "withdrawTo",
          "type": "uint256"
        },
        {
          "internalType": "uint256",
          "name": "deadline",
          "type": "uint256"
        }
      ],
      "name": "swapExactTokensForTokensUnwind",
      "outputs": [
        {
          "internalType": "uint256[]",
          "name": "amounts",
          "type": "uint256[]"
        }
      ],
      "stateMutability": "nonpayable",
      "type": "function"
    },
    {
      "inputs": [
        {
          "internalType": "uint256",
          "name": "amountOut",
          "type": "uint256"
        },
        {
          "internalType": "uint256",
          "name": "amountInMax",
          "type": "uint256"
        },
        {
          "internalType": "bytes32",
          "name": "amms",
          "type": "bytes32"
        },
        {
          "internalType": "address[]",
          "name": "tokens",
          "type": "address[]"
        },
        {
          "internalType": "address",
          "name": "_isolatedPair",
          "type": "address"
        },
        {
          "internalType": "uint256",
          "name": "depositFrom",
          "type": "uint256"
        },
        {
          "internalType": "uint256",
          "name": "depositTo",
          "type": "uint256"
        },
        {
          "internalType": "uint256",
          "name": "deadline",
          "type": "uint256"
        }
      ],
      "name": "swapTokensForExactTokensPosition",
      "outputs": [
        {
          "internalType": "uint256[]",
          "name": "amounts",
          "type": "uint256[]"
        }
      ],
      "stateMutability": "nonpayable",
      "type": "function"
    },
    {
      "inputs": [
        {
          "internalType": "uint256",
          "name": "amountOut",
          "type": "uint256"
        },
        {
          "internalType": "uint256",
          "name": "amountInMax",
          "type": "uint256"
        },
        {
          "internalType": "bytes32",
          "name": "amms",
          "type": "bytes32"
        },
        {
          "internalType": "address[]",
          "name": "tokens",
          "type": "address[]"
        },
        {
          "internalType": "address",
          "name": "_isolatedPair",
          "type": "address"
        },
        {
          "internalType": "uint256",
          "name": "withdrawFrom",
          "type": "uint256"
        },
        {
          "internalType": "uint256",
          "name": "withdrawTo",
          "type": "uint256"
        },
        {
          "internalType": "uint256",
          "name": "deadline",
          "type": "uint256"
        }
      ],
      "name": "swapTokensForExactTokensUnwind",
      "outputs": [
        {
          "internalType": "uint256[]",
          "name": "amounts",
          "type": "uint256[]"
        }
      ],
      "stateMutability": "nonpayable",
      "type": "function"
    },
    {
      "inputs": [
        {
          "internalType": "uint256",
          "name": "role",
          "type": "uint256"
        }
      ],
      "name": "updateMainCharacterCache",
      "outputs": [],
      "stateMutability": "nonpayable",
      "type": "function"
    },
    {
      "inputs": [
        {
          "internalType": "uint256",
          "name": "role",
          "type": "uint256"
        },
        {
          "internalType": "address",
          "name": "contr",
          "type": "address"
        }
      ],
      "name": "updateRoleCache",
      "outputs": [],
      "stateMutability": "nonpayable",
      "type": "function"
    }
  ],
  "bytecode": "0x6101406040523480156200001257600080fd5b5060405162002e9338038062002e93833981016040819052620000359162000115565b87878787878787876001600160a01b038116620000a35760405162461bcd60e51b815260206004820152602260248201527f506c656173652070726f766964652076616c696420726f6c6573206164647265604482015261737360f01b606482015260840160405180910390fd5b6001600160601b0319606091821b811660805297811b881660a05295861b871660c05293851b861660e052600292909255600355600455610100529990991b9098166101205250620001ab9650505050505050565b80516001600160a01b03811681146200011057600080fd5b919050565b60008060008060008060008060006101208a8c03121562000134578485fd5b6200013f8a620000f8565b98506200014f60208b01620000f8565b97506200015f60408b01620000f8565b96506200016f60608b01620000f8565b955060808a0151945060a08a0151935060c08a0151925060e08a015191506200019c6101008b01620000f8565b90509295985092959850929598565b60805160601c60a05160601c60c05160601c60e05160601c610100516101205160601c612c586200023b600039600061027d01526000818161024d0152818161228e015261262c0152600081816102de0152611fd9015260008181610120015261206c0152600081816102a401526120de0152600081816101c2015281816103510152610f9b0152612c586000f3fe608060405234801561001057600080fd5b50600436106101165760003560e01c806395e911a8116100a2578063cfd124af11610071578063cfd124af146102c6578063db429235146102d9578063df7c20f914610300578063e2abb5c414610309578063e9c3f77d1461031257610116565b806395e911a814610248578063a75208a81461026f578063ad5c464814610278578063b852eb0d1461029f57610116565b80632c77dda0116100e95780632c77dda0146101aa578063392f5f64146101bd5780633ec380da146101e4578063447d52ba146101f75780637a1a04df1461020a57610116565b8063059b157a1461011b578063071060a61461015f5780631084bd6d1461017457806328f988011461018a575b600080fd5b6101427f000000000000000000000000000000000000000000000000000000000000000081565b6040516001600160a01b0390911681526020015b60405180910390f35b61017261016d36600461284e565b61033b565b005b61017c600a81565b604051908152602001610156565b61019d6101983660046128ad565b610401565b60405161015691906129eb565b61019d6101b83660046128ad565b610878565b6101427f000000000000000000000000000000000000000000000000000000000000000081565b61019d6101f23660046128ad565b610b1d565b61017261020536600461287e565b610f75565b6102386102183660046127b5565b600160209081526000928352604080842090915290825290205460ff1681565b6040519015158152602001610156565b61017c7f000000000000000000000000000000000000000000000000000000000000000081565b61017c60025481565b6101427f000000000000000000000000000000000000000000000000000000000000000081565b6101427f000000000000000000000000000000000000000000000000000000000000000081565b61019d6102d43660046128ad565b61104d565b6101427f000000000000000000000000000000000000000000000000000000000000000081565b61017c60035481565b61017c60045481565b61014261032036600461284e565b6000602081905290815260409020546001600160a01b031681565b60405163b4ed0b6d60e01b8152600481018290527f00000000000000000000000000000000000000000000000000000000000000006001600160a01b03169063b4ed0b6d9060240160206040518083038186803b15801561039b57600080fd5b505afa1580156103af573d6000803e3d6000fd5b505050506040513d601f19601f820116820180604052508101906103d39190612799565b60009182526020829052604090912080546001600160a01b0319166001600160a01b03909216919091179055565b6060814281101561042d5760405162461bcd60e51b815260040161042490612ab8565b60405180910390fd5b856001600160a01b031663456dc17a6040518163ffffffff1660e01b815260040160206040518083038186803b15801561046657600080fd5b505afa15801561047a573d6000803e3d6000fd5b505050506040513d601f19601f8201168201806040525081019061049e9190612799565b6001600160a01b031688886104b4600182612bab565b8181106104d157634e487b7160e01b600052603260045260246000fd5b90506020020160208101906104e69190612776565b6001600160a01b03161480156105b25750856001600160a01b031663a1ad54e66040518163ffffffff1660e01b815260040160206040518083038186803b15801561053057600080fd5b505afa158015610544573d6000803e3d6000fd5b505050506040513d601f19601f820116820180604052508101906105689190612799565b6001600160a01b03168888600081811061059257634e487b7160e01b600052603260045260246000fd5b90506020020160208101906105a79190612776565b6001600160a01b0316145b6105ce5760405162461bcd60e51b815260040161042490612a2f565b60006105d98c6112dd565b905060606106246105ea838f612bab565b8c8c8c8080602002602001604051908101604052809392919081815260200183836020028082843760009201919091525061130792505050565b809250819550505061066e33898f87600189516106419190612bab565b8151811061065f57634e487b7160e01b600052603260045260246000fd5b60200260200101518b8b611624565b6106ee338b8b600081811061069357634e487b7160e01b600052603260045260246000fd5b90506020020160208101906106a89190612776565b8c8c6106b5600182612bab565b8181106106d257634e487b7160e01b600052603260045260246000fd5b90506020020160208101906106e79190612776565b8a8a6117af565b6106fb848d838d8d611896565b6040516001600160a01b038916815233907f01b7c8da263f90a3f5f5886fdd0247d721a0e86b0a4b86f43720f07e975b7def9060200160405180910390a2337fbc4fb982d00f64d415349ea58464559e60570835f500eb69f74311d8d18d8d1d8b8b60008161077a57634e487b7160e01b600052603260045260246000fd5b905060200201602081019061078f9190612776565b8c8c61079c600182612bab565b8181106107b957634e487b7160e01b600052603260045260246000fd5b90506020020160208101906107ce9190612776565b876000815181106107ef57634e487b7160e01b600052603260045260246000fd5b60200260200101518860018a516108069190612bab565b8151811061082457634e487b7160e01b600052603260045260246000fd5b602002602001015160405161086094939291906001600160a01b0394851681529290931660208301526040820152606081019190915260800190565b60405180910390a25050509998505050505050505050565b6060814281101561089b5760405162461bcd60e51b815260040161042490612ab8565b856001600160a01b031663456dc17a6040518163ffffffff1660e01b815260040160206040518083038186803b1580156108d457600080fd5b505afa1580156108e8573d6000803e3d6000fd5b505050506040513d601f19601f8201168201806040525081019061090c9190612799565b6001600160a01b03168888600081811061093657634e487b7160e01b600052603260045260246000fd5b905060200201602081019061094b9190612776565b6001600160a01b0316148015610a205750856001600160a01b031663a1ad54e66040518163ffffffff1660e01b815260040160206040518083038186803b15801561099557600080fd5b505afa1580156109a9573d6000803e3d6000fd5b505050506040513d601f19601f820116820180604052508101906109cd9190612799565b6001600160a01b031688886109e3600182612bab565b818110610a0057634e487b7160e01b600052603260045260246000fd5b9050602002016020810190610a159190612776565b6001600160a01b0316145b610a3c5760405162461bcd60e51b815260040161042490612a2f565b6000610a478c6112dd565b90506060610a586105ea838f612bab565b9094509050610adb338b8b600081610a8057634e487b7160e01b600052603260045260246000fd5b9050602002016020810190610a959190612776565b8c8c610aa2600182612bab565b818110610abf57634e487b7160e01b600052603260045260246000fd5b9050602002016020810190610ad49190612776565b8a8a611a60565b6106ee33898f8760018951610af09190612bab565b81518110610b0e57634e487b7160e01b600052603260045260246000fd5b60200260200101518b8b611b0d565b60608142811015610b405760405162461bcd60e51b815260040161042490612ab8565b856001600160a01b031663456dc17a6040518163ffffffff1660e01b815260040160206040518083038186803b158015610b7957600080fd5b505afa158015610b8d573d6000803e3d6000fd5b505050506040513d601f19601f82011682018060405250810190610bb19190612799565b6001600160a01b031688886000818110610bdb57634e487b7160e01b600052603260045260246000fd5b9050602002016020810190610bf09190612776565b6001600160a01b0316148015610cc55750856001600160a01b031663a1ad54e66040518163ffffffff1660e01b815260040160206040518083038186803b158015610c3a57600080fd5b505afa158015610c4e573d6000803e3d6000fd5b505050506040513d601f19601f82011682018060405250810190610c729190612799565b6001600160a01b03168888610c88600182612bab565b818110610ca557634e487b7160e01b600052603260045260246000fd5b9050602002016020810190610cba9190612776565b6001600160a01b0316145b610ce15760405162461bcd60e51b815260040161042490612a2f565b6060610d33610cef8d611bf1565b610cf9908e612b54565b8b8b8b80806020026020016040519081016040528093929190818152602001838360200280828437600092019190915250611c0192505050565b9093509050610db6338a8a600081610d5b57634e487b7160e01b600052603260045260246000fd5b9050602002016020810190610d709190612776565b8b8b610d7d600182612bab565b818110610d9a57634e487b7160e01b600052603260045260246000fd5b9050602002016020810190610daf9190612776565b8989611a60565b610dec338885600081518110610ddc57634e487b7160e01b600052603260045260246000fd5b60200260200101518f8a8a611b0d565b610df9838c838c8c611f40565b6040516001600160a01b038816815233907f01b7c8da263f90a3f5f5886fdd0247d721a0e86b0a4b86f43720f07e975b7def9060200160405180910390a2337fbc4fb982d00f64d415349ea58464559e60570835f500eb69f74311d8d18d8d1d8a8a600081610e7857634e487b7160e01b600052603260045260246000fd5b9050602002016020810190610e8d9190612776565b8b8b610e9a600182612bab565b818110610eb757634e487b7160e01b600052603260045260246000fd5b9050602002016020810190610ecc9190612776565b86600081518110610eed57634e487b7160e01b600052603260045260246000fd5b60200260200101518760018951610f049190612bab565b81518110610f2257634e487b7160e01b600052603260045260246000fd5b6020026020010151604051610f5e94939291906001600160a01b0394851681529290931660208301526040820152606081019190915260800190565b60405180910390a250509998505050505050505050565b6040516393552a3d60e01b8152600481018390526001600160a01b0382811660248301527f000000000000000000000000000000000000000000000000000000000000000016906393552a3d9060440160206040518083038186803b158015610fdd57600080fd5b505afa158015610ff1573d6000803e3d6000fd5b505050506040513d601f19601f8201168201806040525081019061101591906127e0565b6001600160a01b0391909116600090815260016020908152604080832094835293905291909120805460ff1916911515919091179055565b606081428110156110705760405162461bcd60e51b815260040161042490612ab8565b856001600160a01b031663456dc17a6040518163ffffffff1660e01b815260040160206040518083038186803b1580156110a957600080fd5b505afa1580156110bd573d6000803e3d6000fd5b505050506040513d601f19601f820116820180604052508101906110e19190612799565b6001600160a01b031688886110f7600182612bab565b81811061111457634e487b7160e01b600052603260045260246000fd5b90506020020160208101906111299190612776565b6001600160a01b03161480156111f55750856001600160a01b031663a1ad54e66040518163ffffffff1660e01b815260040160206040518083038186803b15801561117357600080fd5b505afa158015611187573d6000803e3d6000fd5b505050506040513d601f19601f820116820180604052508101906111ab9190612799565b6001600160a01b0316888860008181106111d557634e487b7160e01b600052603260045260246000fd5b90506020020160208101906111ea9190612776565b6001600160a01b0316145b6112115760405162461bcd60e51b815260040161042490612a2f565b606061121f610cef8d611bf1565b809250819450505061125d33888560008151811061124d57634e487b7160e01b600052603260045260246000fd5b60200260200101518f8a8a611624565b610dec338a8a600081811061128257634e487b7160e01b600052603260045260246000fd5b90506020020160208101906112979190612776565b8b8b6112a4600182612bab565b8181106112c157634e487b7160e01b600052603260045260246000fd5b90506020020160208101906112d69190612776565b89896117af565b60006112ec600a612710612b54565b6112f783600a612b8c565b6113019190612b6c565b92915050565b6060806002835110156113535760405162461bcd60e51b81526020600482015260146024820152731d1bdad95b881c185d1a081d1bdbc81cda1bdc9d60621b6044820152606401610424565b825167ffffffffffffffff81111561137b57634e487b7160e01b600052604160045260246000fd5b6040519080825280602002602001820160405280156113a4578160200160208202803683370190505b50915084826000815181106113c957634e487b7160e01b600052603260045260246000fd5b602002602001018181525050600183516113e39190612bab565b67ffffffffffffffff81111561140957634e487b7160e01b600052604160045260246000fd5b604051908082528060200260200182016040528015611432578160200160208202803683370190505b50905060005b600184516114469190612bab565b81101561161b57600084828151811061146f57634e487b7160e01b600052603260045260246000fd5b602002602001015190506000858360016114899190612b54565b815181106114a757634e487b7160e01b600052603260045260246000fd5b6020026020010151905060008784602081106114d357634e487b7160e01b600052603260045260246000fd5b1a60f81b6001600160f81b0319161561153c5787846020811061150657634e487b7160e01b600052603260045260246000fd5b1a60f81b6001600160f81b031916600160f81b1461152d576115288383611fc4565b611537565b6115378383612057565b611546565b61154683836120c9565b90508085858151811061156957634e487b7160e01b600052603260045260246000fd5b60200260200101906001600160a01b031690816001600160a01b03168152505060008061159783868661213b565b915091506115cd8887815181106115be57634e487b7160e01b600052603260045260246000fd5b6020026020010151838361220a565b886115d9886001612b54565b815181106115f757634e487b7160e01b600052603260045260246000fd5b6020026020010181815250505050505050808061161390612bd9565b915050611438565b50935093915050565b60006116308285612bab565b90506001600160a01b03861663c5f1d5c2888361164d878a612bab565b6040516001600160e01b031960e086901b1681526001600160a01b03909316600484015260248301919091526044820152606401600060405180830381600087803b15801561169b57600080fd5b505af11580156116af573d6000803e3d6000fd5b505050506116bb6122f3565b604051632a6a897b60e01b81526001600160a01b038881166004830152602482018490529190911690632a6a897b906044015b600060405180830381600087803b15801561170857600080fd5b505af115801561171c573d6000803e3d6000fd5b505050506117286122f3565b60405163dc683bcf60e01b81526001600160a01b038881166004830152919091169063dc683bcf90602401602060405180830381600087803b15801561176d57600080fd5b505af1158015611781573d6000803e3d6000fd5b505050506040513d601f19601f820116820180604052508101906117a59190612866565b5050505050505050565b811561181f576117bd61232b565b6001600160a01b031663d9caed128587856040518463ffffffff1660e01b81526004016117ec939291906129c7565b600060405180830381600087803b15801561180657600080fd5b505af115801561181a573d6000803e3d6000fd5b505050505b801561188f5761182d61232b565b6001600160a01b031663d9caed128487846040518463ffffffff1660e01b815260040161185c939291906129c7565b600060405180830381600087803b15801561187657600080fd5b505af115801561188a573d6000803e3d6000fd5b505050505b5050505050565b8385600187516118a69190612bab565b815181106118c457634e487b7160e01b600052603260045260246000fd5b6020026020010151101561192b5760405162461bcd60e51b815260206004820152602860248201527f4d617267696e526f757465723a20494e53554646494349454e545f4f555450556044820152671517d05353d5539560c21b6064820152608401610424565b61193361232b565b6001600160a01b031663d9caed128383600081811061196257634e487b7160e01b600052603260045260246000fd5b90506020020160208101906119779190612776565b8560008151811061199857634e487b7160e01b600052603260045260246000fd5b6020026020010151886000815181106119c157634e487b7160e01b600052603260045260246000fd5b60200260200101516040518463ffffffff1660e01b81526004016119e7939291906129c7565b600060405180830381600087803b158015611a0157600080fd5b505af1158015611a15573d6000803e3d6000fd5b5050505061188f8584848480806020026020016040519081016040528093929190818152602001838360200280828437600092019190915250611a5b925061232b915050565b612363565b8115611ad057611a6e61232b565b6001600160a01b031663b3db428b8686856040518463ffffffff1660e01b8152600401611a9d939291906129c7565b600060405180830381600087803b158015611ab757600080fd5b505af1158015611acb573d6000803e3d6000fd5b505050505b801561188f57611ade61232b565b6001600160a01b031663b3db428b8685846040518463ffffffff1660e01b815260040161185c939291906129c7565b6000611b198386612bab565b90506001600160a01b038616638b2db5698883611b368689612b54565b6000881180611b455750600087115b6040516001600160e01b031960e087901b1681526001600160a01b0390941660048501526024840192909252604483015215156064820152608401600060405180830381600087803b158015611b9a57600080fd5b505af1158015611bae573d6000803e3d6000fd5b50505050611bba6122f3565b60405163ee0862bf60e01b81526001600160a01b03888116600483015260248201849052919091169063ee0862bf906044016116ee565b60006127106112f783600a612b8c565b606080600283511015611c4d5760405162461bcd60e51b81526020600482015260146024820152731d1bdad95b881c185d1a081d1bdbc81cda1bdc9d60621b6044820152606401610424565b825167ffffffffffffffff811115611c7557634e487b7160e01b600052604160045260246000fd5b604051908082528060200260200182016040528015611c9e578160200160208202803683370190505b509150848260018451611cb19190612bab565b81518110611ccf57634e487b7160e01b600052603260045260246000fd5b60200260200101818152505060018351611ce99190612bab565b67ffffffffffffffff811115611d0f57634e487b7160e01b600052604160045260246000fd5b604051908082528060200260200182016040528015611d38578160200160208202803683370190505b509050600060018451611d4b9190612bab565b90505b801561161b57600084611d62600184612bab565b81518110611d8057634e487b7160e01b600052603260045260246000fd5b602002602001015190506000858381518110611dac57634e487b7160e01b600052603260045260246000fd5b60200260200101519050600087600185611dc69190612bab565b60208110611de457634e487b7160e01b600052603260045260246000fd5b1a60f81b6001600160f81b03191615611e575787611e03600186612bab565b60208110611e2157634e487b7160e01b600052603260045260246000fd5b1a60f81b6001600160f81b031916600160f81b14611e4857611e438383611fc4565b611e52565b611e528383612057565b611e61565b611e6183836120c9565b90508085611e70600187612bab565b81518110611e8e57634e487b7160e01b600052603260045260246000fd5b60200260200101906001600160a01b031690816001600160a01b031681525050600080611ebc83868661213b565b91509150611ef2888781518110611ee357634e487b7160e01b600052603260045260246000fd5b60200260200101518383612591565b88611efe600189612bab565b81518110611f1c57634e487b7160e01b600052603260045260246000fd5b60200260200101818152505050505050508080611f3890612bc2565b915050611d4e565b8385600081518110611f6257634e487b7160e01b600052603260045260246000fd5b6020026020010151111561192b5760405162461bcd60e51b8152602060048201526024808201527f4d617267696e526f757465723a204558434553534956455f494e5055545f414d60448201526313d5539560e21b6064820152608401610424565b6000806000611fd38585612680565b915091507f0000000000000000000000000000000000000000000000000000000000000000828260405160200161200b929190612968565b604051602081830303815290604052805190602001206004546040516020016120369392919061298f565b60408051601f19818403018152919052805160209091012095945050505050565b60008060006120668585612680565b915091507f0000000000000000000000000000000000000000000000000000000000000000828260405160200161209e929190612968565b604051602081830303815290604052805190602001206003546040516020016120369392919061298f565b60008060006120d88585612680565b915091507f00000000000000000000000000000000000000000000000000000000000000008282604051602001612110929190612968565b604051602081830303815290604052805190602001206002546040516020016120369392919061298f565b600080600061214a8585612680565b509050600080876001600160a01b0316630902f1ac6040518163ffffffff1660e01b815260040160606040518083038186803b15801561218957600080fd5b505afa15801561219d573d6000803e3d6000fd5b505050506040513d601f19601f820116820180604052508101906121c19190612800565b506001600160701b031691506001600160701b03169150826001600160a01b0316876001600160a01b0316146121f85780826121fb565b81815b90999098509650505050505050565b600080841161225b5760405162461bcd60e51b815260206004820152601960248201527f494e53554646494349454e545f494e5055545f414d4f554e54000000000000006044820152606401610424565b60008311801561226b5750600082115b6122875760405162461bcd60e51b815260040161042490612a70565b60006122b37f000000000000000000000000000000000000000000000000000000000000000086612b8c565b905060006122c18483612b8c565b90506000826122d287612710612b8c565b6122dc9190612b54565b90506122e88183612b6c565b979650505050505050565b606660009081526020527f422cccb7cea5c0e46f340bb7b21b81debac329f72e31669c20ff0f3a05cc2b5b546001600160a01b031690565b606560009081526020527f4a7203f705e51df4a56139a9b86b4a0970bed7ab7a3446eaffe2289989c1645c546001600160a01b031690565b60005b835181101561188f5760008084838151811061239257634e487b7160e01b600052603260045260246000fd5b6020026020010151858460016123a89190612b54565b815181106123c657634e487b7160e01b600052603260045260246000fd5b60200260200101519150915060006123de8383612680565b5090506000886123ef866001612b54565b8151811061240d57634e487b7160e01b600052603260045260246000fd5b60200260200101519050600080836001600160a01b0316866001600160a01b03161461243b5782600061243f565b6000835b91509150600060018b516124539190612bab565b881061245f5788612492565b8a61246b896001612b54565b8151811061248957634e487b7160e01b600052603260045260246000fd5b60200260200101515b905060008b89815181106124b657634e487b7160e01b600052603260045260246000fd5b60200260200101519050806001600160a01b031663022c0d9f858585600067ffffffffffffffff8111156124fa57634e487b7160e01b600052604160045260246000fd5b6040519080825280601f01601f191660200182016040528015612524576020820181803683370190505b506040518563ffffffff1660e01b81526004016125449493929190612ae3565b600060405180830381600087803b15801561255e57600080fd5b505af1158015612572573d6000803e3d6000fd5b505050505050505050505050808061258990612bd9565b915050612366565b60008084116125e25760405162461bcd60e51b815260206004820152601a60248201527f494e53554646494349454e545f4f55545055545f414d4f554e540000000000006044820152606401610424565b6000831180156125f25750600082115b61260e5760405162461bcd60e51b815260040161042490612a70565b600061261a8585612b8c565b61262690612710612b8c565b905060007f00000000000000000000000000000000000000000000000000000000000000006126558786612bab565b61265f9190612b8c565b905061266b8183612b6c565b612676906001612b54565b9695505050505050565b600080826001600160a01b0316846001600160a01b031614156126da5760405162461bcd60e51b81526020600482015260126024820152714964656e746963616c20616464726573732160701b6044820152606401610424565b826001600160a01b0316846001600160a01b0316106126fa5782846126fd565b83835b90925090506001600160a01b0382166127485760405162461bcd60e51b815260206004820152600d60248201526c5a65726f20616464726573732160981b6044820152606401610424565b9250929050565b803561275a81612c0a565b919050565b80516001600160701b038116811461275a57600080fd5b600060208284031215612787578081fd5b813561279281612c0a565b9392505050565b6000602082840312156127aa578081fd5b815161279281612c0a565b600080604083850312156127c7578081fd5b82356127d281612c0a565b946020939093013593505050565b6000602082840312156127f1578081fd5b81518015158114612792578182fd5b600080600060608486031215612814578081fd5b61281d8461275f565b925061282b6020850161275f565b9150604084015163ffffffff81168114612843578182fd5b809150509250925092565b60006020828403121561285f578081fd5b5035919050565b600060208284031215612877578081fd5b5051919050565b60008060408385031215612890578182fd5b8235915060208301356128a281612c0a565b809150509250929050565b60008060008060008060008060006101008a8c0312156128cb578485fd5b8935985060208a0135975060408a0135965060608a013567ffffffffffffffff808211156128f7578687fd5b818c0191508c601f83011261290a578687fd5b813581811115612918578788fd5b8d60208260051b850101111561292c578788fd5b60208301985080975050505061294460808b0161274f565b935060a08a0135925060c08a0135915060e08a013590509295985092959850929598565b6bffffffffffffffffffffffff19606093841b811682529190921b16601482015260280190565b6001600160f81b0319815260609390931b6bffffffffffffffffffffffff191660018401526015830191909152603582015260550190565b6001600160a01b039384168152919092166020820152604081019190915260600190565b6020808252825182820181905260009190848201906040850190845b81811015612a2357835183529284019291840191600101612a07565b50909695505050505050565b60208082526021908201527f5061746820646f6573206e6f74206d617463682069736f6c61746564207061696040820152603960f91b606082015260800190565b60208082526028908201527f556e697377617056324c6962726172793a20494e53554646494349454e545f4c604082015267495155494449545960c01b606082015260800190565b602080825260119082015270151c985919481a185cc8195e1c1a5c9959607a1b604082015260600190565b60008582526020858184015260018060a01b0385166040840152608060608401528351806080850152825b81811015612b2a5785810183015185820160a001528201612b0e565b81811115612b3b578360a083870101525b50601f01601f19169290920160a0019695505050505050565b60008219821115612b6757612b67612bf4565b500190565b600082612b8757634e487b7160e01b81526012600452602481fd5b500490565b6000816000190483118215151615612ba657612ba6612bf4565b500290565b600082821015612bbd57612bbd612bf4565b500390565b600081612bd157612bd1612bf4565b506000190190565b6000600019821415612bed57612bed612bf4565b5060010190565b634e487b7160e01b600052601160045260246000fd5b6001600160a01b0381168114612c1f57600080fd5b5056fea2646970667358221220d6c2289fc5442c839838f36d1114b05f9bec86556abc8001b758b9e297c686e864736f6c63430008030033",
  "linkReferences": {},
  "deployedLinkReferences": {}
}