{
  "_format": "hh-sol-artifact-1",
  "contractName": "IsolatedMarginRouter",
  "sourceName": "contracts/isolated/IsolatedMarginRouter.sol",
  "abi": [
    {
      "inputs": [
        {
          "internalType": "address",
          "name": "_WETH",
          "type": "address"
        },
        {
          "internalType": "address",
          "name": "_amm1Factory",
          "type": "address"
        },
        {
          "internalType": "address",
          "name": "_amm2Factory",
          "type": "address"
        },
        {
          "internalType": "bytes32",
          "name": "_amm1InitHash",
          "type": "bytes32"
        },
        {
          "internalType": "bytes32",
          "name": "_amm2InitHash",
          "type": "bytes32"
        },
        {
          "internalType": "address",
          "name": "_roles",
          "type": "address"
        }
      ],
      "stateMutability": "nonpayable",
      "type": "constructor"
    },
    {
      "anonymous": false,
      "inputs": [
        {
          "indexed": true,
          "internalType": "address",
          "name": "trader",
          "type": "address"
        },
        {
          "indexed": false,
          "internalType": "address",
          "name": "isolatedPair",
          "type": "address"
        }
      ],
      "name": "IsolatedAccountUpdated",
      "type": "event"
    },
    {
      "anonymous": false,
      "inputs": [
        {
          "indexed": true,
          "internalType": "address",
          "name": "trader",
          "type": "address"
        },
        {
          "indexed": false,
          "internalType": "address",
          "name": "fromToken",
          "type": "address"
        },
        {
          "indexed": false,
          "internalType": "address",
          "name": "toToken",
          "type": "address"
        },
        {
          "indexed": false,
          "internalType": "uint256",
          "name": "fromAmount",
          "type": "uint256"
        },
        {
          "indexed": false,
          "internalType": "uint256",
          "name": "toAmount",
          "type": "uint256"
        }
      ],
      "name": "IsolatedMarginTrade",
      "type": "event"
    },
    {
      "inputs": [],
      "name": "WETH",
      "outputs": [
        {
          "internalType": "address",
          "name": "",
          "type": "address"
        }
      ],
      "stateMutability": "view",
      "type": "function"
    },
    {
      "inputs": [],
      "name": "amm1Factory",
      "outputs": [
        {
          "internalType": "address",
          "name": "",
          "type": "address"
        }
      ],
      "stateMutability": "view",
      "type": "function"
    },
    {
      "inputs": [],
      "name": "amm1InitHash",
      "outputs": [
        {
          "internalType": "bytes32",
          "name": "",
          "type": "bytes32"
        }
      ],
      "stateMutability": "view",
      "type": "function"
    },
    {
      "inputs": [],
      "name": "amm2Factory",
      "outputs": [
        {
          "internalType": "address",
          "name": "",
          "type": "address"
        }
      ],
      "stateMutability": "view",
      "type": "function"
    },
    {
      "inputs": [],
      "name": "amm2InitHash",
      "outputs": [
        {
          "internalType": "bytes32",
          "name": "",
          "type": "bytes32"
        }
      ],
      "stateMutability": "view",
      "type": "function"
    },
    {
      "inputs": [
        {
          "internalType": "uint256",
          "name": "",
          "type": "uint256"
        }
      ],
      "name": "mainCharacterCache",
      "outputs": [
        {
          "internalType": "address",
          "name": "",
          "type": "address"
        }
      ],
      "stateMutability": "view",
      "type": "function"
    },
    {
      "inputs": [],
      "name": "mswapFeesPer10k",
      "outputs": [
        {
          "internalType": "uint256",
          "name": "",
          "type": "uint256"
        }
      ],
      "stateMutability": "view",
      "type": "function"
    },
    {
      "inputs": [
        {
          "internalType": "address",
          "name": "",
          "type": "address"
        },
        {
          "internalType": "uint256",
          "name": "",
          "type": "uint256"
        }
      ],
      "name": "roleCache",
      "outputs": [
        {
          "internalType": "bool",
          "name": "",
          "type": "bool"
        }
      ],
      "stateMutability": "view",
      "type": "function"
    },
    {
      "inputs": [],
      "name": "roles",
      "outputs": [
        {
          "internalType": "contract Roles",
          "name": "",
          "type": "address"
        }
      ],
      "stateMutability": "view",
      "type": "function"
    },
    {
      "inputs": [
        {
          "internalType": "uint256",
          "name": "amountIn",
          "type": "uint256"
        },
        {
          "internalType": "uint256",
          "name": "amountOutMin",
          "type": "uint256"
        },
        {
          "internalType": "bytes32",
          "name": "amms",
          "type": "bytes32"
        },
        {
          "internalType": "address[]",
          "name": "tokens",
          "type": "address[]"
        },
        {
          "internalType": "address",
          "name": "_isolatedPair",
          "type": "address"
        },
        {
          "internalType": "uint256",
          "name": "depositFrom",
          "type": "uint256"
        },
        {
          "internalType": "uint256",
          "name": "depositTo",
          "type": "uint256"
        },
        {
          "internalType": "uint256",
          "name": "deadline",
          "type": "uint256"
        }
      ],
      "name": "swapExactTokensForTokensPosition",
      "outputs": [
        {
          "internalType": "uint256[]",
          "name": "amounts",
          "type": "uint256[]"
        }
      ],
      "stateMutability": "nonpayable",
      "type": "function"
    },
    {
      "inputs": [
        {
          "internalType": "uint256",
          "name": "amountIn",
          "type": "uint256"
        },
        {
          "internalType": "uint256",
          "name": "amountOutMin",
          "type": "uint256"
        },
        {
          "internalType": "bytes32",
          "name": "amms",
          "type": "bytes32"
        },
        {
          "internalType": "address[]",
          "name": "tokens",
          "type": "address[]"
        },
        {
          "internalType": "address",
          "name": "_isolatedPair",
          "type": "address"
        },
        {
          "internalType": "uint256",
          "name": "withdrawFrom",
          "type": "uint256"
        },
        {
          "internalType": "uint256",
          "name": "withdrawTo",
          "type": "uint256"
        },
        {
          "internalType": "uint256",
          "name": "deadline",
          "type": "uint256"
        }
      ],
      "name": "swapExactTokensForTokensUnwind",
      "outputs": [
        {
          "internalType": "uint256[]",
          "name": "amounts",
          "type": "uint256[]"
        }
      ],
      "stateMutability": "nonpayable",
      "type": "function"
    },
    {
      "inputs": [
        {
          "internalType": "uint256",
          "name": "amountOut",
          "type": "uint256"
        },
        {
          "internalType": "uint256",
          "name": "amountInMax",
          "type": "uint256"
        },
        {
          "internalType": "bytes32",
          "name": "amms",
          "type": "bytes32"
        },
        {
          "internalType": "address[]",
          "name": "tokens",
          "type": "address[]"
        },
        {
          "internalType": "address",
          "name": "_isolatedPair",
          "type": "address"
        },
        {
          "internalType": "uint256",
          "name": "depositFrom",
          "type": "uint256"
        },
        {
          "internalType": "uint256",
          "name": "depositTo",
          "type": "uint256"
        },
        {
          "internalType": "uint256",
          "name": "deadline",
          "type": "uint256"
        }
      ],
      "name": "swapTokensForExactTokensPosition",
      "outputs": [
        {
          "internalType": "uint256[]",
          "name": "amounts",
          "type": "uint256[]"
        }
      ],
      "stateMutability": "nonpayable",
      "type": "function"
    },
    {
      "inputs": [
        {
          "internalType": "uint256",
          "name": "amountOut",
          "type": "uint256"
        },
        {
          "internalType": "uint256",
          "name": "amountInMax",
          "type": "uint256"
        },
        {
          "internalType": "bytes32",
          "name": "amms",
          "type": "bytes32"
        },
        {
          "internalType": "address[]",
          "name": "tokens",
          "type": "address[]"
        },
        {
          "internalType": "address",
          "name": "_isolatedPair",
          "type": "address"
        },
        {
          "internalType": "uint256",
          "name": "withdrawFrom",
          "type": "uint256"
        },
        {
          "internalType": "uint256",
          "name": "withdrawTo",
          "type": "uint256"
        },
        {
          "internalType": "uint256",
          "name": "deadline",
          "type": "uint256"
        }
      ],
      "name": "swapTokensForExactTokensUnwind",
      "outputs": [
        {
          "internalType": "uint256[]",
          "name": "amounts",
          "type": "uint256[]"
        }
      ],
      "stateMutability": "nonpayable",
      "type": "function"
    },
    {
      "inputs": [
        {
          "internalType": "uint256",
          "name": "role",
          "type": "uint256"
        }
      ],
      "name": "updateMainCharacterCache",
      "outputs": [],
      "stateMutability": "nonpayable",
      "type": "function"
    },
    {
      "inputs": [
        {
          "internalType": "uint256",
          "name": "role",
          "type": "uint256"
        },
        {
          "internalType": "address",
          "name": "contr",
          "type": "address"
        }
      ],
      "name": "updateRoleCache",
      "outputs": [],
      "stateMutability": "nonpayable",
      "type": "function"
    }
  ],
  "bytecode": "0x6101006040523480156200001257600080fd5b5060405162003841380380620038418339810160408190526200003591620000ff565b84848484846001600160a01b038116620000a05760405162461bcd60e51b815260206004820152602260248201527f506c656173652070726f766964652076616c696420726f6c6573206164647265604482015261737360f01b606482015260840160405180910390fd5b6001600160601b0319606091821b811660805294811b851660a05292831b841660c0526002919091556003559690961b90951660e052506200016d9350505050565b80516001600160a01b0381168114620000fa57600080fd5b919050565b60008060008060008060c0878903121562000118578182fd5b6200012387620000e2565b95506200013360208801620000e2565b94506200014360408801620000e2565b935060608701519250608087015191506200016160a08801620000e2565b90509295509295509295565b60805160601c60a05160601c60c05160601c60e05160601c613673620001ce600039600061024201526000818160ff015261287501526000818161026901526129af0152600081816101ae0152818161030c01526112f601526136736000f3fe608060405234801561001057600080fd5b50600436106100f55760003560e01c8063447d52ba11610097578063b852eb0d11610066578063b852eb0d14610264578063cfd124af1461028b578063df7c20f91461029e578063e9c3f77d146102a7576100f5565b8063447d52ba146101e35780637a1a04df146101f6578063a75208a814610234578063ad5c46481461023d576100f5565b806328f98801116100d357806328f98801146101765780632c77dda014610196578063392f5f64146101a95780633ec380da146101d0576100f5565b8063059b157a146100fa578063071060a61461014b5780631084bd6d14610160575b600080fd5b6101217f000000000000000000000000000000000000000000000000000000000000000081565b60405173ffffffffffffffffffffffffffffffffffffffff90911681526020015b60405180910390f35b61015e61015936600461330d565b6102dd565b005b610168600a81565b604051908152602001610142565b61018961018436600461336c565b6103ee565b6040516101429190613427565b6101896101a436600461336c565b610983565b6101217f000000000000000000000000000000000000000000000000000000000000000081565b6101896101de36600461336c565b610d30565b61015e6101f136600461333d565b6112aa565b610224610204366004613274565b600160209081526000928352604080842090915290825290205460ff1681565b6040519015158152602001610142565b61016860025481565b6101217f000000000000000000000000000000000000000000000000000000000000000081565b6101217f000000000000000000000000000000000000000000000000000000000000000081565b61018961029936600461336c565b6113d3565b61016860035481565b6101216102b536600461330d565b60006020819052908152604090205473ffffffffffffffffffffffffffffffffffffffff1681565b6040517fb4ed0b6d000000000000000000000000000000000000000000000000000000008152600481018290527f000000000000000000000000000000000000000000000000000000000000000073ffffffffffffffffffffffffffffffffffffffff169063b4ed0b6d9060240160206040518083038186803b15801561036357600080fd5b505afa158015610377573d6000803e3d6000fd5b505050506040513d601f19601f8201168201806040525081019061039b9190613258565b60009182526020829052604090912080547fffffffffffffffffffffffff00000000000000000000000000000000000000001673ffffffffffffffffffffffffffffffffffffffff909216919091179055565b60608142811015610460576040517f08c379a000000000000000000000000000000000000000000000000000000000815260206004820152601160248201527f547261646520686173206578706972656400000000000000000000000000000060448201526064015b60405180910390fd5b8573ffffffffffffffffffffffffffffffffffffffff1663456dc17a6040518163ffffffff1660e01b815260040160206040518083038186803b1580156104a657600080fd5b505afa1580156104ba573d6000803e3d6000fd5b505050506040513d601f19601f820116820180604052508101906104de9190613258565b73ffffffffffffffffffffffffffffffffffffffff16888861050160018261357d565b81811061051e57634e487b7160e01b600052603260045260246000fd5b90506020020160208101906105339190613235565b73ffffffffffffffffffffffffffffffffffffffff1614801561063357508573ffffffffffffffffffffffffffffffffffffffff1663a1ad54e66040518163ffffffff1660e01b815260040160206040518083038186803b15801561059757600080fd5b505afa1580156105ab573d6000803e3d6000fd5b505050506040513d601f19601f820116820180604052508101906105cf9190613258565b73ffffffffffffffffffffffffffffffffffffffff168888600081811061060657634e487b7160e01b600052603260045260246000fd5b905060200201602081019061061b9190613235565b73ffffffffffffffffffffffffffffffffffffffff16145b6106bf576040517f08c379a000000000000000000000000000000000000000000000000000000000815260206004820152602160248201527f5061746820646f6573206e6f74206d617463682069736f6c617465642070616960448201527f72000000000000000000000000000000000000000000000000000000000000006064820152608401610457565b60006106ca8c61176b565b905060606107156106db838f61357d565b8c8c8c8080602002602001604051908101604052809392919081815260200183836020028082843760009201919091525061179592505050565b809250819550505061075f33898f8760018951610732919061357d565b8151811061075057634e487b7160e01b600052603260045260246000fd5b60200260200101518b8b611ac0565b6107df338b8b600081811061078457634e487b7160e01b600052603260045260246000fd5b90506020020160208101906107999190613235565b8c8c6107a660018261357d565b8181106107c357634e487b7160e01b600052603260045260246000fd5b90506020020160208101906107d89190613235565b8a8a611d26565b6107ec848d838d8d611ecd565b60405173ffffffffffffffffffffffffffffffffffffffff8916815233907f01b7c8da263f90a3f5f5886fdd0247d721a0e86b0a4b86f43720f07e975b7def9060200160405180910390a2337fbc4fb982d00f64d415349ea58464559e60570835f500eb69f74311d8d18d8d1d8b8b60008161087857634e487b7160e01b600052603260045260246000fd5b905060200201602081019061088d9190613235565b8c8c61089a60018261357d565b8181106108b757634e487b7160e01b600052603260045260246000fd5b90506020020160208101906108cc9190613235565b876000815181106108ed57634e487b7160e01b600052603260045260246000fd5b60200260200101518860018a51610904919061357d565b8151811061092257634e487b7160e01b600052603260045260246000fd5b602002602001015160405161096b949392919073ffffffffffffffffffffffffffffffffffffffff94851681529290931660208301526040820152606081019190915260800190565b60405180910390a25050509998505050505050505050565b606081428110156109f0576040517f08c379a000000000000000000000000000000000000000000000000000000000815260206004820152601160248201527f54726164652068617320657870697265640000000000000000000000000000006044820152606401610457565b8573ffffffffffffffffffffffffffffffffffffffff1663456dc17a6040518163ffffffff1660e01b815260040160206040518083038186803b158015610a3657600080fd5b505afa158015610a4a573d6000803e3d6000fd5b505050506040513d601f19601f82011682018060405250810190610a6e9190613258565b73ffffffffffffffffffffffffffffffffffffffff1688886000818110610aa557634e487b7160e01b600052603260045260246000fd5b9050602002016020810190610aba9190613235565b73ffffffffffffffffffffffffffffffffffffffff16148015610bc357508573ffffffffffffffffffffffffffffffffffffffff1663a1ad54e66040518163ffffffff1660e01b815260040160206040518083038186803b158015610b1e57600080fd5b505afa158015610b32573d6000803e3d6000fd5b505050506040513d601f19601f82011682018060405250810190610b569190613258565b73ffffffffffffffffffffffffffffffffffffffff168888610b7960018261357d565b818110610b9657634e487b7160e01b600052603260045260246000fd5b9050602002016020810190610bab9190613235565b73ffffffffffffffffffffffffffffffffffffffff16145b610c4f576040517f08c379a000000000000000000000000000000000000000000000000000000000815260206004820152602160248201527f5061746820646f6573206e6f74206d617463682069736f6c617465642070616960448201527f72000000000000000000000000000000000000000000000000000000000000006064820152608401610457565b6000610c5a8c61176b565b90506060610c6b6106db838f61357d565b9094509050610cee338b8b600081610c9357634e487b7160e01b600052603260045260246000fd5b9050602002016020810190610ca89190613235565b8c8c610cb560018261357d565b818110610cd257634e487b7160e01b600052603260045260246000fd5b9050602002016020810190610ce79190613235565b8a8a61214c565b6107df33898f8760018951610d03919061357d565b81518110610d2157634e487b7160e01b600052603260045260246000fd5b60200260200101518b8b6122bd565b60608142811015610d9d576040517f08c379a000000000000000000000000000000000000000000000000000000000815260206004820152601160248201527f54726164652068617320657870697265640000000000000000000000000000006044820152606401610457565b8573ffffffffffffffffffffffffffffffffffffffff1663456dc17a6040518163ffffffff1660e01b815260040160206040518083038186803b158015610de357600080fd5b505afa158015610df7573d6000803e3d6000fd5b505050506040513d601f19601f82011682018060405250810190610e1b9190613258565b73ffffffffffffffffffffffffffffffffffffffff1688886000818110610e5257634e487b7160e01b600052603260045260246000fd5b9050602002016020810190610e679190613235565b73ffffffffffffffffffffffffffffffffffffffff16148015610f7057508573ffffffffffffffffffffffffffffffffffffffff1663a1ad54e66040518163ffffffff1660e01b815260040160206040518083038186803b158015610ecb57600080fd5b505afa158015610edf573d6000803e3d6000fd5b505050506040513d601f19601f82011682018060405250810190610f039190613258565b73ffffffffffffffffffffffffffffffffffffffff168888610f2660018261357d565b818110610f4357634e487b7160e01b600052603260045260246000fd5b9050602002016020810190610f589190613235565b73ffffffffffffffffffffffffffffffffffffffff16145b610ffc576040517f08c379a000000000000000000000000000000000000000000000000000000000815260206004820152602160248201527f5061746820646f6573206e6f74206d617463682069736f6c617465642070616960448201527f72000000000000000000000000000000000000000000000000000000000000006064820152608401610457565b606061104e61100a8d61241c565b611014908e613508565b8b8b8b8080602002602001604051908101604052809392919081815260200183836020028082843760009201919091525061242c92505050565b90935090506110d1338a8a60008161107657634e487b7160e01b600052603260045260246000fd5b905060200201602081019061108b9190613235565b8b8b61109860018261357d565b8181106110b557634e487b7160e01b600052603260045260246000fd5b90506020020160208101906110ca9190613235565b898961214c565b6111073388856000815181106110f757634e487b7160e01b600052603260045260246000fd5b60200260200101518f8a8a6122bd565b611114838c838c8c61276f565b60405173ffffffffffffffffffffffffffffffffffffffff8816815233907f01b7c8da263f90a3f5f5886fdd0247d721a0e86b0a4b86f43720f07e975b7def9060200160405180910390a2337fbc4fb982d00f64d415349ea58464559e60570835f500eb69f74311d8d18d8d1d8a8a6000816111a057634e487b7160e01b600052603260045260246000fd5b90506020020160208101906111b59190613235565b8b8b6111c260018261357d565b8181106111df57634e487b7160e01b600052603260045260246000fd5b90506020020160208101906111f49190613235565b8660008151811061121557634e487b7160e01b600052603260045260246000fd5b6020026020010151876001895161122c919061357d565b8151811061124a57634e487b7160e01b600052603260045260246000fd5b6020026020010151604051611293949392919073ffffffffffffffffffffffffffffffffffffffff94851681529290931660208301526040820152606081019190915260800190565b60405180910390a250509998505050505050505050565b6040517f93552a3d0000000000000000000000000000000000000000000000000000000081526004810183905273ffffffffffffffffffffffffffffffffffffffff82811660248301527f000000000000000000000000000000000000000000000000000000000000000016906393552a3d9060440160206040518083038186803b15801561133857600080fd5b505afa15801561134c573d6000803e3d6000fd5b505050506040513d601f19601f82011682018060405250810190611370919061329f565b73ffffffffffffffffffffffffffffffffffffffff9190911660009081526001602090815260408083209483529390529190912080547fffffffffffffffffffffffffffffffffffffffffffffffffffffffffffffff0016911515919091179055565b60608142811015611440576040517f08c379a000000000000000000000000000000000000000000000000000000000815260206004820152601160248201527f54726164652068617320657870697265640000000000000000000000000000006044820152606401610457565b8573ffffffffffffffffffffffffffffffffffffffff1663456dc17a6040518163ffffffff1660e01b815260040160206040518083038186803b15801561148657600080fd5b505afa15801561149a573d6000803e3d6000fd5b505050506040513d601f19601f820116820180604052508101906114be9190613258565b73ffffffffffffffffffffffffffffffffffffffff1688886114e160018261357d565b8181106114fe57634e487b7160e01b600052603260045260246000fd5b90506020020160208101906115139190613235565b73ffffffffffffffffffffffffffffffffffffffff1614801561161357508573ffffffffffffffffffffffffffffffffffffffff1663a1ad54e66040518163ffffffff1660e01b815260040160206040518083038186803b15801561157757600080fd5b505afa15801561158b573d6000803e3d6000fd5b505050506040513d601f19601f820116820180604052508101906115af9190613258565b73ffffffffffffffffffffffffffffffffffffffff16888860008181106115e657634e487b7160e01b600052603260045260246000fd5b90506020020160208101906115fb9190613235565b73ffffffffffffffffffffffffffffffffffffffff16145b61169f576040517f08c379a000000000000000000000000000000000000000000000000000000000815260206004820152602160248201527f5061746820646f6573206e6f74206d617463682069736f6c617465642070616960448201527f72000000000000000000000000000000000000000000000000000000000000006064820152608401610457565b60606116ad61100a8d61241c565b80925081945050506116eb3388856000815181106116db57634e487b7160e01b600052603260045260246000fd5b60200260200101518f8a8a611ac0565b611107338a8a600081811061171057634e487b7160e01b600052603260045260246000fd5b90506020020160208101906117259190613235565b8b8b61173260018261357d565b81811061174f57634e487b7160e01b600052603260045260246000fd5b90506020020160208101906117649190613235565b8989611d26565b600061177a600a612710613508565b61178583600a613540565b61178f9190613520565b92915050565b606080600283511015611804576040517f08c379a000000000000000000000000000000000000000000000000000000000815260206004820152601460248201527f746f6b656e207061746820746f6f2073686f72740000000000000000000000006044820152606401610457565b825167ffffffffffffffff81111561182c57634e487b7160e01b600052604160045260246000fd5b604051908082528060200260200182016040528015611855578160200160208202803683370190505b509150848260008151811061187a57634e487b7160e01b600052603260045260246000fd5b60200260200101818152505060018351611894919061357d565b67ffffffffffffffff8111156118ba57634e487b7160e01b600052604160045260246000fd5b6040519080825280602002602001820160405280156118e3578160200160208202803683370190505b50905060005b600184516118f7919061357d565b811015611ab757600084828151811061192057634e487b7160e01b600052603260045260246000fd5b6020026020010151905060008583600161193a9190613508565b8151811061195857634e487b7160e01b600052603260045260246000fd5b60200260200101519050600087846020811061198457634e487b7160e01b600052603260045260246000fd5b1a60f81b7fff0000000000000000000000000000000000000000000000000000000000000016156119be576119b98383612826565b6119c8565b6119c88383612960565b9050808585815181106119eb57634e487b7160e01b600052603260045260246000fd5b602002602001019073ffffffffffffffffffffffffffffffffffffffff16908173ffffffffffffffffffffffffffffffffffffffff1681525050600080611a33838686612a5b565b91509150611a69888781518110611a5a57634e487b7160e01b600052603260045260246000fd5b60200260200101518383612b5f565b88611a75886001613508565b81518110611a9357634e487b7160e01b600052603260045260246000fd5b60200260200101818152505050505050508080611aaf906135c9565b9150506118e9565b50935093915050565b6000611acc828561357d565b905073ffffffffffffffffffffffffffffffffffffffff861663c5f1d5c28883611af6878a61357d565b6040517fffffffff0000000000000000000000000000000000000000000000000000000060e086901b16815273ffffffffffffffffffffffffffffffffffffffff909316600484015260248301919091526044820152606401600060405180830381600087803b158015611b6957600080fd5b505af1158015611b7d573d6000803e3d6000fd5b50506066600090815260205250507f422cccb7cea5c0e46f340bb7b21b81debac329f72e31669c20ff0f3a05cc2b5b546040517f2a6a897b00000000000000000000000000000000000000000000000000000000815273ffffffffffffffffffffffffffffffffffffffff88811660048301526024820184905290911690632a6a897b906044015b600060405180830381600087803b158015611c1f57600080fd5b505af1158015611c33573d6000803e3d6000fd5b50506066600090815260205250507f422cccb7cea5c0e46f340bb7b21b81debac329f72e31669c20ff0f3a05cc2b5b5473ffffffffffffffffffffffffffffffffffffffff166040517fdc683bcf00000000000000000000000000000000000000000000000000000000815273ffffffffffffffffffffffffffffffffffffffff8881166004830152919091169063dc683bcf90602401602060405180830381600087803b158015611ce457600080fd5b505af1158015611cf8573d6000803e3d6000fd5b505050506040513d601f19601f82011682018060405250810190611d1c9190613325565b5050505050505050565b8115611e0157606560009081526020527f4a7203f705e51df4a56139a9b86b4a0970bed7ab7a3446eaffe2289989c1645c5473ffffffffffffffffffffffffffffffffffffffff166040517fd9caed1200000000000000000000000000000000000000000000000000000000815273ffffffffffffffffffffffffffffffffffffffff8681166004830152878116602483015260448201859052919091169063d9caed1290606401600060405180830381600087803b158015611de857600080fd5b505af1158015611dfc573d6000803e3d6000fd5b505050505b8015611ec657606560009081526020527f4a7203f705e51df4a56139a9b86b4a0970bed7ab7a3446eaffe2289989c1645c546040517fd9caed1200000000000000000000000000000000000000000000000000000000815273ffffffffffffffffffffffffffffffffffffffff85811660048301528781166024830152604482018490529091169063d9caed12906064015b600060405180830381600087803b158015611ead57600080fd5b505af1158015611ec1573d6000803e3d6000fd5b505050505b5050505050565b838560018751611edd919061357d565b81518110611efb57634e487b7160e01b600052603260045260246000fd5b60200260200101511015611f91576040517f08c379a000000000000000000000000000000000000000000000000000000000815260206004820152602860248201527f4d617267696e526f757465723a20494e53554646494349454e545f4f5554505560448201527f545f414d4f554e540000000000000000000000000000000000000000000000006064820152608401610457565b606560009081526020527f4a7203f705e51df4a56139a9b86b4a0970bed7ab7a3446eaffe2289989c1645c5473ffffffffffffffffffffffffffffffffffffffff1673ffffffffffffffffffffffffffffffffffffffff1663d9caed128383600081811061200f57634e487b7160e01b600052603260045260246000fd5b90506020020160208101906120249190613235565b8560008151811061204557634e487b7160e01b600052603260045260246000fd5b60200260200101518860008151811061206e57634e487b7160e01b600052603260045260246000fd5b60209081029190910101516040517fffffffff0000000000000000000000000000000000000000000000000000000060e086901b16815273ffffffffffffffffffffffffffffffffffffffff93841660048201529290911660248301526044820152606401600060405180830381600087803b1580156120ed57600080fd5b505af1158015612101573d6000803e3d6000fd5b50505050611ec685848484808060200260200160405190810160405280939291908181526020018383602002808284376000920191909152506121479250612cb4915050565b612cf9565b811561222757606560009081526020527f4a7203f705e51df4a56139a9b86b4a0970bed7ab7a3446eaffe2289989c1645c5473ffffffffffffffffffffffffffffffffffffffff166040517fb3db428b00000000000000000000000000000000000000000000000000000000815273ffffffffffffffffffffffffffffffffffffffff8781166004830152868116602483015260448201859052919091169063b3db428b90606401600060405180830381600087803b15801561220e57600080fd5b505af1158015612222573d6000803e3d6000fd5b505050505b8015611ec657606560009081526020527f4a7203f705e51df4a56139a9b86b4a0970bed7ab7a3446eaffe2289989c1645c546040517fb3db428b00000000000000000000000000000000000000000000000000000000815273ffffffffffffffffffffffffffffffffffffffff87811660048301528581166024830152604482018490529091169063b3db428b90606401611e93565b60006122c9838661357d565b905073ffffffffffffffffffffffffffffffffffffffff8616638b2db56988836122f38689613508565b60008811806123025750600087115b6040517fffffffff0000000000000000000000000000000000000000000000000000000060e087901b16815273ffffffffffffffffffffffffffffffffffffffff90941660048501526024840192909252604483015215156064820152608401600060405180830381600087803b15801561237c57600080fd5b505af1158015612390573d6000803e3d6000fd5b50506066600090815260205250507f422cccb7cea5c0e46f340bb7b21b81debac329f72e31669c20ff0f3a05cc2b5b546040517fee0862bf00000000000000000000000000000000000000000000000000000000815273ffffffffffffffffffffffffffffffffffffffff8881166004830152602482018490529091169063ee0862bf90604401611c05565b600061271061178583600a613540565b60608060028351101561249b576040517f08c379a000000000000000000000000000000000000000000000000000000000815260206004820152601460248201527f746f6b656e207061746820746f6f2073686f72740000000000000000000000006044820152606401610457565b825167ffffffffffffffff8111156124c357634e487b7160e01b600052604160045260246000fd5b6040519080825280602002602001820160405280156124ec578160200160208202803683370190505b5091508482600184516124ff919061357d565b8151811061251d57634e487b7160e01b600052603260045260246000fd5b60200260200101818152505060018351612537919061357d565b67ffffffffffffffff81111561255d57634e487b7160e01b600052604160045260246000fd5b604051908082528060200260200182016040528015612586578160200160208202803683370190505b509050600060018451612599919061357d565b90505b8015611ab7576000846125b060018461357d565b815181106125ce57634e487b7160e01b600052603260045260246000fd5b6020026020010151905060008583815181106125fa57634e487b7160e01b600052603260045260246000fd5b60200260200101519050600087600185612614919061357d565b6020811061263257634e487b7160e01b600052603260045260246000fd5b1a60f81b7fff00000000000000000000000000000000000000000000000000000000000000161561266c576126678383612826565b612676565b6126768383612960565b9050808561268560018761357d565b815181106126a357634e487b7160e01b600052603260045260246000fd5b602002602001019073ffffffffffffffffffffffffffffffffffffffff16908173ffffffffffffffffffffffffffffffffffffffff16815250506000806126eb838686612a5b565b9150915061272188878151811061271257634e487b7160e01b600052603260045260246000fd5b60200260200101518383612f4e565b8861272d60018961357d565b8151811061274b57634e487b7160e01b600052603260045260246000fd5b6020026020010181815250505050505050808061276790613594565b91505061259c565b838560008151811061279157634e487b7160e01b600052603260045260246000fd5b60200260200101511115611f91576040517f08c379a0000000000000000000000000000000000000000000000000000000008152602060048201526024808201527f4d617267696e526f757465723a204558434553534956455f494e5055545f414d60448201527f4f554e54000000000000000000000000000000000000000000000000000000006064820152608401610457565b600080600061283585856130a8565b6040517fffffffffffffffffffffffffffffffffffffffff000000000000000000000000606084811b8216602084015283901b16603482015291935091507f00000000000000000000000000000000000000000000000000000000000000009060480160405160208183030381529060405280519060200120600354604051602001612921939291907fff00000000000000000000000000000000000000000000000000000000000000815260609390931b7fffffffffffffffffffffffffffffffffffffffff0000000000000000000000001660018401526015830191909152603582015260550190565b604080517fffffffffffffffffffffffffffffffffffffffffffffffffffffffffffffffe0818403018152919052805160209091012095945050505050565b600080600061296f85856130a8565b6040517fffffffffffffffffffffffffffffffffffffffff000000000000000000000000606084811b8216602084015283901b16603482015291935091507f00000000000000000000000000000000000000000000000000000000000000009060480160405160208183030381529060405280519060200120600254604051602001612921939291907fff00000000000000000000000000000000000000000000000000000000000000815260609390931b7fffffffffffffffffffffffffffffffffffffffff0000000000000000000000001660018401526015830191909152603582015260550190565b6000806000612a6a85856130a8565b5090506000808773ffffffffffffffffffffffffffffffffffffffff16630902f1ac6040518163ffffffff1660e01b815260040160606040518083038186803b158015612ab657600080fd5b505afa158015612aca573d6000803e3d6000fd5b505050506040513d601f19601f82011682018060405250810190612aee91906132bf565b506dffffffffffffffffffffffffffff1691506dffffffffffffffffffffffffffff1691508273ffffffffffffffffffffffffffffffffffffffff168773ffffffffffffffffffffffffffffffffffffffff1614612b4d578082612b50565b81815b90999098509650505050505050565b6000808411612bca576040517f08c379a000000000000000000000000000000000000000000000000000000000815260206004820152601960248201527f494e53554646494349454e545f494e5055545f414d4f554e54000000000000006044820152606401610457565b600083118015612bda5750600082115b612c66576040517f08c379a000000000000000000000000000000000000000000000000000000000815260206004820152602860248201527f556e697377617056324c6962726172793a20494e53554646494349454e545f4c60448201527f49515549444954590000000000000000000000000000000000000000000000006064820152608401610457565b6000612c74856103e5613540565b90506000612c828483613540565b9050600082612c93876103e8613540565b612c9d9190613508565b9050612ca98183613520565b979650505050505050565b606560009081526020527f4a7203f705e51df4a56139a9b86b4a0970bed7ab7a3446eaffe2289989c1645c5473ffffffffffffffffffffffffffffffffffffffff1690565b60005b8351811015611ec657600080848381518110612d2857634e487b7160e01b600052603260045260246000fd5b602002602001015185846001612d3e9190613508565b81518110612d5c57634e487b7160e01b600052603260045260246000fd5b6020026020010151915091506000612d7483836130a8565b509050600088612d85866001613508565b81518110612da357634e487b7160e01b600052603260045260246000fd5b602002602001015190506000808373ffffffffffffffffffffffffffffffffffffffff168673ffffffffffffffffffffffffffffffffffffffff1614612deb57826000612def565b6000835b91509150600060018b51612e03919061357d565b8810612e0f5788612e42565b8a612e1b896001613508565b81518110612e3957634e487b7160e01b600052603260045260246000fd5b60200260200101515b905060008b8981518110612e6657634e487b7160e01b600052603260045260246000fd5b602002602001015190508073ffffffffffffffffffffffffffffffffffffffff1663022c0d9f858585600067ffffffffffffffff811115612eb757634e487b7160e01b600052604160045260246000fd5b6040519080825280601f01601f191660200182016040528015612ee1576020820181803683370190505b506040518563ffffffff1660e01b8152600401612f01949392919061346b565b600060405180830381600087803b158015612f1b57600080fd5b505af1158015612f2f573d6000803e3d6000fd5b5050505050505050505050508080612f46906135c9565b915050612cfc565b6000808411612fb9576040517f08c379a000000000000000000000000000000000000000000000000000000000815260206004820152601a60248201527f494e53554646494349454e545f4f55545055545f414d4f554e540000000000006044820152606401610457565b600083118015612fc95750600082115b613055576040517f08c379a000000000000000000000000000000000000000000000000000000000815260206004820152602860248201527f556e697377617056324c6962726172793a20494e53554646494349454e545f4c60448201527f49515549444954590000000000000000000000000000000000000000000000006064820152608401610457565b60006130618585613540565b61306d906103e8613540565b9050600061307b868561357d565b613087906103e5613540565b90506130938183613520565b61309e906001613508565b9695505050505050565b6000808273ffffffffffffffffffffffffffffffffffffffff168473ffffffffffffffffffffffffffffffffffffffff161415613141576040517f08c379a000000000000000000000000000000000000000000000000000000000815260206004820152601260248201527f4964656e746963616c20616464726573732100000000000000000000000000006044820152606401610457565b8273ffffffffffffffffffffffffffffffffffffffff168473ffffffffffffffffffffffffffffffffffffffff161061317b57828461317e565b83835b909250905073ffffffffffffffffffffffffffffffffffffffff8216613200576040517f08c379a000000000000000000000000000000000000000000000000000000000815260206004820152600d60248201527f5a65726f206164647265737321000000000000000000000000000000000000006044820152606401610457565b9250929050565b803561321281613618565b919050565b80516dffffffffffffffffffffffffffff8116811461321257600080fd5b600060208284031215613246578081fd5b813561325181613618565b9392505050565b600060208284031215613269578081fd5b815161325181613618565b60008060408385031215613286578081fd5b823561329181613618565b946020939093013593505050565b6000602082840312156132b0578081fd5b81518015158114613251578182fd5b6000806000606084860312156132d3578081fd5b6132dc84613217565b92506132ea60208501613217565b9150604084015163ffffffff81168114613302578182fd5b809150509250925092565b60006020828403121561331e578081fd5b5035919050565b600060208284031215613336578081fd5b5051919050565b6000806040838503121561334f578182fd5b82359150602083013561336181613618565b809150509250929050565b60008060008060008060008060006101008a8c03121561338a578485fd5b8935985060208a0135975060408a0135965060608a013567ffffffffffffffff808211156133b6578687fd5b818c0191508c601f8301126133c9578687fd5b8135818111156133d7578788fd5b8d60208260051b85010111156133eb578788fd5b60208301985080975050505061340360808b01613207565b935060a08a0135925060c08a0135915060e08a013590509295985092959850929598565b6020808252825182820181905260009190848201906040850190845b8181101561345f57835183529284019291840191600101613443565b50909695505050505050565b60008582526020858184015273ffffffffffffffffffffffffffffffffffffffff85166040840152608060608401528351806080850152825b818110156134c05785810183015185820160a0015282016134a4565b818111156134d1578360a083870101525b50601f017fffffffffffffffffffffffffffffffffffffffffffffffffffffffffffffffe0169290920160a0019695505050505050565b6000821982111561351b5761351b613602565b500190565b60008261353b57634e487b7160e01b81526012600452602481fd5b500490565b6000817fffffffffffffffffffffffffffffffffffffffffffffffffffffffffffffffff048311821515161561357857613578613602565b500290565b60008282101561358f5761358f613602565b500390565b6000816135a3576135a3613602565b507fffffffffffffffffffffffffffffffffffffffffffffffffffffffffffffffff0190565b60007fffffffffffffffffffffffffffffffffffffffffffffffffffffffffffffffff8214156135fb576135fb613602565b5060010190565b634e487b7160e01b600052601160045260246000fd5b73ffffffffffffffffffffffffffffffffffffffff8116811461363a57600080fd5b5056fea2646970667358221220545ab837614bb4e50f5083a5677477b9d14f8606a0c5b1017aac837545447de564736f6c63430008030033",
  "linkReferences": {},
  "deployedLinkReferences": {}
}