{
  "_format": "hh-sol-artifact-1",
  "contractName": "IsolatedMarginRouter",
  "sourceName": "contracts/isolated/IsolatedMarginRouter.sol",
  "abi": [
    {
      "inputs": [
        {
          "internalType": "address",
          "name": "_WETH",
          "type": "address"
        },
        {
          "internalType": "address",
          "name": "_amm1Factory",
          "type": "address"
        },
        {
          "internalType": "address",
          "name": "_amm2Factory",
          "type": "address"
        },
        {
          "internalType": "bytes32",
          "name": "_amm1InitHash",
          "type": "bytes32"
        },
        {
          "internalType": "bytes32",
          "name": "_amm2InitHash",
          "type": "bytes32"
        },
        {
          "internalType": "address",
          "name": "_roles",
          "type": "address"
        }
      ],
      "stateMutability": "nonpayable",
      "type": "constructor"
    },
    {
      "anonymous": false,
      "inputs": [
        {
          "indexed": true,
          "internalType": "address",
          "name": "trader",
          "type": "address"
        },
        {
          "indexed": false,
          "internalType": "address",
          "name": "isolatedPair",
          "type": "address"
        }
      ],
      "name": "IsolatedAccountUpdated",
      "type": "event"
    },
    {
      "anonymous": false,
      "inputs": [
        {
          "indexed": true,
          "internalType": "address",
          "name": "trader",
          "type": "address"
        },
        {
          "indexed": false,
          "internalType": "address",
          "name": "fromToken",
          "type": "address"
        },
        {
          "indexed": false,
          "internalType": "address",
          "name": "toToken",
          "type": "address"
        },
        {
          "indexed": false,
          "internalType": "uint256",
          "name": "fromAmount",
          "type": "uint256"
        },
        {
          "indexed": false,
          "internalType": "uint256",
          "name": "toAmount",
          "type": "uint256"
        }
      ],
      "name": "IsolatedMarginTrade",
      "type": "event"
    },
    {
      "inputs": [],
      "name": "WETH",
      "outputs": [
        {
          "internalType": "address",
          "name": "",
          "type": "address"
        }
      ],
      "stateMutability": "view",
      "type": "function"
    },
    {
      "inputs": [],
      "name": "amm1Factory",
      "outputs": [
        {
          "internalType": "address",
          "name": "",
          "type": "address"
        }
      ],
      "stateMutability": "view",
      "type": "function"
    },
    {
      "inputs": [],
      "name": "amm1InitHash",
      "outputs": [
        {
          "internalType": "bytes32",
          "name": "",
          "type": "bytes32"
        }
      ],
      "stateMutability": "view",
      "type": "function"
    },
    {
      "inputs": [],
      "name": "amm2Factory",
      "outputs": [
        {
          "internalType": "address",
          "name": "",
          "type": "address"
        }
      ],
      "stateMutability": "view",
      "type": "function"
    },
    {
      "inputs": [],
      "name": "amm2InitHash",
      "outputs": [
        {
          "internalType": "bytes32",
          "name": "",
          "type": "bytes32"
        }
      ],
      "stateMutability": "view",
      "type": "function"
    },
    {
      "inputs": [
        {
          "internalType": "uint256",
          "name": "",
          "type": "uint256"
        }
      ],
      "name": "mainCharacterCache",
      "outputs": [
        {
          "internalType": "address",
          "name": "",
          "type": "address"
        }
      ],
      "stateMutability": "view",
      "type": "function"
    },
    {
      "inputs": [],
      "name": "mswapFeesPer10k",
      "outputs": [
        {
          "internalType": "uint256",
          "name": "",
          "type": "uint256"
        }
      ],
      "stateMutability": "view",
      "type": "function"
    },
    {
      "inputs": [
        {
          "internalType": "address",
          "name": "",
          "type": "address"
        },
        {
          "internalType": "uint256",
          "name": "",
          "type": "uint256"
        }
      ],
      "name": "roleCache",
      "outputs": [
        {
          "internalType": "bool",
          "name": "",
          "type": "bool"
        }
      ],
      "stateMutability": "view",
      "type": "function"
    },
    {
      "inputs": [],
      "name": "roles",
      "outputs": [
        {
          "internalType": "contract Roles",
          "name": "",
          "type": "address"
        }
      ],
      "stateMutability": "view",
      "type": "function"
    },
    {
      "inputs": [
        {
          "internalType": "uint256",
          "name": "amountIn",
          "type": "uint256"
        },
        {
          "internalType": "uint256",
          "name": "amountOutMin",
          "type": "uint256"
        },
        {
          "internalType": "bytes32",
          "name": "amms",
          "type": "bytes32"
        },
        {
          "internalType": "address[]",
          "name": "tokens",
          "type": "address[]"
        },
        {
          "internalType": "address",
          "name": "_isolatedPair",
          "type": "address"
        },
        {
          "internalType": "uint256",
          "name": "depositFrom",
          "type": "uint256"
        },
        {
          "internalType": "uint256",
          "name": "depositTo",
          "type": "uint256"
        },
        {
          "internalType": "uint256",
          "name": "deadline",
          "type": "uint256"
        }
      ],
      "name": "swapExactTokensForTokensPosition",
      "outputs": [
        {
          "internalType": "uint256[]",
          "name": "amounts",
          "type": "uint256[]"
        }
      ],
      "stateMutability": "nonpayable",
      "type": "function"
    },
    {
      "inputs": [
        {
          "internalType": "uint256",
          "name": "amountIn",
          "type": "uint256"
        },
        {
          "internalType": "uint256",
          "name": "amountOutMin",
          "type": "uint256"
        },
        {
          "internalType": "bytes32",
          "name": "amms",
          "type": "bytes32"
        },
        {
          "internalType": "address[]",
          "name": "tokens",
          "type": "address[]"
        },
        {
          "internalType": "address",
          "name": "_isolatedPair",
          "type": "address"
        },
        {
          "internalType": "uint256",
          "name": "withdrawFrom",
          "type": "uint256"
        },
        {
          "internalType": "uint256",
          "name": "withdrawTo",
          "type": "uint256"
        },
        {
          "internalType": "uint256",
          "name": "deadline",
          "type": "uint256"
        }
      ],
      "name": "swapExactTokensForTokensUnwind",
      "outputs": [
        {
          "internalType": "uint256[]",
          "name": "amounts",
          "type": "uint256[]"
        }
      ],
      "stateMutability": "nonpayable",
      "type": "function"
    },
    {
      "inputs": [
        {
          "internalType": "uint256",
          "name": "amountOut",
          "type": "uint256"
        },
        {
          "internalType": "uint256",
          "name": "amountInMax",
          "type": "uint256"
        },
        {
          "internalType": "bytes32",
          "name": "amms",
          "type": "bytes32"
        },
        {
          "internalType": "address[]",
          "name": "tokens",
          "type": "address[]"
        },
        {
          "internalType": "address",
          "name": "_isolatedPair",
          "type": "address"
        },
        {
          "internalType": "uint256",
          "name": "depositFrom",
          "type": "uint256"
        },
        {
          "internalType": "uint256",
          "name": "depositTo",
          "type": "uint256"
        },
        {
          "internalType": "uint256",
          "name": "deadline",
          "type": "uint256"
        }
      ],
      "name": "swapTokensForExactTokensPosition",
      "outputs": [
        {
          "internalType": "uint256[]",
          "name": "amounts",
          "type": "uint256[]"
        }
      ],
      "stateMutability": "nonpayable",
      "type": "function"
    },
    {
      "inputs": [
        {
          "internalType": "uint256",
          "name": "amountOut",
          "type": "uint256"
        },
        {
          "internalType": "uint256",
          "name": "amountInMax",
          "type": "uint256"
        },
        {
          "internalType": "bytes32",
          "name": "amms",
          "type": "bytes32"
        },
        {
          "internalType": "address[]",
          "name": "tokens",
          "type": "address[]"
        },
        {
          "internalType": "address",
          "name": "_isolatedPair",
          "type": "address"
        },
        {
          "internalType": "uint256",
          "name": "withdrawFrom",
          "type": "uint256"
        },
        {
          "internalType": "uint256",
          "name": "withdrawTo",
          "type": "uint256"
        },
        {
          "internalType": "uint256",
          "name": "deadline",
          "type": "uint256"
        }
      ],
      "name": "swapTokensForExactTokensUnwind",
      "outputs": [
        {
          "internalType": "uint256[]",
          "name": "amounts",
          "type": "uint256[]"
        }
      ],
      "stateMutability": "nonpayable",
      "type": "function"
    },
    {
      "inputs": [
        {
          "internalType": "uint256",
          "name": "role",
          "type": "uint256"
        }
      ],
      "name": "updateMainCharacterCache",
      "outputs": [],
      "stateMutability": "nonpayable",
      "type": "function"
    },
    {
      "inputs": [
        {
          "internalType": "uint256",
          "name": "role",
          "type": "uint256"
        },
        {
          "internalType": "address",
          "name": "contr",
          "type": "address"
        }
      ],
      "name": "updateRoleCache",
      "outputs": [],
      "stateMutability": "nonpayable",
      "type": "function"
    }
  ],
  "bytecode": "0x6101006040523480156200001257600080fd5b5060405162003743380380620037438339810160408190526200003591620000ff565b84848484846001600160a01b038116620000a05760405162461bcd60e51b815260206004820152602260248201527f506c656173652070726f766964652076616c696420726f6c6573206164647265604482015261737360f01b606482015260840160405180910390fd5b6001600160601b0319606091821b811660805294811b851660a05292831b841660c0526002919091556003559690961b90951660e052506200016d9350505050565b80516001600160a01b0381168114620000fa57600080fd5b919050565b60008060008060008060c0878903121562000118578182fd5b6200012387620000e2565b95506200013360208801620000e2565b94506200014360408801620000e2565b935060608701519250608087015191506200016160a08801620000e2565b90509295509295509295565b60805160601c60a05160601c60c05160601c60e05160601c613575620001ce600039600061024201526000818160ff015261278f01526000818161026901526128c90152600081816101ae0152818161030c01526112f601526135756000f3fe608060405234801561001057600080fd5b50600436106100f55760003560e01c8063447d52ba11610097578063b852eb0d11610066578063b852eb0d14610264578063cfd124af1461028b578063df7c20f91461029e578063e9c3f77d146102a7576100f5565b8063447d52ba146101e35780637a1a04df146101f6578063a75208a814610234578063ad5c46481461023d576100f5565b806328f98801116100d357806328f98801146101765780632c77dda014610196578063392f5f64146101a95780633ec380da146101d0576100f5565b8063059b157a146100fa578063071060a61461014b5780631084bd6d14610160575b600080fd5b6101217f000000000000000000000000000000000000000000000000000000000000000081565b60405173ffffffffffffffffffffffffffffffffffffffff90911681526020015b60405180910390f35b61015e610159366004613227565b6102dd565b005b610168600a81565b604051908152602001610142565b61018961018436600461326e565b6103ee565b6040516101429190613329565b6101896101a436600461326e565b610983565b6101217f000000000000000000000000000000000000000000000000000000000000000081565b6101896101de36600461326e565b610d30565b61015e6101f136600461323f565b6112aa565b61022461020436600461318e565b600160209081526000928352604080842090915290825290205460ff1681565b6040519015158152602001610142565b61016860025481565b6101217f000000000000000000000000000000000000000000000000000000000000000081565b6101217f000000000000000000000000000000000000000000000000000000000000000081565b61018961029936600461326e565b6113d3565b61016860035481565b6101216102b5366004613227565b60006020819052908152604090205473ffffffffffffffffffffffffffffffffffffffff1681565b6040517fb4ed0b6d000000000000000000000000000000000000000000000000000000008152600481018290527f000000000000000000000000000000000000000000000000000000000000000073ffffffffffffffffffffffffffffffffffffffff169063b4ed0b6d9060240160206040518083038186803b15801561036357600080fd5b505afa158015610377573d6000803e3d6000fd5b505050506040513d601f19601f8201168201806040525081019061039b9190613172565b60009182526020829052604090912080547fffffffffffffffffffffffff00000000000000000000000000000000000000001673ffffffffffffffffffffffffffffffffffffffff909216919091179055565b60608142811015610460576040517f08c379a000000000000000000000000000000000000000000000000000000000815260206004820152601160248201527f547261646520686173206578706972656400000000000000000000000000000060448201526064015b60405180910390fd5b8573ffffffffffffffffffffffffffffffffffffffff1663456dc17a6040518163ffffffff1660e01b815260040160206040518083038186803b1580156104a657600080fd5b505afa1580156104ba573d6000803e3d6000fd5b505050506040513d601f19601f820116820180604052508101906104de9190613172565b73ffffffffffffffffffffffffffffffffffffffff16888861050160018261347f565b81811061051e57634e487b7160e01b600052603260045260246000fd5b9050602002016020810190610533919061314f565b73ffffffffffffffffffffffffffffffffffffffff1614801561063357508573ffffffffffffffffffffffffffffffffffffffff1663a1ad54e66040518163ffffffff1660e01b815260040160206040518083038186803b15801561059757600080fd5b505afa1580156105ab573d6000803e3d6000fd5b505050506040513d601f19601f820116820180604052508101906105cf9190613172565b73ffffffffffffffffffffffffffffffffffffffff168888600081811061060657634e487b7160e01b600052603260045260246000fd5b905060200201602081019061061b919061314f565b73ffffffffffffffffffffffffffffffffffffffff16145b6106bf576040517f08c379a000000000000000000000000000000000000000000000000000000000815260206004820152602160248201527f5061746820646f6573206e6f74206d617463682069736f6c617465642070616960448201527f72000000000000000000000000000000000000000000000000000000000000006064820152608401610457565b60006106ca8c61176b565b905060606107156106db838f61347f565b8c8c8c8080602002602001604051908101604052809392919081815260200183836020028082843760009201919091525061179592505050565b809250819550505061075f33898f8760018951610732919061347f565b8151811061075057634e487b7160e01b600052603260045260246000fd5b60200260200101518b8b611ac0565b6107df338b8b600081811061078457634e487b7160e01b600052603260045260246000fd5b9050602002016020810190610799919061314f565b8c8c6107a660018261347f565b8181106107c357634e487b7160e01b600052603260045260246000fd5b90506020020160208101906107d8919061314f565b8a8a611c40565b6107ec848d838d8d611de7565b60405173ffffffffffffffffffffffffffffffffffffffff8916815233907f01b7c8da263f90a3f5f5886fdd0247d721a0e86b0a4b86f43720f07e975b7def9060200160405180910390a2337fbc4fb982d00f64d415349ea58464559e60570835f500eb69f74311d8d18d8d1d8b8b60008161087857634e487b7160e01b600052603260045260246000fd5b905060200201602081019061088d919061314f565b8c8c61089a60018261347f565b8181106108b757634e487b7160e01b600052603260045260246000fd5b90506020020160208101906108cc919061314f565b876000815181106108ed57634e487b7160e01b600052603260045260246000fd5b60200260200101518860018a51610904919061347f565b8151811061092257634e487b7160e01b600052603260045260246000fd5b602002602001015160405161096b949392919073ffffffffffffffffffffffffffffffffffffffff94851681529290931660208301526040820152606081019190915260800190565b60405180910390a25050509998505050505050505050565b606081428110156109f0576040517f08c379a000000000000000000000000000000000000000000000000000000000815260206004820152601160248201527f54726164652068617320657870697265640000000000000000000000000000006044820152606401610457565b8573ffffffffffffffffffffffffffffffffffffffff1663456dc17a6040518163ffffffff1660e01b815260040160206040518083038186803b158015610a3657600080fd5b505afa158015610a4a573d6000803e3d6000fd5b505050506040513d601f19601f82011682018060405250810190610a6e9190613172565b73ffffffffffffffffffffffffffffffffffffffff1688886000818110610aa557634e487b7160e01b600052603260045260246000fd5b9050602002016020810190610aba919061314f565b73ffffffffffffffffffffffffffffffffffffffff16148015610bc357508573ffffffffffffffffffffffffffffffffffffffff1663a1ad54e66040518163ffffffff1660e01b815260040160206040518083038186803b158015610b1e57600080fd5b505afa158015610b32573d6000803e3d6000fd5b505050506040513d601f19601f82011682018060405250810190610b569190613172565b73ffffffffffffffffffffffffffffffffffffffff168888610b7960018261347f565b818110610b9657634e487b7160e01b600052603260045260246000fd5b9050602002016020810190610bab919061314f565b73ffffffffffffffffffffffffffffffffffffffff16145b610c4f576040517f08c379a000000000000000000000000000000000000000000000000000000000815260206004820152602160248201527f5061746820646f6573206e6f74206d617463682069736f6c617465642070616960448201527f72000000000000000000000000000000000000000000000000000000000000006064820152608401610457565b6000610c5a8c61176b565b90506060610c6b6106db838f61347f565b9094509050610cee338b8b600081610c9357634e487b7160e01b600052603260045260246000fd5b9050602002016020810190610ca8919061314f565b8c8c610cb560018261347f565b818110610cd257634e487b7160e01b600052603260045260246000fd5b9050602002016020810190610ce7919061314f565b8a8a612066565b6107df33898f8760018951610d03919061347f565b81518110610d2157634e487b7160e01b600052603260045260246000fd5b60200260200101518b8b6121d7565b60608142811015610d9d576040517f08c379a000000000000000000000000000000000000000000000000000000000815260206004820152601160248201527f54726164652068617320657870697265640000000000000000000000000000006044820152606401610457565b8573ffffffffffffffffffffffffffffffffffffffff1663456dc17a6040518163ffffffff1660e01b815260040160206040518083038186803b158015610de357600080fd5b505afa158015610df7573d6000803e3d6000fd5b505050506040513d601f19601f82011682018060405250810190610e1b9190613172565b73ffffffffffffffffffffffffffffffffffffffff1688886000818110610e5257634e487b7160e01b600052603260045260246000fd5b9050602002016020810190610e67919061314f565b73ffffffffffffffffffffffffffffffffffffffff16148015610f7057508573ffffffffffffffffffffffffffffffffffffffff1663a1ad54e66040518163ffffffff1660e01b815260040160206040518083038186803b158015610ecb57600080fd5b505afa158015610edf573d6000803e3d6000fd5b505050506040513d601f19601f82011682018060405250810190610f039190613172565b73ffffffffffffffffffffffffffffffffffffffff168888610f2660018261347f565b818110610f4357634e487b7160e01b600052603260045260246000fd5b9050602002016020810190610f58919061314f565b73ffffffffffffffffffffffffffffffffffffffff16145b610ffc576040517f08c379a000000000000000000000000000000000000000000000000000000000815260206004820152602160248201527f5061746820646f6573206e6f74206d617463682069736f6c617465642070616960448201527f72000000000000000000000000000000000000000000000000000000000000006064820152608401610457565b606061104e61100a8d612336565b611014908e61340a565b8b8b8b8080602002602001604051908101604052809392919081815260200183836020028082843760009201919091525061234692505050565b90935090506110d1338a8a60008161107657634e487b7160e01b600052603260045260246000fd5b905060200201602081019061108b919061314f565b8b8b61109860018261347f565b8181106110b557634e487b7160e01b600052603260045260246000fd5b90506020020160208101906110ca919061314f565b8989612066565b6111073388856000815181106110f757634e487b7160e01b600052603260045260246000fd5b60200260200101518f8a8a6121d7565b611114838c838c8c612689565b60405173ffffffffffffffffffffffffffffffffffffffff8816815233907f01b7c8da263f90a3f5f5886fdd0247d721a0e86b0a4b86f43720f07e975b7def9060200160405180910390a2337fbc4fb982d00f64d415349ea58464559e60570835f500eb69f74311d8d18d8d1d8a8a6000816111a057634e487b7160e01b600052603260045260246000fd5b90506020020160208101906111b5919061314f565b8b8b6111c260018261347f565b8181106111df57634e487b7160e01b600052603260045260246000fd5b90506020020160208101906111f4919061314f565b8660008151811061121557634e487b7160e01b600052603260045260246000fd5b6020026020010151876001895161122c919061347f565b8151811061124a57634e487b7160e01b600052603260045260246000fd5b6020026020010151604051611293949392919073ffffffffffffffffffffffffffffffffffffffff94851681529290931660208301526040820152606081019190915260800190565b60405180910390a250509998505050505050505050565b6040517f93552a3d0000000000000000000000000000000000000000000000000000000081526004810183905273ffffffffffffffffffffffffffffffffffffffff82811660248301527f000000000000000000000000000000000000000000000000000000000000000016906393552a3d9060440160206040518083038186803b15801561133857600080fd5b505afa15801561134c573d6000803e3d6000fd5b505050506040513d601f19601f8201168201806040525081019061137091906131b9565b73ffffffffffffffffffffffffffffffffffffffff9190911660009081526001602090815260408083209483529390529190912080547fffffffffffffffffffffffffffffffffffffffffffffffffffffffffffffff0016911515919091179055565b60608142811015611440576040517f08c379a000000000000000000000000000000000000000000000000000000000815260206004820152601160248201527f54726164652068617320657870697265640000000000000000000000000000006044820152606401610457565b8573ffffffffffffffffffffffffffffffffffffffff1663456dc17a6040518163ffffffff1660e01b815260040160206040518083038186803b15801561148657600080fd5b505afa15801561149a573d6000803e3d6000fd5b505050506040513d601f19601f820116820180604052508101906114be9190613172565b73ffffffffffffffffffffffffffffffffffffffff1688886114e160018261347f565b8181106114fe57634e487b7160e01b600052603260045260246000fd5b9050602002016020810190611513919061314f565b73ffffffffffffffffffffffffffffffffffffffff1614801561161357508573ffffffffffffffffffffffffffffffffffffffff1663a1ad54e66040518163ffffffff1660e01b815260040160206040518083038186803b15801561157757600080fd5b505afa15801561158b573d6000803e3d6000fd5b505050506040513d601f19601f820116820180604052508101906115af9190613172565b73ffffffffffffffffffffffffffffffffffffffff16888860008181106115e657634e487b7160e01b600052603260045260246000fd5b90506020020160208101906115fb919061314f565b73ffffffffffffffffffffffffffffffffffffffff16145b61169f576040517f08c379a000000000000000000000000000000000000000000000000000000000815260206004820152602160248201527f5061746820646f6573206e6f74206d617463682069736f6c617465642070616960448201527f72000000000000000000000000000000000000000000000000000000000000006064820152608401610457565b60606116ad61100a8d612336565b80925081945050506116eb3388856000815181106116db57634e487b7160e01b600052603260045260246000fd5b60200260200101518f8a8a611ac0565b611107338a8a600081811061171057634e487b7160e01b600052603260045260246000fd5b9050602002016020810190611725919061314f565b8b8b61173260018261347f565b81811061174f57634e487b7160e01b600052603260045260246000fd5b9050602002016020810190611764919061314f565b8989611c40565b600061177a600a61271061340a565b61178583600a613442565b61178f9190613422565b92915050565b606080600283511015611804576040517f08c379a000000000000000000000000000000000000000000000000000000000815260206004820152601460248201527f746f6b656e207061746820746f6f2073686f72740000000000000000000000006044820152606401610457565b825167ffffffffffffffff81111561182c57634e487b7160e01b600052604160045260246000fd5b604051908082528060200260200182016040528015611855578160200160208202803683370190505b509150848260008151811061187a57634e487b7160e01b600052603260045260246000fd5b60200260200101818152505060018351611894919061347f565b67ffffffffffffffff8111156118ba57634e487b7160e01b600052604160045260246000fd5b6040519080825280602002602001820160405280156118e3578160200160208202803683370190505b50905060005b600184516118f7919061347f565b811015611ab757600084828151811061192057634e487b7160e01b600052603260045260246000fd5b6020026020010151905060008583600161193a919061340a565b8151811061195857634e487b7160e01b600052603260045260246000fd5b60200260200101519050600087846020811061198457634e487b7160e01b600052603260045260246000fd5b1a60f81b7fff0000000000000000000000000000000000000000000000000000000000000016156119be576119b98383612740565b6119c8565b6119c8838361287a565b9050808585815181106119eb57634e487b7160e01b600052603260045260246000fd5b602002602001019073ffffffffffffffffffffffffffffffffffffffff16908173ffffffffffffffffffffffffffffffffffffffff1681525050600080611a33838686612975565b91509150611a69888781518110611a5a57634e487b7160e01b600052603260045260246000fd5b60200260200101518383612a79565b88611a7588600161340a565b81518110611a9357634e487b7160e01b600052603260045260246000fd5b60200260200101818152505050505050508080611aaf906134cb565b9150506118e9565b50935093915050565b6000611acc828561347f565b905073ffffffffffffffffffffffffffffffffffffffff861663c5f1d5c28883611af6878a61347f565b6040517fffffffff0000000000000000000000000000000000000000000000000000000060e086901b16815273ffffffffffffffffffffffffffffffffffffffff909316600484015260248301919091526044820152606401600060405180830381600087803b158015611b6957600080fd5b505af1158015611b7d573d6000803e3d6000fd5b50506066600090815260205250507f422cccb7cea5c0e46f340bb7b21b81debac329f72e31669c20ff0f3a05cc2b5b546040517f2a6a897b00000000000000000000000000000000000000000000000000000000815273ffffffffffffffffffffffffffffffffffffffff88811660048301526024820184905290911690632a6a897b906044015b600060405180830381600087803b158015611c1f57600080fd5b505af1158015611c33573d6000803e3d6000fd5b5050505050505050505050565b8115611d1b57606560009081526020527f4a7203f705e51df4a56139a9b86b4a0970bed7ab7a3446eaffe2289989c1645c5473ffffffffffffffffffffffffffffffffffffffff166040517fd9caed1200000000000000000000000000000000000000000000000000000000815273ffffffffffffffffffffffffffffffffffffffff8681166004830152878116602483015260448201859052919091169063d9caed1290606401600060405180830381600087803b158015611d0257600080fd5b505af1158015611d16573d6000803e3d6000fd5b505050505b8015611de057606560009081526020527f4a7203f705e51df4a56139a9b86b4a0970bed7ab7a3446eaffe2289989c1645c546040517fd9caed1200000000000000000000000000000000000000000000000000000000815273ffffffffffffffffffffffffffffffffffffffff85811660048301528781166024830152604482018490529091169063d9caed12906064015b600060405180830381600087803b158015611dc757600080fd5b505af1158015611ddb573d6000803e3d6000fd5b505050505b5050505050565b838560018751611df7919061347f565b81518110611e1557634e487b7160e01b600052603260045260246000fd5b60200260200101511015611eab576040517f08c379a000000000000000000000000000000000000000000000000000000000815260206004820152602860248201527f4d617267696e526f757465723a20494e53554646494349454e545f4f5554505560448201527f545f414d4f554e540000000000000000000000000000000000000000000000006064820152608401610457565b606560009081526020527f4a7203f705e51df4a56139a9b86b4a0970bed7ab7a3446eaffe2289989c1645c5473ffffffffffffffffffffffffffffffffffffffff1673ffffffffffffffffffffffffffffffffffffffff1663d9caed1283836000818110611f2957634e487b7160e01b600052603260045260246000fd5b9050602002016020810190611f3e919061314f565b85600081518110611f5f57634e487b7160e01b600052603260045260246000fd5b602002602001015188600081518110611f8857634e487b7160e01b600052603260045260246000fd5b60209081029190910101516040517fffffffff0000000000000000000000000000000000000000000000000000000060e086901b16815273ffffffffffffffffffffffffffffffffffffffff93841660048201529290911660248301526044820152606401600060405180830381600087803b15801561200757600080fd5b505af115801561201b573d6000803e3d6000fd5b50505050611de085848484808060200260200160405190810160405280939291908181526020018383602002808284376000920191909152506120619250612bce915050565b612c13565b811561214157606560009081526020527f4a7203f705e51df4a56139a9b86b4a0970bed7ab7a3446eaffe2289989c1645c5473ffffffffffffffffffffffffffffffffffffffff166040517fb3db428b00000000000000000000000000000000000000000000000000000000815273ffffffffffffffffffffffffffffffffffffffff8781166004830152868116602483015260448201859052919091169063b3db428b90606401600060405180830381600087803b15801561212857600080fd5b505af115801561213c573d6000803e3d6000fd5b505050505b8015611de057606560009081526020527f4a7203f705e51df4a56139a9b86b4a0970bed7ab7a3446eaffe2289989c1645c546040517fb3db428b00000000000000000000000000000000000000000000000000000000815273ffffffffffffffffffffffffffffffffffffffff87811660048301528581166024830152604482018490529091169063b3db428b90606401611dad565b60006121e3838661347f565b905073ffffffffffffffffffffffffffffffffffffffff8616638b2db569888361220d868961340a565b600088118061221c5750600087115b6040517fffffffff0000000000000000000000000000000000000000000000000000000060e087901b16815273ffffffffffffffffffffffffffffffffffffffff90941660048501526024840192909252604483015215156064820152608401600060405180830381600087803b15801561229657600080fd5b505af11580156122aa573d6000803e3d6000fd5b50506066600090815260205250507f422cccb7cea5c0e46f340bb7b21b81debac329f72e31669c20ff0f3a05cc2b5b546040517fee0862bf00000000000000000000000000000000000000000000000000000000815273ffffffffffffffffffffffffffffffffffffffff8881166004830152602482018490529091169063ee0862bf90604401611c05565b600061271061178583600a613442565b6060806002835110156123b5576040517f08c379a000000000000000000000000000000000000000000000000000000000815260206004820152601460248201527f746f6b656e207061746820746f6f2073686f72740000000000000000000000006044820152606401610457565b825167ffffffffffffffff8111156123dd57634e487b7160e01b600052604160045260246000fd5b604051908082528060200260200182016040528015612406578160200160208202803683370190505b509150848260018451612419919061347f565b8151811061243757634e487b7160e01b600052603260045260246000fd5b60200260200101818152505060018351612451919061347f565b67ffffffffffffffff81111561247757634e487b7160e01b600052604160045260246000fd5b6040519080825280602002602001820160405280156124a0578160200160208202803683370190505b5090506000600184516124b3919061347f565b90505b8015611ab7576000846124ca60018461347f565b815181106124e857634e487b7160e01b600052603260045260246000fd5b60200260200101519050600085838151811061251457634e487b7160e01b600052603260045260246000fd5b6020026020010151905060008760018561252e919061347f565b6020811061254c57634e487b7160e01b600052603260045260246000fd5b1a60f81b7fff000000000000000000000000000000000000000000000000000000000000001615612586576125818383612740565b612590565b612590838361287a565b9050808561259f60018761347f565b815181106125bd57634e487b7160e01b600052603260045260246000fd5b602002602001019073ffffffffffffffffffffffffffffffffffffffff16908173ffffffffffffffffffffffffffffffffffffffff1681525050600080612605838686612975565b9150915061263b88878151811061262c57634e487b7160e01b600052603260045260246000fd5b60200260200101518383612e68565b8861264760018961347f565b8151811061266557634e487b7160e01b600052603260045260246000fd5b6020026020010181815250505050505050808061268190613496565b9150506124b6565b83856000815181106126ab57634e487b7160e01b600052603260045260246000fd5b60200260200101511115611eab576040517f08c379a0000000000000000000000000000000000000000000000000000000008152602060048201526024808201527f4d617267696e526f757465723a204558434553534956455f494e5055545f414d60448201527f4f554e54000000000000000000000000000000000000000000000000000000006064820152608401610457565b600080600061274f8585612fc2565b6040517fffffffffffffffffffffffffffffffffffffffff000000000000000000000000606084811b8216602084015283901b16603482015291935091507f0000000000000000000000000000000000000000000000000000000000000000906048016040516020818303038152906040528051906020012060035460405160200161283b939291907fff00000000000000000000000000000000000000000000000000000000000000815260609390931b7fffffffffffffffffffffffffffffffffffffffff0000000000000000000000001660018401526015830191909152603582015260550190565b604080517fffffffffffffffffffffffffffffffffffffffffffffffffffffffffffffffe0818403018152919052805160209091012095945050505050565b60008060006128898585612fc2565b6040517fffffffffffffffffffffffffffffffffffffffff000000000000000000000000606084811b8216602084015283901b16603482015291935091507f0000000000000000000000000000000000000000000000000000000000000000906048016040516020818303038152906040528051906020012060025460405160200161283b939291907fff00000000000000000000000000000000000000000000000000000000000000815260609390931b7fffffffffffffffffffffffffffffffffffffffff0000000000000000000000001660018401526015830191909152603582015260550190565b60008060006129848585612fc2565b5090506000808773ffffffffffffffffffffffffffffffffffffffff16630902f1ac6040518163ffffffff1660e01b815260040160606040518083038186803b1580156129d057600080fd5b505afa1580156129e4573d6000803e3d6000fd5b505050506040513d601f19601f82011682018060405250810190612a0891906131d9565b506dffffffffffffffffffffffffffff1691506dffffffffffffffffffffffffffff1691508273ffffffffffffffffffffffffffffffffffffffff168773ffffffffffffffffffffffffffffffffffffffff1614612a67578082612a6a565b81815b90999098509650505050505050565b6000808411612ae4576040517f08c379a000000000000000000000000000000000000000000000000000000000815260206004820152601960248201527f494e53554646494349454e545f494e5055545f414d4f554e54000000000000006044820152606401610457565b600083118015612af45750600082115b612b80576040517f08c379a000000000000000000000000000000000000000000000000000000000815260206004820152602860248201527f556e697377617056324c6962726172793a20494e53554646494349454e545f4c60448201527f49515549444954590000000000000000000000000000000000000000000000006064820152608401610457565b6000612b8e856103e5613442565b90506000612b9c8483613442565b9050600082612bad876103e8613442565b612bb7919061340a565b9050612bc38183613422565b979650505050505050565b606560009081526020527f4a7203f705e51df4a56139a9b86b4a0970bed7ab7a3446eaffe2289989c1645c5473ffffffffffffffffffffffffffffffffffffffff1690565b60005b8351811015611de057600080848381518110612c4257634e487b7160e01b600052603260045260246000fd5b602002602001015185846001612c58919061340a565b81518110612c7657634e487b7160e01b600052603260045260246000fd5b6020026020010151915091506000612c8e8383612fc2565b509050600088612c9f86600161340a565b81518110612cbd57634e487b7160e01b600052603260045260246000fd5b602002602001015190506000808373ffffffffffffffffffffffffffffffffffffffff168673ffffffffffffffffffffffffffffffffffffffff1614612d0557826000612d09565b6000835b91509150600060018b51612d1d919061347f565b8810612d295788612d5c565b8a612d3589600161340a565b81518110612d5357634e487b7160e01b600052603260045260246000fd5b60200260200101515b905060008b8981518110612d8057634e487b7160e01b600052603260045260246000fd5b602002602001015190508073ffffffffffffffffffffffffffffffffffffffff1663022c0d9f858585600067ffffffffffffffff811115612dd157634e487b7160e01b600052604160045260246000fd5b6040519080825280601f01601f191660200182016040528015612dfb576020820181803683370190505b506040518563ffffffff1660e01b8152600401612e1b949392919061336d565b600060405180830381600087803b158015612e3557600080fd5b505af1158015612e49573d6000803e3d6000fd5b5050505050505050505050508080612e60906134cb565b915050612c16565b6000808411612ed3576040517f08c379a000000000000000000000000000000000000000000000000000000000815260206004820152601a60248201527f494e53554646494349454e545f4f55545055545f414d4f554e540000000000006044820152606401610457565b600083118015612ee35750600082115b612f6f576040517f08c379a000000000000000000000000000000000000000000000000000000000815260206004820152602860248201527f556e697377617056324c6962726172793a20494e53554646494349454e545f4c60448201527f49515549444954590000000000000000000000000000000000000000000000006064820152608401610457565b6000612f7b8585613442565b612f87906103e8613442565b90506000612f95868561347f565b612fa1906103e5613442565b9050612fad8183613422565b612fb890600161340a565b9695505050505050565b6000808273ffffffffffffffffffffffffffffffffffffffff168473ffffffffffffffffffffffffffffffffffffffff16141561305b576040517f08c379a000000000000000000000000000000000000000000000000000000000815260206004820152601260248201527f4964656e746963616c20616464726573732100000000000000000000000000006044820152606401610457565b8273ffffffffffffffffffffffffffffffffffffffff168473ffffffffffffffffffffffffffffffffffffffff1610613095578284613098565b83835b909250905073ffffffffffffffffffffffffffffffffffffffff821661311a576040517f08c379a000000000000000000000000000000000000000000000000000000000815260206004820152600d60248201527f5a65726f206164647265737321000000000000000000000000000000000000006044820152606401610457565b9250929050565b803561312c8161351a565b919050565b80516dffffffffffffffffffffffffffff8116811461312c57600080fd5b600060208284031215613160578081fd5b813561316b8161351a565b9392505050565b600060208284031215613183578081fd5b815161316b8161351a565b600080604083850312156131a0578081fd5b82356131ab8161351a565b946020939093013593505050565b6000602082840312156131ca578081fd5b8151801515811461316b578182fd5b6000806000606084860312156131ed578081fd5b6131f684613131565b925061320460208501613131565b9150604084015163ffffffff8116811461321c578182fd5b809150509250925092565b600060208284031215613238578081fd5b5035919050565b60008060408385031215613251578182fd5b8235915060208301356132638161351a565b809150509250929050565b60008060008060008060008060006101008a8c03121561328c578485fd5b8935985060208a0135975060408a0135965060608a013567ffffffffffffffff808211156132b8578687fd5b818c0191508c601f8301126132cb578687fd5b8135818111156132d9578788fd5b8d60208260051b85010111156132ed578788fd5b60208301985080975050505061330560808b01613121565b935060a08a0135925060c08a0135915060e08a013590509295985092959850929598565b6020808252825182820181905260009190848201906040850190845b8181101561336157835183529284019291840191600101613345565b50909695505050505050565b60008582526020858184015273ffffffffffffffffffffffffffffffffffffffff85166040840152608060608401528351806080850152825b818110156133c25785810183015185820160a0015282016133a6565b818111156133d3578360a083870101525b50601f017fffffffffffffffffffffffffffffffffffffffffffffffffffffffffffffffe0169290920160a0019695505050505050565b6000821982111561341d5761341d613504565b500190565b60008261343d57634e487b7160e01b81526012600452602481fd5b500490565b6000817fffffffffffffffffffffffffffffffffffffffffffffffffffffffffffffffff048311821515161561347a5761347a613504565b500290565b60008282101561349157613491613504565b500390565b6000816134a5576134a5613504565b507fffffffffffffffffffffffffffffffffffffffffffffffffffffffffffffffff0190565b60007fffffffffffffffffffffffffffffffffffffffffffffffffffffffffffffffff8214156134fd576134fd613504565b5060010190565b634e487b7160e01b600052601160045260246000fd5b73ffffffffffffffffffffffffffffffffffffffff8116811461353c57600080fd5b5056fea264697066735822122092d6de255eb1da06ee728537448cf1b386c770a9641d7f4ba3230fd835e96d8564736f6c63430008030033",
  "linkReferences": {},
  "deployedLinkReferences": {}
}