{
  "_format": "hh-sol-artifact-1",
  "contractName": "IsolatedMarginRouter",
  "sourceName": "contracts/isolated/IsolatedMarginRouter.sol",
  "abi": [
    {
      "inputs": [
        {
          "internalType": "address",
          "name": "_WETH",
          "type": "address"
        },
        {
          "internalType": "address",
          "name": "_amm1Factory",
          "type": "address"
        },
        {
          "internalType": "address",
          "name": "_amm2Factory",
          "type": "address"
        },
        {
          "internalType": "address",
          "name": "_amm3Factory",
          "type": "address"
        },
        {
          "internalType": "bytes32",
          "name": "_amm1InitHash",
          "type": "bytes32"
        },
        {
          "internalType": "bytes32",
          "name": "_amm2InitHash",
          "type": "bytes32"
        },
        {
          "internalType": "bytes32",
          "name": "_amm3InitHash",
          "type": "bytes32"
        },
        {
          "internalType": "address",
          "name": "_roles",
          "type": "address"
        }
      ],
      "stateMutability": "nonpayable",
      "type": "constructor"
    },
    {
      "anonymous": false,
      "inputs": [
        {
          "indexed": true,
          "internalType": "address",
          "name": "trader",
          "type": "address"
        },
        {
          "indexed": false,
          "internalType": "address",
          "name": "isolatedPair",
          "type": "address"
        }
      ],
      "name": "IsolatedAccountUpdated",
      "type": "event"
    },
    {
      "anonymous": false,
      "inputs": [
        {
          "indexed": true,
          "internalType": "address",
          "name": "trader",
          "type": "address"
        },
        {
          "indexed": false,
          "internalType": "address",
          "name": "fromToken",
          "type": "address"
        },
        {
          "indexed": false,
          "internalType": "address",
          "name": "toToken",
          "type": "address"
        },
        {
          "indexed": false,
          "internalType": "uint256",
          "name": "fromAmount",
          "type": "uint256"
        },
        {
          "indexed": false,
          "internalType": "uint256",
          "name": "toAmount",
          "type": "uint256"
        }
      ],
      "name": "IsolatedMarginTrade",
      "type": "event"
    },
    {
      "inputs": [],
      "name": "WETH",
      "outputs": [
        {
          "internalType": "address",
          "name": "",
          "type": "address"
        }
      ],
      "stateMutability": "view",
      "type": "function"
    },
    {
      "inputs": [],
      "name": "amm1Factory",
      "outputs": [
        {
          "internalType": "address",
          "name": "",
          "type": "address"
        }
      ],
      "stateMutability": "view",
      "type": "function"
    },
    {
      "inputs": [],
      "name": "amm1InitHash",
      "outputs": [
        {
          "internalType": "bytes32",
          "name": "",
          "type": "bytes32"
        }
      ],
      "stateMutability": "view",
      "type": "function"
    },
    {
      "inputs": [],
      "name": "amm2Factory",
      "outputs": [
        {
          "internalType": "address",
          "name": "",
          "type": "address"
        }
      ],
      "stateMutability": "view",
      "type": "function"
    },
    {
      "inputs": [],
      "name": "amm2InitHash",
      "outputs": [
        {
          "internalType": "bytes32",
          "name": "",
          "type": "bytes32"
        }
      ],
      "stateMutability": "view",
      "type": "function"
    },
    {
      "inputs": [],
      "name": "amm3Factory",
      "outputs": [
        {
          "internalType": "address",
          "name": "",
          "type": "address"
        }
      ],
      "stateMutability": "view",
      "type": "function"
    },
    {
      "inputs": [],
      "name": "amm3InitHash",
      "outputs": [
        {
          "internalType": "bytes32",
          "name": "",
          "type": "bytes32"
        }
      ],
      "stateMutability": "view",
      "type": "function"
    },
    {
      "inputs": [
        {
          "internalType": "uint256",
          "name": "",
          "type": "uint256"
        }
      ],
      "name": "mainCharacterCache",
      "outputs": [
        {
          "internalType": "address",
          "name": "",
          "type": "address"
        }
      ],
      "stateMutability": "view",
      "type": "function"
    },
    {
      "inputs": [],
      "name": "mswapFeesPer10k",
      "outputs": [
        {
          "internalType": "uint256",
          "name": "",
          "type": "uint256"
        }
      ],
      "stateMutability": "view",
      "type": "function"
    },
    {
      "inputs": [
        {
          "internalType": "address",
          "name": "",
          "type": "address"
        },
        {
          "internalType": "uint256",
          "name": "",
          "type": "uint256"
        }
      ],
      "name": "roleCache",
      "outputs": [
        {
          "internalType": "bool",
          "name": "",
          "type": "bool"
        }
      ],
      "stateMutability": "view",
      "type": "function"
    },
    {
      "inputs": [],
      "name": "roles",
      "outputs": [
        {
          "internalType": "contract Roles",
          "name": "",
          "type": "address"
        }
      ],
      "stateMutability": "view",
      "type": "function"
    },
    {
      "inputs": [
        {
          "internalType": "uint256",
          "name": "amountIn",
          "type": "uint256"
        },
        {
          "internalType": "uint256",
          "name": "amountOutMin",
          "type": "uint256"
        },
        {
          "internalType": "bytes32",
          "name": "amms",
          "type": "bytes32"
        },
        {
          "internalType": "address[]",
          "name": "tokens",
          "type": "address[]"
        },
        {
          "internalType": "address",
          "name": "_isolatedPair",
          "type": "address"
        },
        {
          "internalType": "uint256",
          "name": "depositFrom",
          "type": "uint256"
        },
        {
          "internalType": "uint256",
          "name": "depositTo",
          "type": "uint256"
        },
        {
          "internalType": "uint256",
          "name": "deadline",
          "type": "uint256"
        }
      ],
      "name": "swapExactTokensForTokensPosition",
      "outputs": [
        {
          "internalType": "uint256[]",
          "name": "amounts",
          "type": "uint256[]"
        }
      ],
      "stateMutability": "nonpayable",
      "type": "function"
    },
    {
      "inputs": [
        {
          "internalType": "uint256",
          "name": "amountIn",
          "type": "uint256"
        },
        {
          "internalType": "uint256",
          "name": "amountOutMin",
          "type": "uint256"
        },
        {
          "internalType": "bytes32",
          "name": "amms",
          "type": "bytes32"
        },
        {
          "internalType": "address[]",
          "name": "tokens",
          "type": "address[]"
        },
        {
          "internalType": "address",
          "name": "_isolatedPair",
          "type": "address"
        },
        {
          "internalType": "uint256",
          "name": "withdrawFrom",
          "type": "uint256"
        },
        {
          "internalType": "uint256",
          "name": "withdrawTo",
          "type": "uint256"
        },
        {
          "internalType": "uint256",
          "name": "deadline",
          "type": "uint256"
        }
      ],
      "name": "swapExactTokensForTokensUnwind",
      "outputs": [
        {
          "internalType": "uint256[]",
          "name": "amounts",
          "type": "uint256[]"
        }
      ],
      "stateMutability": "nonpayable",
      "type": "function"
    },
    {
      "inputs": [
        {
          "internalType": "uint256",
          "name": "amountOut",
          "type": "uint256"
        },
        {
          "internalType": "uint256",
          "name": "amountInMax",
          "type": "uint256"
        },
        {
          "internalType": "bytes32",
          "name": "amms",
          "type": "bytes32"
        },
        {
          "internalType": "address[]",
          "name": "tokens",
          "type": "address[]"
        },
        {
          "internalType": "address",
          "name": "_isolatedPair",
          "type": "address"
        },
        {
          "internalType": "uint256",
          "name": "depositFrom",
          "type": "uint256"
        },
        {
          "internalType": "uint256",
          "name": "depositTo",
          "type": "uint256"
        },
        {
          "internalType": "uint256",
          "name": "deadline",
          "type": "uint256"
        }
      ],
      "name": "swapTokensForExactTokensPosition",
      "outputs": [
        {
          "internalType": "uint256[]",
          "name": "amounts",
          "type": "uint256[]"
        }
      ],
      "stateMutability": "nonpayable",
      "type": "function"
    },
    {
      "inputs": [
        {
          "internalType": "uint256",
          "name": "amountOut",
          "type": "uint256"
        },
        {
          "internalType": "uint256",
          "name": "amountInMax",
          "type": "uint256"
        },
        {
          "internalType": "bytes32",
          "name": "amms",
          "type": "bytes32"
        },
        {
          "internalType": "address[]",
          "name": "tokens",
          "type": "address[]"
        },
        {
          "internalType": "address",
          "name": "_isolatedPair",
          "type": "address"
        },
        {
          "internalType": "uint256",
          "name": "withdrawFrom",
          "type": "uint256"
        },
        {
          "internalType": "uint256",
          "name": "withdrawTo",
          "type": "uint256"
        },
        {
          "internalType": "uint256",
          "name": "deadline",
          "type": "uint256"
        }
      ],
      "name": "swapTokensForExactTokensUnwind",
      "outputs": [
        {
          "internalType": "uint256[]",
          "name": "amounts",
          "type": "uint256[]"
        }
      ],
      "stateMutability": "nonpayable",
      "type": "function"
    },
    {
      "inputs": [
        {
          "internalType": "uint256",
          "name": "role",
          "type": "uint256"
        }
      ],
      "name": "updateMainCharacterCache",
      "outputs": [],
      "stateMutability": "nonpayable",
      "type": "function"
    },
    {
      "inputs": [
        {
          "internalType": "uint256",
          "name": "role",
          "type": "uint256"
        },
        {
          "internalType": "address",
          "name": "contr",
          "type": "address"
        }
      ],
      "name": "updateRoleCache",
      "outputs": [],
      "stateMutability": "nonpayable",
      "type": "function"
    }
  ],
  "bytecode": "0x6101206040523480156200001257600080fd5b5060405162003a9e38038062003a9e83398101604081905262000035916200010f565b868686868686866001600160a01b038116620000a25760405162461bcd60e51b815260206004820152602260248201527f506c656173652070726f766964652076616c696420726f6c6573206164647265604482015261737360f01b606482015260840160405180910390fd5b6001600160601b0319606091821b811660805296811b871660a05294851b861660c05292841b851660e0526002919091556003556004559890981b90971661010052506200019b95505050505050565b80516001600160a01b03811681146200010a57600080fd5b919050565b600080600080600080600080610100898b0312156200012c578384fd5b6200013789620000f2565b97506200014760208a01620000f2565b96506200015760408a01620000f2565b95506200016760608a01620000f2565b94506080890151935060a0890151925060c089015191506200018c60e08a01620000f2565b90509295985092959890939650565b60805160601c60a05160601c60c05160601c60e05160601c6101005160601c61388c6200021260003960006102680152600081816102c901526129930152600081816101250152612acd01526000818161028f0152612bc80152600081816101d401528181610362015261134c015261388c6000f3fe608060405234801561001057600080fd5b506004361061011b5760003560e01c80637a1a04df116100b2578063cfd124af11610081578063df7c20f911610066578063df7c20f9146102eb578063e2abb5c4146102f4578063e9c3f77d146102fd5761011b565b8063cfd124af146102b1578063db429235146102c45761011b565b80637a1a04df1461021c578063a75208a81461025a578063ad5c464814610263578063b852eb0d1461028a5761011b565b80632c77dda0116100ee5780632c77dda0146101bc578063392f5f64146101cf5780633ec380da146101f6578063447d52ba146102095761011b565b8063059b157a14610120578063071060a6146101715780631084bd6d1461018657806328f988011461019c575b600080fd5b6101477f000000000000000000000000000000000000000000000000000000000000000081565b60405173ffffffffffffffffffffffffffffffffffffffff90911681526020015b60405180910390f35b61018461017f366004613526565b610333565b005b61018e600a81565b604051908152602001610168565b6101af6101aa366004613585565b610444565b6040516101689190613640565b6101af6101ca366004613585565b6109d9565b6101477f000000000000000000000000000000000000000000000000000000000000000081565b6101af610204366004613585565b610d86565b610184610217366004613556565b611300565b61024a61022a36600461348d565b600160209081526000928352604080842090915290825290205460ff1681565b6040519015158152602001610168565b61018e60025481565b6101477f000000000000000000000000000000000000000000000000000000000000000081565b6101477f000000000000000000000000000000000000000000000000000000000000000081565b6101af6102bf366004613585565b611429565b6101477f000000000000000000000000000000000000000000000000000000000000000081565b61018e60035481565b61018e60045481565b61014761030b366004613526565b60006020819052908152604090205473ffffffffffffffffffffffffffffffffffffffff1681565b6040517fb4ed0b6d000000000000000000000000000000000000000000000000000000008152600481018290527f000000000000000000000000000000000000000000000000000000000000000073ffffffffffffffffffffffffffffffffffffffff169063b4ed0b6d9060240160206040518083038186803b1580156103b957600080fd5b505afa1580156103cd573d6000803e3d6000fd5b505050506040513d601f19601f820116820180604052508101906103f19190613471565b60009182526020829052604090912080547fffffffffffffffffffffffff00000000000000000000000000000000000000001673ffffffffffffffffffffffffffffffffffffffff909216919091179055565b606081428110156104b6576040517f08c379a000000000000000000000000000000000000000000000000000000000815260206004820152601160248201527f547261646520686173206578706972656400000000000000000000000000000060448201526064015b60405180910390fd5b8573ffffffffffffffffffffffffffffffffffffffff1663456dc17a6040518163ffffffff1660e01b815260040160206040518083038186803b1580156104fc57600080fd5b505afa158015610510573d6000803e3d6000fd5b505050506040513d601f19601f820116820180604052508101906105349190613471565b73ffffffffffffffffffffffffffffffffffffffff168888610557600182613796565b81811061057457634e487b7160e01b600052603260045260246000fd5b9050602002016020810190610589919061344e565b73ffffffffffffffffffffffffffffffffffffffff1614801561068957508573ffffffffffffffffffffffffffffffffffffffff1663a1ad54e66040518163ffffffff1660e01b815260040160206040518083038186803b1580156105ed57600080fd5b505afa158015610601573d6000803e3d6000fd5b505050506040513d601f19601f820116820180604052508101906106259190613471565b73ffffffffffffffffffffffffffffffffffffffff168888600081811061065c57634e487b7160e01b600052603260045260246000fd5b9050602002016020810190610671919061344e565b73ffffffffffffffffffffffffffffffffffffffff16145b610715576040517f08c379a000000000000000000000000000000000000000000000000000000000815260206004820152602160248201527f5061746820646f6573206e6f74206d617463682069736f6c617465642070616960448201527f720000000000000000000000000000000000000000000000000000000000000060648201526084016104ad565b60006107208c6117c1565b9050606061076b610731838f613796565b8c8c8c808060200260200160405190810160405280939291908181526020018383602002808284376000920191909152506117eb92505050565b80925081955050506107b533898f87600189516107889190613796565b815181106107a657634e487b7160e01b600052603260045260246000fd5b60200260200101518b8b611b75565b610835338b8b60008181106107da57634e487b7160e01b600052603260045260246000fd5b90506020020160208101906107ef919061344e565b8c8c6107fc600182613796565b81811061081957634e487b7160e01b600052603260045260246000fd5b905060200201602081019061082e919061344e565b8a8a611ddb565b610842848d838d8d611f82565b60405173ffffffffffffffffffffffffffffffffffffffff8916815233907f01b7c8da263f90a3f5f5886fdd0247d721a0e86b0a4b86f43720f07e975b7def9060200160405180910390a2337fbc4fb982d00f64d415349ea58464559e60570835f500eb69f74311d8d18d8d1d8b8b6000816108ce57634e487b7160e01b600052603260045260246000fd5b90506020020160208101906108e3919061344e565b8c8c6108f0600182613796565b81811061090d57634e487b7160e01b600052603260045260246000fd5b9050602002016020810190610922919061344e565b8760008151811061094357634e487b7160e01b600052603260045260246000fd5b60200260200101518860018a5161095a9190613796565b8151811061097857634e487b7160e01b600052603260045260246000fd5b60200260200101516040516109c1949392919073ffffffffffffffffffffffffffffffffffffffff94851681529290931660208301526040820152606081019190915260800190565b60405180910390a25050509998505050505050505050565b60608142811015610a46576040517f08c379a000000000000000000000000000000000000000000000000000000000815260206004820152601160248201527f547261646520686173206578706972656400000000000000000000000000000060448201526064016104ad565b8573ffffffffffffffffffffffffffffffffffffffff1663456dc17a6040518163ffffffff1660e01b815260040160206040518083038186803b158015610a8c57600080fd5b505afa158015610aa0573d6000803e3d6000fd5b505050506040513d601f19601f82011682018060405250810190610ac49190613471565b73ffffffffffffffffffffffffffffffffffffffff1688886000818110610afb57634e487b7160e01b600052603260045260246000fd5b9050602002016020810190610b10919061344e565b73ffffffffffffffffffffffffffffffffffffffff16148015610c1957508573ffffffffffffffffffffffffffffffffffffffff1663a1ad54e66040518163ffffffff1660e01b815260040160206040518083038186803b158015610b7457600080fd5b505afa158015610b88573d6000803e3d6000fd5b505050506040513d601f19601f82011682018060405250810190610bac9190613471565b73ffffffffffffffffffffffffffffffffffffffff168888610bcf600182613796565b818110610bec57634e487b7160e01b600052603260045260246000fd5b9050602002016020810190610c01919061344e565b73ffffffffffffffffffffffffffffffffffffffff16145b610ca5576040517f08c379a000000000000000000000000000000000000000000000000000000000815260206004820152602160248201527f5061746820646f6573206e6f74206d617463682069736f6c617465642070616960448201527f720000000000000000000000000000000000000000000000000000000000000060648201526084016104ad565b6000610cb08c6117c1565b90506060610cc1610731838f613796565b9094509050610d44338b8b600081610ce957634e487b7160e01b600052603260045260246000fd5b9050602002016020810190610cfe919061344e565b8c8c610d0b600182613796565b818110610d2857634e487b7160e01b600052603260045260246000fd5b9050602002016020810190610d3d919061344e565b8a8a612201565b61083533898f8760018951610d599190613796565b81518110610d7757634e487b7160e01b600052603260045260246000fd5b60200260200101518b8b612372565b60608142811015610df3576040517f08c379a000000000000000000000000000000000000000000000000000000000815260206004820152601160248201527f547261646520686173206578706972656400000000000000000000000000000060448201526064016104ad565b8573ffffffffffffffffffffffffffffffffffffffff1663456dc17a6040518163ffffffff1660e01b815260040160206040518083038186803b158015610e3957600080fd5b505afa158015610e4d573d6000803e3d6000fd5b505050506040513d601f19601f82011682018060405250810190610e719190613471565b73ffffffffffffffffffffffffffffffffffffffff1688886000818110610ea857634e487b7160e01b600052603260045260246000fd5b9050602002016020810190610ebd919061344e565b73ffffffffffffffffffffffffffffffffffffffff16148015610fc657508573ffffffffffffffffffffffffffffffffffffffff1663a1ad54e66040518163ffffffff1660e01b815260040160206040518083038186803b158015610f2157600080fd5b505afa158015610f35573d6000803e3d6000fd5b505050506040513d601f19601f82011682018060405250810190610f599190613471565b73ffffffffffffffffffffffffffffffffffffffff168888610f7c600182613796565b818110610f9957634e487b7160e01b600052603260045260246000fd5b9050602002016020810190610fae919061344e565b73ffffffffffffffffffffffffffffffffffffffff16145b611052576040517f08c379a000000000000000000000000000000000000000000000000000000000815260206004820152602160248201527f5061746820646f6573206e6f74206d617463682069736f6c617465642070616960448201527f720000000000000000000000000000000000000000000000000000000000000060648201526084016104ad565b60606110a46110608d6124d1565b61106a908e613721565b8b8b8b808060200260200160405190810160405280939291908181526020018383602002808284376000920191909152506124e192505050565b9093509050611127338a8a6000816110cc57634e487b7160e01b600052603260045260246000fd5b90506020020160208101906110e1919061344e565b8b8b6110ee600182613796565b81811061110b57634e487b7160e01b600052603260045260246000fd5b9050602002016020810190611120919061344e565b8989612201565b61115d33888560008151811061114d57634e487b7160e01b600052603260045260246000fd5b60200260200101518f8a8a612372565b61116a838c838c8c61288d565b60405173ffffffffffffffffffffffffffffffffffffffff8816815233907f01b7c8da263f90a3f5f5886fdd0247d721a0e86b0a4b86f43720f07e975b7def9060200160405180910390a2337fbc4fb982d00f64d415349ea58464559e60570835f500eb69f74311d8d18d8d1d8a8a6000816111f657634e487b7160e01b600052603260045260246000fd5b905060200201602081019061120b919061344e565b8b8b611218600182613796565b81811061123557634e487b7160e01b600052603260045260246000fd5b905060200201602081019061124a919061344e565b8660008151811061126b57634e487b7160e01b600052603260045260246000fd5b602002602001015187600189516112829190613796565b815181106112a057634e487b7160e01b600052603260045260246000fd5b60200260200101516040516112e9949392919073ffffffffffffffffffffffffffffffffffffffff94851681529290931660208301526040820152606081019190915260800190565b60405180910390a250509998505050505050505050565b6040517f93552a3d0000000000000000000000000000000000000000000000000000000081526004810183905273ffffffffffffffffffffffffffffffffffffffff82811660248301527f000000000000000000000000000000000000000000000000000000000000000016906393552a3d9060440160206040518083038186803b15801561138e57600080fd5b505afa1580156113a2573d6000803e3d6000fd5b505050506040513d601f19601f820116820180604052508101906113c691906134b8565b73ffffffffffffffffffffffffffffffffffffffff9190911660009081526001602090815260408083209483529390529190912080547fffffffffffffffffffffffffffffffffffffffffffffffffffffffffffffff0016911515919091179055565b60608142811015611496576040517f08c379a000000000000000000000000000000000000000000000000000000000815260206004820152601160248201527f547261646520686173206578706972656400000000000000000000000000000060448201526064016104ad565b8573ffffffffffffffffffffffffffffffffffffffff1663456dc17a6040518163ffffffff1660e01b815260040160206040518083038186803b1580156114dc57600080fd5b505afa1580156114f0573d6000803e3d6000fd5b505050506040513d601f19601f820116820180604052508101906115149190613471565b73ffffffffffffffffffffffffffffffffffffffff168888611537600182613796565b81811061155457634e487b7160e01b600052603260045260246000fd5b9050602002016020810190611569919061344e565b73ffffffffffffffffffffffffffffffffffffffff1614801561166957508573ffffffffffffffffffffffffffffffffffffffff1663a1ad54e66040518163ffffffff1660e01b815260040160206040518083038186803b1580156115cd57600080fd5b505afa1580156115e1573d6000803e3d6000fd5b505050506040513d601f19601f820116820180604052508101906116059190613471565b73ffffffffffffffffffffffffffffffffffffffff168888600081811061163c57634e487b7160e01b600052603260045260246000fd5b9050602002016020810190611651919061344e565b73ffffffffffffffffffffffffffffffffffffffff16145b6116f5576040517f08c379a000000000000000000000000000000000000000000000000000000000815260206004820152602160248201527f5061746820646f6573206e6f74206d617463682069736f6c617465642070616960448201527f720000000000000000000000000000000000000000000000000000000000000060648201526084016104ad565b60606117036110608d6124d1565b809250819450505061174133888560008151811061173157634e487b7160e01b600052603260045260246000fd5b60200260200101518f8a8a611b75565b61115d338a8a600081811061176657634e487b7160e01b600052603260045260246000fd5b905060200201602081019061177b919061344e565b8b8b611788600182613796565b8181106117a557634e487b7160e01b600052603260045260246000fd5b90506020020160208101906117ba919061344e565b8989611ddb565b60006117d0600a612710613721565b6117db83600a613759565b6117e59190613739565b92915050565b60608060028351101561185a576040517f08c379a000000000000000000000000000000000000000000000000000000000815260206004820152601460248201527f746f6b656e207061746820746f6f2073686f727400000000000000000000000060448201526064016104ad565b825167ffffffffffffffff81111561188257634e487b7160e01b600052604160045260246000fd5b6040519080825280602002602001820160405280156118ab578160200160208202803683370190505b50915084826000815181106118d057634e487b7160e01b600052603260045260246000fd5b602002602001018181525050600183516118ea9190613796565b67ffffffffffffffff81111561191057634e487b7160e01b600052604160045260246000fd5b604051908082528060200260200182016040528015611939578160200160208202803683370190505b50905060005b6001845161194d9190613796565b811015611b6c57600084828151811061197657634e487b7160e01b600052603260045260246000fd5b602002602001015190506000858360016119909190613721565b815181106119ae57634e487b7160e01b600052603260045260246000fd5b6020026020010151905060008784602081106119da57634e487b7160e01b600052603260045260246000fd5b1a60f81b7fff000000000000000000000000000000000000000000000000000000000000001615611a7357878460208110611a2557634e487b7160e01b600052603260045260246000fd5b1a60f81b7effffffffffffffffffffffffffffffffffffffffffffffffffffffffffffff1916600160f81b14611a6457611a5f8383612944565b611a6e565b611a6e8383612a7e565b611a7d565b611a7d8383612b79565b905080858581518110611aa057634e487b7160e01b600052603260045260246000fd5b602002602001019073ffffffffffffffffffffffffffffffffffffffff16908173ffffffffffffffffffffffffffffffffffffffff1681525050600080611ae8838686612c74565b91509150611b1e888781518110611b0f57634e487b7160e01b600052603260045260246000fd5b60200260200101518383612d78565b88611b2a886001613721565b81518110611b4857634e487b7160e01b600052603260045260246000fd5b60200260200101818152505050505050508080611b64906137e2565b91505061193f565b50935093915050565b6000611b818285613796565b905073ffffffffffffffffffffffffffffffffffffffff861663c5f1d5c28883611bab878a613796565b6040517fffffffff0000000000000000000000000000000000000000000000000000000060e086901b16815273ffffffffffffffffffffffffffffffffffffffff909316600484015260248301919091526044820152606401600060405180830381600087803b158015611c1e57600080fd5b505af1158015611c32573d6000803e3d6000fd5b50506066600090815260205250507f422cccb7cea5c0e46f340bb7b21b81debac329f72e31669c20ff0f3a05cc2b5b546040517f2a6a897b00000000000000000000000000000000000000000000000000000000815273ffffffffffffffffffffffffffffffffffffffff88811660048301526024820184905290911690632a6a897b906044015b600060405180830381600087803b158015611cd457600080fd5b505af1158015611ce8573d6000803e3d6000fd5b50506066600090815260205250507f422cccb7cea5c0e46f340bb7b21b81debac329f72e31669c20ff0f3a05cc2b5b5473ffffffffffffffffffffffffffffffffffffffff166040517fdc683bcf00000000000000000000000000000000000000000000000000000000815273ffffffffffffffffffffffffffffffffffffffff8881166004830152919091169063dc683bcf90602401602060405180830381600087803b158015611d9957600080fd5b505af1158015611dad573d6000803e3d6000fd5b505050506040513d601f19601f82011682018060405250810190611dd1919061353e565b5050505050505050565b8115611eb657606560009081526020527f4a7203f705e51df4a56139a9b86b4a0970bed7ab7a3446eaffe2289989c1645c5473ffffffffffffffffffffffffffffffffffffffff166040517fd9caed1200000000000000000000000000000000000000000000000000000000815273ffffffffffffffffffffffffffffffffffffffff8681166004830152878116602483015260448201859052919091169063d9caed1290606401600060405180830381600087803b158015611e9d57600080fd5b505af1158015611eb1573d6000803e3d6000fd5b505050505b8015611f7b57606560009081526020527f4a7203f705e51df4a56139a9b86b4a0970bed7ab7a3446eaffe2289989c1645c546040517fd9caed1200000000000000000000000000000000000000000000000000000000815273ffffffffffffffffffffffffffffffffffffffff85811660048301528781166024830152604482018490529091169063d9caed12906064015b600060405180830381600087803b158015611f6257600080fd5b505af1158015611f76573d6000803e3d6000fd5b505050505b5050505050565b838560018751611f929190613796565b81518110611fb057634e487b7160e01b600052603260045260246000fd5b60200260200101511015612046576040517f08c379a000000000000000000000000000000000000000000000000000000000815260206004820152602860248201527f4d617267696e526f757465723a20494e53554646494349454e545f4f5554505560448201527f545f414d4f554e5400000000000000000000000000000000000000000000000060648201526084016104ad565b606560009081526020527f4a7203f705e51df4a56139a9b86b4a0970bed7ab7a3446eaffe2289989c1645c5473ffffffffffffffffffffffffffffffffffffffff1673ffffffffffffffffffffffffffffffffffffffff1663d9caed12838360008181106120c457634e487b7160e01b600052603260045260246000fd5b90506020020160208101906120d9919061344e565b856000815181106120fa57634e487b7160e01b600052603260045260246000fd5b60200260200101518860008151811061212357634e487b7160e01b600052603260045260246000fd5b60209081029190910101516040517fffffffff0000000000000000000000000000000000000000000000000000000060e086901b16815273ffffffffffffffffffffffffffffffffffffffff93841660048201529290911660248301526044820152606401600060405180830381600087803b1580156121a257600080fd5b505af11580156121b6573d6000803e3d6000fd5b50505050611f7b85848484808060200260200160405190810160405280939291908181526020018383602002808284376000920191909152506121fc9250612ecd915050565b612f12565b81156122dc57606560009081526020527f4a7203f705e51df4a56139a9b86b4a0970bed7ab7a3446eaffe2289989c1645c5473ffffffffffffffffffffffffffffffffffffffff166040517fb3db428b00000000000000000000000000000000000000000000000000000000815273ffffffffffffffffffffffffffffffffffffffff8781166004830152868116602483015260448201859052919091169063b3db428b90606401600060405180830381600087803b1580156122c357600080fd5b505af11580156122d7573d6000803e3d6000fd5b505050505b8015611f7b57606560009081526020527f4a7203f705e51df4a56139a9b86b4a0970bed7ab7a3446eaffe2289989c1645c546040517fb3db428b00000000000000000000000000000000000000000000000000000000815273ffffffffffffffffffffffffffffffffffffffff87811660048301528581166024830152604482018490529091169063b3db428b90606401611f48565b600061237e8386613796565b905073ffffffffffffffffffffffffffffffffffffffff8616638b2db56988836123a88689613721565b60008811806123b75750600087115b6040517fffffffff0000000000000000000000000000000000000000000000000000000060e087901b16815273ffffffffffffffffffffffffffffffffffffffff90941660048501526024840192909252604483015215156064820152608401600060405180830381600087803b15801561243157600080fd5b505af1158015612445573d6000803e3d6000fd5b50506066600090815260205250507f422cccb7cea5c0e46f340bb7b21b81debac329f72e31669c20ff0f3a05cc2b5b546040517fee0862bf00000000000000000000000000000000000000000000000000000000815273ffffffffffffffffffffffffffffffffffffffff8881166004830152602482018490529091169063ee0862bf90604401611cba565b60006127106117db83600a613759565b606080600283511015612550576040517f08c379a000000000000000000000000000000000000000000000000000000000815260206004820152601460248201527f746f6b656e207061746820746f6f2073686f727400000000000000000000000060448201526064016104ad565b825167ffffffffffffffff81111561257857634e487b7160e01b600052604160045260246000fd5b6040519080825280602002602001820160405280156125a1578160200160208202803683370190505b5091508482600184516125b49190613796565b815181106125d257634e487b7160e01b600052603260045260246000fd5b602002602001018181525050600183516125ec9190613796565b67ffffffffffffffff81111561261257634e487b7160e01b600052604160045260246000fd5b60405190808252806020026020018201604052801561263b578160200160208202803683370190505b50905060006001845161264e9190613796565b90505b8015611b6c57600084612665600184613796565b8151811061268357634e487b7160e01b600052603260045260246000fd5b6020026020010151905060008583815181106126af57634e487b7160e01b600052603260045260246000fd5b602002602001015190506000876001856126c99190613796565b602081106126e757634e487b7160e01b600052603260045260246000fd5b1a60f81b7fff00000000000000000000000000000000000000000000000000000000000000161561278a578761271e600186613796565b6020811061273c57634e487b7160e01b600052603260045260246000fd5b1a60f81b7effffffffffffffffffffffffffffffffffffffffffffffffffffffffffffff1916600160f81b1461277b576127768383612944565b612785565b6127858383612a7e565b612794565b6127948383612b79565b905080856127a3600187613796565b815181106127c157634e487b7160e01b600052603260045260246000fd5b602002602001019073ffffffffffffffffffffffffffffffffffffffff16908173ffffffffffffffffffffffffffffffffffffffff1681525050600080612809838686612c74565b9150915061283f88878151811061283057634e487b7160e01b600052603260045260246000fd5b60200260200101518383613167565b8861284b600189613796565b8151811061286957634e487b7160e01b600052603260045260246000fd5b60200260200101818152505050505050508080612885906137ad565b915050612651565b83856000815181106128af57634e487b7160e01b600052603260045260246000fd5b60200260200101511115612046576040517f08c379a0000000000000000000000000000000000000000000000000000000008152602060048201526024808201527f4d617267696e526f757465723a204558434553534956455f494e5055545f414d60448201527f4f554e540000000000000000000000000000000000000000000000000000000060648201526084016104ad565b600080600061295385856132c1565b6040517fffffffffffffffffffffffffffffffffffffffff000000000000000000000000606084811b8216602084015283901b16603482015291935091507f00000000000000000000000000000000000000000000000000000000000000009060480160405160208183030381529060405280519060200120600454604051602001612a3f939291907fff00000000000000000000000000000000000000000000000000000000000000815260609390931b7fffffffffffffffffffffffffffffffffffffffff0000000000000000000000001660018401526015830191909152603582015260550190565b604080517fffffffffffffffffffffffffffffffffffffffffffffffffffffffffffffffe0818403018152919052805160209091012095945050505050565b6000806000612a8d85856132c1565b6040517fffffffffffffffffffffffffffffffffffffffff000000000000000000000000606084811b8216602084015283901b16603482015291935091507f00000000000000000000000000000000000000000000000000000000000000009060480160405160208183030381529060405280519060200120600354604051602001612a3f939291907fff00000000000000000000000000000000000000000000000000000000000000815260609390931b7fffffffffffffffffffffffffffffffffffffffff0000000000000000000000001660018401526015830191909152603582015260550190565b6000806000612b8885856132c1565b6040517fffffffffffffffffffffffffffffffffffffffff000000000000000000000000606084811b8216602084015283901b16603482015291935091507f00000000000000000000000000000000000000000000000000000000000000009060480160405160208183030381529060405280519060200120600254604051602001612a3f939291907fff00000000000000000000000000000000000000000000000000000000000000815260609390931b7fffffffffffffffffffffffffffffffffffffffff0000000000000000000000001660018401526015830191909152603582015260550190565b6000806000612c8385856132c1565b5090506000808773ffffffffffffffffffffffffffffffffffffffff16630902f1ac6040518163ffffffff1660e01b815260040160606040518083038186803b158015612ccf57600080fd5b505afa158015612ce3573d6000803e3d6000fd5b505050506040513d601f19601f82011682018060405250810190612d0791906134d8565b506dffffffffffffffffffffffffffff1691506dffffffffffffffffffffffffffff1691508273ffffffffffffffffffffffffffffffffffffffff168773ffffffffffffffffffffffffffffffffffffffff1614612d66578082612d69565b81815b90999098509650505050505050565b6000808411612de3576040517f08c379a000000000000000000000000000000000000000000000000000000000815260206004820152601960248201527f494e53554646494349454e545f494e5055545f414d4f554e540000000000000060448201526064016104ad565b600083118015612df35750600082115b612e7f576040517f08c379a000000000000000000000000000000000000000000000000000000000815260206004820152602860248201527f556e697377617056324c6962726172793a20494e53554646494349454e545f4c60448201527f495155494449545900000000000000000000000000000000000000000000000060648201526084016104ad565b6000612e8d856103e5613759565b90506000612e9b8483613759565b9050600082612eac876103e8613759565b612eb69190613721565b9050612ec28183613739565b979650505050505050565b606560009081526020527f4a7203f705e51df4a56139a9b86b4a0970bed7ab7a3446eaffe2289989c1645c5473ffffffffffffffffffffffffffffffffffffffff1690565b60005b8351811015611f7b57600080848381518110612f4157634e487b7160e01b600052603260045260246000fd5b602002602001015185846001612f579190613721565b81518110612f7557634e487b7160e01b600052603260045260246000fd5b6020026020010151915091506000612f8d83836132c1565b509050600088612f9e866001613721565b81518110612fbc57634e487b7160e01b600052603260045260246000fd5b602002602001015190506000808373ffffffffffffffffffffffffffffffffffffffff168673ffffffffffffffffffffffffffffffffffffffff161461300457826000613008565b6000835b91509150600060018b5161301c9190613796565b8810613028578861305b565b8a613034896001613721565b8151811061305257634e487b7160e01b600052603260045260246000fd5b60200260200101515b905060008b898151811061307f57634e487b7160e01b600052603260045260246000fd5b602002602001015190508073ffffffffffffffffffffffffffffffffffffffff1663022c0d9f858585600067ffffffffffffffff8111156130d057634e487b7160e01b600052604160045260246000fd5b6040519080825280601f01601f1916602001820160405280156130fa576020820181803683370190505b506040518563ffffffff1660e01b815260040161311a9493929190613684565b600060405180830381600087803b15801561313457600080fd5b505af1158015613148573d6000803e3d6000fd5b505050505050505050505050808061315f906137e2565b915050612f15565b60008084116131d2576040517f08c379a000000000000000000000000000000000000000000000000000000000815260206004820152601a60248201527f494e53554646494349454e545f4f55545055545f414d4f554e5400000000000060448201526064016104ad565b6000831180156131e25750600082115b61326e576040517f08c379a000000000000000000000000000000000000000000000000000000000815260206004820152602860248201527f556e697377617056324c6962726172793a20494e53554646494349454e545f4c60448201527f495155494449545900000000000000000000000000000000000000000000000060648201526084016104ad565b600061327a8585613759565b613286906103e8613759565b905060006132948685613796565b6132a0906103e5613759565b90506132ac8183613739565b6132b7906001613721565b9695505050505050565b6000808273ffffffffffffffffffffffffffffffffffffffff168473ffffffffffffffffffffffffffffffffffffffff16141561335a576040517f08c379a000000000000000000000000000000000000000000000000000000000815260206004820152601260248201527f4964656e746963616c206164647265737321000000000000000000000000000060448201526064016104ad565b8273ffffffffffffffffffffffffffffffffffffffff168473ffffffffffffffffffffffffffffffffffffffff1610613394578284613397565b83835b909250905073ffffffffffffffffffffffffffffffffffffffff8216613419576040517f08c379a000000000000000000000000000000000000000000000000000000000815260206004820152600d60248201527f5a65726f2061646472657373210000000000000000000000000000000000000060448201526064016104ad565b9250929050565b803561342b81613831565b919050565b80516dffffffffffffffffffffffffffff8116811461342b57600080fd5b60006020828403121561345f578081fd5b813561346a81613831565b9392505050565b600060208284031215613482578081fd5b815161346a81613831565b6000806040838503121561349f578081fd5b82356134aa81613831565b946020939093013593505050565b6000602082840312156134c9578081fd5b8151801515811461346a578182fd5b6000806000606084860312156134ec578081fd5b6134f584613430565b925061350360208501613430565b9150604084015163ffffffff8116811461351b578182fd5b809150509250925092565b600060208284031215613537578081fd5b5035919050565b60006020828403121561354f578081fd5b5051919050565b60008060408385031215613568578182fd5b82359150602083013561357a81613831565b809150509250929050565b60008060008060008060008060006101008a8c0312156135a3578485fd5b8935985060208a0135975060408a0135965060608a013567ffffffffffffffff808211156135cf578687fd5b818c0191508c601f8301126135e2578687fd5b8135818111156135f0578788fd5b8d60208260051b8501011115613604578788fd5b60208301985080975050505061361c60808b01613420565b935060a08a0135925060c08a0135915060e08a013590509295985092959850929598565b6020808252825182820181905260009190848201906040850190845b818110156136785783518352928401929184019160010161365c565b50909695505050505050565b60008582526020858184015273ffffffffffffffffffffffffffffffffffffffff85166040840152608060608401528351806080850152825b818110156136d95785810183015185820160a0015282016136bd565b818111156136ea578360a083870101525b50601f017fffffffffffffffffffffffffffffffffffffffffffffffffffffffffffffffe0169290920160a0019695505050505050565b600082198211156137345761373461381b565b500190565b60008261375457634e487b7160e01b81526012600452602481fd5b500490565b6000817fffffffffffffffffffffffffffffffffffffffffffffffffffffffffffffffff04831182151516156137915761379161381b565b500290565b6000828210156137a8576137a861381b565b500390565b6000816137bc576137bc61381b565b507fffffffffffffffffffffffffffffffffffffffffffffffffffffffffffffffff0190565b60007fffffffffffffffffffffffffffffffffffffffffffffffffffffffffffffffff8214156138145761381461381b565b5060010190565b634e487b7160e01b600052601160045260246000fd5b73ffffffffffffffffffffffffffffffffffffffff8116811461385357600080fd5b5056fea2646970667358221220dc02baa9286d115b12dd9943cdda0803b1571bbb190087674ac0cb7fe4c5937f64736f6c63430008030033",
  "linkReferences": {},
  "deployedLinkReferences": {}
}