{
  "_format": "hh-sol-artifact-1",
  "contractName": "IsolatedMarginRouter",
  "sourceName": "contracts/isolated/IsolatedMarginRouter.sol",
  "abi": [
    {
      "inputs": [
        {
          "internalType": "address",
          "name": "_WETH",
          "type": "address"
        },
        {
          "internalType": "address",
          "name": "_amm1Factory",
          "type": "address"
        },
        {
          "internalType": "address",
          "name": "_amm2Factory",
          "type": "address"
        },
        {
          "internalType": "address",
          "name": "_amm3Factory",
          "type": "address"
        },
        {
          "internalType": "bytes32",
          "name": "_amm1InitHash",
          "type": "bytes32"
        },
        {
          "internalType": "bytes32",
          "name": "_amm2InitHash",
          "type": "bytes32"
        },
        {
          "internalType": "bytes32",
          "name": "_amm3InitHash",
          "type": "bytes32"
        },
        {
          "internalType": "uint256",
          "name": "_feeBase",
          "type": "uint256"
        },
        {
          "internalType": "address",
          "name": "_roles",
          "type": "address"
        }
      ],
      "stateMutability": "nonpayable",
      "type": "constructor"
    },
    {
      "anonymous": false,
      "inputs": [
        {
          "indexed": true,
          "internalType": "address",
          "name": "trader",
          "type": "address"
        },
        {
          "indexed": false,
          "internalType": "address",
          "name": "isolatedPair",
          "type": "address"
        }
      ],
      "name": "IsolatedAccountUpdated",
      "type": "event"
    },
    {
      "anonymous": false,
      "inputs": [
        {
          "indexed": true,
          "internalType": "address",
          "name": "trader",
          "type": "address"
        },
        {
          "indexed": false,
          "internalType": "address",
          "name": "fromToken",
          "type": "address"
        },
        {
          "indexed": false,
          "internalType": "address",
          "name": "toToken",
          "type": "address"
        },
        {
          "indexed": false,
          "internalType": "uint256",
          "name": "fromAmount",
          "type": "uint256"
        },
        {
          "indexed": false,
          "internalType": "uint256",
          "name": "toAmount",
          "type": "uint256"
        }
      ],
      "name": "IsolatedMarginTrade",
      "type": "event"
    },
    {
      "inputs": [],
      "name": "WETH",
      "outputs": [
        {
          "internalType": "address",
          "name": "",
          "type": "address"
        }
      ],
      "stateMutability": "view",
      "type": "function"
    },
    {
      "inputs": [],
      "name": "amm1Factory",
      "outputs": [
        {
          "internalType": "address",
          "name": "",
          "type": "address"
        }
      ],
      "stateMutability": "view",
      "type": "function"
    },
    {
      "inputs": [],
      "name": "amm1InitHash",
      "outputs": [
        {
          "internalType": "bytes32",
          "name": "",
          "type": "bytes32"
        }
      ],
      "stateMutability": "view",
      "type": "function"
    },
    {
      "inputs": [],
      "name": "amm2Factory",
      "outputs": [
        {
          "internalType": "address",
          "name": "",
          "type": "address"
        }
      ],
      "stateMutability": "view",
      "type": "function"
    },
    {
      "inputs": [],
      "name": "amm2InitHash",
      "outputs": [
        {
          "internalType": "bytes32",
          "name": "",
          "type": "bytes32"
        }
      ],
      "stateMutability": "view",
      "type": "function"
    },
    {
      "inputs": [],
      "name": "amm3Factory",
      "outputs": [
        {
          "internalType": "address",
          "name": "",
          "type": "address"
        }
      ],
      "stateMutability": "view",
      "type": "function"
    },
    {
      "inputs": [],
      "name": "amm3InitHash",
      "outputs": [
        {
          "internalType": "bytes32",
          "name": "",
          "type": "bytes32"
        }
      ],
      "stateMutability": "view",
      "type": "function"
    },
    {
      "inputs": [],
      "name": "feeBase",
      "outputs": [
        {
          "internalType": "uint256",
          "name": "",
          "type": "uint256"
        }
      ],
      "stateMutability": "view",
      "type": "function"
    },
    {
      "inputs": [
        {
          "internalType": "uint256",
          "name": "",
          "type": "uint256"
        }
      ],
      "name": "mainCharacterCache",
      "outputs": [
        {
          "internalType": "address",
          "name": "",
          "type": "address"
        }
      ],
      "stateMutability": "view",
      "type": "function"
    },
    {
      "inputs": [],
      "name": "mswapFeesPer10k",
      "outputs": [
        {
          "internalType": "uint256",
          "name": "",
          "type": "uint256"
        }
      ],
      "stateMutability": "view",
      "type": "function"
    },
    {
      "inputs": [
        {
          "internalType": "address",
          "name": "",
          "type": "address"
        },
        {
          "internalType": "uint256",
          "name": "",
          "type": "uint256"
        }
      ],
      "name": "roleCache",
      "outputs": [
        {
          "internalType": "bool",
          "name": "",
          "type": "bool"
        }
      ],
      "stateMutability": "view",
      "type": "function"
    },
    {
      "inputs": [],
      "name": "roles",
      "outputs": [
        {
          "internalType": "contract Roles",
          "name": "",
          "type": "address"
        }
      ],
      "stateMutability": "view",
      "type": "function"
    },
    {
      "inputs": [
        {
          "internalType": "uint256",
          "name": "amountIn",
          "type": "uint256"
        },
        {
          "internalType": "uint256",
          "name": "amountOutMin",
          "type": "uint256"
        },
        {
          "internalType": "bytes32",
          "name": "amms",
          "type": "bytes32"
        },
        {
          "internalType": "address[]",
          "name": "tokens",
          "type": "address[]"
        },
        {
          "internalType": "address",
          "name": "_isolatedPair",
          "type": "address"
        },
        {
          "internalType": "uint256",
          "name": "depositFrom",
          "type": "uint256"
        },
        {
          "internalType": "uint256",
          "name": "depositTo",
          "type": "uint256"
        },
        {
          "internalType": "uint256",
          "name": "deadline",
          "type": "uint256"
        }
      ],
      "name": "swapExactTokensForTokensPosition",
      "outputs": [
        {
          "internalType": "uint256[]",
          "name": "amounts",
          "type": "uint256[]"
        }
      ],
      "stateMutability": "nonpayable",
      "type": "function"
    },
    {
      "inputs": [
        {
          "internalType": "uint256",
          "name": "amountIn",
          "type": "uint256"
        },
        {
          "internalType": "uint256",
          "name": "amountOutMin",
          "type": "uint256"
        },
        {
          "internalType": "bytes32",
          "name": "amms",
          "type": "bytes32"
        },
        {
          "internalType": "address[]",
          "name": "tokens",
          "type": "address[]"
        },
        {
          "internalType": "address",
          "name": "_isolatedPair",
          "type": "address"
        },
        {
          "internalType": "uint256",
          "name": "withdrawFrom",
          "type": "uint256"
        },
        {
          "internalType": "uint256",
          "name": "withdrawTo",
          "type": "uint256"
        },
        {
          "internalType": "uint256",
          "name": "deadline",
          "type": "uint256"
        }
      ],
      "name": "swapExactTokensForTokensUnwind",
      "outputs": [
        {
          "internalType": "uint256[]",
          "name": "amounts",
          "type": "uint256[]"
        }
      ],
      "stateMutability": "nonpayable",
      "type": "function"
    },
    {
      "inputs": [
        {
          "internalType": "uint256",
          "name": "amountOut",
          "type": "uint256"
        },
        {
          "internalType": "uint256",
          "name": "amountInMax",
          "type": "uint256"
        },
        {
          "internalType": "bytes32",
          "name": "amms",
          "type": "bytes32"
        },
        {
          "internalType": "address[]",
          "name": "tokens",
          "type": "address[]"
        },
        {
          "internalType": "address",
          "name": "_isolatedPair",
          "type": "address"
        },
        {
          "internalType": "uint256",
          "name": "depositFrom",
          "type": "uint256"
        },
        {
          "internalType": "uint256",
          "name": "depositTo",
          "type": "uint256"
        },
        {
          "internalType": "uint256",
          "name": "deadline",
          "type": "uint256"
        }
      ],
      "name": "swapTokensForExactTokensPosition",
      "outputs": [
        {
          "internalType": "uint256[]",
          "name": "amounts",
          "type": "uint256[]"
        }
      ],
      "stateMutability": "nonpayable",
      "type": "function"
    },
    {
      "inputs": [
        {
          "internalType": "uint256",
          "name": "amountOut",
          "type": "uint256"
        },
        {
          "internalType": "uint256",
          "name": "amountInMax",
          "type": "uint256"
        },
        {
          "internalType": "bytes32",
          "name": "amms",
          "type": "bytes32"
        },
        {
          "internalType": "address[]",
          "name": "tokens",
          "type": "address[]"
        },
        {
          "internalType": "address",
          "name": "_isolatedPair",
          "type": "address"
        },
        {
          "internalType": "uint256",
          "name": "withdrawFrom",
          "type": "uint256"
        },
        {
          "internalType": "uint256",
          "name": "withdrawTo",
          "type": "uint256"
        },
        {
          "internalType": "uint256",
          "name": "deadline",
          "type": "uint256"
        }
      ],
      "name": "swapTokensForExactTokensUnwind",
      "outputs": [
        {
          "internalType": "uint256[]",
          "name": "amounts",
          "type": "uint256[]"
        }
      ],
      "stateMutability": "nonpayable",
      "type": "function"
    },
    {
      "inputs": [
        {
          "internalType": "uint256",
          "name": "role",
          "type": "uint256"
        }
      ],
      "name": "updateMainCharacterCache",
      "outputs": [],
      "stateMutability": "nonpayable",
      "type": "function"
    },
    {
      "inputs": [
        {
          "internalType": "uint256",
          "name": "role",
          "type": "uint256"
        },
        {
          "internalType": "address",
          "name": "contr",
          "type": "address"
        }
      ],
      "name": "updateRoleCache",
      "outputs": [],
      "stateMutability": "nonpayable",
      "type": "function"
    }
  ],
  "bytecode": "0x6101406040523480156200001257600080fd5b506040516200352538038062003525833981016040819052620000359162000115565b87878787878787876001600160a01b038116620000a35760405162461bcd60e51b815260206004820152602260248201527f506c656173652070726f766964652076616c696420726f6c6573206164647265604482015261737360f01b606482015260840160405180910390fd5b6001600160601b0319606091821b811660805297811b881660a05295861b871660c05293851b861660e052600292909255600355600455610100529990991b9098166101205250620001ab9650505050505050565b80516001600160a01b03811681146200011057600080fd5b919050565b60008060008060008060008060006101208a8c03121562000134578485fd5b6200013f8a620000f8565b98506200014f60208b01620000f8565b97506200015f60408b01620000f8565b96506200016f60608b01620000f8565b955060808a0151945060a08a0151935060c08a0151925060e08a015191506200019c6101008b01620000f8565b90509295985092959850929598565b60805160601c60a05160601c60c05160601c60e05160601c610100516101205160601c6132ea6200023b600039600061029d01526000818161026d015281816129f80152612db40152600081816102fe01526125bf01526000818161014001526126d30152600081816102c401526127a80152600081816101e20152818161038a015261119301526132ea6000f3fe608060405234801561001057600080fd5b50600436106101365760003560e01c806395e911a8116100b2578063cfd124af11610081578063df7c20f911610066578063df7c20f914610320578063e2abb5c414610329578063e9c3f77d1461033257610136565b8063cfd124af146102e6578063db429235146102f957610136565b806395e911a814610268578063a75208a81461028f578063ad5c464814610298578063b852eb0d146102bf57610136565b80632c77dda0116101095780633ec380da116100ee5780633ec380da14610204578063447d52ba146102175780637a1a04df1461022a57610136565b80632c77dda0146101ca578063392f5f64146101dd57610136565b8063059b157a1461013b578063071060a61461017f5780631084bd6d1461019457806328f98801146101aa575b600080fd5b6101627f000000000000000000000000000000000000000000000000000000000000000081565b6040516001600160a01b0390911681526020015b60405180910390f35b61019261018d366004612ff8565b61035b565b005b61019c600a81565b604051908152602001610176565b6101bd6101b8366004613057565b610452565b6040516101769190613112565b6101bd6101d8366004613057565b61094b565b6101627f000000000000000000000000000000000000000000000000000000000000000081565b6101bd610212366004613057565b610c76565b610192610225366004613028565b611154565b610258610238366004612f5f565b600160209081526000928352604080842090915290825290205460ff1681565b6040519015158152602001610176565b61019c7f000000000000000000000000000000000000000000000000000000000000000081565b61019c60025481565b6101627f000000000000000000000000000000000000000000000000000000000000000081565b6101627f000000000000000000000000000000000000000000000000000000000000000081565b6101bd6102f4366004613057565b611263565b6101627f000000000000000000000000000000000000000000000000000000000000000081565b61019c60035481565b61019c60045481565b610162610340366004612ff8565b6000602081905290815260409020546001600160a01b031681565b6040517fb4ed0b6d000000000000000000000000000000000000000000000000000000008152600481018290527f00000000000000000000000000000000000000000000000000000000000000006001600160a01b03169063b4ed0b6d9060240160206040518083038186803b1580156103d457600080fd5b505afa1580156103e8573d6000803e3d6000fd5b505050506040513d601f19601f8201168201806040525081019061040c9190612f43565b60009182526020829052604090912080547fffffffffffffffffffffffff0000000000000000000000000000000000000000166001600160a01b03909216919091179055565b606081428110156104aa5760405162461bcd60e51b815260206004820152601160248201527f547261646520686173206578706972656400000000000000000000000000000060448201526064015b60405180910390fd5b856001600160a01b031663456dc17a6040518163ffffffff1660e01b815260040160206040518083038186803b1580156104e357600080fd5b505afa1580156104f7573d6000803e3d6000fd5b505050506040513d601f19601f8201168201806040525081019061051b9190612f43565b6001600160a01b0316888861053160018261323d565b81811061054e57634e487b7160e01b600052603260045260246000fd5b90506020020160208101906105639190612f20565b6001600160a01b031614801561062f5750856001600160a01b031663a1ad54e66040518163ffffffff1660e01b815260040160206040518083038186803b1580156105ad57600080fd5b505afa1580156105c1573d6000803e3d6000fd5b505050506040513d601f19601f820116820180604052508101906105e59190612f43565b6001600160a01b03168888600081811061060f57634e487b7160e01b600052603260045260246000fd5b90506020020160208101906106249190612f20565b6001600160a01b0316145b6106a15760405162461bcd60e51b815260206004820152602160248201527f5061746820646f6573206e6f74206d617463682069736f6c617465642070616960448201527f720000000000000000000000000000000000000000000000000000000000000060648201526084016104a1565b60006106ac8c611579565b905060606106f76106bd838f61323d565b8c8c8c808060200260200160405190810160405280939291908181526020018383602002808284376000920191909152506115a392505050565b809250819550505061074133898f8760018951610714919061323d565b8151811061073257634e487b7160e01b600052603260045260246000fd5b60200260200101518b8b6118f9565b6107c1338b8b600081811061076657634e487b7160e01b600052603260045260246000fd5b905060200201602081019061077b9190612f20565b8c8c61078860018261323d565b8181106107a557634e487b7160e01b600052603260045260246000fd5b90506020020160208101906107ba9190612f20565b8a8a611b1e565b6107ce848d838d8d611c9e565b6040516001600160a01b038916815233907f01b7c8da263f90a3f5f5886fdd0247d721a0e86b0a4b86f43720f07e975b7def9060200160405180910390a2337fbc4fb982d00f64d415349ea58464559e60570835f500eb69f74311d8d18d8d1d8b8b60008161084d57634e487b7160e01b600052603260045260246000fd5b90506020020160208101906108629190612f20565b8c8c61086f60018261323d565b81811061088c57634e487b7160e01b600052603260045260246000fd5b90506020020160208101906108a19190612f20565b876000815181106108c257634e487b7160e01b600052603260045260246000fd5b60200260200101518860018a516108d9919061323d565b815181106108f757634e487b7160e01b600052603260045260246000fd5b602002602001015160405161093394939291906001600160a01b0394851681529290931660208301526040820152606081019190915260800190565b60405180910390a25050509998505050505050505050565b6060814281101561099e5760405162461bcd60e51b815260206004820152601160248201527f547261646520686173206578706972656400000000000000000000000000000060448201526064016104a1565b856001600160a01b031663456dc17a6040518163ffffffff1660e01b815260040160206040518083038186803b1580156109d757600080fd5b505afa1580156109eb573d6000803e3d6000fd5b505050506040513d601f19601f82011682018060405250810190610a0f9190612f43565b6001600160a01b031688886000818110610a3957634e487b7160e01b600052603260045260246000fd5b9050602002016020810190610a4e9190612f20565b6001600160a01b0316148015610b235750856001600160a01b031663a1ad54e66040518163ffffffff1660e01b815260040160206040518083038186803b158015610a9857600080fd5b505afa158015610aac573d6000803e3d6000fd5b505050506040513d601f19601f82011682018060405250810190610ad09190612f43565b6001600160a01b03168888610ae660018261323d565b818110610b0357634e487b7160e01b600052603260045260246000fd5b9050602002016020810190610b189190612f20565b6001600160a01b0316145b610b955760405162461bcd60e51b815260206004820152602160248201527f5061746820646f6573206e6f74206d617463682069736f6c617465642070616960448201527f720000000000000000000000000000000000000000000000000000000000000060648201526084016104a1565b6000610ba08c611579565b90506060610bb16106bd838f61323d565b9094509050610c34338b8b600081610bd957634e487b7160e01b600052603260045260246000fd5b9050602002016020810190610bee9190612f20565b8c8c610bfb60018261323d565b818110610c1857634e487b7160e01b600052603260045260246000fd5b9050602002016020810190610c2d9190612f20565b8a8a611edc565b6107c133898f8760018951610c49919061323d565b81518110610c6757634e487b7160e01b600052603260045260246000fd5b60200260200101518b8b612026565b60608142811015610cc95760405162461bcd60e51b815260206004820152601160248201527f547261646520686173206578706972656400000000000000000000000000000060448201526064016104a1565b856001600160a01b031663456dc17a6040518163ffffffff1660e01b815260040160206040518083038186803b158015610d0257600080fd5b505afa158015610d16573d6000803e3d6000fd5b505050506040513d601f19601f82011682018060405250810190610d3a9190612f43565b6001600160a01b031688886000818110610d6457634e487b7160e01b600052603260045260246000fd5b9050602002016020810190610d799190612f20565b6001600160a01b0316148015610e4e5750856001600160a01b031663a1ad54e66040518163ffffffff1660e01b815260040160206040518083038186803b158015610dc357600080fd5b505afa158015610dd7573d6000803e3d6000fd5b505050506040513d601f19601f82011682018060405250810190610dfb9190612f43565b6001600160a01b03168888610e1160018261323d565b818110610e2e57634e487b7160e01b600052603260045260246000fd5b9050602002016020810190610e439190612f20565b6001600160a01b0316145b610ec05760405162461bcd60e51b815260206004820152602160248201527f5061746820646f6573206e6f74206d617463682069736f6c617465642070616960448201527f720000000000000000000000000000000000000000000000000000000000000060648201526084016104a1565b6060610f12610ece8d61215e565b610ed8908e6131e6565b8b8b8b8080602002602001604051908101604052809392919081815260200183836020028082843760009201919091525061216e92505050565b9093509050610f95338a8a600081610f3a57634e487b7160e01b600052603260045260246000fd5b9050602002016020810190610f4f9190612f20565b8b8b610f5c60018261323d565b818110610f7957634e487b7160e01b600052603260045260246000fd5b9050602002016020810190610f8e9190612f20565b8989611edc565b610fcb338885600081518110610fbb57634e487b7160e01b600052603260045260246000fd5b60200260200101518f8a8a612026565b610fd8838c838c8c6124e6565b6040516001600160a01b038816815233907f01b7c8da263f90a3f5f5886fdd0247d721a0e86b0a4b86f43720f07e975b7def9060200160405180910390a2337fbc4fb982d00f64d415349ea58464559e60570835f500eb69f74311d8d18d8d1d8a8a60008161105757634e487b7160e01b600052603260045260246000fd5b905060200201602081019061106c9190612f20565b8b8b61107960018261323d565b81811061109657634e487b7160e01b600052603260045260246000fd5b90506020020160208101906110ab9190612f20565b866000815181106110cc57634e487b7160e01b600052603260045260246000fd5b602002602001015187600189516110e3919061323d565b8151811061110157634e487b7160e01b600052603260045260246000fd5b602002602001015160405161113d94939291906001600160a01b0394851681529290931660208301526040820152606081019190915260800190565b60405180910390a250509998505050505050505050565b6040517f93552a3d000000000000000000000000000000000000000000000000000000008152600481018390526001600160a01b0382811660248301527f000000000000000000000000000000000000000000000000000000000000000016906393552a3d9060440160206040518083038186803b1580156111d557600080fd5b505afa1580156111e9573d6000803e3d6000fd5b505050506040513d601f19601f8201168201806040525081019061120d9190612f8a565b6001600160a01b039190911660009081526001602090815260408083209483529390529190912080547fffffffffffffffffffffffffffffffffffffffffffffffffffffffffffffff0016911515919091179055565b606081428110156112b65760405162461bcd60e51b815260206004820152601160248201527f547261646520686173206578706972656400000000000000000000000000000060448201526064016104a1565b856001600160a01b031663456dc17a6040518163ffffffff1660e01b815260040160206040518083038186803b1580156112ef57600080fd5b505afa158015611303573d6000803e3d6000fd5b505050506040513d601f19601f820116820180604052508101906113279190612f43565b6001600160a01b0316888861133d60018261323d565b81811061135a57634e487b7160e01b600052603260045260246000fd5b905060200201602081019061136f9190612f20565b6001600160a01b031614801561143b5750856001600160a01b031663a1ad54e66040518163ffffffff1660e01b815260040160206040518083038186803b1580156113b957600080fd5b505afa1580156113cd573d6000803e3d6000fd5b505050506040513d601f19601f820116820180604052508101906113f19190612f43565b6001600160a01b03168888600081811061141b57634e487b7160e01b600052603260045260246000fd5b90506020020160208101906114309190612f20565b6001600160a01b0316145b6114ad5760405162461bcd60e51b815260206004820152602160248201527f5061746820646f6573206e6f74206d617463682069736f6c617465642070616960448201527f720000000000000000000000000000000000000000000000000000000000000060648201526084016104a1565b60606114bb610ece8d61215e565b80925081945050506114f93388856000815181106114e957634e487b7160e01b600052603260045260246000fd5b60200260200101518f8a8a6118f9565b610fcb338a8a600081811061151e57634e487b7160e01b600052603260045260246000fd5b90506020020160208101906115339190612f20565b8b8b61154060018261323d565b81811061155d57634e487b7160e01b600052603260045260246000fd5b90506020020160208101906115729190612f20565b8989611b1e565b6000611588600a6127106131e6565b61159383600a61321e565b61159d91906131fe565b92915050565b6060806002835110156115f85760405162461bcd60e51b815260206004820152601460248201527f746f6b656e207061746820746f6f2073686f727400000000000000000000000060448201526064016104a1565b825167ffffffffffffffff81111561162057634e487b7160e01b600052604160045260246000fd5b604051908082528060200260200182016040528015611649578160200160208202803683370190505b509150848260008151811061166e57634e487b7160e01b600052603260045260246000fd5b60200260200101818152505060018351611688919061323d565b67ffffffffffffffff8111156116ae57634e487b7160e01b600052604160045260246000fd5b6040519080825280602002602001820160405280156116d7578160200160208202803683370190505b50905060005b600184516116eb919061323d565b8110156118f057600084828151811061171457634e487b7160e01b600052603260045260246000fd5b6020026020010151905060008583600161172e91906131e6565b8151811061174c57634e487b7160e01b600052603260045260246000fd5b60200260200101519050600087846020811061177857634e487b7160e01b600052603260045260246000fd5b1a60f81b7fff000000000000000000000000000000000000000000000000000000000000001615611811578784602081106117c357634e487b7160e01b600052603260045260246000fd5b1a60f81b7effffffffffffffffffffffffffffffffffffffffffffffffffffffffffffff1916600160f81b14611802576117fd8383612583565b61180c565b61180c8383612697565b61181b565b61181b838361276c565b90508085858151811061183e57634e487b7160e01b600052603260045260246000fd5b60200260200101906001600160a01b031690816001600160a01b03168152505060008061186c838686612841565b915091506118a288878151811061189357634e487b7160e01b600052603260045260246000fd5b6020026020010151838361291e565b886118ae8860016131e6565b815181106118cc57634e487b7160e01b600052603260045260246000fd5b602002602001018181525050505050505080806118e89061326b565b9150506116dd565b50935093915050565b6000611905828561323d565b90506001600160a01b03861663c5f1d5c28883611922878a61323d565b6040517fffffffff0000000000000000000000000000000000000000000000000000000060e086901b1681526001600160a01b03909316600484015260248301919091526044820152606401600060405180830381600087803b15801561198857600080fd5b505af115801561199c573d6000803e3d6000fd5b50506066600090815260205250507f422cccb7cea5c0e46f340bb7b21b81debac329f72e31669c20ff0f3a05cc2b5b546040517f2a6a897b0000000000000000000000000000000000000000000000000000000081526001600160a01b0388811660048301526024820184905290911690632a6a897b906044015b600060405180830381600087803b158015611a3157600080fd5b505af1158015611a45573d6000803e3d6000fd5b50506066600090815260205250507f422cccb7cea5c0e46f340bb7b21b81debac329f72e31669c20ff0f3a05cc2b5b546001600160a01b03166040517fdc683bcf0000000000000000000000000000000000000000000000000000000081526001600160a01b038881166004830152919091169063dc683bcf90602401602060405180830381600087803b158015611adc57600080fd5b505af1158015611af0573d6000803e3d6000fd5b505050506040513d601f19601f82011682018060405250810190611b149190613010565b5050505050505050565b8115611bdf57606560009081526020527f4a7203f705e51df4a56139a9b86b4a0970bed7ab7a3446eaffe2289989c1645c546001600160a01b03166040517fd9caed120000000000000000000000000000000000000000000000000000000081526001600160a01b038681166004830152878116602483015260448201859052919091169063d9caed1290606401600060405180830381600087803b158015611bc657600080fd5b505af1158015611bda573d6000803e3d6000fd5b505050505b8015611c9757606560009081526020527f4a7203f705e51df4a56139a9b86b4a0970bed7ab7a3446eaffe2289989c1645c546040517fd9caed120000000000000000000000000000000000000000000000000000000081526001600160a01b0385811660048301528781166024830152604482018490529091169063d9caed12906064015b600060405180830381600087803b158015611c7e57600080fd5b505af1158015611c92573d6000803e3d6000fd5b505050505b5050505050565b838560018751611cae919061323d565b81518110611ccc57634e487b7160e01b600052603260045260246000fd5b60200260200101511015611d485760405162461bcd60e51b815260206004820152602860248201527f4d617267696e526f757465723a20494e53554646494349454e545f4f5554505560448201527f545f414d4f554e5400000000000000000000000000000000000000000000000060648201526084016104a1565b606560009081526020527f4a7203f705e51df4a56139a9b86b4a0970bed7ab7a3446eaffe2289989c1645c546001600160a01b03166001600160a01b031663d9caed1283836000818110611dac57634e487b7160e01b600052603260045260246000fd5b9050602002016020810190611dc19190612f20565b85600081518110611de257634e487b7160e01b600052603260045260246000fd5b602002602001015188600081518110611e0b57634e487b7160e01b600052603260045260246000fd5b60209081029190910101516040517fffffffff0000000000000000000000000000000000000000000000000000000060e086901b1681526001600160a01b0393841660048201529290911660248301526044820152606401600060405180830381600087803b158015611e7d57600080fd5b505af1158015611e91573d6000803e3d6000fd5b50505050611c978584848480806020026020016040519081016040528093929190818152602001838360200280828437600092019190915250611ed79250612a5d915050565b612a95565b8115611f9d57606560009081526020527f4a7203f705e51df4a56139a9b86b4a0970bed7ab7a3446eaffe2289989c1645c546001600160a01b03166040517fb3db428b0000000000000000000000000000000000000000000000000000000081526001600160a01b038781166004830152868116602483015260448201859052919091169063b3db428b90606401600060405180830381600087803b158015611f8457600080fd5b505af1158015611f98573d6000803e3d6000fd5b505050505b8015611c9757606560009081526020527f4a7203f705e51df4a56139a9b86b4a0970bed7ab7a3446eaffe2289989c1645c546040517fb3db428b0000000000000000000000000000000000000000000000000000000081526001600160a01b0387811660048301528581166024830152604482018490529091169063b3db428b90606401611c64565b6000612032838661323d565b90506001600160a01b038616638b2db569888361204f86896131e6565b600088118061205e5750600087115b6040517fffffffff0000000000000000000000000000000000000000000000000000000060e087901b1681526001600160a01b0390941660048501526024840192909252604483015215156064820152608401600060405180830381600087803b1580156120cb57600080fd5b505af11580156120df573d6000803e3d6000fd5b50506066600090815260205250507f422cccb7cea5c0e46f340bb7b21b81debac329f72e31669c20ff0f3a05cc2b5b546040517fee0862bf0000000000000000000000000000000000000000000000000000000081526001600160a01b038881166004830152602482018490529091169063ee0862bf90604401611a17565b600061271061159383600a61321e565b6060806002835110156121c35760405162461bcd60e51b815260206004820152601460248201527f746f6b656e207061746820746f6f2073686f727400000000000000000000000060448201526064016104a1565b825167ffffffffffffffff8111156121eb57634e487b7160e01b600052604160045260246000fd5b604051908082528060200260200182016040528015612214578160200160208202803683370190505b509150848260018451612227919061323d565b8151811061224557634e487b7160e01b600052603260045260246000fd5b6020026020010181815250506001835161225f919061323d565b67ffffffffffffffff81111561228557634e487b7160e01b600052604160045260246000fd5b6040519080825280602002602001820160405280156122ae578160200160208202803683370190505b5090506000600184516122c1919061323d565b90505b80156118f0576000846122d860018461323d565b815181106122f657634e487b7160e01b600052603260045260246000fd5b60200260200101519050600085838151811061232257634e487b7160e01b600052603260045260246000fd5b6020026020010151905060008760018561233c919061323d565b6020811061235a57634e487b7160e01b600052603260045260246000fd5b1a60f81b7fff0000000000000000000000000000000000000000000000000000000000000016156123fd578761239160018661323d565b602081106123af57634e487b7160e01b600052603260045260246000fd5b1a60f81b7effffffffffffffffffffffffffffffffffffffffffffffffffffffffffffff1916600160f81b146123ee576123e98383612583565b6123f8565b6123f88383612697565b612407565b612407838361276c565b9050808561241660018761323d565b8151811061243457634e487b7160e01b600052603260045260246000fd5b60200260200101906001600160a01b031690816001600160a01b031681525050600080612462838686612841565b9150915061249888878151811061248957634e487b7160e01b600052603260045260246000fd5b60200260200101518383612cc3565b886124a460018961323d565b815181106124c257634e487b7160e01b600052603260045260246000fd5b602002602001018181525050505050505080806124de90613254565b9150506122c4565b838560008151811061250857634e487b7160e01b600052603260045260246000fd5b60200260200101511115611d485760405162461bcd60e51b8152602060048201526024808201527f4d617267696e526f757465723a204558434553534956455f494e5055545f414d60448201527f4f554e540000000000000000000000000000000000000000000000000000000060648201526084016104a1565b60008060006125928585612e08565b6040516bffffffffffffffffffffffff19606084811b8216602084015283901b16603482015291935091507f00000000000000000000000000000000000000000000000000000000000000009060480160405160208183030381529060405280519060200120600454604051602001612658939291907fff00000000000000000000000000000000000000000000000000000000000000815260609390931b6bffffffffffffffffffffffff191660018401526015830191909152603582015260550190565b604080517fffffffffffffffffffffffffffffffffffffffffffffffffffffffffffffffe0818403018152919052805160209091012095945050505050565b60008060006126a68585612e08565b6040516bffffffffffffffffffffffff19606084811b8216602084015283901b16603482015291935091507f00000000000000000000000000000000000000000000000000000000000000009060480160405160208183030381529060405280519060200120600354604051602001612658939291907fff00000000000000000000000000000000000000000000000000000000000000815260609390931b6bffffffffffffffffffffffff191660018401526015830191909152603582015260550190565b600080600061277b8585612e08565b6040516bffffffffffffffffffffffff19606084811b8216602084015283901b16603482015291935091507f00000000000000000000000000000000000000000000000000000000000000009060480160405160208183030381529060405280519060200120600254604051602001612658939291907fff00000000000000000000000000000000000000000000000000000000000000815260609390931b6bffffffffffffffffffffffff191660018401526015830191909152603582015260550190565b60008060006128508585612e08565b509050600080876001600160a01b0316630902f1ac6040518163ffffffff1660e01b815260040160606040518083038186803b15801561288f57600080fd5b505afa1580156128a3573d6000803e3d6000fd5b505050506040513d601f19601f820116820180604052508101906128c79190612faa565b506dffffffffffffffffffffffffffff1691506dffffffffffffffffffffffffffff169150826001600160a01b0316876001600160a01b03161461290c57808261290f565b81815b90999098509650505050505050565b600080841161296f5760405162461bcd60e51b815260206004820152601960248201527f494e53554646494349454e545f494e5055545f414d4f554e540000000000000060448201526064016104a1565b60008311801561297f5750600082115b6129f15760405162461bcd60e51b815260206004820152602860248201527f556e697377617056324c6962726172793a20494e53554646494349454e545f4c60448201527f495155494449545900000000000000000000000000000000000000000000000060648201526084016104a1565b6000612a1d7f00000000000000000000000000000000000000000000000000000000000000008661321e565b90506000612a2b848361321e565b9050600082612a3c876103e861321e565b612a4691906131e6565b9050612a5281836131fe565b979650505050505050565b606560009081526020527f4a7203f705e51df4a56139a9b86b4a0970bed7ab7a3446eaffe2289989c1645c546001600160a01b031690565b60005b8351811015611c9757600080848381518110612ac457634e487b7160e01b600052603260045260246000fd5b602002602001015185846001612ada91906131e6565b81518110612af857634e487b7160e01b600052603260045260246000fd5b6020026020010151915091506000612b108383612e08565b509050600088612b218660016131e6565b81518110612b3f57634e487b7160e01b600052603260045260246000fd5b60200260200101519050600080836001600160a01b0316866001600160a01b031614612b6d57826000612b71565b6000835b91509150600060018b51612b85919061323d565b8810612b915788612bc4565b8a612b9d8960016131e6565b81518110612bbb57634e487b7160e01b600052603260045260246000fd5b60200260200101515b905060008b8981518110612be857634e487b7160e01b600052603260045260246000fd5b60200260200101519050806001600160a01b031663022c0d9f858585600067ffffffffffffffff811115612c2c57634e487b7160e01b600052604160045260246000fd5b6040519080825280601f01601f191660200182016040528015612c56576020820181803683370190505b506040518563ffffffff1660e01b8152600401612c769493929190613156565b600060405180830381600087803b158015612c9057600080fd5b505af1158015612ca4573d6000803e3d6000fd5b5050505050505050505050508080612cbb9061326b565b915050612a98565b6000808411612d145760405162461bcd60e51b815260206004820152601a60248201527f494e53554646494349454e545f4f55545055545f414d4f554e5400000000000060448201526064016104a1565b600083118015612d245750600082115b612d965760405162461bcd60e51b815260206004820152602860248201527f556e697377617056324c6962726172793a20494e53554646494349454e545f4c60448201527f495155494449545900000000000000000000000000000000000000000000000060648201526084016104a1565b6000612da2858561321e565b612dae906103e861321e565b905060007f0000000000000000000000000000000000000000000000000000000000000000612ddd878661323d565b612de7919061321e565b9050612df381836131fe565b612dfe9060016131e6565b9695505050505050565b600080826001600160a01b0316846001600160a01b03161415612e6d5760405162461bcd60e51b815260206004820152601260248201527f4964656e746963616c206164647265737321000000000000000000000000000060448201526064016104a1565b826001600160a01b0316846001600160a01b031610612e8d578284612e90565b83835b90925090506001600160a01b038216612eeb5760405162461bcd60e51b815260206004820152600d60248201527f5a65726f2061646472657373210000000000000000000000000000000000000060448201526064016104a1565b9250929050565b8035612efd8161329c565b919050565b80516dffffffffffffffffffffffffffff81168114612efd57600080fd5b600060208284031215612f31578081fd5b8135612f3c8161329c565b9392505050565b600060208284031215612f54578081fd5b8151612f3c8161329c565b60008060408385031215612f71578081fd5b8235612f7c8161329c565b946020939093013593505050565b600060208284031215612f9b578081fd5b81518015158114612f3c578182fd5b600080600060608486031215612fbe578081fd5b612fc784612f02565b9250612fd560208501612f02565b9150604084015163ffffffff81168114612fed578182fd5b809150509250925092565b600060208284031215613009578081fd5b5035919050565b600060208284031215613021578081fd5b5051919050565b6000806040838503121561303a578182fd5b82359150602083013561304c8161329c565b809150509250929050565b60008060008060008060008060006101008a8c031215613075578485fd5b8935985060208a0135975060408a0135965060608a013567ffffffffffffffff808211156130a1578687fd5b818c0191508c601f8301126130b4578687fd5b8135818111156130c2578788fd5b8d60208260051b85010111156130d6578788fd5b6020830198508097505050506130ee60808b01612ef2565b935060a08a0135925060c08a0135915060e08a013590509295985092959850929598565b6020808252825182820181905260009190848201906040850190845b8181101561314a5783518352928401929184019160010161312e565b50909695505050505050565b6000858252602085818401526001600160a01b0385166040840152608060608401528351806080850152825b8181101561319e5785810183015185820160a001528201613182565b818111156131af578360a083870101525b50601f017fffffffffffffffffffffffffffffffffffffffffffffffffffffffffffffffe0169290920160a0019695505050505050565b600082198211156131f9576131f9613286565b500190565b60008261321957634e487b7160e01b81526012600452602481fd5b500490565b600081600019048311821515161561323857613238613286565b500290565b60008282101561324f5761324f613286565b500390565b60008161326357613263613286565b506000190190565b600060001982141561327f5761327f613286565b5060010190565b634e487b7160e01b600052601160045260246000fd5b6001600160a01b03811681146132b157600080fd5b5056fea264697066735822122068bec52a51f87dc0ba8b2a2483a3ffdbbb6d93ef139eca9aeaa9a713fa698d4564736f6c63430008030033",
  "linkReferences": {},
  "deployedLinkReferences": {}
}