{
  "_format": "hh-sol-artifact-1",
  "contractName": "IsolatedMarginRouter",
  "sourceName": "contracts/isolated/IsolatedMarginRouter.sol",
  "abi": [
    {
      "inputs": [
        {
          "internalType": "address",
          "name": "_WETH",
          "type": "address"
        },
        {
          "internalType": "address",
          "name": "_amm1Factory",
          "type": "address"
        },
        {
          "internalType": "address",
          "name": "_amm2Factory",
          "type": "address"
        },
        {
          "internalType": "address",
          "name": "_amm3Factory",
          "type": "address"
        },
        {
          "internalType": "bytes32",
          "name": "_amm1InitHash",
          "type": "bytes32"
        },
        {
          "internalType": "bytes32",
          "name": "_amm2InitHash",
          "type": "bytes32"
        },
        {
          "internalType": "bytes32",
          "name": "_amm3InitHash",
          "type": "bytes32"
        },
        {
          "internalType": "address",
          "name": "_roles",
          "type": "address"
        }
      ],
      "stateMutability": "nonpayable",
      "type": "constructor"
    },
    {
      "anonymous": false,
      "inputs": [
        {
          "indexed": true,
          "internalType": "address",
          "name": "trader",
          "type": "address"
        },
        {
          "indexed": false,
          "internalType": "address",
          "name": "isolatedPair",
          "type": "address"
        }
      ],
      "name": "IsolatedAccountUpdated",
      "type": "event"
    },
    {
      "anonymous": false,
      "inputs": [
        {
          "indexed": true,
          "internalType": "address",
          "name": "trader",
          "type": "address"
        },
        {
          "indexed": false,
          "internalType": "address",
          "name": "fromToken",
          "type": "address"
        },
        {
          "indexed": false,
          "internalType": "address",
          "name": "toToken",
          "type": "address"
        },
        {
          "indexed": false,
          "internalType": "uint256",
          "name": "fromAmount",
          "type": "uint256"
        },
        {
          "indexed": false,
          "internalType": "uint256",
          "name": "toAmount",
          "type": "uint256"
        }
      ],
      "name": "IsolatedMarginTrade",
      "type": "event"
    },
    {
      "inputs": [],
      "name": "WETH",
      "outputs": [
        {
          "internalType": "address",
          "name": "",
          "type": "address"
        }
      ],
      "stateMutability": "view",
      "type": "function"
    },
    {
      "inputs": [],
      "name": "amm1Factory",
      "outputs": [
        {
          "internalType": "address",
          "name": "",
          "type": "address"
        }
      ],
      "stateMutability": "view",
      "type": "function"
    },
    {
      "inputs": [],
      "name": "amm1InitHash",
      "outputs": [
        {
          "internalType": "bytes32",
          "name": "",
          "type": "bytes32"
        }
      ],
      "stateMutability": "view",
      "type": "function"
    },
    {
      "inputs": [],
      "name": "amm2Factory",
      "outputs": [
        {
          "internalType": "address",
          "name": "",
          "type": "address"
        }
      ],
      "stateMutability": "view",
      "type": "function"
    },
    {
      "inputs": [],
      "name": "amm2InitHash",
      "outputs": [
        {
          "internalType": "bytes32",
          "name": "",
          "type": "bytes32"
        }
      ],
      "stateMutability": "view",
      "type": "function"
    },
    {
      "inputs": [],
      "name": "amm3Factory",
      "outputs": [
        {
          "internalType": "address",
          "name": "",
          "type": "address"
        }
      ],
      "stateMutability": "view",
      "type": "function"
    },
    {
      "inputs": [],
      "name": "amm3InitHash",
      "outputs": [
        {
          "internalType": "bytes32",
          "name": "",
          "type": "bytes32"
        }
      ],
      "stateMutability": "view",
      "type": "function"
    },
    {
      "inputs": [
        {
          "internalType": "uint256",
          "name": "",
          "type": "uint256"
        }
      ],
      "name": "mainCharacterCache",
      "outputs": [
        {
          "internalType": "address",
          "name": "",
          "type": "address"
        }
      ],
      "stateMutability": "view",
      "type": "function"
    },
    {
      "inputs": [],
      "name": "mswapFeesPer10k",
      "outputs": [
        {
          "internalType": "uint256",
          "name": "",
          "type": "uint256"
        }
      ],
      "stateMutability": "view",
      "type": "function"
    },
    {
      "inputs": [
        {
          "internalType": "address",
          "name": "",
          "type": "address"
        },
        {
          "internalType": "uint256",
          "name": "",
          "type": "uint256"
        }
      ],
      "name": "roleCache",
      "outputs": [
        {
          "internalType": "bool",
          "name": "",
          "type": "bool"
        }
      ],
      "stateMutability": "view",
      "type": "function"
    },
    {
      "inputs": [],
      "name": "roles",
      "outputs": [
        {
          "internalType": "contract Roles",
          "name": "",
          "type": "address"
        }
      ],
      "stateMutability": "view",
      "type": "function"
    },
    {
      "inputs": [
        {
          "internalType": "uint256",
          "name": "amountIn",
          "type": "uint256"
        },
        {
          "internalType": "uint256",
          "name": "amountOutMin",
          "type": "uint256"
        },
        {
          "internalType": "bytes32",
          "name": "amms",
          "type": "bytes32"
        },
        {
          "internalType": "address[]",
          "name": "tokens",
          "type": "address[]"
        },
        {
          "internalType": "address",
          "name": "_isolatedPair",
          "type": "address"
        },
        {
          "internalType": "uint256",
          "name": "depositFrom",
          "type": "uint256"
        },
        {
          "internalType": "uint256",
          "name": "depositTo",
          "type": "uint256"
        },
        {
          "internalType": "uint256",
          "name": "deadline",
          "type": "uint256"
        }
      ],
      "name": "swapExactTokensForTokensPosition",
      "outputs": [
        {
          "internalType": "uint256[]",
          "name": "amounts",
          "type": "uint256[]"
        }
      ],
      "stateMutability": "nonpayable",
      "type": "function"
    },
    {
      "inputs": [
        {
          "internalType": "uint256",
          "name": "amountIn",
          "type": "uint256"
        },
        {
          "internalType": "uint256",
          "name": "amountOutMin",
          "type": "uint256"
        },
        {
          "internalType": "bytes32",
          "name": "amms",
          "type": "bytes32"
        },
        {
          "internalType": "address[]",
          "name": "tokens",
          "type": "address[]"
        },
        {
          "internalType": "address",
          "name": "_isolatedPair",
          "type": "address"
        },
        {
          "internalType": "uint256",
          "name": "withdrawFrom",
          "type": "uint256"
        },
        {
          "internalType": "uint256",
          "name": "withdrawTo",
          "type": "uint256"
        },
        {
          "internalType": "uint256",
          "name": "deadline",
          "type": "uint256"
        }
      ],
      "name": "swapExactTokensForTokensUnwind",
      "outputs": [
        {
          "internalType": "uint256[]",
          "name": "amounts",
          "type": "uint256[]"
        }
      ],
      "stateMutability": "nonpayable",
      "type": "function"
    },
    {
      "inputs": [
        {
          "internalType": "uint256",
          "name": "amountOut",
          "type": "uint256"
        },
        {
          "internalType": "uint256",
          "name": "amountInMax",
          "type": "uint256"
        },
        {
          "internalType": "bytes32",
          "name": "amms",
          "type": "bytes32"
        },
        {
          "internalType": "address[]",
          "name": "tokens",
          "type": "address[]"
        },
        {
          "internalType": "address",
          "name": "_isolatedPair",
          "type": "address"
        },
        {
          "internalType": "uint256",
          "name": "depositFrom",
          "type": "uint256"
        },
        {
          "internalType": "uint256",
          "name": "depositTo",
          "type": "uint256"
        },
        {
          "internalType": "uint256",
          "name": "deadline",
          "type": "uint256"
        }
      ],
      "name": "swapTokensForExactTokensPosition",
      "outputs": [
        {
          "internalType": "uint256[]",
          "name": "amounts",
          "type": "uint256[]"
        }
      ],
      "stateMutability": "nonpayable",
      "type": "function"
    },
    {
      "inputs": [
        {
          "internalType": "uint256",
          "name": "amountOut",
          "type": "uint256"
        },
        {
          "internalType": "uint256",
          "name": "amountInMax",
          "type": "uint256"
        },
        {
          "internalType": "bytes32",
          "name": "amms",
          "type": "bytes32"
        },
        {
          "internalType": "address[]",
          "name": "tokens",
          "type": "address[]"
        },
        {
          "internalType": "address",
          "name": "_isolatedPair",
          "type": "address"
        },
        {
          "internalType": "uint256",
          "name": "withdrawFrom",
          "type": "uint256"
        },
        {
          "internalType": "uint256",
          "name": "withdrawTo",
          "type": "uint256"
        },
        {
          "internalType": "uint256",
          "name": "deadline",
          "type": "uint256"
        }
      ],
      "name": "swapTokensForExactTokensUnwind",
      "outputs": [
        {
          "internalType": "uint256[]",
          "name": "amounts",
          "type": "uint256[]"
        }
      ],
      "stateMutability": "nonpayable",
      "type": "function"
    },
    {
      "inputs": [
        {
          "internalType": "uint256",
          "name": "role",
          "type": "uint256"
        }
      ],
      "name": "updateMainCharacterCache",
      "outputs": [],
      "stateMutability": "nonpayable",
      "type": "function"
    },
    {
      "inputs": [
        {
          "internalType": "uint256",
          "name": "role",
          "type": "uint256"
        },
        {
          "internalType": "address",
          "name": "contr",
          "type": "address"
        }
      ],
      "name": "updateRoleCache",
      "outputs": [],
      "stateMutability": "nonpayable",
      "type": "function"
    }
  ],
  "bytecode": "0x6101206040523480156200001257600080fd5b506040516200347d3803806200347d83398101604081905262000035916200010f565b868686868686866001600160a01b038116620000a25760405162461bcd60e51b815260206004820152602260248201527f506c656173652070726f766964652076616c696420726f6c6573206164647265604482015261737360f01b606482015260840160405180910390fd5b6001600160601b0319606091821b811660805296811b871660a05294851b861660c05292841b851660e0526002919091556003556004559890981b90971661010052506200019b95505050505050565b80516001600160a01b03811681146200010a57600080fd5b919050565b600080600080600080600080610100898b0312156200012c578384fd5b6200013789620000f2565b97506200014760208a01620000f2565b96506200015760408a01620000f2565b95506200016760608a01620000f2565b94506080890151935060a0890151925060c089015191506200018c60e08a01620000f2565b90509295985092959890939650565b60805160601c60a05160601c60c05160601c60e05160601c6101005160601c61326b62000212600039600061025b0152600081816102bc015261257d015260008181610125015261269101526000818161028201526127660152600081816101c7015281816103480152611151015261326b6000f3fe608060405234801561001057600080fd5b506004361061011b5760003560e01c80637a1a04df116100b2578063cfd124af11610081578063df7c20f911610066578063df7c20f9146102de578063e2abb5c4146102e7578063e9c3f77d146102f05761011b565b8063cfd124af146102a4578063db429235146102b75761011b565b80637a1a04df1461020f578063a75208a81461024d578063ad5c464814610256578063b852eb0d1461027d5761011b565b80632c77dda0116100ee5780632c77dda0146101af578063392f5f64146101c25780633ec380da146101e9578063447d52ba146101fc5761011b565b8063059b157a14610120578063071060a6146101645780631084bd6d1461017957806328f988011461018f575b600080fd5b6101477f000000000000000000000000000000000000000000000000000000000000000081565b6040516001600160a01b0390911681526020015b60405180910390f35b610177610172366004612f79565b610319565b005b610181600a81565b60405190815260200161015b565b6101a261019d366004612fd8565b610410565b60405161015b9190613093565b6101a26101bd366004612fd8565b610909565b6101477f000000000000000000000000000000000000000000000000000000000000000081565b6101a26101f7366004612fd8565b610c34565b61017761020a366004612fa9565b611112565b61023d61021d366004612ee0565b600160209081526000928352604080842090915290825290205460ff1681565b604051901515815260200161015b565b61018160025481565b6101477f000000000000000000000000000000000000000000000000000000000000000081565b6101477f000000000000000000000000000000000000000000000000000000000000000081565b6101a26102b2366004612fd8565b611221565b6101477f000000000000000000000000000000000000000000000000000000000000000081565b61018160035481565b61018160045481565b6101476102fe366004612f79565b6000602081905290815260409020546001600160a01b031681565b6040517fb4ed0b6d000000000000000000000000000000000000000000000000000000008152600481018290527f00000000000000000000000000000000000000000000000000000000000000006001600160a01b03169063b4ed0b6d9060240160206040518083038186803b15801561039257600080fd5b505afa1580156103a6573d6000803e3d6000fd5b505050506040513d601f19601f820116820180604052508101906103ca9190612ec4565b60009182526020829052604090912080547fffffffffffffffffffffffff0000000000000000000000000000000000000000166001600160a01b03909216919091179055565b606081428110156104685760405162461bcd60e51b815260206004820152601160248201527f547261646520686173206578706972656400000000000000000000000000000060448201526064015b60405180910390fd5b856001600160a01b031663456dc17a6040518163ffffffff1660e01b815260040160206040518083038186803b1580156104a157600080fd5b505afa1580156104b5573d6000803e3d6000fd5b505050506040513d601f19601f820116820180604052508101906104d99190612ec4565b6001600160a01b031688886104ef6001826131be565b81811061050c57634e487b7160e01b600052603260045260246000fd5b90506020020160208101906105219190612ea1565b6001600160a01b03161480156105ed5750856001600160a01b031663a1ad54e66040518163ffffffff1660e01b815260040160206040518083038186803b15801561056b57600080fd5b505afa15801561057f573d6000803e3d6000fd5b505050506040513d601f19601f820116820180604052508101906105a39190612ec4565b6001600160a01b0316888860008181106105cd57634e487b7160e01b600052603260045260246000fd5b90506020020160208101906105e29190612ea1565b6001600160a01b0316145b61065f5760405162461bcd60e51b815260206004820152602160248201527f5061746820646f6573206e6f74206d617463682069736f6c617465642070616960448201527f7200000000000000000000000000000000000000000000000000000000000000606482015260840161045f565b600061066a8c611537565b905060606106b561067b838f6131be565b8c8c8c8080602002602001604051908101604052809392919081815260200183836020028082843760009201919091525061156192505050565b80925081955050506106ff33898f87600189516106d291906131be565b815181106106f057634e487b7160e01b600052603260045260246000fd5b60200260200101518b8b6118b7565b61077f338b8b600081811061072457634e487b7160e01b600052603260045260246000fd5b90506020020160208101906107399190612ea1565b8c8c6107466001826131be565b81811061076357634e487b7160e01b600052603260045260246000fd5b90506020020160208101906107789190612ea1565b8a8a611adc565b61078c848d838d8d611c5c565b6040516001600160a01b038916815233907f01b7c8da263f90a3f5f5886fdd0247d721a0e86b0a4b86f43720f07e975b7def9060200160405180910390a2337fbc4fb982d00f64d415349ea58464559e60570835f500eb69f74311d8d18d8d1d8b8b60008161080b57634e487b7160e01b600052603260045260246000fd5b90506020020160208101906108209190612ea1565b8c8c61082d6001826131be565b81811061084a57634e487b7160e01b600052603260045260246000fd5b905060200201602081019061085f9190612ea1565b8760008151811061088057634e487b7160e01b600052603260045260246000fd5b60200260200101518860018a5161089791906131be565b815181106108b557634e487b7160e01b600052603260045260246000fd5b60200260200101516040516108f194939291906001600160a01b0394851681529290931660208301526040820152606081019190915260800190565b60405180910390a25050509998505050505050505050565b6060814281101561095c5760405162461bcd60e51b815260206004820152601160248201527f5472616465206861732065787069726564000000000000000000000000000000604482015260640161045f565b856001600160a01b031663456dc17a6040518163ffffffff1660e01b815260040160206040518083038186803b15801561099557600080fd5b505afa1580156109a9573d6000803e3d6000fd5b505050506040513d601f19601f820116820180604052508101906109cd9190612ec4565b6001600160a01b0316888860008181106109f757634e487b7160e01b600052603260045260246000fd5b9050602002016020810190610a0c9190612ea1565b6001600160a01b0316148015610ae15750856001600160a01b031663a1ad54e66040518163ffffffff1660e01b815260040160206040518083038186803b158015610a5657600080fd5b505afa158015610a6a573d6000803e3d6000fd5b505050506040513d601f19601f82011682018060405250810190610a8e9190612ec4565b6001600160a01b03168888610aa46001826131be565b818110610ac157634e487b7160e01b600052603260045260246000fd5b9050602002016020810190610ad69190612ea1565b6001600160a01b0316145b610b535760405162461bcd60e51b815260206004820152602160248201527f5061746820646f6573206e6f74206d617463682069736f6c617465642070616960448201527f7200000000000000000000000000000000000000000000000000000000000000606482015260840161045f565b6000610b5e8c611537565b90506060610b6f61067b838f6131be565b9094509050610bf2338b8b600081610b9757634e487b7160e01b600052603260045260246000fd5b9050602002016020810190610bac9190612ea1565b8c8c610bb96001826131be565b818110610bd657634e487b7160e01b600052603260045260246000fd5b9050602002016020810190610beb9190612ea1565b8a8a611e9a565b61077f33898f8760018951610c0791906131be565b81518110610c2557634e487b7160e01b600052603260045260246000fd5b60200260200101518b8b611fe4565b60608142811015610c875760405162461bcd60e51b815260206004820152601160248201527f5472616465206861732065787069726564000000000000000000000000000000604482015260640161045f565b856001600160a01b031663456dc17a6040518163ffffffff1660e01b815260040160206040518083038186803b158015610cc057600080fd5b505afa158015610cd4573d6000803e3d6000fd5b505050506040513d601f19601f82011682018060405250810190610cf89190612ec4565b6001600160a01b031688886000818110610d2257634e487b7160e01b600052603260045260246000fd5b9050602002016020810190610d379190612ea1565b6001600160a01b0316148015610e0c5750856001600160a01b031663a1ad54e66040518163ffffffff1660e01b815260040160206040518083038186803b158015610d8157600080fd5b505afa158015610d95573d6000803e3d6000fd5b505050506040513d601f19601f82011682018060405250810190610db99190612ec4565b6001600160a01b03168888610dcf6001826131be565b818110610dec57634e487b7160e01b600052603260045260246000fd5b9050602002016020810190610e019190612ea1565b6001600160a01b0316145b610e7e5760405162461bcd60e51b815260206004820152602160248201527f5061746820646f6573206e6f74206d617463682069736f6c617465642070616960448201527f7200000000000000000000000000000000000000000000000000000000000000606482015260840161045f565b6060610ed0610e8c8d61211c565b610e96908e613167565b8b8b8b8080602002602001604051908101604052809392919081815260200183836020028082843760009201919091525061212c92505050565b9093509050610f53338a8a600081610ef857634e487b7160e01b600052603260045260246000fd5b9050602002016020810190610f0d9190612ea1565b8b8b610f1a6001826131be565b818110610f3757634e487b7160e01b600052603260045260246000fd5b9050602002016020810190610f4c9190612ea1565b8989611e9a565b610f89338885600081518110610f7957634e487b7160e01b600052603260045260246000fd5b60200260200101518f8a8a611fe4565b610f96838c838c8c6124a4565b6040516001600160a01b038816815233907f01b7c8da263f90a3f5f5886fdd0247d721a0e86b0a4b86f43720f07e975b7def9060200160405180910390a2337fbc4fb982d00f64d415349ea58464559e60570835f500eb69f74311d8d18d8d1d8a8a60008161101557634e487b7160e01b600052603260045260246000fd5b905060200201602081019061102a9190612ea1565b8b8b6110376001826131be565b81811061105457634e487b7160e01b600052603260045260246000fd5b90506020020160208101906110699190612ea1565b8660008151811061108a57634e487b7160e01b600052603260045260246000fd5b602002602001015187600189516110a191906131be565b815181106110bf57634e487b7160e01b600052603260045260246000fd5b60200260200101516040516110fb94939291906001600160a01b0394851681529290931660208301526040820152606081019190915260800190565b60405180910390a250509998505050505050505050565b6040517f93552a3d000000000000000000000000000000000000000000000000000000008152600481018390526001600160a01b0382811660248301527f000000000000000000000000000000000000000000000000000000000000000016906393552a3d9060440160206040518083038186803b15801561119357600080fd5b505afa1580156111a7573d6000803e3d6000fd5b505050506040513d601f19601f820116820180604052508101906111cb9190612f0b565b6001600160a01b039190911660009081526001602090815260408083209483529390529190912080547fffffffffffffffffffffffffffffffffffffffffffffffffffffffffffffff0016911515919091179055565b606081428110156112745760405162461bcd60e51b815260206004820152601160248201527f5472616465206861732065787069726564000000000000000000000000000000604482015260640161045f565b856001600160a01b031663456dc17a6040518163ffffffff1660e01b815260040160206040518083038186803b1580156112ad57600080fd5b505afa1580156112c1573d6000803e3d6000fd5b505050506040513d601f19601f820116820180604052508101906112e59190612ec4565b6001600160a01b031688886112fb6001826131be565b81811061131857634e487b7160e01b600052603260045260246000fd5b905060200201602081019061132d9190612ea1565b6001600160a01b03161480156113f95750856001600160a01b031663a1ad54e66040518163ffffffff1660e01b815260040160206040518083038186803b15801561137757600080fd5b505afa15801561138b573d6000803e3d6000fd5b505050506040513d601f19601f820116820180604052508101906113af9190612ec4565b6001600160a01b0316888860008181106113d957634e487b7160e01b600052603260045260246000fd5b90506020020160208101906113ee9190612ea1565b6001600160a01b0316145b61146b5760405162461bcd60e51b815260206004820152602160248201527f5061746820646f6573206e6f74206d617463682069736f6c617465642070616960448201527f7200000000000000000000000000000000000000000000000000000000000000606482015260840161045f565b6060611479610e8c8d61211c565b80925081945050506114b73388856000815181106114a757634e487b7160e01b600052603260045260246000fd5b60200260200101518f8a8a6118b7565b610f89338a8a60008181106114dc57634e487b7160e01b600052603260045260246000fd5b90506020020160208101906114f19190612ea1565b8b8b6114fe6001826131be565b81811061151b57634e487b7160e01b600052603260045260246000fd5b90506020020160208101906115309190612ea1565b8989611adc565b6000611546600a612710613167565b61155183600a61319f565b61155b919061317f565b92915050565b6060806002835110156115b65760405162461bcd60e51b815260206004820152601460248201527f746f6b656e207061746820746f6f2073686f7274000000000000000000000000604482015260640161045f565b825167ffffffffffffffff8111156115de57634e487b7160e01b600052604160045260246000fd5b604051908082528060200260200182016040528015611607578160200160208202803683370190505b509150848260008151811061162c57634e487b7160e01b600052603260045260246000fd5b6020026020010181815250506001835161164691906131be565b67ffffffffffffffff81111561166c57634e487b7160e01b600052604160045260246000fd5b604051908082528060200260200182016040528015611695578160200160208202803683370190505b50905060005b600184516116a991906131be565b8110156118ae5760008482815181106116d257634e487b7160e01b600052603260045260246000fd5b602002602001015190506000858360016116ec9190613167565b8151811061170a57634e487b7160e01b600052603260045260246000fd5b60200260200101519050600087846020811061173657634e487b7160e01b600052603260045260246000fd5b1a60f81b7fff0000000000000000000000000000000000000000000000000000000000000016156117cf5787846020811061178157634e487b7160e01b600052603260045260246000fd5b1a60f81b7effffffffffffffffffffffffffffffffffffffffffffffffffffffffffffff1916600160f81b146117c0576117bb8383612541565b6117ca565b6117ca8383612655565b6117d9565b6117d9838361272a565b9050808585815181106117fc57634e487b7160e01b600052603260045260246000fd5b60200260200101906001600160a01b031690816001600160a01b03168152505060008061182a8386866127ff565b9150915061186088878151811061185157634e487b7160e01b600052603260045260246000fd5b602002602001015183836128dc565b8861186c886001613167565b8151811061188a57634e487b7160e01b600052603260045260246000fd5b602002602001018181525050505050505080806118a6906131ec565b91505061169b565b50935093915050565b60006118c382856131be565b90506001600160a01b03861663c5f1d5c288836118e0878a6131be565b6040517fffffffff0000000000000000000000000000000000000000000000000000000060e086901b1681526001600160a01b03909316600484015260248301919091526044820152606401600060405180830381600087803b15801561194657600080fd5b505af115801561195a573d6000803e3d6000fd5b50506066600090815260205250507f422cccb7cea5c0e46f340bb7b21b81debac329f72e31669c20ff0f3a05cc2b5b546040517f2a6a897b0000000000000000000000000000000000000000000000000000000081526001600160a01b0388811660048301526024820184905290911690632a6a897b906044015b600060405180830381600087803b1580156119ef57600080fd5b505af1158015611a03573d6000803e3d6000fd5b50506066600090815260205250507f422cccb7cea5c0e46f340bb7b21b81debac329f72e31669c20ff0f3a05cc2b5b546001600160a01b03166040517fdc683bcf0000000000000000000000000000000000000000000000000000000081526001600160a01b038881166004830152919091169063dc683bcf90602401602060405180830381600087803b158015611a9a57600080fd5b505af1158015611aae573d6000803e3d6000fd5b505050506040513d601f19601f82011682018060405250810190611ad29190612f91565b5050505050505050565b8115611b9d57606560009081526020527f4a7203f705e51df4a56139a9b86b4a0970bed7ab7a3446eaffe2289989c1645c546001600160a01b03166040517fd9caed120000000000000000000000000000000000000000000000000000000081526001600160a01b038681166004830152878116602483015260448201859052919091169063d9caed1290606401600060405180830381600087803b158015611b8457600080fd5b505af1158015611b98573d6000803e3d6000fd5b505050505b8015611c5557606560009081526020527f4a7203f705e51df4a56139a9b86b4a0970bed7ab7a3446eaffe2289989c1645c546040517fd9caed120000000000000000000000000000000000000000000000000000000081526001600160a01b0385811660048301528781166024830152604482018490529091169063d9caed12906064015b600060405180830381600087803b158015611c3c57600080fd5b505af1158015611c50573d6000803e3d6000fd5b505050505b5050505050565b838560018751611c6c91906131be565b81518110611c8a57634e487b7160e01b600052603260045260246000fd5b60200260200101511015611d065760405162461bcd60e51b815260206004820152602860248201527f4d617267696e526f757465723a20494e53554646494349454e545f4f5554505560448201527f545f414d4f554e54000000000000000000000000000000000000000000000000606482015260840161045f565b606560009081526020527f4a7203f705e51df4a56139a9b86b4a0970bed7ab7a3446eaffe2289989c1645c546001600160a01b03166001600160a01b031663d9caed1283836000818110611d6a57634e487b7160e01b600052603260045260246000fd5b9050602002016020810190611d7f9190612ea1565b85600081518110611da057634e487b7160e01b600052603260045260246000fd5b602002602001015188600081518110611dc957634e487b7160e01b600052603260045260246000fd5b60209081029190910101516040517fffffffff0000000000000000000000000000000000000000000000000000000060e086901b1681526001600160a01b0393841660048201529290911660248301526044820152606401600060405180830381600087803b158015611e3b57600080fd5b505af1158015611e4f573d6000803e3d6000fd5b50505050611c558584848480806020026020016040519081016040528093929190818152602001838360200280828437600092019190915250611e9592506129fd915050565b612a35565b8115611f5b57606560009081526020527f4a7203f705e51df4a56139a9b86b4a0970bed7ab7a3446eaffe2289989c1645c546001600160a01b03166040517fb3db428b0000000000000000000000000000000000000000000000000000000081526001600160a01b038781166004830152868116602483015260448201859052919091169063b3db428b90606401600060405180830381600087803b158015611f4257600080fd5b505af1158015611f56573d6000803e3d6000fd5b505050505b8015611c5557606560009081526020527f4a7203f705e51df4a56139a9b86b4a0970bed7ab7a3446eaffe2289989c1645c546040517fb3db428b0000000000000000000000000000000000000000000000000000000081526001600160a01b0387811660048301528581166024830152604482018490529091169063b3db428b90606401611c22565b6000611ff083866131be565b90506001600160a01b038616638b2db569888361200d8689613167565b600088118061201c5750600087115b6040517fffffffff0000000000000000000000000000000000000000000000000000000060e087901b1681526001600160a01b0390941660048501526024840192909252604483015215156064820152608401600060405180830381600087803b15801561208957600080fd5b505af115801561209d573d6000803e3d6000fd5b50506066600090815260205250507f422cccb7cea5c0e46f340bb7b21b81debac329f72e31669c20ff0f3a05cc2b5b546040517fee0862bf0000000000000000000000000000000000000000000000000000000081526001600160a01b038881166004830152602482018490529091169063ee0862bf906044016119d5565b600061271061155183600a61319f565b6060806002835110156121815760405162461bcd60e51b815260206004820152601460248201527f746f6b656e207061746820746f6f2073686f7274000000000000000000000000604482015260640161045f565b825167ffffffffffffffff8111156121a957634e487b7160e01b600052604160045260246000fd5b6040519080825280602002602001820160405280156121d2578160200160208202803683370190505b5091508482600184516121e591906131be565b8151811061220357634e487b7160e01b600052603260045260246000fd5b6020026020010181815250506001835161221d91906131be565b67ffffffffffffffff81111561224357634e487b7160e01b600052604160045260246000fd5b60405190808252806020026020018201604052801561226c578160200160208202803683370190505b50905060006001845161227f91906131be565b90505b80156118ae576000846122966001846131be565b815181106122b457634e487b7160e01b600052603260045260246000fd5b6020026020010151905060008583815181106122e057634e487b7160e01b600052603260045260246000fd5b602002602001015190506000876001856122fa91906131be565b6020811061231857634e487b7160e01b600052603260045260246000fd5b1a60f81b7fff0000000000000000000000000000000000000000000000000000000000000016156123bb578761234f6001866131be565b6020811061236d57634e487b7160e01b600052603260045260246000fd5b1a60f81b7effffffffffffffffffffffffffffffffffffffffffffffffffffffffffffff1916600160f81b146123ac576123a78383612541565b6123b6565b6123b68383612655565b6123c5565b6123c5838361272a565b905080856123d46001876131be565b815181106123f257634e487b7160e01b600052603260045260246000fd5b60200260200101906001600160a01b031690816001600160a01b0316815250506000806124208386866127ff565b9150915061245688878151811061244757634e487b7160e01b600052603260045260246000fd5b60200260200101518383612c63565b886124626001896131be565b8151811061248057634e487b7160e01b600052603260045260246000fd5b6020026020010181815250505050505050808061249c906131d5565b915050612282565b83856000815181106124c657634e487b7160e01b600052603260045260246000fd5b60200260200101511115611d065760405162461bcd60e51b8152602060048201526024808201527f4d617267696e526f757465723a204558434553534956455f494e5055545f414d60448201527f4f554e5400000000000000000000000000000000000000000000000000000000606482015260840161045f565b60008060006125508585612d89565b6040516bffffffffffffffffffffffff19606084811b8216602084015283901b16603482015291935091507f00000000000000000000000000000000000000000000000000000000000000009060480160405160208183030381529060405280519060200120600454604051602001612616939291907fff00000000000000000000000000000000000000000000000000000000000000815260609390931b6bffffffffffffffffffffffff191660018401526015830191909152603582015260550190565b604080517fffffffffffffffffffffffffffffffffffffffffffffffffffffffffffffffe0818403018152919052805160209091012095945050505050565b60008060006126648585612d89565b6040516bffffffffffffffffffffffff19606084811b8216602084015283901b16603482015291935091507f00000000000000000000000000000000000000000000000000000000000000009060480160405160208183030381529060405280519060200120600354604051602001612616939291907fff00000000000000000000000000000000000000000000000000000000000000815260609390931b6bffffffffffffffffffffffff191660018401526015830191909152603582015260550190565b60008060006127398585612d89565b6040516bffffffffffffffffffffffff19606084811b8216602084015283901b16603482015291935091507f00000000000000000000000000000000000000000000000000000000000000009060480160405160208183030381529060405280519060200120600254604051602001612616939291907fff00000000000000000000000000000000000000000000000000000000000000815260609390931b6bffffffffffffffffffffffff191660018401526015830191909152603582015260550190565b600080600061280e8585612d89565b509050600080876001600160a01b0316630902f1ac6040518163ffffffff1660e01b815260040160606040518083038186803b15801561284d57600080fd5b505afa158015612861573d6000803e3d6000fd5b505050506040513d601f19601f820116820180604052508101906128859190612f2b565b506dffffffffffffffffffffffffffff1691506dffffffffffffffffffffffffffff169150826001600160a01b0316876001600160a01b0316146128ca5780826128cd565b81815b90999098509650505050505050565b600080841161292d5760405162461bcd60e51b815260206004820152601960248201527f494e53554646494349454e545f494e5055545f414d4f554e5400000000000000604482015260640161045f565b60008311801561293d5750600082115b6129af5760405162461bcd60e51b815260206004820152602860248201527f556e697377617056324c6962726172793a20494e53554646494349454e545f4c60448201527f4951554944495459000000000000000000000000000000000000000000000000606482015260840161045f565b60006129bd856103e561319f565b905060006129cb848361319f565b90506000826129dc876103e861319f565b6129e69190613167565b90506129f2818361317f565b979650505050505050565b606560009081526020527f4a7203f705e51df4a56139a9b86b4a0970bed7ab7a3446eaffe2289989c1645c546001600160a01b031690565b60005b8351811015611c5557600080848381518110612a6457634e487b7160e01b600052603260045260246000fd5b602002602001015185846001612a7a9190613167565b81518110612a9857634e487b7160e01b600052603260045260246000fd5b6020026020010151915091506000612ab08383612d89565b509050600088612ac1866001613167565b81518110612adf57634e487b7160e01b600052603260045260246000fd5b60200260200101519050600080836001600160a01b0316866001600160a01b031614612b0d57826000612b11565b6000835b91509150600060018b51612b2591906131be565b8810612b315788612b64565b8a612b3d896001613167565b81518110612b5b57634e487b7160e01b600052603260045260246000fd5b60200260200101515b905060008b8981518110612b8857634e487b7160e01b600052603260045260246000fd5b60200260200101519050806001600160a01b031663022c0d9f858585600067ffffffffffffffff811115612bcc57634e487b7160e01b600052604160045260246000fd5b6040519080825280601f01601f191660200182016040528015612bf6576020820181803683370190505b506040518563ffffffff1660e01b8152600401612c1694939291906130d7565b600060405180830381600087803b158015612c3057600080fd5b505af1158015612c44573d6000803e3d6000fd5b5050505050505050505050508080612c5b906131ec565b915050612a38565b6000808411612cb45760405162461bcd60e51b815260206004820152601a60248201527f494e53554646494349454e545f4f55545055545f414d4f554e54000000000000604482015260640161045f565b600083118015612cc45750600082115b612d365760405162461bcd60e51b815260206004820152602860248201527f556e697377617056324c6962726172793a20494e53554646494349454e545f4c60448201527f4951554944495459000000000000000000000000000000000000000000000000606482015260840161045f565b6000612d42858561319f565b612d4e906103e861319f565b90506000612d5c86856131be565b612d68906103e561319f565b9050612d74818361317f565b612d7f906001613167565b9695505050505050565b600080826001600160a01b0316846001600160a01b03161415612dee5760405162461bcd60e51b815260206004820152601260248201527f4964656e746963616c2061646472657373210000000000000000000000000000604482015260640161045f565b826001600160a01b0316846001600160a01b031610612e0e578284612e11565b83835b90925090506001600160a01b038216612e6c5760405162461bcd60e51b815260206004820152600d60248201527f5a65726f20616464726573732100000000000000000000000000000000000000604482015260640161045f565b9250929050565b8035612e7e8161321d565b919050565b80516dffffffffffffffffffffffffffff81168114612e7e57600080fd5b600060208284031215612eb2578081fd5b8135612ebd8161321d565b9392505050565b600060208284031215612ed5578081fd5b8151612ebd8161321d565b60008060408385031215612ef2578081fd5b8235612efd8161321d565b946020939093013593505050565b600060208284031215612f1c578081fd5b81518015158114612ebd578182fd5b600080600060608486031215612f3f578081fd5b612f4884612e83565b9250612f5660208501612e83565b9150604084015163ffffffff81168114612f6e578182fd5b809150509250925092565b600060208284031215612f8a578081fd5b5035919050565b600060208284031215612fa2578081fd5b5051919050565b60008060408385031215612fbb578182fd5b823591506020830135612fcd8161321d565b809150509250929050565b60008060008060008060008060006101008a8c031215612ff6578485fd5b8935985060208a0135975060408a0135965060608a013567ffffffffffffffff80821115613022578687fd5b818c0191508c601f830112613035578687fd5b813581811115613043578788fd5b8d60208260051b8501011115613057578788fd5b60208301985080975050505061306f60808b01612e73565b935060a08a0135925060c08a0135915060e08a013590509295985092959850929598565b6020808252825182820181905260009190848201906040850190845b818110156130cb578351835292840192918401916001016130af565b50909695505050505050565b6000858252602085818401526001600160a01b0385166040840152608060608401528351806080850152825b8181101561311f5785810183015185820160a001528201613103565b81811115613130578360a083870101525b50601f017fffffffffffffffffffffffffffffffffffffffffffffffffffffffffffffffe0169290920160a0019695505050505050565b6000821982111561317a5761317a613207565b500190565b60008261319a57634e487b7160e01b81526012600452602481fd5b500490565b60008160001904831182151516156131b9576131b9613207565b500290565b6000828210156131d0576131d0613207565b500390565b6000816131e4576131e4613207565b506000190190565b600060001982141561320057613200613207565b5060010190565b634e487b7160e01b600052601160045260246000fd5b6001600160a01b038116811461323257600080fd5b5056fea26469706673582212204f8e804634a80282ce8fa3d3695d4f828de9f3f9242e2962088cc563ce488cfc64736f6c63430008030033",
  "linkReferences": {},
  "deployedLinkReferences": {}
}