{
  "_format": "hh-sol-artifact-1",
  "contractName": "IsolatedMarginRouter",
  "sourceName": "contracts/isolated/IsolatedMarginRouter.sol",
  "abi": [
    {
      "inputs": [
        {
          "internalType": "address",
          "name": "_WETH",
          "type": "address"
        },
        {
          "internalType": "address",
          "name": "_roles",
          "type": "address"
        }
      ],
      "stateMutability": "nonpayable",
      "type": "constructor"
    },
    {
      "anonymous": false,
      "inputs": [
        {
          "indexed": true,
          "internalType": "address",
          "name": "trader",
          "type": "address"
        },
        {
          "indexed": false,
          "internalType": "address",
          "name": "isolatedPair",
          "type": "address"
        }
      ],
      "name": "IsolatedAccountUpdated",
      "type": "event"
    },
    {
      "inputs": [],
      "name": "WETH",
      "outputs": [
        {
          "internalType": "address",
          "name": "",
          "type": "address"
        }
      ],
      "stateMutability": "view",
      "type": "function"
    },
    {
      "inputs": [
        {
          "internalType": "uint256",
          "name": "",
          "type": "uint256"
        }
      ],
      "name": "mainCharacterCache",
      "outputs": [
        {
          "internalType": "address",
          "name": "",
          "type": "address"
        }
      ],
      "stateMutability": "view",
      "type": "function"
    },
    {
      "inputs": [],
      "name": "mswapFeesPer10k",
      "outputs": [
        {
          "internalType": "uint256",
          "name": "",
          "type": "uint256"
        }
      ],
      "stateMutability": "view",
      "type": "function"
    },
    {
      "inputs": [
        {
          "internalType": "address",
          "name": "",
          "type": "address"
        },
        {
          "internalType": "uint256",
          "name": "",
          "type": "uint256"
        }
      ],
      "name": "roleCache",
      "outputs": [
        {
          "internalType": "bool",
          "name": "",
          "type": "bool"
        }
      ],
      "stateMutability": "view",
      "type": "function"
    },
    {
      "inputs": [],
      "name": "roles",
      "outputs": [
        {
          "internalType": "contract Roles",
          "name": "",
          "type": "address"
        }
      ],
      "stateMutability": "view",
      "type": "function"
    },
    {
      "inputs": [
        {
          "internalType": "uint256",
          "name": "amountIn",
          "type": "uint256"
        },
        {
          "internalType": "uint256",
          "name": "amountOutMin",
          "type": "uint256"
        },
        {
          "internalType": "bytes32",
          "name": "amms",
          "type": "bytes32"
        },
        {
          "internalType": "address[]",
          "name": "tokens",
          "type": "address[]"
        },
        {
          "internalType": "address",
          "name": "_isolatedPair",
          "type": "address"
        },
        {
          "internalType": "uint256",
          "name": "depositFrom",
          "type": "uint256"
        },
        {
          "internalType": "uint256",
          "name": "depositTo",
          "type": "uint256"
        },
        {
          "internalType": "uint256",
          "name": "deadline",
          "type": "uint256"
        }
      ],
      "name": "swapExactTokensForTokensPosition",
      "outputs": [
        {
          "internalType": "uint256[]",
          "name": "amounts",
          "type": "uint256[]"
        }
      ],
      "stateMutability": "nonpayable",
      "type": "function"
    },
    {
      "inputs": [
        {
          "internalType": "uint256",
          "name": "amountIn",
          "type": "uint256"
        },
        {
          "internalType": "uint256",
          "name": "amountOutMin",
          "type": "uint256"
        },
        {
          "internalType": "bytes32",
          "name": "amms",
          "type": "bytes32"
        },
        {
          "internalType": "address[]",
          "name": "tokens",
          "type": "address[]"
        },
        {
          "internalType": "address",
          "name": "_isolatedPair",
          "type": "address"
        },
        {
          "internalType": "uint256",
          "name": "withdrawFrom",
          "type": "uint256"
        },
        {
          "internalType": "uint256",
          "name": "withdrawTo",
          "type": "uint256"
        },
        {
          "internalType": "uint256",
          "name": "deadline",
          "type": "uint256"
        }
      ],
      "name": "swapExactTokensForTokensUnwind",
      "outputs": [
        {
          "internalType": "uint256[]",
          "name": "amounts",
          "type": "uint256[]"
        }
      ],
      "stateMutability": "nonpayable",
      "type": "function"
    },
    {
      "inputs": [
        {
          "internalType": "uint256",
          "name": "amountOut",
          "type": "uint256"
        },
        {
          "internalType": "uint256",
          "name": "amountInMax",
          "type": "uint256"
        },
        {
          "internalType": "bytes32",
          "name": "amms",
          "type": "bytes32"
        },
        {
          "internalType": "address[]",
          "name": "tokens",
          "type": "address[]"
        },
        {
          "internalType": "address",
          "name": "_isolatedPair",
          "type": "address"
        },
        {
          "internalType": "uint256",
          "name": "depositFrom",
          "type": "uint256"
        },
        {
          "internalType": "uint256",
          "name": "depositTo",
          "type": "uint256"
        },
        {
          "internalType": "uint256",
          "name": "deadline",
          "type": "uint256"
        }
      ],
      "name": "swapTokensForExactTokensPosition",
      "outputs": [
        {
          "internalType": "uint256[]",
          "name": "amounts",
          "type": "uint256[]"
        }
      ],
      "stateMutability": "nonpayable",
      "type": "function"
    },
    {
      "inputs": [
        {
          "internalType": "uint256",
          "name": "amountOut",
          "type": "uint256"
        },
        {
          "internalType": "uint256",
          "name": "amountInMax",
          "type": "uint256"
        },
        {
          "internalType": "bytes32",
          "name": "amms",
          "type": "bytes32"
        },
        {
          "internalType": "address[]",
          "name": "tokens",
          "type": "address[]"
        },
        {
          "internalType": "address",
          "name": "_isolatedPair",
          "type": "address"
        },
        {
          "internalType": "uint256",
          "name": "withdrawFrom",
          "type": "uint256"
        },
        {
          "internalType": "uint256",
          "name": "withdrawTo",
          "type": "uint256"
        },
        {
          "internalType": "uint256",
          "name": "deadline",
          "type": "uint256"
        }
      ],
      "name": "swapTokensForExactTokensUnwind",
      "outputs": [
        {
          "internalType": "uint256[]",
          "name": "amounts",
          "type": "uint256[]"
        }
      ],
      "stateMutability": "nonpayable",
      "type": "function"
    },
    {
      "inputs": [
        {
          "internalType": "uint256",
          "name": "role",
          "type": "uint256"
        }
      ],
      "name": "updateMainCharacterCache",
      "outputs": [],
      "stateMutability": "nonpayable",
      "type": "function"
    },
    {
      "inputs": [
        {
          "internalType": "uint256",
          "name": "role",
          "type": "uint256"
        },
        {
          "internalType": "address",
          "name": "contr",
          "type": "address"
        }
      ],
      "name": "updateRoleCache",
      "outputs": [],
      "stateMutability": "nonpayable",
      "type": "function"
    }
  ],
  "bytecode": "0x60c06040523480156200001157600080fd5b5060405162003305380380620033058339810160408190526200003491620000db565b806001600160a01b0381166200009b5760405162461bcd60e51b815260206004820152602260248201527f506c656173652070726f766964652076616c696420726f6c6573206164647265604482015261737360f01b606482015260840160405180910390fd5b6001600160601b0319606091821b811660805292901b90911660a0525062000112565b80516001600160a01b0381168114620000d657600080fd5b919050565b60008060408385031215620000ee578182fd5b620000f983620000be565b91506200010960208401620000be565b90509250929050565b60805160601c60a05160601c6131b96200014c60003960006101e6015260008181610136015281816102800152610f5c01526131b96000f3fe608060405234801561001057600080fd5b50600436106100c95760003560e01c80633ec380da11610081578063ad5c46481161005b578063ad5c4648146101e1578063cfd124af14610208578063e9c3f77d1461021b576100c9565b80633ec380da1461017d578063447d52ba146101905780637a1a04df146101a3576100c9565b806328f98801116100b257806328f98801146100fe5780632c77dda01461011e578063392f5f6414610131576100c9565b8063071060a6146100ce5780631084bd6d146100e3575b600080fd5b6100e16100dc366004612e6b565b610251565b005b6100eb600a81565b6040519081526020015b60405180910390f35b61011161010c366004612eb2565b610362565b6040516100f59190612f6d565b61011161012c366004612eb2565b610770565b6101587f000000000000000000000000000000000000000000000000000000000000000081565b60405173ffffffffffffffffffffffffffffffffffffffff90911681526020016100f5565b61011161018b366004612eb2565b610b1d565b6100e161019e366004612e83565b610f10565b6101d16101b1366004612dd2565b600160209081526000928352604080842090915290825290205460ff1681565b60405190151581526020016100f5565b6101587f000000000000000000000000000000000000000000000000000000000000000081565b610111610216366004612eb2565b611039565b610158610229366004612e6b565b60006020819052908152604090205473ffffffffffffffffffffffffffffffffffffffff1681565b6040517fb4ed0b6d000000000000000000000000000000000000000000000000000000008152600481018290527f000000000000000000000000000000000000000000000000000000000000000073ffffffffffffffffffffffffffffffffffffffff169063b4ed0b6d9060240160206040518083038186803b1580156102d757600080fd5b505afa1580156102eb573d6000803e3d6000fd5b505050506040513d601f19601f8201168201806040525081019061030f9190612db6565b60009182526020829052604090912080547fffffffffffffffffffffffff00000000000000000000000000000000000000001673ffffffffffffffffffffffffffffffffffffffff909216919091179055565b606081428110156103d4576040517f08c379a000000000000000000000000000000000000000000000000000000000815260206004820152601160248201527f547261646520686173206578706972656400000000000000000000000000000060448201526064015b60405180910390fd5b8573ffffffffffffffffffffffffffffffffffffffff1663456dc17a6040518163ffffffff1660e01b815260040160206040518083038186803b15801561041a57600080fd5b505afa15801561042e573d6000803e3d6000fd5b505050506040513d601f19601f820116820180604052508101906104529190612db6565b73ffffffffffffffffffffffffffffffffffffffff1688886104756001826130c3565b81811061049257634e487b7160e01b600052603260045260246000fd5b90506020020160208101906104a79190612d93565b73ffffffffffffffffffffffffffffffffffffffff161480156105a757508573ffffffffffffffffffffffffffffffffffffffff1663a1ad54e66040518163ffffffff1660e01b815260040160206040518083038186803b15801561050b57600080fd5b505afa15801561051f573d6000803e3d6000fd5b505050506040513d601f19601f820116820180604052508101906105439190612db6565b73ffffffffffffffffffffffffffffffffffffffff168888600081811061057a57634e487b7160e01b600052603260045260246000fd5b905060200201602081019061058f9190612d93565b73ffffffffffffffffffffffffffffffffffffffff16145b610633576040517f08c379a000000000000000000000000000000000000000000000000000000000815260206004820152602160248201527f5061746820646f6573206e6f74206d617463682069736f6c617465642070616960448201527f720000000000000000000000000000000000000000000000000000000000000060648201526084016103cb565b600061063e8c6113d1565b9050606061068961064f838f6130c3565b8c8c8c808060200260200160405190810160405280939291908181526020018383602002808284376000920191909152506113fb92505050565b80925081955050506106d333898f87600189516106a691906130c3565b815181106106c457634e487b7160e01b600052603260045260246000fd5b60200260200101518b8b611726565b610753338b8b60008181106106f857634e487b7160e01b600052603260045260246000fd5b905060200201602081019061070d9190612d93565b8c8c61071a6001826130c3565b81811061073757634e487b7160e01b600052603260045260246000fd5b905060200201602081019061074c9190612d93565b8a8a6118a6565b610760848d838d8d611a4d565b5050509998505050505050505050565b606081428110156107dd576040517f08c379a000000000000000000000000000000000000000000000000000000000815260206004820152601160248201527f547261646520686173206578706972656400000000000000000000000000000060448201526064016103cb565b8573ffffffffffffffffffffffffffffffffffffffff1663456dc17a6040518163ffffffff1660e01b815260040160206040518083038186803b15801561082357600080fd5b505afa158015610837573d6000803e3d6000fd5b505050506040513d601f19601f8201168201806040525081019061085b9190612db6565b73ffffffffffffffffffffffffffffffffffffffff168888600081811061089257634e487b7160e01b600052603260045260246000fd5b90506020020160208101906108a79190612d93565b73ffffffffffffffffffffffffffffffffffffffff161480156109b057508573ffffffffffffffffffffffffffffffffffffffff1663a1ad54e66040518163ffffffff1660e01b815260040160206040518083038186803b15801561090b57600080fd5b505afa15801561091f573d6000803e3d6000fd5b505050506040513d601f19601f820116820180604052508101906109439190612db6565b73ffffffffffffffffffffffffffffffffffffffff1688886109666001826130c3565b81811061098357634e487b7160e01b600052603260045260246000fd5b90506020020160208101906109989190612d93565b73ffffffffffffffffffffffffffffffffffffffff16145b610a3c576040517f08c379a000000000000000000000000000000000000000000000000000000000815260206004820152602160248201527f5061746820646f6573206e6f74206d617463682069736f6c617465642070616960448201527f720000000000000000000000000000000000000000000000000000000000000060648201526084016103cb565b6000610a478c6113d1565b90506060610a5861064f838f6130c3565b9094509050610adb338b8b600081610a8057634e487b7160e01b600052603260045260246000fd5b9050602002016020810190610a959190612d93565b8c8c610aa26001826130c3565b818110610abf57634e487b7160e01b600052603260045260246000fd5b9050602002016020810190610ad49190612d93565b8a8a611ccc565b61075333898f8760018951610af091906130c3565b81518110610b0e57634e487b7160e01b600052603260045260246000fd5b60200260200101518b8b611e3d565b60608142811015610b8a576040517f08c379a000000000000000000000000000000000000000000000000000000000815260206004820152601160248201527f547261646520686173206578706972656400000000000000000000000000000060448201526064016103cb565b8573ffffffffffffffffffffffffffffffffffffffff1663456dc17a6040518163ffffffff1660e01b815260040160206040518083038186803b158015610bd057600080fd5b505afa158015610be4573d6000803e3d6000fd5b505050506040513d601f19601f82011682018060405250810190610c089190612db6565b73ffffffffffffffffffffffffffffffffffffffff1688886000818110610c3f57634e487b7160e01b600052603260045260246000fd5b9050602002016020810190610c549190612d93565b73ffffffffffffffffffffffffffffffffffffffff16148015610d5d57508573ffffffffffffffffffffffffffffffffffffffff1663a1ad54e66040518163ffffffff1660e01b815260040160206040518083038186803b158015610cb857600080fd5b505afa158015610ccc573d6000803e3d6000fd5b505050506040513d601f19601f82011682018060405250810190610cf09190612db6565b73ffffffffffffffffffffffffffffffffffffffff168888610d136001826130c3565b818110610d3057634e487b7160e01b600052603260045260246000fd5b9050602002016020810190610d459190612d93565b73ffffffffffffffffffffffffffffffffffffffff16145b610de9576040517f08c379a000000000000000000000000000000000000000000000000000000000815260206004820152602160248201527f5061746820646f6573206e6f74206d617463682069736f6c617465642070616960448201527f720000000000000000000000000000000000000000000000000000000000000060648201526084016103cb565b6060610e3b610df78d611f9c565b610e01908e61304e565b8b8b8b80806020026020016040519081016040528093929190818152602001838360200280828437600092019190915250611fac92505050565b9093509050610ebe338a8a600081610e6357634e487b7160e01b600052603260045260246000fd5b9050602002016020810190610e789190612d93565b8b8b610e856001826130c3565b818110610ea257634e487b7160e01b600052603260045260246000fd5b9050602002016020810190610eb79190612d93565b8989611ccc565b610ef4338885600081518110610ee457634e487b7160e01b600052603260045260246000fd5b60200260200101518f8a8a611e3d565b610f01838c838c8c6122ef565b50509998505050505050505050565b6040517f93552a3d0000000000000000000000000000000000000000000000000000000081526004810183905273ffffffffffffffffffffffffffffffffffffffff82811660248301527f000000000000000000000000000000000000000000000000000000000000000016906393552a3d9060440160206040518083038186803b158015610f9e57600080fd5b505afa158015610fb2573d6000803e3d6000fd5b505050506040513d601f19601f82011682018060405250810190610fd69190612dfd565b73ffffffffffffffffffffffffffffffffffffffff9190911660009081526001602090815260408083209483529390529190912080547fffffffffffffffffffffffffffffffffffffffffffffffffffffffffffffff0016911515919091179055565b606081428110156110a6576040517f08c379a000000000000000000000000000000000000000000000000000000000815260206004820152601160248201527f547261646520686173206578706972656400000000000000000000000000000060448201526064016103cb565b8573ffffffffffffffffffffffffffffffffffffffff1663456dc17a6040518163ffffffff1660e01b815260040160206040518083038186803b1580156110ec57600080fd5b505afa158015611100573d6000803e3d6000fd5b505050506040513d601f19601f820116820180604052508101906111249190612db6565b73ffffffffffffffffffffffffffffffffffffffff1688886111476001826130c3565b81811061116457634e487b7160e01b600052603260045260246000fd5b90506020020160208101906111799190612d93565b73ffffffffffffffffffffffffffffffffffffffff1614801561127957508573ffffffffffffffffffffffffffffffffffffffff1663a1ad54e66040518163ffffffff1660e01b815260040160206040518083038186803b1580156111dd57600080fd5b505afa1580156111f1573d6000803e3d6000fd5b505050506040513d601f19601f820116820180604052508101906112159190612db6565b73ffffffffffffffffffffffffffffffffffffffff168888600081811061124c57634e487b7160e01b600052603260045260246000fd5b90506020020160208101906112619190612d93565b73ffffffffffffffffffffffffffffffffffffffff16145b611305576040517f08c379a000000000000000000000000000000000000000000000000000000000815260206004820152602160248201527f5061746820646f6573206e6f74206d617463682069736f6c617465642070616960448201527f720000000000000000000000000000000000000000000000000000000000000060648201526084016103cb565b6060611313610df78d611f9c565b809250819450505061135133888560008151811061134157634e487b7160e01b600052603260045260246000fd5b60200260200101518f8a8a611726565b610ef4338a8a600081811061137657634e487b7160e01b600052603260045260246000fd5b905060200201602081019061138b9190612d93565b8b8b6113986001826130c3565b8181106113b557634e487b7160e01b600052603260045260246000fd5b90506020020160208101906113ca9190612d93565b89896118a6565b60006113e0600a61271061304e565b6113eb83600a613086565b6113f59190613066565b92915050565b60608060028351101561146a576040517f08c379a000000000000000000000000000000000000000000000000000000000815260206004820152601460248201527f746f6b656e207061746820746f6f2073686f727400000000000000000000000060448201526064016103cb565b825167ffffffffffffffff81111561149257634e487b7160e01b600052604160045260246000fd5b6040519080825280602002602001820160405280156114bb578160200160208202803683370190505b50915084826000815181106114e057634e487b7160e01b600052603260045260246000fd5b602002602001018181525050600183516114fa91906130c3565b67ffffffffffffffff81111561152057634e487b7160e01b600052604160045260246000fd5b604051908082528060200260200182016040528015611549578160200160208202803683370190505b50905060005b6001845161155d91906130c3565b81101561171d57600084828151811061158657634e487b7160e01b600052603260045260246000fd5b602002602001015190506000858360016115a0919061304e565b815181106115be57634e487b7160e01b600052603260045260246000fd5b6020026020010151905060008784602081106115ea57634e487b7160e01b600052603260045260246000fd5b1a60f81b7fff0000000000000000000000000000000000000000000000000000000000000016156116245761161f83836123a6565b61162e565b61162e83836124cd565b90508085858151811061165157634e487b7160e01b600052603260045260246000fd5b602002602001019073ffffffffffffffffffffffffffffffffffffffff16908173ffffffffffffffffffffffffffffffffffffffff16815250506000806116998386866125b9565b915091506116cf8887815181106116c057634e487b7160e01b600052603260045260246000fd5b602002602001015183836126bd565b886116db88600161304e565b815181106116f957634e487b7160e01b600052603260045260246000fd5b602002602001018181525050505050505080806117159061310f565b91505061154f565b50935093915050565b600061173282856130c3565b905073ffffffffffffffffffffffffffffffffffffffff861663c5f1d5c2888361175c878a6130c3565b6040517fffffffff0000000000000000000000000000000000000000000000000000000060e086901b16815273ffffffffffffffffffffffffffffffffffffffff909316600484015260248301919091526044820152606401600060405180830381600087803b1580156117cf57600080fd5b505af11580156117e3573d6000803e3d6000fd5b50506066600090815260205250507f422cccb7cea5c0e46f340bb7b21b81debac329f72e31669c20ff0f3a05cc2b5b546040517f2a6a897b00000000000000000000000000000000000000000000000000000000815273ffffffffffffffffffffffffffffffffffffffff88811660048301526024820184905290911690632a6a897b906044015b600060405180830381600087803b15801561188557600080fd5b505af1158015611899573d6000803e3d6000fd5b5050505050505050505050565b811561198157606560009081526020527f4a7203f705e51df4a56139a9b86b4a0970bed7ab7a3446eaffe2289989c1645c5473ffffffffffffffffffffffffffffffffffffffff166040517fd9caed1200000000000000000000000000000000000000000000000000000000815273ffffffffffffffffffffffffffffffffffffffff8681166004830152878116602483015260448201859052919091169063d9caed1290606401600060405180830381600087803b15801561196857600080fd5b505af115801561197c573d6000803e3d6000fd5b505050505b8015611a4657606560009081526020527f4a7203f705e51df4a56139a9b86b4a0970bed7ab7a3446eaffe2289989c1645c546040517fd9caed1200000000000000000000000000000000000000000000000000000000815273ffffffffffffffffffffffffffffffffffffffff85811660048301528781166024830152604482018490529091169063d9caed12906064015b600060405180830381600087803b158015611a2d57600080fd5b505af1158015611a41573d6000803e3d6000fd5b505050505b5050505050565b838560018751611a5d91906130c3565b81518110611a7b57634e487b7160e01b600052603260045260246000fd5b60200260200101511015611b11576040517f08c379a000000000000000000000000000000000000000000000000000000000815260206004820152602860248201527f4d617267696e526f757465723a20494e53554646494349454e545f4f5554505560448201527f545f414d4f554e5400000000000000000000000000000000000000000000000060648201526084016103cb565b606560009081526020527f4a7203f705e51df4a56139a9b86b4a0970bed7ab7a3446eaffe2289989c1645c5473ffffffffffffffffffffffffffffffffffffffff1673ffffffffffffffffffffffffffffffffffffffff1663d9caed1283836000818110611b8f57634e487b7160e01b600052603260045260246000fd5b9050602002016020810190611ba49190612d93565b85600081518110611bc557634e487b7160e01b600052603260045260246000fd5b602002602001015188600081518110611bee57634e487b7160e01b600052603260045260246000fd5b60209081029190910101516040517fffffffff0000000000000000000000000000000000000000000000000000000060e086901b16815273ffffffffffffffffffffffffffffffffffffffff93841660048201529290911660248301526044820152606401600060405180830381600087803b158015611c6d57600080fd5b505af1158015611c81573d6000803e3d6000fd5b50505050611a468584848480806020026020016040519081016040528093929190818152602001838360200280828437600092019190915250611cc79250612812915050565b612857565b8115611da757606560009081526020527f4a7203f705e51df4a56139a9b86b4a0970bed7ab7a3446eaffe2289989c1645c5473ffffffffffffffffffffffffffffffffffffffff166040517fb3db428b00000000000000000000000000000000000000000000000000000000815273ffffffffffffffffffffffffffffffffffffffff8781166004830152868116602483015260448201859052919091169063b3db428b90606401600060405180830381600087803b158015611d8e57600080fd5b505af1158015611da2573d6000803e3d6000fd5b505050505b8015611a4657606560009081526020527f4a7203f705e51df4a56139a9b86b4a0970bed7ab7a3446eaffe2289989c1645c546040517fb3db428b00000000000000000000000000000000000000000000000000000000815273ffffffffffffffffffffffffffffffffffffffff87811660048301528581166024830152604482018490529091169063b3db428b90606401611a13565b6000611e4983866130c3565b905073ffffffffffffffffffffffffffffffffffffffff8616638b2db5698883611e73868961304e565b6000881180611e825750600087115b6040517fffffffff0000000000000000000000000000000000000000000000000000000060e087901b16815273ffffffffffffffffffffffffffffffffffffffff90941660048501526024840192909252604483015215156064820152608401600060405180830381600087803b158015611efc57600080fd5b505af1158015611f10573d6000803e3d6000fd5b50506066600090815260205250507f422cccb7cea5c0e46f340bb7b21b81debac329f72e31669c20ff0f3a05cc2b5b546040517fee0862bf00000000000000000000000000000000000000000000000000000000815273ffffffffffffffffffffffffffffffffffffffff8881166004830152602482018490529091169063ee0862bf9060440161186b565b60006127106113eb83600a613086565b60608060028351101561201b576040517f08c379a000000000000000000000000000000000000000000000000000000000815260206004820152601460248201527f746f6b656e207061746820746f6f2073686f727400000000000000000000000060448201526064016103cb565b825167ffffffffffffffff81111561204357634e487b7160e01b600052604160045260246000fd5b60405190808252806020026020018201604052801561206c578160200160208202803683370190505b50915084826001845161207f91906130c3565b8151811061209d57634e487b7160e01b600052603260045260246000fd5b602002602001018181525050600183516120b791906130c3565b67ffffffffffffffff8111156120dd57634e487b7160e01b600052604160045260246000fd5b604051908082528060200260200182016040528015612106578160200160208202803683370190505b50905060006001845161211991906130c3565b90505b801561171d576000846121306001846130c3565b8151811061214e57634e487b7160e01b600052603260045260246000fd5b60200260200101519050600085838151811061217a57634e487b7160e01b600052603260045260246000fd5b6020026020010151905060008760018561219491906130c3565b602081106121b257634e487b7160e01b600052603260045260246000fd5b1a60f81b7fff0000000000000000000000000000000000000000000000000000000000000016156121ec576121e783836123a6565b6121f6565b6121f683836124cd565b905080856122056001876130c3565b8151811061222357634e487b7160e01b600052603260045260246000fd5b602002602001019073ffffffffffffffffffffffffffffffffffffffff16908173ffffffffffffffffffffffffffffffffffffffff168152505060008061226b8386866125b9565b915091506122a188878151811061229257634e487b7160e01b600052603260045260246000fd5b60200260200101518383612aac565b886122ad6001896130c3565b815181106122cb57634e487b7160e01b600052603260045260246000fd5b602002602001018181525050505050505080806122e7906130da565b91505061211c565b838560008151811061231157634e487b7160e01b600052603260045260246000fd5b60200260200101511115611b11576040517f08c379a0000000000000000000000000000000000000000000000000000000008152602060048201526024808201527f4d617267696e526f757465723a204558434553534956455f494e5055545f414d60448201527f4f554e540000000000000000000000000000000000000000000000000000000060648201526084016103cb565b60008060006123b58585612c06565b60408051606084811b7fffffffffffffffffffffffffffffffffffffffff0000000000000000000000009081166020808501919091529185901b166034830152825160288184030181526048830190935282519201919091207fff0000000000000000000000000000000000000000000000000000000000000060688301527fc0aee478e3658e2610c5f7a4a2e1777ce9e4f2ac0000000000000000000000006069830152607d8201527fe18a34eb0e04b04f7a0ac29a6e80748dca96319b42c54d679cb821dca90c6303609d820152919350915060bd015b604080517fffffffffffffffffffffffffffffffffffffffffffffffffffffffffffffffe0818403018152919052805160209091012095945050505050565b60008060006124dc8585612c06565b60408051606084811b7fffffffffffffffffffffffffffffffffffffffff0000000000000000000000009081166020808501919091529185901b166034830152825160288184030181526048830190935282519201919091207fff0000000000000000000000000000000000000000000000000000000000000060688301527f5c69bee701ef814a2b6a3edd4b1652cb9cc5aa6f0000000000000000000000006069830152607d8201527f96e8ac4277198ff8b6f785478aa9a39f403cb768dd02cbee326c3e7da348845f609d820152919350915060bd0161248e565b60008060006125c88585612c06565b5090506000808773ffffffffffffffffffffffffffffffffffffffff16630902f1ac6040518163ffffffff1660e01b815260040160606040518083038186803b15801561261457600080fd5b505afa158015612628573d6000803e3d6000fd5b505050506040513d601f19601f8201168201806040525081019061264c9190612e1d565b506dffffffffffffffffffffffffffff1691506dffffffffffffffffffffffffffff1691508273ffffffffffffffffffffffffffffffffffffffff168773ffffffffffffffffffffffffffffffffffffffff16146126ab5780826126ae565b81815b90999098509650505050505050565b6000808411612728576040517f08c379a000000000000000000000000000000000000000000000000000000000815260206004820152601960248201527f494e53554646494349454e545f494e5055545f414d4f554e540000000000000060448201526064016103cb565b6000831180156127385750600082115b6127c4576040517f08c379a000000000000000000000000000000000000000000000000000000000815260206004820152602860248201527f556e697377617056324c6962726172793a20494e53554646494349454e545f4c60448201527f495155494449545900000000000000000000000000000000000000000000000060648201526084016103cb565b60006127d2856103e5613086565b905060006127e08483613086565b90506000826127f1876103e8613086565b6127fb919061304e565b90506128078183613066565b979650505050505050565b606560009081526020527f4a7203f705e51df4a56139a9b86b4a0970bed7ab7a3446eaffe2289989c1645c5473ffffffffffffffffffffffffffffffffffffffff1690565b60005b8351811015611a465760008084838151811061288657634e487b7160e01b600052603260045260246000fd5b60200260200101518584600161289c919061304e565b815181106128ba57634e487b7160e01b600052603260045260246000fd5b60200260200101519150915060006128d28383612c06565b5090506000886128e386600161304e565b8151811061290157634e487b7160e01b600052603260045260246000fd5b602002602001015190506000808373ffffffffffffffffffffffffffffffffffffffff168673ffffffffffffffffffffffffffffffffffffffff16146129495782600061294d565b6000835b91509150600060018b5161296191906130c3565b881061296d57886129a0565b8a61297989600161304e565b8151811061299757634e487b7160e01b600052603260045260246000fd5b60200260200101515b905060008b89815181106129c457634e487b7160e01b600052603260045260246000fd5b602002602001015190508073ffffffffffffffffffffffffffffffffffffffff1663022c0d9f858585600067ffffffffffffffff811115612a1557634e487b7160e01b600052604160045260246000fd5b6040519080825280601f01601f191660200182016040528015612a3f576020820181803683370190505b506040518563ffffffff1660e01b8152600401612a5f9493929190612fb1565b600060405180830381600087803b158015612a7957600080fd5b505af1158015612a8d573d6000803e3d6000fd5b5050505050505050505050508080612aa49061310f565b91505061285a565b6000808411612b17576040517f08c379a000000000000000000000000000000000000000000000000000000000815260206004820152601a60248201527f494e53554646494349454e545f4f55545055545f414d4f554e5400000000000060448201526064016103cb565b600083118015612b275750600082115b612bb3576040517f08c379a000000000000000000000000000000000000000000000000000000000815260206004820152602860248201527f556e697377617056324c6962726172793a20494e53554646494349454e545f4c60448201527f495155494449545900000000000000000000000000000000000000000000000060648201526084016103cb565b6000612bbf8585613086565b612bcb906103e8613086565b90506000612bd986856130c3565b612be5906103e5613086565b9050612bf18183613066565b612bfc90600161304e565b9695505050505050565b6000808273ffffffffffffffffffffffffffffffffffffffff168473ffffffffffffffffffffffffffffffffffffffff161415612c9f576040517f08c379a000000000000000000000000000000000000000000000000000000000815260206004820152601260248201527f4964656e746963616c206164647265737321000000000000000000000000000060448201526064016103cb565b8273ffffffffffffffffffffffffffffffffffffffff168473ffffffffffffffffffffffffffffffffffffffff1610612cd9578284612cdc565b83835b909250905073ffffffffffffffffffffffffffffffffffffffff8216612d5e576040517f08c379a000000000000000000000000000000000000000000000000000000000815260206004820152600d60248201527f5a65726f2061646472657373210000000000000000000000000000000000000060448201526064016103cb565b9250929050565b8035612d708161315e565b919050565b80516dffffffffffffffffffffffffffff81168114612d7057600080fd5b600060208284031215612da4578081fd5b8135612daf8161315e565b9392505050565b600060208284031215612dc7578081fd5b8151612daf8161315e565b60008060408385031215612de4578081fd5b8235612def8161315e565b946020939093013593505050565b600060208284031215612e0e578081fd5b81518015158114612daf578182fd5b600080600060608486031215612e31578081fd5b612e3a84612d75565b9250612e4860208501612d75565b9150604084015163ffffffff81168114612e60578182fd5b809150509250925092565b600060208284031215612e7c578081fd5b5035919050565b60008060408385031215612e95578182fd5b823591506020830135612ea78161315e565b809150509250929050565b60008060008060008060008060006101008a8c031215612ed0578485fd5b8935985060208a0135975060408a0135965060608a013567ffffffffffffffff80821115612efc578687fd5b818c0191508c601f830112612f0f578687fd5b813581811115612f1d578788fd5b8d60208260051b8501011115612f31578788fd5b602083019850809750505050612f4960808b01612d65565b935060a08a0135925060c08a0135915060e08a013590509295985092959850929598565b6020808252825182820181905260009190848201906040850190845b81811015612fa557835183529284019291840191600101612f89565b50909695505050505050565b60008582526020858184015273ffffffffffffffffffffffffffffffffffffffff85166040840152608060608401528351806080850152825b818110156130065785810183015185820160a001528201612fea565b81811115613017578360a083870101525b50601f017fffffffffffffffffffffffffffffffffffffffffffffffffffffffffffffffe0169290920160a0019695505050505050565b6000821982111561306157613061613148565b500190565b60008261308157634e487b7160e01b81526012600452602481fd5b500490565b6000817fffffffffffffffffffffffffffffffffffffffffffffffffffffffffffffffff04831182151516156130be576130be613148565b500290565b6000828210156130d5576130d5613148565b500390565b6000816130e9576130e9613148565b507fffffffffffffffffffffffffffffffffffffffffffffffffffffffffffffffff0190565b60007fffffffffffffffffffffffffffffffffffffffffffffffffffffffffffffffff82141561314157613141613148565b5060010190565b634e487b7160e01b600052601160045260246000fd5b73ffffffffffffffffffffffffffffffffffffffff8116811461318057600080fd5b5056fea26469706673582212209138d7b3a4ac995a490e0e1397b40dee2bfc0bd68e41428240c0b67002a8aaa764736f6c63430008030033",
  "linkReferences": {},
  "deployedLinkReferences": {}
}