{
  "_format": "hh-sol-artifact-1",
  "contractName": "Fund",
  "sourceName": "contracts/Fund.sol",
  "abi": [
    {
      "inputs": [
        {
          "internalType": "address",
          "name": "_WETH",
          "type": "address"
        },
        {
          "internalType": "address",
          "name": "_roles",
          "type": "address"
        }
      ],
      "stateMutability": "nonpayable",
      "type": "constructor"
    },
    {
      "inputs": [],
      "name": "WETH",
      "outputs": [
        {
          "internalType": "address",
          "name": "",
          "type": "address"
        }
      ],
      "stateMutability": "view",
      "type": "function"
    },
    {
      "inputs": [
        {
          "internalType": "address",
          "name": "depositToken",
          "type": "address"
        },
        {
          "internalType": "uint256",
          "name": "depositAmount",
          "type": "uint256"
        }
      ],
      "name": "deposit",
      "outputs": [],
      "stateMutability": "nonpayable",
      "type": "function"
    },
    {
      "inputs": [
        {
          "internalType": "address",
          "name": "sender",
          "type": "address"
        },
        {
          "internalType": "address",
          "name": "depositToken",
          "type": "address"
        },
        {
          "internalType": "uint256",
          "name": "depositAmount",
          "type": "uint256"
        }
      ],
      "name": "depositFor",
      "outputs": [],
      "stateMutability": "nonpayable",
      "type": "function"
    },
    {
      "inputs": [],
      "name": "depositToWETH",
      "outputs": [],
      "stateMutability": "payable",
      "type": "function"
    },
    {
      "inputs": [
        {
          "internalType": "uint256",
          "name": "",
          "type": "uint256"
        }
      ],
      "name": "mainCharacterCache",
      "outputs": [
        {
          "internalType": "address",
          "name": "",
          "type": "address"
        }
      ],
      "stateMutability": "view",
      "type": "function"
    },
    {
      "inputs": [
        {
          "internalType": "address",
          "name": "",
          "type": "address"
        },
        {
          "internalType": "uint256",
          "name": "",
          "type": "uint256"
        }
      ],
      "name": "roleCache",
      "outputs": [
        {
          "internalType": "bool",
          "name": "",
          "type": "bool"
        }
      ],
      "stateMutability": "view",
      "type": "function"
    },
    {
      "inputs": [],
      "name": "roles",
      "outputs": [
        {
          "internalType": "contract Roles",
          "name": "",
          "type": "address"
        }
      ],
      "stateMutability": "view",
      "type": "function"
    },
    {
      "inputs": [
        {
          "internalType": "uint256",
          "name": "role",
          "type": "uint256"
        }
      ],
      "name": "updateMainCharacterCache",
      "outputs": [],
      "stateMutability": "nonpayable",
      "type": "function"
    },
    {
      "inputs": [
        {
          "internalType": "uint256",
          "name": "role",
          "type": "uint256"
        },
        {
          "internalType": "address",
          "name": "contr",
          "type": "address"
        }
      ],
      "name": "updateRoleCache",
      "outputs": [],
      "stateMutability": "nonpayable",
      "type": "function"
    },
    {
      "inputs": [
        {
          "internalType": "address",
          "name": "withdrawalToken",
          "type": "address"
        },
        {
          "internalType": "address",
          "name": "recipient",
          "type": "address"
        },
        {
          "internalType": "uint256",
          "name": "withdrawalAmount",
          "type": "uint256"
        }
      ],
      "name": "withdraw",
      "outputs": [],
      "stateMutability": "nonpayable",
      "type": "function"
    },
    {
      "inputs": [
        {
          "internalType": "address",
          "name": "recipient",
          "type": "address"
        },
        {
          "internalType": "uint256",
          "name": "withdrawalAmount",
          "type": "uint256"
        }
      ],
      "name": "withdrawETH",
      "outputs": [],
      "stateMutability": "nonpayable",
      "type": "function"
    }
  ],
  "bytecode": "0x60c060405234801561001057600080fd5b50604051610fde380380610fde83398101604081905261002f916100d3565b806001600160a01b0381166100955760405162461bcd60e51b815260206004820152602260248201527f506c656173652070726f766964652076616c696420726f6c6573206164647265604482015261737360f01b606482015260840160405180910390fd5b6001600160601b0319606091821b811660805292901b90911660a05250610105565b80516001600160a01b03811681146100ce57600080fd5b919050565b600080604083850312156100e5578182fd5b6100ee836100b7565b91506100fc602084016100b7565b90509250929050565b60805160601c60a05160601c610e9361014b6000396000818161020601528181610583015261062601526000818160f5015281816102da01526104080152610e936000f3fe6080604052600436106100bc5760003560e01c80637a1a04df11610074578063b3db428b1161004e578063b3db428b14610228578063d9caed1214610248578063e9c3f77d14610268576100bc565b80637a1a04df146101a1578063a6a5f9fe146101ec578063ad5c4648146101f4576100bc565b8063447d52ba116100a5578063447d52ba146101415780634782f7791461016157806347e7ef2414610181576100bc565b8063071060a6146100c1578063392f5f64146100e3575b600080fd5b3480156100cd57600080fd5b506100e16100dc366004610d58565b6102ab565b005b3480156100ef57600080fd5b506101177f000000000000000000000000000000000000000000000000000000000000000081565b60405173ffffffffffffffffffffffffffffffffffffffff90911681526020015b60405180910390f35b34801561014d57600080fd5b506100e161015c366004610d70565b6103bc565b34801561016d57600080fd5b506100e161017c366004610d0d565b6104e5565b34801561018d57600080fd5b506100e161019c366004610d0d565b610602565b3480156101ad57600080fd5b506101dc6101bc366004610d0d565b600160209081526000928352604080842090915290825290205460ff1681565b6040519015158152602001610138565b6100e1610624565b34801561020057600080fd5b506101177f000000000000000000000000000000000000000000000000000000000000000081565b34801561023457600080fd5b506100e1610243366004610ccd565b6106a7565b34801561025457600080fd5b506100e1610263366004610ccd565b610738565b34801561027457600080fd5b50610117610283366004610d58565b60006020819052908152604090205473ffffffffffffffffffffffffffffffffffffffff1681565b6040517fb4ed0b6d000000000000000000000000000000000000000000000000000000008152600481018290527f000000000000000000000000000000000000000000000000000000000000000073ffffffffffffffffffffffffffffffffffffffff169063b4ed0b6d9060240160206040518083038186803b15801561033157600080fd5b505afa158015610345573d6000803e3d6000fd5b505050506040513d601f19601f820116820180604052508101906103699190610cb1565b60009182526020829052604090912080547fffffffffffffffffffffffff00000000000000000000000000000000000000001673ffffffffffffffffffffffffffffffffffffffff909216919091179055565b6040517f93552a3d0000000000000000000000000000000000000000000000000000000081526004810183905273ffffffffffffffffffffffffffffffffffffffff82811660248301527f000000000000000000000000000000000000000000000000000000000000000016906393552a3d9060440160206040518083038186803b15801561044a57600080fd5b505afa15801561045e573d6000803e3d6000fd5b505050506040513d601f19601f820116820180604052508101906104829190610d38565b73ffffffffffffffffffffffffffffffffffffffff9190911660009081526001602090815260408083209483529390529190912080547fffffffffffffffffffffffffffffffffffffffffffffffffffffffffffffff0016911515919091179055565b33600090815260016020818152604080842092845291905290205460ff166105545760405162461bcd60e51b815260206004820152601560248201527f556e617574686f72697a6564207769746864726177000000000000000000000060448201526064015b60405180910390fd5b6040517f2e1a7d4d000000000000000000000000000000000000000000000000000000008152600481018290527f000000000000000000000000000000000000000000000000000000000000000073ffffffffffffffffffffffffffffffffffffffff1690632e1a7d4d90602401600060405180830381600087803b1580156105dc57600080fd5b505af11580156105f0573d6000803e3d6000fd5b505050506105fe82826107c3565b5050565b6105fe73ffffffffffffffffffffffffffffffffffffffff83163330846108e9565b7f000000000000000000000000000000000000000000000000000000000000000073ffffffffffffffffffffffffffffffffffffffff1663d0e30db0346040518263ffffffff1660e01b81526004016000604051808303818588803b15801561068c57600080fd5b505af11580156106a0573d6000803e3d6000fd5b5050505050565b33600090815260016020818152604080842092845291905290205460ff166107115760405162461bcd60e51b815260206004820152601460248201527f556e617574686f72697a6564206465706f736974000000000000000000000000604482015260640161054b565b61073373ffffffffffffffffffffffffffffffffffffffff83168430846108e9565b505050565b33600090815260016020818152604080842092845291905290205460ff166107a25760405162461bcd60e51b815260206004820152601560248201527f556e617574686f72697a65642077697468647261770000000000000000000000604482015260640161054b565b61073373ffffffffffffffffffffffffffffffffffffffff841683836109cb565b804710156108135760405162461bcd60e51b815260206004820152601d60248201527f416464726573733a20696e73756666696369656e742062616c616e6365000000604482015260640161054b565b60008273ffffffffffffffffffffffffffffffffffffffff168260405160006040518083038185875af1925050503d806000811461086d576040519150601f19603f3d011682016040523d82523d6000602084013e610872565b606091505b50509050806107335760405162461bcd60e51b815260206004820152603a60248201527f416464726573733a20756e61626c6520746f2073656e642076616c75652c207260448201527f6563697069656e74206d61792068617665207265766572746564000000000000606482015260840161054b565b60405173ffffffffffffffffffffffffffffffffffffffff808516602483015283166044820152606481018290526109c59085907f23b872dd00000000000000000000000000000000000000000000000000000000906084015b604080517fffffffffffffffffffffffffffffffffffffffffffffffffffffffffffffffe08184030181529190526020810180517bffffffffffffffffffffffffffffffffffffffffffffffffffffffff167fffffffff0000000000000000000000000000000000000000000000000000000090931692909217909152610a21565b50505050565b60405173ffffffffffffffffffffffffffffffffffffffff83166024820152604481018290526107339084907fa9059cbb0000000000000000000000000000000000000000000000000000000090606401610943565b6000610a83826040518060400160405280602081526020017f5361666545524332303a206c6f772d6c6576656c2063616c6c206661696c65648152508573ffffffffffffffffffffffffffffffffffffffff16610b139092919063ffffffff16565b8051909150156107335780806020019051810190610aa19190610d38565b6107335760405162461bcd60e51b815260206004820152602a60248201527f5361666545524332303a204552433230206f7065726174696f6e20646964206e60448201527f6f74207375636365656400000000000000000000000000000000000000000000606482015260840161054b565b6060610b228484600085610b2c565b90505b9392505050565b606082471015610ba45760405162461bcd60e51b815260206004820152602660248201527f416464726573733a20696e73756666696369656e742062616c616e636520666f60448201527f722063616c6c0000000000000000000000000000000000000000000000000000606482015260840161054b565b843b610bf25760405162461bcd60e51b815260206004820152601d60248201527f416464726573733a2063616c6c20746f206e6f6e2d636f6e7472616374000000604482015260640161054b565b6000808673ffffffffffffffffffffffffffffffffffffffff168587604051610c1b9190610d9f565b60006040518083038185875af1925050503d8060008114610c58576040519150601f19603f3d011682016040523d82523d6000602084013e610c5d565b606091505b5091509150610c6d828286610c78565b979650505050505050565b60608315610c87575081610b25565b825115610c975782518084602001fd5b8160405162461bcd60e51b815260040161054b9190610dbb565b600060208284031215610cc2578081fd5b8151610b2581610e38565b600080600060608486031215610ce1578182fd5b8335610cec81610e38565b92506020840135610cfc81610e38565b929592945050506040919091013590565b60008060408385031215610d1f578182fd5b8235610d2a81610e38565b946020939093013593505050565b600060208284031215610d49578081fd5b81518015158114610b25578182fd5b600060208284031215610d69578081fd5b5035919050565b60008060408385031215610d82578182fd5b823591506020830135610d9481610e38565b809150509250929050565b60008251610db1818460208701610e0c565b9190910192915050565b6000602082528251806020840152610dda816040850160208701610e0c565b601f017fffffffffffffffffffffffffffffffffffffffffffffffffffffffffffffffe0169190910160400192915050565b60005b83811015610e27578181015183820152602001610e0f565b838111156109c55750506000910152565b73ffffffffffffffffffffffffffffffffffffffff81168114610e5a57600080fd5b5056fea2646970667358221220bbc9d6d6ac66d659da8d592d75743f7b9610c22d5fea01ef045b15ebcb3a70c064736f6c63430008030033",
  "linkReferences": {},
  "deployedLinkReferences": {}
}