{
  "_format": "hh-sol-artifact-1",
  "contractName": "Fund",
  "sourceName": "contracts/Fund.sol",
  "abi": [
    {
      "inputs": [
        {
          "internalType": "address",
          "name": "_WETH",
          "type": "address"
        },
        {
          "internalType": "address",
          "name": "_roles",
          "type": "address"
        }
      ],
      "stateMutability": "nonpayable",
      "type": "constructor"
    },
    {
      "inputs": [],
      "name": "WETH",
      "outputs": [
        {
          "internalType": "address",
          "name": "",
          "type": "address"
        }
      ],
      "stateMutability": "view",
      "type": "function"
    },
    {
      "inputs": [
        {
          "internalType": "address",
          "name": "depositToken",
          "type": "address"
        },
        {
          "internalType": "uint256",
          "name": "depositAmount",
          "type": "uint256"
        }
      ],
      "name": "deposit",
      "outputs": [],
      "stateMutability": "nonpayable",
      "type": "function"
    },
    {
      "inputs": [
        {
          "internalType": "address",
          "name": "sender",
          "type": "address"
        },
        {
          "internalType": "address",
          "name": "depositToken",
          "type": "address"
        },
        {
          "internalType": "uint256",
          "name": "depositAmount",
          "type": "uint256"
        }
      ],
      "name": "depositFor",
      "outputs": [],
      "stateMutability": "nonpayable",
      "type": "function"
    },
    {
      "inputs": [],
      "name": "depositToWETH",
      "outputs": [],
      "stateMutability": "payable",
      "type": "function"
    },
    {
      "inputs": [
        {
          "internalType": "uint256",
          "name": "",
          "type": "uint256"
        }
      ],
      "name": "mainCharacterCache",
      "outputs": [
        {
          "internalType": "address",
          "name": "",
          "type": "address"
        }
      ],
      "stateMutability": "view",
      "type": "function"
    },
    {
      "inputs": [
        {
          "internalType": "address",
          "name": "",
          "type": "address"
        },
        {
          "internalType": "uint256",
          "name": "",
          "type": "uint256"
        }
      ],
      "name": "roleCache",
      "outputs": [
        {
          "internalType": "bool",
          "name": "",
          "type": "bool"
        }
      ],
      "stateMutability": "view",
      "type": "function"
    },
    {
      "inputs": [],
      "name": "roles",
      "outputs": [
        {
          "internalType": "contract Roles",
          "name": "",
          "type": "address"
        }
      ],
      "stateMutability": "view",
      "type": "function"
    },
    {
      "inputs": [
        {
          "internalType": "uint256",
          "name": "role",
          "type": "uint256"
        }
      ],
      "name": "updateMainCharacterCache",
      "outputs": [],
      "stateMutability": "nonpayable",
      "type": "function"
    },
    {
      "inputs": [
        {
          "internalType": "uint256",
          "name": "role",
          "type": "uint256"
        },
        {
          "internalType": "address",
          "name": "contr",
          "type": "address"
        }
      ],
      "name": "updateRoleCache",
      "outputs": [],
      "stateMutability": "nonpayable",
      "type": "function"
    },
    {
      "inputs": [
        {
          "internalType": "address",
          "name": "withdrawalToken",
          "type": "address"
        },
        {
          "internalType": "address",
          "name": "recipient",
          "type": "address"
        },
        {
          "internalType": "uint256",
          "name": "withdrawalAmount",
          "type": "uint256"
        }
      ],
      "name": "withdraw",
      "outputs": [],
      "stateMutability": "nonpayable",
      "type": "function"
    },
    {
      "inputs": [
        {
          "internalType": "address",
          "name": "recipient",
          "type": "address"
        },
        {
          "internalType": "uint256",
          "name": "withdrawalAmount",
          "type": "uint256"
        }
      ],
      "name": "withdrawETH",
      "outputs": [],
      "stateMutability": "nonpayable",
      "type": "function"
    }
  ],
  "bytecode": "0x60c060405234801561001057600080fd5b50604051610d6c380380610d6c83398101604081905261002f916100d3565b806001600160a01b0381166100955760405162461bcd60e51b815260206004820152602260248201527f506c656173652070726f766964652076616c696420726f6c6573206164647265604482015261737360f01b606482015260840160405180910390fd5b6001600160601b0319606091821b811660805292901b90911660a05250610105565b80516001600160a01b03811681146100ce57600080fd5b919050565b600080604083850312156100e5578182fd5b6100ee836100b7565b91506100fc602084016100b7565b90509250929050565b60805160601c60a05160601c610c2161014b600039600081816101d901528181610477015261050001526000818160d501528181610287015261035d0152610c216000f3fe60806040526004361061009c5760003560e01c80637a1a04df116100645780637a1a04df14610174578063a6a5f9fe146101bf578063ad5c4648146101c7578063b3db428b146101fb578063d9caed121461021b578063e9c3f77d1461023b5761009c565b8063071060a6146100a1578063392f5f64146100c3578063447d52ba146101145780634782f7791461013457806347e7ef2414610154575b600080fd5b3480156100ad57600080fd5b506100c16100bc366004610b11565b610271565b005b3480156100cf57600080fd5b506100f77f000000000000000000000000000000000000000000000000000000000000000081565b6040516001600160a01b0390911681526020015b60405180910390f35b34801561012057600080fd5b506100c161012f366004610b29565b610337565b34801561014057600080fd5b506100c161014f366004610ac6565b61040f565b34801561016057600080fd5b506100c161016f366004610ac6565b6104e9565b34801561018057600080fd5b506101af61018f366004610ac6565b600160209081526000928352604080842090915290825290205460ff1681565b604051901515815260200161010b565b6100c16104fe565b3480156101d357600080fd5b506100f77f000000000000000000000000000000000000000000000000000000000000000081565b34801561020757600080fd5b506100c1610216366004610a86565b610574565b34801561022757600080fd5b506100c1610236366004610a86565b6105da565b34801561024757600080fd5b506100f7610256366004610b11565b6000602081905290815260409020546001600160a01b031681565b60405163b4ed0b6d60e01b8152600481018290527f00000000000000000000000000000000000000000000000000000000000000006001600160a01b03169063b4ed0b6d9060240160206040518083038186803b1580156102d157600080fd5b505afa1580156102e5573d6000803e3d6000fd5b505050506040513d601f19601f820116820180604052508101906103099190610a6a565b60009182526020829052604090912080546001600160a01b0319166001600160a01b03909216919091179055565b6040516393552a3d60e01b8152600481018390526001600160a01b0382811660248301527f000000000000000000000000000000000000000000000000000000000000000016906393552a3d9060440160206040518083038186803b15801561039f57600080fd5b505afa1580156103b3573d6000803e3d6000fd5b505050506040513d601f19601f820116820180604052508101906103d79190610af1565b6001600160a01b0391909116600090815260016020908152604080832094835293905291909120805460ff1916911515919091179055565b6104183361063b565b6104615760405162461bcd60e51b8152602060048201526015602482015274556e617574686f72697a656420776974686472617760581b60448201526064015b60405180910390fd5b604051632e1a7d4d60e01b8152600481018290527f00000000000000000000000000000000000000000000000000000000000000006001600160a01b031690632e1a7d4d90602401600060405180830381600087803b1580156104c357600080fd5b505af11580156104d7573d6000803e3d6000fd5b505050506104e58282610664565b5050565b6104e56001600160a01b03831633308461077d565b7f00000000000000000000000000000000000000000000000000000000000000006001600160a01b031663d0e30db0346040518263ffffffff1660e01b81526004016000604051808303818588803b15801561055957600080fd5b505af115801561056d573d6000803e3d6000fd5b5050505050565b61057d3361063b565b6105c05760405162461bcd60e51b8152602060048201526014602482015273155b985d5d1a1bdc9a5e99590819195c1bdcda5d60621b6044820152606401610458565b6105d56001600160a01b03831684308461077d565b505050565b6105e33361063b565b6106275760405162461bcd60e51b8152602060048201526015602482015274556e617574686f72697a656420776974686472617760581b6044820152606401610458565b6105d56001600160a01b03841683836107ee565b6001600160a01b0316600090815260016020818152604080842092845291905290205460ff1690565b804710156106b45760405162461bcd60e51b815260206004820152601d60248201527f416464726573733a20696e73756666696369656e742062616c616e63650000006044820152606401610458565b6000826001600160a01b03168260405160006040518083038185875af1925050503d8060008114610701576040519150601f19603f3d011682016040523d82523d6000602084013e610706565b606091505b50509050806105d55760405162461bcd60e51b815260206004820152603a60248201527f416464726573733a20756e61626c6520746f2073656e642076616c75652c207260448201527f6563697069656e74206d617920686176652072657665727465640000000000006064820152608401610458565b6040516001600160a01b03808516602483015283166044820152606481018290526107e89085906323b872dd60e01b906084015b60408051601f198184030181529190526020810180516001600160e01b03166001600160e01b03199093169290921790915261081e565b50505050565b6040516001600160a01b0383166024820152604481018290526105d590849063a9059cbb60e01b906064016107b1565b6000610873826040518060400160405280602081526020017f5361666545524332303a206c6f772d6c6576656c2063616c6c206661696c6564815250856001600160a01b03166108f09092919063ffffffff16565b8051909150156105d557808060200190518101906108919190610af1565b6105d55760405162461bcd60e51b815260206004820152602a60248201527f5361666545524332303a204552433230206f7065726174696f6e20646964206e6044820152691bdd081cdd58d8d9595960b21b6064820152608401610458565b60606108ff8484600085610909565b90505b9392505050565b60608247101561096a5760405162461bcd60e51b815260206004820152602660248201527f416464726573733a20696e73756666696369656e742062616c616e636520666f6044820152651c8818d85b1b60d21b6064820152608401610458565b843b6109b85760405162461bcd60e51b815260206004820152601d60248201527f416464726573733a2063616c6c20746f206e6f6e2d636f6e74726163740000006044820152606401610458565b600080866001600160a01b031685876040516109d49190610b58565b60006040518083038185875af1925050503d8060008114610a11576040519150601f19603f3d011682016040523d82523d6000602084013e610a16565b606091505b5091509150610a26828286610a31565b979650505050505050565b60608315610a40575081610902565b825115610a505782518084602001fd5b8160405162461bcd60e51b81526004016104589190610b74565b600060208284031215610a7b578081fd5b815161090281610bd3565b600080600060608486031215610a9a578182fd5b8335610aa581610bd3565b92506020840135610ab581610bd3565b929592945050506040919091013590565b60008060408385031215610ad8578182fd5b8235610ae381610bd3565b946020939093013593505050565b600060208284031215610b02578081fd5b81518015158114610902578182fd5b600060208284031215610b22578081fd5b5035919050565b60008060408385031215610b3b578182fd5b823591506020830135610b4d81610bd3565b809150509250929050565b60008251610b6a818460208701610ba7565b9190910192915050565b6000602082528251806020840152610b93816040850160208701610ba7565b601f01601f19169190910160400192915050565b60005b83811015610bc2578181015183820152602001610baa565b838111156107e85750506000910152565b6001600160a01b0381168114610be857600080fd5b5056fea2646970667358221220575d6628a14934102ff7e5afe7fdfbf6f27535ce0d50ca231cd060d1cb7906ab64736f6c63430008030033",
  "linkReferences": {},
  "deployedLinkReferences": {}
}