{
  "_format": "hh-sol-artifact-1",
  "contractName": "Fund",
  "sourceName": "contracts/Fund.sol",
  "abi": [
    {
      "inputs": [
        {
          "internalType": "address",
          "name": "_WETH",
          "type": "address"
        },
        {
          "internalType": "address",
          "name": "_roles",
          "type": "address"
        }
      ],
      "stateMutability": "nonpayable",
      "type": "constructor"
    },
    {
      "inputs": [],
      "name": "WETH",
      "outputs": [
        {
          "internalType": "address",
          "name": "",
          "type": "address"
        }
      ],
      "stateMutability": "view",
      "type": "function"
    },
    {
      "inputs": [
        {
          "internalType": "address",
          "name": "depositToken",
          "type": "address"
        },
        {
          "internalType": "uint256",
          "name": "depositAmount",
          "type": "uint256"
        }
      ],
      "name": "deposit",
      "outputs": [],
      "stateMutability": "nonpayable",
      "type": "function"
    },
    {
      "inputs": [
        {
          "internalType": "address",
          "name": "sender",
          "type": "address"
        },
        {
          "internalType": "address",
          "name": "depositToken",
          "type": "address"
        },
        {
          "internalType": "uint256",
          "name": "depositAmount",
          "type": "uint256"
        }
      ],
      "name": "depositFor",
      "outputs": [],
      "stateMutability": "nonpayable",
      "type": "function"
    },
    {
      "inputs": [],
      "name": "depositToWETH",
      "outputs": [],
      "stateMutability": "payable",
      "type": "function"
    },
    {
      "inputs": [
        {
          "internalType": "uint256",
          "name": "",
          "type": "uint256"
        }
      ],
      "name": "mainCharacterCache",
      "outputs": [
        {
          "internalType": "address",
          "name": "",
          "type": "address"
        }
      ],
      "stateMutability": "view",
      "type": "function"
    },
    {
      "inputs": [
        {
          "internalType": "address",
          "name": "",
          "type": "address"
        },
        {
          "internalType": "uint256",
          "name": "",
          "type": "uint256"
        }
      ],
      "name": "roleCache",
      "outputs": [
        {
          "internalType": "bool",
          "name": "",
          "type": "bool"
        }
      ],
      "stateMutability": "view",
      "type": "function"
    },
    {
      "inputs": [],
      "name": "roles",
      "outputs": [
        {
          "internalType": "contract Roles",
          "name": "",
          "type": "address"
        }
      ],
      "stateMutability": "view",
      "type": "function"
    },
    {
      "inputs": [
        {
          "internalType": "uint256",
          "name": "role",
          "type": "uint256"
        }
      ],
      "name": "updateMainCharacterCache",
      "outputs": [],
      "stateMutability": "nonpayable",
      "type": "function"
    },
    {
      "inputs": [
        {
          "internalType": "uint256",
          "name": "role",
          "type": "uint256"
        },
        {
          "internalType": "address",
          "name": "contr",
          "type": "address"
        }
      ],
      "name": "updateRoleCache",
      "outputs": [],
      "stateMutability": "nonpayable",
      "type": "function"
    },
    {
      "inputs": [
        {
          "internalType": "address",
          "name": "withdrawalToken",
          "type": "address"
        },
        {
          "internalType": "address",
          "name": "recipient",
          "type": "address"
        },
        {
          "internalType": "uint256",
          "name": "withdrawalAmount",
          "type": "uint256"
        }
      ],
      "name": "withdraw",
      "outputs": [],
      "stateMutability": "nonpayable",
      "type": "function"
    },
    {
      "inputs": [
        {
          "internalType": "address",
          "name": "recipient",
          "type": "address"
        },
        {
          "internalType": "uint256",
          "name": "withdrawalAmount",
          "type": "uint256"
        }
      ],
      "name": "withdrawETH",
      "outputs": [],
      "stateMutability": "nonpayable",
      "type": "function"
    }
  ],
  "bytecode": "0x60c060405234801561001057600080fd5b50604051610ef3380380610ef383398101604081905261002f916100d3565b806001600160a01b0381166100955760405162461bcd60e51b815260206004820152602260248201527f506c656173652070726f766964652076616c696420726f6c6573206164647265604482015261737360f01b606482015260840160405180910390fd5b6001600160601b0319606091821b811660805292901b90911660a05250610105565b80516001600160a01b03811681146100ce57600080fd5b919050565b600080604083850312156100e5578182fd5b6100ee836100b7565b91506100fc602084016100b7565b90509250929050565b60805160601c60a05160601c610da861014b600039600081816101f90152818161051701526105a001526000818160f5015281816102c001526103c70152610da86000f3fe6080604052600436106100bc5760003560e01c80637a1a04df11610074578063b3db428b1161004e578063b3db428b1461021b578063d9caed121461023b578063e9c3f77d1461025b576100bc565b80637a1a04df14610194578063a6a5f9fe146101df578063ad5c4648146101e7576100bc565b8063447d52ba116100a5578063447d52ba146101345780634782f7791461015457806347e7ef2414610174576100bc565b8063071060a6146100c1578063392f5f64146100e3575b600080fd5b3480156100cd57600080fd5b506100e16100dc366004610c98565b610291565b005b3480156100ef57600080fd5b506101177f000000000000000000000000000000000000000000000000000000000000000081565b6040516001600160a01b0390911681526020015b60405180910390f35b34801561014057600080fd5b506100e161014f366004610cb0565b610388565b34801561016057600080fd5b506100e161016f366004610c4d565b610479565b34801561018057600080fd5b506100e161018f366004610c4d565b610589565b3480156101a057600080fd5b506101cf6101af366004610c4d565b600160209081526000928352604080842090915290825290205460ff1681565b604051901515815260200161012b565b6100e161059e565b3480156101f357600080fd5b506101177f000000000000000000000000000000000000000000000000000000000000000081565b34801561022757600080fd5b506100e1610236366004610c0d565b610614565b34801561024757600080fd5b506100e1610256366004610c0d565b6106be565b34801561026757600080fd5b50610117610276366004610c98565b6000602081905290815260409020546001600160a01b031681565b6040517fb4ed0b6d000000000000000000000000000000000000000000000000000000008152600481018290527f00000000000000000000000000000000000000000000000000000000000000006001600160a01b03169063b4ed0b6d9060240160206040518083038186803b15801561030a57600080fd5b505afa15801561031e573d6000803e3d6000fd5b505050506040513d601f19601f820116820180604052508101906103429190610bf1565b60009182526020829052604090912080547fffffffffffffffffffffffff0000000000000000000000000000000000000000166001600160a01b03909216919091179055565b6040517f93552a3d000000000000000000000000000000000000000000000000000000008152600481018390526001600160a01b0382811660248301527f000000000000000000000000000000000000000000000000000000000000000016906393552a3d9060440160206040518083038186803b15801561040957600080fd5b505afa15801561041d573d6000803e3d6000fd5b505050506040513d601f19601f820116820180604052508101906104419190610c78565b6001600160a01b0391909116600090815260016020908152604080832094835293905291909120805460ff1916911515919091179055565b33600090815260016020818152604080842092845291905290205460ff166104e85760405162461bcd60e51b815260206004820152601a60248201527f4e6f7420617574686f72697a656420746f20776974686472617700000000000060448201526064015b60405180910390fd5b6040517f2e1a7d4d000000000000000000000000000000000000000000000000000000008152600481018290527f00000000000000000000000000000000000000000000000000000000000000006001600160a01b031690632e1a7d4d90602401600060405180830381600087803b15801561056357600080fd5b505af1158015610577573d6000803e3d6000fd5b505050506105858282610762565b5050565b6105856001600160a01b03831633308461087b565b7f00000000000000000000000000000000000000000000000000000000000000006001600160a01b031663d0e30db0346040518263ffffffff1660e01b81526004016000604051808303818588803b1580156105f957600080fd5b505af115801561060d573d6000803e3d6000fd5b5050505050565b33600090815260016020818152604080842092845291905290205460ff166106a45760405162461bcd60e51b815260206004820152602b60248201527f436f6e7472616374206e6f7420617574686f72697a656420746f206465706f7360448201527f697420666f72207573657200000000000000000000000000000000000000000060648201526084016104df565b6106b96001600160a01b03831684308461087b565b505050565b33600090815260016020818152604080842092845291905290205460ff1661074e5760405162461bcd60e51b815260206004820152602360248201527f436f6e7472616374206e6f7420617574686f72697a656420746f20776974686460448201527f726177000000000000000000000000000000000000000000000000000000000060648201526084016104df565b6106b96001600160a01b0384168383610932565b804710156107b25760405162461bcd60e51b815260206004820152601d60248201527f416464726573733a20696e73756666696369656e742062616c616e636500000060448201526064016104df565b6000826001600160a01b03168260405160006040518083038185875af1925050503d80600081146107ff576040519150601f19603f3d011682016040523d82523d6000602084013e610804565b606091505b50509050806106b95760405162461bcd60e51b815260206004820152603a60248201527f416464726573733a20756e61626c6520746f2073656e642076616c75652c207260448201527f6563697069656e74206d6179206861766520726576657274656400000000000060648201526084016104df565b6040516001600160a01b038085166024830152831660448201526064810182905261092c9085907f23b872dd00000000000000000000000000000000000000000000000000000000906084015b60408051601f198184030181529190526020810180517bffffffffffffffffffffffffffffffffffffffffffffffffffffffff167fffffffff000000000000000000000000000000000000000000000000000000009093169290921790915261097b565b50505050565b6040516001600160a01b0383166024820152604481018290526106b99084907fa9059cbb00000000000000000000000000000000000000000000000000000000906064016108c8565b60006109d0826040518060400160405280602081526020017f5361666545524332303a206c6f772d6c6576656c2063616c6c206661696c6564815250856001600160a01b0316610a609092919063ffffffff16565b8051909150156106b957808060200190518101906109ee9190610c78565b6106b95760405162461bcd60e51b815260206004820152602a60248201527f5361666545524332303a204552433230206f7065726174696f6e20646964206e60448201527f6f7420737563636565640000000000000000000000000000000000000000000060648201526084016104df565b6060610a6f8484600085610a79565b90505b9392505050565b606082471015610af15760405162461bcd60e51b815260206004820152602660248201527f416464726573733a20696e73756666696369656e742062616c616e636520666f60448201527f722063616c6c000000000000000000000000000000000000000000000000000060648201526084016104df565b843b610b3f5760405162461bcd60e51b815260206004820152601d60248201527f416464726573733a2063616c6c20746f206e6f6e2d636f6e747261637400000060448201526064016104df565b600080866001600160a01b03168587604051610b5b9190610cdf565b60006040518083038185875af1925050503d8060008114610b98576040519150601f19603f3d011682016040523d82523d6000602084013e610b9d565b606091505b5091509150610bad828286610bb8565b979650505050505050565b60608315610bc7575081610a72565b825115610bd75782518084602001fd5b8160405162461bcd60e51b81526004016104df9190610cfb565b600060208284031215610c02578081fd5b8151610a7281610d5a565b600080600060608486031215610c21578182fd5b8335610c2c81610d5a565b92506020840135610c3c81610d5a565b929592945050506040919091013590565b60008060408385031215610c5f578182fd5b8235610c6a81610d5a565b946020939093013593505050565b600060208284031215610c89578081fd5b81518015158114610a72578182fd5b600060208284031215610ca9578081fd5b5035919050565b60008060408385031215610cc2578182fd5b823591506020830135610cd481610d5a565b809150509250929050565b60008251610cf1818460208701610d2e565b9190910192915050565b6000602082528251806020840152610d1a816040850160208701610d2e565b601f01601f19169190910160400192915050565b60005b83811015610d49578181015183820152602001610d31565b8381111561092c5750506000910152565b6001600160a01b0381168114610d6f57600080fd5b5056fea26469706673582212203f61a35e43356c0644f51201b0a1a87bc0a6e13f4b71c622d9295a3a8c8e812e64736f6c63430008030033",
  "linkReferences": {},
  "deployedLinkReferences": {}
}