{
  "_format": "hh-sol-artifact-1",
  "contractName": "SpotRouter",
  "sourceName": "contracts/SpotRouter.sol",
  "abi": [
    {
      "inputs": [
        {
          "internalType": "address",
          "name": "_WETH",
          "type": "address"
        },
        {
          "internalType": "address",
          "name": "_amm1Factory",
          "type": "address"
        },
        {
          "internalType": "address",
          "name": "_amm2Factory",
          "type": "address"
        },
        {
          "internalType": "address",
          "name": "_amm3Factory",
          "type": "address"
        },
        {
          "internalType": "bytes32",
          "name": "_amm1InitHash",
          "type": "bytes32"
        },
        {
          "internalType": "bytes32",
          "name": "_amm2InitHash",
          "type": "bytes32"
        },
        {
          "internalType": "bytes32",
          "name": "_amm3InitHash",
          "type": "bytes32"
        },
        {
          "internalType": "uint256",
          "name": "_feeBase",
          "type": "uint256"
        }
      ],
      "stateMutability": "nonpayable",
      "type": "constructor"
    },
    {
      "anonymous": false,
      "inputs": [
        {
          "indexed": true,
          "internalType": "address",
          "name": "trader",
          "type": "address"
        },
        {
          "indexed": false,
          "internalType": "address",
          "name": "fromToken",
          "type": "address"
        },
        {
          "indexed": false,
          "internalType": "address",
          "name": "toToken",
          "type": "address"
        },
        {
          "indexed": false,
          "internalType": "uint256",
          "name": "fromAmount",
          "type": "uint256"
        },
        {
          "indexed": false,
          "internalType": "uint256",
          "name": "toAmount",
          "type": "uint256"
        }
      ],
      "name": "SpotTrade",
      "type": "event"
    },
    {
      "inputs": [],
      "name": "WETH",
      "outputs": [
        {
          "internalType": "address",
          "name": "",
          "type": "address"
        }
      ],
      "stateMutability": "view",
      "type": "function"
    },
    {
      "inputs": [],
      "name": "amm1Factory",
      "outputs": [
        {
          "internalType": "address",
          "name": "",
          "type": "address"
        }
      ],
      "stateMutability": "view",
      "type": "function"
    },
    {
      "inputs": [],
      "name": "amm1InitHash",
      "outputs": [
        {
          "internalType": "bytes32",
          "name": "",
          "type": "bytes32"
        }
      ],
      "stateMutability": "view",
      "type": "function"
    },
    {
      "inputs": [],
      "name": "amm2Factory",
      "outputs": [
        {
          "internalType": "address",
          "name": "",
          "type": "address"
        }
      ],
      "stateMutability": "view",
      "type": "function"
    },
    {
      "inputs": [],
      "name": "amm2InitHash",
      "outputs": [
        {
          "internalType": "bytes32",
          "name": "",
          "type": "bytes32"
        }
      ],
      "stateMutability": "view",
      "type": "function"
    },
    {
      "inputs": [],
      "name": "amm3Factory",
      "outputs": [
        {
          "internalType": "address",
          "name": "",
          "type": "address"
        }
      ],
      "stateMutability": "view",
      "type": "function"
    },
    {
      "inputs": [],
      "name": "amm3InitHash",
      "outputs": [
        {
          "internalType": "bytes32",
          "name": "",
          "type": "bytes32"
        }
      ],
      "stateMutability": "view",
      "type": "function"
    },
    {
      "inputs": [],
      "name": "feeBase",
      "outputs": [
        {
          "internalType": "uint256",
          "name": "",
          "type": "uint256"
        }
      ],
      "stateMutability": "view",
      "type": "function"
    },
    {
      "inputs": [
        {
          "internalType": "uint256",
          "name": "outAmount",
          "type": "uint256"
        },
        {
          "internalType": "bytes32",
          "name": "amms",
          "type": "bytes32"
        },
        {
          "internalType": "address[]",
          "name": "tokens",
          "type": "address[]"
        }
      ],
      "name": "getAmountsIn",
      "outputs": [
        {
          "internalType": "uint256[]",
          "name": "amounts",
          "type": "uint256[]"
        }
      ],
      "stateMutability": "view",
      "type": "function"
    },
    {
      "inputs": [
        {
          "internalType": "uint256",
          "name": "inAmount",
          "type": "uint256"
        },
        {
          "internalType": "bytes32",
          "name": "amms",
          "type": "bytes32"
        },
        {
          "internalType": "address[]",
          "name": "tokens",
          "type": "address[]"
        }
      ],
      "name": "getAmountsOut",
      "outputs": [
        {
          "internalType": "uint256[]",
          "name": "amounts",
          "type": "uint256[]"
        }
      ],
      "stateMutability": "view",
      "type": "function"
    },
    {
      "inputs": [
        {
          "internalType": "uint256",
          "name": "amountOut",
          "type": "uint256"
        },
        {
          "internalType": "bytes32",
          "name": "amms",
          "type": "bytes32"
        },
        {
          "internalType": "address[]",
          "name": "tokens",
          "type": "address[]"
        },
        {
          "internalType": "address",
          "name": "to",
          "type": "address"
        },
        {
          "internalType": "uint256",
          "name": "deadline",
          "type": "uint256"
        }
      ],
      "name": "swapETHForExactTokens",
      "outputs": [
        {
          "internalType": "uint256[]",
          "name": "amounts",
          "type": "uint256[]"
        }
      ],
      "stateMutability": "payable",
      "type": "function"
    },
    {
      "inputs": [
        {
          "internalType": "uint256",
          "name": "amountOutMin",
          "type": "uint256"
        },
        {
          "internalType": "bytes32",
          "name": "amms",
          "type": "bytes32"
        },
        {
          "internalType": "address[]",
          "name": "tokens",
          "type": "address[]"
        },
        {
          "internalType": "address",
          "name": "to",
          "type": "address"
        },
        {
          "internalType": "uint256",
          "name": "deadline",
          "type": "uint256"
        }
      ],
      "name": "swapExactETHForTokens",
      "outputs": [
        {
          "internalType": "uint256[]",
          "name": "amounts",
          "type": "uint256[]"
        }
      ],
      "stateMutability": "payable",
      "type": "function"
    },
    {
      "inputs": [
        {
          "internalType": "uint256",
          "name": "amountIn",
          "type": "uint256"
        },
        {
          "internalType": "uint256",
          "name": "amountOutMin",
          "type": "uint256"
        },
        {
          "internalType": "bytes32",
          "name": "amms",
          "type": "bytes32"
        },
        {
          "internalType": "address[]",
          "name": "tokens",
          "type": "address[]"
        },
        {
          "internalType": "address",
          "name": "to",
          "type": "address"
        },
        {
          "internalType": "uint256",
          "name": "deadline",
          "type": "uint256"
        }
      ],
      "name": "swapExactTokensForETH",
      "outputs": [
        {
          "internalType": "uint256[]",
          "name": "amounts",
          "type": "uint256[]"
        }
      ],
      "stateMutability": "nonpayable",
      "type": "function"
    },
    {
      "inputs": [
        {
          "internalType": "uint256",
          "name": "amountIn",
          "type": "uint256"
        },
        {
          "internalType": "uint256",
          "name": "amountOutMin",
          "type": "uint256"
        },
        {
          "internalType": "bytes32",
          "name": "amms",
          "type": "bytes32"
        },
        {
          "internalType": "address[]",
          "name": "tokens",
          "type": "address[]"
        },
        {
          "internalType": "address",
          "name": "to",
          "type": "address"
        },
        {
          "internalType": "uint256",
          "name": "deadline",
          "type": "uint256"
        }
      ],
      "name": "swapExactTokensForTokens",
      "outputs": [
        {
          "internalType": "uint256[]",
          "name": "amounts",
          "type": "uint256[]"
        }
      ],
      "stateMutability": "nonpayable",
      "type": "function"
    },
    {
      "inputs": [
        {
          "internalType": "uint256",
          "name": "amountOut",
          "type": "uint256"
        },
        {
          "internalType": "uint256",
          "name": "amountInMax",
          "type": "uint256"
        },
        {
          "internalType": "bytes32",
          "name": "amms",
          "type": "bytes32"
        },
        {
          "internalType": "address[]",
          "name": "tokens",
          "type": "address[]"
        },
        {
          "internalType": "address",
          "name": "to",
          "type": "address"
        },
        {
          "internalType": "uint256",
          "name": "deadline",
          "type": "uint256"
        }
      ],
      "name": "swapTokensForExactETH",
      "outputs": [
        {
          "internalType": "uint256[]",
          "name": "amounts",
          "type": "uint256[]"
        }
      ],
      "stateMutability": "nonpayable",
      "type": "function"
    },
    {
      "inputs": [
        {
          "internalType": "uint256",
          "name": "amountOut",
          "type": "uint256"
        },
        {
          "internalType": "uint256",
          "name": "amountInMax",
          "type": "uint256"
        },
        {
          "internalType": "bytes32",
          "name": "amms",
          "type": "bytes32"
        },
        {
          "internalType": "address[]",
          "name": "tokens",
          "type": "address[]"
        },
        {
          "internalType": "address",
          "name": "to",
          "type": "address"
        },
        {
          "internalType": "uint256",
          "name": "deadline",
          "type": "uint256"
        }
      ],
      "name": "swapTokensForExactTokens",
      "outputs": [
        {
          "internalType": "uint256[]",
          "name": "amounts",
          "type": "uint256[]"
        }
      ],
      "stateMutability": "nonpayable",
      "type": "function"
    },
    {
      "stateMutability": "payable",
      "type": "receive"
    }
  ],
  "bytecode": "0x6101206040523480156200001257600080fd5b50604051620031bf380380620031bf833981016040819052620000359162000092565b6001600160601b0319606097881b811660805295871b861660a05293861b851660c05260009290925560015560025560e05291901b166101005262000115565b80516001600160a01b03811681146200008d57600080fd5b919050565b600080600080600080600080610100898b031215620000af578384fd5b620000ba8962000075565b9750620000ca60208a0162000075565b9650620000da60408a0162000075565b9550620000ea60608a0162000075565b94506080890151935060a0890151925060c0890151915060e089015190509295985092959890939650565b60805160601c60a05160601c60c05160601c60e0516101005160601c612ff0620001cf60003960008181610107015281816102b10152818161040f0152818161069401528181610c4901528181610e7901528181611020015281816110bc015281816113800152818161151c01526115b8015260008181610239015281816126a501526129ca01526000818161035f015261226c01526000818161015b015261238001526000818161030501526124550152612ff06000f3fe6080604052600436106100f75760003560e01c8063ad5c46481161008a578063d7bd007c11610059578063d7bd007c1461033a578063db4292351461034d578063df7c20f914610381578063e2abb5c41461039757610144565b8063ad5c46481461029f578063b7453e27146102d3578063b852eb0d146102f3578063d51dc2541461032757610144565b80637f4da6d4116100c65780637f4da6d41461020757806395e911a8146102275780639b6b1ce714610269578063a75208a81461028957610144565b8063059b157a146101495780632c8c29dd1461019a57806336e1437b146101c7578063799d34e1146101e757610144565b3661014457336001600160a01b037f0000000000000000000000000000000000000000000000000000000000000000161461014257634e487b7160e01b600052600160045260246000fd5b005b600080fd5b34801561015557600080fd5b5061017d7f000000000000000000000000000000000000000000000000000000000000000081565b6040516001600160a01b0390911681526020015b60405180910390f35b3480156101a657600080fd5b506101ba6101b5366004612d74565b6103ad565b6040516101919190612e53565b3480156101d357600080fd5b506101ba6101e2366004612d74565b6108c0565b3480156101f357600080fd5b506101ba610202366004612cb5565b610a69565b34801561021357600080fd5b506101ba610222366004612d74565b610ab3565b34801561023357600080fd5b5061025b7f000000000000000000000000000000000000000000000000000000000000000081565b604051908152602001610191565b34801561027557600080fd5b506101ba610284366004612d74565b610bec565b34801561029557600080fd5b5061025b60005481565b3480156102ab57600080fd5b5061017d7f000000000000000000000000000000000000000000000000000000000000000081565b3480156102df57600080fd5b506101ba6102ee366004612cb5565b610de4565b3480156102ff57600080fd5b5061017d7f000000000000000000000000000000000000000000000000000000000000000081565b6101ba610335366004612d06565b610e24565b6101ba610348366004612d06565b61132b565b34801561035957600080fd5b5061017d7f000000000000000000000000000000000000000000000000000000000000000081565b34801561038d57600080fd5b5061025b60015481565b3480156103a357600080fd5b5061025b60025481565b606081428110156104055760405162461bcd60e51b815260206004820152601160248201527f547261646520686173206578706972656400000000000000000000000000000060448201526064015b60405180910390fd5b6001600160a01b037f000000000000000000000000000000000000000000000000000000000000000016868661043c600182612f2f565b81811061045957634e487b7160e01b600052603260045260246000fd5b905060200201602081019061046e9190612c2d565b6001600160a01b0316146104c45760405162461bcd60e51b815260206004820152601860248201527f53706f74526f757465723a20494e56414c49445f50415448000000000000000060448201526064016103fc565b60606105048a8989898080602002602001604051908101604052809392919081815260200183836020028082843760009201919091525061178192505050565b815191945091508990849061051b90600190612f2f565b8151811061053957634e487b7160e01b600052603260045260246000fd5b602002602001015110156105b55760405162461bcd60e51b815260206004820152602660248201527f53706f74526f757465723a20494e53554646494349454e545f4f55545055545f60448201527f414d4f554e54000000000000000000000000000000000000000000000000000060648201526084016103fc565b61065233826000815181106105da57634e487b7160e01b600052603260045260246000fd5b60200260200101518560008151811061060357634e487b7160e01b600052603260045260246000fd5b60200260200101518a8a600081811061062c57634e487b7160e01b600052603260045260246000fd5b90506020020160208101906106419190612c2d565b6001600160a01b0316929190611ad7565b6106928382898980806020026020016040519081016040528093929190818152602001838360200280828437600092019190915250309250611b65915050565b7f00000000000000000000000000000000000000000000000000000000000000006001600160a01b0316632e1a7d4d84600186516106d09190612f2f565b815181106106ee57634e487b7160e01b600052603260045260246000fd5b60200260200101516040518263ffffffff1660e01b815260040161071491815260200190565b600060405180830381600087803b15801561072e57600080fd5b505af1158015610742573d6000803e3d6000fd5b505050506107848584600186516107599190612f2f565b8151811061077757634e487b7160e01b600052603260045260246000fd5b6020026020010151611d9a565b337f83488e4733b2f3ed20b8189f656b48646559d07db7be658c641f0d8bfec2b0f988886000816107c557634e487b7160e01b600052603260045260246000fd5b90506020020160208101906107da9190612c2d565b89896107e7600182612f2f565b81811061080457634e487b7160e01b600052603260045260246000fd5b90506020020160208101906108199190612c2d565b8660008151811061083a57634e487b7160e01b600052603260045260246000fd5b602002602001015187600189516108519190612f2f565b8151811061086f57634e487b7160e01b600052603260045260246000fd5b60200260200101516040516108ab94939291906001600160a01b0394851681529290931660208301526040820152606081019190915260800190565b60405180910390a25050979650505050505050565b606081428110156109135760405162461bcd60e51b815260206004820152601160248201527f547261646520686173206578706972656400000000000000000000000000000060448201526064016103fc565b60606109538a8989898080602002602001604051908101604052809392919081815260200183836020028082843760009201919091525061178192505050565b815191945091508990849061096a90600190612f2f565b8151811061098857634e487b7160e01b600052603260045260246000fd5b60200260200101511015610a045760405162461bcd60e51b815260206004820152602660248201527f53706f74526f757465723a20494e53554646494349454e545f4f55545055545f60448201527f414d4f554e54000000000000000000000000000000000000000000000000000060648201526084016103fc565b610a2933826000815181106105da57634e487b7160e01b600052603260045260246000fd5b61078483828989808060200260200160405190810160405280939291908181526020018383602002808284376000920191909152508b9250611b65915050565b6060610aa98585858580806020026020016040519081016040528093929190818152602001838360200280828437600092019190915250611eb892505050565b5095945050505050565b60608142811015610b065760405162461bcd60e51b815260206004820152601160248201527f547261646520686173206578706972656400000000000000000000000000000060448201526064016103fc565b6060610b468a89898980806020026020016040519081016040528093929190818152602001838360200280828437600092019190915250611eb892505050565b80925081945050508883600081518110610b7057634e487b7160e01b600052603260045260246000fd5b60200260200101511115610a045760405162461bcd60e51b815260206004820152602260248201527f53706f74526f757465723a204558434553534956455f494e5055545f414d4f5560448201527f4e5400000000000000000000000000000000000000000000000000000000000060648201526084016103fc565b60608142811015610c3f5760405162461bcd60e51b815260206004820152601160248201527f547261646520686173206578706972656400000000000000000000000000000060448201526064016103fc565b6001600160a01b037f0000000000000000000000000000000000000000000000000000000000000000168686610c76600182612f2f565b818110610c9357634e487b7160e01b600052603260045260246000fd5b9050602002016020810190610ca89190612c2d565b6001600160a01b031614610cfe5760405162461bcd60e51b815260206004820152601860248201527f53706f74526f757465723a20494e56414c49445f50415448000000000000000060448201526064016103fc565b6060610d3e8a89898980806020026020016040519081016040528093929190818152602001838360200280828437600092019190915250611eb892505050565b80925081945050508883600081518110610d6857634e487b7160e01b600052603260045260246000fd5b602002602001015111156105b55760405162461bcd60e51b815260206004820152602260248201527f53706f74526f757465723a204558434553534956455f494e5055545f414d4f5560448201527f4e5400000000000000000000000000000000000000000000000000000000000060648201526084016103fc565b6060610aa9858585858080602002602001604051908101604052809392919081815260200183836020028082843760009201919091525061178192505050565b60608142811015610e775760405162461bcd60e51b815260206004820152601160248201527f547261646520686173206578706972656400000000000000000000000000000060448201526064016103fc565b7f00000000000000000000000000000000000000000000000000000000000000006001600160a01b031686866000818110610ec257634e487b7160e01b600052603260045260246000fd5b9050602002016020810190610ed79190612c2d565b6001600160a01b031614610f2d5760405162461bcd60e51b815260206004820152601860248201527f53706f74526f757465723a20494e56414c49445f50415448000000000000000060448201526064016103fc565b6060610f6d348989898080602002602001604051908101604052809392919081815260200183836020028082843760009201919091525061178192505050565b8151919450915089908490610f8490600190612f2f565b81518110610fa257634e487b7160e01b600052603260045260246000fd5b6020026020010151101561101e5760405162461bcd60e51b815260206004820152602660248201527f53706f74526f757465723a20494e53554646494349454e545f4f55545055545f60448201527f414d4f554e54000000000000000000000000000000000000000000000000000060648201526084016103fc565b7f00000000000000000000000000000000000000000000000000000000000000006001600160a01b031663d0e30db08460008151811061106e57634e487b7160e01b600052603260045260246000fd5b60200260200101516040518263ffffffff1660e01b81526004016000604051808303818588803b1580156110a157600080fd5b505af11580156110b5573d6000803e3d6000fd5b50505050507f00000000000000000000000000000000000000000000000000000000000000006001600160a01b031663a9059cbb8260008151811061110a57634e487b7160e01b600052603260045260246000fd5b6020026020010151346040518363ffffffff1660e01b81526004016111449291906001600160a01b03929092168252602082015260400190565b602060405180830381600087803b15801561115e57600080fd5b505af1158015611172573d6000803e3d6000fd5b505050506040513d601f19601f820116820180604052508101906111969190612c47565b6111b057634e487b7160e01b600052600160045260246000fd5b6111f083828989808060200260200160405190810160405280939291908181526020018383602002808284376000920191909152508b9250611b65915050565b337f83488e4733b2f3ed20b8189f656b48646559d07db7be658c641f0d8bfec2b0f9888860008161123157634e487b7160e01b600052603260045260246000fd5b90506020020160208101906112469190612c2d565b8989611253600182612f2f565b81811061127057634e487b7160e01b600052603260045260246000fd5b90506020020160208101906112859190612c2d565b866000815181106112a657634e487b7160e01b600052603260045260246000fd5b602002602001015187600189516112bd9190612f2f565b815181106112db57634e487b7160e01b600052603260045260246000fd5b602002602001015160405161131794939291906001600160a01b0394851681529290931660208301526040820152606081019190915260800190565b60405180910390a250509695505050505050565b6060814281101561137e5760405162461bcd60e51b815260206004820152601160248201527f547261646520686173206578706972656400000000000000000000000000000060448201526064016103fc565b7f00000000000000000000000000000000000000000000000000000000000000006001600160a01b0316868660008181106113c957634e487b7160e01b600052603260045260246000fd5b90506020020160208101906113de9190612c2d565b6001600160a01b0316146114345760405162461bcd60e51b815260206004820152601860248201527f53706f74526f757465723a20494e56414c49445f50415448000000000000000060448201526064016103fc565b60606114748989898980806020026020016040519081016040528093929190818152602001838360200280828437600092019190915250611eb892505050565b8092508194505050348360008151811061149e57634e487b7160e01b600052603260045260246000fd5b6020026020010151111561151a5760405162461bcd60e51b815260206004820152602260248201527f53706f74526f757465723a204558434553534956455f494e5055545f414d4f5560448201527f4e5400000000000000000000000000000000000000000000000000000000000060648201526084016103fc565b7f00000000000000000000000000000000000000000000000000000000000000006001600160a01b031663d0e30db08460008151811061156a57634e487b7160e01b600052603260045260246000fd5b60200260200101516040518263ffffffff1660e01b81526004016000604051808303818588803b15801561159d57600080fd5b505af11580156115b1573d6000803e3d6000fd5b50505050507f00000000000000000000000000000000000000000000000000000000000000006001600160a01b031663a9059cbb8260008151811061160657634e487b7160e01b600052603260045260246000fd5b60200260200101518560008151811061162f57634e487b7160e01b600052603260045260246000fd5b60200260200101516040518363ffffffff1660e01b81526004016116689291906001600160a01b03929092168252602082015260400190565b602060405180830381600087803b15801561168257600080fd5b505af1158015611696573d6000803e3d6000fd5b505050506040513d601f19601f820116820180604052508101906116ba9190612c47565b6116d457634e487b7160e01b600052600160045260246000fd5b61171483828989808060200260200160405190810160405280939291908181526020018383602002808284376000920191909152508b9250611b65915050565b8260008151811061173557634e487b7160e01b600052603260045260246000fd5b60200260200101513411156111f0576111f0338460008151811061176957634e487b7160e01b600052603260045260246000fd5b60200260200101513461177c9190612f2f565b611d9a565b6060806002835110156117d65760405162461bcd60e51b815260206004820152601460248201527f746f6b656e207061746820746f6f2073686f727400000000000000000000000060448201526064016103fc565b825167ffffffffffffffff8111156117fe57634e487b7160e01b600052604160045260246000fd5b604051908082528060200260200182016040528015611827578160200160208202803683370190505b509150848260008151811061184c57634e487b7160e01b600052603260045260246000fd5b602002602001018181525050600183516118669190612f2f565b67ffffffffffffffff81111561188c57634e487b7160e01b600052604160045260246000fd5b6040519080825280602002602001820160405280156118b5578160200160208202803683370190505b50905060005b600184516118c99190612f2f565b811015611ace5760008482815181106118f257634e487b7160e01b600052603260045260246000fd5b6020026020010151905060008583600161190c9190612ed8565b8151811061192a57634e487b7160e01b600052603260045260246000fd5b60200260200101519050600087846020811061195657634e487b7160e01b600052603260045260246000fd5b1a60f81b7fff0000000000000000000000000000000000000000000000000000000000000016156119ef578784602081106119a157634e487b7160e01b600052603260045260246000fd5b1a60f81b7effffffffffffffffffffffffffffffffffffffffffffffffffffffffffffff1916600160f81b146119e0576119db8383612230565b6119ea565b6119ea8383612344565b6119f9565b6119f98383612419565b905080858581518110611a1c57634e487b7160e01b600052603260045260246000fd5b60200260200101906001600160a01b031690816001600160a01b031681525050600080611a4a8386866124ee565b91509150611a80888781518110611a7157634e487b7160e01b600052603260045260246000fd5b602002602001015183836125cb565b88611a8c886001612ed8565b81518110611aaa57634e487b7160e01b600052603260045260246000fd5b60200260200101818152505050505050508080611ac690612f89565b9150506118bb565b50935093915050565b604080516001600160a01b0385811660248301528416604482015260648082018490528251808303909101815260849091019091526020810180517bffffffffffffffffffffffffffffffffffffffffffffffffffffffff167f23b872dd00000000000000000000000000000000000000000000000000000000179052611b5f90859061270a565b50505050565b60005b8351811015611d9357600080848381518110611b9457634e487b7160e01b600052603260045260246000fd5b602002602001015185846001611baa9190612ed8565b81518110611bc857634e487b7160e01b600052603260045260246000fd5b6020026020010151915091506000611be083836127ef565b509050600088611bf1866001612ed8565b81518110611c0f57634e487b7160e01b600052603260045260246000fd5b60200260200101519050600080836001600160a01b0316866001600160a01b031614611c3d57826000611c41565b6000835b91509150600060018b51611c559190612f2f565b8810611c615788611c94565b8a611c6d896001612ed8565b81518110611c8b57634e487b7160e01b600052603260045260246000fd5b60200260200101515b905060008b8981518110611cb857634e487b7160e01b600052603260045260246000fd5b60200260200101519050806001600160a01b031663022c0d9f858585600067ffffffffffffffff811115611cfc57634e487b7160e01b600052604160045260246000fd5b6040519080825280601f01601f191660200182016040528015611d26576020820181803683370190505b506040518563ffffffff1660e01b8152600401611d469493929190612eaa565b600060405180830381600087803b158015611d6057600080fd5b505af1158015611d74573d6000803e3d6000fd5b5050505050505050505050508080611d8b90612f89565b915050611b68565b5050505050565b80471015611dea5760405162461bcd60e51b815260206004820152601d60248201527f416464726573733a20696e73756666696369656e742062616c616e636500000060448201526064016103fc565b6000826001600160a01b03168260405160006040518083038185875af1925050503d8060008114611e37576040519150601f19603f3d011682016040523d82523d6000602084013e611e3c565b606091505b5050905080611eb35760405162461bcd60e51b815260206004820152603a60248201527f416464726573733a20756e61626c6520746f2073656e642076616c75652c207260448201527f6563697069656e74206d6179206861766520726576657274656400000000000060648201526084016103fc565b505050565b606080600283511015611f0d5760405162461bcd60e51b815260206004820152601460248201527f746f6b656e207061746820746f6f2073686f727400000000000000000000000060448201526064016103fc565b825167ffffffffffffffff811115611f3557634e487b7160e01b600052604160045260246000fd5b604051908082528060200260200182016040528015611f5e578160200160208202803683370190505b509150848260018451611f719190612f2f565b81518110611f8f57634e487b7160e01b600052603260045260246000fd5b60200260200101818152505060018351611fa99190612f2f565b67ffffffffffffffff811115611fcf57634e487b7160e01b600052604160045260246000fd5b604051908082528060200260200182016040528015611ff8578160200160208202803683370190505b50905060006001845161200b9190612f2f565b90505b8015611ace57600084612022600184612f2f565b8151811061204057634e487b7160e01b600052603260045260246000fd5b60200260200101519050600085838151811061206c57634e487b7160e01b600052603260045260246000fd5b602002602001015190506000876001856120869190612f2f565b602081106120a457634e487b7160e01b600052603260045260246000fd5b1a60f81b7fff00000000000000000000000000000000000000000000000000000000000000161561214757876120db600186612f2f565b602081106120f957634e487b7160e01b600052603260045260246000fd5b1a60f81b7effffffffffffffffffffffffffffffffffffffffffffffffffffffffffffff1916600160f81b14612138576121338383612230565b612142565b6121428383612344565b612151565b6121518383612419565b90508085612160600187612f2f565b8151811061217e57634e487b7160e01b600052603260045260246000fd5b60200260200101906001600160a01b031690816001600160a01b0316815250506000806121ac8386866124ee565b915091506121e28887815181106121d357634e487b7160e01b600052603260045260246000fd5b602002602001015183836128d9565b886121ee600189612f2f565b8151811061220c57634e487b7160e01b600052603260045260246000fd5b6020026020010181815250505050505050808061222890612f72565b91505061200e565b600080600061223f85856127ef565b6040516bffffffffffffffffffffffff19606084811b8216602084015283901b16603482015291935091507f00000000000000000000000000000000000000000000000000000000000000009060480160405160208183030381529060405280519060200120600254604051602001612305939291907fff00000000000000000000000000000000000000000000000000000000000000815260609390931b6bffffffffffffffffffffffff191660018401526015830191909152603582015260550190565b604080517fffffffffffffffffffffffffffffffffffffffffffffffffffffffffffffffe0818403018152919052805160209091012095945050505050565b600080600061235385856127ef565b6040516bffffffffffffffffffffffff19606084811b8216602084015283901b16603482015291935091507f00000000000000000000000000000000000000000000000000000000000000009060480160405160208183030381529060405280519060200120600154604051602001612305939291907fff00000000000000000000000000000000000000000000000000000000000000815260609390931b6bffffffffffffffffffffffff191660018401526015830191909152603582015260550190565b600080600061242885856127ef565b6040516bffffffffffffffffffffffff19606084811b8216602084015283901b16603482015291935091507f00000000000000000000000000000000000000000000000000000000000000009060480160405160208183030381529060405280519060200120600054604051602001612305939291907fff00000000000000000000000000000000000000000000000000000000000000815260609390931b6bffffffffffffffffffffffff191660018401526015830191909152603582015260550190565b60008060006124fd85856127ef565b509050600080876001600160a01b0316630902f1ac6040518163ffffffff1660e01b815260040160606040518083038186803b15801561253c57600080fd5b505afa158015612550573d6000803e3d6000fd5b505050506040513d601f19601f820116820180604052508101906125749190612c67565b506dffffffffffffffffffffffffffff1691506dffffffffffffffffffffffffffff169150826001600160a01b0316876001600160a01b0316146125b95780826125bc565b81815b90999098509650505050505050565b600080841161261c5760405162461bcd60e51b815260206004820152601960248201527f494e53554646494349454e545f494e5055545f414d4f554e540000000000000060448201526064016103fc565b60008311801561262c5750600082115b61269e5760405162461bcd60e51b815260206004820152602860248201527f556e697377617056324c6962726172793a20494e53554646494349454e545f4c60448201527f495155494449545900000000000000000000000000000000000000000000000060648201526084016103fc565b60006126ca7f000000000000000000000000000000000000000000000000000000000000000086612f10565b905060006126d88483612f10565b90506000826126e9876103e8612f10565b6126f39190612ed8565b90506126ff8183612ef0565b979650505050505050565b600061275f826040518060400160405280602081526020017f5361666545524332303a206c6f772d6c6576656c2063616c6c206661696c6564815250856001600160a01b0316612a1e9092919063ffffffff16565b805190915015611eb3578080602001905181019061277d9190612c47565b611eb35760405162461bcd60e51b815260206004820152602a60248201527f5361666545524332303a204552433230206f7065726174696f6e20646964206e60448201527f6f7420737563636565640000000000000000000000000000000000000000000060648201526084016103fc565b600080826001600160a01b0316846001600160a01b031614156128545760405162461bcd60e51b815260206004820152601260248201527f4964656e746963616c206164647265737321000000000000000000000000000060448201526064016103fc565b826001600160a01b0316846001600160a01b031610612874578284612877565b83835b90925090506001600160a01b0382166128d25760405162461bcd60e51b815260206004820152600d60248201527f5a65726f2061646472657373210000000000000000000000000000000000000060448201526064016103fc565b9250929050565b600080841161292a5760405162461bcd60e51b815260206004820152601a60248201527f494e53554646494349454e545f4f55545055545f414d4f554e5400000000000060448201526064016103fc565b60008311801561293a5750600082115b6129ac5760405162461bcd60e51b815260206004820152602860248201527f556e697377617056324c6962726172793a20494e53554646494349454e545f4c60448201527f495155494449545900000000000000000000000000000000000000000000000060648201526084016103fc565b60006129b88585612f10565b6129c4906103e8612f10565b905060007f00000000000000000000000000000000000000000000000000000000000000006129f38786612f2f565b6129fd9190612f10565b9050612a098183612ef0565b612a14906001612ed8565b9695505050505050565b6060612a2d8484600085612a37565b90505b9392505050565b606082471015612aaf5760405162461bcd60e51b815260206004820152602660248201527f416464726573733a20696e73756666696369656e742062616c616e636520666f60448201527f722063616c6c000000000000000000000000000000000000000000000000000060648201526084016103fc565b612ab885612b72565b612b045760405162461bcd60e51b815260206004820152601d60248201527f416464726573733a2063616c6c20746f206e6f6e2d636f6e747261637400000060448201526064016103fc565b600080866001600160a01b03168587604051612b209190612e37565b60006040518083038185875af1925050503d8060008114612b5d576040519150601f19603f3d011682016040523d82523d6000602084013e612b62565b606091505b50915091506126ff828286612b7c565b803b15155b919050565b60608315612b8b575081612a30565b825115612b9b5782518084602001fd5b8160405162461bcd60e51b81526004016103fc9190612e97565b80356001600160a01b0381168114612b7757600080fd5b60008083601f840112612bdd578182fd5b50813567ffffffffffffffff811115612bf4578182fd5b6020830191508360208260051b85010111156128d257600080fd5b80516dffffffffffffffffffffffffffff81168114612b7757600080fd5b600060208284031215612c3e578081fd5b612a3082612bb5565b600060208284031215612c58578081fd5b81518015158114612a30578182fd5b600080600060608486031215612c7b578182fd5b612c8484612c0f565b9250612c9260208501612c0f565b9150604084015163ffffffff81168114612caa578182fd5b809150509250925092565b60008060008060608587031215612cca578081fd5b8435935060208501359250604085013567ffffffffffffffff811115612cee578182fd5b612cfa87828801612bcc565b95989497509550505050565b60008060008060008060a08789031215612d1e578182fd5b8635955060208701359450604087013567ffffffffffffffff811115612d42578283fd5b612d4e89828a01612bcc565b9095509350612d61905060608801612bb5565b9150608087013590509295509295509295565b600080600080600080600060c0888a031215612d8e578081fd5b873596506020880135955060408801359450606088013567ffffffffffffffff811115612db9578182fd5b612dc58a828b01612bcc565b9095509350612dd8905060808901612bb5565b915060a0880135905092959891949750929550565b60008151808452612e05816020860160208601612f46565b601f017fffffffffffffffffffffffffffffffffffffffffffffffffffffffffffffffe0169290920160200192915050565b60008251612e49818460208701612f46565b9190910192915050565b6020808252825182820181905260009190848201906040850190845b81811015612e8b57835183529284019291840191600101612e6f565b50909695505050505050565b600060208252612a306020830184612ded565b60008582528460208301526001600160a01b038416604083015260806060830152612a146080830184612ded565b60008219821115612eeb57612eeb612fa4565b500190565b600082612f0b57634e487b7160e01b81526012600452602481fd5b500490565b6000816000190483118215151615612f2a57612f2a612fa4565b500290565b600082821015612f4157612f41612fa4565b500390565b60005b83811015612f61578181015183820152602001612f49565b83811115611b5f5750506000910152565b600081612f8157612f81612fa4565b506000190190565b6000600019821415612f9d57612f9d612fa4565b5060010190565b634e487b7160e01b600052601160045260246000fdfea2646970667358221220b189d7dcde1955ef083a510c4d7331067788dbd9dbd0c6e92fe98dae0de6f9a064736f6c63430008030033",
  "linkReferences": {},
  "deployedLinkReferences": {}
}