{
  "_format": "hh-sol-artifact-1",
  "contractName": "SpotRouter",
  "sourceName": "contracts/SpotRouter.sol",
  "abi": [
    {
      "inputs": [
        {
          "internalType": "address",
          "name": "_WETH",
          "type": "address"
        }
      ],
      "stateMutability": "nonpayable",
      "type": "constructor"
    },
    {
      "inputs": [],
      "name": "WETH",
      "outputs": [
        {
          "internalType": "address",
          "name": "",
          "type": "address"
        }
      ],
      "stateMutability": "view",
      "type": "function"
    },
    {
      "inputs": [
        {
          "internalType": "uint256",
          "name": "outAmount",
          "type": "uint256"
        },
        {
          "internalType": "bytes32",
          "name": "amms",
          "type": "bytes32"
        },
        {
          "internalType": "address[]",
          "name": "tokens",
          "type": "address[]"
        }
      ],
      "name": "getAmountsIn",
      "outputs": [
        {
          "internalType": "uint256[]",
          "name": "amounts",
          "type": "uint256[]"
        }
      ],
      "stateMutability": "view",
      "type": "function"
    },
    {
      "inputs": [
        {
          "internalType": "uint256",
          "name": "inAmount",
          "type": "uint256"
        },
        {
          "internalType": "bytes32",
          "name": "amms",
          "type": "bytes32"
        },
        {
          "internalType": "address[]",
          "name": "tokens",
          "type": "address[]"
        }
      ],
      "name": "getAmountsOut",
      "outputs": [
        {
          "internalType": "uint256[]",
          "name": "amounts",
          "type": "uint256[]"
        }
      ],
      "stateMutability": "view",
      "type": "function"
    },
    {
      "inputs": [
        {
          "internalType": "uint256",
          "name": "amountOut",
          "type": "uint256"
        },
        {
          "internalType": "bytes32",
          "name": "amms",
          "type": "bytes32"
        },
        {
          "internalType": "address[]",
          "name": "tokens",
          "type": "address[]"
        },
        {
          "internalType": "address",
          "name": "to",
          "type": "address"
        },
        {
          "internalType": "uint256",
          "name": "deadline",
          "type": "uint256"
        }
      ],
      "name": "swapETHForExactTokens",
      "outputs": [
        {
          "internalType": "uint256[]",
          "name": "amounts",
          "type": "uint256[]"
        }
      ],
      "stateMutability": "payable",
      "type": "function"
    },
    {
      "inputs": [
        {
          "internalType": "uint256",
          "name": "amountOutMin",
          "type": "uint256"
        },
        {
          "internalType": "bytes32",
          "name": "amms",
          "type": "bytes32"
        },
        {
          "internalType": "address[]",
          "name": "tokens",
          "type": "address[]"
        },
        {
          "internalType": "address",
          "name": "to",
          "type": "address"
        },
        {
          "internalType": "uint256",
          "name": "deadline",
          "type": "uint256"
        }
      ],
      "name": "swapExactETHForTokens",
      "outputs": [
        {
          "internalType": "uint256[]",
          "name": "amounts",
          "type": "uint256[]"
        }
      ],
      "stateMutability": "payable",
      "type": "function"
    },
    {
      "inputs": [
        {
          "internalType": "uint256",
          "name": "amountIn",
          "type": "uint256"
        },
        {
          "internalType": "uint256",
          "name": "amountOutMin",
          "type": "uint256"
        },
        {
          "internalType": "bytes32",
          "name": "amms",
          "type": "bytes32"
        },
        {
          "internalType": "address[]",
          "name": "tokens",
          "type": "address[]"
        },
        {
          "internalType": "address",
          "name": "to",
          "type": "address"
        },
        {
          "internalType": "uint256",
          "name": "deadline",
          "type": "uint256"
        }
      ],
      "name": "swapExactTokensForETH",
      "outputs": [
        {
          "internalType": "uint256[]",
          "name": "amounts",
          "type": "uint256[]"
        }
      ],
      "stateMutability": "nonpayable",
      "type": "function"
    },
    {
      "inputs": [
        {
          "internalType": "uint256",
          "name": "amountIn",
          "type": "uint256"
        },
        {
          "internalType": "uint256",
          "name": "amountOutMin",
          "type": "uint256"
        },
        {
          "internalType": "bytes32",
          "name": "amms",
          "type": "bytes32"
        },
        {
          "internalType": "address[]",
          "name": "tokens",
          "type": "address[]"
        },
        {
          "internalType": "address",
          "name": "to",
          "type": "address"
        },
        {
          "internalType": "uint256",
          "name": "deadline",
          "type": "uint256"
        }
      ],
      "name": "swapExactTokensForTokens",
      "outputs": [
        {
          "internalType": "uint256[]",
          "name": "amounts",
          "type": "uint256[]"
        }
      ],
      "stateMutability": "nonpayable",
      "type": "function"
    },
    {
      "inputs": [
        {
          "internalType": "uint256",
          "name": "amountOut",
          "type": "uint256"
        },
        {
          "internalType": "uint256",
          "name": "amountInMax",
          "type": "uint256"
        },
        {
          "internalType": "bytes32",
          "name": "amms",
          "type": "bytes32"
        },
        {
          "internalType": "address[]",
          "name": "tokens",
          "type": "address[]"
        },
        {
          "internalType": "address",
          "name": "to",
          "type": "address"
        },
        {
          "internalType": "uint256",
          "name": "deadline",
          "type": "uint256"
        }
      ],
      "name": "swapTokensForExactETH",
      "outputs": [
        {
          "internalType": "uint256[]",
          "name": "amounts",
          "type": "uint256[]"
        }
      ],
      "stateMutability": "nonpayable",
      "type": "function"
    },
    {
      "inputs": [
        {
          "internalType": "uint256",
          "name": "amountOut",
          "type": "uint256"
        },
        {
          "internalType": "uint256",
          "name": "amountInMax",
          "type": "uint256"
        },
        {
          "internalType": "bytes32",
          "name": "amms",
          "type": "bytes32"
        },
        {
          "internalType": "address[]",
          "name": "tokens",
          "type": "address[]"
        },
        {
          "internalType": "address",
          "name": "to",
          "type": "address"
        },
        {
          "internalType": "uint256",
          "name": "deadline",
          "type": "uint256"
        }
      ],
      "name": "swapTokensForExactTokens",
      "outputs": [
        {
          "internalType": "uint256[]",
          "name": "amounts",
          "type": "uint256[]"
        }
      ],
      "stateMutability": "nonpayable",
      "type": "function"
    }
  ],
  "bytecode": "0x60a06040523480156200001157600080fd5b50604051620029953803806200299583398101604081905262000034916200004a565b60601b6001600160601b0319166080526200007a565b6000602082840312156200005c578081fd5b81516001600160a01b038116811462000073578182fd5b9392505050565b60805160601c6128bd620000d860003960008181610163015281816102390152818161040a015281816108b201528181610ae001528181610c7001528181610d0c01528181610e950152818161101601526110b201526128bd6000f3fe6080604052600436106100965760003560e01c80639b6b1ce711610069578063b7453e271161004e578063b7453e271461019d578063d51dc254146101bd578063d7bd007c146101d057610096565b80639b6b1ce714610131578063ad5c46481461015157610096565b80632c8c29dd1461009b57806336e1437b146100d1578063799d34e1146100f15780637f4da6d414610111575b600080fd5b3480156100a757600080fd5b506100bb6100b636600461265f565b6101e3565b6040516100c89190612720565b60405180910390f35b3480156100dd57600080fd5b506100bb6100ec36600461265f565b610507565b3480156100fd57600080fd5b506100bb61010c3660046125a0565b610705565b34801561011d57600080fd5b506100bb61012c36600461265f565b61074f565b34801561013d57600080fd5b506100bb61014c36600461265f565b610861565b34801561015d57600080fd5b506101857f000000000000000000000000000000000000000000000000000000000000000081565b6040516001600160a01b0390911681526020016100c8565b3480156101a957600080fd5b506100bb6101b83660046125a0565b610a57565b6100bb6101cb3660046125f1565b610a97565b6100bb6101de3660046125f1565b610e4c565b6060814281101561022f5760405162461bcd60e51b8152602060048201526011602482015270151c985919481a185cc8195e1c1a5c9959607a1b60448201526064015b60405180910390fd5b6001600160a01b037f00000000000000000000000000000000000000000000000000000000000000001686866102666001826127fc565b81811061028357634e487b7160e01b600052603260045260246000fd5b90506020020160208101906102989190612518565b6001600160a01b0316146102ee5760405162461bcd60e51b815260206004820152601860248201527f53706f74526f757465723a20494e56414c49445f5041544800000000000000006044820152606401610226565b606061032e8a8989898080602002602001604051908101604052809392919081815260200183836020028082843760009201919091525061127b92505050565b8151919450915089908490610345906001906127fc565b8151811061036357634e487b7160e01b600052603260045260246000fd5b602002602001015110156103c85760405162461bcd60e51b815260206004820152602660248201527f53706f74526f757465723a20494e53554646494349454e545f4f55545055545f604482015265105353d5539560d21b6064820152608401610226565b610408838289898080602002602001604051908101604052809392919081815260200183836020028082843760009201919091525030925061156b915050565b7f00000000000000000000000000000000000000000000000000000000000000006001600160a01b0316632e1a7d4d846001865161044691906127fc565b8151811061046457634e487b7160e01b600052603260045260246000fd5b60200260200101516040518263ffffffff1660e01b815260040161048a91815260200190565b600060405180830381600087803b1580156104a457600080fd5b505af11580156104b8573d6000803e3d6000fd5b505050506104fa8584600186516104cf91906127fc565b815181106104ed57634e487b7160e01b600052603260045260246000fd5b60200260200101516117a0565b5050979650505050505050565b6060814281101561054e5760405162461bcd60e51b8152602060048201526011602482015270151c985919481a185cc8195e1c1a5c9959607a1b6044820152606401610226565b606061058e8a8989898080602002602001604051908101604052809392919081815260200183836020028082843760009201919091525061127b92505050565b81519194509150899084906105a5906001906127fc565b815181106105c357634e487b7160e01b600052603260045260246000fd5b602002602001015110156106285760405162461bcd60e51b815260206004820152602660248201527f53706f74526f757465723a20494e53554646494349454e545f4f55545055545f604482015265105353d5539560d21b6064820152608401610226565b6106c5338260008151811061064d57634e487b7160e01b600052603260045260246000fd5b60200260200101518560008151811061067657634e487b7160e01b600052603260045260246000fd5b60200260200101518a8a600081811061069f57634e487b7160e01b600052603260045260246000fd5b90506020020160208101906106b49190612518565b6001600160a01b03169291906118be565b6104fa83828989808060200260200160405190810160405280939291908181526020018383602002808284376000920191909152508b925061156b915050565b6060610745858585858080602002602001604051908101604052809392919081815260200183836020028082843760009201919091525061194c92505050565b5095945050505050565b606081428110156107965760405162461bcd60e51b8152602060048201526011602482015270151c985919481a185cc8195e1c1a5c9959607a1b6044820152606401610226565b60606107d68a8989898080602002602001604051908101604052809392919081815260200183836020028082843760009201919091525061194c92505050565b8092508194505050888360008151811061080057634e487b7160e01b600052603260045260246000fd5b602002602001015111156106285760405162461bcd60e51b815260206004820152602260248201527f53706f74526f757465723a204558434553534956455f494e5055545f414d4f55604482015261139560f21b6064820152608401610226565b606081428110156108a85760405162461bcd60e51b8152602060048201526011602482015270151c985919481a185cc8195e1c1a5c9959607a1b6044820152606401610226565b6001600160a01b037f00000000000000000000000000000000000000000000000000000000000000001686866108df6001826127fc565b8181106108fc57634e487b7160e01b600052603260045260246000fd5b90506020020160208101906109119190612518565b6001600160a01b0316146109675760405162461bcd60e51b815260206004820152601860248201527f53706f74526f757465723a20494e56414c49445f5041544800000000000000006044820152606401610226565b60606109a78a8989898080602002602001604051908101604052809392919081815260200183836020028082843760009201919091525061194c92505050565b809250819450505088836000815181106109d157634e487b7160e01b600052603260045260246000fd5b60200260200101511115610a325760405162461bcd60e51b815260206004820152602260248201527f53706f74526f757465723a204558434553534956455f494e5055545f414d4f55604482015261139560f21b6064820152608401610226565b6103c8338260008151811061064d57634e487b7160e01b600052603260045260246000fd5b6060610745858585858080602002602001604051908101604052809392919081815260200183836020028082843760009201919091525061127b92505050565b60608142811015610ade5760405162461bcd60e51b8152602060048201526011602482015270151c985919481a185cc8195e1c1a5c9959607a1b6044820152606401610226565b7f00000000000000000000000000000000000000000000000000000000000000006001600160a01b031686866000818110610b2957634e487b7160e01b600052603260045260246000fd5b9050602002016020810190610b3e9190612518565b6001600160a01b031614610b945760405162461bcd60e51b815260206004820152601860248201527f53706f74526f757465723a20494e56414c49445f5041544800000000000000006044820152606401610226565b6060610bd4348989898080602002602001604051908101604052809392919081815260200183836020028082843760009201919091525061127b92505050565b8151919450915089908490610beb906001906127fc565b81518110610c0957634e487b7160e01b600052603260045260246000fd5b60200260200101511015610c6e5760405162461bcd60e51b815260206004820152602660248201527f53706f74526f757465723a20494e53554646494349454e545f4f55545055545f604482015265105353d5539560d21b6064820152608401610226565b7f00000000000000000000000000000000000000000000000000000000000000006001600160a01b031663d0e30db084600081518110610cbe57634e487b7160e01b600052603260045260246000fd5b60200260200101516040518263ffffffff1660e01b81526004016000604051808303818588803b158015610cf157600080fd5b505af1158015610d05573d6000803e3d6000fd5b50505050507f00000000000000000000000000000000000000000000000000000000000000006001600160a01b031663a9059cbb82600081518110610d5a57634e487b7160e01b600052603260045260246000fd5b6020026020010151346040518363ffffffff1660e01b8152600401610d949291906001600160a01b03929092168252602082015260400190565b602060405180830381600087803b158015610dae57600080fd5b505af1158015610dc2573d6000803e3d6000fd5b505050506040513d601f19601f82011682018060405250810190610de69190612532565b610e0057634e487b7160e01b600052600160045260246000fd5b610e4083828989808060200260200160405190810160405280939291908181526020018383602002808284376000920191909152508b925061156b915050565b50509695505050505050565b60608142811015610e935760405162461bcd60e51b8152602060048201526011602482015270151c985919481a185cc8195e1c1a5c9959607a1b6044820152606401610226565b7f00000000000000000000000000000000000000000000000000000000000000006001600160a01b031686866000818110610ede57634e487b7160e01b600052603260045260246000fd5b9050602002016020810190610ef39190612518565b6001600160a01b031614610f495760405162461bcd60e51b815260206004820152601860248201527f53706f74526f757465723a20494e56414c49445f5041544800000000000000006044820152606401610226565b6060610f89898989898080602002602001604051908101604052809392919081815260200183836020028082843760009201919091525061194c92505050565b80925081945050503483600081518110610fb357634e487b7160e01b600052603260045260246000fd5b602002602001015111156110145760405162461bcd60e51b815260206004820152602260248201527f53706f74526f757465723a204558434553534956455f494e5055545f414d4f55604482015261139560f21b6064820152608401610226565b7f00000000000000000000000000000000000000000000000000000000000000006001600160a01b031663d0e30db08460008151811061106457634e487b7160e01b600052603260045260246000fd5b60200260200101516040518263ffffffff1660e01b81526004016000604051808303818588803b15801561109757600080fd5b505af11580156110ab573d6000803e3d6000fd5b50505050507f00000000000000000000000000000000000000000000000000000000000000006001600160a01b031663a9059cbb8260008151811061110057634e487b7160e01b600052603260045260246000fd5b60200260200101518560008151811061112957634e487b7160e01b600052603260045260246000fd5b60200260200101516040518363ffffffff1660e01b81526004016111629291906001600160a01b03929092168252602082015260400190565b602060405180830381600087803b15801561117c57600080fd5b505af1158015611190573d6000803e3d6000fd5b505050506040513d601f19601f820116820180604052508101906111b49190612532565b6111ce57634e487b7160e01b600052600160045260246000fd5b61120e83828989808060200260200160405190810160405280939291908181526020018383602002808284376000920191909152508b925061156b915050565b8260008151811061122f57634e487b7160e01b600052603260045260246000fd5b6020026020010151341115610e4057610e40338460008151811061126357634e487b7160e01b600052603260045260246000fd5b60200260200101513461127691906127fc565b6117a0565b6060806002835110156112e15760405162461bcd60e51b815260206004820152602860248201527f556e69737761705374796c654c69623a20746f6b656e207061746820697320746044820152671bdbc81cda1bdc9d60c21b6064820152608401610226565b825167ffffffffffffffff81111561130957634e487b7160e01b600052604160045260246000fd5b604051908082528060200260200182016040528015611332578160200160208202803683370190505b509150848260008151811061135757634e487b7160e01b600052603260045260246000fd5b6020026020010181815250506001835161137191906127fc565b67ffffffffffffffff81111561139757634e487b7160e01b600052604160045260246000fd5b6040519080825280602002602001820160405280156113c0578160200160208202803683370190505b50905060005b600184516113d491906127fc565b8110156115625760008482815181106113fd57634e487b7160e01b600052603260045260246000fd5b6020026020010151905060008583600161141791906127a5565b8151811061143557634e487b7160e01b600052603260045260246000fd5b60200260200101519050600087846020811061146157634e487b7160e01b600052603260045260246000fd5b1a60f81b6001600160f81b031916156114835761147e8383611c54565b61148d565b61148d8383611d32565b9050808585815181106114b057634e487b7160e01b600052603260045260246000fd5b60200260200101906001600160a01b031690816001600160a01b0316815250506000806114de838686611df3565b9150915061151488878151811061150557634e487b7160e01b600052603260045260246000fd5b60200260200101518383611ed0565b886115208860016127a5565b8151811061153e57634e487b7160e01b600052603260045260246000fd5b6020026020010181815250505050505050808061155a90612856565b9150506113c6565b50935093915050565b60005b83518110156117995760008084838151811061159a57634e487b7160e01b600052603260045260246000fd5b6020026020010151858460016115b091906127a5565b815181106115ce57634e487b7160e01b600052603260045260246000fd5b60200260200101519150915060006115e68383612002565b5090506000886115f78660016127a5565b8151811061161557634e487b7160e01b600052603260045260246000fd5b60200260200101519050600080836001600160a01b0316866001600160a01b03161461164357826000611647565b6000835b91509150600060018b5161165b91906127fc565b8810611667578861169a565b8a6116738960016127a5565b8151811061169157634e487b7160e01b600052603260045260246000fd5b60200260200101515b905060008b89815181106116be57634e487b7160e01b600052603260045260246000fd5b60200260200101519050806001600160a01b031663022c0d9f858585600067ffffffffffffffff81111561170257634e487b7160e01b600052604160045260246000fd5b6040519080825280601f01601f19166020018201604052801561172c576020820181803683370190505b506040518563ffffffff1660e01b815260040161174c9493929190612777565b600060405180830381600087803b15801561176657600080fd5b505af115801561177a573d6000803e3d6000fd5b505050505050505050505050808061179190612856565b91505061156e565b5050505050565b804710156117f05760405162461bcd60e51b815260206004820152601d60248201527f416464726573733a20696e73756666696369656e742062616c616e63650000006044820152606401610226565b6000826001600160a01b03168260405160006040518083038185875af1925050503d806000811461183d576040519150601f19603f3d011682016040523d82523d6000602084013e611842565b606091505b50509050806118b95760405162461bcd60e51b815260206004820152603a60248201527f416464726573733a20756e61626c6520746f2073656e642076616c75652c207260448201527f6563697069656e74206d617920686176652072657665727465640000000000006064820152608401610226565b505050565b604080516001600160a01b0385811660248301528416604482015260648082018490528251808303909101815260849091019091526020810180517bffffffffffffffffffffffffffffffffffffffffffffffffffffffff167f23b872dd000000000000000000000000000000000000000000000000000000001790526119469085906120ec565b50505050565b6060806002835110156119b25760405162461bcd60e51b815260206004820152602860248201527f556e69737761705374796c654c69623a20746f6b656e207061746820697320746044820152671bdbc81cda1bdc9d60c21b6064820152608401610226565b825167ffffffffffffffff8111156119da57634e487b7160e01b600052604160045260246000fd5b604051908082528060200260200182016040528015611a03578160200160208202803683370190505b509150848260018451611a1691906127fc565b81518110611a3457634e487b7160e01b600052603260045260246000fd5b60200260200101818152505060018351611a4e91906127fc565b67ffffffffffffffff811115611a7457634e487b7160e01b600052604160045260246000fd5b604051908082528060200260200182016040528015611a9d578160200160208202803683370190505b509050600060018451611ab091906127fc565b90505b801561156257600084611ac76001846127fc565b81518110611ae557634e487b7160e01b600052603260045260246000fd5b602002602001015190506000858381518110611b1157634e487b7160e01b600052603260045260246000fd5b60200260200101519050600087600185611b2b91906127fc565b60208110611b4957634e487b7160e01b600052603260045260246000fd5b1a60f81b6001600160f81b03191615611b6b57611b668383611c54565b611b75565b611b758383611d32565b90508085611b846001876127fc565b81518110611ba257634e487b7160e01b600052603260045260246000fd5b60200260200101906001600160a01b031690816001600160a01b031681525050600080611bd0838686611df3565b91509150611c06888781518110611bf757634e487b7160e01b600052603260045260246000fd5b602002602001015183836121d1565b88611c126001896127fc565b81518110611c3057634e487b7160e01b600052603260045260246000fd5b60200260200101818152505050505050508080611c4c9061283f565b915050611ab3565b6000806000611c638585612002565b60408051606084811b6bffffffffffffffffffffffff199081166020808501919091529185901b166034830152825160288184030181526048830190935282519201919091206001600160f81b031960688301527fc0aee478e3658e2610c5f7a4a2e1777ce9e4f2ac0000000000000000000000006069830152607d8201527fe18a34eb0e04b04f7a0ac29a6e80748dca96319b42c54d679cb821dca90c6303609d820152919350915060bd015b60408051601f19818403018152919052805160209091012095945050505050565b6000806000611d418585612002565b60408051606084811b6bffffffffffffffffffffffff199081166020808501919091529185901b166034830152825160288184030181526048830190935282519201919091206001600160f81b031960688301527f5c69bee701ef814a2b6a3edd4b1652cb9cc5aa6f0000000000000000000000006069830152607d8201527f96e8ac4277198ff8b6f785478aa9a39f403cb768dd02cbee326c3e7da348845f609d820152919350915060bd01611d11565b6000806000611e028585612002565b509050600080876001600160a01b0316630902f1ac6040518163ffffffff1660e01b815260040160606040518083038186803b158015611e4157600080fd5b505afa158015611e55573d6000803e3d6000fd5b505050506040513d601f19601f82011682018060405250810190611e799190612552565b506dffffffffffffffffffffffffffff1691506dffffffffffffffffffffffffffff169150826001600160a01b0316876001600160a01b031614611ebe578082611ec1565b81815b90999098509650505050505050565b6000808411611f475760405162461bcd60e51b815260206004820152602b60248201527f556e697377617056324c6962726172793a20494e53554646494349454e545f4960448201527f4e5055545f414d4f554e540000000000000000000000000000000000000000006064820152608401610226565b600083118015611f575750600082115b611fb45760405162461bcd60e51b815260206004820152602860248201527f556e697377617056324c6962726172793a20494e53554646494349454e545f4c604482015267495155494449545960c01b6064820152608401610226565b6000611fc2856103e56127dd565b90506000611fd084836127dd565b9050600082611fe1876103e86127dd565b611feb91906127a5565b9050611ff781836127bd565b979650505050505050565b600080826001600160a01b0316846001600160a01b031614156120675760405162461bcd60e51b815260206004820152601260248201527f4964656e746963616c20616464726573732100000000000000000000000000006044820152606401610226565b826001600160a01b0316846001600160a01b03161061208757828461208a565b83835b90925090506001600160a01b0382166120e55760405162461bcd60e51b815260206004820152600d60248201527f5a65726f206164647265737321000000000000000000000000000000000000006044820152606401610226565b9250929050565b6000612141826040518060400160405280602081526020017f5361666545524332303a206c6f772d6c6576656c2063616c6c206661696c6564815250856001600160a01b03166123099092919063ffffffff16565b8051909150156118b9578080602001905181019061215f9190612532565b6118b95760405162461bcd60e51b815260206004820152602a60248201527f5361666545524332303a204552433230206f7065726174696f6e20646964206e60448201527f6f742073756363656564000000000000000000000000000000000000000000006064820152608401610226565b60008084116122485760405162461bcd60e51b815260206004820152602c60248201527f556e697377617056324c6962726172793a20494e53554646494349454e545f4f60448201527f55545055545f414d4f554e5400000000000000000000000000000000000000006064820152608401610226565b6000831180156122585750600082115b6122b55760405162461bcd60e51b815260206004820152602860248201527f556e697377617056324c6962726172793a20494e53554646494349454e545f4c604482015267495155494449545960c01b6064820152608401610226565b60006122c185856127dd565b6122cd906103e86127dd565b905060006103e56122de87866127fc565b6122e891906127fc565b90506122f481836127bd565b6122ff9060016127a5565b9695505050505050565b60606123188484600085612322565b90505b9392505050565b60608247101561239a5760405162461bcd60e51b815260206004820152602660248201527f416464726573733a20696e73756666696369656e742062616c616e636520666f60448201527f722063616c6c00000000000000000000000000000000000000000000000000006064820152608401610226565b6123a38561245d565b6123ef5760405162461bcd60e51b815260206004820152601d60248201527f416464726573733a2063616c6c20746f206e6f6e2d636f6e74726163740000006044820152606401610226565b600080866001600160a01b0316858760405161240b9190612704565b60006040518083038185875af1925050503d8060008114612448576040519150601f19603f3d011682016040523d82523d6000602084013e61244d565b606091505b5091509150611ff7828286612467565b803b15155b919050565b6060831561247657508161231b565b8251156124865782518084602001fd5b8160405162461bcd60e51b81526004016102269190612764565b80356001600160a01b038116811461246257600080fd5b60008083601f8401126124c8578182fd5b50813567ffffffffffffffff8111156124df578182fd5b6020830191508360208260051b85010111156120e557600080fd5b80516dffffffffffffffffffffffffffff8116811461246257600080fd5b600060208284031215612529578081fd5b61231b826124a0565b600060208284031215612543578081fd5b8151801515811461231b578182fd5b600080600060608486031215612566578182fd5b61256f846124fa565b925061257d602085016124fa565b9150604084015163ffffffff81168114612595578182fd5b809150509250925092565b600080600080606085870312156125b5578081fd5b8435935060208501359250604085013567ffffffffffffffff8111156125d9578182fd5b6125e5878288016124b7565b95989497509550505050565b60008060008060008060a08789031215612609578182fd5b8635955060208701359450604087013567ffffffffffffffff81111561262d578283fd5b61263989828a016124b7565b909550935061264c9050606088016124a0565b9150608087013590509295509295509295565b600080600080600080600060c0888a031215612679578081fd5b873596506020880135955060408801359450606088013567ffffffffffffffff8111156126a4578182fd5b6126b08a828b016124b7565b90955093506126c39050608089016124a0565b915060a0880135905092959891949750929550565b600081518084526126f0816020860160208601612813565b601f01601f19169290920160200192915050565b60008251612716818460208701612813565b9190910192915050565b6020808252825182820181905260009190848201906040850190845b818110156127585783518352928401929184019160010161273c565b50909695505050505050565b60006020825261231b60208301846126d8565b60008582528460208301526001600160a01b0384166040830152608060608301526122ff60808301846126d8565b600082198211156127b8576127b8612871565b500190565b6000826127d857634e487b7160e01b81526012600452602481fd5b500490565b60008160001904831182151516156127f7576127f7612871565b500290565b60008282101561280e5761280e612871565b500390565b60005b8381101561282e578181015183820152602001612816565b838111156119465750506000910152565b60008161284e5761284e612871565b506000190190565b600060001982141561286a5761286a612871565b5060010190565b634e487b7160e01b600052601160045260246000fdfea26469706673582212207bcb8203a1c43ad56b3b7094d7a745b4755033d9ae400abf32ad189c1e9a4b4d64736f6c63430008030033",
  "linkReferences": {},
  "deployedLinkReferences": {}
}