{
  "_format": "hh-sol-artifact-1",
  "contractName": "SpotRouter",
  "sourceName": "contracts/SpotRouter.sol",
  "abi": [
    {
      "inputs": [
        {
          "internalType": "address",
          "name": "_WETH",
          "type": "address"
        }
      ],
      "stateMutability": "nonpayable",
      "type": "constructor"
    },
    {
      "inputs": [],
      "name": "WETH",
      "outputs": [
        {
          "internalType": "address",
          "name": "",
          "type": "address"
        }
      ],
      "stateMutability": "view",
      "type": "function"
    },
    {
      "inputs": [
        {
          "internalType": "uint256",
          "name": "outAmount",
          "type": "uint256"
        },
        {
          "internalType": "bytes32",
          "name": "amms",
          "type": "bytes32"
        },
        {
          "internalType": "address[]",
          "name": "tokens",
          "type": "address[]"
        }
      ],
      "name": "getAmountsIn",
      "outputs": [
        {
          "internalType": "uint256[]",
          "name": "amounts",
          "type": "uint256[]"
        }
      ],
      "stateMutability": "view",
      "type": "function"
    },
    {
      "inputs": [
        {
          "internalType": "uint256",
          "name": "inAmount",
          "type": "uint256"
        },
        {
          "internalType": "bytes32",
          "name": "amms",
          "type": "bytes32"
        },
        {
          "internalType": "address[]",
          "name": "tokens",
          "type": "address[]"
        }
      ],
      "name": "getAmountsOut",
      "outputs": [
        {
          "internalType": "uint256[]",
          "name": "amounts",
          "type": "uint256[]"
        }
      ],
      "stateMutability": "view",
      "type": "function"
    },
    {
      "inputs": [
        {
          "internalType": "uint256",
          "name": "amountOut",
          "type": "uint256"
        },
        {
          "internalType": "bytes32",
          "name": "amms",
          "type": "bytes32"
        },
        {
          "internalType": "address[]",
          "name": "tokens",
          "type": "address[]"
        },
        {
          "internalType": "address",
          "name": "to",
          "type": "address"
        },
        {
          "internalType": "uint256",
          "name": "deadline",
          "type": "uint256"
        }
      ],
      "name": "swapETHForExactTokens",
      "outputs": [
        {
          "internalType": "uint256[]",
          "name": "amounts",
          "type": "uint256[]"
        }
      ],
      "stateMutability": "payable",
      "type": "function"
    },
    {
      "inputs": [
        {
          "internalType": "uint256",
          "name": "amountOutMin",
          "type": "uint256"
        },
        {
          "internalType": "bytes32",
          "name": "amms",
          "type": "bytes32"
        },
        {
          "internalType": "address[]",
          "name": "tokens",
          "type": "address[]"
        },
        {
          "internalType": "address",
          "name": "to",
          "type": "address"
        },
        {
          "internalType": "uint256",
          "name": "deadline",
          "type": "uint256"
        }
      ],
      "name": "swapExactETHForTokens",
      "outputs": [
        {
          "internalType": "uint256[]",
          "name": "amounts",
          "type": "uint256[]"
        }
      ],
      "stateMutability": "payable",
      "type": "function"
    },
    {
      "inputs": [
        {
          "internalType": "uint256",
          "name": "amountIn",
          "type": "uint256"
        },
        {
          "internalType": "uint256",
          "name": "amountOutMin",
          "type": "uint256"
        },
        {
          "internalType": "bytes32",
          "name": "amms",
          "type": "bytes32"
        },
        {
          "internalType": "address[]",
          "name": "tokens",
          "type": "address[]"
        },
        {
          "internalType": "address",
          "name": "to",
          "type": "address"
        },
        {
          "internalType": "uint256",
          "name": "deadline",
          "type": "uint256"
        }
      ],
      "name": "swapExactTokensForETH",
      "outputs": [
        {
          "internalType": "uint256[]",
          "name": "amounts",
          "type": "uint256[]"
        }
      ],
      "stateMutability": "nonpayable",
      "type": "function"
    },
    {
      "inputs": [
        {
          "internalType": "uint256",
          "name": "amountIn",
          "type": "uint256"
        },
        {
          "internalType": "uint256",
          "name": "amountOutMin",
          "type": "uint256"
        },
        {
          "internalType": "bytes32",
          "name": "amms",
          "type": "bytes32"
        },
        {
          "internalType": "address[]",
          "name": "tokens",
          "type": "address[]"
        },
        {
          "internalType": "address",
          "name": "to",
          "type": "address"
        },
        {
          "internalType": "uint256",
          "name": "deadline",
          "type": "uint256"
        }
      ],
      "name": "swapExactTokensForTokens",
      "outputs": [
        {
          "internalType": "uint256[]",
          "name": "amounts",
          "type": "uint256[]"
        }
      ],
      "stateMutability": "nonpayable",
      "type": "function"
    },
    {
      "inputs": [
        {
          "internalType": "uint256",
          "name": "amountOut",
          "type": "uint256"
        },
        {
          "internalType": "uint256",
          "name": "amountInMax",
          "type": "uint256"
        },
        {
          "internalType": "bytes32",
          "name": "amms",
          "type": "bytes32"
        },
        {
          "internalType": "address[]",
          "name": "tokens",
          "type": "address[]"
        },
        {
          "internalType": "address",
          "name": "to",
          "type": "address"
        },
        {
          "internalType": "uint256",
          "name": "deadline",
          "type": "uint256"
        }
      ],
      "name": "swapTokensForExactETH",
      "outputs": [
        {
          "internalType": "uint256[]",
          "name": "amounts",
          "type": "uint256[]"
        }
      ],
      "stateMutability": "nonpayable",
      "type": "function"
    },
    {
      "inputs": [
        {
          "internalType": "uint256",
          "name": "amountOut",
          "type": "uint256"
        },
        {
          "internalType": "uint256",
          "name": "amountInMax",
          "type": "uint256"
        },
        {
          "internalType": "bytes32",
          "name": "amms",
          "type": "bytes32"
        },
        {
          "internalType": "address[]",
          "name": "tokens",
          "type": "address[]"
        },
        {
          "internalType": "address",
          "name": "to",
          "type": "address"
        },
        {
          "internalType": "uint256",
          "name": "deadline",
          "type": "uint256"
        }
      ],
      "name": "swapTokensForExactTokens",
      "outputs": [
        {
          "internalType": "uint256[]",
          "name": "amounts",
          "type": "uint256[]"
        }
      ],
      "stateMutability": "nonpayable",
      "type": "function"
    }
  ],
  "bytecode": "0x60a06040523480156200001157600080fd5b50604051620030453803806200304583398101604081905262000034916200004a565b60601b6001600160601b0319166080526200007a565b6000602082840312156200005c578081fd5b81516001600160a01b038116811462000073578182fd5b9392505050565b60805160601c612f6d620000d86000396000818161016301528181610279015281816104a201528181610a4901528181610cf901528181610eee01528181610f97015281816111600152818161134a01526113f30152612f6d6000f3fe6080604052600436106100965760003560e01c80639b6b1ce711610069578063b7453e271161004e578063b7453e27146101aa578063d51dc254146101ca578063d7bd007c146101dd57610096565b80639b6b1ce714610131578063ad5c46481461015157610096565b80632c8c29dd1461009b57806336e1437b146100d1578063799d34e1146100f15780637f4da6d414610111575b600080fd5b3480156100a757600080fd5b506100bb6100b6366004612c8a565b6101f0565b6040516100c89190612d69565b60405180910390f35b3480156100dd57600080fd5b506100bb6100ec366004612c8a565b6105ac565b3480156100fd57600080fd5b506100bb61010c366004612bcb565b61080e565b34801561011d57600080fd5b506100bb61012c366004612c8a565b610858565b34801561013d57600080fd5b506100bb61014c366004612c8a565b6109c5565b34801561015d57600080fd5b506101857f000000000000000000000000000000000000000000000000000000000000000081565b60405173ffffffffffffffffffffffffffffffffffffffff90911681526020016100c8565b3480156101b657600080fd5b506100bb6101c5366004612bcb565b610c4a565b6100bb6101d8366004612c1c565b610c8a565b6100bb6101eb366004612c1c565b6110f1565b60608142811015610262576040517f08c379a000000000000000000000000000000000000000000000000000000000815260206004820152601160248201527f547261646520686173206578706972656400000000000000000000000000000060448201526064015b60405180910390fd5b73ffffffffffffffffffffffffffffffffffffffff7f00000000000000000000000000000000000000000000000000000000000000001686866102a6600182612e70565b8181106102c357634e487b7160e01b600052603260045260246000fd5b90506020020160208101906102d89190612b43565b73ffffffffffffffffffffffffffffffffffffffff1614610355576040517f08c379a000000000000000000000000000000000000000000000000000000000815260206004820152601860248201527f53706f74526f757465723a20494e56414c49445f5041544800000000000000006044820152606401610259565b60606103958a898989808060200260200160405190810160405280939291908181526020018383602002808284376000920191909152506115d692505050565b81519194509150899084906103ac90600190612e70565b815181106103ca57634e487b7160e01b600052603260045260246000fd5b60200260200101511015610460576040517f08c379a000000000000000000000000000000000000000000000000000000000815260206004820152602660248201527f53706f74526f757465723a20494e53554646494349454e545f4f55545055545f60448201527f414d4f554e5400000000000000000000000000000000000000000000000000006064820152608401610259565b6104a08382898980806020026020016040519081016040528093929190818152602001838360200280828437600092019190915250309250611901915050565b7f000000000000000000000000000000000000000000000000000000000000000073ffffffffffffffffffffffffffffffffffffffff16632e1a7d4d84600186516104eb9190612e70565b8151811061050957634e487b7160e01b600052603260045260246000fd5b60200260200101516040518263ffffffff1660e01b815260040161052f91815260200190565b600060405180830381600087803b15801561054957600080fd5b505af115801561055d573d6000803e3d6000fd5b5050505061059f8584600186516105749190612e70565b8151811061059257634e487b7160e01b600052603260045260246000fd5b6020026020010151611b5d565b5050979650505050505050565b60608142811015610619576040517f08c379a000000000000000000000000000000000000000000000000000000000815260206004820152601160248201527f54726164652068617320657870697265640000000000000000000000000000006044820152606401610259565b60606106598a898989808060200260200160405190810160405280939291908181526020018383602002808284376000920191909152506115d692505050565b815191945091508990849061067090600190612e70565b8151811061068e57634e487b7160e01b600052603260045260246000fd5b60200260200101511015610724576040517f08c379a000000000000000000000000000000000000000000000000000000000815260206004820152602660248201527f53706f74526f757465723a20494e53554646494349454e545f4f55545055545f60448201527f414d4f554e5400000000000000000000000000000000000000000000000000006064820152608401610259565b6107ce338260008151811061074957634e487b7160e01b600052603260045260246000fd5b60200260200101518560008151811061077257634e487b7160e01b600052603260045260246000fd5b60200260200101518a8a600081811061079b57634e487b7160e01b600052603260045260246000fd5b90506020020160208101906107b09190612b43565b73ffffffffffffffffffffffffffffffffffffffff16929190611cbc565b61059f83828989808060200260200160405190810160405280939291908181526020018383602002808284376000920191909152508b9250611901915050565b606061084e8585858580806020026020016040519081016040528093929190818152602001838360200280828437600092019190915250611d5792505050565b5095945050505050565b606081428110156108c5576040517f08c379a000000000000000000000000000000000000000000000000000000000815260206004820152601160248201527f54726164652068617320657870697265640000000000000000000000000000006044820152606401610259565b60606109058a89898980806020026020016040519081016040528093929190818152602001838360200280828437600092019190915250611d5792505050565b8092508194505050888360008151811061092f57634e487b7160e01b600052603260045260246000fd5b60200260200101511115610724576040517f08c379a000000000000000000000000000000000000000000000000000000000815260206004820152602260248201527f53706f74526f757465723a204558434553534956455f494e5055545f414d4f5560448201527f4e540000000000000000000000000000000000000000000000000000000000006064820152608401610259565b60608142811015610a32576040517f08c379a000000000000000000000000000000000000000000000000000000000815260206004820152601160248201527f54726164652068617320657870697265640000000000000000000000000000006044820152606401610259565b73ffffffffffffffffffffffffffffffffffffffff7f0000000000000000000000000000000000000000000000000000000000000000168686610a76600182612e70565b818110610a9357634e487b7160e01b600052603260045260246000fd5b9050602002016020810190610aa89190612b43565b73ffffffffffffffffffffffffffffffffffffffff1614610b25576040517f08c379a000000000000000000000000000000000000000000000000000000000815260206004820152601860248201527f53706f74526f757465723a20494e56414c49445f5041544800000000000000006044820152606401610259565b6060610b658a89898980806020026020016040519081016040528093929190818152602001838360200280828437600092019190915250611d5792505050565b80925081945050508883600081518110610b8f57634e487b7160e01b600052603260045260246000fd5b60200260200101511115610c25576040517f08c379a000000000000000000000000000000000000000000000000000000000815260206004820152602260248201527f53706f74526f757465723a204558434553534956455f494e5055545f414d4f5560448201527f4e540000000000000000000000000000000000000000000000000000000000006064820152608401610259565b610460338260008151811061074957634e487b7160e01b600052603260045260246000fd5b606061084e85858585808060200260200160405190810160405280939291908181526020018383602002808284376000920191909152506115d692505050565b60608142811015610cf7576040517f08c379a000000000000000000000000000000000000000000000000000000000815260206004820152601160248201527f54726164652068617320657870697265640000000000000000000000000000006044820152606401610259565b7f000000000000000000000000000000000000000000000000000000000000000073ffffffffffffffffffffffffffffffffffffffff1686866000818110610d4f57634e487b7160e01b600052603260045260246000fd5b9050602002016020810190610d649190612b43565b73ffffffffffffffffffffffffffffffffffffffff1614610de1576040517f08c379a000000000000000000000000000000000000000000000000000000000815260206004820152601860248201527f53706f74526f757465723a20494e56414c49445f5041544800000000000000006044820152606401610259565b6060610e2134898989808060200260200160405190810160405280939291908181526020018383602002808284376000920191909152506115d692505050565b8151919450915089908490610e3890600190612e70565b81518110610e5657634e487b7160e01b600052603260045260246000fd5b60200260200101511015610eec576040517f08c379a000000000000000000000000000000000000000000000000000000000815260206004820152602660248201527f53706f74526f757465723a20494e53554646494349454e545f4f55545055545f60448201527f414d4f554e5400000000000000000000000000000000000000000000000000006064820152608401610259565b7f000000000000000000000000000000000000000000000000000000000000000073ffffffffffffffffffffffffffffffffffffffff1663d0e30db084600081518110610f4957634e487b7160e01b600052603260045260246000fd5b60200260200101516040518263ffffffff1660e01b81526004016000604051808303818588803b158015610f7c57600080fd5b505af1158015610f90573d6000803e3d6000fd5b50505050507f000000000000000000000000000000000000000000000000000000000000000073ffffffffffffffffffffffffffffffffffffffff1663a9059cbb82600081518110610ff257634e487b7160e01b600052603260045260246000fd5b6020026020010151346040518363ffffffff1660e01b815260040161103992919073ffffffffffffffffffffffffffffffffffffffff929092168252602082015260400190565b602060405180830381600087803b15801561105357600080fd5b505af1158015611067573d6000803e3d6000fd5b505050506040513d601f19601f8201168201806040525081019061108b9190612b5d565b6110a557634e487b7160e01b600052600160045260246000fd5b6110e583828989808060200260200160405190810160405280939291908181526020018383602002808284376000920191909152508b9250611901915050565b50509695505050505050565b6060814281101561115e576040517f08c379a000000000000000000000000000000000000000000000000000000000815260206004820152601160248201527f54726164652068617320657870697265640000000000000000000000000000006044820152606401610259565b7f000000000000000000000000000000000000000000000000000000000000000073ffffffffffffffffffffffffffffffffffffffff16868660008181106111b657634e487b7160e01b600052603260045260246000fd5b90506020020160208101906111cb9190612b43565b73ffffffffffffffffffffffffffffffffffffffff1614611248576040517f08c379a000000000000000000000000000000000000000000000000000000000815260206004820152601860248201527f53706f74526f757465723a20494e56414c49445f5041544800000000000000006044820152606401610259565b60606112888989898980806020026020016040519081016040528093929190818152602001838360200280828437600092019190915250611d5792505050565b809250819450505034836000815181106112b257634e487b7160e01b600052603260045260246000fd5b60200260200101511115611348576040517f08c379a000000000000000000000000000000000000000000000000000000000815260206004820152602260248201527f53706f74526f757465723a204558434553534956455f494e5055545f414d4f5560448201527f4e540000000000000000000000000000000000000000000000000000000000006064820152608401610259565b7f000000000000000000000000000000000000000000000000000000000000000073ffffffffffffffffffffffffffffffffffffffff1663d0e30db0846000815181106113a557634e487b7160e01b600052603260045260246000fd5b60200260200101516040518263ffffffff1660e01b81526004016000604051808303818588803b1580156113d857600080fd5b505af11580156113ec573d6000803e3d6000fd5b50505050507f000000000000000000000000000000000000000000000000000000000000000073ffffffffffffffffffffffffffffffffffffffff1663a9059cbb8260008151811061144e57634e487b7160e01b600052603260045260246000fd5b60200260200101518560008151811061147757634e487b7160e01b600052603260045260246000fd5b60200260200101516040518363ffffffff1660e01b81526004016114bd92919073ffffffffffffffffffffffffffffffffffffffff929092168252602082015260400190565b602060405180830381600087803b1580156114d757600080fd5b505af11580156114eb573d6000803e3d6000fd5b505050506040513d601f19601f8201168201806040525081019061150f9190612b5d565b61152957634e487b7160e01b600052600160045260246000fd5b61156983828989808060200260200160405190810160405280939291908181526020018383602002808284376000920191909152508b9250611901915050565b8260008151811061158a57634e487b7160e01b600052603260045260246000fd5b60200260200101513411156110e5576110e533846000815181106115be57634e487b7160e01b600052603260045260246000fd5b6020026020010151346115d19190612e70565b611b5d565b606080600283511015611645576040517f08c379a000000000000000000000000000000000000000000000000000000000815260206004820152601460248201527f746f6b656e207061746820746f6f2073686f72740000000000000000000000006044820152606401610259565b825167ffffffffffffffff81111561166d57634e487b7160e01b600052604160045260246000fd5b604051908082528060200260200182016040528015611696578160200160208202803683370190505b50915084826000815181106116bb57634e487b7160e01b600052603260045260246000fd5b602002602001018181525050600183516116d59190612e70565b67ffffffffffffffff8111156116fb57634e487b7160e01b600052604160045260246000fd5b604051908082528060200260200182016040528015611724578160200160208202803683370190505b50905060005b600184516117389190612e70565b8110156118f857600084828151811061176157634e487b7160e01b600052603260045260246000fd5b6020026020010151905060008583600161177b9190612dfb565b8151811061179957634e487b7160e01b600052603260045260246000fd5b6020026020010151905060008784602081106117c557634e487b7160e01b600052603260045260246000fd5b1a60f81b7fff0000000000000000000000000000000000000000000000000000000000000016156117ff576117fa838361209a565b611809565b61180983836121c1565b90508085858151811061182c57634e487b7160e01b600052603260045260246000fd5b602002602001019073ffffffffffffffffffffffffffffffffffffffff16908173ffffffffffffffffffffffffffffffffffffffff16815250506000806118748386866122ad565b915091506118aa88878151811061189b57634e487b7160e01b600052603260045260246000fd5b602002602001015183836123b1565b886118b6886001612dfb565b815181106118d457634e487b7160e01b600052603260045260246000fd5b602002602001018181525050505050505080806118f090612ee8565b91505061172a565b50935093915050565b60005b8351811015611b565760008084838151811061193057634e487b7160e01b600052603260045260246000fd5b6020026020010151858460016119469190612dfb565b8151811061196457634e487b7160e01b600052603260045260246000fd5b602002602001015191509150600061197c8383612506565b50905060008861198d866001612dfb565b815181106119ab57634e487b7160e01b600052603260045260246000fd5b602002602001015190506000808373ffffffffffffffffffffffffffffffffffffffff168673ffffffffffffffffffffffffffffffffffffffff16146119f3578260006119f7565b6000835b91509150600060018b51611a0b9190612e70565b8810611a175788611a4a565b8a611a23896001612dfb565b81518110611a4157634e487b7160e01b600052603260045260246000fd5b60200260200101515b905060008b8981518110611a6e57634e487b7160e01b600052603260045260246000fd5b602002602001015190508073ffffffffffffffffffffffffffffffffffffffff1663022c0d9f858585600067ffffffffffffffff811115611abf57634e487b7160e01b600052604160045260246000fd5b6040519080825280601f01601f191660200182016040528015611ae9576020820181803683370190505b506040518563ffffffff1660e01b8152600401611b099493929190612dc0565b600060405180830381600087803b158015611b2357600080fd5b505af1158015611b37573d6000803e3d6000fd5b5050505050505050505050508080611b4e90612ee8565b915050611904565b5050505050565b80471015611bc7576040517f08c379a000000000000000000000000000000000000000000000000000000000815260206004820152601d60248201527f416464726573733a20696e73756666696369656e742062616c616e63650000006044820152606401610259565b60008273ffffffffffffffffffffffffffffffffffffffff168260405160006040518083038185875af1925050503d8060008114611c21576040519150601f19603f3d011682016040523d82523d6000602084013e611c26565b606091505b5050905080611cb7576040517f08c379a000000000000000000000000000000000000000000000000000000000815260206004820152603a60248201527f416464726573733a20756e61626c6520746f2073656e642076616c75652c207260448201527f6563697069656e74206d617920686176652072657665727465640000000000006064820152608401610259565b505050565b6040805173ffffffffffffffffffffffffffffffffffffffff85811660248301528416604482015260648082018490528251808303909101815260849091019091526020810180517bffffffffffffffffffffffffffffffffffffffffffffffffffffffff167f23b872dd00000000000000000000000000000000000000000000000000000000179052611d51908590612665565b50505050565b606080600283511015611dc6576040517f08c379a000000000000000000000000000000000000000000000000000000000815260206004820152601460248201527f746f6b656e207061746820746f6f2073686f72740000000000000000000000006044820152606401610259565b825167ffffffffffffffff811115611dee57634e487b7160e01b600052604160045260246000fd5b604051908082528060200260200182016040528015611e17578160200160208202803683370190505b509150848260018451611e2a9190612e70565b81518110611e4857634e487b7160e01b600052603260045260246000fd5b60200260200101818152505060018351611e629190612e70565b67ffffffffffffffff811115611e8857634e487b7160e01b600052604160045260246000fd5b604051908082528060200260200182016040528015611eb1578160200160208202803683370190505b509050600060018451611ec49190612e70565b90505b80156118f857600084611edb600184612e70565b81518110611ef957634e487b7160e01b600052603260045260246000fd5b602002602001015190506000858381518110611f2557634e487b7160e01b600052603260045260246000fd5b60200260200101519050600087600185611f3f9190612e70565b60208110611f5d57634e487b7160e01b600052603260045260246000fd5b1a60f81b7fff000000000000000000000000000000000000000000000000000000000000001615611f9757611f92838361209a565b611fa1565b611fa183836121c1565b90508085611fb0600187612e70565b81518110611fce57634e487b7160e01b600052603260045260246000fd5b602002602001019073ffffffffffffffffffffffffffffffffffffffff16908173ffffffffffffffffffffffffffffffffffffffff16815250506000806120168386866122ad565b9150915061204c88878151811061203d57634e487b7160e01b600052603260045260246000fd5b60200260200101518383612771565b88612058600189612e70565b8151811061207657634e487b7160e01b600052603260045260246000fd5b6020026020010181815250505050505050808061209290612eb3565b915050611ec7565b60008060006120a98585612506565b60408051606084811b7fffffffffffffffffffffffffffffffffffffffff0000000000000000000000009081166020808501919091529185901b166034830152825160288184030181526048830190935282519201919091207fff0000000000000000000000000000000000000000000000000000000000000060688301527fc0aee478e3658e2610c5f7a4a2e1777ce9e4f2ac0000000000000000000000006069830152607d8201527fe18a34eb0e04b04f7a0ac29a6e80748dca96319b42c54d679cb821dca90c6303609d820152919350915060bd015b604080517fffffffffffffffffffffffffffffffffffffffffffffffffffffffffffffffe0818403018152919052805160209091012095945050505050565b60008060006121d08585612506565b60408051606084811b7fffffffffffffffffffffffffffffffffffffffff0000000000000000000000009081166020808501919091529185901b166034830152825160288184030181526048830190935282519201919091207fff0000000000000000000000000000000000000000000000000000000000000060688301527f5c69bee701ef814a2b6a3edd4b1652cb9cc5aa6f0000000000000000000000006069830152607d8201527f96e8ac4277198ff8b6f785478aa9a39f403cb768dd02cbee326c3e7da348845f609d820152919350915060bd01612182565b60008060006122bc8585612506565b5090506000808773ffffffffffffffffffffffffffffffffffffffff16630902f1ac6040518163ffffffff1660e01b815260040160606040518083038186803b15801561230857600080fd5b505afa15801561231c573d6000803e3d6000fd5b505050506040513d601f19601f820116820180604052508101906123409190612b7d565b506dffffffffffffffffffffffffffff1691506dffffffffffffffffffffffffffff1691508273ffffffffffffffffffffffffffffffffffffffff168773ffffffffffffffffffffffffffffffffffffffff161461239f5780826123a2565b81815b90999098509650505050505050565b600080841161241c576040517f08c379a000000000000000000000000000000000000000000000000000000000815260206004820152601960248201527f494e53554646494349454e545f494e5055545f414d4f554e54000000000000006044820152606401610259565b60008311801561242c5750600082115b6124b8576040517f08c379a000000000000000000000000000000000000000000000000000000000815260206004820152602860248201527f556e697377617056324c6962726172793a20494e53554646494349454e545f4c60448201527f49515549444954590000000000000000000000000000000000000000000000006064820152608401610259565b60006124c6856103e5612e33565b905060006124d48483612e33565b90506000826124e5876103e8612e33565b6124ef9190612dfb565b90506124fb8183612e13565b979650505050505050565b6000808273ffffffffffffffffffffffffffffffffffffffff168473ffffffffffffffffffffffffffffffffffffffff16141561259f576040517f08c379a000000000000000000000000000000000000000000000000000000000815260206004820152601260248201527f4964656e746963616c20616464726573732100000000000000000000000000006044820152606401610259565b8273ffffffffffffffffffffffffffffffffffffffff168473ffffffffffffffffffffffffffffffffffffffff16106125d95782846125dc565b83835b909250905073ffffffffffffffffffffffffffffffffffffffff821661265e576040517f08c379a000000000000000000000000000000000000000000000000000000000815260206004820152600d60248201527f5a65726f206164647265737321000000000000000000000000000000000000006044820152606401610259565b9250929050565b60006126c7826040518060400160405280602081526020017f5361666545524332303a206c6f772d6c6576656c2063616c6c206661696c65648152508573ffffffffffffffffffffffffffffffffffffffff166128cc9092919063ffffffff16565b805190915015611cb757808060200190518101906126e59190612b5d565b611cb7576040517f08c379a000000000000000000000000000000000000000000000000000000000815260206004820152602a60248201527f5361666545524332303a204552433230206f7065726174696f6e20646964206e60448201527f6f742073756363656564000000000000000000000000000000000000000000006064820152608401610259565b60008084116127dc576040517f08c379a000000000000000000000000000000000000000000000000000000000815260206004820152601a60248201527f494e53554646494349454e545f4f55545055545f414d4f554e540000000000006044820152606401610259565b6000831180156127ec5750600082115b612878576040517f08c379a000000000000000000000000000000000000000000000000000000000815260206004820152602860248201527f556e697377617056324c6962726172793a20494e53554646494349454e545f4c60448201527f49515549444954590000000000000000000000000000000000000000000000006064820152608401610259565b60006128848585612e33565b612890906103e8612e33565b905060006103e56128a18786612e70565b6128ab9190612e70565b90506128b78183612e13565b6128c2906001612dfb565b9695505050505050565b60606128db84846000856128e5565b90505b9392505050565b606082471015612977576040517f08c379a000000000000000000000000000000000000000000000000000000000815260206004820152602660248201527f416464726573733a20696e73756666696369656e742062616c616e636520666f60448201527f722063616c6c00000000000000000000000000000000000000000000000000006064820152608401610259565b61298085612a61565b6129e6576040517f08c379a000000000000000000000000000000000000000000000000000000000815260206004820152601d60248201527f416464726573733a2063616c6c20746f206e6f6e2d636f6e74726163740000006044820152606401610259565b6000808673ffffffffffffffffffffffffffffffffffffffff168587604051612a0f9190612d4d565b60006040518083038185875af1925050503d8060008114612a4c576040519150601f19603f3d011682016040523d82523d6000602084013e612a51565b606091505b50915091506124fb828286612a6b565b803b15155b919050565b60608315612a7a5750816128de565b825115612a8a5782518084602001fd5b816040517f08c379a00000000000000000000000000000000000000000000000000000000081526004016102599190612dad565b803573ffffffffffffffffffffffffffffffffffffffff81168114612a6657600080fd5b60008083601f840112612af3578182fd5b50813567ffffffffffffffff811115612b0a578182fd5b6020830191508360208260051b850101111561265e57600080fd5b80516dffffffffffffffffffffffffffff81168114612a6657600080fd5b600060208284031215612b54578081fd5b6128de82612abe565b600060208284031215612b6e578081fd5b815180151581146128de578182fd5b600080600060608486031215612b91578182fd5b612b9a84612b25565b9250612ba860208501612b25565b9150604084015163ffffffff81168114612bc0578182fd5b809150509250925092565b60008060008060608587031215612be0578081fd5b8435935060208501359250604085013567ffffffffffffffff811115612c04578182fd5b612c1087828801612ae2565b95989497509550505050565b60008060008060008060a08789031215612c34578182fd5b8635955060208701359450604087013567ffffffffffffffff811115612c58578283fd5b612c6489828a01612ae2565b9095509350612c77905060608801612abe565b9150608087013590509295509295509295565b600080600080600080600060c0888a031215612ca4578081fd5b873596506020880135955060408801359450606088013567ffffffffffffffff811115612ccf578182fd5b612cdb8a828b01612ae2565b9095509350612cee905060808901612abe565b915060a0880135905092959891949750929550565b60008151808452612d1b816020860160208601612e87565b601f017fffffffffffffffffffffffffffffffffffffffffffffffffffffffffffffffe0169290920160200192915050565b60008251612d5f818460208701612e87565b9190910192915050565b6020808252825182820181905260009190848201906040850190845b81811015612da157835183529284019291840191600101612d85565b50909695505050505050565b6000602082526128de6020830184612d03565b600085825284602083015273ffffffffffffffffffffffffffffffffffffffff84166040830152608060608301526128c26080830184612d03565b60008219821115612e0e57612e0e612f21565b500190565b600082612e2e57634e487b7160e01b81526012600452602481fd5b500490565b6000817fffffffffffffffffffffffffffffffffffffffffffffffffffffffffffffffff0483118215151615612e6b57612e6b612f21565b500290565b600082821015612e8257612e82612f21565b500390565b60005b83811015612ea2578181015183820152602001612e8a565b83811115611d515750506000910152565b600081612ec257612ec2612f21565b507fffffffffffffffffffffffffffffffffffffffffffffffffffffffffffffffff0190565b60007fffffffffffffffffffffffffffffffffffffffffffffffffffffffffffffffff821415612f1a57612f1a612f21565b5060010190565b634e487b7160e01b600052601160045260246000fdfea2646970667358221220d034580a13b99067793e4b33afbad95b5622494836f6bf7cdd493177d0fb478564736f6c63430008030033",
  "linkReferences": {},
  "deployedLinkReferences": {}
}