{
  "_format": "hh-sol-artifact-1",
  "contractName": "SpotRouter",
  "sourceName": "contracts/SpotRouter.sol",
  "abi": [
    {
      "inputs": [
        {
          "internalType": "address",
          "name": "_WETH",
          "type": "address"
        },
        {
          "internalType": "address",
          "name": "_amm1Factory",
          "type": "address"
        },
        {
          "internalType": "address",
          "name": "_amm2Factory",
          "type": "address"
        },
        {
          "internalType": "address",
          "name": "_amm3Factory",
          "type": "address"
        },
        {
          "internalType": "bytes32",
          "name": "_amm1InitHash",
          "type": "bytes32"
        },
        {
          "internalType": "bytes32",
          "name": "_amm2InitHash",
          "type": "bytes32"
        },
        {
          "internalType": "bytes32",
          "name": "_amm3InitHash",
          "type": "bytes32"
        }
      ],
      "stateMutability": "nonpayable",
      "type": "constructor"
    },
    {
      "inputs": [],
      "name": "WETH",
      "outputs": [
        {
          "internalType": "address",
          "name": "",
          "type": "address"
        }
      ],
      "stateMutability": "view",
      "type": "function"
    },
    {
      "inputs": [],
      "name": "amm1Factory",
      "outputs": [
        {
          "internalType": "address",
          "name": "",
          "type": "address"
        }
      ],
      "stateMutability": "view",
      "type": "function"
    },
    {
      "inputs": [],
      "name": "amm1InitHash",
      "outputs": [
        {
          "internalType": "bytes32",
          "name": "",
          "type": "bytes32"
        }
      ],
      "stateMutability": "view",
      "type": "function"
    },
    {
      "inputs": [],
      "name": "amm2Factory",
      "outputs": [
        {
          "internalType": "address",
          "name": "",
          "type": "address"
        }
      ],
      "stateMutability": "view",
      "type": "function"
    },
    {
      "inputs": [],
      "name": "amm2InitHash",
      "outputs": [
        {
          "internalType": "bytes32",
          "name": "",
          "type": "bytes32"
        }
      ],
      "stateMutability": "view",
      "type": "function"
    },
    {
      "inputs": [],
      "name": "amm3Factory",
      "outputs": [
        {
          "internalType": "address",
          "name": "",
          "type": "address"
        }
      ],
      "stateMutability": "view",
      "type": "function"
    },
    {
      "inputs": [],
      "name": "amm3InitHash",
      "outputs": [
        {
          "internalType": "bytes32",
          "name": "",
          "type": "bytes32"
        }
      ],
      "stateMutability": "view",
      "type": "function"
    },
    {
      "inputs": [
        {
          "internalType": "uint256",
          "name": "outAmount",
          "type": "uint256"
        },
        {
          "internalType": "bytes32",
          "name": "amms",
          "type": "bytes32"
        },
        {
          "internalType": "address[]",
          "name": "tokens",
          "type": "address[]"
        }
      ],
      "name": "getAmountsIn",
      "outputs": [
        {
          "internalType": "uint256[]",
          "name": "amounts",
          "type": "uint256[]"
        }
      ],
      "stateMutability": "view",
      "type": "function"
    },
    {
      "inputs": [
        {
          "internalType": "uint256",
          "name": "inAmount",
          "type": "uint256"
        },
        {
          "internalType": "bytes32",
          "name": "amms",
          "type": "bytes32"
        },
        {
          "internalType": "address[]",
          "name": "tokens",
          "type": "address[]"
        }
      ],
      "name": "getAmountsOut",
      "outputs": [
        {
          "internalType": "uint256[]",
          "name": "amounts",
          "type": "uint256[]"
        }
      ],
      "stateMutability": "view",
      "type": "function"
    },
    {
      "inputs": [
        {
          "internalType": "uint256",
          "name": "amountOut",
          "type": "uint256"
        },
        {
          "internalType": "bytes32",
          "name": "amms",
          "type": "bytes32"
        },
        {
          "internalType": "address[]",
          "name": "tokens",
          "type": "address[]"
        },
        {
          "internalType": "address",
          "name": "to",
          "type": "address"
        },
        {
          "internalType": "uint256",
          "name": "deadline",
          "type": "uint256"
        }
      ],
      "name": "swapETHForExactTokens",
      "outputs": [
        {
          "internalType": "uint256[]",
          "name": "amounts",
          "type": "uint256[]"
        }
      ],
      "stateMutability": "payable",
      "type": "function"
    },
    {
      "inputs": [
        {
          "internalType": "uint256",
          "name": "amountOutMin",
          "type": "uint256"
        },
        {
          "internalType": "bytes32",
          "name": "amms",
          "type": "bytes32"
        },
        {
          "internalType": "address[]",
          "name": "tokens",
          "type": "address[]"
        },
        {
          "internalType": "address",
          "name": "to",
          "type": "address"
        },
        {
          "internalType": "uint256",
          "name": "deadline",
          "type": "uint256"
        }
      ],
      "name": "swapExactETHForTokens",
      "outputs": [
        {
          "internalType": "uint256[]",
          "name": "amounts",
          "type": "uint256[]"
        }
      ],
      "stateMutability": "payable",
      "type": "function"
    },
    {
      "inputs": [
        {
          "internalType": "uint256",
          "name": "amountIn",
          "type": "uint256"
        },
        {
          "internalType": "uint256",
          "name": "amountOutMin",
          "type": "uint256"
        },
        {
          "internalType": "bytes32",
          "name": "amms",
          "type": "bytes32"
        },
        {
          "internalType": "address[]",
          "name": "tokens",
          "type": "address[]"
        },
        {
          "internalType": "address",
          "name": "to",
          "type": "address"
        },
        {
          "internalType": "uint256",
          "name": "deadline",
          "type": "uint256"
        }
      ],
      "name": "swapExactTokensForETH",
      "outputs": [
        {
          "internalType": "uint256[]",
          "name": "amounts",
          "type": "uint256[]"
        }
      ],
      "stateMutability": "nonpayable",
      "type": "function"
    },
    {
      "inputs": [
        {
          "internalType": "uint256",
          "name": "amountIn",
          "type": "uint256"
        },
        {
          "internalType": "uint256",
          "name": "amountOutMin",
          "type": "uint256"
        },
        {
          "internalType": "bytes32",
          "name": "amms",
          "type": "bytes32"
        },
        {
          "internalType": "address[]",
          "name": "tokens",
          "type": "address[]"
        },
        {
          "internalType": "address",
          "name": "to",
          "type": "address"
        },
        {
          "internalType": "uint256",
          "name": "deadline",
          "type": "uint256"
        }
      ],
      "name": "swapExactTokensForTokens",
      "outputs": [
        {
          "internalType": "uint256[]",
          "name": "amounts",
          "type": "uint256[]"
        }
      ],
      "stateMutability": "nonpayable",
      "type": "function"
    },
    {
      "inputs": [
        {
          "internalType": "uint256",
          "name": "amountOut",
          "type": "uint256"
        },
        {
          "internalType": "uint256",
          "name": "amountInMax",
          "type": "uint256"
        },
        {
          "internalType": "bytes32",
          "name": "amms",
          "type": "bytes32"
        },
        {
          "internalType": "address[]",
          "name": "tokens",
          "type": "address[]"
        },
        {
          "internalType": "address",
          "name": "to",
          "type": "address"
        },
        {
          "internalType": "uint256",
          "name": "deadline",
          "type": "uint256"
        }
      ],
      "name": "swapTokensForExactETH",
      "outputs": [
        {
          "internalType": "uint256[]",
          "name": "amounts",
          "type": "uint256[]"
        }
      ],
      "stateMutability": "nonpayable",
      "type": "function"
    },
    {
      "inputs": [
        {
          "internalType": "uint256",
          "name": "amountOut",
          "type": "uint256"
        },
        {
          "internalType": "uint256",
          "name": "amountInMax",
          "type": "uint256"
        },
        {
          "internalType": "bytes32",
          "name": "amms",
          "type": "bytes32"
        },
        {
          "internalType": "address[]",
          "name": "tokens",
          "type": "address[]"
        },
        {
          "internalType": "address",
          "name": "to",
          "type": "address"
        },
        {
          "internalType": "uint256",
          "name": "deadline",
          "type": "uint256"
        }
      ],
      "name": "swapTokensForExactTokens",
      "outputs": [
        {
          "internalType": "uint256[]",
          "name": "amounts",
          "type": "uint256[]"
        }
      ],
      "stateMutability": "nonpayable",
      "type": "function"
    },
    {
      "stateMutability": "payable",
      "type": "receive"
    }
  ],
  "bytecode": "0x6101006040523480156200001257600080fd5b50604051620031853803806200318583398101604081905262000035916200008e565b6001600160601b0319606096871b811660805294861b851660a05292851b841660c05260009190915560015560025591901b1660e05262000107565b80516001600160a01b03811681146200008957600080fd5b919050565b600080600080600080600060e0888a031215620000a9578283fd5b620000b48862000071565b9650620000c46020890162000071565b9550620000d46040890162000071565b9450620000e46060890162000071565b93506080880151925060a0880151915060c0880151905092959891949750929550565b60805160601c60a05160601c60c05160601c60e05160601c612fdd620001a8600039600081816101090152818161028c015281816103f70152818161069601528181610b3601528181610d7301528181610f3401528181610fdd0152818161118c0152818161134201526113eb01526000818161033a015261214101526000818161015d015261227b0152600081816102e001526123760152612fdd6000f3fe6080604052600436106100ec5760003560e01c8063ad5c46481161008a578063d7bd007c11610059578063d7bd007c14610315578063db42923514610328578063df7c20f91461035c578063e2abb5c41461037257610146565b8063ad5c46481461027a578063b7453e27146102ae578063b852eb0d146102ce578063d51dc2541461030257610146565b8063799d34e1116100c6578063799d34e1146101f65780637f4da6d4146102165780639b6b1ce714610236578063a75208a81461025657610146565b8063059b157a1461014b5780632c8c29dd146101a957806336e1437b146101d657610146565b36610146573373ffffffffffffffffffffffffffffffffffffffff7f0000000000000000000000000000000000000000000000000000000000000000161461014457634e487b7160e01b600052600160045260246000fd5b005b600080fd5b34801561015757600080fd5b5061017f7f000000000000000000000000000000000000000000000000000000000000000081565b60405173ffffffffffffffffffffffffffffffffffffffff90911681526020015b60405180910390f35b3480156101b557600080fd5b506101c96101c4366004612cfa565b610388565b6040516101a09190612dd9565b3480156101e257600080fd5b506101c96101f1366004612cfa565b6107a0565b34801561020257600080fd5b506101c9610211366004612c3b565b610949565b34801561022257600080fd5b506101c9610231366004612cfa565b610993565b34801561024257600080fd5b506101c9610251366004612cfa565b610acc565b34801561026257600080fd5b5061026c60005481565b6040519081526020016101a0565b34801561028657600080fd5b5061017f7f000000000000000000000000000000000000000000000000000000000000000081565b3480156102ba57600080fd5b506101c96102c9366004612c3b565b610cde565b3480156102da57600080fd5b5061017f7f000000000000000000000000000000000000000000000000000000000000000081565b6101c9610310366004612c8c565b610d1e565b6101c9610323366004612c8c565b611137565b34801561033457600080fd5b5061017f7f000000000000000000000000000000000000000000000000000000000000000081565b34801561036857600080fd5b5061026c60015481565b34801561037e57600080fd5b5061026c60025481565b606081428110156103e05760405162461bcd60e51b815260206004820152601160248201527f547261646520686173206578706972656400000000000000000000000000000060448201526064015b60405180910390fd5b73ffffffffffffffffffffffffffffffffffffffff7f0000000000000000000000000000000000000000000000000000000000000000168686610424600182612ee0565b81811061044157634e487b7160e01b600052603260045260246000fd5b90506020020160208101906104569190612bb3565b73ffffffffffffffffffffffffffffffffffffffff16146104b95760405162461bcd60e51b815260206004820152601860248201527f53706f74526f757465723a20494e56414c49445f50415448000000000000000060448201526064016103d7565b60606104f98a898989808060200260200160405190810160405280939291908181526020018383602002808284376000920191909152506115ce92505050565b815191945091508990849061051090600190612ee0565b8151811061052e57634e487b7160e01b600052603260045260246000fd5b602002602001015110156105aa5760405162461bcd60e51b815260206004820152602660248201527f53706f74526f757465723a20494e53554646494349454e545f4f55545055545f60448201527f414d4f554e54000000000000000000000000000000000000000000000000000060648201526084016103d7565b61065433826000815181106105cf57634e487b7160e01b600052603260045260246000fd5b6020026020010151856000815181106105f857634e487b7160e01b600052603260045260246000fd5b60200260200101518a8a600081811061062157634e487b7160e01b600052603260045260246000fd5b90506020020160208101906106369190612bb3565b73ffffffffffffffffffffffffffffffffffffffff1692919061193e565b61069483828989808060200260200160405190810160405280939291908181526020018383602002808284376000920191909152503092506119d9915050565b7f000000000000000000000000000000000000000000000000000000000000000073ffffffffffffffffffffffffffffffffffffffff16632e1a7d4d84600186516106df9190612ee0565b815181106106fd57634e487b7160e01b600052603260045260246000fd5b60200260200101516040518263ffffffff1660e01b815260040161072391815260200190565b600060405180830381600087803b15801561073d57600080fd5b505af1158015610751573d6000803e3d6000fd5b505050506107938584600186516107689190612ee0565b8151811061078657634e487b7160e01b600052603260045260246000fd5b6020026020010151611c35565b5050979650505050505050565b606081428110156107f35760405162461bcd60e51b815260206004820152601160248201527f547261646520686173206578706972656400000000000000000000000000000060448201526064016103d7565b60606108338a898989808060200260200160405190810160405280939291908181526020018383602002808284376000920191909152506115ce92505050565b815191945091508990849061084a90600190612ee0565b8151811061086857634e487b7160e01b600052603260045260246000fd5b602002602001015110156108e45760405162461bcd60e51b815260206004820152602660248201527f53706f74526f757465723a20494e53554646494349454e545f4f55545055545f60448201527f414d4f554e54000000000000000000000000000000000000000000000000000060648201526084016103d7565b61090933826000815181106105cf57634e487b7160e01b600052603260045260246000fd5b61079383828989808060200260200160405190810160405280939291908181526020018383602002808284376000920191909152508b92506119d9915050565b60606109898585858580806020026020016040519081016040528093929190818152602001838360200280828437600092019190915250611d6092505050565b5095945050505050565b606081428110156109e65760405162461bcd60e51b815260206004820152601160248201527f547261646520686173206578706972656400000000000000000000000000000060448201526064016103d7565b6060610a268a89898980806020026020016040519081016040528093929190818152602001838360200280828437600092019190915250611d6092505050565b80925081945050508883600081518110610a5057634e487b7160e01b600052603260045260246000fd5b602002602001015111156108e45760405162461bcd60e51b815260206004820152602260248201527f53706f74526f757465723a204558434553534956455f494e5055545f414d4f5560448201527f4e5400000000000000000000000000000000000000000000000000000000000060648201526084016103d7565b60608142811015610b1f5760405162461bcd60e51b815260206004820152601160248201527f547261646520686173206578706972656400000000000000000000000000000060448201526064016103d7565b73ffffffffffffffffffffffffffffffffffffffff7f0000000000000000000000000000000000000000000000000000000000000000168686610b63600182612ee0565b818110610b8057634e487b7160e01b600052603260045260246000fd5b9050602002016020810190610b959190612bb3565b73ffffffffffffffffffffffffffffffffffffffff1614610bf85760405162461bcd60e51b815260206004820152601860248201527f53706f74526f757465723a20494e56414c49445f50415448000000000000000060448201526064016103d7565b6060610c388a89898980806020026020016040519081016040528093929190818152602001838360200280828437600092019190915250611d6092505050565b80925081945050508883600081518110610c6257634e487b7160e01b600052603260045260246000fd5b602002602001015111156105aa5760405162461bcd60e51b815260206004820152602260248201527f53706f74526f757465723a204558434553534956455f494e5055545f414d4f5560448201527f4e5400000000000000000000000000000000000000000000000000000000000060648201526084016103d7565b606061098985858585808060200260200160405190810160405280939291908181526020018383602002808284376000920191909152506115ce92505050565b60608142811015610d715760405162461bcd60e51b815260206004820152601160248201527f547261646520686173206578706972656400000000000000000000000000000060448201526064016103d7565b7f000000000000000000000000000000000000000000000000000000000000000073ffffffffffffffffffffffffffffffffffffffff1686866000818110610dc957634e487b7160e01b600052603260045260246000fd5b9050602002016020810190610dde9190612bb3565b73ffffffffffffffffffffffffffffffffffffffff1614610e415760405162461bcd60e51b815260206004820152601860248201527f53706f74526f757465723a20494e56414c49445f50415448000000000000000060448201526064016103d7565b6060610e8134898989808060200260200160405190810160405280939291908181526020018383602002808284376000920191909152506115ce92505050565b8151919450915089908490610e9890600190612ee0565b81518110610eb657634e487b7160e01b600052603260045260246000fd5b60200260200101511015610f325760405162461bcd60e51b815260206004820152602660248201527f53706f74526f757465723a20494e53554646494349454e545f4f55545055545f60448201527f414d4f554e54000000000000000000000000000000000000000000000000000060648201526084016103d7565b7f000000000000000000000000000000000000000000000000000000000000000073ffffffffffffffffffffffffffffffffffffffff1663d0e30db084600081518110610f8f57634e487b7160e01b600052603260045260246000fd5b60200260200101516040518263ffffffff1660e01b81526004016000604051808303818588803b158015610fc257600080fd5b505af1158015610fd6573d6000803e3d6000fd5b50505050507f000000000000000000000000000000000000000000000000000000000000000073ffffffffffffffffffffffffffffffffffffffff1663a9059cbb8260008151811061103857634e487b7160e01b600052603260045260246000fd5b6020026020010151346040518363ffffffff1660e01b815260040161107f92919073ffffffffffffffffffffffffffffffffffffffff929092168252602082015260400190565b602060405180830381600087803b15801561109957600080fd5b505af11580156110ad573d6000803e3d6000fd5b505050506040513d601f19601f820116820180604052508101906110d19190612bcd565b6110eb57634e487b7160e01b600052600160045260246000fd5b61112b83828989808060200260200160405190810160405280939291908181526020018383602002808284376000920191909152508b92506119d9915050565b50509695505050505050565b6060814281101561118a5760405162461bcd60e51b815260206004820152601160248201527f547261646520686173206578706972656400000000000000000000000000000060448201526064016103d7565b7f000000000000000000000000000000000000000000000000000000000000000073ffffffffffffffffffffffffffffffffffffffff16868660008181106111e257634e487b7160e01b600052603260045260246000fd5b90506020020160208101906111f79190612bb3565b73ffffffffffffffffffffffffffffffffffffffff161461125a5760405162461bcd60e51b815260206004820152601860248201527f53706f74526f757465723a20494e56414c49445f50415448000000000000000060448201526064016103d7565b606061129a8989898980806020026020016040519081016040528093929190818152602001838360200280828437600092019190915250611d6092505050565b809250819450505034836000815181106112c457634e487b7160e01b600052603260045260246000fd5b602002602001015111156113405760405162461bcd60e51b815260206004820152602260248201527f53706f74526f757465723a204558434553534956455f494e5055545f414d4f5560448201527f4e5400000000000000000000000000000000000000000000000000000000000060648201526084016103d7565b7f000000000000000000000000000000000000000000000000000000000000000073ffffffffffffffffffffffffffffffffffffffff1663d0e30db08460008151811061139d57634e487b7160e01b600052603260045260246000fd5b60200260200101516040518263ffffffff1660e01b81526004016000604051808303818588803b1580156113d057600080fd5b505af11580156113e4573d6000803e3d6000fd5b50505050507f000000000000000000000000000000000000000000000000000000000000000073ffffffffffffffffffffffffffffffffffffffff1663a9059cbb8260008151811061144657634e487b7160e01b600052603260045260246000fd5b60200260200101518560008151811061146f57634e487b7160e01b600052603260045260246000fd5b60200260200101516040518363ffffffff1660e01b81526004016114b592919073ffffffffffffffffffffffffffffffffffffffff929092168252602082015260400190565b602060405180830381600087803b1580156114cf57600080fd5b505af11580156114e3573d6000803e3d6000fd5b505050506040513d601f19601f820116820180604052508101906115079190612bcd565b61152157634e487b7160e01b600052600160045260246000fd5b61156183828989808060200260200160405190810160405280939291908181526020018383602002808284376000920191909152508b92506119d9915050565b8260008151811061158257634e487b7160e01b600052603260045260246000fd5b602002602001015134111561112b5761112b33846000815181106115b657634e487b7160e01b600052603260045260246000fd5b6020026020010151346115c99190612ee0565b611c35565b6060806002835110156116235760405162461bcd60e51b815260206004820152601460248201527f746f6b656e207061746820746f6f2073686f727400000000000000000000000060448201526064016103d7565b825167ffffffffffffffff81111561164b57634e487b7160e01b600052604160045260246000fd5b604051908082528060200260200182016040528015611674578160200160208202803683370190505b509150848260008151811061169957634e487b7160e01b600052603260045260246000fd5b602002602001018181525050600183516116b39190612ee0565b67ffffffffffffffff8111156116d957634e487b7160e01b600052604160045260246000fd5b604051908082528060200260200182016040528015611702578160200160208202803683370190505b50905060005b600184516117169190612ee0565b81101561193557600084828151811061173f57634e487b7160e01b600052603260045260246000fd5b602002602001015190506000858360016117599190612e6b565b8151811061177757634e487b7160e01b600052603260045260246000fd5b6020026020010151905060008784602081106117a357634e487b7160e01b600052603260045260246000fd5b1a60f81b7fff00000000000000000000000000000000000000000000000000000000000000161561183c578784602081106117ee57634e487b7160e01b600052603260045260246000fd5b1a60f81b7effffffffffffffffffffffffffffffffffffffffffffffffffffffffffffff1916600160f81b1461182d5761182883836120f2565b611837565b611837838361222c565b611846565b6118468383612327565b90508085858151811061186957634e487b7160e01b600052603260045260246000fd5b602002602001019073ffffffffffffffffffffffffffffffffffffffff16908173ffffffffffffffffffffffffffffffffffffffff16815250506000806118b1838686612422565b915091506118e78887815181106118d857634e487b7160e01b600052603260045260246000fd5b60200260200101518383612526565b886118f3886001612e6b565b8151811061191157634e487b7160e01b600052603260045260246000fd5b6020026020010181815250505050505050808061192d90612f58565b915050611708565b50935093915050565b6040805173ffffffffffffffffffffffffffffffffffffffff85811660248301528416604482015260648082018490528251808303909101815260849091019091526020810180517bffffffffffffffffffffffffffffffffffffffffffffffffffffffff167f23b872dd000000000000000000000000000000000000000000000000000000001790526119d3908590612647565b50505050565b60005b8351811015611c2e57600080848381518110611a0857634e487b7160e01b600052603260045260246000fd5b602002602001015185846001611a1e9190612e6b565b81518110611a3c57634e487b7160e01b600052603260045260246000fd5b6020026020010151915091506000611a548383612739565b509050600088611a65866001612e6b565b81518110611a8357634e487b7160e01b600052603260045260246000fd5b602002602001015190506000808373ffffffffffffffffffffffffffffffffffffffff168673ffffffffffffffffffffffffffffffffffffffff1614611acb57826000611acf565b6000835b91509150600060018b51611ae39190612ee0565b8810611aef5788611b22565b8a611afb896001612e6b565b81518110611b1957634e487b7160e01b600052603260045260246000fd5b60200260200101515b905060008b8981518110611b4657634e487b7160e01b600052603260045260246000fd5b602002602001015190508073ffffffffffffffffffffffffffffffffffffffff1663022c0d9f858585600067ffffffffffffffff811115611b9757634e487b7160e01b600052604160045260246000fd5b6040519080825280601f01601f191660200182016040528015611bc1576020820181803683370190505b506040518563ffffffff1660e01b8152600401611be19493929190612e30565b600060405180830381600087803b158015611bfb57600080fd5b505af1158015611c0f573d6000803e3d6000fd5b5050505050505050505050508080611c2690612f58565b9150506119dc565b5050505050565b80471015611c855760405162461bcd60e51b815260206004820152601d60248201527f416464726573733a20696e73756666696369656e742062616c616e636500000060448201526064016103d7565b60008273ffffffffffffffffffffffffffffffffffffffff168260405160006040518083038185875af1925050503d8060008114611cdf576040519150601f19603f3d011682016040523d82523d6000602084013e611ce4565b606091505b5050905080611d5b5760405162461bcd60e51b815260206004820152603a60248201527f416464726573733a20756e61626c6520746f2073656e642076616c75652c207260448201527f6563697069656e74206d6179206861766520726576657274656400000000000060648201526084016103d7565b505050565b606080600283511015611db55760405162461bcd60e51b815260206004820152601460248201527f746f6b656e207061746820746f6f2073686f727400000000000000000000000060448201526064016103d7565b825167ffffffffffffffff811115611ddd57634e487b7160e01b600052604160045260246000fd5b604051908082528060200260200182016040528015611e06578160200160208202803683370190505b509150848260018451611e199190612ee0565b81518110611e3757634e487b7160e01b600052603260045260246000fd5b60200260200101818152505060018351611e519190612ee0565b67ffffffffffffffff811115611e7757634e487b7160e01b600052604160045260246000fd5b604051908082528060200260200182016040528015611ea0578160200160208202803683370190505b509050600060018451611eb39190612ee0565b90505b801561193557600084611eca600184612ee0565b81518110611ee857634e487b7160e01b600052603260045260246000fd5b602002602001015190506000858381518110611f1457634e487b7160e01b600052603260045260246000fd5b60200260200101519050600087600185611f2e9190612ee0565b60208110611f4c57634e487b7160e01b600052603260045260246000fd5b1a60f81b7fff000000000000000000000000000000000000000000000000000000000000001615611fef5787611f83600186612ee0565b60208110611fa157634e487b7160e01b600052603260045260246000fd5b1a60f81b7effffffffffffffffffffffffffffffffffffffffffffffffffffffffffffff1916600160f81b14611fe057611fdb83836120f2565b611fea565b611fea838361222c565b611ff9565b611ff98383612327565b90508085612008600187612ee0565b8151811061202657634e487b7160e01b600052603260045260246000fd5b602002602001019073ffffffffffffffffffffffffffffffffffffffff16908173ffffffffffffffffffffffffffffffffffffffff168152505060008061206e838686612422565b915091506120a488878151811061209557634e487b7160e01b600052603260045260246000fd5b60200260200101518383612864565b886120b0600189612ee0565b815181106120ce57634e487b7160e01b600052603260045260246000fd5b602002602001018181525050505050505080806120ea90612f23565b915050611eb6565b60008060006121018585612739565b6040517fffffffffffffffffffffffffffffffffffffffff000000000000000000000000606084811b8216602084015283901b16603482015291935091507f000000000000000000000000000000000000000000000000000000000000000090604801604051602081830303815290604052805190602001206002546040516020016121ed939291907fff00000000000000000000000000000000000000000000000000000000000000815260609390931b7fffffffffffffffffffffffffffffffffffffffff0000000000000000000000001660018401526015830191909152603582015260550190565b604080517fffffffffffffffffffffffffffffffffffffffffffffffffffffffffffffffe0818403018152919052805160209091012095945050505050565b600080600061223b8585612739565b6040517fffffffffffffffffffffffffffffffffffffffff000000000000000000000000606084811b8216602084015283901b16603482015291935091507f000000000000000000000000000000000000000000000000000000000000000090604801604051602081830303815290604052805190602001206001546040516020016121ed939291907fff00000000000000000000000000000000000000000000000000000000000000815260609390931b7fffffffffffffffffffffffffffffffffffffffff0000000000000000000000001660018401526015830191909152603582015260550190565b60008060006123368585612739565b6040517fffffffffffffffffffffffffffffffffffffffff000000000000000000000000606084811b8216602084015283901b16603482015291935091507f000000000000000000000000000000000000000000000000000000000000000090604801604051602081830303815290604052805190602001206000546040516020016121ed939291907fff00000000000000000000000000000000000000000000000000000000000000815260609390931b7fffffffffffffffffffffffffffffffffffffffff0000000000000000000000001660018401526015830191909152603582015260550190565b60008060006124318585612739565b5090506000808773ffffffffffffffffffffffffffffffffffffffff16630902f1ac6040518163ffffffff1660e01b815260040160606040518083038186803b15801561247d57600080fd5b505afa158015612491573d6000803e3d6000fd5b505050506040513d601f19601f820116820180604052508101906124b59190612bed565b506dffffffffffffffffffffffffffff1691506dffffffffffffffffffffffffffff1691508273ffffffffffffffffffffffffffffffffffffffff168773ffffffffffffffffffffffffffffffffffffffff1614612514578082612517565b81815b90999098509650505050505050565b60008084116125775760405162461bcd60e51b815260206004820152601960248201527f494e53554646494349454e545f494e5055545f414d4f554e540000000000000060448201526064016103d7565b6000831180156125875750600082115b6125f95760405162461bcd60e51b815260206004820152602860248201527f556e697377617056324c6962726172793a20494e53554646494349454e545f4c60448201527f495155494449545900000000000000000000000000000000000000000000000060648201526084016103d7565b6000612607856103e5612ea3565b905060006126158483612ea3565b9050600082612626876103e8612ea3565b6126309190612e6b565b905061263c8183612e83565b979650505050505050565b60006126a9826040518060400160405280602081526020017f5361666545524332303a206c6f772d6c6576656c2063616c6c206661696c65648152508573ffffffffffffffffffffffffffffffffffffffff1661298a9092919063ffffffff16565b805190915015611d5b57808060200190518101906126c79190612bcd565b611d5b5760405162461bcd60e51b815260206004820152602a60248201527f5361666545524332303a204552433230206f7065726174696f6e20646964206e60448201527f6f7420737563636565640000000000000000000000000000000000000000000060648201526084016103d7565b6000808273ffffffffffffffffffffffffffffffffffffffff168473ffffffffffffffffffffffffffffffffffffffff1614156127b85760405162461bcd60e51b815260206004820152601260248201527f4964656e746963616c206164647265737321000000000000000000000000000060448201526064016103d7565b8273ffffffffffffffffffffffffffffffffffffffff168473ffffffffffffffffffffffffffffffffffffffff16106127f25782846127f5565b83835b909250905073ffffffffffffffffffffffffffffffffffffffff821661285d5760405162461bcd60e51b815260206004820152600d60248201527f5a65726f2061646472657373210000000000000000000000000000000000000060448201526064016103d7565b9250929050565b60008084116128b55760405162461bcd60e51b815260206004820152601a60248201527f494e53554646494349454e545f4f55545055545f414d4f554e5400000000000060448201526064016103d7565b6000831180156128c55750600082115b6129375760405162461bcd60e51b815260206004820152602860248201527f556e697377617056324c6962726172793a20494e53554646494349454e545f4c60448201527f495155494449545900000000000000000000000000000000000000000000000060648201526084016103d7565b60006129438585612ea3565b61294f906103e8612ea3565b9050600061295d8685612ee0565b612969906103e5612ea3565b90506129758183612e83565b612980906001612e6b565b9695505050505050565b606061299984846000856129a3565b90505b9392505050565b606082471015612a1b5760405162461bcd60e51b815260206004820152602660248201527f416464726573733a20696e73756666696369656e742062616c616e636520666f60448201527f722063616c6c000000000000000000000000000000000000000000000000000060648201526084016103d7565b612a2485612aeb565b612a705760405162461bcd60e51b815260206004820152601d60248201527f416464726573733a2063616c6c20746f206e6f6e2d636f6e747261637400000060448201526064016103d7565b6000808673ffffffffffffffffffffffffffffffffffffffff168587604051612a999190612dbd565b60006040518083038185875af1925050503d8060008114612ad6576040519150601f19603f3d011682016040523d82523d6000602084013e612adb565b606091505b509150915061263c828286612af5565b803b15155b919050565b60608315612b0457508161299c565b825115612b145782518084602001fd5b8160405162461bcd60e51b81526004016103d79190612e1d565b803573ffffffffffffffffffffffffffffffffffffffff81168114612af057600080fd5b60008083601f840112612b63578182fd5b50813567ffffffffffffffff811115612b7a578182fd5b6020830191508360208260051b850101111561285d57600080fd5b80516dffffffffffffffffffffffffffff81168114612af057600080fd5b600060208284031215612bc4578081fd5b61299c82612b2e565b600060208284031215612bde578081fd5b8151801515811461299c578182fd5b600080600060608486031215612c01578182fd5b612c0a84612b95565b9250612c1860208501612b95565b9150604084015163ffffffff81168114612c30578182fd5b809150509250925092565b60008060008060608587031215612c50578081fd5b8435935060208501359250604085013567ffffffffffffffff811115612c74578182fd5b612c8087828801612b52565b95989497509550505050565b60008060008060008060a08789031215612ca4578182fd5b8635955060208701359450604087013567ffffffffffffffff811115612cc8578283fd5b612cd489828a01612b52565b9095509350612ce7905060608801612b2e565b9150608087013590509295509295509295565b600080600080600080600060c0888a031215612d14578081fd5b873596506020880135955060408801359450606088013567ffffffffffffffff811115612d3f578182fd5b612d4b8a828b01612b52565b9095509350612d5e905060808901612b2e565b915060a0880135905092959891949750929550565b60008151808452612d8b816020860160208601612ef7565b601f017fffffffffffffffffffffffffffffffffffffffffffffffffffffffffffffffe0169290920160200192915050565b60008251612dcf818460208701612ef7565b9190910192915050565b6020808252825182820181905260009190848201906040850190845b81811015612e1157835183529284019291840191600101612df5565b50909695505050505050565b60006020825261299c6020830184612d73565b600085825284602083015273ffffffffffffffffffffffffffffffffffffffff84166040830152608060608301526129806080830184612d73565b60008219821115612e7e57612e7e612f91565b500190565b600082612e9e57634e487b7160e01b81526012600452602481fd5b500490565b6000817fffffffffffffffffffffffffffffffffffffffffffffffffffffffffffffffff0483118215151615612edb57612edb612f91565b500290565b600082821015612ef257612ef2612f91565b500390565b60005b83811015612f12578181015183820152602001612efa565b838111156119d35750506000910152565b600081612f3257612f32612f91565b507fffffffffffffffffffffffffffffffffffffffffffffffffffffffffffffffff0190565b60007fffffffffffffffffffffffffffffffffffffffffffffffffffffffffffffffff821415612f8a57612f8a612f91565b5060010190565b634e487b7160e01b600052601160045260246000fdfea26469706673582212207311fcea8f60eb31f5e75a633bde6b9b14f32ea4d853755a90b776ea375b525c64736f6c63430008030033",
  "linkReferences": {},
  "deployedLinkReferences": {}
}