{
  "_format": "hh-sol-artifact-1",
  "contractName": "SpotRouter",
  "sourceName": "contracts/SpotRouter.sol",
  "abi": [
    {
      "inputs": [
        {
          "internalType": "address",
          "name": "_WETH",
          "type": "address"
        },
        {
          "internalType": "address",
          "name": "_amm1Factory",
          "type": "address"
        },
        {
          "internalType": "address",
          "name": "_amm2Factory",
          "type": "address"
        },
        {
          "internalType": "address",
          "name": "_amm3Factory",
          "type": "address"
        },
        {
          "internalType": "bytes32",
          "name": "_amm1InitHash",
          "type": "bytes32"
        },
        {
          "internalType": "bytes32",
          "name": "_amm2InitHash",
          "type": "bytes32"
        },
        {
          "internalType": "bytes32",
          "name": "_amm3InitHash",
          "type": "bytes32"
        }
      ],
      "stateMutability": "nonpayable",
      "type": "constructor"
    },
    {
      "anonymous": false,
      "inputs": [
        {
          "indexed": true,
          "internalType": "address",
          "name": "trader",
          "type": "address"
        },
        {
          "indexed": false,
          "internalType": "address",
          "name": "fromToken",
          "type": "address"
        },
        {
          "indexed": false,
          "internalType": "address",
          "name": "toToken",
          "type": "address"
        },
        {
          "indexed": false,
          "internalType": "uint256",
          "name": "fromAmount",
          "type": "uint256"
        },
        {
          "indexed": false,
          "internalType": "uint256",
          "name": "toAmount",
          "type": "uint256"
        }
      ],
      "name": "SpotTrade",
      "type": "event"
    },
    {
      "inputs": [],
      "name": "WETH",
      "outputs": [
        {
          "internalType": "address",
          "name": "",
          "type": "address"
        }
      ],
      "stateMutability": "view",
      "type": "function"
    },
    {
      "inputs": [],
      "name": "amm1Factory",
      "outputs": [
        {
          "internalType": "address",
          "name": "",
          "type": "address"
        }
      ],
      "stateMutability": "view",
      "type": "function"
    },
    {
      "inputs": [],
      "name": "amm1InitHash",
      "outputs": [
        {
          "internalType": "bytes32",
          "name": "",
          "type": "bytes32"
        }
      ],
      "stateMutability": "view",
      "type": "function"
    },
    {
      "inputs": [],
      "name": "amm2Factory",
      "outputs": [
        {
          "internalType": "address",
          "name": "",
          "type": "address"
        }
      ],
      "stateMutability": "view",
      "type": "function"
    },
    {
      "inputs": [],
      "name": "amm2InitHash",
      "outputs": [
        {
          "internalType": "bytes32",
          "name": "",
          "type": "bytes32"
        }
      ],
      "stateMutability": "view",
      "type": "function"
    },
    {
      "inputs": [],
      "name": "amm3Factory",
      "outputs": [
        {
          "internalType": "address",
          "name": "",
          "type": "address"
        }
      ],
      "stateMutability": "view",
      "type": "function"
    },
    {
      "inputs": [],
      "name": "amm3InitHash",
      "outputs": [
        {
          "internalType": "bytes32",
          "name": "",
          "type": "bytes32"
        }
      ],
      "stateMutability": "view",
      "type": "function"
    },
    {
      "inputs": [
        {
          "internalType": "uint256",
          "name": "outAmount",
          "type": "uint256"
        },
        {
          "internalType": "bytes32",
          "name": "amms",
          "type": "bytes32"
        },
        {
          "internalType": "address[]",
          "name": "tokens",
          "type": "address[]"
        }
      ],
      "name": "getAmountsIn",
      "outputs": [
        {
          "internalType": "uint256[]",
          "name": "amounts",
          "type": "uint256[]"
        }
      ],
      "stateMutability": "view",
      "type": "function"
    },
    {
      "inputs": [
        {
          "internalType": "uint256",
          "name": "inAmount",
          "type": "uint256"
        },
        {
          "internalType": "bytes32",
          "name": "amms",
          "type": "bytes32"
        },
        {
          "internalType": "address[]",
          "name": "tokens",
          "type": "address[]"
        }
      ],
      "name": "getAmountsOut",
      "outputs": [
        {
          "internalType": "uint256[]",
          "name": "amounts",
          "type": "uint256[]"
        }
      ],
      "stateMutability": "view",
      "type": "function"
    },
    {
      "inputs": [
        {
          "internalType": "uint256",
          "name": "amountOut",
          "type": "uint256"
        },
        {
          "internalType": "bytes32",
          "name": "amms",
          "type": "bytes32"
        },
        {
          "internalType": "address[]",
          "name": "tokens",
          "type": "address[]"
        },
        {
          "internalType": "address",
          "name": "to",
          "type": "address"
        },
        {
          "internalType": "uint256",
          "name": "deadline",
          "type": "uint256"
        }
      ],
      "name": "swapETHForExactTokens",
      "outputs": [
        {
          "internalType": "uint256[]",
          "name": "amounts",
          "type": "uint256[]"
        }
      ],
      "stateMutability": "payable",
      "type": "function"
    },
    {
      "inputs": [
        {
          "internalType": "uint256",
          "name": "amountOutMin",
          "type": "uint256"
        },
        {
          "internalType": "bytes32",
          "name": "amms",
          "type": "bytes32"
        },
        {
          "internalType": "address[]",
          "name": "tokens",
          "type": "address[]"
        },
        {
          "internalType": "address",
          "name": "to",
          "type": "address"
        },
        {
          "internalType": "uint256",
          "name": "deadline",
          "type": "uint256"
        }
      ],
      "name": "swapExactETHForTokens",
      "outputs": [
        {
          "internalType": "uint256[]",
          "name": "amounts",
          "type": "uint256[]"
        }
      ],
      "stateMutability": "payable",
      "type": "function"
    },
    {
      "inputs": [
        {
          "internalType": "uint256",
          "name": "amountIn",
          "type": "uint256"
        },
        {
          "internalType": "uint256",
          "name": "amountOutMin",
          "type": "uint256"
        },
        {
          "internalType": "bytes32",
          "name": "amms",
          "type": "bytes32"
        },
        {
          "internalType": "address[]",
          "name": "tokens",
          "type": "address[]"
        },
        {
          "internalType": "address",
          "name": "to",
          "type": "address"
        },
        {
          "internalType": "uint256",
          "name": "deadline",
          "type": "uint256"
        }
      ],
      "name": "swapExactTokensForETH",
      "outputs": [
        {
          "internalType": "uint256[]",
          "name": "amounts",
          "type": "uint256[]"
        }
      ],
      "stateMutability": "nonpayable",
      "type": "function"
    },
    {
      "inputs": [
        {
          "internalType": "uint256",
          "name": "amountIn",
          "type": "uint256"
        },
        {
          "internalType": "uint256",
          "name": "amountOutMin",
          "type": "uint256"
        },
        {
          "internalType": "bytes32",
          "name": "amms",
          "type": "bytes32"
        },
        {
          "internalType": "address[]",
          "name": "tokens",
          "type": "address[]"
        },
        {
          "internalType": "address",
          "name": "to",
          "type": "address"
        },
        {
          "internalType": "uint256",
          "name": "deadline",
          "type": "uint256"
        }
      ],
      "name": "swapExactTokensForTokens",
      "outputs": [
        {
          "internalType": "uint256[]",
          "name": "amounts",
          "type": "uint256[]"
        }
      ],
      "stateMutability": "nonpayable",
      "type": "function"
    },
    {
      "inputs": [
        {
          "internalType": "uint256",
          "name": "amountOut",
          "type": "uint256"
        },
        {
          "internalType": "uint256",
          "name": "amountInMax",
          "type": "uint256"
        },
        {
          "internalType": "bytes32",
          "name": "amms",
          "type": "bytes32"
        },
        {
          "internalType": "address[]",
          "name": "tokens",
          "type": "address[]"
        },
        {
          "internalType": "address",
          "name": "to",
          "type": "address"
        },
        {
          "internalType": "uint256",
          "name": "deadline",
          "type": "uint256"
        }
      ],
      "name": "swapTokensForExactETH",
      "outputs": [
        {
          "internalType": "uint256[]",
          "name": "amounts",
          "type": "uint256[]"
        }
      ],
      "stateMutability": "nonpayable",
      "type": "function"
    },
    {
      "inputs": [
        {
          "internalType": "uint256",
          "name": "amountOut",
          "type": "uint256"
        },
        {
          "internalType": "uint256",
          "name": "amountInMax",
          "type": "uint256"
        },
        {
          "internalType": "bytes32",
          "name": "amms",
          "type": "bytes32"
        },
        {
          "internalType": "address[]",
          "name": "tokens",
          "type": "address[]"
        },
        {
          "internalType": "address",
          "name": "to",
          "type": "address"
        },
        {
          "internalType": "uint256",
          "name": "deadline",
          "type": "uint256"
        }
      ],
      "name": "swapTokensForExactTokens",
      "outputs": [
        {
          "internalType": "uint256[]",
          "name": "amounts",
          "type": "uint256[]"
        }
      ],
      "stateMutability": "nonpayable",
      "type": "function"
    },
    {
      "stateMutability": "payable",
      "type": "receive"
    }
  ],
  "bytecode": "0x6101006040523480156200001257600080fd5b50604051620033fd380380620033fd83398101604081905262000035916200008e565b6001600160601b0319606096871b811660805294861b851660a05292851b841660c05260009190915560015560025591901b1660e05262000107565b80516001600160a01b03811681146200008957600080fd5b919050565b600080600080600080600060e0888a031215620000a9578283fd5b620000b48862000071565b9650620000c46020890162000071565b9550620000d46040890162000071565b9450620000e46060890162000071565b93506080880151925060a0880151915060c0880151905092959891949750929550565b60805160601c60a05160601c60c05160601c60e05160601c613255620001a8600039600081816101090152818161028c015281816103f70152818161069601528181610c7201528181610eaf015281816110700152818161111901528181611404015281816115ba015261166301526000818161033a01526123b901526000818161015d01526124f30152600081816102e001526125ee01526132556000f3fe6080604052600436106100ec5760003560e01c8063ad5c46481161008a578063d7bd007c11610059578063d7bd007c14610315578063db42923514610328578063df7c20f91461035c578063e2abb5c41461037257610146565b8063ad5c46481461027a578063b7453e27146102ae578063b852eb0d146102ce578063d51dc2541461030257610146565b8063799d34e1116100c6578063799d34e1146101f65780637f4da6d4146102165780639b6b1ce714610236578063a75208a81461025657610146565b8063059b157a1461014b5780632c8c29dd146101a957806336e1437b146101d657610146565b36610146573373ffffffffffffffffffffffffffffffffffffffff7f0000000000000000000000000000000000000000000000000000000000000000161461014457634e487b7160e01b600052600160045260246000fd5b005b600080fd5b34801561015757600080fd5b5061017f7f000000000000000000000000000000000000000000000000000000000000000081565b60405173ffffffffffffffffffffffffffffffffffffffff90911681526020015b60405180910390f35b3480156101b557600080fd5b506101c96101c4366004612f72565b610388565b6040516101a09190613051565b3480156101e257600080fd5b506101c96101f1366004612f72565b6108dc565b34801561020257600080fd5b506101c9610211366004612eb3565b610a85565b34801561022257600080fd5b506101c9610231366004612f72565b610acf565b34801561024257600080fd5b506101c9610251366004612f72565b610c08565b34801561026257600080fd5b5061026c60005481565b6040519081526020016101a0565b34801561028657600080fd5b5061017f7f000000000000000000000000000000000000000000000000000000000000000081565b3480156102ba57600080fd5b506101c96102c9366004612eb3565b610e1a565b3480156102da57600080fd5b5061017f7f000000000000000000000000000000000000000000000000000000000000000081565b6101c9610310366004612f04565b610e5a565b6101c9610323366004612f04565b6113af565b34801561033457600080fd5b5061017f7f000000000000000000000000000000000000000000000000000000000000000081565b34801561036857600080fd5b5061026c60015481565b34801561037e57600080fd5b5061026c60025481565b606081428110156103e05760405162461bcd60e51b815260206004820152601160248201527f547261646520686173206578706972656400000000000000000000000000000060448201526064015b60405180910390fd5b73ffffffffffffffffffffffffffffffffffffffff7f0000000000000000000000000000000000000000000000000000000000000000168686610424600182613158565b81811061044157634e487b7160e01b600052603260045260246000fd5b90506020020160208101906104569190612e2b565b73ffffffffffffffffffffffffffffffffffffffff16146104b95760405162461bcd60e51b815260206004820152601860248201527f53706f74526f757465723a20494e56414c49445f50415448000000000000000060448201526064016103d7565b60606104f98a8989898080602002602001604051908101604052809392919081815260200183836020028082843760009201919091525061184692505050565b815191945091508990849061051090600190613158565b8151811061052e57634e487b7160e01b600052603260045260246000fd5b602002602001015110156105aa5760405162461bcd60e51b815260206004820152602660248201527f53706f74526f757465723a20494e53554646494349454e545f4f55545055545f60448201527f414d4f554e54000000000000000000000000000000000000000000000000000060648201526084016103d7565b61065433826000815181106105cf57634e487b7160e01b600052603260045260246000fd5b6020026020010151856000815181106105f857634e487b7160e01b600052603260045260246000fd5b60200260200101518a8a600081811061062157634e487b7160e01b600052603260045260246000fd5b90506020020160208101906106369190612e2b565b73ffffffffffffffffffffffffffffffffffffffff16929190611bb6565b6106948382898980806020026020016040519081016040528093929190818152602001838360200280828437600092019190915250309250611c51915050565b7f000000000000000000000000000000000000000000000000000000000000000073ffffffffffffffffffffffffffffffffffffffff16632e1a7d4d84600186516106df9190613158565b815181106106fd57634e487b7160e01b600052603260045260246000fd5b60200260200101516040518263ffffffff1660e01b815260040161072391815260200190565b600060405180830381600087803b15801561073d57600080fd5b505af1158015610751573d6000803e3d6000fd5b505050506107938584600186516107689190613158565b8151811061078657634e487b7160e01b600052603260045260246000fd5b6020026020010151611ead565b337f83488e4733b2f3ed20b8189f656b48646559d07db7be658c641f0d8bfec2b0f988886000816107d457634e487b7160e01b600052603260045260246000fd5b90506020020160208101906107e99190612e2b565b89896107f6600182613158565b81811061081357634e487b7160e01b600052603260045260246000fd5b90506020020160208101906108289190612e2b565b8660008151811061084957634e487b7160e01b600052603260045260246000fd5b602002602001015187600189516108609190613158565b8151811061087e57634e487b7160e01b600052603260045260246000fd5b60200260200101516040516108c7949392919073ffffffffffffffffffffffffffffffffffffffff94851681529290931660208301526040820152606081019190915260800190565b60405180910390a25050979650505050505050565b6060814281101561092f5760405162461bcd60e51b815260206004820152601160248201527f547261646520686173206578706972656400000000000000000000000000000060448201526064016103d7565b606061096f8a8989898080602002602001604051908101604052809392919081815260200183836020028082843760009201919091525061184692505050565b815191945091508990849061098690600190613158565b815181106109a457634e487b7160e01b600052603260045260246000fd5b60200260200101511015610a205760405162461bcd60e51b815260206004820152602660248201527f53706f74526f757465723a20494e53554646494349454e545f4f55545055545f60448201527f414d4f554e54000000000000000000000000000000000000000000000000000060648201526084016103d7565b610a4533826000815181106105cf57634e487b7160e01b600052603260045260246000fd5b61079383828989808060200260200160405190810160405280939291908181526020018383602002808284376000920191909152508b9250611c51915050565b6060610ac58585858580806020026020016040519081016040528093929190818152602001838360200280828437600092019190915250611fd892505050565b5095945050505050565b60608142811015610b225760405162461bcd60e51b815260206004820152601160248201527f547261646520686173206578706972656400000000000000000000000000000060448201526064016103d7565b6060610b628a89898980806020026020016040519081016040528093929190818152602001838360200280828437600092019190915250611fd892505050565b80925081945050508883600081518110610b8c57634e487b7160e01b600052603260045260246000fd5b60200260200101511115610a205760405162461bcd60e51b815260206004820152602260248201527f53706f74526f757465723a204558434553534956455f494e5055545f414d4f5560448201527f4e5400000000000000000000000000000000000000000000000000000000000060648201526084016103d7565b60608142811015610c5b5760405162461bcd60e51b815260206004820152601160248201527f547261646520686173206578706972656400000000000000000000000000000060448201526064016103d7565b73ffffffffffffffffffffffffffffffffffffffff7f0000000000000000000000000000000000000000000000000000000000000000168686610c9f600182613158565b818110610cbc57634e487b7160e01b600052603260045260246000fd5b9050602002016020810190610cd19190612e2b565b73ffffffffffffffffffffffffffffffffffffffff1614610d345760405162461bcd60e51b815260206004820152601860248201527f53706f74526f757465723a20494e56414c49445f50415448000000000000000060448201526064016103d7565b6060610d748a89898980806020026020016040519081016040528093929190818152602001838360200280828437600092019190915250611fd892505050565b80925081945050508883600081518110610d9e57634e487b7160e01b600052603260045260246000fd5b602002602001015111156105aa5760405162461bcd60e51b815260206004820152602260248201527f53706f74526f757465723a204558434553534956455f494e5055545f414d4f5560448201527f4e5400000000000000000000000000000000000000000000000000000000000060648201526084016103d7565b6060610ac5858585858080602002602001604051908101604052809392919081815260200183836020028082843760009201919091525061184692505050565b60608142811015610ead5760405162461bcd60e51b815260206004820152601160248201527f547261646520686173206578706972656400000000000000000000000000000060448201526064016103d7565b7f000000000000000000000000000000000000000000000000000000000000000073ffffffffffffffffffffffffffffffffffffffff1686866000818110610f0557634e487b7160e01b600052603260045260246000fd5b9050602002016020810190610f1a9190612e2b565b73ffffffffffffffffffffffffffffffffffffffff1614610f7d5760405162461bcd60e51b815260206004820152601860248201527f53706f74526f757465723a20494e56414c49445f50415448000000000000000060448201526064016103d7565b6060610fbd348989898080602002602001604051908101604052809392919081815260200183836020028082843760009201919091525061184692505050565b8151919450915089908490610fd490600190613158565b81518110610ff257634e487b7160e01b600052603260045260246000fd5b6020026020010151101561106e5760405162461bcd60e51b815260206004820152602660248201527f53706f74526f757465723a20494e53554646494349454e545f4f55545055545f60448201527f414d4f554e54000000000000000000000000000000000000000000000000000060648201526084016103d7565b7f000000000000000000000000000000000000000000000000000000000000000073ffffffffffffffffffffffffffffffffffffffff1663d0e30db0846000815181106110cb57634e487b7160e01b600052603260045260246000fd5b60200260200101516040518263ffffffff1660e01b81526004016000604051808303818588803b1580156110fe57600080fd5b505af1158015611112573d6000803e3d6000fd5b50505050507f000000000000000000000000000000000000000000000000000000000000000073ffffffffffffffffffffffffffffffffffffffff1663a9059cbb8260008151811061117457634e487b7160e01b600052603260045260246000fd5b6020026020010151346040518363ffffffff1660e01b81526004016111bb92919073ffffffffffffffffffffffffffffffffffffffff929092168252602082015260400190565b602060405180830381600087803b1580156111d557600080fd5b505af11580156111e9573d6000803e3d6000fd5b505050506040513d601f19601f8201168201806040525081019061120d9190612e45565b61122757634e487b7160e01b600052600160045260246000fd5b61126783828989808060200260200160405190810160405280939291908181526020018383602002808284376000920191909152508b9250611c51915050565b337f83488e4733b2f3ed20b8189f656b48646559d07db7be658c641f0d8bfec2b0f988886000816112a857634e487b7160e01b600052603260045260246000fd5b90506020020160208101906112bd9190612e2b565b89896112ca600182613158565b8181106112e757634e487b7160e01b600052603260045260246000fd5b90506020020160208101906112fc9190612e2b565b8660008151811061131d57634e487b7160e01b600052603260045260246000fd5b602002602001015187600189516113349190613158565b8151811061135257634e487b7160e01b600052603260045260246000fd5b602002602001015160405161139b949392919073ffffffffffffffffffffffffffffffffffffffff94851681529290931660208301526040820152606081019190915260800190565b60405180910390a250509695505050505050565b606081428110156114025760405162461bcd60e51b815260206004820152601160248201527f547261646520686173206578706972656400000000000000000000000000000060448201526064016103d7565b7f000000000000000000000000000000000000000000000000000000000000000073ffffffffffffffffffffffffffffffffffffffff168686600081811061145a57634e487b7160e01b600052603260045260246000fd5b905060200201602081019061146f9190612e2b565b73ffffffffffffffffffffffffffffffffffffffff16146114d25760405162461bcd60e51b815260206004820152601860248201527f53706f74526f757465723a20494e56414c49445f50415448000000000000000060448201526064016103d7565b60606115128989898980806020026020016040519081016040528093929190818152602001838360200280828437600092019190915250611fd892505050565b8092508194505050348360008151811061153c57634e487b7160e01b600052603260045260246000fd5b602002602001015111156115b85760405162461bcd60e51b815260206004820152602260248201527f53706f74526f757465723a204558434553534956455f494e5055545f414d4f5560448201527f4e5400000000000000000000000000000000000000000000000000000000000060648201526084016103d7565b7f000000000000000000000000000000000000000000000000000000000000000073ffffffffffffffffffffffffffffffffffffffff1663d0e30db08460008151811061161557634e487b7160e01b600052603260045260246000fd5b60200260200101516040518263ffffffff1660e01b81526004016000604051808303818588803b15801561164857600080fd5b505af115801561165c573d6000803e3d6000fd5b50505050507f000000000000000000000000000000000000000000000000000000000000000073ffffffffffffffffffffffffffffffffffffffff1663a9059cbb826000815181106116be57634e487b7160e01b600052603260045260246000fd5b6020026020010151856000815181106116e757634e487b7160e01b600052603260045260246000fd5b60200260200101516040518363ffffffff1660e01b815260040161172d92919073ffffffffffffffffffffffffffffffffffffffff929092168252602082015260400190565b602060405180830381600087803b15801561174757600080fd5b505af115801561175b573d6000803e3d6000fd5b505050506040513d601f19601f8201168201806040525081019061177f9190612e45565b61179957634e487b7160e01b600052600160045260246000fd5b6117d983828989808060200260200160405190810160405280939291908181526020018383602002808284376000920191909152508b9250611c51915050565b826000815181106117fa57634e487b7160e01b600052603260045260246000fd5b602002602001015134111561126757611267338460008151811061182e57634e487b7160e01b600052603260045260246000fd5b6020026020010151346118419190613158565b611ead565b60608060028351101561189b5760405162461bcd60e51b815260206004820152601460248201527f746f6b656e207061746820746f6f2073686f727400000000000000000000000060448201526064016103d7565b825167ffffffffffffffff8111156118c357634e487b7160e01b600052604160045260246000fd5b6040519080825280602002602001820160405280156118ec578160200160208202803683370190505b509150848260008151811061191157634e487b7160e01b600052603260045260246000fd5b6020026020010181815250506001835161192b9190613158565b67ffffffffffffffff81111561195157634e487b7160e01b600052604160045260246000fd5b60405190808252806020026020018201604052801561197a578160200160208202803683370190505b50905060005b6001845161198e9190613158565b811015611bad5760008482815181106119b757634e487b7160e01b600052603260045260246000fd5b602002602001015190506000858360016119d191906130e3565b815181106119ef57634e487b7160e01b600052603260045260246000fd5b602002602001015190506000878460208110611a1b57634e487b7160e01b600052603260045260246000fd5b1a60f81b7fff000000000000000000000000000000000000000000000000000000000000001615611ab457878460208110611a6657634e487b7160e01b600052603260045260246000fd5b1a60f81b7effffffffffffffffffffffffffffffffffffffffffffffffffffffffffffff1916600160f81b14611aa557611aa0838361236a565b611aaf565b611aaf83836124a4565b611abe565b611abe838361259f565b905080858581518110611ae157634e487b7160e01b600052603260045260246000fd5b602002602001019073ffffffffffffffffffffffffffffffffffffffff16908173ffffffffffffffffffffffffffffffffffffffff1681525050600080611b2983868661269a565b91509150611b5f888781518110611b5057634e487b7160e01b600052603260045260246000fd5b6020026020010151838361279e565b88611b6b8860016130e3565b81518110611b8957634e487b7160e01b600052603260045260246000fd5b60200260200101818152505050505050508080611ba5906131d0565b915050611980565b50935093915050565b6040805173ffffffffffffffffffffffffffffffffffffffff85811660248301528416604482015260648082018490528251808303909101815260849091019091526020810180517bffffffffffffffffffffffffffffffffffffffffffffffffffffffff167f23b872dd00000000000000000000000000000000000000000000000000000000179052611c4b9085906128bf565b50505050565b60005b8351811015611ea657600080848381518110611c8057634e487b7160e01b600052603260045260246000fd5b602002602001015185846001611c9691906130e3565b81518110611cb457634e487b7160e01b600052603260045260246000fd5b6020026020010151915091506000611ccc83836129b1565b509050600088611cdd8660016130e3565b81518110611cfb57634e487b7160e01b600052603260045260246000fd5b602002602001015190506000808373ffffffffffffffffffffffffffffffffffffffff168673ffffffffffffffffffffffffffffffffffffffff1614611d4357826000611d47565b6000835b91509150600060018b51611d5b9190613158565b8810611d675788611d9a565b8a611d738960016130e3565b81518110611d9157634e487b7160e01b600052603260045260246000fd5b60200260200101515b905060008b8981518110611dbe57634e487b7160e01b600052603260045260246000fd5b602002602001015190508073ffffffffffffffffffffffffffffffffffffffff1663022c0d9f858585600067ffffffffffffffff811115611e0f57634e487b7160e01b600052604160045260246000fd5b6040519080825280601f01601f191660200182016040528015611e39576020820181803683370190505b506040518563ffffffff1660e01b8152600401611e5994939291906130a8565b600060405180830381600087803b158015611e7357600080fd5b505af1158015611e87573d6000803e3d6000fd5b5050505050505050505050508080611e9e906131d0565b915050611c54565b5050505050565b80471015611efd5760405162461bcd60e51b815260206004820152601d60248201527f416464726573733a20696e73756666696369656e742062616c616e636500000060448201526064016103d7565b60008273ffffffffffffffffffffffffffffffffffffffff168260405160006040518083038185875af1925050503d8060008114611f57576040519150601f19603f3d011682016040523d82523d6000602084013e611f5c565b606091505b5050905080611fd35760405162461bcd60e51b815260206004820152603a60248201527f416464726573733a20756e61626c6520746f2073656e642076616c75652c207260448201527f6563697069656e74206d6179206861766520726576657274656400000000000060648201526084016103d7565b505050565b60608060028351101561202d5760405162461bcd60e51b815260206004820152601460248201527f746f6b656e207061746820746f6f2073686f727400000000000000000000000060448201526064016103d7565b825167ffffffffffffffff81111561205557634e487b7160e01b600052604160045260246000fd5b60405190808252806020026020018201604052801561207e578160200160208202803683370190505b5091508482600184516120919190613158565b815181106120af57634e487b7160e01b600052603260045260246000fd5b602002602001018181525050600183516120c99190613158565b67ffffffffffffffff8111156120ef57634e487b7160e01b600052604160045260246000fd5b604051908082528060200260200182016040528015612118578160200160208202803683370190505b50905060006001845161212b9190613158565b90505b8015611bad57600084612142600184613158565b8151811061216057634e487b7160e01b600052603260045260246000fd5b60200260200101519050600085838151811061218c57634e487b7160e01b600052603260045260246000fd5b602002602001015190506000876001856121a69190613158565b602081106121c457634e487b7160e01b600052603260045260246000fd5b1a60f81b7fff00000000000000000000000000000000000000000000000000000000000000161561226757876121fb600186613158565b6020811061221957634e487b7160e01b600052603260045260246000fd5b1a60f81b7effffffffffffffffffffffffffffffffffffffffffffffffffffffffffffff1916600160f81b1461225857612253838361236a565b612262565b61226283836124a4565b612271565b612271838361259f565b90508085612280600187613158565b8151811061229e57634e487b7160e01b600052603260045260246000fd5b602002602001019073ffffffffffffffffffffffffffffffffffffffff16908173ffffffffffffffffffffffffffffffffffffffff16815250506000806122e683868661269a565b9150915061231c88878151811061230d57634e487b7160e01b600052603260045260246000fd5b60200260200101518383612adc565b88612328600189613158565b8151811061234657634e487b7160e01b600052603260045260246000fd5b602002602001018181525050505050505080806123629061319b565b91505061212e565b600080600061237985856129b1565b6040517fffffffffffffffffffffffffffffffffffffffff000000000000000000000000606084811b8216602084015283901b16603482015291935091507f00000000000000000000000000000000000000000000000000000000000000009060480160405160208183030381529060405280519060200120600254604051602001612465939291907fff00000000000000000000000000000000000000000000000000000000000000815260609390931b7fffffffffffffffffffffffffffffffffffffffff0000000000000000000000001660018401526015830191909152603582015260550190565b604080517fffffffffffffffffffffffffffffffffffffffffffffffffffffffffffffffe0818403018152919052805160209091012095945050505050565b60008060006124b385856129b1565b6040517fffffffffffffffffffffffffffffffffffffffff000000000000000000000000606084811b8216602084015283901b16603482015291935091507f00000000000000000000000000000000000000000000000000000000000000009060480160405160208183030381529060405280519060200120600154604051602001612465939291907fff00000000000000000000000000000000000000000000000000000000000000815260609390931b7fffffffffffffffffffffffffffffffffffffffff0000000000000000000000001660018401526015830191909152603582015260550190565b60008060006125ae85856129b1565b6040517fffffffffffffffffffffffffffffffffffffffff000000000000000000000000606084811b8216602084015283901b16603482015291935091507f00000000000000000000000000000000000000000000000000000000000000009060480160405160208183030381529060405280519060200120600054604051602001612465939291907fff00000000000000000000000000000000000000000000000000000000000000815260609390931b7fffffffffffffffffffffffffffffffffffffffff0000000000000000000000001660018401526015830191909152603582015260550190565b60008060006126a985856129b1565b5090506000808773ffffffffffffffffffffffffffffffffffffffff16630902f1ac6040518163ffffffff1660e01b815260040160606040518083038186803b1580156126f557600080fd5b505afa158015612709573d6000803e3d6000fd5b505050506040513d601f19601f8201168201806040525081019061272d9190612e65565b506dffffffffffffffffffffffffffff1691506dffffffffffffffffffffffffffff1691508273ffffffffffffffffffffffffffffffffffffffff168773ffffffffffffffffffffffffffffffffffffffff161461278c57808261278f565b81815b90999098509650505050505050565b60008084116127ef5760405162461bcd60e51b815260206004820152601960248201527f494e53554646494349454e545f494e5055545f414d4f554e540000000000000060448201526064016103d7565b6000831180156127ff5750600082115b6128715760405162461bcd60e51b815260206004820152602860248201527f556e697377617056324c6962726172793a20494e53554646494349454e545f4c60448201527f495155494449545900000000000000000000000000000000000000000000000060648201526084016103d7565b600061287f856103e561311b565b9050600061288d848361311b565b905060008261289e876103e861311b565b6128a891906130e3565b90506128b481836130fb565b979650505050505050565b6000612921826040518060400160405280602081526020017f5361666545524332303a206c6f772d6c6576656c2063616c6c206661696c65648152508573ffffffffffffffffffffffffffffffffffffffff16612c029092919063ffffffff16565b805190915015611fd3578080602001905181019061293f9190612e45565b611fd35760405162461bcd60e51b815260206004820152602a60248201527f5361666545524332303a204552433230206f7065726174696f6e20646964206e60448201527f6f7420737563636565640000000000000000000000000000000000000000000060648201526084016103d7565b6000808273ffffffffffffffffffffffffffffffffffffffff168473ffffffffffffffffffffffffffffffffffffffff161415612a305760405162461bcd60e51b815260206004820152601260248201527f4964656e746963616c206164647265737321000000000000000000000000000060448201526064016103d7565b8273ffffffffffffffffffffffffffffffffffffffff168473ffffffffffffffffffffffffffffffffffffffff1610612a6a578284612a6d565b83835b909250905073ffffffffffffffffffffffffffffffffffffffff8216612ad55760405162461bcd60e51b815260206004820152600d60248201527f5a65726f2061646472657373210000000000000000000000000000000000000060448201526064016103d7565b9250929050565b6000808411612b2d5760405162461bcd60e51b815260206004820152601a60248201527f494e53554646494349454e545f4f55545055545f414d4f554e5400000000000060448201526064016103d7565b600083118015612b3d5750600082115b612baf5760405162461bcd60e51b815260206004820152602860248201527f556e697377617056324c6962726172793a20494e53554646494349454e545f4c60448201527f495155494449545900000000000000000000000000000000000000000000000060648201526084016103d7565b6000612bbb858561311b565b612bc7906103e861311b565b90506000612bd58685613158565b612be1906103e561311b565b9050612bed81836130fb565b612bf89060016130e3565b9695505050505050565b6060612c118484600085612c1b565b90505b9392505050565b606082471015612c935760405162461bcd60e51b815260206004820152602660248201527f416464726573733a20696e73756666696369656e742062616c616e636520666f60448201527f722063616c6c000000000000000000000000000000000000000000000000000060648201526084016103d7565b612c9c85612d63565b612ce85760405162461bcd60e51b815260206004820152601d60248201527f416464726573733a2063616c6c20746f206e6f6e2d636f6e747261637400000060448201526064016103d7565b6000808673ffffffffffffffffffffffffffffffffffffffff168587604051612d119190613035565b60006040518083038185875af1925050503d8060008114612d4e576040519150601f19603f3d011682016040523d82523d6000602084013e612d53565b606091505b50915091506128b4828286612d6d565b803b15155b919050565b60608315612d7c575081612c14565b825115612d8c5782518084602001fd5b8160405162461bcd60e51b81526004016103d79190613095565b803573ffffffffffffffffffffffffffffffffffffffff81168114612d6857600080fd5b60008083601f840112612ddb578182fd5b50813567ffffffffffffffff811115612df2578182fd5b6020830191508360208260051b8501011115612ad557600080fd5b80516dffffffffffffffffffffffffffff81168114612d6857600080fd5b600060208284031215612e3c578081fd5b612c1482612da6565b600060208284031215612e56578081fd5b81518015158114612c14578182fd5b600080600060608486031215612e79578182fd5b612e8284612e0d565b9250612e9060208501612e0d565b9150604084015163ffffffff81168114612ea8578182fd5b809150509250925092565b60008060008060608587031215612ec8578081fd5b8435935060208501359250604085013567ffffffffffffffff811115612eec578182fd5b612ef887828801612dca565b95989497509550505050565b60008060008060008060a08789031215612f1c578182fd5b8635955060208701359450604087013567ffffffffffffffff811115612f40578283fd5b612f4c89828a01612dca565b9095509350612f5f905060608801612da6565b9150608087013590509295509295509295565b600080600080600080600060c0888a031215612f8c578081fd5b873596506020880135955060408801359450606088013567ffffffffffffffff811115612fb7578182fd5b612fc38a828b01612dca565b9095509350612fd6905060808901612da6565b915060a0880135905092959891949750929550565b6000815180845261300381602086016020860161316f565b601f017fffffffffffffffffffffffffffffffffffffffffffffffffffffffffffffffe0169290920160200192915050565b6000825161304781846020870161316f565b9190910192915050565b6020808252825182820181905260009190848201906040850190845b818110156130895783518352928401929184019160010161306d565b50909695505050505050565b600060208252612c146020830184612feb565b600085825284602083015273ffffffffffffffffffffffffffffffffffffffff8416604083015260806060830152612bf86080830184612feb565b600082198211156130f6576130f6613209565b500190565b60008261311657634e487b7160e01b81526012600452602481fd5b500490565b6000817fffffffffffffffffffffffffffffffffffffffffffffffffffffffffffffffff048311821515161561315357613153613209565b500290565b60008282101561316a5761316a613209565b500390565b60005b8381101561318a578181015183820152602001613172565b83811115611c4b5750506000910152565b6000816131aa576131aa613209565b507fffffffffffffffffffffffffffffffffffffffffffffffffffffffffffffffff0190565b60007fffffffffffffffffffffffffffffffffffffffffffffffffffffffffffffffff82141561320257613202613209565b5060010190565b634e487b7160e01b600052601160045260246000fdfea2646970667358221220022afd6e74691e614d97b0cb9f24c0c984f7ac45830a9649a7f655dbf562a94464736f6c63430008030033",
  "linkReferences": {},
  "deployedLinkReferences": {}
}