{
  "_format": "hh-sol-artifact-1",
  "contractName": "Relender",
  "sourceName": "contracts/Relender.sol",
  "abi": [
    {
      "inputs": [
        {
          "internalType": "address",
          "name": "_roles",
          "type": "address"
        }
      ],
      "stateMutability": "nonpayable",
      "type": "constructor"
    },
    {
      "inputs": [
        {
          "internalType": "address",
          "name": "token",
          "type": "address"
        }
      ],
      "name": "crossRelend",
      "outputs": [],
      "stateMutability": "nonpayable",
      "type": "function"
    },
    {
      "inputs": [
        {
          "internalType": "uint256",
          "name": "",
          "type": "uint256"
        }
      ],
      "name": "mainCharacterCache",
      "outputs": [
        {
          "internalType": "address",
          "name": "",
          "type": "address"
        }
      ],
      "stateMutability": "view",
      "type": "function"
    },
    {
      "inputs": [],
      "name": "relendPercent",
      "outputs": [
        {
          "internalType": "uint256",
          "name": "",
          "type": "uint256"
        }
      ],
      "stateMutability": "view",
      "type": "function"
    },
    {
      "inputs": [
        {
          "internalType": "address",
          "name": "",
          "type": "address"
        },
        {
          "internalType": "uint256",
          "name": "",
          "type": "uint256"
        }
      ],
      "name": "roleCache",
      "outputs": [
        {
          "internalType": "bool",
          "name": "",
          "type": "bool"
        }
      ],
      "stateMutability": "view",
      "type": "function"
    },
    {
      "inputs": [],
      "name": "roles",
      "outputs": [
        {
          "internalType": "contract Roles",
          "name": "",
          "type": "address"
        }
      ],
      "stateMutability": "view",
      "type": "function"
    },
    {
      "inputs": [
        {
          "internalType": "uint256",
          "name": "newRelendPercent",
          "type": "uint256"
        }
      ],
      "name": "setRelendPercent",
      "outputs": [],
      "stateMutability": "nonpayable",
      "type": "function"
    },
    {
      "inputs": [
        {
          "internalType": "uint256",
          "name": "role",
          "type": "uint256"
        }
      ],
      "name": "updateMainCharacterCache",
      "outputs": [],
      "stateMutability": "nonpayable",
      "type": "function"
    },
    {
      "inputs": [
        {
          "internalType": "uint256",
          "name": "role",
          "type": "uint256"
        },
        {
          "internalType": "address",
          "name": "contr",
          "type": "address"
        }
      ],
      "name": "updateRoleCache",
      "outputs": [],
      "stateMutability": "nonpayable",
      "type": "function"
    }
  ],
  "bytecode": "0x60a0604052600a60025534801561001557600080fd5b50604051610ae9380380610ae9833981016040819052610034916100b0565b806001600160a01b03811661009a5760405162461bcd60e51b815260206004820152602260248201527f506c656173652070726f766964652076616c696420726f6c6573206164647265604482015261737360f01b606482015260840160405180910390fd5b60601b6001600160601b031916608052506100de565b6000602082840312156100c1578081fd5b81516001600160a01b03811681146100d7578182fd5b9392505050565b60805160601c6109d26101176000396000818160e9015281816101cc015281816106a40152818161075a01526107f201526109d26000f3fe608060405234801561001057600080fd5b50600436106100885760003560e01c8063392f5f641161005b578063392f5f64146100e4578063447d52ba146101235780637a1a04df14610136578063e9c3f77d1461017457610088565b8063071060a61461008d5780632c01d439146100a25780632dbe0a23146100b557806331454ffb146100d1575b600080fd5b6100a061009b3660046108e9565b61019d565b005b6100a06100b03660046108e9565b610294565b6100be60025481565b6040519081526020015b60405180910390f35b6100a06100df36600461085f565b610330565b61010b7f000000000000000000000000000000000000000000000000000000000000000081565b6040516001600160a01b0390911681526020016100c8565b6100a0610131366004610919565b610665565b61016461014436600461089e565b600160209081526000928352604080842090915290825290205460ff1681565b60405190151581526020016100c8565b61010b6101823660046108e9565b6000602081905290815260409020546001600160a01b031681565b6040517fb4ed0b6d000000000000000000000000000000000000000000000000000000008152600481018290527f00000000000000000000000000000000000000000000000000000000000000006001600160a01b03169063b4ed0b6d9060240160206040518083038186803b15801561021657600080fd5b505afa15801561022a573d6000803e3d6000fd5b505050506040513d601f19601f8201168201806040525081019061024e9190610882565b60009182526020829052604090912080547fffffffffffffffffffffffff0000000000000000000000000000000000000000166001600160a01b03909216919091179055565b3361029d610756565b6001600160a01b031614806102c15750336102b66107ee565b6001600160a01b0316145b61032b576040517f08c379a000000000000000000000000000000000000000000000000000000000815260206004820152601e60248201527f526f6c65733a2063616c6c6572206973206e6f7420746865206f776e65720000604482015260640160405180910390fd5b600255565b600061036d606660009081526020527f422cccb7cea5c0e46f340bb7b21b81debac329f72e31669c20ff0f3a05cc2b5b546001600160a01b031690565b6040517f6e60e2490000000000000000000000000000000000000000000000000000000081526001600160a01b0384811660048301523060248301529190911690636e60e2499060440160206040518083038186803b1580156103cf57600080fd5b505afa1580156103e3573d6000803e3d6000fd5b505050506040513d601f19601f820116820180604052508101906104079190610901565b90506000610446606860009081526020527faa071f48f62aaaa1f6320aaa7bd2ad2d552d05160892c14d699d38c9920d5f99546001600160a01b031690565b6040517f20c271260000000000000000000000000000000000000000000000000000000081526001600160a01b03858116600483015291909116906320c271269060240160206040518083038186803b1580156104a257600080fd5b505afa1580156104b6573d6000803e3d6000fd5b505050506040513d601f19601f820116820180604052508101906104da9190610901565b9050808211156105a457606660009081526020527f422cccb7cea5c0e46f340bb7b21b81debac329f72e31669c20ff0f3a05cc2b5b546001600160a01b0316630f7c43dc846105298486610948565b6040517fffffffff0000000000000000000000000000000000000000000000000000000060e085901b1681526001600160a01b0390921660048301526024820152604401600060405180830381600087803b15801561058757600080fd5b505af115801561059b573d6000803e3d6000fd5b50505050610660565b606660009081526020527f422cccb7cea5c0e46f340bb7b21b81debac329f72e31669c20ff0f3a05cc2b5b546001600160a01b03166316de7a43846105e98585610948565b6040517fffffffff0000000000000000000000000000000000000000000000000000000060e085901b1681526001600160a01b0390921660048301526024820152604401600060405180830381600087803b15801561064757600080fd5b505af115801561065b573d6000803e3d6000fd5b505050505b505050565b6040517f93552a3d000000000000000000000000000000000000000000000000000000008152600481018390526001600160a01b0382811660248301527f000000000000000000000000000000000000000000000000000000000000000016906393552a3d9060440160206040518083038186803b1580156106e657600080fd5b505afa1580156106fa573d6000803e3d6000fd5b505050506040513d601f19601f8201168201806040525081019061071e91906108c9565b6001600160a01b0391909116600090815260016020908152604080832094835293905291909120805460ff1916911515919091179055565b60007f00000000000000000000000000000000000000000000000000000000000000006001600160a01b0316638da5cb5b6040518163ffffffff1660e01b815260040160206040518083038186803b1580156107b157600080fd5b505afa1580156107c5573d6000803e3d6000fd5b505050506040513d601f19601f820116820180604052508101906107e99190610882565b905090565b60007f00000000000000000000000000000000000000000000000000000000000000006001600160a01b031663c34c08e56040518163ffffffff1660e01b8152600401602060405180830381600087803b15801561084b57600080fd5b505af11580156107c5573d6000803e3d6000fd5b600060208284031215610870578081fd5b813561087b81610984565b9392505050565b600060208284031215610893578081fd5b815161087b81610984565b600080604083850312156108b0578081fd5b82356108bb81610984565b946020939093013593505050565b6000602082840312156108da578081fd5b8151801515811461087b578182fd5b6000602082840312156108fa578081fd5b5035919050565b600060208284031215610912578081fd5b5051919050565b6000806040838503121561092b578182fd5b82359150602083013561093d81610984565b809150509250929050565b60008282101561097f577f4e487b710000000000000000000000000000000000000000000000000000000081526011600452602481fd5b500390565b6001600160a01b038116811461099957600080fd5b5056fea264697066735822122085bcfe1a843ba8a8c68769aec57a941c89e6b08cc919a302380a339637d4c9d364736f6c63430008030033",
  "linkReferences": {},
  "deployedLinkReferences": {}
}