{
  "_format": "hh-sol-artifact-1",
  "contractName": "Relender",
  "sourceName": "contracts/Relender.sol",
  "abi": [
    {
      "inputs": [
        {
          "internalType": "address",
          "name": "_roles",
          "type": "address"
        }
      ],
      "stateMutability": "nonpayable",
      "type": "constructor"
    },
    {
      "inputs": [
        {
          "internalType": "address",
          "name": "token",
          "type": "address"
        }
      ],
      "name": "crossRelend",
      "outputs": [],
      "stateMutability": "nonpayable",
      "type": "function"
    },
    {
      "inputs": [
        {
          "internalType": "uint256",
          "name": "",
          "type": "uint256"
        }
      ],
      "name": "mainCharacterCache",
      "outputs": [
        {
          "internalType": "address",
          "name": "",
          "type": "address"
        }
      ],
      "stateMutability": "view",
      "type": "function"
    },
    {
      "inputs": [],
      "name": "relendPercent",
      "outputs": [
        {
          "internalType": "uint256",
          "name": "",
          "type": "uint256"
        }
      ],
      "stateMutability": "view",
      "type": "function"
    },
    {
      "inputs": [
        {
          "internalType": "address",
          "name": "",
          "type": "address"
        },
        {
          "internalType": "uint256",
          "name": "",
          "type": "uint256"
        }
      ],
      "name": "roleCache",
      "outputs": [
        {
          "internalType": "bool",
          "name": "",
          "type": "bool"
        }
      ],
      "stateMutability": "view",
      "type": "function"
    },
    {
      "inputs": [],
      "name": "roles",
      "outputs": [
        {
          "internalType": "contract Roles",
          "name": "",
          "type": "address"
        }
      ],
      "stateMutability": "view",
      "type": "function"
    },
    {
      "inputs": [
        {
          "internalType": "uint256",
          "name": "newRelendPercent",
          "type": "uint256"
        }
      ],
      "name": "setRelendPercent",
      "outputs": [],
      "stateMutability": "nonpayable",
      "type": "function"
    },
    {
      "inputs": [
        {
          "internalType": "uint256",
          "name": "role",
          "type": "uint256"
        }
      ],
      "name": "updateMainCharacterCache",
      "outputs": [],
      "stateMutability": "nonpayable",
      "type": "function"
    },
    {
      "inputs": [
        {
          "internalType": "uint256",
          "name": "role",
          "type": "uint256"
        },
        {
          "internalType": "address",
          "name": "contr",
          "type": "address"
        }
      ],
      "name": "updateRoleCache",
      "outputs": [],
      "stateMutability": "nonpayable",
      "type": "function"
    }
  ],
  "bytecode": "0x60a0604052600a60025534801561001557600080fd5b506040516109c73803806109c7833981016040819052610034916100b0565b806001600160a01b03811661009a5760405162461bcd60e51b815260206004820152602260248201527f506c656173652070726f766964652076616c696420726f6c6573206164647265604482015261737360f01b606482015260840160405180910390fd5b60601b6001600160601b031916608052506100de565b6000602082840312156100c1578081fd5b81516001600160a01b03811681146100d7578182fd5b9392505050565b60805160601c6108b06101176000396000818160e9015281816101b3015281816105630152818161061901526106b101526108b06000f3fe608060405234801561001057600080fd5b50600436106100885760003560e01c8063392f5f641161005b578063392f5f64146100e4578063447d52ba146101235780637a1a04df14610136578063e9c3f77d1461017457610088565b8063071060a61461008d5780632c01d439146100a25780632dbe0a23146100b557806331454ffb146100d1575b600080fd5b6100a061009b3660046107e0565b61019d565b005b6100a06100b03660046107e0565b610263565b6100be60025481565b6040519081526020015b60405180910390f35b6100a06100df366004610756565b6102e5565b61010b7f000000000000000000000000000000000000000000000000000000000000000081565b6040516001600160a01b0390911681526020016100c8565b6100a0610131366004610810565b61053d565b610164610144366004610795565b600160209081526000928352604080842090915290825290205460ff1681565b60405190151581526020016100c8565b61010b6101823660046107e0565b6000602081905290815260409020546001600160a01b031681565b60405163b4ed0b6d60e01b8152600481018290527f00000000000000000000000000000000000000000000000000000000000000006001600160a01b03169063b4ed0b6d9060240160206040518083038186803b1580156101fd57600080fd5b505afa158015610211573d6000803e3d6000fd5b505050506040513d601f19601f820116820180604052508101906102359190610779565b60009182526020829052604090912080546001600160a01b0319166001600160a01b03909216919091179055565b3361026c610615565b6001600160a01b031614806102905750336102856106ad565b6001600160a01b0316145b6102e05760405162461bcd60e51b815260206004820152601e60248201527f526f6c65733a2063616c6c6572206973206e6f7420746865206f776e65720000604482015260640160405180910390fd5b600255565b60006102ef61071e565b604051636e60e24960e01b81526001600160a01b0384811660048301523060248301529190911690636e60e2499060440160206040518083038186803b15801561033857600080fd5b505afa15801561034c573d6000803e3d6000fd5b505050506040513d601f19601f8201168201806040525081019061037091906107f8565b905060006103af606860009081526020527faa071f48f62aaaa1f6320aaa7bd2ad2d552d05160892c14d699d38c9920d5f99546001600160a01b031690565b604051631061389360e11b81526001600160a01b03858116600483015291909116906320c271269060240160206040518083038186803b1580156103f257600080fd5b505afa158015610406573d6000803e3d6000fd5b505050506040513d601f19601f8201168201806040525081019061042a91906107f8565b9050808211156104b85761043c61071e565b6001600160a01b0316630f7c43dc84610455848661083f565b6040516001600160e01b031960e085901b1681526001600160a01b0390921660048301526024820152604401600060405180830381600087803b15801561049b57600080fd5b505af11580156104af573d6000803e3d6000fd5b50505050610538565b6104c061071e565b6001600160a01b03166316de7a43846104d9858561083f565b6040516001600160e01b031960e085901b1681526001600160a01b0390921660048301526024820152604401600060405180830381600087803b15801561051f57600080fd5b505af1158015610533573d6000803e3d6000fd5b505050505b505050565b6040516393552a3d60e01b8152600481018390526001600160a01b0382811660248301527f000000000000000000000000000000000000000000000000000000000000000016906393552a3d9060440160206040518083038186803b1580156105a557600080fd5b505afa1580156105b9573d6000803e3d6000fd5b505050506040513d601f19601f820116820180604052508101906105dd91906107c0565b6001600160a01b0391909116600090815260016020908152604080832094835293905291909120805460ff1916911515919091179055565b60007f00000000000000000000000000000000000000000000000000000000000000006001600160a01b0316638da5cb5b6040518163ffffffff1660e01b815260040160206040518083038186803b15801561067057600080fd5b505afa158015610684573d6000803e3d6000fd5b505050506040513d601f19601f820116820180604052508101906106a89190610779565b905090565b60007f00000000000000000000000000000000000000000000000000000000000000006001600160a01b031663c34c08e56040518163ffffffff1660e01b8152600401602060405180830381600087803b15801561070a57600080fd5b505af1158015610684573d6000803e3d6000fd5b606660009081526020527f422cccb7cea5c0e46f340bb7b21b81debac329f72e31669c20ff0f3a05cc2b5b546001600160a01b031690565b600060208284031215610767578081fd5b813561077281610862565b9392505050565b60006020828403121561078a578081fd5b815161077281610862565b600080604083850312156107a7578081fd5b82356107b281610862565b946020939093013593505050565b6000602082840312156107d1578081fd5b81518015158114610772578182fd5b6000602082840312156107f1578081fd5b5035919050565b600060208284031215610809578081fd5b5051919050565b60008060408385031215610822578182fd5b82359150602083013561083481610862565b809150509250929050565b60008282101561085d57634e487b7160e01b81526011600452602481fd5b500390565b6001600160a01b038116811461087757600080fd5b5056fea2646970667358221220cb1221733d532eaa960a1f03704c909ce7387e0a824e731495821298c7a9eee964736f6c63430008030033",
  "linkReferences": {},
  "deployedLinkReferences": {}
}