{
  "_format": "hh-sol-artifact-1",
  "contractName": "Admin",
  "sourceName": "contracts/Admin.sol",
  "abi": [
    {
      "inputs": [
        {
          "internalType": "address",
          "name": "_MFI",
          "type": "address"
        },
        {
          "internalType": "address",
          "name": "_lockedMFI",
          "type": "address"
        },
        {
          "internalType": "address",
          "name": "lockedMFIDelegate",
          "type": "address"
        },
        {
          "internalType": "address",
          "name": "_roles",
          "type": "address"
        }
      ],
      "stateMutability": "nonpayable",
      "type": "constructor"
    },
    {
      "inputs": [],
      "name": "MFI",
      "outputs": [
        {
          "internalType": "address",
          "name": "",
          "type": "address"
        }
      ],
      "stateMutability": "view",
      "type": "function"
    },
    {
      "inputs": [
        {
          "internalType": "address",
          "name": "forStaker",
          "type": "address"
        },
        {
          "internalType": "address",
          "name": "delegate",
          "type": "address"
        }
      ],
      "name": "addDelegate",
      "outputs": [],
      "stateMutability": "nonpayable",
      "type": "function"
    },
    {
      "inputs": [],
      "name": "currentMaintenanceStaker",
      "outputs": [
        {
          "internalType": "address",
          "name": "",
          "type": "address"
        }
      ],
      "stateMutability": "view",
      "type": "function"
    },
    {
      "inputs": [],
      "name": "currentMaintenanceStakerStartBlock",
      "outputs": [
        {
          "internalType": "uint256",
          "name": "",
          "type": "uint256"
        }
      ],
      "stateMutability": "view",
      "type": "function"
    },
    {
      "inputs": [
        {
          "internalType": "uint256",
          "name": "amount",
          "type": "uint256"
        }
      ],
      "name": "depositMaintenanceStake",
      "outputs": [],
      "stateMutability": "nonpayable",
      "type": "function"
    },
    {
      "inputs": [
        {
          "internalType": "uint256",
          "name": "amount",
          "type": "uint256"
        }
      ],
      "name": "depositStake",
      "outputs": [],
      "stateMutability": "nonpayable",
      "type": "function"
    },
    {
      "inputs": [
        {
          "internalType": "address",
          "name": "staker",
          "type": "address"
        }
      ],
      "name": "getMaintenanceStakerStake",
      "outputs": [
        {
          "internalType": "uint256",
          "name": "",
          "type": "uint256"
        }
      ],
      "stateMutability": "view",
      "type": "function"
    },
    {
      "inputs": [],
      "name": "getUpdatedCurrentStaker",
      "outputs": [
        {
          "internalType": "address",
          "name": "",
          "type": "address"
        }
      ],
      "stateMutability": "nonpayable",
      "type": "function"
    },
    {
      "inputs": [
        {
          "internalType": "address",
          "name": "caller",
          "type": "address"
        }
      ],
      "name": "isAuthorizedStaker",
      "outputs": [
        {
          "internalType": "bool",
          "name": "isAuthorized",
          "type": "bool"
        }
      ],
      "stateMutability": "nonpayable",
      "type": "function"
    },
    {
      "inputs": [],
      "name": "lockedMFI",
      "outputs": [
        {
          "internalType": "address",
          "name": "",
          "type": "address"
        }
      ],
      "stateMutability": "view",
      "type": "function"
    },
    {
      "inputs": [
        {
          "internalType": "uint256",
          "name": "",
          "type": "uint256"
        }
      ],
      "name": "mainCharacterCache",
      "outputs": [
        {
          "internalType": "address",
          "name": "",
          "type": "address"
        }
      ],
      "stateMutability": "view",
      "type": "function"
    },
    {
      "inputs": [
        {
          "internalType": "address",
          "name": "",
          "type": "address"
        },
        {
          "internalType": "address",
          "name": "",
          "type": "address"
        }
      ],
      "name": "maintenanceDelegateTo",
      "outputs": [
        {
          "internalType": "bool",
          "name": "",
          "type": "bool"
        }
      ],
      "stateMutability": "view",
      "type": "function"
    },
    {
      "inputs": [],
      "name": "maintenanceStakePerBlock",
      "outputs": [
        {
          "internalType": "uint256",
          "name": "",
          "type": "uint256"
        }
      ],
      "stateMutability": "view",
      "type": "function"
    },
    {
      "inputs": [],
      "name": "mfiStakeTranche",
      "outputs": [
        {
          "internalType": "uint256",
          "name": "",
          "type": "uint256"
        }
      ],
      "stateMutability": "view",
      "type": "function"
    },
    {
      "inputs": [
        {
          "internalType": "address",
          "name": "",
          "type": "address"
        }
      ],
      "name": "nextMaintenanceStaker",
      "outputs": [
        {
          "internalType": "address",
          "name": "",
          "type": "address"
        }
      ],
      "stateMutability": "view",
      "type": "function"
    },
    {
      "inputs": [
        {
          "internalType": "address",
          "name": "maintainer",
          "type": "address"
        },
        {
          "internalType": "uint256",
          "name": "penalty",
          "type": "uint256"
        },
        {
          "internalType": "address",
          "name": "recipient",
          "type": "address"
        }
      ],
      "name": "penalizeMaintenanceStake",
      "outputs": [
        {
          "internalType": "uint256",
          "name": "stakeTaken",
          "type": "uint256"
        }
      ],
      "stateMutability": "nonpayable",
      "type": "function"
    },
    {
      "inputs": [],
      "name": "prevMaintenanceStaker",
      "outputs": [
        {
          "internalType": "address",
          "name": "",
          "type": "address"
        }
      ],
      "stateMutability": "view",
      "type": "function"
    },
    {
      "inputs": [
        {
          "internalType": "address",
          "name": "forStaker",
          "type": "address"
        },
        {
          "internalType": "address",
          "name": "delegate",
          "type": "address"
        }
      ],
      "name": "removeDelegate",
      "outputs": [],
      "stateMutability": "nonpayable",
      "type": "function"
    },
    {
      "inputs": [
        {
          "internalType": "address",
          "name": "",
          "type": "address"
        },
        {
          "internalType": "uint256",
          "name": "",
          "type": "uint256"
        }
      ],
      "name": "roleCache",
      "outputs": [
        {
          "internalType": "bool",
          "name": "",
          "type": "bool"
        }
      ],
      "stateMutability": "view",
      "type": "function"
    },
    {
      "inputs": [],
      "name": "roles",
      "outputs": [
        {
          "internalType": "contract Roles",
          "name": "",
          "type": "address"
        }
      ],
      "stateMutability": "view",
      "type": "function"
    },
    {
      "inputs": [
        {
          "internalType": "uint256",
          "name": "amount",
          "type": "uint256"
        }
      ],
      "name": "setMaintenanceStakePerBlock",
      "outputs": [],
      "stateMutability": "nonpayable",
      "type": "function"
    },
    {
      "inputs": [
        {
          "internalType": "address",
          "name": "",
          "type": "address"
        }
      ],
      "name": "stakes",
      "outputs": [
        {
          "internalType": "uint256",
          "name": "",
          "type": "uint256"
        }
      ],
      "stateMutability": "view",
      "type": "function"
    },
    {
      "inputs": [],
      "name": "totalStakes",
      "outputs": [
        {
          "internalType": "uint256",
          "name": "",
          "type": "uint256"
        }
      ],
      "stateMutability": "view",
      "type": "function"
    },
    {
      "inputs": [
        {
          "internalType": "uint256",
          "name": "role",
          "type": "uint256"
        }
      ],
      "name": "updateMainCharacterCache",
      "outputs": [],
      "stateMutability": "nonpayable",
      "type": "function"
    },
    {
      "inputs": [
        {
          "internalType": "uint256",
          "name": "role",
          "type": "uint256"
        },
        {
          "internalType": "address",
          "name": "contr",
          "type": "address"
        }
      ],
      "name": "updateRoleCache",
      "outputs": [],
      "stateMutability": "nonpayable",
      "type": "function"
    },
    {
      "inputs": [],
      "name": "viewCurrentMaintenanceStaker",
      "outputs": [
        {
          "internalType": "address",
          "name": "staker",
          "type": "address"
        },
        {
          "internalType": "uint256",
          "name": "startBlock",
          "type": "uint256"
        }
      ],
      "stateMutability": "view",
      "type": "function"
    },
    {
      "inputs": [
        {
          "internalType": "uint256",
          "name": "amount",
          "type": "uint256"
        }
      ],
      "name": "withdrawStake",
      "outputs": [],
      "stateMutability": "nonpayable",
      "type": "function"
    }
  ],
  "bytecode": "0x60e060405267d02ab486cedc00006004553480156200001d57600080fd5b5060405162001b6f38038062001b6f833981016040819052620000409162000149565b806001600160a01b038116620000a75760405162461bcd60e51b815260206004820152602260248201527f506c656173652070726f766964652076616c696420726f6c6573206164647265604482015261737360f01b606482015260840160405180910390fd5b6001600160601b0319606091821b811660805294811b851660a05283901b90931660c0526001600160a01b03918216600081815260056020908152604080832080546001600160a01b031990811686179091556007805482168617905560088054909116909417909355600681529181209290931690925290525043600955620001a5565b80516001600160a01b03811681146200014457600080fd5b919050565b600080600080608085870312156200015f578384fd5b6200016a856200012c565b93506200017a602086016200012c565b92506200018a604086016200012c565b91506200019a606086016200012c565b905092959194509250565b60805160601c60a05160601c60c05160601c6119526200021d6000396000818161025801528181610d480152610dd70152600081816104b301528181610e0201528181611248015261141c0152600081816102fb0152818161064501528181610be8015281816115b7015261165c01526119526000f3fe608060405234801561001057600080fd5b50600436106101b95760003560e01c80637a1a04df116100f9578063c3fff5d911610097578063e909ebfa11610071578063e909ebfa14610445578063e9c3f77d14610458578063e9f39e161461048e578063ed29c12b146104ae576101b9565b8063c3fff5d9146103e9578063cb82cc8f1461041f578063d8715ca714610432576101b9565b8063806cdada116100d3578063806cdada146103845780638bd4c6da146103a4578063b0411f46146103ac578063bf9befb1146103e0576101b9565b80637a1a04df146103305780637b23cbce1461035e5780637fbc953d14610371576101b9565b806316934fc411610166578063219f951d11610140578063219f951d146102d057806325d5971f146102e3578063392f5f64146102f6578063447d52ba1461031d576101b9565b806316934fc41461029f5780631a38de1d146102bf5780631aea9f52146102c7576101b9565b80630a45bc1b116101975780630a45bc1b146102295780630ad691501461024a578063152119d814610253576101b9565b8063020d308d146101be578063055cfe53146101d3578063071060a614610216575b600080fd5b6101d16101cc36600461170e565b6104d5565b005b6102016101e136600461170e565b600660209081526000928352604080842090915290825290205460ff1681565b60405190151581526020015b60405180910390f35b6101d16102243660046117d2565b610616565b61023c610237366004611771565b610727565b60405190815260200161020d565b61023c60045481565b61027a7f000000000000000000000000000000000000000000000000000000000000000081565b60405173ffffffffffffffffffffffffffffffffffffffff909116815260200161020d565b61023c6102ad3660046116d6565b60026020526000908152604090205481565b61027a610840565b61023c60095481565b6101d16102de3660046117d2565b6109ac565b6101d16102f13660046117d2565b610afb565b61027a7f000000000000000000000000000000000000000000000000000000000000000081565b6101d161032b366004611802565b610b9c565b61020161033e366004611746565b600160209081526000928352604080842090915290825290205460ff1681565b61020161036c3660046116d6565b610cc5565b61023c61037f3660046116d6565b610d44565b60085461027a9073ffffffffffffffffffffffffffffffffffffffff1681565b61023c600181565b6103b4610ebc565b6040805173ffffffffffffffffffffffffffffffffffffffff909316835260208301919091520161020d565b61023c60035481565b61027a6103f73660046116d6565b60056020526000908152604090205473ffffffffffffffffffffffffffffffffffffffff1681565b6101d161042d3660046117d2565b610f7b565b6101d16104403660046117d2565b610f85565b6101d161045336600461170e565b611037565b61027a6104663660046117d2565b60006020819052908152604090205473ffffffffffffffffffffffffffffffffffffffff1681565b60075461027a9073ffffffffffffffffffffffffffffffffffffffff1681565b61027a7f000000000000000000000000000000000000000000000000000000000000000081565b3373ffffffffffffffffffffffffffffffffffffffff83161480610529575073ffffffffffffffffffffffffffffffffffffffff8216600090815260066020908152604080832033845290915290205460ff165b6105ba576040517f08c379a000000000000000000000000000000000000000000000000000000000815260206004820152603060248201527f6d73672e73656e646572206e6f7420617574686f72697a656420746f2064656c60448201527f656761746520666f72207374616b65720000000000000000000000000000000060648201526084015b60405180910390fd5b73ffffffffffffffffffffffffffffffffffffffff9182166000908152600660209081526040808320939094168252919091522080547fffffffffffffffffffffffffffffffffffffffffffffffffffffffffffffff00169055565b6040517fb4ed0b6d000000000000000000000000000000000000000000000000000000008152600481018290527f000000000000000000000000000000000000000000000000000000000000000073ffffffffffffffffffffffffffffffffffffffff169063b4ed0b6d9060240160206040518083038186803b15801561069c57600080fd5b505afa1580156106b0573d6000803e3d6000fd5b505050506040513d601f19601f820116820180604052508101906106d491906116f2565b60009182526020829052604090912080547fffffffffffffffffffffffff00000000000000000000000000000000000000001673ffffffffffffffffffffffffffffffffffffffff909216919091179055565b336000908152600160209081526040808320600a845290915281205460ff166107d2576040517f08c379a000000000000000000000000000000000000000000000000000000000815260206004820152602d60248201527f6d73672e73656e646572206e6f7420617574686f72697a656420746f2070656e60448201527f616c697a65207374616b6572730000000000000000000000000000000000000060648201526084016105b1565b73ffffffffffffffffffffffffffffffffffffffff841660009081526002602052604090205483111561082b575073ffffffffffffffffffffffffffffffffffffffff831660009081526002602052604090205461082e565b50815b610839848284611176565b9392505050565b60075460009081906108679073ffffffffffffffffffffffffffffffffffffffff16610d44565b9050806004546009544361087b91906118b4565b6108859190611877565b1061098e574360095560078054600880547fffffffffffffffffffffffff000000000000000000000000000000000000000090811673ffffffffffffffffffffffffffffffffffffffff808516918217909355600090815260056020526040902054921691169081179091556108fa90610d44565b905080600454111561098e576007805473ffffffffffffffffffffffffffffffffffffffff908116600090815260056020526040808220546008548416835281832080549185167fffffffffffffffffffffffff00000000000000000000000000000000000000009283168117909155855490941683529120805482169055825416811790915561098a81610d44565b9150505b505060075473ffffffffffffffffffffffffffffffffffffffff1690565b600454336000908152600260205260409020546109c99083611826565b1015610a57576040517f08c379a000000000000000000000000000000000000000000000000000000000815260206004820152602960248201527f496e73756666696369656e74207374616b6520746f2063616c6c206576656e2060448201527f6f6e6520626c6f636b000000000000000000000000000000000000000000000060648201526084016105b1565b610a613382611395565b3360009081526005602052604090205473ffffffffffffffffffffffffffffffffffffffff16610af857610a93610840565b33600081815260056020526040808220805473ffffffffffffffffffffffffffffffffffffffff9586167fffffffffffffffffffffffff0000000000000000000000000000000000000000918216179091556008549094168252902080549092161790555b50565b610b0433610cc5565b15610b91576040517f08c379a000000000000000000000000000000000000000000000000000000000815260206004820152603160248201527f596f752063616e2774207769746864726177207768696c6520796f752772652060448201527f617574686f72697a6564207374616b657200000000000000000000000000000060648201526084016105b1565b610af8338233611176565b6040517f93552a3d0000000000000000000000000000000000000000000000000000000081526004810183905273ffffffffffffffffffffffffffffffffffffffff82811660248301527f000000000000000000000000000000000000000000000000000000000000000016906393552a3d9060440160206040518083038186803b158015610c2a57600080fd5b505afa158015610c3e573d6000803e3d6000fd5b505050506040513d601f19601f82011682018060405250810190610c6291906117b2565b73ffffffffffffffffffffffffffffffffffffffff9190911660009081526001602090815260408083209483529390529190912080547fffffffffffffffffffffffffffffffffffffffffffffffffffffffffffffff0016911515919091179055565b600080610cd0610840565b90508273ffffffffffffffffffffffffffffffffffffffff168173ffffffffffffffffffffffffffffffffffffffff161480610839575073ffffffffffffffffffffffffffffffffffffffff80821660009081526006602090815260408083209387168352929052205460ff169392505050565b60007f000000000000000000000000000000000000000000000000000000000000000073ffffffffffffffffffffffffffffffffffffffff168273ffffffffffffffffffffffffffffffffffffffff161415610e8f576040517f70a0823100000000000000000000000000000000000000000000000000000000815273ffffffffffffffffffffffffffffffffffffffff7f0000000000000000000000000000000000000000000000000000000000000000811660048301526002917f0000000000000000000000000000000000000000000000000000000000000000909116906370a082319060240160206040518083038186803b158015610e4657600080fd5b505afa158015610e5a573d6000803e3d6000fd5b505050506040513d601f19601f82011682018060405250810190610e7e91906117ea565b610e88919061183e565b9050610eb7565b5073ffffffffffffffffffffffffffffffffffffffff81166000908152600260205260409020545b919050565b60075473ffffffffffffffffffffffffffffffffffffffff16600080610ee183610d44565b90506009549150806004548343610ef891906118b4565b610f029190611877565b10610f765773ffffffffffffffffffffffffffffffffffffffff92831660009081526005602052604090205490921691610f3b83610d44565b9050439150806004541115610f765773ffffffffffffffffffffffffffffffffffffffff928316600090815260056020526040902054909216915b509091565b610af83382611395565b33610f8e6115b3565b73ffffffffffffffffffffffffffffffffffffffff161480610fcc575033610fb4611658565b73ffffffffffffffffffffffffffffffffffffffff16145b611032576040517f08c379a000000000000000000000000000000000000000000000000000000000815260206004820152601e60248201527f526f6c65733a2063616c6c6572206973206e6f7420746865206f776e6572000060448201526064016105b1565b600455565b3373ffffffffffffffffffffffffffffffffffffffff8316148061108b575073ffffffffffffffffffffffffffffffffffffffff8216600090815260066020908152604080832033845290915290205460ff165b611117576040517f08c379a000000000000000000000000000000000000000000000000000000000815260206004820152603060248201527f6d73672e73656e646572206e6f7420617574686f72697a656420746f2064656c60448201527f656761746520666f72207374616b65720000000000000000000000000000000060648201526084016105b1565b73ffffffffffffffffffffffffffffffffffffffff9182166000908152600660209081526040808320939094168252919091522080547fffffffffffffffffffffffffffffffffffffffffffffffffffffffffffffff00166001179055565b73ffffffffffffffffffffffffffffffffffffffff8316600090815260026020526040812080548492906111ab9084906118b4565b9250508190555081600360008282546111c491906118b4565b9091555050606560009081526020527f4a7203f705e51df4a56139a9b86b4a0970bed7ab7a3446eaffe2289989c1645c5473ffffffffffffffffffffffffffffffffffffffff166040517fd9caed1200000000000000000000000000000000000000000000000000000000815273ffffffffffffffffffffffffffffffffffffffff7f000000000000000000000000000000000000000000000000000000000000000081166004830152838116602483015260448201859052919091169063d9caed1290606401600060405180830381600087803b1580156112a557600080fd5b505af11580156112b9573d6000803e3d6000fd5b5050606c600090815260205250507f3c1fcba39712202dbd455253568bf32dd0a3bedb5c3ff0de4b22d4e45e50dc925473ffffffffffffffffffffffffffffffffffffffff166040517fc6c9faa10000000000000000000000000000000000000000000000000000000081526001600482015273ffffffffffffffffffffffffffffffffffffffff858116602483015260448201859052919091169063c6c9faa190606401600060405180830381600087803b15801561137857600080fd5b505af115801561138c573d6000803e3d6000fd5b50505050505050565b606560009081526020527f4a7203f705e51df4a56139a9b86b4a0970bed7ab7a3446eaffe2289989c1645c5473ffffffffffffffffffffffffffffffffffffffff166040517fb3db428b00000000000000000000000000000000000000000000000000000000815273ffffffffffffffffffffffffffffffffffffffff84811660048301527f00000000000000000000000000000000000000000000000000000000000000008116602483015260448201849052919091169063b3db428b90606401600060405180830381600087803b15801561147157600080fd5b505af1158015611485573d6000803e3d6000fd5b5050505073ffffffffffffffffffffffffffffffffffffffff8216600090815260026020526040812080548392906114be908490611826565b9250508190555080600360008282546114d79190611826565b9091555050606c60009081526020527f3c1fcba39712202dbd455253568bf32dd0a3bedb5c3ff0de4b22d4e45e50dc925473ffffffffffffffffffffffffffffffffffffffff166040517f2b5de2860000000000000000000000000000000000000000000000000000000081526001600482015273ffffffffffffffffffffffffffffffffffffffff8481166024830152604482018490529190911690632b5de28690606401600060405180830381600087803b15801561159757600080fd5b505af11580156115ab573d6000803e3d6000fd5b505050505050565b60007f000000000000000000000000000000000000000000000000000000000000000073ffffffffffffffffffffffffffffffffffffffff16638da5cb5b6040518163ffffffff1660e01b815260040160206040518083038186803b15801561161b57600080fd5b505afa15801561162f573d6000803e3d6000fd5b505050506040513d601f19601f8201168201806040525081019061165391906116f2565b905090565b60007f000000000000000000000000000000000000000000000000000000000000000073ffffffffffffffffffffffffffffffffffffffff1663c34c08e56040518163ffffffff1660e01b8152600401602060405180830381600087803b1580156116c257600080fd5b505af115801561162f573d6000803e3d6000fd5b6000602082840312156116e7578081fd5b8135610839816118fa565b600060208284031215611703578081fd5b8151610839816118fa565b60008060408385031215611720578081fd5b823561172b816118fa565b9150602083013561173b816118fa565b809150509250929050565b60008060408385031215611758578182fd5b8235611763816118fa565b946020939093013593505050565b600080600060608486031215611785578081fd5b8335611790816118fa565b92506020840135915060408401356117a7816118fa565b809150509250925092565b6000602082840312156117c3578081fd5b81518015158114610839578182fd5b6000602082840312156117e3578081fd5b5035919050565b6000602082840312156117fb578081fd5b5051919050565b60008060408385031215611814578182fd5b82359150602083013561173b816118fa565b60008219821115611839576118396118cb565b500190565b600082611872577f4e487b710000000000000000000000000000000000000000000000000000000081526012600452602481fd5b500490565b6000817fffffffffffffffffffffffffffffffffffffffffffffffffffffffffffffffff04831182151516156118af576118af6118cb565b500290565b6000828210156118c6576118c66118cb565b500390565b7f4e487b7100000000000000000000000000000000000000000000000000000000600052601160045260246000fd5b73ffffffffffffffffffffffffffffffffffffffff81168114610af857600080fdfea2646970667358221220fd77bf97d2237a0500f86af9677712be3d4227ba9f6ccd64e35d93e7a70926c564736f6c63430008030033",
  "linkReferences": {},
  "deployedLinkReferences": {}
}