{
  "_format": "hh-sol-artifact-1",
  "contractName": "Admin",
  "sourceName": "contracts/Admin.sol",
  "abi": [
    {
      "inputs": [
        {
          "internalType": "address",
          "name": "_MFI",
          "type": "address"
        },
        {
          "internalType": "address",
          "name": "_lockedMFI",
          "type": "address"
        },
        {
          "internalType": "address",
          "name": "lockedMFIDelegate",
          "type": "address"
        },
        {
          "internalType": "address",
          "name": "_roles",
          "type": "address"
        }
      ],
      "stateMutability": "nonpayable",
      "type": "constructor"
    },
    {
      "inputs": [],
      "name": "MFI",
      "outputs": [
        {
          "internalType": "address",
          "name": "",
          "type": "address"
        }
      ],
      "stateMutability": "view",
      "type": "function"
    },
    {
      "inputs": [
        {
          "internalType": "address",
          "name": "forStaker",
          "type": "address"
        },
        {
          "internalType": "address",
          "name": "delegate",
          "type": "address"
        }
      ],
      "name": "addDelegate",
      "outputs": [],
      "stateMutability": "nonpayable",
      "type": "function"
    },
    {
      "inputs": [],
      "name": "currentMaintenanceStaker",
      "outputs": [
        {
          "internalType": "address",
          "name": "",
          "type": "address"
        }
      ],
      "stateMutability": "view",
      "type": "function"
    },
    {
      "inputs": [],
      "name": "currentMaintenanceStakerStartBlock",
      "outputs": [
        {
          "internalType": "uint256",
          "name": "",
          "type": "uint256"
        }
      ],
      "stateMutability": "view",
      "type": "function"
    },
    {
      "inputs": [
        {
          "internalType": "uint256",
          "name": "amount",
          "type": "uint256"
        }
      ],
      "name": "depositMaintenanceStake",
      "outputs": [],
      "stateMutability": "nonpayable",
      "type": "function"
    },
    {
      "inputs": [
        {
          "internalType": "address",
          "name": "staker",
          "type": "address"
        }
      ],
      "name": "getMaintenanceStakerStake",
      "outputs": [
        {
          "internalType": "uint256",
          "name": "",
          "type": "uint256"
        }
      ],
      "stateMutability": "view",
      "type": "function"
    },
    {
      "inputs": [],
      "name": "getUpdatedCurrentStaker",
      "outputs": [
        {
          "internalType": "address",
          "name": "",
          "type": "address"
        }
      ],
      "stateMutability": "nonpayable",
      "type": "function"
    },
    {
      "inputs": [
        {
          "internalType": "address",
          "name": "caller",
          "type": "address"
        }
      ],
      "name": "isAuthorizedStaker",
      "outputs": [
        {
          "internalType": "bool",
          "name": "isAuthorized",
          "type": "bool"
        }
      ],
      "stateMutability": "nonpayable",
      "type": "function"
    },
    {
      "inputs": [],
      "name": "lockedMFI",
      "outputs": [
        {
          "internalType": "address",
          "name": "",
          "type": "address"
        }
      ],
      "stateMutability": "view",
      "type": "function"
    },
    {
      "inputs": [
        {
          "internalType": "uint256",
          "name": "",
          "type": "uint256"
        }
      ],
      "name": "mainCharacterCache",
      "outputs": [
        {
          "internalType": "address",
          "name": "",
          "type": "address"
        }
      ],
      "stateMutability": "view",
      "type": "function"
    },
    {
      "inputs": [
        {
          "internalType": "address",
          "name": "",
          "type": "address"
        },
        {
          "internalType": "address",
          "name": "",
          "type": "address"
        }
      ],
      "name": "maintenanceDelegateTo",
      "outputs": [
        {
          "internalType": "bool",
          "name": "",
          "type": "bool"
        }
      ],
      "stateMutability": "view",
      "type": "function"
    },
    {
      "inputs": [],
      "name": "maintenanceStakePerBlock",
      "outputs": [
        {
          "internalType": "uint256",
          "name": "",
          "type": "uint256"
        }
      ],
      "stateMutability": "view",
      "type": "function"
    },
    {
      "inputs": [],
      "name": "mfiStakeTranche",
      "outputs": [
        {
          "internalType": "uint256",
          "name": "",
          "type": "uint256"
        }
      ],
      "stateMutability": "view",
      "type": "function"
    },
    {
      "inputs": [
        {
          "internalType": "address",
          "name": "",
          "type": "address"
        }
      ],
      "name": "nextMaintenanceStaker",
      "outputs": [
        {
          "internalType": "address",
          "name": "",
          "type": "address"
        }
      ],
      "stateMutability": "view",
      "type": "function"
    },
    {
      "inputs": [
        {
          "internalType": "address",
          "name": "maintainer",
          "type": "address"
        },
        {
          "internalType": "uint256",
          "name": "penalty",
          "type": "uint256"
        },
        {
          "internalType": "address",
          "name": "recipient",
          "type": "address"
        }
      ],
      "name": "penalizeMaintenanceStake",
      "outputs": [
        {
          "internalType": "uint256",
          "name": "stakeTaken",
          "type": "uint256"
        }
      ],
      "stateMutability": "nonpayable",
      "type": "function"
    },
    {
      "inputs": [],
      "name": "prevMaintenanceStaker",
      "outputs": [
        {
          "internalType": "address",
          "name": "",
          "type": "address"
        }
      ],
      "stateMutability": "view",
      "type": "function"
    },
    {
      "inputs": [
        {
          "internalType": "address",
          "name": "forStaker",
          "type": "address"
        },
        {
          "internalType": "address",
          "name": "delegate",
          "type": "address"
        }
      ],
      "name": "removeDelegate",
      "outputs": [],
      "stateMutability": "nonpayable",
      "type": "function"
    },
    {
      "inputs": [
        {
          "internalType": "address",
          "name": "",
          "type": "address"
        },
        {
          "internalType": "uint256",
          "name": "",
          "type": "uint256"
        }
      ],
      "name": "roleCache",
      "outputs": [
        {
          "internalType": "bool",
          "name": "",
          "type": "bool"
        }
      ],
      "stateMutability": "view",
      "type": "function"
    },
    {
      "inputs": [],
      "name": "roles",
      "outputs": [
        {
          "internalType": "contract Roles",
          "name": "",
          "type": "address"
        }
      ],
      "stateMutability": "view",
      "type": "function"
    },
    {
      "inputs": [
        {
          "internalType": "uint256",
          "name": "amount",
          "type": "uint256"
        }
      ],
      "name": "setMaintenanceStakePerBlock",
      "outputs": [],
      "stateMutability": "nonpayable",
      "type": "function"
    },
    {
      "inputs": [
        {
          "internalType": "address",
          "name": "",
          "type": "address"
        }
      ],
      "name": "stakes",
      "outputs": [
        {
          "internalType": "uint256",
          "name": "",
          "type": "uint256"
        }
      ],
      "stateMutability": "view",
      "type": "function"
    },
    {
      "inputs": [],
      "name": "totalStakes",
      "outputs": [
        {
          "internalType": "uint256",
          "name": "",
          "type": "uint256"
        }
      ],
      "stateMutability": "view",
      "type": "function"
    },
    {
      "inputs": [
        {
          "internalType": "uint256",
          "name": "role",
          "type": "uint256"
        }
      ],
      "name": "updateMainCharacterCache",
      "outputs": [],
      "stateMutability": "nonpayable",
      "type": "function"
    },
    {
      "inputs": [
        {
          "internalType": "uint256",
          "name": "role",
          "type": "uint256"
        },
        {
          "internalType": "address",
          "name": "contr",
          "type": "address"
        }
      ],
      "name": "updateRoleCache",
      "outputs": [],
      "stateMutability": "nonpayable",
      "type": "function"
    },
    {
      "inputs": [],
      "name": "viewCurrentMaintenanceStaker",
      "outputs": [
        {
          "internalType": "address",
          "name": "staker",
          "type": "address"
        },
        {
          "internalType": "uint256",
          "name": "startBlock",
          "type": "uint256"
        }
      ],
      "stateMutability": "view",
      "type": "function"
    },
    {
      "inputs": [
        {
          "internalType": "uint256",
          "name": "amount",
          "type": "uint256"
        }
      ],
      "name": "withdrawStake",
      "outputs": [],
      "stateMutability": "nonpayable",
      "type": "function"
    }
  ],
  "bytecode": "0x60e060405267d02ab486cedc00006004553480156200001d57600080fd5b5060405162001abc38038062001abc833981016040819052620000409162000156565b806001600160a01b038116620000a75760405162461bcd60e51b815260206004820152602260248201527f506c656173652070726f766964652076616c696420726f6c6573206164647265604482015261737360f01b606482015260840160405180910390fd5b6001600160601b0319606091821b811660805294811b851660a05283901b90931660c0526001600160a01b03918216600081815260056020908152604080832080546001600160a01b031990811686179091556007805482168617905560088054909116909417909355600681528282209390941681529190925220805460ff191660011790555043600955620001b2565b80516001600160a01b03811681146200015157600080fd5b919050565b600080600080608085870312156200016c578384fd5b620001778562000139565b9350620001876020860162000139565b9250620001976040860162000139565b9150620001a76060860162000139565b905092959194509250565b60805160601c60a05160601c60c05160601c611884620002386000396000818161024d01528181610d2a0152610db901526000818161049501528181610de4015281816112200152818161129a0152818161134c01526114120152600081816102f00152818161062701528181610bca0152818161144001526114e501526118846000f3fe608060405234801561001057600080fd5b50600436106101ae5760003560e01c80637a1a04df116100ee578063bf9befb111610097578063e909ebfa11610071578063e909ebfa14610427578063e9c3f77d1461043a578063e9f39e1614610470578063ed29c12b14610490576101ae565b8063bf9befb1146103d5578063c3fff5d9146103de578063d8715ca714610414576101ae565b8063806cdada116100c8578063806cdada146103795780638bd4c6da14610399578063b0411f46146103a1576101ae565b80637a1a04df146103255780637b23cbce146103535780637fbc953d14610366576101ae565b806316934fc41161015b578063219f951d11610135578063219f951d146102c557806325d5971f146102d8578063392f5f64146102eb578063447d52ba14610312576101ae565b806316934fc4146102945780631a38de1d146102b45780631aea9f52146102bc576101ae565b80630a45bc1b1161018c5780630a45bc1b1461021e5780630ad691501461023f578063152119d814610248576101ae565b8063020d308d146101b3578063055cfe53146101c8578063071060a61461020b575b600080fd5b6101c66101c1366004611640565b6104b7565b005b6101f66101d6366004611640565b600660209081526000928352604080842090915290825290205460ff1681565b60405190151581526020015b60405180910390f35b6101c6610219366004611704565b6105f8565b61023161022c3660046116a3565b610709565b604051908152602001610202565b61023160045481565b61026f7f000000000000000000000000000000000000000000000000000000000000000081565b60405173ffffffffffffffffffffffffffffffffffffffff9091168152602001610202565b6102316102a2366004611608565b60026020526000908152604090205481565b61026f610822565b61023160095481565b6101c66102d3366004611704565b61098e565b6101c66102e6366004611704565b610add565b61026f7f000000000000000000000000000000000000000000000000000000000000000081565b6101c6610320366004611734565b610b7e565b6101f6610333366004611678565b600160209081526000928352604080842090915290825290205460ff1681565b6101f6610361366004611608565b610ca7565b610231610374366004611608565b610d26565b60085461026f9073ffffffffffffffffffffffffffffffffffffffff1681565b610231600181565b6103a9610e9e565b6040805173ffffffffffffffffffffffffffffffffffffffff9093168352602083019190915201610202565b61023160035481565b61026f6103ec366004611608565b60056020526000908152604090205473ffffffffffffffffffffffffffffffffffffffff1681565b6101c6610422366004611704565b610f5d565b6101c6610435366004611640565b61100f565b61026f610448366004611704565b60006020819052908152604090205473ffffffffffffffffffffffffffffffffffffffff1681565b60075461026f9073ffffffffffffffffffffffffffffffffffffffff1681565b61026f7f000000000000000000000000000000000000000000000000000000000000000081565b3373ffffffffffffffffffffffffffffffffffffffff8316148061050b575073ffffffffffffffffffffffffffffffffffffffff8216600090815260066020908152604080832033845290915290205460ff165b61059c576040517f08c379a000000000000000000000000000000000000000000000000000000000815260206004820152603060248201527f6d73672e73656e646572206e6f7420617574686f72697a656420746f2064656c60448201527f656761746520666f72207374616b65720000000000000000000000000000000060648201526084015b60405180910390fd5b73ffffffffffffffffffffffffffffffffffffffff9182166000908152600660209081526040808320939094168252919091522080547fffffffffffffffffffffffffffffffffffffffffffffffffffffffffffffff00169055565b6040517fb4ed0b6d000000000000000000000000000000000000000000000000000000008152600481018290527f000000000000000000000000000000000000000000000000000000000000000073ffffffffffffffffffffffffffffffffffffffff169063b4ed0b6d9060240160206040518083038186803b15801561067e57600080fd5b505afa158015610692573d6000803e3d6000fd5b505050506040513d601f19601f820116820180604052508101906106b69190611624565b60009182526020829052604090912080547fffffffffffffffffffffffff00000000000000000000000000000000000000001673ffffffffffffffffffffffffffffffffffffffff909216919091179055565b336000908152600160209081526040808320600a845290915281205460ff166107b4576040517f08c379a000000000000000000000000000000000000000000000000000000000815260206004820152602d60248201527f6d73672e73656e646572206e6f7420617574686f72697a656420746f2070656e60448201527f616c697a65207374616b657273000000000000000000000000000000000000006064820152608401610593565b73ffffffffffffffffffffffffffffffffffffffff841660009081526002602052604090205483111561080d575073ffffffffffffffffffffffffffffffffffffffff8316600090815260026020526040902054610810565b50815b61081b84828461114e565b9392505050565b60075460009081906108499073ffffffffffffffffffffffffffffffffffffffff16610d26565b9050806004546009544361085d91906117e6565b61086791906117a9565b10610970574360095560078054600880547fffffffffffffffffffffffff000000000000000000000000000000000000000090811673ffffffffffffffffffffffffffffffffffffffff808516918217909355600090815260056020526040902054921691169081179091556108dc90610d26565b9050806004541115610970576007805473ffffffffffffffffffffffffffffffffffffffff908116600090815260056020526040808220546008548416835281832080549185167fffffffffffffffffffffffff00000000000000000000000000000000000000009283168117909155855490941683529120805482169055825416811790915561096c81610d26565b9150505b505060075473ffffffffffffffffffffffffffffffffffffffff1690565b600454336000908152600260205260409020546109ab9083611758565b1015610a39576040517f08c379a000000000000000000000000000000000000000000000000000000000815260206004820152602960248201527f496e73756666696369656e74207374616b6520746f2063616c6c206576656e2060448201527f6f6e6520626c6f636b00000000000000000000000000000000000000000000006064820152608401610593565b610a4333826112c5565b3360009081526005602052604090205473ffffffffffffffffffffffffffffffffffffffff16610ada57610a75610822565b33600081815260056020526040808220805473ffffffffffffffffffffffffffffffffffffffff9586167fffffffffffffffffffffffff0000000000000000000000000000000000000000918216179091556008549094168252902080549092161790555b50565b610ae633610ca7565b15610b73576040517f08c379a000000000000000000000000000000000000000000000000000000000815260206004820152603160248201527f596f752063616e2774207769746864726177207768696c6520796f752772652060448201527f617574686f72697a6564207374616b65720000000000000000000000000000006064820152608401610593565b610ada33823361114e565b6040517f93552a3d0000000000000000000000000000000000000000000000000000000081526004810183905273ffffffffffffffffffffffffffffffffffffffff82811660248301527f000000000000000000000000000000000000000000000000000000000000000016906393552a3d9060440160206040518083038186803b158015610c0c57600080fd5b505afa158015610c20573d6000803e3d6000fd5b505050506040513d601f19601f82011682018060405250810190610c4491906116e4565b73ffffffffffffffffffffffffffffffffffffffff9190911660009081526001602090815260408083209483529390529190912080547fffffffffffffffffffffffffffffffffffffffffffffffffffffffffffffff0016911515919091179055565b600080610cb2610822565b90508273ffffffffffffffffffffffffffffffffffffffff168173ffffffffffffffffffffffffffffffffffffffff16148061081b575073ffffffffffffffffffffffffffffffffffffffff80821660009081526006602090815260408083209387168352929052205460ff169392505050565b60007f000000000000000000000000000000000000000000000000000000000000000073ffffffffffffffffffffffffffffffffffffffff168273ffffffffffffffffffffffffffffffffffffffff161415610e71576040517f70a0823100000000000000000000000000000000000000000000000000000000815273ffffffffffffffffffffffffffffffffffffffff7f0000000000000000000000000000000000000000000000000000000000000000811660048301526002917f0000000000000000000000000000000000000000000000000000000000000000909116906370a082319060240160206040518083038186803b158015610e2857600080fd5b505afa158015610e3c573d6000803e3d6000fd5b505050506040513d601f19601f82011682018060405250810190610e60919061171c565b610e6a9190611770565b9050610e99565b5073ffffffffffffffffffffffffffffffffffffffff81166000908152600260205260409020545b919050565b60075473ffffffffffffffffffffffffffffffffffffffff16600080610ec383610d26565b90506009549150806004548343610eda91906117e6565b610ee491906117a9565b10610f585773ffffffffffffffffffffffffffffffffffffffff92831660009081526005602052604090205490921691610f1d83610d26565b9050439150806004541115610f585773ffffffffffffffffffffffffffffffffffffffff928316600090815260056020526040902054909216915b509091565b33610f6661143c565b73ffffffffffffffffffffffffffffffffffffffff161480610fa4575033610f8c6114e1565b73ffffffffffffffffffffffffffffffffffffffff16145b61100a576040517f08c379a000000000000000000000000000000000000000000000000000000000815260206004820152601e60248201527f526f6c65733a2063616c6c6572206973206e6f7420746865206f776e657200006044820152606401610593565b600455565b3373ffffffffffffffffffffffffffffffffffffffff83161480611063575073ffffffffffffffffffffffffffffffffffffffff8216600090815260066020908152604080832033845290915290205460ff165b6110ef576040517f08c379a000000000000000000000000000000000000000000000000000000000815260206004820152603060248201527f6d73672e73656e646572206e6f7420617574686f72697a656420746f2064656c60448201527f656761746520666f72207374616b6572000000000000000000000000000000006064820152608401610593565b73ffffffffffffffffffffffffffffffffffffffff9182166000908152600660209081526040808320939094168252919091522080547fffffffffffffffffffffffffffffffffffffffffffffffffffffffffffffff00166001179055565b73ffffffffffffffffffffffffffffffffffffffff8316600090815260026020526040812080548492906111839084906117e6565b92505081905550816003600082825461119c91906117e6565b9091555050606560009081526020527f4a7203f705e51df4a56139a9b86b4a0970bed7ab7a3446eaffe2289989c1645c5473ffffffffffffffffffffffffffffffffffffffff166040517fd9caed1200000000000000000000000000000000000000000000000000000000815273ffffffffffffffffffffffffffffffffffffffff7f000000000000000000000000000000000000000000000000000000000000000081166004830152838116602483015260448201859052919091169063d9caed1290606401600060405180830381600087803b15801561127d57600080fd5b505af1158015611291573d6000803e3d6000fd5b505050506112c07f0000000000000000000000000000000000000000000000000000000000000000848461155f565b505050565b606560009081526020527f4a7203f705e51df4a56139a9b86b4a0970bed7ab7a3446eaffe2289989c1645c5473ffffffffffffffffffffffffffffffffffffffff166040517fb3db428b00000000000000000000000000000000000000000000000000000000815273ffffffffffffffffffffffffffffffffffffffff84811660048301527f00000000000000000000000000000000000000000000000000000000000000008116602483015260448201849052919091169063b3db428b90606401600060405180830381600087803b1580156113a157600080fd5b505af11580156113b5573d6000803e3d6000fd5b5050505073ffffffffffffffffffffffffffffffffffffffff8216600090815260026020526040812080548392906113ee908490611758565b9250508190555080600360008282546114079190611758565b9091555061143890507f000000000000000000000000000000000000000000000000000000000000000083836115b8565b5050565b60007f000000000000000000000000000000000000000000000000000000000000000073ffffffffffffffffffffffffffffffffffffffff16638da5cb5b6040518163ffffffff1660e01b815260040160206040518083038186803b1580156114a457600080fd5b505afa1580156114b8573d6000803e3d6000fd5b505050506040513d601f19601f820116820180604052508101906114dc9190611624565b905090565b60007f000000000000000000000000000000000000000000000000000000000000000073ffffffffffffffffffffffffffffffffffffffff1663c34c08e56040518163ffffffff1660e01b8152600401602060405180830381600087803b15801561154b57600080fd5b505af11580156114b8573d6000803e3d6000fd5b6040805173ffffffffffffffffffffffffffffffffffffffff8581168252602082018490528416917f3397b60e3ca1e9c0c75a033d62ab8731e9b2937c0690ae5d7f1bd37886b19d7d91015b60405180910390a2505050565b6040805173ffffffffffffffffffffffffffffffffffffffff8581168252602082018490528416917f8ec70c9430377a4bba035133e27a5b0f3b9951bc080833f6832bcbbb70a96dba91016115ab565b600060208284031215611619578081fd5b813561081b8161182c565b600060208284031215611635578081fd5b815161081b8161182c565b60008060408385031215611652578081fd5b823561165d8161182c565b9150602083013561166d8161182c565b809150509250929050565b6000806040838503121561168a578182fd5b82356116958161182c565b946020939093013593505050565b6000806000606084860312156116b7578081fd5b83356116c28161182c565b92506020840135915060408401356116d98161182c565b809150509250925092565b6000602082840312156116f5578081fd5b8151801515811461081b578182fd5b600060208284031215611715578081fd5b5035919050565b60006020828403121561172d578081fd5b5051919050565b60008060408385031215611746578182fd5b82359150602083013561166d8161182c565b6000821982111561176b5761176b6117fd565b500190565b6000826117a4577f4e487b710000000000000000000000000000000000000000000000000000000081526012600452602481fd5b500490565b6000817fffffffffffffffffffffffffffffffffffffffffffffffffffffffffffffffff04831182151516156117e1576117e16117fd565b500290565b6000828210156117f8576117f86117fd565b500390565b7f4e487b7100000000000000000000000000000000000000000000000000000000600052601160045260246000fd5b73ffffffffffffffffffffffffffffffffffffffff81168114610ada57600080fdfea26469706673582212200228a41235e4b03a72a6f43367a75e2d381547546eae69181ef490c7ad76cb5164736f6c63430008030033",
  "linkReferences": {},
  "deployedLinkReferences": {}
}