{
  "_format": "hh-sol-artifact-1",
  "contractName": "Admin",
  "sourceName": "contracts/Admin.sol",
  "abi": [
    {
      "inputs": [
        {
          "internalType": "address",
          "name": "_MFI",
          "type": "address"
        },
        {
          "internalType": "address",
          "name": "_lockedMFI",
          "type": "address"
        },
        {
          "internalType": "address",
          "name": "lockedMFIDelegate",
          "type": "address"
        },
        {
          "internalType": "address",
          "name": "_roles",
          "type": "address"
        }
      ],
      "stateMutability": "nonpayable",
      "type": "constructor"
    },
    {
      "inputs": [],
      "name": "MFI",
      "outputs": [
        {
          "internalType": "address",
          "name": "",
          "type": "address"
        }
      ],
      "stateMutability": "view",
      "type": "function"
    },
    {
      "inputs": [
        {
          "internalType": "address",
          "name": "forStaker",
          "type": "address"
        },
        {
          "internalType": "address",
          "name": "delegate",
          "type": "address"
        }
      ],
      "name": "addDelegate",
      "outputs": [],
      "stateMutability": "nonpayable",
      "type": "function"
    },
    {
      "inputs": [],
      "name": "currentMaintenanceStaker",
      "outputs": [
        {
          "internalType": "address",
          "name": "",
          "type": "address"
        }
      ],
      "stateMutability": "view",
      "type": "function"
    },
    {
      "inputs": [],
      "name": "currentMaintenanceStakerStartBlock",
      "outputs": [
        {
          "internalType": "uint256",
          "name": "",
          "type": "uint256"
        }
      ],
      "stateMutability": "view",
      "type": "function"
    },
    {
      "inputs": [
        {
          "internalType": "uint256",
          "name": "amount",
          "type": "uint256"
        }
      ],
      "name": "depositMaintenanceStake",
      "outputs": [],
      "stateMutability": "nonpayable",
      "type": "function"
    },
    {
      "inputs": [
        {
          "internalType": "uint256",
          "name": "amount",
          "type": "uint256"
        }
      ],
      "name": "depositStake",
      "outputs": [],
      "stateMutability": "nonpayable",
      "type": "function"
    },
    {
      "inputs": [
        {
          "internalType": "address",
          "name": "staker",
          "type": "address"
        }
      ],
      "name": "getMaintenanceStakerStake",
      "outputs": [
        {
          "internalType": "uint256",
          "name": "",
          "type": "uint256"
        }
      ],
      "stateMutability": "view",
      "type": "function"
    },
    {
      "inputs": [],
      "name": "getUpdatedCurrentStaker",
      "outputs": [
        {
          "internalType": "address",
          "name": "",
          "type": "address"
        }
      ],
      "stateMutability": "nonpayable",
      "type": "function"
    },
    {
      "inputs": [
        {
          "internalType": "address",
          "name": "caller",
          "type": "address"
        }
      ],
      "name": "isAuthorizedStaker",
      "outputs": [
        {
          "internalType": "bool",
          "name": "isAuthorized",
          "type": "bool"
        }
      ],
      "stateMutability": "nonpayable",
      "type": "function"
    },
    {
      "inputs": [],
      "name": "lockedMFI",
      "outputs": [
        {
          "internalType": "address",
          "name": "",
          "type": "address"
        }
      ],
      "stateMutability": "view",
      "type": "function"
    },
    {
      "inputs": [
        {
          "internalType": "uint256",
          "name": "",
          "type": "uint256"
        }
      ],
      "name": "mainCharacterCache",
      "outputs": [
        {
          "internalType": "address",
          "name": "",
          "type": "address"
        }
      ],
      "stateMutability": "view",
      "type": "function"
    },
    {
      "inputs": [
        {
          "internalType": "address",
          "name": "",
          "type": "address"
        },
        {
          "internalType": "address",
          "name": "",
          "type": "address"
        }
      ],
      "name": "maintenanceDelegateTo",
      "outputs": [
        {
          "internalType": "bool",
          "name": "",
          "type": "bool"
        }
      ],
      "stateMutability": "view",
      "type": "function"
    },
    {
      "inputs": [],
      "name": "maintenanceStakePerBlock",
      "outputs": [
        {
          "internalType": "uint256",
          "name": "",
          "type": "uint256"
        }
      ],
      "stateMutability": "view",
      "type": "function"
    },
    {
      "inputs": [
        {
          "internalType": "address",
          "name": "",
          "type": "address"
        }
      ],
      "name": "nextMaintenanceStaker",
      "outputs": [
        {
          "internalType": "address",
          "name": "",
          "type": "address"
        }
      ],
      "stateMutability": "view",
      "type": "function"
    },
    {
      "inputs": [
        {
          "internalType": "address",
          "name": "maintainer",
          "type": "address"
        },
        {
          "internalType": "uint256",
          "name": "penalty",
          "type": "uint256"
        },
        {
          "internalType": "address",
          "name": "recipient",
          "type": "address"
        }
      ],
      "name": "penalizeMaintenanceStake",
      "outputs": [
        {
          "internalType": "uint256",
          "name": "stakeTaken",
          "type": "uint256"
        }
      ],
      "stateMutability": "nonpayable",
      "type": "function"
    },
    {
      "inputs": [],
      "name": "prevMaintenanceStaker",
      "outputs": [
        {
          "internalType": "address",
          "name": "",
          "type": "address"
        }
      ],
      "stateMutability": "view",
      "type": "function"
    },
    {
      "inputs": [
        {
          "internalType": "address",
          "name": "forStaker",
          "type": "address"
        },
        {
          "internalType": "address",
          "name": "delegate",
          "type": "address"
        }
      ],
      "name": "removeDelegate",
      "outputs": [],
      "stateMutability": "nonpayable",
      "type": "function"
    },
    {
      "inputs": [
        {
          "internalType": "address",
          "name": "",
          "type": "address"
        },
        {
          "internalType": "uint256",
          "name": "",
          "type": "uint256"
        }
      ],
      "name": "roleCache",
      "outputs": [
        {
          "internalType": "bool",
          "name": "",
          "type": "bool"
        }
      ],
      "stateMutability": "view",
      "type": "function"
    },
    {
      "inputs": [],
      "name": "roles",
      "outputs": [
        {
          "internalType": "contract Roles",
          "name": "",
          "type": "address"
        }
      ],
      "stateMutability": "view",
      "type": "function"
    },
    {
      "inputs": [
        {
          "internalType": "uint256",
          "name": "amount",
          "type": "uint256"
        }
      ],
      "name": "setMaintenanceStakePerBlock",
      "outputs": [],
      "stateMutability": "nonpayable",
      "type": "function"
    },
    {
      "inputs": [
        {
          "internalType": "address",
          "name": "",
          "type": "address"
        }
      ],
      "name": "stakes",
      "outputs": [
        {
          "internalType": "uint256",
          "name": "",
          "type": "uint256"
        }
      ],
      "stateMutability": "view",
      "type": "function"
    },
    {
      "inputs": [],
      "name": "totalStakes",
      "outputs": [
        {
          "internalType": "uint256",
          "name": "",
          "type": "uint256"
        }
      ],
      "stateMutability": "view",
      "type": "function"
    },
    {
      "inputs": [
        {
          "internalType": "uint256",
          "name": "role",
          "type": "uint256"
        }
      ],
      "name": "updateMainCharacterCache",
      "outputs": [],
      "stateMutability": "nonpayable",
      "type": "function"
    },
    {
      "inputs": [
        {
          "internalType": "uint256",
          "name": "role",
          "type": "uint256"
        },
        {
          "internalType": "address",
          "name": "contr",
          "type": "address"
        }
      ],
      "name": "updateRoleCache",
      "outputs": [],
      "stateMutability": "nonpayable",
      "type": "function"
    },
    {
      "inputs": [],
      "name": "viewCurrentMaintenanceStaker",
      "outputs": [
        {
          "internalType": "address",
          "name": "staker",
          "type": "address"
        },
        {
          "internalType": "uint256",
          "name": "startBlock",
          "type": "uint256"
        }
      ],
      "stateMutability": "view",
      "type": "function"
    },
    {
      "inputs": [
        {
          "internalType": "uint256",
          "name": "amount",
          "type": "uint256"
        }
      ],
      "name": "withdrawStake",
      "outputs": [],
      "stateMutability": "nonpayable",
      "type": "function"
    }
  ],
  "bytecode": "0x60e0604052678ac7230489e800006004553480156200001d57600080fd5b50604051620019f2380380620019f2833981016040819052620000409162000155565b806001600160a01b038116620000a75760405162461bcd60e51b815260206004820152602260248201527f506c656173652070726f766964652076616c696420726f6c6573206164647265604482015261737360f01b606482015260840160405180910390fd5b6001600160601b0319606091821b811660805294811b851660a052670de0b6b3a764000060045583901b90931660c0526001600160a01b03918216600081815260056020908152604080832080546001600160a01b031990811686179091556007805482168617905560088054909116909417909355600681529181209290931690925290525043600955620001b1565b80516001600160a01b03811681146200015057600080fd5b919050565b600080600080608085870312156200016b578384fd5b620001768562000138565b9350620001866020860162000138565b9250620001966040860162000138565b9150620001a66060860162000138565b905092959194509250565b60805160601c60a05160601c60c05160601c6117c2620002306000396000818161024d01528181610c0e0152610c7601526000818161045201528181610ca10152818161113a01526112da0152600081816102e3015281816105bd01528181610ae20152818161100d0152818161144e01526114e601526117c26000f3fe608060405234801561001057600080fd5b50600436106101ae5760003560e01c80637a1a04df116100ee578063c3fff5d911610097578063e909ebfa11610071578063e909ebfa146103fe578063e9c3f77d14610411578063e9f39e161461043a578063ed29c12b1461044d576101ae565b8063c3fff5d9146103af578063cb82cc8f146103d8578063d8715ca7146103eb576101ae565b8063806cdada116100c8578063806cdada1461036c578063b0411f461461037f578063bf9befb1146103a6576101ae565b80637a1a04df146103185780637b23cbce146103465780637fbc953d14610359576101ae565b806316934fc41161015b578063219f951d11610135578063219f951d146102b857806325d5971f146102cb578063392f5f64146102de578063447d52ba14610305576101ae565b806316934fc4146102875780631a38de1d146102a75780631aea9f52146102af576101ae565b80630a45bc1b1161018c5780630a45bc1b1461021e5780630ad691501461023f578063152119d814610248576101ae565b8063020d308d146101b3578063055cfe53146101c8578063071060a61461020b575b600080fd5b6101c66101c136600461158b565b610474565b005b6101f66101d636600461158b565b600660209081526000928352604080842090915290825290205460ff1681565b60405190151581526020015b60405180910390f35b6101c661021936600461164f565b61058e565b61023161022c3660046115ee565b610685565b604051908152602001610202565b61023160045481565b61026f7f000000000000000000000000000000000000000000000000000000000000000081565b6040516001600160a01b039091168152602001610202565b610231610295366004611553565b60026020526000908152604090205481565b61026f610770565b61023160095481565b6101c66102c636600461164f565b6108cd565b6101c66102d936600461164f565b610a02565b61026f7f000000000000000000000000000000000000000000000000000000000000000081565b6101c661031336600461167f565b610aa3565b6101f66103263660046115c3565b600160209081526000928352604080842090915290825290205460ff1681565b6101f6610354366004611553565b610bb2565b610231610367366004611553565b610c0a565b60085461026f906001600160a01b031681565b610387610d4e565b604080516001600160a01b039093168352602083019190915201610202565b61023160035481565b61026f6103bd366004611553565b6005602052600090815260409020546001600160a01b031681565b6101c66103e636600461164f565b610e11565b6101c66103f936600461164f565b610e1b565b6101c661040c36600461158b565b610eb3565b61026f61041f36600461164f565b6000602081905290815260409020546001600160a01b031681565b60075461026f906001600160a01b031681565b61026f7f000000000000000000000000000000000000000000000000000000000000000081565b336001600160a01b03831614806104ae57506001600160a01b038216600090815260066020908152604080832033845290915290205460ff165b61053f576040517f08c379a000000000000000000000000000000000000000000000000000000000815260206004820152603060248201527f6d73672e73656e646572206e6f7420617574686f72697a656420746f2064656c60448201527f656761746520666f72207374616b65720000000000000000000000000000000060648201526084015b60405180910390fd5b6001600160a01b039182166000908152600660209081526040808320939094168252919091522080547fffffffffffffffffffffffffffffffffffffffffffffffffffffffffffffff00169055565b6040517fb4ed0b6d000000000000000000000000000000000000000000000000000000008152600481018290527f00000000000000000000000000000000000000000000000000000000000000006001600160a01b03169063b4ed0b6d9060240160206040518083038186803b15801561060757600080fd5b505afa15801561061b573d6000803e3d6000fd5b505050506040513d601f19601f8201168201806040525081019061063f919061156f565b60009182526020829052604090912080547fffffffffffffffffffffffff0000000000000000000000000000000000000000166001600160a01b03909216919091179055565b600061069033610fcb565b61071c576040517f08c379a000000000000000000000000000000000000000000000000000000000815260206004820152602d60248201527f6d73672e73656e646572206e6f7420617574686f72697a656420746f2070656e60448201527f616c697a65207374616b657273000000000000000000000000000000000000006064820152608401610536565b6001600160a01b03841660009081526002602052604090205483111561075b57506001600160a01b03831660009081526002602052604090205461075e565b50815b61076984828461108f565b9392505050565b600754600090819061078a906001600160a01b0316610c0a565b90505b806004546009544361079f9190611731565b6107a991906116f4565b106108bc5780600454111561082957600780546001600160a01b03908116600090815260056020526040808220546008548416835281832080549185167fffffffffffffffffffffffff000000000000000000000000000000000000000092831681179091558554909416835291208054821690558254161790556108a0565b60045461083690826116bb565b6009600082825461084791906116a3565b909155505060078054600880547fffffffffffffffffffffffff00000000000000000000000000000000000000009081166001600160a01b03808516918217909355600090815260056020526040902054921691161790555b6007546108b5906001600160a01b0316610c0a565b905061078d565b50506007546001600160a01b031690565b600454336000908152600260205260409020546108ea90836116a3565b1015610978576040517f08c379a000000000000000000000000000000000000000000000000000000000815260206004820152602960248201527f496e73756666696369656e74207374616b6520746f2063616c6c206576656e2060448201527f6f6e6520626c6f636b00000000000000000000000000000000000000000000006064820152608401610536565b610982338261126d565b336000908152600560205260409020546001600160a01b03166109ff576109a7610770565b3360008181526005602052604080822080546001600160a01b039586167fffffffffffffffffffffffff0000000000000000000000000000000000000000918216179091556008549094168252902080549092161790555b50565b610a0b33610bb2565b15610a98576040517f08c379a000000000000000000000000000000000000000000000000000000000815260206004820152603160248201527f596f752063616e2774207769746864726177207768696c6520796f752772652060448201527f617574686f72697a6564207374616b65720000000000000000000000000000006064820152608401610536565b6109ff33823361108f565b6040517f93552a3d000000000000000000000000000000000000000000000000000000008152600481018390526001600160a01b0382811660248301527f000000000000000000000000000000000000000000000000000000000000000016906393552a3d9060440160206040518083038186803b158015610b2457600080fd5b505afa158015610b38573d6000803e3d6000fd5b505050506040513d601f19601f82011682018060405250810190610b5c919061162f565b6001600160a01b039190911660009081526001602090815260408083209483529390529190912080547fffffffffffffffffffffffffffffffffffffffffffffffffffffffffffffff0016911515919091179055565b600080610bbd610770565b9050826001600160a01b0316816001600160a01b0316148061076957506001600160a01b0380821660009081526006602090815260408083209387168352929052205460ff169392505050565b60007f00000000000000000000000000000000000000000000000000000000000000006001600160a01b0316826001600160a01b03161415610d2e576040517f70a082310000000000000000000000000000000000000000000000000000000081526001600160a01b037f0000000000000000000000000000000000000000000000000000000000000000811660048301526002917f0000000000000000000000000000000000000000000000000000000000000000909116906370a082319060240160206040518083038186803b158015610ce557600080fd5b505afa158015610cf9573d6000803e3d6000fd5b505050506040513d601f19601f82011682018060405250810190610d1d9190611667565b610d2791906116bb565b9050610d49565b506001600160a01b0381166000908152600260205260409020545b919050565b6007546001600160a01b0316600080610d6683610c0a565b905060095491505b6004548190610d7d8443611731565b610d8791906116f4565b10610e0c57806004541115610dc4576001600160a01b0392831660009081526005602052604090205490921691610dbd83610c0a565b9050610e07565b600454610dd190826116bb565b610ddb90836116a3565b6001600160a01b03938416600090815260056020526040902054909316929150610e0483610c0a565b90505b610d6e565b509091565b6109ff338261126d565b33610e2461144a565b6001600160a01b03161480610e48575033610e3d6114e2565b6001600160a01b0316145b610eae576040517f08c379a000000000000000000000000000000000000000000000000000000000815260206004820152601e60248201527f526f6c65733a2063616c6c6572206973206e6f7420746865206f776e657200006044820152606401610536565b600455565b336001600160a01b0383161480610eed57506001600160a01b038216600090815260066020908152604080832033845290915290205460ff165b610f79576040517f08c379a000000000000000000000000000000000000000000000000000000000815260206004820152603060248201527f6d73672e73656e646572206e6f7420617574686f72697a656420746f2064656c60448201527f656761746520666f72207374616b6572000000000000000000000000000000006064820152608401610536565b6001600160a01b039182166000908152600660209081526040808320939094168252919091522080547fffffffffffffffffffffffffffffffffffffffffffffffffffffffffffffff00166001179055565b6040517f93552a3d000000000000000000000000000000000000000000000000000000008152600a60048201526001600160a01b0382811660248301526000917f0000000000000000000000000000000000000000000000000000000000000000909116906393552a3d9060440160206040518083038186803b15801561105157600080fd5b505afa158015611065573d6000803e3d6000fd5b505050506040513d601f19601f82011682018060405250810190611089919061162f565b92915050565b6001600160a01b038316600090815260026020526040812080548492906110b7908490611731565b9250508190555081600360008282546110d09190611731565b9091555050606560009081526020527f4a7203f705e51df4a56139a9b86b4a0970bed7ab7a3446eaffe2289989c1645c546001600160a01b03166040517fd9caed120000000000000000000000000000000000000000000000000000000081526001600160a01b037f000000000000000000000000000000000000000000000000000000000000000081166004830152838116602483015260448201859052919091169063d9caed1290606401600060405180830381600087803b15801561119757600080fd5b505af11580156111ab573d6000803e3d6000fd5b5050606c600090815260205250507f3c1fcba39712202dbd455253568bf32dd0a3bedb5c3ff0de4b22d4e45e50dc92546001600160a01b03166040517fc6c9faa1000000000000000000000000000000000000000000000000000000008152600160048201526001600160a01b03858116602483015260448201859052919091169063c6c9faa190606401600060405180830381600087803b15801561125057600080fd5b505af1158015611264573d6000803e3d6000fd5b50505050505050565b606560009081526020527f4a7203f705e51df4a56139a9b86b4a0970bed7ab7a3446eaffe2289989c1645c546001600160a01b03166040517fb3db428b0000000000000000000000000000000000000000000000000000000081526001600160a01b0384811660048301527f00000000000000000000000000000000000000000000000000000000000000008116602483015260448201849052919091169063b3db428b90606401600060405180830381600087803b15801561132f57600080fd5b505af1158015611343573d6000803e3d6000fd5b505050506001600160a01b0382166000908152600260205260408120805483929061136f9084906116a3565b92505081905550806003600082825461138891906116a3565b9091555050606c60009081526020527f3c1fcba39712202dbd455253568bf32dd0a3bedb5c3ff0de4b22d4e45e50dc92546001600160a01b03166040517f2b5de286000000000000000000000000000000000000000000000000000000008152600160048201526001600160a01b038481166024830152604482018490529190911690632b5de28690606401600060405180830381600087803b15801561142e57600080fd5b505af1158015611442573d6000803e3d6000fd5b505050505050565b60007f00000000000000000000000000000000000000000000000000000000000000006001600160a01b0316638da5cb5b6040518163ffffffff1660e01b815260040160206040518083038186803b1580156114a557600080fd5b505afa1580156114b9573d6000803e3d6000fd5b505050506040513d601f19601f820116820180604052508101906114dd919061156f565b905090565b60007f00000000000000000000000000000000000000000000000000000000000000006001600160a01b031663c34c08e56040518163ffffffff1660e01b8152600401602060405180830381600087803b15801561153f57600080fd5b505af11580156114b9573d6000803e3d6000fd5b600060208284031215611564578081fd5b813561076981611777565b600060208284031215611580578081fd5b815161076981611777565b6000806040838503121561159d578081fd5b82356115a881611777565b915060208301356115b881611777565b809150509250929050565b600080604083850312156115d5578182fd5b82356115e081611777565b946020939093013593505050565b600080600060608486031215611602578081fd5b833561160d81611777565b925060208401359150604084013561162481611777565b809150509250925092565b600060208284031215611640578081fd5b81518015158114610769578182fd5b600060208284031215611660578081fd5b5035919050565b600060208284031215611678578081fd5b5051919050565b60008060408385031215611691578182fd5b8235915060208301356115b881611777565b600082198211156116b6576116b6611748565b500190565b6000826116ef577f4e487b710000000000000000000000000000000000000000000000000000000081526012600452602481fd5b500490565b6000817fffffffffffffffffffffffffffffffffffffffffffffffffffffffffffffffff048311821515161561172c5761172c611748565b500290565b60008282101561174357611743611748565b500390565b7f4e487b7100000000000000000000000000000000000000000000000000000000600052601160045260246000fd5b6001600160a01b03811681146109ff57600080fdfea26469706673582212204cbd94cb40296aff365be42f80a5cc1f80d8541cd2d928c26aca9aabb5aa047564736f6c63430008030033",
  "linkReferences": {},
  "deployedLinkReferences": {}
}