{
  "_format": "hh-sol-artifact-1",
  "contractName": "Admin",
  "sourceName": "contracts/Admin.sol",
  "abi": [
    {
      "inputs": [
        {
          "internalType": "address",
          "name": "_MFI",
          "type": "address"
        },
        {
          "internalType": "address",
          "name": "_lockedMFI",
          "type": "address"
        },
        {
          "internalType": "address",
          "name": "lockedMFIDelegate",
          "type": "address"
        },
        {
          "internalType": "address",
          "name": "_roles",
          "type": "address"
        }
      ],
      "stateMutability": "nonpayable",
      "type": "constructor"
    },
    {
      "inputs": [],
      "name": "MFI",
      "outputs": [
        {
          "internalType": "address",
          "name": "",
          "type": "address"
        }
      ],
      "stateMutability": "view",
      "type": "function"
    },
    {
      "inputs": [
        {
          "internalType": "address",
          "name": "forStaker",
          "type": "address"
        },
        {
          "internalType": "address",
          "name": "delegate",
          "type": "address"
        }
      ],
      "name": "addDelegate",
      "outputs": [],
      "stateMutability": "nonpayable",
      "type": "function"
    },
    {
      "inputs": [],
      "name": "currentMaintenanceStaker",
      "outputs": [
        {
          "internalType": "address",
          "name": "",
          "type": "address"
        }
      ],
      "stateMutability": "view",
      "type": "function"
    },
    {
      "inputs": [],
      "name": "currentMaintenanceStakerStartBlock",
      "outputs": [
        {
          "internalType": "uint256",
          "name": "",
          "type": "uint256"
        }
      ],
      "stateMutability": "view",
      "type": "function"
    },
    {
      "inputs": [
        {
          "internalType": "uint256",
          "name": "amount",
          "type": "uint256"
        }
      ],
      "name": "depositMaintenanceStake",
      "outputs": [],
      "stateMutability": "nonpayable",
      "type": "function"
    },
    {
      "inputs": [
        {
          "internalType": "address",
          "name": "staker",
          "type": "address"
        }
      ],
      "name": "getMaintenanceStakerStake",
      "outputs": [
        {
          "internalType": "uint256",
          "name": "",
          "type": "uint256"
        }
      ],
      "stateMutability": "view",
      "type": "function"
    },
    {
      "inputs": [],
      "name": "getUpdatedCurrentStaker",
      "outputs": [
        {
          "internalType": "address",
          "name": "",
          "type": "address"
        }
      ],
      "stateMutability": "nonpayable",
      "type": "function"
    },
    {
      "inputs": [
        {
          "internalType": "address",
          "name": "caller",
          "type": "address"
        }
      ],
      "name": "isAuthorizedStaker",
      "outputs": [
        {
          "internalType": "bool",
          "name": "isAuthorized",
          "type": "bool"
        }
      ],
      "stateMutability": "nonpayable",
      "type": "function"
    },
    {
      "inputs": [],
      "name": "lockedMFI",
      "outputs": [
        {
          "internalType": "address",
          "name": "",
          "type": "address"
        }
      ],
      "stateMutability": "view",
      "type": "function"
    },
    {
      "inputs": [
        {
          "internalType": "uint256",
          "name": "",
          "type": "uint256"
        }
      ],
      "name": "mainCharacterCache",
      "outputs": [
        {
          "internalType": "address",
          "name": "",
          "type": "address"
        }
      ],
      "stateMutability": "view",
      "type": "function"
    },
    {
      "inputs": [
        {
          "internalType": "address",
          "name": "",
          "type": "address"
        },
        {
          "internalType": "address",
          "name": "",
          "type": "address"
        }
      ],
      "name": "maintenanceDelegateTo",
      "outputs": [
        {
          "internalType": "bool",
          "name": "",
          "type": "bool"
        }
      ],
      "stateMutability": "view",
      "type": "function"
    },
    {
      "inputs": [],
      "name": "maintenanceStakePerBlock",
      "outputs": [
        {
          "internalType": "uint256",
          "name": "",
          "type": "uint256"
        }
      ],
      "stateMutability": "view",
      "type": "function"
    },
    {
      "inputs": [],
      "name": "mfiStakeTranche",
      "outputs": [
        {
          "internalType": "uint256",
          "name": "",
          "type": "uint256"
        }
      ],
      "stateMutability": "view",
      "type": "function"
    },
    {
      "inputs": [
        {
          "internalType": "address",
          "name": "",
          "type": "address"
        }
      ],
      "name": "nextMaintenanceStaker",
      "outputs": [
        {
          "internalType": "address",
          "name": "",
          "type": "address"
        }
      ],
      "stateMutability": "view",
      "type": "function"
    },
    {
      "inputs": [
        {
          "internalType": "address",
          "name": "maintainer",
          "type": "address"
        },
        {
          "internalType": "uint256",
          "name": "penalty",
          "type": "uint256"
        },
        {
          "internalType": "address",
          "name": "recipient",
          "type": "address"
        }
      ],
      "name": "penalizeMaintenanceStake",
      "outputs": [
        {
          "internalType": "uint256",
          "name": "stakeTaken",
          "type": "uint256"
        }
      ],
      "stateMutability": "nonpayable",
      "type": "function"
    },
    {
      "inputs": [],
      "name": "prevMaintenanceStaker",
      "outputs": [
        {
          "internalType": "address",
          "name": "",
          "type": "address"
        }
      ],
      "stateMutability": "view",
      "type": "function"
    },
    {
      "inputs": [
        {
          "internalType": "address",
          "name": "forStaker",
          "type": "address"
        },
        {
          "internalType": "address",
          "name": "delegate",
          "type": "address"
        }
      ],
      "name": "removeDelegate",
      "outputs": [],
      "stateMutability": "nonpayable",
      "type": "function"
    },
    {
      "inputs": [
        {
          "internalType": "address",
          "name": "",
          "type": "address"
        },
        {
          "internalType": "uint256",
          "name": "",
          "type": "uint256"
        }
      ],
      "name": "roleCache",
      "outputs": [
        {
          "internalType": "bool",
          "name": "",
          "type": "bool"
        }
      ],
      "stateMutability": "view",
      "type": "function"
    },
    {
      "inputs": [],
      "name": "roles",
      "outputs": [
        {
          "internalType": "contract Roles",
          "name": "",
          "type": "address"
        }
      ],
      "stateMutability": "view",
      "type": "function"
    },
    {
      "inputs": [
        {
          "internalType": "uint256",
          "name": "amount",
          "type": "uint256"
        }
      ],
      "name": "setMaintenanceStakePerBlock",
      "outputs": [],
      "stateMutability": "nonpayable",
      "type": "function"
    },
    {
      "inputs": [
        {
          "internalType": "address",
          "name": "",
          "type": "address"
        }
      ],
      "name": "stakes",
      "outputs": [
        {
          "internalType": "uint256",
          "name": "",
          "type": "uint256"
        }
      ],
      "stateMutability": "view",
      "type": "function"
    },
    {
      "inputs": [],
      "name": "totalStakes",
      "outputs": [
        {
          "internalType": "uint256",
          "name": "",
          "type": "uint256"
        }
      ],
      "stateMutability": "view",
      "type": "function"
    },
    {
      "inputs": [
        {
          "internalType": "uint256",
          "name": "role",
          "type": "uint256"
        }
      ],
      "name": "updateMainCharacterCache",
      "outputs": [],
      "stateMutability": "nonpayable",
      "type": "function"
    },
    {
      "inputs": [
        {
          "internalType": "uint256",
          "name": "role",
          "type": "uint256"
        },
        {
          "internalType": "address",
          "name": "contr",
          "type": "address"
        }
      ],
      "name": "updateRoleCache",
      "outputs": [],
      "stateMutability": "nonpayable",
      "type": "function"
    },
    {
      "inputs": [],
      "name": "viewCurrentMaintenanceStaker",
      "outputs": [
        {
          "internalType": "address",
          "name": "staker",
          "type": "address"
        },
        {
          "internalType": "uint256",
          "name": "startBlock",
          "type": "uint256"
        }
      ],
      "stateMutability": "view",
      "type": "function"
    },
    {
      "inputs": [
        {
          "internalType": "uint256",
          "name": "amount",
          "type": "uint256"
        }
      ],
      "name": "withdrawStake",
      "outputs": [],
      "stateMutability": "nonpayable",
      "type": "function"
    }
  ],
  "bytecode": "0x60e060405267d02ab486cedc00006004553480156200001d57600080fd5b506040516200156d3803806200156d833981016040819052620000409162000156565b806001600160a01b038116620000a75760405162461bcd60e51b815260206004820152602260248201527f506c656173652070726f766964652076616c696420726f6c6573206164647265604482015261737360f01b606482015260840160405180910390fd5b6001600160601b0319606091821b811660805294811b851660a05283901b90931660c0526001600160a01b03918216600081815260056020908152604080832080546001600160a01b031990811686179091556007805482168617905560088054909116909417909355600681528282209390941681529190925220805460ff191660011790555043600955620001b2565b80516001600160a01b03811681146200015157600080fd5b919050565b600080600080608085870312156200016c578384fd5b620001778562000139565b9350620001876020860162000139565b9250620001976040860162000139565b9150620001a76060860162000139565b905092959194509250565b60805160601c60a05160601c60c05160601c611335620002386000396000818161022d01528181610a1a0152610a6901526000818161042701528181610a9401528181610d4701528181610dc101528181610e130152610ecc0152600081816102c3015281816104ef0152818161090c01528181610efa0152610f9201526113356000f3fe608060405234801561001057600080fd5b506004361061018e5760003560e01c80637a1a04df116100de578063bf9befb111610097578063e909ebfa11610071578063e909ebfa146103d3578063e9c3f77d146103e6578063e9f39e161461040f578063ed29c12b146104225761018e565b8063bf9befb11461038e578063c3fff5d914610397578063d8715ca7146103c05761018e565b80637a1a04df146102f85780637b23cbce146103265780637fbc953d14610339578063806cdada1461034c5780638bd4c6da1461035f578063b0411f46146103675761018e565b806316934fc41161014b578063219f951d11610125578063219f951d1461029857806325d5971f146102ab578063392f5f64146102be578063447d52ba146102e55761018e565b806316934fc4146102675780631a38de1d146102875780631aea9f521461028f5761018e565b8063020d308d14610193578063055cfe53146101a8578063071060a6146101eb5780630a45bc1b146101fe5780630ad691501461021f578063152119d814610228575b600080fd5b6101a66101a13660046110fe565b610449565b005b6101d66101b63660046110fe565b600660209081526000928352604080842090915290825290205460ff1681565b60405190151581526020015b60405180910390f35b6101a66101f93660046111c2565b6104d9565b61021161020c366004611161565b61059f565b6040519081526020016101e2565b61021160045481565b61024f7f000000000000000000000000000000000000000000000000000000000000000081565b6040516001600160a01b0390911681526020016101e2565b6102116102753660046110c6565b60026020526000908152604090205481565b61024f610674565b61021160095481565b6101a66102a63660046111c2565b61077c565b6101a66102b93660046111c2565b61086b565b61024f7f000000000000000000000000000000000000000000000000000000000000000081565b6101a66102f33660046111f2565b6108e6565b6101d6610306366004611136565b600160209081526000928352604080842090915290825290205460ff1681565b6101d66103343660046110c6565b6109be565b6102116103473660046110c6565b610a16565b60085461024f906001600160a01b031681565b610211600181565b61036f610b41565b604080516001600160a01b0390931683526020830191909152016101e2565b61021160035481565b61024f6103a53660046110c6565b6005602052600090815260409020546001600160a01b031681565b6101a66103ce3660046111c2565b610bd9565b6101a66103e13660046110fe565b610c57565b61024f6103f43660046111c2565b6000602081905290815260409020546001600160a01b031681565b60075461024f906001600160a01b031681565b61024f7f000000000000000000000000000000000000000000000000000000000000000081565b336001600160a01b038316148061048357506001600160a01b038216600090815260066020908152604080832033845290915290205460ff165b6104a85760405162461bcd60e51b815260040161049f90611216565b60405180910390fd5b6001600160a01b0391821660009081526006602090815260408083209390941682529190915220805460ff19169055565b60405163b4ed0b6d60e01b8152600481018290527f00000000000000000000000000000000000000000000000000000000000000006001600160a01b03169063b4ed0b6d9060240160206040518083038186803b15801561053957600080fd5b505afa15801561054d573d6000803e3d6000fd5b505050506040513d601f19601f8201168201806040525081019061057191906110e2565b60009182526020829052604090912080546001600160a01b0319166001600160a01b03909216919091179055565b336000908152600160209081526040808320600a845290915281205460ff166106205760405162461bcd60e51b815260206004820152602d60248201527f6d73672e73656e646572206e6f7420617574686f72697a656420746f2070656e60448201526c616c697a65207374616b65727360981b606482015260840161049f565b6001600160a01b03841660009081526002602052604090205483111561065f57506001600160a01b038316600090815260026020526040902054610662565b50815b61066d848284610ce1565b9392505050565b600754600090819061068e906001600160a01b0316610a16565b905080600454600954436106a291906112bd565b6106ac919061129e565b1061076b574360095560078054600880546001600160a01b03199081166001600160a01b03808516918217909355600090815260056020526040902054921691169081179091556106fc90610a16565b905080600454111561076b57600780546001600160a01b03908116600090815260056020526040808220546008548416835281832080549185166001600160a01b03199283168117909155855490941683529120805482169055825416811790915561076781610a16565b9150505b50506007546001600160a01b031690565b600454336000908152600260205260409020546107999083611266565b10156107f95760405162461bcd60e51b815260206004820152602960248201527f496e73756666696369656e74207374616b6520746f2063616c6c206576656e206044820152686f6e6520626c6f636b60b81b606482015260840161049f565b6108033382610dec565b336000908152600560205260409020546001600160a01b031661086857610828610674565b3360008181526005602052604080822080546001600160a01b039586166001600160a01b0319918216179091556008549094168252902080549092161790555b50565b610874336109be565b156108db5760405162461bcd60e51b815260206004820152603160248201527f596f752063616e2774207769746864726177207768696c6520796f752772652060448201527030baba3437b934bd32b21039ba30b5b2b960791b606482015260840161049f565b610868338233610ce1565b6040516393552a3d60e01b8152600481018390526001600160a01b0382811660248301527f000000000000000000000000000000000000000000000000000000000000000016906393552a3d9060440160206040518083038186803b15801561094e57600080fd5b505afa158015610962573d6000803e3d6000fd5b505050506040513d601f19601f8201168201806040525081019061098691906111a2565b6001600160a01b0391909116600090815260016020908152604080832094835293905291909120805460ff1916911515919091179055565b6000806109c9610674565b9050826001600160a01b0316816001600160a01b0316148061066d57506001600160a01b0380821660009081526006602090815260408083209387168352929052205460ff169392505050565b60007f00000000000000000000000000000000000000000000000000000000000000006001600160a01b0316826001600160a01b03161415610b21576040516370a0823160e01b81526001600160a01b037f0000000000000000000000000000000000000000000000000000000000000000811660048301526002917f0000000000000000000000000000000000000000000000000000000000000000909116906370a082319060240160206040518083038186803b158015610ad857600080fd5b505afa158015610aec573d6000803e3d6000fd5b505050506040513d601f19601f82011682018060405250810190610b1091906111da565b610b1a919061127e565b9050610b3c565b506001600160a01b0381166000908152600260205260409020545b919050565b6007546001600160a01b0316600080610b5983610a16565b90506009549150806004548343610b7091906112bd565b610b7a919061129e565b10610bd4576001600160a01b0392831660009081526005602052604090205490921691610ba683610a16565b9050439150806004541115610bd4576001600160a01b03928316600090815260056020526040902054909216915b509091565b33610be2610ef6565b6001600160a01b03161480610c06575033610bfb610f8e565b6001600160a01b0316145b610c525760405162461bcd60e51b815260206004820152601e60248201527f526f6c65733a2063616c6c6572206973206e6f7420746865206f776e65720000604482015260640161049f565b600455565b336001600160a01b0383161480610c9157506001600160a01b038216600090815260066020908152604080832033845290915290205460ff165b610cad5760405162461bcd60e51b815260040161049f90611216565b6001600160a01b0391821660009081526006602090815260408083209390941682529190915220805460ff19166001179055565b6001600160a01b03831660009081526002602052604081208054849290610d099084906112bd565b925050819055508160036000828254610d2291906112bd565b90915550610d309050610fff565b604051636ce5768960e11b81526001600160a01b037f000000000000000000000000000000000000000000000000000000000000000081166004830152838116602483015260448201859052919091169063d9caed1290606401600060405180830381600087803b158015610da457600080fd5b505af1158015610db8573d6000803e3d6000fd5b50505050610de77f00000000000000000000000000000000000000000000000000000000000000008484611037565b505050565b610df4610fff565b60405163b3db428b60e01b81526001600160a01b0384811660048301527f00000000000000000000000000000000000000000000000000000000000000008116602483015260448201849052919091169063b3db428b90606401600060405180830381600087803b158015610e6857600080fd5b505af1158015610e7c573d6000803e3d6000fd5b505050506001600160a01b03821660009081526002602052604081208054839290610ea8908490611266565b925050819055508060036000828254610ec19190611266565b90915550610ef290507f00000000000000000000000000000000000000000000000000000000000000008383611083565b5050565b60007f00000000000000000000000000000000000000000000000000000000000000006001600160a01b0316638da5cb5b6040518163ffffffff1660e01b815260040160206040518083038186803b158015610f5157600080fd5b505afa158015610f65573d6000803e3d6000fd5b505050506040513d601f19601f82011682018060405250810190610f8991906110e2565b905090565b60007f00000000000000000000000000000000000000000000000000000000000000006001600160a01b031663c34c08e56040518163ffffffff1660e01b8152600401602060405180830381600087803b158015610feb57600080fd5b505af1158015610f65573d6000803e3d6000fd5b606560009081526020527f4a7203f705e51df4a56139a9b86b4a0970bed7ab7a3446eaffe2289989c1645c546001600160a01b031690565b604080516001600160a01b038581168252602082018490528416917f3397b60e3ca1e9c0c75a033d62ab8731e9b2937c0690ae5d7f1bd37886b19d7d91015b60405180910390a2505050565b604080516001600160a01b038581168252602082018490528416917f8ec70c9430377a4bba035133e27a5b0f3b9951bc080833f6832bcbbb70a96dba9101611076565b6000602082840312156110d7578081fd5b813561066d816112ea565b6000602082840312156110f3578081fd5b815161066d816112ea565b60008060408385031215611110578081fd5b823561111b816112ea565b9150602083013561112b816112ea565b809150509250929050565b60008060408385031215611148578182fd5b8235611153816112ea565b946020939093013593505050565b600080600060608486031215611175578081fd5b8335611180816112ea565b9250602084013591506040840135611197816112ea565b809150509250925092565b6000602082840312156111b3578081fd5b8151801515811461066d578182fd5b6000602082840312156111d3578081fd5b5035919050565b6000602082840312156111eb578081fd5b5051919050565b60008060408385031215611204578182fd5b82359150602083013561112b816112ea565b60208082526030908201527f6d73672e73656e646572206e6f7420617574686f72697a656420746f2064656c60408201526f32b3b0ba32903337b91039ba30b5b2b960811b606082015260800190565b60008219821115611279576112796112d4565b500190565b60008261129957634e487b7160e01b81526012600452602481fd5b500490565b60008160001904831182151516156112b8576112b86112d4565b500290565b6000828210156112cf576112cf6112d4565b500390565b634e487b7160e01b600052601160045260246000fd5b6001600160a01b038116811461086857600080fdfea2646970667358221220dc3e21db9b6918aab06448f0e8e591bb91b660af2057c865dbc4b93935fa1b7564736f6c63430008030033",
  "linkReferences": {},
  "deployedLinkReferences": {}
}