{
  "_format": "hh-sol-artifact-1",
  "contractName": "Admin",
  "sourceName": "contracts/Admin.sol",
  "abi": [
    {
      "inputs": [
        {
          "internalType": "address",
          "name": "_MFI",
          "type": "address"
        },
        {
          "internalType": "address",
          "name": "_lockedMFI",
          "type": "address"
        },
        {
          "internalType": "address",
          "name": "lockedMFIDelegate",
          "type": "address"
        },
        {
          "internalType": "address",
          "name": "_roles",
          "type": "address"
        }
      ],
      "stateMutability": "nonpayable",
      "type": "constructor"
    },
    {
      "inputs": [],
      "name": "MFI",
      "outputs": [
        {
          "internalType": "address",
          "name": "",
          "type": "address"
        }
      ],
      "stateMutability": "view",
      "type": "function"
    },
    {
      "inputs": [
        {
          "internalType": "address",
          "name": "forStaker",
          "type": "address"
        },
        {
          "internalType": "address",
          "name": "delegate",
          "type": "address"
        }
      ],
      "name": "addDelegate",
      "outputs": [],
      "stateMutability": "nonpayable",
      "type": "function"
    },
    {
      "inputs": [],
      "name": "currentMaintenanceStaker",
      "outputs": [
        {
          "internalType": "address",
          "name": "",
          "type": "address"
        }
      ],
      "stateMutability": "view",
      "type": "function"
    },
    {
      "inputs": [],
      "name": "currentMaintenanceStakerStartBlock",
      "outputs": [
        {
          "internalType": "uint256",
          "name": "",
          "type": "uint256"
        }
      ],
      "stateMutability": "view",
      "type": "function"
    },
    {
      "inputs": [
        {
          "internalType": "uint256",
          "name": "amount",
          "type": "uint256"
        }
      ],
      "name": "depositMaintenanceStake",
      "outputs": [],
      "stateMutability": "nonpayable",
      "type": "function"
    },
    {
      "inputs": [
        {
          "internalType": "uint256",
          "name": "amount",
          "type": "uint256"
        }
      ],
      "name": "depositStake",
      "outputs": [],
      "stateMutability": "nonpayable",
      "type": "function"
    },
    {
      "inputs": [
        {
          "internalType": "address",
          "name": "staker",
          "type": "address"
        }
      ],
      "name": "getMaintenanceStakerStake",
      "outputs": [
        {
          "internalType": "uint256",
          "name": "",
          "type": "uint256"
        }
      ],
      "stateMutability": "view",
      "type": "function"
    },
    {
      "inputs": [],
      "name": "getUpdatedCurrentStaker",
      "outputs": [
        {
          "internalType": "address",
          "name": "",
          "type": "address"
        }
      ],
      "stateMutability": "nonpayable",
      "type": "function"
    },
    {
      "inputs": [
        {
          "internalType": "address",
          "name": "caller",
          "type": "address"
        }
      ],
      "name": "isAuthorizedStaker",
      "outputs": [
        {
          "internalType": "bool",
          "name": "isAuthorized",
          "type": "bool"
        }
      ],
      "stateMutability": "nonpayable",
      "type": "function"
    },
    {
      "inputs": [],
      "name": "lockedMFI",
      "outputs": [
        {
          "internalType": "address",
          "name": "",
          "type": "address"
        }
      ],
      "stateMutability": "view",
      "type": "function"
    },
    {
      "inputs": [
        {
          "internalType": "uint256",
          "name": "",
          "type": "uint256"
        }
      ],
      "name": "mainCharacterCache",
      "outputs": [
        {
          "internalType": "address",
          "name": "",
          "type": "address"
        }
      ],
      "stateMutability": "view",
      "type": "function"
    },
    {
      "inputs": [
        {
          "internalType": "address",
          "name": "",
          "type": "address"
        },
        {
          "internalType": "address",
          "name": "",
          "type": "address"
        }
      ],
      "name": "maintenanceDelegateTo",
      "outputs": [
        {
          "internalType": "bool",
          "name": "",
          "type": "bool"
        }
      ],
      "stateMutability": "view",
      "type": "function"
    },
    {
      "inputs": [],
      "name": "maintenanceStakePerBlock",
      "outputs": [
        {
          "internalType": "uint256",
          "name": "",
          "type": "uint256"
        }
      ],
      "stateMutability": "view",
      "type": "function"
    },
    {
      "inputs": [
        {
          "internalType": "address",
          "name": "",
          "type": "address"
        }
      ],
      "name": "nextMaintenanceStaker",
      "outputs": [
        {
          "internalType": "address",
          "name": "",
          "type": "address"
        }
      ],
      "stateMutability": "view",
      "type": "function"
    },
    {
      "inputs": [
        {
          "internalType": "address",
          "name": "maintainer",
          "type": "address"
        },
        {
          "internalType": "uint256",
          "name": "penalty",
          "type": "uint256"
        },
        {
          "internalType": "address",
          "name": "recipient",
          "type": "address"
        }
      ],
      "name": "penalizeMaintenanceStake",
      "outputs": [
        {
          "internalType": "uint256",
          "name": "stakeTaken",
          "type": "uint256"
        }
      ],
      "stateMutability": "nonpayable",
      "type": "function"
    },
    {
      "inputs": [],
      "name": "prevMaintenanceStaker",
      "outputs": [
        {
          "internalType": "address",
          "name": "",
          "type": "address"
        }
      ],
      "stateMutability": "view",
      "type": "function"
    },
    {
      "inputs": [
        {
          "internalType": "address",
          "name": "forStaker",
          "type": "address"
        },
        {
          "internalType": "address",
          "name": "delegate",
          "type": "address"
        }
      ],
      "name": "removeDelegate",
      "outputs": [],
      "stateMutability": "nonpayable",
      "type": "function"
    },
    {
      "inputs": [
        {
          "internalType": "address",
          "name": "",
          "type": "address"
        },
        {
          "internalType": "uint256",
          "name": "",
          "type": "uint256"
        }
      ],
      "name": "roleCache",
      "outputs": [
        {
          "internalType": "bool",
          "name": "",
          "type": "bool"
        }
      ],
      "stateMutability": "view",
      "type": "function"
    },
    {
      "inputs": [],
      "name": "roles",
      "outputs": [
        {
          "internalType": "contract Roles",
          "name": "",
          "type": "address"
        }
      ],
      "stateMutability": "view",
      "type": "function"
    },
    {
      "inputs": [
        {
          "internalType": "uint256",
          "name": "amount",
          "type": "uint256"
        }
      ],
      "name": "setMaintenanceStakePerBlock",
      "outputs": [],
      "stateMutability": "nonpayable",
      "type": "function"
    },
    {
      "inputs": [
        {
          "internalType": "address",
          "name": "",
          "type": "address"
        }
      ],
      "name": "stakes",
      "outputs": [
        {
          "internalType": "uint256",
          "name": "",
          "type": "uint256"
        }
      ],
      "stateMutability": "view",
      "type": "function"
    },
    {
      "inputs": [],
      "name": "totalStakes",
      "outputs": [
        {
          "internalType": "uint256",
          "name": "",
          "type": "uint256"
        }
      ],
      "stateMutability": "view",
      "type": "function"
    },
    {
      "inputs": [
        {
          "internalType": "uint256",
          "name": "role",
          "type": "uint256"
        }
      ],
      "name": "updateMainCharacterCache",
      "outputs": [],
      "stateMutability": "nonpayable",
      "type": "function"
    },
    {
      "inputs": [
        {
          "internalType": "uint256",
          "name": "role",
          "type": "uint256"
        },
        {
          "internalType": "address",
          "name": "contr",
          "type": "address"
        }
      ],
      "name": "updateRoleCache",
      "outputs": [],
      "stateMutability": "nonpayable",
      "type": "function"
    },
    {
      "inputs": [],
      "name": "viewCurrentMaintenanceStaker",
      "outputs": [
        {
          "internalType": "address",
          "name": "staker",
          "type": "address"
        },
        {
          "internalType": "uint256",
          "name": "startBlock",
          "type": "uint256"
        }
      ],
      "stateMutability": "view",
      "type": "function"
    },
    {
      "inputs": [
        {
          "internalType": "uint256",
          "name": "amount",
          "type": "uint256"
        }
      ],
      "name": "withdrawStake",
      "outputs": [],
      "stateMutability": "nonpayable",
      "type": "function"
    }
  ],
  "bytecode": "0x60e0604052678ac7230489e800006004553480156200001d57600080fd5b506040516200184e3803806200184e833981016040819052620000409162000155565b806001600160a01b038116620000a75760405162461bcd60e51b815260206004820152602260248201527f506c656173652070726f766964652076616c696420726f6c6573206164647265604482015261737360f01b606482015260840160405180910390fd5b6001600160601b0319606091821b811660805294811b851660a052670de0b6b3a764000060045583901b90931660c0526001600160a01b03918216600081815260056020908152604080832080546001600160a01b031990811686179091556007805482168617905560088054909116909417909355600681529181209290931690925290525043600955620001b1565b80516001600160a01b03811681146200015057600080fd5b919050565b600080600080608085870312156200016b578384fd5b620001768562000138565b9350620001866020860162000138565b9250620001966040860162000138565b9150620001a66060860162000138565b905092959194509250565b60805160601c60a05160601c60c05160601c61161e620002306000396000818161024d01528181610b250152610b8d01526000818161045201528181610bb801528181610fe601526111860152600081816102e30152818161058501528181610a1701528181610eb9015281816112fa0152611392015261161e6000f3fe608060405234801561001057600080fd5b50600436106101ae5760003560e01c80637a1a04df116100ee578063c3fff5d911610097578063e909ebfa11610071578063e909ebfa146103fe578063e9c3f77d14610411578063e9f39e161461043a578063ed29c12b1461044d576101ae565b8063c3fff5d9146103af578063cb82cc8f146103d8578063d8715ca7146103eb576101ae565b8063806cdada116100c8578063806cdada1461036c578063b0411f461461037f578063bf9befb1146103a6576101ae565b80637a1a04df146103185780637b23cbce146103465780637fbc953d14610359576101ae565b806316934fc41161015b578063219f951d11610135578063219f951d146102b857806325d5971f146102cb578063392f5f64146102de578063447d52ba14610305576101ae565b806316934fc4146102875780631a38de1d146102a75780631aea9f52146102af576101ae565b80630a45bc1b1161018c5780630a45bc1b1461021e5780630ad691501461023f578063152119d814610248576101ae565b8063020d308d146101b3578063055cfe53146101c8578063071060a61461020b575b600080fd5b6101c66101c1366004611437565b610474565b005b6101f66101d6366004611437565b600660209081526000928352604080842090915290825290205460ff1681565b60405190151581526020015b60405180910390f35b6101c66102193660046114fb565b610556565b61023161022c36600461149a565b610642565b604051908152602001610202565b61023160045481565b61026f7f000000000000000000000000000000000000000000000000000000000000000081565b6040516001600160a01b039091168152602001610202565b6102316102953660046113ff565b60026020526000908152604090205481565b61026f610713565b61023160095481565b6101c66102c63660046114fb565b61085a565b6101c66102d93660046114fb565b61096a565b61026f7f000000000000000000000000000000000000000000000000000000000000000081565b6101c661031336600461152b565b6109f1565b6101f661032636600461146f565b600160209081526000928352604080842090915290825290205460ff1681565b6101f66103543660046113ff565b610ac9565b6102316103673660046113ff565b610b21565b60085461026f906001600160a01b031681565b610387610c65565b604080516001600160a01b039093168352602083019190915201610202565b61023160035481565b61026f6103bd3660046113ff565b6005602052600090815260409020546001600160a01b031681565b6101c66103e63660046114fb565b610d28565b6101c66103f93660046114fb565b610d32565b6101c661040c366004611437565b610db0565b61026f61041f3660046114fb565b6000602081905290815260409020546001600160a01b031681565b60075461026f906001600160a01b031681565b61026f7f000000000000000000000000000000000000000000000000000000000000000081565b336001600160a01b03831614806104ae57506001600160a01b038216600090815260066020908152604080832033845290915290205460ff165b6105255760405162461bcd60e51b815260206004820152603060248201527f6d73672e73656e646572206e6f7420617574686f72697a656420746f2064656c60448201527f656761746520666f72207374616b65720000000000000000000000000000000060648201526084015b60405180910390fd5b6001600160a01b0391821660009081526006602090815260408083209390941682529190915220805460ff19169055565b6040517fb4ed0b6d000000000000000000000000000000000000000000000000000000008152600481018290527f00000000000000000000000000000000000000000000000000000000000000006001600160a01b03169063b4ed0b6d9060240160206040518083038186803b1580156105cf57600080fd5b505afa1580156105e3573d6000803e3d6000fd5b505050506040513d601f19601f82011682018060405250810190610607919061141b565b600091825260208290526040909120805473ffffffffffffffffffffffffffffffffffffffff19166001600160a01b03909216919091179055565b600061064d33610e90565b6106bf5760405162461bcd60e51b815260206004820152602d60248201527f6d73672e73656e646572206e6f7420617574686f72697a656420746f2070656e60448201527f616c697a65207374616b65727300000000000000000000000000000000000000606482015260840161051c565b6001600160a01b0384166000908152600260205260409020548311156106fe57506001600160a01b038316600090815260026020526040902054610701565b50815b61070c848284610f3b565b9392505050565b600754600090819061072d906001600160a01b0316610b21565b90505b806004546009544361074291906115a6565b61074c9190611587565b10610849578060045411156107c157600780546001600160a01b039081166000908152600560205260408082205460085484168352818320805491851673ffffffffffffffffffffffffffffffffffffffff19928316811790915585549094168352912080548216905582541617905561082d565b6004546107ce9082611567565b600960008282546107df919061154f565b9091555050600780546008805473ffffffffffffffffffffffffffffffffffffffff199081166001600160a01b03808516918217909355600090815260056020526040902054921691161790555b600754610842906001600160a01b0316610b21565b9050610730565b50506007546001600160a01b031690565b60045433600090815260026020526040902054610877908361154f565b10156108eb5760405162461bcd60e51b815260206004820152602960248201527f496e73756666696369656e74207374616b6520746f2063616c6c206576656e2060448201527f6f6e6520626c6f636b0000000000000000000000000000000000000000000000606482015260840161051c565b6108f53382611119565b336000908152600560205260409020546001600160a01b03166109675761091a610713565b3360008181526005602052604080822080546001600160a01b0395861673ffffffffffffffffffffffffffffffffffffffff19918216179091556008549094168252902080549092161790555b50565b61097333610ac9565b156109e65760405162461bcd60e51b815260206004820152603160248201527f596f752063616e2774207769746864726177207768696c6520796f752772652060448201527f617574686f72697a6564207374616b6572000000000000000000000000000000606482015260840161051c565b610967338233610f3b565b6040516393552a3d60e01b8152600481018390526001600160a01b0382811660248301527f000000000000000000000000000000000000000000000000000000000000000016906393552a3d9060440160206040518083038186803b158015610a5957600080fd5b505afa158015610a6d573d6000803e3d6000fd5b505050506040513d601f19601f82011682018060405250810190610a9191906114db565b6001600160a01b0391909116600090815260016020908152604080832094835293905291909120805460ff1916911515919091179055565b600080610ad4610713565b9050826001600160a01b0316816001600160a01b0316148061070c57506001600160a01b0380821660009081526006602090815260408083209387168352929052205460ff169392505050565b60007f00000000000000000000000000000000000000000000000000000000000000006001600160a01b0316826001600160a01b03161415610c45576040517f70a082310000000000000000000000000000000000000000000000000000000081526001600160a01b037f0000000000000000000000000000000000000000000000000000000000000000811660048301526002917f0000000000000000000000000000000000000000000000000000000000000000909116906370a082319060240160206040518083038186803b158015610bfc57600080fd5b505afa158015610c10573d6000803e3d6000fd5b505050506040513d601f19601f82011682018060405250810190610c349190611513565b610c3e9190611567565b9050610c60565b506001600160a01b0381166000908152600260205260409020545b919050565b6007546001600160a01b0316600080610c7d83610b21565b905060095491505b6004548190610c9484436115a6565b610c9e9190611587565b10610d2357806004541115610cdb576001600160a01b0392831660009081526005602052604090205490921691610cd483610b21565b9050610d1e565b600454610ce89082611567565b610cf2908361154f565b6001600160a01b03938416600090815260056020526040902054909316929150610d1b83610b21565b90505b610c85565b509091565b6109673382611119565b33610d3b6112f6565b6001600160a01b03161480610d5f575033610d5461138e565b6001600160a01b0316145b610dab5760405162461bcd60e51b815260206004820152601e60248201527f526f6c65733a2063616c6c6572206973206e6f7420746865206f776e65720000604482015260640161051c565b600455565b336001600160a01b0383161480610dea57506001600160a01b038216600090815260066020908152604080832033845290915290205460ff165b610e5c5760405162461bcd60e51b815260206004820152603060248201527f6d73672e73656e646572206e6f7420617574686f72697a656420746f2064656c60448201527f656761746520666f72207374616b657200000000000000000000000000000000606482015260840161051c565b6001600160a01b0391821660009081526006602090815260408083209390941682529190915220805460ff19166001179055565b6040516393552a3d60e01b8152600a60048201526001600160a01b0382811660248301526000917f0000000000000000000000000000000000000000000000000000000000000000909116906393552a3d9060440160206040518083038186803b158015610efd57600080fd5b505afa158015610f11573d6000803e3d6000fd5b505050506040513d601f19601f82011682018060405250810190610f3591906114db565b92915050565b6001600160a01b03831660009081526002602052604081208054849290610f639084906115a6565b925050819055508160036000828254610f7c91906115a6565b9091555050606560009081526020527f4a7203f705e51df4a56139a9b86b4a0970bed7ab7a3446eaffe2289989c1645c546001600160a01b03166040517fd9caed120000000000000000000000000000000000000000000000000000000081526001600160a01b037f000000000000000000000000000000000000000000000000000000000000000081166004830152838116602483015260448201859052919091169063d9caed1290606401600060405180830381600087803b15801561104357600080fd5b505af1158015611057573d6000803e3d6000fd5b5050606c600090815260205250507f3c1fcba39712202dbd455253568bf32dd0a3bedb5c3ff0de4b22d4e45e50dc92546001600160a01b03166040517fc6c9faa1000000000000000000000000000000000000000000000000000000008152600160048201526001600160a01b03858116602483015260448201859052919091169063c6c9faa190606401600060405180830381600087803b1580156110fc57600080fd5b505af1158015611110573d6000803e3d6000fd5b50505050505050565b606560009081526020527f4a7203f705e51df4a56139a9b86b4a0970bed7ab7a3446eaffe2289989c1645c546001600160a01b03166040517fb3db428b0000000000000000000000000000000000000000000000000000000081526001600160a01b0384811660048301527f00000000000000000000000000000000000000000000000000000000000000008116602483015260448201849052919091169063b3db428b90606401600060405180830381600087803b1580156111db57600080fd5b505af11580156111ef573d6000803e3d6000fd5b505050506001600160a01b0382166000908152600260205260408120805483929061121b90849061154f565b925050819055508060036000828254611234919061154f565b9091555050606c60009081526020527f3c1fcba39712202dbd455253568bf32dd0a3bedb5c3ff0de4b22d4e45e50dc92546001600160a01b03166040517f2b5de286000000000000000000000000000000000000000000000000000000008152600160048201526001600160a01b038481166024830152604482018490529190911690632b5de28690606401600060405180830381600087803b1580156112da57600080fd5b505af11580156112ee573d6000803e3d6000fd5b505050505050565b60007f00000000000000000000000000000000000000000000000000000000000000006001600160a01b0316638da5cb5b6040518163ffffffff1660e01b815260040160206040518083038186803b15801561135157600080fd5b505afa158015611365573d6000803e3d6000fd5b505050506040513d601f19601f82011682018060405250810190611389919061141b565b905090565b60007f00000000000000000000000000000000000000000000000000000000000000006001600160a01b031663c34c08e56040518163ffffffff1660e01b8152600401602060405180830381600087803b1580156113eb57600080fd5b505af1158015611365573d6000803e3d6000fd5b600060208284031215611410578081fd5b813561070c816115d3565b60006020828403121561142c578081fd5b815161070c816115d3565b60008060408385031215611449578081fd5b8235611454816115d3565b91506020830135611464816115d3565b809150509250929050565b60008060408385031215611481578182fd5b823561148c816115d3565b946020939093013593505050565b6000806000606084860312156114ae578081fd5b83356114b9816115d3565b92506020840135915060408401356114d0816115d3565b809150509250925092565b6000602082840312156114ec578081fd5b8151801515811461070c578182fd5b60006020828403121561150c578081fd5b5035919050565b600060208284031215611524578081fd5b5051919050565b6000806040838503121561153d578182fd5b823591506020830135611464816115d3565b60008219821115611562576115626115bd565b500190565b60008261158257634e487b7160e01b81526012600452602481fd5b500490565b60008160001904831182151516156115a1576115a16115bd565b500290565b6000828210156115b8576115b86115bd565b500390565b634e487b7160e01b600052601160045260246000fd5b6001600160a01b038116811461096757600080fdfea26469706673582212206917800f16c97a53f480b71eda9d1d804dbc515182bb3a377becb326491a96ca64736f6c63430008030033",
  "linkReferences": {},
  "deployedLinkReferences": {}
}