{
  "_format": "hh-sol-artifact-1",
  "contractName": "DependencyController",
  "sourceName": "contracts/DependencyController.sol",
  "abi": [
    {
      "inputs": [
        {
          "internalType": "address",
          "name": "_roles",
          "type": "address"
        }
      ],
      "stateMutability": "nonpayable",
      "type": "constructor"
    },
    {
      "inputs": [
        {
          "internalType": "uint256",
          "name": "",
          "type": "uint256"
        }
      ],
      "name": "allCharacters",
      "outputs": [
        {
          "internalType": "uint256",
          "name": "",
          "type": "uint256"
        }
      ],
      "stateMutability": "view",
      "type": "function"
    },
    {
      "inputs": [],
      "name": "allManagedContracts",
      "outputs": [
        {
          "internalType": "address[]",
          "name": "",
          "type": "address[]"
        }
      ],
      "stateMutability": "view",
      "type": "function"
    },
    {
      "inputs": [
        {
          "internalType": "uint256",
          "name": "",
          "type": "uint256"
        }
      ],
      "name": "allRoles",
      "outputs": [
        {
          "internalType": "uint256",
          "name": "",
          "type": "uint256"
        }
      ],
      "stateMutability": "view",
      "type": "function"
    },
    {
      "inputs": [],
      "name": "currentExecutor",
      "outputs": [
        {
          "internalType": "address",
          "name": "",
          "type": "address"
        }
      ],
      "stateMutability": "view",
      "type": "function"
    },
    {
      "inputs": [
        {
          "internalType": "address",
          "name": "contr",
          "type": "address"
        }
      ],
      "name": "disableContract",
      "outputs": [],
      "stateMutability": "nonpayable",
      "type": "function"
    },
    {
      "inputs": [
        {
          "internalType": "address",
          "name": "executor",
          "type": "address"
        }
      ],
      "name": "executeAsOwner",
      "outputs": [],
      "stateMutability": "nonpayable",
      "type": "function"
    },
    {
      "inputs": [
        {
          "internalType": "uint256",
          "name": "role",
          "type": "uint256"
        },
        {
          "internalType": "address",
          "name": "actor",
          "type": "address"
        }
      ],
      "name": "giveRole",
      "outputs": [],
      "stateMutability": "nonpayable",
      "type": "function"
    },
    {
      "inputs": [
        {
          "internalType": "uint256",
          "name": "",
          "type": "uint256"
        }
      ],
      "name": "knownCharacters",
      "outputs": [
        {
          "internalType": "bool",
          "name": "",
          "type": "bool"
        }
      ],
      "stateMutability": "view",
      "type": "function"
    },
    {
      "inputs": [
        {
          "internalType": "uint256",
          "name": "",
          "type": "uint256"
        }
      ],
      "name": "knownRoles",
      "outputs": [
        {
          "internalType": "bool",
          "name": "",
          "type": "bool"
        }
      ],
      "stateMutability": "view",
      "type": "function"
    },
    {
      "inputs": [
        {
          "internalType": "uint256",
          "name": "",
          "type": "uint256"
        }
      ],
      "name": "mainCharacterCache",
      "outputs": [
        {
          "internalType": "address",
          "name": "",
          "type": "address"
        }
      ],
      "stateMutability": "view",
      "type": "function"
    },
    {
      "inputs": [
        {
          "internalType": "address",
          "name": "contr",
          "type": "address"
        },
        {
          "internalType": "uint256[]",
          "name": "charactersPlayed",
          "type": "uint256[]"
        },
        {
          "internalType": "uint256[]",
          "name": "rolesPlayed",
          "type": "uint256[]"
        }
      ],
      "name": "manageContract",
      "outputs": [],
      "stateMutability": "nonpayable",
      "type": "function"
    },
    {
      "inputs": [
        {
          "internalType": "uint256",
          "name": "",
          "type": "uint256"
        }
      ],
      "name": "managedContracts",
      "outputs": [
        {
          "internalType": "address",
          "name": "",
          "type": "address"
        }
      ],
      "stateMutability": "view",
      "type": "function"
    },
    {
      "inputs": [
        {
          "internalType": "uint256",
          "name": "role",
          "type": "uint256"
        },
        {
          "internalType": "address",
          "name": "actor",
          "type": "address"
        }
      ],
      "name": "removeRole",
      "outputs": [],
      "stateMutability": "nonpayable",
      "type": "function"
    },
    {
      "inputs": [
        {
          "internalType": "address",
          "name": "",
          "type": "address"
        },
        {
          "internalType": "uint256",
          "name": "",
          "type": "uint256"
        }
      ],
      "name": "roleCache",
      "outputs": [
        {
          "internalType": "bool",
          "name": "",
          "type": "bool"
        }
      ],
      "stateMutability": "view",
      "type": "function"
    },
    {
      "inputs": [],
      "name": "roles",
      "outputs": [
        {
          "internalType": "contract Roles",
          "name": "",
          "type": "address"
        }
      ],
      "stateMutability": "view",
      "type": "function"
    },
    {
      "inputs": [
        {
          "internalType": "uint256",
          "name": "role",
          "type": "uint256"
        },
        {
          "internalType": "address",
          "name": "actor",
          "type": "address"
        }
      ],
      "name": "setMainCharacter",
      "outputs": [],
      "stateMutability": "nonpayable",
      "type": "function"
    },
    {
      "inputs": [
        {
          "internalType": "address",
          "name": "contr",
          "type": "address"
        }
      ],
      "name": "updateCaches",
      "outputs": [],
      "stateMutability": "nonpayable",
      "type": "function"
    },
    {
      "inputs": [
        {
          "internalType": "uint256",
          "name": "character",
          "type": "uint256"
        }
      ],
      "name": "updateMainCharacterCache",
      "outputs": [],
      "stateMutability": "nonpayable",
      "type": "function"
    },
    {
      "inputs": [
        {
          "internalType": "uint256",
          "name": "role",
          "type": "uint256"
        },
        {
          "internalType": "address",
          "name": "contr",
          "type": "address"
        }
      ],
      "name": "updateRoleCache",
      "outputs": [],
      "stateMutability": "nonpayable",
      "type": "function"
    }
  ],
  "bytecode": "0x60a060405234801561001057600080fd5b506040516118e83803806118e883398101604081905261002f916100ab565b806001600160a01b0381166100955760405162461bcd60e51b815260206004820152602260248201527f506c656173652070726f766964652076616c696420726f6c6573206164647265604482015261737360f01b606482015260840160405180910390fd5b60601b6001600160601b031916608052506100d9565b6000602082840312156100bc578081fd5b81516001600160a01b03811681146100d2578182fd5b9392505050565b60805160601c6117c06101286000396000818161020801528181610e5c01528181610ef401528181611004015281816110aa0152818161117c015281816111f1015261133201526117c06000f3fe608060405234801561001057600080fd5b50600436106101515760003560e01c80635d4ef0b8116100cd578063a154ce8211610081578063e9c3f77d11610066578063e9c3f77d14610308578063f19990d714610331578063f1ce598e1461035457610151565b8063a154ce82146102e2578063a1fdc458146102f557610151565b8063713dade2116100b2578063713dade21461028e5780637a1a04df146102a1578063840c53bd146102cf57610151565b80635d4ef0b8146102685780636b60a09b1461027b57610151565b80632be5c6c011610124578063392f5f6411610109578063392f5f6414610203578063447d52ba146102425780634d5377691461025557610151565b80632be5c6c0146101bd5780633238405b146101f057610151565b8063071060a6146101565780631023d3e01461016b57806317b7b61b1461018957806325398f83146101aa575b600080fd5b61016961016436600461164f565b610367565b005b61017361042e565b6040516101809190611696565b60405180910390f35b61019c61019736600461164f565b610490565b604051908152602001610180565b6101696101b8366004611667565b6104b1565b6101e06101cb36600461164f565b60056020526000908152604090205460ff1681565b6040519015158152602001610180565b6101696101fe366004611667565b61053d565b61022a7f000000000000000000000000000000000000000000000000000000000000000081565b6040516001600160a01b039091168152602001610180565b610169610250366004611667565b610634565b610169610263366004611667565b610704565b6101696102763660046114fe565b610787565b60025461022a906001600160a01b031681565b61016961029c3660046114bf565b61090a565b6101e06102af366004611571565b600160209081526000928352604080842090915290825290205460ff1681565b61019c6102dd36600461164f565b610ad8565b6101696102f03660046114bf565b610ae8565b6101696103033660046114bf565b610be1565b61022a61031636600461164f565b6000602081905290815260409020546001600160a01b031681565b6101e061033f36600461164f565b60046020526000908152604090205460ff1681565b61022a61036236600461164f565b610e2e565b60035460005b80821115610429576003818154811061039657634e487b7160e01b600052603260045260246000fd5b6000918252602090912001546040517f071060a6000000000000000000000000000000000000000000000000000000008152600481018590526001600160a01b039091169063071060a690602401600060405180830381600087803b1580156103fe57600080fd5b505af1158015610412573d6000803e3d6000fd5b50505050808061042190611738565b91505061036d565b505050565b6060600380548060200260200160405190810160405280929190818152602001828054801561048657602002820191906000526020600020905b81546001600160a01b03168152600190910190602001808311610468575b5050505050905090565b600681815481106104a057600080fd5b600091825260209091200154905081565b336104ba610e58565b6001600160a01b031614806104de5750336104d3610ef0565b6001600160a01b0316145b61052f5760405162461bcd60e51b815260206004820152601e60248201527f526f6c65733a2063616c6c6572206973206e6f7420746865206f776e6572000060448201526064015b60405180910390fd5b6105398282610f61565b5050565b33610546610e58565b6001600160a01b0316148061056a57503361055f610ef0565b6001600160a01b0316145b806105b85750336105ad6103e960009081526020527f236f539bf6e1b3b15a335e3cd157d360bc4be88c071635c19ba8a82b4f665e9f546001600160a01b031690565b6001600160a01b0316145b61062a5760405162461bcd60e51b815260206004820152603860248201527f43616c6c6572206973206e6f7420746865206f776e65722c206578656375746f60448201527f72206f7220617574686f72697a65642064697361626c657200000000000000006064820152608401610526565b610539828261106b565b60035460005b808211156106fe576003818154811061066357634e487b7160e01b600052603260045260246000fd5b6000918252602090912001546040517f447d52ba000000000000000000000000000000000000000000000000000000008152600481018690526001600160a01b0385811660248301529091169063447d52ba90604401600060405180830381600087803b1580156106d357600080fd5b505af11580156106e7573d6000803e3d6000fd5b5050505080806106f690611738565b91505061063a565b50505050565b3361070d610e58565b6001600160a01b03161480610731575033610726610ef0565b6001600160a01b0316145b61077d5760405162461bcd60e51b815260206004820152601e60248201527f526f6c65733a2063616c6c6572206973206e6f7420746865206f776e657200006044820152606401610526565b61053982826110d9565b33610790610e58565b6001600160a01b031614806107b45750336107a9610ef0565b6001600160a01b0316145b6108005760405162461bcd60e51b815260206004820152601e60248201527f526f6c65733a2063616c6c6572206973206e6f7420746865206f776e657200006044820152606401610526565b6003805460018101825560009182527fc2575a0e9e593c00f959f8c92f12db2869c3395a3b0502d05e2516446f71f85b01805473ffffffffffffffffffffffffffffffffffffffff19166001600160a01b0386161790558251905b808211156108ac57600084828151811061088557634e487b7160e01b600052603260045260246000fd5b6020026020010151905061089981876110d9565b50806108a481611738565b91505061085b565b5050805160005b808211156109045760008382815181106108dd57634e487b7160e01b600052603260045260246000fd5b602002602001015190506108f18187610f61565b50806108fc81611738565b9150506108b3565b506106fe845b60065460005b808211156109b657826001600160a01b031663071060a66006838154811061094857634e487b7160e01b600052603260045260246000fd5b90600052602060002001546040518263ffffffff1660e01b815260040161097191815260200190565b600060405180830381600087803b15801561098b57600080fd5b505af115801561099f573d6000803e3d6000fd5b5050505080806109ae90611738565b915050610910565b505060075460005b808211156104295760005b600354811015610ac557836001600160a01b031663447d52ba60078481548110610a0357634e487b7160e01b600052603260045260246000fd5b906000526020600020015460038481548110610a2f57634e487b7160e01b600052603260045260246000fd5b60009182526020909120015460405160e084901b7fffffffff0000000000000000000000000000000000000000000000000000000016815260048101929092526001600160a01b03166024820152604401600060405180830381600087803b158015610a9a57600080fd5b505af1158015610aae573d6000803e3d6000fd5b505050508080610abd90611738565b9150506109c9565b5080610ad081611738565b9150506109be565b600781815481106104a057600080fd5b33610af1610e58565b6001600160a01b03161480610b15575033610b0a610ef0565b6001600160a01b0316145b80610b63575033610b586103e960009081526020527f236f539bf6e1b3b15a335e3cd157d360bc4be88c071635c19ba8a82b4f665e9f546001600160a01b031690565b6001600160a01b0316145b610bd55760405162461bcd60e51b815260206004820152603860248201527f43616c6c6572206973206e6f7420746865206f776e65722c206578656375746f60448201527f72206f7220617574686f72697a65642064697361626c657200000000000000006064820152608401610526565b610bde816111e1565b50565b33610bea610e58565b6001600160a01b03161480610c0e575033610c03610ef0565b6001600160a01b0316145b610c5a5760405162461bcd60e51b815260206004820152601e60248201527f526f6c65733a2063616c6c6572206973206e6f7420746865206f776e657200006044820152606401610526565b6000816001600160a01b031663cd28fc8f6040518163ffffffff1660e01b8152600401600060405180830381600087803b158015610c9757600080fd5b505af1158015610cab573d6000803e3d6000fd5b505050506040513d6000823e601f3d908101601f19168201604052610cd3919081019061159c565b905060005b8082511115610d2457610d12828281518110610d0457634e487b7160e01b600052603260045260246000fd5b602002602001015184610f61565b80610d1c81611738565b915050610cd8565b50610d2e8261090a565b6002805473ffffffffffffffffffffffffffffffffffffffff19166001600160a01b038416908117909155604080517f61461954000000000000000000000000000000000000000000000000000000008152905163614619549160048082019260009290919082900301818387803b158015610da957600080fd5b505af1158015610dbd573d6000803e3d6000fd5b50506002805473ffffffffffffffffffffffffffffffffffffffff191690555050805160005b808211156106fe57610e1c838281518110610e0e57634e487b7160e01b600052603260045260246000fd5b60200260200101518561106b565b80610e2681611738565b915050610de3565b60038181548110610e3e57600080fd5b6000918252602090912001546001600160a01b0316905081565b60007f00000000000000000000000000000000000000000000000000000000000000006001600160a01b0316638da5cb5b6040518163ffffffff1660e01b815260040160206040518083038186803b158015610eb357600080fd5b505afa158015610ec7573d6000803e3d6000fd5b505050506040513d601f19601f82011682018060405250810190610eeb91906114e2565b905090565b60007f00000000000000000000000000000000000000000000000000000000000000006001600160a01b031663c34c08e56040518163ffffffff1660e01b8152600401602060405180830381600087803b158015610f4d57600080fd5b505af1158015610ec7573d6000803e3d6000fd5b60008281526005602052604090205460ff16610fc5576000828152600560205260408120805460ff191660019081179091556007805491820181559091527fa66cc928b5edb82af9bd49922954155ab7b0942694bea4ce44661d9a8736c688018290555b6040517f25398f83000000000000000000000000000000000000000000000000000000008152600481018390526001600160a01b0382811660248301527f000000000000000000000000000000000000000000000000000000000000000016906325398f83906044015b600060405180830381600087803b15801561104957600080fd5b505af115801561105d573d6000803e3d6000fd5b505050506105398282610634565b6040517f3238405b000000000000000000000000000000000000000000000000000000008152600481018390526001600160a01b0382811660248301527f00000000000000000000000000000000000000000000000000000000000000001690633238405b9060440161102f565b60008281526004602052604090205460ff1661113d576000828152600460205260408120805460ff191660019081179091556006805491820181559091527ff652222313e28459528d920b65115c16c04f3efc82aaedc97be59f3f377c0d3f018290555b6040517f4d537769000000000000000000000000000000000000000000000000000000008152600481018390526001600160a01b0382811660248301527f00000000000000000000000000000000000000000000000000000000000000001690634d53776990604401600060405180830381600087803b1580156111c057600080fd5b505af11580156111d4573d6000803e3d6000fd5b5050505061053982610367565b60075460005b80821115611316577f00000000000000000000000000000000000000000000000000000000000000006001600160a01b03166393552a3d6007838154811061123f57634e487b7160e01b600052603260045260246000fd5b9060005260206000200154856040518363ffffffff1660e01b815260040161127a9291909182526001600160a01b0316602082015260400190565b60206040518083038186803b15801561129257600080fd5b505afa1580156112a6573d6000803e3d6000fd5b505050506040513d601f19601f820116820180604052508101906112ca919061162f565b1561130457611304600782815481106112f357634e487b7160e01b600052603260045260246000fd5b90600052602060002001548461106b565b8061130e81611738565b9150506111e7565b505060065460005b8082111561042957826001600160a01b03167f00000000000000000000000000000000000000000000000000000000000000006001600160a01b031663b4ed0b6d6006848154811061138057634e487b7160e01b600052603260045260246000fd5b90600052602060002001546040518263ffffffff1660e01b81526004016113a991815260200190565b60206040518083038186803b1580156113c157600080fd5b505afa1580156113d5573d6000803e3d6000fd5b505050506040513d601f19601f820116820180604052508101906113f991906114e2565b6001600160a01b0316141561143e5761143e6006828154811061142c57634e487b7160e01b600052603260045260246000fd5b906000526020600020015460006110d9565b8061144881611738565b91505061131e565b600082601f830112611460578081fd5b8135602061147561147083611714565b6116e3565b80838252828201915082860187848660051b8901011115611494578586fd5b855b858110156114b257813584529284019290840190600101611496565b5090979650505050505050565b6000602082840312156114d0578081fd5b81356114db81611775565b9392505050565b6000602082840312156114f3578081fd5b81516114db81611775565b600080600060608486031215611512578182fd5b833561151d81611775565b9250602084013567ffffffffffffffff80821115611539578384fd5b61154587838801611450565b9350604086013591508082111561155a578283fd5b5061156786828701611450565b9150509250925092565b60008060408385031215611583578182fd5b823561158e81611775565b946020939093013593505050565b600060208083850312156115ae578182fd5b825167ffffffffffffffff8111156115c4578283fd5b8301601f810185136115d4578283fd5b80516115e261147082611714565b80828252848201915084840188868560051b8701011115611601578687fd5b8694505b83851015611623578051835260019490940193918501918501611605565b50979650505050505050565b600060208284031215611640578081fd5b815180151581146114db578182fd5b600060208284031215611660578081fd5b5035919050565b60008060408385031215611679578182fd5b82359150602083013561168b81611775565b809150509250929050565b6020808252825182820181905260009190848201906040850190845b818110156116d75783516001600160a01b0316835292840192918401916001016116b2565b50909695505050505050565b604051601f8201601f1916810167ffffffffffffffff8111828210171561170c5761170c61175f565b604052919050565b600067ffffffffffffffff82111561172e5761172e61175f565b5060051b60200190565b600060001982141561175857634e487b7160e01b81526011600452602481fd5b5060010190565b634e487b7160e01b600052604160045260246000fd5b6001600160a01b0381168114610bde57600080fdfea26469706673582212204302410806350ca3a57ffe013a5e392778b6a3d22c0d12cb6d56ff5e545f32a664736f6c63430008030033",
  "linkReferences": {},
  "deployedLinkReferences": {}
}