{
  "_format": "hh-sol-artifact-1",
  "contractName": "DependencyController",
  "sourceName": "contracts/DependencyController.sol",
  "abi": [
    {
      "inputs": [
        {
          "internalType": "address",
          "name": "_roles",
          "type": "address"
        }
      ],
      "stateMutability": "nonpayable",
      "type": "constructor"
    },
    {
      "anonymous": false,
      "inputs": [
        {
          "indexed": true,
          "internalType": "address",
          "name": "previousOwner",
          "type": "address"
        },
        {
          "indexed": true,
          "internalType": "address",
          "name": "newOwner",
          "type": "address"
        }
      ],
      "name": "OwnershipTransferred",
      "type": "event"
    },
    {
      "inputs": [],
      "name": "ADMIN",
      "outputs": [
        {
          "internalType": "uint16",
          "name": "",
          "type": "uint16"
        }
      ],
      "stateMutability": "view",
      "type": "function"
    },
    {
      "inputs": [],
      "name": "AUTHORIZED_FUND_TRADER",
      "outputs": [
        {
          "internalType": "uint16",
          "name": "",
          "type": "uint16"
        }
      ],
      "stateMutability": "view",
      "type": "function"
    },
    {
      "inputs": [],
      "name": "BORROWER",
      "outputs": [
        {
          "internalType": "uint16",
          "name": "",
          "type": "uint16"
        }
      ],
      "stateMutability": "view",
      "type": "function"
    },
    {
      "inputs": [],
      "name": "FEE_CONTROLLER",
      "outputs": [
        {
          "internalType": "uint16",
          "name": "",
          "type": "uint16"
        }
      ],
      "stateMutability": "view",
      "type": "function"
    },
    {
      "inputs": [],
      "name": "FEE_SOURCE",
      "outputs": [
        {
          "internalType": "uint16",
          "name": "",
          "type": "uint16"
        }
      ],
      "stateMutability": "view",
      "type": "function"
    },
    {
      "inputs": [],
      "name": "FUND",
      "outputs": [
        {
          "internalType": "uint16",
          "name": "",
          "type": "uint16"
        }
      ],
      "stateMutability": "view",
      "type": "function"
    },
    {
      "inputs": [],
      "name": "INCENTIVE_DISTRIBUTION",
      "outputs": [
        {
          "internalType": "uint16",
          "name": "",
          "type": "uint16"
        }
      ],
      "stateMutability": "view",
      "type": "function"
    },
    {
      "inputs": [],
      "name": "INCENTIVE_REPORTER",
      "outputs": [
        {
          "internalType": "uint16",
          "name": "",
          "type": "uint16"
        }
      ],
      "stateMutability": "view",
      "type": "function"
    },
    {
      "inputs": [],
      "name": "LENDING",
      "outputs": [
        {
          "internalType": "uint16",
          "name": "",
          "type": "uint16"
        }
      ],
      "stateMutability": "view",
      "type": "function"
    },
    {
      "inputs": [],
      "name": "LIQUIDATOR",
      "outputs": [
        {
          "internalType": "uint16",
          "name": "",
          "type": "uint16"
        }
      ],
      "stateMutability": "view",
      "type": "function"
    },
    {
      "inputs": [],
      "name": "MARGIN_CALLER",
      "outputs": [
        {
          "internalType": "uint16",
          "name": "",
          "type": "uint16"
        }
      ],
      "stateMutability": "view",
      "type": "function"
    },
    {
      "inputs": [],
      "name": "MARGIN_TRADER",
      "outputs": [
        {
          "internalType": "uint16",
          "name": "",
          "type": "uint16"
        }
      ],
      "stateMutability": "view",
      "type": "function"
    },
    {
      "inputs": [],
      "name": "MARGIN_TRADING",
      "outputs": [
        {
          "internalType": "uint16",
          "name": "",
          "type": "uint16"
        }
      ],
      "stateMutability": "view",
      "type": "function"
    },
    {
      "inputs": [],
      "name": "PRICE_CONTROLLER",
      "outputs": [
        {
          "internalType": "uint16",
          "name": "",
          "type": "uint16"
        }
      ],
      "stateMutability": "view",
      "type": "function"
    },
    {
      "inputs": [],
      "name": "ROUTER",
      "outputs": [
        {
          "internalType": "uint16",
          "name": "",
          "type": "uint16"
        }
      ],
      "stateMutability": "view",
      "type": "function"
    },
    {
      "inputs": [],
      "name": "STAKE_PENALIZER",
      "outputs": [
        {
          "internalType": "uint16",
          "name": "",
          "type": "uint16"
        }
      ],
      "stateMutability": "view",
      "type": "function"
    },
    {
      "inputs": [],
      "name": "TOKEN_ACTIVATOR",
      "outputs": [
        {
          "internalType": "uint16",
          "name": "",
          "type": "uint16"
        }
      ],
      "stateMutability": "view",
      "type": "function"
    },
    {
      "inputs": [],
      "name": "TOKEN_ADMIN",
      "outputs": [
        {
          "internalType": "uint16",
          "name": "",
          "type": "uint16"
        }
      ],
      "stateMutability": "view",
      "type": "function"
    },
    {
      "inputs": [],
      "name": "WITHDRAWER",
      "outputs": [
        {
          "internalType": "uint16",
          "name": "",
          "type": "uint16"
        }
      ],
      "stateMutability": "view",
      "type": "function"
    },
    {
      "inputs": [
        {
          "internalType": "uint256",
          "name": "",
          "type": "uint256"
        }
      ],
      "name": "allCharacters",
      "outputs": [
        {
          "internalType": "uint16",
          "name": "",
          "type": "uint16"
        }
      ],
      "stateMutability": "view",
      "type": "function"
    },
    {
      "inputs": [],
      "name": "allManagedContracts",
      "outputs": [
        {
          "internalType": "address[]",
          "name": "",
          "type": "address[]"
        }
      ],
      "stateMutability": "view",
      "type": "function"
    },
    {
      "inputs": [
        {
          "internalType": "uint256",
          "name": "",
          "type": "uint256"
        }
      ],
      "name": "allRoles",
      "outputs": [
        {
          "internalType": "uint16",
          "name": "",
          "type": "uint16"
        }
      ],
      "stateMutability": "view",
      "type": "function"
    },
    {
      "inputs": [],
      "name": "currentExecutor",
      "outputs": [
        {
          "internalType": "address",
          "name": "",
          "type": "address"
        }
      ],
      "stateMutability": "view",
      "type": "function"
    },
    {
      "inputs": [
        {
          "internalType": "address",
          "name": "",
          "type": "address"
        }
      ],
      "name": "delegateOwner",
      "outputs": [
        {
          "internalType": "address",
          "name": "",
          "type": "address"
        }
      ],
      "stateMutability": "view",
      "type": "function"
    },
    {
      "inputs": [
        {
          "internalType": "address",
          "name": "contr",
          "type": "address"
        }
      ],
      "name": "disableContract",
      "outputs": [],
      "stateMutability": "nonpayable",
      "type": "function"
    },
    {
      "inputs": [
        {
          "internalType": "address",
          "name": "",
          "type": "address"
        }
      ],
      "name": "disabler",
      "outputs": [
        {
          "internalType": "bool",
          "name": "",
          "type": "bool"
        }
      ],
      "stateMutability": "view",
      "type": "function"
    },
    {
      "inputs": [
        {
          "internalType": "address",
          "name": "executor",
          "type": "address"
        }
      ],
      "name": "executeAsOwner",
      "outputs": [],
      "stateMutability": "nonpayable",
      "type": "function"
    },
    {
      "inputs": [
        {
          "internalType": "uint16",
          "name": "role",
          "type": "uint16"
        },
        {
          "internalType": "address",
          "name": "actor",
          "type": "address"
        }
      ],
      "name": "giveRole",
      "outputs": [],
      "stateMutability": "nonpayable",
      "type": "function"
    },
    {
      "inputs": [
        {
          "internalType": "uint16",
          "name": "",
          "type": "uint16"
        }
      ],
      "name": "knownCharacters",
      "outputs": [
        {
          "internalType": "bool",
          "name": "",
          "type": "bool"
        }
      ],
      "stateMutability": "view",
      "type": "function"
    },
    {
      "inputs": [
        {
          "internalType": "uint16",
          "name": "",
          "type": "uint16"
        }
      ],
      "name": "knownRoles",
      "outputs": [
        {
          "internalType": "bool",
          "name": "",
          "type": "bool"
        }
      ],
      "stateMutability": "view",
      "type": "function"
    },
    {
      "inputs": [
        {
          "internalType": "uint16",
          "name": "",
          "type": "uint16"
        }
      ],
      "name": "mainCharacterCache",
      "outputs": [
        {
          "internalType": "address",
          "name": "",
          "type": "address"
        }
      ],
      "stateMutability": "view",
      "type": "function"
    },
    {
      "inputs": [
        {
          "internalType": "address",
          "name": "contr",
          "type": "address"
        },
        {
          "internalType": "uint16[]",
          "name": "charactersPlayed",
          "type": "uint16[]"
        },
        {
          "internalType": "uint16[]",
          "name": "rolesPlayed",
          "type": "uint16[]"
        },
        {
          "internalType": "address[]",
          "name": "ownsAsDelegate",
          "type": "address[]"
        }
      ],
      "name": "manageContract",
      "outputs": [],
      "stateMutability": "nonpayable",
      "type": "function"
    },
    {
      "inputs": [
        {
          "internalType": "uint256",
          "name": "",
          "type": "uint256"
        }
      ],
      "name": "managedContracts",
      "outputs": [
        {
          "internalType": "address",
          "name": "",
          "type": "address"
        }
      ],
      "stateMutability": "view",
      "type": "function"
    },
    {
      "inputs": [],
      "name": "owner",
      "outputs": [
        {
          "internalType": "address",
          "name": "",
          "type": "address"
        }
      ],
      "stateMutability": "view",
      "type": "function"
    },
    {
      "inputs": [
        {
          "internalType": "address",
          "name": "contr",
          "type": "address"
        }
      ],
      "name": "ownsContract",
      "outputs": [
        {
          "internalType": "bool",
          "name": "",
          "type": "bool"
        }
      ],
      "stateMutability": "view",
      "type": "function"
    },
    {
      "inputs": [
        {
          "internalType": "address",
          "name": "contr",
          "type": "address"
        }
      ],
      "name": "ownsContractStrict",
      "outputs": [
        {
          "internalType": "bool",
          "name": "",
          "type": "bool"
        }
      ],
      "stateMutability": "view",
      "type": "function"
    },
    {
      "inputs": [
        {
          "internalType": "address",
          "name": "ownableContract",
          "type": "address"
        },
        {
          "internalType": "address",
          "name": "newOwner",
          "type": "address"
        }
      ],
      "name": "relinquishOwnership",
      "outputs": [],
      "stateMutability": "nonpayable",
      "type": "function"
    },
    {
      "inputs": [
        {
          "internalType": "uint16",
          "name": "role",
          "type": "uint16"
        },
        {
          "internalType": "address",
          "name": "actor",
          "type": "address"
        }
      ],
      "name": "removeRole",
      "outputs": [],
      "stateMutability": "nonpayable",
      "type": "function"
    },
    {
      "inputs": [],
      "name": "renounceOwnership",
      "outputs": [],
      "stateMutability": "nonpayable",
      "type": "function"
    },
    {
      "inputs": [
        {
          "internalType": "address",
          "name": "",
          "type": "address"
        },
        {
          "internalType": "uint16",
          "name": "",
          "type": "uint16"
        }
      ],
      "name": "roleCache",
      "outputs": [
        {
          "internalType": "bool",
          "name": "",
          "type": "bool"
        }
      ],
      "stateMutability": "view",
      "type": "function"
    },
    {
      "inputs": [],
      "name": "roles",
      "outputs": [
        {
          "internalType": "contract Roles",
          "name": "",
          "type": "address"
        }
      ],
      "stateMutability": "view",
      "type": "function"
    },
    {
      "inputs": [
        {
          "internalType": "address",
          "name": "disablerAddress",
          "type": "address"
        },
        {
          "internalType": "bool",
          "name": "authorized",
          "type": "bool"
        }
      ],
      "name": "setDisabler",
      "outputs": [],
      "stateMutability": "nonpayable",
      "type": "function"
    },
    {
      "inputs": [
        {
          "internalType": "uint16",
          "name": "role",
          "type": "uint16"
        },
        {
          "internalType": "address",
          "name": "actor",
          "type": "address"
        }
      ],
      "name": "setMainCharacter",
      "outputs": [],
      "stateMutability": "nonpayable",
      "type": "function"
    },
    {
      "inputs": [
        {
          "internalType": "address",
          "name": "newOwner",
          "type": "address"
        }
      ],
      "name": "transferOwnership",
      "outputs": [],
      "stateMutability": "nonpayable",
      "type": "function"
    },
    {
      "inputs": [
        {
          "internalType": "uint16",
          "name": "character",
          "type": "uint16"
        }
      ],
      "name": "updateMainCharacterCache",
      "outputs": [],
      "stateMutability": "nonpayable",
      "type": "function"
    },
    {
      "inputs": [
        {
          "internalType": "uint16",
          "name": "role",
          "type": "uint16"
        },
        {
          "internalType": "address",
          "name": "contr",
          "type": "address"
        }
      ],
      "name": "updateRoleCache",
      "outputs": [],
      "stateMutability": "nonpayable",
      "type": "function"
    },
    {
      "inputs": [],
      "name": "verifyOwnership",
      "outputs": [
        {
          "internalType": "bool",
          "name": "ownsAll",
          "type": "bool"
        }
      ],
      "stateMutability": "view",
      "type": "function"
    },
    {
      "inputs": [],
      "name": "verifyOwnershipStrict",
      "outputs": [
        {
          "internalType": "bool",
          "name": "ownsAll",
          "type": "bool"
        }
      ],
      "stateMutability": "view",
      "type": "function"
    }
  ],
  "bytecode": "0x6080604052600980546001600160a01b03191690553480156200002157600080fd5b506040516200332f3803806200332f8339810160408190526200004491620000c2565b600080546001600160a01b0319166001600160a01b03831617815562000069620000be565b600380546001600160a01b0319166001600160a01b038316908117909155604051919250906000907f8be0079c531659141344cd1fd0a4f28419497f9722a3daafe3b4186f6b6457e0908290a35050620000f2565b3390565b600060208284031215620000d4578081fd5b81516001600160a01b0381168114620000eb578182fd5b9392505050565b61322d80620001026000396000f3fe608060405234801561001057600080fd5b50600436106103205760003560e01c8063840c53bd116101a7578063b6aa083e116100ee578063d1efebfe11610097578063f1ce598e11610071578063f1ce598e1461059d578063f2fde38b146105b0578063fae371de146105c357610320565b8063d1efebfe1461057a578063d2e2372914610582578063d5d7ed7f1461059557610320565b8063c34316c3116100c8578063c34316c314610557578063c76139d01461056a578063cacf8d451461057257610320565b8063b6aa083e1461051e578063bb3a17c314610531578063bc2ed1891461054457610320565b8063a154ce8211610150578063a94c7c341161012a578063a94c7c34146104fb578063a9cc053614610503578063b44816521461050b57610320565b8063a154ce82146104c2578063a1fdc458146104d5578063a63fc163146104e857610320565b806392a427041161018157806392a427041461049f5780639b44225b146104a7578063a0098d69146104ba57610320565b8063840c53bd1461047157806385f84ea3146104845780638da5cb5b1461049757610320565b8063430ae4691161026b5780636a0e76c811610214578063715018a6116101ee578063715018a61461045957806381ca66001461046157806383a49c7c1461046957610320565b80636a0e76c81461042b5780636b60a09b1461043e5780636cd5cd601461044657610320565b80635bc92d74116102455780635bc92d74146104085780635c275a391461041b578063669419841461042357610320565b8063430ae469146103e557806346b88796146103f857806348fb27b81461040057610320565b80631bc5d81d116102cd5780632fe94def116102a75780632fe94def146103c057806332fe7b26146103c8578063392f5f64146103d057610320565b80631bc5d81d1461039d57806320e8d819146103a55780632a0acc6a146103b857610320565b80631135bb7b116102fe5780631135bb7b1461036d57806317b7b61b146103825780631b6695071461039557610320565b8063065d570f146103255780630ba46289146103435780631023d3e014610358575b600080fd5b61032d6105d6565b60405161033a919061307e565b60405180910390f35b61034b6105db565b60405161033a9190612e6d565b610360610698565b60405161033a9190612e13565b61038061037b366004612ab1565b610707565b005b61032d610390366004612db3565b610838565b61032d610870565b61032d610875565b6103806103b3366004612d96565b61087a565b61032d61096c565b61032d610971565b61032d610976565b6103d861097b565b60405161033a9190612dcb565b6103d86103f3366004612a79565b610997565b61032d6109bf565b61032d6109c4565b610380610416366004612ae9565b6109c9565b61032d610faf565b61032d610fb4565b61034b610439366004612a79565b610fb9565b6103d8611161565b610380610454366004612d7a565b61117d565b61038061126c565b61032d61134e565b61032d611353565b61032d61047f366004612db3565b611358565b61034b610492366004612a79565b611368565b6103d861147b565b61034b611497565b6103806104b5366004612d96565b611550565b61032d611637565b6103806104d0366004612a79565b61163c565b6103806104e3366004612a79565b611725565b6103806104f6366004612bde565b611fa9565b61032d61209f565b61032d6120a4565b6103d8610519366004612d7a565b6120a9565b61038061052c366004612d96565b6120d1565b61034b61053f366004612d7a565b61217b565b61034b610552366004612d7a565b612190565b61034b610565366004612c0b565b6121a5565b61032d6121c5565b61032d6121ca565b61032d6121cf565b61034b610590366004612a79565b6121d4565b61032d6121e9565b6103d86105ab366004612db3565b6121ee565b6103806105be366004612a79565b612225565b6103806105d1366004612d96565b612373565b600381565b600080546105fe9073ffffffffffffffffffffffffffffffffffffffff16610fb9565b905060005b60045481101561069457600060048281548110610649577f4e487b7100000000000000000000000000000000000000000000000000000000600052603260045260246000fd5b60009182526020909120015473ffffffffffffffffffffffffffffffffffffffff16905082801561067e575061067e81610fb9565b925050808061068c9061312a565b915050610603565b5090565b606060048054806020026020016040519081016040528092919081815260200182805480156106fd57602002820191906000526020600020905b815473ffffffffffffffffffffffffffffffffffffffff1681526001909101906020018083116106d2575b5050505050905090565b61070f61241d565b73ffffffffffffffffffffffffffffffffffffffff1661072d61147b565b73ffffffffffffffffffffffffffffffffffffffff161480610771575061075261241d565b60095473ffffffffffffffffffffffffffffffffffffffff9081169116145b6107b0576040517f08c379a00000000000000000000000000000000000000000000000000000000081526004016107a790612f32565b60405180910390fd5b6040517ff2fde38b00000000000000000000000000000000000000000000000000000000815273ffffffffffffffffffffffffffffffffffffffff83169063f2fde38b90610802908490600401612dcb565b600060405180830381600087803b15801561081c57600080fd5b505af1158015610830573d6000803e3d6000fd5b505050505050565b600a818154811061084857600080fd5b9060005260206000209060109182820401919006600202915054906101000a900461ffff1681565b600a81565b600881565b60005b60045481101561096757600481815481106108c1577f4e487b7100000000000000000000000000000000000000000000000000000000600052603260045260246000fd5b6000918252602090912001546040517f20e8d81900000000000000000000000000000000000000000000000000000000815273ffffffffffffffffffffffffffffffffffffffff909116906320e8d81990610922908690869060040161308d565b600060405180830381600087803b15801561093c57600080fd5b505af1158015610950573d6000803e3d6000fd5b50505050808061095f9061312a565b91505061087d565b505050565b606b81565b606981565b606781565b60005473ffffffffffffffffffffffffffffffffffffffff1681565b60076020526000908152604090205473ffffffffffffffffffffffffffffffffffffffff1681565b600681565b606681565b6109d161241d565b73ffffffffffffffffffffffffffffffffffffffff166109ef61147b565b73ffffffffffffffffffffffffffffffffffffffff161480610a335750610a1461241d565b60095473ffffffffffffffffffffffffffffffffffffffff9081169116145b610a69576040517f08c379a00000000000000000000000000000000000000000000000000000000081526004016107a790612f32565b6004805460018101825560009182527f8a35acfbc15ff81a39ae7d344fd709f28e8600b4aa8c65c6b64bfe7fe36bd19b0180547fffffffffffffffffffffffff00000000000000000000000000000000000000001673ffffffffffffffffffffffffffffffffffffffff87161790555b8084511115610b44576000848281518110610b1d577f4e487b7100000000000000000000000000000000000000000000000000000000600052603260045260246000fd5b60200260200101519050610b318187612421565b5080610b3c8161312a565b915050610ad9565b5060005b8083511115610bb3576000838281518110610b8c577f4e487b7100000000000000000000000000000000000000000000000000000000600052603260045260246000fd5b60200260200101519050610ba0818761255f565b5080610bab8161312a565b915050610b48565b5060005b600a54811015610c9c578473ffffffffffffffffffffffffffffffffffffffff16636cd5cd60600a8381548110610c17577f4e487b7100000000000000000000000000000000000000000000000000000000600052603260045260246000fd5b90600052602060002090601091828204019190066002029054906101000a900461ffff166040518263ffffffff1660e01b8152600401610c57919061307e565b600060405180830381600087803b158015610c7157600080fd5b505af1158015610c85573d6000803e3d6000fd5b505050508080610c949061312a565b915050610bb7565b5060005b600b54811015610e1f5760005b600454811015610e0c578573ffffffffffffffffffffffffffffffffffffffff166320e8d819600b8481548110610d0d577f4e487b7100000000000000000000000000000000000000000000000000000000600052603260045260246000fd5b90600052602060002090601091828204019190066002029054906101000a900461ffff1660048481548110610d6b577f4e487b7100000000000000000000000000000000000000000000000000000000600052603260045260246000fd5b6000918252602090912001546040517fffffffff0000000000000000000000000000000000000000000000000000000060e085901b168152610dc7929173ffffffffffffffffffffffffffffffffffffffff169060040161308d565b600060405180830381600087803b158015610de157600080fd5b505af1158015610df5573d6000803e3d6000fd5b505050508080610e049061312a565b915050610cad565b5080610e178161312a565b915050610ca0565b5060005b8082511115610fa857818181518110610e65577f4e487b7100000000000000000000000000000000000000000000000000000000600052603260045260246000fd5b602002602001015173ffffffffffffffffffffffffffffffffffffffff1663f2fde38b866040518263ffffffff1660e01b8152600401610ea59190612dcb565b600060405180830381600087803b158015610ebf57600080fd5b505af1158015610ed3573d6000803e3d6000fd5b505050508460076000848481518110610f15577f4e487b7100000000000000000000000000000000000000000000000000000000600052603260045260246000fd5b602002602001015173ffffffffffffffffffffffffffffffffffffffff1673ffffffffffffffffffffffffffffffffffffffff16815260200190815260200160002060006101000a81548173ffffffffffffffffffffffffffffffffffffffff021916908373ffffffffffffffffffffffffffffffffffffffff1602179055508080610fa09061312a565b915050610e23565b5050505050565b606581565b600181565b6000808273ffffffffffffffffffffffffffffffffffffffff16638da5cb5b6040518163ffffffff1660e01b815260040160206040518083038186803b15801561100257600080fd5b505afa158015611016573d6000803e3d6000fd5b505050506040513d601f19601f8201168201806040525081019061103a9190612a95565b905073ffffffffffffffffffffffffffffffffffffffff811630148061115a575073ffffffffffffffffffffffffffffffffffffffff808416600090815260076020526040902054828216911614801561115a575073ffffffffffffffffffffffffffffffffffffffff8381166000908152600760209081526040918290205482517f8da5cb5b000000000000000000000000000000000000000000000000000000008152925130949190911692638da5cb5b926004808301939192829003018186803b15801561110a57600080fd5b505afa15801561111e573d6000803e3d6000fd5b505050506040513d601f19601f820116820180604052508101906111429190612a95565b73ffffffffffffffffffffffffffffffffffffffff16145b9392505050565b60095473ffffffffffffffffffffffffffffffffffffffff1681565b60005b60045481101561126857600481815481106111c4577f4e487b7100000000000000000000000000000000000000000000000000000000600052603260045260246000fd5b6000918252602090912001546040517f6cd5cd6000000000000000000000000000000000000000000000000000000000815273ffffffffffffffffffffffffffffffffffffffff90911690636cd5cd609061122390859060040161307e565b600060405180830381600087803b15801561123d57600080fd5b505af1158015611251573d6000803e3d6000fd5b5050505080806112609061312a565b915050611180565b5050565b61127461241d565b73ffffffffffffffffffffffffffffffffffffffff1661129261147b565b73ffffffffffffffffffffffffffffffffffffffff16146112df576040517f08c379a00000000000000000000000000000000000000000000000000000000081526004016107a790612fec565b60035460405160009173ffffffffffffffffffffffffffffffffffffffff16907f8be0079c531659141344cd1fd0a4f28419497f9722a3daafe3b4186f6b6457e0908390a3600380547fffffffffffffffffffffffff0000000000000000000000000000000000000000169055565b606a81565b600981565b600b818154811061084857600080fd5b6000808273ffffffffffffffffffffffffffffffffffffffff16638da5cb5b6040518163ffffffff1660e01b815260040160206040518083038186803b1580156113b157600080fd5b505afa1580156113c5573d6000803e3d6000fd5b505050506040513d601f19601f820116820180604052508101906113e99190612a95565b905073ffffffffffffffffffffffffffffffffffffffff8116301480611441575061141261147b565b73ffffffffffffffffffffffffffffffffffffffff168173ffffffffffffffffffffffffffffffffffffffff16145b8061115a575073ffffffffffffffffffffffffffffffffffffffff9283166000908152600760205260409020548316921691909114919050565b60035473ffffffffffffffffffffffffffffffffffffffff1690565b600080546114ba9073ffffffffffffffffffffffffffffffffffffffff16610fb9565b905060005b60045481101561069457600060048281548110611505577f4e487b7100000000000000000000000000000000000000000000000000000000600052603260045260246000fd5b60009182526020909120015473ffffffffffffffffffffffffffffffffffffffff16905082801561153a575061153a81611368565b92505080806115489061312a565b9150506114bf565b61155861241d565b73ffffffffffffffffffffffffffffffffffffffff1661157661147b565b73ffffffffffffffffffffffffffffffffffffffff1614806115ca57506008600061159f61241d565b73ffffffffffffffffffffffffffffffffffffffff16815260208101919091526040016000205460ff165b806115f757506115d861241d565b60095473ffffffffffffffffffffffffffffffffffffffff9081169116145b61162d576040517f08c379a00000000000000000000000000000000000000000000000000000000081526004016107a790612f8f565b611268828261269e565b600281565b61164461241d565b73ffffffffffffffffffffffffffffffffffffffff1661166261147b565b73ffffffffffffffffffffffffffffffffffffffff1614806116b657506008600061168b61241d565b73ffffffffffffffffffffffffffffffffffffffff16815260208101919091526040016000205460ff165b806116e357506116c461241d565b60095473ffffffffffffffffffffffffffffffffffffffff9081169116145b611719576040517f08c379a00000000000000000000000000000000000000000000000000000000081526004016107a790612f8f565b611722816126f6565b50565b61172d61241d565b73ffffffffffffffffffffffffffffffffffffffff1661174b61147b565b73ffffffffffffffffffffffffffffffffffffffff16148061178f575061177061241d565b60095473ffffffffffffffffffffffffffffffffffffffff9081169116145b6117c5576040517f08c379a00000000000000000000000000000000000000000000000000000000081526004016107a790612f32565b60008173ffffffffffffffffffffffffffffffffffffffff166316a45ab76040518163ffffffff1660e01b815260040160006040518083038186803b15801561180d57600080fd5b505afa158015611821573d6000803e3d6000fd5b505050506040513d6000823e601f3d9081017fffffffffffffffffffffffffffffffffffffffffffffffffffffffffffffffe01682016040526118679190810190612c38565b905060005b8082511115611a235760008282815181106118b0577f4e487b7100000000000000000000000000000000000000000000000000000000600052603260045260246000fd5b60209081029190910181015173ffffffffffffffffffffffffffffffffffffffff80821660009081526007909352604090922054909250161561198b5773ffffffffffffffffffffffffffffffffffffffff808216600090815260076020526040908190205490517f1135bb7b000000000000000000000000000000000000000000000000000000008152911690631135bb7b906119549084908890600401612dec565b600060405180830381600087803b15801561196e57600080fd5b505af1158015611982573d6000803e3d6000fd5b50505050611a10565b6040517ff2fde38b00000000000000000000000000000000000000000000000000000000815273ffffffffffffffffffffffffffffffffffffffff82169063f2fde38b906119dd908790600401612dcb565b600060405180830381600087803b1580156119f757600080fd5b505af1158015611a0b573d6000803e3d6000fd5b505050505b5080611a1b8161312a565b91505061186c565b5060008273ffffffffffffffffffffffffffffffffffffffff1663cd28fc8f6040518163ffffffff1660e01b815260040160006040518083038186803b158015611a6c57600080fd5b505afa158015611a80573d6000803e3d6000fd5b505050506040513d6000823e601f3d9081017fffffffffffffffffffffffffffffffffffffffffffffffffffffffffffffffe0168201604052611ac69190810190612cd1565b905060005b8082511115611b3057611b1e828281518110611b10577f4e487b7100000000000000000000000000000000000000000000000000000000600052603260045260246000fd5b60200260200101518561255f565b80611b288161312a565b915050611acb565b50600980547fffffffffffffffffffffffff00000000000000000000000000000000000000001673ffffffffffffffffffffffffffffffffffffffff8516908117909155604080517f61461954000000000000000000000000000000000000000000000000000000008152905163614619549160048082019260009290919082900301818387803b158015611bc457600080fd5b505af1158015611bd8573d6000803e3d6000fd5b5050600980547fffffffffffffffffffffffff00000000000000000000000000000000000000001690555050604080517f4865cbc2000000000000000000000000000000000000000000000000000000008152905160009173ffffffffffffffffffffffffffffffffffffffff861691634865cbc291600480820192602092909190829003018186803b158015611c6e57600080fd5b505afa158015611c82573d6000803e3d6000fd5b505050506040513d601f19601f82011682018060405250810190611ca69190612a95565b905073ffffffffffffffffffffffffffffffffffffffff8116301480611cfe5750611ccf61147b565b73ffffffffffffffffffffffffffffffffffffffff168173ffffffffffffffffffffffffffffffffffffffff16145b611d34576040517f08c379a00000000000000000000000000000000000000000000000000000000081526004016107a790613021565b60005b8084511115611f40576000848281518110611d7b577f4e487b7100000000000000000000000000000000000000000000000000000000600052603260045260246000fd5b602002602001015190508273ffffffffffffffffffffffffffffffffffffffff168173ffffffffffffffffffffffffffffffffffffffff16638da5cb5b6040518163ffffffff1660e01b815260040160206040518083038186803b158015611de257600080fd5b505afa158015611df6573d6000803e3d6000fd5b505050506040513d601f19601f82011682018060405250810190611e1a9190612a95565b73ffffffffffffffffffffffffffffffffffffffff1614611e67576040517f08c379a00000000000000000000000000000000000000000000000000000000081526004016107a790612e78565b73ffffffffffffffffffffffffffffffffffffffff8181166000908152600760205260409020541615611f2d5773ffffffffffffffffffffffffffffffffffffffff808216600081815260076020526040908190205490517ff2fde38b000000000000000000000000000000000000000000000000000000008152919263f2fde38b92611efa9290911690600401612dcb565b600060405180830381600087803b158015611f1457600080fd5b505af1158015611f28573d6000803e3d6000fd5b505050505b5080611f388161312a565b915050611d37565b5060005b8083511115610fa857611f97838281518110611f89577f4e487b7100000000000000000000000000000000000000000000000000000000600052603260045260246000fd5b60200260200101518661269e565b80611fa18161312a565b915050611f44565b611fb161241d565b73ffffffffffffffffffffffffffffffffffffffff16611fcf61147b565b73ffffffffffffffffffffffffffffffffffffffff1614806120135750611ff461241d565b60095473ffffffffffffffffffffffffffffffffffffffff9081169116145b612049576040517f08c379a00000000000000000000000000000000000000000000000000000000081526004016107a790612f32565b73ffffffffffffffffffffffffffffffffffffffff91909116600090815260086020526040902080547fffffffffffffffffffffffffffffffffffffffffffffffffffffffffffffff0016911515919091179055565b600581565b606881565b60016020526000908152604090205473ffffffffffffffffffffffffffffffffffffffff1681565b6120d961241d565b73ffffffffffffffffffffffffffffffffffffffff166120f761147b565b73ffffffffffffffffffffffffffffffffffffffff16148061213b575061211c61241d565b60095473ffffffffffffffffffffffffffffffffffffffff9081169116145b612171576040517f08c379a00000000000000000000000000000000000000000000000000000000081526004016107a790612f32565b611268828261255f565b60066020526000908152604090205460ff1681565b60056020526000908152604090205460ff1681565b600260209081526000928352604080842090915290825290205460ff1681565b606c81565b600481565b606d81565b60086020526000908152604090205460ff1681565b600781565b600481815481106121fe57600080fd5b60009182526020909120015473ffffffffffffffffffffffffffffffffffffffff16905081565b61222d61241d565b73ffffffffffffffffffffffffffffffffffffffff1661224b61147b565b73ffffffffffffffffffffffffffffffffffffffff1614612298576040517f08c379a00000000000000000000000000000000000000000000000000000000081526004016107a790612fec565b73ffffffffffffffffffffffffffffffffffffffff81166122e5576040517f08c379a00000000000000000000000000000000000000000000000000000000081526004016107a790612ed5565b60035460405173ffffffffffffffffffffffffffffffffffffffff8084169216907f8be0079c531659141344cd1fd0a4f28419497f9722a3daafe3b4186f6b6457e090600090a3600380547fffffffffffffffffffffffff00000000000000000000000000000000000000001673ffffffffffffffffffffffffffffffffffffffff92909216919091179055565b61237b61241d565b73ffffffffffffffffffffffffffffffffffffffff1661239961147b565b73ffffffffffffffffffffffffffffffffffffffff1614806123dd57506123be61241d565b60095473ffffffffffffffffffffffffffffffffffffffff9081169116145b612413576040517f08c379a00000000000000000000000000000000000000000000000000000000081526004016107a790612f32565b6112688282612421565b3390565b61ffff821660009081526005602052604090205460ff166124cc5761ffff808316600081815260056020526040812080547fffffffffffffffffffffffffffffffffffffffffffffffffffffffffffffff00166001908117909155600a80549182018155909152601081047fc65a7bb8d6351c1cf70c95a316cc6a92839c986682d98bc35f958f4883f9d2a80180546002600f909316929092026101000a9283029290930219161790555b6000546040517ffae371de00000000000000000000000000000000000000000000000000000000815273ffffffffffffffffffffffffffffffffffffffff9091169063fae371de90612524908590859060040161308d565b600060405180830381600087803b15801561253e57600080fd5b505af1158015612552573d6000803e3d6000fd5b505050506112688261117d565b61ffff821660009081526006602052604090205460ff1661260a5761ffff808316600081815260066020526040812080547fffffffffffffffffffffffffffffffffffffffffffffffffffffffffffffff00166001908117909155600b80549182018155909152601081047f0175b7a638427703f0dbe7bb9bbf987a2551717b34e79f33b5b1008d1fa01db90180546002600f909316929092026101000a9283029290930219161790555b6000546040517fb6aa083e00000000000000000000000000000000000000000000000000000000815273ffffffffffffffffffffffffffffffffffffffff9091169063b6aa083e90612662908590859060040161308d565b600060405180830381600087803b15801561267c57600080fd5b505af1158015612690573d6000803e3d6000fd5b50505050611268828261087a565b6000546040517f9b44225b00000000000000000000000000000000000000000000000000000000815273ffffffffffffffffffffffffffffffffffffffff90911690639b44225b90612662908590859060040161308d565b60005b600b5481101561287157600054600b805473ffffffffffffffffffffffffffffffffffffffff9092169163d87fefd2919084908110612761577f4e487b7100000000000000000000000000000000000000000000000000000000600052603260045260246000fd5b90600052602060002090601091828204019190066002029054906101000a900461ffff16846040518363ffffffff1660e01b81526004016127a392919061308d565b60206040518083038186803b1580156127bb57600080fd5b505afa1580156127cf573d6000803e3d6000fd5b505050506040513d601f19601f820116820180604052508101906127f39190612d5e565b1561285f5761285f600b8281548110612835577f4e487b7100000000000000000000000000000000000000000000000000000000600052603260045260246000fd5b90600052602060002090601091828204019190066002029054906101000a900461ffff168361269e565b806128698161312a565b9150506126f9565b5060005b600a5481101561126857600054600a805473ffffffffffffffffffffffffffffffffffffffff808616931691633c9c8f9c91859081106128de577f4e487b7100000000000000000000000000000000000000000000000000000000600052603260045260246000fd5b90600052602060002090601091828204019190066002029054906101000a900461ffff166040518263ffffffff1660e01b815260040161291e919061307e565b60206040518083038186803b15801561293657600080fd5b505afa15801561294a573d6000803e3d6000fd5b505050506040513d601f19601f8201168201806040525081019061296e9190612a95565b73ffffffffffffffffffffffffffffffffffffffff1614156129f2576129f2600a82815481106129c7577f4e487b7100000000000000000000000000000000000000000000000000000000600052603260045260246000fd5b90600052602060002090601091828204019190066002029054906101000a900461ffff166000612421565b806129fc8161312a565b915050612875565b600082601f830112612a14578081fd5b81356020612a29612a2483613106565b6130b7565b8281528181019085830183850287018401881015612a45578586fd5b855b85811015612a6c578135612a5a816131e7565b84529284019290840190600101612a47565b5090979650505050505050565b600060208284031215612a8a578081fd5b813561115a816131b7565b600060208284031215612aa6578081fd5b815161115a816131b7565b60008060408385031215612ac3578081fd5b8235612ace816131b7565b91506020830135612ade816131b7565b809150509250929050565b60008060008060808587031215612afe578182fd5b8435612b09816131b7565b935060208581013567ffffffffffffffff80821115612b26578485fd5b612b3289838a01612a04565b95506040880135915080821115612b47578485fd5b612b5389838a01612a04565b94506060880135915080821115612b68578384fd5b508601601f81018813612b79578283fd5b8035612b87612a2482613106565b81815283810190838501858402850186018c1015612ba3578687fd5b8694505b83851015612bce578035612bba816131b7565b835260019490940193918501918501612ba7565b50979a9699509497505050505050565b60008060408385031215612bf0578182fd5b8235612bfb816131b7565b91506020830135612ade816131d9565b60008060408385031215612c1d578182fd5b8235612c28816131b7565b91506020830135612ade816131e7565b60006020808385031215612c4a578182fd5b825167ffffffffffffffff811115612c60578283fd5b8301601f81018513612c70578283fd5b8051612c7e612a2482613106565b8181528381019083850185840285018601891015612c9a578687fd5b8694505b83851015612cc5578051612cb1816131b7565b835260019490940193918501918501612c9e565b50979650505050505050565b60006020808385031215612ce3578182fd5b825167ffffffffffffffff811115612cf9578283fd5b8301601f81018513612d09578283fd5b8051612d17612a2482613106565b8181528381019083850185840285018601891015612d33578687fd5b8694505b83851015612cc5578051612d4a816131e7565b835260019490940193918501918501612d37565b600060208284031215612d6f578081fd5b815161115a816131d9565b600060208284031215612d8b578081fd5b813561115a816131e7565b60008060408385031215612da8578182fd5b8235612ace816131e7565b600060208284031215612dc4578081fd5b5035919050565b73ffffffffffffffffffffffffffffffffffffffff91909116815260200190565b73ffffffffffffffffffffffffffffffffffffffff92831681529116602082015260400190565b6020808252825182820181905260009190848201906040850190845b81811015612e6157835173ffffffffffffffffffffffffffffffffffffffff1683529284019291840191600101612e2f565b50909695505050505050565b901515815260200190565b60208082526021908201527f4578656375746f7220646964206e6f742072657475726e206f776e657273686960408201527f7000000000000000000000000000000000000000000000000000000000000000606082015260800190565b60208082526026908201527f4f776e61626c653a206e6577206f776e657220697320746865207a65726f206160408201527f6464726573730000000000000000000000000000000000000000000000000000606082015260800190565b60208082526023908201527f43616c6c6572206973206e6f7420746865206f776e6572206f7220657865637560408201527f746f720000000000000000000000000000000000000000000000000000000000606082015260800190565b6020808252603a908201527f43616c6c6572206973206e6f7420746865206f776e6572206f7220617574686f60408201527f72697a65642064697361626c6572206f72206578656375746f72000000000000606082015260800190565b6020808252818101527f4f776e61626c653a2063616c6c6572206973206e6f7420746865206f776e6572604082015260600190565b6020808252602e908201527f4578656375746f7220646f65736e27742068617665207468652072696768742060408201527f726967687466756c206f776e6572000000000000000000000000000000000000606082015260800190565b61ffff91909116815260200190565b61ffff92909216825273ffffffffffffffffffffffffffffffffffffffff16602082015260400190565b604051601f82017fffffffffffffffffffffffffffffffffffffffffffffffffffffffffffffffe016810167ffffffffffffffff811182821017156130fe576130fe613188565b604052919050565b600067ffffffffffffffff82111561312057613120613188565b5060209081020190565b60007fffffffffffffffffffffffffffffffffffffffffffffffffffffffffffffffff821415613181577f4e487b710000000000000000000000000000000000000000000000000000000081526011600452602481fd5b5060010190565b7f4e487b7100000000000000000000000000000000000000000000000000000000600052604160045260246000fd5b73ffffffffffffffffffffffffffffffffffffffff8116811461172257600080fd5b801515811461172257600080fd5b61ffff8116811461172257600080fdfea264697066735822122042cceb8a883bafe33961c1bb0d50dc2fd4f949aa36f217e303c3017ea8d1273d64736f6c63430008010033",
  "linkReferences": {},
  "deployedLinkReferences": {}
}