{
  "_format": "hh-sol-artifact-1",
  "contractName": "DependencyController",
  "sourceName": "contracts/DependencyController.sol",
  "abi": [
    {
      "inputs": [
        {
          "internalType": "address",
          "name": "_roles",
          "type": "address"
        }
      ],
      "stateMutability": "nonpayable",
      "type": "constructor"
    },
    {
      "inputs": [
        {
          "internalType": "uint256",
          "name": "",
          "type": "uint256"
        }
      ],
      "name": "allCharacters",
      "outputs": [
        {
          "internalType": "uint256",
          "name": "",
          "type": "uint256"
        }
      ],
      "stateMutability": "view",
      "type": "function"
    },
    {
      "inputs": [],
      "name": "allManagedContracts",
      "outputs": [
        {
          "internalType": "address[]",
          "name": "",
          "type": "address[]"
        }
      ],
      "stateMutability": "view",
      "type": "function"
    },
    {
      "inputs": [
        {
          "internalType": "uint256",
          "name": "",
          "type": "uint256"
        }
      ],
      "name": "allRoles",
      "outputs": [
        {
          "internalType": "uint256",
          "name": "",
          "type": "uint256"
        }
      ],
      "stateMutability": "view",
      "type": "function"
    },
    {
      "inputs": [],
      "name": "currentExecutor",
      "outputs": [
        {
          "internalType": "address",
          "name": "",
          "type": "address"
        }
      ],
      "stateMutability": "view",
      "type": "function"
    },
    {
      "inputs": [
        {
          "internalType": "address",
          "name": "contr",
          "type": "address"
        }
      ],
      "name": "disableContract",
      "outputs": [],
      "stateMutability": "nonpayable",
      "type": "function"
    },
    {
      "inputs": [
        {
          "internalType": "address",
          "name": "executor",
          "type": "address"
        }
      ],
      "name": "executeAsOwner",
      "outputs": [],
      "stateMutability": "nonpayable",
      "type": "function"
    },
    {
      "inputs": [
        {
          "internalType": "uint256",
          "name": "role",
          "type": "uint256"
        },
        {
          "internalType": "address",
          "name": "actor",
          "type": "address"
        }
      ],
      "name": "giveRole",
      "outputs": [],
      "stateMutability": "nonpayable",
      "type": "function"
    },
    {
      "inputs": [
        {
          "internalType": "uint256",
          "name": "",
          "type": "uint256"
        }
      ],
      "name": "knownCharacters",
      "outputs": [
        {
          "internalType": "bool",
          "name": "",
          "type": "bool"
        }
      ],
      "stateMutability": "view",
      "type": "function"
    },
    {
      "inputs": [
        {
          "internalType": "uint256",
          "name": "",
          "type": "uint256"
        }
      ],
      "name": "knownRoles",
      "outputs": [
        {
          "internalType": "bool",
          "name": "",
          "type": "bool"
        }
      ],
      "stateMutability": "view",
      "type": "function"
    },
    {
      "inputs": [
        {
          "internalType": "uint256",
          "name": "",
          "type": "uint256"
        }
      ],
      "name": "mainCharacterCache",
      "outputs": [
        {
          "internalType": "address",
          "name": "",
          "type": "address"
        }
      ],
      "stateMutability": "view",
      "type": "function"
    },
    {
      "inputs": [
        {
          "internalType": "address",
          "name": "contr",
          "type": "address"
        },
        {
          "internalType": "uint256[]",
          "name": "charactersPlayed",
          "type": "uint256[]"
        },
        {
          "internalType": "uint256[]",
          "name": "rolesPlayed",
          "type": "uint256[]"
        }
      ],
      "name": "manageContract",
      "outputs": [],
      "stateMutability": "nonpayable",
      "type": "function"
    },
    {
      "inputs": [
        {
          "internalType": "uint256",
          "name": "",
          "type": "uint256"
        }
      ],
      "name": "managedContracts",
      "outputs": [
        {
          "internalType": "address",
          "name": "",
          "type": "address"
        }
      ],
      "stateMutability": "view",
      "type": "function"
    },
    {
      "inputs": [
        {
          "internalType": "uint256",
          "name": "role",
          "type": "uint256"
        },
        {
          "internalType": "address",
          "name": "actor",
          "type": "address"
        }
      ],
      "name": "removeRole",
      "outputs": [],
      "stateMutability": "nonpayable",
      "type": "function"
    },
    {
      "inputs": [
        {
          "internalType": "address",
          "name": "",
          "type": "address"
        },
        {
          "internalType": "uint256",
          "name": "",
          "type": "uint256"
        }
      ],
      "name": "roleCache",
      "outputs": [
        {
          "internalType": "bool",
          "name": "",
          "type": "bool"
        }
      ],
      "stateMutability": "view",
      "type": "function"
    },
    {
      "inputs": [],
      "name": "roles",
      "outputs": [
        {
          "internalType": "contract Roles",
          "name": "",
          "type": "address"
        }
      ],
      "stateMutability": "view",
      "type": "function"
    },
    {
      "inputs": [
        {
          "internalType": "uint256",
          "name": "role",
          "type": "uint256"
        },
        {
          "internalType": "address",
          "name": "actor",
          "type": "address"
        }
      ],
      "name": "setMainCharacter",
      "outputs": [],
      "stateMutability": "nonpayable",
      "type": "function"
    },
    {
      "inputs": [
        {
          "internalType": "address",
          "name": "contr",
          "type": "address"
        }
      ],
      "name": "updateCaches",
      "outputs": [],
      "stateMutability": "nonpayable",
      "type": "function"
    },
    {
      "inputs": [
        {
          "internalType": "uint256",
          "name": "character",
          "type": "uint256"
        }
      ],
      "name": "updateMainCharacterCache",
      "outputs": [],
      "stateMutability": "nonpayable",
      "type": "function"
    },
    {
      "inputs": [
        {
          "internalType": "uint256",
          "name": "role",
          "type": "uint256"
        },
        {
          "internalType": "address",
          "name": "contr",
          "type": "address"
        }
      ],
      "name": "updateRoleCache",
      "outputs": [],
      "stateMutability": "nonpayable",
      "type": "function"
    }
  ],
  "bytecode": "0x60a060405234801561001057600080fd5b5060405161192738038061192783398101604081905261002f916100ab565b806001600160a01b0381166100955760405162461bcd60e51b815260206004820152602260248201527f506c656173652070726f766964652076616c696420726f6c6573206164647265604482015261737360f01b606482015260840160405180910390fd5b60601b6001600160601b031916608052506100d9565b6000602082840312156100bc578081fd5b81516001600160a01b03811681146100d2578182fd5b9392505050565b60805160601c6117ff6101286000396000818161020801528181610e7d01528181610f1501528181611025015281816110cb0152818161119d01528181611212015261135301526117ff6000f3fe608060405234801561001057600080fd5b50600436106101515760003560e01c80635d4ef0b8116100cd578063a154ce8211610081578063e9c3f77d11610066578063e9c3f77d14610308578063f19990d714610331578063f1ce598e1461035457610151565b8063a154ce82146102e2578063a1fdc458146102f557610151565b8063713dade2116100b2578063713dade21461028e5780637a1a04df146102a1578063840c53bd146102cf57610151565b80635d4ef0b8146102685780636b60a09b1461027b57610151565b80632be5c6c011610124578063392f5f6411610109578063392f5f6414610203578063447d52ba146102425780634d5377691461025557610151565b80632be5c6c0146101bd5780633238405b146101f057610151565b8063071060a6146101565780631023d3e01461016b57806317b7b61b1461018957806325398f83146101aa575b600080fd5b610169610164366004611670565b610367565b005b61017361042e565b60405161018091906116b7565b60405180910390f35b61019c610197366004611670565b610490565b604051908152602001610180565b6101696101b8366004611688565b6104b1565b6101e06101cb366004611670565b60056020526000908152604090205460ff1681565b6040519015158152602001610180565b6101696101fe366004611688565b61053d565b61022a7f000000000000000000000000000000000000000000000000000000000000000081565b6040516001600160a01b039091168152602001610180565b610169610250366004611688565b610634565b610169610263366004611688565b610704565b61016961027636600461151f565b610787565b60025461022a906001600160a01b031681565b61016961029c3660046114e0565b610915565b6101e06102af366004611592565b600160209081526000928352604080842090915290825290205460ff1681565b61019c6102dd366004611670565b610ae3565b6101696102f03660046114e0565b610af3565b6101696103033660046114e0565b610bec565b61022a610316366004611670565b6000602081905290815260409020546001600160a01b031681565b6101e061033f366004611670565b60046020526000908152604090205460ff1681565b61022a610362366004611670565b610e4f565b60035460005b80821115610429576003818154811061039657634e487b7160e01b600052603260045260246000fd5b6000918252602090912001546040517f071060a6000000000000000000000000000000000000000000000000000000008152600481018590526001600160a01b039091169063071060a690602401600060405180830381600087803b1580156103fe57600080fd5b505af1158015610412573d6000803e3d6000fd5b50505050808061042190611759565b91505061036d565b505050565b6060600380548060200260200160405190810160405280929190818152602001828054801561048657602002820191906000526020600020905b81546001600160a01b03168152600190910190602001808311610468575b5050505050905090565b600681815481106104a057600080fd5b600091825260209091200154905081565b336104ba610e79565b6001600160a01b031614806104de5750336104d3610f11565b6001600160a01b0316145b61052f5760405162461bcd60e51b815260206004820152601e60248201527f526f6c65733a2063616c6c6572206973206e6f7420746865206f776e6572000060448201526064015b60405180910390fd5b6105398282610f82565b5050565b33610546610e79565b6001600160a01b0316148061056a57503361055f610f11565b6001600160a01b0316145b806105b85750336105ad6103e960009081526020527f236f539bf6e1b3b15a335e3cd157d360bc4be88c071635c19ba8a82b4f665e9f546001600160a01b031690565b6001600160a01b0316145b61062a5760405162461bcd60e51b815260206004820152603860248201527f43616c6c6572206973206e6f7420746865206f776e65722c206578656375746f60448201527f72206f7220617574686f72697a65642064697361626c657200000000000000006064820152608401610526565b610539828261108c565b60035460005b808211156106fe576003818154811061066357634e487b7160e01b600052603260045260246000fd5b6000918252602090912001546040517f447d52ba000000000000000000000000000000000000000000000000000000008152600481018690526001600160a01b0385811660248301529091169063447d52ba90604401600060405180830381600087803b1580156106d357600080fd5b505af11580156106e7573d6000803e3d6000fd5b5050505080806106f690611759565b91505061063a565b50505050565b3361070d610e79565b6001600160a01b03161480610731575033610726610f11565b6001600160a01b0316145b61077d5760405162461bcd60e51b815260206004820152601e60248201527f526f6c65733a2063616c6c6572206973206e6f7420746865206f776e657200006044820152606401610526565b61053982826110fa565b33610790610e79565b6001600160a01b031614806107b45750336107a9610f11565b6001600160a01b0316145b6108005760405162461bcd60e51b815260206004820152601e60248201527f526f6c65733a2063616c6c6572206973206e6f7420746865206f776e657200006044820152606401610526565b6003805460018101825560009182527fc2575a0e9e593c00f959f8c92f12db2869c3395a3b0502d05e2516446f71f85b0180547fffffffffffffffffffffffff0000000000000000000000000000000000000000166001600160a01b0386161790558251905b808211156108b757600084828151811061089057634e487b7160e01b600052603260045260246000fd5b602002602001015190506108a481876110fa565b50806108af81611759565b915050610866565b5050805160005b8082111561090f5760008382815181106108e857634e487b7160e01b600052603260045260246000fd5b602002602001015190506108fc8187610f82565b508061090781611759565b9150506108be565b506106fe845b60065460005b808211156109c157826001600160a01b031663071060a66006838154811061095357634e487b7160e01b600052603260045260246000fd5b90600052602060002001546040518263ffffffff1660e01b815260040161097c91815260200190565b600060405180830381600087803b15801561099657600080fd5b505af11580156109aa573d6000803e3d6000fd5b5050505080806109b990611759565b91505061091b565b505060075460005b808211156104295760005b600354811015610ad057836001600160a01b031663447d52ba60078481548110610a0e57634e487b7160e01b600052603260045260246000fd5b906000526020600020015460038481548110610a3a57634e487b7160e01b600052603260045260246000fd5b60009182526020909120015460405160e084901b7fffffffff0000000000000000000000000000000000000000000000000000000016815260048101929092526001600160a01b03166024820152604401600060405180830381600087803b158015610aa557600080fd5b505af1158015610ab9573d6000803e3d6000fd5b505050508080610ac890611759565b9150506109d4565b5080610adb81611759565b9150506109c9565b600781815481106104a057600080fd5b33610afc610e79565b6001600160a01b03161480610b20575033610b15610f11565b6001600160a01b0316145b80610b6e575033610b636103e960009081526020527f236f539bf6e1b3b15a335e3cd157d360bc4be88c071635c19ba8a82b4f665e9f546001600160a01b031690565b6001600160a01b0316145b610be05760405162461bcd60e51b815260206004820152603860248201527f43616c6c6572206973206e6f7420746865206f776e65722c206578656375746f60448201527f72206f7220617574686f72697a65642064697361626c657200000000000000006064820152608401610526565b610be981611202565b50565b33610bf5610e79565b6001600160a01b03161480610c19575033610c0e610f11565b6001600160a01b0316145b610c655760405162461bcd60e51b815260206004820152601e60248201527f526f6c65733a2063616c6c6572206973206e6f7420746865206f776e657200006044820152606401610526565b6000816001600160a01b031663cd28fc8f6040518163ffffffff1660e01b8152600401600060405180830381600087803b158015610ca257600080fd5b505af1158015610cb6573d6000803e3d6000fd5b505050506040513d6000823e601f3d908101601f19168201604052610cde91908101906115bd565b905060005b8082511115610d2f57610d1d828281518110610d0f57634e487b7160e01b600052603260045260246000fd5b602002602001015184610f82565b80610d2781611759565b915050610ce3565b50610d3982610915565b600280547fffffffffffffffffffffffff0000000000000000000000000000000000000000166001600160a01b038416908117909155604080517f61461954000000000000000000000000000000000000000000000000000000008152905163614619549160048082019260009290919082900301818387803b158015610dbf57600080fd5b505af1158015610dd3573d6000803e3d6000fd5b5050600280547fffffffffffffffffffffffff00000000000000000000000000000000000000001690555050805160005b808211156106fe57610e3d838281518110610e2f57634e487b7160e01b600052603260045260246000fd5b60200260200101518561108c565b80610e4781611759565b915050610e04565b60038181548110610e5f57600080fd5b6000918252602090912001546001600160a01b0316905081565b60007f00000000000000000000000000000000000000000000000000000000000000006001600160a01b0316638da5cb5b6040518163ffffffff1660e01b815260040160206040518083038186803b158015610ed457600080fd5b505afa158015610ee8573d6000803e3d6000fd5b505050506040513d601f19601f82011682018060405250810190610f0c9190611503565b905090565b60007f00000000000000000000000000000000000000000000000000000000000000006001600160a01b031663c34c08e56040518163ffffffff1660e01b8152600401602060405180830381600087803b158015610f6e57600080fd5b505af1158015610ee8573d6000803e3d6000fd5b60008281526005602052604090205460ff16610fe6576000828152600560205260408120805460ff191660019081179091556007805491820181559091527fa66cc928b5edb82af9bd49922954155ab7b0942694bea4ce44661d9a8736c688018290555b6040517f25398f83000000000000000000000000000000000000000000000000000000008152600481018390526001600160a01b0382811660248301527f000000000000000000000000000000000000000000000000000000000000000016906325398f83906044015b600060405180830381600087803b15801561106a57600080fd5b505af115801561107e573d6000803e3d6000fd5b505050506105398282610634565b6040517f3238405b000000000000000000000000000000000000000000000000000000008152600481018390526001600160a01b0382811660248301527f00000000000000000000000000000000000000000000000000000000000000001690633238405b90604401611050565b60008281526004602052604090205460ff1661115e576000828152600460205260408120805460ff191660019081179091556006805491820181559091527ff652222313e28459528d920b65115c16c04f3efc82aaedc97be59f3f377c0d3f018290555b6040517f4d537769000000000000000000000000000000000000000000000000000000008152600481018390526001600160a01b0382811660248301527f00000000000000000000000000000000000000000000000000000000000000001690634d53776990604401600060405180830381600087803b1580156111e157600080fd5b505af11580156111f5573d6000803e3d6000fd5b5050505061053982610367565b60075460005b80821115611337577f00000000000000000000000000000000000000000000000000000000000000006001600160a01b03166393552a3d6007838154811061126057634e487b7160e01b600052603260045260246000fd5b9060005260206000200154856040518363ffffffff1660e01b815260040161129b9291909182526001600160a01b0316602082015260400190565b60206040518083038186803b1580156112b357600080fd5b505afa1580156112c7573d6000803e3d6000fd5b505050506040513d601f19601f820116820180604052508101906112eb9190611650565b15611325576113256007828154811061131457634e487b7160e01b600052603260045260246000fd5b90600052602060002001548461108c565b8061132f81611759565b915050611208565b505060065460005b8082111561042957826001600160a01b03167f00000000000000000000000000000000000000000000000000000000000000006001600160a01b031663b4ed0b6d600684815481106113a157634e487b7160e01b600052603260045260246000fd5b90600052602060002001546040518263ffffffff1660e01b81526004016113ca91815260200190565b60206040518083038186803b1580156113e257600080fd5b505afa1580156113f6573d6000803e3d6000fd5b505050506040513d601f19601f8201168201806040525081019061141a9190611503565b6001600160a01b0316141561145f5761145f6006828154811061144d57634e487b7160e01b600052603260045260246000fd5b906000526020600020015460006110fa565b8061146981611759565b91505061133f565b600082601f830112611481578081fd5b8135602061149661149183611735565b611704565b80838252828201915082860187848660051b89010111156114b5578586fd5b855b858110156114d3578135845292840192908401906001016114b7565b5090979650505050505050565b6000602082840312156114f1578081fd5b81356114fc816117b4565b9392505050565b600060208284031215611514578081fd5b81516114fc816117b4565b600080600060608486031215611533578182fd5b833561153e816117b4565b9250602084013567ffffffffffffffff8082111561155a578384fd5b61156687838801611471565b9350604086013591508082111561157b578283fd5b5061158886828701611471565b9150509250925092565b600080604083850312156115a4578182fd5b82356115af816117b4565b946020939093013593505050565b600060208083850312156115cf578182fd5b825167ffffffffffffffff8111156115e5578283fd5b8301601f810185136115f5578283fd5b805161160361149182611735565b80828252848201915084840188868560051b8701011115611622578687fd5b8694505b83851015611644578051835260019490940193918501918501611626565b50979650505050505050565b600060208284031215611661578081fd5b815180151581146114fc578182fd5b600060208284031215611681578081fd5b5035919050565b6000806040838503121561169a578182fd5b8235915060208301356116ac816117b4565b809150509250929050565b6020808252825182820181905260009190848201906040850190845b818110156116f85783516001600160a01b0316835292840192918401916001016116d3565b50909695505050505050565b604051601f8201601f1916810167ffffffffffffffff8111828210171561172d5761172d61179e565b604052919050565b600067ffffffffffffffff82111561174f5761174f61179e565b5060051b60200190565b60007fffffffffffffffffffffffffffffffffffffffffffffffffffffffffffffffff82141561179757634e487b7160e01b81526011600452602481fd5b5060010190565b634e487b7160e01b600052604160045260246000fd5b6001600160a01b0381168114610be957600080fdfea2646970667358221220e2edb99566804b8f7f47acd785abf0dc9fa5e33f42fa9615185fb315c508b6ae64736f6c63430008030033",
  "linkReferences": {},
  "deployedLinkReferences": {}
}