{
  "_format": "hh-sol-artifact-1",
  "contractName": "IncentivizeLending",
  "sourceName": "contracts/controller-actions/IncentivizeLending.sol",
  "abi": [
    {
      "inputs": [
        {
          "internalType": "address[]",
          "name": "_tokens",
          "type": "address[]"
        },
        {
          "internalType": "uint256[]",
          "name": "_amounts",
          "type": "uint256[]"
        },
        {
          "internalType": "uint256",
          "name": "_endTimestamp",
          "type": "uint256"
        },
        {
          "internalType": "address",
          "name": "_roles",
          "type": "address"
        }
      ],
      "stateMutability": "nonpayable",
      "type": "constructor"
    },
    {
      "inputs": [],
      "name": "execute",
      "outputs": [],
      "stateMutability": "nonpayable",
      "type": "function"
    },
    {
      "inputs": [
        {
          "internalType": "uint256",
          "name": "",
          "type": "uint256"
        }
      ],
      "name": "mainCharacterCache",
      "outputs": [
        {
          "internalType": "address",
          "name": "",
          "type": "address"
        }
      ],
      "stateMutability": "view",
      "type": "function"
    },
    {
      "inputs": [],
      "name": "requiredRoles",
      "outputs": [
        {
          "internalType": "uint256[]",
          "name": "required",
          "type": "uint256[]"
        }
      ],
      "stateMutability": "nonpayable",
      "type": "function"
    },
    {
      "inputs": [
        {
          "internalType": "address",
          "name": "",
          "type": "address"
        },
        {
          "internalType": "uint256",
          "name": "",
          "type": "uint256"
        }
      ],
      "name": "roleCache",
      "outputs": [
        {
          "internalType": "bool",
          "name": "",
          "type": "bool"
        }
      ],
      "stateMutability": "view",
      "type": "function"
    },
    {
      "inputs": [],
      "name": "roles",
      "outputs": [
        {
          "internalType": "contract Roles",
          "name": "",
          "type": "address"
        }
      ],
      "stateMutability": "view",
      "type": "function"
    },
    {
      "inputs": [
        {
          "internalType": "uint256",
          "name": "role",
          "type": "uint256"
        }
      ],
      "name": "updateMainCharacterCache",
      "outputs": [],
      "stateMutability": "nonpayable",
      "type": "function"
    },
    {
      "inputs": [
        {
          "internalType": "uint256",
          "name": "role",
          "type": "uint256"
        },
        {
          "internalType": "address",
          "name": "contr",
          "type": "address"
        }
      ],
      "name": "updateRoleCache",
      "outputs": [],
      "stateMutability": "nonpayable",
      "type": "function"
    }
  ],
  "bytecode": "0x60a06040523480156200001157600080fd5b506040516200096d3803806200096d833981016040819052620000349162000237565b806001600160a01b0381166200009b5760405162461bcd60e51b815260206004820152602260248201527f506c656173652070726f766964652076616c696420726f6c6573206164647265604482015261737360f01b606482015260840160405180910390fd5b60601b6001600160601b0319166080528351620000c0906002906020870190620000e4565b508251620000d69060039060208601906200014e565b505060045550620003939050565b8280548282559060005260206000209081019282156200013c579160200282015b828111156200013c57825182546001600160a01b0319166001600160a01b0390911617825560209092019160019091019062000105565b506200014a9291506200018c565b5090565b8280548282559060005260206000209081019282156200013c579160200282015b828111156200013c5782518255916020019190600101906200016f565b5b808211156200014a57600081556001016200018d565b80516001600160a01b0381168114620001bb57600080fd5b919050565b600082601f830112620001d1578081fd5b81516020620001ea620001e48362000357565b62000324565b80838252828201915082860187848660051b89010111156200020a578586fd5b855b858110156200022a578151845292840192908401906001016200020c565b5090979650505050505050565b600080600080608085870312156200024d578384fd5b84516001600160401b038082111562000264578586fd5b818701915087601f83011262000278578586fd5b815160206200028b620001e48362000357565b8083825282820191508286018c848660051b8901011115620002ab578a8bfd5b8a96505b84871015620002d857620002c381620001a3565b835260019690960195918301918301620002af565b50918a0151919850909350505080821115620002f2578485fd5b506200030187828801620001c0565b935050604085015191506200031960608601620001a3565b905092959194509250565b604051601f8201601f191681016001600160401b03811182821017156200034f576200034f6200037d565b604052919050565b60006001600160401b038211156200037357620003736200037d565b5060051b60200190565b634e487b7160e01b600052604160045260246000fd5b60805160601c6105ae620003bf60003960008181609c01528181610182015261025801526105ae6000f3fe608060405234801561001057600080fd5b506004361061007d5760003560e01c8063614619541161005b57806361461954146100ee5780637a1a04df146100f6578063cd28fc8f14610134578063e9c3f77d146101435761007d565b8063071060a614610082578063392f5f6414610097578063447d52ba146100db575b600080fd5b6100956100903660046104ae565b61016c565b005b6100be7f000000000000000000000000000000000000000000000000000000000000000081565b6040516001600160a01b0390911681526020015b60405180910390f35b6100956100e93660046104c6565b610232565b61009561030a565b610124610104366004610463565b600160209081526000928352604080842090915290825290205460ff1681565b60405190151581526020016100d2565b60606040516100d291906104f5565b6100be6101513660046104ae565b6000602081905290815260409020546001600160a01b031681565b60405163b4ed0b6d60e01b8152600481018290527f00000000000000000000000000000000000000000000000000000000000000006001600160a01b03169063b4ed0b6d9060240160206040518083038186803b1580156101cc57600080fd5b505afa1580156101e0573d6000803e3d6000fd5b505050506040513d601f19601f820116820180604052508101906102049190610440565b60009182526020829052604090912080546001600160a01b0319166001600160a01b03909216919091179055565b6040516393552a3d60e01b8152600481018390526001600160a01b0382811660248301527f000000000000000000000000000000000000000000000000000000000000000016906393552a3d9060440160206040518083038186803b15801561029a57600080fd5b505afa1580156102ae573d6000803e3d6000fd5b505050506040513d601f19601f820116820180604052508101906102d2919061048e565b6001600160a01b0391909116600090815260016020908152604080832094835293905291909120805460ff1916911515919091179055565b60045460005b60025481101561043c57606660009081526020527f422cccb7cea5c0e46f340bb7b21b81debac329f72e31669c20ff0f3a05cc2b5b546001600160a01b03166001600160a01b031663b42f60db6002838154811061037e57634e487b7160e01b600052603260045260246000fd5b600091825260209091200154600380546001600160a01b0390921691859081106103b857634e487b7160e01b600052603260045260246000fd5b6000918252602090912001546040516001600160e01b031960e085901b1681526001600160a01b039092166004830152602482015260448101859052606401600060405180830381600087803b15801561041157600080fd5b505af1158015610425573d6000803e3d6000fd5b50505050808061043490610539565b915050610310565b5050565b600060208284031215610451578081fd5b815161045c81610560565b9392505050565b60008060408385031215610475578081fd5b823561048081610560565b946020939093013593505050565b60006020828403121561049f578081fd5b8151801515811461045c578182fd5b6000602082840312156104bf578081fd5b5035919050565b600080604083850312156104d8578182fd5b8235915060208301356104ea81610560565b809150509250929050565b6020808252825182820181905260009190848201906040850190845b8181101561052d57835183529284019291840191600101610511565b50909695505050505050565b600060001982141561055957634e487b7160e01b81526011600452602481fd5b5060010190565b6001600160a01b038116811461057557600080fd5b5056fea2646970667358221220389b3e32cdf852d54f40e992d4378dd0a6038a0f3de22234c6de73582461f2ca64736f6c63430008030033",
  "linkReferences": {},
  "deployedLinkReferences": {}
}