{
  "_format": "hh-sol-artifact-1",
  "contractName": "CrossMarginTrading",
  "sourceName": "contracts/CrossMarginTrading.sol",
  "abi": [
    {
      "inputs": [
        {
          "internalType": "address",
          "name": "_peg",
          "type": "address"
        },
        {
          "internalType": "address",
          "name": "_roles",
          "type": "address"
        }
      ],
      "stateMutability": "nonpayable",
      "type": "constructor"
    },
    {
      "anonymous": false,
      "inputs": [
        {
          "indexed": false,
          "internalType": "address",
          "name": "account",
          "type": "address"
        }
      ],
      "name": "AccountLiquidated",
      "type": "event"
    },
    {
      "anonymous": false,
      "inputs": [
        {
          "indexed": false,
          "internalType": "uint256",
          "name": "amount",
          "type": "uint256"
        }
      ],
      "name": "LiquidationShortfall",
      "type": "event"
    },
    {
      "inputs": [],
      "name": "MAINTAINER_CUT_PERCENT",
      "outputs": [
        {
          "internalType": "uint256",
          "name": "",
          "type": "uint256"
        }
      ],
      "stateMutability": "view",
      "type": "function"
    },
    {
      "inputs": [],
      "name": "UPDATE_RATE_PERMIL",
      "outputs": [
        {
          "internalType": "uint256",
          "name": "",
          "type": "uint256"
        }
      ],
      "stateMutability": "view",
      "type": "function"
    },
    {
      "inputs": [
        {
          "internalType": "uint256",
          "name": "_priceUpdateWindow",
          "type": "uint256"
        },
        {
          "internalType": "uint256",
          "name": "_updateRatePermil",
          "type": "uint256"
        }
      ],
      "name": "addVolatilitySetting",
      "outputs": [],
      "stateMutability": "nonpayable",
      "type": "function"
    },
    {
      "inputs": [],
      "name": "avgLiquidationPerCall",
      "outputs": [
        {
          "internalType": "uint256",
          "name": "",
          "type": "uint256"
        }
      ],
      "stateMutability": "view",
      "type": "function"
    },
    {
      "inputs": [
        {
          "internalType": "address",
          "name": "trader",
          "type": "address"
        }
      ],
      "name": "canBeLiquidated",
      "outputs": [
        {
          "internalType": "bool",
          "name": "",
          "type": "bool"
        }
      ],
      "stateMutability": "view",
      "type": "function"
    },
    {
      "inputs": [
        {
          "internalType": "uint256",
          "name": "index",
          "type": "uint256"
        }
      ],
      "name": "chooseVolatilitySetting",
      "outputs": [],
      "stateMutability": "nonpayable",
      "type": "function"
    },
    {
      "inputs": [],
      "name": "coolingOffPeriod",
      "outputs": [
        {
          "internalType": "uint256",
          "name": "",
          "type": "uint256"
        }
      ],
      "stateMutability": "view",
      "type": "function"
    },
    {
      "inputs": [
        {
          "internalType": "address[]",
          "name": "liquidatedAccounts",
          "type": "address[]"
        }
      ],
      "name": "disburseLiqStakeAttacks",
      "outputs": [],
      "stateMutability": "nonpayable",
      "type": "function"
    },
    {
      "inputs": [],
      "name": "failureThreshold",
      "outputs": [
        {
          "internalType": "uint256",
          "name": "",
          "type": "uint256"
        }
      ],
      "stateMutability": "view",
      "type": "function"
    },
    {
      "inputs": [
        {
          "internalType": "address",
          "name": "trader",
          "type": "address"
        }
      ],
      "name": "getBorrowAmounts",
      "outputs": [
        {
          "internalType": "address[]",
          "name": "borrowTokens",
          "type": "address[]"
        },
        {
          "internalType": "uint256[]",
          "name": "borrowAmounts",
          "type": "uint256[]"
        },
        {
          "internalType": "uint256[]",
          "name": "borrowAPRPer10k",
          "type": "uint256[]"
        }
      ],
      "stateMutability": "view",
      "type": "function"
    },
    {
      "inputs": [
        {
          "internalType": "address",
          "name": "token",
          "type": "address"
        },
        {
          "internalType": "uint256",
          "name": "inAmount",
          "type": "uint256"
        }
      ],
      "name": "getCurrentPriceInPeg",
      "outputs": [
        {
          "internalType": "uint256",
          "name": "",
          "type": "uint256"
        }
      ],
      "stateMutability": "nonpayable",
      "type": "function"
    },
    {
      "inputs": [
        {
          "internalType": "address",
          "name": "trader",
          "type": "address"
        }
      ],
      "name": "getHoldingAmounts",
      "outputs": [
        {
          "internalType": "address[]",
          "name": "holdingTokens",
          "type": "address[]"
        },
        {
          "internalType": "uint256[]",
          "name": "holdingAmounts",
          "type": "uint256[]"
        }
      ],
      "stateMutability": "view",
      "type": "function"
    },
    {
      "inputs": [],
      "name": "leveragePercent",
      "outputs": [
        {
          "internalType": "uint256",
          "name": "",
          "type": "uint256"
        }
      ],
      "stateMutability": "view",
      "type": "function"
    },
    {
      "inputs": [],
      "name": "liqStakeAttackWindow",
      "outputs": [
        {
          "internalType": "uint256",
          "name": "",
          "type": "uint256"
        }
      ],
      "stateMutability": "view",
      "type": "function"
    },
    {
      "inputs": [
        {
          "internalType": "address[]",
          "name": "liquidationCandidates",
          "type": "address[]"
        }
      ],
      "name": "liquidate",
      "outputs": [
        {
          "internalType": "uint256",
          "name": "maintainerCut",
          "type": "uint256"
        }
      ],
      "stateMutability": "nonpayable",
      "type": "function"
    },
    {
      "inputs": [],
      "name": "liquidationThresholdPercent",
      "outputs": [
        {
          "internalType": "uint256",
          "name": "",
          "type": "uint256"
        }
      ],
      "stateMutability": "view",
      "type": "function"
    },
    {
      "inputs": [
        {
          "internalType": "uint256",
          "name": "",
          "type": "uint256"
        }
      ],
      "name": "mainCharacterCache",
      "outputs": [
        {
          "internalType": "address",
          "name": "",
          "type": "address"
        }
      ],
      "stateMutability": "view",
      "type": "function"
    },
    {
      "inputs": [
        {
          "internalType": "address",
          "name": "",
          "type": "address"
        }
      ],
      "name": "maintenanceFailures",
      "outputs": [
        {
          "internalType": "uint256",
          "name": "",
          "type": "uint256"
        }
      ],
      "stateMutability": "view",
      "type": "function"
    },
    {
      "inputs": [],
      "name": "peg",
      "outputs": [
        {
          "internalType": "address",
          "name": "",
          "type": "address"
        }
      ],
      "stateMutability": "view",
      "type": "function"
    },
    {
      "inputs": [],
      "name": "priceUpdateWindow",
      "outputs": [
        {
          "internalType": "uint256",
          "name": "",
          "type": "uint256"
        }
      ],
      "stateMutability": "view",
      "type": "function"
    },
    {
      "inputs": [
        {
          "internalType": "address",
          "name": "trader",
          "type": "address"
        },
        {
          "internalType": "address",
          "name": "borrowToken",
          "type": "address"
        },
        {
          "internalType": "uint256",
          "name": "borrowAmount",
          "type": "uint256"
        }
      ],
      "name": "registerBorrow",
      "outputs": [],
      "stateMutability": "nonpayable",
      "type": "function"
    },
    {
      "inputs": [
        {
          "internalType": "address",
          "name": "trader",
          "type": "address"
        },
        {
          "internalType": "address",
          "name": "token",
          "type": "address"
        },
        {
          "internalType": "uint256",
          "name": "depositAmount",
          "type": "uint256"
        }
      ],
      "name": "registerDeposit",
      "outputs": [
        {
          "internalType": "uint256",
          "name": "extinguishableDebt",
          "type": "uint256"
        }
      ],
      "stateMutability": "nonpayable",
      "type": "function"
    },
    {
      "inputs": [
        {
          "internalType": "address",
          "name": "trader",
          "type": "address"
        }
      ],
      "name": "registerLiquidation",
      "outputs": [],
      "stateMutability": "nonpayable",
      "type": "function"
    },
    {
      "inputs": [
        {
          "internalType": "address",
          "name": "trader",
          "type": "address"
        },
        {
          "internalType": "address",
          "name": "depositToken",
          "type": "address"
        },
        {
          "internalType": "uint256",
          "name": "depositAmount",
          "type": "uint256"
        },
        {
          "internalType": "address",
          "name": "borrowToken",
          "type": "address"
        },
        {
          "internalType": "uint256",
          "name": "withdrawAmount",
          "type": "uint256"
        }
      ],
      "name": "registerOvercollateralizedBorrow",
      "outputs": [],
      "stateMutability": "nonpayable",
      "type": "function"
    },
    {
      "inputs": [
        {
          "internalType": "address",
          "name": "trader",
          "type": "address"
        },
        {
          "internalType": "address",
          "name": "tokenFrom",
          "type": "address"
        },
        {
          "internalType": "address",
          "name": "tokenTo",
          "type": "address"
        },
        {
          "internalType": "uint256",
          "name": "inAmount",
          "type": "uint256"
        },
        {
          "internalType": "uint256",
          "name": "outAmount",
          "type": "uint256"
        }
      ],
      "name": "registerTradeAndBorrow",
      "outputs": [
        {
          "internalType": "uint256",
          "name": "extinguishableDebt",
          "type": "uint256"
        },
        {
          "internalType": "uint256",
          "name": "borrowAmount",
          "type": "uint256"
        }
      ],
      "stateMutability": "nonpayable",
      "type": "function"
    },
    {
      "inputs": [
        {
          "internalType": "address",
          "name": "trader",
          "type": "address"
        },
        {
          "internalType": "address",
          "name": "withdrawToken",
          "type": "address"
        },
        {
          "internalType": "uint256",
          "name": "withdrawAmount",
          "type": "uint256"
        }
      ],
      "name": "registerWithdrawal",
      "outputs": [],
      "stateMutability": "nonpayable",
      "type": "function"
    },
    {
      "inputs": [
        {
          "internalType": "address",
          "name": "",
          "type": "address"
        },
        {
          "internalType": "uint256",
          "name": "",
          "type": "uint256"
        }
      ],
      "name": "roleCache",
      "outputs": [
        {
          "internalType": "bool",
          "name": "",
          "type": "bool"
        }
      ],
      "stateMutability": "view",
      "type": "function"
    },
    {
      "inputs": [],
      "name": "roles",
      "outputs": [
        {
          "internalType": "contract Roles",
          "name": "",
          "type": "address"
        }
      ],
      "stateMutability": "view",
      "type": "function"
    },
    {
      "inputs": [
        {
          "internalType": "uint256",
          "name": "blocks",
          "type": "uint256"
        }
      ],
      "name": "setCoolingOffPeriod",
      "outputs": [],
      "stateMutability": "nonpayable",
      "type": "function"
    },
    {
      "inputs": [
        {
          "internalType": "uint256",
          "name": "threshFactor",
          "type": "uint256"
        }
      ],
      "name": "setFailureThreshold",
      "outputs": [],
      "stateMutability": "nonpayable",
      "type": "function"
    },
    {
      "inputs": [
        {
          "internalType": "uint256",
          "name": "_leveragePercent",
          "type": "uint256"
        }
      ],
      "name": "setLeveragePercent",
      "outputs": [],
      "stateMutability": "nonpayable",
      "type": "function"
    },
    {
      "inputs": [
        {
          "internalType": "uint256",
          "name": "window",
          "type": "uint256"
        }
      ],
      "name": "setLiqStakeAttackWindow",
      "outputs": [],
      "stateMutability": "nonpayable",
      "type": "function"
    },
    {
      "inputs": [
        {
          "internalType": "bytes32",
          "name": "amms",
          "type": "bytes32"
        },
        {
          "internalType": "address[]",
          "name": "tokens",
          "type": "address[]"
        }
      ],
      "name": "setLiquidationPath",
      "outputs": [],
      "stateMutability": "nonpayable",
      "type": "function"
    },
    {
      "inputs": [
        {
          "internalType": "uint256",
          "name": "threshold",
          "type": "uint256"
        }
      ],
      "name": "setLiquidationThresholdPercent",
      "outputs": [],
      "stateMutability": "nonpayable",
      "type": "function"
    },
    {
      "inputs": [
        {
          "internalType": "uint256",
          "name": "cut",
          "type": "uint256"
        }
      ],
      "name": "setMaintainerCutPercent",
      "outputs": [],
      "stateMutability": "nonpayable",
      "type": "function"
    },
    {
      "inputs": [
        {
          "internalType": "uint16",
          "name": "window",
          "type": "uint16"
        }
      ],
      "name": "setPriceUpdateWindow",
      "outputs": [],
      "stateMutability": "nonpayable",
      "type": "function"
    },
    {
      "inputs": [
        {
          "internalType": "address",
          "name": "token",
          "type": "address"
        },
        {
          "internalType": "uint256",
          "name": "cap",
          "type": "uint256"
        }
      ],
      "name": "setTokenCap",
      "outputs": [],
      "stateMutability": "nonpayable",
      "type": "function"
    },
    {
      "inputs": [
        {
          "internalType": "uint256",
          "name": "rate",
          "type": "uint256"
        }
      ],
      "name": "setUpdateRate",
      "outputs": [],
      "stateMutability": "nonpayable",
      "type": "function"
    },
    {
      "inputs": [
        {
          "internalType": "address",
          "name": "",
          "type": "address"
        }
      ],
      "name": "stakeAttackRecords",
      "outputs": [
        {
          "internalType": "uint256",
          "name": "blockNum",
          "type": "uint256"
        },
        {
          "internalType": "address",
          "name": "loser",
          "type": "address"
        },
        {
          "internalType": "uint256",
          "name": "amount",
          "type": "uint256"
        },
        {
          "internalType": "address",
          "name": "stakeAttacker",
          "type": "address"
        }
      ],
      "stateMutability": "view",
      "type": "function"
    },
    {
      "inputs": [
        {
          "internalType": "address",
          "name": "",
          "type": "address"
        }
      ],
      "name": "tokenCaps",
      "outputs": [
        {
          "internalType": "uint256",
          "name": "",
          "type": "uint256"
        }
      ],
      "stateMutability": "view",
      "type": "function"
    },
    {
      "inputs": [
        {
          "internalType": "address",
          "name": "",
          "type": "address"
        }
      ],
      "name": "tokenPrices",
      "outputs": [
        {
          "internalType": "uint256",
          "name": "blockLastUpdated",
          "type": "uint256"
        },
        {
          "internalType": "uint256",
          "name": "tokenPerRefAmount",
          "type": "uint256"
        },
        {
          "internalType": "bytes32",
          "name": "amms",
          "type": "bytes32"
        },
        {
          "internalType": "bytes32",
          "name": "inverseAmms",
          "type": "bytes32"
        }
      ],
      "stateMutability": "view",
      "type": "function"
    },
    {
      "inputs": [
        {
          "internalType": "address",
          "name": "",
          "type": "address"
        }
      ],
      "name": "totalLong",
      "outputs": [
        {
          "internalType": "uint256",
          "name": "",
          "type": "uint256"
        }
      ],
      "stateMutability": "view",
      "type": "function"
    },
    {
      "inputs": [
        {
          "internalType": "address",
          "name": "",
          "type": "address"
        }
      ],
      "name": "totalShort",
      "outputs": [
        {
          "internalType": "uint256",
          "name": "",
          "type": "uint256"
        }
      ],
      "stateMutability": "view",
      "type": "function"
    },
    {
      "inputs": [
        {
          "internalType": "uint256",
          "name": "role",
          "type": "uint256"
        }
      ],
      "name": "updateMainCharacterCache",
      "outputs": [],
      "stateMutability": "nonpayable",
      "type": "function"
    },
    {
      "inputs": [
        {
          "internalType": "uint256",
          "name": "role",
          "type": "uint256"
        },
        {
          "internalType": "address",
          "name": "contr",
          "type": "address"
        }
      ],
      "name": "updateRoleCache",
      "outputs": [],
      "stateMutability": "nonpayable",
      "type": "function"
    },
    {
      "inputs": [
        {
          "internalType": "address",
          "name": "trader",
          "type": "address"
        },
        {
          "internalType": "address",
          "name": "token",
          "type": "address"
        }
      ],
      "name": "viewBalanceInToken",
      "outputs": [
        {
          "internalType": "uint256",
          "name": "",
          "type": "uint256"
        }
      ],
      "stateMutability": "view",
      "type": "function"
    },
    {
      "inputs": [
        {
          "internalType": "address",
          "name": "token",
          "type": "address"
        },
        {
          "internalType": "uint256",
          "name": "inAmount",
          "type": "uint256"
        }
      ],
      "name": "viewCurrentPriceInPeg",
      "outputs": [
        {
          "internalType": "uint256",
          "name": "",
          "type": "uint256"
        }
      ],
      "stateMutability": "view",
      "type": "function"
    },
    {
      "inputs": [
        {
          "internalType": "address",
          "name": "trader",
          "type": "address"
        }
      ],
      "name": "viewHoldingsInPeg",
      "outputs": [
        {
          "internalType": "uint256",
          "name": "",
          "type": "uint256"
        }
      ],
      "stateMutability": "view",
      "type": "function"
    },
    {
      "inputs": [
        {
          "internalType": "address",
          "name": "trader",
          "type": "address"
        }
      ],
      "name": "viewLoanInPeg",
      "outputs": [
        {
          "internalType": "uint256",
          "name": "amount",
          "type": "uint256"
        }
      ],
      "stateMutability": "view",
      "type": "function"
    },
    {
      "inputs": [
        {
          "internalType": "uint256",
          "name": "",
          "type": "uint256"
        }
      ],
      "name": "volatilitySettings",
      "outputs": [
        {
          "internalType": "uint256",
          "name": "priceUpdateWindow",
          "type": "uint256"
        },
        {
          "internalType": "uint256",
          "name": "updateRatePermil",
          "type": "uint256"
        }
      ],
      "stateMutability": "view",
      "type": "function"
    }
  ],
  "bytecode": "0x60c06040526014600355603260045561012c6006556073600755600a600c55600a60135560056014556005601555600a6016553480156200003f57600080fd5b50604051620062383803806200623883398101604081905262000062916200010a565b81816001600160a01b038116620000ca5760405162461bcd60e51b815260206004820152602260248201527f506c656173652070726f766964652076616c696420726f6c6573206164647265604482015261737360f01b606482015260840160405180910390fd5b6001600160601b0319606091821b811660805291901b1660a05250620001419050565b80516001600160a01b03811681146200010557600080fd5b919050565b600080604083850312156200011d578182fd5b6200012883620000ed565b91506200013860208401620000ed565b90509250929050565b60805160601c60a05160601c616077620001c1600039600081816103da01528181610a4c01528181610f22015281816118bf0152818161208a0152818161223101528181612e220152818161509b01526152250152600081816104ee01528181610888015281816116cb0152818161302e01526130c601526160776000f3fe608060405234801561001057600080fd5b50600436106103365760003560e01c8063538edb29116101b2578063bc44dcbc116100f9578063d8039c26116100a2578063e9c3f77d1161007c578063e9c3f77d146107cd578063ef859fc8146107f6578063f04c686514610833578063f99fd97c1461084657610336565b8063d8039c2614610787578063db2d904d1461079a578063e0f3871f146107ad57610336565b8063c74303aa116100d3578063c74303aa1461073f578063d0eb665314610752578063d510c5351461076557610336565b8063bc44dcbc146106f9578063bc70c66614610719578063c73afac21461072c57610336565b8063a17ab5271161015b578063a75697a511610135578063a75697a514610659578063a985994b14610679578063badb50481461068c57610336565b8063a17ab5271461062a578063a37189191461063d578063a53ac0d91461065057610336565b80637a1a04df1161018c5780637a1a04df146105e05780637d100e841461060e578063a00891591461061757610336565b8063538edb29146105bb57806354554b58146105c45780636585b5a6146105d757610336565b80632febaa7411610281578063447d52ba1161022a5780634aa4aca3116102045780634aa4aca3146105835780634cb776621461058c578063519bda851461059f57806352a664d9146105a857610336565b8063447d52ba1461053a57806347788cd01461054d578063498d55eb1461057057610336565b8063392f5f641161025b578063392f5f64146104e95780633ed456fa14610510578063409fdb721461051957610336565b80632febaa74146104af578063320d2fa0146104b85780633500aa0b146104c157610336565b80631d84cc18116102e3578063204120bc116102bd578063204120bc1461042757806320c271261461047c5780632b23f8571461049c57610336565b80631d84cc18146103c25780631f1cb62b146103d55780631f692a641461041457610336565b806310d584341161031457806310d584341461038957806316317e7e1461039c5780631d47e4a3146103af57610336565b8063071060a61461033b57806307c2017514610350578063093a483a14610363575b600080fd5b61034e610349366004615b90565b610859565b005b61034e61035e3660046159ed565b610950565b610376610371366004615995565b610a48565b6040519081526020015b60405180910390f35b61034e610397366004615b90565b610ae7565b61034e6103aa366004615b90565b610b84565b61034e6103bd366004615995565b610c1c565b61034e6103d036600461593b565b610d17565b6103fc7f000000000000000000000000000000000000000000000000000000000000000081565b6040516001600160a01b039091168152602001610380565b610376610422366004615831565b610ddf565b61045c610435366004615831565b60026020526000908152604090208054600182015460038301546005909301549192909184565b604080519485526020850193909352918301526060820152608001610380565b61037661048a366004615831565b600b6020526000908152604090205481565b61034e6104aa366004615adb565b610e14565b610376600c5481565b61037660075481565b6104d46104cf3660046158a1565b6111cd565b60408051928352602083019190915201610380565b6103fc7f000000000000000000000000000000000000000000000000000000000000000081565b61037660035481565b61052c610527366004615831565b611515565b604051610380929190615cd5565b61034e610548366004615bc0565b61168c565b61056061055b366004615831565b61179b565b6040519015158152602001610380565b61034e61057e3660046158fb565b611802565b61037660145481565b61037661059a366004615995565b6118bb565b61037660045481565b6103766105b63660046158fb565b611950565b61037660155481565b61034e6105d2366004615b90565b611a8b565b61037660135481565b6105606105ee366004615995565b600160209081526000928352604080842090915290825290205460ff1681565b61037660165481565b61034e610625366004615b6e565b611b23565b610376610638366004615831565b611bbf565b61034e61064b366004615b90565b611be7565b61037660065481565b610376610667366004615831565b60116020526000908152604090205481565b6103766106873660046159ed565b611c7f565b6106ce61069a366004615831565b601260205260009081526040902080546001820154600283015460039093015491926001600160a01b039182169290911684565b604080519485526001600160a01b039384166020860152840191909152166060820152608001610380565b610376610707366004615831565b600a6020526000908152604090205481565b6104d4610727366004615b90565b612408565b61034e61073a366004615b90565b612436565b61034e61074d366004615b90565b6124ce565b61034e6107603660046158fb565b612566565b610778610773366004615831565b61260e565b60405161038093929190615d03565b61034e610795366004615be4565b612958565b61034e6107a8366004615831565b612a63565b6103766107bb366004615831565b60096020526000908152604090205481565b6103fc6107db366004615b90565b6000602081905290815260409020546001600160a01b031681565b610376610804366004615869565b6001600160a01b0391821660009081526008602090815260408083209390941682526005909201909152205490565b61034e610841366004615b90565b612b79565b61034e610854366004615b90565b612ccf565b6040517fb4ed0b6d000000000000000000000000000000000000000000000000000000008152600481018290527f00000000000000000000000000000000000000000000000000000000000000006001600160a01b03169063b4ed0b6d9060240160206040518083038186803b1580156108d257600080fd5b505afa1580156108e6573d6000803e3d6000fd5b505050506040513d601f19601f8201168201806040525081019061090a919061584d565b60009182526020829052604090912080547fffffffffffffffffffffffff0000000000000000000000000000000000000000166001600160a01b03909216919091179055565b60005b8082511115610a4457600082828151811061097e57634e487b7160e01b600052603260045260246000fd5b60200260200101519050600060126000836001600160a01b03166001600160a01b03168152602001908152602001600020905060145481600001546109c39190615dd4565b431115610a2f576109d381612d67565b506001600160a01b03821660009081526012602052604081208181556001810180547fffffffffffffffffffffffff00000000000000000000000000000000000000009081169091556002820192909255600301805490911690555b50508080610a3c90615fc7565b915050610953565b5050565b60007f00000000000000000000000000000000000000000000000000000000000000006001600160a01b0316836001600160a01b03161415610a8b575080610ae1565b6001600160a01b0383166000908152600260205260409020600180820154610ab291615dd4565b610abe6006600a615e52565b610ac9906064615f3e565b610ad39085615f3e565b610add9190615dec565b9150505b92915050565b33610af061302a565b6001600160a01b03161480610b14575033610b096130c2565b6001600160a01b0316145b610b7f576040517f08c379a000000000000000000000000000000000000000000000000000000000815260206004820152601e60248201527f526f6c65733a2063616c6c6572206973206e6f7420746865206f776e6572000060448201526064015b60405180910390fd5b601655565b33610b8d61302a565b6001600160a01b03161480610bb1575033610ba66130c2565b6001600160a01b0316145b610c17576040517f08c379a000000000000000000000000000000000000000000000000000000000815260206004820152601e60248201527f526f6c65733a2063616c6c6572206973206e6f7420746865206f776e657200006044820152606401610b76565b600755565b33610c2561302a565b6001600160a01b03161480610c49575033610c3e6130c2565b6001600160a01b0316145b80610c6f57503360009081526001602090815260408083206009845290915290205460ff165b610cfb576040517f08c379a000000000000000000000000000000000000000000000000000000000815260206004820152603960248201527f43616c6c6572206973206e6f7420746865206f776e65722c206578656375746f60448201527f72206f7220617574686f72697a656420616374697661746f72000000000000006064820152608401610b76565b6001600160a01b03909116600090815260096020526040902055565b3360009081526001602090815260408083206004845290915290205460ff16610d9c576040517f08c379a000000000000000000000000000000000000000000000000000000000815260206004820152601d60248201527f43616c6c696e6720636f6e74722e206e6f7420617574686f72697a65640000006044820152606401610b76565b6001600160a01b0385166000908152600860205260409020610dbf818686613133565b610dca8184846131f8565b610dd5818484613319565b4390555050505050565b6001600160a01b0381166000908152600860205260408120610e0b60018201600283016003840161346d565b9150505b919050565b33610e1d61302a565b6001600160a01b03161480610e41575033610e366130c2565b6001600160a01b0316145b80610e6757503360009081526001602090815260408083206009845290915290205460ff165b610ef3576040517f08c379a000000000000000000000000000000000000000000000000000000000815260206004820152603960248201527f43616c6c6572206973206e6f7420746865206f776e65722c206578656375746f60448201527f72206f7220617574686f72697a656420616374697661746f72000000000000006064820152608401610b76565b600081600081518110610f1657634e487b7160e01b600052603260045260246000fd5b602002602001015190507f00000000000000000000000000000000000000000000000000000000000000006001600160a01b0316816001600160a01b0316146111c8576001600160a01b03811660009081526002602081815260409092206003810186905584519092610f8f92840191908601906156ec565b50825167ffffffffffffffff811115610fb857634e487b7160e01b600052604160045260246000fd5b604051908082528060200260200182016040528015610fe1578160200160208202803683370190505b508051610ff89160048401916020909101906156ec565b506000805b806001865161100c9190615f7b565b111561109857600081600287516110239190615f7b565b61102d9190615f7b565b611038906008615f3e565b87836020811061105857634e487b7160e01b600052603260045260246000fd5b1a60f81b7fff0000000000000000000000000000000000000000000000000000000000000016901c9290921791508061109081615fc7565b915050610ffd565b506005820181905560005b8085511115611162578460018287516110bc9190615f7b565b6110c69190615f7b565b815181106110e457634e487b7160e01b600052603260045260246000fd5b602002602001015183600401828154811061110f57634e487b7160e01b600052603260045260246000fd5b600091825260209091200180547fffffffffffffffffffffffff0000000000000000000000000000000000000000166001600160a01b03929092169190911790558061115a81615fc7565b9150506110a3565b5060006111866111746006600a615e52565b61117f906064615f3e565b87876134f1565b5090506000816000815181106111ac57634e487b7160e01b600052603260045260246000fd5b602002602001015190506111c384826103e8613823565b505050505b505050565b33600090815260016020908152604080832060048452909152812054819060ff16611254576040517f08c379a000000000000000000000000000000000000000000000000000000000815260206004820181905260248201527f43616c6c696e6720636f6e74722e206e6f7420616e20617574686f72697a65646044820152606401610b76565b6001600160a01b038088166000908152600860209081526040808320938916835260028401909152902054156112e5576001600160a01b03861660009081526002820160205260409020546112aa90859061386c565b92506112b7818785613884565b6001600160a01b0386166000908152600a6020526040812080548592906112df908490615f7b565b90915550505b6001600160a01b038716600090815260058201602052604090205485908082111561131a579050806113178188615f7b565b93505b8387111561135a5761132c8488615f7b565b6001600160a01b038a166000908152600b602052604081208054909190611354908490615f7b565b90915550505b8486111561139a5761136c8587615f7b565b6001600160a01b0389166000908152600b602052604081208054909190611394908490615dd4565b90915550505b6001600160a01b0388166000908152600b60209081526040808320546009909252909120541015611427576040517f08c379a000000000000000000000000000000000000000000000000000000000815260206004820152601860248201527f4578636565647320676c6f62616c20746f6b656e2063617000000000000000006044820152606401610b76565b61143d838a8a856114388a8c615f7b565b613b89565b8315611508576001600160a01b0389166000908152600a60205260408120805486929061146b908490615dd4565b90915550506001600160a01b0389166000908152600a602090815260408083205460099092529091205410156114fd576040517f08c379a000000000000000000000000000000000000000000000000000000000815260206004820152601860248201527f4578636565647320676c6f62616c20746f6b656e2063617000000000000000006044820152606401610b76565b611508838a86613bdc565b5050509550959350505050565b6001600160a01b03811660009081526008602090815260409182902060048101805484518185028101850190955280855260609485949092919083018282801561158857602002820191906000526020600020905b81546001600160a01b0316815260019091019060200180831161156a575b5050506004840154929550505067ffffffffffffffff8111156115bb57634e487b7160e01b600052604160045260246000fd5b6040519080825280602002602001820160405280156115e4578160200160208202803683370190505b50915060005b808451111561168557600084828151811061161557634e487b7160e01b600052603260045260246000fd5b60200260200101519050826005016000826001600160a01b03166001600160a01b031681526020019081526020016000205484838151811061166757634e487b7160e01b600052603260045260246000fd5b6020908102919091010152508061167d81615fc7565b9150506115ea565b5050915091565b6040517f93552a3d000000000000000000000000000000000000000000000000000000008152600481018390526001600160a01b0382811660248301527f000000000000000000000000000000000000000000000000000000000000000016906393552a3d9060440160206040518083038186803b15801561170d57600080fd5b505afa158015611721573d6000803e3d6000fd5b505050506040513d601f19601f820116820180604052508101906117459190615abb565b6001600160a01b039190911660009081526001602090815260408083209483529390529190912080547fffffffffffffffffffffffffffffffffffffffffffffffffffffffffffffff0016911515919091179055565b6001600160a01b0381166000908152600860205260408120816117c860018301600284016003850161346d565b905060006117dc8360040184600501613e96565b9050816007546117ec9190615f3e565b6117f7826064615f3e565b101595945050505050565b3360009081526001602090815260408083206004845290915290205460ff16611887576040517f08c379a000000000000000000000000000000000000000000000000000000000815260206004820152601d60248201527f43616c6c696e6720636f6e74722e206e6f7420617574686f72697a65640000006044820152606401610b76565b6001600160a01b03831660009081526008602052604090206118aa818484613f21565b6118b58184846131f8565b50505050565b60007f00000000000000000000000000000000000000000000000000000000000000006001600160a01b0316836001600160a01b031614156118fe575080610ae1565b6001600160a01b038316600090815260026020526040902060035481546119259043615f7b565b118061193357506001810154155b156119415761194181613ffd565b600180820154610ab291615dd4565b3360009081526001602090815260408083206004845290915281205460ff166119d5576040517f08c379a000000000000000000000000000000000000000000000000000000000815260206004820152601d60248201527f43616c6c696e6720636f6e74722e206e6f7420617574686f72697a65640000006044820152606401610b76565b6001600160a01b03808516600090815260086020908152604080832043815593871683526002840190915290205415611a69576001600160a01b0384166000908152600282016020526040902054611a2e90849061386c565b9150611a3b818584613884565b6001600160a01b0384166000908152600a602052604081208054849290611a63908490615f7b565b90915550505b6000611a758385615f7b565b9050611a82828683613133565b50509392505050565b33611a9461302a565b6001600160a01b03161480611ab8575033611aad6130c2565b6001600160a01b0316145b611b1e576040517f08c379a000000000000000000000000000000000000000000000000000000000815260206004820152601e60248201527f526f6c65733a2063616c6c6572206973206e6f7420746865206f776e657200006044820152606401610b76565b600455565b33611b2c61302a565b6001600160a01b03161480611b50575033611b456130c2565b6001600160a01b0316145b611bb6576040517f08c379a000000000000000000000000000000000000000000000000000000000815260206004820152601e60248201527f526f6c65733a2063616c6c6572206973206e6f7420746865206f776e657200006044820152606401610b76565b61ffff16600355565b6001600160a01b0381166000908152600860205260408120610e0b6004820160058301613e96565b33611bf061302a565b6001600160a01b03161480611c14575033611c096130c2565b6001600160a01b0316145b611c7a576040517f08c379a000000000000000000000000000000000000000000000000000000000815260206004820152601e60248201527f526f6c65733a2063616c6c6572206973206e6f7420746865206f776e657200006044820152606401610b76565b601455565b6000333214611d10576040517f08c379a000000000000000000000000000000000000000000000000000000000815260206004820152603a60248201527f43757272656e746c79206e6f20696e7465726d656469617269657320616c6c6f60448201527f77656420666f7220746869732066756e6374696f6e2063616c6c0000000000006064820152608401610b76565b6000611d4d606b60009081526020527f2dc7a963308417ad45132da282495eb244f38a7db03940a4d808be607669c622546001600160a01b031690565b6040517f7b23cbce0000000000000000000000000000000000000000000000000000000081523360048201526001600160a01b039190911690637b23cbce90602401602060405180830381600087803b158015611da957600080fd5b505af1158015611dbd573d6000803e3d6000fd5b505050506040513d601f19601f82011682018060405250810190611de19190615abb565b905060008180611df45750611df46140b8565b9050611e008483614198565b92506000611e0c61471f565b90506000611e18614801565b9050600060646015546064611e2d9190615dd4565b611e379084615f3e565b611e419190615dec565b905082811115611e88577f3555ffae7677eb42103f0b9e11b61c758f452fae446684dec7a363dd38ab58fc611e768483615f7b565b60405190815260200160405180910390a15b600084611f3957606b60009081526020527f2dc7a963308417ad45132da282495eb244f38a7db03940a4d808be607669c622546001600160a01b03166001600160a01b0316631a38de1d6040518163ffffffff1660e01b8152600401602060405180830381600087803b158015611efe57600080fd5b505af1158015611f12573d6000803e3d6000fd5b505050506040513d601f19601f82011682018060405250810190611f36919061584d565b90505b60005b60105481101561219c57600060108281548110611f6957634e487b7160e01b600052603260045260246000fd5b60009182526020808320909101546001600160a01b031680835260089091526040822090925090611f99826148dc565b90506000611fa6836148ee565b90506000606460155483611fba9190615f3e565b611fc49190615dec565b9050611fd0818e615dd4565b9c508a61203d576001600160a01b03858116600090815260126020526040902060028101839055600381018054337fffffffffffffffffffffffff000000000000000000000000000000000000000091821617909155438255600190910180549091169189169190911790555b6120478282615dd4565b83111561213f57606560009081526020527f4a7203f705e51df4a56139a9b86b4a0970bed7ab7a3446eaffe2289989c1645c546001600160a01b031663d9caed127f000000000000000000000000000000000000000000000000000000000000000087846120b58789615f7b565b6120bf9190615f7b565b6040517fffffffff0000000000000000000000000000000000000000000000000000000060e086901b1681526001600160a01b0393841660048201529290911660248301526044820152606401600060405180830381600087803b15801561212657600080fd5b505af115801561213a573d6000803e3d6000fd5b505050505b6040516001600160a01b03861681527f1d2cc4c8661a04a00b4e727426220501b36d85bb330947642c2d4320667028cf9060200160405180910390a161218484614904565b5050505050808061219490615fc7565b915050611f3c565b5060648760135460636121af9190615f3e565b6121b99190615dd4565b6121c39190615dec565b60135584156122a557606560009081526020527f4a7203f705e51df4a56139a9b86b4a0970bed7ab7a3446eaffe2289989c1645c546001600160a01b03166040517fd9caed120000000000000000000000000000000000000000000000000000000081526001600160a01b037f000000000000000000000000000000000000000000000000000000000000000081166004830152336024830152604482018a9052919091169063d9caed1290606401600060405180830381600087803b15801561228c57600080fd5b505af11580156122a0573d6000803e3d6000fd5b505050505b60006122e2606b60009081526020527f2dc7a963308417ad45132da282495eb244f38a7db03940a4d808be607669c622546001600160a01b031690565b6001600160a01b0316631a38de1d6040518163ffffffff1660e01b8152600401602060405180830381600087803b15801561231c57600080fd5b505af1158015612330573d6000803e3d6000fd5b505050506040513d601f19601f82011682018060405250810190612354919061584d565b905086156123ce576001600160a01b0381166000908152601160205260409020548810156123af576001600160a01b038116600090815260116020526040812080548a92906123a4908490615f7b565b909155506123c99050565b6001600160a01b0381166000908152601160205260408120555b6123fc565b6001600160a01b038116600090815260116020526040812080548a92906123f6908490615dd4565b90915550505b50505050505050919050565b6005818154811061241857600080fd5b60009182526020909120600290910201805460019091015490915082565b3361243f61302a565b6001600160a01b031614806124635750336124586130c2565b6001600160a01b0316145b6124c9576040517f08c379a000000000000000000000000000000000000000000000000000000000815260206004820152601e60248201527f526f6c65733a2063616c6c6572206973206e6f7420746865206f776e657200006044820152606401610b76565b601555565b336124d761302a565b6001600160a01b031614806124fb5750336124f06130c2565b6001600160a01b0316145b612561576040517f08c379a000000000000000000000000000000000000000000000000000000000815260206004820152601e60248201527f526f6c65733a2063616c6c6572206973206e6f7420746865206f776e657200006044820152606401610b76565b600655565b3360009081526001602090815260408083206004845290915290205460ff166125eb576040517f08c379a000000000000000000000000000000000000000000000000000000000815260206004820152601c60248201527f43616c6c696e6720636f6e7472206e6f7420617574686f72697a6564000000006044820152606401610b76565b6001600160a01b03831660009081526008602052604090206118b5818484613319565b6001600160a01b038116600090815260086020908152604091829020600181018054845181850281018501909552808552606094859485949391929083018282801561268357602002820191906000526020600020905b81546001600160a01b03168152600190910190602001808311612665575b5050506001840154929650505067ffffffffffffffff8111156126b657634e487b7160e01b600052604160045260246000fd5b6040519080825280602002602001820160405280156126df578160200160208202803683370190505b50925060005b808551111561294f57600085828151811061271057634e487b7160e01b600052603260045260246000fd5b60200260200101519050612755606660009081526020527f422cccb7cea5c0e46f340bb7b21b81debac329f72e31669c20ff0f3a05cc2b5b546001600160a01b031690565b6001600160a01b03828116600081815260028701602090815260408083205460038a01909252918290205491517f76668b670000000000000000000000000000000000000000000000000000000081526004810191909152602481019290925260448201529116906376668b679060640160206040518083038186803b1580156127de57600080fd5b505afa1580156127f2573d6000803e3d6000fd5b505050506040513d601f19601f820116820180604052508101906128169190615ba8565b85838151811061283657634e487b7160e01b600052603260045260246000fd5b60200260200101818152505061287d606660009081526020527f422cccb7cea5c0e46f340bb7b21b81debac329f72e31669c20ff0f3a05cc2b5b546001600160a01b031690565b6040517ff51dfe7a0000000000000000000000000000000000000000000000000000000081526001600160a01b038381166004830152919091169063f51dfe7a9060240160206040518083038186803b1580156128d957600080fd5b505afa1580156128ed573d6000803e3d6000fd5b505050506040513d601f19601f820116820180604052508101906129119190615ba8565b84838151811061293157634e487b7160e01b600052603260045260246000fd5b6020908102919091010152508061294781615fc7565b9150506126e5565b50509193909250565b3361296161302a565b6001600160a01b0316148061298557503361297a6130c2565b6001600160a01b0316145b6129eb576040517f08c379a000000000000000000000000000000000000000000000000000000000815260206004820152601e60248201527f526f6c65733a2063616c6c6572206973206e6f7420746865206f776e657200006044820152606401610b76565b60408051808201909152918252602082019081526005805460018101825560009190915291517f036b6384b5eca791c62761152d0c79bb0604c104a5fb6f4eb0703f3154bb3db0600290930292830155517f036b6384b5eca791c62761152d0c79bb0604c104a5fb6f4eb0703f3154bb3db190910155565b3360009081526001602090815260408083206004845290915290205460ff16612ae8576040517f08c379a000000000000000000000000000000000000000000000000000000000815260206004820152601d60248201527f43616c6c696e6720636f6e74722e206e6f7420617574686f72697a65640000006044820152606401610b76565b6001600160a01b0381166000908152600860205260409020612b09816148ee565b15612b70576040517f08c379a000000000000000000000000000000000000000000000000000000000815260206004820152601a60248201527f43616e2774206c69717569646174653a20626f72726f77696e670000000000006044820152606401610b76565b610a4481614904565b33612b8261302a565b6001600160a01b03161480612ba6575033612b9b6130c2565b6001600160a01b0316145b80612bf4575033612be96103e960009081526020527f236f539bf6e1b3b15a335e3cd157d360bc4be88c071635c19ba8a82b4f665e9f546001600160a01b031690565b6001600160a01b0316145b612c80576040517f08c379a000000000000000000000000000000000000000000000000000000000815260206004820152603860248201527f43616c6c6572206973206e6f7420746865206f776e65722c206578656375746f60448201527f72206f7220617574686f72697a65642064697361626c657200000000000000006064820152608401610b76565b600060058281548110612ca357634e487b7160e01b600052603260045260246000fd5b90600052602060002090600202019050600081600101541115610a445760018101546004555460035550565b33612cd861302a565b6001600160a01b03161480612cfc575033612cf16130c2565b6001600160a01b0316145b612d62576040517f08c379a000000000000000000000000000000000000000000000000000000000815260206004820152601e60248201527f526f6c65733a2063616c6c6572206973206e6f7420746865206f776e657200006044820152606401610b76565b600c55565b600281015460009015610e0f578154600090612d8f90612d879043615f7b565b60145461386c565b90506000601454828560020154612da69190615f3e565b612db09190615dec565b9050612ded606560009081526020527f4a7203f705e51df4a56139a9b86b4a0970bed7ab7a3446eaffe2289989c1645c546001600160a01b031690565b60038501546040517fd9caed120000000000000000000000000000000000000000000000000000000081526001600160a01b037f00000000000000000000000000000000000000000000000000000000000000008116600483015291821660248201526044810184905291169063d9caed1290606401600060405180830381600087803b158015612e7d57600080fd5b505af1158015612e91573d6000803e3d6000fd5b505050506000612ed2606b60009081526020527f2dc7a963308417ad45132da282495eb244f38a7db03940a4d808be607669c622546001600160a01b031690565b9050600060135483836001600160a01b0316630ad691506040518163ffffffff1660e01b815260040160206040518083038186803b158015612f1357600080fd5b505afa158015612f27573d6000803e3d6000fd5b505050506040513d601f19601f82011682018060405250810190612f4b9190615ba8565b612f559190615f3e565b612f5f9190615dec565b600187015460038801546040517f0a45bc1b0000000000000000000000000000000000000000000000000000000081526001600160a01b039283166004820152602481018490529082166044820152919250831690630a45bc1b90606401602060405180830381600087803b158015612fd757600080fd5b505af1158015612feb573d6000803e3d6000fd5b505050506040513d601f19601f8201168201806040525081019061300f9190615ba8565b508286600201546130209190615f7b565b9695505050505050565b60007f00000000000000000000000000000000000000000000000000000000000000006001600160a01b0316638da5cb5b6040518163ffffffff1660e01b815260040160206040518083038186803b15801561308557600080fd5b505afa158015613099573d6000803e3d6000fd5b505050506040513d601f19601f820116820180604052508101906130bd919061584d565b905090565b60007f00000000000000000000000000000000000000000000000000000000000000006001600160a01b031663c34c08e56040518163ffffffff1660e01b8152600401602060405180830381600087803b15801561311f57600080fd5b505af1158015613099573d6000803e3d6000fd5b61313e838383613f21565b6001600160a01b0382166000908152600b602052604081208054839290613166908490615dd4565b90915550506001600160a01b0382166000908152600b602090815260408083205460099092529091205410156111c8576040517f08c379a000000000000000000000000000000000000000000000000000000000815260206004820152601860248201527f4578636565647320676c6f62616c20746f6b656e2063617000000000000000006044820152606401610b76565b6001600160a01b0382166000908152600a602052604081208054839290613220908490615dd4565b90915550506001600160a01b0382166000908152600b60205260408120805483929061324d908490615dd4565b90915550506001600160a01b0382166000908152600a6020908152604080832054600990925290912054108015906132a857506001600160a01b0382166000908152600b602090815260408083205460099092529091205410155b61330e576040517f08c379a000000000000000000000000000000000000000000000000000000000815260206004820152601860248201527f4578636565647320676c6f62616c20746f6b656e2063617000000000000000006044820152606401610b76565b6111c8838383613bdc565b600c5483546133289190615dd4565b4311613390576040517f08c379a000000000000000000000000000000000000000000000000000000000815260206004820181905260248201527f4e6f207769746864726177616c20736f6f6e206166746572206465706f7369746044820152606401610b76565b6001600160a01b0382166000908152600b6020526040812080548392906133b8908490615f7b565b90915550506001600160a01b03821660009081526005840160205260409020546133e3908290615f7b565b6001600160a01b038316600090815260058501602052604090205561340783614ab2565b6111c8576040517f08c379a000000000000000000000000000000000000000000000000000000000815260206004820152601460248201527f496e73756666696369656e742062616c616e63650000000000000000000000006044820152606401610b76565b8254600090815b81811015611a8257600086828154811061349e57634e487b7160e01b600052603260045260246000fd5b60009182526020808320909101546001600160a01b0316808352908890526040909120549091506134d190829087614afe565b6134db9085615dd4565b93505080806134e990615fc7565b915050613474565b606080600283511015613560576040517f08c379a000000000000000000000000000000000000000000000000000000000815260206004820152601460248201527f746f6b656e207061746820746f6f2073686f72740000000000000000000000006044820152606401610b76565b825167ffffffffffffffff81111561358857634e487b7160e01b600052604160045260246000fd5b6040519080825280602002602001820160405280156135b1578160200160208202803683370190505b5091508482600184516135c49190615f7b565b815181106135e257634e487b7160e01b600052603260045260246000fd5b602002602001018181525050600183516135fc9190615f7b565b67ffffffffffffffff81111561362257634e487b7160e01b600052604160045260246000fd5b60405190808252806020026020018201604052801561364b578160200160208202803683370190505b50905060006001845161365e9190615f7b565b90505b801561381a57600084613675600184615f7b565b8151811061369357634e487b7160e01b600052603260045260246000fd5b6020026020010151905060008583815181106136bf57634e487b7160e01b600052603260045260246000fd5b602002602001015190506000876001856136d99190615f7b565b602081106136f757634e487b7160e01b600052603260045260246000fd5b1a60f81b7fff0000000000000000000000000000000000000000000000000000000000000016156137315761372c8383614c19565b61373b565b61373b8383614d40565b9050808561374a600187615f7b565b8151811061376857634e487b7160e01b600052603260045260246000fd5b60200260200101906001600160a01b031690816001600160a01b031681525050600080613796838686614e2c565b915091506137cc8887815181106137bd57634e487b7160e01b600052603260045260246000fd5b60200260200101518383614f09565b886137d8600189615f7b565b815181106137f657634e487b7160e01b600052603260045260246000fd5b6020026020010181815250505050505050808061381290615f92565b915050613661565b50935093915050565b6103e86138308284615f3e565b61383c836103e8615f7b565b856001015461384b9190615f3e565b6138559190615dd4565b61385f9190615dec565b8360010181905550505050565b60008183111561387d575080610ae1565b5081610ae1565b6000806138c2606660009081526020527f422cccb7cea5c0e46f340bb7b21b81debac329f72e31669c20ff0f3a05cc2b5b546001600160a01b031690565b6001600160a01b03858116600081815260028901602090815260408083205460038c01909252918290205491517fe695fa6800000000000000000000000000000000000000000000000000000000815260048101919091526024810192909252604482015291169063e695fa68906064016040805180830381600087803b15801561394c57600080fd5b505af1158015613960573d6000803e3d6000fd5b505050506040513d601f19601f820116820180604052508101906139849190615c05565b909250905060006139958484615f7b565b6001600160a01b0386166000908152600288016020908152604080832084905560058a019091529020549091506139cd908590615f7b565b6001600160a01b03861660009081526005880160205260409020558015613a10576001600160a01b03851660009081526003870160205260409020829055613b81565b6001600160a01b038516600090815260038701602052604081208190556001870154815b80821115613b04576000896001018281548110613a6157634e487b7160e01b600052603260045260246000fd5b6000918252602090912001546001600160a01b0390811691508916811415613a8c5760019350613af1565b8315613af157808a600101600184613aa49190615f7b565b81548110613ac257634e487b7160e01b600052603260045260246000fd5b9060005260206000200160006101000a8154816001600160a01b0302191690836001600160a01b031602179055505b5080613afc81615fc7565b915050613a34565b5087600101805480613b2657634e487b7160e01b600052603160045260246000fd5b60008281526020902081017fffffffffffffffffffffffffffffffffffffffffffffffffffffffffffffffff90810180547fffffffffffffffffffffffff000000000000000000000000000000000000000016905501905550505b505050505050565b6001600160a01b0384166000908152600586016020526040902054613baf908390615f7b565b6001600160a01b0385166000908152600587016020526040902055613bd5858483613f21565b5050505050565b6001600160a01b0382166000908152600384016020526040902054613d43576001838101805491820181556000908152602090200180547fffffffffffffffffffffffff0000000000000000000000000000000000000000166001600160a01b038416179055613c7d606660009081526020527f422cccb7cea5c0e46f340bb7b21b81debac329f72e31669c20ff0f3a05cc2b5b546001600160a01b031690565b6040517f46c87f800000000000000000000000000000000000000000000000000000000081526001600160a01b03848116600483015291909116906346c87f8090602401602060405180830381600087803b158015613cdb57600080fd5b505af1158015613cef573d6000803e3d6000fd5b505050506040513d601f19601f82011682018060405250810190613d139190615ba8565b6001600160a01b038316600090815260038501602090815260408083209390935560028601905220819055613e8d565b600080613d81606660009081526020527f422cccb7cea5c0e46f340bb7b21b81debac329f72e31669c20ff0f3a05cc2b5b546001600160a01b031690565b6001600160a01b03858116600081815260028901602090815260408083205460038c01909252918290205491517fe695fa6800000000000000000000000000000000000000000000000000000000815260048101919091526024810192909252604482015291169063e695fa68906064016040805180830381600087803b158015613e0b57600080fd5b505af1158015613e1f573d6000803e3d6000fd5b505050506040513d601f19601f82011682018060405250810190613e439190615c05565b6001600160a01b038616600090815260038801602052604090208190559092509050613e6f8383615dd4565b6001600160a01b038516600090815260028701602052604090205550505b61340783614ab2565b8154600090815b81811015613f19576000858281548110613ec757634e487b7160e01b600052603260045260246000fd5b60009182526020808320909101546001600160a01b031680835290879052604090912054909150613ef9908290610a48565b613f039085615dd4565b9350508080613f1190615fc7565b915050613e9d565b505092915050565b6001600160a01b038216600090815260068401602052604090205460ff16613fc957600483018054600180820183556000928352602080842090920180547fffffffffffffffffffffffff0000000000000000000000000000000000000000166001600160a01b038716908117909155835260068601909152604090912080547fffffffffffffffffffffffffffffffffffffffffffffffffffffffffffffff001690911790555b6001600160a01b038216600090815260058401602052604081208054839290613ff3908490615dd4565b9091555050505050565b600061408061400e6006600a615e52565b614019906064615f3e565b83600301548460020180548060200260200160405190810160405280929190818152602001828054801561407657602002820191906000526020600020905b81546001600160a01b03168152600190910190602001808311614058575b50505050506134f1565b509050610a4482826000815181106140a857634e487b7160e01b600052603260045260246000fd5b6020026020010151600454613823565b6000806140f6606b60009081526020527f2dc7a963308417ad45132da282495eb244f38a7db03940a4d808be607669c622546001600160a01b031690565b6001600160a01b031663b0411f466040518163ffffffff1660e01b8152600401604080518083038186803b15801561412d57600080fd5b505afa158015614141573d6000803e3d6000fd5b505050506040513d601f19601f8201168201806040525081019061416591906159c0565b5090506013546016546141789190615f3e565b6001600160a01b0390911660009081526011602052604090205411905090565b6040805160008082526020820192839052905190916141ba91600e91906156ec565b5060408051600081526020810191829052516141d891600f916156ec565b5060408051600081526020810191829052516141f6916010916156ec565b5060005b808451111561471857600084828151811061422557634e487b7160e01b600052603260045260246000fd5b60200260200101519050600060086000836001600160a01b03166001600160a01b0316815260200190815260200160002090506142618161505a565b156146ce576010805460018101825560009182527f1b6847dc741a1b0cd08d278845f9d819d87b734759afb55fe2de5cb82a9ae6720180547fffffffffffffffffffffffff0000000000000000000000000000000000000000166001600160a01b0385161790556004820154905b808211156144035760008360040182815481106142fc57634e487b7160e01b600052603260045260246000fd5b60009182526020808320909101546001600160a01b0316808352600d909152604090912060028101549192509043146143b8576001600160a01b0382166000818152600587016020526040812054600180850191909155818455436002850155600e805491820181559091527fbb7b4a454dc3493923482f07822329ed19e8244eff582cc204f8554c3620c3fd0180547fffffffffffffffffffffffff00000000000000000000000000000000000000001690911790556143ee565b6001600160a01b0382166000908152600586016020526040812054600183018054919290916143e8908490615dd4565b90915550505b505080806143fb90615fc7565b9150506142cf565b5050600181015460005b808211156146cb57600083600101828154811061443a57634e487b7160e01b600052603260045260246000fd5b60009182526020808320909101546001600160a01b0316808352600d909152604082209092509061449c606660009081526020527f422cccb7cea5c0e46f340bb7b21b81debac329f72e31669c20ff0f3a05cc2b5b546001600160a01b031690565b6001600160a01b03848116600081815260028a01602090815260408083205460038d01909252918290205491517fe695fa6800000000000000000000000000000000000000000000000000000000815260048101919091526024810192909252604482015291169063e695fa68906064016040805180830381600087803b15801561452657600080fd5b505af115801561453a573d6000803e3d6000fd5b505050506040513d601f19601f8201168201806040525081019061455e9190615c05565b50905061459c606660009081526020527f422cccb7cea5c0e46f340bb7b21b81debac329f72e31669c20ff0f3a05cc2b5b546001600160a01b031690565b6040517f2a6a897b0000000000000000000000000000000000000000000000000000000081526001600160a01b038581166004830152602482018490529190911690632a6a897b90604401600060405180830381600087803b15801561460157600080fd5b505af1158015614615573d6000803e3d6000fd5b505050504382600201541461469b5760006001838101829055828455436002850155600f805491820181559091527f8d1108e10bcb7c27dddfc02ed9d693a074039d026cf4ea4240b40f7d581ac8020180547fffffffffffffffffffffffff0000000000000000000000000000000000000000166001600160a01b0385161790556146b5565b808260000160008282546146af9190615dd4565b90915550505b50505080806146c390615fc7565b91505061440d565b50505b6001600160a01b03821660009081526012602052604090208515614702576146f581612d67565b6146ff9086615dd4565b94505b505050808061471090615fc7565b9150506141fa565b5092915050565b600e54600090815b808211156147f0576000600e828154811061475257634e487b7160e01b600052603260045260246000fd5b60009182526020808320909101546001600160a01b0316808352600d909152604090912080546001820154929350909111156147db578054600182015460009161479b91615f7b565b90506147a78382615097565b6147b19087615dd4565b6001600160a01b0384166000908152600d6020526040812081815560018101829055600201559550505b505080806147e890615fc7565b915050614727565b506147fd600e6000615765565b5090565b600f54600090815b808211156148cf576000600f828154811061483457634e487b7160e01b600052603260045260246000fd5b60009182526020808320909101546001600160a01b0316808352600d909152604090912060018101548154929350909111156148ba5761488782826001015483600001546148829190615f7b565b615221565b6148919086615dd4565b6001600160a01b0383166000908152600d60205260408120818155600181018290556002015594505b505080806148c790615fc7565b915050614809565b506147fd600f6000615765565b6000610ae182600401836005016153b8565b6000610ae182600101836002018460030161543b565b600181015460005b808211156149b957600083600101828154811061493957634e487b7160e01b600052603260045260246000fd5b60009182526020808320909101546001600160a01b0316808352600287018252604080842054600a90935283208054919450919290614979908490615f7b565b90915550506001600160a01b03166000908152600284016020908152604080832083905560038601909152812055806149b181615fc7565b91505061490c565b5050600481015460005b80821115614a955760008360040182815481106149f057634e487b7160e01b600052603260045260246000fd5b60009182526020808320909101546001600160a01b0316808352600587018252604080842054600b90935283208054919450919290614a30908490615f7b565b90915550506001600160a01b03166000908152600584016020908152604080832083905560068601909152902080547fffffffffffffffffffffffffffffffffffffffffffffffffffffffffffffff0016905580614a8d81615fc7565b9150506149c3565b50614aa4600183016000615765565b610a44600483016000615765565b600080614abe836148ee565b90506000614acb846148dc565b905060065482614adb9190615f3e565b6064600654614aea9190615f7b565b614af49083615f3e565b1015949350505050565b600080614b3c606660009081526020527f422cccb7cea5c0e46f340bb7b21b81debac329f72e31669c20ff0f3a05cc2b5b546001600160a01b031690565b6040517f14189db20000000000000000000000000000000000000000000000000000000081526001600160a01b03878116600483015291909116906314189db29060240160206040518083038186803b158015614b9857600080fd5b505afa158015614bac573d6000803e3d6000fd5b505050506040513d601f19601f82011682018060405250810190614bd09190615ba8565b6001600160a01b03861660009081526020859052604081205491925090614bf78387615f3e565b614c019190615dec565b9050614c0d8682610a48565b925050505b9392505050565b6000806000614c2885856154bf565b60408051606084811b7fffffffffffffffffffffffffffffffffffffffff0000000000000000000000009081166020808501919091529185901b166034830152825160288184030181526048830190935282519201919091207fff0000000000000000000000000000000000000000000000000000000000000060688301527fc0aee478e3658e2610c5f7a4a2e1777ce9e4f2ac0000000000000000000000006069830152607d8201527fe18a34eb0e04b04f7a0ac29a6e80748dca96319b42c54d679cb821dca90c6303609d820152919350915060bd015b604080517fffffffffffffffffffffffffffffffffffffffffffffffffffffffffffffffe0818403018152919052805160209091012095945050505050565b6000806000614d4f85856154bf565b60408051606084811b7fffffffffffffffffffffffffffffffffffffffff0000000000000000000000009081166020808501919091529185901b166034830152825160288184030181526048830190935282519201919091207fff0000000000000000000000000000000000000000000000000000000000000060688301527f5c69bee701ef814a2b6a3edd4b1652cb9cc5aa6f0000000000000000000000006069830152607d8201527f96e8ac4277198ff8b6f785478aa9a39f403cb768dd02cbee326c3e7da348845f609d820152919350915060bd01614d01565b6000806000614e3b85856154bf565b509050600080876001600160a01b0316630902f1ac6040518163ffffffff1660e01b815260040160606040518083038186803b158015614e7a57600080fd5b505afa158015614e8e573d6000803e3d6000fd5b505050506040513d601f19601f82011682018060405250810190614eb29190615b20565b506dffffffffffffffffffffffffffff1691506dffffffffffffffffffffffffffff169150826001600160a01b0316876001600160a01b031614614ef7578082614efa565b81815b90999098509650505050505050565b6000808411614f74576040517f08c379a000000000000000000000000000000000000000000000000000000000815260206004820152601a60248201527f494e53554646494349454e545f4f55545055545f414d4f554e540000000000006044820152606401610b76565b600083118015614f845750600082115b615010576040517f08c379a000000000000000000000000000000000000000000000000000000000815260206004820152602860248201527f556e697377617056324c6962726172793a20494e53554646494349454e545f4c60448201527f49515549444954590000000000000000000000000000000000000000000000006064820152608401610b76565b600061501c8585615f3e565b615028906103e8615f3e565b905060006103e56150398786615f7b565b6150439190615f7b565b905061504f8183615dec565b614c0d906001615dd4565b600080615066836148ee565b90506000615073846148dc565b9050816007546150839190615f3e565b61508e826064615f3e565b10949350505050565b60007f00000000000000000000000000000000000000000000000000000000000000006001600160a01b0316836001600160a01b031614156150da575080610ae1565b6001600160a01b03831660009081526002602052604081209061512e606760009081526020527f682158d08466d11c566d5712d4396197fdd67e65be71d83c97ef719ec468867b546001600160a01b031690565b6001600160a01b031663351ae6108560008560030154866002016040518563ffffffff1660e01b81526004016151679493929190615d3c565b600060405180830381600087803b15801561518157600080fd5b505af1158015615195573d6000803e3d6000fd5b505050506040513d6000823e601f3d9081017fffffffffffffffffffffffffffffffffffffffffffffffffffffffffffffffe01682016040526151db9190810190615a28565b9050600081600183516151ee9190615f7b565b8151811061520c57634e487b7160e01b600052603260045260246000fd5b60200260200101519050809350505050610ae1565b60007f00000000000000000000000000000000000000000000000000000000000000006001600160a01b0316836001600160a01b03161415615264575080610ae1565b6001600160a01b0383166000908152600260205260408120906152b8606760009081526020527f682158d08466d11c566d5712d4396197fdd67e65be71d83c97ef719ec468867b546001600160a01b031690565b6001600160a01b03166353d7ff9f857fffffffffffffffffffffffffffffffffffffffffffffffffffffffffffffffff8560030154866004016040518563ffffffff1660e01b81526004016153109493929190615d3c565b600060405180830381600087803b15801561532a57600080fd5b505af115801561533e573d6000803e3d6000fd5b505050506040513d6000823e601f3d9081017fffffffffffffffffffffffffffffffffffffffffffffffffffffffffffffffe01682016040526153849190810190615a28565b9050806000815181106153a757634e487b7160e01b600052603260045260246000fd5b602002602001015192505050610ae1565b8154600090815b81811015613f195760008582815481106153e957634e487b7160e01b600052603260045260246000fd5b60009182526020808320909101546001600160a01b03168083529087905260409091205490915061541b9082906118bb565b6154259085615dd4565b935050808061543390615fc7565b9150506153bf565b8254600090815b81811015611a8257600086828154811061546c57634e487b7160e01b600052603260045260246000fd5b60009182526020808320909101546001600160a01b03168083529088905260409091205490915061549f908290876155dd565b6154a99085615dd4565b93505080806154b790615fc7565b915050615442565b600080826001600160a01b0316846001600160a01b0316141561553e576040517f08c379a000000000000000000000000000000000000000000000000000000000815260206004820152601260248201527f4964656e746963616c20616464726573732100000000000000000000000000006044820152606401610b76565b826001600160a01b0316846001600160a01b03161061555e578284615561565b83835b90925090506001600160a01b0382166155d6576040517f08c379a000000000000000000000000000000000000000000000000000000000815260206004820152600d60248201527f5a65726f206164647265737321000000000000000000000000000000000000006044820152606401610b76565b9250929050565b60008061561b606660009081526020527f422cccb7cea5c0e46f340bb7b21b81debac329f72e31669c20ff0f3a05cc2b5b546001600160a01b031690565b6040517f14189db20000000000000000000000000000000000000000000000000000000081526001600160a01b03878116600483015291909116906314189db29060240160206040518083038186803b15801561567757600080fd5b505afa15801561568b573d6000803e3d6000fd5b505050506040513d601f19601f820116820180604052508101906156af9190615ba8565b6001600160a01b038616600090815260208590526040812054919250906156d68387615f3e565b6156e09190615dec565b9050614c0d86826118bb565b828054828255906000526020600020908101928215615759579160200282015b8281111561575957825182547fffffffffffffffffffffffff0000000000000000000000000000000000000000166001600160a01b0390911617825560209092019160019091019061570c565b506147fd929150615786565b50805460008255906000526020600020908101906157839190615786565b50565b5b808211156147fd5760008155600101615787565b600082601f8301126157ab578081fd5b813560206157c06157bb83615db0565b615d61565b80838252828201915082860187848660051b89010111156157df578586fd5b855b858110156158065781356157f48161602c565b845292840192908401906001016157e1565b5090979650505050505050565b80516dffffffffffffffffffffffffffff81168114610e0f57600080fd5b600060208284031215615842578081fd5b8135614c128161602c565b60006020828403121561585e578081fd5b8151614c128161602c565b6000806040838503121561587b578081fd5b82356158868161602c565b915060208301356158968161602c565b809150509250929050565b600080600080600060a086880312156158b8578081fd5b85356158c38161602c565b945060208601356158d38161602c565b935060408601356158e38161602c565b94979396509394606081013594506080013592915050565b60008060006060848603121561590f578283fd5b833561591a8161602c565b9250602084013561592a8161602c565b929592945050506040919091013590565b600080600080600060a08688031215615952578081fd5b853561595d8161602c565b9450602086013561596d8161602c565b93506040860135925060608601356159848161602c565b949793965091946080013592915050565b600080604083850312156159a7578182fd5b82356159b28161602c565b946020939093013593505050565b600080604083850312156159d2578182fd5b82516159dd8161602c565b6020939093015192949293505050565b6000602082840312156159fe578081fd5b813567ffffffffffffffff811115615a14578182fd5b615a208482850161579b565b949350505050565b60006020808385031215615a3a578182fd5b825167ffffffffffffffff811115615a50578283fd5b8301601f81018513615a60578283fd5b8051615a6e6157bb82615db0565b80828252848201915084840188868560051b8701011115615a8d578687fd5b8694505b83851015615aaf578051835260019490940193918501918501615a91565b50979650505050505050565b600060208284031215615acc578081fd5b81518015158114614c12578182fd5b60008060408385031215615aed578182fd5b82359150602083013567ffffffffffffffff811115615b0a578182fd5b615b168582860161579b565b9150509250929050565b600080600060608486031215615b34578081fd5b615b3d84615813565b9250615b4b60208501615813565b9150604084015163ffffffff81168114615b63578182fd5b809150509250925092565b600060208284031215615b7f578081fd5b813561ffff81168114614c12578182fd5b600060208284031215615ba1578081fd5b5035919050565b600060208284031215615bb9578081fd5b5051919050565b60008060408385031215615bd2578182fd5b8235915060208301356158968161602c565b60008060408385031215615bf6578182fd5b50508035926020909101359150565b60008060408385031215615c17578182fd5b505080516020909101519092909150565b6000815180845260208085019450808401835b83811015615c605781516001600160a01b031687529582019590820190600101615c3b565b509495945050505050565b6000815480845260208085019450838352808320835b83811015615c605781546001600160a01b031687529582019560019182019101615c81565b6000815180845260208085019450808401835b83811015615c6057815187529582019590820190600101615cb9565b600060408252615ce86040830185615c28565b8281036020840152615cfa8185615ca6565b95945050505050565b600060608252615d166060830186615c28565b8281036020840152615d288186615ca6565b905082810360408401526130208185615ca6565b6000858252846020830152836040830152608060608301526130206080830184615c6b565b604051601f82017fffffffffffffffffffffffffffffffffffffffffffffffffffffffffffffffe016810167ffffffffffffffff81118282101715615da857615da8616016565b604052919050565b600067ffffffffffffffff821115615dca57615dca616016565b5060051b60200190565b60008219821115615de757615de7616000565b500190565b600082615e0757634e487b7160e01b81526012600452602481fd5b500490565b80825b6001808611615e1e5750615e49565b818704821115615e3057615e30616000565b80861615615e3d57918102915b9490941c938002615e0f565b94509492505050565b6000614c127fffffffffffffffffffffffffffffffffffffffffffffffffffffffffffffffff8484600082615e8957506001614c12565b81615e9657506000614c12565b8160018114615eac5760028114615eb657615ee3565b6001915050614c12565b60ff841115615ec757615ec7616000565b6001841b915084821115615edd57615edd616000565b50614c12565b5060208310610133831016604e8410600b8410161715615f16575081810a83811115615f1157615f11616000565b614c12565b615f238484846001615e0c565b808604821115615f3557615f35616000565b02949350505050565b6000817fffffffffffffffffffffffffffffffffffffffffffffffffffffffffffffffff0483118215151615615f7657615f76616000565b500290565b600082821015615f8d57615f8d616000565b500390565b600081615fa157615fa1616000565b507fffffffffffffffffffffffffffffffffffffffffffffffffffffffffffffffff0190565b60007fffffffffffffffffffffffffffffffffffffffffffffffffffffffffffffffff821415615ff957615ff9616000565b5060010190565b634e487b7160e01b600052601160045260246000fd5b634e487b7160e01b600052604160045260246000fd5b6001600160a01b038116811461578357600080fdfea26469706673582212205d68291856b9e537825ec6302a72575ef732d46b196d533dbeecdf8e8a675d0f64736f6c63430008030033",
  "linkReferences": {},
  "deployedLinkReferences": {}
}