{
  "_format": "hh-sol-artifact-1",
  "contractName": "CrossMarginTrading",
  "sourceName": "contracts/CrossMarginTrading.sol",
  "abi": [
    {
      "inputs": [
        {
          "internalType": "address",
          "name": "_peg",
          "type": "address"
        },
        {
          "internalType": "address",
          "name": "_amm1Factory",
          "type": "address"
        },
        {
          "internalType": "address",
          "name": "_amm2Factory",
          "type": "address"
        },
        {
          "internalType": "address",
          "name": "_amm3Factory",
          "type": "address"
        },
        {
          "internalType": "bytes32",
          "name": "_amm1InitHash",
          "type": "bytes32"
        },
        {
          "internalType": "bytes32",
          "name": "_amm2InitHash",
          "type": "bytes32"
        },
        {
          "internalType": "bytes32",
          "name": "_amm3InitHash",
          "type": "bytes32"
        },
        {
          "internalType": "address",
          "name": "_roles",
          "type": "address"
        }
      ],
      "stateMutability": "nonpayable",
      "type": "constructor"
    },
    {
      "anonymous": false,
      "inputs": [
        {
          "indexed": false,
          "internalType": "address",
          "name": "account",
          "type": "address"
        }
      ],
      "name": "AccountLiquidated",
      "type": "event"
    },
    {
      "anonymous": false,
      "inputs": [
        {
          "indexed": false,
          "internalType": "uint256",
          "name": "amount",
          "type": "uint256"
        }
      ],
      "name": "LiquidationShortfall",
      "type": "event"
    },
    {
      "inputs": [],
      "name": "MAINTAINER_CUT_PERCENT",
      "outputs": [
        {
          "internalType": "uint256",
          "name": "",
          "type": "uint256"
        }
      ],
      "stateMutability": "view",
      "type": "function"
    },
    {
      "inputs": [],
      "name": "UPDATE_RATE_PERMIL",
      "outputs": [
        {
          "internalType": "uint256",
          "name": "",
          "type": "uint256"
        }
      ],
      "stateMutability": "view",
      "type": "function"
    },
    {
      "inputs": [
        {
          "internalType": "uint256",
          "name": "_priceUpdateWindow",
          "type": "uint256"
        },
        {
          "internalType": "uint256",
          "name": "_updateRatePermil",
          "type": "uint256"
        },
        {
          "internalType": "uint256",
          "name": "_voluntaryUpdateWindow",
          "type": "uint256"
        }
      ],
      "name": "addVolatilitySetting",
      "outputs": [],
      "stateMutability": "nonpayable",
      "type": "function"
    },
    {
      "inputs": [],
      "name": "amm1Factory",
      "outputs": [
        {
          "internalType": "address",
          "name": "",
          "type": "address"
        }
      ],
      "stateMutability": "view",
      "type": "function"
    },
    {
      "inputs": [],
      "name": "amm1InitHash",
      "outputs": [
        {
          "internalType": "bytes32",
          "name": "",
          "type": "bytes32"
        }
      ],
      "stateMutability": "view",
      "type": "function"
    },
    {
      "inputs": [],
      "name": "amm2Factory",
      "outputs": [
        {
          "internalType": "address",
          "name": "",
          "type": "address"
        }
      ],
      "stateMutability": "view",
      "type": "function"
    },
    {
      "inputs": [],
      "name": "amm2InitHash",
      "outputs": [
        {
          "internalType": "bytes32",
          "name": "",
          "type": "bytes32"
        }
      ],
      "stateMutability": "view",
      "type": "function"
    },
    {
      "inputs": [],
      "name": "amm3Factory",
      "outputs": [
        {
          "internalType": "address",
          "name": "",
          "type": "address"
        }
      ],
      "stateMutability": "view",
      "type": "function"
    },
    {
      "inputs": [],
      "name": "amm3InitHash",
      "outputs": [
        {
          "internalType": "bytes32",
          "name": "",
          "type": "bytes32"
        }
      ],
      "stateMutability": "view",
      "type": "function"
    },
    {
      "inputs": [],
      "name": "avgLiquidationPerCall",
      "outputs": [
        {
          "internalType": "uint256",
          "name": "",
          "type": "uint256"
        }
      ],
      "stateMutability": "view",
      "type": "function"
    },
    {
      "inputs": [
        {
          "internalType": "address",
          "name": "trader",
          "type": "address"
        }
      ],
      "name": "canBeLiquidated",
      "outputs": [
        {
          "internalType": "bool",
          "name": "",
          "type": "bool"
        }
      ],
      "stateMutability": "view",
      "type": "function"
    },
    {
      "inputs": [
        {
          "internalType": "uint256",
          "name": "index",
          "type": "uint256"
        }
      ],
      "name": "chooseVolatilitySetting",
      "outputs": [],
      "stateMutability": "nonpayable",
      "type": "function"
    },
    {
      "inputs": [],
      "name": "coolingOffPeriod",
      "outputs": [
        {
          "internalType": "uint256",
          "name": "",
          "type": "uint256"
        }
      ],
      "stateMutability": "view",
      "type": "function"
    },
    {
      "inputs": [
        {
          "internalType": "address[]",
          "name": "liquidatedAccounts",
          "type": "address[]"
        }
      ],
      "name": "disburseLiqStakeAttacks",
      "outputs": [],
      "stateMutability": "nonpayable",
      "type": "function"
    },
    {
      "inputs": [],
      "name": "failureThreshold",
      "outputs": [
        {
          "internalType": "uint256",
          "name": "",
          "type": "uint256"
        }
      ],
      "stateMutability": "view",
      "type": "function"
    },
    {
      "inputs": [
        {
          "internalType": "address",
          "name": "trader",
          "type": "address"
        }
      ],
      "name": "getBorrowAmounts",
      "outputs": [
        {
          "internalType": "address[]",
          "name": "borrowTokens",
          "type": "address[]"
        },
        {
          "internalType": "uint256[]",
          "name": "borrowAmounts",
          "type": "uint256[]"
        }
      ],
      "stateMutability": "view",
      "type": "function"
    },
    {
      "inputs": [
        {
          "internalType": "address",
          "name": "token",
          "type": "address"
        },
        {
          "internalType": "uint256",
          "name": "inAmount",
          "type": "uint256"
        },
        {
          "internalType": "bool",
          "name": "voluntary",
          "type": "bool"
        }
      ],
      "name": "getCurrentPriceInPeg",
      "outputs": [
        {
          "internalType": "uint256",
          "name": "priceInPeg",
          "type": "uint256"
        }
      ],
      "stateMutability": "nonpayable",
      "type": "function"
    },
    {
      "inputs": [
        {
          "internalType": "address",
          "name": "trader",
          "type": "address"
        }
      ],
      "name": "getHoldingAmounts",
      "outputs": [
        {
          "internalType": "address[]",
          "name": "holdingTokens",
          "type": "address[]"
        },
        {
          "internalType": "uint256[]",
          "name": "holdingAmounts",
          "type": "uint256[]"
        }
      ],
      "stateMutability": "view",
      "type": "function"
    },
    {
      "inputs": [],
      "name": "leveragePercent",
      "outputs": [
        {
          "internalType": "uint256",
          "name": "",
          "type": "uint256"
        }
      ],
      "stateMutability": "view",
      "type": "function"
    },
    {
      "inputs": [],
      "name": "liqStakeAttackWindow",
      "outputs": [
        {
          "internalType": "uint256",
          "name": "",
          "type": "uint256"
        }
      ],
      "stateMutability": "view",
      "type": "function"
    },
    {
      "inputs": [
        {
          "internalType": "address[]",
          "name": "liquidationCandidates",
          "type": "address[]"
        }
      ],
      "name": "liquidate",
      "outputs": [
        {
          "internalType": "uint256",
          "name": "maintainerCut",
          "type": "uint256"
        }
      ],
      "stateMutability": "nonpayable",
      "type": "function"
    },
    {
      "inputs": [],
      "name": "liquidationThresholdPercent",
      "outputs": [
        {
          "internalType": "uint256",
          "name": "",
          "type": "uint256"
        }
      ],
      "stateMutability": "view",
      "type": "function"
    },
    {
      "inputs": [
        {
          "internalType": "uint256",
          "name": "",
          "type": "uint256"
        }
      ],
      "name": "mainCharacterCache",
      "outputs": [
        {
          "internalType": "address",
          "name": "",
          "type": "address"
        }
      ],
      "stateMutability": "view",
      "type": "function"
    },
    {
      "inputs": [
        {
          "internalType": "address",
          "name": "",
          "type": "address"
        }
      ],
      "name": "maintenanceFailures",
      "outputs": [
        {
          "internalType": "uint256",
          "name": "",
          "type": "uint256"
        }
      ],
      "stateMutability": "view",
      "type": "function"
    },
    {
      "inputs": [
        {
          "internalType": "address",
          "name": "",
          "type": "address"
        },
        {
          "internalType": "address",
          "name": "",
          "type": "address"
        }
      ],
      "name": "pairPrices",
      "outputs": [
        {
          "internalType": "uint256",
          "name": "cumulative",
          "type": "uint256"
        },
        {
          "internalType": "uint256",
          "name": "lastUpdated",
          "type": "uint256"
        },
        {
          "internalType": "uint256",
          "name": "priceFP",
          "type": "uint256"
        }
      ],
      "stateMutability": "view",
      "type": "function"
    },
    {
      "inputs": [],
      "name": "peg",
      "outputs": [
        {
          "internalType": "address",
          "name": "",
          "type": "address"
        }
      ],
      "stateMutability": "view",
      "type": "function"
    },
    {
      "inputs": [],
      "name": "priceUpdateWindow",
      "outputs": [
        {
          "internalType": "uint256",
          "name": "",
          "type": "uint256"
        }
      ],
      "stateMutability": "view",
      "type": "function"
    },
    {
      "inputs": [
        {
          "internalType": "address",
          "name": "trader",
          "type": "address"
        },
        {
          "internalType": "address",
          "name": "borrowToken",
          "type": "address"
        },
        {
          "internalType": "uint256",
          "name": "borrowAmount",
          "type": "uint256"
        }
      ],
      "name": "registerBorrow",
      "outputs": [],
      "stateMutability": "nonpayable",
      "type": "function"
    },
    {
      "inputs": [
        {
          "internalType": "address",
          "name": "trader",
          "type": "address"
        },
        {
          "internalType": "address",
          "name": "token",
          "type": "address"
        },
        {
          "internalType": "uint256",
          "name": "depositAmount",
          "type": "uint256"
        }
      ],
      "name": "registerDeposit",
      "outputs": [
        {
          "internalType": "uint256",
          "name": "extinguishableDebt",
          "type": "uint256"
        }
      ],
      "stateMutability": "nonpayable",
      "type": "function"
    },
    {
      "inputs": [
        {
          "internalType": "address",
          "name": "trader",
          "type": "address"
        }
      ],
      "name": "registerLiquidation",
      "outputs": [],
      "stateMutability": "nonpayable",
      "type": "function"
    },
    {
      "inputs": [
        {
          "internalType": "address",
          "name": "trader",
          "type": "address"
        },
        {
          "internalType": "address",
          "name": "depositToken",
          "type": "address"
        },
        {
          "internalType": "uint256",
          "name": "depositAmount",
          "type": "uint256"
        },
        {
          "internalType": "address",
          "name": "borrowToken",
          "type": "address"
        },
        {
          "internalType": "uint256",
          "name": "withdrawAmount",
          "type": "uint256"
        }
      ],
      "name": "registerOvercollateralizedBorrow",
      "outputs": [],
      "stateMutability": "nonpayable",
      "type": "function"
    },
    {
      "inputs": [
        {
          "internalType": "address",
          "name": "trader",
          "type": "address"
        },
        {
          "internalType": "address",
          "name": "tokenFrom",
          "type": "address"
        },
        {
          "internalType": "address",
          "name": "tokenTo",
          "type": "address"
        },
        {
          "internalType": "uint256",
          "name": "inAmount",
          "type": "uint256"
        },
        {
          "internalType": "uint256",
          "name": "outAmount",
          "type": "uint256"
        }
      ],
      "name": "registerTradeAndBorrow",
      "outputs": [
        {
          "internalType": "uint256",
          "name": "extinguishableDebt",
          "type": "uint256"
        },
        {
          "internalType": "uint256",
          "name": "borrowAmount",
          "type": "uint256"
        }
      ],
      "stateMutability": "nonpayable",
      "type": "function"
    },
    {
      "inputs": [
        {
          "internalType": "address",
          "name": "trader",
          "type": "address"
        },
        {
          "internalType": "address",
          "name": "withdrawToken",
          "type": "address"
        },
        {
          "internalType": "uint256",
          "name": "withdrawAmount",
          "type": "uint256"
        }
      ],
      "name": "registerWithdrawal",
      "outputs": [],
      "stateMutability": "nonpayable",
      "type": "function"
    },
    {
      "inputs": [
        {
          "internalType": "address",
          "name": "",
          "type": "address"
        },
        {
          "internalType": "uint256",
          "name": "",
          "type": "uint256"
        }
      ],
      "name": "roleCache",
      "outputs": [
        {
          "internalType": "bool",
          "name": "",
          "type": "bool"
        }
      ],
      "stateMutability": "view",
      "type": "function"
    },
    {
      "inputs": [],
      "name": "roles",
      "outputs": [
        {
          "internalType": "contract Roles",
          "name": "",
          "type": "address"
        }
      ],
      "stateMutability": "view",
      "type": "function"
    },
    {
      "inputs": [
        {
          "internalType": "uint256",
          "name": "blocks",
          "type": "uint256"
        }
      ],
      "name": "setCoolingOffPeriod",
      "outputs": [],
      "stateMutability": "nonpayable",
      "type": "function"
    },
    {
      "inputs": [
        {
          "internalType": "uint256",
          "name": "threshFactor",
          "type": "uint256"
        }
      ],
      "name": "setFailureThreshold",
      "outputs": [],
      "stateMutability": "nonpayable",
      "type": "function"
    },
    {
      "inputs": [
        {
          "internalType": "uint256",
          "name": "_leveragePercent",
          "type": "uint256"
        }
      ],
      "name": "setLeveragePercent",
      "outputs": [],
      "stateMutability": "nonpayable",
      "type": "function"
    },
    {
      "inputs": [
        {
          "internalType": "uint256",
          "name": "window",
          "type": "uint256"
        }
      ],
      "name": "setLiqStakeAttackWindow",
      "outputs": [],
      "stateMutability": "nonpayable",
      "type": "function"
    },
    {
      "inputs": [
        {
          "internalType": "bytes32",
          "name": "amms",
          "type": "bytes32"
        },
        {
          "internalType": "address[]",
          "name": "tokens",
          "type": "address[]"
        }
      ],
      "name": "setLiquidationPath",
      "outputs": [],
      "stateMutability": "nonpayable",
      "type": "function"
    },
    {
      "inputs": [
        {
          "internalType": "uint256",
          "name": "threshold",
          "type": "uint256"
        }
      ],
      "name": "setLiquidationThresholdPercent",
      "outputs": [],
      "stateMutability": "nonpayable",
      "type": "function"
    },
    {
      "inputs": [
        {
          "internalType": "uint256",
          "name": "cut",
          "type": "uint256"
        }
      ],
      "name": "setMaintainerCutPercent",
      "outputs": [],
      "stateMutability": "nonpayable",
      "type": "function"
    },
    {
      "inputs": [
        {
          "internalType": "uint16",
          "name": "window",
          "type": "uint16"
        },
        {
          "internalType": "uint256",
          "name": "voluntaryWindow",
          "type": "uint256"
        }
      ],
      "name": "setPriceUpdateWindow",
      "outputs": [],
      "stateMutability": "nonpayable",
      "type": "function"
    },
    {
      "inputs": [
        {
          "internalType": "address",
          "name": "token",
          "type": "address"
        },
        {
          "internalType": "uint256",
          "name": "cap",
          "type": "uint256"
        }
      ],
      "name": "setTokenCap",
      "outputs": [],
      "stateMutability": "nonpayable",
      "type": "function"
    },
    {
      "inputs": [
        {
          "internalType": "uint256",
          "name": "rate",
          "type": "uint256"
        }
      ],
      "name": "setUpdateRate",
      "outputs": [],
      "stateMutability": "nonpayable",
      "type": "function"
    },
    {
      "inputs": [
        {
          "internalType": "address",
          "name": "",
          "type": "address"
        }
      ],
      "name": "stakeAttackRecords",
      "outputs": [
        {
          "internalType": "uint256",
          "name": "blockNum",
          "type": "uint256"
        },
        {
          "internalType": "address",
          "name": "loser",
          "type": "address"
        },
        {
          "internalType": "uint256",
          "name": "amount",
          "type": "uint256"
        },
        {
          "internalType": "address",
          "name": "stakeAttacker",
          "type": "address"
        }
      ],
      "stateMutability": "view",
      "type": "function"
    },
    {
      "inputs": [
        {
          "internalType": "address",
          "name": "",
          "type": "address"
        }
      ],
      "name": "tokenCaps",
      "outputs": [
        {
          "internalType": "uint256",
          "name": "",
          "type": "uint256"
        }
      ],
      "stateMutability": "view",
      "type": "function"
    },
    {
      "inputs": [
        {
          "internalType": "address",
          "name": "",
          "type": "address"
        }
      ],
      "name": "tokenPrices",
      "outputs": [
        {
          "internalType": "uint256",
          "name": "lastUpdated",
          "type": "uint256"
        },
        {
          "internalType": "uint256",
          "name": "priceFP",
          "type": "uint256"
        },
        {
          "internalType": "bytes32",
          "name": "amms",
          "type": "bytes32"
        },
        {
          "internalType": "bytes32",
          "name": "inverseAmms",
          "type": "bytes32"
        }
      ],
      "stateMutability": "view",
      "type": "function"
    },
    {
      "inputs": [
        {
          "internalType": "address",
          "name": "",
          "type": "address"
        }
      ],
      "name": "totalLong",
      "outputs": [
        {
          "internalType": "uint256",
          "name": "",
          "type": "uint256"
        }
      ],
      "stateMutability": "view",
      "type": "function"
    },
    {
      "inputs": [
        {
          "internalType": "uint256",
          "name": "role",
          "type": "uint256"
        }
      ],
      "name": "updateMainCharacterCache",
      "outputs": [],
      "stateMutability": "nonpayable",
      "type": "function"
    },
    {
      "inputs": [
        {
          "internalType": "uint256",
          "name": "role",
          "type": "uint256"
        },
        {
          "internalType": "address",
          "name": "contr",
          "type": "address"
        }
      ],
      "name": "updateRoleCache",
      "outputs": [],
      "stateMutability": "nonpayable",
      "type": "function"
    },
    {
      "inputs": [
        {
          "internalType": "address",
          "name": "trader",
          "type": "address"
        },
        {
          "internalType": "address",
          "name": "token",
          "type": "address"
        }
      ],
      "name": "viewBalanceInToken",
      "outputs": [
        {
          "internalType": "uint256",
          "name": "",
          "type": "uint256"
        }
      ],
      "stateMutability": "view",
      "type": "function"
    },
    {
      "inputs": [
        {
          "internalType": "address",
          "name": "token",
          "type": "address"
        },
        {
          "internalType": "uint256",
          "name": "inAmount",
          "type": "uint256"
        }
      ],
      "name": "viewCurrentPriceInPeg",
      "outputs": [
        {
          "internalType": "uint256",
          "name": "priceInPeg",
          "type": "uint256"
        }
      ],
      "stateMutability": "view",
      "type": "function"
    },
    {
      "inputs": [
        {
          "internalType": "address",
          "name": "trader",
          "type": "address"
        }
      ],
      "name": "viewHoldingsInPeg",
      "outputs": [
        {
          "internalType": "uint256",
          "name": "",
          "type": "uint256"
        }
      ],
      "stateMutability": "view",
      "type": "function"
    },
    {
      "inputs": [
        {
          "internalType": "address",
          "name": "trader",
          "type": "address"
        }
      ],
      "name": "viewLoanInPeg",
      "outputs": [
        {
          "internalType": "uint256",
          "name": "amount",
          "type": "uint256"
        }
      ],
      "stateMutability": "view",
      "type": "function"
    },
    {
      "inputs": [
        {
          "internalType": "uint256",
          "name": "",
          "type": "uint256"
        }
      ],
      "name": "volatilitySettings",
      "outputs": [
        {
          "internalType": "uint256",
          "name": "priceUpdateWindow",
          "type": "uint256"
        },
        {
          "internalType": "uint256",
          "name": "updateRatePermil",
          "type": "uint256"
        },
        {
          "internalType": "uint256",
          "name": "voluntaryUpdateWindow",
          "type": "uint256"
        }
      ],
      "stateMutability": "view",
      "type": "function"
    },
    {
      "inputs": [],
      "name": "voluntaryUpdateWindow",
      "outputs": [
        {
          "internalType": "uint256",
          "name": "",
          "type": "uint256"
        }
      ],
      "stateMutability": "view",
      "type": "function"
    }
  ],
  "bytecode": "0x6101206040526104b060075561012c60085561019060095561012c600b556073600c55600a601055600a60165560056017556005601855600a6019553480156200004857600080fd5b5060405162006174380380620061748339810160408190526200006b9162000145565b87878787878787876001600160a01b038116620000d95760405162461bcd60e51b815260206004820152602260248201527f506c656173652070726f766964652076616c696420726f6c6573206164647265604482015261737360f01b606482015260840160405180910390fd5b6001600160601b0319606091821b811660805296811b871660a05294851b861660c05292841b851660e0526002919091556003556004559190911b166101005250620001d19650505050505050565b80516001600160a01b03811681146200014057600080fd5b919050565b600080600080600080600080610100898b03121562000162578384fd5b6200016d8962000128565b97506200017d60208a0162000128565b96506200018d60408a0162000128565b95506200019d60608a0162000128565b94506080890151935060a0890151925060c08901519150620001c260e08a0162000128565b90509295985092959890939650565b60805160601c60a05160601c60c05160601c60e05160601c6101005160601c615ee66200028e6000396000818161046601528181610b5a01528181610f9e01528181611bd20152818161204a015281816123640152818161250101528181612f540152818161518801526153120152600061087401526000818161038d0152614e3b01526000818161076e0152614f75015260008181610564015281816109960152818161177b0152818161316001526131f80152615ee66000f3fe608060405234801561001057600080fd5b50600436106103835760003560e01c80636585b5a6116101de578063bc70c6661161010f578063df7c20f9116100ad578063ef859fc81161007c578063ef859fc8146108f1578063f04c68651461092e578063f3f5f9b514610941578063f99fd97c1461095457610383565b8063df7c20f914610896578063e0f3871f1461089f578063e2abb5c4146108bf578063e9c3f77d146108c857610383565b8063d0eb6653116100e9578063d0eb665314610836578063d510c53514610849578063db2d904d1461085c578063db4292351461086f57610383565b8063bc70c666146107fd578063c73afac214610810578063c74303aa1461082357610383565b8063a37189191161017c578063a75697a511610156578063a75697a514610736578063a985994b14610756578063b852eb0d14610769578063badb50481461079057610383565b8063a371891914610711578063a53ac0d914610724578063a75208a81461072d57610383565b80638dc6a529116101b85780638dc6a5291461068d5780639c56522c146106e2578063a17ab527146106eb578063a20ec493146106fe57610383565b80636585b5a61461064d5780637a1a04df146106565780637d100e841461068457610383565b8063320d2fa0116102b8578063498d55eb1161025657806352a664d91161023057806352a664d91461060b578063538edb291461061e57806354554b581461062757806360b3fa401461063a57610383565b8063498d55eb146105e65780634aa4aca3146105f9578063519bda851461060257610383565b80633ed456fa116102925780633ed456fa14610586578063409fdb721461058f578063447d52ba146105b057806347788cd0146105c357610383565b8063320d2fa01461052e5780633500aa0b14610537578063392f5f641461055f57610383565b80631d84cc1811610325578063204120bc116102ff578063204120bc1461049b57806320c27126146104f25780632b23f857146105125780632febaa741461052557610383565b80631d84cc181461044e5780631f1cb62b146104615780631f692a641461048857610383565b8063093a483a11610361578063093a483a146103f457806310d584341461041557806316317e7e146104285780631d47e4a31461043b57610383565b8063059b157a14610388578063071060a6146103cc57806307c20175146103e1575b600080fd5b6103af7f000000000000000000000000000000000000000000000000000000000000000081565b6040516001600160a01b0390911681526020015b60405180910390f35b6103df6103da366004615ba4565b610967565b005b6103df6103ef366004615a0f565b610a5e565b610407610402366004615976565b610b56565b6040519081526020016103c3565b6103df610423366004615ba4565b610be5565b6103df610436366004615ba4565b610c68565b6103df610449366004615976565b610ce6565b6103df61045c36600461591c565b610dc7565b6103af7f000000000000000000000000000000000000000000000000000000000000000081565b610407610496366004615812565b610e75565b6104d26104a9366004615812565b600560208190526000918252604090912080546001820154600383015492909301549092919084565b6040805194855260208501939093529183015260608201526080016103c3565b610407610500366004615812565b600f6020526000908152604090205481565b6103df610520366004615af9565b610eaa565b61040760105481565b610407600c5481565b61054a610545366004615882565b611281565b604080519283526020830191909152016103c3565b6103af7f000000000000000000000000000000000000000000000000000000000000000081565b61040760075481565b6105a261059d366004615812565b6115c5565b6040516103c3929190615c8c565b6103df6105be366004615bd4565b61173c565b6105d66105d1366004615812565b61184b565b60405190151581526020016103c3565b6103df6105f43660046158dc565b6118b2565b61040760175481565b61040760095481565b6104076106193660046158dc565b611951565b61040760185481565b6103df610635366004615ba4565b611b50565b6104076106483660046159ce565b611bce565b61040760165481565b6105d6610664366004615976565b600160209081526000928352604080842090915290825290205460ff1681565b61040760195481565b6106c761069b36600461584a565b600660209081526000928352604080842090915290825290208054600182015460029092015490919083565b604080519384526020840192909252908201526060016103c3565b61040760085481565b6104076106f9366004615812565b611d18565b6103df61070c366004615b81565b611d40565b6103df61071f366004615ba4565b611dc7565b610407600b5481565b61040760025481565b610407610744366004615812565b60146020526000908152604090205481565b610407610764366004615a0f565b611e45565b6103af7f000000000000000000000000000000000000000000000000000000000000000081565b6107d261079e366004615812565b601560205260009081526040902080546001820154600283015460039093015491926001600160a01b039182169290911684565b604080519485526001600160a01b0393841660208601528401919091521660608201526080016103c3565b6106c761080b366004615ba4565b6126d8565b6103df61081e366004615ba4565b61270b565b6103df610831366004615ba4565b612789565b6103df6108443660046158dc565b612807565b6105a2610857366004615812565b612895565b6103df61086a366004615812565b612ad9565b6103af7f000000000000000000000000000000000000000000000000000000000000000081565b61040760035481565b6104076108ad366004615812565b600e6020526000908152604090205481565b61040760045481565b6103af6108d6366004615ba4565b6000602081905290815260409020546001600160a01b031681565b6104076108ff36600461584a565b6001600160a01b039182166000908152600d602090815260408083209390941682526005909201909152205490565b6103df61093c366004615ba4565b612bbb565b6103df61094f366004615c1b565b612cff565b6103df610962366004615ba4565b612e1b565b6040517fb4ed0b6d000000000000000000000000000000000000000000000000000000008152600481018290527f00000000000000000000000000000000000000000000000000000000000000006001600160a01b03169063b4ed0b6d9060240160206040518083038186803b1580156109e057600080fd5b505afa1580156109f4573d6000803e3d6000fd5b505050506040513d601f19601f82011682018060405250810190610a18919061582e565b60009182526020829052604090912080547fffffffffffffffffffffffff0000000000000000000000000000000000000000166001600160a01b03909216919091179055565b60005b8082511115610b52576000828281518110610a8c57634e487b7160e01b600052603260045260246000fd5b60200260200101519050600060156000836001600160a01b03166001600160a01b0316815260200190815260200160002090506017548160000154610ad19190615d9c565b431115610b3d57610ae181612e99565b506001600160a01b03821660009081526015602052604081208181556001810180547fffffffffffffffffffffffff00000000000000000000000000000000000000009081169091556002820192909255600301805490911690555b50508080610b4a90615e28565b915050610a61565b5050565b60007f00000000000000000000000000000000000000000000000000000000000000006001600160a01b0316836001600160a01b03161415610b99575080610bdf565b6001600160a01b038316600090815260056020526040902060018101546e010000000000000000000000000000610bd08286615dd4565b610bda9190615db4565b925050505b92915050565b33610bee61315c565b6001600160a01b03161480610c12575033610c076131f4565b6001600160a01b0316145b610c635760405162461bcd60e51b815260206004820152601e60248201527f526f6c65733a2063616c6c6572206973206e6f7420746865206f776e6572000060448201526064015b60405180910390fd5b601955565b33610c7161315c565b6001600160a01b03161480610c95575033610c8a6131f4565b6001600160a01b0316145b610ce15760405162461bcd60e51b815260206004820152601e60248201527f526f6c65733a2063616c6c6572206973206e6f7420746865206f776e657200006044820152606401610c5a565b600c55565b33610cef61315c565b6001600160a01b03161480610d13575033610d086131f4565b6001600160a01b0316145b80610d3957503360009081526001602090815260408083206009845290915290205460ff165b610dab5760405162461bcd60e51b815260206004820152603960248201527f43616c6c6572206973206e6f7420746865206f776e65722c206578656375746f60448201527f72206f7220617574686f72697a656420616374697661746f72000000000000006064820152608401610c5a565b6001600160a01b039091166000908152600e6020526040902055565b3360009081526001602090815260408083206004845290915290205460ff16610e325760405162461bcd60e51b815260206004820152601d60248201527f43616c6c696e6720636f6e74722e206e6f7420617574686f72697a65640000006044820152606401610c5a565b6001600160a01b0385166000908152600d60205260409020610e55818686613265565b610e60818484613310565b610e6b8184846133bb565b4390555050505050565b6001600160a01b0381166000908152600d60205260408120610ea16001820160028301600384016134db565b9150505b919050565b33610eb361315c565b6001600160a01b03161480610ed7575033610ecc6131f4565b6001600160a01b0316145b80610efd57503360009081526001602090815260408083206009845290915290205460ff165b610f6f5760405162461bcd60e51b815260206004820152603960248201527f43616c6c6572206973206e6f7420746865206f776e65722c206578656375746f60448201527f72206f7220617574686f72697a656420616374697661746f72000000000000006064820152608401610c5a565b600081600081518110610f9257634e487b7160e01b600052603260045260246000fd5b602002602001015190507f00000000000000000000000000000000000000000000000000000000000000006001600160a01b0316816001600160a01b03161461127c576001600160a01b0381166000908152600560209081526040909120600381018590558351909161100c9160028401918601906156c9565b50825167ffffffffffffffff81111561103557634e487b7160e01b600052604160045260246000fd5b60405190808252806020026020018201604052801561105e578160200160208202803683370190505b5080516110759160048401916020909101906156c9565b506000805b80600186516110899190615e11565b111561119d576111178582815181106110b257634e487b7160e01b600052603260045260246000fd5b6020026020010151868360016110c89190615d9c565b815181106110e657634e487b7160e01b600052603260045260246000fd5b602002602001015188846020811061110e57634e487b7160e01b600052603260045260246000fd5b1a60f81b613568565b600081600287516111289190615e11565b6111329190615e11565b61113d906008615dd4565b87836020811061115d57634e487b7160e01b600052603260045260246000fd5b1a60f81b7fff0000000000000000000000000000000000000000000000000000000000000016901c9290921791508061119581615e28565b91505061107a565b506005820181905560005b8085511115611267578460018287516111c19190615e11565b6111cb9190615e11565b815181106111e957634e487b7160e01b600052603260045260246000fd5b602002602001015183600401828154811061121457634e487b7160e01b600052603260045260246000fd5b600091825260209091200180547fffffffffffffffffffffffff0000000000000000000000000000000000000000166001600160a01b03929092169190911790558061125f81615e28565b9150506111a8565b506112728486613820565b6001830155504290555b505050565b33600090815260016020908152604080832060048452909152812054819060ff166112ee5760405162461bcd60e51b815260206004820181905260248201527f43616c6c696e6720636f6e74722e206e6f7420616e20617574686f72697a65646044820152606401610c5a565b6001600160a01b038088166000908152600d60209081526040808320938916835260028401909152902054156114695760008061135c606660009081526020527f422cccb7cea5c0e46f340bb7b21b81debac329f72e31669c20ff0f3a05cc2b5b546001600160a01b031690565b6001600160a01b03898116600081815260028701602090815260408083205460038a01909252918290205491517fe695fa6800000000000000000000000000000000000000000000000000000000815260048101919091526024810192909252604482015291169063e695fa68906064016040805180830381600087803b1580156113e657600080fd5b505af11580156113fa573d6000803e3d6000fd5b505050506040513d601f19601f8201168201806040525081019061141e9190615bf8565b6001600160a01b038a166000908152600286016020908152604080832085905560038801909152902081905590925090506114598683613b73565b9450611466838987613b8b565b50505b6001600160a01b038716600090815260058201602052604090205485908082111561149e5790508061149b8188615e11565b93505b838711156114de576114b08488615e11565b6001600160a01b038a166000908152600f6020526040812080549091906114d8908490615e11565b90915550505b8486111561151e576114f08587615e11565b6001600160a01b0389166000908152600f602052604081208054909190611518908490615d9c565b90915550505b6001600160a01b0388166000908152600f6020908152604080832054600e9092529091205410156115915760405162461bcd60e51b815260206004820152601860248201527f4578636565647320676c6f62616c20746f6b656e2063617000000000000000006044820152606401610c5a565b6115a7838a8a856115a28a8c615e11565b613e5c565b83156115b8576115b8838a86613ea8565b5050509550959350505050565b6001600160a01b0381166000908152600d602090815260409182902060048101805484518185028101850190955280855260609485949092919083018282801561163857602002820191906000526020600020905b81546001600160a01b0316815260019091019060200180831161161a575b5050506004840154929550505067ffffffffffffffff81111561166b57634e487b7160e01b600052604160045260246000fd5b604051908082528060200260200182016040528015611694578160200160208202803683370190505b50915060005b80845111156117355760008482815181106116c557634e487b7160e01b600052603260045260246000fd5b60200260200101519050826005016000826001600160a01b03166001600160a01b031681526020019081526020016000205484838151811061171757634e487b7160e01b600052603260045260246000fd5b6020908102919091010152508061172d81615e28565b91505061169a565b5050915091565b6040517f93552a3d000000000000000000000000000000000000000000000000000000008152600481018390526001600160a01b0382811660248301527f000000000000000000000000000000000000000000000000000000000000000016906393552a3d9060440160206040518083038186803b1580156117bd57600080fd5b505afa1580156117d1573d6000803e3d6000fd5b505050506040513d601f19601f820116820180604052508101906117f59190615add565b6001600160a01b039190911660009081526001602090815260408083209483529390529190912080547fffffffffffffffffffffffffffffffffffffffffffffffffffffffffffffff0016911515919091179055565b6001600160a01b0381166000908152600d60205260408120816118786001830160028401600385016134db565b9050600061188c8360040184600501614162565b9050611899816064615dd4565b82600c546118a79190615dd4565b101595945050505050565b3360009081526001602090815260408083206004845290915290205460ff1661191d5760405162461bcd60e51b815260206004820152601d60248201527f43616c6c696e6720636f6e74722e206e6f7420617574686f72697a65640000006044820152606401610c5a565b6001600160a01b0383166000908152600d602052604090206119408184846141ed565b61194b818484613310565b50505050565b3360009081526001602090815260408083206004845290915281205460ff166119bc5760405162461bcd60e51b815260206004820152601d60248201527f43616c6c696e6720636f6e74722e206e6f7420617574686f72697a65640000006044820152606401610c5a565b6001600160a01b038085166000908152600d602090815260408083204381559387168352600284019091529020548015611b2d57600080611a2e606660009081526020527f422cccb7cea5c0e46f340bb7b21b81debac329f72e31669c20ff0f3a05cc2b5b546001600160a01b031690565b6001600160a01b038881166000818152600388016020526040908190205490517fe695fa68000000000000000000000000000000000000000000000000000000008152600481018890526024810192909252604482015291169063e695fa68906064016040805180830381600087803b158015611aaa57600080fd5b505af1158015611abe573d6000803e3d6000fd5b505050506040513d601f19601f82011682018060405250810190611ae29190615bf8565b6001600160a01b038916600090815260028701602090815260408083208590556003890190915290208190559092509050611b1d8683613b73565b9450611b2a848887613b8b565b50505b6000611b398486615e11565b9050611b46838783613265565b5050509392505050565b33611b5961315c565b6001600160a01b03161480611b7d575033611b726131f4565b6001600160a01b0316145b611bc95760405162461bcd60e51b815260206004820152601e60248201527f526f6c65733a2063616c6c6572206973206e6f7420746865206f776e657200006044820152606401610c5a565b600955565b60007f00000000000000000000000000000000000000000000000000000000000000006001600160a01b0316846001600160a01b03161415611c11575081611d11565b6001600160a01b03841660009081526005602052604081208054909190611c389042615e11565b9050600754811180611c4c57506001820154155b80611c605750838015611c60575060085481115b15611ce2576000611cd183600201805480602002602001604051908101604052809291908181526020018280548015611cc257602002820191906000526020600020905b81546001600160a01b03168152600190910190602001808311611ca4575b50505050508460030154613820565b9050611ce083826009546142c9565b505b6e010000000000000000000000000000826001015486611d029190615dd4565b611d0c9190615db4565b925050505b9392505050565b6001600160a01b0381166000908152600d60205260408120610ea16004820160058301614162565b33611d4961315c565b6001600160a01b03161480611d6d575033611d626131f4565b6001600160a01b0316145b611db95760405162461bcd60e51b815260206004820152601e60248201527f526f6c65733a2063616c6c6572206973206e6f7420746865206f776e657200006044820152606401610c5a565b61ffff909116600755600855565b33611dd061315c565b6001600160a01b03161480611df4575033611de96131f4565b6001600160a01b0316145b611e405760405162461bcd60e51b815260206004820152601e60248201527f526f6c65733a2063616c6c6572206973206e6f7420746865206f776e657200006044820152606401610c5a565b601755565b6000333214611ebc5760405162461bcd60e51b815260206004820152603a60248201527f43757272656e746c79206e6f20696e7465726d656469617269657320616c6c6f60448201527f77656420666f7220746869732066756e6374696f6e2063616c6c0000000000006064820152608401610c5a565b6000611ef9606b60009081526020527f2dc7a963308417ad45132da282495eb244f38a7db03940a4d808be607669c622546001600160a01b031690565b6040517f7b23cbce0000000000000000000000000000000000000000000000000000000081523360048201526001600160a01b039190911690637b23cbce90602401602060405180830381600087803b158015611f5557600080fd5b505af1158015611f69573d6000803e3d6000fd5b505050506040513d601f19601f82011682018060405250810190611f8d9190615add565b905060008180611fa05750611fa0614311565b9050611fac84836143f1565b92506000611fb8614953565b90506000611fc4614a29565b9050611fd260126000615746565b600060646018546064611fe59190615d9c565b611fef9084615dd4565b611ff99190615db4565b905082811115612146577f3555ffae7677eb42103f0b9e11b61c758f452fae446684dec7a363dd38ab58fc61202e8483615e11565b60405190815260200160405180910390a18380156121435750807f00000000000000000000000000000000000000000000000000000000000000006001600160a01b03166370a082316120b2606560009081526020527f4a7203f705e51df4a56139a9b86b4a0970bed7ab7a3446eaffe2289989c1645c546001600160a01b031690565b6040517fffffffff0000000000000000000000000000000000000000000000000000000060e084901b1681526001600160a01b03909116600482015260240160206040518083038186803b15801561210957600080fd5b505afa15801561211d573d6000803e3d6000fd5b505050506040513d601f19601f820116820180604052508101906121419190615bbc565b115b93505b6000846121f757606b60009081526020527f2dc7a963308417ad45132da282495eb244f38a7db03940a4d808be607669c622546001600160a01b03166001600160a01b0316631a38de1d6040518163ffffffff1660e01b8152600401602060405180830381600087803b1580156121bc57600080fd5b505af11580156121d0573d6000803e3d6000fd5b505050506040513d601f19601f820116820180604052508101906121f4919061582e565b90505b60005b60135481101561246c5760006013828154811061222757634e487b7160e01b600052603260045260246000fd5b60009182526020808320909101546001600160a01b0316808352600d909152604082209092509061225782614af7565b9050600061226483614b09565b905060006064601854836122789190615dd4565b6122829190615db4565b905061228e818e615d9c565b9c508a6122fb576001600160a01b03858116600090815260156020526040902060028101839055600381018054337fffffffffffffffffffffffff000000000000000000000000000000000000000091821617909155438255600190910180549091169189169190911790555b6000606461230a846065615dd4565b6123149190615db4565b61231e9083615d9c565b90508084111561240e57606560009081526020527f4a7203f705e51df4a56139a9b86b4a0970bed7ab7a3446eaffe2289989c1645c546001600160a01b031663d9caed127f00000000000000000000000000000000000000000000000000000000000000008861238e8589615e11565b6040517fffffffff0000000000000000000000000000000000000000000000000000000060e086901b1681526001600160a01b0393841660048201529290911660248301526044820152606401600060405180830381600087803b1580156123f557600080fd5b505af1158015612409573d6000803e3d6000fd5b505050505b6040516001600160a01b03871681527f1d2cc4c8661a04a00b4e727426220501b36d85bb330947642c2d4320667028cf9060200160405180910390a161245385614b1f565b505050505050808061246490615e28565b9150506121fa565b50606487601654606361247f9190615dd4565b6124899190615d9c565b6124939190615db4565b601655841561257557606560009081526020527f4a7203f705e51df4a56139a9b86b4a0970bed7ab7a3446eaffe2289989c1645c546001600160a01b03166040517fd9caed120000000000000000000000000000000000000000000000000000000081526001600160a01b037f000000000000000000000000000000000000000000000000000000000000000081166004830152336024830152604482018a9052919091169063d9caed1290606401600060405180830381600087803b15801561255c57600080fd5b505af1158015612570573d6000803e3d6000fd5b505050505b60006125b2606b60009081526020527f2dc7a963308417ad45132da282495eb244f38a7db03940a4d808be607669c622546001600160a01b031690565b6001600160a01b0316631a38de1d6040518163ffffffff1660e01b8152600401602060405180830381600087803b1580156125ec57600080fd5b505af1158015612600573d6000803e3d6000fd5b505050506040513d601f19601f82011682018060405250810190612624919061582e565b9050861561269e576001600160a01b03811660009081526014602052604090205488101561267f576001600160a01b038116600090815260146020526040812080548a9290612674908490615e11565b909155506126999050565b6001600160a01b0381166000908152601460205260408120555b6126cc565b6001600160a01b038116600090815260146020526040812080548a92906126c6908490615d9c565b90915550505b50505050505050919050565b600a81815481106126e857600080fd5b600091825260209091206003909102018054600182015460029092015490925083565b3361271461315c565b6001600160a01b0316148061273857503361272d6131f4565b6001600160a01b0316145b6127845760405162461bcd60e51b815260206004820152601e60248201527f526f6c65733a2063616c6c6572206973206e6f7420746865206f776e657200006044820152606401610c5a565b601855565b3361279261315c565b6001600160a01b031614806127b65750336127ab6131f4565b6001600160a01b0316145b6128025760405162461bcd60e51b815260206004820152601e60248201527f526f6c65733a2063616c6c6572206973206e6f7420746865206f776e657200006044820152606401610c5a565b600b55565b3360009081526001602090815260408083206004845290915290205460ff166128725760405162461bcd60e51b815260206004820152601c60248201527f43616c6c696e6720636f6e7472206e6f7420617574686f72697a6564000000006044820152606401610c5a565b6001600160a01b0383166000908152600d6020526040902061194b8184846133bb565b6001600160a01b0381166000908152600d602090815260409182902060018101805484518185028101850190955280855260609485949092919083018282801561290857602002820191906000526020600020905b81546001600160a01b031681526001909101906020018083116128ea575b5050506001840154929550505067ffffffffffffffff81111561293b57634e487b7160e01b600052604160045260246000fd5b604051908082528060200260200182016040528015612964578160200160208202803683370190505b50915060005b808451111561173557600084828151811061299557634e487b7160e01b600052603260045260246000fd5b602002602001015190506129da606660009081526020527f422cccb7cea5c0e46f340bb7b21b81debac329f72e31669c20ff0f3a05cc2b5b546001600160a01b031690565b6001600160a01b03828116600081815260028701602090815260408083205460038a01909252918290205491517f76668b670000000000000000000000000000000000000000000000000000000081526004810191909152602481019290925260448201529116906376668b679060640160206040518083038186803b158015612a6357600080fd5b505afa158015612a77573d6000803e3d6000fd5b505050506040513d601f19601f82011682018060405250810190612a9b9190615bbc565b848381518110612abb57634e487b7160e01b600052603260045260246000fd5b60209081029190910101525080612ad181615e28565b91505061296a565b3360009081526001602090815260408083206004845290915290205460ff16612b445760405162461bcd60e51b815260206004820152601d60248201527f43616c6c696e6720636f6e74722e206e6f7420617574686f72697a65640000006044820152606401610c5a565b6001600160a01b0381166000908152600d60205260409020612b6581614b09565b15612bb25760405162461bcd60e51b815260206004820152601a60248201527f43616e2774206c69717569646174653a20626f72726f77696e670000000000006044820152606401610c5a565b610b5281614b1f565b33612bc461315c565b6001600160a01b03161480612be8575033612bdd6131f4565b6001600160a01b0316145b80612c36575033612c2b6103e960009081526020527f236f539bf6e1b3b15a335e3cd157d360bc4be88c071635c19ba8a82b4f665e9f546001600160a01b031690565b6001600160a01b0316145b612ca85760405162461bcd60e51b815260206004820152603860248201527f43616c6c6572206973206e6f7420746865206f776e65722c206578656375746f60448201527f72206f7220617574686f72697a65642064697361626c657200000000000000006064820152608401610c5a565b6000600a8281548110612ccb57634e487b7160e01b600052603260045260246000fd5b90600052602060002090600302019050600081600101541115610b5257600181015460095580546007556002015460085550565b33612d0861315c565b6001600160a01b03161480612d2c575033612d216131f4565b6001600160a01b0316145b612d785760405162461bcd60e51b815260206004820152601e60248201527f526f6c65733a2063616c6c6572206973206e6f7420746865206f776e657200006044820152606401610c5a565b60408051606081018252938452602084019283528301908152600a805460018101825560009190915292517fc65a7bb8d6351c1cf70c95a316cc6a92839c986682d98bc35f958f4883f9d2a860039094029384015590517fc65a7bb8d6351c1cf70c95a316cc6a92839c986682d98bc35f958f4883f9d2a9830155517fc65a7bb8d6351c1cf70c95a316cc6a92839c986682d98bc35f958f4883f9d2aa90910155565b33612e2461315c565b6001600160a01b03161480612e48575033612e3d6131f4565b6001600160a01b0316145b612e945760405162461bcd60e51b815260206004820152601e60248201527f526f6c65733a2063616c6c6572206973206e6f7420746865206f776e657200006044820152606401610c5a565b601055565b600281015460009015610ea5578154600090612ec190612eb99043615e11565b601754613b73565b90506000601754828560020154612ed89190615dd4565b612ee29190615db4565b9050612f1f606560009081526020527f4a7203f705e51df4a56139a9b86b4a0970bed7ab7a3446eaffe2289989c1645c546001600160a01b031690565b60038501546040517fd9caed120000000000000000000000000000000000000000000000000000000081526001600160a01b037f00000000000000000000000000000000000000000000000000000000000000008116600483015291821660248201526044810184905291169063d9caed1290606401600060405180830381600087803b158015612faf57600080fd5b505af1158015612fc3573d6000803e3d6000fd5b505050506000613004606b60009081526020527f2dc7a963308417ad45132da282495eb244f38a7db03940a4d808be607669c622546001600160a01b031690565b9050600060165483836001600160a01b0316630ad691506040518163ffffffff1660e01b815260040160206040518083038186803b15801561304557600080fd5b505afa158015613059573d6000803e3d6000fd5b505050506040513d601f19601f8201168201806040525081019061307d9190615bbc565b6130879190615dd4565b6130919190615db4565b600187015460038801546040517f0a45bc1b0000000000000000000000000000000000000000000000000000000081526001600160a01b039283166004820152602481018490529082166044820152919250831690630a45bc1b90606401602060405180830381600087803b15801561310957600080fd5b505af115801561311d573d6000803e3d6000fd5b505050506040513d601f19601f820116820180604052508101906131419190615bbc565b508286600201546131529190615e11565b9695505050505050565b60007f00000000000000000000000000000000000000000000000000000000000000006001600160a01b0316638da5cb5b6040518163ffffffff1660e01b815260040160206040518083038186803b1580156131b757600080fd5b505afa1580156131cb573d6000803e3d6000fd5b505050506040513d601f19601f820116820180604052508101906131ef919061582e565b905090565b60007f00000000000000000000000000000000000000000000000000000000000000006001600160a01b031663c34c08e56040518163ffffffff1660e01b8152600401602060405180830381600087803b15801561325157600080fd5b505af11580156131cb573d6000803e3d6000fd5b6132708383836141ed565b6001600160a01b0382166000908152600f602052604081208054839290613298908490615d9c565b90915550506001600160a01b0382166000908152600f6020908152604080832054600e90925290912054101561127c5760405162461bcd60e51b815260206004820152601860248201527f4578636565647320676c6f62616c20746f6b656e2063617000000000000000006044820152606401610c5a565b6001600160a01b0382166000908152600f602052604081208054839290613338908490615d9c565b90915550506001600160a01b0382166000908152600f6020908152604080832054600e9092529091205410156133b05760405162461bcd60e51b815260206004820152601860248201527f4578636565647320676c6f62616c20746f6b656e2063617000000000000000006044820152606401610c5a565b61127c838383613ea8565b60105483546133ca9190615d9c565b43116134185760405162461bcd60e51b815260206004820181905260248201527f4e6f207769746864726177616c20736f6f6e206166746572206465706f7369746044820152606401610c5a565b6001600160a01b0382166000908152600f602052604081208054839290613440908490615e11565b90915550506001600160a01b038216600090815260058401602052604090205461346b908290615e11565b6001600160a01b038316600090815260058501602052604090205561348f83614c91565b61127c5760405162461bcd60e51b815260206004820152601460248201527f496e73756666696369656e742062616c616e63650000000000000000000000006044820152606401610c5a565b8254600090815b8181101561355f57600086828154811061350c57634e487b7160e01b600052603260045260246000fd5b60009182526020808320909101546001600160a01b03168083529088905260409091205490915061353f90829087614cdd565b6135499085615d9c565b935050808061355790615e28565b9150506134e2565b50509392505050565b60007fff000000000000000000000000000000000000000000000000000000000000008216156135a15761359c8484614dec565b6135ab565b6135ab8484614f26565b6001600160a01b038082166000908152600660209081526040808320938916835292905220600181015491925090613819576000806000846001600160a01b0316630902f1ac6040518163ffffffff1660e01b815260040160606040518083038186803b15801561361b57600080fd5b505afa15801561362f573d6000803e3d6000fd5b505050506040513d601f19601f820116820180604052508101906136539190615b3e565b63ffffffff16925092509250600061366b8989615021565b509050806001600160a01b0316896001600160a01b0316141561374e57836dffffffffffffffffffffffffffff16836dffffffffffffffffffffffffffff166e0100000000000000000000000000006136c49190615dd4565b6136ce9190615db4565b8560020181905550856001600160a01b0316635909c0d56040518163ffffffff1660e01b815260040160206040518083038186803b15801561370f57600080fd5b505afa158015613723573d6000803e3d6000fd5b505050506040513d601f19601f820116820180604052508101906137479190615bbc565b8555613810565b826dffffffffffffffffffffffffffff16846dffffffffffffffffffffffffffff166e01000000000000000000000000000061378a9190615dd4565b6137949190615db4565b8560020181905550856001600160a01b0316635a3d54936040518163ffffffff1660e01b815260040160206040518083038186803b1580156137d557600080fd5b505afa1580156137e9573d6000803e3d6000fd5b505050506040513d601f19601f8201168201806040525081019061380d9190615bbc565b85555b50600184015550505b5050505050565b6e01000000000000000000000000000060005b600184516138419190615e11565b811015613b6c57600084828151811061386a57634e487b7160e01b600052603260045260246000fd5b602002602001015190506000858360016138849190615d9c565b815181106138a257634e487b7160e01b600052603260045260246000fd5b6020026020010151905060008584602081106138ce57634e487b7160e01b600052603260045260246000fd5b1a60f81b7fff000000000000000000000000000000000000000000000000000000000000001615613908576139038383614dec565b613912565b6139128383614f26565b6001600160a01b038082166000818152600660209081526040808320948916835293905282812083517f0902f1ac0000000000000000000000000000000000000000000000000000000081529351949550939092630902f1ac916004808301926060929190829003018186803b15801561398b57600080fd5b505afa15801561399f573d6000803e3d6000fd5b505050506040513d601f19601f820116820180604052508101906139c39190615b3e565b63ffffffff169250505060008260010154826139df9190615e11565b9050600854811115613b425760006139f78787615021565b5090506000816001600160a01b0316886001600160a01b031614613a8b57856001600160a01b0316635a3d54936040518163ffffffff1660e01b815260040160206040518083038186803b158015613a4e57600080fd5b505afa158015613a62573d6000803e3d6000fd5b505050506040513d601f19601f82011682018060405250810190613a869190615bbc565b613afc565b856001600160a01b0316635909c0d56040518163ffffffff1660e01b815260040160206040518083038186803b158015613ac457600080fd5b505afa158015613ad8573d6000803e3d6000fd5b505050506040513d601f19601f82011682018060405250810190613afc9190615bbc565b9050600083866000015483613b119190615e11565b613b1b9190615db4565b9050613b278b8261510b565b6002870191909155908555600185018490559850613b539050565b613b5088846002015461510b565b97505b5050505050508080613b6490615e28565b915050613833565b5092915050565b600081831115613b84575080610bdf565b5081610bdf565b600080613bc9606660009081526020527f422cccb7cea5c0e46f340bb7b21b81debac329f72e31669c20ff0f3a05cc2b5b546001600160a01b031690565b6001600160a01b03858116600081815260028901602090815260408083205460038c01909252918290205491517fe695fa6800000000000000000000000000000000000000000000000000000000815260048101919091526024810192909252604482015291169063e695fa68906064016040805180830381600087803b158015613c5357600080fd5b505af1158015613c67573d6000803e3d6000fd5b505050506040513d601f19601f82011682018060405250810190613c8b9190615bf8565b90925090506000613c9c8484615e11565b6001600160a01b0386166000908152600288016020526040902081905590508015613ce3576001600160a01b03851660009081526003870160205260409020829055613e54565b6001600160a01b038516600090815260038701602052604081208190556001870154815b80821115613dd7576000896001018281548110613d3457634e487b7160e01b600052603260045260246000fd5b6000918252602090912001546001600160a01b0390811691508916811415613d5f5760019350613dc4565b8315613dc457808a600101600184613d779190615e11565b81548110613d9557634e487b7160e01b600052603260045260246000fd5b9060005260206000200160006101000a8154816001600160a01b0302191690836001600160a01b031602179055505b5080613dcf81615e28565b915050613d07565b5087600101805480613df957634e487b7160e01b600052603160045260246000fd5b60008281526020902081017fffffffffffffffffffffffffffffffffffffffffffffffffffffffffffffffff90810180547fffffffffffffffffffffffff000000000000000000000000000000000000000016905501905550505b505050505050565b6001600160a01b0384166000908152600586016020526040902054613e82908390615e11565b6001600160a01b03851660009081526005870160205260409020556138198584836141ed565b6001600160a01b038216600090815260038401602052604090205461400f576001838101805491820181556000908152602090200180547fffffffffffffffffffffffff0000000000000000000000000000000000000000166001600160a01b038416179055613f49606660009081526020527f422cccb7cea5c0e46f340bb7b21b81debac329f72e31669c20ff0f3a05cc2b5b546001600160a01b031690565b6040517f46c87f800000000000000000000000000000000000000000000000000000000081526001600160a01b03848116600483015291909116906346c87f8090602401602060405180830381600087803b158015613fa757600080fd5b505af1158015613fbb573d6000803e3d6000fd5b505050506040513d601f19601f82011682018060405250810190613fdf9190615bbc565b6001600160a01b038316600090815260038501602090815260408083209390935560028601905220819055614159565b60008061404d606660009081526020527f422cccb7cea5c0e46f340bb7b21b81debac329f72e31669c20ff0f3a05cc2b5b546001600160a01b031690565b6001600160a01b03858116600081815260028901602090815260408083205460038c01909252918290205491517fe695fa6800000000000000000000000000000000000000000000000000000000815260048101919091526024810192909252604482015291169063e695fa68906064016040805180830381600087803b1580156140d757600080fd5b505af11580156140eb573d6000803e3d6000fd5b505050506040513d601f19601f8201168201806040525081019061410f9190615bf8565b6001600160a01b03861660009081526003880160205260409020819055909250905061413b8383615d9c565b6001600160a01b038516600090815260028701602052604090205550505b61348f83614c91565b8154600090815b818110156141e557600085828154811061419357634e487b7160e01b600052603260045260246000fd5b60009182526020808320909101546001600160a01b0316808352908790526040909120549091506141c5908290610b56565b6141cf9085615d9c565b93505080806141dd90615e28565b915050614169565b505092915050565b6001600160a01b038216600090815260068401602052604090205460ff1661429557600483018054600180820183556000928352602080842090920180547fffffffffffffffffffffffff0000000000000000000000000000000000000000166001600160a01b038716908117909155835260068601909152604090912080547fffffffffffffffffffffffffffffffffffffffffffffffffffffffffffffff001690911790555b6001600160a01b0382166000908152600584016020526040812080548392906142bf908490615d9c565b9091555050505050565b6103e86142d68284615dd4565b6142e2836103e8615e11565b85600101546142f19190615dd4565b6142fb9190615d9c565b6143059190615db4565b60018401555050429055565b60008061434f606b60009081526020527f2dc7a963308417ad45132da282495eb244f38a7db03940a4d808be607669c622546001600160a01b031690565b6001600160a01b031663b0411f466040518163ffffffff1660e01b8152600401604080518083038186803b15801561438657600080fd5b505afa15801561439a573d6000803e3d6000fd5b505050506040513d601f19601f820116820180604052508101906143be91906159a1565b5090506016546019546143d19190615dd4565b6001600160a01b0390911660009081526014602052604090205411905090565b60408051600080825260208201928390529051909161441391601291906156c9565b506040805160008152602081019182905251614431916013916156c9565b5060005b8084511115613b6c57600084828151811061446057634e487b7160e01b600052603260045260246000fd5b602002602001015190506000600d6000836001600160a01b03166001600160a01b03168152602001908152602001600020905061449c81615147565b15614909576013805460018101825560009182527f66de8ffda797e3de9c05e8fc57b3bf0ec28a930d40b0d285d93c06501cf6a0900180547fffffffffffffffffffffffff0000000000000000000000000000000000000000166001600160a01b0385161790556004820154905b8082111561463e57600083600401828154811061453757634e487b7160e01b600052603260045260246000fd5b60009182526020808320909101546001600160a01b03168083526011909152604090912060028101549192509043146145f3576001600160a01b03821660008181526005870160205260408120546001808501919091558184554360028501556012805491820181559091527fbb8a6a4669ba250d26cd7a459eca9d215f8307e33aebe50379bc5a3617ec34440180547fffffffffffffffffffffffff0000000000000000000000000000000000000000169091179055614629565b6001600160a01b038216600090815260058601602052604081205460018301805491929091614623908490615d9c565b90915550505b5050808061463690615e28565b91505061450a565b5050600181015460005b8082111561490657600083600101828154811061467557634e487b7160e01b600052603260045260246000fd5b60009182526020808320909101546001600160a01b0316808352601190915260408220909250906146d7606660009081526020527f422cccb7cea5c0e46f340bb7b21b81debac329f72e31669c20ff0f3a05cc2b5b546001600160a01b031690565b6001600160a01b03848116600081815260028a01602090815260408083205460038d01909252918290205491517fe695fa6800000000000000000000000000000000000000000000000000000000815260048101919091526024810192909252604482015291169063e695fa68906064016040805180830381600087803b15801561476157600080fd5b505af1158015614775573d6000803e3d6000fd5b505050506040513d601f19601f820116820180604052508101906147999190615bf8565b5090506147d7606660009081526020527f422cccb7cea5c0e46f340bb7b21b81debac329f72e31669c20ff0f3a05cc2b5b546001600160a01b031690565b6040517f2a6a897b0000000000000000000000000000000000000000000000000000000081526001600160a01b038581166004830152602482018490529190911690632a6a897b90604401600060405180830381600087803b15801561483c57600080fd5b505af1158015614850573d6000803e3d6000fd5b50505050438260020154146148d657600060018381018290558284554360028501556012805491820181559091527fbb8a6a4669ba250d26cd7a459eca9d215f8307e33aebe50379bc5a3617ec34440180547fffffffffffffffffffffffff0000000000000000000000000000000000000000166001600160a01b0385161790556148f0565b808260000160008282546148ea9190615d9c565b90915550505b50505080806148fe90615e28565b915050614648565b50505b6001600160a01b0382166000908152601560205260409020851561493d5761493081612e99565b61493a9086615d9c565b94505b505050808061494b90615e28565b915050614435565b601254600090815b80821115614a245760006012828154811061498657634e487b7160e01b600052603260045260246000fd5b60009182526020808320909101546001600160a01b0316808352601190915260409091208054600182015492935090911115614a0f57805460018201546000916149cf91615e11565b90506149db8382615184565b6149e59087615d9c565b6001600160a01b038416600090815260116020526040812081815560018101829055600201559550505b50508080614a1c90615e28565b91505061495b565b505090565b601254600090815b80821115614a2457600060128281548110614a5c57634e487b7160e01b600052603260045260246000fd5b60009182526020808320909101546001600160a01b0316808352601190915260409091206001810154815492935090911115614ae257614aaf8282600101548360000154614aaa9190615e11565b61530e565b614ab99086615d9c565b6001600160a01b0383166000908152601160205260408120818155600181018290556002015594505b50508080614aef90615e28565b915050614a31565b6000610bdf82600401836005016154a5565b6000610bdf826001018360020184600301615528565b600181015460005b80821115614b98576000836001018281548110614b5457634e487b7160e01b600052603260045260246000fd5b60009182526020808320909101546001600160a01b031682526002860181526040808320839055600387019091528120555080614b9081615e28565b915050614b27565b5050600481015460005b80821115614c74576000836004018281548110614bcf57634e487b7160e01b600052603260045260246000fd5b60009182526020808320909101546001600160a01b0316808352600587018252604080842054600f90935283208054919450919290614c0f908490615e11565b90915550506001600160a01b03166000908152600584016020908152604080832083905560068601909152902080547fffffffffffffffffffffffffffffffffffffffffffffffffffffffffffffff0016905580614c6c81615e28565b915050614ba2565b50614c83600183016000615746565b610b52600483016000615746565b600080614c9d83614b09565b90506000614caa84614af7565b9050600b5482614cba9190615dd4565b6064600b54614cc99190615e11565b614cd39083615dd4565b1015949350505050565b600080614d1b606660009081526020527f422cccb7cea5c0e46f340bb7b21b81debac329f72e31669c20ff0f3a05cc2b5b546001600160a01b031690565b6040517f14189db20000000000000000000000000000000000000000000000000000000081526001600160a01b03878116600483015291909116906314189db29060240160206040518083038186803b158015614d7757600080fd5b505afa158015614d8b573d6000803e3d6000fd5b505050506040513d601f19601f82011682018060405250810190614daf9190615bbc565b6001600160a01b03861660009081526020859052604081205491925090614dd68387615dd4565b614de09190615db4565b9050611d0c8682610b56565b6000806000614dfb8585615021565b6040517fffffffffffffffffffffffffffffffffffffffff000000000000000000000000606084811b8216602084015283901b16603482015291935091507f00000000000000000000000000000000000000000000000000000000000000009060480160405160208183030381529060405280519060200120600354604051602001614ee7939291907fff00000000000000000000000000000000000000000000000000000000000000815260609390931b7fffffffffffffffffffffffffffffffffffffffff0000000000000000000000001660018401526015830191909152603582015260550190565b604080517fffffffffffffffffffffffffffffffffffffffffffffffffffffffffffffffe0818403018152919052805160209091012095945050505050565b6000806000614f358585615021565b6040517fffffffffffffffffffffffffffffffffffffffff000000000000000000000000606084811b8216602084015283901b16603482015291935091507f00000000000000000000000000000000000000000000000000000000000000009060480160405160208183030381529060405280519060200120600254604051602001614ee7939291907fff00000000000000000000000000000000000000000000000000000000000000815260609390931b7fffffffffffffffffffffffffffffffffffffffff0000000000000000000000001660018401526015830191909152603582015260550190565b600080826001600160a01b0316846001600160a01b031614156150865760405162461bcd60e51b815260206004820152601260248201527f4964656e746963616c20616464726573732100000000000000000000000000006044820152606401610c5a565b826001600160a01b0316846001600160a01b0316106150a65782846150a9565b83835b90925090506001600160a01b0382166151045760405162461bcd60e51b815260206004820152600d60248201527f5a65726f206164647265737321000000000000000000000000000000000000006044820152606401610c5a565b9250929050565b60006c0100000000000000000000000061512761010084615db4565b61513361010086615db4565b61513d9190615dd4565b611d119190615db4565b60008061515383614b09565b9050600061516084614af7565b905081600c546151709190615dd4565b61517b826064615dd4565b10949350505050565b60007f00000000000000000000000000000000000000000000000000000000000000006001600160a01b0316836001600160a01b031614156151c7575080610bdf565b6001600160a01b03831660009081526005602052604081209061521b606760009081526020527f682158d08466d11c566d5712d4396197fdd67e65be71d83c97ef719ec468867b546001600160a01b031690565b6001600160a01b031663351ae6108560008560030154866002016040518563ffffffff1660e01b81526004016152549493929190615d04565b600060405180830381600087803b15801561526e57600080fd5b505af1158015615282573d6000803e3d6000fd5b505050506040513d6000823e601f3d9081017fffffffffffffffffffffffffffffffffffffffffffffffffffffffffffffffe01682016040526152c89190810190615a4a565b9050600081600183516152db9190615e11565b815181106152f957634e487b7160e01b600052603260045260246000fd5b60200260200101519050809350505050610bdf565b60007f00000000000000000000000000000000000000000000000000000000000000006001600160a01b0316836001600160a01b03161415615351575080610bdf565b6001600160a01b0383166000908152600560205260408120906153a5606760009081526020527f682158d08466d11c566d5712d4396197fdd67e65be71d83c97ef719ec468867b546001600160a01b031690565b6001600160a01b03166353d7ff9f857fffffffffffffffffffffffffffffffffffffffffffffffffffffffffffffffff8560030154866004016040518563ffffffff1660e01b81526004016153fd9493929190615d04565b600060405180830381600087803b15801561541757600080fd5b505af115801561542b573d6000803e3d6000fd5b505050506040513d6000823e601f3d9081017fffffffffffffffffffffffffffffffffffffffffffffffffffffffffffffffe01682016040526154719190810190615a4a565b90508060008151811061549457634e487b7160e01b600052603260045260246000fd5b602002602001015192505050610bdf565b8154600090815b818110156141e55760008582815481106154d657634e487b7160e01b600052603260045260246000fd5b60009182526020808320909101546001600160a01b0316808352908790526040909120549091506155089082906155ac565b6155129085615d9c565b935050808061552090615e28565b9150506154ac565b8254600090815b8181101561355f57600086828154811061555957634e487b7160e01b600052603260045260246000fd5b60009182526020808320909101546001600160a01b03168083529088905260409091205490915061558c908290876155ba565b6155969085615d9c565b93505080806155a490615e28565b91505061552f565b6000611d1183836000611bce565b6000806155f8606660009081526020527f422cccb7cea5c0e46f340bb7b21b81debac329f72e31669c20ff0f3a05cc2b5b546001600160a01b031690565b6040517f14189db20000000000000000000000000000000000000000000000000000000081526001600160a01b03878116600483015291909116906314189db29060240160206040518083038186803b15801561565457600080fd5b505afa158015615668573d6000803e3d6000fd5b505050506040513d601f19601f8201168201806040525081019061568c9190615bbc565b6001600160a01b038616600090815260208590526040812054919250906156b38387615dd4565b6156bd9190615db4565b9050611d0c86826155ac565b828054828255906000526020600020908101928215615736579160200282015b8281111561573657825182547fffffffffffffffffffffffff0000000000000000000000000000000000000000166001600160a01b039091161782556020909201916001909101906156e9565b50615742929150615767565b5090565b50805460008255906000526020600020908101906157649190615767565b50565b5b808211156157425760008155600101615768565b600082601f83011261578c578081fd5b813560206157a161579c83615d78565b615d29565b80838252828201915082860187848660051b89010111156157c0578586fd5b855b858110156157e75781356157d581615e8d565b845292840192908401906001016157c2565b5090979650505050505050565b80516dffffffffffffffffffffffffffff81168114610ea557600080fd5b600060208284031215615823578081fd5b8135611d1181615e8d565b60006020828403121561583f578081fd5b8151611d1181615e8d565b6000806040838503121561585c578081fd5b823561586781615e8d565b9150602083013561587781615e8d565b809150509250929050565b600080600080600060a08688031215615899578081fd5b85356158a481615e8d565b945060208601356158b481615e8d565b935060408601356158c481615e8d565b94979396509394606081013594506080013592915050565b6000806000606084860312156158f0578283fd5b83356158fb81615e8d565b9250602084013561590b81615e8d565b929592945050506040919091013590565b600080600080600060a08688031215615933578081fd5b853561593e81615e8d565b9450602086013561594e81615e8d565b935060408601359250606086013561596581615e8d565b949793965091946080013592915050565b60008060408385031215615988578182fd5b823561599381615e8d565b946020939093013593505050565b600080604083850312156159b3578182fd5b82516159be81615e8d565b6020939093015192949293505050565b6000806000606084860312156159e2578081fd5b83356159ed81615e8d565b9250602084013591506040840135615a0481615ea2565b809150509250925092565b600060208284031215615a20578081fd5b813567ffffffffffffffff811115615a36578182fd5b615a428482850161577c565b949350505050565b60006020808385031215615a5c578182fd5b825167ffffffffffffffff811115615a72578283fd5b8301601f81018513615a82578283fd5b8051615a9061579c82615d78565b80828252848201915084840188868560051b8701011115615aaf578687fd5b8694505b83851015615ad1578051835260019490940193918501918501615ab3565b50979650505050505050565b600060208284031215615aee578081fd5b8151611d1181615ea2565b60008060408385031215615b0b578182fd5b82359150602083013567ffffffffffffffff811115615b28578182fd5b615b348582860161577c565b9150509250929050565b600080600060608486031215615b52578081fd5b615b5b846157f4565b9250615b69602085016157f4565b9150604084015163ffffffff81168114615a04578182fd5b60008060408385031215615b93578182fd5b823561ffff81168114615993578283fd5b600060208284031215615bb5578081fd5b5035919050565b600060208284031215615bcd578081fd5b5051919050565b60008060408385031215615be6578182fd5b82359150602083013561587781615e8d565b60008060408385031215615c0a578182fd5b505080516020909101519092909150565b600080600060608486031215615c2f578081fd5b505081359360208301359350604090920135919050565b6000815480845260208085019450838352808320835b83811015615c815781546001600160a01b031687529582019560019182019101615c5c565b509495945050505050565b604080825283519082018190526000906020906060840190828701845b82811015615cd05781516001600160a01b0316845260208401935090840190600101615ca9565b50505083810382850152845180825285830191830190845b818110156157e757835183529284019291840191600101615ce8565b6000858252846020830152836040830152608060608301526131526080830184615c46565b604051601f82017fffffffffffffffffffffffffffffffffffffffffffffffffffffffffffffffe016810167ffffffffffffffff81118282101715615d7057615d70615e77565b604052919050565b600067ffffffffffffffff821115615d9257615d92615e77565b5060051b60200190565b60008219821115615daf57615daf615e61565b500190565b600082615dcf57634e487b7160e01b81526012600452602481fd5b500490565b6000817fffffffffffffffffffffffffffffffffffffffffffffffffffffffffffffffff0483118215151615615e0c57615e0c615e61565b500290565b600082821015615e2357615e23615e61565b500390565b60007fffffffffffffffffffffffffffffffffffffffffffffffffffffffffffffffff821415615e5a57615e5a615e61565b5060010190565b634e487b7160e01b600052601160045260246000fd5b634e487b7160e01b600052604160045260246000fd5b6001600160a01b038116811461576457600080fd5b801515811461576457600080fdfea2646970667358221220253fb38d87ebcab5a7bf9f89ea5ffab490c63028864d163e86c9d917365bfd2164736f6c63430008030033",
  "linkReferences": {},
  "deployedLinkReferences": {}
}