{
  "_format": "hh-sol-artifact-1",
  "contractName": "CrossMarginTrading",
  "sourceName": "contracts/CrossMarginTrading.sol",
  "abi": [
    {
      "inputs": [
        {
          "internalType": "address",
          "name": "_peg",
          "type": "address"
        },
        {
          "internalType": "address",
          "name": "_roles",
          "type": "address"
        }
      ],
      "stateMutability": "nonpayable",
      "type": "constructor"
    },
    {
      "anonymous": false,
      "inputs": [
        {
          "indexed": false,
          "internalType": "address",
          "name": "account",
          "type": "address"
        }
      ],
      "name": "AccountLiquidated",
      "type": "event"
    },
    {
      "anonymous": false,
      "inputs": [
        {
          "indexed": false,
          "internalType": "uint256",
          "name": "amount",
          "type": "uint256"
        }
      ],
      "name": "LiquidationShortfall",
      "type": "event"
    },
    {
      "inputs": [],
      "name": "MAINTAINER_CUT_PERCENT",
      "outputs": [
        {
          "internalType": "uint256",
          "name": "",
          "type": "uint256"
        }
      ],
      "stateMutability": "view",
      "type": "function"
    },
    {
      "inputs": [],
      "name": "UPDATE_RATE_PERMIL",
      "outputs": [
        {
          "internalType": "uint256",
          "name": "",
          "type": "uint256"
        }
      ],
      "stateMutability": "view",
      "type": "function"
    },
    {
      "inputs": [
        {
          "internalType": "uint256",
          "name": "_priceUpdateWindow",
          "type": "uint256"
        },
        {
          "internalType": "uint256",
          "name": "_updateRatePermil",
          "type": "uint256"
        },
        {
          "internalType": "uint256",
          "name": "_voluntaryUpdateWindow",
          "type": "uint256"
        }
      ],
      "name": "addVolatilitySetting",
      "outputs": [],
      "stateMutability": "nonpayable",
      "type": "function"
    },
    {
      "inputs": [],
      "name": "avgLiquidationPerCall",
      "outputs": [
        {
          "internalType": "uint256",
          "name": "",
          "type": "uint256"
        }
      ],
      "stateMutability": "view",
      "type": "function"
    },
    {
      "inputs": [
        {
          "internalType": "address",
          "name": "trader",
          "type": "address"
        }
      ],
      "name": "canBeLiquidated",
      "outputs": [
        {
          "internalType": "bool",
          "name": "",
          "type": "bool"
        }
      ],
      "stateMutability": "view",
      "type": "function"
    },
    {
      "inputs": [
        {
          "internalType": "uint256",
          "name": "index",
          "type": "uint256"
        }
      ],
      "name": "chooseVolatilitySetting",
      "outputs": [],
      "stateMutability": "nonpayable",
      "type": "function"
    },
    {
      "inputs": [],
      "name": "coolingOffPeriod",
      "outputs": [
        {
          "internalType": "uint256",
          "name": "",
          "type": "uint256"
        }
      ],
      "stateMutability": "view",
      "type": "function"
    },
    {
      "inputs": [
        {
          "internalType": "address[]",
          "name": "liquidatedAccounts",
          "type": "address[]"
        }
      ],
      "name": "disburseLiqStakeAttacks",
      "outputs": [],
      "stateMutability": "nonpayable",
      "type": "function"
    },
    {
      "inputs": [],
      "name": "failureThreshold",
      "outputs": [
        {
          "internalType": "uint256",
          "name": "",
          "type": "uint256"
        }
      ],
      "stateMutability": "view",
      "type": "function"
    },
    {
      "inputs": [
        {
          "internalType": "address",
          "name": "trader",
          "type": "address"
        }
      ],
      "name": "getBorrowAmounts",
      "outputs": [
        {
          "internalType": "address[]",
          "name": "borrowTokens",
          "type": "address[]"
        },
        {
          "internalType": "uint256[]",
          "name": "borrowAmounts",
          "type": "uint256[]"
        }
      ],
      "stateMutability": "view",
      "type": "function"
    },
    {
      "inputs": [
        {
          "internalType": "address",
          "name": "token",
          "type": "address"
        },
        {
          "internalType": "uint256",
          "name": "inAmount",
          "type": "uint256"
        },
        {
          "internalType": "bool",
          "name": "voluntary",
          "type": "bool"
        }
      ],
      "name": "getCurrentPriceInPeg",
      "outputs": [
        {
          "internalType": "uint256",
          "name": "priceInPeg",
          "type": "uint256"
        }
      ],
      "stateMutability": "nonpayable",
      "type": "function"
    },
    {
      "inputs": [
        {
          "internalType": "address",
          "name": "trader",
          "type": "address"
        }
      ],
      "name": "getHoldingAmounts",
      "outputs": [
        {
          "internalType": "address[]",
          "name": "holdingTokens",
          "type": "address[]"
        },
        {
          "internalType": "uint256[]",
          "name": "holdingAmounts",
          "type": "uint256[]"
        }
      ],
      "stateMutability": "view",
      "type": "function"
    },
    {
      "inputs": [],
      "name": "leveragePercent",
      "outputs": [
        {
          "internalType": "uint256",
          "name": "",
          "type": "uint256"
        }
      ],
      "stateMutability": "view",
      "type": "function"
    },
    {
      "inputs": [],
      "name": "liqStakeAttackWindow",
      "outputs": [
        {
          "internalType": "uint256",
          "name": "",
          "type": "uint256"
        }
      ],
      "stateMutability": "view",
      "type": "function"
    },
    {
      "inputs": [
        {
          "internalType": "address[]",
          "name": "liquidationCandidates",
          "type": "address[]"
        }
      ],
      "name": "liquidate",
      "outputs": [
        {
          "internalType": "uint256",
          "name": "maintainerCut",
          "type": "uint256"
        }
      ],
      "stateMutability": "nonpayable",
      "type": "function"
    },
    {
      "inputs": [],
      "name": "liquidationThresholdPercent",
      "outputs": [
        {
          "internalType": "uint256",
          "name": "",
          "type": "uint256"
        }
      ],
      "stateMutability": "view",
      "type": "function"
    },
    {
      "inputs": [
        {
          "internalType": "uint256",
          "name": "",
          "type": "uint256"
        }
      ],
      "name": "mainCharacterCache",
      "outputs": [
        {
          "internalType": "address",
          "name": "",
          "type": "address"
        }
      ],
      "stateMutability": "view",
      "type": "function"
    },
    {
      "inputs": [
        {
          "internalType": "address",
          "name": "",
          "type": "address"
        }
      ],
      "name": "maintenanceFailures",
      "outputs": [
        {
          "internalType": "uint256",
          "name": "",
          "type": "uint256"
        }
      ],
      "stateMutability": "view",
      "type": "function"
    },
    {
      "inputs": [
        {
          "internalType": "address",
          "name": "",
          "type": "address"
        },
        {
          "internalType": "address",
          "name": "",
          "type": "address"
        }
      ],
      "name": "pairPrices",
      "outputs": [
        {
          "internalType": "uint256",
          "name": "cumulative",
          "type": "uint256"
        },
        {
          "internalType": "uint256",
          "name": "lastUpdated",
          "type": "uint256"
        },
        {
          "internalType": "uint256",
          "name": "priceFP",
          "type": "uint256"
        }
      ],
      "stateMutability": "view",
      "type": "function"
    },
    {
      "inputs": [],
      "name": "peg",
      "outputs": [
        {
          "internalType": "address",
          "name": "",
          "type": "address"
        }
      ],
      "stateMutability": "view",
      "type": "function"
    },
    {
      "inputs": [],
      "name": "priceUpdateWindow",
      "outputs": [
        {
          "internalType": "uint256",
          "name": "",
          "type": "uint256"
        }
      ],
      "stateMutability": "view",
      "type": "function"
    },
    {
      "inputs": [
        {
          "internalType": "address",
          "name": "trader",
          "type": "address"
        },
        {
          "internalType": "address",
          "name": "borrowToken",
          "type": "address"
        },
        {
          "internalType": "uint256",
          "name": "borrowAmount",
          "type": "uint256"
        }
      ],
      "name": "registerBorrow",
      "outputs": [],
      "stateMutability": "nonpayable",
      "type": "function"
    },
    {
      "inputs": [
        {
          "internalType": "address",
          "name": "trader",
          "type": "address"
        },
        {
          "internalType": "address",
          "name": "token",
          "type": "address"
        },
        {
          "internalType": "uint256",
          "name": "depositAmount",
          "type": "uint256"
        }
      ],
      "name": "registerDeposit",
      "outputs": [
        {
          "internalType": "uint256",
          "name": "extinguishableDebt",
          "type": "uint256"
        }
      ],
      "stateMutability": "nonpayable",
      "type": "function"
    },
    {
      "inputs": [
        {
          "internalType": "address",
          "name": "trader",
          "type": "address"
        }
      ],
      "name": "registerLiquidation",
      "outputs": [],
      "stateMutability": "nonpayable",
      "type": "function"
    },
    {
      "inputs": [
        {
          "internalType": "address",
          "name": "trader",
          "type": "address"
        },
        {
          "internalType": "address",
          "name": "depositToken",
          "type": "address"
        },
        {
          "internalType": "uint256",
          "name": "depositAmount",
          "type": "uint256"
        },
        {
          "internalType": "address",
          "name": "borrowToken",
          "type": "address"
        },
        {
          "internalType": "uint256",
          "name": "withdrawAmount",
          "type": "uint256"
        }
      ],
      "name": "registerOvercollateralizedBorrow",
      "outputs": [],
      "stateMutability": "nonpayable",
      "type": "function"
    },
    {
      "inputs": [
        {
          "internalType": "address",
          "name": "trader",
          "type": "address"
        },
        {
          "internalType": "address",
          "name": "tokenFrom",
          "type": "address"
        },
        {
          "internalType": "address",
          "name": "tokenTo",
          "type": "address"
        },
        {
          "internalType": "uint256",
          "name": "inAmount",
          "type": "uint256"
        },
        {
          "internalType": "uint256",
          "name": "outAmount",
          "type": "uint256"
        }
      ],
      "name": "registerTradeAndBorrow",
      "outputs": [
        {
          "internalType": "uint256",
          "name": "extinguishableDebt",
          "type": "uint256"
        },
        {
          "internalType": "uint256",
          "name": "borrowAmount",
          "type": "uint256"
        }
      ],
      "stateMutability": "nonpayable",
      "type": "function"
    },
    {
      "inputs": [
        {
          "internalType": "address",
          "name": "trader",
          "type": "address"
        },
        {
          "internalType": "address",
          "name": "withdrawToken",
          "type": "address"
        },
        {
          "internalType": "uint256",
          "name": "withdrawAmount",
          "type": "uint256"
        }
      ],
      "name": "registerWithdrawal",
      "outputs": [],
      "stateMutability": "nonpayable",
      "type": "function"
    },
    {
      "inputs": [
        {
          "internalType": "address",
          "name": "",
          "type": "address"
        },
        {
          "internalType": "uint256",
          "name": "",
          "type": "uint256"
        }
      ],
      "name": "roleCache",
      "outputs": [
        {
          "internalType": "bool",
          "name": "",
          "type": "bool"
        }
      ],
      "stateMutability": "view",
      "type": "function"
    },
    {
      "inputs": [],
      "name": "roles",
      "outputs": [
        {
          "internalType": "contract Roles",
          "name": "",
          "type": "address"
        }
      ],
      "stateMutability": "view",
      "type": "function"
    },
    {
      "inputs": [
        {
          "internalType": "uint256",
          "name": "blocks",
          "type": "uint256"
        }
      ],
      "name": "setCoolingOffPeriod",
      "outputs": [],
      "stateMutability": "nonpayable",
      "type": "function"
    },
    {
      "inputs": [
        {
          "internalType": "uint256",
          "name": "threshFactor",
          "type": "uint256"
        }
      ],
      "name": "setFailureThreshold",
      "outputs": [],
      "stateMutability": "nonpayable",
      "type": "function"
    },
    {
      "inputs": [
        {
          "internalType": "uint256",
          "name": "_leveragePercent",
          "type": "uint256"
        }
      ],
      "name": "setLeveragePercent",
      "outputs": [],
      "stateMutability": "nonpayable",
      "type": "function"
    },
    {
      "inputs": [
        {
          "internalType": "uint256",
          "name": "window",
          "type": "uint256"
        }
      ],
      "name": "setLiqStakeAttackWindow",
      "outputs": [],
      "stateMutability": "nonpayable",
      "type": "function"
    },
    {
      "inputs": [
        {
          "internalType": "bytes32",
          "name": "amms",
          "type": "bytes32"
        },
        {
          "internalType": "address[]",
          "name": "tokens",
          "type": "address[]"
        }
      ],
      "name": "setLiquidationPath",
      "outputs": [],
      "stateMutability": "nonpayable",
      "type": "function"
    },
    {
      "inputs": [
        {
          "internalType": "uint256",
          "name": "threshold",
          "type": "uint256"
        }
      ],
      "name": "setLiquidationThresholdPercent",
      "outputs": [],
      "stateMutability": "nonpayable",
      "type": "function"
    },
    {
      "inputs": [
        {
          "internalType": "uint256",
          "name": "cut",
          "type": "uint256"
        }
      ],
      "name": "setMaintainerCutPercent",
      "outputs": [],
      "stateMutability": "nonpayable",
      "type": "function"
    },
    {
      "inputs": [
        {
          "internalType": "uint16",
          "name": "window",
          "type": "uint16"
        },
        {
          "internalType": "uint256",
          "name": "voluntaryWindow",
          "type": "uint256"
        }
      ],
      "name": "setPriceUpdateWindow",
      "outputs": [],
      "stateMutability": "nonpayable",
      "type": "function"
    },
    {
      "inputs": [
        {
          "internalType": "address",
          "name": "token",
          "type": "address"
        },
        {
          "internalType": "uint256",
          "name": "cap",
          "type": "uint256"
        }
      ],
      "name": "setTokenCap",
      "outputs": [],
      "stateMutability": "nonpayable",
      "type": "function"
    },
    {
      "inputs": [
        {
          "internalType": "uint256",
          "name": "rate",
          "type": "uint256"
        }
      ],
      "name": "setUpdateRate",
      "outputs": [],
      "stateMutability": "nonpayable",
      "type": "function"
    },
    {
      "inputs": [
        {
          "internalType": "address",
          "name": "",
          "type": "address"
        }
      ],
      "name": "stakeAttackRecords",
      "outputs": [
        {
          "internalType": "uint256",
          "name": "blockNum",
          "type": "uint256"
        },
        {
          "internalType": "address",
          "name": "loser",
          "type": "address"
        },
        {
          "internalType": "uint256",
          "name": "amount",
          "type": "uint256"
        },
        {
          "internalType": "address",
          "name": "stakeAttacker",
          "type": "address"
        }
      ],
      "stateMutability": "view",
      "type": "function"
    },
    {
      "inputs": [
        {
          "internalType": "address",
          "name": "",
          "type": "address"
        }
      ],
      "name": "tokenCaps",
      "outputs": [
        {
          "internalType": "uint256",
          "name": "",
          "type": "uint256"
        }
      ],
      "stateMutability": "view",
      "type": "function"
    },
    {
      "inputs": [
        {
          "internalType": "address",
          "name": "",
          "type": "address"
        }
      ],
      "name": "tokenPrices",
      "outputs": [
        {
          "internalType": "uint256",
          "name": "lastUpdated",
          "type": "uint256"
        },
        {
          "internalType": "uint256",
          "name": "priceFP",
          "type": "uint256"
        },
        {
          "internalType": "bytes32",
          "name": "amms",
          "type": "bytes32"
        },
        {
          "internalType": "bytes32",
          "name": "inverseAmms",
          "type": "bytes32"
        }
      ],
      "stateMutability": "view",
      "type": "function"
    },
    {
      "inputs": [
        {
          "internalType": "address",
          "name": "",
          "type": "address"
        }
      ],
      "name": "totalLong",
      "outputs": [
        {
          "internalType": "uint256",
          "name": "",
          "type": "uint256"
        }
      ],
      "stateMutability": "view",
      "type": "function"
    },
    {
      "inputs": [
        {
          "internalType": "uint256",
          "name": "role",
          "type": "uint256"
        }
      ],
      "name": "updateMainCharacterCache",
      "outputs": [],
      "stateMutability": "nonpayable",
      "type": "function"
    },
    {
      "inputs": [
        {
          "internalType": "uint256",
          "name": "role",
          "type": "uint256"
        },
        {
          "internalType": "address",
          "name": "contr",
          "type": "address"
        }
      ],
      "name": "updateRoleCache",
      "outputs": [],
      "stateMutability": "nonpayable",
      "type": "function"
    },
    {
      "inputs": [
        {
          "internalType": "address",
          "name": "trader",
          "type": "address"
        },
        {
          "internalType": "address",
          "name": "token",
          "type": "address"
        }
      ],
      "name": "viewBalanceInToken",
      "outputs": [
        {
          "internalType": "uint256",
          "name": "",
          "type": "uint256"
        }
      ],
      "stateMutability": "view",
      "type": "function"
    },
    {
      "inputs": [
        {
          "internalType": "address",
          "name": "token",
          "type": "address"
        },
        {
          "internalType": "uint256",
          "name": "inAmount",
          "type": "uint256"
        }
      ],
      "name": "viewCurrentPriceInPeg",
      "outputs": [
        {
          "internalType": "uint256",
          "name": "priceInPeg",
          "type": "uint256"
        }
      ],
      "stateMutability": "view",
      "type": "function"
    },
    {
      "inputs": [
        {
          "internalType": "address",
          "name": "trader",
          "type": "address"
        }
      ],
      "name": "viewHoldingsInPeg",
      "outputs": [
        {
          "internalType": "uint256",
          "name": "",
          "type": "uint256"
        }
      ],
      "stateMutability": "view",
      "type": "function"
    },
    {
      "inputs": [
        {
          "internalType": "address",
          "name": "trader",
          "type": "address"
        }
      ],
      "name": "viewLoanInPeg",
      "outputs": [
        {
          "internalType": "uint256",
          "name": "amount",
          "type": "uint256"
        }
      ],
      "stateMutability": "view",
      "type": "function"
    },
    {
      "inputs": [
        {
          "internalType": "uint256",
          "name": "",
          "type": "uint256"
        }
      ],
      "name": "volatilitySettings",
      "outputs": [
        {
          "internalType": "uint256",
          "name": "priceUpdateWindow",
          "type": "uint256"
        },
        {
          "internalType": "uint256",
          "name": "updateRatePermil",
          "type": "uint256"
        },
        {
          "internalType": "uint256",
          "name": "voluntaryUpdateWindow",
          "type": "uint256"
        }
      ],
      "stateMutability": "view",
      "type": "function"
    },
    {
      "inputs": [],
      "name": "voluntaryUpdateWindow",
      "outputs": [
        {
          "internalType": "uint256",
          "name": "",
          "type": "uint256"
        }
      ],
      "stateMutability": "view",
      "type": "function"
    }
  ],
  "bytecode": "0x60c06040526104b060045561012c60055561019060065561012c6008556073600955600a600d55600a60135560056014556005601555600a6016553480156200004757600080fd5b5060405162005fbf38038062005fbf8339810160408190526200006a9162000112565b81816001600160a01b038116620000d25760405162461bcd60e51b815260206004820152602260248201527f506c656173652070726f766964652076616c696420726f6c6573206164647265604482015261737360f01b606482015260840160405180910390fd5b6001600160601b0319606091821b811660805291901b1660a05250620001499050565b80516001600160a01b03811681146200010d57600080fd5b919050565b6000806040838503121562000125578182fd5b6200013083620000f5565b91506200014060208401620000f5565b90509250929050565b60805160601c60a05160601c615def620001d0600039600081816103e501528181610a8601528181610eca01528181611afd01528181611f750152818161228f0152818161242c01528181612e7f01528181615091015261521b0152600081816104f9015281816108c2015281816116a60152818161308b01526131230152615def6000f3fe608060405234801561001057600080fd5b50600436106103415760003560e01c806354554b58116101bd578063badb5048116100f9578063db2d904d116100a2578063ef859fc81161007c578063ef859fc81461081d578063f04c68651461085a578063f3f5f9b51461086d578063f99fd97c1461088057610341565b8063db2d904d146107c1578063e0f3871f146107d4578063e9c3f77d146107f457610341565b8063c74303aa116100d3578063c74303aa14610788578063d0eb66531461079b578063d510c535146107ae57610341565b8063badb5048146106f5578063bc70c66614610762578063c73afac21461077557610341565b80639c56522c11610166578063a371891911610140578063a3718919146106a6578063a53ac0d9146106b9578063a75697a5146106c2578063a985994b146106e257610341565b80639c56522c14610677578063a17ab52714610680578063a20ec4931461069357610341565b80637a1a04df116101975780637a1a04df146105eb5780637d100e84146106195780638dc6a5291461062257610341565b806354554b58146105bc57806360b3fa40146105cf5780636585b5a6146105e257610341565b80632febaa741161028c578063447d52ba116102355780634aa4aca31161020f5780634aa4aca31461058e578063519bda851461059757806352a664d9146105a0578063538edb29146105b357610341565b8063447d52ba1461054557806347788cd014610558578063498d55eb1461057b57610341565b8063392f5f6411610266578063392f5f64146104f45780633ed456fa1461051b578063409fdb721461052457610341565b80632febaa74146104ba578063320d2fa0146104c35780633500aa0b146104cc57610341565b80631d84cc18116102ee578063204120bc116102c8578063204120bc1461043257806320c27126146104875780632b23f857146104a757610341565b80631d84cc18146103cd5780631f1cb62b146103e05780631f692a641461041f57610341565b806310d584341161031f57806310d584341461039457806316317e7e146103a75780631d47e4a3146103ba57610341565b8063071060a61461034657806307c201751461035b578063093a483a1461036e575b600080fd5b610359610354366004615aad565b610893565b005b610359610369366004615918565b61098a565b61038161037c36600461587f565b610a82565b6040519081526020015b60405180910390f35b6103596103a2366004615aad565b610b11565b6103596103b5366004615aad565b610b94565b6103596103c836600461587f565b610c12565b6103596103db366004615825565b610cf3565b6104077f000000000000000000000000000000000000000000000000000000000000000081565b6040516001600160a01b03909116815260200161038b565b61038161042d36600461571b565b610da1565b61046761044036600461571b565b60026020526000908152604090208054600182015460038301546005909301549192909184565b60408051948552602085019390935291830152606082015260800161038b565b61038161049536600461571b565b600c6020526000908152604090205481565b6103596104b5366004615a02565b610dd6565b610381600d5481565b61038160095481565b6104df6104da36600461578b565b6111ac565b6040805192835260208301919091520161038b565b6104077f000000000000000000000000000000000000000000000000000000000000000081565b61038160045481565b61053761053236600461571b565b6114f0565b60405161038b929190615b95565b610359610553366004615add565b611667565b61056b61056636600461571b565b611776565b604051901515815260200161038b565b6103596105893660046157e5565b6117dd565b61038160145481565b61038160065481565b6103816105ae3660046157e5565b61187c565b61038160155481565b6103596105ca366004615aad565b611a7b565b6103816105dd3660046158d7565b611af9565b61038160135481565b61056b6105f936600461587f565b600160209081526000928352604080842090915290825290205460ff1681565b61038160165481565b61065c610630366004615753565b600360209081526000928352604080842090915290825290208054600182015460029092015490919083565b6040805193845260208401929092529082015260600161038b565b61038160055481565b61038161068e36600461571b565b611c43565b6103596106a1366004615a8a565b611c6b565b6103596106b4366004615aad565b611cf2565b61038160085481565b6103816106d036600461571b565b60116020526000908152604090205481565b6103816106f0366004615918565b611d70565b61073761070336600461571b565b601260205260009081526040902080546001820154600283015460039093015491926001600160a01b039182169290911684565b604080519485526001600160a01b03938416602086015284019190915216606082015260800161038b565b61065c610770366004615aad565b612603565b610359610783366004615aad565b612636565b610359610796366004615aad565b6126b4565b6103596107a93660046157e5565b612732565b6105376107bc36600461571b565b6127c0565b6103596107cf36600461571b565b612a04565b6103816107e236600461571b565b600b6020526000908152604090205481565b610407610802366004615aad565b6000602081905290815260409020546001600160a01b031681565b61038161082b366004615753565b6001600160a01b039182166000908152600a602090815260408083209390941682526005909201909152205490565b610359610868366004615aad565b612ae6565b61035961087b366004615b24565b612c2a565b61035961088e366004615aad565b612d46565b6040517fb4ed0b6d000000000000000000000000000000000000000000000000000000008152600481018290527f00000000000000000000000000000000000000000000000000000000000000006001600160a01b03169063b4ed0b6d9060240160206040518083038186803b15801561090c57600080fd5b505afa158015610920573d6000803e3d6000fd5b505050506040513d601f19601f820116820180604052508101906109449190615737565b60009182526020829052604090912080547fffffffffffffffffffffffff0000000000000000000000000000000000000000166001600160a01b03909216919091179055565b60005b8082511115610a7e5760008282815181106109b857634e487b7160e01b600052603260045260246000fd5b60200260200101519050600060126000836001600160a01b03166001600160a01b03168152602001908152602001600020905060145481600001546109fd9190615ca5565b431115610a6957610a0d81612dc4565b506001600160a01b03821660009081526012602052604081208181556001810180547fffffffffffffffffffffffff00000000000000000000000000000000000000009081169091556002820192909255600301805490911690555b50508080610a7690615d31565b91505061098d565b5050565b60007f00000000000000000000000000000000000000000000000000000000000000006001600160a01b0316836001600160a01b03161415610ac5575080610b0b565b6001600160a01b038316600090815260026020526040902060018101546e010000000000000000000000000000610afc8286615cdd565b610b069190615cbd565b925050505b92915050565b33610b1a613087565b6001600160a01b03161480610b3e575033610b3361311f565b6001600160a01b0316145b610b8f5760405162461bcd60e51b815260206004820152601e60248201527f526f6c65733a2063616c6c6572206973206e6f7420746865206f776e6572000060448201526064015b60405180910390fd5b601655565b33610b9d613087565b6001600160a01b03161480610bc1575033610bb661311f565b6001600160a01b0316145b610c0d5760405162461bcd60e51b815260206004820152601e60248201527f526f6c65733a2063616c6c6572206973206e6f7420746865206f776e657200006044820152606401610b86565b600955565b33610c1b613087565b6001600160a01b03161480610c3f575033610c3461311f565b6001600160a01b0316145b80610c6557503360009081526001602090815260408083206009845290915290205460ff165b610cd75760405162461bcd60e51b815260206004820152603960248201527f43616c6c6572206973206e6f7420746865206f776e65722c206578656375746f60448201527f72206f7220617574686f72697a656420616374697661746f72000000000000006064820152608401610b86565b6001600160a01b039091166000908152600b6020526040902055565b3360009081526001602090815260408083206004845290915290205460ff16610d5e5760405162461bcd60e51b815260206004820152601d60248201527f43616c6c696e6720636f6e74722e206e6f7420617574686f72697a65640000006044820152606401610b86565b6001600160a01b0385166000908152600a60205260409020610d81818686613190565b610d8c81848461323b565b610d978184846132e6565b4390555050505050565b6001600160a01b0381166000908152600a60205260408120610dcd600182016002830160038401613406565b9150505b919050565b33610ddf613087565b6001600160a01b03161480610e03575033610df861311f565b6001600160a01b0316145b80610e2957503360009081526001602090815260408083206009845290915290205460ff165b610e9b5760405162461bcd60e51b815260206004820152603960248201527f43616c6c6572206973206e6f7420746865206f776e65722c206578656375746f60448201527f72206f7220617574686f72697a656420616374697661746f72000000000000006064820152608401610b86565b600081600081518110610ebe57634e487b7160e01b600052603260045260246000fd5b602002602001015190507f00000000000000000000000000000000000000000000000000000000000000006001600160a01b0316816001600160a01b0316146111a7576001600160a01b03811660009081526002602081815260409092206003810186905584519092610f3792840191908601906155d2565b50825167ffffffffffffffff811115610f6057634e487b7160e01b600052604160045260246000fd5b604051908082528060200260200182016040528015610f89578160200160208202803683370190505b508051610fa09160048401916020909101906155d2565b506000805b8060018651610fb49190615d1a565b11156110c857611042858281518110610fdd57634e487b7160e01b600052603260045260246000fd5b602002602001015186836001610ff39190615ca5565b8151811061101157634e487b7160e01b600052603260045260246000fd5b602002602001015188846020811061103957634e487b7160e01b600052603260045260246000fd5b1a60f81b613493565b600081600287516110539190615d1a565b61105d9190615d1a565b611068906008615cdd565b87836020811061108857634e487b7160e01b600052603260045260246000fd5b1a60f81b7fff0000000000000000000000000000000000000000000000000000000000000016901c929092179150806110c081615d31565b915050610fa5565b506005820181905560005b8085511115611192578460018287516110ec9190615d1a565b6110f69190615d1a565b8151811061111457634e487b7160e01b600052603260045260246000fd5b602002602001015183600401828154811061113f57634e487b7160e01b600052603260045260246000fd5b600091825260209091200180547fffffffffffffffffffffffff0000000000000000000000000000000000000000166001600160a01b03929092169190911790558061118a81615d31565b9150506110d3565b5061119d848661374b565b6001830155504290555b505050565b33600090815260016020908152604080832060048452909152812054819060ff166112195760405162461bcd60e51b815260206004820181905260248201527f43616c6c696e6720636f6e74722e206e6f7420616e20617574686f72697a65646044820152606401610b86565b6001600160a01b038088166000908152600a602090815260408083209389168352600284019091529020541561139457600080611287606660009081526020527f422cccb7cea5c0e46f340bb7b21b81debac329f72e31669c20ff0f3a05cc2b5b546001600160a01b031690565b6001600160a01b03898116600081815260028701602090815260408083205460038a01909252918290205491517fe695fa6800000000000000000000000000000000000000000000000000000000815260048101919091526024810192909252604482015291169063e695fa68906064016040805180830381600087803b15801561131157600080fd5b505af1158015611325573d6000803e3d6000fd5b505050506040513d601f19601f820116820180604052508101906113499190615b01565b6001600160a01b038a166000908152600286016020908152604080832085905560038801909152902081905590925090506113848683613a9e565b9450611391838987613ab6565b50505b6001600160a01b03871660009081526005820160205260409020548590808211156113c9579050806113c68188615d1a565b93505b83871115611409576113db8488615d1a565b6001600160a01b038a166000908152600c602052604081208054909190611403908490615d1a565b90915550505b848611156114495761141b8587615d1a565b6001600160a01b0389166000908152600c602052604081208054909190611443908490615ca5565b90915550505b6001600160a01b0388166000908152600c6020908152604080832054600b9092529091205410156114bc5760405162461bcd60e51b815260206004820152601860248201527f4578636565647320676c6f62616c20746f6b656e2063617000000000000000006044820152606401610b86565b6114d2838a8a856114cd8a8c615d1a565b613d87565b83156114e3576114e3838a86613dd3565b5050509550959350505050565b6001600160a01b0381166000908152600a602090815260409182902060048101805484518185028101850190955280855260609485949092919083018282801561156357602002820191906000526020600020905b81546001600160a01b03168152600190910190602001808311611545575b5050506004840154929550505067ffffffffffffffff81111561159657634e487b7160e01b600052604160045260246000fd5b6040519080825280602002602001820160405280156115bf578160200160208202803683370190505b50915060005b80845111156116605760008482815181106115f057634e487b7160e01b600052603260045260246000fd5b60200260200101519050826005016000826001600160a01b03166001600160a01b031681526020019081526020016000205484838151811061164257634e487b7160e01b600052603260045260246000fd5b6020908102919091010152508061165881615d31565b9150506115c5565b5050915091565b6040517f93552a3d000000000000000000000000000000000000000000000000000000008152600481018390526001600160a01b0382811660248301527f000000000000000000000000000000000000000000000000000000000000000016906393552a3d9060440160206040518083038186803b1580156116e857600080fd5b505afa1580156116fc573d6000803e3d6000fd5b505050506040513d601f19601f8201168201806040525081019061172091906159e6565b6001600160a01b039190911660009081526001602090815260408083209483529390529190912080547fffffffffffffffffffffffffffffffffffffffffffffffffffffffffffffff0016911515919091179055565b6001600160a01b0381166000908152600a60205260408120816117a3600183016002840160038501613406565b905060006117b7836004018460050161408d565b90506117c4816064615cdd565b826009546117d29190615cdd565b101595945050505050565b3360009081526001602090815260408083206004845290915290205460ff166118485760405162461bcd60e51b815260206004820152601d60248201527f43616c6c696e6720636f6e74722e206e6f7420617574686f72697a65640000006044820152606401610b86565b6001600160a01b0383166000908152600a6020526040902061186b818484614118565b61187681848461323b565b50505050565b3360009081526001602090815260408083206004845290915281205460ff166118e75760405162461bcd60e51b815260206004820152601d60248201527f43616c6c696e6720636f6e74722e206e6f7420617574686f72697a65640000006044820152606401610b86565b6001600160a01b038085166000908152600a602090815260408083204381559387168352600284019091529020548015611a5857600080611959606660009081526020527f422cccb7cea5c0e46f340bb7b21b81debac329f72e31669c20ff0f3a05cc2b5b546001600160a01b031690565b6001600160a01b038881166000818152600388016020526040908190205490517fe695fa68000000000000000000000000000000000000000000000000000000008152600481018890526024810192909252604482015291169063e695fa68906064016040805180830381600087803b1580156119d557600080fd5b505af11580156119e9573d6000803e3d6000fd5b505050506040513d601f19601f82011682018060405250810190611a0d9190615b01565b6001600160a01b038916600090815260028701602090815260408083208590556003890190915290208190559092509050611a488683613a9e565b9450611a55848887613ab6565b50505b6000611a648486615d1a565b9050611a71838783613190565b5050509392505050565b33611a84613087565b6001600160a01b03161480611aa8575033611a9d61311f565b6001600160a01b0316145b611af45760405162461bcd60e51b815260206004820152601e60248201527f526f6c65733a2063616c6c6572206973206e6f7420746865206f776e657200006044820152606401610b86565b600655565b60007f00000000000000000000000000000000000000000000000000000000000000006001600160a01b0316846001600160a01b03161415611b3c575081611c3c565b6001600160a01b03841660009081526002602052604081208054909190611b639042615d1a565b9050600454811180611b7757506001820154155b80611b8b5750838015611b8b575060055481115b15611c0d576000611bfc83600201805480602002602001604051908101604052809291908181526020018280548015611bed57602002820191906000526020600020905b81546001600160a01b03168152600190910190602001808311611bcf575b5050505050846003015461374b565b9050611c0b83826006546141f4565b505b6e010000000000000000000000000000826001015486611c2d9190615cdd565b611c379190615cbd565b925050505b9392505050565b6001600160a01b0381166000908152600a60205260408120610dcd600482016005830161408d565b33611c74613087565b6001600160a01b03161480611c98575033611c8d61311f565b6001600160a01b0316145b611ce45760405162461bcd60e51b815260206004820152601e60248201527f526f6c65733a2063616c6c6572206973206e6f7420746865206f776e657200006044820152606401610b86565b61ffff909116600455600555565b33611cfb613087565b6001600160a01b03161480611d1f575033611d1461311f565b6001600160a01b0316145b611d6b5760405162461bcd60e51b815260206004820152601e60248201527f526f6c65733a2063616c6c6572206973206e6f7420746865206f776e657200006044820152606401610b86565b601455565b6000333214611de75760405162461bcd60e51b815260206004820152603a60248201527f43757272656e746c79206e6f20696e7465726d656469617269657320616c6c6f60448201527f77656420666f7220746869732066756e6374696f6e2063616c6c0000000000006064820152608401610b86565b6000611e24606b60009081526020527f2dc7a963308417ad45132da282495eb244f38a7db03940a4d808be607669c622546001600160a01b031690565b6040517f7b23cbce0000000000000000000000000000000000000000000000000000000081523360048201526001600160a01b039190911690637b23cbce90602401602060405180830381600087803b158015611e8057600080fd5b505af1158015611e94573d6000803e3d6000fd5b505050506040513d601f19601f82011682018060405250810190611eb891906159e6565b905060008180611ecb5750611ecb61423c565b9050611ed7848361431c565b92506000611ee361487e565b90506000611eef614954565b9050611efd600f600061564f565b600060646015546064611f109190615ca5565b611f1a9084615cdd565b611f249190615cbd565b905082811115612071577f3555ffae7677eb42103f0b9e11b61c758f452fae446684dec7a363dd38ab58fc611f598483615d1a565b60405190815260200160405180910390a183801561206e5750807f00000000000000000000000000000000000000000000000000000000000000006001600160a01b03166370a08231611fdd606560009081526020527f4a7203f705e51df4a56139a9b86b4a0970bed7ab7a3446eaffe2289989c1645c546001600160a01b031690565b6040517fffffffff0000000000000000000000000000000000000000000000000000000060e084901b1681526001600160a01b03909116600482015260240160206040518083038186803b15801561203457600080fd5b505afa158015612048573d6000803e3d6000fd5b505050506040513d601f19601f8201168201806040525081019061206c9190615ac5565b115b93505b60008461212257606b60009081526020527f2dc7a963308417ad45132da282495eb244f38a7db03940a4d808be607669c622546001600160a01b03166001600160a01b0316631a38de1d6040518163ffffffff1660e01b8152600401602060405180830381600087803b1580156120e757600080fd5b505af11580156120fb573d6000803e3d6000fd5b505050506040513d601f19601f8201168201806040525081019061211f9190615737565b90505b60005b6010548110156123975760006010828154811061215257634e487b7160e01b600052603260045260246000fd5b60009182526020808320909101546001600160a01b0316808352600a909152604082209092509061218282614a22565b9050600061218f83614a34565b905060006064601554836121a39190615cdd565b6121ad9190615cbd565b90506121b9818e615ca5565b9c508a612226576001600160a01b03858116600090815260126020526040902060028101839055600381018054337fffffffffffffffffffffffff000000000000000000000000000000000000000091821617909155438255600190910180549091169189169190911790555b60006064612235846065615cdd565b61223f9190615cbd565b6122499083615ca5565b90508084111561233957606560009081526020527f4a7203f705e51df4a56139a9b86b4a0970bed7ab7a3446eaffe2289989c1645c546001600160a01b031663d9caed127f0000000000000000000000000000000000000000000000000000000000000000886122b98589615d1a565b6040517fffffffff0000000000000000000000000000000000000000000000000000000060e086901b1681526001600160a01b0393841660048201529290911660248301526044820152606401600060405180830381600087803b15801561232057600080fd5b505af1158015612334573d6000803e3d6000fd5b505050505b6040516001600160a01b03871681527f1d2cc4c8661a04a00b4e727426220501b36d85bb330947642c2d4320667028cf9060200160405180910390a161237e85614a4a565b505050505050808061238f90615d31565b915050612125565b5060648760135460636123aa9190615cdd565b6123b49190615ca5565b6123be9190615cbd565b60135584156124a057606560009081526020527f4a7203f705e51df4a56139a9b86b4a0970bed7ab7a3446eaffe2289989c1645c546001600160a01b03166040517fd9caed120000000000000000000000000000000000000000000000000000000081526001600160a01b037f000000000000000000000000000000000000000000000000000000000000000081166004830152336024830152604482018a9052919091169063d9caed1290606401600060405180830381600087803b15801561248757600080fd5b505af115801561249b573d6000803e3d6000fd5b505050505b60006124dd606b60009081526020527f2dc7a963308417ad45132da282495eb244f38a7db03940a4d808be607669c622546001600160a01b031690565b6001600160a01b0316631a38de1d6040518163ffffffff1660e01b8152600401602060405180830381600087803b15801561251757600080fd5b505af115801561252b573d6000803e3d6000fd5b505050506040513d601f19601f8201168201806040525081019061254f9190615737565b905086156125c9576001600160a01b0381166000908152601160205260409020548810156125aa576001600160a01b038116600090815260116020526040812080548a929061259f908490615d1a565b909155506125c49050565b6001600160a01b0381166000908152601160205260408120555b6125f7565b6001600160a01b038116600090815260116020526040812080548a92906125f1908490615ca5565b90915550505b50505050505050919050565b6007818154811061261357600080fd5b600091825260209091206003909102018054600182015460029092015490925083565b3361263f613087565b6001600160a01b0316148061266357503361265861311f565b6001600160a01b0316145b6126af5760405162461bcd60e51b815260206004820152601e60248201527f526f6c65733a2063616c6c6572206973206e6f7420746865206f776e657200006044820152606401610b86565b601555565b336126bd613087565b6001600160a01b031614806126e15750336126d661311f565b6001600160a01b0316145b61272d5760405162461bcd60e51b815260206004820152601e60248201527f526f6c65733a2063616c6c6572206973206e6f7420746865206f776e657200006044820152606401610b86565b600855565b3360009081526001602090815260408083206004845290915290205460ff1661279d5760405162461bcd60e51b815260206004820152601c60248201527f43616c6c696e6720636f6e7472206e6f7420617574686f72697a6564000000006044820152606401610b86565b6001600160a01b0383166000908152600a602052604090206118768184846132e6565b6001600160a01b0381166000908152600a602090815260409182902060018101805484518185028101850190955280855260609485949092919083018282801561283357602002820191906000526020600020905b81546001600160a01b03168152600190910190602001808311612815575b5050506001840154929550505067ffffffffffffffff81111561286657634e487b7160e01b600052604160045260246000fd5b60405190808252806020026020018201604052801561288f578160200160208202803683370190505b50915060005b80845111156116605760008482815181106128c057634e487b7160e01b600052603260045260246000fd5b60200260200101519050612905606660009081526020527f422cccb7cea5c0e46f340bb7b21b81debac329f72e31669c20ff0f3a05cc2b5b546001600160a01b031690565b6001600160a01b03828116600081815260028701602090815260408083205460038a01909252918290205491517f76668b670000000000000000000000000000000000000000000000000000000081526004810191909152602481019290925260448201529116906376668b679060640160206040518083038186803b15801561298e57600080fd5b505afa1580156129a2573d6000803e3d6000fd5b505050506040513d601f19601f820116820180604052508101906129c69190615ac5565b8483815181106129e657634e487b7160e01b600052603260045260246000fd5b602090810291909101015250806129fc81615d31565b915050612895565b3360009081526001602090815260408083206004845290915290205460ff16612a6f5760405162461bcd60e51b815260206004820152601d60248201527f43616c6c696e6720636f6e74722e206e6f7420617574686f72697a65640000006044820152606401610b86565b6001600160a01b0381166000908152600a60205260409020612a9081614a34565b15612add5760405162461bcd60e51b815260206004820152601a60248201527f43616e2774206c69717569646174653a20626f72726f77696e670000000000006044820152606401610b86565b610a7e81614a4a565b33612aef613087565b6001600160a01b03161480612b13575033612b0861311f565b6001600160a01b0316145b80612b61575033612b566103e960009081526020527f236f539bf6e1b3b15a335e3cd157d360bc4be88c071635c19ba8a82b4f665e9f546001600160a01b031690565b6001600160a01b0316145b612bd35760405162461bcd60e51b815260206004820152603860248201527f43616c6c6572206973206e6f7420746865206f776e65722c206578656375746f60448201527f72206f7220617574686f72697a65642064697361626c657200000000000000006064820152608401610b86565b600060078281548110612bf657634e487b7160e01b600052603260045260246000fd5b90600052602060002090600302019050600081600101541115610a7e57600181015460065580546004556002015460055550565b33612c33613087565b6001600160a01b03161480612c57575033612c4c61311f565b6001600160a01b0316145b612ca35760405162461bcd60e51b815260206004820152601e60248201527f526f6c65733a2063616c6c6572206973206e6f7420746865206f776e657200006044820152606401610b86565b604080516060810182529384526020840192835283019081526007805460018101825560009190915292517fa66cc928b5edb82af9bd49922954155ab7b0942694bea4ce44661d9a8736c68860039094029384015590517fa66cc928b5edb82af9bd49922954155ab7b0942694bea4ce44661d9a8736c689830155517fa66cc928b5edb82af9bd49922954155ab7b0942694bea4ce44661d9a8736c68a90910155565b33612d4f613087565b6001600160a01b03161480612d73575033612d6861311f565b6001600160a01b0316145b612dbf5760405162461bcd60e51b815260206004820152601e60248201527f526f6c65733a2063616c6c6572206973206e6f7420746865206f776e657200006044820152606401610b86565b600d55565b600281015460009015610dd1578154600090612dec90612de49043615d1a565b601454613a9e565b90506000601454828560020154612e039190615cdd565b612e0d9190615cbd565b9050612e4a606560009081526020527f4a7203f705e51df4a56139a9b86b4a0970bed7ab7a3446eaffe2289989c1645c546001600160a01b031690565b60038501546040517fd9caed120000000000000000000000000000000000000000000000000000000081526001600160a01b037f00000000000000000000000000000000000000000000000000000000000000008116600483015291821660248201526044810184905291169063d9caed1290606401600060405180830381600087803b158015612eda57600080fd5b505af1158015612eee573d6000803e3d6000fd5b505050506000612f2f606b60009081526020527f2dc7a963308417ad45132da282495eb244f38a7db03940a4d808be607669c622546001600160a01b031690565b9050600060135483836001600160a01b0316630ad691506040518163ffffffff1660e01b815260040160206040518083038186803b158015612f7057600080fd5b505afa158015612f84573d6000803e3d6000fd5b505050506040513d601f19601f82011682018060405250810190612fa89190615ac5565b612fb29190615cdd565b612fbc9190615cbd565b600187015460038801546040517f0a45bc1b0000000000000000000000000000000000000000000000000000000081526001600160a01b039283166004820152602481018490529082166044820152919250831690630a45bc1b90606401602060405180830381600087803b15801561303457600080fd5b505af1158015613048573d6000803e3d6000fd5b505050506040513d601f19601f8201168201806040525081019061306c9190615ac5565b5082866002015461307d9190615d1a565b9695505050505050565b60007f00000000000000000000000000000000000000000000000000000000000000006001600160a01b0316638da5cb5b6040518163ffffffff1660e01b815260040160206040518083038186803b1580156130e257600080fd5b505afa1580156130f6573d6000803e3d6000fd5b505050506040513d601f19601f8201168201806040525081019061311a9190615737565b905090565b60007f00000000000000000000000000000000000000000000000000000000000000006001600160a01b031663c34c08e56040518163ffffffff1660e01b8152600401602060405180830381600087803b15801561317c57600080fd5b505af11580156130f6573d6000803e3d6000fd5b61319b838383614118565b6001600160a01b0382166000908152600c6020526040812080548392906131c3908490615ca5565b90915550506001600160a01b0382166000908152600c6020908152604080832054600b9092529091205410156111a75760405162461bcd60e51b815260206004820152601860248201527f4578636565647320676c6f62616c20746f6b656e2063617000000000000000006044820152606401610b86565b6001600160a01b0382166000908152600c602052604081208054839290613263908490615ca5565b90915550506001600160a01b0382166000908152600c6020908152604080832054600b9092529091205410156132db5760405162461bcd60e51b815260206004820152601860248201527f4578636565647320676c6f62616c20746f6b656e2063617000000000000000006044820152606401610b86565b6111a7838383613dd3565b600d5483546132f59190615ca5565b43116133435760405162461bcd60e51b815260206004820181905260248201527f4e6f207769746864726177616c20736f6f6e206166746572206465706f7369746044820152606401610b86565b6001600160a01b0382166000908152600c60205260408120805483929061336b908490615d1a565b90915550506001600160a01b0382166000908152600584016020526040902054613396908290615d1a565b6001600160a01b03831660009081526005850160205260409020556133ba83614bbc565b6111a75760405162461bcd60e51b815260206004820152601460248201527f496e73756666696369656e742062616c616e63650000000000000000000000006044820152606401610b86565b8254600090815b8181101561348a57600086828154811061343757634e487b7160e01b600052603260045260246000fd5b60009182526020808320909101546001600160a01b03168083529088905260409091205490915061346a90829087614c08565b6134749085615ca5565b935050808061348290615d31565b91505061340d565b50509392505050565b60007fff000000000000000000000000000000000000000000000000000000000000008216156134cc576134c78484614d17565b6134d6565b6134d68484614e3e565b6001600160a01b038082166000908152600360209081526040808320938916835292905220600181015491925090613744576000806000846001600160a01b0316630902f1ac6040518163ffffffff1660e01b815260040160606040518083038186803b15801561354657600080fd5b505afa15801561355a573d6000803e3d6000fd5b505050506040513d601f19601f8201168201806040525081019061357e9190615a47565b63ffffffff1692509250925060006135968989614f2a565b509050806001600160a01b0316896001600160a01b0316141561367957836dffffffffffffffffffffffffffff16836dffffffffffffffffffffffffffff166e0100000000000000000000000000006135ef9190615cdd565b6135f99190615cbd565b8560020181905550856001600160a01b0316635909c0d56040518163ffffffff1660e01b815260040160206040518083038186803b15801561363a57600080fd5b505afa15801561364e573d6000803e3d6000fd5b505050506040513d601f19601f820116820180604052508101906136729190615ac5565b855561373b565b826dffffffffffffffffffffffffffff16846dffffffffffffffffffffffffffff166e0100000000000000000000000000006136b59190615cdd565b6136bf9190615cbd565b8560020181905550856001600160a01b0316635a3d54936040518163ffffffff1660e01b815260040160206040518083038186803b15801561370057600080fd5b505afa158015613714573d6000803e3d6000fd5b505050506040513d601f19601f820116820180604052508101906137389190615ac5565b85555b50600184015550505b5050505050565b6e01000000000000000000000000000060005b6001845161376c9190615d1a565b811015613a9757600084828151811061379557634e487b7160e01b600052603260045260246000fd5b602002602001015190506000858360016137af9190615ca5565b815181106137cd57634e487b7160e01b600052603260045260246000fd5b6020026020010151905060008584602081106137f957634e487b7160e01b600052603260045260246000fd5b1a60f81b7fff0000000000000000000000000000000000000000000000000000000000000016156138335761382e8383614d17565b61383d565b61383d8383614e3e565b6001600160a01b038082166000818152600360209081526040808320948916835293905282812083517f0902f1ac0000000000000000000000000000000000000000000000000000000081529351949550939092630902f1ac916004808301926060929190829003018186803b1580156138b657600080fd5b505afa1580156138ca573d6000803e3d6000fd5b505050506040513d601f19601f820116820180604052508101906138ee9190615a47565b63ffffffff1692505050600082600101548261390a9190615d1a565b9050600554811115613a6d5760006139228787614f2a565b5090506000816001600160a01b0316886001600160a01b0316146139b657856001600160a01b0316635a3d54936040518163ffffffff1660e01b815260040160206040518083038186803b15801561397957600080fd5b505afa15801561398d573d6000803e3d6000fd5b505050506040513d601f19601f820116820180604052508101906139b19190615ac5565b613a27565b856001600160a01b0316635909c0d56040518163ffffffff1660e01b815260040160206040518083038186803b1580156139ef57600080fd5b505afa158015613a03573d6000803e3d6000fd5b505050506040513d601f19601f82011682018060405250810190613a279190615ac5565b9050600083866000015483613a3c9190615d1a565b613a469190615cbd565b9050613a528b82615014565b6002870191909155908555600185018490559850613a7e9050565b613a7b888460020154615014565b97505b5050505050508080613a8f90615d31565b91505061375e565b5092915050565b600081831115613aaf575080610b0b565b5081610b0b565b600080613af4606660009081526020527f422cccb7cea5c0e46f340bb7b21b81debac329f72e31669c20ff0f3a05cc2b5b546001600160a01b031690565b6001600160a01b03858116600081815260028901602090815260408083205460038c01909252918290205491517fe695fa6800000000000000000000000000000000000000000000000000000000815260048101919091526024810192909252604482015291169063e695fa68906064016040805180830381600087803b158015613b7e57600080fd5b505af1158015613b92573d6000803e3d6000fd5b505050506040513d601f19601f82011682018060405250810190613bb69190615b01565b90925090506000613bc78484615d1a565b6001600160a01b0386166000908152600288016020526040902081905590508015613c0e576001600160a01b03851660009081526003870160205260409020829055613d7f565b6001600160a01b038516600090815260038701602052604081208190556001870154815b80821115613d02576000896001018281548110613c5f57634e487b7160e01b600052603260045260246000fd5b6000918252602090912001546001600160a01b0390811691508916811415613c8a5760019350613cef565b8315613cef57808a600101600184613ca29190615d1a565b81548110613cc057634e487b7160e01b600052603260045260246000fd5b9060005260206000200160006101000a8154816001600160a01b0302191690836001600160a01b031602179055505b5080613cfa81615d31565b915050613c32565b5087600101805480613d2457634e487b7160e01b600052603160045260246000fd5b60008281526020902081017fffffffffffffffffffffffffffffffffffffffffffffffffffffffffffffffff90810180547fffffffffffffffffffffffff000000000000000000000000000000000000000016905501905550505b505050505050565b6001600160a01b0384166000908152600586016020526040902054613dad908390615d1a565b6001600160a01b0385166000908152600587016020526040902055613744858483614118565b6001600160a01b0382166000908152600384016020526040902054613f3a576001838101805491820181556000908152602090200180547fffffffffffffffffffffffff0000000000000000000000000000000000000000166001600160a01b038416179055613e74606660009081526020527f422cccb7cea5c0e46f340bb7b21b81debac329f72e31669c20ff0f3a05cc2b5b546001600160a01b031690565b6040517f46c87f800000000000000000000000000000000000000000000000000000000081526001600160a01b03848116600483015291909116906346c87f8090602401602060405180830381600087803b158015613ed257600080fd5b505af1158015613ee6573d6000803e3d6000fd5b505050506040513d601f19601f82011682018060405250810190613f0a9190615ac5565b6001600160a01b038316600090815260038501602090815260408083209390935560028601905220819055614084565b600080613f78606660009081526020527f422cccb7cea5c0e46f340bb7b21b81debac329f72e31669c20ff0f3a05cc2b5b546001600160a01b031690565b6001600160a01b03858116600081815260028901602090815260408083205460038c01909252918290205491517fe695fa6800000000000000000000000000000000000000000000000000000000815260048101919091526024810192909252604482015291169063e695fa68906064016040805180830381600087803b15801561400257600080fd5b505af1158015614016573d6000803e3d6000fd5b505050506040513d601f19601f8201168201806040525081019061403a9190615b01565b6001600160a01b0386166000908152600388016020526040902081905590925090506140668383615ca5565b6001600160a01b038516600090815260028701602052604090205550505b6133ba83614bbc565b8154600090815b818110156141105760008582815481106140be57634e487b7160e01b600052603260045260246000fd5b60009182526020808320909101546001600160a01b0316808352908790526040909120549091506140f0908290610a82565b6140fa9085615ca5565b935050808061410890615d31565b915050614094565b505092915050565b6001600160a01b038216600090815260068401602052604090205460ff166141c057600483018054600180820183556000928352602080842090920180547fffffffffffffffffffffffff0000000000000000000000000000000000000000166001600160a01b038716908117909155835260068601909152604090912080547fffffffffffffffffffffffffffffffffffffffffffffffffffffffffffffff001690911790555b6001600160a01b0382166000908152600584016020526040812080548392906141ea908490615ca5565b9091555050505050565b6103e86142018284615cdd565b61420d836103e8615d1a565b856001015461421c9190615cdd565b6142269190615ca5565b6142309190615cbd565b60018401555050429055565b60008061427a606b60009081526020527f2dc7a963308417ad45132da282495eb244f38a7db03940a4d808be607669c622546001600160a01b031690565b6001600160a01b031663b0411f466040518163ffffffff1660e01b8152600401604080518083038186803b1580156142b157600080fd5b505afa1580156142c5573d6000803e3d6000fd5b505050506040513d601f19601f820116820180604052508101906142e991906158aa565b5090506013546016546142fc9190615cdd565b6001600160a01b0390911660009081526011602052604090205411905090565b60408051600080825260208201928390529051909161433e91600f91906155d2565b50604080516000815260208101918290525161435c916010916155d2565b5060005b8084511115613a9757600084828151811061438b57634e487b7160e01b600052603260045260246000fd5b602002602001015190506000600a6000836001600160a01b03166001600160a01b0316815260200190815260200160002090506143c781615050565b15614834576010805460018101825560009182527f1b6847dc741a1b0cd08d278845f9d819d87b734759afb55fe2de5cb82a9ae6720180547fffffffffffffffffffffffff0000000000000000000000000000000000000000166001600160a01b0385161790556004820154905b8082111561456957600083600401828154811061446257634e487b7160e01b600052603260045260246000fd5b60009182526020808320909101546001600160a01b0316808352600e9091526040909120600281015491925090431461451e576001600160a01b0382166000818152600587016020526040812054600180850191909155818455436002850155600f805491820181559091527f8d1108e10bcb7c27dddfc02ed9d693a074039d026cf4ea4240b40f7d581ac8020180547fffffffffffffffffffffffff0000000000000000000000000000000000000000169091179055614554565b6001600160a01b03821660009081526005860160205260408120546001830180549192909161454e908490615ca5565b90915550505b5050808061456190615d31565b915050614435565b5050600181015460005b808211156148315760008360010182815481106145a057634e487b7160e01b600052603260045260246000fd5b60009182526020808320909101546001600160a01b0316808352600e9091526040822090925090614602606660009081526020527f422cccb7cea5c0e46f340bb7b21b81debac329f72e31669c20ff0f3a05cc2b5b546001600160a01b031690565b6001600160a01b03848116600081815260028a01602090815260408083205460038d01909252918290205491517fe695fa6800000000000000000000000000000000000000000000000000000000815260048101919091526024810192909252604482015291169063e695fa68906064016040805180830381600087803b15801561468c57600080fd5b505af11580156146a0573d6000803e3d6000fd5b505050506040513d601f19601f820116820180604052508101906146c49190615b01565b509050614702606660009081526020527f422cccb7cea5c0e46f340bb7b21b81debac329f72e31669c20ff0f3a05cc2b5b546001600160a01b031690565b6040517f2a6a897b0000000000000000000000000000000000000000000000000000000081526001600160a01b038581166004830152602482018490529190911690632a6a897b90604401600060405180830381600087803b15801561476757600080fd5b505af115801561477b573d6000803e3d6000fd5b50505050438260020154146148015760006001838101829055828455436002850155600f805491820181559091527f8d1108e10bcb7c27dddfc02ed9d693a074039d026cf4ea4240b40f7d581ac8020180547fffffffffffffffffffffffff0000000000000000000000000000000000000000166001600160a01b03851617905561481b565b808260000160008282546148159190615ca5565b90915550505b505050808061482990615d31565b915050614573565b50505b6001600160a01b038216600090815260126020526040902085156148685761485b81612dc4565b6148659086615ca5565b94505b505050808061487690615d31565b915050614360565b600f54600090815b8082111561494f576000600f82815481106148b157634e487b7160e01b600052603260045260246000fd5b60009182526020808320909101546001600160a01b0316808352600e9091526040909120805460018201549293509091111561493a57805460018201546000916148fa91615d1a565b9050614906838261508d565b6149109087615ca5565b6001600160a01b0384166000908152600e6020526040812081815560018101829055600201559550505b5050808061494790615d31565b915050614886565b505090565b600f54600090815b8082111561494f576000600f828154811061498757634e487b7160e01b600052603260045260246000fd5b60009182526020808320909101546001600160a01b0316808352600e90915260409091206001810154815492935090911115614a0d576149da82826001015483600001546149d59190615d1a565b615217565b6149e49086615ca5565b6001600160a01b0383166000908152600e60205260408120818155600181018290556002015594505b50508080614a1a90615d31565b91505061495c565b6000610b0b82600401836005016153ae565b6000610b0b826001018360020184600301615431565b600181015460005b80821115614ac3576000836001018281548110614a7f57634e487b7160e01b600052603260045260246000fd5b60009182526020808320909101546001600160a01b031682526002860181526040808320839055600387019091528120555080614abb81615d31565b915050614a52565b5050600481015460005b80821115614b9f576000836004018281548110614afa57634e487b7160e01b600052603260045260246000fd5b60009182526020808320909101546001600160a01b0316808352600587018252604080842054600c90935283208054919450919290614b3a908490615d1a565b90915550506001600160a01b03166000908152600584016020908152604080832083905560068601909152902080547fffffffffffffffffffffffffffffffffffffffffffffffffffffffffffffff0016905580614b9781615d31565b915050614acd565b50614bae60018301600061564f565b610a7e60048301600061564f565b600080614bc883614a34565b90506000614bd584614a22565b905060085482614be59190615cdd565b6064600854614bf49190615d1a565b614bfe9083615cdd565b1015949350505050565b600080614c46606660009081526020527f422cccb7cea5c0e46f340bb7b21b81debac329f72e31669c20ff0f3a05cc2b5b546001600160a01b031690565b6040517f14189db20000000000000000000000000000000000000000000000000000000081526001600160a01b03878116600483015291909116906314189db29060240160206040518083038186803b158015614ca257600080fd5b505afa158015614cb6573d6000803e3d6000fd5b505050506040513d601f19601f82011682018060405250810190614cda9190615ac5565b6001600160a01b03861660009081526020859052604081205491925090614d018387615cdd565b614d0b9190615cbd565b9050611c378682610a82565b6000806000614d268585614f2a565b60408051606084811b7fffffffffffffffffffffffffffffffffffffffff0000000000000000000000009081166020808501919091529185901b166034830152825160288184030181526048830190935282519201919091207fff0000000000000000000000000000000000000000000000000000000000000060688301527fc0aee478e3658e2610c5f7a4a2e1777ce9e4f2ac0000000000000000000000006069830152607d8201527fe18a34eb0e04b04f7a0ac29a6e80748dca96319b42c54d679cb821dca90c6303609d820152919350915060bd015b604080517fffffffffffffffffffffffffffffffffffffffffffffffffffffffffffffffe0818403018152919052805160209091012095945050505050565b6000806000614e4d8585614f2a565b60408051606084811b7fffffffffffffffffffffffffffffffffffffffff0000000000000000000000009081166020808501919091529185901b166034830152825160288184030181526048830190935282519201919091207fff0000000000000000000000000000000000000000000000000000000000000060688301527f5c69bee701ef814a2b6a3edd4b1652cb9cc5aa6f0000000000000000000000006069830152607d8201527f96e8ac4277198ff8b6f785478aa9a39f403cb768dd02cbee326c3e7da348845f609d820152919350915060bd01614dff565b600080826001600160a01b0316846001600160a01b03161415614f8f5760405162461bcd60e51b815260206004820152601260248201527f4964656e746963616c20616464726573732100000000000000000000000000006044820152606401610b86565b826001600160a01b0316846001600160a01b031610614faf578284614fb2565b83835b90925090506001600160a01b03821661500d5760405162461bcd60e51b815260206004820152600d60248201527f5a65726f206164647265737321000000000000000000000000000000000000006044820152606401610b86565b9250929050565b60006c0100000000000000000000000061503061010084615cbd565b61503c61010086615cbd565b6150469190615cdd565b611c3c9190615cbd565b60008061505c83614a34565b9050600061506984614a22565b9050816009546150799190615cdd565b615084826064615cdd565b10949350505050565b60007f00000000000000000000000000000000000000000000000000000000000000006001600160a01b0316836001600160a01b031614156150d0575080610b0b565b6001600160a01b038316600090815260026020526040812090615124606760009081526020527f682158d08466d11c566d5712d4396197fdd67e65be71d83c97ef719ec468867b546001600160a01b031690565b6001600160a01b031663351ae6108560008560030154866002016040518563ffffffff1660e01b815260040161515d9493929190615c0d565b600060405180830381600087803b15801561517757600080fd5b505af115801561518b573d6000803e3d6000fd5b505050506040513d6000823e601f3d9081017fffffffffffffffffffffffffffffffffffffffffffffffffffffffffffffffe01682016040526151d19190810190615953565b9050600081600183516151e49190615d1a565b8151811061520257634e487b7160e01b600052603260045260246000fd5b60200260200101519050809350505050610b0b565b60007f00000000000000000000000000000000000000000000000000000000000000006001600160a01b0316836001600160a01b0316141561525a575080610b0b565b6001600160a01b0383166000908152600260205260408120906152ae606760009081526020527f682158d08466d11c566d5712d4396197fdd67e65be71d83c97ef719ec468867b546001600160a01b031690565b6001600160a01b03166353d7ff9f857fffffffffffffffffffffffffffffffffffffffffffffffffffffffffffffffff8560030154866004016040518563ffffffff1660e01b81526004016153069493929190615c0d565b600060405180830381600087803b15801561532057600080fd5b505af1158015615334573d6000803e3d6000fd5b505050506040513d6000823e601f3d9081017fffffffffffffffffffffffffffffffffffffffffffffffffffffffffffffffe016820160405261537a9190810190615953565b90508060008151811061539d57634e487b7160e01b600052603260045260246000fd5b602002602001015192505050610b0b565b8154600090815b818110156141105760008582815481106153df57634e487b7160e01b600052603260045260246000fd5b60009182526020808320909101546001600160a01b0316808352908790526040909120549091506154119082906154b5565b61541b9085615ca5565b935050808061542990615d31565b9150506153b5565b8254600090815b8181101561348a57600086828154811061546257634e487b7160e01b600052603260045260246000fd5b60009182526020808320909101546001600160a01b031680835290889052604090912054909150615495908290876154c3565b61549f9085615ca5565b93505080806154ad90615d31565b915050615438565b6000611c3c83836000611af9565b600080615501606660009081526020527f422cccb7cea5c0e46f340bb7b21b81debac329f72e31669c20ff0f3a05cc2b5b546001600160a01b031690565b6040517f14189db20000000000000000000000000000000000000000000000000000000081526001600160a01b03878116600483015291909116906314189db29060240160206040518083038186803b15801561555d57600080fd5b505afa158015615571573d6000803e3d6000fd5b505050506040513d601f19601f820116820180604052508101906155959190615ac5565b6001600160a01b038616600090815260208590526040812054919250906155bc8387615cdd565b6155c69190615cbd565b9050611c3786826154b5565b82805482825590600052602060002090810192821561563f579160200282015b8281111561563f57825182547fffffffffffffffffffffffff0000000000000000000000000000000000000000166001600160a01b039091161782556020909201916001909101906155f2565b5061564b929150615670565b5090565b508054600082559060005260206000209081019061566d9190615670565b50565b5b8082111561564b5760008155600101615671565b600082601f830112615695578081fd5b813560206156aa6156a583615c81565b615c32565b80838252828201915082860187848660051b89010111156156c9578586fd5b855b858110156156f05781356156de81615d96565b845292840192908401906001016156cb565b5090979650505050505050565b80516dffffffffffffffffffffffffffff81168114610dd157600080fd5b60006020828403121561572c578081fd5b8135611c3c81615d96565b600060208284031215615748578081fd5b8151611c3c81615d96565b60008060408385031215615765578081fd5b823561577081615d96565b9150602083013561578081615d96565b809150509250929050565b600080600080600060a086880312156157a2578081fd5b85356157ad81615d96565b945060208601356157bd81615d96565b935060408601356157cd81615d96565b94979396509394606081013594506080013592915050565b6000806000606084860312156157f9578283fd5b833561580481615d96565b9250602084013561581481615d96565b929592945050506040919091013590565b600080600080600060a0868803121561583c578081fd5b853561584781615d96565b9450602086013561585781615d96565b935060408601359250606086013561586e81615d96565b949793965091946080013592915050565b60008060408385031215615891578182fd5b823561589c81615d96565b946020939093013593505050565b600080604083850312156158bc578182fd5b82516158c781615d96565b6020939093015192949293505050565b6000806000606084860312156158eb578081fd5b83356158f681615d96565b925060208401359150604084013561590d81615dab565b809150509250925092565b600060208284031215615929578081fd5b813567ffffffffffffffff81111561593f578182fd5b61594b84828501615685565b949350505050565b60006020808385031215615965578182fd5b825167ffffffffffffffff81111561597b578283fd5b8301601f8101851361598b578283fd5b80516159996156a582615c81565b80828252848201915084840188868560051b87010111156159b8578687fd5b8694505b838510156159da5780518352600194909401939185019185016159bc565b50979650505050505050565b6000602082840312156159f7578081fd5b8151611c3c81615dab565b60008060408385031215615a14578182fd5b82359150602083013567ffffffffffffffff811115615a31578182fd5b615a3d85828601615685565b9150509250929050565b600080600060608486031215615a5b578081fd5b615a64846156fd565b9250615a72602085016156fd565b9150604084015163ffffffff8116811461590d578182fd5b60008060408385031215615a9c578182fd5b823561ffff8116811461589c578283fd5b600060208284031215615abe578081fd5b5035919050565b600060208284031215615ad6578081fd5b5051919050565b60008060408385031215615aef578182fd5b82359150602083013561578081615d96565b60008060408385031215615b13578182fd5b505080516020909101519092909150565b600080600060608486031215615b38578081fd5b505081359360208301359350604090920135919050565b6000815480845260208085019450838352808320835b83811015615b8a5781546001600160a01b031687529582019560019182019101615b65565b509495945050505050565b604080825283519082018190526000906020906060840190828701845b82811015615bd95781516001600160a01b0316845260208401935090840190600101615bb2565b50505083810382850152845180825285830191830190845b818110156156f057835183529284019291840191600101615bf1565b60008582528460208301528360408301526080606083015261307d6080830184615b4f565b604051601f82017fffffffffffffffffffffffffffffffffffffffffffffffffffffffffffffffe016810167ffffffffffffffff81118282101715615c7957615c79615d80565b604052919050565b600067ffffffffffffffff821115615c9b57615c9b615d80565b5060051b60200190565b60008219821115615cb857615cb8615d6a565b500190565b600082615cd857634e487b7160e01b81526012600452602481fd5b500490565b6000817fffffffffffffffffffffffffffffffffffffffffffffffffffffffffffffffff0483118215151615615d1557615d15615d6a565b500290565b600082821015615d2c57615d2c615d6a565b500390565b60007fffffffffffffffffffffffffffffffffffffffffffffffffffffffffffffffff821415615d6357615d63615d6a565b5060010190565b634e487b7160e01b600052601160045260246000fd5b634e487b7160e01b600052604160045260246000fd5b6001600160a01b038116811461566d57600080fd5b801515811461566d57600080fdfea2646970667358221220bdbc0cf5355d9740a3bb9a36bafbe4e9952e89fd21932375d43563161b59e57f64736f6c63430008030033",
  "linkReferences": {},
  "deployedLinkReferences": {}
}