{
  "_format": "hh-sol-artifact-1",
  "contractName": "CrossMarginTrading",
  "sourceName": "contracts/CrossMarginTrading.sol",
  "abi": [
    {
      "inputs": [
        {
          "internalType": "address",
          "name": "_peg",
          "type": "address"
        },
        {
          "internalType": "address",
          "name": "_roles",
          "type": "address"
        }
      ],
      "stateMutability": "nonpayable",
      "type": "constructor"
    },
    {
      "anonymous": false,
      "inputs": [
        {
          "indexed": false,
          "internalType": "address",
          "name": "account",
          "type": "address"
        }
      ],
      "name": "AccountLiquidated",
      "type": "event"
    },
    {
      "anonymous": false,
      "inputs": [
        {
          "indexed": false,
          "internalType": "uint256",
          "name": "amount",
          "type": "uint256"
        }
      ],
      "name": "LiquidationShortfall",
      "type": "event"
    },
    {
      "inputs": [],
      "name": "MAINTAINER_CUT_PERCENT",
      "outputs": [
        {
          "internalType": "uint256",
          "name": "",
          "type": "uint256"
        }
      ],
      "stateMutability": "view",
      "type": "function"
    },
    {
      "inputs": [],
      "name": "UPDATE_RATE_PERMIL",
      "outputs": [
        {
          "internalType": "uint256",
          "name": "",
          "type": "uint256"
        }
      ],
      "stateMutability": "view",
      "type": "function"
    },
    {
      "inputs": [
        {
          "internalType": "uint256",
          "name": "_priceUpdateWindow",
          "type": "uint256"
        },
        {
          "internalType": "uint256",
          "name": "_updateRatePermil",
          "type": "uint256"
        },
        {
          "internalType": "uint256",
          "name": "_voluntaryUpdateWindow",
          "type": "uint256"
        }
      ],
      "name": "addVolatilitySetting",
      "outputs": [],
      "stateMutability": "nonpayable",
      "type": "function"
    },
    {
      "inputs": [],
      "name": "avgLiquidationPerCall",
      "outputs": [
        {
          "internalType": "uint256",
          "name": "",
          "type": "uint256"
        }
      ],
      "stateMutability": "view",
      "type": "function"
    },
    {
      "inputs": [
        {
          "internalType": "address",
          "name": "trader",
          "type": "address"
        }
      ],
      "name": "canBeLiquidated",
      "outputs": [
        {
          "internalType": "bool",
          "name": "",
          "type": "bool"
        }
      ],
      "stateMutability": "view",
      "type": "function"
    },
    {
      "inputs": [
        {
          "internalType": "uint256",
          "name": "index",
          "type": "uint256"
        }
      ],
      "name": "chooseVolatilitySetting",
      "outputs": [],
      "stateMutability": "nonpayable",
      "type": "function"
    },
    {
      "inputs": [],
      "name": "coolingOffPeriod",
      "outputs": [
        {
          "internalType": "uint256",
          "name": "",
          "type": "uint256"
        }
      ],
      "stateMutability": "view",
      "type": "function"
    },
    {
      "inputs": [
        {
          "internalType": "address[]",
          "name": "liquidatedAccounts",
          "type": "address[]"
        }
      ],
      "name": "disburseLiqStakeAttacks",
      "outputs": [],
      "stateMutability": "nonpayable",
      "type": "function"
    },
    {
      "inputs": [],
      "name": "failureThreshold",
      "outputs": [
        {
          "internalType": "uint256",
          "name": "",
          "type": "uint256"
        }
      ],
      "stateMutability": "view",
      "type": "function"
    },
    {
      "inputs": [
        {
          "internalType": "address",
          "name": "trader",
          "type": "address"
        }
      ],
      "name": "getBorrowAmounts",
      "outputs": [
        {
          "internalType": "address[]",
          "name": "borrowTokens",
          "type": "address[]"
        },
        {
          "internalType": "uint256[]",
          "name": "borrowAmounts",
          "type": "uint256[]"
        }
      ],
      "stateMutability": "view",
      "type": "function"
    },
    {
      "inputs": [
        {
          "internalType": "address",
          "name": "token",
          "type": "address"
        },
        {
          "internalType": "uint256",
          "name": "inAmount",
          "type": "uint256"
        },
        {
          "internalType": "bool",
          "name": "voluntary",
          "type": "bool"
        }
      ],
      "name": "getCurrentPriceInPeg",
      "outputs": [
        {
          "internalType": "uint256",
          "name": "priceInPeg",
          "type": "uint256"
        }
      ],
      "stateMutability": "nonpayable",
      "type": "function"
    },
    {
      "inputs": [
        {
          "internalType": "address",
          "name": "trader",
          "type": "address"
        }
      ],
      "name": "getHoldingAmounts",
      "outputs": [
        {
          "internalType": "address[]",
          "name": "holdingTokens",
          "type": "address[]"
        },
        {
          "internalType": "uint256[]",
          "name": "holdingAmounts",
          "type": "uint256[]"
        }
      ],
      "stateMutability": "view",
      "type": "function"
    },
    {
      "inputs": [],
      "name": "leveragePercent",
      "outputs": [
        {
          "internalType": "uint256",
          "name": "",
          "type": "uint256"
        }
      ],
      "stateMutability": "view",
      "type": "function"
    },
    {
      "inputs": [],
      "name": "liqStakeAttackWindow",
      "outputs": [
        {
          "internalType": "uint256",
          "name": "",
          "type": "uint256"
        }
      ],
      "stateMutability": "view",
      "type": "function"
    },
    {
      "inputs": [
        {
          "internalType": "address[]",
          "name": "liquidationCandidates",
          "type": "address[]"
        }
      ],
      "name": "liquidate",
      "outputs": [
        {
          "internalType": "uint256",
          "name": "maintainerCut",
          "type": "uint256"
        }
      ],
      "stateMutability": "nonpayable",
      "type": "function"
    },
    {
      "inputs": [],
      "name": "liquidationThresholdPercent",
      "outputs": [
        {
          "internalType": "uint256",
          "name": "",
          "type": "uint256"
        }
      ],
      "stateMutability": "view",
      "type": "function"
    },
    {
      "inputs": [
        {
          "internalType": "uint256",
          "name": "",
          "type": "uint256"
        }
      ],
      "name": "mainCharacterCache",
      "outputs": [
        {
          "internalType": "address",
          "name": "",
          "type": "address"
        }
      ],
      "stateMutability": "view",
      "type": "function"
    },
    {
      "inputs": [
        {
          "internalType": "address",
          "name": "",
          "type": "address"
        }
      ],
      "name": "maintenanceFailures",
      "outputs": [
        {
          "internalType": "uint256",
          "name": "",
          "type": "uint256"
        }
      ],
      "stateMutability": "view",
      "type": "function"
    },
    {
      "inputs": [
        {
          "internalType": "address",
          "name": "",
          "type": "address"
        },
        {
          "internalType": "address",
          "name": "",
          "type": "address"
        }
      ],
      "name": "pairPrices",
      "outputs": [
        {
          "internalType": "uint256",
          "name": "cumulative",
          "type": "uint256"
        },
        {
          "internalType": "uint256",
          "name": "lastUpdated",
          "type": "uint256"
        },
        {
          "internalType": "uint256",
          "name": "priceFP",
          "type": "uint256"
        }
      ],
      "stateMutability": "view",
      "type": "function"
    },
    {
      "inputs": [],
      "name": "peg",
      "outputs": [
        {
          "internalType": "address",
          "name": "",
          "type": "address"
        }
      ],
      "stateMutability": "view",
      "type": "function"
    },
    {
      "inputs": [],
      "name": "priceUpdateWindow",
      "outputs": [
        {
          "internalType": "uint256",
          "name": "",
          "type": "uint256"
        }
      ],
      "stateMutability": "view",
      "type": "function"
    },
    {
      "inputs": [
        {
          "internalType": "address",
          "name": "trader",
          "type": "address"
        },
        {
          "internalType": "address",
          "name": "borrowToken",
          "type": "address"
        },
        {
          "internalType": "uint256",
          "name": "borrowAmount",
          "type": "uint256"
        }
      ],
      "name": "registerBorrow",
      "outputs": [],
      "stateMutability": "nonpayable",
      "type": "function"
    },
    {
      "inputs": [
        {
          "internalType": "address",
          "name": "trader",
          "type": "address"
        },
        {
          "internalType": "address",
          "name": "token",
          "type": "address"
        },
        {
          "internalType": "uint256",
          "name": "depositAmount",
          "type": "uint256"
        }
      ],
      "name": "registerDeposit",
      "outputs": [
        {
          "internalType": "uint256",
          "name": "extinguishableDebt",
          "type": "uint256"
        }
      ],
      "stateMutability": "nonpayable",
      "type": "function"
    },
    {
      "inputs": [
        {
          "internalType": "address",
          "name": "trader",
          "type": "address"
        }
      ],
      "name": "registerLiquidation",
      "outputs": [],
      "stateMutability": "nonpayable",
      "type": "function"
    },
    {
      "inputs": [
        {
          "internalType": "address",
          "name": "trader",
          "type": "address"
        },
        {
          "internalType": "address",
          "name": "depositToken",
          "type": "address"
        },
        {
          "internalType": "uint256",
          "name": "depositAmount",
          "type": "uint256"
        },
        {
          "internalType": "address",
          "name": "borrowToken",
          "type": "address"
        },
        {
          "internalType": "uint256",
          "name": "withdrawAmount",
          "type": "uint256"
        }
      ],
      "name": "registerOvercollateralizedBorrow",
      "outputs": [],
      "stateMutability": "nonpayable",
      "type": "function"
    },
    {
      "inputs": [
        {
          "internalType": "address",
          "name": "trader",
          "type": "address"
        },
        {
          "internalType": "address",
          "name": "tokenFrom",
          "type": "address"
        },
        {
          "internalType": "address",
          "name": "tokenTo",
          "type": "address"
        },
        {
          "internalType": "uint256",
          "name": "inAmount",
          "type": "uint256"
        },
        {
          "internalType": "uint256",
          "name": "outAmount",
          "type": "uint256"
        }
      ],
      "name": "registerTradeAndBorrow",
      "outputs": [
        {
          "internalType": "uint256",
          "name": "extinguishableDebt",
          "type": "uint256"
        },
        {
          "internalType": "uint256",
          "name": "borrowAmount",
          "type": "uint256"
        }
      ],
      "stateMutability": "nonpayable",
      "type": "function"
    },
    {
      "inputs": [
        {
          "internalType": "address",
          "name": "trader",
          "type": "address"
        },
        {
          "internalType": "address",
          "name": "withdrawToken",
          "type": "address"
        },
        {
          "internalType": "uint256",
          "name": "withdrawAmount",
          "type": "uint256"
        }
      ],
      "name": "registerWithdrawal",
      "outputs": [],
      "stateMutability": "nonpayable",
      "type": "function"
    },
    {
      "inputs": [
        {
          "internalType": "address",
          "name": "",
          "type": "address"
        },
        {
          "internalType": "uint256",
          "name": "",
          "type": "uint256"
        }
      ],
      "name": "roleCache",
      "outputs": [
        {
          "internalType": "bool",
          "name": "",
          "type": "bool"
        }
      ],
      "stateMutability": "view",
      "type": "function"
    },
    {
      "inputs": [],
      "name": "roles",
      "outputs": [
        {
          "internalType": "contract Roles",
          "name": "",
          "type": "address"
        }
      ],
      "stateMutability": "view",
      "type": "function"
    },
    {
      "inputs": [
        {
          "internalType": "uint256",
          "name": "blocks",
          "type": "uint256"
        }
      ],
      "name": "setCoolingOffPeriod",
      "outputs": [],
      "stateMutability": "nonpayable",
      "type": "function"
    },
    {
      "inputs": [
        {
          "internalType": "uint256",
          "name": "threshFactor",
          "type": "uint256"
        }
      ],
      "name": "setFailureThreshold",
      "outputs": [],
      "stateMutability": "nonpayable",
      "type": "function"
    },
    {
      "inputs": [
        {
          "internalType": "uint256",
          "name": "_leveragePercent",
          "type": "uint256"
        }
      ],
      "name": "setLeveragePercent",
      "outputs": [],
      "stateMutability": "nonpayable",
      "type": "function"
    },
    {
      "inputs": [
        {
          "internalType": "uint256",
          "name": "window",
          "type": "uint256"
        }
      ],
      "name": "setLiqStakeAttackWindow",
      "outputs": [],
      "stateMutability": "nonpayable",
      "type": "function"
    },
    {
      "inputs": [
        {
          "internalType": "bytes32",
          "name": "amms",
          "type": "bytes32"
        },
        {
          "internalType": "address[]",
          "name": "tokens",
          "type": "address[]"
        }
      ],
      "name": "setLiquidationPath",
      "outputs": [],
      "stateMutability": "nonpayable",
      "type": "function"
    },
    {
      "inputs": [
        {
          "internalType": "uint256",
          "name": "threshold",
          "type": "uint256"
        }
      ],
      "name": "setLiquidationThresholdPercent",
      "outputs": [],
      "stateMutability": "nonpayable",
      "type": "function"
    },
    {
      "inputs": [
        {
          "internalType": "uint256",
          "name": "cut",
          "type": "uint256"
        }
      ],
      "name": "setMaintainerCutPercent",
      "outputs": [],
      "stateMutability": "nonpayable",
      "type": "function"
    },
    {
      "inputs": [
        {
          "internalType": "uint16",
          "name": "window",
          "type": "uint16"
        },
        {
          "internalType": "uint256",
          "name": "voluntaryWindow",
          "type": "uint256"
        }
      ],
      "name": "setPriceUpdateWindow",
      "outputs": [],
      "stateMutability": "nonpayable",
      "type": "function"
    },
    {
      "inputs": [
        {
          "internalType": "address",
          "name": "token",
          "type": "address"
        },
        {
          "internalType": "uint256",
          "name": "cap",
          "type": "uint256"
        }
      ],
      "name": "setTokenCap",
      "outputs": [],
      "stateMutability": "nonpayable",
      "type": "function"
    },
    {
      "inputs": [
        {
          "internalType": "uint256",
          "name": "rate",
          "type": "uint256"
        }
      ],
      "name": "setUpdateRate",
      "outputs": [],
      "stateMutability": "nonpayable",
      "type": "function"
    },
    {
      "inputs": [
        {
          "internalType": "address",
          "name": "",
          "type": "address"
        }
      ],
      "name": "stakeAttackRecords",
      "outputs": [
        {
          "internalType": "uint256",
          "name": "blockNum",
          "type": "uint256"
        },
        {
          "internalType": "address",
          "name": "loser",
          "type": "address"
        },
        {
          "internalType": "uint256",
          "name": "amount",
          "type": "uint256"
        },
        {
          "internalType": "address",
          "name": "stakeAttacker",
          "type": "address"
        }
      ],
      "stateMutability": "view",
      "type": "function"
    },
    {
      "inputs": [
        {
          "internalType": "address",
          "name": "",
          "type": "address"
        }
      ],
      "name": "tokenCaps",
      "outputs": [
        {
          "internalType": "uint256",
          "name": "",
          "type": "uint256"
        }
      ],
      "stateMutability": "view",
      "type": "function"
    },
    {
      "inputs": [
        {
          "internalType": "address",
          "name": "",
          "type": "address"
        }
      ],
      "name": "tokenPrices",
      "outputs": [
        {
          "internalType": "uint256",
          "name": "lastUpdated",
          "type": "uint256"
        },
        {
          "internalType": "uint256",
          "name": "priceFP",
          "type": "uint256"
        },
        {
          "internalType": "bytes32",
          "name": "amms",
          "type": "bytes32"
        },
        {
          "internalType": "bytes32",
          "name": "inverseAmms",
          "type": "bytes32"
        }
      ],
      "stateMutability": "view",
      "type": "function"
    },
    {
      "inputs": [
        {
          "internalType": "address",
          "name": "",
          "type": "address"
        }
      ],
      "name": "totalLong",
      "outputs": [
        {
          "internalType": "uint256",
          "name": "",
          "type": "uint256"
        }
      ],
      "stateMutability": "view",
      "type": "function"
    },
    {
      "inputs": [
        {
          "internalType": "address",
          "name": "",
          "type": "address"
        }
      ],
      "name": "totalShort",
      "outputs": [
        {
          "internalType": "uint256",
          "name": "",
          "type": "uint256"
        }
      ],
      "stateMutability": "view",
      "type": "function"
    },
    {
      "inputs": [
        {
          "internalType": "uint256",
          "name": "role",
          "type": "uint256"
        }
      ],
      "name": "updateMainCharacterCache",
      "outputs": [],
      "stateMutability": "nonpayable",
      "type": "function"
    },
    {
      "inputs": [
        {
          "internalType": "uint256",
          "name": "role",
          "type": "uint256"
        },
        {
          "internalType": "address",
          "name": "contr",
          "type": "address"
        }
      ],
      "name": "updateRoleCache",
      "outputs": [],
      "stateMutability": "nonpayable",
      "type": "function"
    },
    {
      "inputs": [
        {
          "internalType": "address",
          "name": "trader",
          "type": "address"
        },
        {
          "internalType": "address",
          "name": "token",
          "type": "address"
        }
      ],
      "name": "viewBalanceInToken",
      "outputs": [
        {
          "internalType": "uint256",
          "name": "",
          "type": "uint256"
        }
      ],
      "stateMutability": "view",
      "type": "function"
    },
    {
      "inputs": [
        {
          "internalType": "address",
          "name": "token",
          "type": "address"
        },
        {
          "internalType": "uint256",
          "name": "inAmount",
          "type": "uint256"
        }
      ],
      "name": "viewCurrentPriceInPeg",
      "outputs": [
        {
          "internalType": "uint256",
          "name": "priceInPeg",
          "type": "uint256"
        }
      ],
      "stateMutability": "view",
      "type": "function"
    },
    {
      "inputs": [
        {
          "internalType": "address",
          "name": "trader",
          "type": "address"
        }
      ],
      "name": "viewHoldingsInPeg",
      "outputs": [
        {
          "internalType": "uint256",
          "name": "",
          "type": "uint256"
        }
      ],
      "stateMutability": "view",
      "type": "function"
    },
    {
      "inputs": [
        {
          "internalType": "address",
          "name": "trader",
          "type": "address"
        }
      ],
      "name": "viewLoanInPeg",
      "outputs": [
        {
          "internalType": "uint256",
          "name": "amount",
          "type": "uint256"
        }
      ],
      "stateMutability": "view",
      "type": "function"
    },
    {
      "inputs": [
        {
          "internalType": "uint256",
          "name": "",
          "type": "uint256"
        }
      ],
      "name": "volatilitySettings",
      "outputs": [
        {
          "internalType": "uint256",
          "name": "priceUpdateWindow",
          "type": "uint256"
        },
        {
          "internalType": "uint256",
          "name": "updateRatePermil",
          "type": "uint256"
        },
        {
          "internalType": "uint256",
          "name": "voluntaryUpdateWindow",
          "type": "uint256"
        }
      ],
      "stateMutability": "view",
      "type": "function"
    },
    {
      "inputs": [],
      "name": "voluntaryUpdateWindow",
      "outputs": [
        {
          "internalType": "uint256",
          "name": "",
          "type": "uint256"
        }
      ],
      "stateMutability": "view",
      "type": "function"
    }
  ],
  "bytecode": "0x60c060405261096060045561012c60055561019060065561012c6008556073600955600a600e55600a60155560056016556005601755600a6018553480156200004757600080fd5b5060405162005e2138038062005e218339810160408190526200006a9162000112565b81816001600160a01b038116620000d25760405162461bcd60e51b815260206004820152602260248201527f506c656173652070726f766964652076616c696420726f6c6573206164647265604482015261737360f01b606482015260840160405180910390fd5b6001600160601b0319606091821b811660805291901b1660a05250620001499050565b80516001600160a01b03811681146200010d57600080fd5b919050565b6000806040838503121562000125578182fd5b6200013083620000f5565b91506200014060208401620000f5565b90509250929050565b60805160601c60a05160601c615c58620001c9600039600081816103f001528181610ab101528181610ef501528181611a00015281816120640152818161220b01528181612c5e01528181614efe0152615088015260008181610504015281816108ed0152818161168701528181612e6a0152612f020152615c586000f3fe608060405234801561001057600080fd5b506004361061034c5760003560e01c806360b3fa40116101bd578063bc44dcbc116100f9578063db2d904d116100a2578063ef859fc81161007c578063ef859fc814610848578063f04c686514610885578063f3f5f9b514610898578063f99fd97c146108ab5761034c565b8063db2d904d146107ec578063e0f3871f146107ff578063e9c3f77d1461081f5761034c565b8063c74303aa116100d3578063c74303aa146107b3578063d0eb6653146107c6578063d510c535146107d95761034c565b8063bc44dcbc1461076d578063bc70c6661461078d578063c73afac2146107a05761034c565b8063a17ab52711610166578063a53ac0d911610140578063a53ac0d9146106c4578063a75697a5146106cd578063a985994b146106ed578063badb5048146107005761034c565b8063a17ab5271461068b578063a20ec4931461069e578063a3718919146106b15761034c565b80637d100e84116101975780637d100e84146106245780638dc6a5291461062d5780639c56522c146106825761034c565b806360b3fa40146105da5780636585b5a6146105ed5780637a1a04df146105f65761034c565b8063320d2fa01161028c57806347788cd011610235578063519bda851161020f578063519bda85146105a257806352a664d9146105ab578063538edb29146105be57806354554b58146105c75761034c565b806347788cd014610563578063498d55eb146105865780634aa4aca3146105995761034c565b80633ed456fa116102665780633ed456fa14610526578063409fdb721461052f578063447d52ba146105505761034c565b8063320d2fa0146104ce5780633500aa0b146104d7578063392f5f64146104ff5761034c565b80631d84cc18116102f9578063204120bc116102d3578063204120bc1461043d57806320c27126146104925780632b23f857146104b25780632febaa74146104c55761034c565b80631d84cc18146103d85780631f1cb62b146103eb5780631f692a641461042a5761034c565b806310d584341161032a57806310d584341461039f57806316317e7e146103b25780631d47e4a3146103c55761034c565b8063071060a61461035157806307c2017514610366578063093a483a14610379575b600080fd5b61036461035f366004615916565b6108be565b005b610364610374366004615781565b6109b5565b61038c6103873660046156e8565b610aad565b6040519081526020015b60405180910390f35b6103646103ad366004615916565b610b3c565b6103646103c0366004615916565b610bbf565b6103646103d33660046156e8565b610c3d565b6103646103e636600461568e565b610d1e565b6104127f000000000000000000000000000000000000000000000000000000000000000081565b6040516001600160a01b039091168152602001610396565b61038c610438366004615584565b610dcc565b61047261044b366004615584565b60026020526000908152604090208054600182015460038301546005909301549192909184565b604080519485526020850193909352918301526060820152608001610396565b61038c6104a0366004615584565b600d6020526000908152604090205481565b6103646104c036600461586b565b610e01565b61038c600e5481565b61038c60095481565b6104ea6104e53660046155f4565b6111d7565b60408051928352602083019190915201610396565b6104127f000000000000000000000000000000000000000000000000000000000000000081565b61038c60045481565b61054261053d366004615584565b6114d1565b6040516103969291906159fe565b61036461055e366004615946565b611648565b610576610571366004615584565b611757565b6040519015158152602001610396565b61036461059436600461564e565b6117be565b61038c60165481565b61038c60065481565b61038c6105b936600461564e565b61185d565b61038c60175481565b6103646105d5366004615916565b61197e565b61038c6105e8366004615740565b6119fc565b61038c60155481565b6105766106043660046156e8565b600160209081526000928352604080842090915290825290205460ff1681565b61038c60185481565b61066761063b3660046155bc565b600360209081526000928352604080842090915290825290208054600182015460029092015490919083565b60408051938452602084019290925290820152606001610396565b61038c60055481565b61038c610699366004615584565b611b46565b6103646106ac3660046158f3565b611b6e565b6103646106bf366004615916565b611bf5565b61038c60085481565b61038c6106db366004615584565b60136020526000908152604090205481565b61038c6106fb366004615781565b611c73565b61074261070e366004615584565b601460205260009081526040902080546001820154600283015460039093015491926001600160a01b039182169290911684565b604080519485526001600160a01b039384166020860152840191909152166060820152608001610396565b61038c61077b366004615584565b600c6020526000908152604090205481565b61066761079b366004615916565b6123e2565b6103646107ae366004615916565b612415565b6103646107c1366004615916565b612493565b6103646107d436600461564e565b612511565b6105426107e7366004615584565b61259f565b6103646107fa366004615584565b6127e3565b61038c61080d366004615584565b600b6020526000908152604090205481565b61041261082d366004615916565b6000602081905290815260409020546001600160a01b031681565b61038c6108563660046155bc565b6001600160a01b039182166000908152600a602090815260408083209390941682526005909201909152205490565b610364610893366004615916565b6128c5565b6103646108a636600461598d565b612a09565b6103646108b9366004615916565b612b25565b6040517fb4ed0b6d000000000000000000000000000000000000000000000000000000008152600481018290527f00000000000000000000000000000000000000000000000000000000000000006001600160a01b03169063b4ed0b6d9060240160206040518083038186803b15801561093757600080fd5b505afa15801561094b573d6000803e3d6000fd5b505050506040513d601f19601f8201168201806040525081019061096f91906155a0565b60009182526020829052604090912080547fffffffffffffffffffffffff0000000000000000000000000000000000000000166001600160a01b03909216919091179055565b60005b8082511115610aa95760008282815181106109e357634e487b7160e01b600052603260045260246000fd5b60200260200101519050600060146000836001600160a01b03166001600160a01b0316815260200190815260200160002090506016548160000154610a289190615b0e565b431115610a9457610a3881612ba3565b506001600160a01b03821660009081526014602052604081208181556001810180547fffffffffffffffffffffffff00000000000000000000000000000000000000009081169091556002820192909255600301805490911690555b50508080610aa190615b9a565b9150506109b8565b5050565b60007f00000000000000000000000000000000000000000000000000000000000000006001600160a01b0316836001600160a01b03161415610af0575080610b36565b6001600160a01b038316600090815260026020526040902060018101546e010000000000000000000000000000610b278286615b46565b610b319190615b26565b925050505b92915050565b33610b45612e66565b6001600160a01b03161480610b69575033610b5e612efe565b6001600160a01b0316145b610bba5760405162461bcd60e51b815260206004820152601e60248201527f526f6c65733a2063616c6c6572206973206e6f7420746865206f776e6572000060448201526064015b60405180910390fd5b601855565b33610bc8612e66565b6001600160a01b03161480610bec575033610be1612efe565b6001600160a01b0316145b610c385760405162461bcd60e51b815260206004820152601e60248201527f526f6c65733a2063616c6c6572206973206e6f7420746865206f776e657200006044820152606401610bb1565b600955565b33610c46612e66565b6001600160a01b03161480610c6a575033610c5f612efe565b6001600160a01b0316145b80610c9057503360009081526001602090815260408083206009845290915290205460ff165b610d025760405162461bcd60e51b815260206004820152603960248201527f43616c6c6572206973206e6f7420746865206f776e65722c206578656375746f60448201527f72206f7220617574686f72697a656420616374697661746f72000000000000006064820152608401610bb1565b6001600160a01b039091166000908152600b6020526040902055565b3360009081526001602090815260408083206004845290915290205460ff16610d895760405162461bcd60e51b815260206004820152601d60248201527f43616c6c696e6720636f6e74722e206e6f7420617574686f72697a65640000006044820152606401610bb1565b6001600160a01b0385166000908152600a60205260409020610dac818686612f6f565b610db781848461301a565b610dc2818484613121565b4390555050505050565b6001600160a01b0381166000908152600a60205260408120610df8600182016002830160038401613241565b9150505b919050565b33610e0a612e66565b6001600160a01b03161480610e2e575033610e23612efe565b6001600160a01b0316145b80610e5457503360009081526001602090815260408083206009845290915290205460ff165b610ec65760405162461bcd60e51b815260206004820152603960248201527f43616c6c6572206973206e6f7420746865206f776e65722c206578656375746f60448201527f72206f7220617574686f72697a656420616374697661746f72000000000000006064820152608401610bb1565b600081600081518110610ee957634e487b7160e01b600052603260045260246000fd5b602002602001015190507f00000000000000000000000000000000000000000000000000000000000000006001600160a01b0316816001600160a01b0316146111d2576001600160a01b03811660009081526002602081815260409092206003810186905584519092610f62928401919086019061543f565b50825167ffffffffffffffff811115610f8b57634e487b7160e01b600052604160045260246000fd5b604051908082528060200260200182016040528015610fb4578160200160208202803683370190505b508051610fcb91600484019160209091019061543f565b506000805b8060018651610fdf9190615b83565b11156110f35761106d85828151811061100857634e487b7160e01b600052603260045260246000fd5b60200260200101518683600161101e9190615b0e565b8151811061103c57634e487b7160e01b600052603260045260246000fd5b602002602001015188846020811061106457634e487b7160e01b600052603260045260246000fd5b1a60f81b6132c5565b6000816002875161107e9190615b83565b6110889190615b83565b611093906008615b46565b8783602081106110b357634e487b7160e01b600052603260045260246000fd5b1a60f81b7fff0000000000000000000000000000000000000000000000000000000000000016901c929092179150806110eb81615b9a565b915050610fd0565b506005820181905560005b80855111156111bd578460018287516111179190615b83565b6111219190615b83565b8151811061113f57634e487b7160e01b600052603260045260246000fd5b602002602001015183600401828154811061116a57634e487b7160e01b600052603260045260246000fd5b600091825260209091200180547fffffffffffffffffffffffff0000000000000000000000000000000000000000166001600160a01b0392909216919091179055806111b581615b9a565b9150506110fe565b506111c8848661356b565b6001830155504290555b505050565b33600090815260016020908152604080832060048452909152812054819060ff166112445760405162461bcd60e51b815260206004820181905260248201527f43616c6c696e6720636f6e74722e206e6f7420616e20617574686f72697a65646044820152606401610bb1565b6001600160a01b038088166000908152600a60209081526040808320938916835260028401909152902054156112d5576001600160a01b038616600090815260028201602052604090205461129a908590613899565b92506112a78187856138b1565b6001600160a01b0386166000908152600c6020526040812080548592906112cf908490615b83565b90915550505b6001600160a01b038716600090815260058201602052604090205485908082111561130a579050806113078188615b83565b93505b8387111561134a5761131c8488615b83565b6001600160a01b038a166000908152600d602052604081208054909190611344908490615b83565b90915550505b8486111561138a5761135c8587615b83565b6001600160a01b0389166000908152600d602052604081208054909190611384908490615b0e565b90915550505b6001600160a01b0388166000908152600d6020908152604080832054600b9092529091205410156113fd5760405162461bcd60e51b815260206004820152601860248201527f4578636565647320676c6f62616c20746f6b656e2063617000000000000000006044820152606401610bb1565b611413838a8a8561140e8a8c615b83565b613bb6565b83156114c4576001600160a01b0389166000908152600c602052604081208054869290611441908490615b0e565b90915550506001600160a01b0389166000908152600c6020908152604080832054600b9092529091205410156114b95760405162461bcd60e51b815260206004820152601860248201527f4578636565647320676c6f62616c20746f6b656e2063617000000000000000006044820152606401610bb1565b6114c4838a86613c09565b5050509550959350505050565b6001600160a01b0381166000908152600a602090815260409182902060048101805484518185028101850190955280855260609485949092919083018282801561154457602002820191906000526020600020905b81546001600160a01b03168152600190910190602001808311611526575b5050506004840154929550505067ffffffffffffffff81111561157757634e487b7160e01b600052604160045260246000fd5b6040519080825280602002602001820160405280156115a0578160200160208202803683370190505b50915060005b80845111156116415760008482815181106115d157634e487b7160e01b600052603260045260246000fd5b60200260200101519050826005016000826001600160a01b03166001600160a01b031681526020019081526020016000205484838151811061162357634e487b7160e01b600052603260045260246000fd5b6020908102919091010152508061163981615b9a565b9150506115a6565b5050915091565b6040517f93552a3d000000000000000000000000000000000000000000000000000000008152600481018390526001600160a01b0382811660248301527f000000000000000000000000000000000000000000000000000000000000000016906393552a3d9060440160206040518083038186803b1580156116c957600080fd5b505afa1580156116dd573d6000803e3d6000fd5b505050506040513d601f19601f82011682018060405250810190611701919061584f565b6001600160a01b039190911660009081526001602090815260408083209483529390529190912080547fffffffffffffffffffffffffffffffffffffffffffffffffffffffffffffff0016911515919091179055565b6001600160a01b0381166000908152600a6020526040812081611784600183016002840160038501613241565b905060006117988360040184600501613ec3565b90506117a5816064615b46565b826009546117b39190615b46565b101595945050505050565b3360009081526001602090815260408083206004845290915290205460ff166118295760405162461bcd60e51b815260206004820152601d60248201527f43616c6c696e6720636f6e74722e206e6f7420617574686f72697a65640000006044820152606401610bb1565b6001600160a01b0383166000908152600a6020526040902061184c818484613f4e565b61185781848461301a565b50505050565b3360009081526001602090815260408083206004845290915281205460ff166118c85760405162461bcd60e51b815260206004820152601d60248201527f43616c6c696e6720636f6e74722e206e6f7420617574686f72697a65640000006044820152606401610bb1565b6001600160a01b038085166000908152600a602090815260408083204381559387168352600284019091529020541561195c576001600160a01b0384166000908152600282016020526040902054611921908490613899565b915061192e8185846138b1565b6001600160a01b0384166000908152600c602052604081208054849290611956908490615b83565b90915550505b60006119688385615b83565b9050611975828683612f6f565b50509392505050565b33611987612e66565b6001600160a01b031614806119ab5750336119a0612efe565b6001600160a01b0316145b6119f75760405162461bcd60e51b815260206004820152601e60248201527f526f6c65733a2063616c6c6572206973206e6f7420746865206f776e657200006044820152606401610bb1565b600655565b60007f00000000000000000000000000000000000000000000000000000000000000006001600160a01b0316846001600160a01b03161415611a3f575081611b3f565b6001600160a01b03841660009081526002602052604081208054909190611a669042615b83565b9050600454811180611a7a57506001820154155b80611a8e5750838015611a8e575060055481115b15611b10576000611aff83600201805480602002602001604051908101604052809291908181526020018280548015611af057602002820191906000526020600020905b81546001600160a01b03168152600190910190602001808311611ad2575b5050505050846003015461356b565b9050611b0e838260065461402a565b505b6e010000000000000000000000000000826001015486611b309190615b46565b611b3a9190615b26565b925050505b9392505050565b6001600160a01b0381166000908152600a60205260408120610df86004820160058301613ec3565b33611b77612e66565b6001600160a01b03161480611b9b575033611b90612efe565b6001600160a01b0316145b611be75760405162461bcd60e51b815260206004820152601e60248201527f526f6c65733a2063616c6c6572206973206e6f7420746865206f776e657200006044820152606401610bb1565b61ffff909116600455600555565b33611bfe612e66565b6001600160a01b03161480611c22575033611c17612efe565b6001600160a01b0316145b611c6e5760405162461bcd60e51b815260206004820152601e60248201527f526f6c65733a2063616c6c6572206973206e6f7420746865206f776e657200006044820152606401610bb1565b601655565b6000333214611cea5760405162461bcd60e51b815260206004820152603a60248201527f43757272656e746c79206e6f20696e7465726d656469617269657320616c6c6f60448201527f77656420666f7220746869732066756e6374696f6e2063616c6c0000000000006064820152608401610bb1565b6000611d27606b60009081526020527f2dc7a963308417ad45132da282495eb244f38a7db03940a4d808be607669c622546001600160a01b031690565b6040517f7b23cbce0000000000000000000000000000000000000000000000000000000081523360048201526001600160a01b039190911690637b23cbce90602401602060405180830381600087803b158015611d8357600080fd5b505af1158015611d97573d6000803e3d6000fd5b505050506040513d601f19601f82011682018060405250810190611dbb919061584f565b905060008180611dce5750611dce614072565b9050611dda8483614152565b92506000611de66146d2565b90506000611df26147b4565b9050600060646017546064611e079190615b0e565b611e119084615b46565b611e1b9190615b26565b905082811115611e62577f3555ffae7677eb42103f0b9e11b61c758f452fae446684dec7a363dd38ab58fc611e508483615b83565b60405190815260200160405180910390a15b600084611f1357606b60009081526020527f2dc7a963308417ad45132da282495eb244f38a7db03940a4d808be607669c622546001600160a01b03166001600160a01b0316631a38de1d6040518163ffffffff1660e01b8152600401602060405180830381600087803b158015611ed857600080fd5b505af1158015611eec573d6000803e3d6000fd5b505050506040513d601f19601f82011682018060405250810190611f1091906155a0565b90505b60005b60125481101561217657600060128281548110611f4357634e487b7160e01b600052603260045260246000fd5b60009182526020808320909101546001600160a01b0316808352600a9091526040822090925090611f738261488f565b90506000611f80836148a1565b90506000606460175483611f949190615b46565b611f9e9190615b26565b9050611faa818e615b0e565b9c508a612017576001600160a01b03858116600090815260146020526040902060028101839055600381018054337fffffffffffffffffffffffff000000000000000000000000000000000000000091821617909155438255600190910180549091169189169190911790555b6120218282615b0e565b83111561211957606560009081526020527f4a7203f705e51df4a56139a9b86b4a0970bed7ab7a3446eaffe2289989c1645c546001600160a01b031663d9caed127f0000000000000000000000000000000000000000000000000000000000000000878461208f8789615b83565b6120999190615b83565b6040517fffffffff0000000000000000000000000000000000000000000000000000000060e086901b1681526001600160a01b0393841660048201529290911660248301526044820152606401600060405180830381600087803b15801561210057600080fd5b505af1158015612114573d6000803e3d6000fd5b505050505b6040516001600160a01b03861681527f1d2cc4c8661a04a00b4e727426220501b36d85bb330947642c2d4320667028cf9060200160405180910390a161215e846148b7565b5050505050808061216e90615b9a565b915050611f16565b5060648760155460636121899190615b46565b6121939190615b0e565b61219d9190615b26565b601555841561227f57606560009081526020527f4a7203f705e51df4a56139a9b86b4a0970bed7ab7a3446eaffe2289989c1645c546001600160a01b03166040517fd9caed120000000000000000000000000000000000000000000000000000000081526001600160a01b037f000000000000000000000000000000000000000000000000000000000000000081166004830152336024830152604482018a9052919091169063d9caed1290606401600060405180830381600087803b15801561226657600080fd5b505af115801561227a573d6000803e3d6000fd5b505050505b60006122bc606b60009081526020527f2dc7a963308417ad45132da282495eb244f38a7db03940a4d808be607669c622546001600160a01b031690565b6001600160a01b0316631a38de1d6040518163ffffffff1660e01b8152600401602060405180830381600087803b1580156122f657600080fd5b505af115801561230a573d6000803e3d6000fd5b505050506040513d601f19601f8201168201806040525081019061232e91906155a0565b905086156123a8576001600160a01b038116600090815260136020526040902054881015612389576001600160a01b038116600090815260136020526040812080548a929061237e908490615b83565b909155506123a39050565b6001600160a01b0381166000908152601360205260408120555b6123d6565b6001600160a01b038116600090815260136020526040812080548a92906123d0908490615b0e565b90915550505b50505050505050919050565b600781815481106123f257600080fd5b600091825260209091206003909102018054600182015460029092015490925083565b3361241e612e66565b6001600160a01b03161480612442575033612437612efe565b6001600160a01b0316145b61248e5760405162461bcd60e51b815260206004820152601e60248201527f526f6c65733a2063616c6c6572206973206e6f7420746865206f776e657200006044820152606401610bb1565b601755565b3361249c612e66565b6001600160a01b031614806124c05750336124b5612efe565b6001600160a01b0316145b61250c5760405162461bcd60e51b815260206004820152601e60248201527f526f6c65733a2063616c6c6572206973206e6f7420746865206f776e657200006044820152606401610bb1565b600855565b3360009081526001602090815260408083206004845290915290205460ff1661257c5760405162461bcd60e51b815260206004820152601c60248201527f43616c6c696e6720636f6e7472206e6f7420617574686f72697a6564000000006044820152606401610bb1565b6001600160a01b0383166000908152600a60205260409020611857818484613121565b6001600160a01b0381166000908152600a602090815260409182902060018101805484518185028101850190955280855260609485949092919083018282801561261257602002820191906000526020600020905b81546001600160a01b031681526001909101906020018083116125f4575b5050506001840154929550505067ffffffffffffffff81111561264557634e487b7160e01b600052604160045260246000fd5b60405190808252806020026020018201604052801561266e578160200160208202803683370190505b50915060005b808451111561164157600084828151811061269f57634e487b7160e01b600052603260045260246000fd5b602002602001015190506126e4606660009081526020527f422cccb7cea5c0e46f340bb7b21b81debac329f72e31669c20ff0f3a05cc2b5b546001600160a01b031690565b6001600160a01b03828116600081815260028701602090815260408083205460038a01909252918290205491517f76668b670000000000000000000000000000000000000000000000000000000081526004810191909152602481019290925260448201529116906376668b679060640160206040518083038186803b15801561276d57600080fd5b505afa158015612781573d6000803e3d6000fd5b505050506040513d601f19601f820116820180604052508101906127a5919061592e565b8483815181106127c557634e487b7160e01b600052603260045260246000fd5b602090810291909101015250806127db81615b9a565b915050612674565b3360009081526001602090815260408083206004845290915290205460ff1661284e5760405162461bcd60e51b815260206004820152601d60248201527f43616c6c696e6720636f6e74722e206e6f7420617574686f72697a65640000006044820152606401610bb1565b6001600160a01b0381166000908152600a6020526040902061286f816148a1565b156128bc5760405162461bcd60e51b815260206004820152601a60248201527f43616e2774206c69717569646174653a20626f72726f77696e670000000000006044820152606401610bb1565b610aa9816148b7565b336128ce612e66565b6001600160a01b031614806128f25750336128e7612efe565b6001600160a01b0316145b806129405750336129356103e960009081526020527f236f539bf6e1b3b15a335e3cd157d360bc4be88c071635c19ba8a82b4f665e9f546001600160a01b031690565b6001600160a01b0316145b6129b25760405162461bcd60e51b815260206004820152603860248201527f43616c6c6572206973206e6f7420746865206f776e65722c206578656375746f60448201527f72206f7220617574686f72697a65642064697361626c657200000000000000006064820152608401610bb1565b6000600782815481106129d557634e487b7160e01b600052603260045260246000fd5b90600052602060002090600302019050600081600101541115610aa957600181015460065580546004556002015460055550565b33612a12612e66565b6001600160a01b03161480612a36575033612a2b612efe565b6001600160a01b0316145b612a825760405162461bcd60e51b815260206004820152601e60248201527f526f6c65733a2063616c6c6572206973206e6f7420746865206f776e657200006044820152606401610bb1565b604080516060810182529384526020840192835283019081526007805460018101825560009190915292517fa66cc928b5edb82af9bd49922954155ab7b0942694bea4ce44661d9a8736c68860039094029384015590517fa66cc928b5edb82af9bd49922954155ab7b0942694bea4ce44661d9a8736c689830155517fa66cc928b5edb82af9bd49922954155ab7b0942694bea4ce44661d9a8736c68a90910155565b33612b2e612e66565b6001600160a01b03161480612b52575033612b47612efe565b6001600160a01b0316145b612b9e5760405162461bcd60e51b815260206004820152601e60248201527f526f6c65733a2063616c6c6572206973206e6f7420746865206f776e657200006044820152606401610bb1565b600e55565b600281015460009015610dfc578154600090612bcb90612bc39043615b83565b601654613899565b90506000601654828560020154612be29190615b46565b612bec9190615b26565b9050612c29606560009081526020527f4a7203f705e51df4a56139a9b86b4a0970bed7ab7a3446eaffe2289989c1645c546001600160a01b031690565b60038501546040517fd9caed120000000000000000000000000000000000000000000000000000000081526001600160a01b037f00000000000000000000000000000000000000000000000000000000000000008116600483015291821660248201526044810184905291169063d9caed1290606401600060405180830381600087803b158015612cb957600080fd5b505af1158015612ccd573d6000803e3d6000fd5b505050506000612d0e606b60009081526020527f2dc7a963308417ad45132da282495eb244f38a7db03940a4d808be607669c622546001600160a01b031690565b9050600060155483836001600160a01b0316630ad691506040518163ffffffff1660e01b815260040160206040518083038186803b158015612d4f57600080fd5b505afa158015612d63573d6000803e3d6000fd5b505050506040513d601f19601f82011682018060405250810190612d87919061592e565b612d919190615b46565b612d9b9190615b26565b600187015460038801546040517f0a45bc1b0000000000000000000000000000000000000000000000000000000081526001600160a01b039283166004820152602481018490529082166044820152919250831690630a45bc1b90606401602060405180830381600087803b158015612e1357600080fd5b505af1158015612e27573d6000803e3d6000fd5b505050506040513d601f19601f82011682018060405250810190612e4b919061592e565b50828660020154612e5c9190615b83565b9695505050505050565b60007f00000000000000000000000000000000000000000000000000000000000000006001600160a01b0316638da5cb5b6040518163ffffffff1660e01b815260040160206040518083038186803b158015612ec157600080fd5b505afa158015612ed5573d6000803e3d6000fd5b505050506040513d601f19601f82011682018060405250810190612ef991906155a0565b905090565b60007f00000000000000000000000000000000000000000000000000000000000000006001600160a01b031663c34c08e56040518163ffffffff1660e01b8152600401602060405180830381600087803b158015612f5b57600080fd5b505af1158015612ed5573d6000803e3d6000fd5b612f7a838383613f4e565b6001600160a01b0382166000908152600d602052604081208054839290612fa2908490615b0e565b90915550506001600160a01b0382166000908152600d6020908152604080832054600b9092529091205410156111d25760405162461bcd60e51b815260206004820152601860248201527f4578636565647320676c6f62616c20746f6b656e2063617000000000000000006044820152606401610bb1565b6001600160a01b0382166000908152600c602052604081208054839290613042908490615b0e565b90915550506001600160a01b0382166000908152600d60205260408120805483929061306f908490615b0e565b90915550506001600160a01b0382166000908152600c6020908152604080832054600b90925290912054108015906130ca57506001600160a01b0382166000908152600d6020908152604080832054600b9092529091205410155b6131165760405162461bcd60e51b815260206004820152601860248201527f4578636565647320676c6f62616c20746f6b656e2063617000000000000000006044820152606401610bb1565b6111d2838383613c09565b600e5483546131309190615b0e565b431161317e5760405162461bcd60e51b815260206004820181905260248201527f4e6f207769746864726177616c20736f6f6e206166746572206465706f7369746044820152606401610bb1565b6001600160a01b0382166000908152600d6020526040812080548392906131a6908490615b83565b90915550506001600160a01b03821660009081526005840160205260409020546131d1908290615b83565b6001600160a01b03831660009081526005850160205260409020556131f583614a65565b6111d25760405162461bcd60e51b815260206004820152601460248201527f496e73756666696369656e742062616c616e63650000000000000000000000006044820152606401610bb1565b8254600090815b8181101561197557600086828154811061327257634e487b7160e01b600052603260045260246000fd5b60009182526020808320909101546001600160a01b0316808352908890526040909120549091506132a590829087614ab1565b6132af9085615b0e565b93505080806132bd90615b9a565b915050613248565b60007fff000000000000000000000000000000000000000000000000000000000000008216156132fe576132f98484614bc0565b613308565b6133088484614ce7565b9050600080826001600160a01b0316630902f1ac6040518163ffffffff1660e01b815260040160606040518083038186803b15801561334657600080fd5b505afa15801561335a573d6000803e3d6000fd5b505050506040513d601f19601f8201168201806040525081019061337e91906158b0565b506001600160a01b038086166000908152600360209081526040808320938c1683529290529081209294509092506133b68888614dd3565b509050806001600160a01b0316886001600160a01b0316141561349957836dffffffffffffffffffffffffffff16836dffffffffffffffffffffffffffff166e01000000000000000000000000000061340f9190615b46565b6134199190615b26565b8260020181905550846001600160a01b0316635909c0d56040518163ffffffff1660e01b815260040160206040518083038186803b15801561345a57600080fd5b505afa15801561346e573d6000803e3d6000fd5b505050506040513d601f19601f82011682018060405250810190613492919061592e565b825561355b565b826dffffffffffffffffffffffffffff16846dffffffffffffffffffffffffffff166e0100000000000000000000000000006134d59190615b46565b6134df9190615b26565b8260020181905550846001600160a01b0316635a3d54936040518163ffffffff1660e01b815260040160206040518083038186803b15801561352057600080fd5b505afa158015613534573d6000803e3d6000fd5b505050506040513d601f19601f82011682018060405250810190613558919061592e565b82555b5042600190910155505050505050565b6e01000000000000000000000000000060005b6001845161358c9190615b83565b8110156138925760008482815181106135b557634e487b7160e01b600052603260045260246000fd5b602002602001015190506000858360016135cf9190615b0e565b815181106135ed57634e487b7160e01b600052603260045260246000fd5b60200260200101519050600085846020811061361957634e487b7160e01b600052603260045260246000fd5b1a60f81b7fff0000000000000000000000000000000000000000000000000000000000000016156136535761364e8383614bc0565b61365d565b61365d8383614ce7565b6001600160a01b03808216600090815260036020908152604080832093881683529290529081206001810154929350916136979042615b83565b905060055481111561384d5760006136af8686614dd3565b5090506000816001600160a01b0316876001600160a01b03161461374357846001600160a01b0316635a3d54936040518163ffffffff1660e01b815260040160206040518083038186803b15801561370657600080fd5b505afa15801561371a573d6000803e3d6000fd5b505050506040513d601f19601f8201168201806040525081019061373e919061592e565b6137b4565b846001600160a01b0316635909c0d56040518163ffffffff1660e01b815260040160206040518083038186803b15801561377c57600080fd5b505afa158015613790573d6000803e3d6000fd5b505050506040513d601f19601f820116820180604052508101906137b4919061592e565b84549091508114156137f1576e01000000000000000000000000000084600201548a6137e09190615b46565b6137ea9190615b26565b9850613840565b835460009084906138029084615b83565b61380c9190615b26565b6002860181905590506e01000000000000000000000000000061382f828c615b46565b6138399190615b26565b8286559950505b505042600183015561387a565b6e01000000000000000000000000000082600201548861386d9190615b46565b6138779190615b26565b96505b5050505050808061388a90615b9a565b91505061357e565b5092915050565b6000818311156138aa575080610b36565b5081610b36565b6000806138ef606660009081526020527f422cccb7cea5c0e46f340bb7b21b81debac329f72e31669c20ff0f3a05cc2b5b546001600160a01b031690565b6001600160a01b03858116600081815260028901602090815260408083205460038c01909252918290205491517fe695fa6800000000000000000000000000000000000000000000000000000000815260048101919091526024810192909252604482015291169063e695fa68906064016040805180830381600087803b15801561397957600080fd5b505af115801561398d573d6000803e3d6000fd5b505050506040513d601f19601f820116820180604052508101906139b1919061596a565b909250905060006139c28484615b83565b6001600160a01b0386166000908152600288016020908152604080832084905560058a019091529020549091506139fa908590615b83565b6001600160a01b03861660009081526005880160205260409020558015613a3d576001600160a01b03851660009081526003870160205260409020829055613bae565b6001600160a01b038516600090815260038701602052604081208190556001870154815b80821115613b31576000896001018281548110613a8e57634e487b7160e01b600052603260045260246000fd5b6000918252602090912001546001600160a01b0390811691508916811415613ab95760019350613b1e565b8315613b1e57808a600101600184613ad19190615b83565b81548110613aef57634e487b7160e01b600052603260045260246000fd5b9060005260206000200160006101000a8154816001600160a01b0302191690836001600160a01b031602179055505b5080613b2981615b9a565b915050613a61565b5087600101805480613b5357634e487b7160e01b600052603160045260246000fd5b60008281526020902081017fffffffffffffffffffffffffffffffffffffffffffffffffffffffffffffffff90810180547fffffffffffffffffffffffff000000000000000000000000000000000000000016905501905550505b505050505050565b6001600160a01b0384166000908152600586016020526040902054613bdc908390615b83565b6001600160a01b0385166000908152600587016020526040902055613c02858483613f4e565b5050505050565b6001600160a01b0382166000908152600384016020526040902054613d70576001838101805491820181556000908152602090200180547fffffffffffffffffffffffff0000000000000000000000000000000000000000166001600160a01b038416179055613caa606660009081526020527f422cccb7cea5c0e46f340bb7b21b81debac329f72e31669c20ff0f3a05cc2b5b546001600160a01b031690565b6040517f46c87f800000000000000000000000000000000000000000000000000000000081526001600160a01b03848116600483015291909116906346c87f8090602401602060405180830381600087803b158015613d0857600080fd5b505af1158015613d1c573d6000803e3d6000fd5b505050506040513d601f19601f82011682018060405250810190613d40919061592e565b6001600160a01b038316600090815260038501602090815260408083209390935560028601905220819055613eba565b600080613dae606660009081526020527f422cccb7cea5c0e46f340bb7b21b81debac329f72e31669c20ff0f3a05cc2b5b546001600160a01b031690565b6001600160a01b03858116600081815260028901602090815260408083205460038c01909252918290205491517fe695fa6800000000000000000000000000000000000000000000000000000000815260048101919091526024810192909252604482015291169063e695fa68906064016040805180830381600087803b158015613e3857600080fd5b505af1158015613e4c573d6000803e3d6000fd5b505050506040513d601f19601f82011682018060405250810190613e70919061596a565b6001600160a01b038616600090815260038801602052604090208190559092509050613e9c8383615b0e565b6001600160a01b038516600090815260028701602052604090205550505b6131f583614a65565b8154600090815b81811015613f46576000858281548110613ef457634e487b7160e01b600052603260045260246000fd5b60009182526020808320909101546001600160a01b031680835290879052604090912054909150613f26908290610aad565b613f309085615b0e565b9350508080613f3e90615b9a565b915050613eca565b505092915050565b6001600160a01b038216600090815260068401602052604090205460ff16613ff657600483018054600180820183556000928352602080842090920180547fffffffffffffffffffffffff0000000000000000000000000000000000000000166001600160a01b038716908117909155835260068601909152604090912080547fffffffffffffffffffffffffffffffffffffffffffffffffffffffffffffff001690911790555b6001600160a01b038216600090815260058401602052604081208054839290614020908490615b0e565b9091555050505050565b6103e86140378284615b46565b614043836103e8615b83565b85600101546140529190615b46565b61405c9190615b0e565b6140669190615b26565b60018401555050429055565b6000806140b0606b60009081526020527f2dc7a963308417ad45132da282495eb244f38a7db03940a4d808be607669c622546001600160a01b031690565b6001600160a01b031663b0411f466040518163ffffffff1660e01b8152600401604080518083038186803b1580156140e757600080fd5b505afa1580156140fb573d6000803e3d6000fd5b505050506040513d601f19601f8201168201806040525081019061411f9190615713565b5090506015546018546141329190615b46565b6001600160a01b0390911660009081526013602052604090205411905090565b604080516000808252602082019283905290519091614174916010919061543f565b5060408051600081526020810191829052516141929160119161543f565b5060408051600081526020810191829052516141b09160129161543f565b5060005b80845111156138925760008482815181106141df57634e487b7160e01b600052603260045260246000fd5b602002602001015190506000600a6000836001600160a01b03166001600160a01b03168152602001908152602001600020905061421b81614ebd565b15614688576012805460018101825560009182527fbb8a6a4669ba250d26cd7a459eca9d215f8307e33aebe50379bc5a3617ec34440180547fffffffffffffffffffffffff0000000000000000000000000000000000000000166001600160a01b0385161790556004820154905b808211156143bd5760008360040182815481106142b657634e487b7160e01b600052603260045260246000fd5b60009182526020808320909101546001600160a01b0316808352600f90915260409091206002810154919250904314614372576001600160a01b03821660008181526005870160205260408120546001808501919091558184554360028501556010805491820181559091527f1b6847dc741a1b0cd08d278845f9d819d87b734759afb55fe2de5cb82a9ae6720180547fffffffffffffffffffffffff00000000000000000000000000000000000000001690911790556143a8565b6001600160a01b0382166000908152600586016020526040812054600183018054919290916143a2908490615b0e565b90915550505b505080806143b590615b9a565b915050614289565b5050600181015460005b808211156146855760008360010182815481106143f457634e487b7160e01b600052603260045260246000fd5b60009182526020808320909101546001600160a01b0316808352600f9091526040822090925090614456606660009081526020527f422cccb7cea5c0e46f340bb7b21b81debac329f72e31669c20ff0f3a05cc2b5b546001600160a01b031690565b6001600160a01b03848116600081815260028a01602090815260408083205460038d01909252918290205491517fe695fa6800000000000000000000000000000000000000000000000000000000815260048101919091526024810192909252604482015291169063e695fa68906064016040805180830381600087803b1580156144e057600080fd5b505af11580156144f4573d6000803e3d6000fd5b505050506040513d601f19601f82011682018060405250810190614518919061596a565b509050614556606660009081526020527f422cccb7cea5c0e46f340bb7b21b81debac329f72e31669c20ff0f3a05cc2b5b546001600160a01b031690565b6040517f2a6a897b0000000000000000000000000000000000000000000000000000000081526001600160a01b038581166004830152602482018490529190911690632a6a897b90604401600060405180830381600087803b1580156145bb57600080fd5b505af11580156145cf573d6000803e3d6000fd5b505050504382600201541461465557600060018381018290558284554360028501556011805491820181559091527f31ecc21a745e3968a04e9570e4425bc18fa8019c68028196b546d1669c200c680180547fffffffffffffffffffffffff0000000000000000000000000000000000000000166001600160a01b03851617905561466f565b808260000160008282546146699190615b0e565b90915550505b505050808061467d90615b9a565b9150506143c7565b50505b6001600160a01b038216600090815260146020526040902085156146bc576146af81612ba3565b6146b99086615b0e565b94505b50505080806146ca90615b9a565b9150506141b4565b601054600090815b808211156147a35760006010828154811061470557634e487b7160e01b600052603260045260246000fd5b60009182526020808320909101546001600160a01b0316808352600f9091526040909120805460018201549293509091111561478e578054600182015460009161474e91615b83565b905061475a8382614efa565b6147649087615b0e565b6001600160a01b0384166000908152600f6020526040812081815560018101829055600201559550505b5050808061479b90615b9a565b9150506146da565b506147b0601060006154b8565b5090565b601154600090815b80821115614882576000601182815481106147e757634e487b7160e01b600052603260045260246000fd5b60009182526020808320909101546001600160a01b0316808352600f9091526040909120600181015481549293509091111561486d5761483a82826001015483600001546148359190615b83565b615084565b6148449086615b0e565b6001600160a01b0383166000908152600f60205260408120818155600181018290556002015594505b5050808061487a90615b9a565b9150506147bc565b506147b0601160006154b8565b6000610b36826004018360050161521b565b6000610b3682600101836002018460030161529e565b600181015460005b8082111561496c5760008360010182815481106148ec57634e487b7160e01b600052603260045260246000fd5b60009182526020808320909101546001600160a01b0316808352600287018252604080842054600c9093528320805491945091929061492c908490615b83565b90915550506001600160a01b031660009081526002840160209081526040808320839055600386019091528120558061496481615b9a565b9150506148bf565b5050600481015460005b80821115614a485760008360040182815481106149a357634e487b7160e01b600052603260045260246000fd5b60009182526020808320909101546001600160a01b0316808352600587018252604080842054600d909352832080549194509192906149e3908490615b83565b90915550506001600160a01b03166000908152600584016020908152604080832083905560068601909152902080547fffffffffffffffffffffffffffffffffffffffffffffffffffffffffffffff0016905580614a4081615b9a565b915050614976565b50614a576001830160006154b8565b610aa96004830160006154b8565b600080614a71836148a1565b90506000614a7e8461488f565b905060085482614a8e9190615b46565b6064600854614a9d9190615b83565b614aa79083615b46565b1015949350505050565b600080614aef606660009081526020527f422cccb7cea5c0e46f340bb7b21b81debac329f72e31669c20ff0f3a05cc2b5b546001600160a01b031690565b6040517f14189db20000000000000000000000000000000000000000000000000000000081526001600160a01b03878116600483015291909116906314189db29060240160206040518083038186803b158015614b4b57600080fd5b505afa158015614b5f573d6000803e3d6000fd5b505050506040513d601f19601f82011682018060405250810190614b83919061592e565b6001600160a01b03861660009081526020859052604081205491925090614baa8387615b46565b614bb49190615b26565b9050611b3a8682610aad565b6000806000614bcf8585614dd3565b60408051606084811b7fffffffffffffffffffffffffffffffffffffffff0000000000000000000000009081166020808501919091529185901b166034830152825160288184030181526048830190935282519201919091207fff0000000000000000000000000000000000000000000000000000000000000060688301527fc0aee478e3658e2610c5f7a4a2e1777ce9e4f2ac0000000000000000000000006069830152607d8201527fe18a34eb0e04b04f7a0ac29a6e80748dca96319b42c54d679cb821dca90c6303609d820152919350915060bd015b604080517fffffffffffffffffffffffffffffffffffffffffffffffffffffffffffffffe0818403018152919052805160209091012095945050505050565b6000806000614cf68585614dd3565b60408051606084811b7fffffffffffffffffffffffffffffffffffffffff0000000000000000000000009081166020808501919091529185901b166034830152825160288184030181526048830190935282519201919091207fff0000000000000000000000000000000000000000000000000000000000000060688301527f5c69bee701ef814a2b6a3edd4b1652cb9cc5aa6f0000000000000000000000006069830152607d8201527f96e8ac4277198ff8b6f785478aa9a39f403cb768dd02cbee326c3e7da348845f609d820152919350915060bd01614ca8565b600080826001600160a01b0316846001600160a01b03161415614e385760405162461bcd60e51b815260206004820152601260248201527f4964656e746963616c20616464726573732100000000000000000000000000006044820152606401610bb1565b826001600160a01b0316846001600160a01b031610614e58578284614e5b565b83835b90925090506001600160a01b038216614eb65760405162461bcd60e51b815260206004820152600d60248201527f5a65726f206164647265737321000000000000000000000000000000000000006044820152606401610bb1565b9250929050565b600080614ec9836148a1565b90506000614ed68461488f565b905081600954614ee69190615b46565b614ef1826064615b46565b10949350505050565b60007f00000000000000000000000000000000000000000000000000000000000000006001600160a01b0316836001600160a01b03161415614f3d575080610b36565b6001600160a01b038316600090815260026020526040812090614f91606760009081526020527f682158d08466d11c566d5712d4396197fdd67e65be71d83c97ef719ec468867b546001600160a01b031690565b6001600160a01b031663351ae6108560008560030154866002016040518563ffffffff1660e01b8152600401614fca9493929190615a76565b600060405180830381600087803b158015614fe457600080fd5b505af1158015614ff8573d6000803e3d6000fd5b505050506040513d6000823e601f3d9081017fffffffffffffffffffffffffffffffffffffffffffffffffffffffffffffffe016820160405261503e91908101906157bc565b9050600081600183516150519190615b83565b8151811061506f57634e487b7160e01b600052603260045260246000fd5b60200260200101519050809350505050610b36565b60007f00000000000000000000000000000000000000000000000000000000000000006001600160a01b0316836001600160a01b031614156150c7575080610b36565b6001600160a01b03831660009081526002602052604081209061511b606760009081526020527f682158d08466d11c566d5712d4396197fdd67e65be71d83c97ef719ec468867b546001600160a01b031690565b6001600160a01b03166353d7ff9f857fffffffffffffffffffffffffffffffffffffffffffffffffffffffffffffffff8560030154866004016040518563ffffffff1660e01b81526004016151739493929190615a76565b600060405180830381600087803b15801561518d57600080fd5b505af11580156151a1573d6000803e3d6000fd5b505050506040513d6000823e601f3d9081017fffffffffffffffffffffffffffffffffffffffffffffffffffffffffffffffe01682016040526151e791908101906157bc565b90508060008151811061520a57634e487b7160e01b600052603260045260246000fd5b602002602001015192505050610b36565b8154600090815b81811015613f4657600085828154811061524c57634e487b7160e01b600052603260045260246000fd5b60009182526020808320909101546001600160a01b03168083529087905260409091205490915061527e908290615322565b6152889085615b0e565b935050808061529690615b9a565b915050615222565b8254600090815b818110156119755760008682815481106152cf57634e487b7160e01b600052603260045260246000fd5b60009182526020808320909101546001600160a01b03168083529088905260409091205490915061530290829087615330565b61530c9085615b0e565b935050808061531a90615b9a565b9150506152a5565b6000611b3f838360006119fc565b60008061536e606660009081526020527f422cccb7cea5c0e46f340bb7b21b81debac329f72e31669c20ff0f3a05cc2b5b546001600160a01b031690565b6040517f14189db20000000000000000000000000000000000000000000000000000000081526001600160a01b03878116600483015291909116906314189db29060240160206040518083038186803b1580156153ca57600080fd5b505afa1580156153de573d6000803e3d6000fd5b505050506040513d601f19601f82011682018060405250810190615402919061592e565b6001600160a01b038616600090815260208590526040812054919250906154298387615b46565b6154339190615b26565b9050611b3a8682615322565b8280548282559060005260206000209081019282156154ac579160200282015b828111156154ac57825182547fffffffffffffffffffffffff0000000000000000000000000000000000000000166001600160a01b0390911617825560209092019160019091019061545f565b506147b09291506154d9565b50805460008255906000526020600020908101906154d691906154d9565b50565b5b808211156147b057600081556001016154da565b600082601f8301126154fe578081fd5b8135602061551361550e83615aea565b615a9b565b80838252828201915082860187848660051b8901011115615532578586fd5b855b8581101561555957813561554781615bff565b84529284019290840190600101615534565b5090979650505050505050565b80516dffffffffffffffffffffffffffff81168114610dfc57600080fd5b600060208284031215615595578081fd5b8135611b3f81615bff565b6000602082840312156155b1578081fd5b8151611b3f81615bff565b600080604083850312156155ce578081fd5b82356155d981615bff565b915060208301356155e981615bff565b809150509250929050565b600080600080600060a0868803121561560b578081fd5b853561561681615bff565b9450602086013561562681615bff565b9350604086013561563681615bff565b94979396509394606081013594506080013592915050565b600080600060608486031215615662578283fd5b833561566d81615bff565b9250602084013561567d81615bff565b929592945050506040919091013590565b600080600080600060a086880312156156a5578081fd5b85356156b081615bff565b945060208601356156c081615bff565b93506040860135925060608601356156d781615bff565b949793965091946080013592915050565b600080604083850312156156fa578182fd5b823561570581615bff565b946020939093013593505050565b60008060408385031215615725578182fd5b825161573081615bff565b6020939093015192949293505050565b600080600060608486031215615754578081fd5b833561575f81615bff565b925060208401359150604084013561577681615c14565b809150509250925092565b600060208284031215615792578081fd5b813567ffffffffffffffff8111156157a8578182fd5b6157b4848285016154ee565b949350505050565b600060208083850312156157ce578182fd5b825167ffffffffffffffff8111156157e4578283fd5b8301601f810185136157f4578283fd5b805161580261550e82615aea565b80828252848201915084840188868560051b8701011115615821578687fd5b8694505b83851015615843578051835260019490940193918501918501615825565b50979650505050505050565b600060208284031215615860578081fd5b8151611b3f81615c14565b6000806040838503121561587d578182fd5b82359150602083013567ffffffffffffffff81111561589a578182fd5b6158a6858286016154ee565b9150509250929050565b6000806000606084860312156158c4578081fd5b6158cd84615566565b92506158db60208501615566565b9150604084015163ffffffff81168114615776578182fd5b60008060408385031215615905578182fd5b823561ffff81168114615705578283fd5b600060208284031215615927578081fd5b5035919050565b60006020828403121561593f578081fd5b5051919050565b60008060408385031215615958578182fd5b8235915060208301356155e981615bff565b6000806040838503121561597c578182fd5b505080516020909101519092909150565b6000806000606084860312156159a1578081fd5b505081359360208301359350604090920135919050565b6000815480845260208085019450838352808320835b838110156159f35781546001600160a01b0316875295820195600191820191016159ce565b509495945050505050565b604080825283519082018190526000906020906060840190828701845b82811015615a425781516001600160a01b0316845260208401935090840190600101615a1b565b50505083810382850152845180825285830191830190845b8181101561555957835183529284019291840191600101615a5a565b600085825284602083015283604083015260806060830152612e5c60808301846159b8565b604051601f82017fffffffffffffffffffffffffffffffffffffffffffffffffffffffffffffffe016810167ffffffffffffffff81118282101715615ae257615ae2615be9565b604052919050565b600067ffffffffffffffff821115615b0457615b04615be9565b5060051b60200190565b60008219821115615b2157615b21615bd3565b500190565b600082615b4157634e487b7160e01b81526012600452602481fd5b500490565b6000817fffffffffffffffffffffffffffffffffffffffffffffffffffffffffffffffff0483118215151615615b7e57615b7e615bd3565b500290565b600082821015615b9557615b95615bd3565b500390565b60007fffffffffffffffffffffffffffffffffffffffffffffffffffffffffffffffff821415615bcc57615bcc615bd3565b5060010190565b634e487b7160e01b600052601160045260246000fd5b634e487b7160e01b600052604160045260246000fd5b6001600160a01b03811681146154d657600080fd5b80151581146154d657600080fdfea2646970667358221220e4f8f70469fab9c63467bf222ccc3dd03fa79a14e8d6df9d99b2e9d51deb2f6664736f6c63430008030033",
  "linkReferences": {},
  "deployedLinkReferences": {}
}