{
  "_format": "hh-sol-artifact-1",
  "contractName": "CrossMarginTrading",
  "sourceName": "contracts/CrossMarginTrading.sol",
  "abi": [
    {
      "inputs": [
        {
          "internalType": "address",
          "name": "_peg",
          "type": "address"
        },
        {
          "internalType": "address",
          "name": "_roles",
          "type": "address"
        }
      ],
      "stateMutability": "nonpayable",
      "type": "constructor"
    },
    {
      "anonymous": false,
      "inputs": [
        {
          "indexed": false,
          "internalType": "address",
          "name": "account",
          "type": "address"
        }
      ],
      "name": "AccountLiquidated",
      "type": "event"
    },
    {
      "anonymous": false,
      "inputs": [
        {
          "indexed": false,
          "internalType": "uint256",
          "name": "amount",
          "type": "uint256"
        }
      ],
      "name": "LiquidationShortfall",
      "type": "event"
    },
    {
      "inputs": [],
      "name": "MAINTAINER_CUT_PERCENT",
      "outputs": [
        {
          "internalType": "uint256",
          "name": "",
          "type": "uint256"
        }
      ],
      "stateMutability": "view",
      "type": "function"
    },
    {
      "inputs": [],
      "name": "UPDATE_RATE_PERMIL",
      "outputs": [
        {
          "internalType": "uint256",
          "name": "",
          "type": "uint256"
        }
      ],
      "stateMutability": "view",
      "type": "function"
    },
    {
      "inputs": [
        {
          "internalType": "uint256",
          "name": "_priceUpdateWindow",
          "type": "uint256"
        },
        {
          "internalType": "uint256",
          "name": "_updateRatePermil",
          "type": "uint256"
        }
      ],
      "name": "addVolatilitySetting",
      "outputs": [],
      "stateMutability": "nonpayable",
      "type": "function"
    },
    {
      "inputs": [],
      "name": "avgLiquidationPerCall",
      "outputs": [
        {
          "internalType": "uint256",
          "name": "",
          "type": "uint256"
        }
      ],
      "stateMutability": "view",
      "type": "function"
    },
    {
      "inputs": [
        {
          "internalType": "address",
          "name": "trader",
          "type": "address"
        }
      ],
      "name": "canBeLiquidated",
      "outputs": [
        {
          "internalType": "bool",
          "name": "",
          "type": "bool"
        }
      ],
      "stateMutability": "view",
      "type": "function"
    },
    {
      "inputs": [
        {
          "internalType": "uint256",
          "name": "index",
          "type": "uint256"
        }
      ],
      "name": "chooseVolatilitySetting",
      "outputs": [],
      "stateMutability": "nonpayable",
      "type": "function"
    },
    {
      "inputs": [],
      "name": "coolingOffPeriod",
      "outputs": [
        {
          "internalType": "uint256",
          "name": "",
          "type": "uint256"
        }
      ],
      "stateMutability": "view",
      "type": "function"
    },
    {
      "inputs": [
        {
          "internalType": "address[]",
          "name": "liquidatedAccounts",
          "type": "address[]"
        }
      ],
      "name": "disburseLiqStakeAttacks",
      "outputs": [],
      "stateMutability": "nonpayable",
      "type": "function"
    },
    {
      "inputs": [],
      "name": "failureThreshold",
      "outputs": [
        {
          "internalType": "uint256",
          "name": "",
          "type": "uint256"
        }
      ],
      "stateMutability": "view",
      "type": "function"
    },
    {
      "inputs": [
        {
          "internalType": "address",
          "name": "trader",
          "type": "address"
        }
      ],
      "name": "getBorrowAmounts",
      "outputs": [
        {
          "internalType": "address[]",
          "name": "borrowTokens",
          "type": "address[]"
        },
        {
          "internalType": "uint256[]",
          "name": "borrowAmounts",
          "type": "uint256[]"
        }
      ],
      "stateMutability": "view",
      "type": "function"
    },
    {
      "inputs": [
        {
          "internalType": "address",
          "name": "token",
          "type": "address"
        },
        {
          "internalType": "uint256",
          "name": "inAmount",
          "type": "uint256"
        }
      ],
      "name": "getCurrentPriceInPeg",
      "outputs": [
        {
          "internalType": "uint256",
          "name": "",
          "type": "uint256"
        }
      ],
      "stateMutability": "nonpayable",
      "type": "function"
    },
    {
      "inputs": [
        {
          "internalType": "address",
          "name": "trader",
          "type": "address"
        }
      ],
      "name": "getHoldingAmounts",
      "outputs": [
        {
          "internalType": "address[]",
          "name": "holdingTokens",
          "type": "address[]"
        },
        {
          "internalType": "uint256[]",
          "name": "holdingAmounts",
          "type": "uint256[]"
        }
      ],
      "stateMutability": "view",
      "type": "function"
    },
    {
      "inputs": [],
      "name": "leveragePercent",
      "outputs": [
        {
          "internalType": "uint256",
          "name": "",
          "type": "uint256"
        }
      ],
      "stateMutability": "view",
      "type": "function"
    },
    {
      "inputs": [],
      "name": "liqStakeAttackWindow",
      "outputs": [
        {
          "internalType": "uint256",
          "name": "",
          "type": "uint256"
        }
      ],
      "stateMutability": "view",
      "type": "function"
    },
    {
      "inputs": [
        {
          "internalType": "address[]",
          "name": "liquidationCandidates",
          "type": "address[]"
        }
      ],
      "name": "liquidate",
      "outputs": [
        {
          "internalType": "uint256",
          "name": "maintainerCut",
          "type": "uint256"
        }
      ],
      "stateMutability": "nonpayable",
      "type": "function"
    },
    {
      "inputs": [],
      "name": "liquidationThresholdPercent",
      "outputs": [
        {
          "internalType": "uint256",
          "name": "",
          "type": "uint256"
        }
      ],
      "stateMutability": "view",
      "type": "function"
    },
    {
      "inputs": [
        {
          "internalType": "uint256",
          "name": "",
          "type": "uint256"
        }
      ],
      "name": "mainCharacterCache",
      "outputs": [
        {
          "internalType": "address",
          "name": "",
          "type": "address"
        }
      ],
      "stateMutability": "view",
      "type": "function"
    },
    {
      "inputs": [
        {
          "internalType": "address",
          "name": "",
          "type": "address"
        }
      ],
      "name": "maintenanceFailures",
      "outputs": [
        {
          "internalType": "uint256",
          "name": "",
          "type": "uint256"
        }
      ],
      "stateMutability": "view",
      "type": "function"
    },
    {
      "inputs": [],
      "name": "peg",
      "outputs": [
        {
          "internalType": "address",
          "name": "",
          "type": "address"
        }
      ],
      "stateMutability": "view",
      "type": "function"
    },
    {
      "inputs": [],
      "name": "priceUpdateWindow",
      "outputs": [
        {
          "internalType": "uint256",
          "name": "",
          "type": "uint256"
        }
      ],
      "stateMutability": "view",
      "type": "function"
    },
    {
      "inputs": [
        {
          "internalType": "address",
          "name": "trader",
          "type": "address"
        },
        {
          "internalType": "address",
          "name": "borrowToken",
          "type": "address"
        },
        {
          "internalType": "uint256",
          "name": "borrowAmount",
          "type": "uint256"
        }
      ],
      "name": "registerBorrow",
      "outputs": [],
      "stateMutability": "nonpayable",
      "type": "function"
    },
    {
      "inputs": [
        {
          "internalType": "address",
          "name": "trader",
          "type": "address"
        },
        {
          "internalType": "address",
          "name": "token",
          "type": "address"
        },
        {
          "internalType": "uint256",
          "name": "depositAmount",
          "type": "uint256"
        }
      ],
      "name": "registerDeposit",
      "outputs": [
        {
          "internalType": "uint256",
          "name": "extinguishableDebt",
          "type": "uint256"
        }
      ],
      "stateMutability": "nonpayable",
      "type": "function"
    },
    {
      "inputs": [
        {
          "internalType": "address",
          "name": "trader",
          "type": "address"
        }
      ],
      "name": "registerLiquidation",
      "outputs": [],
      "stateMutability": "nonpayable",
      "type": "function"
    },
    {
      "inputs": [
        {
          "internalType": "address",
          "name": "trader",
          "type": "address"
        },
        {
          "internalType": "address",
          "name": "depositToken",
          "type": "address"
        },
        {
          "internalType": "uint256",
          "name": "depositAmount",
          "type": "uint256"
        },
        {
          "internalType": "address",
          "name": "borrowToken",
          "type": "address"
        },
        {
          "internalType": "uint256",
          "name": "withdrawAmount",
          "type": "uint256"
        }
      ],
      "name": "registerOvercollateralizedBorrow",
      "outputs": [],
      "stateMutability": "nonpayable",
      "type": "function"
    },
    {
      "inputs": [
        {
          "internalType": "address",
          "name": "trader",
          "type": "address"
        },
        {
          "internalType": "address",
          "name": "tokenFrom",
          "type": "address"
        },
        {
          "internalType": "address",
          "name": "tokenTo",
          "type": "address"
        },
        {
          "internalType": "uint256",
          "name": "inAmount",
          "type": "uint256"
        },
        {
          "internalType": "uint256",
          "name": "outAmount",
          "type": "uint256"
        }
      ],
      "name": "registerTradeAndBorrow",
      "outputs": [
        {
          "internalType": "uint256",
          "name": "extinguishableDebt",
          "type": "uint256"
        },
        {
          "internalType": "uint256",
          "name": "borrowAmount",
          "type": "uint256"
        }
      ],
      "stateMutability": "nonpayable",
      "type": "function"
    },
    {
      "inputs": [
        {
          "internalType": "address",
          "name": "trader",
          "type": "address"
        },
        {
          "internalType": "address",
          "name": "withdrawToken",
          "type": "address"
        },
        {
          "internalType": "uint256",
          "name": "withdrawAmount",
          "type": "uint256"
        }
      ],
      "name": "registerWithdrawal",
      "outputs": [],
      "stateMutability": "nonpayable",
      "type": "function"
    },
    {
      "inputs": [
        {
          "internalType": "address",
          "name": "",
          "type": "address"
        },
        {
          "internalType": "uint256",
          "name": "",
          "type": "uint256"
        }
      ],
      "name": "roleCache",
      "outputs": [
        {
          "internalType": "bool",
          "name": "",
          "type": "bool"
        }
      ],
      "stateMutability": "view",
      "type": "function"
    },
    {
      "inputs": [],
      "name": "roles",
      "outputs": [
        {
          "internalType": "contract Roles",
          "name": "",
          "type": "address"
        }
      ],
      "stateMutability": "view",
      "type": "function"
    },
    {
      "inputs": [
        {
          "internalType": "uint256",
          "name": "blocks",
          "type": "uint256"
        }
      ],
      "name": "setCoolingOffPeriod",
      "outputs": [],
      "stateMutability": "nonpayable",
      "type": "function"
    },
    {
      "inputs": [
        {
          "internalType": "uint256",
          "name": "threshFactor",
          "type": "uint256"
        }
      ],
      "name": "setFailureThreshold",
      "outputs": [],
      "stateMutability": "nonpayable",
      "type": "function"
    },
    {
      "inputs": [
        {
          "internalType": "uint256",
          "name": "_leveragePercent",
          "type": "uint256"
        }
      ],
      "name": "setLeveragePercent",
      "outputs": [],
      "stateMutability": "nonpayable",
      "type": "function"
    },
    {
      "inputs": [
        {
          "internalType": "uint256",
          "name": "window",
          "type": "uint256"
        }
      ],
      "name": "setLiqStakeAttackWindow",
      "outputs": [],
      "stateMutability": "nonpayable",
      "type": "function"
    },
    {
      "inputs": [
        {
          "internalType": "bytes32",
          "name": "amms",
          "type": "bytes32"
        },
        {
          "internalType": "address[]",
          "name": "tokens",
          "type": "address[]"
        }
      ],
      "name": "setLiquidationPath",
      "outputs": [],
      "stateMutability": "nonpayable",
      "type": "function"
    },
    {
      "inputs": [
        {
          "internalType": "uint256",
          "name": "threshold",
          "type": "uint256"
        }
      ],
      "name": "setLiquidationThresholdPercent",
      "outputs": [],
      "stateMutability": "nonpayable",
      "type": "function"
    },
    {
      "inputs": [
        {
          "internalType": "uint256",
          "name": "cut",
          "type": "uint256"
        }
      ],
      "name": "setMaintainerCutPercent",
      "outputs": [],
      "stateMutability": "nonpayable",
      "type": "function"
    },
    {
      "inputs": [
        {
          "internalType": "uint16",
          "name": "window",
          "type": "uint16"
        }
      ],
      "name": "setPriceUpdateWindow",
      "outputs": [],
      "stateMutability": "nonpayable",
      "type": "function"
    },
    {
      "inputs": [
        {
          "internalType": "address",
          "name": "token",
          "type": "address"
        },
        {
          "internalType": "uint256",
          "name": "cap",
          "type": "uint256"
        }
      ],
      "name": "setTokenCap",
      "outputs": [],
      "stateMutability": "nonpayable",
      "type": "function"
    },
    {
      "inputs": [
        {
          "internalType": "uint256",
          "name": "rate",
          "type": "uint256"
        }
      ],
      "name": "setUpdateRate",
      "outputs": [],
      "stateMutability": "nonpayable",
      "type": "function"
    },
    {
      "inputs": [
        {
          "internalType": "address",
          "name": "",
          "type": "address"
        }
      ],
      "name": "stakeAttackRecords",
      "outputs": [
        {
          "internalType": "uint256",
          "name": "blockNum",
          "type": "uint256"
        },
        {
          "internalType": "address",
          "name": "loser",
          "type": "address"
        },
        {
          "internalType": "uint256",
          "name": "amount",
          "type": "uint256"
        },
        {
          "internalType": "address",
          "name": "stakeAttacker",
          "type": "address"
        }
      ],
      "stateMutability": "view",
      "type": "function"
    },
    {
      "inputs": [
        {
          "internalType": "address",
          "name": "",
          "type": "address"
        }
      ],
      "name": "tokenCaps",
      "outputs": [
        {
          "internalType": "uint256",
          "name": "",
          "type": "uint256"
        }
      ],
      "stateMutability": "view",
      "type": "function"
    },
    {
      "inputs": [
        {
          "internalType": "address",
          "name": "",
          "type": "address"
        }
      ],
      "name": "tokenPrices",
      "outputs": [
        {
          "internalType": "uint256",
          "name": "blockLastUpdated",
          "type": "uint256"
        },
        {
          "internalType": "uint256",
          "name": "tokenPerRefAmount",
          "type": "uint256"
        },
        {
          "internalType": "bytes32",
          "name": "amms",
          "type": "bytes32"
        },
        {
          "internalType": "bytes32",
          "name": "inverseAmms",
          "type": "bytes32"
        }
      ],
      "stateMutability": "view",
      "type": "function"
    },
    {
      "inputs": [
        {
          "internalType": "address",
          "name": "",
          "type": "address"
        }
      ],
      "name": "totalLong",
      "outputs": [
        {
          "internalType": "uint256",
          "name": "",
          "type": "uint256"
        }
      ],
      "stateMutability": "view",
      "type": "function"
    },
    {
      "inputs": [
        {
          "internalType": "address",
          "name": "",
          "type": "address"
        }
      ],
      "name": "totalShort",
      "outputs": [
        {
          "internalType": "uint256",
          "name": "",
          "type": "uint256"
        }
      ],
      "stateMutability": "view",
      "type": "function"
    },
    {
      "inputs": [
        {
          "internalType": "uint256",
          "name": "role",
          "type": "uint256"
        }
      ],
      "name": "updateMainCharacterCache",
      "outputs": [],
      "stateMutability": "nonpayable",
      "type": "function"
    },
    {
      "inputs": [
        {
          "internalType": "uint256",
          "name": "role",
          "type": "uint256"
        },
        {
          "internalType": "address",
          "name": "contr",
          "type": "address"
        }
      ],
      "name": "updateRoleCache",
      "outputs": [],
      "stateMutability": "nonpayable",
      "type": "function"
    },
    {
      "inputs": [
        {
          "internalType": "address",
          "name": "token",
          "type": "address"
        },
        {
          "internalType": "uint256",
          "name": "inAmount",
          "type": "uint256"
        }
      ],
      "name": "viewCurrentPriceInPeg",
      "outputs": [
        {
          "internalType": "uint256",
          "name": "",
          "type": "uint256"
        }
      ],
      "stateMutability": "view",
      "type": "function"
    },
    {
      "inputs": [
        {
          "internalType": "address",
          "name": "trader",
          "type": "address"
        }
      ],
      "name": "viewHoldingsInPeg",
      "outputs": [
        {
          "internalType": "uint256",
          "name": "",
          "type": "uint256"
        }
      ],
      "stateMutability": "view",
      "type": "function"
    },
    {
      "inputs": [
        {
          "internalType": "address",
          "name": "trader",
          "type": "address"
        }
      ],
      "name": "viewLoanInPeg",
      "outputs": [
        {
          "internalType": "uint256",
          "name": "amount",
          "type": "uint256"
        }
      ],
      "stateMutability": "view",
      "type": "function"
    },
    {
      "inputs": [
        {
          "internalType": "uint256",
          "name": "",
          "type": "uint256"
        }
      ],
      "name": "volatilitySettings",
      "outputs": [
        {
          "internalType": "uint256",
          "name": "priceUpdateWindow",
          "type": "uint256"
        },
        {
          "internalType": "uint256",
          "name": "updateRatePermil",
          "type": "uint256"
        }
      ],
      "stateMutability": "view",
      "type": "function"
    }
  ],
  "bytecode": "0x60c06040526014600355603260045561012c60065560736007556014600c55600a60135560056014556005601555600a6016553480156200003f57600080fd5b50604051620060503803806200605083398101604081905262000062916200010a565b81816001600160a01b038116620000ca5760405162461bcd60e51b815260206004820152602260248201527f506c656173652070726f766964652076616c696420726f6c6573206164647265604482015261737360f01b606482015260840160405180910390fd5b6001600160601b0319606091821b811660805291901b1660a05250620001419050565b80516001600160a01b03811681146200010557600080fd5b919050565b600080604083850312156200011d578182fd5b6200012883620000ed565b91506200013860208401620000ed565b90509250929050565b60805160601c60a05160601c615e8f620001c1600039600081816103cf015281816109f501528181610ecb0152818161185501528181612020015281816121c701528181612cb201528181614f3601526150c00152600081816104e3015281816108310152818161166c01528181612ebe0152612f560152615e8f6000f3fe608060405234801561001057600080fd5b506004361061032b5760003560e01c806352a664d9116101b2578063badb5048116100f9578063d510c535116100a2578063e0f3871f1161007c578063e0f3871f14610793578063e9c3f77d146107b3578063f04c6865146107dc578063f99fd97c146107ef5761032b565b8063d510c5351461075a578063d8039c261461076d578063db2d904d146107805761032b565b8063c73afac2116100d3578063c73afac214610721578063c74303aa14610734578063d0eb6653146107475761032b565b8063badb504814610681578063bc44dcbc146106ee578063bc70c6661461070e5761032b565b8063a00891591161015b578063a53ac0d911610135578063a53ac0d914610645578063a75697a51461064e578063a985994b1461066e5761032b565b8063a00891591461060c578063a17ab5271461061f578063a3718919146106325761032b565b80636585b5a61161018c5780636585b5a6146105cc5780637a1a04df146105d55780637d100e84146106035761032b565b806352a664d91461059d578063538edb29146105b057806354554b58146105b95761032b565b80632febaa7411610276578063447d52ba1161021f5780634aa4aca3116101f95780634aa4aca3146105785780634cb7766214610581578063519bda85146105945761032b565b8063447d52ba1461052f57806347788cd014610542578063498d55eb146105655761032b565b8063392f5f6411610250578063392f5f64146104de5780633ed456fa14610505578063409fdb721461050e5761032b565b80632febaa74146104a4578063320d2fa0146104ad5780633500aa0b146104b65761032b565b80631d84cc18116102d8578063204120bc116102b2578063204120bc1461041c57806320c27126146104715780632b23f857146104915761032b565b80631d84cc18146103b75780631f1cb62b146103ca5780631f692a64146104095761032b565b806310d584341161030957806310d584341461037e57806316317e7e146103915780631d47e4a3146103a45761032b565b8063071060a61461033057806307c2017514610345578063093a483a14610358575b600080fd5b61034361033e3660046159f3565b610802565b005b610343610353366004615850565b6108f9565b61036b6103663660046157f8565b6109f1565b6040519081526020015b60405180910390f35b61034361038c3660046159f3565b610a90565b61034361039f3660046159f3565b610b2d565b6103436103b23660046157f8565b610bc5565b6103436103c536600461579e565b610cc0565b6103f17f000000000000000000000000000000000000000000000000000000000000000081565b6040516001600160a01b039091168152602001610375565b61036b6104173660046156cc565b610d88565b61045161042a3660046156cc565b60026020526000908152604090208054600182015460038301546005909301549192909184565b604080519485526020850193909352918301526060820152608001610375565b61036b61047f3660046156cc565b600b6020526000908152604090205481565b61034361049f36600461593e565b610dbd565b61036b600c5481565b61036b60075481565b6104c96104c4366004615704565b611176565b60408051928352602083019190915201610375565b6103f17f000000000000000000000000000000000000000000000000000000000000000081565b61036b60035481565b61052161051c3660046156cc565b6114b6565b604051610375929190615adc565b61034361053d366004615a23565b61162d565b6105556105503660046156cc565b61173c565b6040519015158152602001610375565b61034361057336600461575e565b6117a3565b61036b60145481565b61036b61058f3660046157f8565b611851565b61036b60045481565b61036b6105ab36600461575e565b6118e6565b61036b60155481565b6103436105c73660046159f3565b611a21565b61036b60135481565b6105556105e33660046157f8565b600160209081526000928352604080842090915290825290205460ff1681565b61036b60165481565b61034361061a3660046159d1565b611ab9565b61036b61062d3660046156cc565b611b55565b6103436106403660046159f3565b611b7d565b61036b60065481565b61036b61065c3660046156cc565b60116020526000908152604090205481565b61036b61067c366004615850565b611c15565b6106c361068f3660046156cc565b601260205260009081526040902080546001820154600283015460039093015491926001600160a01b039182169290911684565b604080519485526001600160a01b039384166020860152840191909152166060820152608001610375565b61036b6106fc3660046156cc565b600a6020526000908152604090205481565b6104c961071c3660046159f3565b61239e565b61034361072f3660046159f3565b6123cc565b6103436107423660046159f3565b612464565b61034361075536600461575e565b6124fc565b6105216107683660046156cc565b6125a4565b61034361077b366004615a52565b6127e8565b61034361078e3660046156cc565b6128f3565b61036b6107a13660046156cc565b60096020526000908152604090205481565b6103f16107c13660046159f3565b6000602081905290815260409020546001600160a01b031681565b6103436107ea3660046159f3565b612a09565b6103436107fd3660046159f3565b612b5f565b6040517fb4ed0b6d000000000000000000000000000000000000000000000000000000008152600481018290527f00000000000000000000000000000000000000000000000000000000000000006001600160a01b03169063b4ed0b6d9060240160206040518083038186803b15801561087b57600080fd5b505afa15801561088f573d6000803e3d6000fd5b505050506040513d601f19601f820116820180604052508101906108b391906156e8565b60009182526020829052604090912080547fffffffffffffffffffffffff0000000000000000000000000000000000000000166001600160a01b03909216919091179055565b60005b80825111156109ed57600082828151811061092757634e487b7160e01b600052603260045260246000fd5b60200260200101519050600060126000836001600160a01b03166001600160a01b031681526020019081526020016000209050601454816000015461096c9190615bec565b4311156109d85761097c81612bf7565b506001600160a01b03821660009081526012602052604081208181556001810180547fffffffffffffffffffffffff00000000000000000000000000000000000000009081169091556002820192909255600301805490911690555b505080806109e590615ddf565b9150506108fc565b5050565b60007f00000000000000000000000000000000000000000000000000000000000000006001600160a01b0316836001600160a01b03161415610a34575080610a8a565b6001600160a01b0383166000908152600260205260409020600180820154610a5b91615bec565b610a676006600a615c6a565b610a72906064615d56565b610a7c9085615d56565b610a869190615c04565b9150505b92915050565b33610a99612eba565b6001600160a01b03161480610abd575033610ab2612f52565b6001600160a01b0316145b610b28576040517f08c379a000000000000000000000000000000000000000000000000000000000815260206004820152601e60248201527f526f6c65733a2063616c6c6572206973206e6f7420746865206f776e6572000060448201526064015b60405180910390fd5b601655565b33610b36612eba565b6001600160a01b03161480610b5a575033610b4f612f52565b6001600160a01b0316145b610bc0576040517f08c379a000000000000000000000000000000000000000000000000000000000815260206004820152601e60248201527f526f6c65733a2063616c6c6572206973206e6f7420746865206f776e657200006044820152606401610b1f565b600755565b33610bce612eba565b6001600160a01b03161480610bf2575033610be7612f52565b6001600160a01b0316145b80610c1857503360009081526001602090815260408083206009845290915290205460ff165b610ca4576040517f08c379a000000000000000000000000000000000000000000000000000000000815260206004820152603960248201527f43616c6c6572206973206e6f7420746865206f776e65722c206578656375746f60448201527f72206f7220617574686f72697a656420616374697661746f72000000000000006064820152608401610b1f565b6001600160a01b03909116600090815260096020526040902055565b3360009081526001602090815260408083206004845290915290205460ff16610d45576040517f08c379a000000000000000000000000000000000000000000000000000000000815260206004820152601d60248201527f43616c6c696e6720636f6e74722e206e6f7420617574686f72697a65640000006044820152606401610b1f565b6001600160a01b0385166000908152600860205260409020610d68818686612fc3565b610d73818484613088565b610d7e8184846131a9565b4390555050505050565b6001600160a01b0381166000908152600860205260408120610db46001820160028301600384016132fd565b9150505b919050565b33610dc6612eba565b6001600160a01b03161480610dea575033610ddf612f52565b6001600160a01b0316145b80610e1057503360009081526001602090815260408083206009845290915290205460ff165b610e9c576040517f08c379a000000000000000000000000000000000000000000000000000000000815260206004820152603960248201527f43616c6c6572206973206e6f7420746865206f776e65722c206578656375746f60448201527f72206f7220617574686f72697a656420616374697661746f72000000000000006064820152608401610b1f565b600081600081518110610ebf57634e487b7160e01b600052603260045260246000fd5b602002602001015190507f00000000000000000000000000000000000000000000000000000000000000006001600160a01b0316816001600160a01b031614611171576001600160a01b03811660009081526002602081815260409092206003810186905584519092610f389284019190860190615587565b50825167ffffffffffffffff811115610f6157634e487b7160e01b600052604160045260246000fd5b604051908082528060200260200182016040528015610f8a578160200160208202803683370190505b508051610fa1916004840191602090910190615587565b506000805b8060018651610fb59190615d93565b11156110415760008160028751610fcc9190615d93565b610fd69190615d93565b610fe1906008615d56565b87836020811061100157634e487b7160e01b600052603260045260246000fd5b1a60f81b7fff0000000000000000000000000000000000000000000000000000000000000016901c9290921791508061103981615ddf565b915050610fa6565b506005820181905560005b808551111561110b578460018287516110659190615d93565b61106f9190615d93565b8151811061108d57634e487b7160e01b600052603260045260246000fd5b60200260200101518360040182815481106110b857634e487b7160e01b600052603260045260246000fd5b600091825260209091200180547fffffffffffffffffffffffff0000000000000000000000000000000000000000166001600160a01b03929092169190911790558061110381615ddf565b91505061104c565b50600061112f61111d6006600a615c6a565b611128906064615d56565b8787613381565b50905060008160008151811061115557634e487b7160e01b600052603260045260246000fd5b6020026020010151905061116c84826103e86136b3565b505050505b505050565b33600090815260016020908152604080832060048452909152812054819060ff166111fd576040517f08c379a000000000000000000000000000000000000000000000000000000000815260206004820181905260248201527f43616c6c696e6720636f6e74722e206e6f7420616e20617574686f72697a65646044820152606401610b1f565b6001600160a01b0380881660009081526008602090815260408083209389168352600284019091529020541561128e576001600160a01b03861660009081526002820160205260409020546112539085906136fc565b9250611260818785613714565b6001600160a01b0386166000908152600a602052604081208054859290611288908490615d93565b90915550505b6001600160a01b0387166000908152600b6020526040812080548792906112b6908490615d93565b909155506112c690508385615d93565b6001600160a01b0387166000908152600b6020526040812080549091906112ee908490615bec565b90915550506001600160a01b0386166000908152600b60209081526040808320546009909252909120541015611380576040517f08c379a000000000000000000000000000000000000000000000000000000000815260206004820152601860248201527f4578636565647320676c6f62616c20746f6b656e2063617000000000000000006044820152606401610b1f565b6001600160a01b0387166000908152600582016020526040902054859081111561149457506001600160a01b03871660009081526005820160205260409020546113ca8187615d93565b6001600160a01b0389166000908152600a60205260408120805492955085929091906113f7908490615bec565b90915550506001600160a01b0388166000908152600a60209081526040808320546009909252909120541015611489576040517f08c379a000000000000000000000000000000000000000000000000000000000815260206004820152601860248201527f4578636565647320676c6f62616c20746f6b656e2063617000000000000000006044820152606401610b1f565b611494828985613a19565b6114aa828989846114a5898b615d93565b613cde565b50509550959350505050565b6001600160a01b03811660009081526008602090815260409182902060048101805484518185028101850190955280855260609485949092919083018282801561152957602002820191906000526020600020905b81546001600160a01b0316815260019091019060200180831161150b575b5050506004840154929550505067ffffffffffffffff81111561155c57634e487b7160e01b600052604160045260246000fd5b604051908082528060200260200182016040528015611585578160200160208202803683370190505b50915060005b80845111156116265760008482815181106115b657634e487b7160e01b600052603260045260246000fd5b60200260200101519050826005016000826001600160a01b03166001600160a01b031681526020019081526020016000205484838151811061160857634e487b7160e01b600052603260045260246000fd5b6020908102919091010152508061161e81615ddf565b91505061158b565b5050915091565b6040517f93552a3d000000000000000000000000000000000000000000000000000000008152600481018390526001600160a01b0382811660248301527f000000000000000000000000000000000000000000000000000000000000000016906393552a3d9060440160206040518083038186803b1580156116ae57600080fd5b505afa1580156116c2573d6000803e3d6000fd5b505050506040513d601f19601f820116820180604052508101906116e6919061591e565b6001600160a01b039190911660009081526001602090815260408083209483529390529190912080547fffffffffffffffffffffffffffffffffffffffffffffffffffffffffffffff0016911515919091179055565b6001600160a01b0381166000908152600860205260408120816117696001830160028401600385016132fd565b9050600061177d8360040184600501613d31565b90508160075461178d9190615d56565b611798826064615d56565b101595945050505050565b3360009081526001602090815260408083206004845290915290205460ff16611828576040517f08c379a000000000000000000000000000000000000000000000000000000000815260206004820152601d60248201527f43616c6c696e6720636f6e74722e206e6f7420617574686f72697a65640000006044820152606401610b1f565b6001600160a01b038316600090815260086020526040902061184b818484613088565b50505050565b60007f00000000000000000000000000000000000000000000000000000000000000006001600160a01b0316836001600160a01b03161415611894575080610a8a565b6001600160a01b038316600090815260026020526040902060035481546118bb9043615d93565b11806118c957506001810154155b156118d7576118d781613dbc565b600180820154610a5b91615bec565b3360009081526001602090815260408083206004845290915281205460ff1661196b576040517f08c379a000000000000000000000000000000000000000000000000000000000815260206004820152601d60248201527f43616c6c696e6720636f6e74722e206e6f7420617574686f72697a65640000006044820152606401610b1f565b6001600160a01b038085166000908152600860209081526040808320438155938716835260028401909152902054156119ff576001600160a01b03841660009081526002820160205260409020546119c49084906136fc565b91506119d1818584613714565b6001600160a01b0384166000908152600a6020526040812080548492906119f9908490615d93565b90915550505b6000611a0b8385615d93565b9050611a18828683612fc3565b50509392505050565b33611a2a612eba565b6001600160a01b03161480611a4e575033611a43612f52565b6001600160a01b0316145b611ab4576040517f08c379a000000000000000000000000000000000000000000000000000000000815260206004820152601e60248201527f526f6c65733a2063616c6c6572206973206e6f7420746865206f776e657200006044820152606401610b1f565b600455565b33611ac2612eba565b6001600160a01b03161480611ae6575033611adb612f52565b6001600160a01b0316145b611b4c576040517f08c379a000000000000000000000000000000000000000000000000000000000815260206004820152601e60248201527f526f6c65733a2063616c6c6572206973206e6f7420746865206f776e657200006044820152606401610b1f565b61ffff16600355565b6001600160a01b0381166000908152600860205260408120610db46004820160058301613d31565b33611b86612eba565b6001600160a01b03161480611baa575033611b9f612f52565b6001600160a01b0316145b611c10576040517f08c379a000000000000000000000000000000000000000000000000000000000815260206004820152601e60248201527f526f6c65733a2063616c6c6572206973206e6f7420746865206f776e657200006044820152606401610b1f565b601455565b6000333214611ca6576040517f08c379a000000000000000000000000000000000000000000000000000000000815260206004820152603a60248201527f43757272656e746c79206e6f20696e7465726d656469617269657320616c6c6f60448201527f77656420666f7220746869732066756e6374696f6e2063616c6c0000000000006064820152608401610b1f565b6000611ce3606b60009081526020527f2dc7a963308417ad45132da282495eb244f38a7db03940a4d808be607669c622546001600160a01b031690565b6040517f7b23cbce0000000000000000000000000000000000000000000000000000000081523360048201526001600160a01b039190911690637b23cbce90602401602060405180830381600087803b158015611d3f57600080fd5b505af1158015611d53573d6000803e3d6000fd5b505050506040513d601f19601f82011682018060405250810190611d77919061591e565b905060008180611d8a5750611d8a613e77565b9050611d968483613f57565b92506000611da26144de565b90506000611dae6145c0565b9050600060646015546064611dc39190615bec565b611dcd9084615d56565b611dd79190615c04565b905082811115611e1e577f3555ffae7677eb42103f0b9e11b61c758f452fae446684dec7a363dd38ab58fc611e0c8483615d93565b60405190815260200160405180910390a15b600084611ecf57606b60009081526020527f2dc7a963308417ad45132da282495eb244f38a7db03940a4d808be607669c622546001600160a01b03166001600160a01b0316631a38de1d6040518163ffffffff1660e01b8152600401602060405180830381600087803b158015611e9457600080fd5b505af1158015611ea8573d6000803e3d6000fd5b505050506040513d601f19601f82011682018060405250810190611ecc91906156e8565b90505b60005b60105481101561213257600060108281548110611eff57634e487b7160e01b600052603260045260246000fd5b60009182526020808320909101546001600160a01b031680835260089091526040822090925090611f2f8261469b565b90506000611f3c836146ad565b90506000606460155483611f509190615d56565b611f5a9190615c04565b9050611f66818e615bec565b9c508a611fd3576001600160a01b03858116600090815260126020526040902060028101839055600381018054337fffffffffffffffffffffffff000000000000000000000000000000000000000091821617909155438255600190910180549091169189169190911790555b611fdd8282615bec565b8311156120d557606560009081526020527f4a7203f705e51df4a56139a9b86b4a0970bed7ab7a3446eaffe2289989c1645c546001600160a01b031663d9caed127f0000000000000000000000000000000000000000000000000000000000000000878461204b8789615d93565b6120559190615d93565b6040517fffffffff0000000000000000000000000000000000000000000000000000000060e086901b1681526001600160a01b0393841660048201529290911660248301526044820152606401600060405180830381600087803b1580156120bc57600080fd5b505af11580156120d0573d6000803e3d6000fd5b505050505b6040516001600160a01b03861681527f1d2cc4c8661a04a00b4e727426220501b36d85bb330947642c2d4320667028cf9060200160405180910390a161211a846146c3565b5050505050808061212a90615ddf565b915050611ed2565b5060648760135460636121459190615d56565b61214f9190615bec565b6121599190615c04565b601355841561223b57606560009081526020527f4a7203f705e51df4a56139a9b86b4a0970bed7ab7a3446eaffe2289989c1645c546001600160a01b03166040517fd9caed120000000000000000000000000000000000000000000000000000000081526001600160a01b037f000000000000000000000000000000000000000000000000000000000000000081166004830152336024830152604482018a9052919091169063d9caed1290606401600060405180830381600087803b15801561222257600080fd5b505af1158015612236573d6000803e3d6000fd5b505050505b6000612278606b60009081526020527f2dc7a963308417ad45132da282495eb244f38a7db03940a4d808be607669c622546001600160a01b031690565b6001600160a01b0316631a38de1d6040518163ffffffff1660e01b8152600401602060405180830381600087803b1580156122b257600080fd5b505af11580156122c6573d6000803e3d6000fd5b505050506040513d601f19601f820116820180604052508101906122ea91906156e8565b90508615612364576001600160a01b038116600090815260116020526040902054881015612345576001600160a01b038116600090815260116020526040812080548a929061233a908490615d93565b9091555061235f9050565b6001600160a01b0381166000908152601160205260408120555b612392565b6001600160a01b038116600090815260116020526040812080548a929061238c908490615bec565b90915550505b50505050505050919050565b600581815481106123ae57600080fd5b60009182526020909120600290910201805460019091015490915082565b336123d5612eba565b6001600160a01b031614806123f95750336123ee612f52565b6001600160a01b0316145b61245f576040517f08c379a000000000000000000000000000000000000000000000000000000000815260206004820152601e60248201527f526f6c65733a2063616c6c6572206973206e6f7420746865206f776e657200006044820152606401610b1f565b601555565b3361246d612eba565b6001600160a01b03161480612491575033612486612f52565b6001600160a01b0316145b6124f7576040517f08c379a000000000000000000000000000000000000000000000000000000000815260206004820152601e60248201527f526f6c65733a2063616c6c6572206973206e6f7420746865206f776e657200006044820152606401610b1f565b600655565b3360009081526001602090815260408083206004845290915290205460ff16612581576040517f08c379a000000000000000000000000000000000000000000000000000000000815260206004820152601c60248201527f43616c6c696e6720636f6e7472206e6f7420617574686f72697a6564000000006044820152606401610b1f565b6001600160a01b038316600090815260086020526040902061184b8184846131a9565b6001600160a01b03811660009081526008602090815260409182902060018101805484518185028101850190955280855260609485949092919083018282801561261757602002820191906000526020600020905b81546001600160a01b031681526001909101906020018083116125f9575b5050506001840154929550505067ffffffffffffffff81111561264a57634e487b7160e01b600052604160045260246000fd5b604051908082528060200260200182016040528015612673578160200160208202803683370190505b50915060005b80845111156116265760008482815181106126a457634e487b7160e01b600052603260045260246000fd5b602002602001015190506126e9606660009081526020527f422cccb7cea5c0e46f340bb7b21b81debac329f72e31669c20ff0f3a05cc2b5b546001600160a01b031690565b6001600160a01b03828116600081815260028701602090815260408083205460038a01909252918290205491517f76668b670000000000000000000000000000000000000000000000000000000081526004810191909152602481019290925260448201529116906376668b679060640160206040518083038186803b15801561277257600080fd5b505afa158015612786573d6000803e3d6000fd5b505050506040513d601f19601f820116820180604052508101906127aa9190615a0b565b8483815181106127ca57634e487b7160e01b600052603260045260246000fd5b602090810291909101015250806127e081615ddf565b915050612679565b336127f1612eba565b6001600160a01b0316148061281557503361280a612f52565b6001600160a01b0316145b61287b576040517f08c379a000000000000000000000000000000000000000000000000000000000815260206004820152601e60248201527f526f6c65733a2063616c6c6572206973206e6f7420746865206f776e657200006044820152606401610b1f565b60408051808201909152918252602082019081526005805460018101825560009190915291517f036b6384b5eca791c62761152d0c79bb0604c104a5fb6f4eb0703f3154bb3db0600290930292830155517f036b6384b5eca791c62761152d0c79bb0604c104a5fb6f4eb0703f3154bb3db190910155565b3360009081526001602090815260408083206004845290915290205460ff16612978576040517f08c379a000000000000000000000000000000000000000000000000000000000815260206004820152601d60248201527f43616c6c696e6720636f6e74722e206e6f7420617574686f72697a65640000006044820152606401610b1f565b6001600160a01b0381166000908152600860205260409020612999816146ad565b15612a00576040517f08c379a000000000000000000000000000000000000000000000000000000000815260206004820152601a60248201527f43616e2774206c69717569646174653a20626f72726f77696e670000000000006044820152606401610b1f565b6109ed816146c3565b33612a12612eba565b6001600160a01b03161480612a36575033612a2b612f52565b6001600160a01b0316145b80612a84575033612a796103e960009081526020527f236f539bf6e1b3b15a335e3cd157d360bc4be88c071635c19ba8a82b4f665e9f546001600160a01b031690565b6001600160a01b0316145b612b10576040517f08c379a000000000000000000000000000000000000000000000000000000000815260206004820152603860248201527f43616c6c6572206973206e6f7420746865206f776e65722c206578656375746f60448201527f72206f7220617574686f72697a65642064697361626c657200000000000000006064820152608401610b1f565b600060058281548110612b3357634e487b7160e01b600052603260045260246000fd5b906000526020600020906002020190506000816001015411156109ed5760018101546004555460035550565b33612b68612eba565b6001600160a01b03161480612b8c575033612b81612f52565b6001600160a01b0316145b612bf2576040517f08c379a000000000000000000000000000000000000000000000000000000000815260206004820152601e60248201527f526f6c65733a2063616c6c6572206973206e6f7420746865206f776e657200006044820152606401610b1f565b600c55565b600281015460009015610db8578154600090612c1f90612c179043615d93565b6014546136fc565b90506000601454828560020154612c369190615d56565b612c409190615c04565b9050612c7d606560009081526020527f4a7203f705e51df4a56139a9b86b4a0970bed7ab7a3446eaffe2289989c1645c546001600160a01b031690565b60038501546040517fd9caed120000000000000000000000000000000000000000000000000000000081526001600160a01b037f00000000000000000000000000000000000000000000000000000000000000008116600483015291821660248201526044810184905291169063d9caed1290606401600060405180830381600087803b158015612d0d57600080fd5b505af1158015612d21573d6000803e3d6000fd5b505050506000612d62606b60009081526020527f2dc7a963308417ad45132da282495eb244f38a7db03940a4d808be607669c622546001600160a01b031690565b9050600060135483836001600160a01b0316630ad691506040518163ffffffff1660e01b815260040160206040518083038186803b158015612da357600080fd5b505afa158015612db7573d6000803e3d6000fd5b505050506040513d601f19601f82011682018060405250810190612ddb9190615a0b565b612de59190615d56565b612def9190615c04565b600187015460038801546040517f0a45bc1b0000000000000000000000000000000000000000000000000000000081526001600160a01b039283166004820152602481018490529082166044820152919250831690630a45bc1b90606401602060405180830381600087803b158015612e6757600080fd5b505af1158015612e7b573d6000803e3d6000fd5b505050506040513d601f19601f82011682018060405250810190612e9f9190615a0b565b50828660020154612eb09190615d93565b9695505050505050565b60007f00000000000000000000000000000000000000000000000000000000000000006001600160a01b0316638da5cb5b6040518163ffffffff1660e01b815260040160206040518083038186803b158015612f1557600080fd5b505afa158015612f29573d6000803e3d6000fd5b505050506040513d601f19601f82011682018060405250810190612f4d91906156e8565b905090565b60007f00000000000000000000000000000000000000000000000000000000000000006001600160a01b031663c34c08e56040518163ffffffff1660e01b8152600401602060405180830381600087803b158015612faf57600080fd5b505af1158015612f29573d6000803e3d6000fd5b612fce838383614871565b6001600160a01b0382166000908152600b602052604081208054839290612ff6908490615bec565b90915550506001600160a01b0382166000908152600b60209081526040808320546009909252909120541015611171576040517f08c379a000000000000000000000000000000000000000000000000000000000815260206004820152601860248201527f4578636565647320676c6f62616c20746f6b656e2063617000000000000000006044820152606401610b1f565b6001600160a01b0382166000908152600a6020526040812080548392906130b0908490615bec565b90915550506001600160a01b0382166000908152600b6020526040812080548392906130dd908490615bec565b90915550506001600160a01b0382166000908152600a60209081526040808320546009909252909120541080159061313857506001600160a01b0382166000908152600b602090815260408083205460099092529091205410155b61319e576040517f08c379a000000000000000000000000000000000000000000000000000000000815260206004820152601860248201527f4578636565647320676c6f62616c20746f6b656e2063617000000000000000006044820152606401610b1f565b611171838383613a19565b600c5483546131b89190615bec565b4311613220576040517f08c379a000000000000000000000000000000000000000000000000000000000815260206004820181905260248201527f4e6f207769746864726177616c20736f6f6e206166746572206465706f7369746044820152606401610b1f565b6001600160a01b0382166000908152600b602052604081208054839290613248908490615d93565b90915550506001600160a01b0382166000908152600584016020526040902054613273908290615d93565b6001600160a01b03831660009081526005850160205260409020556132978361494d565b611171576040517f08c379a000000000000000000000000000000000000000000000000000000000815260206004820152601460248201527f496e73756666696369656e742062616c616e63650000000000000000000000006044820152606401610b1f565b8254600090815b81811015611a1857600086828154811061332e57634e487b7160e01b600052603260045260246000fd5b60009182526020808320909101546001600160a01b03168083529088905260409091205490915061336190829087614999565b61336b9085615bec565b935050808061337990615ddf565b915050613304565b6060806002835110156133f0576040517f08c379a000000000000000000000000000000000000000000000000000000000815260206004820152601460248201527f746f6b656e207061746820746f6f2073686f72740000000000000000000000006044820152606401610b1f565b825167ffffffffffffffff81111561341857634e487b7160e01b600052604160045260246000fd5b604051908082528060200260200182016040528015613441578160200160208202803683370190505b5091508482600184516134549190615d93565b8151811061347257634e487b7160e01b600052603260045260246000fd5b6020026020010181815250506001835161348c9190615d93565b67ffffffffffffffff8111156134b257634e487b7160e01b600052604160045260246000fd5b6040519080825280602002602001820160405280156134db578160200160208202803683370190505b5090506000600184516134ee9190615d93565b90505b80156136aa57600084613505600184615d93565b8151811061352357634e487b7160e01b600052603260045260246000fd5b60200260200101519050600085838151811061354f57634e487b7160e01b600052603260045260246000fd5b602002602001015190506000876001856135699190615d93565b6020811061358757634e487b7160e01b600052603260045260246000fd5b1a60f81b7fff0000000000000000000000000000000000000000000000000000000000000016156135c1576135bc8383614ab4565b6135cb565b6135cb8383614bdb565b905080856135da600187615d93565b815181106135f857634e487b7160e01b600052603260045260246000fd5b60200260200101906001600160a01b031690816001600160a01b031681525050600080613626838686614cc7565b9150915061365c88878151811061364d57634e487b7160e01b600052603260045260246000fd5b60200260200101518383614da4565b88613668600189615d93565b8151811061368657634e487b7160e01b600052603260045260246000fd5b602002602001018181525050505050505080806136a290615daa565b9150506134f1565b50935093915050565b6103e86136c08284615d56565b6136cc836103e8615d93565b85600101546136db9190615d56565b6136e59190615bec565b6136ef9190615c04565b8360010181905550505050565b60008183111561370d575080610a8a565b5081610a8a565b600080613752606660009081526020527f422cccb7cea5c0e46f340bb7b21b81debac329f72e31669c20ff0f3a05cc2b5b546001600160a01b031690565b6001600160a01b03858116600081815260028901602090815260408083205460038c01909252918290205491517fe695fa6800000000000000000000000000000000000000000000000000000000815260048101919091526024810192909252604482015291169063e695fa68906064016040805180830381600087803b1580156137dc57600080fd5b505af11580156137f0573d6000803e3d6000fd5b505050506040513d601f19601f820116820180604052508101906138149190615a73565b909250905060006138258484615d93565b6001600160a01b0386166000908152600288016020908152604080832084905560058a0190915290205490915061385d908590615d93565b6001600160a01b038616600090815260058801602052604090205580156138a0576001600160a01b03851660009081526003870160205260409020829055613a11565b6001600160a01b038516600090815260038701602052604081208190556001870154815b808211156139945760008960010182815481106138f157634e487b7160e01b600052603260045260246000fd5b6000918252602090912001546001600160a01b039081169150891681141561391c5760019350613981565b831561398157808a6001016001846139349190615d93565b8154811061395257634e487b7160e01b600052603260045260246000fd5b9060005260206000200160006101000a8154816001600160a01b0302191690836001600160a01b031602179055505b508061398c81615ddf565b9150506138c4565b50876001018054806139b657634e487b7160e01b600052603160045260246000fd5b60008281526020902081017fffffffffffffffffffffffffffffffffffffffffffffffffffffffffffffffff90810180547fffffffffffffffffffffffff000000000000000000000000000000000000000016905501905550505b505050505050565b6001600160a01b0382166000908152600384016020526040902054613b80576001838101805491820181556000908152602090200180547fffffffffffffffffffffffff0000000000000000000000000000000000000000166001600160a01b038416179055613aba606660009081526020527f422cccb7cea5c0e46f340bb7b21b81debac329f72e31669c20ff0f3a05cc2b5b546001600160a01b031690565b6040517f46c87f800000000000000000000000000000000000000000000000000000000081526001600160a01b03848116600483015291909116906346c87f8090602401602060405180830381600087803b158015613b1857600080fd5b505af1158015613b2c573d6000803e3d6000fd5b505050506040513d601f19601f82011682018060405250810190613b509190615a0b565b6001600160a01b038316600090815260038501602090815260408083209390935560028601905220819055613cca565b600080613bbe606660009081526020527f422cccb7cea5c0e46f340bb7b21b81debac329f72e31669c20ff0f3a05cc2b5b546001600160a01b031690565b6001600160a01b03858116600081815260028901602090815260408083205460038c01909252918290205491517fe695fa6800000000000000000000000000000000000000000000000000000000815260048101919091526024810192909252604482015291169063e695fa68906064016040805180830381600087803b158015613c4857600080fd5b505af1158015613c5c573d6000803e3d6000fd5b505050506040513d601f19601f82011682018060405250810190613c809190615a73565b6001600160a01b038616600090815260038801602052604090208190559092509050613cac8383615bec565b6001600160a01b038516600090815260028701602052604090205550505b613cd5838383614871565b6132978361494d565b6001600160a01b0384166000908152600586016020526040902054613d04908390615d93565b6001600160a01b0385166000908152600587016020526040902055613d2a858483614871565b5050505050565b8154600090815b81811015613db4576000858281548110613d6257634e487b7160e01b600052603260045260246000fd5b60009182526020808320909101546001600160a01b031680835290879052604090912054909150613d949082906109f1565b613d9e9085615bec565b9350508080613dac90615ddf565b915050613d38565b505092915050565b6000613e3f613dcd6006600a615c6a565b613dd8906064615d56565b836003015484600201805480602002602001604051908101604052809291908181526020018280548015613e3557602002820191906000526020600020905b81546001600160a01b03168152600190910190602001808311613e17575b5050505050613381565b5090506109ed8282600081518110613e6757634e487b7160e01b600052603260045260246000fd5b60200260200101516004546136b3565b600080613eb5606b60009081526020527f2dc7a963308417ad45132da282495eb244f38a7db03940a4d808be607669c622546001600160a01b031690565b6001600160a01b031663b0411f466040518163ffffffff1660e01b8152600401604080518083038186803b158015613eec57600080fd5b505afa158015613f00573d6000803e3d6000fd5b505050506040513d601f19601f82011682018060405250810190613f249190615823565b509050601354601654613f379190615d56565b6001600160a01b0390911660009081526011602052604090205411905090565b604080516000808252602082019283905290519091613f7991600e9190615587565b506040805160008152602081019182905251613f9791600f91615587565b506040805160008152602081019182905251613fb591601091615587565b5060005b80845111156144d7576000848281518110613fe457634e487b7160e01b600052603260045260246000fd5b60200260200101519050600060086000836001600160a01b03166001600160a01b03168152602001908152602001600020905061402081614ef5565b1561448d576010805460018101825560009182527f1b6847dc741a1b0cd08d278845f9d819d87b734759afb55fe2de5cb82a9ae6720180547fffffffffffffffffffffffff0000000000000000000000000000000000000000166001600160a01b0385161790556004820154905b808211156141c25760008360040182815481106140bb57634e487b7160e01b600052603260045260246000fd5b60009182526020808320909101546001600160a01b0316808352600d90915260409091206002810154919250904314614177576001600160a01b0382166000818152600587016020526040812054600180850191909155818455436002850155600e805491820181559091527fbb7b4a454dc3493923482f07822329ed19e8244eff582cc204f8554c3620c3fd0180547fffffffffffffffffffffffff00000000000000000000000000000000000000001690911790556141ad565b6001600160a01b0382166000908152600586016020526040812054600183018054919290916141a7908490615bec565b90915550505b505080806141ba90615ddf565b91505061408e565b5050600181015460005b8082111561448a5760008360010182815481106141f957634e487b7160e01b600052603260045260246000fd5b60009182526020808320909101546001600160a01b0316808352600d909152604082209092509061425b606660009081526020527f422cccb7cea5c0e46f340bb7b21b81debac329f72e31669c20ff0f3a05cc2b5b546001600160a01b031690565b6001600160a01b03848116600081815260028a01602090815260408083205460038d01909252918290205491517fe695fa6800000000000000000000000000000000000000000000000000000000815260048101919091526024810192909252604482015291169063e695fa68906064016040805180830381600087803b1580156142e557600080fd5b505af11580156142f9573d6000803e3d6000fd5b505050506040513d601f19601f8201168201806040525081019061431d9190615a73565b50905061435b606660009081526020527f422cccb7cea5c0e46f340bb7b21b81debac329f72e31669c20ff0f3a05cc2b5b546001600160a01b031690565b6040517f2a6a897b0000000000000000000000000000000000000000000000000000000081526001600160a01b038581166004830152602482018490529190911690632a6a897b90604401600060405180830381600087803b1580156143c057600080fd5b505af11580156143d4573d6000803e3d6000fd5b505050504382600201541461445a5760006001838101829055828455436002850155600f805491820181559091527f8d1108e10bcb7c27dddfc02ed9d693a074039d026cf4ea4240b40f7d581ac8020180547fffffffffffffffffffffffff0000000000000000000000000000000000000000166001600160a01b038516179055614474565b8082600001600082825461446e9190615bec565b90915550505b505050808061448290615ddf565b9150506141cc565b50505b6001600160a01b038216600090815260126020526040902085156144c1576144b481612bf7565b6144be9086615bec565b94505b50505080806144cf90615ddf565b915050613fb9565b5092915050565b600e54600090815b808211156145af576000600e828154811061451157634e487b7160e01b600052603260045260246000fd5b60009182526020808320909101546001600160a01b0316808352600d9091526040909120805460018201549293509091111561459a578054600182015460009161455a91615d93565b90506145668382614f32565b6145709087615bec565b6001600160a01b0384166000908152600d6020526040812081815560018101829055600201559550505b505080806145a790615ddf565b9150506144e6565b506145bc600e6000615600565b5090565b600f54600090815b8082111561468e576000600f82815481106145f357634e487b7160e01b600052603260045260246000fd5b60009182526020808320909101546001600160a01b0316808352600d909152604090912060018101548154929350909111156146795761464682826001015483600001546146419190615d93565b6150bc565b6146509086615bec565b6001600160a01b0383166000908152600d60205260408120818155600181018290556002015594505b5050808061468690615ddf565b9150506145c8565b506145bc600f6000615600565b6000610a8a8260040183600501615253565b6000610a8a8260010183600201846003016152d6565b600181015460005b808211156147785760008360010182815481106146f857634e487b7160e01b600052603260045260246000fd5b60009182526020808320909101546001600160a01b0316808352600287018252604080842054600a90935283208054919450919290614738908490615d93565b90915550506001600160a01b031660009081526002840160209081526040808320839055600386019091528120558061477081615ddf565b9150506146cb565b5050600481015460005b808211156148545760008360040182815481106147af57634e487b7160e01b600052603260045260246000fd5b60009182526020808320909101546001600160a01b0316808352600587018252604080842054600b909352832080549194509192906147ef908490615d93565b90915550506001600160a01b03166000908152600584016020908152604080832083905560068601909152902080547fffffffffffffffffffffffffffffffffffffffffffffffffffffffffffffff001690558061484c81615ddf565b915050614782565b50614863600183016000615600565b6109ed600483016000615600565b6001600160a01b038216600090815260068401602052604090205460ff1661491957600483018054600180820183556000928352602080842090920180547fffffffffffffffffffffffff0000000000000000000000000000000000000000166001600160a01b038716908117909155835260068601909152604090912080547fffffffffffffffffffffffffffffffffffffffffffffffffffffffffffffff001690911790555b6001600160a01b038216600090815260058401602052604081208054839290614943908490615bec565b9091555050505050565b600080614959836146ad565b905060006149668461469b565b9050600654826149769190615d56565b60646006546149859190615d93565b61498f9083615d56565b1015949350505050565b6000806149d7606660009081526020527f422cccb7cea5c0e46f340bb7b21b81debac329f72e31669c20ff0f3a05cc2b5b546001600160a01b031690565b6040517f14189db20000000000000000000000000000000000000000000000000000000081526001600160a01b03878116600483015291909116906314189db29060240160206040518083038186803b158015614a3357600080fd5b505afa158015614a47573d6000803e3d6000fd5b505050506040513d601f19601f82011682018060405250810190614a6b9190615a0b565b6001600160a01b03861660009081526020859052604081205491925090614a928387615d56565b614a9c9190615c04565b9050614aa886826109f1565b925050505b9392505050565b6000806000614ac3858561535a565b60408051606084811b7fffffffffffffffffffffffffffffffffffffffff0000000000000000000000009081166020808501919091529185901b166034830152825160288184030181526048830190935282519201919091207fff0000000000000000000000000000000000000000000000000000000000000060688301527fc0aee478e3658e2610c5f7a4a2e1777ce9e4f2ac0000000000000000000000006069830152607d8201527fe18a34eb0e04b04f7a0ac29a6e80748dca96319b42c54d679cb821dca90c6303609d820152919350915060bd015b604080517fffffffffffffffffffffffffffffffffffffffffffffffffffffffffffffffe0818403018152919052805160209091012095945050505050565b6000806000614bea858561535a565b60408051606084811b7fffffffffffffffffffffffffffffffffffffffff0000000000000000000000009081166020808501919091529185901b166034830152825160288184030181526048830190935282519201919091207fff0000000000000000000000000000000000000000000000000000000000000060688301527f5c69bee701ef814a2b6a3edd4b1652cb9cc5aa6f0000000000000000000000006069830152607d8201527f96e8ac4277198ff8b6f785478aa9a39f403cb768dd02cbee326c3e7da348845f609d820152919350915060bd01614b9c565b6000806000614cd6858561535a565b509050600080876001600160a01b0316630902f1ac6040518163ffffffff1660e01b815260040160606040518083038186803b158015614d1557600080fd5b505afa158015614d29573d6000803e3d6000fd5b505050506040513d601f19601f82011682018060405250810190614d4d9190615983565b506dffffffffffffffffffffffffffff1691506dffffffffffffffffffffffffffff169150826001600160a01b0316876001600160a01b031614614d92578082614d95565b81815b90999098509650505050505050565b6000808411614e0f576040517f08c379a000000000000000000000000000000000000000000000000000000000815260206004820152601a60248201527f494e53554646494349454e545f4f55545055545f414d4f554e540000000000006044820152606401610b1f565b600083118015614e1f5750600082115b614eab576040517f08c379a000000000000000000000000000000000000000000000000000000000815260206004820152602860248201527f556e697377617056324c6962726172793a20494e53554646494349454e545f4c60448201527f49515549444954590000000000000000000000000000000000000000000000006064820152608401610b1f565b6000614eb78585615d56565b614ec3906103e8615d56565b905060006103e5614ed48786615d93565b614ede9190615d93565b9050614eea8183615c04565b614aa8906001615bec565b600080614f01836146ad565b90506000614f0e8461469b565b905081600754614f1e9190615d56565b614f29826064615d56565b10949350505050565b60007f00000000000000000000000000000000000000000000000000000000000000006001600160a01b0316836001600160a01b03161415614f75575080610a8a565b6001600160a01b038316600090815260026020526040812090614fc9606760009081526020527f682158d08466d11c566d5712d4396197fdd67e65be71d83c97ef719ec468867b546001600160a01b031690565b6001600160a01b031663351ae6108560008560030154866002016040518563ffffffff1660e01b81526004016150029493929190615b54565b600060405180830381600087803b15801561501c57600080fd5b505af1158015615030573d6000803e3d6000fd5b505050506040513d6000823e601f3d9081017fffffffffffffffffffffffffffffffffffffffffffffffffffffffffffffffe0168201604052615076919081019061588b565b9050600081600183516150899190615d93565b815181106150a757634e487b7160e01b600052603260045260246000fd5b60200260200101519050809350505050610a8a565b60007f00000000000000000000000000000000000000000000000000000000000000006001600160a01b0316836001600160a01b031614156150ff575080610a8a565b6001600160a01b038316600090815260026020526040812090615153606760009081526020527f682158d08466d11c566d5712d4396197fdd67e65be71d83c97ef719ec468867b546001600160a01b031690565b6001600160a01b03166353d7ff9f857fffffffffffffffffffffffffffffffffffffffffffffffffffffffffffffffff8560030154866004016040518563ffffffff1660e01b81526004016151ab9493929190615b54565b600060405180830381600087803b1580156151c557600080fd5b505af11580156151d9573d6000803e3d6000fd5b505050506040513d6000823e601f3d9081017fffffffffffffffffffffffffffffffffffffffffffffffffffffffffffffffe016820160405261521f919081019061588b565b90508060008151811061524257634e487b7160e01b600052603260045260246000fd5b602002602001015192505050610a8a565b8154600090815b81811015613db457600085828154811061528457634e487b7160e01b600052603260045260246000fd5b60009182526020808320909101546001600160a01b0316808352908790526040909120549091506152b6908290611851565b6152c09085615bec565b93505080806152ce90615ddf565b91505061525a565b8254600090815b81811015611a1857600086828154811061530757634e487b7160e01b600052603260045260246000fd5b60009182526020808320909101546001600160a01b03168083529088905260409091205490915061533a90829087615478565b6153449085615bec565b935050808061535290615ddf565b9150506152dd565b600080826001600160a01b0316846001600160a01b031614156153d9576040517f08c379a000000000000000000000000000000000000000000000000000000000815260206004820152601260248201527f4964656e746963616c20616464726573732100000000000000000000000000006044820152606401610b1f565b826001600160a01b0316846001600160a01b0316106153f95782846153fc565b83835b90925090506001600160a01b038216615471576040517f08c379a000000000000000000000000000000000000000000000000000000000815260206004820152600d60248201527f5a65726f206164647265737321000000000000000000000000000000000000006044820152606401610b1f565b9250929050565b6000806154b6606660009081526020527f422cccb7cea5c0e46f340bb7b21b81debac329f72e31669c20ff0f3a05cc2b5b546001600160a01b031690565b6040517f14189db20000000000000000000000000000000000000000000000000000000081526001600160a01b03878116600483015291909116906314189db29060240160206040518083038186803b15801561551257600080fd5b505afa158015615526573d6000803e3d6000fd5b505050506040513d601f19601f8201168201806040525081019061554a9190615a0b565b6001600160a01b038616600090815260208590526040812054919250906155718387615d56565b61557b9190615c04565b9050614aa88682611851565b8280548282559060005260206000209081019282156155f4579160200282015b828111156155f457825182547fffffffffffffffffffffffff0000000000000000000000000000000000000000166001600160a01b039091161782556020909201916001909101906155a7565b506145bc929150615621565b508054600082559060005260206000209081019061561e9190615621565b50565b5b808211156145bc5760008155600101615622565b600082601f830112615646578081fd5b8135602061565b61565683615bc8565b615b79565b80838252828201915082860187848660051b890101111561567a578586fd5b855b858110156156a157813561568f81615e44565b8452928401929084019060010161567c565b5090979650505050505050565b80516dffffffffffffffffffffffffffff81168114610db857600080fd5b6000602082840312156156dd578081fd5b8135614aad81615e44565b6000602082840312156156f9578081fd5b8151614aad81615e44565b600080600080600060a0868803121561571b578081fd5b853561572681615e44565b9450602086013561573681615e44565b9350604086013561574681615e44565b94979396509394606081013594506080013592915050565b600080600060608486031215615772578283fd5b833561577d81615e44565b9250602084013561578d81615e44565b929592945050506040919091013590565b600080600080600060a086880312156157b5578081fd5b85356157c081615e44565b945060208601356157d081615e44565b93506040860135925060608601356157e781615e44565b949793965091946080013592915050565b6000806040838503121561580a578182fd5b823561581581615e44565b946020939093013593505050565b60008060408385031215615835578182fd5b825161584081615e44565b6020939093015192949293505050565b600060208284031215615861578081fd5b813567ffffffffffffffff811115615877578182fd5b61588384828501615636565b949350505050565b6000602080838503121561589d578182fd5b825167ffffffffffffffff8111156158b3578283fd5b8301601f810185136158c3578283fd5b80516158d161565682615bc8565b80828252848201915084840188868560051b87010111156158f0578687fd5b8694505b838510156159125780518352600194909401939185019185016158f4565b50979650505050505050565b60006020828403121561592f578081fd5b81518015158114614aad578182fd5b60008060408385031215615950578182fd5b82359150602083013567ffffffffffffffff81111561596d578182fd5b61597985828601615636565b9150509250929050565b600080600060608486031215615997578081fd5b6159a0846156ae565b92506159ae602085016156ae565b9150604084015163ffffffff811681146159c6578182fd5b809150509250925092565b6000602082840312156159e2578081fd5b813561ffff81168114614aad578182fd5b600060208284031215615a04578081fd5b5035919050565b600060208284031215615a1c578081fd5b5051919050565b60008060408385031215615a35578182fd5b823591506020830135615a4781615e44565b809150509250929050565b60008060408385031215615a64578182fd5b50508035926020909101359150565b60008060408385031215615a85578182fd5b505080516020909101519092909150565b6000815480845260208085019450838352808320835b83811015615ad15781546001600160a01b031687529582019560019182019101615aac565b509495945050505050565b604080825283519082018190526000906020906060840190828701845b82811015615b205781516001600160a01b0316845260208401935090840190600101615af9565b50505083810382850152845180825285830191830190845b818110156156a157835183529284019291840191600101615b38565b600085825284602083015283604083015260806060830152612eb06080830184615a96565b604051601f82017fffffffffffffffffffffffffffffffffffffffffffffffffffffffffffffffe016810167ffffffffffffffff81118282101715615bc057615bc0615e2e565b604052919050565b600067ffffffffffffffff821115615be257615be2615e2e565b5060051b60200190565b60008219821115615bff57615bff615e18565b500190565b600082615c1f57634e487b7160e01b81526012600452602481fd5b500490565b80825b6001808611615c365750615c61565b818704821115615c4857615c48615e18565b80861615615c5557918102915b9490941c938002615c27565b94509492505050565b6000614aad7fffffffffffffffffffffffffffffffffffffffffffffffffffffffffffffffff8484600082615ca157506001614aad565b81615cae57506000614aad565b8160018114615cc45760028114615cce57615cfb565b6001915050614aad565b60ff841115615cdf57615cdf615e18565b6001841b915084821115615cf557615cf5615e18565b50614aad565b5060208310610133831016604e8410600b8410161715615d2e575081810a83811115615d2957615d29615e18565b614aad565b615d3b8484846001615c24565b808604821115615d4d57615d4d615e18565b02949350505050565b6000817fffffffffffffffffffffffffffffffffffffffffffffffffffffffffffffffff0483118215151615615d8e57615d8e615e18565b500290565b600082821015615da557615da5615e18565b500390565b600081615db957615db9615e18565b507fffffffffffffffffffffffffffffffffffffffffffffffffffffffffffffffff0190565b60007fffffffffffffffffffffffffffffffffffffffffffffffffffffffffffffffff821415615e1157615e11615e18565b5060010190565b634e487b7160e01b600052601160045260246000fd5b634e487b7160e01b600052604160045260246000fd5b6001600160a01b038116811461561e57600080fdfea26469706673582212203c931139b0f5287b7c280999fd6182bc2169914b4fed014d4ff626a86382cfc764736f6c63430008030033",
  "linkReferences": {},
  "deployedLinkReferences": {}
}