{
  "_format": "hh-sol-artifact-1",
  "contractName": "CrossMarginTrading",
  "sourceName": "contracts/CrossMarginTrading.sol",
  "abi": [
    {
      "inputs": [
        {
          "internalType": "address",
          "name": "_peg",
          "type": "address"
        },
        {
          "internalType": "address",
          "name": "_amm1Factory",
          "type": "address"
        },
        {
          "internalType": "address",
          "name": "_amm2Factory",
          "type": "address"
        },
        {
          "internalType": "bytes32",
          "name": "_amm1InitHash",
          "type": "bytes32"
        },
        {
          "internalType": "bytes32",
          "name": "_amm2InitHash",
          "type": "bytes32"
        },
        {
          "internalType": "address",
          "name": "_roles",
          "type": "address"
        }
      ],
      "stateMutability": "nonpayable",
      "type": "constructor"
    },
    {
      "anonymous": false,
      "inputs": [
        {
          "indexed": false,
          "internalType": "address",
          "name": "account",
          "type": "address"
        }
      ],
      "name": "AccountLiquidated",
      "type": "event"
    },
    {
      "anonymous": false,
      "inputs": [
        {
          "indexed": false,
          "internalType": "uint256",
          "name": "amount",
          "type": "uint256"
        }
      ],
      "name": "LiquidationShortfall",
      "type": "event"
    },
    {
      "inputs": [],
      "name": "MAINTAINER_CUT_PERCENT",
      "outputs": [
        {
          "internalType": "uint256",
          "name": "",
          "type": "uint256"
        }
      ],
      "stateMutability": "view",
      "type": "function"
    },
    {
      "inputs": [],
      "name": "UPDATE_RATE_PERMIL",
      "outputs": [
        {
          "internalType": "uint256",
          "name": "",
          "type": "uint256"
        }
      ],
      "stateMutability": "view",
      "type": "function"
    },
    {
      "inputs": [
        {
          "internalType": "uint256",
          "name": "_priceUpdateWindow",
          "type": "uint256"
        },
        {
          "internalType": "uint256",
          "name": "_updateRatePermil",
          "type": "uint256"
        },
        {
          "internalType": "uint256",
          "name": "_voluntaryUpdateWindow",
          "type": "uint256"
        }
      ],
      "name": "addVolatilitySetting",
      "outputs": [],
      "stateMutability": "nonpayable",
      "type": "function"
    },
    {
      "inputs": [],
      "name": "amm1Factory",
      "outputs": [
        {
          "internalType": "address",
          "name": "",
          "type": "address"
        }
      ],
      "stateMutability": "view",
      "type": "function"
    },
    {
      "inputs": [],
      "name": "amm1InitHash",
      "outputs": [
        {
          "internalType": "bytes32",
          "name": "",
          "type": "bytes32"
        }
      ],
      "stateMutability": "view",
      "type": "function"
    },
    {
      "inputs": [],
      "name": "amm2Factory",
      "outputs": [
        {
          "internalType": "address",
          "name": "",
          "type": "address"
        }
      ],
      "stateMutability": "view",
      "type": "function"
    },
    {
      "inputs": [],
      "name": "amm2InitHash",
      "outputs": [
        {
          "internalType": "bytes32",
          "name": "",
          "type": "bytes32"
        }
      ],
      "stateMutability": "view",
      "type": "function"
    },
    {
      "inputs": [],
      "name": "avgLiquidationPerCall",
      "outputs": [
        {
          "internalType": "uint256",
          "name": "",
          "type": "uint256"
        }
      ],
      "stateMutability": "view",
      "type": "function"
    },
    {
      "inputs": [
        {
          "internalType": "address",
          "name": "trader",
          "type": "address"
        }
      ],
      "name": "canBeLiquidated",
      "outputs": [
        {
          "internalType": "bool",
          "name": "",
          "type": "bool"
        }
      ],
      "stateMutability": "view",
      "type": "function"
    },
    {
      "inputs": [
        {
          "internalType": "uint256",
          "name": "index",
          "type": "uint256"
        }
      ],
      "name": "chooseVolatilitySetting",
      "outputs": [],
      "stateMutability": "nonpayable",
      "type": "function"
    },
    {
      "inputs": [],
      "name": "coolingOffPeriod",
      "outputs": [
        {
          "internalType": "uint256",
          "name": "",
          "type": "uint256"
        }
      ],
      "stateMutability": "view",
      "type": "function"
    },
    {
      "inputs": [
        {
          "internalType": "address[]",
          "name": "liquidatedAccounts",
          "type": "address[]"
        }
      ],
      "name": "disburseLiqStakeAttacks",
      "outputs": [],
      "stateMutability": "nonpayable",
      "type": "function"
    },
    {
      "inputs": [],
      "name": "failureThreshold",
      "outputs": [
        {
          "internalType": "uint256",
          "name": "",
          "type": "uint256"
        }
      ],
      "stateMutability": "view",
      "type": "function"
    },
    {
      "inputs": [
        {
          "internalType": "address",
          "name": "trader",
          "type": "address"
        }
      ],
      "name": "getBorrowAmounts",
      "outputs": [
        {
          "internalType": "address[]",
          "name": "borrowTokens",
          "type": "address[]"
        },
        {
          "internalType": "uint256[]",
          "name": "borrowAmounts",
          "type": "uint256[]"
        }
      ],
      "stateMutability": "view",
      "type": "function"
    },
    {
      "inputs": [
        {
          "internalType": "address",
          "name": "token",
          "type": "address"
        },
        {
          "internalType": "uint256",
          "name": "inAmount",
          "type": "uint256"
        },
        {
          "internalType": "bool",
          "name": "voluntary",
          "type": "bool"
        }
      ],
      "name": "getCurrentPriceInPeg",
      "outputs": [
        {
          "internalType": "uint256",
          "name": "priceInPeg",
          "type": "uint256"
        }
      ],
      "stateMutability": "nonpayable",
      "type": "function"
    },
    {
      "inputs": [
        {
          "internalType": "address",
          "name": "trader",
          "type": "address"
        }
      ],
      "name": "getHoldingAmounts",
      "outputs": [
        {
          "internalType": "address[]",
          "name": "holdingTokens",
          "type": "address[]"
        },
        {
          "internalType": "uint256[]",
          "name": "holdingAmounts",
          "type": "uint256[]"
        }
      ],
      "stateMutability": "view",
      "type": "function"
    },
    {
      "inputs": [],
      "name": "leveragePercent",
      "outputs": [
        {
          "internalType": "uint256",
          "name": "",
          "type": "uint256"
        }
      ],
      "stateMutability": "view",
      "type": "function"
    },
    {
      "inputs": [],
      "name": "liqStakeAttackWindow",
      "outputs": [
        {
          "internalType": "uint256",
          "name": "",
          "type": "uint256"
        }
      ],
      "stateMutability": "view",
      "type": "function"
    },
    {
      "inputs": [
        {
          "internalType": "address[]",
          "name": "liquidationCandidates",
          "type": "address[]"
        }
      ],
      "name": "liquidate",
      "outputs": [
        {
          "internalType": "uint256",
          "name": "maintainerCut",
          "type": "uint256"
        }
      ],
      "stateMutability": "nonpayable",
      "type": "function"
    },
    {
      "inputs": [],
      "name": "liquidationThresholdPercent",
      "outputs": [
        {
          "internalType": "uint256",
          "name": "",
          "type": "uint256"
        }
      ],
      "stateMutability": "view",
      "type": "function"
    },
    {
      "inputs": [
        {
          "internalType": "uint256",
          "name": "",
          "type": "uint256"
        }
      ],
      "name": "mainCharacterCache",
      "outputs": [
        {
          "internalType": "address",
          "name": "",
          "type": "address"
        }
      ],
      "stateMutability": "view",
      "type": "function"
    },
    {
      "inputs": [
        {
          "internalType": "address",
          "name": "",
          "type": "address"
        }
      ],
      "name": "maintenanceFailures",
      "outputs": [
        {
          "internalType": "uint256",
          "name": "",
          "type": "uint256"
        }
      ],
      "stateMutability": "view",
      "type": "function"
    },
    {
      "inputs": [
        {
          "internalType": "address",
          "name": "",
          "type": "address"
        },
        {
          "internalType": "address",
          "name": "",
          "type": "address"
        }
      ],
      "name": "pairPrices",
      "outputs": [
        {
          "internalType": "uint256",
          "name": "cumulative",
          "type": "uint256"
        },
        {
          "internalType": "uint256",
          "name": "lastUpdated",
          "type": "uint256"
        },
        {
          "internalType": "uint256",
          "name": "priceFP",
          "type": "uint256"
        }
      ],
      "stateMutability": "view",
      "type": "function"
    },
    {
      "inputs": [],
      "name": "peg",
      "outputs": [
        {
          "internalType": "address",
          "name": "",
          "type": "address"
        }
      ],
      "stateMutability": "view",
      "type": "function"
    },
    {
      "inputs": [],
      "name": "priceUpdateWindow",
      "outputs": [
        {
          "internalType": "uint256",
          "name": "",
          "type": "uint256"
        }
      ],
      "stateMutability": "view",
      "type": "function"
    },
    {
      "inputs": [
        {
          "internalType": "address",
          "name": "trader",
          "type": "address"
        },
        {
          "internalType": "address",
          "name": "borrowToken",
          "type": "address"
        },
        {
          "internalType": "uint256",
          "name": "borrowAmount",
          "type": "uint256"
        }
      ],
      "name": "registerBorrow",
      "outputs": [],
      "stateMutability": "nonpayable",
      "type": "function"
    },
    {
      "inputs": [
        {
          "internalType": "address",
          "name": "trader",
          "type": "address"
        },
        {
          "internalType": "address",
          "name": "token",
          "type": "address"
        },
        {
          "internalType": "uint256",
          "name": "depositAmount",
          "type": "uint256"
        }
      ],
      "name": "registerDeposit",
      "outputs": [
        {
          "internalType": "uint256",
          "name": "extinguishableDebt",
          "type": "uint256"
        }
      ],
      "stateMutability": "nonpayable",
      "type": "function"
    },
    {
      "inputs": [
        {
          "internalType": "address",
          "name": "trader",
          "type": "address"
        }
      ],
      "name": "registerLiquidation",
      "outputs": [],
      "stateMutability": "nonpayable",
      "type": "function"
    },
    {
      "inputs": [
        {
          "internalType": "address",
          "name": "trader",
          "type": "address"
        },
        {
          "internalType": "address",
          "name": "depositToken",
          "type": "address"
        },
        {
          "internalType": "uint256",
          "name": "depositAmount",
          "type": "uint256"
        },
        {
          "internalType": "address",
          "name": "borrowToken",
          "type": "address"
        },
        {
          "internalType": "uint256",
          "name": "withdrawAmount",
          "type": "uint256"
        }
      ],
      "name": "registerOvercollateralizedBorrow",
      "outputs": [],
      "stateMutability": "nonpayable",
      "type": "function"
    },
    {
      "inputs": [
        {
          "internalType": "address",
          "name": "trader",
          "type": "address"
        },
        {
          "internalType": "address",
          "name": "tokenFrom",
          "type": "address"
        },
        {
          "internalType": "address",
          "name": "tokenTo",
          "type": "address"
        },
        {
          "internalType": "uint256",
          "name": "inAmount",
          "type": "uint256"
        },
        {
          "internalType": "uint256",
          "name": "outAmount",
          "type": "uint256"
        }
      ],
      "name": "registerTradeAndBorrow",
      "outputs": [
        {
          "internalType": "uint256",
          "name": "extinguishableDebt",
          "type": "uint256"
        },
        {
          "internalType": "uint256",
          "name": "borrowAmount",
          "type": "uint256"
        }
      ],
      "stateMutability": "nonpayable",
      "type": "function"
    },
    {
      "inputs": [
        {
          "internalType": "address",
          "name": "trader",
          "type": "address"
        },
        {
          "internalType": "address",
          "name": "withdrawToken",
          "type": "address"
        },
        {
          "internalType": "uint256",
          "name": "withdrawAmount",
          "type": "uint256"
        }
      ],
      "name": "registerWithdrawal",
      "outputs": [],
      "stateMutability": "nonpayable",
      "type": "function"
    },
    {
      "inputs": [
        {
          "internalType": "address",
          "name": "",
          "type": "address"
        },
        {
          "internalType": "uint256",
          "name": "",
          "type": "uint256"
        }
      ],
      "name": "roleCache",
      "outputs": [
        {
          "internalType": "bool",
          "name": "",
          "type": "bool"
        }
      ],
      "stateMutability": "view",
      "type": "function"
    },
    {
      "inputs": [],
      "name": "roles",
      "outputs": [
        {
          "internalType": "contract Roles",
          "name": "",
          "type": "address"
        }
      ],
      "stateMutability": "view",
      "type": "function"
    },
    {
      "inputs": [
        {
          "internalType": "uint256",
          "name": "blocks",
          "type": "uint256"
        }
      ],
      "name": "setCoolingOffPeriod",
      "outputs": [],
      "stateMutability": "nonpayable",
      "type": "function"
    },
    {
      "inputs": [
        {
          "internalType": "uint256",
          "name": "threshFactor",
          "type": "uint256"
        }
      ],
      "name": "setFailureThreshold",
      "outputs": [],
      "stateMutability": "nonpayable",
      "type": "function"
    },
    {
      "inputs": [
        {
          "internalType": "uint256",
          "name": "_leveragePercent",
          "type": "uint256"
        }
      ],
      "name": "setLeveragePercent",
      "outputs": [],
      "stateMutability": "nonpayable",
      "type": "function"
    },
    {
      "inputs": [
        {
          "internalType": "uint256",
          "name": "window",
          "type": "uint256"
        }
      ],
      "name": "setLiqStakeAttackWindow",
      "outputs": [],
      "stateMutability": "nonpayable",
      "type": "function"
    },
    {
      "inputs": [
        {
          "internalType": "bytes32",
          "name": "amms",
          "type": "bytes32"
        },
        {
          "internalType": "address[]",
          "name": "tokens",
          "type": "address[]"
        }
      ],
      "name": "setLiquidationPath",
      "outputs": [],
      "stateMutability": "nonpayable",
      "type": "function"
    },
    {
      "inputs": [
        {
          "internalType": "uint256",
          "name": "threshold",
          "type": "uint256"
        }
      ],
      "name": "setLiquidationThresholdPercent",
      "outputs": [],
      "stateMutability": "nonpayable",
      "type": "function"
    },
    {
      "inputs": [
        {
          "internalType": "uint256",
          "name": "cut",
          "type": "uint256"
        }
      ],
      "name": "setMaintainerCutPercent",
      "outputs": [],
      "stateMutability": "nonpayable",
      "type": "function"
    },
    {
      "inputs": [
        {
          "internalType": "uint16",
          "name": "window",
          "type": "uint16"
        },
        {
          "internalType": "uint256",
          "name": "voluntaryWindow",
          "type": "uint256"
        }
      ],
      "name": "setPriceUpdateWindow",
      "outputs": [],
      "stateMutability": "nonpayable",
      "type": "function"
    },
    {
      "inputs": [
        {
          "internalType": "address",
          "name": "token",
          "type": "address"
        },
        {
          "internalType": "uint256",
          "name": "cap",
          "type": "uint256"
        }
      ],
      "name": "setTokenCap",
      "outputs": [],
      "stateMutability": "nonpayable",
      "type": "function"
    },
    {
      "inputs": [
        {
          "internalType": "uint256",
          "name": "rate",
          "type": "uint256"
        }
      ],
      "name": "setUpdateRate",
      "outputs": [],
      "stateMutability": "nonpayable",
      "type": "function"
    },
    {
      "inputs": [
        {
          "internalType": "address",
          "name": "",
          "type": "address"
        }
      ],
      "name": "stakeAttackRecords",
      "outputs": [
        {
          "internalType": "uint256",
          "name": "blockNum",
          "type": "uint256"
        },
        {
          "internalType": "address",
          "name": "loser",
          "type": "address"
        },
        {
          "internalType": "uint256",
          "name": "amount",
          "type": "uint256"
        },
        {
          "internalType": "address",
          "name": "stakeAttacker",
          "type": "address"
        }
      ],
      "stateMutability": "view",
      "type": "function"
    },
    {
      "inputs": [
        {
          "internalType": "address",
          "name": "",
          "type": "address"
        }
      ],
      "name": "tokenCaps",
      "outputs": [
        {
          "internalType": "uint256",
          "name": "",
          "type": "uint256"
        }
      ],
      "stateMutability": "view",
      "type": "function"
    },
    {
      "inputs": [
        {
          "internalType": "address",
          "name": "",
          "type": "address"
        }
      ],
      "name": "tokenPrices",
      "outputs": [
        {
          "internalType": "uint256",
          "name": "lastUpdated",
          "type": "uint256"
        },
        {
          "internalType": "uint256",
          "name": "priceFP",
          "type": "uint256"
        },
        {
          "internalType": "bytes32",
          "name": "amms",
          "type": "bytes32"
        },
        {
          "internalType": "bytes32",
          "name": "inverseAmms",
          "type": "bytes32"
        }
      ],
      "stateMutability": "view",
      "type": "function"
    },
    {
      "inputs": [
        {
          "internalType": "address",
          "name": "",
          "type": "address"
        }
      ],
      "name": "totalLong",
      "outputs": [
        {
          "internalType": "uint256",
          "name": "",
          "type": "uint256"
        }
      ],
      "stateMutability": "view",
      "type": "function"
    },
    {
      "inputs": [
        {
          "internalType": "uint256",
          "name": "role",
          "type": "uint256"
        }
      ],
      "name": "updateMainCharacterCache",
      "outputs": [],
      "stateMutability": "nonpayable",
      "type": "function"
    },
    {
      "inputs": [
        {
          "internalType": "uint256",
          "name": "role",
          "type": "uint256"
        },
        {
          "internalType": "address",
          "name": "contr",
          "type": "address"
        }
      ],
      "name": "updateRoleCache",
      "outputs": [],
      "stateMutability": "nonpayable",
      "type": "function"
    },
    {
      "inputs": [
        {
          "internalType": "address",
          "name": "trader",
          "type": "address"
        },
        {
          "internalType": "address",
          "name": "token",
          "type": "address"
        }
      ],
      "name": "viewBalanceInToken",
      "outputs": [
        {
          "internalType": "uint256",
          "name": "",
          "type": "uint256"
        }
      ],
      "stateMutability": "view",
      "type": "function"
    },
    {
      "inputs": [
        {
          "internalType": "address",
          "name": "token",
          "type": "address"
        },
        {
          "internalType": "uint256",
          "name": "inAmount",
          "type": "uint256"
        }
      ],
      "name": "viewCurrentPriceInPeg",
      "outputs": [
        {
          "internalType": "uint256",
          "name": "priceInPeg",
          "type": "uint256"
        }
      ],
      "stateMutability": "view",
      "type": "function"
    },
    {
      "inputs": [
        {
          "internalType": "address",
          "name": "trader",
          "type": "address"
        }
      ],
      "name": "viewHoldingsInPeg",
      "outputs": [
        {
          "internalType": "uint256",
          "name": "",
          "type": "uint256"
        }
      ],
      "stateMutability": "view",
      "type": "function"
    },
    {
      "inputs": [
        {
          "internalType": "address",
          "name": "trader",
          "type": "address"
        }
      ],
      "name": "viewLoanInPeg",
      "outputs": [
        {
          "internalType": "uint256",
          "name": "amount",
          "type": "uint256"
        }
      ],
      "stateMutability": "view",
      "type": "function"
    },
    {
      "inputs": [
        {
          "internalType": "uint256",
          "name": "",
          "type": "uint256"
        }
      ],
      "name": "volatilitySettings",
      "outputs": [
        {
          "internalType": "uint256",
          "name": "priceUpdateWindow",
          "type": "uint256"
        },
        {
          "internalType": "uint256",
          "name": "updateRatePermil",
          "type": "uint256"
        },
        {
          "internalType": "uint256",
          "name": "voluntaryUpdateWindow",
          "type": "uint256"
        }
      ],
      "stateMutability": "view",
      "type": "function"
    },
    {
      "inputs": [],
      "name": "voluntaryUpdateWindow",
      "outputs": [
        {
          "internalType": "uint256",
          "name": "",
          "type": "uint256"
        }
      ],
      "stateMutability": "view",
      "type": "function"
    }
  ],
  "bytecode": "0x6101006040526104b060065561012c60075561019060085561012c600a556073600b55600a600f55600a60155560056016556005601755600a6018553480156200004857600080fd5b50604051620060f0380380620060f08339810160408190526200006b9162000135565b8585858585856001600160a01b038116620000d75760405162461bcd60e51b815260206004820152602260248201527f506c656173652070726f766964652076616c696420726f6c6573206164647265604482015261737360f01b606482015260840160405180910390fd5b6001600160601b0319606091821b811660805294811b851660a05292831b841660c0526002919091556003559190911b1660e05250620001a3945050505050565b80516001600160a01b03811681146200013057600080fd5b919050565b60008060008060008060c087890312156200014e578182fd5b620001598762000118565b9550620001696020880162000118565b9450620001796040880162000118565b935060608701519250608087015191506200019760a0880162000118565b90509295509295509295565b60805160601c60a05160601c60c05160601c60e05160601c615e9e620002526000396000818161045001528181610b1201528181610f5601528181611b8a015281816120020152818161231c015281816124b901528181612f0c0152818161514001526152ca0152600081816103770152614df30152600081816107560152614f2d01526000818161054c0152818161094e015281816117330152818161311801526131b00152615e9e6000f3fe608060405234801561001057600080fd5b506004361061036d5760003560e01c806360b3fa40116101d3578063badb504811610104578063df7c20f9116100a2578063ef859fc81161007c578063ef859fc8146108a9578063f04c6865146108e6578063f3f5f9b5146108f9578063f99fd97c1461090c5761036d565b8063df7c20f914610857578063e0f3871f14610860578063e9c3f77d146108805761036d565b8063c74303aa116100de578063c74303aa1461080b578063d0eb66531461081e578063d510c53514610831578063db2d904d146108445761036d565b8063badb504814610778578063bc70c666146107e5578063c73afac2146107f85761036d565b8063a20ec49311610171578063a75208a81161014b578063a75208a814610715578063a75697a51461071e578063a985994b1461073e578063b852eb0d146107515761036d565b8063a20ec493146106e6578063a3718919146106f9578063a53ac0d91461070c5761036d565b80637d100e84116101ad5780637d100e841461066c5780638dc6a529146106755780639c56522c146106ca578063a17ab527146106d35761036d565b806360b3fa40146106225780636585b5a6146106355780637a1a04df1461063e5761036d565b80632febaa74116102ad57806347788cd01161024b578063519bda8511610225578063519bda85146105ea57806352a664d9146105f3578063538edb291461060657806354554b581461060f5761036d565b806347788cd0146105ab578063498d55eb146105ce5780634aa4aca3146105e15761036d565b8063392f5f6411610287578063392f5f64146105475780633ed456fa1461056e578063409fdb7214610577578063447d52ba146105985761036d565b80632febaa741461050d578063320d2fa0146105165780633500aa0b1461051f5761036d565b80631d47e4a31161031a5780631f692a64116102f45780631f692a6414610472578063204120bc1461048557806320c27126146104da5780632b23f857146104fa5761036d565b80631d47e4a3146104255780631d84cc18146104385780631f1cb62b1461044b5761036d565b8063093a483a1161034b578063093a483a146103de57806310d58434146103ff57806316317e7e146104125761036d565b8063059b157a14610372578063071060a6146103b657806307c20175146103cb575b600080fd5b6103997f000000000000000000000000000000000000000000000000000000000000000081565b6040516001600160a01b0390911681526020015b60405180910390f35b6103c96103c4366004615b5c565b61091f565b005b6103c96103d93660046159c7565b610a16565b6103f16103ec36600461592e565b610b0e565b6040519081526020016103ad565b6103c961040d366004615b5c565b610b9d565b6103c9610420366004615b5c565b610c20565b6103c961043336600461592e565b610c9e565b6103c96104463660046158d4565b610d7f565b6103997f000000000000000000000000000000000000000000000000000000000000000081565b6103f16104803660046157ca565b610e2d565b6104ba6104933660046157ca565b60046020526000908152604090208054600182015460038301546005909301549192909184565b6040805194855260208501939093529183015260608201526080016103ad565b6103f16104e83660046157ca565b600e6020526000908152604090205481565b6103c9610508366004615ab1565b610e62565b6103f1600f5481565b6103f1600b5481565b61053261052d36600461583a565b611239565b604080519283526020830191909152016103ad565b6103997f000000000000000000000000000000000000000000000000000000000000000081565b6103f160065481565b61058a6105853660046157ca565b61157d565b6040516103ad929190615c44565b6103c96105a6366004615b8c565b6116f4565b6105be6105b93660046157ca565b611803565b60405190151581526020016103ad565b6103c96105dc366004615894565b61186a565b6103f160165481565b6103f160085481565b6103f1610601366004615894565b611909565b6103f160175481565b6103c961061d366004615b5c565b611b08565b6103f1610630366004615986565b611b86565b6103f160155481565b6105be61064c36600461592e565b600160209081526000928352604080842090915290825290205460ff1681565b6103f160185481565b6106af610683366004615802565b600560209081526000928352604080842090915290825290208054600182015460029092015490919083565b604080519384526020840192909252908201526060016103ad565b6103f160075481565b6103f16106e13660046157ca565b611cd0565b6103c96106f4366004615b39565b611cf8565b6103c9610707366004615b5c565b611d7f565b6103f1600a5481565b6103f160025481565b6103f161072c3660046157ca565b60136020526000908152604090205481565b6103f161074c3660046159c7565b611dfd565b6103997f000000000000000000000000000000000000000000000000000000000000000081565b6107ba6107863660046157ca565b601460205260009081526040902080546001820154600283015460039093015491926001600160a01b039182169290911684565b604080519485526001600160a01b0393841660208601528401919091521660608201526080016103ad565b6106af6107f3366004615b5c565b612690565b6103c9610806366004615b5c565b6126c3565b6103c9610819366004615b5c565b612741565b6103c961082c366004615894565b6127bf565b61058a61083f3660046157ca565b61284d565b6103c96108523660046157ca565b612a91565b6103f160035481565b6103f161086e3660046157ca565b600d6020526000908152604090205481565b61039961088e366004615b5c565b6000602081905290815260409020546001600160a01b031681565b6103f16108b7366004615802565b6001600160a01b039182166000908152600c602090815260408083209390941682526005909201909152205490565b6103c96108f4366004615b5c565b612b73565b6103c9610907366004615bd3565b612cb7565b6103c961091a366004615b5c565b612dd3565b6040517fb4ed0b6d000000000000000000000000000000000000000000000000000000008152600481018290527f00000000000000000000000000000000000000000000000000000000000000006001600160a01b03169063b4ed0b6d9060240160206040518083038186803b15801561099857600080fd5b505afa1580156109ac573d6000803e3d6000fd5b505050506040513d601f19601f820116820180604052508101906109d091906157e6565b60009182526020829052604090912080547fffffffffffffffffffffffff0000000000000000000000000000000000000000166001600160a01b03909216919091179055565b60005b8082511115610b0a576000828281518110610a4457634e487b7160e01b600052603260045260246000fd5b60200260200101519050600060146000836001600160a01b03166001600160a01b0316815260200190815260200160002090506016548160000154610a899190615d54565b431115610af557610a9981612e51565b506001600160a01b03821660009081526014602052604081208181556001810180547fffffffffffffffffffffffff00000000000000000000000000000000000000009081169091556002820192909255600301805490911690555b50508080610b0290615de0565b915050610a19565b5050565b60007f00000000000000000000000000000000000000000000000000000000000000006001600160a01b0316836001600160a01b03161415610b51575080610b97565b6001600160a01b038316600090815260046020526040902060018101546e010000000000000000000000000000610b888286615d8c565b610b929190615d6c565b925050505b92915050565b33610ba6613114565b6001600160a01b03161480610bca575033610bbf6131ac565b6001600160a01b0316145b610c1b5760405162461bcd60e51b815260206004820152601e60248201527f526f6c65733a2063616c6c6572206973206e6f7420746865206f776e6572000060448201526064015b60405180910390fd5b601855565b33610c29613114565b6001600160a01b03161480610c4d575033610c426131ac565b6001600160a01b0316145b610c995760405162461bcd60e51b815260206004820152601e60248201527f526f6c65733a2063616c6c6572206973206e6f7420746865206f776e657200006044820152606401610c12565b600b55565b33610ca7613114565b6001600160a01b03161480610ccb575033610cc06131ac565b6001600160a01b0316145b80610cf157503360009081526001602090815260408083206009845290915290205460ff165b610d635760405162461bcd60e51b815260206004820152603960248201527f43616c6c6572206973206e6f7420746865206f776e65722c206578656375746f60448201527f72206f7220617574686f72697a656420616374697661746f72000000000000006064820152608401610c12565b6001600160a01b039091166000908152600d6020526040902055565b3360009081526001602090815260408083206004845290915290205460ff16610dea5760405162461bcd60e51b815260206004820152601d60248201527f43616c6c696e6720636f6e74722e206e6f7420617574686f72697a65640000006044820152606401610c12565b6001600160a01b0385166000908152600c60205260409020610e0d81868661321d565b610e188184846132c8565b610e23818484613373565b4390555050505050565b6001600160a01b0381166000908152600c60205260408120610e59600182016002830160038401613493565b9150505b919050565b33610e6b613114565b6001600160a01b03161480610e8f575033610e846131ac565b6001600160a01b0316145b80610eb557503360009081526001602090815260408083206009845290915290205460ff165b610f275760405162461bcd60e51b815260206004820152603960248201527f43616c6c6572206973206e6f7420746865206f776e65722c206578656375746f60448201527f72206f7220617574686f72697a656420616374697661746f72000000000000006064820152608401610c12565b600081600081518110610f4a57634e487b7160e01b600052603260045260246000fd5b602002602001015190507f00000000000000000000000000000000000000000000000000000000000000006001600160a01b0316816001600160a01b031614611234576001600160a01b03811660009081526004602090815260409091206003810185905583519091610fc4916002840191860190615681565b50825167ffffffffffffffff811115610fed57634e487b7160e01b600052604160045260246000fd5b604051908082528060200260200182016040528015611016578160200160208202803683370190505b50805161102d916004840191602090910190615681565b506000805b80600186516110419190615dc9565b1115611155576110cf85828151811061106a57634e487b7160e01b600052603260045260246000fd5b6020026020010151868360016110809190615d54565b8151811061109e57634e487b7160e01b600052603260045260246000fd5b60200260200101518884602081106110c657634e487b7160e01b600052603260045260246000fd5b1a60f81b613520565b600081600287516110e09190615dc9565b6110ea9190615dc9565b6110f5906008615d8c565b87836020811061111557634e487b7160e01b600052603260045260246000fd5b1a60f81b7fff0000000000000000000000000000000000000000000000000000000000000016901c9290921791508061114d81615de0565b915050611032565b506005820181905560005b808551111561121f578460018287516111799190615dc9565b6111839190615dc9565b815181106111a157634e487b7160e01b600052603260045260246000fd5b60200260200101518360040182815481106111cc57634e487b7160e01b600052603260045260246000fd5b600091825260209091200180547fffffffffffffffffffffffff0000000000000000000000000000000000000000166001600160a01b03929092169190911790558061121781615de0565b915050611160565b5061122a84866137d8565b6001830155504290555b505050565b33600090815260016020908152604080832060048452909152812054819060ff166112a65760405162461bcd60e51b815260206004820181905260248201527f43616c6c696e6720636f6e74722e206e6f7420616e20617574686f72697a65646044820152606401610c12565b6001600160a01b038088166000908152600c602090815260408083209389168352600284019091529020541561142157600080611314606660009081526020527f422cccb7cea5c0e46f340bb7b21b81debac329f72e31669c20ff0f3a05cc2b5b546001600160a01b031690565b6001600160a01b03898116600081815260028701602090815260408083205460038a01909252918290205491517fe695fa6800000000000000000000000000000000000000000000000000000000815260048101919091526024810192909252604482015291169063e695fa68906064016040805180830381600087803b15801561139e57600080fd5b505af11580156113b2573d6000803e3d6000fd5b505050506040513d601f19601f820116820180604052508101906113d69190615bb0565b6001600160a01b038a166000908152600286016020908152604080832085905560038801909152902081905590925090506114118683613b2b565b945061141e838987613b43565b50505b6001600160a01b0387166000908152600582016020526040902054859080821115611456579050806114538188615dc9565b93505b83871115611496576114688488615dc9565b6001600160a01b038a166000908152600e602052604081208054909190611490908490615dc9565b90915550505b848611156114d6576114a88587615dc9565b6001600160a01b0389166000908152600e6020526040812080549091906114d0908490615d54565b90915550505b6001600160a01b0388166000908152600e6020908152604080832054600d9092529091205410156115495760405162461bcd60e51b815260206004820152601860248201527f4578636565647320676c6f62616c20746f6b656e2063617000000000000000006044820152606401610c12565b61155f838a8a8561155a8a8c615dc9565b613e14565b831561157057611570838a86613e60565b5050509550959350505050565b6001600160a01b0381166000908152600c60209081526040918290206004810180548451818502810185019095528085526060948594909291908301828280156115f057602002820191906000526020600020905b81546001600160a01b031681526001909101906020018083116115d2575b5050506004840154929550505067ffffffffffffffff81111561162357634e487b7160e01b600052604160045260246000fd5b60405190808252806020026020018201604052801561164c578160200160208202803683370190505b50915060005b80845111156116ed57600084828151811061167d57634e487b7160e01b600052603260045260246000fd5b60200260200101519050826005016000826001600160a01b03166001600160a01b03168152602001908152602001600020548483815181106116cf57634e487b7160e01b600052603260045260246000fd5b602090810291909101015250806116e581615de0565b915050611652565b5050915091565b6040517f93552a3d000000000000000000000000000000000000000000000000000000008152600481018390526001600160a01b0382811660248301527f000000000000000000000000000000000000000000000000000000000000000016906393552a3d9060440160206040518083038186803b15801561177557600080fd5b505afa158015611789573d6000803e3d6000fd5b505050506040513d601f19601f820116820180604052508101906117ad9190615a95565b6001600160a01b039190911660009081526001602090815260408083209483529390529190912080547fffffffffffffffffffffffffffffffffffffffffffffffffffffffffffffff0016911515919091179055565b6001600160a01b0381166000908152600c6020526040812081611830600183016002840160038501613493565b90506000611844836004018460050161411a565b9050611851816064615d8c565b82600b5461185f9190615d8c565b101595945050505050565b3360009081526001602090815260408083206004845290915290205460ff166118d55760405162461bcd60e51b815260206004820152601d60248201527f43616c6c696e6720636f6e74722e206e6f7420617574686f72697a65640000006044820152606401610c12565b6001600160a01b0383166000908152600c602052604090206118f88184846141a5565b6119038184846132c8565b50505050565b3360009081526001602090815260408083206004845290915281205460ff166119745760405162461bcd60e51b815260206004820152601d60248201527f43616c6c696e6720636f6e74722e206e6f7420617574686f72697a65640000006044820152606401610c12565b6001600160a01b038085166000908152600c602090815260408083204381559387168352600284019091529020548015611ae5576000806119e6606660009081526020527f422cccb7cea5c0e46f340bb7b21b81debac329f72e31669c20ff0f3a05cc2b5b546001600160a01b031690565b6001600160a01b038881166000818152600388016020526040908190205490517fe695fa68000000000000000000000000000000000000000000000000000000008152600481018890526024810192909252604482015291169063e695fa68906064016040805180830381600087803b158015611a6257600080fd5b505af1158015611a76573d6000803e3d6000fd5b505050506040513d601f19601f82011682018060405250810190611a9a9190615bb0565b6001600160a01b038916600090815260028701602090815260408083208590556003890190915290208190559092509050611ad58683613b2b565b9450611ae2848887613b43565b50505b6000611af18486615dc9565b9050611afe83878361321d565b5050509392505050565b33611b11613114565b6001600160a01b03161480611b35575033611b2a6131ac565b6001600160a01b0316145b611b815760405162461bcd60e51b815260206004820152601e60248201527f526f6c65733a2063616c6c6572206973206e6f7420746865206f776e657200006044820152606401610c12565b600855565b60007f00000000000000000000000000000000000000000000000000000000000000006001600160a01b0316846001600160a01b03161415611bc9575081611cc9565b6001600160a01b03841660009081526004602052604081208054909190611bf09042615dc9565b9050600654811180611c0457506001820154155b80611c185750838015611c18575060075481115b15611c9a576000611c8983600201805480602002602001604051908101604052809291908181526020018280548015611c7a57602002820191906000526020600020905b81546001600160a01b03168152600190910190602001808311611c5c575b505050505084600301546137d8565b9050611c988382600854614281565b505b6e010000000000000000000000000000826001015486611cba9190615d8c565b611cc49190615d6c565b925050505b9392505050565b6001600160a01b0381166000908152600c60205260408120610e59600482016005830161411a565b33611d01613114565b6001600160a01b03161480611d25575033611d1a6131ac565b6001600160a01b0316145b611d715760405162461bcd60e51b815260206004820152601e60248201527f526f6c65733a2063616c6c6572206973206e6f7420746865206f776e657200006044820152606401610c12565b61ffff909116600655600755565b33611d88613114565b6001600160a01b03161480611dac575033611da16131ac565b6001600160a01b0316145b611df85760405162461bcd60e51b815260206004820152601e60248201527f526f6c65733a2063616c6c6572206973206e6f7420746865206f776e657200006044820152606401610c12565b601655565b6000333214611e745760405162461bcd60e51b815260206004820152603a60248201527f43757272656e746c79206e6f20696e7465726d656469617269657320616c6c6f60448201527f77656420666f7220746869732066756e6374696f6e2063616c6c0000000000006064820152608401610c12565b6000611eb1606b60009081526020527f2dc7a963308417ad45132da282495eb244f38a7db03940a4d808be607669c622546001600160a01b031690565b6040517f7b23cbce0000000000000000000000000000000000000000000000000000000081523360048201526001600160a01b039190911690637b23cbce90602401602060405180830381600087803b158015611f0d57600080fd5b505af1158015611f21573d6000803e3d6000fd5b505050506040513d601f19601f82011682018060405250810190611f459190615a95565b905060008180611f585750611f586142c9565b9050611f6484836143a9565b92506000611f7061490b565b90506000611f7c6149e1565b9050611f8a601160006156fe565b600060646017546064611f9d9190615d54565b611fa79084615d8c565b611fb19190615d6c565b9050828111156120fe577f3555ffae7677eb42103f0b9e11b61c758f452fae446684dec7a363dd38ab58fc611fe68483615dc9565b60405190815260200160405180910390a18380156120fb5750807f00000000000000000000000000000000000000000000000000000000000000006001600160a01b03166370a0823161206a606560009081526020527f4a7203f705e51df4a56139a9b86b4a0970bed7ab7a3446eaffe2289989c1645c546001600160a01b031690565b6040517fffffffff0000000000000000000000000000000000000000000000000000000060e084901b1681526001600160a01b03909116600482015260240160206040518083038186803b1580156120c157600080fd5b505afa1580156120d5573d6000803e3d6000fd5b505050506040513d601f19601f820116820180604052508101906120f99190615b74565b115b93505b6000846121af57606b60009081526020527f2dc7a963308417ad45132da282495eb244f38a7db03940a4d808be607669c622546001600160a01b03166001600160a01b0316631a38de1d6040518163ffffffff1660e01b8152600401602060405180830381600087803b15801561217457600080fd5b505af1158015612188573d6000803e3d6000fd5b505050506040513d601f19601f820116820180604052508101906121ac91906157e6565b90505b60005b601254811015612424576000601282815481106121df57634e487b7160e01b600052603260045260246000fd5b60009182526020808320909101546001600160a01b0316808352600c909152604082209092509061220f82614aaf565b9050600061221c83614ac1565b905060006064601754836122309190615d8c565b61223a9190615d6c565b9050612246818e615d54565b9c508a6122b3576001600160a01b03858116600090815260146020526040902060028101839055600381018054337fffffffffffffffffffffffff000000000000000000000000000000000000000091821617909155438255600190910180549091169189169190911790555b600060646122c2846065615d8c565b6122cc9190615d6c565b6122d69083615d54565b9050808411156123c657606560009081526020527f4a7203f705e51df4a56139a9b86b4a0970bed7ab7a3446eaffe2289989c1645c546001600160a01b031663d9caed127f0000000000000000000000000000000000000000000000000000000000000000886123468589615dc9565b6040517fffffffff0000000000000000000000000000000000000000000000000000000060e086901b1681526001600160a01b0393841660048201529290911660248301526044820152606401600060405180830381600087803b1580156123ad57600080fd5b505af11580156123c1573d6000803e3d6000fd5b505050505b6040516001600160a01b03871681527f1d2cc4c8661a04a00b4e727426220501b36d85bb330947642c2d4320667028cf9060200160405180910390a161240b85614ad7565b505050505050808061241c90615de0565b9150506121b2565b5060648760155460636124379190615d8c565b6124419190615d54565b61244b9190615d6c565b601555841561252d57606560009081526020527f4a7203f705e51df4a56139a9b86b4a0970bed7ab7a3446eaffe2289989c1645c546001600160a01b03166040517fd9caed120000000000000000000000000000000000000000000000000000000081526001600160a01b037f000000000000000000000000000000000000000000000000000000000000000081166004830152336024830152604482018a9052919091169063d9caed1290606401600060405180830381600087803b15801561251457600080fd5b505af1158015612528573d6000803e3d6000fd5b505050505b600061256a606b60009081526020527f2dc7a963308417ad45132da282495eb244f38a7db03940a4d808be607669c622546001600160a01b031690565b6001600160a01b0316631a38de1d6040518163ffffffff1660e01b8152600401602060405180830381600087803b1580156125a457600080fd5b505af11580156125b8573d6000803e3d6000fd5b505050506040513d601f19601f820116820180604052508101906125dc91906157e6565b90508615612656576001600160a01b038116600090815260136020526040902054881015612637576001600160a01b038116600090815260136020526040812080548a929061262c908490615dc9565b909155506126519050565b6001600160a01b0381166000908152601360205260408120555b612684565b6001600160a01b038116600090815260136020526040812080548a929061267e908490615d54565b90915550505b50505050505050919050565b600981815481106126a057600080fd5b600091825260209091206003909102018054600182015460029092015490925083565b336126cc613114565b6001600160a01b031614806126f05750336126e56131ac565b6001600160a01b0316145b61273c5760405162461bcd60e51b815260206004820152601e60248201527f526f6c65733a2063616c6c6572206973206e6f7420746865206f776e657200006044820152606401610c12565b601755565b3361274a613114565b6001600160a01b0316148061276e5750336127636131ac565b6001600160a01b0316145b6127ba5760405162461bcd60e51b815260206004820152601e60248201527f526f6c65733a2063616c6c6572206973206e6f7420746865206f776e657200006044820152606401610c12565b600a55565b3360009081526001602090815260408083206004845290915290205460ff1661282a5760405162461bcd60e51b815260206004820152601c60248201527f43616c6c696e6720636f6e7472206e6f7420617574686f72697a6564000000006044820152606401610c12565b6001600160a01b0383166000908152600c60205260409020611903818484613373565b6001600160a01b0381166000908152600c60209081526040918290206001810180548451818502810185019095528085526060948594909291908301828280156128c057602002820191906000526020600020905b81546001600160a01b031681526001909101906020018083116128a2575b5050506001840154929550505067ffffffffffffffff8111156128f357634e487b7160e01b600052604160045260246000fd5b60405190808252806020026020018201604052801561291c578160200160208202803683370190505b50915060005b80845111156116ed57600084828151811061294d57634e487b7160e01b600052603260045260246000fd5b60200260200101519050612992606660009081526020527f422cccb7cea5c0e46f340bb7b21b81debac329f72e31669c20ff0f3a05cc2b5b546001600160a01b031690565b6001600160a01b03828116600081815260028701602090815260408083205460038a01909252918290205491517f76668b670000000000000000000000000000000000000000000000000000000081526004810191909152602481019290925260448201529116906376668b679060640160206040518083038186803b158015612a1b57600080fd5b505afa158015612a2f573d6000803e3d6000fd5b505050506040513d601f19601f82011682018060405250810190612a539190615b74565b848381518110612a7357634e487b7160e01b600052603260045260246000fd5b60209081029190910101525080612a8981615de0565b915050612922565b3360009081526001602090815260408083206004845290915290205460ff16612afc5760405162461bcd60e51b815260206004820152601d60248201527f43616c6c696e6720636f6e74722e206e6f7420617574686f72697a65640000006044820152606401610c12565b6001600160a01b0381166000908152600c60205260409020612b1d81614ac1565b15612b6a5760405162461bcd60e51b815260206004820152601a60248201527f43616e2774206c69717569646174653a20626f72726f77696e670000000000006044820152606401610c12565b610b0a81614ad7565b33612b7c613114565b6001600160a01b03161480612ba0575033612b956131ac565b6001600160a01b0316145b80612bee575033612be36103e960009081526020527f236f539bf6e1b3b15a335e3cd157d360bc4be88c071635c19ba8a82b4f665e9f546001600160a01b031690565b6001600160a01b0316145b612c605760405162461bcd60e51b815260206004820152603860248201527f43616c6c6572206973206e6f7420746865206f776e65722c206578656375746f60448201527f72206f7220617574686f72697a65642064697361626c657200000000000000006064820152608401610c12565b600060098281548110612c8357634e487b7160e01b600052603260045260246000fd5b90600052602060002090600302019050600081600101541115610b0a57600181015460085580546006556002015460075550565b33612cc0613114565b6001600160a01b03161480612ce4575033612cd96131ac565b6001600160a01b0316145b612d305760405162461bcd60e51b815260206004820152601e60248201527f526f6c65733a2063616c6c6572206973206e6f7420746865206f776e657200006044820152606401610c12565b604080516060810182529384526020840192835283019081526009805460018101825560009190915292517f6e1540171b6c0c960b71a7020d9f60077f6af931a8bbf590da0223dacf75c7af60039094029384015590517f6e1540171b6c0c960b71a7020d9f60077f6af931a8bbf590da0223dacf75c7b0830155517f6e1540171b6c0c960b71a7020d9f60077f6af931a8bbf590da0223dacf75c7b190910155565b33612ddc613114565b6001600160a01b03161480612e00575033612df56131ac565b6001600160a01b0316145b612e4c5760405162461bcd60e51b815260206004820152601e60248201527f526f6c65733a2063616c6c6572206973206e6f7420746865206f776e657200006044820152606401610c12565b600f55565b600281015460009015610e5d578154600090612e7990612e719043615dc9565b601654613b2b565b90506000601654828560020154612e909190615d8c565b612e9a9190615d6c565b9050612ed7606560009081526020527f4a7203f705e51df4a56139a9b86b4a0970bed7ab7a3446eaffe2289989c1645c546001600160a01b031690565b60038501546040517fd9caed120000000000000000000000000000000000000000000000000000000081526001600160a01b037f00000000000000000000000000000000000000000000000000000000000000008116600483015291821660248201526044810184905291169063d9caed1290606401600060405180830381600087803b158015612f6757600080fd5b505af1158015612f7b573d6000803e3d6000fd5b505050506000612fbc606b60009081526020527f2dc7a963308417ad45132da282495eb244f38a7db03940a4d808be607669c622546001600160a01b031690565b9050600060155483836001600160a01b0316630ad691506040518163ffffffff1660e01b815260040160206040518083038186803b158015612ffd57600080fd5b505afa158015613011573d6000803e3d6000fd5b505050506040513d601f19601f820116820180604052508101906130359190615b74565b61303f9190615d8c565b6130499190615d6c565b600187015460038801546040517f0a45bc1b0000000000000000000000000000000000000000000000000000000081526001600160a01b039283166004820152602481018490529082166044820152919250831690630a45bc1b90606401602060405180830381600087803b1580156130c157600080fd5b505af11580156130d5573d6000803e3d6000fd5b505050506040513d601f19601f820116820180604052508101906130f99190615b74565b5082866002015461310a9190615dc9565b9695505050505050565b60007f00000000000000000000000000000000000000000000000000000000000000006001600160a01b0316638da5cb5b6040518163ffffffff1660e01b815260040160206040518083038186803b15801561316f57600080fd5b505afa158015613183573d6000803e3d6000fd5b505050506040513d601f19601f820116820180604052508101906131a791906157e6565b905090565b60007f00000000000000000000000000000000000000000000000000000000000000006001600160a01b031663c34c08e56040518163ffffffff1660e01b8152600401602060405180830381600087803b15801561320957600080fd5b505af1158015613183573d6000803e3d6000fd5b6132288383836141a5565b6001600160a01b0382166000908152600e602052604081208054839290613250908490615d54565b90915550506001600160a01b0382166000908152600e6020908152604080832054600d9092529091205410156112345760405162461bcd60e51b815260206004820152601860248201527f4578636565647320676c6f62616c20746f6b656e2063617000000000000000006044820152606401610c12565b6001600160a01b0382166000908152600e6020526040812080548392906132f0908490615d54565b90915550506001600160a01b0382166000908152600e6020908152604080832054600d9092529091205410156133685760405162461bcd60e51b815260206004820152601860248201527f4578636565647320676c6f62616c20746f6b656e2063617000000000000000006044820152606401610c12565b611234838383613e60565b600f5483546133829190615d54565b43116133d05760405162461bcd60e51b815260206004820181905260248201527f4e6f207769746864726177616c20736f6f6e206166746572206465706f7369746044820152606401610c12565b6001600160a01b0382166000908152600e6020526040812080548392906133f8908490615dc9565b90915550506001600160a01b0382166000908152600584016020526040902054613423908290615dc9565b6001600160a01b038316600090815260058501602052604090205561344783614c49565b6112345760405162461bcd60e51b815260206004820152601460248201527f496e73756666696369656e742062616c616e63650000000000000000000000006044820152606401610c12565b8254600090815b818110156135175760008682815481106134c457634e487b7160e01b600052603260045260246000fd5b60009182526020808320909101546001600160a01b0316808352908890526040909120549091506134f790829087614c95565b6135019085615d54565b935050808061350f90615de0565b91505061349a565b50509392505050565b60007fff00000000000000000000000000000000000000000000000000000000000000821615613559576135548484614da4565b613563565b6135638484614ede565b6001600160a01b0380821660009081526005602090815260408083209389168352929052206001810154919250906137d1576000806000846001600160a01b0316630902f1ac6040518163ffffffff1660e01b815260040160606040518083038186803b1580156135d357600080fd5b505afa1580156135e7573d6000803e3d6000fd5b505050506040513d601f19601f8201168201806040525081019061360b9190615af6565b63ffffffff1692509250925060006136238989614fd9565b509050806001600160a01b0316896001600160a01b0316141561370657836dffffffffffffffffffffffffffff16836dffffffffffffffffffffffffffff166e01000000000000000000000000000061367c9190615d8c565b6136869190615d6c565b8560020181905550856001600160a01b0316635909c0d56040518163ffffffff1660e01b815260040160206040518083038186803b1580156136c757600080fd5b505afa1580156136db573d6000803e3d6000fd5b505050506040513d601f19601f820116820180604052508101906136ff9190615b74565b85556137c8565b826dffffffffffffffffffffffffffff16846dffffffffffffffffffffffffffff166e0100000000000000000000000000006137429190615d8c565b61374c9190615d6c565b8560020181905550856001600160a01b0316635a3d54936040518163ffffffff1660e01b815260040160206040518083038186803b15801561378d57600080fd5b505afa1580156137a1573d6000803e3d6000fd5b505050506040513d601f19601f820116820180604052508101906137c59190615b74565b85555b50600184015550505b5050505050565b6e01000000000000000000000000000060005b600184516137f99190615dc9565b811015613b2457600084828151811061382257634e487b7160e01b600052603260045260246000fd5b6020026020010151905060008583600161383c9190615d54565b8151811061385a57634e487b7160e01b600052603260045260246000fd5b60200260200101519050600085846020811061388657634e487b7160e01b600052603260045260246000fd5b1a60f81b7fff0000000000000000000000000000000000000000000000000000000000000016156138c0576138bb8383614da4565b6138ca565b6138ca8383614ede565b6001600160a01b038082166000818152600560209081526040808320948916835293905282812083517f0902f1ac0000000000000000000000000000000000000000000000000000000081529351949550939092630902f1ac916004808301926060929190829003018186803b15801561394357600080fd5b505afa158015613957573d6000803e3d6000fd5b505050506040513d601f19601f8201168201806040525081019061397b9190615af6565b63ffffffff169250505060008260010154826139979190615dc9565b9050600754811115613afa5760006139af8787614fd9565b5090506000816001600160a01b0316886001600160a01b031614613a4357856001600160a01b0316635a3d54936040518163ffffffff1660e01b815260040160206040518083038186803b158015613a0657600080fd5b505afa158015613a1a573d6000803e3d6000fd5b505050506040513d601f19601f82011682018060405250810190613a3e9190615b74565b613ab4565b856001600160a01b0316635909c0d56040518163ffffffff1660e01b815260040160206040518083038186803b158015613a7c57600080fd5b505afa158015613a90573d6000803e3d6000fd5b505050506040513d601f19601f82011682018060405250810190613ab49190615b74565b9050600083866000015483613ac99190615dc9565b613ad39190615d6c565b9050613adf8b826150c3565b6002870191909155908555600185018490559850613b0b9050565b613b088884600201546150c3565b97505b5050505050508080613b1c90615de0565b9150506137eb565b5092915050565b600081831115613b3c575080610b97565b5081610b97565b600080613b81606660009081526020527f422cccb7cea5c0e46f340bb7b21b81debac329f72e31669c20ff0f3a05cc2b5b546001600160a01b031690565b6001600160a01b03858116600081815260028901602090815260408083205460038c01909252918290205491517fe695fa6800000000000000000000000000000000000000000000000000000000815260048101919091526024810192909252604482015291169063e695fa68906064016040805180830381600087803b158015613c0b57600080fd5b505af1158015613c1f573d6000803e3d6000fd5b505050506040513d601f19601f82011682018060405250810190613c439190615bb0565b90925090506000613c548484615dc9565b6001600160a01b0386166000908152600288016020526040902081905590508015613c9b576001600160a01b03851660009081526003870160205260409020829055613e0c565b6001600160a01b038516600090815260038701602052604081208190556001870154815b80821115613d8f576000896001018281548110613cec57634e487b7160e01b600052603260045260246000fd5b6000918252602090912001546001600160a01b0390811691508916811415613d175760019350613d7c565b8315613d7c57808a600101600184613d2f9190615dc9565b81548110613d4d57634e487b7160e01b600052603260045260246000fd5b9060005260206000200160006101000a8154816001600160a01b0302191690836001600160a01b031602179055505b5080613d8781615de0565b915050613cbf565b5087600101805480613db157634e487b7160e01b600052603160045260246000fd5b60008281526020902081017fffffffffffffffffffffffffffffffffffffffffffffffffffffffffffffffff90810180547fffffffffffffffffffffffff000000000000000000000000000000000000000016905501905550505b505050505050565b6001600160a01b0384166000908152600586016020526040902054613e3a908390615dc9565b6001600160a01b03851660009081526005870160205260409020556137d18584836141a5565b6001600160a01b0382166000908152600384016020526040902054613fc7576001838101805491820181556000908152602090200180547fffffffffffffffffffffffff0000000000000000000000000000000000000000166001600160a01b038416179055613f01606660009081526020527f422cccb7cea5c0e46f340bb7b21b81debac329f72e31669c20ff0f3a05cc2b5b546001600160a01b031690565b6040517f46c87f800000000000000000000000000000000000000000000000000000000081526001600160a01b03848116600483015291909116906346c87f8090602401602060405180830381600087803b158015613f5f57600080fd5b505af1158015613f73573d6000803e3d6000fd5b505050506040513d601f19601f82011682018060405250810190613f979190615b74565b6001600160a01b038316600090815260038501602090815260408083209390935560028601905220819055614111565b600080614005606660009081526020527f422cccb7cea5c0e46f340bb7b21b81debac329f72e31669c20ff0f3a05cc2b5b546001600160a01b031690565b6001600160a01b03858116600081815260028901602090815260408083205460038c01909252918290205491517fe695fa6800000000000000000000000000000000000000000000000000000000815260048101919091526024810192909252604482015291169063e695fa68906064016040805180830381600087803b15801561408f57600080fd5b505af11580156140a3573d6000803e3d6000fd5b505050506040513d601f19601f820116820180604052508101906140c79190615bb0565b6001600160a01b0386166000908152600388016020526040902081905590925090506140f38383615d54565b6001600160a01b038516600090815260028701602052604090205550505b61344783614c49565b8154600090815b8181101561419d57600085828154811061414b57634e487b7160e01b600052603260045260246000fd5b60009182526020808320909101546001600160a01b03168083529087905260409091205490915061417d908290610b0e565b6141879085615d54565b935050808061419590615de0565b915050614121565b505092915050565b6001600160a01b038216600090815260068401602052604090205460ff1661424d57600483018054600180820183556000928352602080842090920180547fffffffffffffffffffffffff0000000000000000000000000000000000000000166001600160a01b038716908117909155835260068601909152604090912080547fffffffffffffffffffffffffffffffffffffffffffffffffffffffffffffff001690911790555b6001600160a01b038216600090815260058401602052604081208054839290614277908490615d54565b9091555050505050565b6103e861428e8284615d8c565b61429a836103e8615dc9565b85600101546142a99190615d8c565b6142b39190615d54565b6142bd9190615d6c565b60018401555050429055565b600080614307606b60009081526020527f2dc7a963308417ad45132da282495eb244f38a7db03940a4d808be607669c622546001600160a01b031690565b6001600160a01b031663b0411f466040518163ffffffff1660e01b8152600401604080518083038186803b15801561433e57600080fd5b505afa158015614352573d6000803e3d6000fd5b505050506040513d601f19601f820116820180604052508101906143769190615959565b5090506015546018546143899190615d8c565b6001600160a01b0390911660009081526013602052604090205411905090565b6040805160008082526020820192839052905190916143cb9160119190615681565b5060408051600081526020810191829052516143e991601291615681565b5060005b8084511115613b2457600084828151811061441857634e487b7160e01b600052603260045260246000fd5b602002602001015190506000600c6000836001600160a01b03166001600160a01b031681526020019081526020016000209050614454816150ff565b156148c1576012805460018101825560009182527fbb8a6a4669ba250d26cd7a459eca9d215f8307e33aebe50379bc5a3617ec34440180547fffffffffffffffffffffffff0000000000000000000000000000000000000000166001600160a01b0385161790556004820154905b808211156145f65760008360040182815481106144ef57634e487b7160e01b600052603260045260246000fd5b60009182526020808320909101546001600160a01b03168083526010909152604090912060028101549192509043146145ab576001600160a01b03821660008181526005870160205260408120546001808501919091558184554360028501556011805491820181559091527f31ecc21a745e3968a04e9570e4425bc18fa8019c68028196b546d1669c200c680180547fffffffffffffffffffffffff00000000000000000000000000000000000000001690911790556145e1565b6001600160a01b0382166000908152600586016020526040812054600183018054919290916145db908490615d54565b90915550505b505080806145ee90615de0565b9150506144c2565b5050600181015460005b808211156148be57600083600101828154811061462d57634e487b7160e01b600052603260045260246000fd5b60009182526020808320909101546001600160a01b03168083526010909152604082209092509061468f606660009081526020527f422cccb7cea5c0e46f340bb7b21b81debac329f72e31669c20ff0f3a05cc2b5b546001600160a01b031690565b6001600160a01b03848116600081815260028a01602090815260408083205460038d01909252918290205491517fe695fa6800000000000000000000000000000000000000000000000000000000815260048101919091526024810192909252604482015291169063e695fa68906064016040805180830381600087803b15801561471957600080fd5b505af115801561472d573d6000803e3d6000fd5b505050506040513d601f19601f820116820180604052508101906147519190615bb0565b50905061478f606660009081526020527f422cccb7cea5c0e46f340bb7b21b81debac329f72e31669c20ff0f3a05cc2b5b546001600160a01b031690565b6040517f2a6a897b0000000000000000000000000000000000000000000000000000000081526001600160a01b038581166004830152602482018490529190911690632a6a897b90604401600060405180830381600087803b1580156147f457600080fd5b505af1158015614808573d6000803e3d6000fd5b505050504382600201541461488e57600060018381018290558284554360028501556011805491820181559091527f31ecc21a745e3968a04e9570e4425bc18fa8019c68028196b546d1669c200c680180547fffffffffffffffffffffffff0000000000000000000000000000000000000000166001600160a01b0385161790556148a8565b808260000160008282546148a29190615d54565b90915550505b50505080806148b690615de0565b915050614600565b50505b6001600160a01b038216600090815260146020526040902085156148f5576148e881612e51565b6148f29086615d54565b94505b505050808061490390615de0565b9150506143ed565b601154600090815b808211156149dc5760006011828154811061493e57634e487b7160e01b600052603260045260246000fd5b60009182526020808320909101546001600160a01b03168083526010909152604090912080546001820154929350909111156149c7578054600182015460009161498791615dc9565b9050614993838261513c565b61499d9087615d54565b6001600160a01b038416600090815260106020526040812081815560018101829055600201559550505b505080806149d490615de0565b915050614913565b505090565b601154600090815b808211156149dc57600060118281548110614a1457634e487b7160e01b600052603260045260246000fd5b60009182526020808320909101546001600160a01b0316808352601090915260409091206001810154815492935090911115614a9a57614a678282600101548360000154614a629190615dc9565b6152c6565b614a719086615d54565b6001600160a01b0383166000908152601060205260408120818155600181018290556002015594505b50508080614aa790615de0565b9150506149e9565b6000610b97826004018360050161545d565b6000610b978260010183600201846003016154e0565b600181015460005b80821115614b50576000836001018281548110614b0c57634e487b7160e01b600052603260045260246000fd5b60009182526020808320909101546001600160a01b031682526002860181526040808320839055600387019091528120555080614b4881615de0565b915050614adf565b5050600481015460005b80821115614c2c576000836004018281548110614b8757634e487b7160e01b600052603260045260246000fd5b60009182526020808320909101546001600160a01b0316808352600587018252604080842054600e90935283208054919450919290614bc7908490615dc9565b90915550506001600160a01b03166000908152600584016020908152604080832083905560068601909152902080547fffffffffffffffffffffffffffffffffffffffffffffffffffffffffffffff0016905580614c2481615de0565b915050614b5a565b50614c3b6001830160006156fe565b610b0a6004830160006156fe565b600080614c5583614ac1565b90506000614c6284614aaf565b9050600a5482614c729190615d8c565b6064600a54614c819190615dc9565b614c8b9083615d8c565b1015949350505050565b600080614cd3606660009081526020527f422cccb7cea5c0e46f340bb7b21b81debac329f72e31669c20ff0f3a05cc2b5b546001600160a01b031690565b6040517f14189db20000000000000000000000000000000000000000000000000000000081526001600160a01b03878116600483015291909116906314189db29060240160206040518083038186803b158015614d2f57600080fd5b505afa158015614d43573d6000803e3d6000fd5b505050506040513d601f19601f82011682018060405250810190614d679190615b74565b6001600160a01b03861660009081526020859052604081205491925090614d8e8387615d8c565b614d989190615d6c565b9050611cc48682610b0e565b6000806000614db38585614fd9565b6040517fffffffffffffffffffffffffffffffffffffffff000000000000000000000000606084811b8216602084015283901b16603482015291935091507f00000000000000000000000000000000000000000000000000000000000000009060480160405160208183030381529060405280519060200120600354604051602001614e9f939291907fff00000000000000000000000000000000000000000000000000000000000000815260609390931b7fffffffffffffffffffffffffffffffffffffffff0000000000000000000000001660018401526015830191909152603582015260550190565b604080517fffffffffffffffffffffffffffffffffffffffffffffffffffffffffffffffe0818403018152919052805160209091012095945050505050565b6000806000614eed8585614fd9565b6040517fffffffffffffffffffffffffffffffffffffffff000000000000000000000000606084811b8216602084015283901b16603482015291935091507f00000000000000000000000000000000000000000000000000000000000000009060480160405160208183030381529060405280519060200120600254604051602001614e9f939291907fff00000000000000000000000000000000000000000000000000000000000000815260609390931b7fffffffffffffffffffffffffffffffffffffffff0000000000000000000000001660018401526015830191909152603582015260550190565b600080826001600160a01b0316846001600160a01b0316141561503e5760405162461bcd60e51b815260206004820152601260248201527f4964656e746963616c20616464726573732100000000000000000000000000006044820152606401610c12565b826001600160a01b0316846001600160a01b03161061505e578284615061565b83835b90925090506001600160a01b0382166150bc5760405162461bcd60e51b815260206004820152600d60248201527f5a65726f206164647265737321000000000000000000000000000000000000006044820152606401610c12565b9250929050565b60006c010000000000000000000000006150df61010084615d6c565b6150eb61010086615d6c565b6150f59190615d8c565b611cc99190615d6c565b60008061510b83614ac1565b9050600061511884614aaf565b905081600b546151289190615d8c565b615133826064615d8c565b10949350505050565b60007f00000000000000000000000000000000000000000000000000000000000000006001600160a01b0316836001600160a01b0316141561517f575080610b97565b6001600160a01b0383166000908152600460205260408120906151d3606760009081526020527f682158d08466d11c566d5712d4396197fdd67e65be71d83c97ef719ec468867b546001600160a01b031690565b6001600160a01b031663351ae6108560008560030154866002016040518563ffffffff1660e01b815260040161520c9493929190615cbc565b600060405180830381600087803b15801561522657600080fd5b505af115801561523a573d6000803e3d6000fd5b505050506040513d6000823e601f3d9081017fffffffffffffffffffffffffffffffffffffffffffffffffffffffffffffffe01682016040526152809190810190615a02565b9050600081600183516152939190615dc9565b815181106152b157634e487b7160e01b600052603260045260246000fd5b60200260200101519050809350505050610b97565b60007f00000000000000000000000000000000000000000000000000000000000000006001600160a01b0316836001600160a01b03161415615309575080610b97565b6001600160a01b03831660009081526004602052604081209061535d606760009081526020527f682158d08466d11c566d5712d4396197fdd67e65be71d83c97ef719ec468867b546001600160a01b031690565b6001600160a01b03166353d7ff9f857fffffffffffffffffffffffffffffffffffffffffffffffffffffffffffffffff8560030154866004016040518563ffffffff1660e01b81526004016153b59493929190615cbc565b600060405180830381600087803b1580156153cf57600080fd5b505af11580156153e3573d6000803e3d6000fd5b505050506040513d6000823e601f3d9081017fffffffffffffffffffffffffffffffffffffffffffffffffffffffffffffffe01682016040526154299190810190615a02565b90508060008151811061544c57634e487b7160e01b600052603260045260246000fd5b602002602001015192505050610b97565b8154600090815b8181101561419d57600085828154811061548e57634e487b7160e01b600052603260045260246000fd5b60009182526020808320909101546001600160a01b0316808352908790526040909120549091506154c0908290615564565b6154ca9085615d54565b93505080806154d890615de0565b915050615464565b8254600090815b8181101561351757600086828154811061551157634e487b7160e01b600052603260045260246000fd5b60009182526020808320909101546001600160a01b03168083529088905260409091205490915061554490829087615572565b61554e9085615d54565b935050808061555c90615de0565b9150506154e7565b6000611cc983836000611b86565b6000806155b0606660009081526020527f422cccb7cea5c0e46f340bb7b21b81debac329f72e31669c20ff0f3a05cc2b5b546001600160a01b031690565b6040517f14189db20000000000000000000000000000000000000000000000000000000081526001600160a01b03878116600483015291909116906314189db29060240160206040518083038186803b15801561560c57600080fd5b505afa158015615620573d6000803e3d6000fd5b505050506040513d601f19601f820116820180604052508101906156449190615b74565b6001600160a01b0386166000908152602085905260408120549192509061566b8387615d8c565b6156759190615d6c565b9050611cc48682615564565b8280548282559060005260206000209081019282156156ee579160200282015b828111156156ee57825182547fffffffffffffffffffffffff0000000000000000000000000000000000000000166001600160a01b039091161782556020909201916001909101906156a1565b506156fa92915061571f565b5090565b508054600082559060005260206000209081019061571c919061571f565b50565b5b808211156156fa5760008155600101615720565b600082601f830112615744578081fd5b8135602061575961575483615d30565b615ce1565b80838252828201915082860187848660051b8901011115615778578586fd5b855b8581101561579f57813561578d81615e45565b8452928401929084019060010161577a565b5090979650505050505050565b80516dffffffffffffffffffffffffffff81168114610e5d57600080fd5b6000602082840312156157db578081fd5b8135611cc981615e45565b6000602082840312156157f7578081fd5b8151611cc981615e45565b60008060408385031215615814578081fd5b823561581f81615e45565b9150602083013561582f81615e45565b809150509250929050565b600080600080600060a08688031215615851578081fd5b853561585c81615e45565b9450602086013561586c81615e45565b9350604086013561587c81615e45565b94979396509394606081013594506080013592915050565b6000806000606084860312156158a8578283fd5b83356158b381615e45565b925060208401356158c381615e45565b929592945050506040919091013590565b600080600080600060a086880312156158eb578081fd5b85356158f681615e45565b9450602086013561590681615e45565b935060408601359250606086013561591d81615e45565b949793965091946080013592915050565b60008060408385031215615940578182fd5b823561594b81615e45565b946020939093013593505050565b6000806040838503121561596b578182fd5b825161597681615e45565b6020939093015192949293505050565b60008060006060848603121561599a578081fd5b83356159a581615e45565b92506020840135915060408401356159bc81615e5a565b809150509250925092565b6000602082840312156159d8578081fd5b813567ffffffffffffffff8111156159ee578182fd5b6159fa84828501615734565b949350505050565b60006020808385031215615a14578182fd5b825167ffffffffffffffff811115615a2a578283fd5b8301601f81018513615a3a578283fd5b8051615a4861575482615d30565b80828252848201915084840188868560051b8701011115615a67578687fd5b8694505b83851015615a89578051835260019490940193918501918501615a6b565b50979650505050505050565b600060208284031215615aa6578081fd5b8151611cc981615e5a565b60008060408385031215615ac3578182fd5b82359150602083013567ffffffffffffffff811115615ae0578182fd5b615aec85828601615734565b9150509250929050565b600080600060608486031215615b0a578081fd5b615b13846157ac565b9250615b21602085016157ac565b9150604084015163ffffffff811681146159bc578182fd5b60008060408385031215615b4b578182fd5b823561ffff8116811461594b578283fd5b600060208284031215615b6d578081fd5b5035919050565b600060208284031215615b85578081fd5b5051919050565b60008060408385031215615b9e578182fd5b82359150602083013561582f81615e45565b60008060408385031215615bc2578182fd5b505080516020909101519092909150565b600080600060608486031215615be7578081fd5b505081359360208301359350604090920135919050565b6000815480845260208085019450838352808320835b83811015615c395781546001600160a01b031687529582019560019182019101615c14565b509495945050505050565b604080825283519082018190526000906020906060840190828701845b82811015615c885781516001600160a01b0316845260208401935090840190600101615c61565b50505083810382850152845180825285830191830190845b8181101561579f57835183529284019291840191600101615ca0565b60008582528460208301528360408301526080606083015261310a6080830184615bfe565b604051601f82017fffffffffffffffffffffffffffffffffffffffffffffffffffffffffffffffe016810167ffffffffffffffff81118282101715615d2857615d28615e2f565b604052919050565b600067ffffffffffffffff821115615d4a57615d4a615e2f565b5060051b60200190565b60008219821115615d6757615d67615e19565b500190565b600082615d8757634e487b7160e01b81526012600452602481fd5b500490565b6000817fffffffffffffffffffffffffffffffffffffffffffffffffffffffffffffffff0483118215151615615dc457615dc4615e19565b500290565b600082821015615ddb57615ddb615e19565b500390565b60007fffffffffffffffffffffffffffffffffffffffffffffffffffffffffffffffff821415615e1257615e12615e19565b5060010190565b634e487b7160e01b600052601160045260246000fd5b634e487b7160e01b600052604160045260246000fd5b6001600160a01b038116811461571c57600080fd5b801515811461571c57600080fdfea2646970667358221220a30659a5ed380fe910d79c96cd201088c3395aa697bd515c7e36347201f9289c64736f6c63430008030033",
  "linkReferences": {},
  "deployedLinkReferences": {}
}