{
  "_format": "hh-sol-artifact-1",
  "contractName": "CrossMarginTrading",
  "sourceName": "contracts/CrossMarginTrading.sol",
  "abi": [
    {
      "inputs": [
        {
          "internalType": "address",
          "name": "_peg",
          "type": "address"
        },
        {
          "internalType": "address",
          "name": "_amm1Factory",
          "type": "address"
        },
        {
          "internalType": "address",
          "name": "_amm2Factory",
          "type": "address"
        },
        {
          "internalType": "address",
          "name": "_amm3Factory",
          "type": "address"
        },
        {
          "internalType": "bytes32",
          "name": "_amm1InitHash",
          "type": "bytes32"
        },
        {
          "internalType": "bytes32",
          "name": "_amm2InitHash",
          "type": "bytes32"
        },
        {
          "internalType": "bytes32",
          "name": "_amm3InitHash",
          "type": "bytes32"
        },
        {
          "internalType": "uint256",
          "name": "_feeBase",
          "type": "uint256"
        },
        {
          "internalType": "address",
          "name": "_roles",
          "type": "address"
        }
      ],
      "stateMutability": "nonpayable",
      "type": "constructor"
    },
    {
      "anonymous": false,
      "inputs": [
        {
          "indexed": false,
          "internalType": "address",
          "name": "account",
          "type": "address"
        }
      ],
      "name": "AccountLiquidated",
      "type": "event"
    },
    {
      "anonymous": false,
      "inputs": [
        {
          "indexed": false,
          "internalType": "uint256",
          "name": "amount",
          "type": "uint256"
        }
      ],
      "name": "LiquidationShortfall",
      "type": "event"
    },
    {
      "inputs": [],
      "name": "MAINTAINER_CUT_PERCENT",
      "outputs": [
        {
          "internalType": "uint256",
          "name": "",
          "type": "uint256"
        }
      ],
      "stateMutability": "view",
      "type": "function"
    },
    {
      "inputs": [],
      "name": "UPDATE_RATE_PERMIL",
      "outputs": [
        {
          "internalType": "uint256",
          "name": "",
          "type": "uint256"
        }
      ],
      "stateMutability": "view",
      "type": "function"
    },
    {
      "inputs": [
        {
          "internalType": "uint256",
          "name": "_priceUpdateWindow",
          "type": "uint256"
        },
        {
          "internalType": "uint256",
          "name": "_updateRatePermil",
          "type": "uint256"
        },
        {
          "internalType": "uint256",
          "name": "_voluntaryUpdateWindow",
          "type": "uint256"
        }
      ],
      "name": "addVolatilitySetting",
      "outputs": [],
      "stateMutability": "nonpayable",
      "type": "function"
    },
    {
      "inputs": [],
      "name": "amm1Factory",
      "outputs": [
        {
          "internalType": "address",
          "name": "",
          "type": "address"
        }
      ],
      "stateMutability": "view",
      "type": "function"
    },
    {
      "inputs": [],
      "name": "amm1InitHash",
      "outputs": [
        {
          "internalType": "bytes32",
          "name": "",
          "type": "bytes32"
        }
      ],
      "stateMutability": "view",
      "type": "function"
    },
    {
      "inputs": [],
      "name": "amm2Factory",
      "outputs": [
        {
          "internalType": "address",
          "name": "",
          "type": "address"
        }
      ],
      "stateMutability": "view",
      "type": "function"
    },
    {
      "inputs": [],
      "name": "amm2InitHash",
      "outputs": [
        {
          "internalType": "bytes32",
          "name": "",
          "type": "bytes32"
        }
      ],
      "stateMutability": "view",
      "type": "function"
    },
    {
      "inputs": [],
      "name": "amm3Factory",
      "outputs": [
        {
          "internalType": "address",
          "name": "",
          "type": "address"
        }
      ],
      "stateMutability": "view",
      "type": "function"
    },
    {
      "inputs": [],
      "name": "amm3InitHash",
      "outputs": [
        {
          "internalType": "bytes32",
          "name": "",
          "type": "bytes32"
        }
      ],
      "stateMutability": "view",
      "type": "function"
    },
    {
      "inputs": [],
      "name": "avgLiquidationPerCall",
      "outputs": [
        {
          "internalType": "uint256",
          "name": "",
          "type": "uint256"
        }
      ],
      "stateMutability": "view",
      "type": "function"
    },
    {
      "inputs": [
        {
          "internalType": "address",
          "name": "trader",
          "type": "address"
        }
      ],
      "name": "canBeLiquidated",
      "outputs": [
        {
          "internalType": "bool",
          "name": "",
          "type": "bool"
        }
      ],
      "stateMutability": "view",
      "type": "function"
    },
    {
      "inputs": [
        {
          "internalType": "uint256",
          "name": "index",
          "type": "uint256"
        }
      ],
      "name": "chooseVolatilitySetting",
      "outputs": [],
      "stateMutability": "nonpayable",
      "type": "function"
    },
    {
      "inputs": [],
      "name": "coolingOffPeriod",
      "outputs": [
        {
          "internalType": "uint256",
          "name": "",
          "type": "uint256"
        }
      ],
      "stateMutability": "view",
      "type": "function"
    },
    {
      "inputs": [
        {
          "internalType": "address[]",
          "name": "liquidatedAccounts",
          "type": "address[]"
        }
      ],
      "name": "disburseLiqStakeAttacks",
      "outputs": [],
      "stateMutability": "nonpayable",
      "type": "function"
    },
    {
      "inputs": [],
      "name": "failureThreshold",
      "outputs": [
        {
          "internalType": "uint256",
          "name": "",
          "type": "uint256"
        }
      ],
      "stateMutability": "view",
      "type": "function"
    },
    {
      "inputs": [],
      "name": "feeBase",
      "outputs": [
        {
          "internalType": "uint256",
          "name": "",
          "type": "uint256"
        }
      ],
      "stateMutability": "view",
      "type": "function"
    },
    {
      "inputs": [
        {
          "internalType": "address",
          "name": "trader",
          "type": "address"
        }
      ],
      "name": "getBorrowAmounts",
      "outputs": [
        {
          "internalType": "address[]",
          "name": "borrowTokens",
          "type": "address[]"
        },
        {
          "internalType": "uint256[]",
          "name": "borrowAmounts",
          "type": "uint256[]"
        }
      ],
      "stateMutability": "view",
      "type": "function"
    },
    {
      "inputs": [
        {
          "internalType": "address",
          "name": "token",
          "type": "address"
        },
        {
          "internalType": "uint256",
          "name": "inAmount",
          "type": "uint256"
        },
        {
          "internalType": "bool",
          "name": "voluntary",
          "type": "bool"
        }
      ],
      "name": "getCurrentPriceInPeg",
      "outputs": [
        {
          "internalType": "uint256",
          "name": "priceInPeg",
          "type": "uint256"
        }
      ],
      "stateMutability": "nonpayable",
      "type": "function"
    },
    {
      "inputs": [
        {
          "internalType": "address",
          "name": "trader",
          "type": "address"
        }
      ],
      "name": "getHoldingAmounts",
      "outputs": [
        {
          "internalType": "address[]",
          "name": "holdingTokens",
          "type": "address[]"
        },
        {
          "internalType": "uint256[]",
          "name": "holdingAmounts",
          "type": "uint256[]"
        }
      ],
      "stateMutability": "view",
      "type": "function"
    },
    {
      "inputs": [],
      "name": "leveragePercent",
      "outputs": [
        {
          "internalType": "uint256",
          "name": "",
          "type": "uint256"
        }
      ],
      "stateMutability": "view",
      "type": "function"
    },
    {
      "inputs": [],
      "name": "liqStakeAttackWindow",
      "outputs": [
        {
          "internalType": "uint256",
          "name": "",
          "type": "uint256"
        }
      ],
      "stateMutability": "view",
      "type": "function"
    },
    {
      "inputs": [
        {
          "internalType": "address[]",
          "name": "liquidationCandidates",
          "type": "address[]"
        }
      ],
      "name": "liquidate",
      "outputs": [
        {
          "internalType": "uint256",
          "name": "maintainerCut",
          "type": "uint256"
        }
      ],
      "stateMutability": "nonpayable",
      "type": "function"
    },
    {
      "inputs": [],
      "name": "liquidationThresholdPercent",
      "outputs": [
        {
          "internalType": "uint256",
          "name": "",
          "type": "uint256"
        }
      ],
      "stateMutability": "view",
      "type": "function"
    },
    {
      "inputs": [
        {
          "internalType": "uint256",
          "name": "",
          "type": "uint256"
        }
      ],
      "name": "mainCharacterCache",
      "outputs": [
        {
          "internalType": "address",
          "name": "",
          "type": "address"
        }
      ],
      "stateMutability": "view",
      "type": "function"
    },
    {
      "inputs": [
        {
          "internalType": "address",
          "name": "",
          "type": "address"
        }
      ],
      "name": "maintenanceFailures",
      "outputs": [
        {
          "internalType": "uint256",
          "name": "",
          "type": "uint256"
        }
      ],
      "stateMutability": "view",
      "type": "function"
    },
    {
      "inputs": [
        {
          "internalType": "address",
          "name": "",
          "type": "address"
        },
        {
          "internalType": "address",
          "name": "",
          "type": "address"
        }
      ],
      "name": "pairPrices",
      "outputs": [
        {
          "internalType": "uint256",
          "name": "cumulative",
          "type": "uint256"
        },
        {
          "internalType": "uint256",
          "name": "lastUpdated",
          "type": "uint256"
        },
        {
          "internalType": "uint256",
          "name": "priceFP",
          "type": "uint256"
        }
      ],
      "stateMutability": "view",
      "type": "function"
    },
    {
      "inputs": [],
      "name": "peg",
      "outputs": [
        {
          "internalType": "address",
          "name": "",
          "type": "address"
        }
      ],
      "stateMutability": "view",
      "type": "function"
    },
    {
      "inputs": [],
      "name": "priceUpdateWindow",
      "outputs": [
        {
          "internalType": "uint256",
          "name": "",
          "type": "uint256"
        }
      ],
      "stateMutability": "view",
      "type": "function"
    },
    {
      "inputs": [
        {
          "internalType": "address",
          "name": "trader",
          "type": "address"
        },
        {
          "internalType": "address",
          "name": "borrowToken",
          "type": "address"
        },
        {
          "internalType": "uint256",
          "name": "borrowAmount",
          "type": "uint256"
        }
      ],
      "name": "registerBorrow",
      "outputs": [],
      "stateMutability": "nonpayable",
      "type": "function"
    },
    {
      "inputs": [
        {
          "internalType": "address",
          "name": "trader",
          "type": "address"
        },
        {
          "internalType": "address",
          "name": "token",
          "type": "address"
        },
        {
          "internalType": "uint256",
          "name": "depositAmount",
          "type": "uint256"
        }
      ],
      "name": "registerDeposit",
      "outputs": [
        {
          "internalType": "uint256",
          "name": "extinguishableDebt",
          "type": "uint256"
        }
      ],
      "stateMutability": "nonpayable",
      "type": "function"
    },
    {
      "inputs": [
        {
          "internalType": "address",
          "name": "trader",
          "type": "address"
        }
      ],
      "name": "registerLiquidation",
      "outputs": [],
      "stateMutability": "nonpayable",
      "type": "function"
    },
    {
      "inputs": [
        {
          "internalType": "address",
          "name": "trader",
          "type": "address"
        },
        {
          "internalType": "address",
          "name": "depositToken",
          "type": "address"
        },
        {
          "internalType": "uint256",
          "name": "depositAmount",
          "type": "uint256"
        },
        {
          "internalType": "address",
          "name": "borrowToken",
          "type": "address"
        },
        {
          "internalType": "uint256",
          "name": "withdrawAmount",
          "type": "uint256"
        }
      ],
      "name": "registerOvercollateralizedBorrow",
      "outputs": [],
      "stateMutability": "nonpayable",
      "type": "function"
    },
    {
      "inputs": [
        {
          "internalType": "address",
          "name": "trader",
          "type": "address"
        },
        {
          "internalType": "address",
          "name": "borrowToken",
          "type": "address"
        },
        {
          "internalType": "uint256",
          "name": "borrowAmount",
          "type": "uint256"
        }
      ],
      "name": "registerRawBorrow",
      "outputs": [],
      "stateMutability": "nonpayable",
      "type": "function"
    },
    {
      "inputs": [
        {
          "internalType": "address",
          "name": "trader",
          "type": "address"
        },
        {
          "internalType": "address",
          "name": "tokenFrom",
          "type": "address"
        },
        {
          "internalType": "address",
          "name": "tokenTo",
          "type": "address"
        },
        {
          "internalType": "uint256",
          "name": "inAmount",
          "type": "uint256"
        },
        {
          "internalType": "uint256",
          "name": "outAmount",
          "type": "uint256"
        }
      ],
      "name": "registerTradeAndBorrow",
      "outputs": [
        {
          "internalType": "uint256",
          "name": "extinguishableDebt",
          "type": "uint256"
        },
        {
          "internalType": "uint256",
          "name": "borrowAmount",
          "type": "uint256"
        }
      ],
      "stateMutability": "nonpayable",
      "type": "function"
    },
    {
      "inputs": [
        {
          "internalType": "address",
          "name": "trader",
          "type": "address"
        },
        {
          "internalType": "address",
          "name": "withdrawToken",
          "type": "address"
        },
        {
          "internalType": "uint256",
          "name": "withdrawAmount",
          "type": "uint256"
        }
      ],
      "name": "registerWithdrawal",
      "outputs": [],
      "stateMutability": "nonpayable",
      "type": "function"
    },
    {
      "inputs": [
        {
          "internalType": "address",
          "name": "",
          "type": "address"
        },
        {
          "internalType": "uint256",
          "name": "",
          "type": "uint256"
        }
      ],
      "name": "roleCache",
      "outputs": [
        {
          "internalType": "bool",
          "name": "",
          "type": "bool"
        }
      ],
      "stateMutability": "view",
      "type": "function"
    },
    {
      "inputs": [],
      "name": "roles",
      "outputs": [
        {
          "internalType": "contract Roles",
          "name": "",
          "type": "address"
        }
      ],
      "stateMutability": "view",
      "type": "function"
    },
    {
      "inputs": [
        {
          "internalType": "uint256",
          "name": "blocks",
          "type": "uint256"
        }
      ],
      "name": "setCoolingOffPeriod",
      "outputs": [],
      "stateMutability": "nonpayable",
      "type": "function"
    },
    {
      "inputs": [
        {
          "internalType": "uint256",
          "name": "threshFactor",
          "type": "uint256"
        }
      ],
      "name": "setFailureThreshold",
      "outputs": [],
      "stateMutability": "nonpayable",
      "type": "function"
    },
    {
      "inputs": [
        {
          "internalType": "uint256",
          "name": "_leveragePercent",
          "type": "uint256"
        }
      ],
      "name": "setLeveragePercent",
      "outputs": [],
      "stateMutability": "nonpayable",
      "type": "function"
    },
    {
      "inputs": [
        {
          "internalType": "uint256",
          "name": "window",
          "type": "uint256"
        }
      ],
      "name": "setLiqStakeAttackWindow",
      "outputs": [],
      "stateMutability": "nonpayable",
      "type": "function"
    },
    {
      "inputs": [
        {
          "internalType": "bytes32",
          "name": "amms",
          "type": "bytes32"
        },
        {
          "internalType": "address[]",
          "name": "tokens",
          "type": "address[]"
        }
      ],
      "name": "setLiquidationPath",
      "outputs": [],
      "stateMutability": "nonpayable",
      "type": "function"
    },
    {
      "inputs": [
        {
          "internalType": "uint256",
          "name": "threshold",
          "type": "uint256"
        }
      ],
      "name": "setLiquidationThresholdPercent",
      "outputs": [],
      "stateMutability": "nonpayable",
      "type": "function"
    },
    {
      "inputs": [
        {
          "internalType": "uint256",
          "name": "cut",
          "type": "uint256"
        }
      ],
      "name": "setMaintainerCutPercent",
      "outputs": [],
      "stateMutability": "nonpayable",
      "type": "function"
    },
    {
      "inputs": [
        {
          "internalType": "uint16",
          "name": "window",
          "type": "uint16"
        },
        {
          "internalType": "uint256",
          "name": "voluntaryWindow",
          "type": "uint256"
        }
      ],
      "name": "setPriceUpdateWindow",
      "outputs": [],
      "stateMutability": "nonpayable",
      "type": "function"
    },
    {
      "inputs": [
        {
          "internalType": "address",
          "name": "token",
          "type": "address"
        },
        {
          "internalType": "uint256",
          "name": "cap",
          "type": "uint256"
        }
      ],
      "name": "setTokenCap",
      "outputs": [],
      "stateMutability": "nonpayable",
      "type": "function"
    },
    {
      "inputs": [
        {
          "internalType": "uint256",
          "name": "rate",
          "type": "uint256"
        }
      ],
      "name": "setUpdateRate",
      "outputs": [],
      "stateMutability": "nonpayable",
      "type": "function"
    },
    {
      "inputs": [
        {
          "internalType": "address",
          "name": "",
          "type": "address"
        }
      ],
      "name": "stakeAttackRecords",
      "outputs": [
        {
          "internalType": "uint256",
          "name": "blockNum",
          "type": "uint256"
        },
        {
          "internalType": "address",
          "name": "loser",
          "type": "address"
        },
        {
          "internalType": "uint256",
          "name": "amount",
          "type": "uint256"
        },
        {
          "internalType": "address",
          "name": "stakeAttacker",
          "type": "address"
        }
      ],
      "stateMutability": "view",
      "type": "function"
    },
    {
      "inputs": [
        {
          "internalType": "address",
          "name": "",
          "type": "address"
        }
      ],
      "name": "tokenCaps",
      "outputs": [
        {
          "internalType": "uint256",
          "name": "",
          "type": "uint256"
        }
      ],
      "stateMutability": "view",
      "type": "function"
    },
    {
      "inputs": [
        {
          "internalType": "address",
          "name": "",
          "type": "address"
        }
      ],
      "name": "tokenPrices",
      "outputs": [
        {
          "internalType": "uint256",
          "name": "lastUpdated",
          "type": "uint256"
        },
        {
          "internalType": "uint256",
          "name": "priceFP",
          "type": "uint256"
        },
        {
          "internalType": "bytes32",
          "name": "amms",
          "type": "bytes32"
        },
        {
          "internalType": "bytes32",
          "name": "inverseAmms",
          "type": "bytes32"
        }
      ],
      "stateMutability": "view",
      "type": "function"
    },
    {
      "inputs": [
        {
          "internalType": "address",
          "name": "",
          "type": "address"
        }
      ],
      "name": "totalLong",
      "outputs": [
        {
          "internalType": "uint256",
          "name": "",
          "type": "uint256"
        }
      ],
      "stateMutability": "view",
      "type": "function"
    },
    {
      "inputs": [
        {
          "internalType": "uint256",
          "name": "role",
          "type": "uint256"
        }
      ],
      "name": "updateMainCharacterCache",
      "outputs": [],
      "stateMutability": "nonpayable",
      "type": "function"
    },
    {
      "inputs": [
        {
          "internalType": "uint256",
          "name": "role",
          "type": "uint256"
        },
        {
          "internalType": "address",
          "name": "contr",
          "type": "address"
        }
      ],
      "name": "updateRoleCache",
      "outputs": [],
      "stateMutability": "nonpayable",
      "type": "function"
    },
    {
      "inputs": [
        {
          "internalType": "address",
          "name": "trader",
          "type": "address"
        },
        {
          "internalType": "address",
          "name": "token",
          "type": "address"
        }
      ],
      "name": "viewBalanceInToken",
      "outputs": [
        {
          "internalType": "uint256",
          "name": "",
          "type": "uint256"
        }
      ],
      "stateMutability": "view",
      "type": "function"
    },
    {
      "inputs": [
        {
          "internalType": "address",
          "name": "token",
          "type": "address"
        },
        {
          "internalType": "uint256",
          "name": "inAmount",
          "type": "uint256"
        }
      ],
      "name": "viewCurrentPriceInPeg",
      "outputs": [
        {
          "internalType": "uint256",
          "name": "priceInPeg",
          "type": "uint256"
        }
      ],
      "stateMutability": "view",
      "type": "function"
    },
    {
      "inputs": [
        {
          "internalType": "address",
          "name": "trader",
          "type": "address"
        }
      ],
      "name": "viewHoldingsInPeg",
      "outputs": [
        {
          "internalType": "uint256",
          "name": "",
          "type": "uint256"
        }
      ],
      "stateMutability": "view",
      "type": "function"
    },
    {
      "inputs": [
        {
          "internalType": "address",
          "name": "trader",
          "type": "address"
        }
      ],
      "name": "viewLoanInPeg",
      "outputs": [
        {
          "internalType": "uint256",
          "name": "amount",
          "type": "uint256"
        }
      ],
      "stateMutability": "view",
      "type": "function"
    },
    {
      "inputs": [
        {
          "internalType": "uint256",
          "name": "",
          "type": "uint256"
        }
      ],
      "name": "volatilitySettings",
      "outputs": [
        {
          "internalType": "uint256",
          "name": "priceUpdateWindow",
          "type": "uint256"
        },
        {
          "internalType": "uint256",
          "name": "updateRatePermil",
          "type": "uint256"
        },
        {
          "internalType": "uint256",
          "name": "voluntaryUpdateWindow",
          "type": "uint256"
        }
      ],
      "stateMutability": "view",
      "type": "function"
    },
    {
      "inputs": [],
      "name": "voluntaryUpdateWindow",
      "outputs": [
        {
          "internalType": "uint256",
          "name": "",
          "type": "uint256"
        }
      ],
      "stateMutability": "view",
      "type": "function"
    }
  ],
  "bytecode": "0x6101406040526104b060075561012c60085561019060095561012c600b556073600c55600a601055600a60165560056017556005601855600a6019553480156200004857600080fd5b506040516200624c3803806200624c8339810160408190526200006b916200014b565b8888888888888888886001600160a01b038116620000da5760405162461bcd60e51b815260206004820152602260248201527f506c656173652070726f766964652076616c696420726f6c6573206164647265604482015261737360f01b606482015260840160405180910390fd5b6001600160601b0319606091821b811660805297811b881660a05295861b871660c05293851b861660e052600292909255600355600455610100529190911b166101205250620001e1975050505050505050565b80516001600160a01b03811681146200014657600080fd5b919050565b60008060008060008060008060006101208a8c0312156200016a578485fd5b620001758a6200012e565b98506200018560208b016200012e565b97506200019560408b016200012e565b9650620001a560608b016200012e565b955060808a0151945060a08a0151935060c08a0151925060e08a01519150620001d26101008b016200012e565b90509295985092959850929598565b60805160601c60a05160601c60c05160601c60e05160601c610100516101205160601c615fa3620002a96000396000818161047c01528181610b9401528181610fd801528181611be30152818161205b0152818161236a01528181612507015281816131ca015281816153040152615470015260006106fd015260006108c40152600081816103a3015261500e0152600081816107be015261510401526000818161057a015281816109e6015281816117aa015281816133e2015261347a0152615fa36000f3fe608060405234801561001057600080fd5b50600436106103995760003560e01c80637a1a04df116101e9578063bc70c6661161010f578063df7c20f9116100ad578063ef859fc81161007c578063ef859fc814610941578063f04c68651461097e578063f3f5f9b514610991578063f99fd97c146109a457610399565b8063df7c20f9146108e6578063e0f3871f146108ef578063e2abb5c41461090f578063e9c3f77d1461091857610399565b8063d0eb6653116100e9578063d0eb665314610886578063d510c53514610899578063db2d904d146108ac578063db429235146108bf57610399565b8063bc70c6661461084d578063c73afac214610860578063c74303aa1461087357610399565b8063a371891911610187578063a985994b11610156578063a985994b14610793578063b25b4548146107a6578063b852eb0d146107b9578063badb5048146107e057610399565b8063a37189191461074e578063a53ac0d914610761578063a75208a81461076a578063a75697a51461077357610399565b806395e911a8116101c357806395e911a8146106f85780639c56522c1461071f578063a17ab52714610728578063a20ec4931461073b57610399565b80637a1a04df1461066c5780637d100e841461069a5780638dc6a529146106a357610399565b8063320d2fa0116102ce578063498d55eb1161026c578063538edb291161023b578063538edb291461063457806354554b581461063d57806360b3fa40146106505780636585b5a61461066357610399565b8063498d55eb146105fc5780634aa4aca31461060f578063519bda851461061857806352a664d91461062157610399565b80633ed456fa116102a85780633ed456fa1461059c578063409fdb72146105a5578063447d52ba146105c657806347788cd0146105d957610399565b8063320d2fa0146105445780633500aa0b1461054d578063392f5f641461057557610399565b80631d84cc181161033b578063204120bc11610315578063204120bc146104b157806320c27126146105085780632b23f857146105285780632febaa741461053b57610399565b80631d84cc18146104645780631f1cb62b146104775780631f692a641461049e57610399565b8063093a483a11610377578063093a483a1461040a57806310d584341461042b57806316317e7e1461043e5780631d47e4a31461045157610399565b8063059b157a1461039e578063071060a6146103e257806307c20175146103f7575b600080fd5b6103c57f000000000000000000000000000000000000000000000000000000000000000081565b6040516001600160a01b0390911681526020015b60405180910390f35b6103f56103f0366004615cbb565b6109b7565b005b6103f5610405366004615b26565b610aa3565b61041d610418366004615a8d565b610b90565b6040519081526020016103d9565b6103f5610439366004615cbb565b610c1f565b6103f561044c366004615cbb565b610ca2565b6103f561045f366004615a8d565b610d20565b6103f5610472366004615a33565b610e01565b6103c57f000000000000000000000000000000000000000000000000000000000000000081565b61041d6104ac366004615929565b610eaf565b6104e86104bf366004615929565b600560208190526000918252604090912080546001820154600383015492909301549092919084565b6040805194855260208501939093529183015260608201526080016103d9565b61041d610516366004615929565b600f6020526000908152604090205481565b6103f5610536366004615c10565b610ee4565b61041d60105481565b61041d600c5481565b61056061055b366004615999565b6112b0565b604080519283526020830191909152016103d9565b6103c57f000000000000000000000000000000000000000000000000000000000000000081565b61041d60075481565b6105b86105b3366004615929565b6115f4565b6040516103d9929190615da3565b6103f56105d4366004615ceb565b61176b565b6105ec6105e7366004615929565b61185c565b60405190151581526020016103d9565b6103f561060a3660046159f3565b6118c3565b61041d60175481565b61041d60095481565b61041d61062f3660046159f3565b611962565b61041d60185481565b6103f561064b366004615cbb565b611b61565b61041d61065e366004615ae5565b611bdf565b61041d60165481565b6105ec61067a366004615a8d565b600160209081526000928352604080842090915290825290205460ff1681565b61041d60195481565b6106dd6106b1366004615961565b600660209081526000928352604080842090915290825290208054600182015460029092015490919083565b604080519384526020840192909252908201526060016103d9565b61041d7f000000000000000000000000000000000000000000000000000000000000000081565b61041d60085481565b61041d610736366004615929565b611d29565b6103f5610749366004615c98565b611d51565b6103f561075c366004615cbb565b611dd8565b61041d600b5481565b61041d60025481565b61041d610781366004615929565b60146020526000908152604090205481565b61041d6107a1366004615b26565b611e56565b6103f56107b43660046159f3565b6126de565b6103c57f000000000000000000000000000000000000000000000000000000000000000081565b6108226107ee366004615929565b601560205260009081526040902080546001820154600283015460039093015491926001600160a01b039182169290911684565b604080519485526001600160a01b0393841660208601528401919091521660608201526080016103d9565b6106dd61085b366004615cbb565b61294e565b6103f561086e366004615cbb565b612981565b6103f5610881366004615cbb565b6129ff565b6103f56108943660046159f3565b612a7d565b6105b86108a7366004615929565b612b0b565b6103f56108ba366004615929565b612d4f565b6103c57f000000000000000000000000000000000000000000000000000000000000000081565b61041d60035481565b61041d6108fd366004615929565b600e6020526000908152604090205481565b61041d60045481565b6103c5610926366004615cbb565b6000602081905290815260409020546001600160a01b031681565b61041d61094f366004615961565b6001600160a01b039182166000908152600d602090815260408083209390941682526005909201909152205490565b6103f561098c366004615cbb565b612e31565b6103f561099f366004615d32565b612f75565b6103f56109b2366004615cbb565b613091565b6040517fb4ed0b6d000000000000000000000000000000000000000000000000000000008152600481018290527f00000000000000000000000000000000000000000000000000000000000000006001600160a01b03169063b4ed0b6d9060240160206040518083038186803b158015610a3057600080fd5b505afa158015610a44573d6000803e3d6000fd5b505050506040513d601f19601f82011682018060405250810190610a689190615945565b600091825260208290526040909120805473ffffffffffffffffffffffffffffffffffffffff19166001600160a01b03909216919091179055565b60005b8082511115610b8c576000828281518110610ad157634e487b7160e01b600052603260045260246000fd5b60200260200101519050600060156000836001600160a01b03166001600160a01b0316815260200190815260200160002090506017548160000154610b169190615e95565b431115610b7757610b268161310f565b506001600160a01b038216600090815260156020526040812081815560018101805473ffffffffffffffffffffffffffffffffffffffff199081169091556002820192909255600301805490911690555b50508080610b8490615f03565b915050610aa6565b5050565b60007f00000000000000000000000000000000000000000000000000000000000000006001600160a01b0316836001600160a01b03161415610bd3575080610c19565b6001600160a01b038316600090815260056020526040902060018101546e010000000000000000000000000000610c0a8286615ecd565b610c149190615ead565b925050505b92915050565b33610c286133de565b6001600160a01b03161480610c4c575033610c41613476565b6001600160a01b0316145b610c9d5760405162461bcd60e51b815260206004820152601e60248201527f526f6c65733a2063616c6c6572206973206e6f7420746865206f776e6572000060448201526064015b60405180910390fd5b601955565b33610cab6133de565b6001600160a01b03161480610ccf575033610cc4613476565b6001600160a01b0316145b610d1b5760405162461bcd60e51b815260206004820152601e60248201527f526f6c65733a2063616c6c6572206973206e6f7420746865206f776e657200006044820152606401610c94565b600c55565b33610d296133de565b6001600160a01b03161480610d4d575033610d42613476565b6001600160a01b0316145b80610d7357503360009081526001602090815260408083206009845290915290205460ff165b610de55760405162461bcd60e51b815260206004820152603960248201527f43616c6c6572206973206e6f7420746865206f776e65722c206578656375746f60448201527f72206f7220617574686f72697a656420616374697661746f72000000000000006064820152608401610c94565b6001600160a01b039091166000908152600e6020526040902055565b3360009081526001602090815260408083206004845290915290205460ff16610e6c5760405162461bcd60e51b815260206004820152601d60248201527f43616c6c696e6720636f6e74722e206e6f7420617574686f72697a65640000006044820152606401610c94565b6001600160a01b0385166000908152600d60205260409020610e8f8186866134e7565b610e9a818484613592565b610ea581848461363d565b4390555050505050565b6001600160a01b0381166000908152600d60205260408120610edb60018201600283016003840161375d565b9150505b919050565b33610eed6133de565b6001600160a01b03161480610f11575033610f06613476565b6001600160a01b0316145b80610f3757503360009081526001602090815260408083206009845290915290205460ff165b610fa95760405162461bcd60e51b815260206004820152603960248201527f43616c6c6572206973206e6f7420746865206f776e65722c206578656375746f60448201527f72206f7220617574686f72697a656420616374697661746f72000000000000006064820152608401610c94565b600081600081518110610fcc57634e487b7160e01b600052603260045260246000fd5b602002602001015190507f00000000000000000000000000000000000000000000000000000000000000006001600160a01b0316816001600160a01b0316146112ab576001600160a01b038116600090815260056020908152604090912060038101859055835190916110469160028401918601906157eb565b50825167ffffffffffffffff81111561106f57634e487b7160e01b600052604160045260246000fd5b604051908082528060200260200182016040528015611098578160200160208202803683370190505b5080516110af9160048401916020909101906157eb565b506000805b80600186516110c39190615eec565b11156111d7576111518582815181106110ec57634e487b7160e01b600052603260045260246000fd5b6020026020010151868360016111029190615e95565b8151811061112057634e487b7160e01b600052603260045260246000fd5b602002602001015188846020811061114857634e487b7160e01b600052603260045260246000fd5b1a60f81b6137ea565b600081600287516111629190615eec565b61116c9190615eec565b611177906008615ecd565b87836020811061119757634e487b7160e01b600052603260045260246000fd5b1a60f81b7fff0000000000000000000000000000000000000000000000000000000000000016901c929092179150806111cf81615f03565b9150506110b4565b506005820181905560005b8085511115611296578460018287516111fb9190615eec565b6112059190615eec565b8151811061122357634e487b7160e01b600052603260045260246000fd5b602002602001015183600401828154811061124e57634e487b7160e01b600052603260045260246000fd5b6000918252602090912001805473ffffffffffffffffffffffffffffffffffffffff19166001600160a01b03929092169190911790558061128e81615f03565b9150506111e2565b506112a18486613aa2565b6001830155504290555b505050565b33600090815260016020908152604080832060048452909152812054819060ff1661131d5760405162461bcd60e51b815260206004820181905260248201527f43616c6c696e6720636f6e74722e206e6f7420616e20617574686f72697a65646044820152606401610c94565b6001600160a01b038088166000908152600d60209081526040808320938916835260028401909152902054156114985760008061138b606660009081526020527f422cccb7cea5c0e46f340bb7b21b81debac329f72e31669c20ff0f3a05cc2b5b546001600160a01b031690565b6001600160a01b03898116600081815260028701602090815260408083205460038a01909252918290205491517fe695fa6800000000000000000000000000000000000000000000000000000000815260048101919091526024810192909252604482015291169063e695fa68906064016040805180830381600087803b15801561141557600080fd5b505af1158015611429573d6000803e3d6000fd5b505050506040513d601f19601f8201168201806040525081019061144d9190615d0f565b6001600160a01b038a166000908152600286016020908152604080832085905560038801909152902081905590925090506114888683613df5565b9450611495838987613e0d565b50505b6001600160a01b03871660009081526005820160205260409020548590808211156114cd579050806114ca8188615eec565b93505b8387111561150d576114df8488615eec565b6001600160a01b038a166000908152600f602052604081208054909190611507908490615eec565b90915550505b8486111561154d5761151f8587615eec565b6001600160a01b0389166000908152600f602052604081208054909190611547908490615e95565b90915550505b6001600160a01b0388166000908152600f6020908152604080832054600e9092529091205410156115c05760405162461bcd60e51b815260206004820152601860248201527f4578636565647320676c6f62616c20746f6b656e2063617000000000000000006044820152606401610c94565b6115d6838a8a856115d18a8c615eec565b6140b5565b83156115e7576115e7838a86614101565b5050509550959350505050565b6001600160a01b0381166000908152600d602090815260409182902060048101805484518185028101850190955280855260609485949092919083018282801561166757602002820191906000526020600020905b81546001600160a01b03168152600190910190602001808311611649575b5050506004840154929550505067ffffffffffffffff81111561169a57634e487b7160e01b600052604160045260246000fd5b6040519080825280602002602001820160405280156116c3578160200160208202803683370190505b50915060005b80845111156117645760008482815181106116f457634e487b7160e01b600052603260045260246000fd5b60200260200101519050826005016000826001600160a01b03166001600160a01b031681526020019081526020016000205484838151811061174657634e487b7160e01b600052603260045260246000fd5b6020908102919091010152508061175c81615f03565b9150506116c9565b5050915091565b6040517f93552a3d000000000000000000000000000000000000000000000000000000008152600481018390526001600160a01b0382811660248301527f000000000000000000000000000000000000000000000000000000000000000016906393552a3d9060440160206040518083038186803b1580156117ec57600080fd5b505afa158015611800573d6000803e3d6000fd5b505050506040513d601f19601f820116820180604052508101906118249190615bf4565b6001600160a01b0391909116600090815260016020908152604080832094835293905291909120805460ff1916911515919091179055565b6001600160a01b0381166000908152600d602052604081208161188960018301600284016003850161375d565b9050600061189d83600401846005016143b0565b90506118aa816064615ecd565b82600c546118b89190615ecd565b101595945050505050565b3360009081526001602090815260408083206004845290915290205460ff1661192e5760405162461bcd60e51b815260206004820152601d60248201527f43616c6c696e6720636f6e74722e206e6f7420617574686f72697a65640000006044820152606401610c94565b6001600160a01b0383166000908152600d6020526040902061195181848461443b565b61195c818484613592565b50505050565b3360009081526001602090815260408083206004845290915281205460ff166119cd5760405162461bcd60e51b815260206004820152601d60248201527f43616c6c696e6720636f6e74722e206e6f7420617574686f72697a65640000006044820152606401610c94565b6001600160a01b038085166000908152600d602090815260408083204381559387168352600284019091529020548015611b3e57600080611a3f606660009081526020527f422cccb7cea5c0e46f340bb7b21b81debac329f72e31669c20ff0f3a05cc2b5b546001600160a01b031690565b6001600160a01b038881166000818152600388016020526040908190205490517fe695fa68000000000000000000000000000000000000000000000000000000008152600481018890526024810192909252604482015291169063e695fa68906064016040805180830381600087803b158015611abb57600080fd5b505af1158015611acf573d6000803e3d6000fd5b505050506040513d601f19601f82011682018060405250810190611af39190615d0f565b6001600160a01b038916600090815260028701602090815260408083208590556003890190915290208190559092509050611b2e8683613df5565b9450611b3b848887613e0d565b50505b6000611b4a8486615eec565b9050611b578387836134e7565b5050509392505050565b33611b6a6133de565b6001600160a01b03161480611b8e575033611b83613476565b6001600160a01b0316145b611bda5760405162461bcd60e51b815260206004820152601e60248201527f526f6c65733a2063616c6c6572206973206e6f7420746865206f776e657200006044820152606401610c94565b600955565b60007f00000000000000000000000000000000000000000000000000000000000000006001600160a01b0316846001600160a01b03161415611c22575081611d22565b6001600160a01b03841660009081526005602052604081208054909190611c499042615eec565b9050600754811180611c5d57506001820154155b80611c715750838015611c71575060085481115b15611cf3576000611ce283600201805480602002602001604051908101604052809291908181526020018280548015611cd357602002820191906000526020600020905b81546001600160a01b03168152600190910190602001808311611cb5575b50505050508460030154613aa2565b9050611cf183826009546144ee565b505b6e010000000000000000000000000000826001015486611d139190615ecd565b611d1d9190615ead565b925050505b9392505050565b6001600160a01b0381166000908152600d60205260408120610edb60048201600583016143b0565b33611d5a6133de565b6001600160a01b03161480611d7e575033611d73613476565b6001600160a01b0316145b611dca5760405162461bcd60e51b815260206004820152601e60248201527f526f6c65733a2063616c6c6572206973206e6f7420746865206f776e657200006044820152606401610c94565b61ffff909116600755600855565b33611de16133de565b6001600160a01b03161480611e05575033611dfa613476565b6001600160a01b0316145b611e515760405162461bcd60e51b815260206004820152601e60248201527f526f6c65733a2063616c6c6572206973206e6f7420746865206f776e657200006044820152606401610c94565b601755565b6000333214611ecd5760405162461bcd60e51b815260206004820152603a60248201527f43757272656e746c79206e6f20696e7465726d656469617269657320616c6c6f60448201527f77656420666f7220746869732066756e6374696f6e2063616c6c0000000000006064820152608401610c94565b6000611f0a606b60009081526020527f2dc7a963308417ad45132da282495eb244f38a7db03940a4d808be607669c622546001600160a01b031690565b6040517f7b23cbce0000000000000000000000000000000000000000000000000000000081523360048201526001600160a01b039190911690637b23cbce90602401602060405180830381600087803b158015611f6657600080fd5b505af1158015611f7a573d6000803e3d6000fd5b505050506040513d601f19601f82011682018060405250810190611f9e9190615bf4565b905060008180611fb15750611fb1614536565b9050611fbd8483614616565b92506000611fc9614b57565b90506000611fd5614c2d565b9050611fe36012600061585d565b600060646018546064611ff69190615e95565b6120009084615ecd565b61200a9190615ead565b905082811115612157577f3555ffae7677eb42103f0b9e11b61c758f452fae446684dec7a363dd38ab58fc61203f8483615eec565b60405190815260200160405180910390a18380156121545750807f00000000000000000000000000000000000000000000000000000000000000006001600160a01b03166370a082316120c3606560009081526020527f4a7203f705e51df4a56139a9b86b4a0970bed7ab7a3446eaffe2289989c1645c546001600160a01b031690565b6040517fffffffff0000000000000000000000000000000000000000000000000000000060e084901b1681526001600160a01b03909116600482015260240160206040518083038186803b15801561211a57600080fd5b505afa15801561212e573d6000803e3d6000fd5b505050506040513d601f19601f820116820180604052508101906121529190615cd3565b115b93505b60008461220857606b60009081526020527f2dc7a963308417ad45132da282495eb244f38a7db03940a4d808be607669c622546001600160a01b03166001600160a01b0316631a38de1d6040518163ffffffff1660e01b8152600401602060405180830381600087803b1580156121cd57600080fd5b505af11580156121e1573d6000803e3d6000fd5b505050506040513d601f19601f820116820180604052508101906122059190615945565b90505b60005b6013548110156124725760006013828154811061223857634e487b7160e01b600052603260045260246000fd5b60009182526020808320909101546001600160a01b0316808352600d909152604082209092509061226882614cfb565b9050600061227583614d0d565b905060006064601854836122899190615ecd565b6122939190615ead565b905061229f818e615e95565b9c508a612301576001600160a01b038581166000908152601560205260409020600281018390556003810180543373ffffffffffffffffffffffffffffffffffffffff1991821617909155438255600190910180549091169189169190911790555b60006064612310846065615ecd565b61231a9190615ead565b6123249083615e95565b90508084111561241457606560009081526020527f4a7203f705e51df4a56139a9b86b4a0970bed7ab7a3446eaffe2289989c1645c546001600160a01b031663d9caed127f0000000000000000000000000000000000000000000000000000000000000000886123948589615eec565b6040517fffffffff0000000000000000000000000000000000000000000000000000000060e086901b1681526001600160a01b0393841660048201529290911660248301526044820152606401600060405180830381600087803b1580156123fb57600080fd5b505af115801561240f573d6000803e3d6000fd5b505050505b6040516001600160a01b03871681527f1d2cc4c8661a04a00b4e727426220501b36d85bb330947642c2d4320667028cf9060200160405180910390a161245985614d23565b505050505050808061246a90615f03565b91505061220b565b5060648760165460636124859190615ecd565b61248f9190615e95565b6124999190615ead565b601655841561257b57606560009081526020527f4a7203f705e51df4a56139a9b86b4a0970bed7ab7a3446eaffe2289989c1645c546001600160a01b03166040517fd9caed120000000000000000000000000000000000000000000000000000000081526001600160a01b037f000000000000000000000000000000000000000000000000000000000000000081166004830152336024830152604482018a9052919091169063d9caed1290606401600060405180830381600087803b15801561256257600080fd5b505af1158015612576573d6000803e3d6000fd5b505050505b60006125b8606b60009081526020527f2dc7a963308417ad45132da282495eb244f38a7db03940a4d808be607669c622546001600160a01b031690565b6001600160a01b0316631a38de1d6040518163ffffffff1660e01b8152600401602060405180830381600087803b1580156125f257600080fd5b505af1158015612606573d6000803e3d6000fd5b505050506040513d601f19601f8201168201806040525081019061262a9190615945565b905086156126a4576001600160a01b038116600090815260146020526040902054881015612685576001600160a01b038116600090815260146020526040812080548a929061267a908490615eec565b9091555061269f9050565b6001600160a01b0381166000908152601460205260408120555b6126d2565b6001600160a01b038116600090815260146020526040812080548a92906126cc908490615e95565b90915550505b50505050505050919050565b336126e76133de565b6001600160a01b0316148061270b575033612700613476565b6001600160a01b0316145b6127575760405162461bcd60e51b815260206004820152601e60248201527f526f6c65733a2063616c6c6572206973206e6f7420746865206f776e657200006044820152606401610c94565b6001600160a01b038381166000908152600d602090815260408220600180820180549182018155845282842001805473ffffffffffffffffffffffffffffffffffffffff1916878616179055606683529190527f422cccb7cea5c0e46f340bb7b21b81debac329f72e31669c20ff0f3a05cc2b5b549091166040517f46c87f800000000000000000000000000000000000000000000000000000000081526001600160a01b03858116600483015291909116906346c87f8090602401602060405180830381600087803b15801561282d57600080fd5b505af1158015612841573d6000803e3d6000fd5b505050506040513d601f19601f820116820180604052508101906128659190615cd3565b6001600160a01b0384166000908152600383016020908152604080832093909355600284019052208290556128cb606660009081526020527f422cccb7cea5c0e46f340bb7b21b81debac329f72e31669c20ff0f3a05cc2b5b546001600160a01b031690565b6040517fee0862bf0000000000000000000000000000000000000000000000000000000081526001600160a01b03858116600483015260248201859052919091169063ee0862bf90604401600060405180830381600087803b15801561293057600080fd5b505af1158015612944573d6000803e3d6000fd5b5050505050505050565b600a818154811061295e57600080fd5b600091825260209091206003909102018054600182015460029092015490925083565b3361298a6133de565b6001600160a01b031614806129ae5750336129a3613476565b6001600160a01b0316145b6129fa5760405162461bcd60e51b815260206004820152601e60248201527f526f6c65733a2063616c6c6572206973206e6f7420746865206f776e657200006044820152606401610c94565b601855565b33612a086133de565b6001600160a01b03161480612a2c575033612a21613476565b6001600160a01b0316145b612a785760405162461bcd60e51b815260206004820152601e60248201527f526f6c65733a2063616c6c6572206973206e6f7420746865206f776e657200006044820152606401610c94565b600b55565b3360009081526001602090815260408083206004845290915290205460ff16612ae85760405162461bcd60e51b815260206004820152601c60248201527f43616c6c696e6720636f6e7472206e6f7420617574686f72697a6564000000006044820152606401610c94565b6001600160a01b0383166000908152600d6020526040902061195c81848461363d565b6001600160a01b0381166000908152600d6020908152604091829020600181018054845181850281018501909552808552606094859490929190830182828015612b7e57602002820191906000526020600020905b81546001600160a01b03168152600190910190602001808311612b60575b5050506001840154929550505067ffffffffffffffff811115612bb157634e487b7160e01b600052604160045260246000fd5b604051908082528060200260200182016040528015612bda578160200160208202803683370190505b50915060005b8084511115611764576000848281518110612c0b57634e487b7160e01b600052603260045260246000fd5b60200260200101519050612c50606660009081526020527f422cccb7cea5c0e46f340bb7b21b81debac329f72e31669c20ff0f3a05cc2b5b546001600160a01b031690565b6001600160a01b03828116600081815260028701602090815260408083205460038a01909252918290205491517f76668b670000000000000000000000000000000000000000000000000000000081526004810191909152602481019290925260448201529116906376668b679060640160206040518083038186803b158015612cd957600080fd5b505afa158015612ced573d6000803e3d6000fd5b505050506040513d601f19601f82011682018060405250810190612d119190615cd3565b848381518110612d3157634e487b7160e01b600052603260045260246000fd5b60209081029190910101525080612d4781615f03565b915050612be0565b3360009081526001602090815260408083206004845290915290205460ff16612dba5760405162461bcd60e51b815260206004820152601d60248201527f43616c6c696e6720636f6e74722e206e6f7420617574686f72697a65640000006044820152606401610c94565b6001600160a01b0381166000908152600d60205260409020612ddb81614d0d565b15612e285760405162461bcd60e51b815260206004820152601a60248201527f43616e2774206c69717569646174653a20626f72726f77696e670000000000006044820152606401610c94565b610b8c81614d23565b33612e3a6133de565b6001600160a01b03161480612e5e575033612e53613476565b6001600160a01b0316145b80612eac575033612ea16103e960009081526020527f236f539bf6e1b3b15a335e3cd157d360bc4be88c071635c19ba8a82b4f665e9f546001600160a01b031690565b6001600160a01b0316145b612f1e5760405162461bcd60e51b815260206004820152603860248201527f43616c6c6572206973206e6f7420746865206f776e65722c206578656375746f60448201527f72206f7220617574686f72697a65642064697361626c657200000000000000006064820152608401610c94565b6000600a8281548110612f4157634e487b7160e01b600052603260045260246000fd5b90600052602060002090600302019050600081600101541115610b8c57600181015460095580546007556002015460085550565b33612f7e6133de565b6001600160a01b03161480612fa2575033612f97613476565b6001600160a01b0316145b612fee5760405162461bcd60e51b815260206004820152601e60248201527f526f6c65733a2063616c6c6572206973206e6f7420746865206f776e657200006044820152606401610c94565b60408051606081018252938452602084019283528301908152600a805460018101825560009190915292517fc65a7bb8d6351c1cf70c95a316cc6a92839c986682d98bc35f958f4883f9d2a860039094029384015590517fc65a7bb8d6351c1cf70c95a316cc6a92839c986682d98bc35f958f4883f9d2a9830155517fc65a7bb8d6351c1cf70c95a316cc6a92839c986682d98bc35f958f4883f9d2aa90910155565b3361309a6133de565b6001600160a01b031614806130be5750336130b3613476565b6001600160a01b0316145b61310a5760405162461bcd60e51b815260206004820152601e60248201527f526f6c65733a2063616c6c6572206973206e6f7420746865206f776e657200006044820152606401610c94565b601055565b600281015460009015610edf5781546000906131379061312f9043615eec565b601754613df5565b9050600060175482856002015461314e9190615ecd565b6131589190615ead565b9050613195606560009081526020527f4a7203f705e51df4a56139a9b86b4a0970bed7ab7a3446eaffe2289989c1645c546001600160a01b031690565b60038501546040517fd9caed120000000000000000000000000000000000000000000000000000000081526001600160a01b037f00000000000000000000000000000000000000000000000000000000000000008116600483015291821660248201526044810184905291169063d9caed1290606401600060405180830381600087803b15801561322557600080fd5b505af1158015613239573d6000803e3d6000fd5b50505050600061327a606b60009081526020527f2dc7a963308417ad45132da282495eb244f38a7db03940a4d808be607669c622546001600160a01b031690565b90506000601654600161328d9190615e95565b83836001600160a01b0316630ad691506040518163ffffffff1660e01b815260040160206040518083038186803b1580156132c757600080fd5b505afa1580156132db573d6000803e3d6000fd5b505050506040513d601f19601f820116820180604052508101906132ff9190615cd3565b6133099190615ecd565b6133139190615ead565b600187015460038801546040517f0a45bc1b0000000000000000000000000000000000000000000000000000000081526001600160a01b039283166004820152602481018490529082166044820152919250831690630a45bc1b90606401602060405180830381600087803b15801561338b57600080fd5b505af115801561339f573d6000803e3d6000fd5b505050506040513d601f19601f820116820180604052508101906133c39190615cd3565b508286600201546133d49190615eec565b9695505050505050565b60007f00000000000000000000000000000000000000000000000000000000000000006001600160a01b0316638da5cb5b6040518163ffffffff1660e01b815260040160206040518083038186803b15801561343957600080fd5b505afa15801561344d573d6000803e3d6000fd5b505050506040513d601f19601f820116820180604052508101906134719190615945565b905090565b60007f00000000000000000000000000000000000000000000000000000000000000006001600160a01b031663c34c08e56040518163ffffffff1660e01b8152600401602060405180830381600087803b1580156134d357600080fd5b505af115801561344d573d6000803e3d6000fd5b6134f283838361443b565b6001600160a01b0382166000908152600f60205260408120805483929061351a908490615e95565b90915550506001600160a01b0382166000908152600f6020908152604080832054600e9092529091205410156112ab5760405162461bcd60e51b815260206004820152601860248201527f4578636565647320676c6f62616c20746f6b656e2063617000000000000000006044820152606401610c94565b6001600160a01b0382166000908152600f6020526040812080548392906135ba908490615e95565b90915550506001600160a01b0382166000908152600f6020908152604080832054600e9092529091205410156136325760405162461bcd60e51b815260206004820152601860248201527f4578636565647320676c6f62616c20746f6b656e2063617000000000000000006044820152606401610c94565b6112ab838383614101565b601054835461364c9190615e95565b431161369a5760405162461bcd60e51b815260206004820181905260248201527f4e6f207769746864726177616c20736f6f6e206166746572206465706f7369746044820152606401610c94565b6001600160a01b0382166000908152600f6020526040812080548392906136c2908490615eec565b90915550506001600160a01b03821660009081526005840160205260409020546136ed908290615eec565b6001600160a01b038316600090815260058501602052604090205561371183614e77565b6112ab5760405162461bcd60e51b815260206004820152601460248201527f496e73756666696369656e742062616c616e63650000000000000000000000006044820152606401610c94565b8254600090815b818110156137e157600086828154811061378e57634e487b7160e01b600052603260045260246000fd5b60009182526020808320909101546001600160a01b0316808352908890526040909120549091506137c190829087614ec3565b6137cb9085615e95565b93505080806137d990615f03565b915050613764565b50509392505050565b60007fff000000000000000000000000000000000000000000000000000000000000008216156138235761381e8484614fd2565b61382d565b61382d84846150c8565b6001600160a01b038082166000908152600660209081526040808320938916835292905220600181015491925090613a9b576000806000846001600160a01b0316630902f1ac6040518163ffffffff1660e01b815260040160606040518083038186803b15801561389d57600080fd5b505afa1580156138b1573d6000803e3d6000fd5b505050506040513d601f19601f820116820180604052508101906138d59190615c55565b63ffffffff1692509250925060006138ed898961519d565b509050806001600160a01b0316896001600160a01b031614156139d057836dffffffffffffffffffffffffffff16836dffffffffffffffffffffffffffff166e0100000000000000000000000000006139469190615ecd565b6139509190615ead565b8560020181905550856001600160a01b0316635909c0d56040518163ffffffff1660e01b815260040160206040518083038186803b15801561399157600080fd5b505afa1580156139a5573d6000803e3d6000fd5b505050506040513d601f19601f820116820180604052508101906139c99190615cd3565b8555613a92565b826dffffffffffffffffffffffffffff16846dffffffffffffffffffffffffffff166e010000000000000000000000000000613a0c9190615ecd565b613a169190615ead565b8560020181905550856001600160a01b0316635a3d54936040518163ffffffff1660e01b815260040160206040518083038186803b158015613a5757600080fd5b505afa158015613a6b573d6000803e3d6000fd5b505050506040513d601f19601f82011682018060405250810190613a8f9190615cd3565b85555b50600184015550505b5050505050565b6e01000000000000000000000000000060005b60018451613ac39190615eec565b811015613dee576000848281518110613aec57634e487b7160e01b600052603260045260246000fd5b60200260200101519050600085836001613b069190615e95565b81518110613b2457634e487b7160e01b600052603260045260246000fd5b602002602001015190506000858460208110613b5057634e487b7160e01b600052603260045260246000fd5b1a60f81b7fff000000000000000000000000000000000000000000000000000000000000001615613b8a57613b858383614fd2565b613b94565b613b9483836150c8565b6001600160a01b038082166000818152600660209081526040808320948916835293905282812083517f0902f1ac0000000000000000000000000000000000000000000000000000000081529351949550939092630902f1ac916004808301926060929190829003018186803b158015613c0d57600080fd5b505afa158015613c21573d6000803e3d6000fd5b505050506040513d601f19601f82011682018060405250810190613c459190615c55565b63ffffffff16925050506000826001015482613c619190615eec565b9050600854811115613dc4576000613c79878761519d565b5090506000816001600160a01b0316886001600160a01b031614613d0d57856001600160a01b0316635a3d54936040518163ffffffff1660e01b815260040160206040518083038186803b158015613cd057600080fd5b505afa158015613ce4573d6000803e3d6000fd5b505050506040513d601f19601f82011682018060405250810190613d089190615cd3565b613d7e565b856001600160a01b0316635909c0d56040518163ffffffff1660e01b815260040160206040518083038186803b158015613d4657600080fd5b505afa158015613d5a573d6000803e3d6000fd5b505050506040513d601f19601f82011682018060405250810190613d7e9190615cd3565b9050600083866000015483613d939190615eec565b613d9d9190615ead565b9050613da98b82615287565b6002870191909155908555600185018490559850613dd59050565b613dd2888460020154615287565b97505b5050505050508080613de690615f03565b915050613ab5565b5092915050565b600081831115613e06575080610c19565b5081610c19565b600080613e4b606660009081526020527f422cccb7cea5c0e46f340bb7b21b81debac329f72e31669c20ff0f3a05cc2b5b546001600160a01b031690565b6001600160a01b03858116600081815260028901602090815260408083205460038c01909252918290205491517fe695fa6800000000000000000000000000000000000000000000000000000000815260048101919091526024810192909252604482015291169063e695fa68906064016040805180830381600087803b158015613ed557600080fd5b505af1158015613ee9573d6000803e3d6000fd5b505050506040513d601f19601f82011682018060405250810190613f0d9190615d0f565b90925090506000613f1e8484615eec565b6001600160a01b0386166000908152600288016020526040902081905590508015613f65576001600160a01b038516600090815260038701602052604090208290556140ad565b6001600160a01b038516600090815260038701602052604081208190556001870154815b80821115614059576000896001018281548110613fb657634e487b7160e01b600052603260045260246000fd5b6000918252602090912001546001600160a01b0390811691508916811415613fe15760019350614046565b831561404657808a600101600184613ff99190615eec565b8154811061401757634e487b7160e01b600052603260045260246000fd5b9060005260206000200160006101000a8154816001600160a01b0302191690836001600160a01b031602179055505b508061405181615f03565b915050613f89565b508760010180548061407b57634e487b7160e01b600052603160045260246000fd5b6000828152602090208101600019908101805473ffffffffffffffffffffffffffffffffffffffff1916905501905550505b505050505050565b6001600160a01b03841660009081526005860160205260409020546140db908390615eec565b6001600160a01b0385166000908152600587016020526040902055613a9b85848361443b565b6001600160a01b038216600090815260038401602052604090205461425d5760018381018054918201815560009081526020902001805473ffffffffffffffffffffffffffffffffffffffff19166001600160a01b038416179055614197606660009081526020527f422cccb7cea5c0e46f340bb7b21b81debac329f72e31669c20ff0f3a05cc2b5b546001600160a01b031690565b6040517f46c87f800000000000000000000000000000000000000000000000000000000081526001600160a01b03848116600483015291909116906346c87f8090602401602060405180830381600087803b1580156141f557600080fd5b505af1158015614209573d6000803e3d6000fd5b505050506040513d601f19601f8201168201806040525081019061422d9190615cd3565b6001600160a01b0383166000908152600385016020908152604080832093909355600286019052208190556143a7565b60008061429b606660009081526020527f422cccb7cea5c0e46f340bb7b21b81debac329f72e31669c20ff0f3a05cc2b5b546001600160a01b031690565b6001600160a01b03858116600081815260028901602090815260408083205460038c01909252918290205491517fe695fa6800000000000000000000000000000000000000000000000000000000815260048101919091526024810192909252604482015291169063e695fa68906064016040805180830381600087803b15801561432557600080fd5b505af1158015614339573d6000803e3d6000fd5b505050506040513d601f19601f8201168201806040525081019061435d9190615d0f565b6001600160a01b0386166000908152600388016020526040902081905590925090506143898383615e95565b6001600160a01b038516600090815260028701602052604090205550505b61371183614e77565b8154600090815b818110156144335760008582815481106143e157634e487b7160e01b600052603260045260246000fd5b60009182526020808320909101546001600160a01b031680835290879052604090912054909150614413908290610b90565b61441d9085615e95565b935050808061442b90615f03565b9150506143b7565b505092915050565b6001600160a01b038216600090815260068401602052604090205460ff166144ba576004830180546001808201835560009283526020808420909201805473ffffffffffffffffffffffffffffffffffffffff19166001600160a01b0387169081179091558352600686019091526040909120805460ff191690911790555b6001600160a01b0382166000908152600584016020526040812080548392906144e4908490615e95565b9091555050505050565b6103e86144fb8284615ecd565b614507836103e8615eec565b85600101546145169190615ecd565b6145209190615e95565b61452a9190615ead565b60018401555050429055565b600080614574606b60009081526020527f2dc7a963308417ad45132da282495eb244f38a7db03940a4d808be607669c622546001600160a01b031690565b6001600160a01b031663b0411f466040518163ffffffff1660e01b8152600401604080518083038186803b1580156145ab57600080fd5b505afa1580156145bf573d6000803e3d6000fd5b505050506040513d601f19601f820116820180604052508101906145e39190615ab8565b5090506016546019546145f69190615ecd565b6001600160a01b0390911660009081526014602052604090205411905090565b60408051600080825260208201928390529051909161463891601291906157eb565b506040805160008152602081019182905251614656916013916157eb565b5060005b8084511115613dee57600084828151811061468557634e487b7160e01b600052603260045260246000fd5b602002602001015190506000600d6000836001600160a01b03166001600160a01b0316815260200190815260200160002090506146c1816152c3565b15614b0d576013805460018101825560009182527f66de8ffda797e3de9c05e8fc57b3bf0ec28a930d40b0d285d93c06501cf6a09001805473ffffffffffffffffffffffffffffffffffffffff19166001600160a01b0385161790556004820154905b8082111561484d57600083600401828154811061475157634e487b7160e01b600052603260045260246000fd5b60009182526020808320909101546001600160a01b0316808352601190915260409091206002810154919250904314614802576001600160a01b03821660008181526005870160205260408120546001808501919091558184554360028501556012805491820181559091527fbb8a6a4669ba250d26cd7a459eca9d215f8307e33aebe50379bc5a3617ec344401805473ffffffffffffffffffffffffffffffffffffffff19169091179055614838565b6001600160a01b038216600090815260058601602052604081205460018301805491929091614832908490615e95565b90915550505b5050808061484590615f03565b915050614724565b5050600181015460005b80821115614b0a57600083600101828154811061488457634e487b7160e01b600052603260045260246000fd5b60009182526020808320909101546001600160a01b0316808352601190915260408220909250906148e6606660009081526020527f422cccb7cea5c0e46f340bb7b21b81debac329f72e31669c20ff0f3a05cc2b5b546001600160a01b031690565b6001600160a01b03848116600081815260028a01602090815260408083205460038d01909252918290205491517fe695fa6800000000000000000000000000000000000000000000000000000000815260048101919091526024810192909252604482015291169063e695fa68906064016040805180830381600087803b15801561497057600080fd5b505af1158015614984573d6000803e3d6000fd5b505050506040513d601f19601f820116820180604052508101906149a89190615d0f565b5090506149e6606660009081526020527f422cccb7cea5c0e46f340bb7b21b81debac329f72e31669c20ff0f3a05cc2b5b546001600160a01b031690565b6040517f2a6a897b0000000000000000000000000000000000000000000000000000000081526001600160a01b038581166004830152602482018490529190911690632a6a897b90604401600060405180830381600087803b158015614a4b57600080fd5b505af1158015614a5f573d6000803e3d6000fd5b5050505043826002015414614ada57600060018381018290558284554360028501556012805491820181559091527fbb8a6a4669ba250d26cd7a459eca9d215f8307e33aebe50379bc5a3617ec344401805473ffffffffffffffffffffffffffffffffffffffff19166001600160a01b038516179055614af4565b80826000016000828254614aee9190615e95565b90915550505b5050508080614b0290615f03565b915050614857565b50505b6001600160a01b03821660009081526015602052604090208515614b4157614b348161310f565b614b3e9086615e95565b94505b5050508080614b4f90615f03565b91505061465a565b601254600090815b80821115614c2857600060128281548110614b8a57634e487b7160e01b600052603260045260246000fd5b60009182526020808320909101546001600160a01b0316808352601190915260409091208054600182015492935090911115614c135780546001820154600091614bd391615eec565b9050614bdf8382615300565b614be99087615e95565b6001600160a01b038416600090815260116020526040812081815560018101829055600201559550505b50508080614c2090615f03565b915050614b5f565b505090565b601254600090815b80821115614c2857600060128281548110614c6057634e487b7160e01b600052603260045260246000fd5b60009182526020808320909101546001600160a01b0316808352601190915260409091206001810154815492935090911115614ce657614cb38282600101548360000154614cae9190615eec565b61546c565b614cbd9086615e95565b6001600160a01b0383166000908152601160205260408120818155600181018290556002015594505b50508080614cf390615f03565b915050614c35565b6000610c1982600401836005016155c7565b6000610c1982600101836002018460030161564a565b600181015460005b80821115614d9c576000836001018281548110614d5857634e487b7160e01b600052603260045260246000fd5b60009182526020808320909101546001600160a01b031682526002860181526040808320839055600387019091528120555080614d9481615f03565b915050614d2b565b5050600481015460005b80821115614e5a576000836004018281548110614dd357634e487b7160e01b600052603260045260246000fd5b60009182526020808320909101546001600160a01b0316808352600587018252604080842054600f90935283208054919450919290614e13908490615eec565b90915550506001600160a01b031660009081526005840160209081526040808320839055600686019091529020805460ff1916905580614e5281615f03565b915050614da6565b50614e6960018301600061585d565b610b8c60048301600061585d565b600080614e8383614d0d565b90506000614e9084614cfb565b9050600b5482614ea09190615ecd565b6064600b54614eaf9190615eec565b614eb99083615ecd565b1015949350505050565b600080614f01606660009081526020527f422cccb7cea5c0e46f340bb7b21b81debac329f72e31669c20ff0f3a05cc2b5b546001600160a01b031690565b6040517f14189db20000000000000000000000000000000000000000000000000000000081526001600160a01b03878116600483015291909116906314189db29060240160206040518083038186803b158015614f5d57600080fd5b505afa158015614f71573d6000803e3d6000fd5b505050506040513d601f19601f82011682018060405250810190614f959190615cd3565b6001600160a01b03861660009081526020859052604081205491925090614fbc8387615ecd565b614fc69190615ead565b9050611d1d8682610b90565b6000806000614fe1858561519d565b6040516bffffffffffffffffffffffff19606084811b8216602084015283901b16603482015291935091507f000000000000000000000000000000000000000000000000000000000000000090604801604051602081830303815290604052805190602001206003546040516020016150a7939291907fff00000000000000000000000000000000000000000000000000000000000000815260609390931b6bffffffffffffffffffffffff191660018401526015830191909152603582015260550190565b60408051601f19818403018152919052805160209091012095945050505050565b60008060006150d7858561519d565b6040516bffffffffffffffffffffffff19606084811b8216602084015283901b16603482015291935091507f000000000000000000000000000000000000000000000000000000000000000090604801604051602081830303815290604052805190602001206002546040516020016150a7939291907fff00000000000000000000000000000000000000000000000000000000000000815260609390931b6bffffffffffffffffffffffff191660018401526015830191909152603582015260550190565b600080826001600160a01b0316846001600160a01b031614156152025760405162461bcd60e51b815260206004820152601260248201527f4964656e746963616c20616464726573732100000000000000000000000000006044820152606401610c94565b826001600160a01b0316846001600160a01b031610615222578284615225565b83835b90925090506001600160a01b0382166152805760405162461bcd60e51b815260206004820152600d60248201527f5a65726f206164647265737321000000000000000000000000000000000000006044820152606401610c94565b9250929050565b60006c010000000000000000000000006152a361010084615ead565b6152af61010086615ead565b6152b99190615ecd565b611d229190615ead565b6000806152cf83614d0d565b905060006152dc84614cfb565b905081600c546152ec9190615ecd565b6152f7826064615ecd565b10949350505050565b60007f00000000000000000000000000000000000000000000000000000000000000006001600160a01b0316836001600160a01b03161415615343575080610c19565b6001600160a01b038316600090815260056020526040812090615397606760009081526020527f682158d08466d11c566d5712d4396197fdd67e65be71d83c97ef719ec468867b546001600160a01b031690565b6001600160a01b031663351ae6108560008560030154866002016040518563ffffffff1660e01b81526004016153d09493929190615e1b565b600060405180830381600087803b1580156153ea57600080fd5b505af11580156153fe573d6000803e3d6000fd5b505050506040513d6000823e601f3d908101601f191682016040526154269190810190615b61565b9050600081600183516154399190615eec565b8151811061545757634e487b7160e01b600052603260045260246000fd5b60200260200101519050809350505050610c19565b60007f00000000000000000000000000000000000000000000000000000000000000006001600160a01b0316836001600160a01b031614156154af575080610c19565b6001600160a01b038316600090815260056020526040812090615503606760009081526020527f682158d08466d11c566d5712d4396197fdd67e65be71d83c97ef719ec468867b546001600160a01b031690565b6001600160a01b03166353d7ff9f856000198560030154866004016040518563ffffffff1660e01b815260040161553d9493929190615e1b565b600060405180830381600087803b15801561555757600080fd5b505af115801561556b573d6000803e3d6000fd5b505050506040513d6000823e601f3d908101601f191682016040526155939190810190615b61565b9050806000815181106155b657634e487b7160e01b600052603260045260246000fd5b602002602001015192505050610c19565b8154600090815b818110156144335760008582815481106155f857634e487b7160e01b600052603260045260246000fd5b60009182526020808320909101546001600160a01b03168083529087905260409091205490915061562a9082906156ce565b6156349085615e95565b935050808061564290615f03565b9150506155ce565b8254600090815b818110156137e157600086828154811061567b57634e487b7160e01b600052603260045260246000fd5b60009182526020808320909101546001600160a01b0316808352908890526040909120549091506156ae908290876156dc565b6156b89085615e95565b93505080806156c690615f03565b915050615651565b6000611d2283836000611bdf565b60008061571a606660009081526020527f422cccb7cea5c0e46f340bb7b21b81debac329f72e31669c20ff0f3a05cc2b5b546001600160a01b031690565b6040517f14189db20000000000000000000000000000000000000000000000000000000081526001600160a01b03878116600483015291909116906314189db29060240160206040518083038186803b15801561577657600080fd5b505afa15801561578a573d6000803e3d6000fd5b505050506040513d601f19601f820116820180604052508101906157ae9190615cd3565b6001600160a01b038616600090815260208590526040812054919250906157d58387615ecd565b6157df9190615ead565b9050611d1d86826156ce565b82805482825590600052602060002090810192821561584d579160200282015b8281111561584d578251825473ffffffffffffffffffffffffffffffffffffffff19166001600160a01b0390911617825560209092019160019091019061580b565b5061585992915061587e565b5090565b508054600082559060005260206000209081019061587b919061587e565b50565b5b80821115615859576000815560010161587f565b600082601f8301126158a3578081fd5b813560206158b86158b383615e71565b615e40565b80838252828201915082860187848660051b89010111156158d7578586fd5b855b858110156158fe5781356158ec81615f4a565b845292840192908401906001016158d9565b5090979650505050505050565b80516dffffffffffffffffffffffffffff81168114610edf57600080fd5b60006020828403121561593a578081fd5b8135611d2281615f4a565b600060208284031215615956578081fd5b8151611d2281615f4a565b60008060408385031215615973578081fd5b823561597e81615f4a565b9150602083013561598e81615f4a565b809150509250929050565b600080600080600060a086880312156159b0578081fd5b85356159bb81615f4a565b945060208601356159cb81615f4a565b935060408601356159db81615f4a565b94979396509394606081013594506080013592915050565b600080600060608486031215615a07578283fd5b8335615a1281615f4a565b92506020840135615a2281615f4a565b929592945050506040919091013590565b600080600080600060a08688031215615a4a578081fd5b8535615a5581615f4a565b94506020860135615a6581615f4a565b9350604086013592506060860135615a7c81615f4a565b949793965091946080013592915050565b60008060408385031215615a9f578182fd5b8235615aaa81615f4a565b946020939093013593505050565b60008060408385031215615aca578182fd5b8251615ad581615f4a565b6020939093015192949293505050565b600080600060608486031215615af9578081fd5b8335615b0481615f4a565b9250602084013591506040840135615b1b81615f5f565b809150509250925092565b600060208284031215615b37578081fd5b813567ffffffffffffffff811115615b4d578182fd5b615b5984828501615893565b949350505050565b60006020808385031215615b73578182fd5b825167ffffffffffffffff811115615b89578283fd5b8301601f81018513615b99578283fd5b8051615ba76158b382615e71565b80828252848201915084840188868560051b8701011115615bc6578687fd5b8694505b83851015615be8578051835260019490940193918501918501615bca565b50979650505050505050565b600060208284031215615c05578081fd5b8151611d2281615f5f565b60008060408385031215615c22578182fd5b82359150602083013567ffffffffffffffff811115615c3f578182fd5b615c4b85828601615893565b9150509250929050565b600080600060608486031215615c69578081fd5b615c728461590b565b9250615c806020850161590b565b9150604084015163ffffffff81168114615b1b578182fd5b60008060408385031215615caa578182fd5b823561ffff81168114615aaa578283fd5b600060208284031215615ccc578081fd5b5035919050565b600060208284031215615ce4578081fd5b5051919050565b60008060408385031215615cfd578182fd5b82359150602083013561598e81615f4a565b60008060408385031215615d21578182fd5b505080516020909101519092909150565b600080600060608486031215615d46578081fd5b505081359360208301359350604090920135919050565b6000815480845260208085019450838352808320835b83811015615d985781546001600160a01b031687529582019560019182019101615d73565b509495945050505050565b604080825283519082018190526000906020906060840190828701845b82811015615de75781516001600160a01b0316845260208401935090840190600101615dc0565b50505083810382850152845180825285830191830190845b818110156158fe57835183529284019291840191600101615dff565b6000858252846020830152836040830152608060608301526133d46080830184615d5d565b604051601f8201601f1916810167ffffffffffffffff81118282101715615e6957615e69615f34565b604052919050565b600067ffffffffffffffff821115615e8b57615e8b615f34565b5060051b60200190565b60008219821115615ea857615ea8615f1e565b500190565b600082615ec857634e487b7160e01b81526012600452602481fd5b500490565b6000816000190483118215151615615ee757615ee7615f1e565b500290565b600082821015615efe57615efe615f1e565b500390565b6000600019821415615f1757615f17615f1e565b5060010190565b634e487b7160e01b600052601160045260246000fd5b634e487b7160e01b600052604160045260246000fd5b6001600160a01b038116811461587b57600080fd5b801515811461587b57600080fdfea2646970667358221220e50b60d68a57ab141f132ee0239546b8589e6fe9a1f9de67b2cac21d98d03c5064736f6c63430008030033",
  "linkReferences": {},
  "deployedLinkReferences": {}
}