{
  "_format": "hh-sol-artifact-1",
  "contractName": "CrossMarginTrading",
  "sourceName": "contracts/CrossMarginTrading.sol",
  "abi": [
    {
      "inputs": [
        {
          "internalType": "address",
          "name": "_peg",
          "type": "address"
        },
        {
          "internalType": "address",
          "name": "_roles",
          "type": "address"
        }
      ],
      "stateMutability": "nonpayable",
      "type": "constructor"
    },
    {
      "anonymous": false,
      "inputs": [
        {
          "indexed": false,
          "internalType": "address",
          "name": "account",
          "type": "address"
        }
      ],
      "name": "AccountLiquidated",
      "type": "event"
    },
    {
      "anonymous": false,
      "inputs": [
        {
          "indexed": false,
          "internalType": "uint256",
          "name": "amount",
          "type": "uint256"
        }
      ],
      "name": "LiquidationShortfall",
      "type": "event"
    },
    {
      "inputs": [],
      "name": "MAINTAINER_CUT_PERCENT",
      "outputs": [
        {
          "internalType": "uint256",
          "name": "",
          "type": "uint256"
        }
      ],
      "stateMutability": "view",
      "type": "function"
    },
    {
      "inputs": [],
      "name": "UPDATE_MAX_PEG_AMOUNT",
      "outputs": [
        {
          "internalType": "uint256",
          "name": "",
          "type": "uint256"
        }
      ],
      "stateMutability": "view",
      "type": "function"
    },
    {
      "inputs": [],
      "name": "UPDATE_MIN_PEG_AMOUNT",
      "outputs": [
        {
          "internalType": "uint256",
          "name": "",
          "type": "uint256"
        }
      ],
      "stateMutability": "view",
      "type": "function"
    },
    {
      "inputs": [],
      "name": "UPDATE_RATE_PERMIL",
      "outputs": [
        {
          "internalType": "uint256",
          "name": "",
          "type": "uint256"
        }
      ],
      "stateMutability": "view",
      "type": "function"
    },
    {
      "inputs": [],
      "name": "avgLiquidationPerCall",
      "outputs": [
        {
          "internalType": "uint256",
          "name": "",
          "type": "uint256"
        }
      ],
      "stateMutability": "view",
      "type": "function"
    },
    {
      "inputs": [
        {
          "internalType": "address",
          "name": "trader",
          "type": "address"
        }
      ],
      "name": "canBeLiquidated",
      "outputs": [
        {
          "internalType": "bool",
          "name": "",
          "type": "bool"
        }
      ],
      "stateMutability": "view",
      "type": "function"
    },
    {
      "inputs": [],
      "name": "coolingOffPeriod",
      "outputs": [
        {
          "internalType": "uint256",
          "name": "",
          "type": "uint256"
        }
      ],
      "stateMutability": "view",
      "type": "function"
    },
    {
      "inputs": [
        {
          "internalType": "address[]",
          "name": "liquidatedAccounts",
          "type": "address[]"
        }
      ],
      "name": "disburseLiqStakeAttacks",
      "outputs": [],
      "stateMutability": "nonpayable",
      "type": "function"
    },
    {
      "inputs": [],
      "name": "failureThreshold",
      "outputs": [
        {
          "internalType": "uint256",
          "name": "",
          "type": "uint256"
        }
      ],
      "stateMutability": "view",
      "type": "function"
    },
    {
      "inputs": [
        {
          "internalType": "address",
          "name": "trader",
          "type": "address"
        }
      ],
      "name": "getBorrowAmounts",
      "outputs": [
        {
          "internalType": "address[]",
          "name": "borrowTokens",
          "type": "address[]"
        },
        {
          "internalType": "uint256[]",
          "name": "borrowAmounts",
          "type": "uint256[]"
        }
      ],
      "stateMutability": "view",
      "type": "function"
    },
    {
      "inputs": [
        {
          "internalType": "address",
          "name": "token",
          "type": "address"
        },
        {
          "internalType": "uint256",
          "name": "inAmount",
          "type": "uint256"
        },
        {
          "internalType": "bool",
          "name": "forceCurBlock",
          "type": "bool"
        }
      ],
      "name": "getCurrentPriceInPeg",
      "outputs": [
        {
          "internalType": "uint256",
          "name": "",
          "type": "uint256"
        }
      ],
      "stateMutability": "nonpayable",
      "type": "function"
    },
    {
      "inputs": [
        {
          "internalType": "address",
          "name": "trader",
          "type": "address"
        }
      ],
      "name": "getHoldingAmounts",
      "outputs": [
        {
          "internalType": "address[]",
          "name": "holdingTokens",
          "type": "address[]"
        },
        {
          "internalType": "uint256[]",
          "name": "holdingAmounts",
          "type": "uint256[]"
        }
      ],
      "stateMutability": "view",
      "type": "function"
    },
    {
      "inputs": [],
      "name": "leveragePercent",
      "outputs": [
        {
          "internalType": "uint256",
          "name": "",
          "type": "uint256"
        }
      ],
      "stateMutability": "view",
      "type": "function"
    },
    {
      "inputs": [],
      "name": "liqStakeAttackWindow",
      "outputs": [
        {
          "internalType": "uint256",
          "name": "",
          "type": "uint256"
        }
      ],
      "stateMutability": "view",
      "type": "function"
    },
    {
      "inputs": [
        {
          "internalType": "address[]",
          "name": "liquidationCandidates",
          "type": "address[]"
        }
      ],
      "name": "liquidate",
      "outputs": [
        {
          "internalType": "uint256",
          "name": "maintainerCut",
          "type": "uint256"
        }
      ],
      "stateMutability": "nonpayable",
      "type": "function"
    },
    {
      "inputs": [],
      "name": "liquidationThresholdPercent",
      "outputs": [
        {
          "internalType": "uint256",
          "name": "",
          "type": "uint256"
        }
      ],
      "stateMutability": "view",
      "type": "function"
    },
    {
      "inputs": [
        {
          "internalType": "uint256",
          "name": "",
          "type": "uint256"
        }
      ],
      "name": "mainCharacterCache",
      "outputs": [
        {
          "internalType": "address",
          "name": "",
          "type": "address"
        }
      ],
      "stateMutability": "view",
      "type": "function"
    },
    {
      "inputs": [
        {
          "internalType": "address",
          "name": "",
          "type": "address"
        }
      ],
      "name": "maintenanceFailures",
      "outputs": [
        {
          "internalType": "uint256",
          "name": "",
          "type": "uint256"
        }
      ],
      "stateMutability": "view",
      "type": "function"
    },
    {
      "inputs": [],
      "name": "peg",
      "outputs": [
        {
          "internalType": "address",
          "name": "",
          "type": "address"
        }
      ],
      "stateMutability": "view",
      "type": "function"
    },
    {
      "inputs": [],
      "name": "priceUpdateWindow",
      "outputs": [
        {
          "internalType": "uint16",
          "name": "",
          "type": "uint16"
        }
      ],
      "stateMutability": "view",
      "type": "function"
    },
    {
      "inputs": [
        {
          "internalType": "address",
          "name": "trader",
          "type": "address"
        },
        {
          "internalType": "address",
          "name": "borrowToken",
          "type": "address"
        },
        {
          "internalType": "uint256",
          "name": "borrowAmount",
          "type": "uint256"
        }
      ],
      "name": "registerBorrow",
      "outputs": [],
      "stateMutability": "nonpayable",
      "type": "function"
    },
    {
      "inputs": [
        {
          "internalType": "address",
          "name": "trader",
          "type": "address"
        },
        {
          "internalType": "address",
          "name": "token",
          "type": "address"
        },
        {
          "internalType": "uint256",
          "name": "depositAmount",
          "type": "uint256"
        }
      ],
      "name": "registerDeposit",
      "outputs": [
        {
          "internalType": "uint256",
          "name": "extinguishableDebt",
          "type": "uint256"
        }
      ],
      "stateMutability": "nonpayable",
      "type": "function"
    },
    {
      "inputs": [
        {
          "internalType": "address",
          "name": "trader",
          "type": "address"
        }
      ],
      "name": "registerLiquidation",
      "outputs": [],
      "stateMutability": "nonpayable",
      "type": "function"
    },
    {
      "inputs": [
        {
          "internalType": "address",
          "name": "trader",
          "type": "address"
        },
        {
          "internalType": "address",
          "name": "depositToken",
          "type": "address"
        },
        {
          "internalType": "uint256",
          "name": "depositAmount",
          "type": "uint256"
        },
        {
          "internalType": "address",
          "name": "borrowToken",
          "type": "address"
        },
        {
          "internalType": "uint256",
          "name": "withdrawAmount",
          "type": "uint256"
        }
      ],
      "name": "registerOvercollateralizedBorrow",
      "outputs": [],
      "stateMutability": "nonpayable",
      "type": "function"
    },
    {
      "inputs": [
        {
          "internalType": "address",
          "name": "trader",
          "type": "address"
        },
        {
          "internalType": "address",
          "name": "tokenFrom",
          "type": "address"
        },
        {
          "internalType": "address",
          "name": "tokenTo",
          "type": "address"
        },
        {
          "internalType": "uint256",
          "name": "inAmount",
          "type": "uint256"
        },
        {
          "internalType": "uint256",
          "name": "outAmount",
          "type": "uint256"
        }
      ],
      "name": "registerTradeAndBorrow",
      "outputs": [
        {
          "internalType": "uint256",
          "name": "extinguishableDebt",
          "type": "uint256"
        },
        {
          "internalType": "uint256",
          "name": "borrowAmount",
          "type": "uint256"
        }
      ],
      "stateMutability": "nonpayable",
      "type": "function"
    },
    {
      "inputs": [
        {
          "internalType": "address",
          "name": "trader",
          "type": "address"
        },
        {
          "internalType": "address",
          "name": "withdrawToken",
          "type": "address"
        },
        {
          "internalType": "uint256",
          "name": "withdrawAmount",
          "type": "uint256"
        }
      ],
      "name": "registerWithdrawal",
      "outputs": [],
      "stateMutability": "nonpayable",
      "type": "function"
    },
    {
      "inputs": [
        {
          "internalType": "address",
          "name": "",
          "type": "address"
        },
        {
          "internalType": "uint256",
          "name": "",
          "type": "uint256"
        }
      ],
      "name": "roleCache",
      "outputs": [
        {
          "internalType": "bool",
          "name": "",
          "type": "bool"
        }
      ],
      "stateMutability": "view",
      "type": "function"
    },
    {
      "inputs": [],
      "name": "roles",
      "outputs": [
        {
          "internalType": "contract Roles",
          "name": "",
          "type": "address"
        }
      ],
      "stateMutability": "view",
      "type": "function"
    },
    {
      "inputs": [
        {
          "internalType": "uint256",
          "name": "blocks",
          "type": "uint256"
        }
      ],
      "name": "setCoolingOffPeriod",
      "outputs": [],
      "stateMutability": "nonpayable",
      "type": "function"
    },
    {
      "inputs": [
        {
          "internalType": "uint256",
          "name": "threshFactor",
          "type": "uint256"
        }
      ],
      "name": "setFailureThreshold",
      "outputs": [],
      "stateMutability": "nonpayable",
      "type": "function"
    },
    {
      "inputs": [
        {
          "internalType": "uint256",
          "name": "_leveragePercent",
          "type": "uint256"
        }
      ],
      "name": "setLeverage",
      "outputs": [],
      "stateMutability": "nonpayable",
      "type": "function"
    },
    {
      "inputs": [
        {
          "internalType": "uint256",
          "name": "window",
          "type": "uint256"
        }
      ],
      "name": "setLiqStakeAttackWindow",
      "outputs": [],
      "stateMutability": "nonpayable",
      "type": "function"
    },
    {
      "inputs": [
        {
          "internalType": "bytes32",
          "name": "amms",
          "type": "bytes32"
        },
        {
          "internalType": "address[]",
          "name": "tokens",
          "type": "address[]"
        }
      ],
      "name": "setLiquidationPath",
      "outputs": [],
      "stateMutability": "nonpayable",
      "type": "function"
    },
    {
      "inputs": [
        {
          "internalType": "uint256",
          "name": "threshold",
          "type": "uint256"
        }
      ],
      "name": "setLiquidationThresholdPercent",
      "outputs": [],
      "stateMutability": "nonpayable",
      "type": "function"
    },
    {
      "inputs": [
        {
          "internalType": "uint256",
          "name": "cut",
          "type": "uint256"
        }
      ],
      "name": "setMaintainerCutPercent",
      "outputs": [],
      "stateMutability": "nonpayable",
      "type": "function"
    },
    {
      "inputs": [
        {
          "internalType": "uint16",
          "name": "window",
          "type": "uint16"
        }
      ],
      "name": "setPriceUpdateWindow",
      "outputs": [],
      "stateMutability": "nonpayable",
      "type": "function"
    },
    {
      "inputs": [
        {
          "internalType": "address",
          "name": "token",
          "type": "address"
        },
        {
          "internalType": "uint256",
          "name": "cap",
          "type": "uint256"
        }
      ],
      "name": "setTokenCap",
      "outputs": [],
      "stateMutability": "nonpayable",
      "type": "function"
    },
    {
      "inputs": [
        {
          "internalType": "uint256",
          "name": "amount",
          "type": "uint256"
        }
      ],
      "name": "setUpdateMaxPegAmount",
      "outputs": [],
      "stateMutability": "nonpayable",
      "type": "function"
    },
    {
      "inputs": [
        {
          "internalType": "uint256",
          "name": "amount",
          "type": "uint256"
        }
      ],
      "name": "setUpdateMinPegAmount",
      "outputs": [],
      "stateMutability": "nonpayable",
      "type": "function"
    },
    {
      "inputs": [
        {
          "internalType": "uint256",
          "name": "rate",
          "type": "uint256"
        }
      ],
      "name": "setUpdateRate",
      "outputs": [],
      "stateMutability": "nonpayable",
      "type": "function"
    },
    {
      "inputs": [
        {
          "internalType": "address",
          "name": "",
          "type": "address"
        }
      ],
      "name": "stakeAttackRecords",
      "outputs": [
        {
          "internalType": "uint256",
          "name": "blockNum",
          "type": "uint256"
        },
        {
          "internalType": "address",
          "name": "loser",
          "type": "address"
        },
        {
          "internalType": "uint256",
          "name": "amount",
          "type": "uint256"
        },
        {
          "internalType": "address",
          "name": "stakeAttacker",
          "type": "address"
        }
      ],
      "stateMutability": "view",
      "type": "function"
    },
    {
      "inputs": [
        {
          "internalType": "address",
          "name": "",
          "type": "address"
        }
      ],
      "name": "tokenCaps",
      "outputs": [
        {
          "internalType": "uint256",
          "name": "",
          "type": "uint256"
        }
      ],
      "stateMutability": "view",
      "type": "function"
    },
    {
      "inputs": [
        {
          "internalType": "address",
          "name": "",
          "type": "address"
        }
      ],
      "name": "tokenPrices",
      "outputs": [
        {
          "internalType": "uint256",
          "name": "blockLastUpdated",
          "type": "uint256"
        },
        {
          "internalType": "uint256",
          "name": "tokenPer1k",
          "type": "uint256"
        },
        {
          "internalType": "bytes32",
          "name": "amms",
          "type": "bytes32"
        },
        {
          "internalType": "bytes32",
          "name": "inverseAmms",
          "type": "bytes32"
        }
      ],
      "stateMutability": "view",
      "type": "function"
    },
    {
      "inputs": [
        {
          "internalType": "address",
          "name": "",
          "type": "address"
        }
      ],
      "name": "totalLong",
      "outputs": [
        {
          "internalType": "uint256",
          "name": "",
          "type": "uint256"
        }
      ],
      "stateMutability": "view",
      "type": "function"
    },
    {
      "inputs": [
        {
          "internalType": "address",
          "name": "",
          "type": "address"
        }
      ],
      "name": "totalShort",
      "outputs": [
        {
          "internalType": "uint256",
          "name": "",
          "type": "uint256"
        }
      ],
      "stateMutability": "view",
      "type": "function"
    },
    {
      "inputs": [
        {
          "internalType": "uint256",
          "name": "role",
          "type": "uint256"
        }
      ],
      "name": "updateMainCharacterCache",
      "outputs": [],
      "stateMutability": "nonpayable",
      "type": "function"
    },
    {
      "inputs": [
        {
          "internalType": "uint256",
          "name": "role",
          "type": "uint256"
        },
        {
          "internalType": "address",
          "name": "contr",
          "type": "address"
        }
      ],
      "name": "updateRoleCache",
      "outputs": [],
      "stateMutability": "nonpayable",
      "type": "function"
    },
    {
      "inputs": [
        {
          "internalType": "address",
          "name": "token",
          "type": "address"
        },
        {
          "internalType": "uint256",
          "name": "inAmount",
          "type": "uint256"
        }
      ],
      "name": "viewCurrentPriceInPeg",
      "outputs": [
        {
          "internalType": "uint256",
          "name": "",
          "type": "uint256"
        }
      ],
      "stateMutability": "view",
      "type": "function"
    },
    {
      "inputs": [
        {
          "internalType": "address",
          "name": "trader",
          "type": "address"
        }
      ],
      "name": "viewHoldingsInPeg",
      "outputs": [
        {
          "internalType": "uint256",
          "name": "",
          "type": "uint256"
        }
      ],
      "stateMutability": "view",
      "type": "function"
    },
    {
      "inputs": [
        {
          "internalType": "address",
          "name": "trader",
          "type": "address"
        }
      ],
      "name": "viewLoanInPeg",
      "outputs": [
        {
          "internalType": "uint256",
          "name": "amount",
          "type": "uint256"
        }
      ],
      "stateMutability": "view",
      "type": "function"
    }
  ],
  "bytecode": "0x60c06040526003805461ffff19166008179055605060045561c35060059081556103e8600655600a601481905560158290556016919091556017553480156200004757600080fd5b5060405162006052380380620060528339810160408190526200006a9162000121565b81816001600160a01b038116620000d25760405162461bcd60e51b815260206004820152602260248201527f506c656173652070726f766964652076616c696420726f6c6573206164647265604482015261737360f01b606482015260840160405180910390fd5b6001600160601b0319606091821b811660805291901b1660a0525050606e6008556014600d5561012c60075562000158565b80516001600160a01b03811681146200011c57600080fd5b919050565b6000806040838503121562000134578182fd5b6200013f8362000104565b91506200014f6020840162000104565b90509250929050565b60805160601c60a05160601c615e7a620001d8600039600081816103ed015281816109e701528181610f4f01528181612162015281816122f001528181612a7a01528181613ed40152818161507901526151b201526000818161050a015281816108530152818161177201528181612f76015261300f0152615e7a6000f3fe608060405234801561001057600080fd5b50600436106103365760003560e01c8063519bda85116101b2578063a53ac0d9116100f9578063d0eb6653116100a2578063e0f3871f1161007c578063e0f3871f146107bf578063e9c3f77d146107df578063f99fd97c14610808578063f9c7aece1461081b57610336565b8063d0eb665314610786578063d510c53514610799578063db2d904d146107ac57610336565b8063badb5048116100d3578063badb5048146106e6578063bc44dcbc14610753578063c73afac21461077357610336565b8063a53ac0d9146106aa578063a75697a5146106b3578063a985994b146106d357610336565b806379575b231161015b578063a008915911610135578063a008915914610671578063a17ab52714610684578063a37189191461069757610336565b806379575b23146106275780637a1a04df1461063a5780637d100e841461066857610336565b806354554b581161018c57806354554b58146105f857806360b3fa401461060b5780636585b5a61461061e57610336565b8063519bda85146105d357806352a664d9146105dc578063538edb29146105ef57610336565b8063299cf2d2116102815780633ed456fa1161022a578063447d52ba11610204578063447d52ba1461058157806347788cd014610594578063498d55eb146105b75780634aa4aca3146105ca57610336565b80633ed456fa1461052c5780633ffc17c01461054d578063409fdb721461056057610336565b8063320d2fa01161025b578063320d2fa0146104d45780633500aa0b146104dd578063392f5f641461050557610336565b8063299cf2d2146104af5780632b23f857146104b85780632febaa74146104cb57610336565b80631d47e4a3116102e35780631f692a64116102bd5780631f692a6414610427578063204120bc1461043a57806320c271261461048f57610336565b80631d47e4a3146103c25780631d84cc18146103d55780631f1cb62b146103e857610336565b806310d584341161031457806310d584341461038957806316317e7e1461039c57806319fa00e1146103af57610336565b8063071060a61461033b57806307c2017514610350578063093a483a14610363575b600080fd5b61034e610349366004615a87565b610824565b005b61034e61035e3660046158f3565b610903565b61037661037136600461585a565b6109e3565b6040519081526020015b60405180910390f35b61034e610397366004615a87565b610b05565b61034e6103aa366004615a87565b610b88565b61034e6103bd366004615a87565b610c06565b61034e6103d036600461585a565b610c84565b61034e6103e3366004615800565b610d65565b61040f7f000000000000000000000000000000000000000000000000000000000000000081565b6040516001600160a01b039091168152602001610380565b61037661043536600461572e565b610e26565b61046f61044836600461572e565b60026020526000908152604090208054600182015460038301546005909301549192909184565b604080519485526020850193909352918301526060820152608001610380565b61037661049d36600461572e565b600c6020526000908152604090205481565b61037660055481565b61034e6104c63660046159dd565b610e5b565b610376600d5481565b61037660085481565b6104f06104eb366004615766565b6111e3565b60408051928352602083019190915201610380565b61040f7f000000000000000000000000000000000000000000000000000000000000000081565b60035461053a9061ffff1681565b60405161ffff9091168152602001610380565b61034e61055b366004615a87565b61153e565b61057361056e36600461572e565b6115bc565b604051610380929190615b4f565b61034e61058f366004615ab7565b611733565b6105a76105a236600461572e565b611824565b6040519015158152602001610380565b61034e6105c53660046157c0565b61188b565b61037660155481565b61037660045481565b6103766105ea3660046157c0565b611932565b61037660165481565b61034e610606366004615a87565b611a66565b6103766106193660046158b2565b611ae4565b61037660145481565b61034e610635366004615a87565b611bb0565b6105a761064836600461585a565b600160209081526000928352604080842090915290825290205460ff1681565b61037660175481565b61034e61067f366004615a65565b611c2e565b61037661069236600461572e565b611cbf565b61034e6106a5366004615a87565b611ce7565b61037660075481565b6103766106c136600461572e565b60126020526000908152604090205481565b6103766106e13660046158f3565b611d65565b6107286106f436600461572e565b601360205260009081526040902080546001820154600283015460039093015491926001600160a01b039182169290911684565b604080519485526001600160a01b039384166020860152840191909152166060820152608001610380565b61037661076136600461572e565b600b6020526000908152604090205481565b61034e610781366004615a87565b6124c6565b61034e6107943660046157c0565b612544565b6105736107a736600461572e565b6125e5565b61034e6107ba36600461572e565b612829565b6103766107cd36600461572e565b600a6020526000908152604090205481565b61040f6107ed366004615a87565b6000602081905290815260409020546001600160a01b031681565b61034e610816366004615a87565b61295a565b61037660065481565b6040517fb4ed0b6d000000000000000000000000000000000000000000000000000000008152600481018290527f00000000000000000000000000000000000000000000000000000000000000006001600160a01b03169063b4ed0b6d9060240160206040518083038186803b15801561089d57600080fd5b505afa1580156108b1573d6000803e3d6000fd5b505050506040513d601f19601f820116820180604052508101906108d5919061574a565b60009182526020829052604090912080546001600160a01b0319166001600160a01b03909216919091179055565b60005b80825111156109df57600082828151811061093157634e487b7160e01b600052603260045260246000fd5b60200260200101519050600060136000836001600160a01b03166001600160a01b03168152602001908152602001600020905060155481600001546109769190615c41565b4311156109ca57610986816129d8565b506001600160a01b03821660009081526013602052604081208181556001810180546001600160a01b03199081169091556002820192909255600301805490911690555b505080806109d790615dda565b915050610906565b5050565b60007f00000000000000000000000000000000000000000000000000000000000000006001600160a01b0316836001600160a01b03161415610a26575080610aff565b600060026000856001600160a01b03166001600160a01b0316815260200190815260200160002090506000610abc84836003015484600201805480602002602001604051908101604052809291908181526020018280548015610ab257602002820191906000526020600020905b81546001600160a01b03168152600190910190602001808311610a94575b5050505050612c82565b50905060008160018351610ad09190615dac565b81518110610aee57634e487b7160e01b600052603260045260246000fd5b602002602001015190508093505050505b92915050565b33610b0e612f72565b6001600160a01b03161480610b32575033610b2761300b565b6001600160a01b0316145b610b835760405162461bcd60e51b815260206004820152601e60248201527f526f6c65733a2063616c6c6572206973206e6f7420746865206f776e6572000060448201526064015b60405180910390fd5b601755565b33610b91612f72565b6001600160a01b03161480610bb5575033610baa61300b565b6001600160a01b0316145b610c015760405162461bcd60e51b815260206004820152601e60248201527f526f6c65733a2063616c6c6572206973206e6f7420746865206f776e657200006044820152606401610b7a565b600855565b33610c0f612f72565b6001600160a01b03161480610c33575033610c2861300b565b6001600160a01b0316145b610c7f5760405162461bcd60e51b815260206004820152601e60248201527f526f6c65733a2063616c6c6572206973206e6f7420746865206f776e657200006044820152606401610b7a565b600655565b33610c8d612f72565b6001600160a01b03161480610cb1575033610ca661300b565b6001600160a01b0316145b80610cd757503360009081526001602090815260408083206009845290915290205460ff165b610d495760405162461bcd60e51b815260206004820152603960248201527f43616c6c6572206973206e6f7420746865206f776e65722c206578656375746f60448201527f72206f7220617574686f72697a656420616374697661746f72000000000000006064820152608401610b7a565b6001600160a01b039091166000908152600a6020526040902055565b3360009081526001602090815260408083206004845290915290205460ff16610de35760405162461bcd60e51b815260206004820152602a60248201527f43616c6c696e6720636f6e7472616374206e6f7420617574686f72697a6564206044820152691d1bc819195c1bdcda5d60b21b6064820152608401610b7a565b6001600160a01b0385166000908152600960205260409020610e0681868661307c565b610e1181848461314d565b610e1c81848461327a565b4390555050505050565b6001600160a01b0381166000908152600960205260408120610e5260018201600283016003840161340c565b9150505b919050565b33610e64612f72565b6001600160a01b03161480610e88575033610e7d61300b565b6001600160a01b0316145b80610eae57503360009081526001602090815260408083206009845290915290205460ff165b610f205760405162461bcd60e51b815260206004820152603960248201527f43616c6c6572206973206e6f7420746865206f776e65722c206578656375746f60448201527f72206f7220617574686f72697a656420616374697661746f72000000000000006064820152608401610b7a565b600081600081518110610f4357634e487b7160e01b600052603260045260246000fd5b602002602001015190507f00000000000000000000000000000000000000000000000000000000000000006001600160a01b0316816001600160a01b0316146111de576001600160a01b03811660009081526002602081815260409092206003810186905584519092610fbc92840191908601906155fd565b50825167ffffffffffffffff811115610fe557634e487b7160e01b600052604160045260246000fd5b60405190808252806020026020018201604052801561100e578160200160208202803683370190505b5080516110259160048401916020909101906155fd565b506000805b80600186516110399190615dac565b11156110ad57600081600287516110509190615dac565b61105a9190615dac565b611065906008615d8d565b87836020811061108557634e487b7160e01b600052603260045260246000fd5b1a60f81b6001600160f81b031916901c929092179150806110a581615dda565b91505061102a565b506005820181905560005b808551111561115f578460018287516110d19190615dac565b6110db9190615dac565b815181106110f957634e487b7160e01b600052603260045260246000fd5b602002602001015183600401828154811061112457634e487b7160e01b600052603260045260246000fd5b600091825260209091200180546001600160a01b0319166001600160a01b03929092169190911790558061115781615dda565b9150506110b8565b5060006111836111716006600a615cbf565b61117c906064615d8d565b8787613490565b5090506000816000815181106111a957634e487b7160e01b600052603260045260246000fd5b602002602001015190506111d984826006600a6111c69190615cbf565b6111d1906064615d8d565b6103e8613798565b505050505b505050565b33600090815260016020908152604080832060048452909152812054819060ff166112765760405162461bcd60e51b815260206004820152603960248201527f43616c6c696e6720636f6e7472616374206973206e6f7420616e20617574686f60448201527f72697a6564206d617267696e20747261646572206167656e74000000000000006064820152608401610b7a565b6001600160a01b03808816600090815260096020908152604080832093891683526002840190915290205415611307576001600160a01b03861660009081526002820160205260409020546112cc90859061381e565b92506112d9818785613836565b6001600160a01b0386166000908152600b602052604081208054859290611301908490615dac565b90915550505b6001600160a01b0387166000908152600c60205260408120805487929061132f908490615dac565b9091555061133f90508385615dac565b6001600160a01b0387166000908152600c602052604081208054909190611367908490615c41565b90915550506001600160a01b0386166000908152600c6020908152604080832054600a9092529091205410156114055760405162461bcd60e51b815260206004820152603960248201527f457863656564696e6720676c6f62616c206578706f737572652063617020746f60448201527f20746f6b656e202d2d2074727920616761696e206c61746572000000000000006064820152608401610b7a565b6001600160a01b0387166000908152600582016020526040902054859081111561152557506001600160a01b038716600090815260058201602052604090205461144f8187615dac565b6001600160a01b0389166000908152600b602052604081208054929550859290919061147c908490615c41565b90915550506001600160a01b0388166000908152600b6020908152604080832054600a90925290912054101561151a5760405162461bcd60e51b815260206004820152603960248201527f457863656564696e6720676c6f62616c206578706f737572652063617020746f60448201527f20746f6b656e202d2d2074727920616761696e206c61746572000000000000006064820152608401610b7a565b611525828985613aec565b6115328289898489613df2565b50509550959350505050565b33611547612f72565b6001600160a01b0316148061156b57503361156061300b565b6001600160a01b0316145b6115b75760405162461bcd60e51b815260206004820152601e60248201527f526f6c65733a2063616c6c6572206973206e6f7420746865206f776e657200006044820152606401610b7a565b600555565b6001600160a01b03811660009081526009602090815260409182902060048101805484518185028101850190955280855260609485949092919083018282801561162f57602002820191906000526020600020905b81546001600160a01b03168152600190910190602001808311611611575b5050506004840154929550505067ffffffffffffffff81111561166257634e487b7160e01b600052604160045260246000fd5b60405190808252806020026020018201604052801561168b578160200160208202803683370190505b50915060005b808451111561172c5760008482815181106116bc57634e487b7160e01b600052603260045260246000fd5b60200260200101519050826005016000826001600160a01b03166001600160a01b031681526020019081526020016000205484838151811061170e57634e487b7160e01b600052603260045260246000fd5b6020908102919091010152508061172481615dda565b915050611691565b5050915091565b6040517f93552a3d000000000000000000000000000000000000000000000000000000008152600481018390526001600160a01b0382811660248301527f000000000000000000000000000000000000000000000000000000000000000016906393552a3d9060440160206040518083038186803b1580156117b457600080fd5b505afa1580156117c8573d6000803e3d6000fd5b505050506040513d601f19601f820116820180604052508101906117ec91906159c1565b6001600160a01b0391909116600090815260016020908152604080832094835293905291909120805460ff1916911515919091179055565b6001600160a01b03811660009081526009602052604081208161185160018301600284016003850161340c565b905060006118658360040184600501613e45565b9050816008546118759190615d8d565b611880826064615d8d565b101595945050505050565b3360009081526001602090815260408083206004845290915290205460ff166119095760405162461bcd60e51b815260206004820152602a60248201527f43616c6c696e6720636f6e7472616374206e6f7420617574686f72697a6564206044820152691d1bc819195c1bdcda5d60b21b6064820152608401610b7a565b6001600160a01b038316600090815260096020526040902061192c81848461314d565b50505050565b3360009081526001602090815260408083206004845290915281205460ff166119b05760405162461bcd60e51b815260206004820152602a60248201527f43616c6c696e6720636f6e7472616374206e6f7420617574686f72697a6564206044820152691d1bc819195c1bdcda5d60b21b6064820152608401610b7a565b6001600160a01b03808516600090815260096020908152604080832043815593871683526002840190915290205415611a44576001600160a01b0384166000908152600282016020526040902054611a0990849061381e565b9150611a16818584613836565b6001600160a01b0384166000908152600b602052604081208054849290611a3e908490615dac565b90915550505b6000611a508385615dac565b9050611a5d82868361307c565b50509392505050565b33611a6f612f72565b6001600160a01b03161480611a93575033611a8861300b565b6001600160a01b0316145b611adf5760405162461bcd60e51b815260206004820152601e60248201527f526f6c65733a2063616c6c6572206973206e6f7420746865206f776e657200006044820152606401610b7a565b600455565b6001600160a01b03831660009081526002602052604081208215611b3a57600354815461ffff90911690611b189043615dac565b1115611b3057611b288585613ed0565b915050611ba9565b611b2885856109e3565b6001810154611b4d57611b288585613ed0565b600354815461ffff90911690611b639043615dac565b1115611b7557611b738585613ed0565b505b6001810154611b866006600a615cbf565b611b91906064615d8d565b611b9b9086615d8d565b611ba59190615c59565b9150505b9392505050565b33611bb9612f72565b6001600160a01b03161480611bdd575033611bd261300b565b6001600160a01b0316145b611c295760405162461bcd60e51b815260206004820152601e60248201527f526f6c65733a2063616c6c6572206973206e6f7420746865206f776e657200006044820152606401610b7a565b600755565b33611c37612f72565b6001600160a01b03161480611c5b575033611c5061300b565b6001600160a01b0316145b611ca75760405162461bcd60e51b815260206004820152601e60248201527f526f6c65733a2063616c6c6572206973206e6f7420746865206f776e657200006044820152606401610b7a565b6003805461ffff191661ffff92909216919091179055565b6001600160a01b0381166000908152600960205260408120610e526004820160058301613e45565b33611cf0612f72565b6001600160a01b03161480611d14575033611d0961300b565b6001600160a01b0316145b611d605760405162461bcd60e51b815260206004820152601e60248201527f526f6c65733a2063616c6c6572206973206e6f7420746865206f776e657200006044820152606401610b7a565b601555565b6000333214611ddc5760405162461bcd60e51b815260206004820152603a60248201527f43757272656e746c79206e6f20696e7465726d656469617269657320616c6c6f60448201527f77656420666f7220746869732066756e6374696f6e2063616c6c0000000000006064820152608401610b7a565b6000611e19606b60009081526020527f2dc7a963308417ad45132da282495eb244f38a7db03940a4d808be607669c622546001600160a01b031690565b6040517f7b23cbce0000000000000000000000000000000000000000000000000000000081523360048201526001600160a01b039190911690637b23cbce90602401602060405180830381600087803b158015611e7557600080fd5b505af1158015611e89573d6000803e3d6000fd5b505050506040513d601f19601f82011682018060405250810190611ead91906159c1565b905060008180611ec05750611ec061400f565b9050611ecc84836140ef565b92506000611ed8614610565b90506000611ee46146ec565b90508160646016546064611ef89190615c41565b611f029084615d8d565b611f0c9190615c59565b1115611f75577f3555ffae7677eb42103f0b9e11b61c758f452fae446684dec7a363dd38ab58fc8260646016546064611f459190615c41565b611f4f9085615d8d565b611f599190615c59565b611f639190615dac565b60405190815260200160405180910390a15b60008361202657606b60009081526020527f2dc7a963308417ad45132da282495eb244f38a7db03940a4d808be607669c622546001600160a01b03166001600160a01b0316631a38de1d6040518163ffffffff1660e01b8152600401602060405180830381600087803b158015611feb57600080fd5b505af1158015611fff573d6000803e3d6000fd5b505050506040513d601f19601f82011682018060405250810190612023919061574a565b90505b60005b6011548110156122745760006011828154811061205657634e487b7160e01b600052603260045260246000fd5b60009182526020808320909101546001600160a01b0316808352600990915260408220909250906120888260016147c5565b905060006120978360016147d8565b905060006064601654836120ab9190615d8d565b6120b59190615c59565b90506120c1818d615c41565b9b5089612116576001600160a01b03858116600090815260136020526040902060028101839055600381018054336001600160a01b031991821617909155438255600190910180549091169189169190911790555b6121208282615c41565b831061221757606560009081526020527f4a7203f705e51df4a56139a9b86b4a0970bed7ab7a3446eaffe2289989c1645c546001600160a01b031663d9caed127f0000000000000000000000000000000000000000000000000000000000000000878461218d8789615dac565b6121979190615dac565b6040517fffffffff0000000000000000000000000000000000000000000000000000000060e086901b1681526001600160a01b0393841660048201529290911660248301526044820152606401600060405180830381600087803b1580156121fe57600080fd5b505af1158015612212573d6000803e3d6000fd5b505050505b6040516001600160a01b03861681527f1d2cc4c8661a04a00b4e727426220501b36d85bb330947642c2d4320667028cf9060200160405180910390a161225c846147ef565b5050505050808061226c90615dda565b915050612029565b5060648660145460636122879190615d8d565b6122919190615c41565b61229b9190615c59565b601455831561236457606560009081526020527f4a7203f705e51df4a56139a9b86b4a0970bed7ab7a3446eaffe2289989c1645c546001600160a01b0316604051636ce5768960e11b81526001600160a01b037f00000000000000000000000000000000000000000000000000000000000000008116600483015233602483015260448201899052919091169063d9caed1290606401600060405180830381600087803b15801561234b57600080fd5b505af115801561235f573d6000803e3d6000fd5b505050505b60006123a1606b60009081526020527f2dc7a963308417ad45132da282495eb244f38a7db03940a4d808be607669c622546001600160a01b031690565b6001600160a01b0316631a38de1d6040518163ffffffff1660e01b8152600401602060405180830381600087803b1580156123db57600080fd5b505af11580156123ef573d6000803e3d6000fd5b505050506040513d601f19601f82011682018060405250810190612413919061574a565b9050851561248d576001600160a01b03811660009081526012602052604090205487101561246e576001600160a01b03811660009081526012602052604081208054899290612463908490615dac565b909155506124889050565b6001600160a01b0381166000908152601260205260408120555b6124bb565b6001600160a01b038116600090815260126020526040812080548992906124b5908490615c41565b90915550505b505050505050919050565b336124cf612f72565b6001600160a01b031614806124f35750336124e861300b565b6001600160a01b0316145b61253f5760405162461bcd60e51b815260206004820152601e60248201527f526f6c65733a2063616c6c6572206973206e6f7420746865206f776e657200006044820152606401610b7a565b601655565b3360009081526001602090815260408083206004845290915290205460ff166125c25760405162461bcd60e51b815260206004820152602a60248201527f43616c6c696e6720636f6e7472616374206e6f7420617574686f72697a6564206044820152691d1bc819195c1bdcda5d60b21b6064820152608401610b7a565b6001600160a01b038316600090815260096020526040902061192c81848461327a565b6001600160a01b03811660009081526009602090815260409182902060018101805484518185028101850190955280855260609485949092919083018282801561265857602002820191906000526020600020905b81546001600160a01b0316815260019091019060200180831161263a575b5050506001840154929550505067ffffffffffffffff81111561268b57634e487b7160e01b600052604160045260246000fd5b6040519080825280602002602001820160405280156126b4578160200160208202803683370190505b50915060005b808451111561172c5760008482815181106126e557634e487b7160e01b600052603260045260246000fd5b6020026020010151905061272a606660009081526020527f422cccb7cea5c0e46f340bb7b21b81debac329f72e31669c20ff0f3a05cc2b5b546001600160a01b031690565b6001600160a01b03828116600081815260028701602090815260408083205460038a01909252918290205491517f76668b670000000000000000000000000000000000000000000000000000000081526004810191909152602481019290925260448201529116906376668b679060640160206040518083038186803b1580156127b357600080fd5b505afa1580156127c7573d6000803e3d6000fd5b505050506040513d601f19601f820116820180604052508101906127eb9190615a9f565b84838151811061280b57634e487b7160e01b600052603260045260246000fd5b6020908102919091010152508061282181615dda565b9150506126ba565b3360009081526001602090815260408083206004845290915290205460ff166128ba5760405162461bcd60e51b815260206004820152603960248201527f43616c6c696e6720636f6e7472616374206973206e6f7420616e20617574686f60448201527f72697a6564206d617267696e20747261646572206167656e74000000000000006064820152608401610b7a565b6001600160a01b0381166000908152600960205260408120906128de9082906147d8565b156129515760405162461bcd60e51b815260206004820152602b60248201527f43616e2774206c69717569646174652063757272656e746c7920626f72726f7760448201527f696e67206163636f756e740000000000000000000000000000000000000000006064820152608401610b7a565b6109df816147ef565b33612963612f72565b6001600160a01b0316148061298757503361297c61300b565b6001600160a01b0316145b6129d35760405162461bcd60e51b815260206004820152601e60248201527f526f6c65733a2063616c6c6572206973206e6f7420746865206f776e657200006044820152606401610b7a565b600d55565b600281015460009015610e56578154600090612a00906129f89043615dac565b60155461381e565b90506000601554828560020154612a179190615d8d565b612a219190615c59565b9050612a5e606560009081526020527f4a7203f705e51df4a56139a9b86b4a0970bed7ab7a3446eaffe2289989c1645c546001600160a01b031690565b6003850154604051636ce5768960e11b81526001600160a01b037f00000000000000000000000000000000000000000000000000000000000000008116600483015291821660248201526044810184905291169063d9caed1290606401600060405180830381600087803b158015612ad557600080fd5b505af1158015612ae9573d6000803e3d6000fd5b505050506000612b2a606b60009081526020527f2dc7a963308417ad45132da282495eb244f38a7db03940a4d808be607669c622546001600160a01b031690565b9050600060145483836001600160a01b0316630ad691506040518163ffffffff1660e01b815260040160206040518083038186803b158015612b6b57600080fd5b505afa158015612b7f573d6000803e3d6000fd5b505050506040513d601f19601f82011682018060405250810190612ba39190615a9f565b612bad9190615d8d565b612bb79190615c59565b600187015460038801546040517f0a45bc1b0000000000000000000000000000000000000000000000000000000081526001600160a01b039283166004820152602481018490529082166044820152919250831690630a45bc1b90606401602060405180830381600087803b158015612c2f57600080fd5b505af1158015612c43573d6000803e3d6000fd5b505050506040513d601f19601f82011682018060405250810190612c679190615a9f565b50828660020154612c789190615dac565b9695505050505050565b606080600283511015612ce85760405162461bcd60e51b815260206004820152602860248201527f556e69737761705374796c654c69623a20746f6b656e207061746820697320746044820152671bdbc81cda1bdc9d60c21b6064820152608401610b7a565b825167ffffffffffffffff811115612d1057634e487b7160e01b600052604160045260246000fd5b604051908082528060200260200182016040528015612d39578160200160208202803683370190505b5091508482600081518110612d5e57634e487b7160e01b600052603260045260246000fd5b60200260200101818152505060018351612d789190615dac565b67ffffffffffffffff811115612d9e57634e487b7160e01b600052604160045260246000fd5b604051908082528060200260200182016040528015612dc7578160200160208202803683370190505b50905060005b60018451612ddb9190615dac565b811015612f69576000848281518110612e0457634e487b7160e01b600052603260045260246000fd5b60200260200101519050600085836001612e1e9190615c41565b81518110612e3c57634e487b7160e01b600052603260045260246000fd5b602002602001015190506000878460208110612e6857634e487b7160e01b600052603260045260246000fd5b1a60f81b6001600160f81b03191615612e8a57612e85838361497f565b612e94565b612e948383614a5d565b905080858581518110612eb757634e487b7160e01b600052603260045260246000fd5b60200260200101906001600160a01b031690816001600160a01b031681525050600080612ee5838686614b1e565b91509150612f1b888781518110612f0c57634e487b7160e01b600052603260045260246000fd5b60200260200101518383614bfb565b88612f27886001615c41565b81518110612f4557634e487b7160e01b600052603260045260246000fd5b60200260200101818152505050505050508080612f6190615dda565b915050612dcd565b50935093915050565b60007f00000000000000000000000000000000000000000000000000000000000000006001600160a01b0316638da5cb5b6040518163ffffffff1660e01b815260040160206040518083038186803b158015612fcd57600080fd5b505afa158015612fe1573d6000803e3d6000fd5b505050506040513d601f19601f82011682018060405250810190613005919061574a565b90505b90565b60007f00000000000000000000000000000000000000000000000000000000000000006001600160a01b031663c34c08e56040518163ffffffff1660e01b8152600401602060405180830381600087803b15801561306857600080fd5b505af1158015612fe1573d6000803e3d6000fd5b613087838383614d2d565b6001600160a01b0382166000908152600c6020526040812080548392906130af908490615c41565b90915550506001600160a01b0382166000908152600c6020908152604080832054600a9092529091205410156111de5760405162461bcd60e51b815260206004820152603960248201527f457863656564696e6720676c6f62616c206578706f737572652063617020746f60448201527f20746f6b656e202d2d2074727920616761696e206c61746572000000000000006064820152608401610b7a565b6001600160a01b0382166000908152600b602052604081208054839290613175908490615c41565b90915550506001600160a01b0382166000908152600c6020526040812080548392906131a2908490615c41565b90915550506001600160a01b0382166000908152600b6020908152604080832054600a90925290912054108015906131fd57506001600160a01b0382166000908152600c6020908152604080832054600a9092529091205410155b61326f5760405162461bcd60e51b815260206004820152603960248201527f457863656564696e6720676c6f62616c206578706f737572652063617020746f60448201527f20746f6b656e202d2d2074727920616761696e206c61746572000000000000006064820152608401610b7a565b6111de838383613aec565b600d5483546132899190615c41565b43116133235760405162461bcd60e51b815260206004820152605260248201527f546f2070726576656e742061747461636b7320796f75206d757374207761697460448201527f20756e74696c20796f757220636f6f6c696e67206f666620706572696f64206960648201527f73206f76657220746f2077697468647261770000000000000000000000000000608482015260a401610b7a565b6001600160a01b0382166000908152600c60205260408120805483929061334b908490615dac565b90915550506001600160a01b0382166000908152600584016020526040902054613376908290615dac565b6001600160a01b038316600090815260058501602052604090205561339a83614db4565b6111de5760405162461bcd60e51b815260206004820152602660248201527f4163636f756e742062616c616e636520697320746f6f206c6f7720746f20776960448201527f74686472617700000000000000000000000000000000000000000000000000006064820152608401610b7a565b8254600090815b81811015611a5d57600086828154811061343d57634e487b7160e01b600052603260045260246000fd5b60009182526020808320909101546001600160a01b03168083529088905260409091205490915061347090829087614e04565b61347a9085615c41565b935050808061348890615dda565b915050613413565b6060806002835110156134f65760405162461bcd60e51b815260206004820152602860248201527f556e69737761705374796c654c69623a20746f6b656e207061746820697320746044820152671bdbc81cda1bdc9d60c21b6064820152608401610b7a565b825167ffffffffffffffff81111561351e57634e487b7160e01b600052604160045260246000fd5b604051908082528060200260200182016040528015613547578160200160208202803683370190505b50915084826001845161355a9190615dac565b8151811061357857634e487b7160e01b600052603260045260246000fd5b602002602001018181525050600183516135929190615dac565b67ffffffffffffffff8111156135b857634e487b7160e01b600052604160045260246000fd5b6040519080825280602002602001820160405280156135e1578160200160208202803683370190505b5090506000600184516135f49190615dac565b90505b8015612f695760008461360b600184615dac565b8151811061362957634e487b7160e01b600052603260045260246000fd5b60200260200101519050600085838151811061365557634e487b7160e01b600052603260045260246000fd5b6020026020010151905060008760018561366f9190615dac565b6020811061368d57634e487b7160e01b600052603260045260246000fd5b1a60f81b6001600160f81b031916156136af576136aa838361497f565b6136b9565b6136b98383614a5d565b905080856136c8600187615dac565b815181106136e657634e487b7160e01b600052603260045260246000fd5b60200260200101906001600160a01b031690816001600160a01b031681525050600080613714838686614b1e565b9150915061374a88878151811061373b57634e487b7160e01b600052603260045260246000fd5b60200260200101518383614efa565b88613756600189615dac565b8151811061377457634e487b7160e01b600052603260045260246000fd5b6020026020010181815250505050505050808061379090615dc3565b9150506135f7565b60006137a5836001615c41565b846137b26006600a615cbf565b6137bd906064615d8d565b6137c79190615d8d565b6137d19190615c59565b90506103e86137e08383615d8d565b6137ec846103e8615dac565b87600101546137fb9190615d8d565b6138059190615c41565b61380f9190615c59565b85600101819055505050505050565b60008183111561382f575080610aff565b5081610aff565b600080613874606660009081526020527f422cccb7cea5c0e46f340bb7b21b81debac329f72e31669c20ff0f3a05cc2b5b546001600160a01b031690565b6001600160a01b03858116600081815260028901602090815260408083205460038c0190925291829020549151631cd2bf4d60e31b815260048101919091526024810192909252604482015291169063e695fa68906064016040805180830381600087803b1580156138e557600080fd5b505af11580156138f9573d6000803e3d6000fd5b505050506040513d601f19601f8201168201806040525081019061391d9190615ae6565b9092509050600061392e8484615dac565b6001600160a01b0386166000908152600288016020908152604080832084905560058a01909152902054909150613966908590615dac565b6001600160a01b038616600090815260058801602052604090205580156139a9576001600160a01b03851660009081526003870160205260409020829055613ae4565b6001600160a01b038516600090815260038701602052604081208190556001870154815b80821115613a9d5760008960010182815481106139fa57634e487b7160e01b600052603260045260246000fd5b6000918252602090912001546001600160a01b0390811691508916811415613a255760019350613a8a565b8315613a8a57808a600101600184613a3d9190615dac565b81548110613a5b57634e487b7160e01b600052603260045260246000fd5b9060005260206000200160006101000a8154816001600160a01b0302191690836001600160a01b031602179055505b5080613a9581615dda565b9150506139cd565b5087600101805480613abf57634e487b7160e01b600052603160045260246000fd5b600082815260209020810160001990810180546001600160a01b031916905501905550505b505050505050565b6001600160a01b0382166000908152600384016020526040902054613c3b576001838101805491820181556000908152602090200180546001600160a01b0319166001600160a01b038416179055613b75606660009081526020527f422cccb7cea5c0e46f340bb7b21b81debac329f72e31669c20ff0f3a05cc2b5b546001600160a01b031690565b6040517f46c87f800000000000000000000000000000000000000000000000000000000081526001600160a01b03848116600483015291909116906346c87f8090602401602060405180830381600087803b158015613bd357600080fd5b505af1158015613be7573d6000803e3d6000fd5b505050506040513d601f19601f82011682018060405250810190613c0b9190615a9f565b6001600160a01b038316600090815260038501602090815260408083209390935560028601905220819055613d6c565b600080613c79606660009081526020527f422cccb7cea5c0e46f340bb7b21b81debac329f72e31669c20ff0f3a05cc2b5b546001600160a01b031690565b6001600160a01b03858116600081815260028901602090815260408083205460038c0190925291829020549151631cd2bf4d60e31b815260048101919091526024810192909252604482015291169063e695fa68906064016040805180830381600087803b158015613cea57600080fd5b505af1158015613cfe573d6000803e3d6000fd5b505050506040513d601f19601f82011682018060405250810190613d229190615ae6565b6001600160a01b038616600090815260038801602052604090208190559092509050613d4e8383615c41565b6001600160a01b038516600090815260028701602052604090205550505b613d77838383614d2d565b613d8083614db4565b6111de5760405162461bcd60e51b815260206004820152602260248201527f43616e277420626f72726f773a20696e73756666696369656e742062616c616e60448201527f63650000000000000000000000000000000000000000000000000000000000006064820152608401610b7a565b6001600160a01b0384166000908152600586016020526040902054613e18908390615dac565b6001600160a01b0385166000908152600587016020526040902055613e3e858483614d2d565b5050505050565b8154600090815b81811015613ec8576000858281548110613e7657634e487b7160e01b600052603260045260246000fd5b60009182526020808320909101546001600160a01b031680835290879052604090912054909150613ea89082906109e3565b613eb29085615c41565b9350508080613ec090615dda565b915050613e4c565b505092915050565b60007f00000000000000000000000000000000000000000000000000000000000000006001600160a01b0316836001600160a01b03161415613f13575080610aff565b600060026000856001600160a01b03166001600160a01b0316815260200190815260200160002090506000613fa784836003015484600201805480602002602001604051908101604052809291908181526020018280548015610ab2576020028201919060005260206000209081546001600160a01b03168152600190910190602001808311610a94575050505050612c82565b50905060008160018351613fbb9190615dac565b81518110613fd957634e487b7160e01b600052603260045260246000fd5b6020026020010151905060065481118015613ff5575060055481105b1561400557614005838683615028565b9250610aff915050565b60008061404d606b60009081526020527f2dc7a963308417ad45132da282495eb244f38a7db03940a4d808be607669c622546001600160a01b031690565b6001600160a01b031663b0411f466040518163ffffffff1660e01b8152600401604080518083038186803b15801561408457600080fd5b505afa158015614098573d6000803e3d6000fd5b505050506040513d601f19601f820116820180604052508101906140bc9190615885565b5090506014546017546140cf9190615d8d565b6001600160a01b0390911660009081526012602052604090205411905090565b60408051600080825260208201928390529051909161411191600f91906155fd565b50604080516000815260208101918290525161412f916010916155fd565b50604080516000815260208101918290525161414d916011916155fd565b5060005b808451111561460957600084828151811061417c57634e487b7160e01b600052603260045260246000fd5b60200260200101519050600060096000836001600160a01b03166001600160a01b0316815260200190815260200160002090506141b88161503d565b156145bf576011805460018101825560009182527f31ecc21a745e3968a04e9570e4425bc18fa8019c68028196b546d1669c200c680180546001600160a01b0319166001600160a01b0385161790555b600482015481101561432857600082600401828154811061423957634e487b7160e01b600052603260045260246000fd5b60009182526020808320909101546001600160a01b0316808352600e909152604090912060028101549192509043146142dd576001600160a01b0382166000818152600586016020526040812054600180850191909155818455436002850155600f805491820181559091527f8d1108e10bcb7c27dddfc02ed9d693a074039d026cf4ea4240b40f7d581ac8020180546001600160a01b0319169091179055614313565b6001600160a01b03821660009081526005850160205260408120546001830180549192909161430d908490615c41565b90915550505b5050808061432090615dda565b915050614208565b5060005b60018201548110156145bd57600082600101828154811061435d57634e487b7160e01b600052603260045260246000fd5b60009182526020808320909101546001600160a01b0316808352600e90915260408220909250906143bf606660009081526020527f422cccb7cea5c0e46f340bb7b21b81debac329f72e31669c20ff0f3a05cc2b5b546001600160a01b031690565b6001600160a01b03848116600081815260028901602090815260408083205460038c0190925291829020549151631cd2bf4d60e31b815260048101919091526024810192909252604482015291169063e695fa68906064016040805180830381600087803b15801561443057600080fd5b505af1158015614444573d6000803e3d6000fd5b505050506040513d601f19601f820116820180604052508101906144689190615ae6565b5090506144a6606660009081526020527f422cccb7cea5c0e46f340bb7b21b81debac329f72e31669c20ff0f3a05cc2b5b546001600160a01b031690565b6040517f2a6a897b0000000000000000000000000000000000000000000000000000000081526001600160a01b038581166004830152602482018490529190911690632a6a897b90604401600060405180830381600087803b15801561450b57600080fd5b505af115801561451f573d6000803e3d6000fd5b505050504382600201541461458d57600060018381018290558284554360028501556010805491820181559091527f1b6847dc741a1b0cd08d278845f9d819d87b734759afb55fe2de5cb82a9ae6720180546001600160a01b0319166001600160a01b0385161790556145a7565b808260000160008282546145a19190615c41565b90915550505b50505080806145b590615dda565b91505061432c565b505b6001600160a01b038216600090815260136020526040902085156145f3576145e6816129d8565b6145f09086615c41565b94505b505050808061460190615dda565b915050614151565b5092915050565b6000805b600f548110156146df576000600f828154811061464157634e487b7160e01b600052603260045260246000fd5b60009182526020808320909101546001600160a01b0316808352600e909152604090912080546001820154929350909111156146ca578054600182015460009161468a91615dac565b90506146968382615075565b6146a09086615c41565b6001600160a01b0384166000908152600e6020526040812081815560018101829055600201559450505b505080806146d790615dda565b915050614614565b50613008600f6000615662565b6000805b6010548110156147b85760006010828154811061471d57634e487b7160e01b600052603260045260246000fd5b60009182526020808320909101546001600160a01b0316808352600e909152604090912060018101548154929350909111156147a357614770828260010154836000015461476b9190615dac565b6151ae565b61477a9085615c41565b6001600160a01b0383166000908152600e60205260408120818155600181018290556002015593505b505080806147b090615dda565b9150506146f0565b5061300860106000615662565b6000611ba9836004018460050184615309565b6000611ba98360010184600201856003018561538d565b600181015460005b808211156148a457600083600101828154811061482457634e487b7160e01b600052603260045260246000fd5b60009182526020808320909101546001600160a01b0316808352600287018252604080842054600b90935283208054919450919290614864908490615dac565b90915550506001600160a01b031660009081526002840160209081526040808320839055600386019091528120558061489c81615dda565b9150506147f7565b5050600481015460005b808211156149625760008360040182815481106148db57634e487b7160e01b600052603260045260246000fd5b60009182526020808320909101546001600160a01b0316808352600587018252604080842054600c9093528320805491945091929061491b908490615dac565b90915550506001600160a01b031660009081526005840160209081526040808320839055600686019091529020805460ff191690558061495a81615dda565b9150506148ae565b50614971600183016000615662565b6109df600483016000615662565b600080600061498e858561541c565b60408051606084811b6bffffffffffffffffffffffff199081166020808501919091529185901b166034830152825160288184030181526048830190935282519201919091206001600160f81b031960688301527fc0aee478e3658e2610c5f7a4a2e1777ce9e4f2ac0000000000000000000000006069830152607d8201527fe18a34eb0e04b04f7a0ac29a6e80748dca96319b42c54d679cb821dca90c6303609d820152919350915060bd015b60408051601f19818403018152919052805160209091012095945050505050565b6000806000614a6c858561541c565b60408051606084811b6bffffffffffffffffffffffff199081166020808501919091529185901b166034830152825160288184030181526048830190935282519201919091206001600160f81b031960688301527f5c69bee701ef814a2b6a3edd4b1652cb9cc5aa6f0000000000000000000000006069830152607d8201527f96e8ac4277198ff8b6f785478aa9a39f403cb768dd02cbee326c3e7da348845f609d820152919350915060bd01614a3c565b6000806000614b2d858561541c565b509050600080876001600160a01b0316630902f1ac6040518163ffffffff1660e01b815260040160606040518083038186803b158015614b6c57600080fd5b505afa158015614b80573d6000803e3d6000fd5b505050506040513d601f19601f82011682018060405250810190614ba49190615a22565b506dffffffffffffffffffffffffffff1691506dffffffffffffffffffffffffffff169150826001600160a01b0316876001600160a01b031614614be9578082614bec565b81815b90999098509650505050505050565b6000808411614c725760405162461bcd60e51b815260206004820152602b60248201527f556e697377617056324c6962726172793a20494e53554646494349454e545f4960448201527f4e5055545f414d4f554e540000000000000000000000000000000000000000006064820152608401610b7a565b600083118015614c825750600082115b614cdf5760405162461bcd60e51b815260206004820152602860248201527f556e697377617056324c6962726172793a20494e53554646494349454e545f4c604482015267495155494449545960c01b6064820152608401610b7a565b6000614ced856103e5615d8d565b90506000614cfb8483615d8d565b9050600082614d0c876103e8615d8d565b614d169190615c41565b9050614d228183615c59565b979650505050505050565b6001600160a01b038216600090815260068401602052604090205460ff16614d8057600483018054600181018255600091825260209091200180546001600160a01b0319166001600160a01b0384161790555b6001600160a01b038216600090815260058401602052604081208054839290614daa908490615c41565b9091555050505050565b600080614dc28360006147d8565b90506000614dd18460006147c5565b905060075482614de19190615d8d565b6064600754614df09190615dac565b614dfa9083615d8d565b1015949350505050565b600080614e42606660009081526020527f422cccb7cea5c0e46f340bb7b21b81debac329f72e31669c20ff0f3a05cc2b5b546001600160a01b031690565b604051630a0c4ed960e11b81526001600160a01b03878116600483015291909116906314189db29060240160206040518083038186803b158015614e8557600080fd5b505afa158015614e99573d6000803e3d6000fd5b505050506040513d601f19601f82011682018060405250810190614ebd9190615a9f565b6001600160a01b03861660009081526020859052604081205491925090614ee48387615d8d565b614eee9190615c59565b9050612c7886826109e3565b6000808411614f715760405162461bcd60e51b815260206004820152602c60248201527f556e697377617056324c6962726172793a20494e53554646494349454e545f4f60448201527f55545055545f414d4f554e5400000000000000000000000000000000000000006064820152608401610b7a565b600083118015614f815750600082115b614fde5760405162461bcd60e51b815260206004820152602860248201527f556e697377617056324c6962726172793a20494e53554646494349454e545f4c604482015267495155494449545960c01b6064820152608401610b7a565b6000614fea8585615d8d565b614ff6906103e8615d8d565b905060006103e56150078786615dac565b6150119190615dac565b905061501d8183615c59565b612c78906001615c41565b615036838383600454613798565b5050439055565b60008061504b8360016147d8565b9050600061505a8460016147c5565b90508160085461506a9190615d8d565b614dfa826064615d8d565b60007f00000000000000000000000000000000000000000000000000000000000000006001600160a01b0316836001600160a01b031614156150b8575080610aff565b6001600160a01b03831660009081526002602052604081209061510c606760009081526020527f682158d08466d11c566d5712d4396197fdd67e65be71d83c97ef719ec468867b546001600160a01b031690565b6001600160a01b031663351ae6108560008560030154866002016040518563ffffffff1660e01b81526004016151459493929190615bc7565b600060405180830381600087803b15801561515f57600080fd5b505af1158015615173573d6000803e3d6000fd5b505050506040513d6000823e601f3d908101601f1916820160405261519b919081019061592e565b905060008160018351610ad09190615dac565b60007f00000000000000000000000000000000000000000000000000000000000000006001600160a01b0316836001600160a01b031614156151f1575080610aff565b6001600160a01b038316600090815260026020526040812090615245606760009081526020527f682158d08466d11c566d5712d4396197fdd67e65be71d83c97ef719ec468867b546001600160a01b031690565b6001600160a01b03166353d7ff9f856000198560030154866004016040518563ffffffff1660e01b815260040161527f9493929190615bc7565b600060405180830381600087803b15801561529957600080fd5b505af11580156152ad573d6000803e3d6000fd5b505050506040513d6000823e601f3d908101601f191682016040526152d5919081019061592e565b9050806000815181106152f857634e487b7160e01b600052603260045260246000fd5b602002602001015192505050610aff565b8254600090815b81811015611a5d57600086828154811061533a57634e487b7160e01b600052603260045260246000fd5b60009182526020808320909101546001600160a01b03168083529088905260409091205490915061536d90829087611ae4565b6153779085615c41565b935050808061538590615dda565b915050615310565b8354600090815b818110156154125760008782815481106153be57634e487b7160e01b600052603260045260246000fd5b60009182526020808320909101546001600160a01b0316808352908990526040909120549091506153f29082908888615506565b6153fc9085615c41565b935050808061540a90615dda565b915050615394565b5050949350505050565b600080826001600160a01b0316846001600160a01b031614156154815760405162461bcd60e51b815260206004820152601260248201527f4964656e746963616c20616464726573732100000000000000000000000000006044820152606401610b7a565b826001600160a01b0316846001600160a01b0316106154a15782846154a4565b83835b90925090506001600160a01b0382166154ff5760405162461bcd60e51b815260206004820152600d60248201527f5a65726f206164647265737321000000000000000000000000000000000000006044820152606401610b7a565b9250929050565b600080615544606660009081526020527f422cccb7cea5c0e46f340bb7b21b81debac329f72e31669c20ff0f3a05cc2b5b546001600160a01b031690565b604051630a0c4ed960e11b81526001600160a01b03888116600483015291909116906314189db29060240160206040518083038186803b15801561558757600080fd5b505afa15801561559b573d6000803e3d6000fd5b505050506040513d601f19601f820116820180604052508101906155bf9190615a9f565b6001600160a01b038716600090815260208690526040812054919250906155e68388615d8d565b6155f09190615c59565b9050614d22878286611ae4565b828054828255906000526020600020908101928215615652579160200282015b8281111561565257825182546001600160a01b0319166001600160a01b0390911617825560209092019160019091019061561d565b5061565e929150615683565b5090565b50805460008255906000526020600020908101906156809190615683565b50565b5b8082111561565e5760008155600101615684565b600082601f8301126156a8578081fd5b813560206156bd6156b883615c1d565b615bec565b80838252828201915082860187848660051b89010111156156dc578586fd5b855b858110156157035781356156f181615e21565b845292840192908401906001016156de565b5090979650505050505050565b80516dffffffffffffffffffffffffffff81168114610e5657600080fd5b60006020828403121561573f578081fd5b8135611ba981615e21565b60006020828403121561575b578081fd5b8151611ba981615e21565b600080600080600060a0868803121561577d578081fd5b853561578881615e21565b9450602086013561579881615e21565b935060408601356157a881615e21565b94979396509394606081013594506080013592915050565b6000806000606084860312156157d4578283fd5b83356157df81615e21565b925060208401356157ef81615e21565b929592945050506040919091013590565b600080600080600060a08688031215615817578081fd5b853561582281615e21565b9450602086013561583281615e21565b935060408601359250606086013561584981615e21565b949793965091946080013592915050565b6000806040838503121561586c578182fd5b823561587781615e21565b946020939093013593505050565b60008060408385031215615897578182fd5b82516158a281615e21565b6020939093015192949293505050565b6000806000606084860312156158c6578283fd5b83356158d181615e21565b92506020840135915060408401356158e881615e36565b809150509250925092565b600060208284031215615904578081fd5b813567ffffffffffffffff81111561591a578182fd5b61592684828501615698565b949350505050565b60006020808385031215615940578182fd5b825167ffffffffffffffff811115615956578283fd5b8301601f81018513615966578283fd5b80516159746156b882615c1d565b80828252848201915084840188868560051b8701011115615993578687fd5b8694505b838510156159b5578051835260019490940193918501918501615997565b50979650505050505050565b6000602082840312156159d2578081fd5b8151611ba981615e36565b600080604083850312156159ef578182fd5b82359150602083013567ffffffffffffffff811115615a0c578182fd5b615a1885828601615698565b9150509250929050565b600080600060608486031215615a36578081fd5b615a3f84615710565b9250615a4d60208501615710565b9150604084015163ffffffff811681146158e8578182fd5b600060208284031215615a76578081fd5b813561ffff81168114611ba9578182fd5b600060208284031215615a98578081fd5b5035919050565b600060208284031215615ab0578081fd5b5051919050565b60008060408385031215615ac9578182fd5b823591506020830135615adb81615e21565b809150509250929050565b60008060408385031215615af8578182fd5b505080516020909101519092909150565b6000815480845260208085019450838352808320835b83811015615b445781546001600160a01b031687529582019560019182019101615b1f565b509495945050505050565b604080825283519082018190526000906020906060840190828701845b82811015615b935781516001600160a01b0316845260208401935090840190600101615b6c565b50505083810382850152845180825285830191830190845b8181101561570357835183529284019291840191600101615bab565b600085825284602083015283604083015260806060830152612c786080830184615b09565b604051601f8201601f1916810167ffffffffffffffff81118282101715615c1557615c15615e0b565b604052919050565b600067ffffffffffffffff821115615c3757615c37615e0b565b5060051b60200190565b60008219821115615c5457615c54615df5565b500190565b600082615c7457634e487b7160e01b81526012600452602481fd5b500490565b80825b6001808611615c8b5750615cb6565b818704821115615c9d57615c9d615df5565b80861615615caa57918102915b9490941c938002615c7c565b94509492505050565b6000611ba96000198484600082615cd857506001611ba9565b81615ce557506000611ba9565b8160018114615cfb5760028114615d0557615d32565b6001915050611ba9565b60ff841115615d1657615d16615df5565b6001841b915084821115615d2c57615d2c615df5565b50611ba9565b5060208310610133831016604e8410600b8410161715615d65575081810a83811115615d6057615d60615df5565b611ba9565b615d728484846001615c79565b808604821115615d8457615d84615df5565b02949350505050565b6000816000190483118215151615615da757615da7615df5565b500290565b600082821015615dbe57615dbe615df5565b500390565b600081615dd257615dd2615df5565b506000190190565b6000600019821415615dee57615dee615df5565b5060010190565b634e487b7160e01b600052601160045260246000fd5b634e487b7160e01b600052604160045260246000fd5b6001600160a01b038116811461568057600080fd5b801515811461568057600080fdfea2646970667358221220053e0be79743ce0f730d49724fbeeeaf5465cde0972601d375561bf4e1bbdf9464736f6c63430008030033",
  "linkReferences": {},
  "deployedLinkReferences": {}
}