{
  "_format": "hh-sol-artifact-1",
  "contractName": "CrossMarginTrading",
  "sourceName": "contracts/CrossMarginTrading.sol",
  "abi": [
    {
      "inputs": [
        {
          "internalType": "address",
          "name": "_peg",
          "type": "address"
        },
        {
          "internalType": "address",
          "name": "_amm1Factory",
          "type": "address"
        },
        {
          "internalType": "address",
          "name": "_amm2Factory",
          "type": "address"
        },
        {
          "internalType": "address",
          "name": "_amm3Factory",
          "type": "address"
        },
        {
          "internalType": "bytes32",
          "name": "_amm1InitHash",
          "type": "bytes32"
        },
        {
          "internalType": "bytes32",
          "name": "_amm2InitHash",
          "type": "bytes32"
        },
        {
          "internalType": "bytes32",
          "name": "_amm3InitHash",
          "type": "bytes32"
        },
        {
          "internalType": "address",
          "name": "_roles",
          "type": "address"
        }
      ],
      "stateMutability": "nonpayable",
      "type": "constructor"
    },
    {
      "anonymous": false,
      "inputs": [
        {
          "indexed": false,
          "internalType": "address",
          "name": "account",
          "type": "address"
        }
      ],
      "name": "AccountLiquidated",
      "type": "event"
    },
    {
      "anonymous": false,
      "inputs": [
        {
          "indexed": false,
          "internalType": "uint256",
          "name": "amount",
          "type": "uint256"
        }
      ],
      "name": "LiquidationShortfall",
      "type": "event"
    },
    {
      "inputs": [],
      "name": "MAINTAINER_CUT_PERCENT",
      "outputs": [
        {
          "internalType": "uint256",
          "name": "",
          "type": "uint256"
        }
      ],
      "stateMutability": "view",
      "type": "function"
    },
    {
      "inputs": [],
      "name": "UPDATE_RATE_PERMIL",
      "outputs": [
        {
          "internalType": "uint256",
          "name": "",
          "type": "uint256"
        }
      ],
      "stateMutability": "view",
      "type": "function"
    },
    {
      "inputs": [
        {
          "internalType": "uint256",
          "name": "_priceUpdateWindow",
          "type": "uint256"
        },
        {
          "internalType": "uint256",
          "name": "_updateRatePermil",
          "type": "uint256"
        },
        {
          "internalType": "uint256",
          "name": "_voluntaryUpdateWindow",
          "type": "uint256"
        }
      ],
      "name": "addVolatilitySetting",
      "outputs": [],
      "stateMutability": "nonpayable",
      "type": "function"
    },
    {
      "inputs": [],
      "name": "amm1Factory",
      "outputs": [
        {
          "internalType": "address",
          "name": "",
          "type": "address"
        }
      ],
      "stateMutability": "view",
      "type": "function"
    },
    {
      "inputs": [],
      "name": "amm1InitHash",
      "outputs": [
        {
          "internalType": "bytes32",
          "name": "",
          "type": "bytes32"
        }
      ],
      "stateMutability": "view",
      "type": "function"
    },
    {
      "inputs": [],
      "name": "amm2Factory",
      "outputs": [
        {
          "internalType": "address",
          "name": "",
          "type": "address"
        }
      ],
      "stateMutability": "view",
      "type": "function"
    },
    {
      "inputs": [],
      "name": "amm2InitHash",
      "outputs": [
        {
          "internalType": "bytes32",
          "name": "",
          "type": "bytes32"
        }
      ],
      "stateMutability": "view",
      "type": "function"
    },
    {
      "inputs": [],
      "name": "amm3Factory",
      "outputs": [
        {
          "internalType": "address",
          "name": "",
          "type": "address"
        }
      ],
      "stateMutability": "view",
      "type": "function"
    },
    {
      "inputs": [],
      "name": "amm3InitHash",
      "outputs": [
        {
          "internalType": "bytes32",
          "name": "",
          "type": "bytes32"
        }
      ],
      "stateMutability": "view",
      "type": "function"
    },
    {
      "inputs": [],
      "name": "avgLiquidationPerCall",
      "outputs": [
        {
          "internalType": "uint256",
          "name": "",
          "type": "uint256"
        }
      ],
      "stateMutability": "view",
      "type": "function"
    },
    {
      "inputs": [
        {
          "internalType": "address",
          "name": "trader",
          "type": "address"
        }
      ],
      "name": "canBeLiquidated",
      "outputs": [
        {
          "internalType": "bool",
          "name": "",
          "type": "bool"
        }
      ],
      "stateMutability": "view",
      "type": "function"
    },
    {
      "inputs": [
        {
          "internalType": "uint256",
          "name": "index",
          "type": "uint256"
        }
      ],
      "name": "chooseVolatilitySetting",
      "outputs": [],
      "stateMutability": "nonpayable",
      "type": "function"
    },
    {
      "inputs": [],
      "name": "coolingOffPeriod",
      "outputs": [
        {
          "internalType": "uint256",
          "name": "",
          "type": "uint256"
        }
      ],
      "stateMutability": "view",
      "type": "function"
    },
    {
      "inputs": [
        {
          "internalType": "address[]",
          "name": "liquidatedAccounts",
          "type": "address[]"
        }
      ],
      "name": "disburseLiqStakeAttacks",
      "outputs": [],
      "stateMutability": "nonpayable",
      "type": "function"
    },
    {
      "inputs": [],
      "name": "failureThreshold",
      "outputs": [
        {
          "internalType": "uint256",
          "name": "",
          "type": "uint256"
        }
      ],
      "stateMutability": "view",
      "type": "function"
    },
    {
      "inputs": [
        {
          "internalType": "address",
          "name": "trader",
          "type": "address"
        }
      ],
      "name": "getBorrowAmounts",
      "outputs": [
        {
          "internalType": "address[]",
          "name": "borrowTokens",
          "type": "address[]"
        },
        {
          "internalType": "uint256[]",
          "name": "borrowAmounts",
          "type": "uint256[]"
        }
      ],
      "stateMutability": "view",
      "type": "function"
    },
    {
      "inputs": [
        {
          "internalType": "address",
          "name": "token",
          "type": "address"
        },
        {
          "internalType": "uint256",
          "name": "inAmount",
          "type": "uint256"
        },
        {
          "internalType": "bool",
          "name": "voluntary",
          "type": "bool"
        }
      ],
      "name": "getCurrentPriceInPeg",
      "outputs": [
        {
          "internalType": "uint256",
          "name": "priceInPeg",
          "type": "uint256"
        }
      ],
      "stateMutability": "nonpayable",
      "type": "function"
    },
    {
      "inputs": [
        {
          "internalType": "address",
          "name": "trader",
          "type": "address"
        }
      ],
      "name": "getHoldingAmounts",
      "outputs": [
        {
          "internalType": "address[]",
          "name": "holdingTokens",
          "type": "address[]"
        },
        {
          "internalType": "uint256[]",
          "name": "holdingAmounts",
          "type": "uint256[]"
        }
      ],
      "stateMutability": "view",
      "type": "function"
    },
    {
      "inputs": [],
      "name": "leveragePercent",
      "outputs": [
        {
          "internalType": "uint256",
          "name": "",
          "type": "uint256"
        }
      ],
      "stateMutability": "view",
      "type": "function"
    },
    {
      "inputs": [],
      "name": "liqStakeAttackWindow",
      "outputs": [
        {
          "internalType": "uint256",
          "name": "",
          "type": "uint256"
        }
      ],
      "stateMutability": "view",
      "type": "function"
    },
    {
      "inputs": [
        {
          "internalType": "address[]",
          "name": "liquidationCandidates",
          "type": "address[]"
        }
      ],
      "name": "liquidate",
      "outputs": [
        {
          "internalType": "uint256",
          "name": "maintainerCut",
          "type": "uint256"
        }
      ],
      "stateMutability": "nonpayable",
      "type": "function"
    },
    {
      "inputs": [],
      "name": "liquidationThresholdPercent",
      "outputs": [
        {
          "internalType": "uint256",
          "name": "",
          "type": "uint256"
        }
      ],
      "stateMutability": "view",
      "type": "function"
    },
    {
      "inputs": [
        {
          "internalType": "uint256",
          "name": "",
          "type": "uint256"
        }
      ],
      "name": "mainCharacterCache",
      "outputs": [
        {
          "internalType": "address",
          "name": "",
          "type": "address"
        }
      ],
      "stateMutability": "view",
      "type": "function"
    },
    {
      "inputs": [
        {
          "internalType": "address",
          "name": "",
          "type": "address"
        }
      ],
      "name": "maintenanceFailures",
      "outputs": [
        {
          "internalType": "uint256",
          "name": "",
          "type": "uint256"
        }
      ],
      "stateMutability": "view",
      "type": "function"
    },
    {
      "inputs": [
        {
          "internalType": "address",
          "name": "",
          "type": "address"
        },
        {
          "internalType": "address",
          "name": "",
          "type": "address"
        }
      ],
      "name": "pairPrices",
      "outputs": [
        {
          "internalType": "uint256",
          "name": "cumulative",
          "type": "uint256"
        },
        {
          "internalType": "uint256",
          "name": "lastUpdated",
          "type": "uint256"
        },
        {
          "internalType": "uint256",
          "name": "priceFP",
          "type": "uint256"
        }
      ],
      "stateMutability": "view",
      "type": "function"
    },
    {
      "inputs": [],
      "name": "peg",
      "outputs": [
        {
          "internalType": "address",
          "name": "",
          "type": "address"
        }
      ],
      "stateMutability": "view",
      "type": "function"
    },
    {
      "inputs": [],
      "name": "priceUpdateWindow",
      "outputs": [
        {
          "internalType": "uint256",
          "name": "",
          "type": "uint256"
        }
      ],
      "stateMutability": "view",
      "type": "function"
    },
    {
      "inputs": [
        {
          "internalType": "address",
          "name": "trader",
          "type": "address"
        },
        {
          "internalType": "address",
          "name": "borrowToken",
          "type": "address"
        },
        {
          "internalType": "uint256",
          "name": "borrowAmount",
          "type": "uint256"
        }
      ],
      "name": "registerBorrow",
      "outputs": [],
      "stateMutability": "nonpayable",
      "type": "function"
    },
    {
      "inputs": [
        {
          "internalType": "address",
          "name": "trader",
          "type": "address"
        },
        {
          "internalType": "address",
          "name": "token",
          "type": "address"
        },
        {
          "internalType": "uint256",
          "name": "depositAmount",
          "type": "uint256"
        }
      ],
      "name": "registerDeposit",
      "outputs": [
        {
          "internalType": "uint256",
          "name": "extinguishableDebt",
          "type": "uint256"
        }
      ],
      "stateMutability": "nonpayable",
      "type": "function"
    },
    {
      "inputs": [
        {
          "internalType": "address",
          "name": "trader",
          "type": "address"
        }
      ],
      "name": "registerLiquidation",
      "outputs": [],
      "stateMutability": "nonpayable",
      "type": "function"
    },
    {
      "inputs": [
        {
          "internalType": "address",
          "name": "trader",
          "type": "address"
        },
        {
          "internalType": "address",
          "name": "depositToken",
          "type": "address"
        },
        {
          "internalType": "uint256",
          "name": "depositAmount",
          "type": "uint256"
        },
        {
          "internalType": "address",
          "name": "borrowToken",
          "type": "address"
        },
        {
          "internalType": "uint256",
          "name": "withdrawAmount",
          "type": "uint256"
        }
      ],
      "name": "registerOvercollateralizedBorrow",
      "outputs": [],
      "stateMutability": "nonpayable",
      "type": "function"
    },
    {
      "inputs": [
        {
          "internalType": "address",
          "name": "trader",
          "type": "address"
        },
        {
          "internalType": "address",
          "name": "borrowToken",
          "type": "address"
        },
        {
          "internalType": "uint256",
          "name": "borrowAmount",
          "type": "uint256"
        }
      ],
      "name": "registerRawBorrow",
      "outputs": [],
      "stateMutability": "nonpayable",
      "type": "function"
    },
    {
      "inputs": [
        {
          "internalType": "address",
          "name": "trader",
          "type": "address"
        },
        {
          "internalType": "address",
          "name": "tokenFrom",
          "type": "address"
        },
        {
          "internalType": "address",
          "name": "tokenTo",
          "type": "address"
        },
        {
          "internalType": "uint256",
          "name": "inAmount",
          "type": "uint256"
        },
        {
          "internalType": "uint256",
          "name": "outAmount",
          "type": "uint256"
        }
      ],
      "name": "registerTradeAndBorrow",
      "outputs": [
        {
          "internalType": "uint256",
          "name": "extinguishableDebt",
          "type": "uint256"
        },
        {
          "internalType": "uint256",
          "name": "borrowAmount",
          "type": "uint256"
        }
      ],
      "stateMutability": "nonpayable",
      "type": "function"
    },
    {
      "inputs": [
        {
          "internalType": "address",
          "name": "trader",
          "type": "address"
        },
        {
          "internalType": "address",
          "name": "withdrawToken",
          "type": "address"
        },
        {
          "internalType": "uint256",
          "name": "withdrawAmount",
          "type": "uint256"
        }
      ],
      "name": "registerWithdrawal",
      "outputs": [],
      "stateMutability": "nonpayable",
      "type": "function"
    },
    {
      "inputs": [
        {
          "internalType": "address",
          "name": "",
          "type": "address"
        },
        {
          "internalType": "uint256",
          "name": "",
          "type": "uint256"
        }
      ],
      "name": "roleCache",
      "outputs": [
        {
          "internalType": "bool",
          "name": "",
          "type": "bool"
        }
      ],
      "stateMutability": "view",
      "type": "function"
    },
    {
      "inputs": [],
      "name": "roles",
      "outputs": [
        {
          "internalType": "contract Roles",
          "name": "",
          "type": "address"
        }
      ],
      "stateMutability": "view",
      "type": "function"
    },
    {
      "inputs": [
        {
          "internalType": "uint256",
          "name": "blocks",
          "type": "uint256"
        }
      ],
      "name": "setCoolingOffPeriod",
      "outputs": [],
      "stateMutability": "nonpayable",
      "type": "function"
    },
    {
      "inputs": [
        {
          "internalType": "uint256",
          "name": "threshFactor",
          "type": "uint256"
        }
      ],
      "name": "setFailureThreshold",
      "outputs": [],
      "stateMutability": "nonpayable",
      "type": "function"
    },
    {
      "inputs": [
        {
          "internalType": "uint256",
          "name": "_leveragePercent",
          "type": "uint256"
        }
      ],
      "name": "setLeveragePercent",
      "outputs": [],
      "stateMutability": "nonpayable",
      "type": "function"
    },
    {
      "inputs": [
        {
          "internalType": "uint256",
          "name": "window",
          "type": "uint256"
        }
      ],
      "name": "setLiqStakeAttackWindow",
      "outputs": [],
      "stateMutability": "nonpayable",
      "type": "function"
    },
    {
      "inputs": [
        {
          "internalType": "bytes32",
          "name": "amms",
          "type": "bytes32"
        },
        {
          "internalType": "address[]",
          "name": "tokens",
          "type": "address[]"
        }
      ],
      "name": "setLiquidationPath",
      "outputs": [],
      "stateMutability": "nonpayable",
      "type": "function"
    },
    {
      "inputs": [
        {
          "internalType": "uint256",
          "name": "threshold",
          "type": "uint256"
        }
      ],
      "name": "setLiquidationThresholdPercent",
      "outputs": [],
      "stateMutability": "nonpayable",
      "type": "function"
    },
    {
      "inputs": [
        {
          "internalType": "uint256",
          "name": "cut",
          "type": "uint256"
        }
      ],
      "name": "setMaintainerCutPercent",
      "outputs": [],
      "stateMutability": "nonpayable",
      "type": "function"
    },
    {
      "inputs": [
        {
          "internalType": "uint16",
          "name": "window",
          "type": "uint16"
        },
        {
          "internalType": "uint256",
          "name": "voluntaryWindow",
          "type": "uint256"
        }
      ],
      "name": "setPriceUpdateWindow",
      "outputs": [],
      "stateMutability": "nonpayable",
      "type": "function"
    },
    {
      "inputs": [
        {
          "internalType": "address",
          "name": "token",
          "type": "address"
        },
        {
          "internalType": "uint256",
          "name": "cap",
          "type": "uint256"
        }
      ],
      "name": "setTokenCap",
      "outputs": [],
      "stateMutability": "nonpayable",
      "type": "function"
    },
    {
      "inputs": [
        {
          "internalType": "uint256",
          "name": "rate",
          "type": "uint256"
        }
      ],
      "name": "setUpdateRate",
      "outputs": [],
      "stateMutability": "nonpayable",
      "type": "function"
    },
    {
      "inputs": [
        {
          "internalType": "address",
          "name": "",
          "type": "address"
        }
      ],
      "name": "stakeAttackRecords",
      "outputs": [
        {
          "internalType": "uint256",
          "name": "blockNum",
          "type": "uint256"
        },
        {
          "internalType": "address",
          "name": "loser",
          "type": "address"
        },
        {
          "internalType": "uint256",
          "name": "amount",
          "type": "uint256"
        },
        {
          "internalType": "address",
          "name": "stakeAttacker",
          "type": "address"
        }
      ],
      "stateMutability": "view",
      "type": "function"
    },
    {
      "inputs": [
        {
          "internalType": "address",
          "name": "",
          "type": "address"
        }
      ],
      "name": "tokenCaps",
      "outputs": [
        {
          "internalType": "uint256",
          "name": "",
          "type": "uint256"
        }
      ],
      "stateMutability": "view",
      "type": "function"
    },
    {
      "inputs": [
        {
          "internalType": "address",
          "name": "",
          "type": "address"
        }
      ],
      "name": "tokenPrices",
      "outputs": [
        {
          "internalType": "uint256",
          "name": "lastUpdated",
          "type": "uint256"
        },
        {
          "internalType": "uint256",
          "name": "priceFP",
          "type": "uint256"
        },
        {
          "internalType": "bytes32",
          "name": "amms",
          "type": "bytes32"
        },
        {
          "internalType": "bytes32",
          "name": "inverseAmms",
          "type": "bytes32"
        }
      ],
      "stateMutability": "view",
      "type": "function"
    },
    {
      "inputs": [
        {
          "internalType": "address",
          "name": "",
          "type": "address"
        }
      ],
      "name": "totalLong",
      "outputs": [
        {
          "internalType": "uint256",
          "name": "",
          "type": "uint256"
        }
      ],
      "stateMutability": "view",
      "type": "function"
    },
    {
      "inputs": [
        {
          "internalType": "uint256",
          "name": "role",
          "type": "uint256"
        }
      ],
      "name": "updateMainCharacterCache",
      "outputs": [],
      "stateMutability": "nonpayable",
      "type": "function"
    },
    {
      "inputs": [
        {
          "internalType": "uint256",
          "name": "role",
          "type": "uint256"
        },
        {
          "internalType": "address",
          "name": "contr",
          "type": "address"
        }
      ],
      "name": "updateRoleCache",
      "outputs": [],
      "stateMutability": "nonpayable",
      "type": "function"
    },
    {
      "inputs": [
        {
          "internalType": "address",
          "name": "trader",
          "type": "address"
        },
        {
          "internalType": "address",
          "name": "token",
          "type": "address"
        }
      ],
      "name": "viewBalanceInToken",
      "outputs": [
        {
          "internalType": "uint256",
          "name": "",
          "type": "uint256"
        }
      ],
      "stateMutability": "view",
      "type": "function"
    },
    {
      "inputs": [
        {
          "internalType": "address",
          "name": "token",
          "type": "address"
        },
        {
          "internalType": "uint256",
          "name": "inAmount",
          "type": "uint256"
        }
      ],
      "name": "viewCurrentPriceInPeg",
      "outputs": [
        {
          "internalType": "uint256",
          "name": "priceInPeg",
          "type": "uint256"
        }
      ],
      "stateMutability": "view",
      "type": "function"
    },
    {
      "inputs": [
        {
          "internalType": "address",
          "name": "trader",
          "type": "address"
        }
      ],
      "name": "viewHoldingsInPeg",
      "outputs": [
        {
          "internalType": "uint256",
          "name": "",
          "type": "uint256"
        }
      ],
      "stateMutability": "view",
      "type": "function"
    },
    {
      "inputs": [
        {
          "internalType": "address",
          "name": "trader",
          "type": "address"
        }
      ],
      "name": "viewLoanInPeg",
      "outputs": [
        {
          "internalType": "uint256",
          "name": "amount",
          "type": "uint256"
        }
      ],
      "stateMutability": "view",
      "type": "function"
    },
    {
      "inputs": [
        {
          "internalType": "uint256",
          "name": "",
          "type": "uint256"
        }
      ],
      "name": "volatilitySettings",
      "outputs": [
        {
          "internalType": "uint256",
          "name": "priceUpdateWindow",
          "type": "uint256"
        },
        {
          "internalType": "uint256",
          "name": "updateRatePermil",
          "type": "uint256"
        },
        {
          "internalType": "uint256",
          "name": "voluntaryUpdateWindow",
          "type": "uint256"
        }
      ],
      "stateMutability": "view",
      "type": "function"
    },
    {
      "inputs": [],
      "name": "voluntaryUpdateWindow",
      "outputs": [
        {
          "internalType": "uint256",
          "name": "",
          "type": "uint256"
        }
      ],
      "stateMutability": "view",
      "type": "function"
    }
  ],
  "bytecode": "0x6101206040526104b060075561012c60085561019060095561012c600b556073600c55600a601055600a60165560056017556005601855600a6019553480156200004857600080fd5b5060405162006148380380620061488339810160408190526200006b9162000145565b87878787878787876001600160a01b038116620000d95760405162461bcd60e51b815260206004820152602260248201527f506c656173652070726f766964652076616c696420726f6c6573206164647265604482015261737360f01b606482015260840160405180910390fd5b6001600160601b0319606091821b811660805296811b871660a05294851b861660c05292841b851660e0526002919091556003556004559190911b166101005250620001d19650505050505050565b80516001600160a01b03811681146200014057600080fd5b919050565b600080600080600080600080610100898b03121562000162578384fd5b6200016d8962000128565b97506200017d60208a0162000128565b96506200018d60408a0162000128565b95506200019d60608a0162000128565b94506080890151935060a0890151925060c08901519150620001c260e08a0162000128565b90509295985092959890939650565b60805160601c60a05160601c60c05160601c60e05160601c6101005160601c615eba6200028e6000396000818161047101528181610b6201528181610fa601528181611bb10152818161202901528181612338015281816124d5015281816130e10152818161521b0152615387015260006108920152600081816103980152614f2501526000818161078c015261501b01526000818161056f015281816109b401528181611778015281816132f901526133910152615eba6000f3fe608060405234801561001057600080fd5b506004361061038e5760003560e01c80637a1a04df116101de578063bc70c6661161010f578063df7c20f9116100ad578063ef859fc81161007c578063ef859fc81461090f578063f04c68651461094c578063f3f5f9b51461095f578063f99fd97c146109725761038e565b8063df7c20f9146108b4578063e0f3871f146108bd578063e2abb5c4146108dd578063e9c3f77d146108e65761038e565b8063d0eb6653116100e9578063d0eb665314610854578063d510c53514610867578063db2d904d1461087a578063db4292351461088d5761038e565b8063bc70c6661461081b578063c73afac21461082e578063c74303aa146108415761038e565b8063a53ac0d91161017c578063a985994b11610156578063a985994b14610761578063b25b454814610774578063b852eb0d14610787578063badb5048146107ae5761038e565b8063a53ac0d91461072f578063a75208a814610738578063a75697a5146107415761038e565b80639c56522c116101b85780639c56522c146106ed578063a17ab527146106f6578063a20ec49314610709578063a37189191461071c5761038e565b80637a1a04df146106615780637d100e841461068f5780638dc6a529146106985761038e565b8063320d2fa0116102c3578063498d55eb11610261578063538edb2911610230578063538edb291461062957806354554b581461063257806360b3fa40146106455780636585b5a6146106585761038e565b8063498d55eb146105f15780634aa4aca314610604578063519bda851461060d57806352a664d9146106165761038e565b80633ed456fa1161029d5780633ed456fa14610591578063409fdb721461059a578063447d52ba146105bb57806347788cd0146105ce5761038e565b8063320d2fa0146105395780633500aa0b14610542578063392f5f641461056a5761038e565b80631d84cc1811610330578063204120bc1161030a578063204120bc146104a657806320c27126146104fd5780632b23f8571461051d5780632febaa74146105305761038e565b80631d84cc18146104595780631f1cb62b1461046c5780631f692a64146104935761038e565b8063093a483a1161036c578063093a483a146103ff57806310d584341461042057806316317e7e146104335780631d47e4a3146104465761038e565b8063059b157a14610393578063071060a6146103d757806307c20175146103ec575b600080fd5b6103ba7f000000000000000000000000000000000000000000000000000000000000000081565b6040516001600160a01b0390911681526020015b60405180910390f35b6103ea6103e5366004615bd2565b610985565b005b6103ea6103fa366004615a3d565b610a71565b61041261040d3660046159a4565b610b5e565b6040519081526020016103ce565b6103ea61042e366004615bd2565b610bed565b6103ea610441366004615bd2565b610c70565b6103ea6104543660046159a4565b610cee565b6103ea61046736600461594a565b610dcf565b6103ba7f000000000000000000000000000000000000000000000000000000000000000081565b6104126104a1366004615840565b610e7d565b6104dd6104b4366004615840565b600560208190526000918252604090912080546001820154600383015492909301549092919084565b6040805194855260208501939093529183015260608201526080016103ce565b61041261050b366004615840565b600f6020526000908152604090205481565b6103ea61052b366004615b27565b610eb2565b61041260105481565b610412600c5481565b6105556105503660046158b0565b61127e565b604080519283526020830191909152016103ce565b6103ba7f000000000000000000000000000000000000000000000000000000000000000081565b61041260075481565b6105ad6105a8366004615840565b6115c2565b6040516103ce929190615cba565b6103ea6105c9366004615c02565b611739565b6105e16105dc366004615840565b61182a565b60405190151581526020016103ce565b6103ea6105ff36600461590a565b611891565b61041260175481565b61041260095481565b61041261062436600461590a565b611930565b61041260185481565b6103ea610640366004615bd2565b611b2f565b6104126106533660046159fc565b611bad565b61041260165481565b6105e161066f3660046159a4565b600160209081526000928352604080842090915290825290205460ff1681565b61041260195481565b6106d26106a6366004615878565b600660209081526000928352604080842090915290825290208054600182015460029092015490919083565b604080519384526020840192909252908201526060016103ce565b61041260085481565b610412610704366004615840565b611cf7565b6103ea610717366004615baf565b611d1f565b6103ea61072a366004615bd2565b611da6565b610412600b5481565b61041260025481565b61041261074f366004615840565b60146020526000908152604090205481565b61041261076f366004615a3d565b611e24565b6103ea61078236600461590a565b6126ac565b6103ba7f000000000000000000000000000000000000000000000000000000000000000081565b6107f06107bc366004615840565b601560205260009081526040902080546001820154600283015460039093015491926001600160a01b039182169290911684565b604080519485526001600160a01b0393841660208601528401919091521660608201526080016103ce565b6106d2610829366004615bd2565b612865565b6103ea61083c366004615bd2565b612898565b6103ea61084f366004615bd2565b612916565b6103ea61086236600461590a565b612994565b6105ad610875366004615840565b612a22565b6103ea610888366004615840565b612c66565b6103ba7f000000000000000000000000000000000000000000000000000000000000000081565b61041260035481565b6104126108cb366004615840565b600e6020526000908152604090205481565b61041260045481565b6103ba6108f4366004615bd2565b6000602081905290815260409020546001600160a01b031681565b61041261091d366004615878565b6001600160a01b039182166000908152600d602090815260408083209390941682526005909201909152205490565b6103ea61095a366004615bd2565b612d48565b6103ea61096d366004615c49565b612e8c565b6103ea610980366004615bd2565b612fa8565b6040517fb4ed0b6d000000000000000000000000000000000000000000000000000000008152600481018290527f00000000000000000000000000000000000000000000000000000000000000006001600160a01b03169063b4ed0b6d9060240160206040518083038186803b1580156109fe57600080fd5b505afa158015610a12573d6000803e3d6000fd5b505050506040513d601f19601f82011682018060405250810190610a36919061585c565b600091825260208290526040909120805473ffffffffffffffffffffffffffffffffffffffff19166001600160a01b03909216919091179055565b60005b8082511115610b5a576000828281518110610a9f57634e487b7160e01b600052603260045260246000fd5b60200260200101519050600060156000836001600160a01b03166001600160a01b0316815260200190815260200160002090506017548160000154610ae49190615dac565b431115610b4557610af481613026565b506001600160a01b038216600090815260156020526040812081815560018101805473ffffffffffffffffffffffffffffffffffffffff199081169091556002820192909255600301805490911690555b50508080610b5290615e1a565b915050610a74565b5050565b60007f00000000000000000000000000000000000000000000000000000000000000006001600160a01b0316836001600160a01b03161415610ba1575080610be7565b6001600160a01b038316600090815260056020526040902060018101546e010000000000000000000000000000610bd88286615de4565b610be29190615dc4565b925050505b92915050565b33610bf66132f5565b6001600160a01b03161480610c1a575033610c0f61338d565b6001600160a01b0316145b610c6b5760405162461bcd60e51b815260206004820152601e60248201527f526f6c65733a2063616c6c6572206973206e6f7420746865206f776e6572000060448201526064015b60405180910390fd5b601955565b33610c796132f5565b6001600160a01b03161480610c9d575033610c9261338d565b6001600160a01b0316145b610ce95760405162461bcd60e51b815260206004820152601e60248201527f526f6c65733a2063616c6c6572206973206e6f7420746865206f776e657200006044820152606401610c62565b600c55565b33610cf76132f5565b6001600160a01b03161480610d1b575033610d1061338d565b6001600160a01b0316145b80610d4157503360009081526001602090815260408083206009845290915290205460ff165b610db35760405162461bcd60e51b815260206004820152603960248201527f43616c6c6572206973206e6f7420746865206f776e65722c206578656375746f60448201527f72206f7220617574686f72697a656420616374697661746f72000000000000006064820152608401610c62565b6001600160a01b039091166000908152600e6020526040902055565b3360009081526001602090815260408083206004845290915290205460ff16610e3a5760405162461bcd60e51b815260206004820152601d60248201527f43616c6c696e6720636f6e74722e206e6f7420617574686f72697a65640000006044820152606401610c62565b6001600160a01b0385166000908152600d60205260409020610e5d8186866133fe565b610e688184846134a9565b610e73818484613554565b4390555050505050565b6001600160a01b0381166000908152600d60205260408120610ea9600182016002830160038401613674565b9150505b919050565b33610ebb6132f5565b6001600160a01b03161480610edf575033610ed461338d565b6001600160a01b0316145b80610f0557503360009081526001602090815260408083206009845290915290205460ff165b610f775760405162461bcd60e51b815260206004820152603960248201527f43616c6c6572206973206e6f7420746865206f776e65722c206578656375746f60448201527f72206f7220617574686f72697a656420616374697661746f72000000000000006064820152608401610c62565b600081600081518110610f9a57634e487b7160e01b600052603260045260246000fd5b602002602001015190507f00000000000000000000000000000000000000000000000000000000000000006001600160a01b0316816001600160a01b031614611279576001600160a01b03811660009081526005602090815260409091206003810185905583519091611014916002840191860190615702565b50825167ffffffffffffffff81111561103d57634e487b7160e01b600052604160045260246000fd5b604051908082528060200260200182016040528015611066578160200160208202803683370190505b50805161107d916004840191602090910190615702565b506000805b80600186516110919190615e03565b11156111a55761111f8582815181106110ba57634e487b7160e01b600052603260045260246000fd5b6020026020010151868360016110d09190615dac565b815181106110ee57634e487b7160e01b600052603260045260246000fd5b602002602001015188846020811061111657634e487b7160e01b600052603260045260246000fd5b1a60f81b613701565b600081600287516111309190615e03565b61113a9190615e03565b611145906008615de4565b87836020811061116557634e487b7160e01b600052603260045260246000fd5b1a60f81b7fff0000000000000000000000000000000000000000000000000000000000000016901c9290921791508061119d81615e1a565b915050611082565b506005820181905560005b8085511115611264578460018287516111c99190615e03565b6111d39190615e03565b815181106111f157634e487b7160e01b600052603260045260246000fd5b602002602001015183600401828154811061121c57634e487b7160e01b600052603260045260246000fd5b6000918252602090912001805473ffffffffffffffffffffffffffffffffffffffff19166001600160a01b03929092169190911790558061125c81615e1a565b9150506111b0565b5061126f84866139b9565b6001830155504290555b505050565b33600090815260016020908152604080832060048452909152812054819060ff166112eb5760405162461bcd60e51b815260206004820181905260248201527f43616c6c696e6720636f6e74722e206e6f7420616e20617574686f72697a65646044820152606401610c62565b6001600160a01b038088166000908152600d602090815260408083209389168352600284019091529020541561146657600080611359606660009081526020527f422cccb7cea5c0e46f340bb7b21b81debac329f72e31669c20ff0f3a05cc2b5b546001600160a01b031690565b6001600160a01b03898116600081815260028701602090815260408083205460038a01909252918290205491517fe695fa6800000000000000000000000000000000000000000000000000000000815260048101919091526024810192909252604482015291169063e695fa68906064016040805180830381600087803b1580156113e357600080fd5b505af11580156113f7573d6000803e3d6000fd5b505050506040513d601f19601f8201168201806040525081019061141b9190615c26565b6001600160a01b038a166000908152600286016020908152604080832085905560038801909152902081905590925090506114568683613d0c565b9450611463838987613d24565b50505b6001600160a01b038716600090815260058201602052604090205485908082111561149b579050806114988188615e03565b93505b838711156114db576114ad8488615e03565b6001600160a01b038a166000908152600f6020526040812080549091906114d5908490615e03565b90915550505b8486111561151b576114ed8587615e03565b6001600160a01b0389166000908152600f602052604081208054909190611515908490615dac565b90915550505b6001600160a01b0388166000908152600f6020908152604080832054600e90925290912054101561158e5760405162461bcd60e51b815260206004820152601860248201527f4578636565647320676c6f62616c20746f6b656e2063617000000000000000006044820152606401610c62565b6115a4838a8a8561159f8a8c615e03565b613fcc565b83156115b5576115b5838a86614018565b5050509550959350505050565b6001600160a01b0381166000908152600d602090815260409182902060048101805484518185028101850190955280855260609485949092919083018282801561163557602002820191906000526020600020905b81546001600160a01b03168152600190910190602001808311611617575b5050506004840154929550505067ffffffffffffffff81111561166857634e487b7160e01b600052604160045260246000fd5b604051908082528060200260200182016040528015611691578160200160208202803683370190505b50915060005b80845111156117325760008482815181106116c257634e487b7160e01b600052603260045260246000fd5b60200260200101519050826005016000826001600160a01b03166001600160a01b031681526020019081526020016000205484838151811061171457634e487b7160e01b600052603260045260246000fd5b6020908102919091010152508061172a81615e1a565b915050611697565b5050915091565b6040517f93552a3d000000000000000000000000000000000000000000000000000000008152600481018390526001600160a01b0382811660248301527f000000000000000000000000000000000000000000000000000000000000000016906393552a3d9060440160206040518083038186803b1580156117ba57600080fd5b505afa1580156117ce573d6000803e3d6000fd5b505050506040513d601f19601f820116820180604052508101906117f29190615b0b565b6001600160a01b0391909116600090815260016020908152604080832094835293905291909120805460ff1916911515919091179055565b6001600160a01b0381166000908152600d6020526040812081611857600183016002840160038501613674565b9050600061186b83600401846005016142c7565b9050611878816064615de4565b82600c546118869190615de4565b101595945050505050565b3360009081526001602090815260408083206004845290915290205460ff166118fc5760405162461bcd60e51b815260206004820152601d60248201527f43616c6c696e6720636f6e74722e206e6f7420617574686f72697a65640000006044820152606401610c62565b6001600160a01b0383166000908152600d6020526040902061191f818484614352565b61192a8184846134a9565b50505050565b3360009081526001602090815260408083206004845290915281205460ff1661199b5760405162461bcd60e51b815260206004820152601d60248201527f43616c6c696e6720636f6e74722e206e6f7420617574686f72697a65640000006044820152606401610c62565b6001600160a01b038085166000908152600d602090815260408083204381559387168352600284019091529020548015611b0c57600080611a0d606660009081526020527f422cccb7cea5c0e46f340bb7b21b81debac329f72e31669c20ff0f3a05cc2b5b546001600160a01b031690565b6001600160a01b038881166000818152600388016020526040908190205490517fe695fa68000000000000000000000000000000000000000000000000000000008152600481018890526024810192909252604482015291169063e695fa68906064016040805180830381600087803b158015611a8957600080fd5b505af1158015611a9d573d6000803e3d6000fd5b505050506040513d601f19601f82011682018060405250810190611ac19190615c26565b6001600160a01b038916600090815260028701602090815260408083208590556003890190915290208190559092509050611afc8683613d0c565b9450611b09848887613d24565b50505b6000611b188486615e03565b9050611b258387836133fe565b5050509392505050565b33611b386132f5565b6001600160a01b03161480611b5c575033611b5161338d565b6001600160a01b0316145b611ba85760405162461bcd60e51b815260206004820152601e60248201527f526f6c65733a2063616c6c6572206973206e6f7420746865206f776e657200006044820152606401610c62565b600955565b60007f00000000000000000000000000000000000000000000000000000000000000006001600160a01b0316846001600160a01b03161415611bf0575081611cf0565b6001600160a01b03841660009081526005602052604081208054909190611c179042615e03565b9050600754811180611c2b57506001820154155b80611c3f5750838015611c3f575060085481115b15611cc1576000611cb083600201805480602002602001604051908101604052809291908181526020018280548015611ca157602002820191906000526020600020905b81546001600160a01b03168152600190910190602001808311611c83575b505050505084600301546139b9565b9050611cbf8382600954614405565b505b6e010000000000000000000000000000826001015486611ce19190615de4565b611ceb9190615dc4565b925050505b9392505050565b6001600160a01b0381166000908152600d60205260408120610ea960048201600583016142c7565b33611d286132f5565b6001600160a01b03161480611d4c575033611d4161338d565b6001600160a01b0316145b611d985760405162461bcd60e51b815260206004820152601e60248201527f526f6c65733a2063616c6c6572206973206e6f7420746865206f776e657200006044820152606401610c62565b61ffff909116600755600855565b33611daf6132f5565b6001600160a01b03161480611dd3575033611dc861338d565b6001600160a01b0316145b611e1f5760405162461bcd60e51b815260206004820152601e60248201527f526f6c65733a2063616c6c6572206973206e6f7420746865206f776e657200006044820152606401610c62565b601755565b6000333214611e9b5760405162461bcd60e51b815260206004820152603a60248201527f43757272656e746c79206e6f20696e7465726d656469617269657320616c6c6f60448201527f77656420666f7220746869732066756e6374696f6e2063616c6c0000000000006064820152608401610c62565b6000611ed8606b60009081526020527f2dc7a963308417ad45132da282495eb244f38a7db03940a4d808be607669c622546001600160a01b031690565b6040517f7b23cbce0000000000000000000000000000000000000000000000000000000081523360048201526001600160a01b039190911690637b23cbce90602401602060405180830381600087803b158015611f3457600080fd5b505af1158015611f48573d6000803e3d6000fd5b505050506040513d601f19601f82011682018060405250810190611f6c9190615b0b565b905060008180611f7f5750611f7f61444d565b9050611f8b848361452d565b92506000611f97614a6e565b90506000611fa3614b44565b9050611fb160126000615774565b600060646018546064611fc49190615dac565b611fce9084615de4565b611fd89190615dc4565b905082811115612125577f3555ffae7677eb42103f0b9e11b61c758f452fae446684dec7a363dd38ab58fc61200d8483615e03565b60405190815260200160405180910390a18380156121225750807f00000000000000000000000000000000000000000000000000000000000000006001600160a01b03166370a08231612091606560009081526020527f4a7203f705e51df4a56139a9b86b4a0970bed7ab7a3446eaffe2289989c1645c546001600160a01b031690565b6040517fffffffff0000000000000000000000000000000000000000000000000000000060e084901b1681526001600160a01b03909116600482015260240160206040518083038186803b1580156120e857600080fd5b505afa1580156120fc573d6000803e3d6000fd5b505050506040513d601f19601f820116820180604052508101906121209190615bea565b115b93505b6000846121d657606b60009081526020527f2dc7a963308417ad45132da282495eb244f38a7db03940a4d808be607669c622546001600160a01b03166001600160a01b0316631a38de1d6040518163ffffffff1660e01b8152600401602060405180830381600087803b15801561219b57600080fd5b505af11580156121af573d6000803e3d6000fd5b505050506040513d601f19601f820116820180604052508101906121d3919061585c565b90505b60005b6013548110156124405760006013828154811061220657634e487b7160e01b600052603260045260246000fd5b60009182526020808320909101546001600160a01b0316808352600d909152604082209092509061223682614c12565b9050600061224383614c24565b905060006064601854836122579190615de4565b6122619190615dc4565b905061226d818e615dac565b9c508a6122cf576001600160a01b038581166000908152601560205260409020600281018390556003810180543373ffffffffffffffffffffffffffffffffffffffff1991821617909155438255600190910180549091169189169190911790555b600060646122de846065615de4565b6122e89190615dc4565b6122f29083615dac565b9050808411156123e257606560009081526020527f4a7203f705e51df4a56139a9b86b4a0970bed7ab7a3446eaffe2289989c1645c546001600160a01b031663d9caed127f0000000000000000000000000000000000000000000000000000000000000000886123628589615e03565b6040517fffffffff0000000000000000000000000000000000000000000000000000000060e086901b1681526001600160a01b0393841660048201529290911660248301526044820152606401600060405180830381600087803b1580156123c957600080fd5b505af11580156123dd573d6000803e3d6000fd5b505050505b6040516001600160a01b03871681527f1d2cc4c8661a04a00b4e727426220501b36d85bb330947642c2d4320667028cf9060200160405180910390a161242785614c3a565b505050505050808061243890615e1a565b9150506121d9565b5060648760165460636124539190615de4565b61245d9190615dac565b6124679190615dc4565b601655841561254957606560009081526020527f4a7203f705e51df4a56139a9b86b4a0970bed7ab7a3446eaffe2289989c1645c546001600160a01b03166040517fd9caed120000000000000000000000000000000000000000000000000000000081526001600160a01b037f000000000000000000000000000000000000000000000000000000000000000081166004830152336024830152604482018a9052919091169063d9caed1290606401600060405180830381600087803b15801561253057600080fd5b505af1158015612544573d6000803e3d6000fd5b505050505b6000612586606b60009081526020527f2dc7a963308417ad45132da282495eb244f38a7db03940a4d808be607669c622546001600160a01b031690565b6001600160a01b0316631a38de1d6040518163ffffffff1660e01b8152600401602060405180830381600087803b1580156125c057600080fd5b505af11580156125d4573d6000803e3d6000fd5b505050506040513d601f19601f820116820180604052508101906125f8919061585c565b90508615612672576001600160a01b038116600090815260146020526040902054881015612653576001600160a01b038116600090815260146020526040812080548a9290612648908490615e03565b9091555061266d9050565b6001600160a01b0381166000908152601460205260408120555b6126a0565b6001600160a01b038116600090815260146020526040812080548a929061269a908490615dac565b90915550505b50505050505050919050565b336126b56132f5565b6001600160a01b031614806126d95750336126ce61338d565b6001600160a01b0316145b6127255760405162461bcd60e51b815260206004820152601e60248201527f526f6c65733a2063616c6c6572206973206e6f7420746865206f776e657200006044820152606401610c62565b6001600160a01b038381166000908152600d602090815260408220600180820180549182018155845282842001805473ffffffffffffffffffffffffffffffffffffffff1916878616179055606683529190527f422cccb7cea5c0e46f340bb7b21b81debac329f72e31669c20ff0f3a05cc2b5b549091166040517f46c87f800000000000000000000000000000000000000000000000000000000081526001600160a01b03858116600483015291909116906346c87f8090602401602060405180830381600087803b1580156127fb57600080fd5b505af115801561280f573d6000803e3d6000fd5b505050506040513d601f19601f820116820180604052508101906128339190615bea565b6001600160a01b0390931660009081526003820160209081526040808320959095556002909201909152919091205550565b600a818154811061287557600080fd5b600091825260209091206003909102018054600182015460029092015490925083565b336128a16132f5565b6001600160a01b031614806128c55750336128ba61338d565b6001600160a01b0316145b6129115760405162461bcd60e51b815260206004820152601e60248201527f526f6c65733a2063616c6c6572206973206e6f7420746865206f776e657200006044820152606401610c62565b601855565b3361291f6132f5565b6001600160a01b0316148061294357503361293861338d565b6001600160a01b0316145b61298f5760405162461bcd60e51b815260206004820152601e60248201527f526f6c65733a2063616c6c6572206973206e6f7420746865206f776e657200006044820152606401610c62565b600b55565b3360009081526001602090815260408083206004845290915290205460ff166129ff5760405162461bcd60e51b815260206004820152601c60248201527f43616c6c696e6720636f6e7472206e6f7420617574686f72697a6564000000006044820152606401610c62565b6001600160a01b0383166000908152600d6020526040902061192a818484613554565b6001600160a01b0381166000908152600d6020908152604091829020600181018054845181850281018501909552808552606094859490929190830182828015612a9557602002820191906000526020600020905b81546001600160a01b03168152600190910190602001808311612a77575b5050506001840154929550505067ffffffffffffffff811115612ac857634e487b7160e01b600052604160045260246000fd5b604051908082528060200260200182016040528015612af1578160200160208202803683370190505b50915060005b8084511115611732576000848281518110612b2257634e487b7160e01b600052603260045260246000fd5b60200260200101519050612b67606660009081526020527f422cccb7cea5c0e46f340bb7b21b81debac329f72e31669c20ff0f3a05cc2b5b546001600160a01b031690565b6001600160a01b03828116600081815260028701602090815260408083205460038a01909252918290205491517f76668b670000000000000000000000000000000000000000000000000000000081526004810191909152602481019290925260448201529116906376668b679060640160206040518083038186803b158015612bf057600080fd5b505afa158015612c04573d6000803e3d6000fd5b505050506040513d601f19601f82011682018060405250810190612c289190615bea565b848381518110612c4857634e487b7160e01b600052603260045260246000fd5b60209081029190910101525080612c5e81615e1a565b915050612af7565b3360009081526001602090815260408083206004845290915290205460ff16612cd15760405162461bcd60e51b815260206004820152601d60248201527f43616c6c696e6720636f6e74722e206e6f7420617574686f72697a65640000006044820152606401610c62565b6001600160a01b0381166000908152600d60205260409020612cf281614c24565b15612d3f5760405162461bcd60e51b815260206004820152601a60248201527f43616e2774206c69717569646174653a20626f72726f77696e670000000000006044820152606401610c62565b610b5a81614c3a565b33612d516132f5565b6001600160a01b03161480612d75575033612d6a61338d565b6001600160a01b0316145b80612dc3575033612db86103e960009081526020527f236f539bf6e1b3b15a335e3cd157d360bc4be88c071635c19ba8a82b4f665e9f546001600160a01b031690565b6001600160a01b0316145b612e355760405162461bcd60e51b815260206004820152603860248201527f43616c6c6572206973206e6f7420746865206f776e65722c206578656375746f60448201527f72206f7220617574686f72697a65642064697361626c657200000000000000006064820152608401610c62565b6000600a8281548110612e5857634e487b7160e01b600052603260045260246000fd5b90600052602060002090600302019050600081600101541115610b5a57600181015460095580546007556002015460085550565b33612e956132f5565b6001600160a01b03161480612eb9575033612eae61338d565b6001600160a01b0316145b612f055760405162461bcd60e51b815260206004820152601e60248201527f526f6c65733a2063616c6c6572206973206e6f7420746865206f776e657200006044820152606401610c62565b60408051606081018252938452602084019283528301908152600a805460018101825560009190915292517fc65a7bb8d6351c1cf70c95a316cc6a92839c986682d98bc35f958f4883f9d2a860039094029384015590517fc65a7bb8d6351c1cf70c95a316cc6a92839c986682d98bc35f958f4883f9d2a9830155517fc65a7bb8d6351c1cf70c95a316cc6a92839c986682d98bc35f958f4883f9d2aa90910155565b33612fb16132f5565b6001600160a01b03161480612fd5575033612fca61338d565b6001600160a01b0316145b6130215760405162461bcd60e51b815260206004820152601e60248201527f526f6c65733a2063616c6c6572206973206e6f7420746865206f776e657200006044820152606401610c62565b601055565b600281015460009015610ead57815460009061304e906130469043615e03565b601754613d0c565b905060006017548285600201546130659190615de4565b61306f9190615dc4565b90506130ac606560009081526020527f4a7203f705e51df4a56139a9b86b4a0970bed7ab7a3446eaffe2289989c1645c546001600160a01b031690565b60038501546040517fd9caed120000000000000000000000000000000000000000000000000000000081526001600160a01b037f00000000000000000000000000000000000000000000000000000000000000008116600483015291821660248201526044810184905291169063d9caed1290606401600060405180830381600087803b15801561313c57600080fd5b505af1158015613150573d6000803e3d6000fd5b505050506000613191606b60009081526020527f2dc7a963308417ad45132da282495eb244f38a7db03940a4d808be607669c622546001600160a01b031690565b9050600060165460016131a49190615dac565b83836001600160a01b0316630ad691506040518163ffffffff1660e01b815260040160206040518083038186803b1580156131de57600080fd5b505afa1580156131f2573d6000803e3d6000fd5b505050506040513d601f19601f820116820180604052508101906132169190615bea565b6132209190615de4565b61322a9190615dc4565b600187015460038801546040517f0a45bc1b0000000000000000000000000000000000000000000000000000000081526001600160a01b039283166004820152602481018490529082166044820152919250831690630a45bc1b90606401602060405180830381600087803b1580156132a257600080fd5b505af11580156132b6573d6000803e3d6000fd5b505050506040513d601f19601f820116820180604052508101906132da9190615bea565b508286600201546132eb9190615e03565b9695505050505050565b60007f00000000000000000000000000000000000000000000000000000000000000006001600160a01b0316638da5cb5b6040518163ffffffff1660e01b815260040160206040518083038186803b15801561335057600080fd5b505afa158015613364573d6000803e3d6000fd5b505050506040513d601f19601f82011682018060405250810190613388919061585c565b905090565b60007f00000000000000000000000000000000000000000000000000000000000000006001600160a01b031663c34c08e56040518163ffffffff1660e01b8152600401602060405180830381600087803b1580156133ea57600080fd5b505af1158015613364573d6000803e3d6000fd5b613409838383614352565b6001600160a01b0382166000908152600f602052604081208054839290613431908490615dac565b90915550506001600160a01b0382166000908152600f6020908152604080832054600e9092529091205410156112795760405162461bcd60e51b815260206004820152601860248201527f4578636565647320676c6f62616c20746f6b656e2063617000000000000000006044820152606401610c62565b6001600160a01b0382166000908152600f6020526040812080548392906134d1908490615dac565b90915550506001600160a01b0382166000908152600f6020908152604080832054600e9092529091205410156135495760405162461bcd60e51b815260206004820152601860248201527f4578636565647320676c6f62616c20746f6b656e2063617000000000000000006044820152606401610c62565b611279838383614018565b60105483546135639190615dac565b43116135b15760405162461bcd60e51b815260206004820181905260248201527f4e6f207769746864726177616c20736f6f6e206166746572206465706f7369746044820152606401610c62565b6001600160a01b0382166000908152600f6020526040812080548392906135d9908490615e03565b90915550506001600160a01b0382166000908152600584016020526040902054613604908290615e03565b6001600160a01b038316600090815260058501602052604090205561362883614d8e565b6112795760405162461bcd60e51b815260206004820152601460248201527f496e73756666696369656e742062616c616e63650000000000000000000000006044820152606401610c62565b8254600090815b818110156136f85760008682815481106136a557634e487b7160e01b600052603260045260246000fd5b60009182526020808320909101546001600160a01b0316808352908890526040909120549091506136d890829087614dda565b6136e29085615dac565b93505080806136f090615e1a565b91505061367b565b50509392505050565b60007fff0000000000000000000000000000000000000000000000000000000000000082161561373a576137358484614ee9565b613744565b6137448484614fdf565b6001600160a01b0380821660009081526006602090815260408083209389168352929052206001810154919250906139b2576000806000846001600160a01b0316630902f1ac6040518163ffffffff1660e01b815260040160606040518083038186803b1580156137b457600080fd5b505afa1580156137c8573d6000803e3d6000fd5b505050506040513d601f19601f820116820180604052508101906137ec9190615b6c565b63ffffffff16925092509250600061380489896150b4565b509050806001600160a01b0316896001600160a01b031614156138e757836dffffffffffffffffffffffffffff16836dffffffffffffffffffffffffffff166e01000000000000000000000000000061385d9190615de4565b6138679190615dc4565b8560020181905550856001600160a01b0316635909c0d56040518163ffffffff1660e01b815260040160206040518083038186803b1580156138a857600080fd5b505afa1580156138bc573d6000803e3d6000fd5b505050506040513d601f19601f820116820180604052508101906138e09190615bea565b85556139a9565b826dffffffffffffffffffffffffffff16846dffffffffffffffffffffffffffff166e0100000000000000000000000000006139239190615de4565b61392d9190615dc4565b8560020181905550856001600160a01b0316635a3d54936040518163ffffffff1660e01b815260040160206040518083038186803b15801561396e57600080fd5b505afa158015613982573d6000803e3d6000fd5b505050506040513d601f19601f820116820180604052508101906139a69190615bea565b85555b50600184015550505b5050505050565b6e01000000000000000000000000000060005b600184516139da9190615e03565b811015613d05576000848281518110613a0357634e487b7160e01b600052603260045260246000fd5b60200260200101519050600085836001613a1d9190615dac565b81518110613a3b57634e487b7160e01b600052603260045260246000fd5b602002602001015190506000858460208110613a6757634e487b7160e01b600052603260045260246000fd5b1a60f81b7fff000000000000000000000000000000000000000000000000000000000000001615613aa157613a9c8383614ee9565b613aab565b613aab8383614fdf565b6001600160a01b038082166000818152600660209081526040808320948916835293905282812083517f0902f1ac0000000000000000000000000000000000000000000000000000000081529351949550939092630902f1ac916004808301926060929190829003018186803b158015613b2457600080fd5b505afa158015613b38573d6000803e3d6000fd5b505050506040513d601f19601f82011682018060405250810190613b5c9190615b6c565b63ffffffff16925050506000826001015482613b789190615e03565b9050600854811115613cdb576000613b9087876150b4565b5090506000816001600160a01b0316886001600160a01b031614613c2457856001600160a01b0316635a3d54936040518163ffffffff1660e01b815260040160206040518083038186803b158015613be757600080fd5b505afa158015613bfb573d6000803e3d6000fd5b505050506040513d601f19601f82011682018060405250810190613c1f9190615bea565b613c95565b856001600160a01b0316635909c0d56040518163ffffffff1660e01b815260040160206040518083038186803b158015613c5d57600080fd5b505afa158015613c71573d6000803e3d6000fd5b505050506040513d601f19601f82011682018060405250810190613c959190615bea565b9050600083866000015483613caa9190615e03565b613cb49190615dc4565b9050613cc08b8261519e565b6002870191909155908555600185018490559850613cec9050565b613ce988846002015461519e565b97505b5050505050508080613cfd90615e1a565b9150506139cc565b5092915050565b600081831115613d1d575080610be7565b5081610be7565b600080613d62606660009081526020527f422cccb7cea5c0e46f340bb7b21b81debac329f72e31669c20ff0f3a05cc2b5b546001600160a01b031690565b6001600160a01b03858116600081815260028901602090815260408083205460038c01909252918290205491517fe695fa6800000000000000000000000000000000000000000000000000000000815260048101919091526024810192909252604482015291169063e695fa68906064016040805180830381600087803b158015613dec57600080fd5b505af1158015613e00573d6000803e3d6000fd5b505050506040513d601f19601f82011682018060405250810190613e249190615c26565b90925090506000613e358484615e03565b6001600160a01b0386166000908152600288016020526040902081905590508015613e7c576001600160a01b03851660009081526003870160205260409020829055613fc4565b6001600160a01b038516600090815260038701602052604081208190556001870154815b80821115613f70576000896001018281548110613ecd57634e487b7160e01b600052603260045260246000fd5b6000918252602090912001546001600160a01b0390811691508916811415613ef85760019350613f5d565b8315613f5d57808a600101600184613f109190615e03565b81548110613f2e57634e487b7160e01b600052603260045260246000fd5b9060005260206000200160006101000a8154816001600160a01b0302191690836001600160a01b031602179055505b5080613f6881615e1a565b915050613ea0565b5087600101805480613f9257634e487b7160e01b600052603160045260246000fd5b6000828152602090208101600019908101805473ffffffffffffffffffffffffffffffffffffffff1916905501905550505b505050505050565b6001600160a01b0384166000908152600586016020526040902054613ff2908390615e03565b6001600160a01b03851660009081526005870160205260409020556139b2858483614352565b6001600160a01b03821660009081526003840160205260409020546141745760018381018054918201815560009081526020902001805473ffffffffffffffffffffffffffffffffffffffff19166001600160a01b0384161790556140ae606660009081526020527f422cccb7cea5c0e46f340bb7b21b81debac329f72e31669c20ff0f3a05cc2b5b546001600160a01b031690565b6040517f46c87f800000000000000000000000000000000000000000000000000000000081526001600160a01b03848116600483015291909116906346c87f8090602401602060405180830381600087803b15801561410c57600080fd5b505af1158015614120573d6000803e3d6000fd5b505050506040513d601f19601f820116820180604052508101906141449190615bea565b6001600160a01b0383166000908152600385016020908152604080832093909355600286019052208190556142be565b6000806141b2606660009081526020527f422cccb7cea5c0e46f340bb7b21b81debac329f72e31669c20ff0f3a05cc2b5b546001600160a01b031690565b6001600160a01b03858116600081815260028901602090815260408083205460038c01909252918290205491517fe695fa6800000000000000000000000000000000000000000000000000000000815260048101919091526024810192909252604482015291169063e695fa68906064016040805180830381600087803b15801561423c57600080fd5b505af1158015614250573d6000803e3d6000fd5b505050506040513d601f19601f820116820180604052508101906142749190615c26565b6001600160a01b0386166000908152600388016020526040902081905590925090506142a08383615dac565b6001600160a01b038516600090815260028701602052604090205550505b61362883614d8e565b8154600090815b8181101561434a5760008582815481106142f857634e487b7160e01b600052603260045260246000fd5b60009182526020808320909101546001600160a01b03168083529087905260409091205490915061432a908290610b5e565b6143349085615dac565b935050808061434290615e1a565b9150506142ce565b505092915050565b6001600160a01b038216600090815260068401602052604090205460ff166143d1576004830180546001808201835560009283526020808420909201805473ffffffffffffffffffffffffffffffffffffffff19166001600160a01b0387169081179091558352600686019091526040909120805460ff191690911790555b6001600160a01b0382166000908152600584016020526040812080548392906143fb908490615dac565b9091555050505050565b6103e86144128284615de4565b61441e836103e8615e03565b856001015461442d9190615de4565b6144379190615dac565b6144419190615dc4565b60018401555050429055565b60008061448b606b60009081526020527f2dc7a963308417ad45132da282495eb244f38a7db03940a4d808be607669c622546001600160a01b031690565b6001600160a01b031663b0411f466040518163ffffffff1660e01b8152600401604080518083038186803b1580156144c257600080fd5b505afa1580156144d6573d6000803e3d6000fd5b505050506040513d601f19601f820116820180604052508101906144fa91906159cf565b50905060165460195461450d9190615de4565b6001600160a01b0390911660009081526014602052604090205411905090565b60408051600080825260208201928390529051909161454f9160129190615702565b50604080516000815260208101918290525161456d91601391615702565b5060005b8084511115613d0557600084828151811061459c57634e487b7160e01b600052603260045260246000fd5b602002602001015190506000600d6000836001600160a01b03166001600160a01b0316815260200190815260200160002090506145d8816151da565b15614a24576013805460018101825560009182527f66de8ffda797e3de9c05e8fc57b3bf0ec28a930d40b0d285d93c06501cf6a09001805473ffffffffffffffffffffffffffffffffffffffff19166001600160a01b0385161790556004820154905b8082111561476457600083600401828154811061466857634e487b7160e01b600052603260045260246000fd5b60009182526020808320909101546001600160a01b0316808352601190915260409091206002810154919250904314614719576001600160a01b03821660008181526005870160205260408120546001808501919091558184554360028501556012805491820181559091527fbb8a6a4669ba250d26cd7a459eca9d215f8307e33aebe50379bc5a3617ec344401805473ffffffffffffffffffffffffffffffffffffffff1916909117905561474f565b6001600160a01b038216600090815260058601602052604081205460018301805491929091614749908490615dac565b90915550505b5050808061475c90615e1a565b91505061463b565b5050600181015460005b80821115614a2157600083600101828154811061479b57634e487b7160e01b600052603260045260246000fd5b60009182526020808320909101546001600160a01b0316808352601190915260408220909250906147fd606660009081526020527f422cccb7cea5c0e46f340bb7b21b81debac329f72e31669c20ff0f3a05cc2b5b546001600160a01b031690565b6001600160a01b03848116600081815260028a01602090815260408083205460038d01909252918290205491517fe695fa6800000000000000000000000000000000000000000000000000000000815260048101919091526024810192909252604482015291169063e695fa68906064016040805180830381600087803b15801561488757600080fd5b505af115801561489b573d6000803e3d6000fd5b505050506040513d601f19601f820116820180604052508101906148bf9190615c26565b5090506148fd606660009081526020527f422cccb7cea5c0e46f340bb7b21b81debac329f72e31669c20ff0f3a05cc2b5b546001600160a01b031690565b6040517f2a6a897b0000000000000000000000000000000000000000000000000000000081526001600160a01b038581166004830152602482018490529190911690632a6a897b90604401600060405180830381600087803b15801561496257600080fd5b505af1158015614976573d6000803e3d6000fd5b50505050438260020154146149f157600060018381018290558284554360028501556012805491820181559091527fbb8a6a4669ba250d26cd7a459eca9d215f8307e33aebe50379bc5a3617ec344401805473ffffffffffffffffffffffffffffffffffffffff19166001600160a01b038516179055614a0b565b80826000016000828254614a059190615dac565b90915550505b5050508080614a1990615e1a565b91505061476e565b50505b6001600160a01b03821660009081526015602052604090208515614a5857614a4b81613026565b614a559086615dac565b94505b5050508080614a6690615e1a565b915050614571565b601254600090815b80821115614b3f57600060128281548110614aa157634e487b7160e01b600052603260045260246000fd5b60009182526020808320909101546001600160a01b0316808352601190915260409091208054600182015492935090911115614b2a5780546001820154600091614aea91615e03565b9050614af68382615217565b614b009087615dac565b6001600160a01b038416600090815260116020526040812081815560018101829055600201559550505b50508080614b3790615e1a565b915050614a76565b505090565b601254600090815b80821115614b3f57600060128281548110614b7757634e487b7160e01b600052603260045260246000fd5b60009182526020808320909101546001600160a01b0316808352601190915260409091206001810154815492935090911115614bfd57614bca8282600101548360000154614bc59190615e03565b615383565b614bd49086615dac565b6001600160a01b0383166000908152601160205260408120818155600181018290556002015594505b50508080614c0a90615e1a565b915050614b4c565b6000610be782600401836005016154de565b6000610be7826001018360020184600301615561565b600181015460005b80821115614cb3576000836001018281548110614c6f57634e487b7160e01b600052603260045260246000fd5b60009182526020808320909101546001600160a01b031682526002860181526040808320839055600387019091528120555080614cab81615e1a565b915050614c42565b5050600481015460005b80821115614d71576000836004018281548110614cea57634e487b7160e01b600052603260045260246000fd5b60009182526020808320909101546001600160a01b0316808352600587018252604080842054600f90935283208054919450919290614d2a908490615e03565b90915550506001600160a01b031660009081526005840160209081526040808320839055600686019091529020805460ff1916905580614d6981615e1a565b915050614cbd565b50614d80600183016000615774565b610b5a600483016000615774565b600080614d9a83614c24565b90506000614da784614c12565b9050600b5482614db79190615de4565b6064600b54614dc69190615e03565b614dd09083615de4565b1015949350505050565b600080614e18606660009081526020527f422cccb7cea5c0e46f340bb7b21b81debac329f72e31669c20ff0f3a05cc2b5b546001600160a01b031690565b6040517f14189db20000000000000000000000000000000000000000000000000000000081526001600160a01b03878116600483015291909116906314189db29060240160206040518083038186803b158015614e7457600080fd5b505afa158015614e88573d6000803e3d6000fd5b505050506040513d601f19601f82011682018060405250810190614eac9190615bea565b6001600160a01b03861660009081526020859052604081205491925090614ed38387615de4565b614edd9190615dc4565b9050611ceb8682610b5e565b6000806000614ef885856150b4565b6040516bffffffffffffffffffffffff19606084811b8216602084015283901b16603482015291935091507f00000000000000000000000000000000000000000000000000000000000000009060480160405160208183030381529060405280519060200120600354604051602001614fbe939291907fff00000000000000000000000000000000000000000000000000000000000000815260609390931b6bffffffffffffffffffffffff191660018401526015830191909152603582015260550190565b60408051601f19818403018152919052805160209091012095945050505050565b6000806000614fee85856150b4565b6040516bffffffffffffffffffffffff19606084811b8216602084015283901b16603482015291935091507f00000000000000000000000000000000000000000000000000000000000000009060480160405160208183030381529060405280519060200120600254604051602001614fbe939291907fff00000000000000000000000000000000000000000000000000000000000000815260609390931b6bffffffffffffffffffffffff191660018401526015830191909152603582015260550190565b600080826001600160a01b0316846001600160a01b031614156151195760405162461bcd60e51b815260206004820152601260248201527f4964656e746963616c20616464726573732100000000000000000000000000006044820152606401610c62565b826001600160a01b0316846001600160a01b03161061513957828461513c565b83835b90925090506001600160a01b0382166151975760405162461bcd60e51b815260206004820152600d60248201527f5a65726f206164647265737321000000000000000000000000000000000000006044820152606401610c62565b9250929050565b60006c010000000000000000000000006151ba61010084615dc4565b6151c661010086615dc4565b6151d09190615de4565b611cf09190615dc4565b6000806151e683614c24565b905060006151f384614c12565b905081600c546152039190615de4565b61520e826064615de4565b10949350505050565b60007f00000000000000000000000000000000000000000000000000000000000000006001600160a01b0316836001600160a01b0316141561525a575080610be7565b6001600160a01b0383166000908152600560205260408120906152ae606760009081526020527f682158d08466d11c566d5712d4396197fdd67e65be71d83c97ef719ec468867b546001600160a01b031690565b6001600160a01b031663351ae6108560008560030154866002016040518563ffffffff1660e01b81526004016152e79493929190615d32565b600060405180830381600087803b15801561530157600080fd5b505af1158015615315573d6000803e3d6000fd5b505050506040513d6000823e601f3d908101601f1916820160405261533d9190810190615a78565b9050600081600183516153509190615e03565b8151811061536e57634e487b7160e01b600052603260045260246000fd5b60200260200101519050809350505050610be7565b60007f00000000000000000000000000000000000000000000000000000000000000006001600160a01b0316836001600160a01b031614156153c6575080610be7565b6001600160a01b03831660009081526005602052604081209061541a606760009081526020527f682158d08466d11c566d5712d4396197fdd67e65be71d83c97ef719ec468867b546001600160a01b031690565b6001600160a01b03166353d7ff9f856000198560030154866004016040518563ffffffff1660e01b81526004016154549493929190615d32565b600060405180830381600087803b15801561546e57600080fd5b505af1158015615482573d6000803e3d6000fd5b505050506040513d6000823e601f3d908101601f191682016040526154aa9190810190615a78565b9050806000815181106154cd57634e487b7160e01b600052603260045260246000fd5b602002602001015192505050610be7565b8154600090815b8181101561434a57600085828154811061550f57634e487b7160e01b600052603260045260246000fd5b60009182526020808320909101546001600160a01b0316808352908790526040909120549091506155419082906155e5565b61554b9085615dac565b935050808061555990615e1a565b9150506154e5565b8254600090815b818110156136f857600086828154811061559257634e487b7160e01b600052603260045260246000fd5b60009182526020808320909101546001600160a01b0316808352908890526040909120549091506155c5908290876155f3565b6155cf9085615dac565b93505080806155dd90615e1a565b915050615568565b6000611cf083836000611bad565b600080615631606660009081526020527f422cccb7cea5c0e46f340bb7b21b81debac329f72e31669c20ff0f3a05cc2b5b546001600160a01b031690565b6040517f14189db20000000000000000000000000000000000000000000000000000000081526001600160a01b03878116600483015291909116906314189db29060240160206040518083038186803b15801561568d57600080fd5b505afa1580156156a1573d6000803e3d6000fd5b505050506040513d601f19601f820116820180604052508101906156c59190615bea565b6001600160a01b038616600090815260208590526040812054919250906156ec8387615de4565b6156f69190615dc4565b9050611ceb86826155e5565b828054828255906000526020600020908101928215615764579160200282015b82811115615764578251825473ffffffffffffffffffffffffffffffffffffffff19166001600160a01b03909116178255602090920191600190910190615722565b50615770929150615795565b5090565b50805460008255906000526020600020908101906157929190615795565b50565b5b808211156157705760008155600101615796565b600082601f8301126157ba578081fd5b813560206157cf6157ca83615d88565b615d57565b80838252828201915082860187848660051b89010111156157ee578586fd5b855b8581101561581557813561580381615e61565b845292840192908401906001016157f0565b5090979650505050505050565b80516dffffffffffffffffffffffffffff81168114610ead57600080fd5b600060208284031215615851578081fd5b8135611cf081615e61565b60006020828403121561586d578081fd5b8151611cf081615e61565b6000806040838503121561588a578081fd5b823561589581615e61565b915060208301356158a581615e61565b809150509250929050565b600080600080600060a086880312156158c7578081fd5b85356158d281615e61565b945060208601356158e281615e61565b935060408601356158f281615e61565b94979396509394606081013594506080013592915050565b60008060006060848603121561591e578283fd5b833561592981615e61565b9250602084013561593981615e61565b929592945050506040919091013590565b600080600080600060a08688031215615961578081fd5b853561596c81615e61565b9450602086013561597c81615e61565b935060408601359250606086013561599381615e61565b949793965091946080013592915050565b600080604083850312156159b6578182fd5b82356159c181615e61565b946020939093013593505050565b600080604083850312156159e1578182fd5b82516159ec81615e61565b6020939093015192949293505050565b600080600060608486031215615a10578081fd5b8335615a1b81615e61565b9250602084013591506040840135615a3281615e76565b809150509250925092565b600060208284031215615a4e578081fd5b813567ffffffffffffffff811115615a64578182fd5b615a70848285016157aa565b949350505050565b60006020808385031215615a8a578182fd5b825167ffffffffffffffff811115615aa0578283fd5b8301601f81018513615ab0578283fd5b8051615abe6157ca82615d88565b80828252848201915084840188868560051b8701011115615add578687fd5b8694505b83851015615aff578051835260019490940193918501918501615ae1565b50979650505050505050565b600060208284031215615b1c578081fd5b8151611cf081615e76565b60008060408385031215615b39578182fd5b82359150602083013567ffffffffffffffff811115615b56578182fd5b615b62858286016157aa565b9150509250929050565b600080600060608486031215615b80578081fd5b615b8984615822565b9250615b9760208501615822565b9150604084015163ffffffff81168114615a32578182fd5b60008060408385031215615bc1578182fd5b823561ffff811681146159c1578283fd5b600060208284031215615be3578081fd5b5035919050565b600060208284031215615bfb578081fd5b5051919050565b60008060408385031215615c14578182fd5b8235915060208301356158a581615e61565b60008060408385031215615c38578182fd5b505080516020909101519092909150565b600080600060608486031215615c5d578081fd5b505081359360208301359350604090920135919050565b6000815480845260208085019450838352808320835b83811015615caf5781546001600160a01b031687529582019560019182019101615c8a565b509495945050505050565b604080825283519082018190526000906020906060840190828701845b82811015615cfe5781516001600160a01b0316845260208401935090840190600101615cd7565b50505083810382850152845180825285830191830190845b8181101561581557835183529284019291840191600101615d16565b6000858252846020830152836040830152608060608301526132eb6080830184615c74565b604051601f8201601f1916810167ffffffffffffffff81118282101715615d8057615d80615e4b565b604052919050565b600067ffffffffffffffff821115615da257615da2615e4b565b5060051b60200190565b60008219821115615dbf57615dbf615e35565b500190565b600082615ddf57634e487b7160e01b81526012600452602481fd5b500490565b6000816000190483118215151615615dfe57615dfe615e35565b500290565b600082821015615e1557615e15615e35565b500390565b6000600019821415615e2e57615e2e615e35565b5060010190565b634e487b7160e01b600052601160045260246000fd5b634e487b7160e01b600052604160045260246000fd5b6001600160a01b038116811461579257600080fd5b801515811461579257600080fdfea26469706673582212204d90749ece7644f8fcb8cec2f3c8f27d066ed31885ec6d8a7fcdd7515884e0e164736f6c63430008030033",
  "linkReferences": {},
  "deployedLinkReferences": {}
}