{
  "_format": "hh-sol-artifact-1",
  "contractName": "CrossMarginTrading",
  "sourceName": "contracts/CrossMarginTrading.sol",
  "abi": [
    {
      "inputs": [
        {
          "internalType": "address",
          "name": "_peg",
          "type": "address"
        },
        {
          "internalType": "address",
          "name": "_roles",
          "type": "address"
        }
      ],
      "stateMutability": "nonpayable",
      "type": "constructor"
    },
    {
      "anonymous": false,
      "inputs": [
        {
          "indexed": false,
          "internalType": "address",
          "name": "account",
          "type": "address"
        }
      ],
      "name": "AccountLiquidated",
      "type": "event"
    },
    {
      "anonymous": false,
      "inputs": [
        {
          "indexed": false,
          "internalType": "uint256",
          "name": "amount",
          "type": "uint256"
        }
      ],
      "name": "LiquidationShortfall",
      "type": "event"
    },
    {
      "inputs": [],
      "name": "MAINTAINER_CUT_PERCENT",
      "outputs": [
        {
          "internalType": "uint256",
          "name": "",
          "type": "uint256"
        }
      ],
      "stateMutability": "view",
      "type": "function"
    },
    {
      "inputs": [],
      "name": "UPDATE_RATE_PERMIL",
      "outputs": [
        {
          "internalType": "uint256",
          "name": "",
          "type": "uint256"
        }
      ],
      "stateMutability": "view",
      "type": "function"
    },
    {
      "inputs": [
        {
          "internalType": "uint256",
          "name": "_priceUpdateWindow",
          "type": "uint256"
        },
        {
          "internalType": "uint256",
          "name": "_updateRatePermil",
          "type": "uint256"
        },
        {
          "internalType": "uint256",
          "name": "_voluntaryUpdateWindow",
          "type": "uint256"
        }
      ],
      "name": "addVolatilitySetting",
      "outputs": [],
      "stateMutability": "nonpayable",
      "type": "function"
    },
    {
      "inputs": [],
      "name": "avgLiquidationPerCall",
      "outputs": [
        {
          "internalType": "uint256",
          "name": "",
          "type": "uint256"
        }
      ],
      "stateMutability": "view",
      "type": "function"
    },
    {
      "inputs": [
        {
          "internalType": "address",
          "name": "trader",
          "type": "address"
        }
      ],
      "name": "canBeLiquidated",
      "outputs": [
        {
          "internalType": "bool",
          "name": "",
          "type": "bool"
        }
      ],
      "stateMutability": "view",
      "type": "function"
    },
    {
      "inputs": [
        {
          "internalType": "uint256",
          "name": "index",
          "type": "uint256"
        }
      ],
      "name": "chooseVolatilitySetting",
      "outputs": [],
      "stateMutability": "nonpayable",
      "type": "function"
    },
    {
      "inputs": [],
      "name": "coolingOffPeriod",
      "outputs": [
        {
          "internalType": "uint256",
          "name": "",
          "type": "uint256"
        }
      ],
      "stateMutability": "view",
      "type": "function"
    },
    {
      "inputs": [
        {
          "internalType": "address[]",
          "name": "liquidatedAccounts",
          "type": "address[]"
        }
      ],
      "name": "disburseLiqStakeAttacks",
      "outputs": [],
      "stateMutability": "nonpayable",
      "type": "function"
    },
    {
      "inputs": [],
      "name": "failureThreshold",
      "outputs": [
        {
          "internalType": "uint256",
          "name": "",
          "type": "uint256"
        }
      ],
      "stateMutability": "view",
      "type": "function"
    },
    {
      "inputs": [
        {
          "internalType": "address",
          "name": "trader",
          "type": "address"
        }
      ],
      "name": "getBorrowAmounts",
      "outputs": [
        {
          "internalType": "address[]",
          "name": "borrowTokens",
          "type": "address[]"
        },
        {
          "internalType": "uint256[]",
          "name": "borrowAmounts",
          "type": "uint256[]"
        }
      ],
      "stateMutability": "view",
      "type": "function"
    },
    {
      "inputs": [
        {
          "internalType": "address",
          "name": "token",
          "type": "address"
        },
        {
          "internalType": "uint256",
          "name": "inAmount",
          "type": "uint256"
        },
        {
          "internalType": "bool",
          "name": "voluntary",
          "type": "bool"
        }
      ],
      "name": "getCurrentPriceInPeg",
      "outputs": [
        {
          "internalType": "uint256",
          "name": "priceInPeg",
          "type": "uint256"
        }
      ],
      "stateMutability": "nonpayable",
      "type": "function"
    },
    {
      "inputs": [
        {
          "internalType": "address",
          "name": "trader",
          "type": "address"
        }
      ],
      "name": "getHoldingAmounts",
      "outputs": [
        {
          "internalType": "address[]",
          "name": "holdingTokens",
          "type": "address[]"
        },
        {
          "internalType": "uint256[]",
          "name": "holdingAmounts",
          "type": "uint256[]"
        }
      ],
      "stateMutability": "view",
      "type": "function"
    },
    {
      "inputs": [],
      "name": "leveragePercent",
      "outputs": [
        {
          "internalType": "uint256",
          "name": "",
          "type": "uint256"
        }
      ],
      "stateMutability": "view",
      "type": "function"
    },
    {
      "inputs": [],
      "name": "liqStakeAttackWindow",
      "outputs": [
        {
          "internalType": "uint256",
          "name": "",
          "type": "uint256"
        }
      ],
      "stateMutability": "view",
      "type": "function"
    },
    {
      "inputs": [
        {
          "internalType": "address[]",
          "name": "liquidationCandidates",
          "type": "address[]"
        }
      ],
      "name": "liquidate",
      "outputs": [
        {
          "internalType": "uint256",
          "name": "maintainerCut",
          "type": "uint256"
        }
      ],
      "stateMutability": "nonpayable",
      "type": "function"
    },
    {
      "inputs": [],
      "name": "liquidationThresholdPercent",
      "outputs": [
        {
          "internalType": "uint256",
          "name": "",
          "type": "uint256"
        }
      ],
      "stateMutability": "view",
      "type": "function"
    },
    {
      "inputs": [
        {
          "internalType": "uint256",
          "name": "",
          "type": "uint256"
        }
      ],
      "name": "mainCharacterCache",
      "outputs": [
        {
          "internalType": "address",
          "name": "",
          "type": "address"
        }
      ],
      "stateMutability": "view",
      "type": "function"
    },
    {
      "inputs": [
        {
          "internalType": "address",
          "name": "",
          "type": "address"
        }
      ],
      "name": "maintenanceFailures",
      "outputs": [
        {
          "internalType": "uint256",
          "name": "",
          "type": "uint256"
        }
      ],
      "stateMutability": "view",
      "type": "function"
    },
    {
      "inputs": [
        {
          "internalType": "address",
          "name": "",
          "type": "address"
        },
        {
          "internalType": "address",
          "name": "",
          "type": "address"
        }
      ],
      "name": "pairPrices",
      "outputs": [
        {
          "internalType": "uint256",
          "name": "cumulative",
          "type": "uint256"
        },
        {
          "internalType": "uint256",
          "name": "lastUpdated",
          "type": "uint256"
        },
        {
          "internalType": "uint256",
          "name": "priceFP",
          "type": "uint256"
        }
      ],
      "stateMutability": "view",
      "type": "function"
    },
    {
      "inputs": [],
      "name": "peg",
      "outputs": [
        {
          "internalType": "address",
          "name": "",
          "type": "address"
        }
      ],
      "stateMutability": "view",
      "type": "function"
    },
    {
      "inputs": [],
      "name": "priceUpdateWindow",
      "outputs": [
        {
          "internalType": "uint256",
          "name": "",
          "type": "uint256"
        }
      ],
      "stateMutability": "view",
      "type": "function"
    },
    {
      "inputs": [
        {
          "internalType": "address",
          "name": "trader",
          "type": "address"
        },
        {
          "internalType": "address",
          "name": "borrowToken",
          "type": "address"
        },
        {
          "internalType": "uint256",
          "name": "borrowAmount",
          "type": "uint256"
        }
      ],
      "name": "registerBorrow",
      "outputs": [],
      "stateMutability": "nonpayable",
      "type": "function"
    },
    {
      "inputs": [
        {
          "internalType": "address",
          "name": "trader",
          "type": "address"
        },
        {
          "internalType": "address",
          "name": "token",
          "type": "address"
        },
        {
          "internalType": "uint256",
          "name": "depositAmount",
          "type": "uint256"
        }
      ],
      "name": "registerDeposit",
      "outputs": [
        {
          "internalType": "uint256",
          "name": "extinguishableDebt",
          "type": "uint256"
        }
      ],
      "stateMutability": "nonpayable",
      "type": "function"
    },
    {
      "inputs": [
        {
          "internalType": "address",
          "name": "trader",
          "type": "address"
        }
      ],
      "name": "registerLiquidation",
      "outputs": [],
      "stateMutability": "nonpayable",
      "type": "function"
    },
    {
      "inputs": [
        {
          "internalType": "address",
          "name": "trader",
          "type": "address"
        },
        {
          "internalType": "address",
          "name": "depositToken",
          "type": "address"
        },
        {
          "internalType": "uint256",
          "name": "depositAmount",
          "type": "uint256"
        },
        {
          "internalType": "address",
          "name": "borrowToken",
          "type": "address"
        },
        {
          "internalType": "uint256",
          "name": "withdrawAmount",
          "type": "uint256"
        }
      ],
      "name": "registerOvercollateralizedBorrow",
      "outputs": [],
      "stateMutability": "nonpayable",
      "type": "function"
    },
    {
      "inputs": [
        {
          "internalType": "address",
          "name": "trader",
          "type": "address"
        },
        {
          "internalType": "address",
          "name": "tokenFrom",
          "type": "address"
        },
        {
          "internalType": "address",
          "name": "tokenTo",
          "type": "address"
        },
        {
          "internalType": "uint256",
          "name": "inAmount",
          "type": "uint256"
        },
        {
          "internalType": "uint256",
          "name": "outAmount",
          "type": "uint256"
        }
      ],
      "name": "registerTradeAndBorrow",
      "outputs": [
        {
          "internalType": "uint256",
          "name": "extinguishableDebt",
          "type": "uint256"
        },
        {
          "internalType": "uint256",
          "name": "borrowAmount",
          "type": "uint256"
        }
      ],
      "stateMutability": "nonpayable",
      "type": "function"
    },
    {
      "inputs": [
        {
          "internalType": "address",
          "name": "trader",
          "type": "address"
        },
        {
          "internalType": "address",
          "name": "withdrawToken",
          "type": "address"
        },
        {
          "internalType": "uint256",
          "name": "withdrawAmount",
          "type": "uint256"
        }
      ],
      "name": "registerWithdrawal",
      "outputs": [],
      "stateMutability": "nonpayable",
      "type": "function"
    },
    {
      "inputs": [
        {
          "internalType": "address",
          "name": "",
          "type": "address"
        },
        {
          "internalType": "uint256",
          "name": "",
          "type": "uint256"
        }
      ],
      "name": "roleCache",
      "outputs": [
        {
          "internalType": "bool",
          "name": "",
          "type": "bool"
        }
      ],
      "stateMutability": "view",
      "type": "function"
    },
    {
      "inputs": [],
      "name": "roles",
      "outputs": [
        {
          "internalType": "contract Roles",
          "name": "",
          "type": "address"
        }
      ],
      "stateMutability": "view",
      "type": "function"
    },
    {
      "inputs": [
        {
          "internalType": "uint256",
          "name": "blocks",
          "type": "uint256"
        }
      ],
      "name": "setCoolingOffPeriod",
      "outputs": [],
      "stateMutability": "nonpayable",
      "type": "function"
    },
    {
      "inputs": [
        {
          "internalType": "uint256",
          "name": "threshFactor",
          "type": "uint256"
        }
      ],
      "name": "setFailureThreshold",
      "outputs": [],
      "stateMutability": "nonpayable",
      "type": "function"
    },
    {
      "inputs": [
        {
          "internalType": "uint256",
          "name": "_leveragePercent",
          "type": "uint256"
        }
      ],
      "name": "setLeveragePercent",
      "outputs": [],
      "stateMutability": "nonpayable",
      "type": "function"
    },
    {
      "inputs": [
        {
          "internalType": "uint256",
          "name": "window",
          "type": "uint256"
        }
      ],
      "name": "setLiqStakeAttackWindow",
      "outputs": [],
      "stateMutability": "nonpayable",
      "type": "function"
    },
    {
      "inputs": [
        {
          "internalType": "bytes32",
          "name": "amms",
          "type": "bytes32"
        },
        {
          "internalType": "address[]",
          "name": "tokens",
          "type": "address[]"
        }
      ],
      "name": "setLiquidationPath",
      "outputs": [],
      "stateMutability": "nonpayable",
      "type": "function"
    },
    {
      "inputs": [
        {
          "internalType": "uint256",
          "name": "threshold",
          "type": "uint256"
        }
      ],
      "name": "setLiquidationThresholdPercent",
      "outputs": [],
      "stateMutability": "nonpayable",
      "type": "function"
    },
    {
      "inputs": [
        {
          "internalType": "uint256",
          "name": "cut",
          "type": "uint256"
        }
      ],
      "name": "setMaintainerCutPercent",
      "outputs": [],
      "stateMutability": "nonpayable",
      "type": "function"
    },
    {
      "inputs": [
        {
          "internalType": "uint16",
          "name": "window",
          "type": "uint16"
        },
        {
          "internalType": "uint256",
          "name": "voluntaryWindow",
          "type": "uint256"
        }
      ],
      "name": "setPriceUpdateWindow",
      "outputs": [],
      "stateMutability": "nonpayable",
      "type": "function"
    },
    {
      "inputs": [
        {
          "internalType": "address",
          "name": "token",
          "type": "address"
        },
        {
          "internalType": "uint256",
          "name": "cap",
          "type": "uint256"
        }
      ],
      "name": "setTokenCap",
      "outputs": [],
      "stateMutability": "nonpayable",
      "type": "function"
    },
    {
      "inputs": [
        {
          "internalType": "uint256",
          "name": "rate",
          "type": "uint256"
        }
      ],
      "name": "setUpdateRate",
      "outputs": [],
      "stateMutability": "nonpayable",
      "type": "function"
    },
    {
      "inputs": [
        {
          "internalType": "address",
          "name": "",
          "type": "address"
        }
      ],
      "name": "stakeAttackRecords",
      "outputs": [
        {
          "internalType": "uint256",
          "name": "blockNum",
          "type": "uint256"
        },
        {
          "internalType": "address",
          "name": "loser",
          "type": "address"
        },
        {
          "internalType": "uint256",
          "name": "amount",
          "type": "uint256"
        },
        {
          "internalType": "address",
          "name": "stakeAttacker",
          "type": "address"
        }
      ],
      "stateMutability": "view",
      "type": "function"
    },
    {
      "inputs": [
        {
          "internalType": "address",
          "name": "",
          "type": "address"
        }
      ],
      "name": "tokenCaps",
      "outputs": [
        {
          "internalType": "uint256",
          "name": "",
          "type": "uint256"
        }
      ],
      "stateMutability": "view",
      "type": "function"
    },
    {
      "inputs": [
        {
          "internalType": "address",
          "name": "",
          "type": "address"
        }
      ],
      "name": "tokenPrices",
      "outputs": [
        {
          "internalType": "uint256",
          "name": "lastUpdated",
          "type": "uint256"
        },
        {
          "internalType": "uint256",
          "name": "priceFP",
          "type": "uint256"
        },
        {
          "internalType": "bytes32",
          "name": "amms",
          "type": "bytes32"
        },
        {
          "internalType": "bytes32",
          "name": "inverseAmms",
          "type": "bytes32"
        }
      ],
      "stateMutability": "view",
      "type": "function"
    },
    {
      "inputs": [
        {
          "internalType": "address",
          "name": "",
          "type": "address"
        }
      ],
      "name": "totalLong",
      "outputs": [
        {
          "internalType": "uint256",
          "name": "",
          "type": "uint256"
        }
      ],
      "stateMutability": "view",
      "type": "function"
    },
    {
      "inputs": [
        {
          "internalType": "address",
          "name": "",
          "type": "address"
        }
      ],
      "name": "totalShort",
      "outputs": [
        {
          "internalType": "uint256",
          "name": "",
          "type": "uint256"
        }
      ],
      "stateMutability": "view",
      "type": "function"
    },
    {
      "inputs": [
        {
          "internalType": "uint256",
          "name": "role",
          "type": "uint256"
        }
      ],
      "name": "updateMainCharacterCache",
      "outputs": [],
      "stateMutability": "nonpayable",
      "type": "function"
    },
    {
      "inputs": [
        {
          "internalType": "uint256",
          "name": "role",
          "type": "uint256"
        },
        {
          "internalType": "address",
          "name": "contr",
          "type": "address"
        }
      ],
      "name": "updateRoleCache",
      "outputs": [],
      "stateMutability": "nonpayable",
      "type": "function"
    },
    {
      "inputs": [
        {
          "internalType": "address",
          "name": "trader",
          "type": "address"
        },
        {
          "internalType": "address",
          "name": "token",
          "type": "address"
        }
      ],
      "name": "viewBalanceInToken",
      "outputs": [
        {
          "internalType": "uint256",
          "name": "",
          "type": "uint256"
        }
      ],
      "stateMutability": "view",
      "type": "function"
    },
    {
      "inputs": [
        {
          "internalType": "address",
          "name": "token",
          "type": "address"
        },
        {
          "internalType": "uint256",
          "name": "inAmount",
          "type": "uint256"
        }
      ],
      "name": "viewCurrentPriceInPeg",
      "outputs": [
        {
          "internalType": "uint256",
          "name": "priceInPeg",
          "type": "uint256"
        }
      ],
      "stateMutability": "view",
      "type": "function"
    },
    {
      "inputs": [
        {
          "internalType": "address",
          "name": "trader",
          "type": "address"
        }
      ],
      "name": "viewHoldingsInPeg",
      "outputs": [
        {
          "internalType": "uint256",
          "name": "",
          "type": "uint256"
        }
      ],
      "stateMutability": "view",
      "type": "function"
    },
    {
      "inputs": [
        {
          "internalType": "address",
          "name": "trader",
          "type": "address"
        }
      ],
      "name": "viewLoanInPeg",
      "outputs": [
        {
          "internalType": "uint256",
          "name": "amount",
          "type": "uint256"
        }
      ],
      "stateMutability": "view",
      "type": "function"
    },
    {
      "inputs": [
        {
          "internalType": "uint256",
          "name": "",
          "type": "uint256"
        }
      ],
      "name": "volatilitySettings",
      "outputs": [
        {
          "internalType": "uint256",
          "name": "priceUpdateWindow",
          "type": "uint256"
        },
        {
          "internalType": "uint256",
          "name": "updateRatePermil",
          "type": "uint256"
        },
        {
          "internalType": "uint256",
          "name": "voluntaryUpdateWindow",
          "type": "uint256"
        }
      ],
      "stateMutability": "view",
      "type": "function"
    },
    {
      "inputs": [],
      "name": "voluntaryUpdateWindow",
      "outputs": [
        {
          "internalType": "uint256",
          "name": "",
          "type": "uint256"
        }
      ],
      "stateMutability": "view",
      "type": "function"
    }
  ],
  "bytecode": "0x60c060405261096060045561012c60055561019060065561012c6008556073600955600a600e55600a60155560056016556005601755600a6018553480156200004757600080fd5b5060405162005ded38038062005ded8339810160408190526200006a9162000112565b81816001600160a01b038116620000d25760405162461bcd60e51b815260206004820152602260248201527f506c656173652070726f766964652076616c696420726f6c6573206164647265604482015261737360f01b606482015260840160405180910390fd5b6001600160601b0319606091821b811660805291901b1660a05250620001499050565b80516001600160a01b03811681146200010d57600080fd5b919050565b6000806040838503121562000125578182fd5b6200013083620000f5565b91506200014060208401620000f5565b90509250929050565b60805160601c60a05160601c615c24620001c9600039600081816103f001528181610ab101528181610ef501528181611a00015281816120640152818161220b01528181612c5e01528181614eca0152615054015260008181610504015281816108ed0152818161168701528181612e6a0152612f020152615c246000f3fe608060405234801561001057600080fd5b506004361061034c5760003560e01c806360b3fa40116101bd578063bc44dcbc116100f9578063db2d904d116100a2578063ef859fc81161007c578063ef859fc814610848578063f04c686514610885578063f3f5f9b514610898578063f99fd97c146108ab5761034c565b8063db2d904d146107ec578063e0f3871f146107ff578063e9c3f77d1461081f5761034c565b8063c74303aa116100d3578063c74303aa146107b3578063d0eb6653146107c6578063d510c535146107d95761034c565b8063bc44dcbc1461076d578063bc70c6661461078d578063c73afac2146107a05761034c565b8063a17ab52711610166578063a53ac0d911610140578063a53ac0d9146106c4578063a75697a5146106cd578063a985994b146106ed578063badb5048146107005761034c565b8063a17ab5271461068b578063a20ec4931461069e578063a3718919146106b15761034c565b80637d100e84116101975780637d100e84146106245780638dc6a5291461062d5780639c56522c146106825761034c565b806360b3fa40146105da5780636585b5a6146105ed5780637a1a04df146105f65761034c565b8063320d2fa01161028c57806347788cd011610235578063519bda851161020f578063519bda85146105a257806352a664d9146105ab578063538edb29146105be57806354554b58146105c75761034c565b806347788cd014610563578063498d55eb146105865780634aa4aca3146105995761034c565b80633ed456fa116102665780633ed456fa14610526578063409fdb721461052f578063447d52ba146105505761034c565b8063320d2fa0146104ce5780633500aa0b146104d7578063392f5f64146104ff5761034c565b80631d84cc18116102f9578063204120bc116102d3578063204120bc1461043d57806320c27126146104925780632b23f857146104b25780632febaa74146104c55761034c565b80631d84cc18146103d85780631f1cb62b146103eb5780631f692a641461042a5761034c565b806310d584341161032a57806310d584341461039f57806316317e7e146103b25780631d47e4a3146103c55761034c565b8063071060a61461035157806307c2017514610366578063093a483a14610379575b600080fd5b61036461035f3660046158e2565b6108be565b005b61036461037436600461574d565b6109b5565b61038c6103873660046156b4565b610aad565b6040519081526020015b60405180910390f35b6103646103ad3660046158e2565b610b3c565b6103646103c03660046158e2565b610bbf565b6103646103d33660046156b4565b610c3d565b6103646103e636600461565a565b610d1e565b6104127f000000000000000000000000000000000000000000000000000000000000000081565b6040516001600160a01b039091168152602001610396565b61038c610438366004615550565b610dcc565b61047261044b366004615550565b60026020526000908152604090208054600182015460038301546005909301549192909184565b604080519485526020850193909352918301526060820152608001610396565b61038c6104a0366004615550565b600d6020526000908152604090205481565b6103646104c0366004615837565b610e01565b61038c600e5481565b61038c60095481565b6104ea6104e53660046155c0565b6111d7565b60408051928352602083019190915201610396565b6104127f000000000000000000000000000000000000000000000000000000000000000081565b61038c60045481565b61054261053d366004615550565b6114d1565b6040516103969291906159ca565b61036461055e366004615912565b611648565b610576610571366004615550565b611757565b6040519015158152602001610396565b61036461059436600461561a565b6117be565b61038c60165481565b61038c60065481565b61038c6105b936600461561a565b61185d565b61038c60175481565b6103646105d53660046158e2565b61197e565b61038c6105e836600461570c565b6119fc565b61038c60155481565b6105766106043660046156b4565b600160209081526000928352604080842090915290825290205460ff1681565b61038c60185481565b61066761063b366004615588565b600360209081526000928352604080842090915290825290208054600182015460029092015490919083565b60408051938452602084019290925290820152606001610396565b61038c60055481565b61038c610699366004615550565b611b46565b6103646106ac3660046158bf565b611b6e565b6103646106bf3660046158e2565b611bf5565b61038c60085481565b61038c6106db366004615550565b60136020526000908152604090205481565b61038c6106fb36600461574d565b611c73565b61074261070e366004615550565b601460205260009081526040902080546001820154600283015460039093015491926001600160a01b039182169290911684565b604080519485526001600160a01b039384166020860152840191909152166060820152608001610396565b61038c61077b366004615550565b600c6020526000908152604090205481565b61066761079b3660046158e2565b6123e2565b6103646107ae3660046158e2565b612415565b6103646107c13660046158e2565b612493565b6103646107d436600461561a565b612511565b6105426107e7366004615550565b61259f565b6103646107fa366004615550565b6127e3565b61038c61080d366004615550565b600b6020526000908152604090205481565b61041261082d3660046158e2565b6000602081905290815260409020546001600160a01b031681565b61038c610856366004615588565b6001600160a01b039182166000908152600a602090815260408083209390941682526005909201909152205490565b6103646108933660046158e2565b6128c5565b6103646108a6366004615959565b612a09565b6103646108b93660046158e2565b612b25565b6040517fb4ed0b6d000000000000000000000000000000000000000000000000000000008152600481018290527f00000000000000000000000000000000000000000000000000000000000000006001600160a01b03169063b4ed0b6d9060240160206040518083038186803b15801561093757600080fd5b505afa15801561094b573d6000803e3d6000fd5b505050506040513d601f19601f8201168201806040525081019061096f919061556c565b60009182526020829052604090912080547fffffffffffffffffffffffff0000000000000000000000000000000000000000166001600160a01b03909216919091179055565b60005b8082511115610aa95760008282815181106109e357634e487b7160e01b600052603260045260246000fd5b60200260200101519050600060146000836001600160a01b03166001600160a01b0316815260200190815260200160002090506016548160000154610a289190615ada565b431115610a9457610a3881612ba3565b506001600160a01b03821660009081526014602052604081208181556001810180547fffffffffffffffffffffffff00000000000000000000000000000000000000009081169091556002820192909255600301805490911690555b50508080610aa190615b66565b9150506109b8565b5050565b60007f00000000000000000000000000000000000000000000000000000000000000006001600160a01b0316836001600160a01b03161415610af0575080610b36565b6001600160a01b038316600090815260026020526040902060018101546e010000000000000000000000000000610b278286615b12565b610b319190615af2565b925050505b92915050565b33610b45612e66565b6001600160a01b03161480610b69575033610b5e612efe565b6001600160a01b0316145b610bba5760405162461bcd60e51b815260206004820152601e60248201527f526f6c65733a2063616c6c6572206973206e6f7420746865206f776e6572000060448201526064015b60405180910390fd5b601855565b33610bc8612e66565b6001600160a01b03161480610bec575033610be1612efe565b6001600160a01b0316145b610c385760405162461bcd60e51b815260206004820152601e60248201527f526f6c65733a2063616c6c6572206973206e6f7420746865206f776e657200006044820152606401610bb1565b600955565b33610c46612e66565b6001600160a01b03161480610c6a575033610c5f612efe565b6001600160a01b0316145b80610c9057503360009081526001602090815260408083206009845290915290205460ff165b610d025760405162461bcd60e51b815260206004820152603960248201527f43616c6c6572206973206e6f7420746865206f776e65722c206578656375746f60448201527f72206f7220617574686f72697a656420616374697661746f72000000000000006064820152608401610bb1565b6001600160a01b039091166000908152600b6020526040902055565b3360009081526001602090815260408083206004845290915290205460ff16610d895760405162461bcd60e51b815260206004820152601d60248201527f43616c6c696e6720636f6e74722e206e6f7420617574686f72697a65640000006044820152606401610bb1565b6001600160a01b0385166000908152600a60205260409020610dac818686612f6f565b610db781848461301a565b610dc2818484613121565b4390555050505050565b6001600160a01b0381166000908152600a60205260408120610df8600182016002830160038401613241565b9150505b919050565b33610e0a612e66565b6001600160a01b03161480610e2e575033610e23612efe565b6001600160a01b0316145b80610e5457503360009081526001602090815260408083206009845290915290205460ff165b610ec65760405162461bcd60e51b815260206004820152603960248201527f43616c6c6572206973206e6f7420746865206f776e65722c206578656375746f60448201527f72206f7220617574686f72697a656420616374697661746f72000000000000006064820152608401610bb1565b600081600081518110610ee957634e487b7160e01b600052603260045260246000fd5b602002602001015190507f00000000000000000000000000000000000000000000000000000000000000006001600160a01b0316816001600160a01b0316146111d2576001600160a01b03811660009081526002602081815260409092206003810186905584519092610f62928401919086019061540b565b50825167ffffffffffffffff811115610f8b57634e487b7160e01b600052604160045260246000fd5b604051908082528060200260200182016040528015610fb4578160200160208202803683370190505b508051610fcb91600484019160209091019061540b565b506000805b8060018651610fdf9190615b4f565b11156110f35761106d85828151811061100857634e487b7160e01b600052603260045260246000fd5b60200260200101518683600161101e9190615ada565b8151811061103c57634e487b7160e01b600052603260045260246000fd5b602002602001015188846020811061106457634e487b7160e01b600052603260045260246000fd5b1a60f81b6132c5565b6000816002875161107e9190615b4f565b6110889190615b4f565b611093906008615b12565b8783602081106110b357634e487b7160e01b600052603260045260246000fd5b1a60f81b7fff0000000000000000000000000000000000000000000000000000000000000016901c929092179150806110eb81615b66565b915050610fd0565b506005820181905560005b80855111156111bd578460018287516111179190615b4f565b6111219190615b4f565b8151811061113f57634e487b7160e01b600052603260045260246000fd5b602002602001015183600401828154811061116a57634e487b7160e01b600052603260045260246000fd5b600091825260209091200180547fffffffffffffffffffffffff0000000000000000000000000000000000000000166001600160a01b0392909216919091179055806111b581615b66565b9150506110fe565b506111c8848661356b565b6001830155504290555b505050565b33600090815260016020908152604080832060048452909152812054819060ff166112445760405162461bcd60e51b815260206004820181905260248201527f43616c6c696e6720636f6e74722e206e6f7420616e20617574686f72697a65646044820152606401610bb1565b6001600160a01b038088166000908152600a60209081526040808320938916835260028401909152902054156112d5576001600160a01b038616600090815260028201602052604090205461129a908590613899565b92506112a78187856138b1565b6001600160a01b0386166000908152600c6020526040812080548592906112cf908490615b4f565b90915550505b6001600160a01b038716600090815260058201602052604090205485908082111561130a579050806113078188615b4f565b93505b8387111561134a5761131c8488615b4f565b6001600160a01b038a166000908152600d602052604081208054909190611344908490615b4f565b90915550505b8486111561138a5761135c8587615b4f565b6001600160a01b0389166000908152600d602052604081208054909190611384908490615ada565b90915550505b6001600160a01b0388166000908152600d6020908152604080832054600b9092529091205410156113fd5760405162461bcd60e51b815260206004820152601860248201527f4578636565647320676c6f62616c20746f6b656e2063617000000000000000006044820152606401610bb1565b611413838a8a8561140e8a8c615b4f565b613b82565b83156114c4576001600160a01b0389166000908152600c602052604081208054869290611441908490615ada565b90915550506001600160a01b0389166000908152600c6020908152604080832054600b9092529091205410156114b95760405162461bcd60e51b815260206004820152601860248201527f4578636565647320676c6f62616c20746f6b656e2063617000000000000000006044820152606401610bb1565b6114c4838a86613bd5565b5050509550959350505050565b6001600160a01b0381166000908152600a602090815260409182902060048101805484518185028101850190955280855260609485949092919083018282801561154457602002820191906000526020600020905b81546001600160a01b03168152600190910190602001808311611526575b5050506004840154929550505067ffffffffffffffff81111561157757634e487b7160e01b600052604160045260246000fd5b6040519080825280602002602001820160405280156115a0578160200160208202803683370190505b50915060005b80845111156116415760008482815181106115d157634e487b7160e01b600052603260045260246000fd5b60200260200101519050826005016000826001600160a01b03166001600160a01b031681526020019081526020016000205484838151811061162357634e487b7160e01b600052603260045260246000fd5b6020908102919091010152508061163981615b66565b9150506115a6565b5050915091565b6040517f93552a3d000000000000000000000000000000000000000000000000000000008152600481018390526001600160a01b0382811660248301527f000000000000000000000000000000000000000000000000000000000000000016906393552a3d9060440160206040518083038186803b1580156116c957600080fd5b505afa1580156116dd573d6000803e3d6000fd5b505050506040513d601f19601f82011682018060405250810190611701919061581b565b6001600160a01b039190911660009081526001602090815260408083209483529390529190912080547fffffffffffffffffffffffffffffffffffffffffffffffffffffffffffffff0016911515919091179055565b6001600160a01b0381166000908152600a6020526040812081611784600183016002840160038501613241565b905060006117988360040184600501613e8f565b90506117a5816064615b12565b826009546117b39190615b12565b101595945050505050565b3360009081526001602090815260408083206004845290915290205460ff166118295760405162461bcd60e51b815260206004820152601d60248201527f43616c6c696e6720636f6e74722e206e6f7420617574686f72697a65640000006044820152606401610bb1565b6001600160a01b0383166000908152600a6020526040902061184c818484613f1a565b61185781848461301a565b50505050565b3360009081526001602090815260408083206004845290915281205460ff166118c85760405162461bcd60e51b815260206004820152601d60248201527f43616c6c696e6720636f6e74722e206e6f7420617574686f72697a65640000006044820152606401610bb1565b6001600160a01b038085166000908152600a602090815260408083204381559387168352600284019091529020541561195c576001600160a01b0384166000908152600282016020526040902054611921908490613899565b915061192e8185846138b1565b6001600160a01b0384166000908152600c602052604081208054849290611956908490615b4f565b90915550505b60006119688385615b4f565b9050611975828683612f6f565b50509392505050565b33611987612e66565b6001600160a01b031614806119ab5750336119a0612efe565b6001600160a01b0316145b6119f75760405162461bcd60e51b815260206004820152601e60248201527f526f6c65733a2063616c6c6572206973206e6f7420746865206f776e657200006044820152606401610bb1565b600655565b60007f00000000000000000000000000000000000000000000000000000000000000006001600160a01b0316846001600160a01b03161415611a3f575081611b3f565b6001600160a01b03841660009081526002602052604081208054909190611a669042615b4f565b9050600454811180611a7a57506001820154155b80611a8e5750838015611a8e575060055481115b15611b10576000611aff83600201805480602002602001604051908101604052809291908181526020018280548015611af057602002820191906000526020600020905b81546001600160a01b03168152600190910190602001808311611ad2575b5050505050846003015461356b565b9050611b0e8382600654613ff6565b505b6e010000000000000000000000000000826001015486611b309190615b12565b611b3a9190615af2565b925050505b9392505050565b6001600160a01b0381166000908152600a60205260408120610df86004820160058301613e8f565b33611b77612e66565b6001600160a01b03161480611b9b575033611b90612efe565b6001600160a01b0316145b611be75760405162461bcd60e51b815260206004820152601e60248201527f526f6c65733a2063616c6c6572206973206e6f7420746865206f776e657200006044820152606401610bb1565b61ffff909116600455600555565b33611bfe612e66565b6001600160a01b03161480611c22575033611c17612efe565b6001600160a01b0316145b611c6e5760405162461bcd60e51b815260206004820152601e60248201527f526f6c65733a2063616c6c6572206973206e6f7420746865206f776e657200006044820152606401610bb1565b601655565b6000333214611cea5760405162461bcd60e51b815260206004820152603a60248201527f43757272656e746c79206e6f20696e7465726d656469617269657320616c6c6f60448201527f77656420666f7220746869732066756e6374696f6e2063616c6c0000000000006064820152608401610bb1565b6000611d27606b60009081526020527f2dc7a963308417ad45132da282495eb244f38a7db03940a4d808be607669c622546001600160a01b031690565b6040517f7b23cbce0000000000000000000000000000000000000000000000000000000081523360048201526001600160a01b039190911690637b23cbce90602401602060405180830381600087803b158015611d8357600080fd5b505af1158015611d97573d6000803e3d6000fd5b505050506040513d601f19601f82011682018060405250810190611dbb919061581b565b905060008180611dce5750611dce61403e565b9050611dda848361411e565b92506000611de661469e565b90506000611df2614780565b9050600060646017546064611e079190615ada565b611e119084615b12565b611e1b9190615af2565b905082811115611e62577f3555ffae7677eb42103f0b9e11b61c758f452fae446684dec7a363dd38ab58fc611e508483615b4f565b60405190815260200160405180910390a15b600084611f1357606b60009081526020527f2dc7a963308417ad45132da282495eb244f38a7db03940a4d808be607669c622546001600160a01b03166001600160a01b0316631a38de1d6040518163ffffffff1660e01b8152600401602060405180830381600087803b158015611ed857600080fd5b505af1158015611eec573d6000803e3d6000fd5b505050506040513d601f19601f82011682018060405250810190611f10919061556c565b90505b60005b60125481101561217657600060128281548110611f4357634e487b7160e01b600052603260045260246000fd5b60009182526020808320909101546001600160a01b0316808352600a9091526040822090925090611f738261485b565b90506000611f808361486d565b90506000606460175483611f949190615b12565b611f9e9190615af2565b9050611faa818e615ada565b9c508a612017576001600160a01b03858116600090815260146020526040902060028101839055600381018054337fffffffffffffffffffffffff000000000000000000000000000000000000000091821617909155438255600190910180549091169189169190911790555b6120218282615ada565b83111561211957606560009081526020527f4a7203f705e51df4a56139a9b86b4a0970bed7ab7a3446eaffe2289989c1645c546001600160a01b031663d9caed127f0000000000000000000000000000000000000000000000000000000000000000878461208f8789615b4f565b6120999190615b4f565b6040517fffffffff0000000000000000000000000000000000000000000000000000000060e086901b1681526001600160a01b0393841660048201529290911660248301526044820152606401600060405180830381600087803b15801561210057600080fd5b505af1158015612114573d6000803e3d6000fd5b505050505b6040516001600160a01b03861681527f1d2cc4c8661a04a00b4e727426220501b36d85bb330947642c2d4320667028cf9060200160405180910390a161215e84614883565b5050505050808061216e90615b66565b915050611f16565b5060648760155460636121899190615b12565b6121939190615ada565b61219d9190615af2565b601555841561227f57606560009081526020527f4a7203f705e51df4a56139a9b86b4a0970bed7ab7a3446eaffe2289989c1645c546001600160a01b03166040517fd9caed120000000000000000000000000000000000000000000000000000000081526001600160a01b037f000000000000000000000000000000000000000000000000000000000000000081166004830152336024830152604482018a9052919091169063d9caed1290606401600060405180830381600087803b15801561226657600080fd5b505af115801561227a573d6000803e3d6000fd5b505050505b60006122bc606b60009081526020527f2dc7a963308417ad45132da282495eb244f38a7db03940a4d808be607669c622546001600160a01b031690565b6001600160a01b0316631a38de1d6040518163ffffffff1660e01b8152600401602060405180830381600087803b1580156122f657600080fd5b505af115801561230a573d6000803e3d6000fd5b505050506040513d601f19601f8201168201806040525081019061232e919061556c565b905086156123a8576001600160a01b038116600090815260136020526040902054881015612389576001600160a01b038116600090815260136020526040812080548a929061237e908490615b4f565b909155506123a39050565b6001600160a01b0381166000908152601360205260408120555b6123d6565b6001600160a01b038116600090815260136020526040812080548a92906123d0908490615ada565b90915550505b50505050505050919050565b600781815481106123f257600080fd5b600091825260209091206003909102018054600182015460029092015490925083565b3361241e612e66565b6001600160a01b03161480612442575033612437612efe565b6001600160a01b0316145b61248e5760405162461bcd60e51b815260206004820152601e60248201527f526f6c65733a2063616c6c6572206973206e6f7420746865206f776e657200006044820152606401610bb1565b601755565b3361249c612e66565b6001600160a01b031614806124c05750336124b5612efe565b6001600160a01b0316145b61250c5760405162461bcd60e51b815260206004820152601e60248201527f526f6c65733a2063616c6c6572206973206e6f7420746865206f776e657200006044820152606401610bb1565b600855565b3360009081526001602090815260408083206004845290915290205460ff1661257c5760405162461bcd60e51b815260206004820152601c60248201527f43616c6c696e6720636f6e7472206e6f7420617574686f72697a6564000000006044820152606401610bb1565b6001600160a01b0383166000908152600a60205260409020611857818484613121565b6001600160a01b0381166000908152600a602090815260409182902060018101805484518185028101850190955280855260609485949092919083018282801561261257602002820191906000526020600020905b81546001600160a01b031681526001909101906020018083116125f4575b5050506001840154929550505067ffffffffffffffff81111561264557634e487b7160e01b600052604160045260246000fd5b60405190808252806020026020018201604052801561266e578160200160208202803683370190505b50915060005b808451111561164157600084828151811061269f57634e487b7160e01b600052603260045260246000fd5b602002602001015190506126e4606660009081526020527f422cccb7cea5c0e46f340bb7b21b81debac329f72e31669c20ff0f3a05cc2b5b546001600160a01b031690565b6001600160a01b03828116600081815260028701602090815260408083205460038a01909252918290205491517f76668b670000000000000000000000000000000000000000000000000000000081526004810191909152602481019290925260448201529116906376668b679060640160206040518083038186803b15801561276d57600080fd5b505afa158015612781573d6000803e3d6000fd5b505050506040513d601f19601f820116820180604052508101906127a591906158fa565b8483815181106127c557634e487b7160e01b600052603260045260246000fd5b602090810291909101015250806127db81615b66565b915050612674565b3360009081526001602090815260408083206004845290915290205460ff1661284e5760405162461bcd60e51b815260206004820152601d60248201527f43616c6c696e6720636f6e74722e206e6f7420617574686f72697a65640000006044820152606401610bb1565b6001600160a01b0381166000908152600a6020526040902061286f8161486d565b156128bc5760405162461bcd60e51b815260206004820152601a60248201527f43616e2774206c69717569646174653a20626f72726f77696e670000000000006044820152606401610bb1565b610aa981614883565b336128ce612e66565b6001600160a01b031614806128f25750336128e7612efe565b6001600160a01b0316145b806129405750336129356103e960009081526020527f236f539bf6e1b3b15a335e3cd157d360bc4be88c071635c19ba8a82b4f665e9f546001600160a01b031690565b6001600160a01b0316145b6129b25760405162461bcd60e51b815260206004820152603860248201527f43616c6c6572206973206e6f7420746865206f776e65722c206578656375746f60448201527f72206f7220617574686f72697a65642064697361626c657200000000000000006064820152608401610bb1565b6000600782815481106129d557634e487b7160e01b600052603260045260246000fd5b90600052602060002090600302019050600081600101541115610aa957600181015460065580546004556002015460055550565b33612a12612e66565b6001600160a01b03161480612a36575033612a2b612efe565b6001600160a01b0316145b612a825760405162461bcd60e51b815260206004820152601e60248201527f526f6c65733a2063616c6c6572206973206e6f7420746865206f776e657200006044820152606401610bb1565b604080516060810182529384526020840192835283019081526007805460018101825560009190915292517fa66cc928b5edb82af9bd49922954155ab7b0942694bea4ce44661d9a8736c68860039094029384015590517fa66cc928b5edb82af9bd49922954155ab7b0942694bea4ce44661d9a8736c689830155517fa66cc928b5edb82af9bd49922954155ab7b0942694bea4ce44661d9a8736c68a90910155565b33612b2e612e66565b6001600160a01b03161480612b52575033612b47612efe565b6001600160a01b0316145b612b9e5760405162461bcd60e51b815260206004820152601e60248201527f526f6c65733a2063616c6c6572206973206e6f7420746865206f776e657200006044820152606401610bb1565b600e55565b600281015460009015610dfc578154600090612bcb90612bc39043615b4f565b601654613899565b90506000601654828560020154612be29190615b12565b612bec9190615af2565b9050612c29606560009081526020527f4a7203f705e51df4a56139a9b86b4a0970bed7ab7a3446eaffe2289989c1645c546001600160a01b031690565b60038501546040517fd9caed120000000000000000000000000000000000000000000000000000000081526001600160a01b037f00000000000000000000000000000000000000000000000000000000000000008116600483015291821660248201526044810184905291169063d9caed1290606401600060405180830381600087803b158015612cb957600080fd5b505af1158015612ccd573d6000803e3d6000fd5b505050506000612d0e606b60009081526020527f2dc7a963308417ad45132da282495eb244f38a7db03940a4d808be607669c622546001600160a01b031690565b9050600060155483836001600160a01b0316630ad691506040518163ffffffff1660e01b815260040160206040518083038186803b158015612d4f57600080fd5b505afa158015612d63573d6000803e3d6000fd5b505050506040513d601f19601f82011682018060405250810190612d8791906158fa565b612d919190615b12565b612d9b9190615af2565b600187015460038801546040517f0a45bc1b0000000000000000000000000000000000000000000000000000000081526001600160a01b039283166004820152602481018490529082166044820152919250831690630a45bc1b90606401602060405180830381600087803b158015612e1357600080fd5b505af1158015612e27573d6000803e3d6000fd5b505050506040513d601f19601f82011682018060405250810190612e4b91906158fa565b50828660020154612e5c9190615b4f565b9695505050505050565b60007f00000000000000000000000000000000000000000000000000000000000000006001600160a01b0316638da5cb5b6040518163ffffffff1660e01b815260040160206040518083038186803b158015612ec157600080fd5b505afa158015612ed5573d6000803e3d6000fd5b505050506040513d601f19601f82011682018060405250810190612ef9919061556c565b905090565b60007f00000000000000000000000000000000000000000000000000000000000000006001600160a01b031663c34c08e56040518163ffffffff1660e01b8152600401602060405180830381600087803b158015612f5b57600080fd5b505af1158015612ed5573d6000803e3d6000fd5b612f7a838383613f1a565b6001600160a01b0382166000908152600d602052604081208054839290612fa2908490615ada565b90915550506001600160a01b0382166000908152600d6020908152604080832054600b9092529091205410156111d25760405162461bcd60e51b815260206004820152601860248201527f4578636565647320676c6f62616c20746f6b656e2063617000000000000000006044820152606401610bb1565b6001600160a01b0382166000908152600c602052604081208054839290613042908490615ada565b90915550506001600160a01b0382166000908152600d60205260408120805483929061306f908490615ada565b90915550506001600160a01b0382166000908152600c6020908152604080832054600b90925290912054108015906130ca57506001600160a01b0382166000908152600d6020908152604080832054600b9092529091205410155b6131165760405162461bcd60e51b815260206004820152601860248201527f4578636565647320676c6f62616c20746f6b656e2063617000000000000000006044820152606401610bb1565b6111d2838383613bd5565b600e5483546131309190615ada565b431161317e5760405162461bcd60e51b815260206004820181905260248201527f4e6f207769746864726177616c20736f6f6e206166746572206465706f7369746044820152606401610bb1565b6001600160a01b0382166000908152600d6020526040812080548392906131a6908490615b4f565b90915550506001600160a01b03821660009081526005840160205260409020546131d1908290615b4f565b6001600160a01b03831660009081526005850160205260409020556131f583614a31565b6111d25760405162461bcd60e51b815260206004820152601460248201527f496e73756666696369656e742062616c616e63650000000000000000000000006044820152606401610bb1565b8254600090815b8181101561197557600086828154811061327257634e487b7160e01b600052603260045260246000fd5b60009182526020808320909101546001600160a01b0316808352908890526040909120549091506132a590829087614a7d565b6132af9085615ada565b93505080806132bd90615b66565b915050613248565b60007fff000000000000000000000000000000000000000000000000000000000000008216156132fe576132f98484614b8c565b613308565b6133088484614cb3565b9050600080826001600160a01b0316630902f1ac6040518163ffffffff1660e01b815260040160606040518083038186803b15801561334657600080fd5b505afa15801561335a573d6000803e3d6000fd5b505050506040513d601f19601f8201168201806040525081019061337e919061587c565b506001600160a01b038086166000908152600360209081526040808320938c1683529290529081209294509092506133b68888614d9f565b509050806001600160a01b0316886001600160a01b0316141561349957836dffffffffffffffffffffffffffff16836dffffffffffffffffffffffffffff166e01000000000000000000000000000061340f9190615b12565b6134199190615af2565b8260020181905550846001600160a01b0316635909c0d56040518163ffffffff1660e01b815260040160206040518083038186803b15801561345a57600080fd5b505afa15801561346e573d6000803e3d6000fd5b505050506040513d601f19601f8201168201806040525081019061349291906158fa565b825561355b565b826dffffffffffffffffffffffffffff16846dffffffffffffffffffffffffffff166e0100000000000000000000000000006134d59190615b12565b6134df9190615af2565b8260020181905550846001600160a01b0316635a3d54936040518163ffffffff1660e01b815260040160206040518083038186803b15801561352057600080fd5b505afa158015613534573d6000803e3d6000fd5b505050506040513d601f19601f8201168201806040525081019061355891906158fa565b82555b5042600190910155505050505050565b6e01000000000000000000000000000060005b6001845161358c9190615b4f565b8110156138925760008482815181106135b557634e487b7160e01b600052603260045260246000fd5b602002602001015190506000858360016135cf9190615ada565b815181106135ed57634e487b7160e01b600052603260045260246000fd5b60200260200101519050600085846020811061361957634e487b7160e01b600052603260045260246000fd5b1a60f81b7fff0000000000000000000000000000000000000000000000000000000000000016156136535761364e8383614b8c565b61365d565b61365d8383614cb3565b6001600160a01b03808216600090815260036020908152604080832093881683529290529081206001810154929350916136979042615b4f565b905060055481111561384d5760006136af8686614d9f565b5090506000816001600160a01b0316876001600160a01b03161461374357846001600160a01b0316635a3d54936040518163ffffffff1660e01b815260040160206040518083038186803b15801561370657600080fd5b505afa15801561371a573d6000803e3d6000fd5b505050506040513d601f19601f8201168201806040525081019061373e91906158fa565b6137b4565b846001600160a01b0316635909c0d56040518163ffffffff1660e01b815260040160206040518083038186803b15801561377c57600080fd5b505afa158015613790573d6000803e3d6000fd5b505050506040513d601f19601f820116820180604052508101906137b491906158fa565b84549091508114156137f1576e01000000000000000000000000000084600201548a6137e09190615b12565b6137ea9190615af2565b9850613840565b835460009084906138029084615b4f565b61380c9190615af2565b6002860181905590506e01000000000000000000000000000061382f828c615b12565b6138399190615af2565b8286559950505b505042600183015561387a565b6e01000000000000000000000000000082600201548861386d9190615b12565b6138779190615af2565b96505b5050505050808061388a90615b66565b91505061357e565b5092915050565b6000818311156138aa575080610b36565b5081610b36565b6000806138ef606660009081526020527f422cccb7cea5c0e46f340bb7b21b81debac329f72e31669c20ff0f3a05cc2b5b546001600160a01b031690565b6001600160a01b03858116600081815260028901602090815260408083205460038c01909252918290205491517fe695fa6800000000000000000000000000000000000000000000000000000000815260048101919091526024810192909252604482015291169063e695fa68906064016040805180830381600087803b15801561397957600080fd5b505af115801561398d573d6000803e3d6000fd5b505050506040513d601f19601f820116820180604052508101906139b19190615936565b909250905060006139c28484615b4f565b6001600160a01b0386166000908152600288016020526040902081905590508015613a09576001600160a01b03851660009081526003870160205260409020829055613b7a565b6001600160a01b038516600090815260038701602052604081208190556001870154815b80821115613afd576000896001018281548110613a5a57634e487b7160e01b600052603260045260246000fd5b6000918252602090912001546001600160a01b0390811691508916811415613a855760019350613aea565b8315613aea57808a600101600184613a9d9190615b4f565b81548110613abb57634e487b7160e01b600052603260045260246000fd5b9060005260206000200160006101000a8154816001600160a01b0302191690836001600160a01b031602179055505b5080613af581615b66565b915050613a2d565b5087600101805480613b1f57634e487b7160e01b600052603160045260246000fd5b60008281526020902081017fffffffffffffffffffffffffffffffffffffffffffffffffffffffffffffffff90810180547fffffffffffffffffffffffff000000000000000000000000000000000000000016905501905550505b505050505050565b6001600160a01b0384166000908152600586016020526040902054613ba8908390615b4f565b6001600160a01b0385166000908152600587016020526040902055613bce858483613f1a565b5050505050565b6001600160a01b0382166000908152600384016020526040902054613d3c576001838101805491820181556000908152602090200180547fffffffffffffffffffffffff0000000000000000000000000000000000000000166001600160a01b038416179055613c76606660009081526020527f422cccb7cea5c0e46f340bb7b21b81debac329f72e31669c20ff0f3a05cc2b5b546001600160a01b031690565b6040517f46c87f800000000000000000000000000000000000000000000000000000000081526001600160a01b03848116600483015291909116906346c87f8090602401602060405180830381600087803b158015613cd457600080fd5b505af1158015613ce8573d6000803e3d6000fd5b505050506040513d601f19601f82011682018060405250810190613d0c91906158fa565b6001600160a01b038316600090815260038501602090815260408083209390935560028601905220819055613e86565b600080613d7a606660009081526020527f422cccb7cea5c0e46f340bb7b21b81debac329f72e31669c20ff0f3a05cc2b5b546001600160a01b031690565b6001600160a01b03858116600081815260028901602090815260408083205460038c01909252918290205491517fe695fa6800000000000000000000000000000000000000000000000000000000815260048101919091526024810192909252604482015291169063e695fa68906064016040805180830381600087803b158015613e0457600080fd5b505af1158015613e18573d6000803e3d6000fd5b505050506040513d601f19601f82011682018060405250810190613e3c9190615936565b6001600160a01b038616600090815260038801602052604090208190559092509050613e688383615ada565b6001600160a01b038516600090815260028701602052604090205550505b6131f583614a31565b8154600090815b81811015613f12576000858281548110613ec057634e487b7160e01b600052603260045260246000fd5b60009182526020808320909101546001600160a01b031680835290879052604090912054909150613ef2908290610aad565b613efc9085615ada565b9350508080613f0a90615b66565b915050613e96565b505092915050565b6001600160a01b038216600090815260068401602052604090205460ff16613fc257600483018054600180820183556000928352602080842090920180547fffffffffffffffffffffffff0000000000000000000000000000000000000000166001600160a01b038716908117909155835260068601909152604090912080547fffffffffffffffffffffffffffffffffffffffffffffffffffffffffffffff001690911790555b6001600160a01b038216600090815260058401602052604081208054839290613fec908490615ada565b9091555050505050565b6103e86140038284615b12565b61400f836103e8615b4f565b856001015461401e9190615b12565b6140289190615ada565b6140329190615af2565b60018401555050429055565b60008061407c606b60009081526020527f2dc7a963308417ad45132da282495eb244f38a7db03940a4d808be607669c622546001600160a01b031690565b6001600160a01b031663b0411f466040518163ffffffff1660e01b8152600401604080518083038186803b1580156140b357600080fd5b505afa1580156140c7573d6000803e3d6000fd5b505050506040513d601f19601f820116820180604052508101906140eb91906156df565b5090506015546018546140fe9190615b12565b6001600160a01b0390911660009081526013602052604090205411905090565b604080516000808252602082019283905290519091614140916010919061540b565b50604080516000815260208101918290525161415e9160119161540b565b50604080516000815260208101918290525161417c9160129161540b565b5060005b80845111156138925760008482815181106141ab57634e487b7160e01b600052603260045260246000fd5b602002602001015190506000600a6000836001600160a01b03166001600160a01b0316815260200190815260200160002090506141e781614e89565b15614654576012805460018101825560009182527fbb8a6a4669ba250d26cd7a459eca9d215f8307e33aebe50379bc5a3617ec34440180547fffffffffffffffffffffffff0000000000000000000000000000000000000000166001600160a01b0385161790556004820154905b8082111561438957600083600401828154811061428257634e487b7160e01b600052603260045260246000fd5b60009182526020808320909101546001600160a01b0316808352600f9091526040909120600281015491925090431461433e576001600160a01b03821660008181526005870160205260408120546001808501919091558184554360028501556010805491820181559091527f1b6847dc741a1b0cd08d278845f9d819d87b734759afb55fe2de5cb82a9ae6720180547fffffffffffffffffffffffff0000000000000000000000000000000000000000169091179055614374565b6001600160a01b03821660009081526005860160205260408120546001830180549192909161436e908490615ada565b90915550505b5050808061438190615b66565b915050614255565b5050600181015460005b808211156146515760008360010182815481106143c057634e487b7160e01b600052603260045260246000fd5b60009182526020808320909101546001600160a01b0316808352600f9091526040822090925090614422606660009081526020527f422cccb7cea5c0e46f340bb7b21b81debac329f72e31669c20ff0f3a05cc2b5b546001600160a01b031690565b6001600160a01b03848116600081815260028a01602090815260408083205460038d01909252918290205491517fe695fa6800000000000000000000000000000000000000000000000000000000815260048101919091526024810192909252604482015291169063e695fa68906064016040805180830381600087803b1580156144ac57600080fd5b505af11580156144c0573d6000803e3d6000fd5b505050506040513d601f19601f820116820180604052508101906144e49190615936565b509050614522606660009081526020527f422cccb7cea5c0e46f340bb7b21b81debac329f72e31669c20ff0f3a05cc2b5b546001600160a01b031690565b6040517f2a6a897b0000000000000000000000000000000000000000000000000000000081526001600160a01b038581166004830152602482018490529190911690632a6a897b90604401600060405180830381600087803b15801561458757600080fd5b505af115801561459b573d6000803e3d6000fd5b505050504382600201541461462157600060018381018290558284554360028501556011805491820181559091527f31ecc21a745e3968a04e9570e4425bc18fa8019c68028196b546d1669c200c680180547fffffffffffffffffffffffff0000000000000000000000000000000000000000166001600160a01b03851617905561463b565b808260000160008282546146359190615ada565b90915550505b505050808061464990615b66565b915050614393565b50505b6001600160a01b038216600090815260146020526040902085156146885761467b81612ba3565b6146859086615ada565b94505b505050808061469690615b66565b915050614180565b601054600090815b8082111561476f576000601082815481106146d157634e487b7160e01b600052603260045260246000fd5b60009182526020808320909101546001600160a01b0316808352600f9091526040909120805460018201549293509091111561475a578054600182015460009161471a91615b4f565b90506147268382614ec6565b6147309087615ada565b6001600160a01b0384166000908152600f6020526040812081815560018101829055600201559550505b5050808061476790615b66565b9150506146a6565b5061477c60106000615484565b5090565b601154600090815b8082111561484e576000601182815481106147b357634e487b7160e01b600052603260045260246000fd5b60009182526020808320909101546001600160a01b0316808352600f909152604090912060018101548154929350909111156148395761480682826001015483600001546148019190615b4f565b615050565b6148109086615ada565b6001600160a01b0383166000908152600f60205260408120818155600181018290556002015594505b5050808061484690615b66565b915050614788565b5061477c60116000615484565b6000610b3682600401836005016151e7565b6000610b3682600101836002018460030161526a565b600181015460005b808211156149385760008360010182815481106148b857634e487b7160e01b600052603260045260246000fd5b60009182526020808320909101546001600160a01b0316808352600287018252604080842054600c909352832080549194509192906148f8908490615b4f565b90915550506001600160a01b031660009081526002840160209081526040808320839055600386019091528120558061493081615b66565b91505061488b565b5050600481015460005b80821115614a1457600083600401828154811061496f57634e487b7160e01b600052603260045260246000fd5b60009182526020808320909101546001600160a01b0316808352600587018252604080842054600d909352832080549194509192906149af908490615b4f565b90915550506001600160a01b03166000908152600584016020908152604080832083905560068601909152902080547fffffffffffffffffffffffffffffffffffffffffffffffffffffffffffffff0016905580614a0c81615b66565b915050614942565b50614a23600183016000615484565b610aa9600483016000615484565b600080614a3d8361486d565b90506000614a4a8461485b565b905060085482614a5a9190615b12565b6064600854614a699190615b4f565b614a739083615b12565b1015949350505050565b600080614abb606660009081526020527f422cccb7cea5c0e46f340bb7b21b81debac329f72e31669c20ff0f3a05cc2b5b546001600160a01b031690565b6040517f14189db20000000000000000000000000000000000000000000000000000000081526001600160a01b03878116600483015291909116906314189db29060240160206040518083038186803b158015614b1757600080fd5b505afa158015614b2b573d6000803e3d6000fd5b505050506040513d601f19601f82011682018060405250810190614b4f91906158fa565b6001600160a01b03861660009081526020859052604081205491925090614b768387615b12565b614b809190615af2565b9050611b3a8682610aad565b6000806000614b9b8585614d9f565b60408051606084811b7fffffffffffffffffffffffffffffffffffffffff0000000000000000000000009081166020808501919091529185901b166034830152825160288184030181526048830190935282519201919091207fff0000000000000000000000000000000000000000000000000000000000000060688301527fc0aee478e3658e2610c5f7a4a2e1777ce9e4f2ac0000000000000000000000006069830152607d8201527fe18a34eb0e04b04f7a0ac29a6e80748dca96319b42c54d679cb821dca90c6303609d820152919350915060bd015b604080517fffffffffffffffffffffffffffffffffffffffffffffffffffffffffffffffe0818403018152919052805160209091012095945050505050565b6000806000614cc28585614d9f565b60408051606084811b7fffffffffffffffffffffffffffffffffffffffff0000000000000000000000009081166020808501919091529185901b166034830152825160288184030181526048830190935282519201919091207fff0000000000000000000000000000000000000000000000000000000000000060688301527f5c69bee701ef814a2b6a3edd4b1652cb9cc5aa6f0000000000000000000000006069830152607d8201527f96e8ac4277198ff8b6f785478aa9a39f403cb768dd02cbee326c3e7da348845f609d820152919350915060bd01614c74565b600080826001600160a01b0316846001600160a01b03161415614e045760405162461bcd60e51b815260206004820152601260248201527f4964656e746963616c20616464726573732100000000000000000000000000006044820152606401610bb1565b826001600160a01b0316846001600160a01b031610614e24578284614e27565b83835b90925090506001600160a01b038216614e825760405162461bcd60e51b815260206004820152600d60248201527f5a65726f206164647265737321000000000000000000000000000000000000006044820152606401610bb1565b9250929050565b600080614e958361486d565b90506000614ea28461485b565b905081600954614eb29190615b12565b614ebd826064615b12565b10949350505050565b60007f00000000000000000000000000000000000000000000000000000000000000006001600160a01b0316836001600160a01b03161415614f09575080610b36565b6001600160a01b038316600090815260026020526040812090614f5d606760009081526020527f682158d08466d11c566d5712d4396197fdd67e65be71d83c97ef719ec468867b546001600160a01b031690565b6001600160a01b031663351ae6108560008560030154866002016040518563ffffffff1660e01b8152600401614f969493929190615a42565b600060405180830381600087803b158015614fb057600080fd5b505af1158015614fc4573d6000803e3d6000fd5b505050506040513d6000823e601f3d9081017fffffffffffffffffffffffffffffffffffffffffffffffffffffffffffffffe016820160405261500a9190810190615788565b90506000816001835161501d9190615b4f565b8151811061503b57634e487b7160e01b600052603260045260246000fd5b60200260200101519050809350505050610b36565b60007f00000000000000000000000000000000000000000000000000000000000000006001600160a01b0316836001600160a01b03161415615093575080610b36565b6001600160a01b0383166000908152600260205260408120906150e7606760009081526020527f682158d08466d11c566d5712d4396197fdd67e65be71d83c97ef719ec468867b546001600160a01b031690565b6001600160a01b03166353d7ff9f857fffffffffffffffffffffffffffffffffffffffffffffffffffffffffffffffff8560030154866004016040518563ffffffff1660e01b815260040161513f9493929190615a42565b600060405180830381600087803b15801561515957600080fd5b505af115801561516d573d6000803e3d6000fd5b505050506040513d6000823e601f3d9081017fffffffffffffffffffffffffffffffffffffffffffffffffffffffffffffffe01682016040526151b39190810190615788565b9050806000815181106151d657634e487b7160e01b600052603260045260246000fd5b602002602001015192505050610b36565b8154600090815b81811015613f1257600085828154811061521857634e487b7160e01b600052603260045260246000fd5b60009182526020808320909101546001600160a01b03168083529087905260409091205490915061524a9082906152ee565b6152549085615ada565b935050808061526290615b66565b9150506151ee565b8254600090815b8181101561197557600086828154811061529b57634e487b7160e01b600052603260045260246000fd5b60009182526020808320909101546001600160a01b0316808352908890526040909120549091506152ce908290876152fc565b6152d89085615ada565b93505080806152e690615b66565b915050615271565b6000611b3f838360006119fc565b60008061533a606660009081526020527f422cccb7cea5c0e46f340bb7b21b81debac329f72e31669c20ff0f3a05cc2b5b546001600160a01b031690565b6040517f14189db20000000000000000000000000000000000000000000000000000000081526001600160a01b03878116600483015291909116906314189db29060240160206040518083038186803b15801561539657600080fd5b505afa1580156153aa573d6000803e3d6000fd5b505050506040513d601f19601f820116820180604052508101906153ce91906158fa565b6001600160a01b038616600090815260208590526040812054919250906153f58387615b12565b6153ff9190615af2565b9050611b3a86826152ee565b828054828255906000526020600020908101928215615478579160200282015b8281111561547857825182547fffffffffffffffffffffffff0000000000000000000000000000000000000000166001600160a01b0390911617825560209092019160019091019061542b565b5061477c9291506154a5565b50805460008255906000526020600020908101906154a291906154a5565b50565b5b8082111561477c57600081556001016154a6565b600082601f8301126154ca578081fd5b813560206154df6154da83615ab6565b615a67565b80838252828201915082860187848660051b89010111156154fe578586fd5b855b8581101561552557813561551381615bcb565b84529284019290840190600101615500565b5090979650505050505050565b80516dffffffffffffffffffffffffffff81168114610dfc57600080fd5b600060208284031215615561578081fd5b8135611b3f81615bcb565b60006020828403121561557d578081fd5b8151611b3f81615bcb565b6000806040838503121561559a578081fd5b82356155a581615bcb565b915060208301356155b581615bcb565b809150509250929050565b600080600080600060a086880312156155d7578081fd5b85356155e281615bcb565b945060208601356155f281615bcb565b9350604086013561560281615bcb565b94979396509394606081013594506080013592915050565b60008060006060848603121561562e578283fd5b833561563981615bcb565b9250602084013561564981615bcb565b929592945050506040919091013590565b600080600080600060a08688031215615671578081fd5b853561567c81615bcb565b9450602086013561568c81615bcb565b93506040860135925060608601356156a381615bcb565b949793965091946080013592915050565b600080604083850312156156c6578182fd5b82356156d181615bcb565b946020939093013593505050565b600080604083850312156156f1578182fd5b82516156fc81615bcb565b6020939093015192949293505050565b600080600060608486031215615720578081fd5b833561572b81615bcb565b925060208401359150604084013561574281615be0565b809150509250925092565b60006020828403121561575e578081fd5b813567ffffffffffffffff811115615774578182fd5b615780848285016154ba565b949350505050565b6000602080838503121561579a578182fd5b825167ffffffffffffffff8111156157b0578283fd5b8301601f810185136157c0578283fd5b80516157ce6154da82615ab6565b80828252848201915084840188868560051b87010111156157ed578687fd5b8694505b8385101561580f5780518352600194909401939185019185016157f1565b50979650505050505050565b60006020828403121561582c578081fd5b8151611b3f81615be0565b60008060408385031215615849578182fd5b82359150602083013567ffffffffffffffff811115615866578182fd5b615872858286016154ba565b9150509250929050565b600080600060608486031215615890578081fd5b61589984615532565b92506158a760208501615532565b9150604084015163ffffffff81168114615742578182fd5b600080604083850312156158d1578182fd5b823561ffff811681146156d1578283fd5b6000602082840312156158f3578081fd5b5035919050565b60006020828403121561590b578081fd5b5051919050565b60008060408385031215615924578182fd5b8235915060208301356155b581615bcb565b60008060408385031215615948578182fd5b505080516020909101519092909150565b60008060006060848603121561596d578081fd5b505081359360208301359350604090920135919050565b6000815480845260208085019450838352808320835b838110156159bf5781546001600160a01b03168752958201956001918201910161599a565b509495945050505050565b604080825283519082018190526000906020906060840190828701845b82811015615a0e5781516001600160a01b03168452602084019350908401906001016159e7565b50505083810382850152845180825285830191830190845b8181101561552557835183529284019291840191600101615a26565b600085825284602083015283604083015260806060830152612e5c6080830184615984565b604051601f82017fffffffffffffffffffffffffffffffffffffffffffffffffffffffffffffffe016810167ffffffffffffffff81118282101715615aae57615aae615bb5565b604052919050565b600067ffffffffffffffff821115615ad057615ad0615bb5565b5060051b60200190565b60008219821115615aed57615aed615b9f565b500190565b600082615b0d57634e487b7160e01b81526012600452602481fd5b500490565b6000817fffffffffffffffffffffffffffffffffffffffffffffffffffffffffffffffff0483118215151615615b4a57615b4a615b9f565b500290565b600082821015615b6157615b61615b9f565b500390565b60007fffffffffffffffffffffffffffffffffffffffffffffffffffffffffffffffff821415615b9857615b98615b9f565b5060010190565b634e487b7160e01b600052601160045260246000fd5b634e487b7160e01b600052604160045260246000fd5b6001600160a01b03811681146154a257600080fd5b80151581146154a257600080fdfea2646970667358221220c63db540f04a5fe865862856a75725ee13b13b1e97ab3f16f0fe5296b4b2e88864736f6c63430008030033",
  "linkReferences": {},
  "deployedLinkReferences": {}
}