{
  "_format": "hh-sol-artifact-1",
  "contractName": "CrossMarginTrading",
  "sourceName": "contracts/CrossMarginTrading.sol",
  "abi": [
    {
      "inputs": [
        {
          "internalType": "address",
          "name": "_peg",
          "type": "address"
        },
        {
          "internalType": "address",
          "name": "_roles",
          "type": "address"
        }
      ],
      "stateMutability": "nonpayable",
      "type": "constructor"
    },
    {
      "anonymous": false,
      "inputs": [
        {
          "indexed": false,
          "internalType": "address",
          "name": "account",
          "type": "address"
        }
      ],
      "name": "AccountLiquidated",
      "type": "event"
    },
    {
      "anonymous": false,
      "inputs": [
        {
          "indexed": false,
          "internalType": "uint256",
          "name": "amount",
          "type": "uint256"
        }
      ],
      "name": "LiquidationShortfall",
      "type": "event"
    },
    {
      "inputs": [],
      "name": "MAINTAINER_CUT_PERCENT",
      "outputs": [
        {
          "internalType": "uint256",
          "name": "",
          "type": "uint256"
        }
      ],
      "stateMutability": "view",
      "type": "function"
    },
    {
      "inputs": [],
      "name": "UPDATE_MAX_PEG_AMOUNT",
      "outputs": [
        {
          "internalType": "uint256",
          "name": "",
          "type": "uint256"
        }
      ],
      "stateMutability": "view",
      "type": "function"
    },
    {
      "inputs": [],
      "name": "UPDATE_MIN_PEG_AMOUNT",
      "outputs": [
        {
          "internalType": "uint256",
          "name": "",
          "type": "uint256"
        }
      ],
      "stateMutability": "view",
      "type": "function"
    },
    {
      "inputs": [],
      "name": "UPDATE_RATE_PERMIL",
      "outputs": [
        {
          "internalType": "uint256",
          "name": "",
          "type": "uint256"
        }
      ],
      "stateMutability": "view",
      "type": "function"
    },
    {
      "inputs": [],
      "name": "avgLiquidationPerCall",
      "outputs": [
        {
          "internalType": "uint256",
          "name": "",
          "type": "uint256"
        }
      ],
      "stateMutability": "view",
      "type": "function"
    },
    {
      "inputs": [
        {
          "internalType": "address",
          "name": "trader",
          "type": "address"
        }
      ],
      "name": "canBeLiquidated",
      "outputs": [
        {
          "internalType": "bool",
          "name": "",
          "type": "bool"
        }
      ],
      "stateMutability": "view",
      "type": "function"
    },
    {
      "inputs": [],
      "name": "coolingOffPeriod",
      "outputs": [
        {
          "internalType": "uint256",
          "name": "",
          "type": "uint256"
        }
      ],
      "stateMutability": "view",
      "type": "function"
    },
    {
      "inputs": [
        {
          "internalType": "address[]",
          "name": "liquidatedAccounts",
          "type": "address[]"
        }
      ],
      "name": "disburseLiqStakeAttacks",
      "outputs": [],
      "stateMutability": "nonpayable",
      "type": "function"
    },
    {
      "inputs": [],
      "name": "failureThreshold",
      "outputs": [
        {
          "internalType": "uint256",
          "name": "",
          "type": "uint256"
        }
      ],
      "stateMutability": "view",
      "type": "function"
    },
    {
      "inputs": [
        {
          "internalType": "address",
          "name": "trader",
          "type": "address"
        }
      ],
      "name": "getBorrowAmounts",
      "outputs": [
        {
          "internalType": "address[]",
          "name": "borrowTokens",
          "type": "address[]"
        },
        {
          "internalType": "uint256[]",
          "name": "borrowAmounts",
          "type": "uint256[]"
        }
      ],
      "stateMutability": "view",
      "type": "function"
    },
    {
      "inputs": [
        {
          "internalType": "address",
          "name": "token",
          "type": "address"
        },
        {
          "internalType": "uint256",
          "name": "inAmount",
          "type": "uint256"
        },
        {
          "internalType": "bool",
          "name": "forceCurBlock",
          "type": "bool"
        }
      ],
      "name": "getCurrentPriceInPeg",
      "outputs": [
        {
          "internalType": "uint256",
          "name": "",
          "type": "uint256"
        }
      ],
      "stateMutability": "nonpayable",
      "type": "function"
    },
    {
      "inputs": [
        {
          "internalType": "address",
          "name": "trader",
          "type": "address"
        }
      ],
      "name": "getHoldingAmounts",
      "outputs": [
        {
          "internalType": "address[]",
          "name": "holdingTokens",
          "type": "address[]"
        },
        {
          "internalType": "uint256[]",
          "name": "holdingAmounts",
          "type": "uint256[]"
        }
      ],
      "stateMutability": "view",
      "type": "function"
    },
    {
      "inputs": [],
      "name": "leveragePercent",
      "outputs": [
        {
          "internalType": "uint256",
          "name": "",
          "type": "uint256"
        }
      ],
      "stateMutability": "view",
      "type": "function"
    },
    {
      "inputs": [],
      "name": "liqStakeAttackWindow",
      "outputs": [
        {
          "internalType": "uint256",
          "name": "",
          "type": "uint256"
        }
      ],
      "stateMutability": "view",
      "type": "function"
    },
    {
      "inputs": [
        {
          "internalType": "address[]",
          "name": "liquidationCandidates",
          "type": "address[]"
        }
      ],
      "name": "liquidate",
      "outputs": [
        {
          "internalType": "uint256",
          "name": "maintainerCut",
          "type": "uint256"
        }
      ],
      "stateMutability": "nonpayable",
      "type": "function"
    },
    {
      "inputs": [],
      "name": "liquidationThresholdPercent",
      "outputs": [
        {
          "internalType": "uint256",
          "name": "",
          "type": "uint256"
        }
      ],
      "stateMutability": "view",
      "type": "function"
    },
    {
      "inputs": [
        {
          "internalType": "uint256",
          "name": "",
          "type": "uint256"
        }
      ],
      "name": "mainCharacterCache",
      "outputs": [
        {
          "internalType": "address",
          "name": "",
          "type": "address"
        }
      ],
      "stateMutability": "view",
      "type": "function"
    },
    {
      "inputs": [
        {
          "internalType": "address",
          "name": "",
          "type": "address"
        }
      ],
      "name": "maintenanceFailures",
      "outputs": [
        {
          "internalType": "uint256",
          "name": "",
          "type": "uint256"
        }
      ],
      "stateMutability": "view",
      "type": "function"
    },
    {
      "inputs": [],
      "name": "peg",
      "outputs": [
        {
          "internalType": "address",
          "name": "",
          "type": "address"
        }
      ],
      "stateMutability": "view",
      "type": "function"
    },
    {
      "inputs": [],
      "name": "priceUpdateWindow",
      "outputs": [
        {
          "internalType": "uint16",
          "name": "",
          "type": "uint16"
        }
      ],
      "stateMutability": "view",
      "type": "function"
    },
    {
      "inputs": [
        {
          "internalType": "address",
          "name": "trader",
          "type": "address"
        },
        {
          "internalType": "address",
          "name": "borrowToken",
          "type": "address"
        },
        {
          "internalType": "uint256",
          "name": "borrowAmount",
          "type": "uint256"
        }
      ],
      "name": "registerBorrow",
      "outputs": [],
      "stateMutability": "nonpayable",
      "type": "function"
    },
    {
      "inputs": [
        {
          "internalType": "address",
          "name": "trader",
          "type": "address"
        },
        {
          "internalType": "address",
          "name": "token",
          "type": "address"
        },
        {
          "internalType": "uint256",
          "name": "depositAmount",
          "type": "uint256"
        }
      ],
      "name": "registerDeposit",
      "outputs": [
        {
          "internalType": "uint256",
          "name": "extinguishableDebt",
          "type": "uint256"
        }
      ],
      "stateMutability": "nonpayable",
      "type": "function"
    },
    {
      "inputs": [
        {
          "internalType": "address",
          "name": "trader",
          "type": "address"
        }
      ],
      "name": "registerLiquidation",
      "outputs": [],
      "stateMutability": "nonpayable",
      "type": "function"
    },
    {
      "inputs": [
        {
          "internalType": "address",
          "name": "trader",
          "type": "address"
        },
        {
          "internalType": "address",
          "name": "depositToken",
          "type": "address"
        },
        {
          "internalType": "uint256",
          "name": "depositAmount",
          "type": "uint256"
        },
        {
          "internalType": "address",
          "name": "borrowToken",
          "type": "address"
        },
        {
          "internalType": "uint256",
          "name": "withdrawAmount",
          "type": "uint256"
        }
      ],
      "name": "registerOvercollateralizedBorrow",
      "outputs": [],
      "stateMutability": "nonpayable",
      "type": "function"
    },
    {
      "inputs": [
        {
          "internalType": "address",
          "name": "trader",
          "type": "address"
        },
        {
          "internalType": "address",
          "name": "tokenFrom",
          "type": "address"
        },
        {
          "internalType": "address",
          "name": "tokenTo",
          "type": "address"
        },
        {
          "internalType": "uint256",
          "name": "inAmount",
          "type": "uint256"
        },
        {
          "internalType": "uint256",
          "name": "outAmount",
          "type": "uint256"
        }
      ],
      "name": "registerTradeAndBorrow",
      "outputs": [
        {
          "internalType": "uint256",
          "name": "extinguishableDebt",
          "type": "uint256"
        },
        {
          "internalType": "uint256",
          "name": "borrowAmount",
          "type": "uint256"
        }
      ],
      "stateMutability": "nonpayable",
      "type": "function"
    },
    {
      "inputs": [
        {
          "internalType": "address",
          "name": "trader",
          "type": "address"
        },
        {
          "internalType": "address",
          "name": "withdrawToken",
          "type": "address"
        },
        {
          "internalType": "uint256",
          "name": "withdrawAmount",
          "type": "uint256"
        }
      ],
      "name": "registerWithdrawal",
      "outputs": [],
      "stateMutability": "nonpayable",
      "type": "function"
    },
    {
      "inputs": [
        {
          "internalType": "address",
          "name": "",
          "type": "address"
        },
        {
          "internalType": "uint256",
          "name": "",
          "type": "uint256"
        }
      ],
      "name": "roleCache",
      "outputs": [
        {
          "internalType": "bool",
          "name": "",
          "type": "bool"
        }
      ],
      "stateMutability": "view",
      "type": "function"
    },
    {
      "inputs": [],
      "name": "roles",
      "outputs": [
        {
          "internalType": "contract Roles",
          "name": "",
          "type": "address"
        }
      ],
      "stateMutability": "view",
      "type": "function"
    },
    {
      "inputs": [
        {
          "internalType": "uint256",
          "name": "blocks",
          "type": "uint256"
        }
      ],
      "name": "setCoolingOffPeriod",
      "outputs": [],
      "stateMutability": "nonpayable",
      "type": "function"
    },
    {
      "inputs": [
        {
          "internalType": "uint256",
          "name": "threshFactor",
          "type": "uint256"
        }
      ],
      "name": "setFailureThreshold",
      "outputs": [],
      "stateMutability": "nonpayable",
      "type": "function"
    },
    {
      "inputs": [
        {
          "internalType": "uint256",
          "name": "_leveragePercent",
          "type": "uint256"
        }
      ],
      "name": "setLeverage",
      "outputs": [],
      "stateMutability": "nonpayable",
      "type": "function"
    },
    {
      "inputs": [
        {
          "internalType": "uint256",
          "name": "window",
          "type": "uint256"
        }
      ],
      "name": "setLiqStakeAttackWindow",
      "outputs": [],
      "stateMutability": "nonpayable",
      "type": "function"
    },
    {
      "inputs": [
        {
          "internalType": "bytes32",
          "name": "amms",
          "type": "bytes32"
        },
        {
          "internalType": "address[]",
          "name": "tokens",
          "type": "address[]"
        }
      ],
      "name": "setLiquidationPath",
      "outputs": [],
      "stateMutability": "nonpayable",
      "type": "function"
    },
    {
      "inputs": [
        {
          "internalType": "uint256",
          "name": "threshold",
          "type": "uint256"
        }
      ],
      "name": "setLiquidationThresholdPercent",
      "outputs": [],
      "stateMutability": "nonpayable",
      "type": "function"
    },
    {
      "inputs": [
        {
          "internalType": "uint256",
          "name": "cut",
          "type": "uint256"
        }
      ],
      "name": "setMaintainerCutPercent",
      "outputs": [],
      "stateMutability": "nonpayable",
      "type": "function"
    },
    {
      "inputs": [
        {
          "internalType": "uint16",
          "name": "window",
          "type": "uint16"
        }
      ],
      "name": "setPriceUpdateWindow",
      "outputs": [],
      "stateMutability": "nonpayable",
      "type": "function"
    },
    {
      "inputs": [
        {
          "internalType": "address",
          "name": "token",
          "type": "address"
        },
        {
          "internalType": "uint256",
          "name": "cap",
          "type": "uint256"
        }
      ],
      "name": "setTokenCap",
      "outputs": [],
      "stateMutability": "nonpayable",
      "type": "function"
    },
    {
      "inputs": [
        {
          "internalType": "uint256",
          "name": "amount",
          "type": "uint256"
        }
      ],
      "name": "setUpdateMaxPegAmount",
      "outputs": [],
      "stateMutability": "nonpayable",
      "type": "function"
    },
    {
      "inputs": [
        {
          "internalType": "uint256",
          "name": "amount",
          "type": "uint256"
        }
      ],
      "name": "setUpdateMinPegAmount",
      "outputs": [],
      "stateMutability": "nonpayable",
      "type": "function"
    },
    {
      "inputs": [
        {
          "internalType": "uint256",
          "name": "rate",
          "type": "uint256"
        }
      ],
      "name": "setUpdateRate",
      "outputs": [],
      "stateMutability": "nonpayable",
      "type": "function"
    },
    {
      "inputs": [
        {
          "internalType": "address",
          "name": "",
          "type": "address"
        }
      ],
      "name": "stakeAttackRecords",
      "outputs": [
        {
          "internalType": "uint256",
          "name": "blockNum",
          "type": "uint256"
        },
        {
          "internalType": "address",
          "name": "loser",
          "type": "address"
        },
        {
          "internalType": "uint256",
          "name": "amount",
          "type": "uint256"
        },
        {
          "internalType": "address",
          "name": "stakeAttacker",
          "type": "address"
        }
      ],
      "stateMutability": "view",
      "type": "function"
    },
    {
      "inputs": [
        {
          "internalType": "address",
          "name": "",
          "type": "address"
        }
      ],
      "name": "tokenCaps",
      "outputs": [
        {
          "internalType": "uint256",
          "name": "",
          "type": "uint256"
        }
      ],
      "stateMutability": "view",
      "type": "function"
    },
    {
      "inputs": [
        {
          "internalType": "address",
          "name": "",
          "type": "address"
        }
      ],
      "name": "tokenPrices",
      "outputs": [
        {
          "internalType": "uint256",
          "name": "blockLastUpdated",
          "type": "uint256"
        },
        {
          "internalType": "uint256",
          "name": "tokenPer1k",
          "type": "uint256"
        },
        {
          "internalType": "bytes32",
          "name": "amms",
          "type": "bytes32"
        },
        {
          "internalType": "bytes32",
          "name": "inverseAmms",
          "type": "bytes32"
        }
      ],
      "stateMutability": "view",
      "type": "function"
    },
    {
      "inputs": [
        {
          "internalType": "address",
          "name": "",
          "type": "address"
        }
      ],
      "name": "totalLong",
      "outputs": [
        {
          "internalType": "uint256",
          "name": "",
          "type": "uint256"
        }
      ],
      "stateMutability": "view",
      "type": "function"
    },
    {
      "inputs": [
        {
          "internalType": "address",
          "name": "",
          "type": "address"
        }
      ],
      "name": "totalShort",
      "outputs": [
        {
          "internalType": "uint256",
          "name": "",
          "type": "uint256"
        }
      ],
      "stateMutability": "view",
      "type": "function"
    },
    {
      "inputs": [
        {
          "internalType": "uint256",
          "name": "role",
          "type": "uint256"
        }
      ],
      "name": "updateMainCharacterCache",
      "outputs": [],
      "stateMutability": "nonpayable",
      "type": "function"
    },
    {
      "inputs": [
        {
          "internalType": "uint256",
          "name": "role",
          "type": "uint256"
        },
        {
          "internalType": "address",
          "name": "contr",
          "type": "address"
        }
      ],
      "name": "updateRoleCache",
      "outputs": [],
      "stateMutability": "nonpayable",
      "type": "function"
    },
    {
      "inputs": [
        {
          "internalType": "address",
          "name": "token",
          "type": "address"
        },
        {
          "internalType": "uint256",
          "name": "inAmount",
          "type": "uint256"
        }
      ],
      "name": "viewCurrentPriceInPeg",
      "outputs": [
        {
          "internalType": "uint256",
          "name": "",
          "type": "uint256"
        }
      ],
      "stateMutability": "view",
      "type": "function"
    },
    {
      "inputs": [
        {
          "internalType": "address",
          "name": "trader",
          "type": "address"
        }
      ],
      "name": "viewHoldingsInPeg",
      "outputs": [
        {
          "internalType": "uint256",
          "name": "",
          "type": "uint256"
        }
      ],
      "stateMutability": "view",
      "type": "function"
    },
    {
      "inputs": [
        {
          "internalType": "address",
          "name": "trader",
          "type": "address"
        }
      ],
      "name": "viewLoanInPeg",
      "outputs": [
        {
          "internalType": "uint256",
          "name": "amount",
          "type": "uint256"
        }
      ],
      "stateMutability": "view",
      "type": "function"
    }
  ],
  "bytecode": "0x60c06040526003805461ffff19166008179055605060045561c35060059081556103e8600655600a601481905560158290556016919091556017553480156200004757600080fd5b5060405162005f0538038062005f058339810160408190526200006a9162000121565b81816001600160a01b038116620000d25760405162461bcd60e51b815260206004820152602260248201527f506c656173652070726f766964652076616c696420726f6c6573206164647265604482015261737360f01b606482015260840160405180910390fd5b6001600160601b0319606091821b811660805291901b1660a0525050606e6008556014600d5561012c60075562000158565b80516001600160a01b03811681146200011c57600080fd5b919050565b6000806040838503121562000134578182fd5b6200013f8362000104565b91506200014f6020840162000104565b90509250929050565b60805160601c60a05160601c615d2d620001d8600039600081816103ed015281816109e701528181610f4f01528181612138015281816122c601528181612a5001528181613e9b01528181615040015261517901526000818161050a015281816108530152818161175601528181612f4c0152612fe50152615d2d6000f3fe608060405234801561001057600080fd5b50600436106103365760003560e01c8063519bda85116101b2578063a53ac0d9116100f9578063d0eb6653116100a2578063e0f3871f1161007c578063e0f3871f146107bf578063e9c3f77d146107df578063f99fd97c14610808578063f9c7aece1461081b57610336565b8063d0eb665314610786578063d510c53514610799578063db2d904d146107ac57610336565b8063badb5048116100d3578063badb5048146106e6578063bc44dcbc14610753578063c73afac21461077357610336565b8063a53ac0d9146106aa578063a75697a5146106b3578063a985994b146106d357610336565b806379575b231161015b578063a008915911610135578063a008915914610671578063a17ab52714610684578063a37189191461069757610336565b806379575b23146106275780637a1a04df1461063a5780637d100e841461066857610336565b806354554b581161018c57806354554b58146105f857806360b3fa401461060b5780636585b5a61461061e57610336565b8063519bda85146105d357806352a664d9146105dc578063538edb29146105ef57610336565b8063299cf2d2116102815780633ed456fa1161022a578063447d52ba11610204578063447d52ba1461058157806347788cd014610594578063498d55eb146105b75780634aa4aca3146105ca57610336565b80633ed456fa1461052c5780633ffc17c01461054d578063409fdb721461056057610336565b8063320d2fa01161025b578063320d2fa0146104d45780633500aa0b146104dd578063392f5f641461050557610336565b8063299cf2d2146104af5780632b23f857146104b85780632febaa74146104cb57610336565b80631d47e4a3116102e35780631f692a64116102bd5780631f692a6414610427578063204120bc1461043a57806320c271261461048f57610336565b80631d47e4a3146103c25780631d84cc18146103d55780631f1cb62b146103e857610336565b806310d584341161031457806310d584341461038957806316317e7e1461039c57806319fa00e1146103af57610336565b8063071060a61461033b57806307c2017514610350578063093a483a14610363575b600080fd5b61034e610349366004615a4e565b610824565b005b61034e61035e3660046158ba565b610903565b610376610371366004615821565b6109e3565b6040519081526020015b60405180910390f35b61034e610397366004615a4e565b610b05565b61034e6103aa366004615a4e565b610b88565b61034e6103bd366004615a4e565b610c06565b61034e6103d0366004615821565b610c84565b61034e6103e33660046157c7565b610d65565b61040f7f000000000000000000000000000000000000000000000000000000000000000081565b6040516001600160a01b039091168152602001610380565b6103766104353660046156f5565b610e26565b61046f6104483660046156f5565b60026020526000908152604090208054600182015460038301546005909301549192909184565b604080519485526020850193909352918301526060820152608001610380565b61037661049d3660046156f5565b600c6020526000908152604090205481565b61037660055481565b61034e6104c63660046159a4565b610e5b565b610376600d5481565b61037660085481565b6104f06104eb36600461572d565b6111c7565b60408051928352602083019190915201610380565b61040f7f000000000000000000000000000000000000000000000000000000000000000081565b60035461053a9061ffff1681565b60405161ffff9091168152602001610380565b61034e61055b366004615a4e565b611522565b61057361056e3660046156f5565b6115a0565b604051610380929190615b16565b61034e61058f366004615a7e565b611717565b6105a76105a23660046156f5565b611808565b6040519015158152602001610380565b61034e6105c5366004615787565b61186f565b61037660155481565b61037660045481565b6103766105ea366004615787565b611916565b61037660165481565b61034e610606366004615a4e565b611a4a565b610376610619366004615879565b611ac8565b61037660145481565b61034e610635366004615a4e565b611b86565b6105a7610648366004615821565b600160209081526000928352604080842090915290825290205460ff1681565b61037660175481565b61034e61067f366004615a2c565b611c04565b6103766106923660046156f5565b611c95565b61034e6106a5366004615a4e565b611cbd565b61037660075481565b6103766106c13660046156f5565b60126020526000908152604090205481565b6103766106e13660046158ba565b611d3b565b6107286106f43660046156f5565b601360205260009081526040902080546001820154600283015460039093015491926001600160a01b039182169290911684565b604080519485526001600160a01b039384166020860152840191909152166060820152608001610380565b6103766107613660046156f5565b600b6020526000908152604090205481565b61034e610781366004615a4e565b61249c565b61034e610794366004615787565b61251a565b6105736107a73660046156f5565b6125bb565b61034e6107ba3660046156f5565b6127ff565b6103766107cd3660046156f5565b600a6020526000908152604090205481565b61040f6107ed366004615a4e565b6000602081905290815260409020546001600160a01b031681565b61034e610816366004615a4e565b612930565b61037660065481565b6040517fb4ed0b6d000000000000000000000000000000000000000000000000000000008152600481018290527f00000000000000000000000000000000000000000000000000000000000000006001600160a01b03169063b4ed0b6d9060240160206040518083038186803b15801561089d57600080fd5b505afa1580156108b1573d6000803e3d6000fd5b505050506040513d601f19601f820116820180604052508101906108d59190615711565b60009182526020829052604090912080546001600160a01b0319166001600160a01b03909216919091179055565b60005b80825111156109df57600082828151811061093157634e487b7160e01b600052603260045260246000fd5b60200260200101519050600060136000836001600160a01b03166001600160a01b03168152602001908152602001600020905060155481600001546109769190615c08565b4311156109ca57610986816129ae565b506001600160a01b03821660009081526013602052604081208181556001810180546001600160a01b03199081169091556002820192909255600301805490911690555b505080806109d790615c8d565b915050610906565b5050565b60007f00000000000000000000000000000000000000000000000000000000000000006001600160a01b0316836001600160a01b03161415610a26575080610aff565b600060026000856001600160a01b03166001600160a01b0316815260200190815260200160002090506000610abc84836003015484600201805480602002602001604051908101604052809291908181526020018280548015610ab257602002820191906000526020600020905b81546001600160a01b03168152600190910190602001808311610a94575b5050505050612c58565b50905060008160018351610ad09190615c5f565b81518110610aee57634e487b7160e01b600052603260045260246000fd5b602002602001015190508093505050505b92915050565b33610b0e612f48565b6001600160a01b03161480610b32575033610b27612fe1565b6001600160a01b0316145b610b835760405162461bcd60e51b815260206004820152601e60248201527f526f6c65733a2063616c6c6572206973206e6f7420746865206f776e6572000060448201526064015b60405180910390fd5b601755565b33610b91612f48565b6001600160a01b03161480610bb5575033610baa612fe1565b6001600160a01b0316145b610c015760405162461bcd60e51b815260206004820152601e60248201527f526f6c65733a2063616c6c6572206973206e6f7420746865206f776e657200006044820152606401610b7a565b600855565b33610c0f612f48565b6001600160a01b03161480610c33575033610c28612fe1565b6001600160a01b0316145b610c7f5760405162461bcd60e51b815260206004820152601e60248201527f526f6c65733a2063616c6c6572206973206e6f7420746865206f776e657200006044820152606401610b7a565b600655565b33610c8d612f48565b6001600160a01b03161480610cb1575033610ca6612fe1565b6001600160a01b0316145b80610cd757503360009081526001602090815260408083206009845290915290205460ff165b610d495760405162461bcd60e51b815260206004820152603960248201527f43616c6c6572206973206e6f7420746865206f776e65722c206578656375746f60448201527f72206f7220617574686f72697a656420616374697661746f72000000000000006064820152608401610b7a565b6001600160a01b039091166000908152600a6020526040902055565b3360009081526001602090815260408083206004845290915290205460ff16610de35760405162461bcd60e51b815260206004820152602a60248201527f43616c6c696e6720636f6e7472616374206e6f7420617574686f72697a6564206044820152691d1bc819195c1bdcda5d60b21b6064820152608401610b7a565b6001600160a01b0385166000908152600960205260409020610e06818686613052565b610e11818484613123565b610e1c818484613250565b4390555050505050565b6001600160a01b0381166000908152600960205260408120610e526001820160028301600384016133e2565b9150505b919050565b33610e64612f48565b6001600160a01b03161480610e88575033610e7d612fe1565b6001600160a01b0316145b80610eae57503360009081526001602090815260408083206009845290915290205460ff165b610f205760405162461bcd60e51b815260206004820152603960248201527f43616c6c6572206973206e6f7420746865206f776e65722c206578656375746f60448201527f72206f7220617574686f72697a656420616374697661746f72000000000000006064820152608401610b7a565b600081600081518110610f4357634e487b7160e01b600052603260045260246000fd5b602002602001015190507f00000000000000000000000000000000000000000000000000000000000000006001600160a01b0316816001600160a01b0316146111c2576001600160a01b03811660009081526002602081815260409092206003810186905584519092610fbc92840191908601906155c4565b50825167ffffffffffffffff811115610fe557634e487b7160e01b600052604160045260246000fd5b60405190808252806020026020018201604052801561100e578160200160208202803683370190505b5080516110259160048401916020909101906155c4565b506000805b80600186516110399190615c5f565b11156110ad57600081600287516110509190615c5f565b61105a9190615c5f565b611065906008615c40565b87836020811061108557634e487b7160e01b600052603260045260246000fd5b1a60f81b6001600160f81b031916901c929092179150806110a581615c8d565b91505061102a565b506005820181905560005b808551111561115f578460018287516110d19190615c5f565b6110db9190615c5f565b815181106110f957634e487b7160e01b600052603260045260246000fd5b602002602001015183600401828154811061112457634e487b7160e01b600052603260045260246000fd5b600091825260209091200180546001600160a01b0319166001600160a01b03929092169190911790558061115781615c8d565b9150506110b8565b506000611176683635c9adc5dea000008787613466565b50905060008160008151811061119c57634e487b7160e01b600052603260045260246000fd5b602002602001015190506111bd8482683635c9adc5dea000006103e861376e565b505050505b505050565b33600090815260016020908152604080832060048452909152812054819060ff1661125a5760405162461bcd60e51b815260206004820152603960248201527f43616c6c696e6720636f6e7472616374206973206e6f7420616e20617574686f60448201527f72697a6564206d617267696e20747261646572206167656e74000000000000006064820152608401610b7a565b6001600160a01b038088166000908152600960209081526040808320938916835260028401909152902054156112eb576001600160a01b03861660009081526002820160205260409020546112b09085906137e5565b92506112bd8187856137fd565b6001600160a01b0386166000908152600b6020526040812080548592906112e5908490615c5f565b90915550505b6001600160a01b0387166000908152600c602052604081208054879290611313908490615c5f565b9091555061132390508385615c5f565b6001600160a01b0387166000908152600c60205260408120805490919061134b908490615c08565b90915550506001600160a01b0386166000908152600c6020908152604080832054600a9092529091205410156113e95760405162461bcd60e51b815260206004820152603960248201527f457863656564696e6720676c6f62616c206578706f737572652063617020746f60448201527f20746f6b656e202d2d2074727920616761696e206c61746572000000000000006064820152608401610b7a565b6001600160a01b0387166000908152600582016020526040902054859081111561150957506001600160a01b03871660009081526005820160205260409020546114338187615c5f565b6001600160a01b0389166000908152600b6020526040812080549295508592909190611460908490615c08565b90915550506001600160a01b0388166000908152600b6020908152604080832054600a9092529091205410156114fe5760405162461bcd60e51b815260206004820152603960248201527f457863656564696e6720676c6f62616c206578706f737572652063617020746f60448201527f20746f6b656e202d2d2074727920616761696e206c61746572000000000000006064820152608401610b7a565b611509828985613ab3565b6115168289898489613db9565b50509550959350505050565b3361152b612f48565b6001600160a01b0316148061154f575033611544612fe1565b6001600160a01b0316145b61159b5760405162461bcd60e51b815260206004820152601e60248201527f526f6c65733a2063616c6c6572206973206e6f7420746865206f776e657200006044820152606401610b7a565b600555565b6001600160a01b03811660009081526009602090815260409182902060048101805484518185028101850190955280855260609485949092919083018282801561161357602002820191906000526020600020905b81546001600160a01b031681526001909101906020018083116115f5575b5050506004840154929550505067ffffffffffffffff81111561164657634e487b7160e01b600052604160045260246000fd5b60405190808252806020026020018201604052801561166f578160200160208202803683370190505b50915060005b80845111156117105760008482815181106116a057634e487b7160e01b600052603260045260246000fd5b60200260200101519050826005016000826001600160a01b03166001600160a01b03168152602001908152602001600020548483815181106116f257634e487b7160e01b600052603260045260246000fd5b6020908102919091010152508061170881615c8d565b915050611675565b5050915091565b6040517f93552a3d000000000000000000000000000000000000000000000000000000008152600481018390526001600160a01b0382811660248301527f000000000000000000000000000000000000000000000000000000000000000016906393552a3d9060440160206040518083038186803b15801561179857600080fd5b505afa1580156117ac573d6000803e3d6000fd5b505050506040513d601f19601f820116820180604052508101906117d09190615988565b6001600160a01b0391909116600090815260016020908152604080832094835293905291909120805460ff1916911515919091179055565b6001600160a01b0381166000908152600960205260408120816118356001830160028401600385016133e2565b905060006118498360040184600501613e0c565b9050816008546118599190615c40565b611864826064615c40565b101595945050505050565b3360009081526001602090815260408083206004845290915290205460ff166118ed5760405162461bcd60e51b815260206004820152602a60248201527f43616c6c696e6720636f6e7472616374206e6f7420617574686f72697a6564206044820152691d1bc819195c1bdcda5d60b21b6064820152608401610b7a565b6001600160a01b0383166000908152600960205260409020611910818484613123565b50505050565b3360009081526001602090815260408083206004845290915281205460ff166119945760405162461bcd60e51b815260206004820152602a60248201527f43616c6c696e6720636f6e7472616374206e6f7420617574686f72697a6564206044820152691d1bc819195c1bdcda5d60b21b6064820152608401610b7a565b6001600160a01b03808516600090815260096020908152604080832043815593871683526002840190915290205415611a28576001600160a01b03841660009081526002820160205260409020546119ed9084906137e5565b91506119fa8185846137fd565b6001600160a01b0384166000908152600b602052604081208054849290611a22908490615c5f565b90915550505b6000611a348385615c5f565b9050611a41828683613052565b50509392505050565b33611a53612f48565b6001600160a01b03161480611a77575033611a6c612fe1565b6001600160a01b0316145b611ac35760405162461bcd60e51b815260206004820152601e60248201527f526f6c65733a2063616c6c6572206973206e6f7420746865206f776e657200006044820152606401610b7a565b600455565b6001600160a01b03831660009081526002602052604081208215611b1e57600354815461ffff90911690611afc9043615c5f565b1115611b1457611b0c8585613e97565b915050611b7f565b611b0c85856109e3565b6001810154611b3157611b0c8585613e97565b600354815461ffff90911690611b479043615c5f565b1115611b5957611b578585613e97565b505b6001810154611b7185683635c9adc5dea00000615c40565b611b7b9190615c20565b9150505b9392505050565b33611b8f612f48565b6001600160a01b03161480611bb3575033611ba8612fe1565b6001600160a01b0316145b611bff5760405162461bcd60e51b815260206004820152601e60248201527f526f6c65733a2063616c6c6572206973206e6f7420746865206f776e657200006044820152606401610b7a565b600755565b33611c0d612f48565b6001600160a01b03161480611c31575033611c26612fe1565b6001600160a01b0316145b611c7d5760405162461bcd60e51b815260206004820152601e60248201527f526f6c65733a2063616c6c6572206973206e6f7420746865206f776e657200006044820152606401610b7a565b6003805461ffff191661ffff92909216919091179055565b6001600160a01b0381166000908152600960205260408120610e526004820160058301613e0c565b33611cc6612f48565b6001600160a01b03161480611cea575033611cdf612fe1565b6001600160a01b0316145b611d365760405162461bcd60e51b815260206004820152601e60248201527f526f6c65733a2063616c6c6572206973206e6f7420746865206f776e657200006044820152606401610b7a565b601555565b6000333214611db25760405162461bcd60e51b815260206004820152603a60248201527f43757272656e746c79206e6f20696e7465726d656469617269657320616c6c6f60448201527f77656420666f7220746869732066756e6374696f6e2063616c6c0000000000006064820152608401610b7a565b6000611def606b60009081526020527f2dc7a963308417ad45132da282495eb244f38a7db03940a4d808be607669c622546001600160a01b031690565b6040517f7b23cbce0000000000000000000000000000000000000000000000000000000081523360048201526001600160a01b039190911690637b23cbce90602401602060405180830381600087803b158015611e4b57600080fd5b505af1158015611e5f573d6000803e3d6000fd5b505050506040513d601f19601f82011682018060405250810190611e839190615988565b905060008180611e965750611e96613fd6565b9050611ea284836140b6565b92506000611eae6145d7565b90506000611eba6146b3565b90508160646016546064611ece9190615c08565b611ed89084615c40565b611ee29190615c20565b1115611f4b577f3555ffae7677eb42103f0b9e11b61c758f452fae446684dec7a363dd38ab58fc8260646016546064611f1b9190615c08565b611f259085615c40565b611f2f9190615c20565b611f399190615c5f565b60405190815260200160405180910390a15b600083611ffc57606b60009081526020527f2dc7a963308417ad45132da282495eb244f38a7db03940a4d808be607669c622546001600160a01b03166001600160a01b0316631a38de1d6040518163ffffffff1660e01b8152600401602060405180830381600087803b158015611fc157600080fd5b505af1158015611fd5573d6000803e3d6000fd5b505050506040513d601f19601f82011682018060405250810190611ff99190615711565b90505b60005b60115481101561224a5760006011828154811061202c57634e487b7160e01b600052603260045260246000fd5b60009182526020808320909101546001600160a01b03168083526009909152604082209092509061205e82600161478c565b9050600061206d83600161479f565b905060006064601654836120819190615c40565b61208b9190615c20565b9050612097818d615c08565b9b50896120ec576001600160a01b03858116600090815260136020526040902060028101839055600381018054336001600160a01b031991821617909155438255600190910180549091169189169190911790555b6120f68282615c08565b83106121ed57606560009081526020527f4a7203f705e51df4a56139a9b86b4a0970bed7ab7a3446eaffe2289989c1645c546001600160a01b031663d9caed127f000000000000000000000000000000000000000000000000000000000000000087846121638789615c5f565b61216d9190615c5f565b6040517fffffffff0000000000000000000000000000000000000000000000000000000060e086901b1681526001600160a01b0393841660048201529290911660248301526044820152606401600060405180830381600087803b1580156121d457600080fd5b505af11580156121e8573d6000803e3d6000fd5b505050505b6040516001600160a01b03861681527f1d2cc4c8661a04a00b4e727426220501b36d85bb330947642c2d4320667028cf9060200160405180910390a1612232846147b6565b5050505050808061224290615c8d565b915050611fff565b50606486601454606361225d9190615c40565b6122679190615c08565b6122719190615c20565b601455831561233a57606560009081526020527f4a7203f705e51df4a56139a9b86b4a0970bed7ab7a3446eaffe2289989c1645c546001600160a01b0316604051636ce5768960e11b81526001600160a01b037f00000000000000000000000000000000000000000000000000000000000000008116600483015233602483015260448201899052919091169063d9caed1290606401600060405180830381600087803b15801561232157600080fd5b505af1158015612335573d6000803e3d6000fd5b505050505b6000612377606b60009081526020527f2dc7a963308417ad45132da282495eb244f38a7db03940a4d808be607669c622546001600160a01b031690565b6001600160a01b0316631a38de1d6040518163ffffffff1660e01b8152600401602060405180830381600087803b1580156123b157600080fd5b505af11580156123c5573d6000803e3d6000fd5b505050506040513d601f19601f820116820180604052508101906123e99190615711565b90508515612463576001600160a01b038116600090815260126020526040902054871015612444576001600160a01b03811660009081526012602052604081208054899290612439908490615c5f565b9091555061245e9050565b6001600160a01b0381166000908152601260205260408120555b612491565b6001600160a01b0381166000908152601260205260408120805489929061248b908490615c08565b90915550505b505050505050919050565b336124a5612f48565b6001600160a01b031614806124c95750336124be612fe1565b6001600160a01b0316145b6125155760405162461bcd60e51b815260206004820152601e60248201527f526f6c65733a2063616c6c6572206973206e6f7420746865206f776e657200006044820152606401610b7a565b601655565b3360009081526001602090815260408083206004845290915290205460ff166125985760405162461bcd60e51b815260206004820152602a60248201527f43616c6c696e6720636f6e7472616374206e6f7420617574686f72697a6564206044820152691d1bc819195c1bdcda5d60b21b6064820152608401610b7a565b6001600160a01b0383166000908152600960205260409020611910818484613250565b6001600160a01b03811660009081526009602090815260409182902060018101805484518185028101850190955280855260609485949092919083018282801561262e57602002820191906000526020600020905b81546001600160a01b03168152600190910190602001808311612610575b5050506001840154929550505067ffffffffffffffff81111561266157634e487b7160e01b600052604160045260246000fd5b60405190808252806020026020018201604052801561268a578160200160208202803683370190505b50915060005b80845111156117105760008482815181106126bb57634e487b7160e01b600052603260045260246000fd5b60200260200101519050612700606660009081526020527f422cccb7cea5c0e46f340bb7b21b81debac329f72e31669c20ff0f3a05cc2b5b546001600160a01b031690565b6001600160a01b03828116600081815260028701602090815260408083205460038a01909252918290205491517f76668b670000000000000000000000000000000000000000000000000000000081526004810191909152602481019290925260448201529116906376668b679060640160206040518083038186803b15801561278957600080fd5b505afa15801561279d573d6000803e3d6000fd5b505050506040513d601f19601f820116820180604052508101906127c19190615a66565b8483815181106127e157634e487b7160e01b600052603260045260246000fd5b602090810291909101015250806127f781615c8d565b915050612690565b3360009081526001602090815260408083206004845290915290205460ff166128905760405162461bcd60e51b815260206004820152603960248201527f43616c6c696e6720636f6e7472616374206973206e6f7420616e20617574686f60448201527f72697a6564206d617267696e20747261646572206167656e74000000000000006064820152608401610b7a565b6001600160a01b0381166000908152600960205260408120906128b490829061479f565b156129275760405162461bcd60e51b815260206004820152602b60248201527f43616e2774206c69717569646174652063757272656e746c7920626f72726f7760448201527f696e67206163636f756e740000000000000000000000000000000000000000006064820152608401610b7a565b6109df816147b6565b33612939612f48565b6001600160a01b0316148061295d575033612952612fe1565b6001600160a01b0316145b6129a95760405162461bcd60e51b815260206004820152601e60248201527f526f6c65733a2063616c6c6572206973206e6f7420746865206f776e657200006044820152606401610b7a565b600d55565b600281015460009015610e565781546000906129d6906129ce9043615c5f565b6015546137e5565b905060006015548285600201546129ed9190615c40565b6129f79190615c20565b9050612a34606560009081526020527f4a7203f705e51df4a56139a9b86b4a0970bed7ab7a3446eaffe2289989c1645c546001600160a01b031690565b6003850154604051636ce5768960e11b81526001600160a01b037f00000000000000000000000000000000000000000000000000000000000000008116600483015291821660248201526044810184905291169063d9caed1290606401600060405180830381600087803b158015612aab57600080fd5b505af1158015612abf573d6000803e3d6000fd5b505050506000612b00606b60009081526020527f2dc7a963308417ad45132da282495eb244f38a7db03940a4d808be607669c622546001600160a01b031690565b9050600060145483836001600160a01b0316630ad691506040518163ffffffff1660e01b815260040160206040518083038186803b158015612b4157600080fd5b505afa158015612b55573d6000803e3d6000fd5b505050506040513d601f19601f82011682018060405250810190612b799190615a66565b612b839190615c40565b612b8d9190615c20565b600187015460038801546040517f0a45bc1b0000000000000000000000000000000000000000000000000000000081526001600160a01b039283166004820152602481018490529082166044820152919250831690630a45bc1b90606401602060405180830381600087803b158015612c0557600080fd5b505af1158015612c19573d6000803e3d6000fd5b505050506040513d601f19601f82011682018060405250810190612c3d9190615a66565b50828660020154612c4e9190615c5f565b9695505050505050565b606080600283511015612cbe5760405162461bcd60e51b815260206004820152602860248201527f556e69737761705374796c654c69623a20746f6b656e207061746820697320746044820152671bdbc81cda1bdc9d60c21b6064820152608401610b7a565b825167ffffffffffffffff811115612ce657634e487b7160e01b600052604160045260246000fd5b604051908082528060200260200182016040528015612d0f578160200160208202803683370190505b5091508482600081518110612d3457634e487b7160e01b600052603260045260246000fd5b60200260200101818152505060018351612d4e9190615c5f565b67ffffffffffffffff811115612d7457634e487b7160e01b600052604160045260246000fd5b604051908082528060200260200182016040528015612d9d578160200160208202803683370190505b50905060005b60018451612db19190615c5f565b811015612f3f576000848281518110612dda57634e487b7160e01b600052603260045260246000fd5b60200260200101519050600085836001612df49190615c08565b81518110612e1257634e487b7160e01b600052603260045260246000fd5b602002602001015190506000878460208110612e3e57634e487b7160e01b600052603260045260246000fd5b1a60f81b6001600160f81b03191615612e6057612e5b8383614946565b612e6a565b612e6a8383614a24565b905080858581518110612e8d57634e487b7160e01b600052603260045260246000fd5b60200260200101906001600160a01b031690816001600160a01b031681525050600080612ebb838686614ae5565b91509150612ef1888781518110612ee257634e487b7160e01b600052603260045260246000fd5b60200260200101518383614bc2565b88612efd886001615c08565b81518110612f1b57634e487b7160e01b600052603260045260246000fd5b60200260200101818152505050505050508080612f3790615c8d565b915050612da3565b50935093915050565b60007f00000000000000000000000000000000000000000000000000000000000000006001600160a01b0316638da5cb5b6040518163ffffffff1660e01b815260040160206040518083038186803b158015612fa357600080fd5b505afa158015612fb7573d6000803e3d6000fd5b505050506040513d601f19601f82011682018060405250810190612fdb9190615711565b90505b90565b60007f00000000000000000000000000000000000000000000000000000000000000006001600160a01b031663c34c08e56040518163ffffffff1660e01b8152600401602060405180830381600087803b15801561303e57600080fd5b505af1158015612fb7573d6000803e3d6000fd5b61305d838383614cf4565b6001600160a01b0382166000908152600c602052604081208054839290613085908490615c08565b90915550506001600160a01b0382166000908152600c6020908152604080832054600a9092529091205410156111c25760405162461bcd60e51b815260206004820152603960248201527f457863656564696e6720676c6f62616c206578706f737572652063617020746f60448201527f20746f6b656e202d2d2074727920616761696e206c61746572000000000000006064820152608401610b7a565b6001600160a01b0382166000908152600b60205260408120805483929061314b908490615c08565b90915550506001600160a01b0382166000908152600c602052604081208054839290613178908490615c08565b90915550506001600160a01b0382166000908152600b6020908152604080832054600a90925290912054108015906131d357506001600160a01b0382166000908152600c6020908152604080832054600a9092529091205410155b6132455760405162461bcd60e51b815260206004820152603960248201527f457863656564696e6720676c6f62616c206578706f737572652063617020746f60448201527f20746f6b656e202d2d2074727920616761696e206c61746572000000000000006064820152608401610b7a565b6111c2838383613ab3565b600d54835461325f9190615c08565b43116132f95760405162461bcd60e51b815260206004820152605260248201527f546f2070726576656e742061747461636b7320796f75206d757374207761697460448201527f20756e74696c20796f757220636f6f6c696e67206f666620706572696f64206960648201527f73206f76657220746f2077697468647261770000000000000000000000000000608482015260a401610b7a565b6001600160a01b0382166000908152600c602052604081208054839290613321908490615c5f565b90915550506001600160a01b038216600090815260058401602052604090205461334c908290615c5f565b6001600160a01b038316600090815260058501602052604090205561337083614d7b565b6111c25760405162461bcd60e51b815260206004820152602660248201527f4163636f756e742062616c616e636520697320746f6f206c6f7720746f20776960448201527f74686472617700000000000000000000000000000000000000000000000000006064820152608401610b7a565b8254600090815b81811015611a4157600086828154811061341357634e487b7160e01b600052603260045260246000fd5b60009182526020808320909101546001600160a01b03168083529088905260409091205490915061344690829087614dcb565b6134509085615c08565b935050808061345e90615c8d565b9150506133e9565b6060806002835110156134cc5760405162461bcd60e51b815260206004820152602860248201527f556e69737761705374796c654c69623a20746f6b656e207061746820697320746044820152671bdbc81cda1bdc9d60c21b6064820152608401610b7a565b825167ffffffffffffffff8111156134f457634e487b7160e01b600052604160045260246000fd5b60405190808252806020026020018201604052801561351d578160200160208202803683370190505b5091508482600184516135309190615c5f565b8151811061354e57634e487b7160e01b600052603260045260246000fd5b602002602001018181525050600183516135689190615c5f565b67ffffffffffffffff81111561358e57634e487b7160e01b600052604160045260246000fd5b6040519080825280602002602001820160405280156135b7578160200160208202803683370190505b5090506000600184516135ca9190615c5f565b90505b8015612f3f576000846135e1600184615c5f565b815181106135ff57634e487b7160e01b600052603260045260246000fd5b60200260200101519050600085838151811061362b57634e487b7160e01b600052603260045260246000fd5b602002602001015190506000876001856136459190615c5f565b6020811061366357634e487b7160e01b600052603260045260246000fd5b1a60f81b6001600160f81b03191615613685576136808383614946565b61368f565b61368f8383614a24565b9050808561369e600187615c5f565b815181106136bc57634e487b7160e01b600052603260045260246000fd5b60200260200101906001600160a01b031690816001600160a01b0316815250506000806136ea838686614ae5565b9150915061372088878151811061371157634e487b7160e01b600052603260045260246000fd5b60200260200101518383614ec1565b8861372c600189615c5f565b8151811061374a57634e487b7160e01b600052603260045260246000fd5b6020026020010181815250505050505050808061376690615c76565b9150506135cd565b600061377b836001615c08565b61378e85683635c9adc5dea00000615c40565b6137989190615c20565b90506103e86137a78383615c40565b6137b3846103e8615c5f565b87600101546137c29190615c40565b6137cc9190615c08565b6137d69190615c20565b85600101819055505050505050565b6000818311156137f6575080610aff565b5081610aff565b60008061383b606660009081526020527f422cccb7cea5c0e46f340bb7b21b81debac329f72e31669c20ff0f3a05cc2b5b546001600160a01b031690565b6001600160a01b03858116600081815260028901602090815260408083205460038c0190925291829020549151631cd2bf4d60e31b815260048101919091526024810192909252604482015291169063e695fa68906064016040805180830381600087803b1580156138ac57600080fd5b505af11580156138c0573d6000803e3d6000fd5b505050506040513d601f19601f820116820180604052508101906138e49190615aad565b909250905060006138f58484615c5f565b6001600160a01b0386166000908152600288016020908152604080832084905560058a0190915290205490915061392d908590615c5f565b6001600160a01b03861660009081526005880160205260409020558015613970576001600160a01b03851660009081526003870160205260409020829055613aab565b6001600160a01b038516600090815260038701602052604081208190556001870154815b80821115613a645760008960010182815481106139c157634e487b7160e01b600052603260045260246000fd5b6000918252602090912001546001600160a01b03908116915089168114156139ec5760019350613a51565b8315613a5157808a600101600184613a049190615c5f565b81548110613a2257634e487b7160e01b600052603260045260246000fd5b9060005260206000200160006101000a8154816001600160a01b0302191690836001600160a01b031602179055505b5080613a5c81615c8d565b915050613994565b5087600101805480613a8657634e487b7160e01b600052603160045260246000fd5b600082815260209020810160001990810180546001600160a01b031916905501905550505b505050505050565b6001600160a01b0382166000908152600384016020526040902054613c02576001838101805491820181556000908152602090200180546001600160a01b0319166001600160a01b038416179055613b3c606660009081526020527f422cccb7cea5c0e46f340bb7b21b81debac329f72e31669c20ff0f3a05cc2b5b546001600160a01b031690565b6040517f46c87f800000000000000000000000000000000000000000000000000000000081526001600160a01b03848116600483015291909116906346c87f8090602401602060405180830381600087803b158015613b9a57600080fd5b505af1158015613bae573d6000803e3d6000fd5b505050506040513d601f19601f82011682018060405250810190613bd29190615a66565b6001600160a01b038316600090815260038501602090815260408083209390935560028601905220819055613d33565b600080613c40606660009081526020527f422cccb7cea5c0e46f340bb7b21b81debac329f72e31669c20ff0f3a05cc2b5b546001600160a01b031690565b6001600160a01b03858116600081815260028901602090815260408083205460038c0190925291829020549151631cd2bf4d60e31b815260048101919091526024810192909252604482015291169063e695fa68906064016040805180830381600087803b158015613cb157600080fd5b505af1158015613cc5573d6000803e3d6000fd5b505050506040513d601f19601f82011682018060405250810190613ce99190615aad565b6001600160a01b038616600090815260038801602052604090208190559092509050613d158383615c08565b6001600160a01b038516600090815260028701602052604090205550505b613d3e838383614cf4565b613d4783614d7b565b6111c25760405162461bcd60e51b815260206004820152602260248201527f43616e277420626f72726f773a20696e73756666696369656e742062616c616e60448201527f63650000000000000000000000000000000000000000000000000000000000006064820152608401610b7a565b6001600160a01b0384166000908152600586016020526040902054613ddf908390615c5f565b6001600160a01b0385166000908152600587016020526040902055613e05858483614cf4565b5050505050565b8154600090815b81811015613e8f576000858281548110613e3d57634e487b7160e01b600052603260045260246000fd5b60009182526020808320909101546001600160a01b031680835290879052604090912054909150613e6f9082906109e3565b613e799085615c08565b9350508080613e8790615c8d565b915050613e13565b505092915050565b60007f00000000000000000000000000000000000000000000000000000000000000006001600160a01b0316836001600160a01b03161415613eda575080610aff565b600060026000856001600160a01b03166001600160a01b0316815260200190815260200160002090506000613f6e84836003015484600201805480602002602001604051908101604052809291908181526020018280548015610ab2576020028201919060005260206000209081546001600160a01b03168152600190910190602001808311610a94575050505050612c58565b50905060008160018351613f829190615c5f565b81518110613fa057634e487b7160e01b600052603260045260246000fd5b6020026020010151905060065481118015613fbc575060055481105b15613fcc57613fcc838683614fef565b9250610aff915050565b600080614014606b60009081526020527f2dc7a963308417ad45132da282495eb244f38a7db03940a4d808be607669c622546001600160a01b031690565b6001600160a01b031663b0411f466040518163ffffffff1660e01b8152600401604080518083038186803b15801561404b57600080fd5b505afa15801561405f573d6000803e3d6000fd5b505050506040513d601f19601f82011682018060405250810190614083919061584c565b5090506014546017546140969190615c40565b6001600160a01b0390911660009081526012602052604090205411905090565b6040805160008082526020820192839052905190916140d891600f91906155c4565b5060408051600081526020810191829052516140f6916010916155c4565b506040805160008152602081019182905251614114916011916155c4565b5060005b80845111156145d057600084828151811061414357634e487b7160e01b600052603260045260246000fd5b60200260200101519050600060096000836001600160a01b03166001600160a01b03168152602001908152602001600020905061417f81615004565b15614586576011805460018101825560009182527f31ecc21a745e3968a04e9570e4425bc18fa8019c68028196b546d1669c200c680180546001600160a01b0319166001600160a01b0385161790555b60048201548110156142ef57600082600401828154811061420057634e487b7160e01b600052603260045260246000fd5b60009182526020808320909101546001600160a01b0316808352600e909152604090912060028101549192509043146142a4576001600160a01b0382166000818152600586016020526040812054600180850191909155818455436002850155600f805491820181559091527f8d1108e10bcb7c27dddfc02ed9d693a074039d026cf4ea4240b40f7d581ac8020180546001600160a01b03191690911790556142da565b6001600160a01b0382166000908152600585016020526040812054600183018054919290916142d4908490615c08565b90915550505b505080806142e790615c8d565b9150506141cf565b5060005b600182015481101561458457600082600101828154811061432457634e487b7160e01b600052603260045260246000fd5b60009182526020808320909101546001600160a01b0316808352600e9091526040822090925090614386606660009081526020527f422cccb7cea5c0e46f340bb7b21b81debac329f72e31669c20ff0f3a05cc2b5b546001600160a01b031690565b6001600160a01b03848116600081815260028901602090815260408083205460038c0190925291829020549151631cd2bf4d60e31b815260048101919091526024810192909252604482015291169063e695fa68906064016040805180830381600087803b1580156143f757600080fd5b505af115801561440b573d6000803e3d6000fd5b505050506040513d601f19601f8201168201806040525081019061442f9190615aad565b50905061446d606660009081526020527f422cccb7cea5c0e46f340bb7b21b81debac329f72e31669c20ff0f3a05cc2b5b546001600160a01b031690565b6040517f2a6a897b0000000000000000000000000000000000000000000000000000000081526001600160a01b038581166004830152602482018490529190911690632a6a897b90604401600060405180830381600087803b1580156144d257600080fd5b505af11580156144e6573d6000803e3d6000fd5b505050504382600201541461455457600060018381018290558284554360028501556010805491820181559091527f1b6847dc741a1b0cd08d278845f9d819d87b734759afb55fe2de5cb82a9ae6720180546001600160a01b0319166001600160a01b03851617905561456e565b808260000160008282546145689190615c08565b90915550505b505050808061457c90615c8d565b9150506142f3565b505b6001600160a01b038216600090815260136020526040902085156145ba576145ad816129ae565b6145b79086615c08565b94505b50505080806145c890615c8d565b915050614118565b5092915050565b6000805b600f548110156146a6576000600f828154811061460857634e487b7160e01b600052603260045260246000fd5b60009182526020808320909101546001600160a01b0316808352600e90915260409091208054600182015492935090911115614691578054600182015460009161465191615c5f565b905061465d838261503c565b6146679086615c08565b6001600160a01b0384166000908152600e6020526040812081815560018101829055600201559450505b5050808061469e90615c8d565b9150506145db565b50612fde600f6000615629565b6000805b60105481101561477f576000601082815481106146e457634e487b7160e01b600052603260045260246000fd5b60009182526020808320909101546001600160a01b0316808352600e9091526040909120600181015481549293509091111561476a5761473782826001015483600001546147329190615c5f565b615175565b6147419085615c08565b6001600160a01b0383166000908152600e60205260408120818155600181018290556002015593505b5050808061477790615c8d565b9150506146b7565b50612fde60106000615629565b6000611b7f8360040184600501846152d0565b6000611b7f83600101846002018560030185615354565b600181015460005b8082111561486b5760008360010182815481106147eb57634e487b7160e01b600052603260045260246000fd5b60009182526020808320909101546001600160a01b0316808352600287018252604080842054600b9093528320805491945091929061482b908490615c5f565b90915550506001600160a01b031660009081526002840160209081526040808320839055600386019091528120558061486381615c8d565b9150506147be565b5050600481015460005b808211156149295760008360040182815481106148a257634e487b7160e01b600052603260045260246000fd5b60009182526020808320909101546001600160a01b0316808352600587018252604080842054600c909352832080549194509192906148e2908490615c5f565b90915550506001600160a01b031660009081526005840160209081526040808320839055600686019091529020805460ff191690558061492181615c8d565b915050614875565b50614938600183016000615629565b6109df600483016000615629565b600080600061495585856153e3565b60408051606084811b6bffffffffffffffffffffffff199081166020808501919091529185901b166034830152825160288184030181526048830190935282519201919091206001600160f81b031960688301527fc0aee478e3658e2610c5f7a4a2e1777ce9e4f2ac0000000000000000000000006069830152607d8201527fe18a34eb0e04b04f7a0ac29a6e80748dca96319b42c54d679cb821dca90c6303609d820152919350915060bd015b60408051601f19818403018152919052805160209091012095945050505050565b6000806000614a3385856153e3565b60408051606084811b6bffffffffffffffffffffffff199081166020808501919091529185901b166034830152825160288184030181526048830190935282519201919091206001600160f81b031960688301527f5c69bee701ef814a2b6a3edd4b1652cb9cc5aa6f0000000000000000000000006069830152607d8201527f96e8ac4277198ff8b6f785478aa9a39f403cb768dd02cbee326c3e7da348845f609d820152919350915060bd01614a03565b6000806000614af485856153e3565b509050600080876001600160a01b0316630902f1ac6040518163ffffffff1660e01b815260040160606040518083038186803b158015614b3357600080fd5b505afa158015614b47573d6000803e3d6000fd5b505050506040513d601f19601f82011682018060405250810190614b6b91906159e9565b506dffffffffffffffffffffffffffff1691506dffffffffffffffffffffffffffff169150826001600160a01b0316876001600160a01b031614614bb0578082614bb3565b81815b90999098509650505050505050565b6000808411614c395760405162461bcd60e51b815260206004820152602b60248201527f556e697377617056324c6962726172793a20494e53554646494349454e545f4960448201527f4e5055545f414d4f554e540000000000000000000000000000000000000000006064820152608401610b7a565b600083118015614c495750600082115b614ca65760405162461bcd60e51b815260206004820152602860248201527f556e697377617056324c6962726172793a20494e53554646494349454e545f4c604482015267495155494449545960c01b6064820152608401610b7a565b6000614cb4856103e5615c40565b90506000614cc28483615c40565b9050600082614cd3876103e8615c40565b614cdd9190615c08565b9050614ce98183615c20565b979650505050505050565b6001600160a01b038216600090815260068401602052604090205460ff16614d4757600483018054600181018255600091825260209091200180546001600160a01b0319166001600160a01b0384161790555b6001600160a01b038216600090815260058401602052604081208054839290614d71908490615c08565b9091555050505050565b600080614d8983600061479f565b90506000614d9884600061478c565b905060075482614da89190615c40565b6064600754614db79190615c5f565b614dc19083615c40565b1015949350505050565b600080614e09606660009081526020527f422cccb7cea5c0e46f340bb7b21b81debac329f72e31669c20ff0f3a05cc2b5b546001600160a01b031690565b604051630a0c4ed960e11b81526001600160a01b03878116600483015291909116906314189db29060240160206040518083038186803b158015614e4c57600080fd5b505afa158015614e60573d6000803e3d6000fd5b505050506040513d601f19601f82011682018060405250810190614e849190615a66565b6001600160a01b03861660009081526020859052604081205491925090614eab8387615c40565b614eb59190615c20565b9050612c4e86826109e3565b6000808411614f385760405162461bcd60e51b815260206004820152602c60248201527f556e697377617056324c6962726172793a20494e53554646494349454e545f4f60448201527f55545055545f414d4f554e5400000000000000000000000000000000000000006064820152608401610b7a565b600083118015614f485750600082115b614fa55760405162461bcd60e51b815260206004820152602860248201527f556e697377617056324c6962726172793a20494e53554646494349454e545f4c604482015267495155494449545960c01b6064820152608401610b7a565b6000614fb18585615c40565b614fbd906103e8615c40565b905060006103e5614fce8786615c5f565b614fd89190615c5f565b9050614fe48183615c20565b612c4e906001615c08565b614ffd83838360045461376e565b5050439055565b60008061501283600161479f565b9050600061502184600161478c565b9050816008546150319190615c40565b614dc1826064615c40565b60007f00000000000000000000000000000000000000000000000000000000000000006001600160a01b0316836001600160a01b0316141561507f575080610aff565b6001600160a01b0383166000908152600260205260408120906150d3606760009081526020527f682158d08466d11c566d5712d4396197fdd67e65be71d83c97ef719ec468867b546001600160a01b031690565b6001600160a01b031663351ae6108560008560030154866002016040518563ffffffff1660e01b815260040161510c9493929190615b8e565b600060405180830381600087803b15801561512657600080fd5b505af115801561513a573d6000803e3d6000fd5b505050506040513d6000823e601f3d908101601f1916820160405261516291908101906158f5565b905060008160018351610ad09190615c5f565b60007f00000000000000000000000000000000000000000000000000000000000000006001600160a01b0316836001600160a01b031614156151b8575080610aff565b6001600160a01b03831660009081526002602052604081209061520c606760009081526020527f682158d08466d11c566d5712d4396197fdd67e65be71d83c97ef719ec468867b546001600160a01b031690565b6001600160a01b03166353d7ff9f856000198560030154866004016040518563ffffffff1660e01b81526004016152469493929190615b8e565b600060405180830381600087803b15801561526057600080fd5b505af1158015615274573d6000803e3d6000fd5b505050506040513d6000823e601f3d908101601f1916820160405261529c91908101906158f5565b9050806000815181106152bf57634e487b7160e01b600052603260045260246000fd5b602002602001015192505050610aff565b8254600090815b81811015611a4157600086828154811061530157634e487b7160e01b600052603260045260246000fd5b60009182526020808320909101546001600160a01b03168083529088905260409091205490915061533490829087611ac8565b61533e9085615c08565b935050808061534c90615c8d565b9150506152d7565b8354600090815b818110156153d957600087828154811061538557634e487b7160e01b600052603260045260246000fd5b60009182526020808320909101546001600160a01b0316808352908990526040909120549091506153b990829088886154cd565b6153c39085615c08565b93505080806153d190615c8d565b91505061535b565b5050949350505050565b600080826001600160a01b0316846001600160a01b031614156154485760405162461bcd60e51b815260206004820152601260248201527f4964656e746963616c20616464726573732100000000000000000000000000006044820152606401610b7a565b826001600160a01b0316846001600160a01b03161061546857828461546b565b83835b90925090506001600160a01b0382166154c65760405162461bcd60e51b815260206004820152600d60248201527f5a65726f206164647265737321000000000000000000000000000000000000006044820152606401610b7a565b9250929050565b60008061550b606660009081526020527f422cccb7cea5c0e46f340bb7b21b81debac329f72e31669c20ff0f3a05cc2b5b546001600160a01b031690565b604051630a0c4ed960e11b81526001600160a01b03888116600483015291909116906314189db29060240160206040518083038186803b15801561554e57600080fd5b505afa158015615562573d6000803e3d6000fd5b505050506040513d601f19601f820116820180604052508101906155869190615a66565b6001600160a01b038716600090815260208690526040812054919250906155ad8388615c40565b6155b79190615c20565b9050614ce9878286611ac8565b828054828255906000526020600020908101928215615619579160200282015b8281111561561957825182546001600160a01b0319166001600160a01b039091161782556020909201916001909101906155e4565b5061562592915061564a565b5090565b5080546000825590600052602060002090810190615647919061564a565b50565b5b80821115615625576000815560010161564b565b600082601f83011261566f578081fd5b8135602061568461567f83615be4565b615bb3565b80838252828201915082860187848660051b89010111156156a3578586fd5b855b858110156156ca5781356156b881615cd4565b845292840192908401906001016156a5565b5090979650505050505050565b80516dffffffffffffffffffffffffffff81168114610e5657600080fd5b600060208284031215615706578081fd5b8135611b7f81615cd4565b600060208284031215615722578081fd5b8151611b7f81615cd4565b600080600080600060a08688031215615744578081fd5b853561574f81615cd4565b9450602086013561575f81615cd4565b9350604086013561576f81615cd4565b94979396509394606081013594506080013592915050565b60008060006060848603121561579b578283fd5b83356157a681615cd4565b925060208401356157b681615cd4565b929592945050506040919091013590565b600080600080600060a086880312156157de578081fd5b85356157e981615cd4565b945060208601356157f981615cd4565b935060408601359250606086013561581081615cd4565b949793965091946080013592915050565b60008060408385031215615833578182fd5b823561583e81615cd4565b946020939093013593505050565b6000806040838503121561585e578182fd5b825161586981615cd4565b6020939093015192949293505050565b60008060006060848603121561588d578283fd5b833561589881615cd4565b92506020840135915060408401356158af81615ce9565b809150509250925092565b6000602082840312156158cb578081fd5b813567ffffffffffffffff8111156158e1578182fd5b6158ed8482850161565f565b949350505050565b60006020808385031215615907578182fd5b825167ffffffffffffffff81111561591d578283fd5b8301601f8101851361592d578283fd5b805161593b61567f82615be4565b80828252848201915084840188868560051b870101111561595a578687fd5b8694505b8385101561597c57805183526001949094019391850191850161595e565b50979650505050505050565b600060208284031215615999578081fd5b8151611b7f81615ce9565b600080604083850312156159b6578182fd5b82359150602083013567ffffffffffffffff8111156159d3578182fd5b6159df8582860161565f565b9150509250929050565b6000806000606084860312156159fd578081fd5b615a06846156d7565b9250615a14602085016156d7565b9150604084015163ffffffff811681146158af578182fd5b600060208284031215615a3d578081fd5b813561ffff81168114611b7f578182fd5b600060208284031215615a5f578081fd5b5035919050565b600060208284031215615a77578081fd5b5051919050565b60008060408385031215615a90578182fd5b823591506020830135615aa281615cd4565b809150509250929050565b60008060408385031215615abf578182fd5b505080516020909101519092909150565b6000815480845260208085019450838352808320835b83811015615b0b5781546001600160a01b031687529582019560019182019101615ae6565b509495945050505050565b604080825283519082018190526000906020906060840190828701845b82811015615b5a5781516001600160a01b0316845260208401935090840190600101615b33565b50505083810382850152845180825285830191830190845b818110156156ca57835183529284019291840191600101615b72565b600085825284602083015283604083015260806060830152612c4e6080830184615ad0565b604051601f8201601f1916810167ffffffffffffffff81118282101715615bdc57615bdc615cbe565b604052919050565b600067ffffffffffffffff821115615bfe57615bfe615cbe565b5060051b60200190565b60008219821115615c1b57615c1b615ca8565b500190565b600082615c3b57634e487b7160e01b81526012600452602481fd5b500490565b6000816000190483118215151615615c5a57615c5a615ca8565b500290565b600082821015615c7157615c71615ca8565b500390565b600081615c8557615c85615ca8565b506000190190565b6000600019821415615ca157615ca1615ca8565b5060010190565b634e487b7160e01b600052601160045260246000fd5b634e487b7160e01b600052604160045260246000fd5b6001600160a01b038116811461564757600080fd5b801515811461564757600080fdfea26469706673582212201bf42ad93bcab198748d7266edadff5989c6577f047d679d48dc96b6c7c1739a64736f6c63430008030033",
  "linkReferences": {},
  "deployedLinkReferences": {}
}