{
  "_format": "hh-sol-artifact-1",
  "contractName": "CrossMarginTrading",
  "sourceName": "contracts/CrossMarginTrading.sol",
  "abi": [
    {
      "inputs": [
        {
          "internalType": "address",
          "name": "_peg",
          "type": "address"
        },
        {
          "internalType": "address",
          "name": "_roles",
          "type": "address"
        }
      ],
      "stateMutability": "nonpayable",
      "type": "constructor"
    },
    {
      "anonymous": false,
      "inputs": [
        {
          "indexed": false,
          "internalType": "address",
          "name": "account",
          "type": "address"
        }
      ],
      "name": "AccountLiquidated",
      "type": "event"
    },
    {
      "anonymous": false,
      "inputs": [
        {
          "indexed": false,
          "internalType": "uint256",
          "name": "amount",
          "type": "uint256"
        }
      ],
      "name": "LiquidationShortfall",
      "type": "event"
    },
    {
      "inputs": [],
      "name": "MAINTAINER_CUT_PERCENT",
      "outputs": [
        {
          "internalType": "uint256",
          "name": "",
          "type": "uint256"
        }
      ],
      "stateMutability": "view",
      "type": "function"
    },
    {
      "inputs": [],
      "name": "UPDATE_MAX_PEG_AMOUNT",
      "outputs": [
        {
          "internalType": "uint256",
          "name": "",
          "type": "uint256"
        }
      ],
      "stateMutability": "view",
      "type": "function"
    },
    {
      "inputs": [],
      "name": "UPDATE_MIN_PEG_AMOUNT",
      "outputs": [
        {
          "internalType": "uint256",
          "name": "",
          "type": "uint256"
        }
      ],
      "stateMutability": "view",
      "type": "function"
    },
    {
      "inputs": [],
      "name": "UPDATE_RATE_PERMIL",
      "outputs": [
        {
          "internalType": "uint256",
          "name": "",
          "type": "uint256"
        }
      ],
      "stateMutability": "view",
      "type": "function"
    },
    {
      "inputs": [],
      "name": "avgLiquidationPerCall",
      "outputs": [
        {
          "internalType": "uint256",
          "name": "",
          "type": "uint256"
        }
      ],
      "stateMutability": "view",
      "type": "function"
    },
    {
      "inputs": [],
      "name": "coolingOffPeriod",
      "outputs": [
        {
          "internalType": "uint256",
          "name": "",
          "type": "uint256"
        }
      ],
      "stateMutability": "view",
      "type": "function"
    },
    {
      "inputs": [
        {
          "internalType": "address[]",
          "name": "liquidatedAccounts",
          "type": "address[]"
        }
      ],
      "name": "disburseLiqStakeAttacks",
      "outputs": [],
      "stateMutability": "nonpayable",
      "type": "function"
    },
    {
      "inputs": [],
      "name": "failureThreshold",
      "outputs": [
        {
          "internalType": "uint256",
          "name": "",
          "type": "uint256"
        }
      ],
      "stateMutability": "view",
      "type": "function"
    },
    {
      "inputs": [
        {
          "internalType": "address",
          "name": "trader",
          "type": "address"
        }
      ],
      "name": "getBorrowAmounts",
      "outputs": [
        {
          "internalType": "address[]",
          "name": "borrowTokens",
          "type": "address[]"
        },
        {
          "internalType": "uint256[]",
          "name": "borrowAmounts",
          "type": "uint256[]"
        }
      ],
      "stateMutability": "view",
      "type": "function"
    },
    {
      "inputs": [
        {
          "internalType": "address",
          "name": "token",
          "type": "address"
        },
        {
          "internalType": "uint256",
          "name": "inAmount",
          "type": "uint256"
        },
        {
          "internalType": "bool",
          "name": "forceCurBlock",
          "type": "bool"
        }
      ],
      "name": "getCurrentPriceInPeg",
      "outputs": [
        {
          "internalType": "uint256",
          "name": "",
          "type": "uint256"
        }
      ],
      "stateMutability": "nonpayable",
      "type": "function"
    },
    {
      "inputs": [
        {
          "internalType": "address",
          "name": "trader",
          "type": "address"
        }
      ],
      "name": "getHoldingAmounts",
      "outputs": [
        {
          "internalType": "address[]",
          "name": "holdingTokens",
          "type": "address[]"
        },
        {
          "internalType": "uint256[]",
          "name": "holdingAmounts",
          "type": "uint256[]"
        }
      ],
      "stateMutability": "view",
      "type": "function"
    },
    {
      "inputs": [
        {
          "internalType": "address",
          "name": "trader",
          "type": "address"
        }
      ],
      "name": "getLastDepositBlock",
      "outputs": [
        {
          "internalType": "uint256",
          "name": "",
          "type": "uint256"
        }
      ],
      "stateMutability": "view",
      "type": "function"
    },
    {
      "inputs": [],
      "name": "leveragePercent",
      "outputs": [
        {
          "internalType": "uint256",
          "name": "",
          "type": "uint256"
        }
      ],
      "stateMutability": "view",
      "type": "function"
    },
    {
      "inputs": [],
      "name": "liqStakeAttackWindow",
      "outputs": [
        {
          "internalType": "uint256",
          "name": "",
          "type": "uint256"
        }
      ],
      "stateMutability": "view",
      "type": "function"
    },
    {
      "inputs": [
        {
          "internalType": "address[]",
          "name": "liquidationCandidates",
          "type": "address[]"
        }
      ],
      "name": "liquidate",
      "outputs": [
        {
          "internalType": "uint256",
          "name": "maintainerCut",
          "type": "uint256"
        }
      ],
      "stateMutability": "nonpayable",
      "type": "function"
    },
    {
      "inputs": [],
      "name": "liquidationThresholdPercent",
      "outputs": [
        {
          "internalType": "uint256",
          "name": "",
          "type": "uint256"
        }
      ],
      "stateMutability": "view",
      "type": "function"
    },
    {
      "inputs": [
        {
          "internalType": "uint256",
          "name": "",
          "type": "uint256"
        }
      ],
      "name": "mainCharacterCache",
      "outputs": [
        {
          "internalType": "address",
          "name": "",
          "type": "address"
        }
      ],
      "stateMutability": "view",
      "type": "function"
    },
    {
      "inputs": [
        {
          "internalType": "address",
          "name": "",
          "type": "address"
        }
      ],
      "name": "maintenanceFailures",
      "outputs": [
        {
          "internalType": "uint256",
          "name": "",
          "type": "uint256"
        }
      ],
      "stateMutability": "view",
      "type": "function"
    },
    {
      "inputs": [],
      "name": "peg",
      "outputs": [
        {
          "internalType": "address",
          "name": "",
          "type": "address"
        }
      ],
      "stateMutability": "view",
      "type": "function"
    },
    {
      "inputs": [],
      "name": "priceUpdateWindow",
      "outputs": [
        {
          "internalType": "uint16",
          "name": "",
          "type": "uint16"
        }
      ],
      "stateMutability": "view",
      "type": "function"
    },
    {
      "inputs": [
        {
          "internalType": "address",
          "name": "trader",
          "type": "address"
        },
        {
          "internalType": "address",
          "name": "borrowToken",
          "type": "address"
        },
        {
          "internalType": "uint256",
          "name": "borrowAmount",
          "type": "uint256"
        }
      ],
      "name": "registerBorrow",
      "outputs": [],
      "stateMutability": "nonpayable",
      "type": "function"
    },
    {
      "inputs": [
        {
          "internalType": "address",
          "name": "trader",
          "type": "address"
        },
        {
          "internalType": "address",
          "name": "token",
          "type": "address"
        },
        {
          "internalType": "uint256",
          "name": "depositAmount",
          "type": "uint256"
        }
      ],
      "name": "registerDeposit",
      "outputs": [
        {
          "internalType": "uint256",
          "name": "extinguishableDebt",
          "type": "uint256"
        }
      ],
      "stateMutability": "nonpayable",
      "type": "function"
    },
    {
      "inputs": [
        {
          "internalType": "address",
          "name": "trader",
          "type": "address"
        }
      ],
      "name": "registerLiquidation",
      "outputs": [],
      "stateMutability": "nonpayable",
      "type": "function"
    },
    {
      "inputs": [
        {
          "internalType": "address",
          "name": "trader",
          "type": "address"
        },
        {
          "internalType": "address",
          "name": "depositToken",
          "type": "address"
        },
        {
          "internalType": "uint256",
          "name": "depositAmount",
          "type": "uint256"
        },
        {
          "internalType": "address",
          "name": "borrowToken",
          "type": "address"
        },
        {
          "internalType": "uint256",
          "name": "withdrawAmount",
          "type": "uint256"
        }
      ],
      "name": "registerOvercollateralizedBorrow",
      "outputs": [],
      "stateMutability": "nonpayable",
      "type": "function"
    },
    {
      "inputs": [
        {
          "internalType": "address",
          "name": "trader",
          "type": "address"
        },
        {
          "internalType": "address",
          "name": "tokenFrom",
          "type": "address"
        },
        {
          "internalType": "address",
          "name": "tokenTo",
          "type": "address"
        },
        {
          "internalType": "uint256",
          "name": "inAmount",
          "type": "uint256"
        },
        {
          "internalType": "uint256",
          "name": "outAmount",
          "type": "uint256"
        }
      ],
      "name": "registerTradeAndBorrow",
      "outputs": [
        {
          "internalType": "uint256",
          "name": "extinguishableDebt",
          "type": "uint256"
        },
        {
          "internalType": "uint256",
          "name": "borrowAmount",
          "type": "uint256"
        }
      ],
      "stateMutability": "nonpayable",
      "type": "function"
    },
    {
      "inputs": [
        {
          "internalType": "address",
          "name": "trader",
          "type": "address"
        },
        {
          "internalType": "address",
          "name": "withdrawToken",
          "type": "address"
        },
        {
          "internalType": "uint256",
          "name": "withdrawAmount",
          "type": "uint256"
        }
      ],
      "name": "registerWithdrawal",
      "outputs": [],
      "stateMutability": "nonpayable",
      "type": "function"
    },
    {
      "inputs": [
        {
          "internalType": "address",
          "name": "",
          "type": "address"
        },
        {
          "internalType": "uint256",
          "name": "",
          "type": "uint256"
        }
      ],
      "name": "roleCache",
      "outputs": [
        {
          "internalType": "bool",
          "name": "",
          "type": "bool"
        }
      ],
      "stateMutability": "view",
      "type": "function"
    },
    {
      "inputs": [],
      "name": "roles",
      "outputs": [
        {
          "internalType": "contract Roles",
          "name": "",
          "type": "address"
        }
      ],
      "stateMutability": "view",
      "type": "function"
    },
    {
      "inputs": [
        {
          "internalType": "uint256",
          "name": "blocks",
          "type": "uint256"
        }
      ],
      "name": "setCoolingOffPeriod",
      "outputs": [],
      "stateMutability": "nonpayable",
      "type": "function"
    },
    {
      "inputs": [
        {
          "internalType": "uint256",
          "name": "threshFactor",
          "type": "uint256"
        }
      ],
      "name": "setFailureThreshold",
      "outputs": [],
      "stateMutability": "nonpayable",
      "type": "function"
    },
    {
      "inputs": [
        {
          "internalType": "uint256",
          "name": "_leveragePercent",
          "type": "uint256"
        }
      ],
      "name": "setLeverage",
      "outputs": [],
      "stateMutability": "nonpayable",
      "type": "function"
    },
    {
      "inputs": [
        {
          "internalType": "uint256",
          "name": "window",
          "type": "uint256"
        }
      ],
      "name": "setLiqStakeAttackWindow",
      "outputs": [],
      "stateMutability": "nonpayable",
      "type": "function"
    },
    {
      "inputs": [
        {
          "internalType": "address[]",
          "name": "path",
          "type": "address[]"
        },
        {
          "internalType": "address[]",
          "name": "tokens",
          "type": "address[]"
        }
      ],
      "name": "setLiquidationPath",
      "outputs": [],
      "stateMutability": "nonpayable",
      "type": "function"
    },
    {
      "inputs": [
        {
          "internalType": "uint256",
          "name": "threshold",
          "type": "uint256"
        }
      ],
      "name": "setLiquidationThresholdPercent",
      "outputs": [],
      "stateMutability": "nonpayable",
      "type": "function"
    },
    {
      "inputs": [
        {
          "internalType": "uint256",
          "name": "cut",
          "type": "uint256"
        }
      ],
      "name": "setMaintainerCutPercent",
      "outputs": [],
      "stateMutability": "nonpayable",
      "type": "function"
    },
    {
      "inputs": [
        {
          "internalType": "uint16",
          "name": "window",
          "type": "uint16"
        }
      ],
      "name": "setPriceUpdateWindow",
      "outputs": [],
      "stateMutability": "nonpayable",
      "type": "function"
    },
    {
      "inputs": [
        {
          "internalType": "address",
          "name": "token",
          "type": "address"
        },
        {
          "internalType": "uint256",
          "name": "cap",
          "type": "uint256"
        }
      ],
      "name": "setTokenCap",
      "outputs": [],
      "stateMutability": "nonpayable",
      "type": "function"
    },
    {
      "inputs": [
        {
          "internalType": "uint256",
          "name": "amount",
          "type": "uint256"
        }
      ],
      "name": "setUpdateMaxPegAmount",
      "outputs": [],
      "stateMutability": "nonpayable",
      "type": "function"
    },
    {
      "inputs": [
        {
          "internalType": "uint256",
          "name": "amount",
          "type": "uint256"
        }
      ],
      "name": "setUpdateMinPegAmount",
      "outputs": [],
      "stateMutability": "nonpayable",
      "type": "function"
    },
    {
      "inputs": [
        {
          "internalType": "uint256",
          "name": "rate",
          "type": "uint256"
        }
      ],
      "name": "setUpdateRate",
      "outputs": [],
      "stateMutability": "nonpayable",
      "type": "function"
    },
    {
      "inputs": [
        {
          "internalType": "address",
          "name": "",
          "type": "address"
        }
      ],
      "name": "stakeAttackRecords",
      "outputs": [
        {
          "internalType": "uint256",
          "name": "blockNum",
          "type": "uint256"
        },
        {
          "internalType": "address",
          "name": "loser",
          "type": "address"
        },
        {
          "internalType": "uint256",
          "name": "amount",
          "type": "uint256"
        },
        {
          "internalType": "address",
          "name": "stakeAttacker",
          "type": "address"
        }
      ],
      "stateMutability": "view",
      "type": "function"
    },
    {
      "inputs": [
        {
          "internalType": "address",
          "name": "",
          "type": "address"
        }
      ],
      "name": "tokenCaps",
      "outputs": [
        {
          "internalType": "uint256",
          "name": "",
          "type": "uint256"
        }
      ],
      "stateMutability": "view",
      "type": "function"
    },
    {
      "inputs": [
        {
          "internalType": "address",
          "name": "",
          "type": "address"
        }
      ],
      "name": "tokenPrices",
      "outputs": [
        {
          "internalType": "uint256",
          "name": "blockLastUpdated",
          "type": "uint256"
        },
        {
          "internalType": "uint256",
          "name": "tokenPer1k",
          "type": "uint256"
        }
      ],
      "stateMutability": "view",
      "type": "function"
    },
    {
      "inputs": [
        {
          "internalType": "address",
          "name": "",
          "type": "address"
        }
      ],
      "name": "totalLong",
      "outputs": [
        {
          "internalType": "uint256",
          "name": "",
          "type": "uint256"
        }
      ],
      "stateMutability": "view",
      "type": "function"
    },
    {
      "inputs": [
        {
          "internalType": "address",
          "name": "",
          "type": "address"
        }
      ],
      "name": "totalShort",
      "outputs": [
        {
          "internalType": "uint256",
          "name": "",
          "type": "uint256"
        }
      ],
      "stateMutability": "view",
      "type": "function"
    },
    {
      "inputs": [
        {
          "internalType": "uint256",
          "name": "role",
          "type": "uint256"
        }
      ],
      "name": "updateMainCharacterCache",
      "outputs": [],
      "stateMutability": "nonpayable",
      "type": "function"
    },
    {
      "inputs": [
        {
          "internalType": "uint256",
          "name": "role",
          "type": "uint256"
        },
        {
          "internalType": "address",
          "name": "contr",
          "type": "address"
        }
      ],
      "name": "updateRoleCache",
      "outputs": [],
      "stateMutability": "nonpayable",
      "type": "function"
    },
    {
      "inputs": [
        {
          "internalType": "address",
          "name": "token",
          "type": "address"
        },
        {
          "internalType": "uint256",
          "name": "inAmount",
          "type": "uint256"
        }
      ],
      "name": "viewCurrentPriceInPeg",
      "outputs": [
        {
          "internalType": "uint256",
          "name": "",
          "type": "uint256"
        }
      ],
      "stateMutability": "view",
      "type": "function"
    },
    {
      "inputs": [
        {
          "internalType": "address",
          "name": "trader",
          "type": "address"
        }
      ],
      "name": "viewHoldingsInPeg",
      "outputs": [
        {
          "internalType": "uint256",
          "name": "",
          "type": "uint256"
        }
      ],
      "stateMutability": "view",
      "type": "function"
    },
    {
      "inputs": [
        {
          "internalType": "address",
          "name": "trader",
          "type": "address"
        }
      ],
      "name": "viewLoanInPeg",
      "outputs": [
        {
          "internalType": "uint256",
          "name": "amount",
          "type": "uint256"
        }
      ],
      "stateMutability": "view",
      "type": "function"
    }
  ],
  "bytecode": "0x60c06040526003805461ffff19166008179055605060045561c35060059081556103e8600655600a601481905560158290556016919091556017553480156200004757600080fd5b5060405162006151380380620061518339810160408190526200006a9162000121565b81816001600160a01b038116620000d25760405162461bcd60e51b815260206004820152602260248201527f506c656173652070726f766964652076616c696420726f6c6573206164647265604482015261737360f01b606482015260840160405180910390fd5b6001600160601b0319606091821b811660805291901b1660a0525050606e6008556014600d5561012c60075562000158565b80516001600160a01b03811681146200011c57600080fd5b919050565b6000806040838503121562000134578182fd5b6200013f8362000104565b91506200014f6020840162000104565b90509250929050565b60805160601c60a05160601c615f79620001d8600039600081816103ed015281816109ff01528181610fbe01528181612411015281816125b801528181612d6e015281816140640152818161521101526153540152600081816104dc0152818161083b01528181611a1d01528181613186015261321f0152615f796000f3fe608060405234801561001057600080fd5b50600436106103365760003560e01c806352a664d9116101b2578063a75697a5116100f9578063d510c535116100a2578063e9c3f77d1161007c578063e9c3f77d1461079e578063eac29dd6146107c7578063f99fd97c146107f0578063f9c7aece1461080357610336565b8063d510c53514610758578063db2d904d1461076b578063e0f3871f1461077e57610336565b8063bc44dcbc116100d3578063bc44dcbc14610712578063c73afac214610732578063d0eb66531461074557610336565b8063a75697a514610672578063a985994b14610692578063badb5048146106a557610336565b80637a1a04df1161015b578063a17ab52711610135578063a17ab52714610643578063a371891914610656578063a53ac0d91461066957610336565b80637a1a04df146105e95780637d100e8414610627578063a00891591461063057610336565b806360b3fa401161018c57806360b3fa40146105ba5780636585b5a6146105cd57806379575b23146105d657610336565b806352a664d91461058b578063538edb291461059e57806354554b58146105a757610336565b8063288ddbdc116102815780633ed456fa1161022a578063447d52ba11610204578063447d52ba14610553578063498d55eb146105665780634aa4aca314610579578063519bda851461058257610336565b80633ed456fa146104fe5780633ffc17c01461051f578063409fdb721461053257610336565b8063320d2fa01161025b578063320d2fa0146104bb5780633500aa0b146104c4578063392f5f64146104d757610336565b8063288ddbdc14610496578063299cf2d2146104a95780632febaa74146104b257610336565b80631d47e4a3116102e35780631f692a64116102bd5780631f692a6414610427578063204120bc1461043a57806320c271261461047657610336565b80631d47e4a3146103c25780631d84cc18146103d55780631f1cb62b146103e857610336565b806310d584341161031457806310d584341461038957806316317e7e1461039c57806319fa00e1146103af57610336565b8063071060a61461033b57806307c2017514610350578063093a483a14610363575b600080fd5b61034e610349366004615c93565b61080c565b005b61034e61035e366004615ae3565b610903565b610376610371366004615a4a565b6109fb565b6040519081526020015b60405180910390f35b61034e610397366004615c93565b610b61565b61034e6103aa366004615c93565b610be4565b61034e6103bd366004615c93565b610c62565b61034e6103d0366004615a4a565b610ce0565b61034e6103e33660046159f0565b610dc1565b61040f7f000000000000000000000000000000000000000000000000000000000000000081565b6040516001600160a01b039091168152602001610380565b61037661043536600461591e565b610e95565b61046161044836600461591e565b6002602052600090815260409020805460019091015482565b60408051928352602083019190915201610380565b61037661048436600461591e565b600c6020526000908152604090205481565b61034e6104a4366004615b1e565b610eca565b61037660055481565b610376600d5481565b61037660085481565b6104616104d2366004615956565b61148e565b61040f7f000000000000000000000000000000000000000000000000000000000000000081565b60035461050c9061ffff1681565b60405161ffff9091168152602001610380565b61034e61052d366004615c93565b6117e9565b61054561054036600461591e565b611867565b604051610380929190615d38565b61034e610561366004615cc3565b6119de565b61034e6105743660046159b0565b611aed565b61037660155481565b61037660045481565b6103766105993660046159b0565b611ba7565b61037660165481565b61034e6105b5366004615c93565b611cee565b6103766105c8366004615aa2565b611d6c565b61037660145481565b61034e6105e4366004615c93565b611e2a565b6106176105f7366004615a4a565b600160209081526000928352604080842090915290825290205460ff1681565b6040519015158152602001610380565b61037660175481565b61034e61063e366004615c71565b611ea8565b61037661065136600461591e565b611f56565b61034e610664366004615c93565b611f7e565b61037660075481565b61037661068036600461591e565b60126020526000908152604090205481565b6103766106a0366004615ae3565b611ffc565b6106e76106b336600461591e565b601360205260009081526040902080546001820154600283015460039093015491926001600160a01b039182169290911684565b604080519485526001600160a01b039384166020860152840191909152166060820152608001610380565b61037661072036600461591e565b600b6020526000908152604090205481565b61034e610740366004615c93565b61278e565b61034e6107533660046159b0565b61280c565b61054561076636600461591e565b6128c0565b61034e61077936600461591e565b612b04565b61037661078c36600461591e565b600a6020526000908152604090205481565b61040f6107ac366004615c93565b6000602081905290815260409020546001600160a01b031681565b6103766107d536600461591e565b6001600160a01b031660009081526009602052604090205490565b61034e6107fe366004615c93565b612c35565b61037660065481565b6040517fb4ed0b6d000000000000000000000000000000000000000000000000000000008152600481018290527f00000000000000000000000000000000000000000000000000000000000000006001600160a01b03169063b4ed0b6d9060240160206040518083038186803b15801561088557600080fd5b505afa158015610899573d6000803e3d6000fd5b505050506040513d601f19601f820116820180604052508101906108bd919061593a565b60009182526020829052604090912080547fffffffffffffffffffffffff0000000000000000000000000000000000000000166001600160a01b03909216919091179055565b60005b80825111156109f757600082828151811061093157634e487b7160e01b600052603260045260246000fd5b60200260200101519050600060136000836001600160a01b03166001600160a01b03168152602001908152602001600020905060155481600001546109769190615e54565b4311156109e25761098681612cb3565b506001600160a01b03821660009081526013602052604081208181556001810180547fffffffffffffffffffffffff00000000000000000000000000000000000000009081169091556002820192909255600301805490911690555b505080806109ef90615ed9565b915050610906565b5050565b60007f00000000000000000000000000000000000000000000000000000000000000006001600160a01b0316836001600160a01b03161415610a3e575080610b5b565b6001600160a01b03831660009081526002602081815260408084209283018054825181850281018501909352808352939493610b19938893929190830182828015610ab257602002820191906000526020600020905b81546001600160a01b03168152600190910190602001808311610a94575b505050505084600401805480602002602001604051908101604052809291908181526020018280548015610b0f57602002820191906000526020600020905b81546001600160a01b03168152600190910190602001808311610af1575b5050505050612f76565b905060008160018351610b2c9190615eab565b81518110610b4a57634e487b7160e01b600052603260045260246000fd5b602002602001015190508093505050505b92915050565b33610b6a613182565b6001600160a01b03161480610b8e575033610b8361321b565b6001600160a01b0316145b610bdf5760405162461bcd60e51b815260206004820152601e60248201527f526f6c65733a2063616c6c6572206973206e6f7420746865206f776e6572000060448201526064015b60405180910390fd5b601755565b33610bed613182565b6001600160a01b03161480610c11575033610c0661321b565b6001600160a01b0316145b610c5d5760405162461bcd60e51b815260206004820152601e60248201527f526f6c65733a2063616c6c6572206973206e6f7420746865206f776e657200006044820152606401610bd6565b600855565b33610c6b613182565b6001600160a01b03161480610c8f575033610c8461321b565b6001600160a01b0316145b610cdb5760405162461bcd60e51b815260206004820152601e60248201527f526f6c65733a2063616c6c6572206973206e6f7420746865206f776e657200006044820152606401610bd6565b600655565b33610ce9613182565b6001600160a01b03161480610d0d575033610d0261321b565b6001600160a01b0316145b80610d3357503360009081526001602090815260408083206009845290915290205460ff165b610da55760405162461bcd60e51b815260206004820152603960248201527f43616c6c6572206973206e6f7420746865206f776e65722c206578656375746f60448201527f72206f7220617574686f72697a656420616374697661746f72000000000000006064820152608401610bd6565b6001600160a01b039091166000908152600a6020526040902055565b3360009081526001602090815260408083206004845290915290205460ff16610e525760405162461bcd60e51b815260206004820152602a60248201527f43616c6c696e6720636f6e7472616374206e6f7420617574686f72697a65642060448201527f746f206465706f736974000000000000000000000000000000000000000000006064820152608401610bd6565b6001600160a01b0385166000908152600960205260409020610e7581868661328c565b610e8081848461335d565b610e8b81848461348a565b4390555050505050565b6001600160a01b0381166000908152600960205260408120610ec160018201600283016003840161361c565b9150505b919050565b33610ed3613182565b6001600160a01b03161480610ef7575033610eec61321b565b6001600160a01b0316145b80610f1d57503360009081526001602090815260408083206009845290915290205460ff165b610f8f5760405162461bcd60e51b815260206004820152603960248201527f43616c6c6572206973206e6f7420746865206f776e65722c206578656375746f60448201527f72206f7220617574686f72697a656420616374697661746f72000000000000006064820152608401610bd6565b600081600081518110610fb257634e487b7160e01b600052603260045260246000fd5b602002602001015190507f00000000000000000000000000000000000000000000000000000000000000006001600160a01b0316816001600160a01b031614611489576001600160a01b0381166000908152600260205260409020835167ffffffffffffffff81111561103557634e487b7160e01b600052604160045260246000fd5b60405190808252806020026020018201604052801561105e578160200160208202803683370190505b5080516110759160028401916020909101906157d5565b50835167ffffffffffffffff81111561109e57634e487b7160e01b600052604160045260246000fd5b6040519080825280602002602001820160405280156110c7578160200160208202803683370190505b5080516110de9160038401916020909101906157d5565b50825167ffffffffffffffff81111561110757634e487b7160e01b600052604160045260246000fd5b604051908082528060200260200182016040528015611130578160200160208202803683370190505b5080516111479160048401916020909101906157d5565b50825167ffffffffffffffff81111561117057634e487b7160e01b600052604160045260246000fd5b604051908082528060200260200182016040528015611199578160200160208202803683370190505b5080516111b09160058401916020909101906157d5565b5060005b80855111156112ec578481815181106111dd57634e487b7160e01b600052603260045260246000fd5b602002602001015182600201828154811061120857634e487b7160e01b600052603260045260246000fd5b9060005260206000200160006101000a8154816001600160a01b0302191690836001600160a01b031602179055508460018287516112469190615eab565b6112509190615eab565b8151811061126e57634e487b7160e01b600052603260045260246000fd5b602002602001015182600301828154811061129957634e487b7160e01b600052603260045260246000fd5b600091825260209091200180547fffffffffffffffffffffffff0000000000000000000000000000000000000000166001600160a01b0392909216919091179055806112e481615ed9565b9150506111b4565b5060005b80845111156114285783818151811061131957634e487b7160e01b600052603260045260246000fd5b602002602001015182600401828154811061134457634e487b7160e01b600052603260045260246000fd5b9060005260206000200160006101000a8154816001600160a01b0302191690836001600160a01b031602179055508360018286516113829190615eab565b61138c9190615eab565b815181106113aa57634e487b7160e01b600052603260045260246000fd5b60200260200101518260050182815481106113d557634e487b7160e01b600052603260045260246000fd5b600091825260209091200180547fffffffffffffffffffffffff0000000000000000000000000000000000000000166001600160a01b03929092169190911790558061142081615ed9565b9150506112f0565b50600061143f683635c9adc5dea0000086866136a0565b905060008160008151811061146457634e487b7160e01b600052603260045260246000fd5b602002602001015190506114858382683635c9adc5dea000006103e86138ae565b5050505b505050565b33600090815260016020908152604080832060048452909152812054819060ff166115215760405162461bcd60e51b815260206004820152603960248201527f43616c6c696e6720636f6e7472616374206973206e6f7420616e20617574686f60448201527f72697a6564206d617267696e20747261646572206167656e74000000000000006064820152608401610bd6565b6001600160a01b038088166000908152600960209081526040808320938916835260028401909152902054156115b2576001600160a01b0386166000908152600282016020526040902054611577908590613925565b925061158481878561393d565b6001600160a01b0386166000908152600b6020526040812080548592906115ac908490615eab565b90915550505b6001600160a01b0387166000908152600c6020526040812080548792906115da908490615eab565b909155506115ea90508385615eab565b6001600160a01b0387166000908152600c602052604081208054909190611612908490615e54565b90915550506001600160a01b0386166000908152600c6020908152604080832054600a9092529091205410156116b05760405162461bcd60e51b815260206004820152603960248201527f457863656564696e6720676c6f62616c206578706f737572652063617020746f60448201527f20746f6b656e202d2d2074727920616761696e206c61746572000000000000006064820152608401610bd6565b6001600160a01b038716600090815260058201602052604090205485908111156117d057506001600160a01b03871660009081526005820160205260409020546116fa8187615eab565b6001600160a01b0389166000908152600b6020526040812080549295508592909190611727908490615e54565b90915550506001600160a01b0388166000908152600b6020908152604080832054600a9092529091205410156117c55760405162461bcd60e51b815260206004820152603960248201527f457863656564696e6720676c6f62616c206578706f737572652063617020746f60448201527f20746f6b656e202d2d2074727920616761696e206c61746572000000000000006064820152608401610bd6565b6117d0828985613cff565b6117dd828989848961400d565b50509550959350505050565b336117f2613182565b6001600160a01b0316148061181657503361180b61321b565b6001600160a01b0316145b6118625760405162461bcd60e51b815260206004820152601e60248201527f526f6c65733a2063616c6c6572206973206e6f7420746865206f776e657200006044820152606401610bd6565b600555565b6001600160a01b0381166000908152600960209081526040918290206004810180548451818502810185019095528085526060948594909291908301828280156118da57602002820191906000526020600020905b81546001600160a01b031681526001909101906020018083116118bc575b5050506004840154929550505067ffffffffffffffff81111561190d57634e487b7160e01b600052604160045260246000fd5b604051908082528060200260200182016040528015611936578160200160208202803683370190505b50915060005b80845111156119d757600084828151811061196757634e487b7160e01b600052603260045260246000fd5b60200260200101519050826005016000826001600160a01b03166001600160a01b03168152602001908152602001600020548483815181106119b957634e487b7160e01b600052603260045260246000fd5b602090810291909101015250806119cf81615ed9565b91505061193c565b5050915091565b6040517f93552a3d000000000000000000000000000000000000000000000000000000008152600481018390526001600160a01b0382811660248301527f000000000000000000000000000000000000000000000000000000000000000016906393552a3d9060440160206040518083038186803b158015611a5f57600080fd5b505afa158015611a73573d6000803e3d6000fd5b505050506040513d601f19601f82011682018060405250810190611a979190615c12565b6001600160a01b039190911660009081526001602090815260408083209483529390529190912080547fffffffffffffffffffffffffffffffffffffffffffffffffffffffffffffff0016911515919091179055565b3360009081526001602090815260408083206004845290915290205460ff16611b7e5760405162461bcd60e51b815260206004820152602a60248201527f43616c6c696e6720636f6e7472616374206e6f7420617574686f72697a65642060448201527f746f206465706f736974000000000000000000000000000000000000000000006064820152608401610bd6565b6001600160a01b0383166000908152600960205260409020611ba181848461335d565b50505050565b3360009081526001602090815260408083206004845290915281205460ff16611c385760405162461bcd60e51b815260206004820152602a60248201527f43616c6c696e6720636f6e7472616374206e6f7420617574686f72697a65642060448201527f746f206465706f736974000000000000000000000000000000000000000000006064820152608401610bd6565b6001600160a01b03808516600090815260096020908152604080832043815593871683526002840190915290205415611ccc576001600160a01b0384166000908152600282016020526040902054611c91908490613925565b9150611c9e81858461393d565b6001600160a01b0384166000908152600b602052604081208054849290611cc6908490615eab565b90915550505b6000611cd88385615eab565b9050611ce582868361328c565b50509392505050565b33611cf7613182565b6001600160a01b03161480611d1b575033611d1061321b565b6001600160a01b0316145b611d675760405162461bcd60e51b815260206004820152601e60248201527f526f6c65733a2063616c6c6572206973206e6f7420746865206f776e657200006044820152606401610bd6565b600455565b6001600160a01b03831660009081526002602052604081208215611dc257600354815461ffff90911690611da09043615eab565b1115611db857611db08585614060565b915050611e23565b611db085856109fb565b6001810154611dd557611db08585614060565b600354815461ffff90911690611deb9043615eab565b1115611dfd57611dfb8585614060565b505b6001810154611e1585683635c9adc5dea00000615e8c565b611e1f9190615e6c565b9150505b9392505050565b33611e33613182565b6001600160a01b03161480611e57575033611e4c61321b565b6001600160a01b0316145b611ea35760405162461bcd60e51b815260206004820152601e60248201527f526f6c65733a2063616c6c6572206973206e6f7420746865206f776e657200006044820152606401610bd6565b600755565b33611eb1613182565b6001600160a01b03161480611ed5575033611eca61321b565b6001600160a01b0316145b611f215760405162461bcd60e51b815260206004820152601e60248201527f526f6c65733a2063616c6c6572206973206e6f7420746865206f776e657200006044820152606401610bd6565b600380547fffffffffffffffffffffffffffffffffffffffffffffffffffffffffffff00001661ffff92909216919091179055565b6001600160a01b0381166000908152600960205260408120610ec160048201600583016141e1565b33611f87613182565b6001600160a01b03161480611fab575033611fa061321b565b6001600160a01b0316145b611ff75760405162461bcd60e51b815260206004820152601e60248201527f526f6c65733a2063616c6c6572206973206e6f7420746865206f776e657200006044820152606401610bd6565b601555565b60003332146120735760405162461bcd60e51b815260206004820152603a60248201527f43757272656e746c79206e6f20696e7465726d656469617269657320616c6c6f60448201527f77656420666f7220746869732066756e6374696f6e2063616c6c0000000000006064820152608401610bd6565b60006120b0606b60009081526020527f2dc7a963308417ad45132da282495eb244f38a7db03940a4d808be607669c622546001600160a01b031690565b6040517f7b23cbce0000000000000000000000000000000000000000000000000000000081523360048201526001600160a01b039190911690637b23cbce90602401602060405180830381600087803b15801561210c57600080fd5b505af1158015612120573d6000803e3d6000fd5b505050506040513d601f19601f820116820180604052508101906121449190615c12565b905060008180612157575061215761426c565b9050612163848361434c565b9250600061216f6148ce565b9050600061217b6149aa565b9050816064601654606461218f9190615e54565b6121999084615e8c565b6121a39190615e6c565b111561220c577f3555ffae7677eb42103f0b9e11b61c758f452fae446684dec7a363dd38ab58fc82606460165460646121dc9190615e54565b6121e69085615e8c565b6121f09190615e6c565b6121fa9190615eab565b60405190815260200160405180910390a15b6000836122bd57606b60009081526020527f2dc7a963308417ad45132da282495eb244f38a7db03940a4d808be607669c622546001600160a01b03166001600160a01b0316631a38de1d6040518163ffffffff1660e01b8152600401602060405180830381600087803b15801561228257600080fd5b505af1158015612296573d6000803e3d6000fd5b505050506040513d601f19601f820116820180604052508101906122ba919061593a565b90505b60005b601154811015612523576000601182815481106122ed57634e487b7160e01b600052603260045260246000fd5b60009182526020808320909101546001600160a01b03168083526009909152604082209092509061231f826001614a83565b9050600061232e836001614a96565b905060006064601654836123429190615e8c565b61234c9190615e6c565b9050612358818d615e54565b9b50896123c5576001600160a01b03858116600090815260136020526040902060028101839055600381018054337fffffffffffffffffffffffff000000000000000000000000000000000000000091821617909155438255600190910180549091169189169190911790555b6123cf8282615e54565b83106124c657606560009081526020527f4a7203f705e51df4a56139a9b86b4a0970bed7ab7a3446eaffe2289989c1645c546001600160a01b031663d9caed127f0000000000000000000000000000000000000000000000000000000000000000878461243c8789615eab565b6124469190615eab565b6040517fffffffff0000000000000000000000000000000000000000000000000000000060e086901b1681526001600160a01b0393841660048201529290911660248301526044820152606401600060405180830381600087803b1580156124ad57600080fd5b505af11580156124c1573d6000803e3d6000fd5b505050505b6040516001600160a01b03861681527f1d2cc4c8661a04a00b4e727426220501b36d85bb330947642c2d4320667028cf9060200160405180910390a161250b84614aad565b5050505050808061251b90615ed9565b9150506122c0565b5060648660145460636125369190615e8c565b6125409190615e54565b61254a9190615e6c565b601455831561262c57606560009081526020527f4a7203f705e51df4a56139a9b86b4a0970bed7ab7a3446eaffe2289989c1645c546001600160a01b03166040517fd9caed120000000000000000000000000000000000000000000000000000000081526001600160a01b037f00000000000000000000000000000000000000000000000000000000000000008116600483015233602483015260448201899052919091169063d9caed1290606401600060405180830381600087803b15801561261357600080fd5b505af1158015612627573d6000803e3d6000fd5b505050505b6000612669606b60009081526020527f2dc7a963308417ad45132da282495eb244f38a7db03940a4d808be607669c622546001600160a01b031690565b6001600160a01b0316631a38de1d6040518163ffffffff1660e01b8152600401602060405180830381600087803b1580156126a357600080fd5b505af11580156126b7573d6000803e3d6000fd5b505050506040513d601f19601f820116820180604052508101906126db919061593a565b90508515612755576001600160a01b038116600090815260126020526040902054871015612736576001600160a01b0381166000908152601260205260408120805489929061272b908490615eab565b909155506127509050565b6001600160a01b0381166000908152601260205260408120555b612783565b6001600160a01b0381166000908152601260205260408120805489929061277d908490615e54565b90915550505b505050505050919050565b33612797613182565b6001600160a01b031614806127bb5750336127b061321b565b6001600160a01b0316145b6128075760405162461bcd60e51b815260206004820152601e60248201527f526f6c65733a2063616c6c6572206973206e6f7420746865206f776e657200006044820152606401610bd6565b601655565b3360009081526001602090815260408083206004845290915290205460ff1661289d5760405162461bcd60e51b815260206004820152602a60248201527f43616c6c696e6720636f6e7472616374206e6f7420617574686f72697a65642060448201527f746f206465706f736974000000000000000000000000000000000000000000006064820152608401610bd6565b6001600160a01b0383166000908152600960205260409020611ba181848461348a565b6001600160a01b03811660009081526009602090815260409182902060018101805484518185028101850190955280855260609485949092919083018282801561293357602002820191906000526020600020905b81546001600160a01b03168152600190910190602001808311612915575b5050506001840154929550505067ffffffffffffffff81111561296657634e487b7160e01b600052604160045260246000fd5b60405190808252806020026020018201604052801561298f578160200160208202803683370190505b50915060005b80845111156119d75760008482815181106129c057634e487b7160e01b600052603260045260246000fd5b60200260200101519050612a05606660009081526020527f422cccb7cea5c0e46f340bb7b21b81debac329f72e31669c20ff0f3a05cc2b5b546001600160a01b031690565b6001600160a01b03828116600081815260028701602090815260408083205460038a01909252918290205491517f687680ed00000000000000000000000000000000000000000000000000000000815260048101919091526024810192909252604482015291169063687680ed9060640160206040518083038186803b158015612a8e57600080fd5b505afa158015612aa2573d6000803e3d6000fd5b505050506040513d601f19601f82011682018060405250810190612ac69190615cab565b848381518110612ae657634e487b7160e01b600052603260045260246000fd5b60209081029190910101525080612afc81615ed9565b915050612995565b3360009081526001602090815260408083206004845290915290205460ff16612b955760405162461bcd60e51b815260206004820152603960248201527f43616c6c696e6720636f6e7472616374206973206e6f7420616e20617574686f60448201527f72697a6564206d617267696e20747261646572206167656e74000000000000006064820152608401610bd6565b6001600160a01b038116600090815260096020526040812090612bb9908290614a96565b15612c2c5760405162461bcd60e51b815260206004820152602b60248201527f43616e2774206c69717569646174652063757272656e746c7920626f72726f7760448201527f696e67206163636f756e740000000000000000000000000000000000000000006064820152608401610bd6565b6109f781614aad565b33612c3e613182565b6001600160a01b03161480612c62575033612c5761321b565b6001600160a01b0316145b612cae5760405162461bcd60e51b815260206004820152601e60248201527f526f6c65733a2063616c6c6572206973206e6f7420746865206f776e657200006044820152606401610bd6565b600d55565b600281015460009015610ec5578154600090612cdb90612cd39043615eab565b601554613925565b90506000601554828560020154612cf29190615e8c565b612cfc9190615e6c565b9050612d39606560009081526020527f4a7203f705e51df4a56139a9b86b4a0970bed7ab7a3446eaffe2289989c1645c546001600160a01b031690565b60038501546040517fd9caed120000000000000000000000000000000000000000000000000000000081526001600160a01b037f00000000000000000000000000000000000000000000000000000000000000008116600483015291821660248201526044810184905291169063d9caed1290606401600060405180830381600087803b158015612dc957600080fd5b505af1158015612ddd573d6000803e3d6000fd5b505050506000612e1e606b60009081526020527f2dc7a963308417ad45132da282495eb244f38a7db03940a4d808be607669c622546001600160a01b031690565b9050600060145483836001600160a01b0316630ad691506040518163ffffffff1660e01b815260040160206040518083038186803b158015612e5f57600080fd5b505afa158015612e73573d6000803e3d6000fd5b505050506040513d601f19601f82011682018060405250810190612e979190615cab565b612ea19190615e8c565b612eab9190615e6c565b600187015460038801546040517f0a45bc1b0000000000000000000000000000000000000000000000000000000081526001600160a01b039283166004820152602481018490529082166044820152919250831690630a45bc1b90606401602060405180830381600087803b158015612f2357600080fd5b505af1158015612f37573d6000803e3d6000fd5b505050506040513d601f19601f82011682018060405250810190612f5b9190615cab565b50828660020154612f6c9190615eab565b9695505050505050565b6060600183511015612fca5760405162461bcd60e51b815260206004820152601260248201527f706169727320697320746f6f2073686f727400000000000000000000000000006044820152606401610bd6565b815167ffffffffffffffff811115612ff257634e487b7160e01b600052604160045260246000fd5b60405190808252806020026020018201604052801561301b578160200160208202803683370190505b509050838160008151811061304057634e487b7160e01b600052603260045260246000fd5b60200260200101818152505060005b6001835161305d9190615eab565b81101561317a57600084828151811061308657634e487b7160e01b600052603260045260246000fd5b602002602001015190506000806130f8838786815181106130b757634e487b7160e01b600052603260045260246000fd5b6020026020010151888760016130cd9190615e54565b815181106130eb57634e487b7160e01b600052603260045260246000fd5b6020026020010151614c5b565b9150915061312e85858151811061311f57634e487b7160e01b600052603260045260246000fd5b60200260200101518383614d38565b8561313a866001615e54565b8151811061315857634e487b7160e01b600052603260045260246000fd5b602002602001018181525050505050808061317290615ed9565b91505061304f565b509392505050565b60007f00000000000000000000000000000000000000000000000000000000000000006001600160a01b0316638da5cb5b6040518163ffffffff1660e01b815260040160206040518083038186803b1580156131dd57600080fd5b505afa1580156131f1573d6000803e3d6000fd5b505050506040513d601f19601f82011682018060405250810190613215919061593a565b90505b90565b60007f00000000000000000000000000000000000000000000000000000000000000006001600160a01b031663c34c08e56040518163ffffffff1660e01b8152600401602060405180830381600087803b15801561327857600080fd5b505af11580156131f1573d6000803e3d6000fd5b613297838383614e7f565b6001600160a01b0382166000908152600c6020526040812080548392906132bf908490615e54565b90915550506001600160a01b0382166000908152600c6020908152604080832054600a9092529091205410156114895760405162461bcd60e51b815260206004820152603960248201527f457863656564696e6720676c6f62616c206578706f737572652063617020746f60448201527f20746f6b656e202d2d2074727920616761696e206c61746572000000000000006064820152608401610bd6565b6001600160a01b0382166000908152600b602052604081208054839290613385908490615e54565b90915550506001600160a01b0382166000908152600c6020526040812080548392906133b2908490615e54565b90915550506001600160a01b0382166000908152600b6020908152604080832054600a909252909120541080159061340d57506001600160a01b0382166000908152600c6020908152604080832054600a9092529091205410155b61347f5760405162461bcd60e51b815260206004820152603960248201527f457863656564696e6720676c6f62616c206578706f737572652063617020746f60448201527f20746f6b656e202d2d2074727920616761696e206c61746572000000000000006064820152608401610bd6565b611489838383613cff565b600d5483546134999190615e54565b43116135335760405162461bcd60e51b815260206004820152605260248201527f546f2070726576656e742061747461636b7320796f75206d757374207761697460448201527f20756e74696c20796f757220636f6f6c696e67206f666620706572696f64206960648201527f73206f76657220746f2077697468647261770000000000000000000000000000608482015260a401610bd6565b6001600160a01b0382166000908152600c60205260408120805483929061355b908490615eab565b90915550506001600160a01b0382166000908152600584016020526040902054613586908290615eab565b6001600160a01b03831660009081526005850160205260409020556135aa83614f1e565b6114895760405162461bcd60e51b815260206004820152602660248201527f4163636f756e742062616c616e636520697320746f6f206c6f7720746f20776960448201527f74686472617700000000000000000000000000000000000000000000000000006064820152608401610bd6565b8254600090815b81811015611ce557600086828154811061364d57634e487b7160e01b600052603260045260246000fd5b60009182526020808320909101546001600160a01b03168083529088905260409091205490915061368090829087614f6e565b61368a9085615e54565b935050808061369890615ed9565b915050613623565b60606001835110156136f45760405162461bcd60e51b815260206004820152601260248201527f706169727320697320746f6f2073686f727400000000000000000000000000006044820152606401610bd6565b815167ffffffffffffffff81111561371c57634e487b7160e01b600052604160045260246000fd5b604051908082528060200260200182016040528015613745578160200160208202803683370190505b5090508381600183516137589190615eab565b8151811061377657634e487b7160e01b600052603260045260246000fd5b6020026020010181815250506000600183516137929190615eab565b90505b801561317a576000846137a9600184615eab565b815181106137c757634e487b7160e01b600052603260045260246000fd5b6020026020010151905060008061382c83876001876137e69190615eab565b8151811061380457634e487b7160e01b600052603260045260246000fd5b60200260200101518887815181106130eb57634e487b7160e01b600052603260045260246000fd5b9150915061386285858151811061385357634e487b7160e01b600052603260045260246000fd5b6020026020010151838361507d565b8561386e600187615eab565b8151811061388c57634e487b7160e01b600052603260045260246000fd5b60200260200101818152505050505080806138a690615ec2565b915050613795565b60006138bb836001615e54565b6138ce85683635c9adc5dea00000615e8c565b6138d89190615e6c565b90506103e86138e78383615e8c565b6138f3846103e8615eab565b87600101546139029190615e8c565b61390c9190615e54565b6139169190615e6c565b85600101819055505050505050565b600081831115613936575080610b5b565b5081610b5b565b606660009081526020527f422cccb7cea5c0e46f340bb7b21b81debac329f72e31669c20ff0f3a05cc2b5b546001600160a01b03166001600160a01b03838116600081815260028701602090815260408083205460038a01909252918290205491517fe695fa6800000000000000000000000000000000000000000000000000000000815260048101919091526024810192909252604482015291169063e695fa6890606401602060405180830381600087803b1580156139fd57600080fd5b505af1158015613a11573d6000803e3d6000fd5b505050506040513d601f19601f82011682018060405250810190613a359190615cab565b6001600160a01b03831660009081526002850160205260409020819055613a5d908290615eab565b6001600160a01b03831660009081526002850160209081526040808320939093556005860190522054613a91908290615eab565b6001600160a01b0383166000908152600585016020908152604080832093909355600286019052205415613ba857606660009081526020527f422cccb7cea5c0e46f340bb7b21b81debac329f72e31669c20ff0f3a05cc2b5b546001600160a01b03166040517fe5ea66060000000000000000000000000000000000000000000000000000000081526001600160a01b038481166004830152919091169063e5ea66069060240160206040518083038186803b158015613b5057600080fd5b505afa158015613b64573d6000803e3d6000fd5b505050506040513d601f19601f82011682018060405250810190613b889190615cab565b6001600160a01b0383166000908152600385016020526040902055611489565b6001600160a01b038216600090815260038401602052604081208190556001840154815b80821115613c9c576000866001018281548110613bf957634e487b7160e01b600052603260045260246000fd5b6000918252602090912001546001600160a01b0390811691508616811415613c245760019350613c89565b8315613c89578087600101600184613c3c9190615eab565b81548110613c5a57634e487b7160e01b600052603260045260246000fd5b9060005260206000200160006101000a8154816001600160a01b0302191690836001600160a01b031602179055505b5080613c9481615ed9565b915050613bcc565b5084600101805480613cbe57634e487b7160e01b600052603160045260246000fd5b600082815260209020810160001990810180547fffffffffffffffffffffffff00000000000000000000000000000000000000001690550190555050505050565b6001600160a01b0382166000908152600384016020526040902054613d6a576001838101805491820181556000908152602090200180547fffffffffffffffffffffffff0000000000000000000000000000000000000000166001600160a01b038416179055613e7e565b606660009081526020527f422cccb7cea5c0e46f340bb7b21b81debac329f72e31669c20ff0f3a05cc2b5b546001600160a01b03166001600160a01b03838116600081815260028701602090815260408083205460038a01909252918290205491517fe695fa6800000000000000000000000000000000000000000000000000000000815260048101919091526024810192909252604482015291169063e695fa6890606401602060405180830381600087803b158015613e2a57600080fd5b505af1158015613e3e573d6000803e3d6000fd5b505050506040513d601f19601f82011682018060405250810190613e629190615cab565b6001600160a01b03831660009081526002850160205260409020555b606660009081526020527f422cccb7cea5c0e46f340bb7b21b81debac329f72e31669c20ff0f3a05cc2b5b546001600160a01b03166040517fe5ea66060000000000000000000000000000000000000000000000000000000081526001600160a01b038481166004830152919091169063e5ea66069060240160206040518083038186803b158015613f0f57600080fd5b505afa158015613f23573d6000803e3d6000fd5b505050506040513d601f19601f82011682018060405250810190613f479190615cab565b6001600160a01b03831660009081526003850160209081526040808320939093556002860190529081208054839290613f81908490615e54565b90915550613f929050838383614e7f565b613f9b83614f1e565b6114895760405162461bcd60e51b815260206004820152602260248201527f43616e277420626f72726f773a20696e73756666696369656e742062616c616e60448201527f63650000000000000000000000000000000000000000000000000000000000006064820152608401610bd6565b6001600160a01b0384166000908152600586016020526040902054614033908390615eab565b6001600160a01b0385166000908152600587016020526040902055614059858483614e7f565b5050505050565b60007f00000000000000000000000000000000000000000000000000000000000000006001600160a01b0316836001600160a01b031614156140a3575080610b5b565b6001600160a01b0383166000908152600260208181526040808420928301805482518185028101850190935280835293949361417a938893929190830182828015610ab2576020028201919060005260206000209081546001600160a01b03168152600190910190602001808311610a9457505050505084600401805480602002602001604051908101604052809291908181526020018280548015610b0f576020028201919060005260206000209081546001600160a01b03168152600190910190602001808311610af1575050505050612f76565b90506000816001835161418d9190615eab565b815181106141ab57634e487b7160e01b600052603260045260246000fd5b60200260200101519050600654811180156141c7575060055481105b156141d7576141d78386836151c0565b9250610b5b915050565b8154600090815b8181101561426457600085828154811061421257634e487b7160e01b600052603260045260246000fd5b60009182526020808320909101546001600160a01b0316808352908790526040909120549091506142449082906109fb565b61424e9085615e54565b935050808061425c90615ed9565b9150506141e8565b505092915050565b6000806142aa606b60009081526020527f2dc7a963308417ad45132da282495eb244f38a7db03940a4d808be607669c622546001600160a01b031690565b6001600160a01b031663b0411f466040518163ffffffff1660e01b8152600401604080518083038186803b1580156142e157600080fd5b505afa1580156142f5573d6000803e3d6000fd5b505050506040513d601f19601f820116820180604052508101906143199190615a75565b50905060145460175461432c9190615e8c565b6001600160a01b0390911660009081526012602052604090205411905090565b60408051600080825260208201928390529051909161436e91600f91906157d5565b50604080516000815260208101918290525161438c916010916157d5565b5060408051600081526020810191829052516143aa916011916157d5565b5060005b80845111156148c75760008482815181106143d957634e487b7160e01b600052603260045260246000fd5b60200260200101519050600060096000836001600160a01b03166001600160a01b031681526020019081526020016000209050614415816151d5565b1561487d576011805460018101825560009182527f31ecc21a745e3968a04e9570e4425bc18fa8019c68028196b546d1669c200c680180547fffffffffffffffffffffffff0000000000000000000000000000000000000000166001600160a01b0385161790555b60048201548110156145b55760008260040182815481106144ae57634e487b7160e01b600052603260045260246000fd5b60009182526020808320909101546001600160a01b0316808352600e9091526040909120600281015491925090431461456a576001600160a01b0382166000818152600586016020526040812054600180850191909155818455436002850155600f805491820181559091527f8d1108e10bcb7c27dddfc02ed9d693a074039d026cf4ea4240b40f7d581ac8020180547fffffffffffffffffffffffff00000000000000000000000000000000000000001690911790556145a0565b6001600160a01b03821660009081526005850160205260408120546001830180549192909161459a908490615e54565b90915550505b505080806145ad90615ed9565b91505061447d565b5060005b600182015481101561487b5760008260010182815481106145ea57634e487b7160e01b600052603260045260246000fd5b60009182526020808320909101546001600160a01b0316808352600e909152604082209092509061464c606660009081526020527f422cccb7cea5c0e46f340bb7b21b81debac329f72e31669c20ff0f3a05cc2b5b546001600160a01b031690565b6001600160a01b03848116600081815260028901602090815260408083205460038c01909252918290205491517fe695fa6800000000000000000000000000000000000000000000000000000000815260048101919091526024810192909252604482015291169063e695fa6890606401602060405180830381600087803b1580156146d757600080fd5b505af11580156146eb573d6000803e3d6000fd5b505050506040513d601f19601f8201168201806040525081019061470f9190615cab565b905061474c606660009081526020527f422cccb7cea5c0e46f340bb7b21b81debac329f72e31669c20ff0f3a05cc2b5b546001600160a01b031690565b6040517f2a6a897b0000000000000000000000000000000000000000000000000000000081526001600160a01b038581166004830152602482018490529190911690632a6a897b90604401600060405180830381600087803b1580156147b157600080fd5b505af11580156147c5573d6000803e3d6000fd5b505050504382600201541461484b57600060018381018290558284554360028501556010805491820181559091527f1b6847dc741a1b0cd08d278845f9d819d87b734759afb55fe2de5cb82a9ae6720180547fffffffffffffffffffffffff0000000000000000000000000000000000000000166001600160a01b038516179055614865565b8082600001600082825461485f9190615e54565b90915550505b505050808061487390615ed9565b9150506145b9565b505b6001600160a01b038216600090815260136020526040902085156148b1576148a481612cb3565b6148ae9086615e54565b94505b50505080806148bf90615ed9565b9150506143ae565b5092915050565b6000805b600f5481101561499d576000600f82815481106148ff57634e487b7160e01b600052603260045260246000fd5b60009182526020808320909101546001600160a01b0316808352600e90915260409091208054600182015492935090911115614988578054600182015460009161494891615eab565b9050614954838261520d565b61495e9086615e54565b6001600160a01b0384166000908152600e6020526040812081815560018101829055600201559450505b5050808061499590615ed9565b9150506148d2565b50613218600f6000615852565b6000805b601054811015614a76576000601082815481106149db57634e487b7160e01b600052603260045260246000fd5b60009182526020808320909101546001600160a01b0316808352600e90915260409091206001810154815492935090911115614a6157614a2e8282600101548360000154614a299190615eab565b615350565b614a389085615e54565b6001600160a01b0383166000908152600e60205260408120818155600181018290556002015593505b50508080614a6e90615ed9565b9150506149ae565b5061321860106000615852565b6000611e238360040184600501846154c8565b6000611e238360010184600201856003018561554c565b600181015460005b80821115614b62576000836001018281548110614ae257634e487b7160e01b600052603260045260246000fd5b60009182526020808320909101546001600160a01b0316808352600287018252604080842054600b90935283208054919450919290614b22908490615eab565b90915550506001600160a01b0316600090815260028401602090815260408083208390556003860190915281205580614b5a81615ed9565b915050614ab5565b5050600481015460005b80821115614c3e576000836004018281548110614b9957634e487b7160e01b600052603260045260246000fd5b60009182526020808320909101546001600160a01b0316808352600587018252604080842054600c90935283208054919450919290614bd9908490615eab565b90915550506001600160a01b03166000908152600584016020908152604080832083905560068601909152902080547fffffffffffffffffffffffffffffffffffffffffffffffffffffffffffffff0016905580614c3681615ed9565b915050614b6c565b50614c4d600183016000615852565b6109f7600483016000615852565b6000806000614c6a85856155db565b509050600080876001600160a01b0316630902f1ac6040518163ffffffff1660e01b815260040160606040518083038186803b158015614ca957600080fd5b505afa158015614cbd573d6000803e3d6000fd5b505050506040513d601f19601f82011682018060405250810190614ce19190615c2e565b506dffffffffffffffffffffffffffff1691506dffffffffffffffffffffffffffff169150826001600160a01b0316876001600160a01b031614614d26578082614d29565b81815b90999098509650505050505050565b6000808411614daf5760405162461bcd60e51b815260206004820152602b60248201527f556e697377617056324c6962726172793a20494e53554646494349454e545f4960448201527f4e5055545f414d4f554e540000000000000000000000000000000000000000006064820152608401610bd6565b600083118015614dbf5750600082115b614e315760405162461bcd60e51b815260206004820152602860248201527f556e697377617056324c6962726172793a20494e53554646494349454e545f4c60448201527f49515549444954590000000000000000000000000000000000000000000000006064820152608401610bd6565b6000614e3f856103e5615e8c565b90506000614e4d8483615e8c565b9050600082614e5e876103e8615e8c565b614e689190615e54565b9050614e748183615e6c565b979650505050505050565b6001600160a01b038216600090815260068401602052604090205460ff16614eea57600483018054600181018255600091825260209091200180547fffffffffffffffffffffffff0000000000000000000000000000000000000000166001600160a01b0384161790555b6001600160a01b038216600090815260058401602052604081208054839290614f14908490615e54565b9091555050505050565b600080614f2c836000614a96565b90506000614f3b846000614a83565b905060075482614f4b9190615e8c565b6064600754614f5a9190615eab565b614f649083615e8c565b1015949350505050565b600080614fac606660009081526020527f422cccb7cea5c0e46f340bb7b21b81debac329f72e31669c20ff0f3a05cc2b5b546001600160a01b031690565b6040517fe5ea66060000000000000000000000000000000000000000000000000000000081526001600160a01b038781166004830152919091169063e5ea66069060240160206040518083038186803b15801561500857600080fd5b505afa15801561501c573d6000803e3d6000fd5b505050506040513d601f19601f820116820180604052508101906150409190615cab565b6001600160a01b038616600090815260208590526040812054919250906150678387615e8c565b6150719190615e6c565b9050612f6c86826109fb565b60008084116150f45760405162461bcd60e51b815260206004820152602c60248201527f556e697377617056324c6962726172793a20494e53554646494349454e545f4f60448201527f55545055545f414d4f554e5400000000000000000000000000000000000000006064820152608401610bd6565b6000831180156151045750600082115b6151765760405162461bcd60e51b815260206004820152602860248201527f556e697377617056324c6962726172793a20494e53554646494349454e545f4c60448201527f49515549444954590000000000000000000000000000000000000000000000006064820152608401610bd6565b60006151828585615e8c565b61518e906103e8615e8c565b905060006103e561519f8786615eab565b6151a99190615eab565b90506151b58183615e6c565b612f6c906001615e54565b6151ce8383836004546138ae565b5050439055565b6000806151e3836001614a96565b905060006151f2846001614a83565b9050816008546152029190615e8c565b614f64826064615e8c565b60007f00000000000000000000000000000000000000000000000000000000000000006001600160a01b0316836001600160a01b03161415615250575080610b5b565b6001600160a01b0383166000908152600260205260408120906152a4606760009081526020527f682158d08466d11c566d5712d4396197fdd67e65be71d83c97ef719ec468867b546001600160a01b031690565b6001600160a01b031663808f671385600085600201866004016040518563ffffffff1660e01b81526004016152dc9493929190615db0565b600060405180830381600087803b1580156152f657600080fd5b505af115801561530a573d6000803e3d6000fd5b505050506040513d6000823e601f3d9081017fffffffffffffffffffffffffffffffffffffffffffffffffffffffffffffffe0168201604052610b199190810190615b7f565b60007f00000000000000000000000000000000000000000000000000000000000000006001600160a01b0316836001600160a01b03161415615393575080610b5b565b6001600160a01b0383166000908152600260205260408120906153e7606760009081526020527f682158d08466d11c566d5712d4396197fdd67e65be71d83c97ef719ec468867b546001600160a01b031690565b6001600160a01b0316634a2975998560001985600301866005016040518563ffffffff1660e01b81526004016154209493929190615db0565b600060405180830381600087803b15801561543a57600080fd5b505af115801561544e573d6000803e3d6000fd5b505050506040513d6000823e601f3d9081017fffffffffffffffffffffffffffffffffffffffffffffffffffffffffffffffe01682016040526154949190810190615b7f565b9050806000815181106154b757634e487b7160e01b600052603260045260246000fd5b602002602001015192505050610b5b565b8254600090815b81811015611ce55760008682815481106154f957634e487b7160e01b600052603260045260246000fd5b60009182526020808320909101546001600160a01b03168083529088905260409091205490915061552c90829087611d6c565b6155369085615e54565b935050808061554490615ed9565b9150506154cf565b8354600090815b818110156155d157600087828154811061557d57634e487b7160e01b600052603260045260246000fd5b60009182526020808320909101546001600160a01b0316808352908990526040909120549091506155b190829088886156c5565b6155bb9085615e54565b93505080806155c990615ed9565b915050615553565b5050949350505050565b600080826001600160a01b0316846001600160a01b031614156156405760405162461bcd60e51b815260206004820152601260248201527f4964656e746963616c20616464726573732100000000000000000000000000006044820152606401610bd6565b826001600160a01b0316846001600160a01b031610615660578284615663565b83835b90925090506001600160a01b0382166156be5760405162461bcd60e51b815260206004820152600d60248201527f5a65726f206164647265737321000000000000000000000000000000000000006044820152606401610bd6565b9250929050565b600080615703606660009081526020527f422cccb7cea5c0e46f340bb7b21b81debac329f72e31669c20ff0f3a05cc2b5b546001600160a01b031690565b6040517fe5ea66060000000000000000000000000000000000000000000000000000000081526001600160a01b038881166004830152919091169063e5ea66069060240160206040518083038186803b15801561575f57600080fd5b505afa158015615773573d6000803e3d6000fd5b505050506040513d601f19601f820116820180604052508101906157979190615cab565b6001600160a01b038716600090815260208690526040812054919250906157be8388615e8c565b6157c89190615e6c565b9050614e74878286611d6c565b828054828255906000526020600020908101928215615842579160200282015b8281111561584257825182547fffffffffffffffffffffffff0000000000000000000000000000000000000000166001600160a01b039091161782556020909201916001909101906157f5565b5061584e929150615873565b5090565b50805460008255906000526020600020908101906158709190615873565b50565b5b8082111561584e5760008155600101615874565b600082601f830112615898578081fd5b813560206158ad6158a883615e30565b615de1565b80838252828201915082860187848660051b89010111156158cc578586fd5b855b858110156158f35781356158e181615f20565b845292840192908401906001016158ce565b5090979650505050505050565b80516dffffffffffffffffffffffffffff81168114610ec557600080fd5b60006020828403121561592f578081fd5b8135611e2381615f20565b60006020828403121561594b578081fd5b8151611e2381615f20565b600080600080600060a0868803121561596d578081fd5b853561597881615f20565b9450602086013561598881615f20565b9350604086013561599881615f20565b94979396509394606081013594506080013592915050565b6000806000606084860312156159c4578283fd5b83356159cf81615f20565b925060208401356159df81615f20565b929592945050506040919091013590565b600080600080600060a08688031215615a07578081fd5b8535615a1281615f20565b94506020860135615a2281615f20565b9350604086013592506060860135615a3981615f20565b949793965091946080013592915050565b60008060408385031215615a5c578182fd5b8235615a6781615f20565b946020939093013593505050565b60008060408385031215615a87578182fd5b8251615a9281615f20565b6020939093015192949293505050565b600080600060608486031215615ab6578283fd5b8335615ac181615f20565b9250602084013591506040840135615ad881615f35565b809150509250925092565b600060208284031215615af4578081fd5b813567ffffffffffffffff811115615b0a578182fd5b615b1684828501615888565b949350505050565b60008060408385031215615b30578182fd5b823567ffffffffffffffff80821115615b47578384fd5b615b5386838701615888565b93506020850135915080821115615b68578283fd5b50615b7585828601615888565b9150509250929050565b60006020808385031215615b91578182fd5b825167ffffffffffffffff811115615ba7578283fd5b8301601f81018513615bb7578283fd5b8051615bc56158a882615e30565b80828252848201915084840188868560051b8701011115615be4578687fd5b8694505b83851015615c06578051835260019490940193918501918501615be8565b50979650505050505050565b600060208284031215615c23578081fd5b8151611e2381615f35565b600080600060608486031215615c42578081fd5b615c4b84615900565b9250615c5960208501615900565b9150604084015163ffffffff81168114615ad8578182fd5b600060208284031215615c82578081fd5b813561ffff81168114611e23578182fd5b600060208284031215615ca4578081fd5b5035919050565b600060208284031215615cbc578081fd5b5051919050565b60008060408385031215615cd5578182fd5b823591506020830135615ce781615f20565b809150509250929050565b6000815480845260208085019450838352808320835b83811015615d2d5781546001600160a01b031687529582019560019182019101615d08565b509495945050505050565b604080825283519082018190526000906020906060840190828701845b82811015615d7c5781516001600160a01b0316845260208401935090840190600101615d55565b50505083810382850152845180825285830191830190845b818110156158f357835183529284019291840191600101615d94565b600085825284602083015260806040830152615dcf6080830185615cf2565b8281036060840152614e748185615cf2565b604051601f82017fffffffffffffffffffffffffffffffffffffffffffffffffffffffffffffffe016810167ffffffffffffffff81118282101715615e2857615e28615f0a565b604052919050565b600067ffffffffffffffff821115615e4a57615e4a615f0a565b5060051b60200190565b60008219821115615e6757615e67615ef4565b500190565b600082615e8757634e487b7160e01b81526012600452602481fd5b500490565b6000816000190483118215151615615ea657615ea6615ef4565b500290565b600082821015615ebd57615ebd615ef4565b500390565b600081615ed157615ed1615ef4565b506000190190565b6000600019821415615eed57615eed615ef4565b5060010190565b634e487b7160e01b600052601160045260246000fd5b634e487b7160e01b600052604160045260246000fd5b6001600160a01b038116811461587057600080fd5b801515811461587057600080fdfea2646970667358221220209203ef7a914091f8cf8c069e862129719233900975cb6c7cc978cd84030f0264736f6c63430008030033",
  "linkReferences": {},
  "deployedLinkReferences": {}
}