{
  "_format": "hh-sol-artifact-1",
  "contractName": "CrossMarginTrading",
  "sourceName": "contracts/CrossMarginTrading.sol",
  "abi": [
    {
      "inputs": [
        {
          "internalType": "address",
          "name": "_peg",
          "type": "address"
        },
        {
          "internalType": "address",
          "name": "_amm1Factory",
          "type": "address"
        },
        {
          "internalType": "address",
          "name": "_amm2Factory",
          "type": "address"
        },
        {
          "internalType": "address",
          "name": "_amm3Factory",
          "type": "address"
        },
        {
          "internalType": "bytes32",
          "name": "_amm1InitHash",
          "type": "bytes32"
        },
        {
          "internalType": "bytes32",
          "name": "_amm2InitHash",
          "type": "bytes32"
        },
        {
          "internalType": "bytes32",
          "name": "_amm3InitHash",
          "type": "bytes32"
        },
        {
          "internalType": "address",
          "name": "_roles",
          "type": "address"
        }
      ],
      "stateMutability": "nonpayable",
      "type": "constructor"
    },
    {
      "anonymous": false,
      "inputs": [
        {
          "indexed": false,
          "internalType": "address",
          "name": "account",
          "type": "address"
        }
      ],
      "name": "AccountLiquidated",
      "type": "event"
    },
    {
      "anonymous": false,
      "inputs": [
        {
          "indexed": false,
          "internalType": "uint256",
          "name": "amount",
          "type": "uint256"
        }
      ],
      "name": "LiquidationShortfall",
      "type": "event"
    },
    {
      "inputs": [],
      "name": "MAINTAINER_CUT_PERCENT",
      "outputs": [
        {
          "internalType": "uint256",
          "name": "",
          "type": "uint256"
        }
      ],
      "stateMutability": "view",
      "type": "function"
    },
    {
      "inputs": [],
      "name": "UPDATE_RATE_PERMIL",
      "outputs": [
        {
          "internalType": "uint256",
          "name": "",
          "type": "uint256"
        }
      ],
      "stateMutability": "view",
      "type": "function"
    },
    {
      "inputs": [
        {
          "internalType": "uint256",
          "name": "_priceUpdateWindow",
          "type": "uint256"
        },
        {
          "internalType": "uint256",
          "name": "_updateRatePermil",
          "type": "uint256"
        },
        {
          "internalType": "uint256",
          "name": "_voluntaryUpdateWindow",
          "type": "uint256"
        }
      ],
      "name": "addVolatilitySetting",
      "outputs": [],
      "stateMutability": "nonpayable",
      "type": "function"
    },
    {
      "inputs": [],
      "name": "amm1Factory",
      "outputs": [
        {
          "internalType": "address",
          "name": "",
          "type": "address"
        }
      ],
      "stateMutability": "view",
      "type": "function"
    },
    {
      "inputs": [],
      "name": "amm1InitHash",
      "outputs": [
        {
          "internalType": "bytes32",
          "name": "",
          "type": "bytes32"
        }
      ],
      "stateMutability": "view",
      "type": "function"
    },
    {
      "inputs": [],
      "name": "amm2Factory",
      "outputs": [
        {
          "internalType": "address",
          "name": "",
          "type": "address"
        }
      ],
      "stateMutability": "view",
      "type": "function"
    },
    {
      "inputs": [],
      "name": "amm2InitHash",
      "outputs": [
        {
          "internalType": "bytes32",
          "name": "",
          "type": "bytes32"
        }
      ],
      "stateMutability": "view",
      "type": "function"
    },
    {
      "inputs": [],
      "name": "amm3Factory",
      "outputs": [
        {
          "internalType": "address",
          "name": "",
          "type": "address"
        }
      ],
      "stateMutability": "view",
      "type": "function"
    },
    {
      "inputs": [],
      "name": "amm3InitHash",
      "outputs": [
        {
          "internalType": "bytes32",
          "name": "",
          "type": "bytes32"
        }
      ],
      "stateMutability": "view",
      "type": "function"
    },
    {
      "inputs": [],
      "name": "avgLiquidationPerCall",
      "outputs": [
        {
          "internalType": "uint256",
          "name": "",
          "type": "uint256"
        }
      ],
      "stateMutability": "view",
      "type": "function"
    },
    {
      "inputs": [
        {
          "internalType": "address",
          "name": "trader",
          "type": "address"
        }
      ],
      "name": "canBeLiquidated",
      "outputs": [
        {
          "internalType": "bool",
          "name": "",
          "type": "bool"
        }
      ],
      "stateMutability": "view",
      "type": "function"
    },
    {
      "inputs": [
        {
          "internalType": "uint256",
          "name": "index",
          "type": "uint256"
        }
      ],
      "name": "chooseVolatilitySetting",
      "outputs": [],
      "stateMutability": "nonpayable",
      "type": "function"
    },
    {
      "inputs": [],
      "name": "coolingOffPeriod",
      "outputs": [
        {
          "internalType": "uint256",
          "name": "",
          "type": "uint256"
        }
      ],
      "stateMutability": "view",
      "type": "function"
    },
    {
      "inputs": [
        {
          "internalType": "address[]",
          "name": "liquidatedAccounts",
          "type": "address[]"
        }
      ],
      "name": "disburseLiqStakeAttacks",
      "outputs": [],
      "stateMutability": "nonpayable",
      "type": "function"
    },
    {
      "inputs": [],
      "name": "failureThreshold",
      "outputs": [
        {
          "internalType": "uint256",
          "name": "",
          "type": "uint256"
        }
      ],
      "stateMutability": "view",
      "type": "function"
    },
    {
      "inputs": [
        {
          "internalType": "address",
          "name": "trader",
          "type": "address"
        }
      ],
      "name": "getBorrowAmounts",
      "outputs": [
        {
          "internalType": "address[]",
          "name": "borrowTokens",
          "type": "address[]"
        },
        {
          "internalType": "uint256[]",
          "name": "borrowAmounts",
          "type": "uint256[]"
        }
      ],
      "stateMutability": "view",
      "type": "function"
    },
    {
      "inputs": [
        {
          "internalType": "address",
          "name": "token",
          "type": "address"
        },
        {
          "internalType": "uint256",
          "name": "inAmount",
          "type": "uint256"
        },
        {
          "internalType": "bool",
          "name": "voluntary",
          "type": "bool"
        }
      ],
      "name": "getCurrentPriceInPeg",
      "outputs": [
        {
          "internalType": "uint256",
          "name": "priceInPeg",
          "type": "uint256"
        }
      ],
      "stateMutability": "nonpayable",
      "type": "function"
    },
    {
      "inputs": [
        {
          "internalType": "address",
          "name": "trader",
          "type": "address"
        }
      ],
      "name": "getHoldingAmounts",
      "outputs": [
        {
          "internalType": "address[]",
          "name": "holdingTokens",
          "type": "address[]"
        },
        {
          "internalType": "uint256[]",
          "name": "holdingAmounts",
          "type": "uint256[]"
        }
      ],
      "stateMutability": "view",
      "type": "function"
    },
    {
      "inputs": [],
      "name": "leveragePercent",
      "outputs": [
        {
          "internalType": "uint256",
          "name": "",
          "type": "uint256"
        }
      ],
      "stateMutability": "view",
      "type": "function"
    },
    {
      "inputs": [],
      "name": "liqStakeAttackWindow",
      "outputs": [
        {
          "internalType": "uint256",
          "name": "",
          "type": "uint256"
        }
      ],
      "stateMutability": "view",
      "type": "function"
    },
    {
      "inputs": [
        {
          "internalType": "address[]",
          "name": "liquidationCandidates",
          "type": "address[]"
        }
      ],
      "name": "liquidate",
      "outputs": [
        {
          "internalType": "uint256",
          "name": "maintainerCut",
          "type": "uint256"
        }
      ],
      "stateMutability": "nonpayable",
      "type": "function"
    },
    {
      "inputs": [],
      "name": "liquidationThresholdPercent",
      "outputs": [
        {
          "internalType": "uint256",
          "name": "",
          "type": "uint256"
        }
      ],
      "stateMutability": "view",
      "type": "function"
    },
    {
      "inputs": [
        {
          "internalType": "uint256",
          "name": "",
          "type": "uint256"
        }
      ],
      "name": "mainCharacterCache",
      "outputs": [
        {
          "internalType": "address",
          "name": "",
          "type": "address"
        }
      ],
      "stateMutability": "view",
      "type": "function"
    },
    {
      "inputs": [
        {
          "internalType": "address",
          "name": "",
          "type": "address"
        }
      ],
      "name": "maintenanceFailures",
      "outputs": [
        {
          "internalType": "uint256",
          "name": "",
          "type": "uint256"
        }
      ],
      "stateMutability": "view",
      "type": "function"
    },
    {
      "inputs": [
        {
          "internalType": "address",
          "name": "",
          "type": "address"
        },
        {
          "internalType": "address",
          "name": "",
          "type": "address"
        }
      ],
      "name": "pairPrices",
      "outputs": [
        {
          "internalType": "uint256",
          "name": "cumulative",
          "type": "uint256"
        },
        {
          "internalType": "uint256",
          "name": "lastUpdated",
          "type": "uint256"
        },
        {
          "internalType": "uint256",
          "name": "priceFP",
          "type": "uint256"
        }
      ],
      "stateMutability": "view",
      "type": "function"
    },
    {
      "inputs": [],
      "name": "peg",
      "outputs": [
        {
          "internalType": "address",
          "name": "",
          "type": "address"
        }
      ],
      "stateMutability": "view",
      "type": "function"
    },
    {
      "inputs": [],
      "name": "priceUpdateWindow",
      "outputs": [
        {
          "internalType": "uint256",
          "name": "",
          "type": "uint256"
        }
      ],
      "stateMutability": "view",
      "type": "function"
    },
    {
      "inputs": [
        {
          "internalType": "address",
          "name": "trader",
          "type": "address"
        },
        {
          "internalType": "address",
          "name": "borrowToken",
          "type": "address"
        },
        {
          "internalType": "uint256",
          "name": "borrowAmount",
          "type": "uint256"
        }
      ],
      "name": "registerBorrow",
      "outputs": [],
      "stateMutability": "nonpayable",
      "type": "function"
    },
    {
      "inputs": [
        {
          "internalType": "address",
          "name": "trader",
          "type": "address"
        },
        {
          "internalType": "address",
          "name": "token",
          "type": "address"
        },
        {
          "internalType": "uint256",
          "name": "depositAmount",
          "type": "uint256"
        }
      ],
      "name": "registerDeposit",
      "outputs": [
        {
          "internalType": "uint256",
          "name": "extinguishableDebt",
          "type": "uint256"
        }
      ],
      "stateMutability": "nonpayable",
      "type": "function"
    },
    {
      "inputs": [
        {
          "internalType": "address",
          "name": "trader",
          "type": "address"
        }
      ],
      "name": "registerLiquidation",
      "outputs": [],
      "stateMutability": "nonpayable",
      "type": "function"
    },
    {
      "inputs": [
        {
          "internalType": "address",
          "name": "trader",
          "type": "address"
        },
        {
          "internalType": "address",
          "name": "depositToken",
          "type": "address"
        },
        {
          "internalType": "uint256",
          "name": "depositAmount",
          "type": "uint256"
        },
        {
          "internalType": "address",
          "name": "borrowToken",
          "type": "address"
        },
        {
          "internalType": "uint256",
          "name": "withdrawAmount",
          "type": "uint256"
        }
      ],
      "name": "registerOvercollateralizedBorrow",
      "outputs": [],
      "stateMutability": "nonpayable",
      "type": "function"
    },
    {
      "inputs": [
        {
          "internalType": "address",
          "name": "trader",
          "type": "address"
        },
        {
          "internalType": "address",
          "name": "borrowToken",
          "type": "address"
        },
        {
          "internalType": "uint256",
          "name": "borrowAmount",
          "type": "uint256"
        }
      ],
      "name": "registerRawBorrow",
      "outputs": [],
      "stateMutability": "nonpayable",
      "type": "function"
    },
    {
      "inputs": [
        {
          "internalType": "address",
          "name": "trader",
          "type": "address"
        },
        {
          "internalType": "address",
          "name": "tokenFrom",
          "type": "address"
        },
        {
          "internalType": "address",
          "name": "tokenTo",
          "type": "address"
        },
        {
          "internalType": "uint256",
          "name": "inAmount",
          "type": "uint256"
        },
        {
          "internalType": "uint256",
          "name": "outAmount",
          "type": "uint256"
        }
      ],
      "name": "registerTradeAndBorrow",
      "outputs": [
        {
          "internalType": "uint256",
          "name": "extinguishableDebt",
          "type": "uint256"
        },
        {
          "internalType": "uint256",
          "name": "borrowAmount",
          "type": "uint256"
        }
      ],
      "stateMutability": "nonpayable",
      "type": "function"
    },
    {
      "inputs": [
        {
          "internalType": "address",
          "name": "trader",
          "type": "address"
        },
        {
          "internalType": "address",
          "name": "withdrawToken",
          "type": "address"
        },
        {
          "internalType": "uint256",
          "name": "withdrawAmount",
          "type": "uint256"
        }
      ],
      "name": "registerWithdrawal",
      "outputs": [],
      "stateMutability": "nonpayable",
      "type": "function"
    },
    {
      "inputs": [
        {
          "internalType": "address",
          "name": "",
          "type": "address"
        },
        {
          "internalType": "uint256",
          "name": "",
          "type": "uint256"
        }
      ],
      "name": "roleCache",
      "outputs": [
        {
          "internalType": "bool",
          "name": "",
          "type": "bool"
        }
      ],
      "stateMutability": "view",
      "type": "function"
    },
    {
      "inputs": [],
      "name": "roles",
      "outputs": [
        {
          "internalType": "contract Roles",
          "name": "",
          "type": "address"
        }
      ],
      "stateMutability": "view",
      "type": "function"
    },
    {
      "inputs": [
        {
          "internalType": "uint256",
          "name": "blocks",
          "type": "uint256"
        }
      ],
      "name": "setCoolingOffPeriod",
      "outputs": [],
      "stateMutability": "nonpayable",
      "type": "function"
    },
    {
      "inputs": [
        {
          "internalType": "uint256",
          "name": "threshFactor",
          "type": "uint256"
        }
      ],
      "name": "setFailureThreshold",
      "outputs": [],
      "stateMutability": "nonpayable",
      "type": "function"
    },
    {
      "inputs": [
        {
          "internalType": "uint256",
          "name": "_leveragePercent",
          "type": "uint256"
        }
      ],
      "name": "setLeveragePercent",
      "outputs": [],
      "stateMutability": "nonpayable",
      "type": "function"
    },
    {
      "inputs": [
        {
          "internalType": "uint256",
          "name": "window",
          "type": "uint256"
        }
      ],
      "name": "setLiqStakeAttackWindow",
      "outputs": [],
      "stateMutability": "nonpayable",
      "type": "function"
    },
    {
      "inputs": [
        {
          "internalType": "bytes32",
          "name": "amms",
          "type": "bytes32"
        },
        {
          "internalType": "address[]",
          "name": "tokens",
          "type": "address[]"
        }
      ],
      "name": "setLiquidationPath",
      "outputs": [],
      "stateMutability": "nonpayable",
      "type": "function"
    },
    {
      "inputs": [
        {
          "internalType": "uint256",
          "name": "threshold",
          "type": "uint256"
        }
      ],
      "name": "setLiquidationThresholdPercent",
      "outputs": [],
      "stateMutability": "nonpayable",
      "type": "function"
    },
    {
      "inputs": [
        {
          "internalType": "uint256",
          "name": "cut",
          "type": "uint256"
        }
      ],
      "name": "setMaintainerCutPercent",
      "outputs": [],
      "stateMutability": "nonpayable",
      "type": "function"
    },
    {
      "inputs": [
        {
          "internalType": "uint16",
          "name": "window",
          "type": "uint16"
        },
        {
          "internalType": "uint256",
          "name": "voluntaryWindow",
          "type": "uint256"
        }
      ],
      "name": "setPriceUpdateWindow",
      "outputs": [],
      "stateMutability": "nonpayable",
      "type": "function"
    },
    {
      "inputs": [
        {
          "internalType": "address",
          "name": "token",
          "type": "address"
        },
        {
          "internalType": "uint256",
          "name": "cap",
          "type": "uint256"
        }
      ],
      "name": "setTokenCap",
      "outputs": [],
      "stateMutability": "nonpayable",
      "type": "function"
    },
    {
      "inputs": [
        {
          "internalType": "uint256",
          "name": "rate",
          "type": "uint256"
        }
      ],
      "name": "setUpdateRate",
      "outputs": [],
      "stateMutability": "nonpayable",
      "type": "function"
    },
    {
      "inputs": [
        {
          "internalType": "address",
          "name": "",
          "type": "address"
        }
      ],
      "name": "stakeAttackRecords",
      "outputs": [
        {
          "internalType": "uint256",
          "name": "blockNum",
          "type": "uint256"
        },
        {
          "internalType": "address",
          "name": "loser",
          "type": "address"
        },
        {
          "internalType": "uint256",
          "name": "amount",
          "type": "uint256"
        },
        {
          "internalType": "address",
          "name": "stakeAttacker",
          "type": "address"
        }
      ],
      "stateMutability": "view",
      "type": "function"
    },
    {
      "inputs": [
        {
          "internalType": "address",
          "name": "",
          "type": "address"
        }
      ],
      "name": "tokenCaps",
      "outputs": [
        {
          "internalType": "uint256",
          "name": "",
          "type": "uint256"
        }
      ],
      "stateMutability": "view",
      "type": "function"
    },
    {
      "inputs": [
        {
          "internalType": "address",
          "name": "",
          "type": "address"
        }
      ],
      "name": "tokenPrices",
      "outputs": [
        {
          "internalType": "uint256",
          "name": "lastUpdated",
          "type": "uint256"
        },
        {
          "internalType": "uint256",
          "name": "priceFP",
          "type": "uint256"
        },
        {
          "internalType": "bytes32",
          "name": "amms",
          "type": "bytes32"
        },
        {
          "internalType": "bytes32",
          "name": "inverseAmms",
          "type": "bytes32"
        }
      ],
      "stateMutability": "view",
      "type": "function"
    },
    {
      "inputs": [
        {
          "internalType": "address",
          "name": "",
          "type": "address"
        }
      ],
      "name": "totalLong",
      "outputs": [
        {
          "internalType": "uint256",
          "name": "",
          "type": "uint256"
        }
      ],
      "stateMutability": "view",
      "type": "function"
    },
    {
      "inputs": [
        {
          "internalType": "uint256",
          "name": "role",
          "type": "uint256"
        }
      ],
      "name": "updateMainCharacterCache",
      "outputs": [],
      "stateMutability": "nonpayable",
      "type": "function"
    },
    {
      "inputs": [
        {
          "internalType": "uint256",
          "name": "role",
          "type": "uint256"
        },
        {
          "internalType": "address",
          "name": "contr",
          "type": "address"
        }
      ],
      "name": "updateRoleCache",
      "outputs": [],
      "stateMutability": "nonpayable",
      "type": "function"
    },
    {
      "inputs": [
        {
          "internalType": "address",
          "name": "trader",
          "type": "address"
        },
        {
          "internalType": "address",
          "name": "token",
          "type": "address"
        }
      ],
      "name": "viewBalanceInToken",
      "outputs": [
        {
          "internalType": "uint256",
          "name": "",
          "type": "uint256"
        }
      ],
      "stateMutability": "view",
      "type": "function"
    },
    {
      "inputs": [
        {
          "internalType": "address",
          "name": "token",
          "type": "address"
        },
        {
          "internalType": "uint256",
          "name": "inAmount",
          "type": "uint256"
        }
      ],
      "name": "viewCurrentPriceInPeg",
      "outputs": [
        {
          "internalType": "uint256",
          "name": "priceInPeg",
          "type": "uint256"
        }
      ],
      "stateMutability": "view",
      "type": "function"
    },
    {
      "inputs": [
        {
          "internalType": "address",
          "name": "trader",
          "type": "address"
        }
      ],
      "name": "viewHoldingsInPeg",
      "outputs": [
        {
          "internalType": "uint256",
          "name": "",
          "type": "uint256"
        }
      ],
      "stateMutability": "view",
      "type": "function"
    },
    {
      "inputs": [
        {
          "internalType": "address",
          "name": "trader",
          "type": "address"
        }
      ],
      "name": "viewLoanInPeg",
      "outputs": [
        {
          "internalType": "uint256",
          "name": "amount",
          "type": "uint256"
        }
      ],
      "stateMutability": "view",
      "type": "function"
    },
    {
      "inputs": [
        {
          "internalType": "uint256",
          "name": "",
          "type": "uint256"
        }
      ],
      "name": "volatilitySettings",
      "outputs": [
        {
          "internalType": "uint256",
          "name": "priceUpdateWindow",
          "type": "uint256"
        },
        {
          "internalType": "uint256",
          "name": "updateRatePermil",
          "type": "uint256"
        },
        {
          "internalType": "uint256",
          "name": "voluntaryUpdateWindow",
          "type": "uint256"
        }
      ],
      "stateMutability": "view",
      "type": "function"
    },
    {
      "inputs": [],
      "name": "voluntaryUpdateWindow",
      "outputs": [
        {
          "internalType": "uint256",
          "name": "",
          "type": "uint256"
        }
      ],
      "stateMutability": "view",
      "type": "function"
    }
  ],
  "bytecode": "0x6101206040526104b060075561012c60085561019060095561012c600b556073600c55600a601055600a60165560056017556005601855600a6019553480156200004857600080fd5b5060405162006362380380620063628339810160408190526200006b9162000145565b87878787878787876001600160a01b038116620000d95760405162461bcd60e51b815260206004820152602260248201527f506c656173652070726f766964652076616c696420726f6c6573206164647265604482015261737360f01b606482015260840160405180910390fd5b6001600160601b0319606091821b811660805296811b871660a05294851b861660c05292841b851660e0526002919091556003556004559190911b166101005250620001d19650505050505050565b80516001600160a01b03811681146200014057600080fd5b919050565b600080600080600080600080610100898b03121562000162578384fd5b6200016d8962000128565b97506200017d60208a0162000128565b96506200018d60408a0162000128565b95506200019d60608a0162000128565b94506080890151935060a0890151925060c08901519150620001c260e08a0162000128565b90509295985092959890939650565b60805160601c60a05160601c60c05160601c60e05160601c6101005160601c6160d46200028e6000396000818161047101528181610b7801528181610fbc01528181611bf001528181612068015281816123820152818161251f0152818161313601528181615376015261550001526000610892015260008181610398015261502901526000818161078c015261516301526000818161056f015281816109b4015281816117990152818161334e01526133e601526160d46000f3fe608060405234801561001057600080fd5b506004361061038e5760003560e01c80637a1a04df116101de578063bc70c6661161010f578063df7c20f9116100ad578063ef859fc81161007c578063ef859fc81461090f578063f04c68651461094c578063f3f5f9b51461095f578063f99fd97c146109725761038e565b8063df7c20f9146108b4578063e0f3871f146108bd578063e2abb5c4146108dd578063e9c3f77d146108e65761038e565b8063d0eb6653116100e9578063d0eb665314610854578063d510c53514610867578063db2d904d1461087a578063db4292351461088d5761038e565b8063bc70c6661461081b578063c73afac21461082e578063c74303aa146108415761038e565b8063a53ac0d91161017c578063a985994b11610156578063a985994b14610761578063b25b454814610774578063b852eb0d14610787578063badb5048146107ae5761038e565b8063a53ac0d91461072f578063a75208a814610738578063a75697a5146107415761038e565b80639c56522c116101b85780639c56522c146106ed578063a17ab527146106f6578063a20ec49314610709578063a37189191461071c5761038e565b80637a1a04df146106615780637d100e841461068f5780638dc6a529146106985761038e565b8063320d2fa0116102c3578063498d55eb11610261578063538edb2911610230578063538edb291461062957806354554b581461063257806360b3fa40146106455780636585b5a6146106585761038e565b8063498d55eb146105f15780634aa4aca314610604578063519bda851461060d57806352a664d9146106165761038e565b80633ed456fa1161029d5780633ed456fa14610591578063409fdb721461059a578063447d52ba146105bb57806347788cd0146105ce5761038e565b8063320d2fa0146105395780633500aa0b14610542578063392f5f641461056a5761038e565b80631d84cc1811610330578063204120bc1161030a578063204120bc146104a657806320c27126146104fd5780632b23f8571461051d5780632febaa74146105305761038e565b80631d84cc18146104595780631f1cb62b1461046c5780631f692a64146104935761038e565b8063093a483a1161036c578063093a483a146103ff57806310d584341461042057806316317e7e146104335780631d47e4a3146104465761038e565b8063059b157a14610393578063071060a6146103d757806307c20175146103ec575b600080fd5b6103ba7f000000000000000000000000000000000000000000000000000000000000000081565b6040516001600160a01b0390911681526020015b60405180910390f35b6103ea6103e5366004615d92565b610985565b005b6103ea6103fa366004615bfd565b610a7c565b61041261040d366004615b64565b610b74565b6040519081526020016103ce565b6103ea61042e366004615d92565b610c03565b6103ea610441366004615d92565b610c86565b6103ea610454366004615b64565b610d04565b6103ea610467366004615b0a565b610de5565b6103ba7f000000000000000000000000000000000000000000000000000000000000000081565b6104126104a1366004615a00565b610e93565b6104dd6104b4366004615a00565b600560208190526000918252604090912080546001820154600383015492909301549092919084565b6040805194855260208501939093529183015260608201526080016103ce565b61041261050b366004615a00565b600f6020526000908152604090205481565b6103ea61052b366004615ce7565b610ec8565b61041260105481565b610412600c5481565b610555610550366004615a70565b61129f565b604080519283526020830191909152016103ce565b6103ba7f000000000000000000000000000000000000000000000000000000000000000081565b61041260075481565b6105ad6105a8366004615a00565b6115e3565b6040516103ce929190615e7a565b6103ea6105c9366004615dc2565b61175a565b6105e16105dc366004615a00565b611869565b60405190151581526020016103ce565b6103ea6105ff366004615aca565b6118d0565b61041260175481565b61041260095481565b610412610624366004615aca565b61196f565b61041260185481565b6103ea610640366004615d92565b611b6e565b610412610653366004615bbc565b611bec565b61041260165481565b6105e161066f366004615b64565b600160209081526000928352604080842090915290825290205460ff1681565b61041260195481565b6106d26106a6366004615a38565b600660209081526000928352604080842090915290825290208054600182015460029092015490919083565b604080519384526020840192909252908201526060016103ce565b61041260085481565b610412610704366004615a00565b611d36565b6103ea610717366004615d6f565b611d5e565b6103ea61072a366004615d92565b611de5565b610412600b5481565b61041260025481565b61041261074f366004615a00565b60146020526000908152604090205481565b61041261076f366004615bfd565b611e63565b6103ea610782366004615aca565b6126f6565b6103ba7f000000000000000000000000000000000000000000000000000000000000000081565b6107f06107bc366004615a00565b601560205260009081526040902080546001820154600283015460039093015491926001600160a01b039182169290911684565b604080519485526001600160a01b0393841660208601528401919091521660608201526080016103ce565b6106d2610829366004615d92565b6128ba565b6103ea61083c366004615d92565b6128ed565b6103ea61084f366004615d92565b61296b565b6103ea610862366004615aca565b6129e9565b6105ad610875366004615a00565b612a77565b6103ea610888366004615a00565b612cbb565b6103ba7f000000000000000000000000000000000000000000000000000000000000000081565b61041260035481565b6104126108cb366004615a00565b600e6020526000908152604090205481565b61041260045481565b6103ba6108f4366004615d92565b6000602081905290815260409020546001600160a01b031681565b61041261091d366004615a38565b6001600160a01b039182166000908152600d602090815260408083209390941682526005909201909152205490565b6103ea61095a366004615d92565b612d9d565b6103ea61096d366004615e09565b612ee1565b6103ea610980366004615d92565b612ffd565b6040517fb4ed0b6d000000000000000000000000000000000000000000000000000000008152600481018290527f00000000000000000000000000000000000000000000000000000000000000006001600160a01b03169063b4ed0b6d9060240160206040518083038186803b1580156109fe57600080fd5b505afa158015610a12573d6000803e3d6000fd5b505050506040513d601f19601f82011682018060405250810190610a369190615a1c565b60009182526020829052604090912080547fffffffffffffffffffffffff0000000000000000000000000000000000000000166001600160a01b03909216919091179055565b60005b8082511115610b70576000828281518110610aaa57634e487b7160e01b600052603260045260246000fd5b60200260200101519050600060156000836001600160a01b03166001600160a01b0316815260200190815260200160002090506017548160000154610aef9190615f8a565b431115610b5b57610aff8161307b565b506001600160a01b03821660009081526015602052604081208181556001810180547fffffffffffffffffffffffff00000000000000000000000000000000000000009081169091556002820192909255600301805490911690555b50508080610b6890616016565b915050610a7f565b5050565b60007f00000000000000000000000000000000000000000000000000000000000000006001600160a01b0316836001600160a01b03161415610bb7575080610bfd565b6001600160a01b038316600090815260056020526040902060018101546e010000000000000000000000000000610bee8286615fc2565b610bf89190615fa2565b925050505b92915050565b33610c0c61334a565b6001600160a01b03161480610c30575033610c256133e2565b6001600160a01b0316145b610c815760405162461bcd60e51b815260206004820152601e60248201527f526f6c65733a2063616c6c6572206973206e6f7420746865206f776e6572000060448201526064015b60405180910390fd5b601955565b33610c8f61334a565b6001600160a01b03161480610cb3575033610ca86133e2565b6001600160a01b0316145b610cff5760405162461bcd60e51b815260206004820152601e60248201527f526f6c65733a2063616c6c6572206973206e6f7420746865206f776e657200006044820152606401610c78565b600c55565b33610d0d61334a565b6001600160a01b03161480610d31575033610d266133e2565b6001600160a01b0316145b80610d5757503360009081526001602090815260408083206009845290915290205460ff165b610dc95760405162461bcd60e51b815260206004820152603960248201527f43616c6c6572206973206e6f7420746865206f776e65722c206578656375746f60448201527f72206f7220617574686f72697a656420616374697661746f72000000000000006064820152608401610c78565b6001600160a01b039091166000908152600e6020526040902055565b3360009081526001602090815260408083206004845290915290205460ff16610e505760405162461bcd60e51b815260206004820152601d60248201527f43616c6c696e6720636f6e74722e206e6f7420617574686f72697a65640000006044820152606401610c78565b6001600160a01b0385166000908152600d60205260409020610e73818686613453565b610e7e8184846134fe565b610e898184846135a9565b4390555050505050565b6001600160a01b0381166000908152600d60205260408120610ebf6001820160028301600384016136c9565b9150505b919050565b33610ed161334a565b6001600160a01b03161480610ef5575033610eea6133e2565b6001600160a01b0316145b80610f1b57503360009081526001602090815260408083206009845290915290205460ff165b610f8d5760405162461bcd60e51b815260206004820152603960248201527f43616c6c6572206973206e6f7420746865206f776e65722c206578656375746f60448201527f72206f7220617574686f72697a656420616374697661746f72000000000000006064820152608401610c78565b600081600081518110610fb057634e487b7160e01b600052603260045260246000fd5b602002602001015190507f00000000000000000000000000000000000000000000000000000000000000006001600160a01b0316816001600160a01b03161461129a576001600160a01b0381166000908152600560209081526040909120600381018590558351909161102a9160028401918601906158b7565b50825167ffffffffffffffff81111561105357634e487b7160e01b600052604160045260246000fd5b60405190808252806020026020018201604052801561107c578160200160208202803683370190505b5080516110939160048401916020909101906158b7565b506000805b80600186516110a79190615fff565b11156111bb576111358582815181106110d057634e487b7160e01b600052603260045260246000fd5b6020026020010151868360016110e69190615f8a565b8151811061110457634e487b7160e01b600052603260045260246000fd5b602002602001015188846020811061112c57634e487b7160e01b600052603260045260246000fd5b1a60f81b613756565b600081600287516111469190615fff565b6111509190615fff565b61115b906008615fc2565b87836020811061117b57634e487b7160e01b600052603260045260246000fd5b1a60f81b7fff0000000000000000000000000000000000000000000000000000000000000016901c929092179150806111b381616016565b915050611098565b506005820181905560005b8085511115611285578460018287516111df9190615fff565b6111e99190615fff565b8151811061120757634e487b7160e01b600052603260045260246000fd5b602002602001015183600401828154811061123257634e487b7160e01b600052603260045260246000fd5b600091825260209091200180547fffffffffffffffffffffffff0000000000000000000000000000000000000000166001600160a01b03929092169190911790558061127d81616016565b9150506111c6565b506112908486613a0e565b6001830155504290555b505050565b33600090815260016020908152604080832060048452909152812054819060ff1661130c5760405162461bcd60e51b815260206004820181905260248201527f43616c6c696e6720636f6e74722e206e6f7420616e20617574686f72697a65646044820152606401610c78565b6001600160a01b038088166000908152600d60209081526040808320938916835260028401909152902054156114875760008061137a606660009081526020527f422cccb7cea5c0e46f340bb7b21b81debac329f72e31669c20ff0f3a05cc2b5b546001600160a01b031690565b6001600160a01b03898116600081815260028701602090815260408083205460038a01909252918290205491517fe695fa6800000000000000000000000000000000000000000000000000000000815260048101919091526024810192909252604482015291169063e695fa68906064016040805180830381600087803b15801561140457600080fd5b505af1158015611418573d6000803e3d6000fd5b505050506040513d601f19601f8201168201806040525081019061143c9190615de6565b6001600160a01b038a166000908152600286016020908152604080832085905560038801909152902081905590925090506114778683613d61565b9450611484838987613d79565b50505b6001600160a01b03871660009081526005820160205260409020548590808211156114bc579050806114b98188615fff565b93505b838711156114fc576114ce8488615fff565b6001600160a01b038a166000908152600f6020526040812080549091906114f6908490615fff565b90915550505b8486111561153c5761150e8587615fff565b6001600160a01b0389166000908152600f602052604081208054909190611536908490615f8a565b90915550505b6001600160a01b0388166000908152600f6020908152604080832054600e9092529091205410156115af5760405162461bcd60e51b815260206004820152601860248201527f4578636565647320676c6f62616c20746f6b656e2063617000000000000000006044820152606401610c78565b6115c5838a8a856115c08a8c615fff565b61404a565b83156115d6576115d6838a86614096565b5050509550959350505050565b6001600160a01b0381166000908152600d602090815260409182902060048101805484518185028101850190955280855260609485949092919083018282801561165657602002820191906000526020600020905b81546001600160a01b03168152600190910190602001808311611638575b5050506004840154929550505067ffffffffffffffff81111561168957634e487b7160e01b600052604160045260246000fd5b6040519080825280602002602001820160405280156116b2578160200160208202803683370190505b50915060005b80845111156117535760008482815181106116e357634e487b7160e01b600052603260045260246000fd5b60200260200101519050826005016000826001600160a01b03166001600160a01b031681526020019081526020016000205484838151811061173557634e487b7160e01b600052603260045260246000fd5b6020908102919091010152508061174b81616016565b9150506116b8565b5050915091565b6040517f93552a3d000000000000000000000000000000000000000000000000000000008152600481018390526001600160a01b0382811660248301527f000000000000000000000000000000000000000000000000000000000000000016906393552a3d9060440160206040518083038186803b1580156117db57600080fd5b505afa1580156117ef573d6000803e3d6000fd5b505050506040513d601f19601f820116820180604052508101906118139190615ccb565b6001600160a01b039190911660009081526001602090815260408083209483529390529190912080547fffffffffffffffffffffffffffffffffffffffffffffffffffffffffffffff0016911515919091179055565b6001600160a01b0381166000908152600d60205260408120816118966001830160028401600385016136c9565b905060006118aa8360040184600501614350565b90506118b7816064615fc2565b82600c546118c59190615fc2565b101595945050505050565b3360009081526001602090815260408083206004845290915290205460ff1661193b5760405162461bcd60e51b815260206004820152601d60248201527f43616c6c696e6720636f6e74722e206e6f7420617574686f72697a65640000006044820152606401610c78565b6001600160a01b0383166000908152600d6020526040902061195e8184846143db565b6119698184846134fe565b50505050565b3360009081526001602090815260408083206004845290915281205460ff166119da5760405162461bcd60e51b815260206004820152601d60248201527f43616c6c696e6720636f6e74722e206e6f7420617574686f72697a65640000006044820152606401610c78565b6001600160a01b038085166000908152600d602090815260408083204381559387168352600284019091529020548015611b4b57600080611a4c606660009081526020527f422cccb7cea5c0e46f340bb7b21b81debac329f72e31669c20ff0f3a05cc2b5b546001600160a01b031690565b6001600160a01b038881166000818152600388016020526040908190205490517fe695fa68000000000000000000000000000000000000000000000000000000008152600481018890526024810192909252604482015291169063e695fa68906064016040805180830381600087803b158015611ac857600080fd5b505af1158015611adc573d6000803e3d6000fd5b505050506040513d601f19601f82011682018060405250810190611b009190615de6565b6001600160a01b038916600090815260028701602090815260408083208590556003890190915290208190559092509050611b3b8683613d61565b9450611b48848887613d79565b50505b6000611b578486615fff565b9050611b64838783613453565b5050509392505050565b33611b7761334a565b6001600160a01b03161480611b9b575033611b906133e2565b6001600160a01b0316145b611be75760405162461bcd60e51b815260206004820152601e60248201527f526f6c65733a2063616c6c6572206973206e6f7420746865206f776e657200006044820152606401610c78565b600955565b60007f00000000000000000000000000000000000000000000000000000000000000006001600160a01b0316846001600160a01b03161415611c2f575081611d2f565b6001600160a01b03841660009081526005602052604081208054909190611c569042615fff565b9050600754811180611c6a57506001820154155b80611c7e5750838015611c7e575060085481115b15611d00576000611cef83600201805480602002602001604051908101604052809291908181526020018280548015611ce057602002820191906000526020600020905b81546001600160a01b03168152600190910190602001808311611cc2575b50505050508460030154613a0e565b9050611cfe83826009546144b7565b505b6e010000000000000000000000000000826001015486611d209190615fc2565b611d2a9190615fa2565b925050505b9392505050565b6001600160a01b0381166000908152600d60205260408120610ebf6004820160058301614350565b33611d6761334a565b6001600160a01b03161480611d8b575033611d806133e2565b6001600160a01b0316145b611dd75760405162461bcd60e51b815260206004820152601e60248201527f526f6c65733a2063616c6c6572206973206e6f7420746865206f776e657200006044820152606401610c78565b61ffff909116600755600855565b33611dee61334a565b6001600160a01b03161480611e12575033611e076133e2565b6001600160a01b0316145b611e5e5760405162461bcd60e51b815260206004820152601e60248201527f526f6c65733a2063616c6c6572206973206e6f7420746865206f776e657200006044820152606401610c78565b601755565b6000333214611eda5760405162461bcd60e51b815260206004820152603a60248201527f43757272656e746c79206e6f20696e7465726d656469617269657320616c6c6f60448201527f77656420666f7220746869732066756e6374696f6e2063616c6c0000000000006064820152608401610c78565b6000611f17606b60009081526020527f2dc7a963308417ad45132da282495eb244f38a7db03940a4d808be607669c622546001600160a01b031690565b6040517f7b23cbce0000000000000000000000000000000000000000000000000000000081523360048201526001600160a01b039190911690637b23cbce90602401602060405180830381600087803b158015611f7357600080fd5b505af1158015611f87573d6000803e3d6000fd5b505050506040513d601f19601f82011682018060405250810190611fab9190615ccb565b905060008180611fbe5750611fbe6144ff565b9050611fca84836145df565b92506000611fd6614b41565b90506000611fe2614c17565b9050611ff060126000615934565b6000606460185460646120039190615f8a565b61200d9084615fc2565b6120179190615fa2565b905082811115612164577f3555ffae7677eb42103f0b9e11b61c758f452fae446684dec7a363dd38ab58fc61204c8483615fff565b60405190815260200160405180910390a18380156121615750807f00000000000000000000000000000000000000000000000000000000000000006001600160a01b03166370a082316120d0606560009081526020527f4a7203f705e51df4a56139a9b86b4a0970bed7ab7a3446eaffe2289989c1645c546001600160a01b031690565b6040517fffffffff0000000000000000000000000000000000000000000000000000000060e084901b1681526001600160a01b03909116600482015260240160206040518083038186803b15801561212757600080fd5b505afa15801561213b573d6000803e3d6000fd5b505050506040513d601f19601f8201168201806040525081019061215f9190615daa565b115b93505b60008461221557606b60009081526020527f2dc7a963308417ad45132da282495eb244f38a7db03940a4d808be607669c622546001600160a01b03166001600160a01b0316631a38de1d6040518163ffffffff1660e01b8152600401602060405180830381600087803b1580156121da57600080fd5b505af11580156121ee573d6000803e3d6000fd5b505050506040513d601f19601f820116820180604052508101906122129190615a1c565b90505b60005b60135481101561248a5760006013828154811061224557634e487b7160e01b600052603260045260246000fd5b60009182526020808320909101546001600160a01b0316808352600d909152604082209092509061227582614ce5565b9050600061228283614cf7565b905060006064601854836122969190615fc2565b6122a09190615fa2565b90506122ac818e615f8a565b9c508a612319576001600160a01b03858116600090815260156020526040902060028101839055600381018054337fffffffffffffffffffffffff000000000000000000000000000000000000000091821617909155438255600190910180549091169189169190911790555b60006064612328846065615fc2565b6123329190615fa2565b61233c9083615f8a565b90508084111561242c57606560009081526020527f4a7203f705e51df4a56139a9b86b4a0970bed7ab7a3446eaffe2289989c1645c546001600160a01b031663d9caed127f0000000000000000000000000000000000000000000000000000000000000000886123ac8589615fff565b6040517fffffffff0000000000000000000000000000000000000000000000000000000060e086901b1681526001600160a01b0393841660048201529290911660248301526044820152606401600060405180830381600087803b15801561241357600080fd5b505af1158015612427573d6000803e3d6000fd5b505050505b6040516001600160a01b03871681527f1d2cc4c8661a04a00b4e727426220501b36d85bb330947642c2d4320667028cf9060200160405180910390a161247185614d0d565b505050505050808061248290616016565b915050612218565b50606487601654606361249d9190615fc2565b6124a79190615f8a565b6124b19190615fa2565b601655841561259357606560009081526020527f4a7203f705e51df4a56139a9b86b4a0970bed7ab7a3446eaffe2289989c1645c546001600160a01b03166040517fd9caed120000000000000000000000000000000000000000000000000000000081526001600160a01b037f000000000000000000000000000000000000000000000000000000000000000081166004830152336024830152604482018a9052919091169063d9caed1290606401600060405180830381600087803b15801561257a57600080fd5b505af115801561258e573d6000803e3d6000fd5b505050505b60006125d0606b60009081526020527f2dc7a963308417ad45132da282495eb244f38a7db03940a4d808be607669c622546001600160a01b031690565b6001600160a01b0316631a38de1d6040518163ffffffff1660e01b8152600401602060405180830381600087803b15801561260a57600080fd5b505af115801561261e573d6000803e3d6000fd5b505050506040513d601f19601f820116820180604052508101906126429190615a1c565b905086156126bc576001600160a01b03811660009081526014602052604090205488101561269d576001600160a01b038116600090815260146020526040812080548a9290612692908490615fff565b909155506126b79050565b6001600160a01b0381166000908152601460205260408120555b6126ea565b6001600160a01b038116600090815260146020526040812080548a92906126e4908490615f8a565b90915550505b50505050505050919050565b336126ff61334a565b6001600160a01b031614806127235750336127186133e2565b6001600160a01b0316145b61276f5760405162461bcd60e51b815260206004820152601e60248201527f526f6c65733a2063616c6c6572206973206e6f7420746865206f776e657200006044820152606401610c78565b6001600160a01b038381166000908152600d60209081526040822060018082018054918201815584528284200180547fffffffffffffffffffffffff000000000000000000000000000000000000000016878616179055606683529190527f422cccb7cea5c0e46f340bb7b21b81debac329f72e31669c20ff0f3a05cc2b5b549091166040517f46c87f800000000000000000000000000000000000000000000000000000000081526001600160a01b03858116600483015291909116906346c87f8090602401602060405180830381600087803b15801561285057600080fd5b505af1158015612864573d6000803e3d6000fd5b505050506040513d601f19601f820116820180604052508101906128889190615daa565b6001600160a01b0390931660009081526003820160209081526040808320959095556002909201909152919091205550565b600a81815481106128ca57600080fd5b600091825260209091206003909102018054600182015460029092015490925083565b336128f661334a565b6001600160a01b0316148061291a57503361290f6133e2565b6001600160a01b0316145b6129665760405162461bcd60e51b815260206004820152601e60248201527f526f6c65733a2063616c6c6572206973206e6f7420746865206f776e657200006044820152606401610c78565b601855565b3361297461334a565b6001600160a01b0316148061299857503361298d6133e2565b6001600160a01b0316145b6129e45760405162461bcd60e51b815260206004820152601e60248201527f526f6c65733a2063616c6c6572206973206e6f7420746865206f776e657200006044820152606401610c78565b600b55565b3360009081526001602090815260408083206004845290915290205460ff16612a545760405162461bcd60e51b815260206004820152601c60248201527f43616c6c696e6720636f6e7472206e6f7420617574686f72697a6564000000006044820152606401610c78565b6001600160a01b0383166000908152600d602052604090206119698184846135a9565b6001600160a01b0381166000908152600d6020908152604091829020600181018054845181850281018501909552808552606094859490929190830182828015612aea57602002820191906000526020600020905b81546001600160a01b03168152600190910190602001808311612acc575b5050506001840154929550505067ffffffffffffffff811115612b1d57634e487b7160e01b600052604160045260246000fd5b604051908082528060200260200182016040528015612b46578160200160208202803683370190505b50915060005b8084511115611753576000848281518110612b7757634e487b7160e01b600052603260045260246000fd5b60200260200101519050612bbc606660009081526020527f422cccb7cea5c0e46f340bb7b21b81debac329f72e31669c20ff0f3a05cc2b5b546001600160a01b031690565b6001600160a01b03828116600081815260028701602090815260408083205460038a01909252918290205491517f76668b670000000000000000000000000000000000000000000000000000000081526004810191909152602481019290925260448201529116906376668b679060640160206040518083038186803b158015612c4557600080fd5b505afa158015612c59573d6000803e3d6000fd5b505050506040513d601f19601f82011682018060405250810190612c7d9190615daa565b848381518110612c9d57634e487b7160e01b600052603260045260246000fd5b60209081029190910101525080612cb381616016565b915050612b4c565b3360009081526001602090815260408083206004845290915290205460ff16612d265760405162461bcd60e51b815260206004820152601d60248201527f43616c6c696e6720636f6e74722e206e6f7420617574686f72697a65640000006044820152606401610c78565b6001600160a01b0381166000908152600d60205260409020612d4781614cf7565b15612d945760405162461bcd60e51b815260206004820152601a60248201527f43616e2774206c69717569646174653a20626f72726f77696e670000000000006044820152606401610c78565b610b7081614d0d565b33612da661334a565b6001600160a01b03161480612dca575033612dbf6133e2565b6001600160a01b0316145b80612e18575033612e0d6103e960009081526020527f236f539bf6e1b3b15a335e3cd157d360bc4be88c071635c19ba8a82b4f665e9f546001600160a01b031690565b6001600160a01b0316145b612e8a5760405162461bcd60e51b815260206004820152603860248201527f43616c6c6572206973206e6f7420746865206f776e65722c206578656375746f60448201527f72206f7220617574686f72697a65642064697361626c657200000000000000006064820152608401610c78565b6000600a8281548110612ead57634e487b7160e01b600052603260045260246000fd5b90600052602060002090600302019050600081600101541115610b7057600181015460095580546007556002015460085550565b33612eea61334a565b6001600160a01b03161480612f0e575033612f036133e2565b6001600160a01b0316145b612f5a5760405162461bcd60e51b815260206004820152601e60248201527f526f6c65733a2063616c6c6572206973206e6f7420746865206f776e657200006044820152606401610c78565b60408051606081018252938452602084019283528301908152600a805460018101825560009190915292517fc65a7bb8d6351c1cf70c95a316cc6a92839c986682d98bc35f958f4883f9d2a860039094029384015590517fc65a7bb8d6351c1cf70c95a316cc6a92839c986682d98bc35f958f4883f9d2a9830155517fc65a7bb8d6351c1cf70c95a316cc6a92839c986682d98bc35f958f4883f9d2aa90910155565b3361300661334a565b6001600160a01b0316148061302a57503361301f6133e2565b6001600160a01b0316145b6130765760405162461bcd60e51b815260206004820152601e60248201527f526f6c65733a2063616c6c6572206973206e6f7420746865206f776e657200006044820152606401610c78565b601055565b600281015460009015610ec35781546000906130a39061309b9043615fff565b601754613d61565b905060006017548285600201546130ba9190615fc2565b6130c49190615fa2565b9050613101606560009081526020527f4a7203f705e51df4a56139a9b86b4a0970bed7ab7a3446eaffe2289989c1645c546001600160a01b031690565b60038501546040517fd9caed120000000000000000000000000000000000000000000000000000000081526001600160a01b037f00000000000000000000000000000000000000000000000000000000000000008116600483015291821660248201526044810184905291169063d9caed1290606401600060405180830381600087803b15801561319157600080fd5b505af11580156131a5573d6000803e3d6000fd5b5050505060006131e6606b60009081526020527f2dc7a963308417ad45132da282495eb244f38a7db03940a4d808be607669c622546001600160a01b031690565b9050600060165460016131f99190615f8a565b83836001600160a01b0316630ad691506040518163ffffffff1660e01b815260040160206040518083038186803b15801561323357600080fd5b505afa158015613247573d6000803e3d6000fd5b505050506040513d601f19601f8201168201806040525081019061326b9190615daa565b6132759190615fc2565b61327f9190615fa2565b600187015460038801546040517f0a45bc1b0000000000000000000000000000000000000000000000000000000081526001600160a01b039283166004820152602481018490529082166044820152919250831690630a45bc1b90606401602060405180830381600087803b1580156132f757600080fd5b505af115801561330b573d6000803e3d6000fd5b505050506040513d601f19601f8201168201806040525081019061332f9190615daa565b508286600201546133409190615fff565b9695505050505050565b60007f00000000000000000000000000000000000000000000000000000000000000006001600160a01b0316638da5cb5b6040518163ffffffff1660e01b815260040160206040518083038186803b1580156133a557600080fd5b505afa1580156133b9573d6000803e3d6000fd5b505050506040513d601f19601f820116820180604052508101906133dd9190615a1c565b905090565b60007f00000000000000000000000000000000000000000000000000000000000000006001600160a01b031663c34c08e56040518163ffffffff1660e01b8152600401602060405180830381600087803b15801561343f57600080fd5b505af11580156133b9573d6000803e3d6000fd5b61345e8383836143db565b6001600160a01b0382166000908152600f602052604081208054839290613486908490615f8a565b90915550506001600160a01b0382166000908152600f6020908152604080832054600e90925290912054101561129a5760405162461bcd60e51b815260206004820152601860248201527f4578636565647320676c6f62616c20746f6b656e2063617000000000000000006044820152606401610c78565b6001600160a01b0382166000908152600f602052604081208054839290613526908490615f8a565b90915550506001600160a01b0382166000908152600f6020908152604080832054600e90925290912054101561359e5760405162461bcd60e51b815260206004820152601860248201527f4578636565647320676c6f62616c20746f6b656e2063617000000000000000006044820152606401610c78565b61129a838383614096565b60105483546135b89190615f8a565b43116136065760405162461bcd60e51b815260206004820181905260248201527f4e6f207769746864726177616c20736f6f6e206166746572206465706f7369746044820152606401610c78565b6001600160a01b0382166000908152600f60205260408120805483929061362e908490615fff565b90915550506001600160a01b0382166000908152600584016020526040902054613659908290615fff565b6001600160a01b038316600090815260058501602052604090205561367d83614e7f565b61129a5760405162461bcd60e51b815260206004820152601460248201527f496e73756666696369656e742062616c616e63650000000000000000000000006044820152606401610c78565b8254600090815b8181101561374d5760008682815481106136fa57634e487b7160e01b600052603260045260246000fd5b60009182526020808320909101546001600160a01b03168083529088905260409091205490915061372d90829087614ecb565b6137379085615f8a565b935050808061374590616016565b9150506136d0565b50509392505050565b60007fff0000000000000000000000000000000000000000000000000000000000000082161561378f5761378a8484614fda565b613799565b6137998484615114565b6001600160a01b038082166000908152600660209081526040808320938916835292905220600181015491925090613a07576000806000846001600160a01b0316630902f1ac6040518163ffffffff1660e01b815260040160606040518083038186803b15801561380957600080fd5b505afa15801561381d573d6000803e3d6000fd5b505050506040513d601f19601f820116820180604052508101906138419190615d2c565b63ffffffff169250925092506000613859898961520f565b509050806001600160a01b0316896001600160a01b0316141561393c57836dffffffffffffffffffffffffffff16836dffffffffffffffffffffffffffff166e0100000000000000000000000000006138b29190615fc2565b6138bc9190615fa2565b8560020181905550856001600160a01b0316635909c0d56040518163ffffffff1660e01b815260040160206040518083038186803b1580156138fd57600080fd5b505afa158015613911573d6000803e3d6000fd5b505050506040513d601f19601f820116820180604052508101906139359190615daa565b85556139fe565b826dffffffffffffffffffffffffffff16846dffffffffffffffffffffffffffff166e0100000000000000000000000000006139789190615fc2565b6139829190615fa2565b8560020181905550856001600160a01b0316635a3d54936040518163ffffffff1660e01b815260040160206040518083038186803b1580156139c357600080fd5b505afa1580156139d7573d6000803e3d6000fd5b505050506040513d601f19601f820116820180604052508101906139fb9190615daa565b85555b50600184015550505b5050505050565b6e01000000000000000000000000000060005b60018451613a2f9190615fff565b811015613d5a576000848281518110613a5857634e487b7160e01b600052603260045260246000fd5b60200260200101519050600085836001613a729190615f8a565b81518110613a9057634e487b7160e01b600052603260045260246000fd5b602002602001015190506000858460208110613abc57634e487b7160e01b600052603260045260246000fd5b1a60f81b7fff000000000000000000000000000000000000000000000000000000000000001615613af657613af18383614fda565b613b00565b613b008383615114565b6001600160a01b038082166000818152600660209081526040808320948916835293905282812083517f0902f1ac0000000000000000000000000000000000000000000000000000000081529351949550939092630902f1ac916004808301926060929190829003018186803b158015613b7957600080fd5b505afa158015613b8d573d6000803e3d6000fd5b505050506040513d601f19601f82011682018060405250810190613bb19190615d2c565b63ffffffff16925050506000826001015482613bcd9190615fff565b9050600854811115613d30576000613be5878761520f565b5090506000816001600160a01b0316886001600160a01b031614613c7957856001600160a01b0316635a3d54936040518163ffffffff1660e01b815260040160206040518083038186803b158015613c3c57600080fd5b505afa158015613c50573d6000803e3d6000fd5b505050506040513d601f19601f82011682018060405250810190613c749190615daa565b613cea565b856001600160a01b0316635909c0d56040518163ffffffff1660e01b815260040160206040518083038186803b158015613cb257600080fd5b505afa158015613cc6573d6000803e3d6000fd5b505050506040513d601f19601f82011682018060405250810190613cea9190615daa565b9050600083866000015483613cff9190615fff565b613d099190615fa2565b9050613d158b826152f9565b6002870191909155908555600185018490559850613d419050565b613d3e8884600201546152f9565b97505b5050505050508080613d5290616016565b915050613a21565b5092915050565b600081831115613d72575080610bfd565b5081610bfd565b600080613db7606660009081526020527f422cccb7cea5c0e46f340bb7b21b81debac329f72e31669c20ff0f3a05cc2b5b546001600160a01b031690565b6001600160a01b03858116600081815260028901602090815260408083205460038c01909252918290205491517fe695fa6800000000000000000000000000000000000000000000000000000000815260048101919091526024810192909252604482015291169063e695fa68906064016040805180830381600087803b158015613e4157600080fd5b505af1158015613e55573d6000803e3d6000fd5b505050506040513d601f19601f82011682018060405250810190613e799190615de6565b90925090506000613e8a8484615fff565b6001600160a01b0386166000908152600288016020526040902081905590508015613ed1576001600160a01b03851660009081526003870160205260409020829055614042565b6001600160a01b038516600090815260038701602052604081208190556001870154815b80821115613fc5576000896001018281548110613f2257634e487b7160e01b600052603260045260246000fd5b6000918252602090912001546001600160a01b0390811691508916811415613f4d5760019350613fb2565b8315613fb257808a600101600184613f659190615fff565b81548110613f8357634e487b7160e01b600052603260045260246000fd5b9060005260206000200160006101000a8154816001600160a01b0302191690836001600160a01b031602179055505b5080613fbd81616016565b915050613ef5565b5087600101805480613fe757634e487b7160e01b600052603160045260246000fd5b60008281526020902081017fffffffffffffffffffffffffffffffffffffffffffffffffffffffffffffffff90810180547fffffffffffffffffffffffff000000000000000000000000000000000000000016905501905550505b505050505050565b6001600160a01b0384166000908152600586016020526040902054614070908390615fff565b6001600160a01b0385166000908152600587016020526040902055613a078584836143db565b6001600160a01b03821660009081526003840160205260409020546141fd576001838101805491820181556000908152602090200180547fffffffffffffffffffffffff0000000000000000000000000000000000000000166001600160a01b038416179055614137606660009081526020527f422cccb7cea5c0e46f340bb7b21b81debac329f72e31669c20ff0f3a05cc2b5b546001600160a01b031690565b6040517f46c87f800000000000000000000000000000000000000000000000000000000081526001600160a01b03848116600483015291909116906346c87f8090602401602060405180830381600087803b15801561419557600080fd5b505af11580156141a9573d6000803e3d6000fd5b505050506040513d601f19601f820116820180604052508101906141cd9190615daa565b6001600160a01b038316600090815260038501602090815260408083209390935560028601905220819055614347565b60008061423b606660009081526020527f422cccb7cea5c0e46f340bb7b21b81debac329f72e31669c20ff0f3a05cc2b5b546001600160a01b031690565b6001600160a01b03858116600081815260028901602090815260408083205460038c01909252918290205491517fe695fa6800000000000000000000000000000000000000000000000000000000815260048101919091526024810192909252604482015291169063e695fa68906064016040805180830381600087803b1580156142c557600080fd5b505af11580156142d9573d6000803e3d6000fd5b505050506040513d601f19601f820116820180604052508101906142fd9190615de6565b6001600160a01b0386166000908152600388016020526040902081905590925090506143298383615f8a565b6001600160a01b038516600090815260028701602052604090205550505b61367d83614e7f565b8154600090815b818110156143d357600085828154811061438157634e487b7160e01b600052603260045260246000fd5b60009182526020808320909101546001600160a01b0316808352908790526040909120549091506143b3908290610b74565b6143bd9085615f8a565b93505080806143cb90616016565b915050614357565b505092915050565b6001600160a01b038216600090815260068401602052604090205460ff1661448357600483018054600180820183556000928352602080842090920180547fffffffffffffffffffffffff0000000000000000000000000000000000000000166001600160a01b038716908117909155835260068601909152604090912080547fffffffffffffffffffffffffffffffffffffffffffffffffffffffffffffff001690911790555b6001600160a01b0382166000908152600584016020526040812080548392906144ad908490615f8a565b9091555050505050565b6103e86144c48284615fc2565b6144d0836103e8615fff565b85600101546144df9190615fc2565b6144e99190615f8a565b6144f39190615fa2565b60018401555050429055565b60008061453d606b60009081526020527f2dc7a963308417ad45132da282495eb244f38a7db03940a4d808be607669c622546001600160a01b031690565b6001600160a01b031663b0411f466040518163ffffffff1660e01b8152600401604080518083038186803b15801561457457600080fd5b505afa158015614588573d6000803e3d6000fd5b505050506040513d601f19601f820116820180604052508101906145ac9190615b8f565b5090506016546019546145bf9190615fc2565b6001600160a01b0390911660009081526014602052604090205411905090565b60408051600080825260208201928390529051909161460191601291906158b7565b50604080516000815260208101918290525161461f916013916158b7565b5060005b8084511115613d5a57600084828151811061464e57634e487b7160e01b600052603260045260246000fd5b602002602001015190506000600d6000836001600160a01b03166001600160a01b03168152602001908152602001600020905061468a81615335565b15614af7576013805460018101825560009182527f66de8ffda797e3de9c05e8fc57b3bf0ec28a930d40b0d285d93c06501cf6a0900180547fffffffffffffffffffffffff0000000000000000000000000000000000000000166001600160a01b0385161790556004820154905b8082111561482c57600083600401828154811061472557634e487b7160e01b600052603260045260246000fd5b60009182526020808320909101546001600160a01b03168083526011909152604090912060028101549192509043146147e1576001600160a01b03821660008181526005870160205260408120546001808501919091558184554360028501556012805491820181559091527fbb8a6a4669ba250d26cd7a459eca9d215f8307e33aebe50379bc5a3617ec34440180547fffffffffffffffffffffffff0000000000000000000000000000000000000000169091179055614817565b6001600160a01b038216600090815260058601602052604081205460018301805491929091614811908490615f8a565b90915550505b5050808061482490616016565b9150506146f8565b5050600181015460005b80821115614af457600083600101828154811061486357634e487b7160e01b600052603260045260246000fd5b60009182526020808320909101546001600160a01b0316808352601190915260408220909250906148c5606660009081526020527f422cccb7cea5c0e46f340bb7b21b81debac329f72e31669c20ff0f3a05cc2b5b546001600160a01b031690565b6001600160a01b03848116600081815260028a01602090815260408083205460038d01909252918290205491517fe695fa6800000000000000000000000000000000000000000000000000000000815260048101919091526024810192909252604482015291169063e695fa68906064016040805180830381600087803b15801561494f57600080fd5b505af1158015614963573d6000803e3d6000fd5b505050506040513d601f19601f820116820180604052508101906149879190615de6565b5090506149c5606660009081526020527f422cccb7cea5c0e46f340bb7b21b81debac329f72e31669c20ff0f3a05cc2b5b546001600160a01b031690565b6040517f2a6a897b0000000000000000000000000000000000000000000000000000000081526001600160a01b038581166004830152602482018490529190911690632a6a897b90604401600060405180830381600087803b158015614a2a57600080fd5b505af1158015614a3e573d6000803e3d6000fd5b5050505043826002015414614ac457600060018381018290558284554360028501556012805491820181559091527fbb8a6a4669ba250d26cd7a459eca9d215f8307e33aebe50379bc5a3617ec34440180547fffffffffffffffffffffffff0000000000000000000000000000000000000000166001600160a01b038516179055614ade565b80826000016000828254614ad89190615f8a565b90915550505b5050508080614aec90616016565b915050614836565b50505b6001600160a01b03821660009081526015602052604090208515614b2b57614b1e8161307b565b614b289086615f8a565b94505b5050508080614b3990616016565b915050614623565b601254600090815b80821115614c1257600060128281548110614b7457634e487b7160e01b600052603260045260246000fd5b60009182526020808320909101546001600160a01b0316808352601190915260409091208054600182015492935090911115614bfd5780546001820154600091614bbd91615fff565b9050614bc98382615372565b614bd39087615f8a565b6001600160a01b038416600090815260116020526040812081815560018101829055600201559550505b50508080614c0a90616016565b915050614b49565b505090565b601254600090815b80821115614c1257600060128281548110614c4a57634e487b7160e01b600052603260045260246000fd5b60009182526020808320909101546001600160a01b0316808352601190915260409091206001810154815492935090911115614cd057614c9d8282600101548360000154614c989190615fff565b6154fc565b614ca79086615f8a565b6001600160a01b0383166000908152601160205260408120818155600181018290556002015594505b50508080614cdd90616016565b915050614c1f565b6000610bfd8260040183600501615693565b6000610bfd826001018360020184600301615716565b600181015460005b80821115614d86576000836001018281548110614d4257634e487b7160e01b600052603260045260246000fd5b60009182526020808320909101546001600160a01b031682526002860181526040808320839055600387019091528120555080614d7e81616016565b915050614d15565b5050600481015460005b80821115614e62576000836004018281548110614dbd57634e487b7160e01b600052603260045260246000fd5b60009182526020808320909101546001600160a01b0316808352600587018252604080842054600f90935283208054919450919290614dfd908490615fff565b90915550506001600160a01b03166000908152600584016020908152604080832083905560068601909152902080547fffffffffffffffffffffffffffffffffffffffffffffffffffffffffffffff0016905580614e5a81616016565b915050614d90565b50614e71600183016000615934565b610b70600483016000615934565b600080614e8b83614cf7565b90506000614e9884614ce5565b9050600b5482614ea89190615fc2565b6064600b54614eb79190615fff565b614ec19083615fc2565b1015949350505050565b600080614f09606660009081526020527f422cccb7cea5c0e46f340bb7b21b81debac329f72e31669c20ff0f3a05cc2b5b546001600160a01b031690565b6040517f14189db20000000000000000000000000000000000000000000000000000000081526001600160a01b03878116600483015291909116906314189db29060240160206040518083038186803b158015614f6557600080fd5b505afa158015614f79573d6000803e3d6000fd5b505050506040513d601f19601f82011682018060405250810190614f9d9190615daa565b6001600160a01b03861660009081526020859052604081205491925090614fc48387615fc2565b614fce9190615fa2565b9050611d2a8682610b74565b6000806000614fe9858561520f565b6040517fffffffffffffffffffffffffffffffffffffffff000000000000000000000000606084811b8216602084015283901b16603482015291935091507f000000000000000000000000000000000000000000000000000000000000000090604801604051602081830303815290604052805190602001206003546040516020016150d5939291907fff00000000000000000000000000000000000000000000000000000000000000815260609390931b7fffffffffffffffffffffffffffffffffffffffff0000000000000000000000001660018401526015830191909152603582015260550190565b604080517fffffffffffffffffffffffffffffffffffffffffffffffffffffffffffffffe0818403018152919052805160209091012095945050505050565b6000806000615123858561520f565b6040517fffffffffffffffffffffffffffffffffffffffff000000000000000000000000606084811b8216602084015283901b16603482015291935091507f000000000000000000000000000000000000000000000000000000000000000090604801604051602081830303815290604052805190602001206002546040516020016150d5939291907fff00000000000000000000000000000000000000000000000000000000000000815260609390931b7fffffffffffffffffffffffffffffffffffffffff0000000000000000000000001660018401526015830191909152603582015260550190565b600080826001600160a01b0316846001600160a01b031614156152745760405162461bcd60e51b815260206004820152601260248201527f4964656e746963616c20616464726573732100000000000000000000000000006044820152606401610c78565b826001600160a01b0316846001600160a01b031610615294578284615297565b83835b90925090506001600160a01b0382166152f25760405162461bcd60e51b815260206004820152600d60248201527f5a65726f206164647265737321000000000000000000000000000000000000006044820152606401610c78565b9250929050565b60006c0100000000000000000000000061531561010084615fa2565b61532161010086615fa2565b61532b9190615fc2565b611d2f9190615fa2565b60008061534183614cf7565b9050600061534e84614ce5565b905081600c5461535e9190615fc2565b615369826064615fc2565b10949350505050565b60007f00000000000000000000000000000000000000000000000000000000000000006001600160a01b0316836001600160a01b031614156153b5575080610bfd565b6001600160a01b038316600090815260056020526040812090615409606760009081526020527f682158d08466d11c566d5712d4396197fdd67e65be71d83c97ef719ec468867b546001600160a01b031690565b6001600160a01b031663351ae6108560008560030154866002016040518563ffffffff1660e01b81526004016154429493929190615ef2565b600060405180830381600087803b15801561545c57600080fd5b505af1158015615470573d6000803e3d6000fd5b505050506040513d6000823e601f3d9081017fffffffffffffffffffffffffffffffffffffffffffffffffffffffffffffffe01682016040526154b69190810190615c38565b9050600081600183516154c99190615fff565b815181106154e757634e487b7160e01b600052603260045260246000fd5b60200260200101519050809350505050610bfd565b60007f00000000000000000000000000000000000000000000000000000000000000006001600160a01b0316836001600160a01b0316141561553f575080610bfd565b6001600160a01b038316600090815260056020526040812090615593606760009081526020527f682158d08466d11c566d5712d4396197fdd67e65be71d83c97ef719ec468867b546001600160a01b031690565b6001600160a01b03166353d7ff9f857fffffffffffffffffffffffffffffffffffffffffffffffffffffffffffffffff8560030154866004016040518563ffffffff1660e01b81526004016155eb9493929190615ef2565b600060405180830381600087803b15801561560557600080fd5b505af1158015615619573d6000803e3d6000fd5b505050506040513d6000823e601f3d9081017fffffffffffffffffffffffffffffffffffffffffffffffffffffffffffffffe016820160405261565f9190810190615c38565b90508060008151811061568257634e487b7160e01b600052603260045260246000fd5b602002602001015192505050610bfd565b8154600090815b818110156143d35760008582815481106156c457634e487b7160e01b600052603260045260246000fd5b60009182526020808320909101546001600160a01b0316808352908790526040909120549091506156f690829061579a565b6157009085615f8a565b935050808061570e90616016565b91505061569a565b8254600090815b8181101561374d57600086828154811061574757634e487b7160e01b600052603260045260246000fd5b60009182526020808320909101546001600160a01b03168083529088905260409091205490915061577a908290876157a8565b6157849085615f8a565b935050808061579290616016565b91505061571d565b6000611d2f83836000611bec565b6000806157e6606660009081526020527f422cccb7cea5c0e46f340bb7b21b81debac329f72e31669c20ff0f3a05cc2b5b546001600160a01b031690565b6040517f14189db20000000000000000000000000000000000000000000000000000000081526001600160a01b03878116600483015291909116906314189db29060240160206040518083038186803b15801561584257600080fd5b505afa158015615856573d6000803e3d6000fd5b505050506040513d601f19601f8201168201806040525081019061587a9190615daa565b6001600160a01b038616600090815260208590526040812054919250906158a18387615fc2565b6158ab9190615fa2565b9050611d2a868261579a565b828054828255906000526020600020908101928215615924579160200282015b8281111561592457825182547fffffffffffffffffffffffff0000000000000000000000000000000000000000166001600160a01b039091161782556020909201916001909101906158d7565b50615930929150615955565b5090565b50805460008255906000526020600020908101906159529190615955565b50565b5b808211156159305760008155600101615956565b600082601f83011261597a578081fd5b8135602061598f61598a83615f66565b615f17565b80838252828201915082860187848660051b89010111156159ae578586fd5b855b858110156159d55781356159c38161607b565b845292840192908401906001016159b0565b5090979650505050505050565b80516dffffffffffffffffffffffffffff81168114610ec357600080fd5b600060208284031215615a11578081fd5b8135611d2f8161607b565b600060208284031215615a2d578081fd5b8151611d2f8161607b565b60008060408385031215615a4a578081fd5b8235615a558161607b565b91506020830135615a658161607b565b809150509250929050565b600080600080600060a08688031215615a87578081fd5b8535615a928161607b565b94506020860135615aa28161607b565b93506040860135615ab28161607b565b94979396509394606081013594506080013592915050565b600080600060608486031215615ade578283fd5b8335615ae98161607b565b92506020840135615af98161607b565b929592945050506040919091013590565b600080600080600060a08688031215615b21578081fd5b8535615b2c8161607b565b94506020860135615b3c8161607b565b9350604086013592506060860135615b538161607b565b949793965091946080013592915050565b60008060408385031215615b76578182fd5b8235615b818161607b565b946020939093013593505050565b60008060408385031215615ba1578182fd5b8251615bac8161607b565b6020939093015192949293505050565b600080600060608486031215615bd0578081fd5b8335615bdb8161607b565b9250602084013591506040840135615bf281616090565b809150509250925092565b600060208284031215615c0e578081fd5b813567ffffffffffffffff811115615c24578182fd5b615c308482850161596a565b949350505050565b60006020808385031215615c4a578182fd5b825167ffffffffffffffff811115615c60578283fd5b8301601f81018513615c70578283fd5b8051615c7e61598a82615f66565b80828252848201915084840188868560051b8701011115615c9d578687fd5b8694505b83851015615cbf578051835260019490940193918501918501615ca1565b50979650505050505050565b600060208284031215615cdc578081fd5b8151611d2f81616090565b60008060408385031215615cf9578182fd5b82359150602083013567ffffffffffffffff811115615d16578182fd5b615d228582860161596a565b9150509250929050565b600080600060608486031215615d40578081fd5b615d49846159e2565b9250615d57602085016159e2565b9150604084015163ffffffff81168114615bf2578182fd5b60008060408385031215615d81578182fd5b823561ffff81168114615b81578283fd5b600060208284031215615da3578081fd5b5035919050565b600060208284031215615dbb578081fd5b5051919050565b60008060408385031215615dd4578182fd5b823591506020830135615a658161607b565b60008060408385031215615df8578182fd5b505080516020909101519092909150565b600080600060608486031215615e1d578081fd5b505081359360208301359350604090920135919050565b6000815480845260208085019450838352808320835b83811015615e6f5781546001600160a01b031687529582019560019182019101615e4a565b509495945050505050565b604080825283519082018190526000906020906060840190828701845b82811015615ebe5781516001600160a01b0316845260208401935090840190600101615e97565b50505083810382850152845180825285830191830190845b818110156159d557835183529284019291840191600101615ed6565b6000858252846020830152836040830152608060608301526133406080830184615e34565b604051601f82017fffffffffffffffffffffffffffffffffffffffffffffffffffffffffffffffe016810167ffffffffffffffff81118282101715615f5e57615f5e616065565b604052919050565b600067ffffffffffffffff821115615f8057615f80616065565b5060051b60200190565b60008219821115615f9d57615f9d61604f565b500190565b600082615fbd57634e487b7160e01b81526012600452602481fd5b500490565b6000817fffffffffffffffffffffffffffffffffffffffffffffffffffffffffffffffff0483118215151615615ffa57615ffa61604f565b500290565b6000828210156160115761601161604f565b500390565b60007fffffffffffffffffffffffffffffffffffffffffffffffffffffffffffffffff8214156160485761604861604f565b5060010190565b634e487b7160e01b600052601160045260246000fd5b634e487b7160e01b600052604160045260246000fd5b6001600160a01b038116811461595257600080fd5b801515811461595257600080fdfea264697066735822122056e01091887cab3cd8953f3cf9e8bcdefb244918e4edf3d18103364a6a1d383864736f6c63430008030033",
  "linkReferences": {},
  "deployedLinkReferences": {}
}