{
  "_format": "hh-sol-artifact-1",
  "contractName": "CrossMarginTrading",
  "sourceName": "contracts/CrossMarginTrading.sol",
  "abi": [
    {
      "inputs": [
        {
          "internalType": "address",
          "name": "_peg",
          "type": "address"
        },
        {
          "internalType": "address",
          "name": "_roles",
          "type": "address"
        }
      ],
      "stateMutability": "nonpayable",
      "type": "constructor"
    },
    {
      "anonymous": false,
      "inputs": [
        {
          "indexed": false,
          "internalType": "address",
          "name": "account",
          "type": "address"
        }
      ],
      "name": "AccountLiquidated",
      "type": "event"
    },
    {
      "anonymous": false,
      "inputs": [
        {
          "indexed": false,
          "internalType": "uint256",
          "name": "amount",
          "type": "uint256"
        }
      ],
      "name": "LiquidationShortfall",
      "type": "event"
    },
    {
      "inputs": [],
      "name": "MAINTAINER_CUT_PERCENT",
      "outputs": [
        {
          "internalType": "uint256",
          "name": "",
          "type": "uint256"
        }
      ],
      "stateMutability": "view",
      "type": "function"
    },
    {
      "inputs": [],
      "name": "UPDATE_RATE_PERMIL",
      "outputs": [
        {
          "internalType": "uint256",
          "name": "",
          "type": "uint256"
        }
      ],
      "stateMutability": "view",
      "type": "function"
    },
    {
      "inputs": [
        {
          "internalType": "uint256",
          "name": "_priceUpdateWindow",
          "type": "uint256"
        },
        {
          "internalType": "uint256",
          "name": "_updateRatePermil",
          "type": "uint256"
        }
      ],
      "name": "addVolatilitySetting",
      "outputs": [],
      "stateMutability": "nonpayable",
      "type": "function"
    },
    {
      "inputs": [],
      "name": "avgLiquidationPerCall",
      "outputs": [
        {
          "internalType": "uint256",
          "name": "",
          "type": "uint256"
        }
      ],
      "stateMutability": "view",
      "type": "function"
    },
    {
      "inputs": [
        {
          "internalType": "address",
          "name": "trader",
          "type": "address"
        }
      ],
      "name": "canBeLiquidated",
      "outputs": [
        {
          "internalType": "bool",
          "name": "",
          "type": "bool"
        }
      ],
      "stateMutability": "view",
      "type": "function"
    },
    {
      "inputs": [
        {
          "internalType": "uint256",
          "name": "index",
          "type": "uint256"
        }
      ],
      "name": "chooseVolatilitySetting",
      "outputs": [],
      "stateMutability": "nonpayable",
      "type": "function"
    },
    {
      "inputs": [],
      "name": "coolingOffPeriod",
      "outputs": [
        {
          "internalType": "uint256",
          "name": "",
          "type": "uint256"
        }
      ],
      "stateMutability": "view",
      "type": "function"
    },
    {
      "inputs": [
        {
          "internalType": "address[]",
          "name": "liquidatedAccounts",
          "type": "address[]"
        }
      ],
      "name": "disburseLiqStakeAttacks",
      "outputs": [],
      "stateMutability": "nonpayable",
      "type": "function"
    },
    {
      "inputs": [],
      "name": "failureThreshold",
      "outputs": [
        {
          "internalType": "uint256",
          "name": "",
          "type": "uint256"
        }
      ],
      "stateMutability": "view",
      "type": "function"
    },
    {
      "inputs": [
        {
          "internalType": "address",
          "name": "trader",
          "type": "address"
        }
      ],
      "name": "getBorrowAmounts",
      "outputs": [
        {
          "internalType": "address[]",
          "name": "borrowTokens",
          "type": "address[]"
        },
        {
          "internalType": "uint256[]",
          "name": "borrowAmounts",
          "type": "uint256[]"
        }
      ],
      "stateMutability": "view",
      "type": "function"
    },
    {
      "inputs": [
        {
          "internalType": "address",
          "name": "token",
          "type": "address"
        },
        {
          "internalType": "uint256",
          "name": "inAmount",
          "type": "uint256"
        }
      ],
      "name": "getCurrentPriceInPeg",
      "outputs": [
        {
          "internalType": "uint256",
          "name": "",
          "type": "uint256"
        }
      ],
      "stateMutability": "nonpayable",
      "type": "function"
    },
    {
      "inputs": [
        {
          "internalType": "address",
          "name": "trader",
          "type": "address"
        }
      ],
      "name": "getHoldingAmounts",
      "outputs": [
        {
          "internalType": "address[]",
          "name": "holdingTokens",
          "type": "address[]"
        },
        {
          "internalType": "uint256[]",
          "name": "holdingAmounts",
          "type": "uint256[]"
        }
      ],
      "stateMutability": "view",
      "type": "function"
    },
    {
      "inputs": [],
      "name": "leveragePercent",
      "outputs": [
        {
          "internalType": "uint256",
          "name": "",
          "type": "uint256"
        }
      ],
      "stateMutability": "view",
      "type": "function"
    },
    {
      "inputs": [],
      "name": "liqStakeAttackWindow",
      "outputs": [
        {
          "internalType": "uint256",
          "name": "",
          "type": "uint256"
        }
      ],
      "stateMutability": "view",
      "type": "function"
    },
    {
      "inputs": [
        {
          "internalType": "address[]",
          "name": "liquidationCandidates",
          "type": "address[]"
        }
      ],
      "name": "liquidate",
      "outputs": [
        {
          "internalType": "uint256",
          "name": "maintainerCut",
          "type": "uint256"
        }
      ],
      "stateMutability": "nonpayable",
      "type": "function"
    },
    {
      "inputs": [],
      "name": "liquidationThresholdPercent",
      "outputs": [
        {
          "internalType": "uint256",
          "name": "",
          "type": "uint256"
        }
      ],
      "stateMutability": "view",
      "type": "function"
    },
    {
      "inputs": [
        {
          "internalType": "uint256",
          "name": "",
          "type": "uint256"
        }
      ],
      "name": "mainCharacterCache",
      "outputs": [
        {
          "internalType": "address",
          "name": "",
          "type": "address"
        }
      ],
      "stateMutability": "view",
      "type": "function"
    },
    {
      "inputs": [
        {
          "internalType": "address",
          "name": "",
          "type": "address"
        }
      ],
      "name": "maintenanceFailures",
      "outputs": [
        {
          "internalType": "uint256",
          "name": "",
          "type": "uint256"
        }
      ],
      "stateMutability": "view",
      "type": "function"
    },
    {
      "inputs": [],
      "name": "peg",
      "outputs": [
        {
          "internalType": "address",
          "name": "",
          "type": "address"
        }
      ],
      "stateMutability": "view",
      "type": "function"
    },
    {
      "inputs": [],
      "name": "priceUpdateWindow",
      "outputs": [
        {
          "internalType": "uint256",
          "name": "",
          "type": "uint256"
        }
      ],
      "stateMutability": "view",
      "type": "function"
    },
    {
      "inputs": [
        {
          "internalType": "address",
          "name": "trader",
          "type": "address"
        },
        {
          "internalType": "address",
          "name": "borrowToken",
          "type": "address"
        },
        {
          "internalType": "uint256",
          "name": "borrowAmount",
          "type": "uint256"
        }
      ],
      "name": "registerBorrow",
      "outputs": [],
      "stateMutability": "nonpayable",
      "type": "function"
    },
    {
      "inputs": [
        {
          "internalType": "address",
          "name": "trader",
          "type": "address"
        },
        {
          "internalType": "address",
          "name": "token",
          "type": "address"
        },
        {
          "internalType": "uint256",
          "name": "depositAmount",
          "type": "uint256"
        }
      ],
      "name": "registerDeposit",
      "outputs": [
        {
          "internalType": "uint256",
          "name": "extinguishableDebt",
          "type": "uint256"
        }
      ],
      "stateMutability": "nonpayable",
      "type": "function"
    },
    {
      "inputs": [
        {
          "internalType": "address",
          "name": "trader",
          "type": "address"
        }
      ],
      "name": "registerLiquidation",
      "outputs": [],
      "stateMutability": "nonpayable",
      "type": "function"
    },
    {
      "inputs": [
        {
          "internalType": "address",
          "name": "trader",
          "type": "address"
        },
        {
          "internalType": "address",
          "name": "depositToken",
          "type": "address"
        },
        {
          "internalType": "uint256",
          "name": "depositAmount",
          "type": "uint256"
        },
        {
          "internalType": "address",
          "name": "borrowToken",
          "type": "address"
        },
        {
          "internalType": "uint256",
          "name": "withdrawAmount",
          "type": "uint256"
        }
      ],
      "name": "registerOvercollateralizedBorrow",
      "outputs": [],
      "stateMutability": "nonpayable",
      "type": "function"
    },
    {
      "inputs": [
        {
          "internalType": "address",
          "name": "trader",
          "type": "address"
        },
        {
          "internalType": "address",
          "name": "tokenFrom",
          "type": "address"
        },
        {
          "internalType": "address",
          "name": "tokenTo",
          "type": "address"
        },
        {
          "internalType": "uint256",
          "name": "inAmount",
          "type": "uint256"
        },
        {
          "internalType": "uint256",
          "name": "outAmount",
          "type": "uint256"
        }
      ],
      "name": "registerTradeAndBorrow",
      "outputs": [
        {
          "internalType": "uint256",
          "name": "extinguishableDebt",
          "type": "uint256"
        },
        {
          "internalType": "uint256",
          "name": "borrowAmount",
          "type": "uint256"
        }
      ],
      "stateMutability": "nonpayable",
      "type": "function"
    },
    {
      "inputs": [
        {
          "internalType": "address",
          "name": "trader",
          "type": "address"
        },
        {
          "internalType": "address",
          "name": "withdrawToken",
          "type": "address"
        },
        {
          "internalType": "uint256",
          "name": "withdrawAmount",
          "type": "uint256"
        }
      ],
      "name": "registerWithdrawal",
      "outputs": [],
      "stateMutability": "nonpayable",
      "type": "function"
    },
    {
      "inputs": [
        {
          "internalType": "address",
          "name": "",
          "type": "address"
        },
        {
          "internalType": "uint256",
          "name": "",
          "type": "uint256"
        }
      ],
      "name": "roleCache",
      "outputs": [
        {
          "internalType": "bool",
          "name": "",
          "type": "bool"
        }
      ],
      "stateMutability": "view",
      "type": "function"
    },
    {
      "inputs": [],
      "name": "roles",
      "outputs": [
        {
          "internalType": "contract Roles",
          "name": "",
          "type": "address"
        }
      ],
      "stateMutability": "view",
      "type": "function"
    },
    {
      "inputs": [
        {
          "internalType": "uint256",
          "name": "blocks",
          "type": "uint256"
        }
      ],
      "name": "setCoolingOffPeriod",
      "outputs": [],
      "stateMutability": "nonpayable",
      "type": "function"
    },
    {
      "inputs": [
        {
          "internalType": "uint256",
          "name": "threshFactor",
          "type": "uint256"
        }
      ],
      "name": "setFailureThreshold",
      "outputs": [],
      "stateMutability": "nonpayable",
      "type": "function"
    },
    {
      "inputs": [
        {
          "internalType": "uint256",
          "name": "_leveragePercent",
          "type": "uint256"
        }
      ],
      "name": "setLeveragePercent",
      "outputs": [],
      "stateMutability": "nonpayable",
      "type": "function"
    },
    {
      "inputs": [
        {
          "internalType": "uint256",
          "name": "window",
          "type": "uint256"
        }
      ],
      "name": "setLiqStakeAttackWindow",
      "outputs": [],
      "stateMutability": "nonpayable",
      "type": "function"
    },
    {
      "inputs": [
        {
          "internalType": "bytes32",
          "name": "amms",
          "type": "bytes32"
        },
        {
          "internalType": "address[]",
          "name": "tokens",
          "type": "address[]"
        }
      ],
      "name": "setLiquidationPath",
      "outputs": [],
      "stateMutability": "nonpayable",
      "type": "function"
    },
    {
      "inputs": [
        {
          "internalType": "uint256",
          "name": "threshold",
          "type": "uint256"
        }
      ],
      "name": "setLiquidationThresholdPercent",
      "outputs": [],
      "stateMutability": "nonpayable",
      "type": "function"
    },
    {
      "inputs": [
        {
          "internalType": "uint256",
          "name": "cut",
          "type": "uint256"
        }
      ],
      "name": "setMaintainerCutPercent",
      "outputs": [],
      "stateMutability": "nonpayable",
      "type": "function"
    },
    {
      "inputs": [
        {
          "internalType": "uint16",
          "name": "window",
          "type": "uint16"
        }
      ],
      "name": "setPriceUpdateWindow",
      "outputs": [],
      "stateMutability": "nonpayable",
      "type": "function"
    },
    {
      "inputs": [
        {
          "internalType": "address",
          "name": "token",
          "type": "address"
        },
        {
          "internalType": "uint256",
          "name": "cap",
          "type": "uint256"
        }
      ],
      "name": "setTokenCap",
      "outputs": [],
      "stateMutability": "nonpayable",
      "type": "function"
    },
    {
      "inputs": [
        {
          "internalType": "uint256",
          "name": "rate",
          "type": "uint256"
        }
      ],
      "name": "setUpdateRate",
      "outputs": [],
      "stateMutability": "nonpayable",
      "type": "function"
    },
    {
      "inputs": [
        {
          "internalType": "address",
          "name": "",
          "type": "address"
        }
      ],
      "name": "stakeAttackRecords",
      "outputs": [
        {
          "internalType": "uint256",
          "name": "blockNum",
          "type": "uint256"
        },
        {
          "internalType": "address",
          "name": "loser",
          "type": "address"
        },
        {
          "internalType": "uint256",
          "name": "amount",
          "type": "uint256"
        },
        {
          "internalType": "address",
          "name": "stakeAttacker",
          "type": "address"
        }
      ],
      "stateMutability": "view",
      "type": "function"
    },
    {
      "inputs": [
        {
          "internalType": "address",
          "name": "",
          "type": "address"
        }
      ],
      "name": "tokenCaps",
      "outputs": [
        {
          "internalType": "uint256",
          "name": "",
          "type": "uint256"
        }
      ],
      "stateMutability": "view",
      "type": "function"
    },
    {
      "inputs": [
        {
          "internalType": "address",
          "name": "",
          "type": "address"
        }
      ],
      "name": "tokenPrices",
      "outputs": [
        {
          "internalType": "uint256",
          "name": "blockLastUpdated",
          "type": "uint256"
        },
        {
          "internalType": "uint256",
          "name": "tokenPerRefAmount",
          "type": "uint256"
        },
        {
          "internalType": "bytes32",
          "name": "amms",
          "type": "bytes32"
        },
        {
          "internalType": "bytes32",
          "name": "inverseAmms",
          "type": "bytes32"
        }
      ],
      "stateMutability": "view",
      "type": "function"
    },
    {
      "inputs": [
        {
          "internalType": "address",
          "name": "",
          "type": "address"
        }
      ],
      "name": "totalLong",
      "outputs": [
        {
          "internalType": "uint256",
          "name": "",
          "type": "uint256"
        }
      ],
      "stateMutability": "view",
      "type": "function"
    },
    {
      "inputs": [
        {
          "internalType": "address",
          "name": "",
          "type": "address"
        }
      ],
      "name": "totalShort",
      "outputs": [
        {
          "internalType": "uint256",
          "name": "",
          "type": "uint256"
        }
      ],
      "stateMutability": "view",
      "type": "function"
    },
    {
      "inputs": [
        {
          "internalType": "uint256",
          "name": "role",
          "type": "uint256"
        }
      ],
      "name": "updateMainCharacterCache",
      "outputs": [],
      "stateMutability": "nonpayable",
      "type": "function"
    },
    {
      "inputs": [
        {
          "internalType": "uint256",
          "name": "role",
          "type": "uint256"
        },
        {
          "internalType": "address",
          "name": "contr",
          "type": "address"
        }
      ],
      "name": "updateRoleCache",
      "outputs": [],
      "stateMutability": "nonpayable",
      "type": "function"
    },
    {
      "inputs": [
        {
          "internalType": "address",
          "name": "trader",
          "type": "address"
        },
        {
          "internalType": "address",
          "name": "token",
          "type": "address"
        }
      ],
      "name": "viewBalanceInToken",
      "outputs": [
        {
          "internalType": "uint256",
          "name": "",
          "type": "uint256"
        }
      ],
      "stateMutability": "view",
      "type": "function"
    },
    {
      "inputs": [
        {
          "internalType": "address",
          "name": "token",
          "type": "address"
        },
        {
          "internalType": "uint256",
          "name": "inAmount",
          "type": "uint256"
        }
      ],
      "name": "viewCurrentPriceInPeg",
      "outputs": [
        {
          "internalType": "uint256",
          "name": "",
          "type": "uint256"
        }
      ],
      "stateMutability": "view",
      "type": "function"
    },
    {
      "inputs": [
        {
          "internalType": "address",
          "name": "trader",
          "type": "address"
        }
      ],
      "name": "viewHoldingsInPeg",
      "outputs": [
        {
          "internalType": "uint256",
          "name": "",
          "type": "uint256"
        }
      ],
      "stateMutability": "view",
      "type": "function"
    },
    {
      "inputs": [
        {
          "internalType": "address",
          "name": "trader",
          "type": "address"
        }
      ],
      "name": "viewLoanInPeg",
      "outputs": [
        {
          "internalType": "uint256",
          "name": "amount",
          "type": "uint256"
        }
      ],
      "stateMutability": "view",
      "type": "function"
    },
    {
      "inputs": [
        {
          "internalType": "uint256",
          "name": "",
          "type": "uint256"
        }
      ],
      "name": "volatilitySettings",
      "outputs": [
        {
          "internalType": "uint256",
          "name": "priceUpdateWindow",
          "type": "uint256"
        },
        {
          "internalType": "uint256",
          "name": "updateRatePermil",
          "type": "uint256"
        }
      ],
      "stateMutability": "view",
      "type": "function"
    }
  ],
  "bytecode": "0x60c06040526014600355603260045561012c6006556073600755600a600c55600a60135560056014556005601555600a6016553480156200003f57600080fd5b5060405162005e4438038062005e4483398101604081905262000062916200010a565b81816001600160a01b038116620000ca5760405162461bcd60e51b815260206004820152602260248201527f506c656173652070726f766964652076616c696420726f6c6573206164647265604482015261737360f01b606482015260840160405180910390fd5b6001600160601b0319606091821b811660805291901b1660a05250620001419050565b80516001600160a01b03811681146200010557600080fd5b919050565b600080604083850312156200011d578182fd5b6200012883620000ed565b91506200013860208401620000ed565b90509250929050565b60805160601c60a05160601c615c83620001c1600039600081816103da01528181610a2701528181610e7b0152818161178701528181611f970152818161213e01528181612b5901528181614de00152614f4c0152600081816104ee01528181610879015281816115cb01528181612d650152612dfd0152615c836000f3fe608060405234801561001057600080fd5b50600436106103365760003560e01c8063538edb29116101b2578063bc44dcbc116100f9578063d8039c26116100a2578063e9c3f77d1161007c578063e9c3f77d146107be578063ef859fc8146107e7578063f04c686514610824578063f99fd97c1461083757610336565b8063d8039c2614610778578063db2d904d1461078b578063e0f3871f1461079e57610336565b8063c74303aa116100d3578063c74303aa1461073f578063d0eb665314610752578063d510c5351461076557610336565b8063bc44dcbc146106f9578063bc70c66614610719578063c73afac21461072c57610336565b8063a17ab5271161015b578063a75697a511610135578063a75697a514610659578063a985994b14610679578063badb50481461068c57610336565b8063a17ab5271461062a578063a37189191461063d578063a53ac0d91461065057610336565b80637a1a04df1161018c5780637a1a04df146105e05780637d100e841461060e578063a00891591461061757610336565b8063538edb29146105bb57806354554b58146105c45780636585b5a6146105d757610336565b80632febaa7411610281578063447d52ba1161022a5780634aa4aca3116102045780634aa4aca3146105835780634cb776621461058c578063519bda851461059f57806352a664d9146105a857610336565b8063447d52ba1461053a57806347788cd01461054d578063498d55eb1461057057610336565b8063392f5f641161025b578063392f5f64146104e95780633ed456fa14610510578063409fdb721461051957610336565b80632febaa74146104af578063320d2fa0146104b85780633500aa0b146104c157610336565b80631d84cc18116102e3578063204120bc116102bd578063204120bc1461042757806320c271261461047c5780632b23f8571461049c57610336565b80631d84cc18146103c25780631f1cb62b146103d55780631f692a641461041457610336565b806310d584341161031457806310d584341461038957806316317e7e1461039c5780631d47e4a3146103af57610336565b8063071060a61461033b57806307c2017514610350578063093a483a14610363575b600080fd5b61034e610349366004615835565b61084a565b005b61034e61035e366004615692565b610936565b61037661037136600461563a565b610a23565b6040519081526020015b60405180910390f35b61034e610397366004615835565b610ac2565b61034e6103aa366004615835565b610b45565b61034e6103bd36600461563a565b610bc3565b61034e6103d03660046155e0565b610ca4565b6103fc7f000000000000000000000000000000000000000000000000000000000000000081565b6040516001600160a01b039091168152602001610380565b6103766104223660046154d6565b610d52565b61045c6104353660046154d6565b60026020526000908152604090208054600182015460038301546005909301549192909184565b604080519485526020850193909352918301526060820152608001610380565b61037661048a3660046154d6565b600b6020526000908152604090205481565b61034e6104aa366004615780565b610d87565b610376600c5481565b61037660075481565b6104d46104cf366004615546565b61111b565b60408051928352602083019190915201610380565b6103fc7f000000000000000000000000000000000000000000000000000000000000000081565b61037660035481565b61052c6105273660046154d6565b611415565b604051610380929190615913565b61034e610548366004615865565b61158c565b61056061055b3660046154d6565b61167d565b6040519015158152602001610380565b61034e61057e3660046155a0565b6116e4565b61037660145481565b61037661059a36600461563a565b611783565b61037660045481565b6103766105b63660046155a0565b6118ea565b61037660155481565b61034e6105d2366004615835565b611a0b565b61037660135481565b6105606105ee36600461563a565b600160209081526000928352604080842090915290825290205460ff1681565b61037660165481565b61034e610625366004615813565b611a89565b6103766106383660046154d6565b611b0b565b61034e61064b366004615835565b611b33565b61037660065481565b6103766106673660046154d6565b60116020526000908152604090205481565b610376610687366004615692565b611bb1565b6106ce61069a3660046154d6565b601260205260009081526040902080546001820154600283015460039093015491926001600160a01b039182169290911684565b604080519485526001600160a01b039384166020860152840191909152166060820152608001610380565b6103766107073660046154d6565b600a6020526000908152604090205481565b6104d4610727366004615835565b612315565b61034e61073a366004615835565b612343565b61034e61074d366004615835565b6123c1565b61034e6107603660046155a0565b61243f565b61052c6107733660046154d6565b6124cd565b61034e610786366004615889565b612711565b61034e6107993660046154d6565b612802565b6103766107ac3660046154d6565b60096020526000908152604090205481565b6103fc6107cc366004615835565b6000602081905290815260409020546001600160a01b031681565b6103766107f536600461550e565b6001600160a01b0391821660009081526008602090815260408083209390941682526005909201909152205490565b61034e610832366004615835565b6128e4565b61034e610845366004615835565b612a20565b6040517fb4ed0b6d000000000000000000000000000000000000000000000000000000008152600481018290527f00000000000000000000000000000000000000000000000000000000000000006001600160a01b03169063b4ed0b6d9060240160206040518083038186803b1580156108c357600080fd5b505afa1580156108d7573d6000803e3d6000fd5b505050506040513d601f19601f820116820180604052508101906108fb91906154f2565b600091825260208290526040909120805473ffffffffffffffffffffffffffffffffffffffff19166001600160a01b03909216919091179055565b60005b8082511115610a1f57600082828151811061096457634e487b7160e01b600052603260045260246000fd5b60200260200101519050600060126000836001600160a01b03166001600160a01b03168152602001908152602001600020905060145481600001546109a99190615a58565b431115610a0a576109b981612a9e565b506001600160a01b038216600090815260126020526040812081815560018101805473ffffffffffffffffffffffffffffffffffffffff199081169091556002820192909255600301805490911690555b50508080610a1790615bf1565b915050610939565b5050565b60007f00000000000000000000000000000000000000000000000000000000000000006001600160a01b0316836001600160a01b03161415610a66575080610abc565b6001600160a01b0383166000908152600260205260409020600180820154610a8d91615a58565b610a996006600a615ad6565b610aa4906064615ba4565b610aae9085615ba4565b610ab89190615a70565b9150505b92915050565b33610acb612d61565b6001600160a01b03161480610aef575033610ae4612df9565b6001600160a01b0316145b610b405760405162461bcd60e51b815260206004820152601e60248201527f526f6c65733a2063616c6c6572206973206e6f7420746865206f776e6572000060448201526064015b60405180910390fd5b601655565b33610b4e612d61565b6001600160a01b03161480610b72575033610b67612df9565b6001600160a01b0316145b610bbe5760405162461bcd60e51b815260206004820152601e60248201527f526f6c65733a2063616c6c6572206973206e6f7420746865206f776e657200006044820152606401610b37565b600755565b33610bcc612d61565b6001600160a01b03161480610bf0575033610be5612df9565b6001600160a01b0316145b80610c1657503360009081526001602090815260408083206009845290915290205460ff165b610c885760405162461bcd60e51b815260206004820152603960248201527f43616c6c6572206973206e6f7420746865206f776e65722c206578656375746f60448201527f72206f7220617574686f72697a656420616374697661746f72000000000000006064820152608401610b37565b6001600160a01b03909116600090815260096020526040902055565b3360009081526001602090815260408083206004845290915290205460ff16610d0f5760405162461bcd60e51b815260206004820152601d60248201527f43616c6c696e6720636f6e74722e206e6f7420617574686f72697a65640000006044820152606401610b37565b6001600160a01b0385166000908152600860205260409020610d32818686612e6a565b610d3d818484612f15565b610d4881848461301c565b4390555050505050565b6001600160a01b0381166000908152600860205260408120610d7e60018201600283016003840161313c565b9150505b919050565b33610d90612d61565b6001600160a01b03161480610db4575033610da9612df9565b6001600160a01b0316145b80610dda57503360009081526001602090815260408083206009845290915290205460ff165b610e4c5760405162461bcd60e51b815260206004820152603960248201527f43616c6c6572206973206e6f7420746865206f776e65722c206578656375746f60448201527f72206f7220617574686f72697a656420616374697661746f72000000000000006064820152608401610b37565b600081600081518110610e6f57634e487b7160e01b600052603260045260246000fd5b602002602001015190507f00000000000000000000000000000000000000000000000000000000000000006001600160a01b0316816001600160a01b031614611116576001600160a01b03811660009081526002602081815260409092206003810186905584519092610ee892840191908601906153a3565b50825167ffffffffffffffff811115610f1157634e487b7160e01b600052604160045260246000fd5b604051908082528060200260200182016040528015610f3a578160200160208202803683370190505b508051610f519160048401916020909101906153a3565b506000805b8060018651610f659190615bc3565b1115610ff15760008160028751610f7c9190615bc3565b610f869190615bc3565b610f91906008615ba4565b878360208110610fb157634e487b7160e01b600052603260045260246000fd5b1a60f81b7fff0000000000000000000000000000000000000000000000000000000000000016901c92909217915080610fe981615bf1565b915050610f56565b506005820181905560005b80855111156110b0578460018287516110159190615bc3565b61101f9190615bc3565b8151811061103d57634e487b7160e01b600052603260045260246000fd5b602002602001015183600401828154811061106857634e487b7160e01b600052603260045260246000fd5b6000918252602090912001805473ffffffffffffffffffffffffffffffffffffffff19166001600160a01b0392909216919091179055806110a881615bf1565b915050610ffc565b5060006110d46110c26006600a615ad6565b6110cd906064615ba4565b87876131c0565b5090506000816000815181106110fa57634e487b7160e01b600052603260045260246000fd5b6020026020010151905061111184826103e86134d8565b505050505b505050565b33600090815260016020908152604080832060048452909152812054819060ff166111885760405162461bcd60e51b815260206004820181905260248201527f43616c6c696e6720636f6e74722e206e6f7420616e20617574686f72697a65646044820152606401610b37565b6001600160a01b03808816600090815260086020908152604080832093891683526002840190915290205415611219576001600160a01b03861660009081526002820160205260409020546111de908590613521565b92506111eb818785613539565b6001600160a01b0386166000908152600a602052604081208054859290611213908490615bc3565b90915550505b6001600160a01b038716600090815260058201602052604090205485908082111561124e5790508061124b8188615bc3565b93505b8387111561128e576112608488615bc3565b6001600160a01b038a166000908152600b602052604081208054909190611288908490615bc3565b90915550505b848611156112ce576112a08587615bc3565b6001600160a01b0389166000908152600b6020526040812080549091906112c8908490615a58565b90915550505b6001600160a01b0388166000908152600b602090815260408083205460099092529091205410156113415760405162461bcd60e51b815260206004820152601860248201527f4578636565647320676c6f62616c20746f6b656e2063617000000000000000006044820152606401610b37565b611357838a8a856113528a8c615bc3565b613815565b8315611408576001600160a01b0389166000908152600a602052604081208054869290611385908490615a58565b90915550506001600160a01b0389166000908152600a602090815260408083205460099092529091205410156113fd5760405162461bcd60e51b815260206004820152601860248201527f4578636565647320676c6f62616c20746f6b656e2063617000000000000000006044820152606401610b37565b611408838a86613868565b5050509550959350505050565b6001600160a01b03811660009081526008602090815260409182902060048101805484518185028101850190955280855260609485949092919083018282801561148857602002820191906000526020600020905b81546001600160a01b0316815260019091019060200180831161146a575b5050506004840154929550505067ffffffffffffffff8111156114bb57634e487b7160e01b600052604160045260246000fd5b6040519080825280602002602001820160405280156114e4578160200160208202803683370190505b50915060005b808451111561158557600084828151811061151557634e487b7160e01b600052603260045260246000fd5b60200260200101519050826005016000826001600160a01b03166001600160a01b031681526020019081526020016000205484838151811061156757634e487b7160e01b600052603260045260246000fd5b6020908102919091010152508061157d81615bf1565b9150506114ea565b5050915091565b6040517f93552a3d000000000000000000000000000000000000000000000000000000008152600481018390526001600160a01b0382811660248301527f000000000000000000000000000000000000000000000000000000000000000016906393552a3d9060440160206040518083038186803b15801561160d57600080fd5b505afa158015611621573d6000803e3d6000fd5b505050506040513d601f19601f820116820180604052508101906116459190615760565b6001600160a01b0391909116600090815260016020908152604080832094835293905291909120805460ff1916911515919091179055565b6001600160a01b0381166000908152600860205260408120816116aa60018301600284016003850161313c565b905060006116be8360040184600501613b17565b9050816007546116ce9190615ba4565b6116d9826064615ba4565b101595945050505050565b3360009081526001602090815260408083206004845290915290205460ff1661174f5760405162461bcd60e51b815260206004820152601d60248201527f43616c6c696e6720636f6e74722e206e6f7420617574686f72697a65640000006044820152606401610b37565b6001600160a01b0383166000908152600860205260409020611772818484613ba2565b61177d818484612f15565b50505050565b60007f00000000000000000000000000000000000000000000000000000000000000006001600160a01b0316836001600160a01b031614156117c6575080610abc565b6001600160a01b038316600090815260026020526040902060035481546117ed9043615bc3565b11806117fb57506001810154155b156118095761180981613c55565b6118476040518060400160405280600781526020017f696e746f6b656e00000000000000000000000000000000000000000000000000815250613d10565b61185084613d84565b61188e6040518060400160405280600881526020017f696e616d6f756e74000000000000000000000000000000000000000000000000815250613d10565b61189783613dfa565b6118db816001015460016118ab9190615a58565b6118b76006600a615ad6565b6118c2906064615ba4565b6118cc9086615ba4565b6118d69190615a70565b613dfa565b600180820154610a8d91615a58565b3360009081526001602090815260408083206004845290915281205460ff166119555760405162461bcd60e51b815260206004820152601d60248201527f43616c6c696e6720636f6e74722e206e6f7420617574686f72697a65640000006044820152606401610b37565b6001600160a01b038085166000908152600860209081526040808320438155938716835260028401909152902054156119e9576001600160a01b03841660009081526002820160205260409020546119ae908490613521565b91506119bb818584613539565b6001600160a01b0384166000908152600a6020526040812080548492906119e3908490615bc3565b90915550505b60006119f58385615bc3565b9050611a02828683612e6a565b50509392505050565b33611a14612d61565b6001600160a01b03161480611a38575033611a2d612df9565b6001600160a01b0316145b611a845760405162461bcd60e51b815260206004820152601e60248201527f526f6c65733a2063616c6c6572206973206e6f7420746865206f776e657200006044820152606401610b37565b600455565b33611a92612d61565b6001600160a01b03161480611ab6575033611aab612df9565b6001600160a01b0316145b611b025760405162461bcd60e51b815260206004820152601e60248201527f526f6c65733a2063616c6c6572206973206e6f7420746865206f776e657200006044820152606401610b37565b61ffff16600355565b6001600160a01b0381166000908152600860205260408120610d7e6004820160058301613b17565b33611b3c612d61565b6001600160a01b03161480611b60575033611b55612df9565b6001600160a01b0316145b611bac5760405162461bcd60e51b815260206004820152601e60248201527f526f6c65733a2063616c6c6572206973206e6f7420746865206f776e657200006044820152606401610b37565b601455565b6000333214611c285760405162461bcd60e51b815260206004820152603a60248201527f43757272656e746c79206e6f20696e7465726d656469617269657320616c6c6f60448201527f77656420666f7220746869732066756e6374696f6e2063616c6c0000000000006064820152608401610b37565b6000611c65606b60009081526020527f2dc7a963308417ad45132da282495eb244f38a7db03940a4d808be607669c622546001600160a01b031690565b6040517f7b23cbce0000000000000000000000000000000000000000000000000000000081523360048201526001600160a01b039190911690637b23cbce90602401602060405180830381600087803b158015611cc157600080fd5b505af1158015611cd5573d6000803e3d6000fd5b505050506040513d601f19601f82011682018060405250810190611cf99190615760565b905060008180611d0c5750611d0c613e6d565b9050611d188483613f4d565b92506000611d246144b3565b90506000611d30614595565b9050600060646015546064611d459190615a58565b611d4f9084615ba4565b611d599190615a70565b905082811115611da0577f3555ffae7677eb42103f0b9e11b61c758f452fae446684dec7a363dd38ab58fc611d8e8483615bc3565b60405190815260200160405180910390a15b600084611e5157606b60009081526020527f2dc7a963308417ad45132da282495eb244f38a7db03940a4d808be607669c622546001600160a01b03166001600160a01b0316631a38de1d6040518163ffffffff1660e01b8152600401602060405180830381600087803b158015611e1657600080fd5b505af1158015611e2a573d6000803e3d6000fd5b505050506040513d601f19601f82011682018060405250810190611e4e91906154f2565b90505b60005b6010548110156120a957600060108281548110611e8157634e487b7160e01b600052603260045260246000fd5b60009182526020808320909101546001600160a01b031680835260089091526040822090925090611eb182614670565b90506000611ebe83614682565b90506000606460155483611ed29190615ba4565b611edc9190615a70565b9050611ee8818e615a58565b9c508a611f4a576001600160a01b038581166000908152601260205260409020600281018390556003810180543373ffffffffffffffffffffffffffffffffffffffff1991821617909155438255600190910180549091169189169190911790555b611f548282615a58565b83111561204c57606560009081526020527f4a7203f705e51df4a56139a9b86b4a0970bed7ab7a3446eaffe2289989c1645c546001600160a01b031663d9caed127f00000000000000000000000000000000000000000000000000000000000000008784611fc28789615bc3565b611fcc9190615bc3565b6040517fffffffff0000000000000000000000000000000000000000000000000000000060e086901b1681526001600160a01b0393841660048201529290911660248301526044820152606401600060405180830381600087803b15801561203357600080fd5b505af1158015612047573d6000803e3d6000fd5b505050505b6040516001600160a01b03861681527f1d2cc4c8661a04a00b4e727426220501b36d85bb330947642c2d4320667028cf9060200160405180910390a161209184614698565b505050505080806120a190615bf1565b915050611e54565b5060648760135460636120bc9190615ba4565b6120c69190615a58565b6120d09190615a70565b60135584156121b257606560009081526020527f4a7203f705e51df4a56139a9b86b4a0970bed7ab7a3446eaffe2289989c1645c546001600160a01b03166040517fd9caed120000000000000000000000000000000000000000000000000000000081526001600160a01b037f000000000000000000000000000000000000000000000000000000000000000081166004830152336024830152604482018a9052919091169063d9caed1290606401600060405180830381600087803b15801561219957600080fd5b505af11580156121ad573d6000803e3d6000fd5b505050505b60006121ef606b60009081526020527f2dc7a963308417ad45132da282495eb244f38a7db03940a4d808be607669c622546001600160a01b031690565b6001600160a01b0316631a38de1d6040518163ffffffff1660e01b8152600401602060405180830381600087803b15801561222957600080fd5b505af115801561223d573d6000803e3d6000fd5b505050506040513d601f19601f8201168201806040525081019061226191906154f2565b905086156122db576001600160a01b0381166000908152601160205260409020548810156122bc576001600160a01b038116600090815260116020526040812080548a92906122b1908490615bc3565b909155506122d69050565b6001600160a01b0381166000908152601160205260408120555b612309565b6001600160a01b038116600090815260116020526040812080548a9290612303908490615a58565b90915550505b50505050505050919050565b6005818154811061232557600080fd5b60009182526020909120600290910201805460019091015490915082565b3361234c612d61565b6001600160a01b03161480612370575033612365612df9565b6001600160a01b0316145b6123bc5760405162461bcd60e51b815260206004820152601e60248201527f526f6c65733a2063616c6c6572206973206e6f7420746865206f776e657200006044820152606401610b37565b601555565b336123ca612d61565b6001600160a01b031614806123ee5750336123e3612df9565b6001600160a01b0316145b61243a5760405162461bcd60e51b815260206004820152601e60248201527f526f6c65733a2063616c6c6572206973206e6f7420746865206f776e657200006044820152606401610b37565b600655565b3360009081526001602090815260408083206004845290915290205460ff166124aa5760405162461bcd60e51b815260206004820152601c60248201527f43616c6c696e6720636f6e7472206e6f7420617574686f72697a6564000000006044820152606401610b37565b6001600160a01b038316600090815260086020526040902061177d81848461301c565b6001600160a01b03811660009081526008602090815260409182902060018101805484518185028101850190955280855260609485949092919083018282801561254057602002820191906000526020600020905b81546001600160a01b03168152600190910190602001808311612522575b5050506001840154929550505067ffffffffffffffff81111561257357634e487b7160e01b600052604160045260246000fd5b60405190808252806020026020018201604052801561259c578160200160208202803683370190505b50915060005b80845111156115855760008482815181106125cd57634e487b7160e01b600052603260045260246000fd5b60200260200101519050612612606660009081526020527f422cccb7cea5c0e46f340bb7b21b81debac329f72e31669c20ff0f3a05cc2b5b546001600160a01b031690565b6001600160a01b03828116600081815260028701602090815260408083205460038a01909252918290205491517f76668b670000000000000000000000000000000000000000000000000000000081526004810191909152602481019290925260448201529116906376668b679060640160206040518083038186803b15801561269b57600080fd5b505afa1580156126af573d6000803e3d6000fd5b505050506040513d601f19601f820116820180604052508101906126d3919061584d565b8483815181106126f357634e487b7160e01b600052603260045260246000fd5b6020908102919091010152508061270981615bf1565b9150506125a2565b3361271a612d61565b6001600160a01b0316148061273e575033612733612df9565b6001600160a01b0316145b61278a5760405162461bcd60e51b815260206004820152601e60248201527f526f6c65733a2063616c6c6572206973206e6f7420746865206f776e657200006044820152606401610b37565b60408051808201909152918252602082019081526005805460018101825560009190915291517f036b6384b5eca791c62761152d0c79bb0604c104a5fb6f4eb0703f3154bb3db0600290930292830155517f036b6384b5eca791c62761152d0c79bb0604c104a5fb6f4eb0703f3154bb3db190910155565b3360009081526001602090815260408083206004845290915290205460ff1661286d5760405162461bcd60e51b815260206004820152601d60248201527f43616c6c696e6720636f6e74722e206e6f7420617574686f72697a65640000006044820152606401610b37565b6001600160a01b038116600090815260086020526040902061288e81614682565b156128db5760405162461bcd60e51b815260206004820152601a60248201527f43616e2774206c69717569646174653a20626f72726f77696e670000000000006044820152606401610b37565b610a1f81614698565b336128ed612d61565b6001600160a01b03161480612911575033612906612df9565b6001600160a01b0316145b8061295f5750336129546103e960009081526020527f236f539bf6e1b3b15a335e3cd157d360bc4be88c071635c19ba8a82b4f665e9f546001600160a01b031690565b6001600160a01b0316145b6129d15760405162461bcd60e51b815260206004820152603860248201527f43616c6c6572206973206e6f7420746865206f776e65722c206578656375746f60448201527f72206f7220617574686f72697a65642064697361626c657200000000000000006064820152608401610b37565b6000600582815481106129f457634e487b7160e01b600052603260045260246000fd5b90600052602060002090600202019050600081600101541115610a1f5760018101546004555460035550565b33612a29612d61565b6001600160a01b03161480612a4d575033612a42612df9565b6001600160a01b0316145b612a995760405162461bcd60e51b815260206004820152601e60248201527f526f6c65733a2063616c6c6572206973206e6f7420746865206f776e657200006044820152606401610b37565b600c55565b600281015460009015610d82578154600090612ac690612abe9043615bc3565b601454613521565b90506000601454828560020154612add9190615ba4565b612ae79190615a70565b9050612b24606560009081526020527f4a7203f705e51df4a56139a9b86b4a0970bed7ab7a3446eaffe2289989c1645c546001600160a01b031690565b60038501546040517fd9caed120000000000000000000000000000000000000000000000000000000081526001600160a01b037f00000000000000000000000000000000000000000000000000000000000000008116600483015291821660248201526044810184905291169063d9caed1290606401600060405180830381600087803b158015612bb457600080fd5b505af1158015612bc8573d6000803e3d6000fd5b505050506000612c09606b60009081526020527f2dc7a963308417ad45132da282495eb244f38a7db03940a4d808be607669c622546001600160a01b031690565b9050600060135483836001600160a01b0316630ad691506040518163ffffffff1660e01b815260040160206040518083038186803b158015612c4a57600080fd5b505afa158015612c5e573d6000803e3d6000fd5b505050506040513d601f19601f82011682018060405250810190612c82919061584d565b612c8c9190615ba4565b612c969190615a70565b600187015460038801546040517f0a45bc1b0000000000000000000000000000000000000000000000000000000081526001600160a01b039283166004820152602481018490529082166044820152919250831690630a45bc1b90606401602060405180830381600087803b158015612d0e57600080fd5b505af1158015612d22573d6000803e3d6000fd5b505050506040513d601f19601f82011682018060405250810190612d46919061584d565b50828660020154612d579190615bc3565b9695505050505050565b60007f00000000000000000000000000000000000000000000000000000000000000006001600160a01b0316638da5cb5b6040518163ffffffff1660e01b815260040160206040518083038186803b158015612dbc57600080fd5b505afa158015612dd0573d6000803e3d6000fd5b505050506040513d601f19601f82011682018060405250810190612df491906154f2565b905090565b60007f00000000000000000000000000000000000000000000000000000000000000006001600160a01b031663c34c08e56040518163ffffffff1660e01b8152600401602060405180830381600087803b158015612e5657600080fd5b505af1158015612dd0573d6000803e3d6000fd5b612e75838383613ba2565b6001600160a01b0382166000908152600b602052604081208054839290612e9d908490615a58565b90915550506001600160a01b0382166000908152600b602090815260408083205460099092529091205410156111165760405162461bcd60e51b815260206004820152601860248201527f4578636565647320676c6f62616c20746f6b656e2063617000000000000000006044820152606401610b37565b6001600160a01b0382166000908152600a602052604081208054839290612f3d908490615a58565b90915550506001600160a01b0382166000908152600b602052604081208054839290612f6a908490615a58565b90915550506001600160a01b0382166000908152600a602090815260408083205460099092529091205410801590612fc557506001600160a01b0382166000908152600b602090815260408083205460099092529091205410155b6130115760405162461bcd60e51b815260206004820152601860248201527f4578636565647320676c6f62616c20746f6b656e2063617000000000000000006044820152606401610b37565b611116838383613868565b600c54835461302b9190615a58565b43116130795760405162461bcd60e51b815260206004820181905260248201527f4e6f207769746864726177616c20736f6f6e206166746572206465706f7369746044820152606401610b37565b6001600160a01b0382166000908152600b6020526040812080548392906130a1908490615bc3565b90915550506001600160a01b03821660009081526005840160205260409020546130cc908290615bc3565b6001600160a01b03831660009081526005850160205260409020556130f083614828565b6111165760405162461bcd60e51b815260206004820152601460248201527f496e73756666696369656e742062616c616e63650000000000000000000000006044820152606401610b37565b8254600090815b81811015611a0257600086828154811061316d57634e487b7160e01b600052603260045260246000fd5b60009182526020808320909101546001600160a01b0316808352908890526040909120549091506131a090829087614874565b6131aa9085615a58565b93505080806131b890615bf1565b915050613143565b6060806002835110156132155760405162461bcd60e51b815260206004820152601460248201527f746f6b656e207061746820746f6f2073686f72740000000000000000000000006044820152606401610b37565b825167ffffffffffffffff81111561323d57634e487b7160e01b600052604160045260246000fd5b604051908082528060200260200182016040528015613266578160200160208202803683370190505b5091508482600184516132799190615bc3565b8151811061329757634e487b7160e01b600052603260045260246000fd5b602002602001018181525050600183516132b19190615bc3565b67ffffffffffffffff8111156132d757634e487b7160e01b600052604160045260246000fd5b604051908082528060200260200182016040528015613300578160200160208202803683370190505b5090506000600184516133139190615bc3565b90505b80156134cf5760008461332a600184615bc3565b8151811061334857634e487b7160e01b600052603260045260246000fd5b60200260200101519050600085838151811061337457634e487b7160e01b600052603260045260246000fd5b6020026020010151905060008760018561338e9190615bc3565b602081106133ac57634e487b7160e01b600052603260045260246000fd5b1a60f81b7fff0000000000000000000000000000000000000000000000000000000000000016156133e6576133e1838361498f565b6133f0565b6133f08383614a98565b905080856133ff600187615bc3565b8151811061341d57634e487b7160e01b600052603260045260246000fd5b60200260200101906001600160a01b031690816001600160a01b03168152505060008061344b838686614b84565b9150915061348188878151811061347257634e487b7160e01b600052603260045260246000fd5b60200260200101518383614c61565b8861348d600189615bc3565b815181106134ab57634e487b7160e01b600052603260045260246000fd5b602002602001018181525050505050505080806134c790615bda565b915050613316565b50935093915050565b6103e86134e58284615ba4565b6134f1836103e8615bc3565b85600101546135009190615ba4565b61350a9190615a58565b6135149190615a70565b8360010181905550505050565b600081831115613532575080610abc565b5081610abc565b600080613577606660009081526020527f422cccb7cea5c0e46f340bb7b21b81debac329f72e31669c20ff0f3a05cc2b5b546001600160a01b031690565b6001600160a01b03858116600081815260028901602090815260408083205460038c01909252918290205491517fe695fa6800000000000000000000000000000000000000000000000000000000815260048101919091526024810192909252604482015291169063e695fa68906064016040805180830381600087803b15801561360157600080fd5b505af1158015613615573d6000803e3d6000fd5b505050506040513d601f19601f8201168201806040525081019061363991906158aa565b9092509050600061364a8484615bc3565b6001600160a01b0386166000908152600288016020908152604080832084905560058a01909152902054909150613682908590615bc3565b6001600160a01b038616600090815260058801602052604090205580156136c5576001600160a01b0385166000908152600387016020526040902082905561380d565b6001600160a01b038516600090815260038701602052604081208190556001870154815b808211156137b957600089600101828154811061371657634e487b7160e01b600052603260045260246000fd5b6000918252602090912001546001600160a01b039081169150891681141561374157600193506137a6565b83156137a657808a6001016001846137599190615bc3565b8154811061377757634e487b7160e01b600052603260045260246000fd5b9060005260206000200160006101000a8154816001600160a01b0302191690836001600160a01b031602179055505b50806137b181615bf1565b9150506136e9565b50876001018054806137db57634e487b7160e01b600052603160045260246000fd5b6000828152602090208101600019908101805473ffffffffffffffffffffffffffffffffffffffff1916905501905550505b505050505050565b6001600160a01b038416600090815260058601602052604090205461383b908390615bc3565b6001600160a01b0385166000908152600587016020526040902055613861858483613ba2565b5050505050565b6001600160a01b03821660009081526003840160205260409020546139c45760018381018054918201815560009081526020902001805473ffffffffffffffffffffffffffffffffffffffff19166001600160a01b0384161790556138fe606660009081526020527f422cccb7cea5c0e46f340bb7b21b81debac329f72e31669c20ff0f3a05cc2b5b546001600160a01b031690565b6040517f46c87f800000000000000000000000000000000000000000000000000000000081526001600160a01b03848116600483015291909116906346c87f8090602401602060405180830381600087803b15801561395c57600080fd5b505af1158015613970573d6000803e3d6000fd5b505050506040513d601f19601f82011682018060405250810190613994919061584d565b6001600160a01b038316600090815260038501602090815260408083209390935560028601905220819055613b0e565b600080613a02606660009081526020527f422cccb7cea5c0e46f340bb7b21b81debac329f72e31669c20ff0f3a05cc2b5b546001600160a01b031690565b6001600160a01b03858116600081815260028901602090815260408083205460038c01909252918290205491517fe695fa6800000000000000000000000000000000000000000000000000000000815260048101919091526024810192909252604482015291169063e695fa68906064016040805180830381600087803b158015613a8c57600080fd5b505af1158015613aa0573d6000803e3d6000fd5b505050506040513d601f19601f82011682018060405250810190613ac491906158aa565b6001600160a01b038616600090815260038801602052604090208190559092509050613af08383615a58565b6001600160a01b038516600090815260028701602052604090205550505b6130f083614828565b8154600090815b81811015613b9a576000858281548110613b4857634e487b7160e01b600052603260045260246000fd5b60009182526020808320909101546001600160a01b031680835290879052604090912054909150613b7a908290610a23565b613b849085615a58565b9350508080613b9290615bf1565b915050613b1e565b505092915050565b6001600160a01b038216600090815260068401602052604090205460ff16613c21576004830180546001808201835560009283526020808420909201805473ffffffffffffffffffffffffffffffffffffffff19166001600160a01b0387169081179091558352600686019091526040909120805460ff191690911790555b6001600160a01b038216600090815260058401602052604081208054839290613c4b908490615a58565b9091555050505050565b6000613cd8613c666006600a615ad6565b613c71906064615ba4565b836003015484600201805480602002602001604051908101604052809291908181526020018280548015613cce57602002820191906000526020600020905b81546001600160a01b03168152600190910190602001808311613cb0575b50505050506131c0565b509050610a1f8282600081518110613d0057634e487b7160e01b600052603260045260246000fd5b60200260200101516004546134d8565b613d8181604051602401613d24919061598b565b60408051601f198184030181529190526020810180517bffffffffffffffffffffffffffffffffffffffffffffffffffffffff167f41304fac00000000000000000000000000000000000000000000000000000000179052614d7e565b50565b6040516001600160a01b0382166024820152613d819060440160408051601f198184030181529190526020810180517bffffffffffffffffffffffffffffffffffffffffffffffffffffffff167f2c2ecbc200000000000000000000000000000000000000000000000000000000179052614d7e565b613d8181604051602401613e1091815260200190565b60408051601f198184030181529190526020810180517bffffffffffffffffffffffffffffffffffffffffffffffffffffffff167ff5b1bba900000000000000000000000000000000000000000000000000000000179052614d7e565b600080613eab606b60009081526020527f2dc7a963308417ad45132da282495eb244f38a7db03940a4d808be607669c622546001600160a01b031690565b6001600160a01b031663b0411f466040518163ffffffff1660e01b8152600401604080518083038186803b158015613ee257600080fd5b505afa158015613ef6573d6000803e3d6000fd5b505050506040513d601f19601f82011682018060405250810190613f1a9190615665565b509050601354601654613f2d9190615ba4565b6001600160a01b0390911660009081526011602052604090205411905090565b604080516000808252602082019283905290519091613f6f91600e91906153a3565b506040805160008152602081019182905251613f8d91600f916153a3565b506040805160008152602081019182905251613fab916010916153a3565b5060005b80845111156144ac576000848281518110613fda57634e487b7160e01b600052603260045260246000fd5b60200260200101519050600060086000836001600160a01b03166001600160a01b03168152602001908152602001600020905061401681614d9f565b15614462576010805460018101825560009182527f1b6847dc741a1b0cd08d278845f9d819d87b734759afb55fe2de5cb82a9ae67201805473ffffffffffffffffffffffffffffffffffffffff19166001600160a01b0385161790556004820154905b808211156141a25760008360040182815481106140a657634e487b7160e01b600052603260045260246000fd5b60009182526020808320909101546001600160a01b0316808352600d90915260409091206002810154919250904314614157576001600160a01b0382166000818152600587016020526040812054600180850191909155818455436002850155600e805491820181559091527fbb7b4a454dc3493923482f07822329ed19e8244eff582cc204f8554c3620c3fd01805473ffffffffffffffffffffffffffffffffffffffff1916909117905561418d565b6001600160a01b038216600090815260058601602052604081205460018301805491929091614187908490615a58565b90915550505b5050808061419a90615bf1565b915050614079565b5050600181015460005b8082111561445f5760008360010182815481106141d957634e487b7160e01b600052603260045260246000fd5b60009182526020808320909101546001600160a01b0316808352600d909152604082209092509061423b606660009081526020527f422cccb7cea5c0e46f340bb7b21b81debac329f72e31669c20ff0f3a05cc2b5b546001600160a01b031690565b6001600160a01b03848116600081815260028a01602090815260408083205460038d01909252918290205491517fe695fa6800000000000000000000000000000000000000000000000000000000815260048101919091526024810192909252604482015291169063e695fa68906064016040805180830381600087803b1580156142c557600080fd5b505af11580156142d9573d6000803e3d6000fd5b505050506040513d601f19601f820116820180604052508101906142fd91906158aa565b50905061433b606660009081526020527f422cccb7cea5c0e46f340bb7b21b81debac329f72e31669c20ff0f3a05cc2b5b546001600160a01b031690565b6040517f2a6a897b0000000000000000000000000000000000000000000000000000000081526001600160a01b038581166004830152602482018490529190911690632a6a897b90604401600060405180830381600087803b1580156143a057600080fd5b505af11580156143b4573d6000803e3d6000fd5b505050504382600201541461442f5760006001838101829055828455436002850155600f805491820181559091527f8d1108e10bcb7c27dddfc02ed9d693a074039d026cf4ea4240b40f7d581ac80201805473ffffffffffffffffffffffffffffffffffffffff19166001600160a01b038516179055614449565b808260000160008282546144439190615a58565b90915550505b505050808061445790615bf1565b9150506141ac565b50505b6001600160a01b038216600090815260126020526040902085156144965761448981612a9e565b6144939086615a58565b94505b50505080806144a490615bf1565b915050613faf565b5092915050565b600e54600090815b80821115614584576000600e82815481106144e657634e487b7160e01b600052603260045260246000fd5b60009182526020808320909101546001600160a01b0316808352600d9091526040909120805460018201549293509091111561456f578054600182015460009161452f91615bc3565b905061453b8382614ddc565b6145459087615a58565b6001600160a01b0384166000908152600d6020526040812081815560018101829055600201559550505b5050808061457c90615bf1565b9150506144bb565b50614591600e6000615411565b5090565b600f54600090815b80821115614663576000600f82815481106145c857634e487b7160e01b600052603260045260246000fd5b60009182526020808320909101546001600160a01b0316808352600d9091526040909120600181015481549293509091111561464e5761461b82826001015483600001546146169190615bc3565b614f48565b6146259086615a58565b6001600160a01b0383166000908152600d60205260408120818155600181018290556002015594505b5050808061465b90615bf1565b91505061459d565b50614591600f6000615411565b6000610abc82600401836005016150a3565b6000610abc826001018360020184600301615126565b600181015460005b8082111561474d5760008360010182815481106146cd57634e487b7160e01b600052603260045260246000fd5b60009182526020808320909101546001600160a01b0316808352600287018252604080842054600a9093528320805491945091929061470d908490615bc3565b90915550506001600160a01b031660009081526002840160209081526040808320839055600386019091528120558061474581615bf1565b9150506146a0565b5050600481015460005b8082111561480b57600083600401828154811061478457634e487b7160e01b600052603260045260246000fd5b60009182526020808320909101546001600160a01b0316808352600587018252604080842054600b909352832080549194509192906147c4908490615bc3565b90915550506001600160a01b031660009081526005840160209081526040808320839055600686019091529020805460ff191690558061480381615bf1565b915050614757565b5061481a600183016000615411565b610a1f600483016000615411565b60008061483483614682565b9050600061484184614670565b9050600654826148519190615ba4565b60646006546148609190615bc3565b61486a9083615ba4565b1015949350505050565b6000806148b2606660009081526020527f422cccb7cea5c0e46f340bb7b21b81debac329f72e31669c20ff0f3a05cc2b5b546001600160a01b031690565b6040517f14189db20000000000000000000000000000000000000000000000000000000081526001600160a01b03878116600483015291909116906314189db29060240160206040518083038186803b15801561490e57600080fd5b505afa158015614922573d6000803e3d6000fd5b505050506040513d601f19601f82011682018060405250810190614946919061584d565b6001600160a01b0386166000908152602085905260408120549192509061496d8387615ba4565b6149779190615a70565b90506149838682610a23565b925050505b9392505050565b600080600061499e85856151aa565b60408051606084811b7fffffffffffffffffffffffffffffffffffffffff0000000000000000000000009081166020808501919091529185901b166034830152825160288184030181526048830190935282519201919091207fff0000000000000000000000000000000000000000000000000000000000000060688301527fc0aee478e3658e2610c5f7a4a2e1777ce9e4f2ac0000000000000000000000006069830152607d8201527fe18a34eb0e04b04f7a0ac29a6e80748dca96319b42c54d679cb821dca90c6303609d820152919350915060bd015b60408051601f19818403018152919052805160209091012095945050505050565b6000806000614aa785856151aa565b60408051606084811b7fffffffffffffffffffffffffffffffffffffffff0000000000000000000000009081166020808501919091529185901b166034830152825160288184030181526048830190935282519201919091207fff0000000000000000000000000000000000000000000000000000000000000060688301527f5c69bee701ef814a2b6a3edd4b1652cb9cc5aa6f0000000000000000000000006069830152607d8201527f96e8ac4277198ff8b6f785478aa9a39f403cb768dd02cbee326c3e7da348845f609d820152919350915060bd01614a77565b6000806000614b9385856151aa565b509050600080876001600160a01b0316630902f1ac6040518163ffffffff1660e01b815260040160606040518083038186803b158015614bd257600080fd5b505afa158015614be6573d6000803e3d6000fd5b505050506040513d601f19601f82011682018060405250810190614c0a91906157c5565b506dffffffffffffffffffffffffffff1691506dffffffffffffffffffffffffffff169150826001600160a01b0316876001600160a01b031614614c4f578082614c52565b81815b90999098509650505050505050565b6000808411614cb25760405162461bcd60e51b815260206004820152601a60248201527f494e53554646494349454e545f4f55545055545f414d4f554e540000000000006044820152606401610b37565b600083118015614cc25750600082115b614d345760405162461bcd60e51b815260206004820152602860248201527f556e697377617056324c6962726172793a20494e53554646494349454e545f4c60448201527f49515549444954590000000000000000000000000000000000000000000000006064820152608401610b37565b6000614d408585615ba4565b614d4c906103e8615ba4565b905060006103e5614d5d8786615bc3565b614d679190615bc3565b9050614d738183615a70565b614983906001615a58565b80516a636f6e736f6c652e6c6f67602083016000808483855afa5050505050565b600080614dab83614682565b90506000614db884614670565b905081600754614dc89190615ba4565b614dd3826064615ba4565b10949350505050565b60007f00000000000000000000000000000000000000000000000000000000000000006001600160a01b0316836001600160a01b03161415614e1f575080610abc565b6001600160a01b038316600090815260026020526040812090614e73606760009081526020527f682158d08466d11c566d5712d4396197fdd67e65be71d83c97ef719ec468867b546001600160a01b031690565b6001600160a01b031663351ae6108560008560030154866002016040518563ffffffff1660e01b8152600401614eac94939291906159de565b600060405180830381600087803b158015614ec657600080fd5b505af1158015614eda573d6000803e3d6000fd5b505050506040513d6000823e601f3d908101601f19168201604052614f0291908101906156cd565b905060008160018351614f159190615bc3565b81518110614f3357634e487b7160e01b600052603260045260246000fd5b60200260200101519050809350505050610abc565b60007f00000000000000000000000000000000000000000000000000000000000000006001600160a01b0316836001600160a01b03161415614f8b575080610abc565b6001600160a01b038316600090815260026020526040812090614fdf606760009081526020527f682158d08466d11c566d5712d4396197fdd67e65be71d83c97ef719ec468867b546001600160a01b031690565b6001600160a01b03166353d7ff9f856000198560030154866004016040518563ffffffff1660e01b815260040161501994939291906159de565b600060405180830381600087803b15801561503357600080fd5b505af1158015615047573d6000803e3d6000fd5b505050506040513d6000823e601f3d908101601f1916820160405261506f91908101906156cd565b90508060008151811061509257634e487b7160e01b600052603260045260246000fd5b602002602001015192505050610abc565b8154600090815b81811015613b9a5760008582815481106150d457634e487b7160e01b600052603260045260246000fd5b60009182526020808320909101546001600160a01b031680835290879052604090912054909150615106908290611783565b6151109085615a58565b935050808061511e90615bf1565b9150506150aa565b8254600090815b81811015611a0257600086828154811061515757634e487b7160e01b600052603260045260246000fd5b60009182526020808320909101546001600160a01b03168083529088905260409091205490915061518a90829087615294565b6151949085615a58565b93505080806151a290615bf1565b91505061512d565b600080826001600160a01b0316846001600160a01b0316141561520f5760405162461bcd60e51b815260206004820152601260248201527f4964656e746963616c20616464726573732100000000000000000000000000006044820152606401610b37565b826001600160a01b0316846001600160a01b03161061522f578284615232565b83835b90925090506001600160a01b03821661528d5760405162461bcd60e51b815260206004820152600d60248201527f5a65726f206164647265737321000000000000000000000000000000000000006044820152606401610b37565b9250929050565b6000806152d2606660009081526020527f422cccb7cea5c0e46f340bb7b21b81debac329f72e31669c20ff0f3a05cc2b5b546001600160a01b031690565b6040517f14189db20000000000000000000000000000000000000000000000000000000081526001600160a01b03878116600483015291909116906314189db29060240160206040518083038186803b15801561532e57600080fd5b505afa158015615342573d6000803e3d6000fd5b505050506040513d601f19601f82011682018060405250810190615366919061584d565b6001600160a01b0386166000908152602085905260408120549192509061538d8387615ba4565b6153979190615a70565b90506149838682611783565b828054828255906000526020600020908101928215615405579160200282015b82811115615405578251825473ffffffffffffffffffffffffffffffffffffffff19166001600160a01b039091161782556020909201916001909101906153c3565b5061459192915061542b565b5080546000825590600052602060002090810190613d8191905b5b80821115614591576000815560010161542c565b600082601f830112615450578081fd5b8135602061546561546083615a34565b615a03565b80838252828201915082860187848660051b8901011115615484578586fd5b855b858110156154ab57813561549981615c38565b84529284019290840190600101615486565b5090979650505050505050565b80516dffffffffffffffffffffffffffff81168114610d8257600080fd5b6000602082840312156154e7578081fd5b813561498881615c38565b600060208284031215615503578081fd5b815161498881615c38565b60008060408385031215615520578081fd5b823561552b81615c38565b9150602083013561553b81615c38565b809150509250929050565b600080600080600060a0868803121561555d578081fd5b853561556881615c38565b9450602086013561557881615c38565b9350604086013561558881615c38565b94979396509394606081013594506080013592915050565b6000806000606084860312156155b4578283fd5b83356155bf81615c38565b925060208401356155cf81615c38565b929592945050506040919091013590565b600080600080600060a086880312156155f7578081fd5b853561560281615c38565b9450602086013561561281615c38565b935060408601359250606086013561562981615c38565b949793965091946080013592915050565b6000806040838503121561564c578182fd5b823561565781615c38565b946020939093013593505050565b60008060408385031215615677578182fd5b825161568281615c38565b6020939093015192949293505050565b6000602082840312156156a3578081fd5b813567ffffffffffffffff8111156156b9578182fd5b6156c584828501615440565b949350505050565b600060208083850312156156df578182fd5b825167ffffffffffffffff8111156156f5578283fd5b8301601f81018513615705578283fd5b805161571361546082615a34565b80828252848201915084840188868560051b8701011115615732578687fd5b8694505b83851015615754578051835260019490940193918501918501615736565b50979650505050505050565b600060208284031215615771578081fd5b81518015158114614988578182fd5b60008060408385031215615792578182fd5b82359150602083013567ffffffffffffffff8111156157af578182fd5b6157bb85828601615440565b9150509250929050565b6000806000606084860312156157d9578081fd5b6157e2846154b8565b92506157f0602085016154b8565b9150604084015163ffffffff81168114615808578182fd5b809150509250925092565b600060208284031215615824578081fd5b813561ffff81168114614988578182fd5b600060208284031215615846578081fd5b5035919050565b60006020828403121561585e578081fd5b5051919050565b60008060408385031215615877578182fd5b82359150602083013561553b81615c38565b6000806040838503121561589b578182fd5b50508035926020909101359150565b600080604083850312156158bc578182fd5b505080516020909101519092909150565b6000815480845260208085019450838352808320835b838110156159085781546001600160a01b0316875295820195600191820191016158e3565b509495945050505050565b604080825283519082018190526000906020906060840190828701845b828110156159575781516001600160a01b0316845260208401935090840190600101615930565b50505083810382850152845180825285830191830190845b818110156154ab5783518352928401929184019160010161596f565b6000602080835283518082850152825b818110156159b75785810183015185820160400152820161599b565b818111156159c85783604083870101525b50601f01601f1916929092016040019392505050565b600085825284602083015283604083015260806060830152612d5760808301846158cd565b604051601f8201601f1916810167ffffffffffffffff81118282101715615a2c57615a2c615c22565b604052919050565b600067ffffffffffffffff821115615a4e57615a4e615c22565b5060051b60200190565b60008219821115615a6b57615a6b615c0c565b500190565b600082615a8b57634e487b7160e01b81526012600452602481fd5b500490565b80825b6001808611615aa25750615acd565b818704821115615ab457615ab4615c0c565b80861615615ac157918102915b9490941c938002615a93565b94509492505050565b60006149886000198484600082615aef57506001614988565b81615afc57506000614988565b8160018114615b125760028114615b1c57615b49565b6001915050614988565b60ff841115615b2d57615b2d615c0c565b6001841b915084821115615b4357615b43615c0c565b50614988565b5060208310610133831016604e8410600b8410161715615b7c575081810a83811115615b7757615b77615c0c565b614988565b615b898484846001615a90565b808604821115615b9b57615b9b615c0c565b02949350505050565b6000816000190483118215151615615bbe57615bbe615c0c565b500290565b600082821015615bd557615bd5615c0c565b500390565b600081615be957615be9615c0c565b506000190190565b6000600019821415615c0557615c05615c0c565b5060010190565b634e487b7160e01b600052601160045260246000fd5b634e487b7160e01b600052604160045260246000fd5b6001600160a01b0381168114613d8157600080fdfea2646970667358221220710aec5be21998680661a74e3e2ab57167b9636c1f21a500d86e56661f66bbe764736f6c63430008030033",
  "linkReferences": {},
  "deployedLinkReferences": {}
}