{
  "_format": "hh-sol-artifact-1",
  "contractName": "IsolatedMarginTrading",
  "sourceName": "contracts/isolated/IsolatedMarginTrading.sol",
  "abi": [
    {
      "inputs": [
        {
          "internalType": "address[]",
          "name": "_liquidationTokens",
          "type": "address[]"
        },
        {
          "internalType": "bytes32",
          "name": "_amms",
          "type": "bytes32"
        },
        {
          "internalType": "address",
          "name": "_roles",
          "type": "address"
        }
      ],
      "stateMutability": "nonpayable",
      "type": "constructor"
    },
    {
      "anonymous": false,
      "inputs": [
        {
          "indexed": false,
          "internalType": "address",
          "name": "account",
          "type": "address"
        }
      ],
      "name": "AccountLiquidated",
      "type": "event"
    },
    {
      "anonymous": false,
      "inputs": [
        {
          "indexed": false,
          "internalType": "uint256",
          "name": "amount",
          "type": "uint256"
        }
      ],
      "name": "LiquidationShortfall",
      "type": "event"
    },
    {
      "inputs": [],
      "name": "MAINTAINER_CUT_PERCENT",
      "outputs": [
        {
          "internalType": "uint256",
          "name": "",
          "type": "uint256"
        }
      ],
      "stateMutability": "view",
      "type": "function"
    },
    {
      "inputs": [],
      "name": "amms",
      "outputs": [
        {
          "internalType": "bytes32",
          "name": "",
          "type": "bytes32"
        }
      ],
      "stateMutability": "view",
      "type": "function"
    },
    {
      "inputs": [],
      "name": "avgLiquidationPerCall",
      "outputs": [
        {
          "internalType": "uint256",
          "name": "",
          "type": "uint256"
        }
      ],
      "stateMutability": "view",
      "type": "function"
    },
    {
      "inputs": [],
      "name": "borrowToken",
      "outputs": [
        {
          "internalType": "address",
          "name": "",
          "type": "address"
        }
      ],
      "stateMutability": "view",
      "type": "function"
    },
    {
      "inputs": [],
      "name": "coolingOffPeriod",
      "outputs": [
        {
          "internalType": "uint256",
          "name": "",
          "type": "uint256"
        }
      ],
      "stateMutability": "view",
      "type": "function"
    },
    {
      "inputs": [
        {
          "internalType": "address[]",
          "name": "liquidatedAccounts",
          "type": "address[]"
        }
      ],
      "name": "disburseLiqStakeAttacks",
      "outputs": [],
      "stateMutability": "nonpayable",
      "type": "function"
    },
    {
      "inputs": [],
      "name": "failureThreshold",
      "outputs": [
        {
          "internalType": "uint256",
          "name": "",
          "type": "uint256"
        }
      ],
      "stateMutability": "view",
      "type": "function"
    },
    {
      "inputs": [
        {
          "internalType": "address",
          "name": "trader",
          "type": "address"
        }
      ],
      "name": "getLastDepositBlock",
      "outputs": [
        {
          "internalType": "uint256",
          "name": "",
          "type": "uint256"
        }
      ],
      "stateMutability": "view",
      "type": "function"
    },
    {
      "inputs": [],
      "name": "holdingToken",
      "outputs": [
        {
          "internalType": "address",
          "name": "",
          "type": "address"
        }
      ],
      "stateMutability": "view",
      "type": "function"
    },
    {
      "inputs": [],
      "name": "leveragePercent",
      "outputs": [
        {
          "internalType": "uint256",
          "name": "",
          "type": "uint256"
        }
      ],
      "stateMutability": "view",
      "type": "function"
    },
    {
      "inputs": [],
      "name": "liqStakeAttackWindow",
      "outputs": [
        {
          "internalType": "uint256",
          "name": "",
          "type": "uint256"
        }
      ],
      "stateMutability": "view",
      "type": "function"
    },
    {
      "inputs": [
        {
          "internalType": "address[]",
          "name": "liquidationCandidates",
          "type": "address[]"
        }
      ],
      "name": "liquidate",
      "outputs": [
        {
          "internalType": "uint256",
          "name": "maintainerCut",
          "type": "uint256"
        }
      ],
      "stateMutability": "nonpayable",
      "type": "function"
    },
    {
      "inputs": [],
      "name": "liquidationThresholdPercent",
      "outputs": [
        {
          "internalType": "uint256",
          "name": "",
          "type": "uint256"
        }
      ],
      "stateMutability": "view",
      "type": "function"
    },
    {
      "inputs": [
        {
          "internalType": "uint256",
          "name": "",
          "type": "uint256"
        }
      ],
      "name": "liquidationTokens",
      "outputs": [
        {
          "internalType": "address",
          "name": "",
          "type": "address"
        }
      ],
      "stateMutability": "view",
      "type": "function"
    },
    {
      "inputs": [
        {
          "internalType": "uint256",
          "name": "",
          "type": "uint256"
        }
      ],
      "name": "mainCharacterCache",
      "outputs": [
        {
          "internalType": "address",
          "name": "",
          "type": "address"
        }
      ],
      "stateMutability": "view",
      "type": "function"
    },
    {
      "inputs": [
        {
          "internalType": "address",
          "name": "",
          "type": "address"
        }
      ],
      "name": "maintenanceFailures",
      "outputs": [
        {
          "internalType": "uint256",
          "name": "",
          "type": "uint256"
        }
      ],
      "stateMutability": "view",
      "type": "function"
    },
    {
      "inputs": [
        {
          "internalType": "address",
          "name": "",
          "type": "address"
        }
      ],
      "name": "marginAccounts",
      "outputs": [
        {
          "internalType": "uint256",
          "name": "lastDepositBlock",
          "type": "uint256"
        },
        {
          "internalType": "uint256",
          "name": "borrowed",
          "type": "uint256"
        },
        {
          "internalType": "uint256",
          "name": "borrowedYieldQuotientFP",
          "type": "uint256"
        },
        {
          "internalType": "uint256",
          "name": "holding",
          "type": "uint256"
        }
      ],
      "stateMutability": "view",
      "type": "function"
    },
    {
      "inputs": [
        {
          "internalType": "address",
          "name": "trader",
          "type": "address"
        }
      ],
      "name": "registerCloseAccount",
      "outputs": [
        {
          "internalType": "uint256",
          "name": "holdingAmount",
          "type": "uint256"
        }
      ],
      "stateMutability": "nonpayable",
      "type": "function"
    },
    {
      "inputs": [
        {
          "internalType": "address",
          "name": "trader",
          "type": "address"
        },
        {
          "internalType": "uint256",
          "name": "borrowed",
          "type": "uint256"
        },
        {
          "internalType": "uint256",
          "name": "holdingsAdded",
          "type": "uint256"
        },
        {
          "internalType": "bool",
          "name": "deposited",
          "type": "bool"
        }
      ],
      "name": "registerPosition",
      "outputs": [],
      "stateMutability": "nonpayable",
      "type": "function"
    },
    {
      "inputs": [
        {
          "internalType": "address",
          "name": "trader",
          "type": "address"
        },
        {
          "internalType": "uint256",
          "name": "extinguished",
          "type": "uint256"
        },
        {
          "internalType": "uint256",
          "name": "holdingsSold",
          "type": "uint256"
        }
      ],
      "name": "registerUnwind",
      "outputs": [],
      "stateMutability": "nonpayable",
      "type": "function"
    },
    {
      "inputs": [
        {
          "internalType": "address",
          "name": "",
          "type": "address"
        },
        {
          "internalType": "uint256",
          "name": "",
          "type": "uint256"
        }
      ],
      "name": "roleCache",
      "outputs": [
        {
          "internalType": "bool",
          "name": "",
          "type": "bool"
        }
      ],
      "stateMutability": "view",
      "type": "function"
    },
    {
      "inputs": [],
      "name": "roles",
      "outputs": [
        {
          "internalType": "contract Roles",
          "name": "",
          "type": "address"
        }
      ],
      "stateMutability": "view",
      "type": "function"
    },
    {
      "inputs": [
        {
          "internalType": "uint256",
          "name": "blocks",
          "type": "uint256"
        }
      ],
      "name": "setCoolingOffPeriod",
      "outputs": [],
      "stateMutability": "nonpayable",
      "type": "function"
    },
    {
      "inputs": [
        {
          "internalType": "uint256",
          "name": "threshFactor",
          "type": "uint256"
        }
      ],
      "name": "setFailureThreshold",
      "outputs": [],
      "stateMutability": "nonpayable",
      "type": "function"
    },
    {
      "inputs": [
        {
          "internalType": "uint256",
          "name": "_leveragePercent",
          "type": "uint256"
        }
      ],
      "name": "setLeveragePercent",
      "outputs": [],
      "stateMutability": "nonpayable",
      "type": "function"
    },
    {
      "inputs": [
        {
          "internalType": "uint256",
          "name": "window",
          "type": "uint256"
        }
      ],
      "name": "setLiqStakeAttackWindow",
      "outputs": [],
      "stateMutability": "nonpayable",
      "type": "function"
    },
    {
      "inputs": [
        {
          "internalType": "uint256",
          "name": "threshold",
          "type": "uint256"
        }
      ],
      "name": "setLiquidationThresholdPercent",
      "outputs": [],
      "stateMutability": "nonpayable",
      "type": "function"
    },
    {
      "inputs": [
        {
          "internalType": "uint256",
          "name": "cut",
          "type": "uint256"
        }
      ],
      "name": "setMaintainerCutPercent",
      "outputs": [],
      "stateMutability": "nonpayable",
      "type": "function"
    },
    {
      "inputs": [
        {
          "internalType": "address",
          "name": "",
          "type": "address"
        }
      ],
      "name": "stakeAttackRecords",
      "outputs": [
        {
          "internalType": "uint256",
          "name": "blockNum",
          "type": "uint256"
        },
        {
          "internalType": "address",
          "name": "loser",
          "type": "address"
        },
        {
          "internalType": "uint256",
          "name": "amount",
          "type": "uint256"
        },
        {
          "internalType": "address",
          "name": "stakeAttacker",
          "type": "address"
        }
      ],
      "stateMutability": "view",
      "type": "function"
    },
    {
      "inputs": [
        {
          "internalType": "uint256",
          "name": "role",
          "type": "uint256"
        }
      ],
      "name": "updateMainCharacterCache",
      "outputs": [],
      "stateMutability": "nonpayable",
      "type": "function"
    },
    {
      "inputs": [
        {
          "internalType": "uint256",
          "name": "role",
          "type": "uint256"
        },
        {
          "internalType": "address",
          "name": "contr",
          "type": "address"
        }
      ],
      "name": "updateRoleCache",
      "outputs": [],
      "stateMutability": "nonpayable",
      "type": "function"
    }
  ],
  "bytecode": "0x60a0604052607360065560146008556101f4600955600a600d556005600e556005600f55600a6010553480156200003557600080fd5b50604051620026c8380380620026c8833981016040819052620000589162000240565b806001600160a01b038116620000bf5760405162461bcd60e51b815260206004820152602260248201527f506c656173652070726f766964652076616c696420726f6c6573206164647265604482015261737360f01b606482015260840160405180910390fd5b60601b6001600160601b0319166080528251620000e4906005906020860190620001a2565b50600482905582518390620000fc9060019062000332565b815181106200011b57634e487b7160e01b600052603260045260246000fd5b6020026020010151600260006101000a8154816001600160a01b0302191690836001600160a01b03160217905550826000815181106200016b57634e487b7160e01b600052603260045260246000fd5b6020026020010151600360006101000a8154816001600160a01b0302191690836001600160a01b031602179055505050506200036c565b828054828255906000526020600020908101928215620001fa579160200282015b82811115620001fa57825182546001600160a01b0319166001600160a01b03909116178255602090920191600190910190620001c3565b50620002089291506200020c565b5090565b5b808211156200020857600081556001016200020d565b80516001600160a01b03811681146200023b57600080fd5b919050565b60008060006060848603121562000255578283fd5b83516001600160401b03808211156200026c578485fd5b818601915086601f83011262000280578485fd5b815160208282111562000297576200029762000356565b8160051b604051601f19603f83011681018181108682111715620002bf57620002bf62000356565b604052838152828101945085830182870184018c1015620002de57898afd5b8996505b848710156200030b57620002f68162000223565b865260019690960195948301948301620002e2565b50809850505080880151955050505050620003296040850162000223565b90509250925092565b6000828210156200035157634e487b7160e01b81526011600452602481fd5b500390565b634e487b7160e01b600052604160045260246000fd5b60805160601c612321620003a76000396000818161026a015281816105270152818161078201528181611500015261159801526123216000f3fe608060405234801561001057600080fd5b50600436106101e45760003560e01c80638b2db5691161010f578063badb5048116100a2578063e9c3f77d11610071578063e9c3f77d146104af578063eac29dd6146104d8578063f99fd97c146104eb578063fb62f431146104fe576101e4565b8063badb504814610409578063c5f1d5c214610476578063c73afac214610489578063c74303aa1461049c576101e4565b8063a3718919116100de578063a3718919146103ba578063a53ac0d9146103cd578063a75697a5146103d6578063a985994b146103f6576101e4565b80638b2db5691461032c57806391dfcb481461033f5780639c498bc314610352578063a1ad54e6146103a7576101e4565b8063392f5f6411610187578063538edb2911610156578063538edb29146102d35780636585b5a6146102dc5780637a1a04df146102e55780637d100e8414610323576101e4565b8063392f5f6414610265578063447d52ba146102a4578063456dc17a146102b75780634aa4aca3146102ca576101e4565b806310d58434116101c357806310d584341461022d57806316317e7e146102405780632febaa7414610253578063320d2fa01461025c576101e4565b80620a0016146101e9578063071060a61461020557806307c201751461021a575b600080fd5b6101f260045481565b6040519081526020015b60405180910390f35b610218610213366004611fd9565b610511565b005b610218610228366004611e95565b6105d7565b61021861023b366004611fd9565b6106b7565b61021861024e366004611fd9565b61070e565b6101f260085481565b6101f260065481565b61028c7f000000000000000000000000000000000000000000000000000000000000000081565b6040516001600160a01b0390911681526020016101fc565b6102186102b2366004612009565b61075c565b60025461028c906001600160a01b031681565b6101f2600e5481565b6101f2600f5481565b6101f2600d5481565b6103136102f3366004611dc0565b600160209081526000928352604080842090915290825290205460ff1681565b60405190151581526020016101fc565b6101f260105481565b61021861033a366004611e4c565b610834565b6101f261034d366004611d81565b6108a7565b610387610360366004611d81565b60076020526000908152604090208054600182015460028301546003909301549192909184565b6040805194855260208501939093529183015260608201526080016101fc565b60035461028c906001600160a01b031681565b6102186103c8366004611fd9565b6109a9565b6101f260095481565b6101f26103e4366004611d81565b600b6020526000908152604090205481565b6101f2610404366004611e95565b6109f7565b61044b610417366004611d81565b600c60205260009081526040902080546001820154600283015460039093015491926001600160a01b039182169290911684565b604080519485526001600160a01b0393841660208601528401919091521660608201526080016101fc565b610218610484366004611e18565b61108e565b610218610497366004611fd9565b6111bb565b6102186104aa366004611fd9565b611209565b61028c6104bd366004611fd9565b6000602081905290815260409020546001600160a01b031681565b6101f26104e6366004611d81565b611257565b6102186104f9366004611fd9565b611276565b61028c61050c366004611fd9565b6112c4565b60405163b4ed0b6d60e01b8152600481018290527f00000000000000000000000000000000000000000000000000000000000000006001600160a01b03169063b4ed0b6d9060240160206040518083038186803b15801561057157600080fd5b505afa158015610585573d6000803e3d6000fd5b505050506040513d601f19601f820116820180604052508101906105a99190611da4565b60009182526020829052604090912080546001600160a01b0319166001600160a01b03909216919091179055565b60005b80825111156106b357600082828151811061060557634e487b7160e01b600052603260045260246000fd5b602002602001015190506000600c6000836001600160a01b03166001600160a01b031681526020019081526020016000209050600e54816000015461064a9190612210565b43111561069e5761065a816112ee565b506001600160a01b0382166000908152600c602052604081208181556001810180546001600160a01b03199081169091556002820192909255600301805490911690555b505080806106ab9061227e565b9150506105da565b5050565b336106c06114fc565b6001600160a01b031614806106e45750336106d9611594565b6001600160a01b0316145b6107095760405162461bcd60e51b8152600401610700906120d3565b60405180910390fd5b601055565b336107176114fc565b6001600160a01b0316148061073b575033610730611594565b6001600160a01b0316145b6107575760405162461bcd60e51b8152600401610700906120d3565b600655565b6040516393552a3d60e01b8152600481018390526001600160a01b0382811660248301527f000000000000000000000000000000000000000000000000000000000000000016906393552a3d9060440160206040518083038186803b1580156107c457600080fd5b505afa1580156107d8573d6000803e3d6000fd5b505050506040513d601f19601f820116820180604052508101906107fc9190611fbd565b6001600160a01b0391909116600090815260016020908152604080832094835293905291909120805460ff1916911515919091179055565b61083d33611605565b6108595760405162461bcd60e51b81526004016107009061210a565b6001600160a01b038416600090815260076020526040812060038101805491928592610886908490612210565b909155506108969050818561162f565b81156108a0574381555b5050505050565b60006108b233611605565b6108ce5760405162461bcd60e51b81526004016107009061210a565b6001600160a01b038216600090815260076020526040902060085481546108f59190612210565b43116109135760405162461bcd60e51b81526004016107009061205b565b6001810154156109715760405162461bcd60e51b8152602060048201526024808201527f43616e277420636c6f7365206163636f756e742074686174277320626f72726f60448201526377696e6760e01b6064820152608401610700565b6003908101546001600160a01b0390931660009081526007602052604081208181556001810182905560028101829055909101555090565b336109b26114fc565b6001600160a01b031614806109d65750336109cb611594565b6001600160a01b0316145b6109f25760405162461bcd60e51b8152600401610700906120d3565b600e55565b6000333214610a6e5760405162461bcd60e51b815260206004820152603a60248201527f43757272656e746c79206e6f20696e7465726d656469617269657320616c6c6f60448201527f77656420666f7220746869732066756e6374696f6e2063616c6c0000000000006064820152608401610700565b6000610a786116b2565b604051633d91e5e760e11b81523360048201526001600160a01b039190911690637b23cbce90602401602060405180830381600087803b158015610abb57600080fd5b505af1158015610acf573d6000803e3d6000fd5b505050506040513d601f19601f82011682018060405250810190610af39190611fbd565b905060008180610b065750610b066116ea565b9050600080610b158685611797565b919650925090506000610b27836118f6565b90506064600f546064610b3a9190612210565b610b449190612228565b610b4e9083612248565b915080821115610c08576000610b648284612267565b90507f3555ffae7677eb42103f0b9e11b61c758f452fae446684dec7a363dd38ab58fc81604051610b9791815260200190565b60405180910390a1610ba7611a04565b6001600160a01b031663d4437dd8826040518263ffffffff1660e01b8152600401610bd491815260200190565b600060405180830381600087803b158015610bee57600080fd5b505af1158015610c02573d6000803e3d6000fd5b50505050505b600084610c8c57610c176116b2565b6001600160a01b0316631a38de1d6040518163ffffffff1660e01b8152600401602060405180830381600087803b158015610c5157600080fd5b505af1158015610c65573d6000803e3d6000fd5b505050506040513d601f19601f82011682018060405250810190610c899190611da4565b90505b60005b600a54811015610eba576000600a8281548110610cbc57634e487b7160e01b600052603260045260246000fd5b60009182526020808320909101546001600160a01b0316808352600790915260408220600f546001820154929450909291606491610cf991612248565b610d039190612228565b9050610d0f818c612210565b9a5088610d64576001600160a01b038381166000908152600c6020526040902060028101839055600381018054336001600160a01b031991821617909155438255600190910180549091169187169190911790555b600088878460030154610d779190612248565b610d819190612228565b9050826001015482610d939190612210565b8110610e3d57610da1611a3c565b60025460018501546001600160a01b039283169263d9caed1292169087908690610dcb9087612267565b610dd59190612267565b6040516001600160e01b031960e086901b1681526001600160a01b0393841660048201529290911660248301526044820152606401600060405180830381600087803b158015610e2457600080fd5b505af1158015610e38573d6000803e3d6000fd5b505050505b6040516001600160a01b03851681527f1d2cc4c8661a04a00b4e727426220501b36d85bb330947642c2d4320667028cf9060200160405180910390a15050506001600160a01b0316600090815260076020526040812081815560018101829055600281018290556003015580610eb28161227e565b915050610c8f565b50606487600d546063610ecd9190612248565b610ed79190612210565b610ee19190612228565b600d558415610f5e57610ef2611a3c565b600254604051636ce5768960e11b81526001600160a01b039182166004820152336024820152604481018a905291169063d9caed1290606401600060405180830381600087803b158015610f4557600080fd5b505af1158015610f59573d6000803e3d6000fd5b505050505b6000610f686116b2565b6001600160a01b0316631a38de1d6040518163ffffffff1660e01b8152600401602060405180830381600087803b158015610fa257600080fd5b505af1158015610fb6573d6000803e3d6000fd5b505050506040513d601f19601f82011682018060405250810190610fda9190611da4565b90508615611054576001600160a01b0381166000908152600b6020526040902054881015611035576001600160a01b0381166000908152600b6020526040812080548a929061102a908490612267565b9091555061104f9050565b6001600160a01b0381166000908152600b60205260408120555b611082565b6001600160a01b0381166000908152600b6020526040812080548a929061107c908490612210565b90915550505b50505050505050919050565b61109733611605565b6110f75760405162461bcd60e51b815260206004820152602b60248201527f43616c6c696e6720636f6e7472616374206e6f7420617574686f72697a65642060448201526a746f20776974686472617760a81b6064820152608401610700565b6001600160a01b0383166000908152600760205260409020600854815461111e9190612210565b431161113c5760405162461bcd60e51b81526004016107009061205b565b818160030160008282546111509190612267565b9091555061116090508184611a74565b61116981611a9a565b6111b55760405162461bcd60e51b815260206004820152601e60248201527f496e73756666696369656e742072656d61696e696e672062616c616e636500006044820152606401610700565b50505050565b336111c46114fc565b6001600160a01b031614806111e85750336111dd611594565b6001600160a01b0316145b6112045760405162461bcd60e51b8152600401610700906120d3565b600f55565b336112126114fc565b6001600160a01b0316148061123657503361122b611594565b6001600160a01b0316145b6112525760405162461bcd60e51b8152600401610700906120d3565b600955565b6001600160a01b0381166000908152600760205260409020545b919050565b3361127f6114fc565b6001600160a01b031614806112a3575033611298611594565b6001600160a01b0316145b6112bf5760405162461bcd60e51b8152600401610700906120d3565b600855565b600581815481106112d457600080fd5b6000918252602090912001546001600160a01b0316905081565b6002810154600090156112715781546000906113169061130e9043612267565b600e54611ae6565b90506000600e5482856002015461132d9190612248565b6113379190612228565b9050611341611a3c565b6002546003860154604051636ce5768960e11b81526001600160a01b03928316600482015290821660248201526044810184905291169063d9caed1290606401600060405180830381600087803b15801561139b57600080fd5b505af11580156113af573d6000803e3d6000fd5b5050505060006113bd6116b2565b90506000600d5483836001600160a01b0316630ad691506040518163ffffffff1660e01b815260040160206040518083038186803b1580156113fe57600080fd5b505afa158015611412573d6000803e3d6000fd5b505050506040513d601f19601f820116820180604052508101906114369190611ff1565b6114409190612248565b61144a9190612228565b60018701546003880154604051630a45bc1b60e01b81526001600160a01b039283166004820152602481018490529082166044820152919250831690630a45bc1b90606401602060405180830381600087803b1580156114a957600080fd5b505af11580156114bd573d6000803e3d6000fd5b505050506040513d601f19601f820116820180604052508101906114e19190611ff1565b508286600201546114f29190612267565b9695505050505050565b60007f00000000000000000000000000000000000000000000000000000000000000006001600160a01b0316638da5cb5b6040518163ffffffff1660e01b815260040160206040518083038186803b15801561155757600080fd5b505afa15801561156b573d6000803e3d6000fd5b505050506040513d601f19601f8201168201806040525081019061158f9190611da4565b905090565b60007f00000000000000000000000000000000000000000000000000000000000000006001600160a01b031663c34c08e56040518163ffffffff1660e01b8152600401602060405180830381600087803b1580156115f157600080fd5b505af115801561156b573d6000803e3d6000fd5b6001600160a01b031660009081526001602090815260408083206004845290915290205460ff1690565b61163882611b00565b8082600101600082825461164c9190612210565b9091555061165b905082611a9a565b6106b35760405162461bcd60e51b815260206004820152602260248201527f43616e277420626f72726f773a20696e73756666696369656e742062616c616e604482015261636560f01b6064820152608401610700565b606b60009081526020527f2dc7a963308417ad45132da282495eb244f38a7db03940a4d808be607669c622546001600160a01b031690565b6000806116f56116b2565b6001600160a01b031663b0411f466040518163ffffffff1660e01b8152600401604080518083038186803b15801561172c57600080fd5b505afa158015611740573d6000803e3d6000fd5b505050506040513d601f19601f820116820180604052508101906117649190611deb565b509050600d546010546117779190612248565b6001600160a01b039091166000908152600b602052604090205411905090565b604080516000808252602082019283905290519091829182916117bd91600a9190611d07565b5060005b80865111156118ee5760008682815181106117ec57634e487b7160e01b600052603260045260246000fd5b60200260200101519050600060076000836001600160a01b03166001600160a01b03168152602001908152602001600020905061182881611ba6565b156118a457600a80546001810182556000919091527fc65a7bb8d6351c1cf70c95a316cc6a92839c986682d98bc35f958f4883f9d2a80180546001600160a01b0319166001600160a01b03841617905560038101546118879086612210565b945061189281611b00565b60018101546118a19085612210565b93505b6001600160a01b0382166000908152600c6020526040902087156118d8576118cb816112ee565b6118d59088612210565b96505b50505080806118e69061227e565b9150506117c1565b509250925092565b600080611934606760009081526020527f682158d08466d11c566d5712d4396197fdd67e65be71d83c97ef719ec468867b546001600160a01b031690565b6001600160a01b031663351ae61084600060045460056040518563ffffffff1660e01b81526004016119699493929190612154565b600060405180830381600087803b15801561198357600080fd5b505af1158015611997573d6000803e3d6000fd5b505050506040513d6000823e601f3d908101601f191682016040526119bf9190810190611f36565b9050600081600183516119d29190612267565b815181106119f057634e487b7160e01b600052603260045260246000fd5b602002602001015190508092505050919050565b606660009081526020527f422cccb7cea5c0e46f340bb7b21b81debac329f72e31669c20ff0f3a05cc2b5b546001600160a01b031690565b606560009081526020527f4a7203f705e51df4a56139a9b86b4a0970bed7ab7a3446eaffe2289989c1645c546001600160a01b031690565b611a7d82611b00565b80826001016000828254611a919190612267565b90915550505050565b600080611aa683611be3565b90506000611ab384611c80565b905060095482611ac39190612248565b6064600954611ad29190612267565b611adc9083612248565b1015949350505050565b600081831115611af7575080611afa565b50815b92915050565b611b08611a04565b60018201546002830154604051631cd2bf4d60e31b8152600481019290925230602483015260448201526001600160a01b03919091169063e695fa68906064016040805180830381600087803b158015611b6157600080fd5b505af1158015611b75573d6000803e3d6000fd5b505050506040513d601f19601f82011682018060405250810190611b999190612038565b6002830155600190910155565b600080611bb283611be3565b90506000611bbf84611c80565b905081600654611bcf9190612248565b611bda826064612248565b10949350505050565b6000611bed611ccf565b6002546001840154604051630182cfe960e61b81526001600160a01b0392831660048201526024810191909152600060448201529116906360b3fa40906064015b602060405180830381600087803b158015611c4857600080fd5b505af1158015611c5c573d6000803e3d6000fd5b505050506040513d601f19601f82011682018060405250810190611afa9190611ff1565b6000611c8a611ccf565b6003805490840154604051630182cfe960e61b81526001600160a01b0392831660048201526024810191909152600060448201529116906360b3fa4090606401611c2e565b606a60009081526020527ff3261457f4fd0b7c00a1511877ab27b74183ac470be8db3a7ecdc64335f6f979546001600160a01b031690565b828054828255906000526020600020908101928215611d5c579160200282015b82811115611d5c57825182546001600160a01b0319166001600160a01b03909116178255602090920191600190910190611d27565b50611d68929150611d6c565b5090565b5b80821115611d685760008155600101611d6d565b600060208284031215611d92578081fd5b8135611d9d816122c5565b9392505050565b600060208284031215611db5578081fd5b8151611d9d816122c5565b60008060408385031215611dd2578081fd5b8235611ddd816122c5565b946020939093013593505050565b60008060408385031215611dfd578182fd5b8251611e08816122c5565b6020939093015192949293505050565b600080600060608486031215611e2c578081fd5b8335611e37816122c5565b95602085013595506040909401359392505050565b60008060008060808587031215611e61578081fd5b8435611e6c816122c5565b935060208501359250604085013591506060850135611e8a816122dd565b939692955090935050565b60006020808385031215611ea7578182fd5b823567ffffffffffffffff811115611ebd578283fd5b8301601f81018513611ecd578283fd5b8035611ee0611edb826121ec565b6121bb565b80828252848201915084840188868560051b8701011115611eff578687fd5b8694505b83851015611f2a578035611f16816122c5565b835260019490940193918501918501611f03565b50979650505050505050565b60006020808385031215611f48578182fd5b825167ffffffffffffffff811115611f5e578283fd5b8301601f81018513611f6e578283fd5b8051611f7c611edb826121ec565b80828252848201915084840188868560051b8701011115611f9b578687fd5b8694505b83851015611f2a578051835260019490940193918501918501611f9f565b600060208284031215611fce578081fd5b8151611d9d816122dd565b600060208284031215611fea578081fd5b5035919050565b600060208284031215612002578081fd5b5051919050565b6000806040838503121561201b578182fd5b82359150602083013561202d816122c5565b809150509250929050565b6000806040838503121561204a578182fd5b505080516020909101519092909150565b60208082526052908201527f546f2070726576656e742061747461636b7320796f75206d757374207761697460408201527f20756e74696c20796f757220636f6f6c696e67206f666620706572696f64206960608201527173206f76657220746f20776974686472617760701b608082015260a00190565b6020808252601e908201527f526f6c65733a2063616c6c6572206973206e6f7420746865206f776e65720000604082015260600190565b6020808252602a908201527f43616c6c696e6720636f6e7472616374206e6f7420617574686f72697a6564206040820152691d1bc819195c1bdcda5d60b21b606082015260800190565b600060808201868352602086818501528560408501526080606085015281855480845260a0860191508685528285209350845b818110156121ac5784546001600160a01b031683526001948501949284019201612187565b50909998505050505050505050565b604051601f8201601f1916810167ffffffffffffffff811182821017156121e4576121e46122af565b604052919050565b600067ffffffffffffffff821115612206576122066122af565b5060051b60200190565b6000821982111561222357612223612299565b500190565b60008261224357634e487b7160e01b81526012600452602481fd5b500490565b600081600019048311821515161561226257612262612299565b500290565b60008282101561227957612279612299565b500390565b600060001982141561229257612292612299565b5060010190565b634e487b7160e01b600052601160045260246000fd5b634e487b7160e01b600052604160045260246000fd5b6001600160a01b03811681146122da57600080fd5b50565b80151581146122da57600080fdfea2646970667358221220d34c101df511fc412197fce0934236612cc4afdcd87217151d1f3e00b1c684a564736f6c63430008030033",
  "linkReferences": {},
  "deployedLinkReferences": {}
}