{
  "_format": "hh-sol-artifact-1",
  "contractName": "IsolatedMarginTrading",
  "sourceName": "contracts/isolated/IsolatedMarginTrading.sol",
  "abi": [
    {
      "inputs": [
        {
          "internalType": "address[]",
          "name": "_liquidationTokens",
          "type": "address[]"
        },
        {
          "internalType": "bytes32",
          "name": "_amms",
          "type": "bytes32"
        },
        {
          "internalType": "address",
          "name": "_roles",
          "type": "address"
        }
      ],
      "stateMutability": "nonpayable",
      "type": "constructor"
    },
    {
      "anonymous": false,
      "inputs": [
        {
          "indexed": false,
          "internalType": "address",
          "name": "account",
          "type": "address"
        }
      ],
      "name": "AccountLiquidated",
      "type": "event"
    },
    {
      "anonymous": false,
      "inputs": [
        {
          "indexed": false,
          "internalType": "uint256",
          "name": "amount",
          "type": "uint256"
        }
      ],
      "name": "LiquidationShortfall",
      "type": "event"
    },
    {
      "inputs": [],
      "name": "MAINTAINER_CUT_PERCENT",
      "outputs": [
        {
          "internalType": "uint256",
          "name": "",
          "type": "uint256"
        }
      ],
      "stateMutability": "view",
      "type": "function"
    },
    {
      "inputs": [],
      "name": "amms",
      "outputs": [
        {
          "internalType": "bytes32",
          "name": "",
          "type": "bytes32"
        }
      ],
      "stateMutability": "view",
      "type": "function"
    },
    {
      "inputs": [],
      "name": "avgLiquidationPerCall",
      "outputs": [
        {
          "internalType": "uint256",
          "name": "",
          "type": "uint256"
        }
      ],
      "stateMutability": "view",
      "type": "function"
    },
    {
      "inputs": [],
      "name": "borrowToken",
      "outputs": [
        {
          "internalType": "address",
          "name": "",
          "type": "address"
        }
      ],
      "stateMutability": "view",
      "type": "function"
    },
    {
      "inputs": [],
      "name": "coolingOffPeriod",
      "outputs": [
        {
          "internalType": "uint256",
          "name": "",
          "type": "uint256"
        }
      ],
      "stateMutability": "view",
      "type": "function"
    },
    {
      "inputs": [
        {
          "internalType": "address[]",
          "name": "liquidatedAccounts",
          "type": "address[]"
        }
      ],
      "name": "disburseLiqStakeAttacks",
      "outputs": [],
      "stateMutability": "nonpayable",
      "type": "function"
    },
    {
      "inputs": [],
      "name": "failureThreshold",
      "outputs": [
        {
          "internalType": "uint256",
          "name": "",
          "type": "uint256"
        }
      ],
      "stateMutability": "view",
      "type": "function"
    },
    {
      "inputs": [
        {
          "internalType": "address",
          "name": "trader",
          "type": "address"
        }
      ],
      "name": "getLastDepositBlock",
      "outputs": [
        {
          "internalType": "uint256",
          "name": "",
          "type": "uint256"
        }
      ],
      "stateMutability": "view",
      "type": "function"
    },
    {
      "inputs": [],
      "name": "holdingToken",
      "outputs": [
        {
          "internalType": "address",
          "name": "",
          "type": "address"
        }
      ],
      "stateMutability": "view",
      "type": "function"
    },
    {
      "inputs": [],
      "name": "leveragePercent",
      "outputs": [
        {
          "internalType": "uint256",
          "name": "",
          "type": "uint256"
        }
      ],
      "stateMutability": "view",
      "type": "function"
    },
    {
      "inputs": [],
      "name": "liqStakeAttackWindow",
      "outputs": [
        {
          "internalType": "uint256",
          "name": "",
          "type": "uint256"
        }
      ],
      "stateMutability": "view",
      "type": "function"
    },
    {
      "inputs": [
        {
          "internalType": "address[]",
          "name": "liquidationCandidates",
          "type": "address[]"
        }
      ],
      "name": "liquidate",
      "outputs": [
        {
          "internalType": "uint256",
          "name": "maintainerCut",
          "type": "uint256"
        }
      ],
      "stateMutability": "nonpayable",
      "type": "function"
    },
    {
      "inputs": [],
      "name": "liquidationThresholdPercent",
      "outputs": [
        {
          "internalType": "uint256",
          "name": "",
          "type": "uint256"
        }
      ],
      "stateMutability": "view",
      "type": "function"
    },
    {
      "inputs": [
        {
          "internalType": "uint256",
          "name": "",
          "type": "uint256"
        }
      ],
      "name": "liquidationTokens",
      "outputs": [
        {
          "internalType": "address",
          "name": "",
          "type": "address"
        }
      ],
      "stateMutability": "view",
      "type": "function"
    },
    {
      "inputs": [
        {
          "internalType": "uint256",
          "name": "",
          "type": "uint256"
        }
      ],
      "name": "mainCharacterCache",
      "outputs": [
        {
          "internalType": "address",
          "name": "",
          "type": "address"
        }
      ],
      "stateMutability": "view",
      "type": "function"
    },
    {
      "inputs": [
        {
          "internalType": "address",
          "name": "",
          "type": "address"
        }
      ],
      "name": "maintenanceFailures",
      "outputs": [
        {
          "internalType": "uint256",
          "name": "",
          "type": "uint256"
        }
      ],
      "stateMutability": "view",
      "type": "function"
    },
    {
      "inputs": [
        {
          "internalType": "address",
          "name": "",
          "type": "address"
        }
      ],
      "name": "marginAccounts",
      "outputs": [
        {
          "internalType": "uint256",
          "name": "lastDepositBlock",
          "type": "uint256"
        },
        {
          "internalType": "uint256",
          "name": "borrowed",
          "type": "uint256"
        },
        {
          "internalType": "uint256",
          "name": "borrowedYieldQuotientFP",
          "type": "uint256"
        },
        {
          "internalType": "uint256",
          "name": "holding",
          "type": "uint256"
        }
      ],
      "stateMutability": "view",
      "type": "function"
    },
    {
      "inputs": [
        {
          "internalType": "address",
          "name": "trader",
          "type": "address"
        }
      ],
      "name": "registerCloseAccount",
      "outputs": [
        {
          "internalType": "uint256",
          "name": "holdingAmount",
          "type": "uint256"
        }
      ],
      "stateMutability": "nonpayable",
      "type": "function"
    },
    {
      "inputs": [
        {
          "internalType": "address",
          "name": "trader",
          "type": "address"
        },
        {
          "internalType": "uint256",
          "name": "borrowed",
          "type": "uint256"
        },
        {
          "internalType": "uint256",
          "name": "holdingsAdded",
          "type": "uint256"
        },
        {
          "internalType": "bool",
          "name": "deposited",
          "type": "bool"
        }
      ],
      "name": "registerPosition",
      "outputs": [],
      "stateMutability": "nonpayable",
      "type": "function"
    },
    {
      "inputs": [
        {
          "internalType": "address",
          "name": "trader",
          "type": "address"
        },
        {
          "internalType": "uint256",
          "name": "extinguished",
          "type": "uint256"
        },
        {
          "internalType": "uint256",
          "name": "holdingsSold",
          "type": "uint256"
        }
      ],
      "name": "registerUnwind",
      "outputs": [],
      "stateMutability": "nonpayable",
      "type": "function"
    },
    {
      "inputs": [
        {
          "internalType": "address",
          "name": "",
          "type": "address"
        },
        {
          "internalType": "uint256",
          "name": "",
          "type": "uint256"
        }
      ],
      "name": "roleCache",
      "outputs": [
        {
          "internalType": "bool",
          "name": "",
          "type": "bool"
        }
      ],
      "stateMutability": "view",
      "type": "function"
    },
    {
      "inputs": [],
      "name": "roles",
      "outputs": [
        {
          "internalType": "contract Roles",
          "name": "",
          "type": "address"
        }
      ],
      "stateMutability": "view",
      "type": "function"
    },
    {
      "inputs": [
        {
          "internalType": "uint256",
          "name": "blocks",
          "type": "uint256"
        }
      ],
      "name": "setCoolingOffPeriod",
      "outputs": [],
      "stateMutability": "nonpayable",
      "type": "function"
    },
    {
      "inputs": [
        {
          "internalType": "uint256",
          "name": "threshFactor",
          "type": "uint256"
        }
      ],
      "name": "setFailureThreshold",
      "outputs": [],
      "stateMutability": "nonpayable",
      "type": "function"
    },
    {
      "inputs": [
        {
          "internalType": "uint256",
          "name": "_leveragePercent",
          "type": "uint256"
        }
      ],
      "name": "setLeveragePercent",
      "outputs": [],
      "stateMutability": "nonpayable",
      "type": "function"
    },
    {
      "inputs": [
        {
          "internalType": "uint256",
          "name": "window",
          "type": "uint256"
        }
      ],
      "name": "setLiqStakeAttackWindow",
      "outputs": [],
      "stateMutability": "nonpayable",
      "type": "function"
    },
    {
      "inputs": [
        {
          "internalType": "uint256",
          "name": "threshold",
          "type": "uint256"
        }
      ],
      "name": "setLiquidationThresholdPercent",
      "outputs": [],
      "stateMutability": "nonpayable",
      "type": "function"
    },
    {
      "inputs": [
        {
          "internalType": "uint256",
          "name": "cut",
          "type": "uint256"
        }
      ],
      "name": "setMaintainerCutPercent",
      "outputs": [],
      "stateMutability": "nonpayable",
      "type": "function"
    },
    {
      "inputs": [
        {
          "internalType": "address",
          "name": "",
          "type": "address"
        }
      ],
      "name": "stakeAttackRecords",
      "outputs": [
        {
          "internalType": "uint256",
          "name": "blockNum",
          "type": "uint256"
        },
        {
          "internalType": "address",
          "name": "loser",
          "type": "address"
        },
        {
          "internalType": "uint256",
          "name": "amount",
          "type": "uint256"
        },
        {
          "internalType": "address",
          "name": "stakeAttacker",
          "type": "address"
        }
      ],
      "stateMutability": "view",
      "type": "function"
    },
    {
      "inputs": [
        {
          "internalType": "uint256",
          "name": "role",
          "type": "uint256"
        }
      ],
      "name": "updateMainCharacterCache",
      "outputs": [],
      "stateMutability": "nonpayable",
      "type": "function"
    },
    {
      "inputs": [
        {
          "internalType": "uint256",
          "name": "role",
          "type": "uint256"
        },
        {
          "internalType": "address",
          "name": "contr",
          "type": "address"
        }
      ],
      "name": "updateRoleCache",
      "outputs": [],
      "stateMutability": "nonpayable",
      "type": "function"
    }
  ],
  "bytecode": "0x60a0604052607360065560146008556101f4600955600a600d556005600e556005600f55600a6010553480156200003557600080fd5b506040516200325f3803806200325f833981016040819052620000589162000240565b806001600160a01b038116620000bf5760405162461bcd60e51b815260206004820152602260248201527f506c656173652070726f766964652076616c696420726f6c6573206164647265604482015261737360f01b606482015260840160405180910390fd5b60601b6001600160601b0319166080528251620000e4906005906020860190620001a2565b50600482905582518390620000fc9060019062000332565b815181106200011b57634e487b7160e01b600052603260045260246000fd5b6020026020010151600260006101000a8154816001600160a01b0302191690836001600160a01b03160217905550826000815181106200016b57634e487b7160e01b600052603260045260246000fd5b6020026020010151600360006101000a8154816001600160a01b0302191690836001600160a01b031602179055505050506200036c565b828054828255906000526020600020908101928215620001fa579160200282015b82811115620001fa57825182546001600160a01b0319166001600160a01b03909116178255602090920191600190910190620001c3565b50620002089291506200020c565b5090565b5b808211156200020857600081556001016200020d565b80516001600160a01b03811681146200023b57600080fd5b919050565b60008060006060848603121562000255578283fd5b83516001600160401b03808211156200026c578485fd5b818601915086601f83011262000280578485fd5b815160208282111562000297576200029762000356565b8160051b604051601f19603f83011681018181108682111715620002bf57620002bf62000356565b604052838152828101945085830182870184018c1015620002de57898afd5b8996505b848710156200030b57620002f68162000223565b865260019690960195948301948301620002e2565b50809850505080880151955050505050620003296040850162000223565b90509250925092565b6000828210156200035157634e487b7160e01b81526011600452602481fd5b500390565b634e487b7160e01b600052604160045260246000fd5b60805160601c612eb8620003a76000396000818161026a0152818161058e0152818161095d01528181611f2b0152611fd00152612eb86000f3fe608060405234801561001057600080fd5b50600436106101e45760003560e01c80638b2db5691161010f578063badb5048116100a2578063e9c3f77d11610071578063e9c3f77d146104f0578063eac29dd614610526578063f99fd97c14610539578063fb62f4311461054c576101e4565b8063badb504814610430578063c5f1d5c2146104b7578063c73afac2146104ca578063c74303aa146104dd576101e4565b8063a3718919116100de578063a3718919146103e1578063a53ac0d9146103f4578063a75697a5146103fd578063a985994b1461041d576101e4565b80638b2db5691461034657806391dfcb48146103595780639c498bc31461036c578063a1ad54e6146103c1576101e4565b8063392f5f6411610187578063538edb2911610156578063538edb29146102ed5780636585b5a6146102f65780637a1a04df146102ff5780637d100e841461033d576101e4565b8063392f5f6414610265578063447d52ba146102b1578063456dc17a146102c45780634aa4aca3146102e4576101e4565b806310d58434116101c357806310d584341461022d57806316317e7e146102405780632febaa7414610253578063320d2fa01461025c576101e4565b80620a0016146101e9578063071060a61461020557806307c201751461021a575b600080fd5b6101f260045481565b6040519081526020015b60405180910390f35b610218610213366004612baa565b61055f565b005b610218610228366004612a66565b610670565b61021861023b366004612baa565b6107a8565b61021861024e366004612baa565b61085f565b6101f260085481565b6101f260065481565b61028c7f000000000000000000000000000000000000000000000000000000000000000081565b60405173ffffffffffffffffffffffffffffffffffffffff90911681526020016101fc565b6102186102bf366004612bda565b610911565b60025461028c9073ffffffffffffffffffffffffffffffffffffffff1681565b6101f2600e5481565b6101f2600f5481565b6101f2600d5481565b61032d61030d366004612991565b600160209081526000928352604080842090915290825290205460ff1681565b60405190151581526020016101fc565b6101f260105481565b610218610354366004612a1d565b610a3a565b6101f2610367366004612952565b610b40565b6103a161037a366004612952565b60076020526000908152604090208054600182015460028301546003909301549192909184565b6040805194855260208501939093529183015260608201526080016101fc565b60035461028c9073ffffffffffffffffffffffffffffffffffffffff1681565b6102186103ef366004612baa565b610da9565b6101f260095481565b6101f261040b366004612952565b600b6020526000908152604090205481565b6101f261042b366004612a66565b610e5b565b61047f61043e366004612952565b600c602052600090815260409020805460018201546002830154600390930154919273ffffffffffffffffffffffffffffffffffffffff9182169290911684565b6040805194855273ffffffffffffffffffffffffffffffffffffffff93841660208601528401919091521660608201526080016101fc565b6102186104c53660046129e9565b61179b565b6102186104d8366004612baa565b6119c7565b6102186104eb366004612baa565b611a79565b61028c6104fe366004612baa565b60006020819052908152604090205473ffffffffffffffffffffffffffffffffffffffff1681565b6101f2610534366004612952565b611b2b565b610218610547366004612baa565b611b57565b61028c61055a366004612baa565b611c09565b6040517fb4ed0b6d000000000000000000000000000000000000000000000000000000008152600481018290527f000000000000000000000000000000000000000000000000000000000000000073ffffffffffffffffffffffffffffffffffffffff169063b4ed0b6d9060240160206040518083038186803b1580156105e557600080fd5b505afa1580156105f9573d6000803e3d6000fd5b505050506040513d601f19601f8201168201806040525081019061061d9190612975565b60009182526020829052604090912080547fffffffffffffffffffffffff00000000000000000000000000000000000000001673ffffffffffffffffffffffffffffffffffffffff909216919091179055565b60005b80825111156107a45760008282815181106106b7577f4e487b7100000000000000000000000000000000000000000000000000000000600052603260045260246000fd5b602002602001015190506000600c60008373ffffffffffffffffffffffffffffffffffffffff1673ffffffffffffffffffffffffffffffffffffffff1681526020019081526020016000209050600e5481600001546107169190612d13565b43111561078f5761072681611c40565b5073ffffffffffffffffffffffffffffffffffffffff82166000908152600c602052604081208181556001810180547fffffffffffffffffffffffff00000000000000000000000000000000000000009081169091556002820192909255600301805490911690555b5050808061079c90612db8565b915050610673565b5050565b336107b1611f27565b73ffffffffffffffffffffffffffffffffffffffff1614806107ef5750336107d7611fcc565b73ffffffffffffffffffffffffffffffffffffffff16145b61085a576040517f08c379a000000000000000000000000000000000000000000000000000000000815260206004820152601e60248201527f526f6c65733a2063616c6c6572206973206e6f7420746865206f776e6572000060448201526064015b60405180910390fd5b601055565b33610868611f27565b73ffffffffffffffffffffffffffffffffffffffff1614806108a657503361088e611fcc565b73ffffffffffffffffffffffffffffffffffffffff16145b61090c576040517f08c379a000000000000000000000000000000000000000000000000000000000815260206004820152601e60248201527f526f6c65733a2063616c6c6572206973206e6f7420746865206f776e657200006044820152606401610851565b600655565b6040517f93552a3d0000000000000000000000000000000000000000000000000000000081526004810183905273ffffffffffffffffffffffffffffffffffffffff82811660248301527f000000000000000000000000000000000000000000000000000000000000000016906393552a3d9060440160206040518083038186803b15801561099f57600080fd5b505afa1580156109b3573d6000803e3d6000fd5b505050506040513d601f19601f820116820180604052508101906109d79190612b8e565b73ffffffffffffffffffffffffffffffffffffffff9190911660009081526001602090815260408083209483529390529190912080547fffffffffffffffffffffffffffffffffffffffffffffffffffffffffffffff0016911515919091179055565b3360009081526001602090815260408083206004845290915290205460ff16610ae5576040517f08c379a000000000000000000000000000000000000000000000000000000000815260206004820152602a60248201527f43616c6c696e6720636f6e7472616374206e6f7420617574686f72697a65642060448201527f746f206465706f736974000000000000000000000000000000000000000000006064820152608401610851565b73ffffffffffffffffffffffffffffffffffffffff8416600090815260076020526040812060038101805491928592610b1f908490612d13565b90915550610b2f9050818561204a565b8115610b39574381555b5050505050565b3360009081526001602090815260408083206004845290915281205460ff16610beb576040517f08c379a000000000000000000000000000000000000000000000000000000000815260206004820152602a60248201527f43616c6c696e6720636f6e7472616374206e6f7420617574686f72697a65642060448201527f746f206465706f736974000000000000000000000000000000000000000000006064820152608401610851565b73ffffffffffffffffffffffffffffffffffffffff821660009081526007602052604090206008548154610c1f9190612d13565b4311610cd3576040517f08c379a000000000000000000000000000000000000000000000000000000000815260206004820152605260248201527f546f2070726576656e742061747461636b7320796f75206d757374207761697460448201527f20756e74696c20796f757220636f6f6c696e67206f666620706572696f64206960648201527f73206f76657220746f2077697468647261770000000000000000000000000000608482015260a401610851565b600181015415610d64576040517f08c379a0000000000000000000000000000000000000000000000000000000008152602060048201526024808201527f43616e277420636c6f7365206163636f756e742074686174277320626f72726f60448201527f77696e67000000000000000000000000000000000000000000000000000000006064820152608401610851565b60039081015473ffffffffffffffffffffffffffffffffffffffff90931660009081526007602052604081208181556001810182905560028101829055909101555090565b33610db2611f27565b73ffffffffffffffffffffffffffffffffffffffff161480610df0575033610dd8611fcc565b73ffffffffffffffffffffffffffffffffffffffff16145b610e56576040517f08c379a000000000000000000000000000000000000000000000000000000000815260206004820152601e60248201527f526f6c65733a2063616c6c6572206973206e6f7420746865206f776e657200006044820152606401610851565b600e55565b6000333214610eec576040517f08c379a000000000000000000000000000000000000000000000000000000000815260206004820152603a60248201527f43757272656e746c79206e6f20696e7465726d656469617269657320616c6c6f60448201527f77656420666f7220746869732066756e6374696f6e2063616c6c0000000000006064820152608401610851565b6000610f36606b60009081526020527f2dc7a963308417ad45132da282495eb244f38a7db03940a4d808be607669c6225473ffffffffffffffffffffffffffffffffffffffff1690565b6040517f7b23cbce00000000000000000000000000000000000000000000000000000000815233600482015273ffffffffffffffffffffffffffffffffffffffff9190911690637b23cbce90602401602060405180830381600087803b158015610f9f57600080fd5b505af1158015610fb3573d6000803e3d6000fd5b505050506040513d601f19601f82011682018060405250810190610fd79190612b8e565b905060008180610fea5750610fea612102565b9050600080610ff98685612209565b91965092509050600061100b836123cd565b90506064600f54606461101e9190612d13565b6110289190612d2b565b6110329083612d64565b9150808211156111325760006110488284612da1565b90507f3555ffae7677eb42103f0b9e11b61c758f452fae446684dec7a363dd38ab58fc8160405161107b91815260200190565b60405180910390a1606660009081526020527f422cccb7cea5c0e46f340bb7b21b81debac329f72e31669c20ff0f3a05cc2b5b546040517fd4437dd80000000000000000000000000000000000000000000000000000000081526004810183905273ffffffffffffffffffffffffffffffffffffffff9091169063d4437dd890602401600060405180830381600087803b15801561111857600080fd5b505af115801561112c573d6000803e3d6000fd5b50505050505b6000846111fd57606b60009081526020527f2dc7a963308417ad45132da282495eb244f38a7db03940a4d808be607669c6225473ffffffffffffffffffffffffffffffffffffffff1673ffffffffffffffffffffffffffffffffffffffff16631a38de1d6040518163ffffffff1660e01b8152600401602060405180830381600087803b1580156111c257600080fd5b505af11580156111d6573d6000803e3d6000fd5b505050506040513d601f19601f820116820180604052508101906111fa9190612975565b90505b60005b600a548110156114e6576000600a8281548110611246577f4e487b7100000000000000000000000000000000000000000000000000000000600052603260045260246000fd5b600091825260208083209091015473ffffffffffffffffffffffffffffffffffffffff16808352600790915260408220600f54600182015492945090929160649161129091612d64565b61129a9190612d2b565b90506112a6818c612d13565b9a50886113205773ffffffffffffffffffffffffffffffffffffffff8381166000908152600c6020526040902060028101839055600381018054337fffffffffffffffffffffffff000000000000000000000000000000000000000091821617909155438255600190910180549091169187169190911790555b6000888784600301546113339190612d64565b61133d9190612d2b565b905082600101548261134f9190612d13565b811061144f57606560009081526020527f4a7203f705e51df4a56139a9b86b4a0970bed7ab7a3446eaffe2289989c1645c54600254600185015473ffffffffffffffffffffffffffffffffffffffff9283169263d9caed12921690879086906113b89087612da1565b6113c29190612da1565b6040517fffffffff0000000000000000000000000000000000000000000000000000000060e086901b16815273ffffffffffffffffffffffffffffffffffffffff93841660048201529290911660248301526044820152606401600060405180830381600087803b15801561143657600080fd5b505af115801561144a573d6000803e3d6000fd5b505050505b60405173ffffffffffffffffffffffffffffffffffffffff851681527f1d2cc4c8661a04a00b4e727426220501b36d85bb330947642c2d4320667028cf9060200160405180910390a150505073ffffffffffffffffffffffffffffffffffffffff166000908152600760205260408120818155600181018290556002810182905560030155806114de81612db8565b915050611200565b50606487600d5460636114f99190612d64565b6115039190612d13565b61150d9190612d2b565b600d5584156115ea57606560009081526020527f4a7203f705e51df4a56139a9b86b4a0970bed7ab7a3446eaffe2289989c1645c5473ffffffffffffffffffffffffffffffffffffffff166002546040517fd9caed1200000000000000000000000000000000000000000000000000000000815273ffffffffffffffffffffffffffffffffffffffff9182166004820152336024820152604481018a905291169063d9caed1290606401600060405180830381600087803b1580156115d157600080fd5b505af11580156115e5573d6000803e3d6000fd5b505050505b6000611634606b60009081526020527f2dc7a963308417ad45132da282495eb244f38a7db03940a4d808be607669c6225473ffffffffffffffffffffffffffffffffffffffff1690565b73ffffffffffffffffffffffffffffffffffffffff16631a38de1d6040518163ffffffff1660e01b8152600401602060405180830381600087803b15801561167b57600080fd5b505af115801561168f573d6000803e3d6000fd5b505050506040513d601f19601f820116820180604052508101906116b39190612975565b905086156117545773ffffffffffffffffffffffffffffffffffffffff81166000908152600b60205260409020548810156117285773ffffffffffffffffffffffffffffffffffffffff81166000908152600b6020526040812080548a929061171d908490612da1565b9091555061174f9050565b73ffffffffffffffffffffffffffffffffffffffff81166000908152600b60205260408120555b61178f565b73ffffffffffffffffffffffffffffffffffffffff81166000908152600b6020526040812080548a9290611789908490612d13565b90915550505b50505050505050919050565b3360009081526001602090815260408083206004845290915290205460ff16611846576040517f08c379a000000000000000000000000000000000000000000000000000000000815260206004820152602b60248201527f43616c6c696e6720636f6e7472616374206e6f7420617574686f72697a65642060448201527f746f2077697468647261770000000000000000000000000000000000000000006064820152608401610851565b73ffffffffffffffffffffffffffffffffffffffff83166000908152600760205260409020600854815461187a9190612d13565b431161192e576040517f08c379a000000000000000000000000000000000000000000000000000000000815260206004820152605260248201527f546f2070726576656e742061747461636b7320796f75206d757374207761697460448201527f20756e74696c20796f757220636f6f6c696e67206f666620706572696f64206960648201527f73206f76657220746f2077697468647261770000000000000000000000000000608482015260a401610851565b818160030160008282546119429190612da1565b909155506119529050818461252c565b61195b81612552565b6119c1576040517f08c379a000000000000000000000000000000000000000000000000000000000815260206004820152601e60248201527f496e73756666696369656e742072656d61696e696e672062616c616e636500006044820152606401610851565b50505050565b336119d0611f27565b73ffffffffffffffffffffffffffffffffffffffff161480611a0e5750336119f6611fcc565b73ffffffffffffffffffffffffffffffffffffffff16145b611a74576040517f08c379a000000000000000000000000000000000000000000000000000000000815260206004820152601e60248201527f526f6c65733a2063616c6c6572206973206e6f7420746865206f776e657200006044820152606401610851565b600f55565b33611a82611f27565b73ffffffffffffffffffffffffffffffffffffffff161480611ac0575033611aa8611fcc565b73ffffffffffffffffffffffffffffffffffffffff16145b611b26576040517f08c379a000000000000000000000000000000000000000000000000000000000815260206004820152601e60248201527f526f6c65733a2063616c6c6572206973206e6f7420746865206f776e657200006044820152606401610851565b600955565b73ffffffffffffffffffffffffffffffffffffffff81166000908152600760205260409020545b919050565b33611b60611f27565b73ffffffffffffffffffffffffffffffffffffffff161480611b9e575033611b86611fcc565b73ffffffffffffffffffffffffffffffffffffffff16145b611c04576040517f08c379a000000000000000000000000000000000000000000000000000000000815260206004820152601e60248201527f526f6c65733a2063616c6c6572206973206e6f7420746865206f776e657200006044820152606401610851565b600855565b60058181548110611c1957600080fd5b60009182526020909120015473ffffffffffffffffffffffffffffffffffffffff16905081565b600281015460009015611b52578154600090611c6890611c609043612da1565b600e5461259e565b90506000600e54828560020154611c7f9190612d64565b611c899190612d2b565b9050611cd3606560009081526020527f4a7203f705e51df4a56139a9b86b4a0970bed7ab7a3446eaffe2289989c1645c5473ffffffffffffffffffffffffffffffffffffffff1690565b60025460038601546040517fd9caed1200000000000000000000000000000000000000000000000000000000815273ffffffffffffffffffffffffffffffffffffffff928316600482015290821660248201526044810184905291169063d9caed1290606401600060405180830381600087803b158015611d5357600080fd5b505af1158015611d67573d6000803e3d6000fd5b505050506000611db5606b60009081526020527f2dc7a963308417ad45132da282495eb244f38a7db03940a4d808be607669c6225473ffffffffffffffffffffffffffffffffffffffff1690565b90506000600d54838373ffffffffffffffffffffffffffffffffffffffff16630ad691506040518163ffffffff1660e01b815260040160206040518083038186803b158015611e0357600080fd5b505afa158015611e17573d6000803e3d6000fd5b505050506040513d601f19601f82011682018060405250810190611e3b9190612bc2565b611e459190612d64565b611e4f9190612d2b565b600187015460038801546040517f0a45bc1b00000000000000000000000000000000000000000000000000000000815273ffffffffffffffffffffffffffffffffffffffff9283166004820152602481018490529082166044820152919250831690630a45bc1b90606401602060405180830381600087803b158015611ed457600080fd5b505af1158015611ee8573d6000803e3d6000fd5b505050506040513d601f19601f82011682018060405250810190611f0c9190612bc2565b50828660020154611f1d9190612da1565b9695505050505050565b60007f000000000000000000000000000000000000000000000000000000000000000073ffffffffffffffffffffffffffffffffffffffff16638da5cb5b6040518163ffffffff1660e01b815260040160206040518083038186803b158015611f8f57600080fd5b505afa158015611fa3573d6000803e3d6000fd5b505050506040513d601f19601f82011682018060405250810190611fc79190612975565b905090565b60007f000000000000000000000000000000000000000000000000000000000000000073ffffffffffffffffffffffffffffffffffffffff1663c34c08e56040518163ffffffff1660e01b8152600401602060405180830381600087803b15801561203657600080fd5b505af1158015611fa3573d6000803e3d6000fd5b612053826125b8565b808260010160008282546120679190612d13565b90915550612076905082612552565b6107a4576040517f08c379a000000000000000000000000000000000000000000000000000000000815260206004820152602260248201527f43616e277420626f72726f773a20696e73756666696369656e742062616c616e60448201527f63650000000000000000000000000000000000000000000000000000000000006064820152608401610851565b60008061214d606b60009081526020527f2dc7a963308417ad45132da282495eb244f38a7db03940a4d808be607669c6225473ffffffffffffffffffffffffffffffffffffffff1690565b73ffffffffffffffffffffffffffffffffffffffff1663b0411f466040518163ffffffff1660e01b8152600401604080518083038186803b15801561219157600080fd5b505afa1580156121a5573d6000803e3d6000fd5b505050506040513d601f19601f820116820180604052508101906121c991906129bc565b509050600d546010546121dc9190612d64565b73ffffffffffffffffffffffffffffffffffffffff9091166000908152600b602052604090205411905090565b6040805160008082526020820192839052905190918291829161222f91600a91906128b3565b5060005b80865111156123c5576000868281518110612277577f4e487b7100000000000000000000000000000000000000000000000000000000600052603260045260246000fd5b602002602001015190506000600760008373ffffffffffffffffffffffffffffffffffffffff1673ffffffffffffffffffffffffffffffffffffffff16815260200190815260200160002090506122cd816126be565b1561236e57600a80546001810182556000919091527fc65a7bb8d6351c1cf70c95a316cc6a92839c986682d98bc35f958f4883f9d2a80180547fffffffffffffffffffffffff00000000000000000000000000000000000000001673ffffffffffffffffffffffffffffffffffffffff841617905560038101546123519086612d13565b945061235c816125b8565b600181015461236b9085612d13565b93505b73ffffffffffffffffffffffffffffffffffffffff82166000908152600c6020526040902087156123af576123a281611c40565b6123ac9088612d13565b96505b50505080806123bd90612db8565b915050612233565b509250925092565b600080612418606760009081526020527f682158d08466d11c566d5712d4396197fdd67e65be71d83c97ef719ec468867b5473ffffffffffffffffffffffffffffffffffffffff1690565b73ffffffffffffffffffffffffffffffffffffffff1663351ae61084600060045460056040518563ffffffff1660e01b815260040161245a9493929190612c2c565b600060405180830381600087803b15801561247457600080fd5b505af1158015612488573d6000803e3d6000fd5b505050506040513d6000823e601f3d9081017fffffffffffffffffffffffffffffffffffffffffffffffffffffffffffffffe01682016040526124ce9190810190612b07565b9050600081600183516124e19190612da1565b81518110612518577f4e487b7100000000000000000000000000000000000000000000000000000000600052603260045260246000fd5b602002602001015190508092505050919050565b612535826125b8565b808260010160008282546125499190612da1565b90915550505050565b60008061255e836126fb565b9050600061256b846127fe565b90506009548261257b9190612d64565b606460095461258a9190612da1565b6125949083612d64565b1015949350505050565b6000818311156125af5750806125b2565b50815b92915050565b606660009081526020527f422cccb7cea5c0e46f340bb7b21b81debac329f72e31669c20ff0f3a05cc2b5b5473ffffffffffffffffffffffffffffffffffffffff16600182015460028301546040517fe695fa680000000000000000000000000000000000000000000000000000000081526004810192909252306024830152604482015273ffffffffffffffffffffffffffffffffffffffff919091169063e695fa68906064016040805180830381600087803b15801561267957600080fd5b505af115801561268d573d6000803e3d6000fd5b505050506040513d601f19601f820116820180604052508101906126b19190612c09565b6002830155600190910155565b6000806126ca836126fb565b905060006126d7846127fe565b9050816006546126e79190612d64565b6126f2826064612d64565b10949350505050565b6000612745606a60009081526020527ff3261457f4fd0b7c00a1511877ab27b74183ac470be8db3a7ecdc64335f6f9795473ffffffffffffffffffffffffffffffffffffffff1690565b60025460018401546040517f60b3fa4000000000000000000000000000000000000000000000000000000000815273ffffffffffffffffffffffffffffffffffffffff92831660048201526024810191909152600060448201529116906360b3fa40906064015b602060405180830381600087803b1580156127c657600080fd5b505af11580156127da573d6000803e3d6000fd5b505050506040513d601f19601f820116820180604052508101906125b29190612bc2565b6000612848606a60009081526020527ff3261457f4fd0b7c00a1511877ab27b74183ac470be8db3a7ecdc64335f6f9795473ffffffffffffffffffffffffffffffffffffffff1690565b60038054908401546040517f60b3fa4000000000000000000000000000000000000000000000000000000000815273ffffffffffffffffffffffffffffffffffffffff92831660048201526024810191909152600060448201529116906360b3fa40906064016127ac565b82805482825590600052602060002090810192821561292d579160200282015b8281111561292d57825182547fffffffffffffffffffffffff00000000000000000000000000000000000000001673ffffffffffffffffffffffffffffffffffffffff9091161782556020909201916001909101906128d3565b5061293992915061293d565b5090565b5b80821115612939576000815560010161293e565b600060208284031215612963578081fd5b813561296e81612e4f565b9392505050565b600060208284031215612986578081fd5b815161296e81612e4f565b600080604083850312156129a3578081fd5b82356129ae81612e4f565b946020939093013593505050565b600080604083850312156129ce578182fd5b82516129d981612e4f565b6020939093015192949293505050565b6000806000606084860312156129fd578081fd5b8335612a0881612e4f565b95602085013595506040909401359392505050565b60008060008060808587031215612a32578081fd5b8435612a3d81612e4f565b935060208501359250604085013591506060850135612a5b81612e74565b939692955090935050565b60006020808385031215612a78578182fd5b823567ffffffffffffffff811115612a8e578283fd5b8301601f81018513612a9e578283fd5b8035612ab1612aac82612cef565b612ca0565b80828252848201915084840188868560051b8701011115612ad0578687fd5b8694505b83851015612afb578035612ae781612e4f565b835260019490940193918501918501612ad4565b50979650505050505050565b60006020808385031215612b19578182fd5b825167ffffffffffffffff811115612b2f578283fd5b8301601f81018513612b3f578283fd5b8051612b4d612aac82612cef565b80828252848201915084840188868560051b8701011115612b6c578687fd5b8694505b83851015612afb578051835260019490940193918501918501612b70565b600060208284031215612b9f578081fd5b815161296e81612e74565b600060208284031215612bbb578081fd5b5035919050565b600060208284031215612bd3578081fd5b5051919050565b60008060408385031215612bec578182fd5b823591506020830135612bfe81612e4f565b809150509250929050565b60008060408385031215612c1b578182fd5b505080516020909101519092909150565b600060808201868352602086818501528560408501526080606085015281855480845260a0860191508685528285209350845b81811015612c9157845473ffffffffffffffffffffffffffffffffffffffff1683526001948501949284019201612c5f565b50909998505050505050505050565b604051601f82017fffffffffffffffffffffffffffffffffffffffffffffffffffffffffffffffe016810167ffffffffffffffff81118282101715612ce757612ce7612e20565b604052919050565b600067ffffffffffffffff821115612d0957612d09612e20565b5060051b60200190565b60008219821115612d2657612d26612df1565b500190565b600082612d5f577f4e487b710000000000000000000000000000000000000000000000000000000081526012600452602481fd5b500490565b6000817fffffffffffffffffffffffffffffffffffffffffffffffffffffffffffffffff0483118215151615612d9c57612d9c612df1565b500290565b600082821015612db357612db3612df1565b500390565b60007fffffffffffffffffffffffffffffffffffffffffffffffffffffffffffffffff821415612dea57612dea612df1565b5060010190565b7f4e487b7100000000000000000000000000000000000000000000000000000000600052601160045260246000fd5b7f4e487b7100000000000000000000000000000000000000000000000000000000600052604160045260246000fd5b73ffffffffffffffffffffffffffffffffffffffff81168114612e7157600080fd5b50565b8015158114612e7157600080fdfea2646970667358221220a11851a96f98f7b004a5d65f9ca5e67b9acefafd71de5933a40ec453a64b4c5564736f6c63430008030033",
  "linkReferences": {},
  "deployedLinkReferences": {}
}