{
  "_format": "hh-sol-artifact-1",
  "contractName": "Staking",
  "sourceName": "contracts/Staking.sol",
  "abi": [
    {
      "inputs": [
        {
          "internalType": "address",
          "name": "_rewardsToken",
          "type": "address"
        },
        {
          "internalType": "address",
          "name": "_stakingToken",
          "type": "address"
        },
        {
          "internalType": "address",
          "name": "legacyContract",
          "type": "address"
        }
      ],
      "stateMutability": "nonpayable",
      "type": "constructor"
    },
    {
      "anonymous": false,
      "inputs": [
        {
          "indexed": true,
          "internalType": "address",
          "name": "previousOwner",
          "type": "address"
        },
        {
          "indexed": true,
          "internalType": "address",
          "name": "newOwner",
          "type": "address"
        }
      ],
      "name": "OwnershipTransferred",
      "type": "event"
    },
    {
      "anonymous": false,
      "inputs": [
        {
          "indexed": false,
          "internalType": "address",
          "name": "token",
          "type": "address"
        },
        {
          "indexed": false,
          "internalType": "uint256",
          "name": "amount",
          "type": "uint256"
        }
      ],
      "name": "Recovered",
      "type": "event"
    },
    {
      "anonymous": false,
      "inputs": [
        {
          "indexed": false,
          "internalType": "uint256",
          "name": "reward",
          "type": "uint256"
        }
      ],
      "name": "RewardAdded",
      "type": "event"
    },
    {
      "anonymous": false,
      "inputs": [
        {
          "indexed": true,
          "internalType": "address",
          "name": "user",
          "type": "address"
        },
        {
          "indexed": false,
          "internalType": "uint256",
          "name": "reward",
          "type": "uint256"
        }
      ],
      "name": "RewardPaid",
      "type": "event"
    },
    {
      "anonymous": false,
      "inputs": [
        {
          "indexed": false,
          "internalType": "uint256",
          "name": "newDuration",
          "type": "uint256"
        }
      ],
      "name": "RewardsDurationUpdated",
      "type": "event"
    },
    {
      "anonymous": false,
      "inputs": [
        {
          "indexed": true,
          "internalType": "address",
          "name": "user",
          "type": "address"
        },
        {
          "indexed": false,
          "internalType": "uint256",
          "name": "amount",
          "type": "uint256"
        }
      ],
      "name": "Staked",
      "type": "event"
    },
    {
      "anonymous": false,
      "inputs": [
        {
          "indexed": true,
          "internalType": "address",
          "name": "user",
          "type": "address"
        },
        {
          "indexed": false,
          "internalType": "uint256",
          "name": "amount",
          "type": "uint256"
        }
      ],
      "name": "Withdrawn",
      "type": "event"
    },
    {
      "inputs": [
        {
          "internalType": "address",
          "name": "account",
          "type": "address"
        }
      ],
      "name": "balanceOf",
      "outputs": [
        {
          "internalType": "uint256",
          "name": "",
          "type": "uint256"
        }
      ],
      "stateMutability": "view",
      "type": "function"
    },
    {
      "inputs": [],
      "name": "getRewardForDuration",
      "outputs": [
        {
          "internalType": "uint256",
          "name": "",
          "type": "uint256"
        }
      ],
      "stateMutability": "view",
      "type": "function"
    },
    {
      "inputs": [],
      "name": "lastTimeRewardApplicable",
      "outputs": [
        {
          "internalType": "uint256",
          "name": "",
          "type": "uint256"
        }
      ],
      "stateMutability": "view",
      "type": "function"
    },
    {
      "inputs": [],
      "name": "lastUpdateTime",
      "outputs": [
        {
          "internalType": "uint256",
          "name": "",
          "type": "uint256"
        }
      ],
      "stateMutability": "view",
      "type": "function"
    },
    {
      "inputs": [],
      "name": "legacyCarry",
      "outputs": [
        {
          "internalType": "uint256",
          "name": "",
          "type": "uint256"
        }
      ],
      "stateMutability": "view",
      "type": "function"
    },
    {
      "inputs": [
        {
          "internalType": "address",
          "name": "",
          "type": "address"
        }
      ],
      "name": "legacyStakeAccounts",
      "outputs": [
        {
          "internalType": "uint256",
          "name": "stakeAmount",
          "type": "uint256"
        },
        {
          "internalType": "uint256",
          "name": "stakeWeight",
          "type": "uint256"
        },
        {
          "internalType": "uint256",
          "name": "cumulativeStart",
          "type": "uint256"
        },
        {
          "internalType": "uint256",
          "name": "lockEnd",
          "type": "uint256"
        }
      ],
      "stateMutability": "view",
      "type": "function"
    },
    {
      "inputs": [],
      "name": "lockTime",
      "outputs": [
        {
          "internalType": "uint256",
          "name": "",
          "type": "uint256"
        }
      ],
      "stateMutability": "view",
      "type": "function"
    },
    {
      "inputs": [
        {
          "internalType": "address[]",
          "name": "accounts",
          "type": "address[]"
        }
      ],
      "name": "migrate",
      "outputs": [],
      "stateMutability": "nonpayable",
      "type": "function"
    },
    {
      "inputs": [
        {
          "internalType": "address",
          "name": "",
          "type": "address"
        }
      ],
      "name": "migrated",
      "outputs": [
        {
          "internalType": "bool",
          "name": "",
          "type": "bool"
        }
      ],
      "stateMutability": "view",
      "type": "function"
    },
    {
      "inputs": [
        {
          "internalType": "uint256",
          "name": "reward",
          "type": "uint256"
        }
      ],
      "name": "notifyRewardAmount",
      "outputs": [],
      "stateMutability": "nonpayable",
      "type": "function"
    },
    {
      "inputs": [],
      "name": "owner",
      "outputs": [
        {
          "internalType": "address",
          "name": "",
          "type": "address"
        }
      ],
      "stateMutability": "view",
      "type": "function"
    },
    {
      "inputs": [],
      "name": "periodFinish",
      "outputs": [
        {
          "internalType": "uint256",
          "name": "",
          "type": "uint256"
        }
      ],
      "stateMutability": "view",
      "type": "function"
    },
    {
      "inputs": [
        {
          "internalType": "address",
          "name": "tokenAddress",
          "type": "address"
        },
        {
          "internalType": "uint256",
          "name": "tokenAmount",
          "type": "uint256"
        }
      ],
      "name": "recoverERC20",
      "outputs": [],
      "stateMutability": "nonpayable",
      "type": "function"
    },
    {
      "inputs": [],
      "name": "renounceOwnership",
      "outputs": [],
      "stateMutability": "nonpayable",
      "type": "function"
    },
    {
      "inputs": [],
      "name": "rewardPerToken",
      "outputs": [
        {
          "internalType": "uint256",
          "name": "",
          "type": "uint256"
        }
      ],
      "stateMutability": "view",
      "type": "function"
    },
    {
      "inputs": [],
      "name": "rewardPerTokenStored",
      "outputs": [
        {
          "internalType": "uint256",
          "name": "",
          "type": "uint256"
        }
      ],
      "stateMutability": "view",
      "type": "function"
    },
    {
      "inputs": [],
      "name": "rewardRate",
      "outputs": [
        {
          "internalType": "uint256",
          "name": "",
          "type": "uint256"
        }
      ],
      "stateMutability": "view",
      "type": "function"
    },
    {
      "inputs": [
        {
          "internalType": "address",
          "name": "",
          "type": "address"
        }
      ],
      "name": "rewards",
      "outputs": [
        {
          "internalType": "uint256",
          "name": "",
          "type": "uint256"
        }
      ],
      "stateMutability": "view",
      "type": "function"
    },
    {
      "inputs": [],
      "name": "rewardsDuration",
      "outputs": [
        {
          "internalType": "uint256",
          "name": "",
          "type": "uint256"
        }
      ],
      "stateMutability": "view",
      "type": "function"
    },
    {
      "inputs": [],
      "name": "rewardsToken",
      "outputs": [
        {
          "internalType": "contract IERC20",
          "name": "",
          "type": "address"
        }
      ],
      "stateMutability": "view",
      "type": "function"
    },
    {
      "inputs": [
        {
          "internalType": "uint256",
          "name": "t",
          "type": "uint256"
        }
      ],
      "name": "setLockTime",
      "outputs": [],
      "stateMutability": "nonpayable",
      "type": "function"
    },
    {
      "inputs": [
        {
          "internalType": "uint256",
          "name": "_rewardsDuration",
          "type": "uint256"
        }
      ],
      "name": "setRewardsDuration",
      "outputs": [],
      "stateMutability": "nonpayable",
      "type": "function"
    },
    {
      "inputs": [
        {
          "internalType": "uint256",
          "name": "amount",
          "type": "uint256"
        }
      ],
      "name": "stake",
      "outputs": [],
      "stateMutability": "nonpayable",
      "type": "function"
    },
    {
      "inputs": [
        {
          "internalType": "address",
          "name": "",
          "type": "address"
        }
      ],
      "name": "stakeStart",
      "outputs": [
        {
          "internalType": "uint256",
          "name": "",
          "type": "uint256"
        }
      ],
      "stateMutability": "view",
      "type": "function"
    },
    {
      "inputs": [],
      "name": "stakingToken",
      "outputs": [
        {
          "internalType": "contract IERC20",
          "name": "",
          "type": "address"
        }
      ],
      "stateMutability": "view",
      "type": "function"
    },
    {
      "inputs": [],
      "name": "startingWeights",
      "outputs": [
        {
          "internalType": "uint256",
          "name": "",
          "type": "uint256"
        }
      ],
      "stateMutability": "view",
      "type": "function"
    },
    {
      "inputs": [],
      "name": "totalSupply",
      "outputs": [
        {
          "internalType": "uint256",
          "name": "",
          "type": "uint256"
        }
      ],
      "stateMutability": "view",
      "type": "function"
    },
    {
      "inputs": [
        {
          "internalType": "address",
          "name": "newOwner",
          "type": "address"
        }
      ],
      "name": "transferOwnership",
      "outputs": [],
      "stateMutability": "nonpayable",
      "type": "function"
    },
    {
      "inputs": [
        {
          "internalType": "uint256",
          "name": "timestamp",
          "type": "uint256"
        }
      ],
      "name": "updatePeriodFinish",
      "outputs": [],
      "stateMutability": "nonpayable",
      "type": "function"
    },
    {
      "inputs": [
        {
          "internalType": "address",
          "name": "",
          "type": "address"
        }
      ],
      "name": "userRewardPerTokenPaid",
      "outputs": [
        {
          "internalType": "uint256",
          "name": "",
          "type": "uint256"
        }
      ],
      "stateMutability": "view",
      "type": "function"
    },
    {
      "inputs": [
        {
          "internalType": "address",
          "name": "account",
          "type": "address"
        }
      ],
      "name": "viewRewardAmount",
      "outputs": [
        {
          "internalType": "uint256",
          "name": "",
          "type": "uint256"
        }
      ],
      "stateMutability": "view",
      "type": "function"
    },
    {
      "inputs": [],
      "name": "withdrawReward",
      "outputs": [],
      "stateMutability": "nonpayable",
      "type": "function"
    },
    {
      "inputs": [
        {
          "internalType": "uint256",
          "name": "amount",
          "type": "uint256"
        }
      ],
      "name": "withdrawStake",
      "outputs": [],
      "stateMutability": "nonpayable",
      "type": "function"
    }
  ],
  "bytecode": "0x60806040526000600555600060065562278d0060075562278d00600a553480156200002957600080fd5b5060405162001e0a38038062001e0a8339810160408190526200004c91620000f2565b6001600081815581546001600160a01b031916339081179092556040518291907f8be0079c531659141344cd1fd0a4f28419497f9722a3daafe3b4186f6b6457e0908290a350600380546001600160a01b039485166001600160a01b0319918216179091556004805493851693821693909317909255600280549190931691161790556200013b565b80516001600160a01b0381168114620000ed57600080fd5b919050565b60008060006060848603121562000107578283fd5b6200011284620000d5565b92506200012260208501620000d5565b91506200013260408501620000d5565b90509250925092565b611cbf806200014b6000396000f3fe608060405234801561001057600080fd5b50600436106101fb5760003560e01c806380faa57d1161011a578063c885bc58116100ad578063d1af0c7d1161007c578063d1af0c7d1461044a578063dbe85f701461045d578063df136d6514610470578063ebe2b12b14610479578063f2fde38b14610482576101fb565b8063c885bc581461041e578063c8f33c9114610426578063cc1a378f1461042f578063cd3daf9d14610442576101fb565b8063a204cf85116100e9578063a204cf85146103e6578063a694fc3a146103ef578063ae04d45d14610402578063be7b51cc14610415576101fb565b806380faa57d1461039a5780638980f11f146103a25780638b876347146103b55780638da5cb5b146103d5576101fb565b80633c6b16ab1161019257806370a082311161016157806370a082311461034b578063715018a61461035e57806372f702f3146103665780637b0a47ee14610391576101fb565b80633c6b16ab1461029d5780634ba0a5ee146102b0578063556f6e6b146102e3578063568a2d98146102f6576101fb565b80631c1f78eb116101ce5780631c1f78eb1461026457806325d5971f1461026c5780632e558d6914610281578063386a952514610294576101fb565b80630700037d146102005780630d6680871461023357806312a7f6611461023c57806318160ddd1461025c575b600080fd5b61022061020e3660046119cb565b600c6020526000908152604090205481565b6040519081526020015b60405180910390f35b610220600a5481565b61022061024a3660046119cb565b600d6020526000908152604090205481565b610220610495565b61022061049c565b61027f61027a366004611a9e565b6104ba565b005b61027f61028f366004611a0e565b61079a565b61022060075481565b61027f6102ab366004611a9e565b610b77565b6102d36102be3660046119cb565b600e6020526000908152604090205460ff1681565b604051901515815260200161022a565b61027f6102f1366004611a9e565b610db4565b61032b6103043660046119cb565b60106020526000908152604090208054600182015460028301546003909301549192909184565b60408051948552602085019390935291830152606082015260800161022a565b6102206103593660046119cb565b610e40565b61027f610e5f565b600454610379906001600160a01b031681565b6040516001600160a01b03909116815260200161022a565b61022060065481565b610220610ed3565b61027f6103b03660046119e5565b610ee1565b6102206103c33660046119cb565b600b6020526000908152604090205481565b6001546001600160a01b0316610379565b610220600f5481565b61027f6103fd366004611a9e565b610f77565b61027f610410366004611a9e565b6110f7565b61022060115481565b61027f611126565b61022060085481565b61027f61043d366004611a9e565b61121a565b61022061131c565b600354610379906001600160a01b031681565b61022061046b3660046119cb565b611370565b61022060095481565b61022060055481565b61027f6104903660046119cb565b6113e2565b6012545b90565b60006104b56007546006546114cd90919063ffffffff16565b905090565b600260005414156104e65760405162461bcd60e51b81526004016104dd90611b87565b60405180910390fd5b6002600055336104f461131c565b6009556104ff610ed3565b6008556001600160a01b038116156105465761051a81611370565b6001600160a01b0382166000908152600c6020908152604080832093909355600954600b909152919020555b6000821161058a5760405162461bcd60e51b8152602060048201526011602482015270043616e6e6f74207769746864726177203607c1b60448201526064016104dd565b600a54336000908152600d60205260409020546105a79190611bbe565b4210156105b357600080fd5b6012546105c090836114e0565b601255336000908152601360205260409020546105dd90836114e0565b33600090815260136020908152604080832093909355600e9052205460ff16156107445760025460405163e57466fd60e01b815233600482015260009182916001600160a01b039091169063e57466fd9060240160806040518083038186803b15801561064957600080fd5b505afa15801561065d573d6000803e3d6000fd5b505050506040513d601f19601f820116820180604052508101906106819190611ace565b50909350909150506801a055690d9db8000082106106d95760405162461bcd60e51b8152602060048201526015602482015274135a59dc985d19481858d8dbdd5b9d08199a5c9cdd605a1b60448201526064016104dd565b336000908152601060209081526040808320815160808101835281548152600182015493810193909352600281015491830191909152600301546060820152610721906114ec565b90508481106107335760009450610740565b61073d8186611c15565b94505b5050505b60045461075b906001600160a01b03163384611696565b60405182815233907f7084f5476618d8e60b11ef0d7d3f06914655adb8793e28ff7f018d4c76d505d5906020015b60405180910390a250506001600055565b6001546001600160a01b031633146107c45760405162461bcd60e51b81526004016104dd90611b52565b600260009054906101000a90046001600160a01b03166001600160a01b031663fb3935ee6040518163ffffffff1660e01b815260040160206040518083038186803b15801561081257600080fd5b505afa158015610826573d6000803e3d6000fd5b505050506040513d601f19601f8201168201806040525081019061084a9190611ab6565b600f8190556002546040805163413a8cc160e11b815290516000926001600160a01b0316916382751982916004808301926020929190829003018186803b15801561089457600080fd5b505afa1580156108a8573d6000803e3d6000fd5b505050506040513d601f19601f820116820180604052508101906108cc9190611ab6565b90506000805b80851115610b6f5760008686838181106108fc57634e487b7160e01b600052603260045260246000fd5b905060200201602081019061091191906119cb565b905061093e6040518060800160405280600081526020016000815260200160008152602001600081525090565b60025460405163e57466fd60e01b81526001600160a01b0384811660048301529091169063e57466fd9060240160806040518083038186803b15801561098357600080fd5b505afa158015610997573d6000803e3d6000fd5b505050506040513d601f19601f820116820180604052508101906109bb9190611ace565b6060850152604084015260208301528082526012546109da90826116fe565b6012556001600160a01b038316600090815260136020526040902054610a0090826116fe565b6001600160a01b038416600090815260136020526040902055600a546060830151610a2b9190611c15565b6001600160a01b0384166000908152600d6020908152604080832093909355600e8152828220805460ff19166001908117909155601082529183902085518155908501519181019190915590830151600282015560608301516003909101819055421015610b40576000428360600151610aa59190611c15565b905062278d00811115610b3e57600060036276a700610ac48482611c15565b8b87602001518c610ad59190611bf6565b610adf9190611bd6565b610ae99190611bf6565b610af39190611bd6565b610afd9190611bd6565b6001600160a01b0386166000908152600c6020526040812080549293508392909190610b2a908490611bbe565b90915550610b3a90508188611bbe565b9650505b505b8460116000828254610b529190611bbe565b925050819055505050508080610b6790611c58565b9150506108d2565b505050505050565b6001546001600160a01b03163314610ba15760405162461bcd60e51b81526004016104dd90611b52565b6000610bab61131c565b600955610bb6610ed3565b6008556001600160a01b03811615610bfd57610bd181611370565b6001600160a01b0382166000908152600c6020908152604080832093909355600954600b909152919020555b60115415610c1a57601154610c129083611c15565b600060115591505b6005544210610c3957600754610c3190839061170a565b600655610c82565b600554600090610c4990426114e0565b90506000610c62600654836114cd90919063ffffffff16565b600754909150610c7c90610c7686846116fe565b9061170a565b60065550505b6003546040516370a0823160e01b81523060048201526000916001600160a01b0316906370a082319060240160206040518083038186803b158015610cc657600080fd5b505afa158015610cda573d6000803e3d6000fd5b505050506040513d601f19601f82011682018060405250810190610cfe9190611ab6565b9050610d156007548261170a90919063ffffffff16565b6006541115610d665760405162461bcd60e51b815260206004820152601860248201527f50726f76696465642072657761726420746f6f2068696768000000000000000060448201526064016104dd565b426008819055600754610d7991906116fe565b6005556040518381527fde88a922e0d3b88b24e9623efeb464919c6bf9f66857a65e2bfcf2ce87a9433d9060200160405180910390a1505050565b6001546001600160a01b03163314610dde5760405162461bcd60e51b81526004016104dd90611b52565b6000610de861131c565b600955610df3610ed3565b6008556001600160a01b03811615610e3a57610e0e81611370565b6001600160a01b0382166000908152600c6020908152604080832093909355600954600b909152919020555b50600555565b6001600160a01b0381166000908152601360205260409020545b919050565b6001546001600160a01b03163314610e895760405162461bcd60e51b81526004016104dd90611b52565b6001546040516000916001600160a01b0316907f8be0079c531659141344cd1fd0a4f28419497f9722a3daafe3b4186f6b6457e0908390a3600180546001600160a01b0319169055565b60006104b542600554611716565b6001546001600160a01b03163314610f0b5760405162461bcd60e51b81526004016104dd90611b52565b610f31610f206001546001600160a01b031690565b6001600160a01b0384169083611696565b604080516001600160a01b0384168152602081018390527f8c1256b8896378cd5044f80c202f9772b9d77dc85c8a6eb51967210b09bfaa28910160405180910390a15050565b60026000541415610f9a5760405162461bcd60e51b81526004016104dd90611b87565b600260005533610fa861131c565b600955610fb3610ed3565b6008556001600160a01b03811615610ffa57610fce81611370565b6001600160a01b0382166000908152600c6020908152604080832093909355600954600b909152919020555b6000821161103b5760405162461bcd60e51b815260206004820152600e60248201526d043616e6e6f74207374616b6520360941b60448201526064016104dd565b60125461104890836116fe565b6012553360009081526013602052604090205461106590836116fe565b33600081815260136020526040902091909155600454611092916001600160a01b0390911690308561172c565b60405182815233907f9e71bc8eea02a63969f509818f2dafb9254532904319f9dbda79b67bd34a5f3d9060200160405180910390a2336000908152600d60205260409020546110ee57336000908152600d602052604090204290555b50506001600055565b6001546001600160a01b031633146111215760405162461bcd60e51b81526004016104dd90611b52565b600a55565b600260005414156111495760405162461bcd60e51b81526004016104dd90611b87565b60026000553361115761131c565b600955611162610ed3565b6008556001600160a01b038116156111a95761117d81611370565b6001600160a01b0382166000908152600c6020908152604080832093909355600954600b909152919020555b336000908152600c602052604090205480156110ee57336000818152600c60205260408120556003546111e8916001600160a01b039091169083611696565b60405181815233907fe2403640ba68fed3a2f88b7557551d1993f84b99bb10ff833f0cf8db0c5e048690602001610789565b6001546001600160a01b031633146112445760405162461bcd60e51b81526004016104dd90611b52565b60055442116112e15760405162461bcd60e51b815260206004820152605860248201527f50726576696f7573207265776172647320706572696f64206d7573742062652060448201527f636f6d706c657465206265666f7265206368616e67696e67207468652064757260648201527f6174696f6e20666f7220746865206e657720706572696f640000000000000000608482015260a4016104dd565b60078190556040518181527ffb46ca5a5e06d4540d6387b930a7c978bce0db5f449ec6b3f5d07c6e1d44f2d39060200160405180910390a150565b6000601254600014156113325750600954610499565b6104b5611367601254610c76670de0b6b3a764000061136160065461136160085461135b610ed3565b906114e0565b906114cd565b600954906116fe565b6001600160a01b0381166000908152600c6020908152604080832054600b9092528220546113dc91906113d690670de0b6b3a764000090610c76906113b79061135b61131c565b6001600160a01b038816600090815260136020526040902054906114cd565b906116fe565b92915050565b6001546001600160a01b0316331461140c5760405162461bcd60e51b81526004016104dd90611b52565b6001600160a01b0381166114715760405162461bcd60e51b815260206004820152602660248201527f4f776e61626c653a206e6577206f776e657220697320746865207a65726f206160448201526564647265737360d01b60648201526084016104dd565b6001546040516001600160a01b038084169216907f8be0079c531659141344cd1fd0a4f28419497f9722a3daafe3b4186f6b6457e090600090a3600180546001600160a01b0319166001600160a01b0392909216919091179055565b60006114d98284611bf6565b9392505050565b60006114d98284611c15565b600080600260009054906101000a90046001600160a01b03166001600160a01b031663c8d65d596040518163ffffffff1660e01b815260040160206040518083038186803b15801561153d57600080fd5b505afa158015611551573d6000803e3d6000fd5b505050506040513d601f19601f820116820180604052508101906115759190611ab6565b90506000600f5460016115889190611bbe565b6020850151604086015161159c9085611c15565b6115a69190611bf6565b6115b09190611bd6565b90506000600260009054906101000a90046001600160a01b03166001600160a01b031663fb3935ee6040518163ffffffff1660e01b815260040160206040518083038186803b15801561160257600080fd5b505afa158015611616573d6000803e3d6000fd5b505050506040513d601f19601f8201168201806040525081019061163a9190611ab6565b611645906001611bbe565b602086015160408701516116599086611c15565b6116639190611bf6565b61166d9190611bd6565b90508082106116825760009350505050610e5a565b61168c8282611c15565b9350505050610e5a565b6040516001600160a01b0383166024820152604481018290526116f990849063a9059cbb60e01b906064015b60408051601f198184030181529190526020810180516001600160e01b03166001600160e01b03199093169290921790915261176a565b505050565b60006114d98284611bbe565b60006114d98284611bd6565b600081831061172557816114d9565b5090919050565b6040516001600160a01b03808516602483015283166044820152606481018290526117649085906323b872dd60e01b906084016116c2565b50505050565b60006117bf826040518060400160405280602081526020017f5361666545524332303a206c6f772d6c6576656c2063616c6c206661696c6564815250856001600160a01b031661183c9092919063ffffffff16565b8051909150156116f957808060200190518101906117dd9190611a7e565b6116f95760405162461bcd60e51b815260206004820152602a60248201527f5361666545524332303a204552433230206f7065726174696f6e20646964206e6044820152691bdd081cdd58d8d9595960b21b60648201526084016104dd565b606061184b8484600085611853565b949350505050565b6060824710156118b45760405162461bcd60e51b815260206004820152602660248201527f416464726573733a20696e73756666696369656e742062616c616e636520666f6044820152651c8818d85b1b60d21b60648201526084016104dd565b843b6119025760405162461bcd60e51b815260206004820152601d60248201527f416464726573733a2063616c6c20746f206e6f6e2d636f6e747261637400000060448201526064016104dd565b600080866001600160a01b0316858760405161191e9190611b03565b60006040518083038185875af1925050503d806000811461195b576040519150601f19603f3d011682016040523d82523d6000602084013e611960565b606091505b509150915061197082828661197b565b979650505050505050565b6060831561198a5750816114d9565b82511561199a5782518084602001fd5b8160405162461bcd60e51b81526004016104dd9190611b1f565b80356001600160a01b0381168114610e5a57600080fd5b6000602082840312156119dc578081fd5b6114d9826119b4565b600080604083850312156119f7578081fd5b611a00836119b4565b946020939093013593505050565b60008060208385031215611a20578182fd5b823567ffffffffffffffff80821115611a37578384fd5b818501915085601f830112611a4a578384fd5b813581811115611a58578485fd5b8660208260051b8501011115611a6c578485fd5b60209290920196919550909350505050565b600060208284031215611a8f578081fd5b815180151581146114d9578182fd5b600060208284031215611aaf578081fd5b5035919050565b600060208284031215611ac7578081fd5b5051919050565b60008060008060808587031215611ae3578182fd5b505082516020840151604085015160609095015191969095509092509050565b60008251611b15818460208701611c2c565b9190910192915050565b6000602082528251806020840152611b3e816040850160208701611c2c565b601f01601f19169190910160400192915050565b6020808252818101527f4f776e61626c653a2063616c6c6572206973206e6f7420746865206f776e6572604082015260600190565b6020808252601f908201527f5265656e7472616e637947756172643a207265656e7472616e742063616c6c00604082015260600190565b60008219821115611bd157611bd1611c73565b500190565b600082611bf157634e487b7160e01b81526012600452602481fd5b500490565b6000816000190483118215151615611c1057611c10611c73565b500290565b600082821015611c2757611c27611c73565b500390565b60005b83811015611c47578181015183820152602001611c2f565b838111156117645750506000910152565b6000600019821415611c6c57611c6c611c73565b5060010190565b634e487b7160e01b600052601160045260246000fdfea2646970667358221220fdb4803c1b1ee9ab49d2826b9d69eeabb5a280277b76ea9b1f3f3fa409b944cc64736f6c63430008030033",
  "linkReferences": {},
  "deployedLinkReferences": {}
}