{
  "_format": "hh-sol-artifact-1",
  "contractName": "CrossMarginLiquidationV2",
  "sourceName": "contracts/CrossMarginLiquidationV2.sol",
  "abi": [
    {
      "inputs": [
        {
          "internalType": "address",
          "name": "_roles",
          "type": "address"
        }
      ],
      "stateMutability": "nonpayable",
      "type": "constructor"
    },
    {
      "inputs": [],
      "name": "liqCutPercent",
      "outputs": [
        {
          "internalType": "uint256",
          "name": "",
          "type": "uint256"
        }
      ],
      "stateMutability": "view",
      "type": "function"
    },
    {
      "inputs": [
        {
          "internalType": "address[]",
          "name": "liquidationCandidates",
          "type": "address[]"
        },
        {
          "internalType": "bytes32",
          "name": "ammPath",
          "type": "bytes32"
        }
      ],
      "name": "liquidate",
      "outputs": [],
      "stateMutability": "nonpayable",
      "type": "function"
    },
    {
      "inputs": [
        {
          "internalType": "uint256",
          "name": "",
          "type": "uint256"
        }
      ],
      "name": "mainCharacterCache",
      "outputs": [
        {
          "internalType": "address",
          "name": "",
          "type": "address"
        }
      ],
      "stateMutability": "view",
      "type": "function"
    },
    {
      "inputs": [
        {
          "internalType": "address",
          "name": "",
          "type": "address"
        },
        {
          "internalType": "uint256",
          "name": "",
          "type": "uint256"
        }
      ],
      "name": "roleCache",
      "outputs": [
        {
          "internalType": "bool",
          "name": "",
          "type": "bool"
        }
      ],
      "stateMutability": "view",
      "type": "function"
    },
    {
      "inputs": [],
      "name": "roles",
      "outputs": [
        {
          "internalType": "contract Roles",
          "name": "",
          "type": "address"
        }
      ],
      "stateMutability": "view",
      "type": "function"
    },
    {
      "inputs": [
        {
          "internalType": "uint256",
          "name": "liqCut",
          "type": "uint256"
        }
      ],
      "name": "setliqCutPercent",
      "outputs": [],
      "stateMutability": "nonpayable",
      "type": "function"
    },
    {
      "inputs": [
        {
          "internalType": "uint256",
          "name": "role",
          "type": "uint256"
        }
      ],
      "name": "updateMainCharacterCache",
      "outputs": [],
      "stateMutability": "nonpayable",
      "type": "function"
    },
    {
      "inputs": [
        {
          "internalType": "uint256",
          "name": "role",
          "type": "uint256"
        },
        {
          "internalType": "address",
          "name": "contr",
          "type": "address"
        }
      ],
      "name": "updateRoleCache",
      "outputs": [],
      "stateMutability": "nonpayable",
      "type": "function"
    }
  ],
  "bytecode": "0x60a0604052600560025534801561001557600080fd5b50604051611abe380380611abe833981016040819052610034916100b0565b806001600160a01b03811661009a5760405162461bcd60e51b815260206004820152602260248201527f506c656173652070726f766964652076616c696420726f6c6573206164647265604482015261737360f01b606482015260840160405180910390fd5b60601b6001600160601b031916608052506100de565b6000602082840312156100c1578081fd5b81516001600160a01b03811681146100d7578182fd5b9392505050565b60805160601c6119a76101176000396000818160c3015281816101b301528181610289015281816107cb015261086301526119a76000f3fe608060405234801561001057600080fd5b50600436106100885760003560e01c80637a1a04df1161005b5780637a1a04df146101105780638de020bd1461014e578063c898657b14610161578063e9c3f77d1461017457610088565b8063071060a61461008d578063355b005e146100a2578063392f5f64146100be578063447d52ba146100fd575b600080fd5b6100a061009b36600461178c565b61019d565b005b6100ab60025481565b6040519081526020015b60405180910390f35b6100e57f000000000000000000000000000000000000000000000000000000000000000081565b6040516001600160a01b0390911681526020016100b5565b6100a061010b3660046117bc565b610263565b61013e61011e36600461159e565b600160209081526000928352604080842090915290825290205460ff1681565b60405190151581526020016100b5565b6100a061015c36600461178c565b61033b565b6100a061016f36600461168f565b6103bd565b6100e561018236600461178c565b6000602081905290815260409020546001600160a01b031681565b60405163b4ed0b6d60e01b8152600481018290527f00000000000000000000000000000000000000000000000000000000000000006001600160a01b03169063b4ed0b6d9060240160206040518083038186803b1580156101fd57600080fd5b505afa158015610211573d6000803e3d6000fd5b505050506040513d601f19601f82011682018060405250810190610235919061157b565b60009182526020829052604090912080546001600160a01b0319166001600160a01b03909216919091179055565b6040516393552a3d60e01b8152600481018390526001600160a01b0382811660248301527f000000000000000000000000000000000000000000000000000000000000000016906393552a3d9060440160206040518083038186803b1580156102cb57600080fd5b505afa1580156102df573d6000803e3d6000fd5b505050506040513d601f19601f82011682018060405250810190610303919061176c565b6001600160a01b0391909116600090815260016020908152604080832094835293905291909120805460ff1916911515919091179055565b336103446107c7565b6001600160a01b0316148061036857503361035d61085f565b6001600160a01b0316145b6103b85760405162461bcd60e51b815260206004820152601e60248201527f526f6c65733a2063616c6c6572206973206e6f7420746865206f776e65720000604482015260640160405180910390fd5b600255565b60006103c76108d0565b90506000816001600160a01b0316631f1cb62b6040518163ffffffff1660e01b815260040160206040518083038186803b15801561040457600080fd5b505afa158015610418573d6000803e3d6000fd5b505050506040513d601f19601f8201168201806040525081019061043c919061157b565b905060005b80855111156107c057600085828151811061046c57634e487b7160e01b600052603260045260246000fd5b602090810291909101015160405163047788cd60e41b81526001600160a01b038083166004830152919250908516906347788cd09060240160206040518083038186803b1580156104bc57600080fd5b505afa1580156104d0573d6000803e3d6000fd5b505050506040513d601f19601f820116820180604052508101906104f4919061176c565b156107ad5760006105058287610908565b905060006105138388610efd565b905061052282620186a06118a4565b81111561074f57600061055760648460025461053e91906118dc565b61054891906118bc565b61055285856118fb565b611483565b905061056161149c565b604051636ce5768960e11b81526001600160a01b03888116600483015233602483015260448201849052919091169063d9caed1290606401600060405180830381600087803b1580156105b357600080fd5b505af11580156105c7573d6000803e3d6000fd5b5050505060008184846105da91906118fb565b6105e491906118fb565b9050620186a081111561074c576105f961149c565b6001600160a01b031663d9caed12888760036106168660026118dc565b61062091906118bc565b6040516001600160e01b031960e086901b1681526001600160a01b0393841660048201529290911660248301526044820152606401600060405180830381600087803b15801561066f57600080fd5b505af1158015610683573d6000803e3d6000fd5b5050505061068f61149c565b6001600160a01b031663d9caed12886106d9606e60009081526020527f6ce4024642c4779dc119f2ece9b9cc34663ef4cfd6a7942d809a7de1813aca7d546001600160a01b031690565b6106e46003866118bc565b6040516001600160e01b031960e086901b1681526001600160a01b0393841660048201529290911660248301526044820152606401600060405180830381600087803b15801561073357600080fd5b505af1158015610747573d6000803e3d6000fd5b505050505b50505b604051637ab877b760e01b81526001600160a01b038481166004830152871690637ab877b790602401600060405180830381600087803b15801561079257600080fd5b505af11580156107a6573d6000803e3d6000fd5b5050505050505b50806107b881611912565b915050610441565b5050505050565b60007f00000000000000000000000000000000000000000000000000000000000000006001600160a01b0316638da5cb5b6040518163ffffffff1660e01b815260040160206040518083038186803b15801561082257600080fd5b505afa158015610836573d6000803e3d6000fd5b505050506040513d601f19601f8201168201806040525081019061085a919061157b565b905090565b60007f00000000000000000000000000000000000000000000000000000000000000006001600160a01b031663c34c08e56040518163ffffffff1660e01b8152600401602060405180830381600087803b1580156108bc57600080fd5b505af1158015610836573d6000803e3d6000fd5b606860009081526020527faa071f48f62aaaa1f6320aaa7bd2ad2d552d05160892c14d699d38c9920d5f99546001600160a01b031690565b6000806109136108d0565b6001600160a01b0316631f1cb62b6040518163ffffffff1660e01b815260040160206040518083038186803b15801561094b57600080fd5b505afa15801561095f573d6000803e3d6000fd5b505050506040513d601f19601f82011682018060405250810190610983919061157b565b9050600061098f6114d4565b6001600160a01b031663ad5c46486040518163ffffffff1660e01b815260040160206040518083038186803b1580156109c757600080fd5b505afa1580156109db573d6000803e3d6000fd5b505050506040513d601f19601f820116820180604052508101906109ff919061157b565b9050600080610a0c6108d0565b60405163d510c53560e01b81526001600160a01b038981166004830152919091169063d510c5359060240160006040518083038186803b158015610a4f57600080fd5b505afa158015610a63573d6000803e3d6000fd5b505050506040513d6000823e601f3d908101601f19168201604052610a8b91908101906115c9565b9150915060005b8083511115610ef2576000838281518110610abd57634e487b7160e01b600052603260045260246000fd5b602002602001015190506000838381518110610ae957634e487b7160e01b600052603260045260246000fd5b60200260200101519050866001600160a01b0316826001600160a01b031614610e37576060866001600160a01b0316836001600160a01b03161415610bd15760408051600280825260608201835290916020830190803683370190505090508781600081518110610b6a57634e487b7160e01b600052603260045260246000fd5b60200260200101906001600160a01b031690816001600160a01b0316815250508281600181518110610bac57634e487b7160e01b600052603260045260246000fd5b60200260200101906001600160a01b031690816001600160a01b031681525050610cb9565b6040805160038082526080820190925290602082016060803683370190505090508781600081518110610c1457634e487b7160e01b600052603260045260246000fd5b60200260200101906001600160a01b031690816001600160a01b0316815250508681600181518110610c5657634e487b7160e01b600052603260045260246000fd5b60200260200101906001600160a01b031690816001600160a01b0316815250508281600281518110610c9857634e487b7160e01b600052603260045260246000fd5b60200260200101906001600160a01b031690816001600160a01b0316815250505b6000610cc36108d0565b604051630182cfe960e61b81526001600160a01b038681166004830152602482018690526001604483015291909116906360b3fa4090606401602060405180830381600087803b158015610d1657600080fd5b505af1158015610d2a573d6000803e3d6000fd5b505050506040513d601f19601f82011682018060405250810190610d4e91906117a4565b90506000610d5a6114d4565b6001600160a01b03166353d7ff9f856064610d7686606f6118dc565b610d8091906118bc565b8f876040518563ffffffff1660e01b8152600401610da194939291906117eb565b600060405180830381600087803b158015610dbb57600080fd5b505af1158015610dcf573d6000803e3d6000fd5b505050506040513d6000823e601f3d908101601f19168201604052610df79190810190611731565b905080600081518110610e1a57634e487b7160e01b600052603260045260246000fd5b60200260200101518b610e2d91906118a4565b9a50505050610e44565b610e4181896118a4565b97505b606660009081526020527f422cccb7cea5c0e46f340bb7b21b81debac329f72e31669c20ff0f3a05cc2b5b546001600160a01b0316604051632a6a897b60e01b81526001600160a01b038481166004830152602482018490529190911690632a6a897b90604401600060405180830381600087803b158015610ec557600080fd5b505af1158015610ed9573d6000803e3d6000fd5b5050505050508080610eea90611912565b915050610a92565b505050505092915050565b600080610f086108d0565b6001600160a01b0316631f1cb62b6040518163ffffffff1660e01b815260040160206040518083038186803b158015610f4057600080fd5b505afa158015610f54573d6000803e3d6000fd5b505050506040513d601f19601f82011682018060405250810190610f78919061157b565b90506000610f846114d4565b6001600160a01b031663ad5c46486040518163ffffffff1660e01b815260040160206040518083038186803b158015610fbc57600080fd5b505afa158015610fd0573d6000803e3d6000fd5b505050506040513d601f19601f82011682018060405250810190610ff4919061157b565b90506000806110016108d0565b60405163204fedb960e11b81526001600160a01b038981166004830152919091169063409fdb729060240160006040518083038186803b15801561104457600080fd5b505afa158015611058573d6000803e3d6000fd5b505050506040513d6000823e601f3d908101601f1916820160405261108091908101906115c9565b9150915060005b8083511115610ef25760008382815181106110b257634e487b7160e01b600052603260045260246000fd5b6020026020010151905060008383815181106110de57634e487b7160e01b600052603260045260246000fd5b60200260200101519050866001600160a01b0316826001600160a01b031614611438576060866001600160a01b0316836001600160a01b031614156111c6576040805160028082526060820183529091602083019080368337019050509050828160008151811061115f57634e487b7160e01b600052603260045260246000fd5b60200260200101906001600160a01b031690816001600160a01b03168152505087816001815181106111a157634e487b7160e01b600052603260045260246000fd5b60200260200101906001600160a01b031690816001600160a01b0316815250506112ae565b604080516003808252608082019092529060208201606080368337019050509050828160008151811061120957634e487b7160e01b600052603260045260246000fd5b60200260200101906001600160a01b031690816001600160a01b031681525050868160018151811061124b57634e487b7160e01b600052603260045260246000fd5b60200260200101906001600160a01b031690816001600160a01b031681525050878160028151811061128d57634e487b7160e01b600052603260045260246000fd5b60200260200101906001600160a01b031690816001600160a01b0316815250505b60006112b86108d0565b604051630182cfe960e61b81526001600160a01b038681166004830152602482018690526001604483015291909116906360b3fa4090606401602060405180830381600087803b15801561130b57600080fd5b505af115801561131f573d6000803e3d6000fd5b505050506040513d601f19601f8201168201806040525081019061134391906117a4565b9050600061134f6114d4565b6001600160a01b031663351ae61085606461136b86605a6118dc565b61137591906118bc565b8f876040518563ffffffff1660e01b815260040161139694939291906117eb565b600060405180830381600087803b1580156113b057600080fd5b505af11580156113c4573d6000803e3d6000fd5b505050506040513d6000823e601f3d908101601f191682016040526113ec9190810190611731565b905080600182516113fd91906118fb565b8151811061141b57634e487b7160e01b600052603260045260246000fd5b60200260200101518b61142e91906118a4565b9a5050505061146e565b83838151811061145857634e487b7160e01b600052603260045260246000fd5b60200260200101518861146b91906118a4565b97505b5050808061147b90611912565b915050611087565b6000818310611493575080611496565b50815b92915050565b606560009081526020527f4a7203f705e51df4a56139a9b86b4a0970bed7ab7a3446eaffe2289989c1645c546001600160a01b031690565b606760009081526020527f682158d08466d11c566d5712d4396197fdd67e65be71d83c97ef719ec468867b546001600160a01b031690565b600082601f83011261151c578081fd5b8151602061153161152c83611880565b61184f565b80838252828201915082860187848660051b8901011115611550578586fd5b855b8581101561156e57815184529284019290840190600101611552565b5090979650505050505050565b60006020828403121561158c578081fd5b815161159781611959565b9392505050565b600080604083850312156115b0578081fd5b82356115bb81611959565b946020939093013593505050565b600080604083850312156115db578182fd5b825167ffffffffffffffff808211156115f2578384fd5b818501915085601f830112611605578384fd5b8151602061161561152c83611880565b8083825282820191508286018a848660051b8901011115611634578889fd5b8896505b8487101561165f57805161164b81611959565b835260019690960195918301918301611638565b5091880151919650909350505080821115611678578283fd5b506116858582860161150c565b9150509250929050565b600080604083850312156116a1578182fd5b823567ffffffffffffffff8111156116b7578283fd5b8301601f810185136116c7578283fd5b803560206116d761152c83611880565b80838252828201915082850189848660051b88010111156116f6578788fd5b8795505b8486101561172157803561170d81611959565b8352600195909501949183019183016116fa565b5098969091013596505050505050565b600060208284031215611742578081fd5b815167ffffffffffffffff811115611758578182fd5b6117648482850161150c565b949350505050565b60006020828403121561177d578081fd5b81518015158114611597578182fd5b60006020828403121561179d578081fd5b5035919050565b6000602082840312156117b5578081fd5b5051919050565b600080604083850312156117ce578182fd5b8235915060208301356117e081611959565b809150509250929050565b600060808201868352602086818501528560408501526080606085015281855180845260a0860191508287019350845b818110156118405784516001600160a01b03168352938301939183019160010161181b565b50909998505050505050505050565b604051601f8201601f1916810167ffffffffffffffff8111828210171561187857611878611943565b604052919050565b600067ffffffffffffffff82111561189a5761189a611943565b5060051b60200190565b600082198211156118b7576118b761192d565b500190565b6000826118d757634e487b7160e01b81526012600452602481fd5b500490565b60008160001904831182151516156118f6576118f661192d565b500290565b60008282101561190d5761190d61192d565b500390565b60006000198214156119265761192661192d565b5060010190565b634e487b7160e01b600052601160045260246000fd5b634e487b7160e01b600052604160045260246000fd5b6001600160a01b038116811461196e57600080fd5b5056fea264697066735822122016d897d719343cf80abf795bb523ea61548de186cd35dae56344d9a6b8f0900764736f6c63430008030033",
  "linkReferences": {},
  "deployedLinkReferences": {}
}