{
  "_format": "hh-sol-artifact-1",
  "contractName": "CrossMarginLiquidationV2",
  "sourceName": "contracts/CrossMarginLiquidationV2.sol",
  "abi": [
    {
      "inputs": [
        {
          "internalType": "address",
          "name": "_roles",
          "type": "address"
        }
      ],
      "stateMutability": "nonpayable",
      "type": "constructor"
    },
    {
      "inputs": [],
      "name": "BID_WINDOW",
      "outputs": [
        {
          "internalType": "uint256",
          "name": "",
          "type": "uint256"
        }
      ],
      "stateMutability": "view",
      "type": "function"
    },
    {
      "inputs": [
        {
          "internalType": "address",
          "name": "",
          "type": "address"
        },
        {
          "internalType": "address",
          "name": "",
          "type": "address"
        }
      ],
      "name": "authorizedLiquidator",
      "outputs": [
        {
          "internalType": "bool",
          "name": "",
          "type": "bool"
        }
      ],
      "stateMutability": "view",
      "type": "function"
    },
    {
      "inputs": [],
      "name": "liqMaxCutPercent",
      "outputs": [
        {
          "internalType": "uint256",
          "name": "",
          "type": "uint256"
        }
      ],
      "stateMutability": "view",
      "type": "function"
    },
    {
      "inputs": [
        {
          "internalType": "address[]",
          "name": "liquidationCandidates",
          "type": "address[]"
        },
        {
          "internalType": "uint256[]",
          "name": "bids",
          "type": "uint256[]"
        },
        {
          "internalType": "address",
          "name": "targetAccount",
          "type": "address"
        }
      ],
      "name": "liquidate",
      "outputs": [],
      "stateMutability": "nonpayable",
      "type": "function"
    },
    {
      "inputs": [
        {
          "internalType": "uint256",
          "name": "",
          "type": "uint256"
        }
      ],
      "name": "mainCharacterCache",
      "outputs": [
        {
          "internalType": "address",
          "name": "",
          "type": "address"
        }
      ],
      "stateMutability": "view",
      "type": "function"
    },
    {
      "inputs": [
        {
          "internalType": "address",
          "name": "",
          "type": "address"
        },
        {
          "internalType": "uint256",
          "name": "",
          "type": "uint256"
        }
      ],
      "name": "roleCache",
      "outputs": [
        {
          "internalType": "bool",
          "name": "",
          "type": "bool"
        }
      ],
      "stateMutability": "view",
      "type": "function"
    },
    {
      "inputs": [],
      "name": "roles",
      "outputs": [
        {
          "internalType": "contract Roles",
          "name": "",
          "type": "address"
        }
      ],
      "stateMutability": "view",
      "type": "function"
    },
    {
      "inputs": [
        {
          "internalType": "uint256",
          "name": "window",
          "type": "uint256"
        }
      ],
      "name": "setBidWindow",
      "outputs": [],
      "stateMutability": "nonpayable",
      "type": "function"
    },
    {
      "inputs": [
        {
          "internalType": "address",
          "name": "liquidator",
          "type": "address"
        },
        {
          "internalType": "bool",
          "name": "auth",
          "type": "bool"
        }
      ],
      "name": "setLiquidatorAuthorization",
      "outputs": [],
      "stateMutability": "nonpayable",
      "type": "function"
    },
    {
      "inputs": [
        {
          "internalType": "uint256",
          "name": "liqCut",
          "type": "uint256"
        }
      ],
      "name": "setliqMaxCutPercent",
      "outputs": [],
      "stateMutability": "nonpayable",
      "type": "function"
    },
    {
      "inputs": [
        {
          "internalType": "uint256",
          "name": "role",
          "type": "uint256"
        }
      ],
      "name": "updateMainCharacterCache",
      "outputs": [],
      "stateMutability": "nonpayable",
      "type": "function"
    },
    {
      "inputs": [
        {
          "internalType": "uint256",
          "name": "role",
          "type": "uint256"
        },
        {
          "internalType": "address",
          "name": "contr",
          "type": "address"
        }
      ],
      "name": "updateRoleCache",
      "outputs": [],
      "stateMutability": "nonpayable",
      "type": "function"
    }
  ],
  "bytecode": "0x60a060405261012c600355600760045534801561001b57600080fd5b50604051611a37380380611a3783398101604081905261003a916100b6565b806001600160a01b0381166100a05760405162461bcd60e51b815260206004820152602260248201527f506c656173652070726f766964652076616c696420726f6c6573206164647265604482015261737360f01b606482015260840160405180910390fd5b60601b6001600160601b031916608052506100e4565b6000602082840312156100c7578081fd5b81516001600160a01b03811681146100dd578182fd5b9392505050565b60805160601c61191961011e6000396000818161016f0152818161026f01528181610b1d01528181610fd2015261106a01526119196000f3fe608060405234801561001057600080fd5b50600436106100b45760003560e01c80637a1a04df116100715780637a1a04df146101bc578063c0962187146101ea578063c3fb1de1146101fd578063e5a79d5914610214578063e7067c4914610227578063e9c3f77d14610230576100b4565b8063022f4bac146100b9578063071060a6146101015780630767f5801461011457806320c7ed2114610127578063392f5f641461016a578063447d52ba146101a9575b600080fd5b6100ff6100c736600461150b565b3360009081526005602090815260408083206001600160a01b0395909516835293905291909120805460ff1916911515919091179055565b005b6100ff61010f366004611718565b610259565b6100ff610122366004611629565b61031f565b6101556101353660046114d3565b600560209081526000928352604080842090915290825290205460ff1681565b60405190151581526020015b60405180910390f35b6101917f000000000000000000000000000000000000000000000000000000000000000081565b6040516001600160a01b039091168152602001610161565b6100ff6101b7366004611748565b610af7565b6101556101ca366004611538565b600160209081526000928352604080842090915290825290205460ff1681565b6100ff6101f8366004611718565b610bcf565b61020660045481565b604051908152602001610161565b6100ff610222366004611718565b610c4d565b61020660035481565b61019161023e366004611718565b6000602081905290815260409020546001600160a01b031681565b60405163b4ed0b6d60e01b8152600481018290527f00000000000000000000000000000000000000000000000000000000000000006001600160a01b03169063b4ed0b6d9060240160206040518083038186803b1580156102b957600080fd5b505afa1580156102cd573d6000803e3d6000fd5b505050506040513d601f19601f820116820180604052508101906102f191906114b0565b60009182526020829052604090912080546001600160a01b0319166001600160a01b03909216919091179055565b6001600160a01b038116600090815260056020908152604080832033845290915290205460ff166103ad5760405162461bcd60e51b815260206004820152602d60248201527f4e6f7420617574686f72697a656420746f206c697175696461746520746f207460448201526c185c99d95d081858d8dbdd5b9d609a1b60648201526084015b60405180910390fd5b60006103b7610ccb565b90506000816001600160a01b0316631f1cb62b6040518163ffffffff1660e01b815260040160206040518083038186803b1580156103f457600080fd5b505afa158015610408573d6000803e3d6000fd5b505050506040513d601f19601f8201168201806040525081019061042c91906114b0565b905060005b8086511115610aef57600086828151811061045c57634e487b7160e01b600052603260045260246000fd5b60200260200101519050600086838151811061048857634e487b7160e01b600052603260045260246000fd5b6020908102919091018101516001600160a01b03808516600081815260029094526040808520905163047788cd60e41b81526004810192909252929450919291908816906347788cd09060240160206040518083038186803b1580156104ed57600080fd5b505afa158015610501573d6000803e3d6000fd5b505050506040513d601f19601f8201168201806040525081019061052591906116fc565b801561064e57506040516307da4a9960e21b81526001600160a01b038581166004830152881690631f692a649060240160206040518083038186803b15801561056d57600080fd5b505afa158015610581573d6000803e3d6000fd5b505050506040513d601f19601f820116820180604052508101906105a59190611730565b60405163a17ab52760e01b81526001600160a01b03868116600483015289169063a17ab5279060240160206040518083038186803b1580156105e657600080fd5b505afa1580156105fa573d6000803e3d6000fd5b505050506040513d601f19601f8201168201806040525081019061061e9190611730565b610628919061185f565b610633906064611840565b600454610641906064611808565b61064b9085611840565b10155b9050808061067a575081600401548311801561067a57504260035483600601546106789190611808565b115b15610ad85760068201546107f55760405163204fedb960e11b81526001600160a01b03858116600483015288169063409fdb729060240160006040518083038186803b1580156106c957600080fd5b505afa1580156106dd573d6000803e3d6000fd5b505050506040513d6000823e601f3d908101601f191682016040526107059190810190611563565b8051849060009061071f906001840190602086019061131f565b505082516107329190602085019061136a565b505060405163d510c53560e01b81526001600160a01b0386811660048301528916915063d510c5359060240160006040518083038186803b15801561077657600080fd5b505afa15801561078a573d6000803e3d6000fd5b505050506040513d6000823e601f3d908101601f191682016040526107b29190810190611563565b805160028501906000906107cf906003880190602086019061131f565b505082516107e29190602085019061136a565b5050506107f0848984610d03565b6108ae565b60058201546004808401546040516352a664d960e01b81526001600160a01b03808c16946352a664d9946108309491909216928c920161178f565b602060405180830381600087803b15801561084a57600080fd5b505af115801561085e573d6000803e3d6000fd5b505050506040513d601f19601f820116820180604052508101906108829190611730565b506004820154610892908461185f565b60058301549093506108ae906001600160a01b03168984610d03565b828260040160008282546108c29190611808565b90915550506005820180546001600160a01b0319166001600160a01b038a81169190911790915542600684015587166352a664d98588610903600288611820565b6040518463ffffffff1660e01b81526004016109219392919061178f565b602060405180830381600087803b15801561093b57600080fd5b505af115801561094f573d6000803e3d6000fd5b505050506040513d601f19601f820116820180604052508101906109739190611730565b50600060208190527f4a7203f705e51df4a56139a9b86b4a0970bed7ab7a3446eaffe2289989c1645c54606e9091527f6ce4024642c4779dc119f2ece9b9cc34663ef4cfd6a7942d809a7de1813aca7d546001600160a01b039182169163d9caed12918991166109e4600288611820565b6040518463ffffffff1660e01b8152600401610a029392919061178f565b600060405180830381600087803b158015610a1c57600080fd5b505af1158015610a30573d6000803e3d6000fd5b50505050600482810154604051633500aa0b60e01b81526001600160a01b038b81169382019390935288831660248201819052604482015260648101919091526000608482015290881690633500aa0b9060a4016040805180830381600087803b158015610a9d57600080fd5b505af1158015610ab1573d6000803e3d6000fd5b505050506040513d601f19601f82011682018060405250810190610ad5919061176c565b50505b505050508080610ae790611876565b915050610431565b505050505050565b6040516393552a3d60e01b8152600481018390526001600160a01b0382811660248301527f000000000000000000000000000000000000000000000000000000000000000016906393552a3d9060440160206040518083038186803b158015610b5f57600080fd5b505afa158015610b73573d6000803e3d6000fd5b505050506040513d601f19601f82011682018060405250810190610b9791906116fc565b6001600160a01b0391909116600090815260016020908152604080832094835293905291909120805460ff1916911515919091179055565b33610bd8610fce565b6001600160a01b03161480610bfc575033610bf1611066565b6001600160a01b0316145b610c485760405162461bcd60e51b815260206004820152601e60248201527f526f6c65733a2063616c6c6572206973206e6f7420746865206f776e6572000060448201526064016103a4565b600355565b33610c56610fce565b6001600160a01b03161480610c7a575033610c6f611066565b6001600160a01b0316145b610cc65760405162461bcd60e51b815260206004820152601e60248201527f526f6c65733a2063616c6c6572206973206e6f7420746865206f776e6572000060448201526064016103a4565b600455565b606860009081526020527faa071f48f62aaaa1f6320aaa7bd2ad2d552d05160892c14d699d38c9920d5f99546001600160a01b031690565b610e678382600201805480602002602001604051908101604052809291908181526020018280548015610d5f57602002820191906000526020600020905b81546001600160a01b03168152600190910190602001808311610d41575b505050505083600301805480602002602001604051908101604052809291908181526020018280548015610db257602002820191906000526020600020905b815481526020019060010190808311610d9e575b50508754604080516020808402820181019092528281529450899350909150830182828015610e0a57602002820191906000526020600020905b81546001600160a01b03168152600190910190602001808311610dec575b505050505085600101805480602002602001604051908101604052809291908181526020018280548015610e5d57602002820191906000526020600020905b815481526020019060010190808311610e49575b50505050506110d7565b805460408051602080840282018101909252828152610fc9928592859190830182828015610ebe57602002820191906000526020600020905b81546001600160a01b03168152600190910190602001808311610ea0575b505050505083600101805480602002602001604051908101604052809291908181526020018280548015610f1157602002820191906000526020600020905b815481526020019060010190808311610efd575b505050505084600201805480602002602001604051908101604052809291908181526020018280548015610f6e57602002820191906000526020600020905b81546001600160a01b03168152600190910190602001808311610f50575b505050505085600301805480602002602001604051908101604052809291908181526020018280548015610e5d5760200282019190600052602060002090815481526020019060010190808311610e495750505050506110d7565b505050565b60007f00000000000000000000000000000000000000000000000000000000000000006001600160a01b0316638da5cb5b6040518163ffffffff1660e01b815260040160206040518083038186803b15801561102957600080fd5b505afa15801561103d573d6000803e3d6000fd5b505050506040513d601f19601f8201168201806040525081019061106191906114b0565b905090565b60007f00000000000000000000000000000000000000000000000000000000000000006001600160a01b031663c34c08e56040518163ffffffff1660e01b8152600401602060405180830381600087803b1580156110c357600080fd5b505af115801561103d573d6000803e3d6000fd5b60006110e1610ccb565b905060005b80865111156111d257816001600160a01b03166352a664d98888848151811061111f57634e487b7160e01b600052603260045260246000fd5b602002602001015188858151811061114757634e487b7160e01b600052603260045260246000fd5b60200260200101516040518463ffffffff1660e01b815260040161116d9392919061178f565b602060405180830381600087803b15801561118757600080fd5b505af115801561119b573d6000803e3d6000fd5b505050506040513d601f19601f820116820180604052508101906111bf9190611730565b50806111ca81611876565b9150506110e6565b5060005b808451111561131657816001600160a01b0316633500aa0b8886848151811061120f57634e487b7160e01b600052603260045260246000fd5b60200260200101518960008151811061123857634e487b7160e01b600052603260045260246000fd5b602002602001015187868151811061126057634e487b7160e01b600052603260045260246000fd5b60209081029190910101516040516001600160e01b031960e087901b1681526001600160a01b03948516600482015292841660248401529216604482015260648101919091526000608482015260a4016040805180830381600087803b1580156112c957600080fd5b505af11580156112dd573d6000803e3d6000fd5b505050506040513d601f19601f82011682018060405250810190611301919061176c565b5050808061130e90611876565b9150506111d6565b50505050505050565b82805482825590600052602060002090810192821561135a579160200282015b8281111561135a57825182559160200191906001019061133f565b506113669291506113bf565b5090565b82805482825590600052602060002090810192821561135a579160200282015b8281111561135a57825182546001600160a01b0319166001600160a01b0390911617825560209092019160019091019061138a565b5b8082111561136657600081556001016113c0565b80356113df816118bd565b919050565b600082601f8301126113f4578081fd5b81356020611409611404836117e4565b6117b3565b80838252828201915082860187848660051b8901011115611428578586fd5b855b858110156114465781358452928401929084019060010161142a565b5090979650505050505050565b600082601f830112611463578081fd5b81516020611473611404836117e4565b80838252828201915082860187848660051b8901011115611492578586fd5b855b8581101561144657815184529284019290840190600101611494565b6000602082840312156114c1578081fd5b81516114cc816118bd565b9392505050565b600080604083850312156114e5578081fd5b82356114f0816118bd565b91506020830135611500816118bd565b809150509250929050565b6000806040838503121561151d578182fd5b8235611528816118bd565b91506020830135611500816118d5565b6000806040838503121561154a578182fd5b8235611555816118bd565b946020939093013593505050565b60008060408385031215611575578182fd5b825167ffffffffffffffff8082111561158c578384fd5b818501915085601f83011261159f578384fd5b815160206115af611404836117e4565b8083825282820191508286018a848660051b89010111156115ce578889fd5b8896505b848710156115f95780516115e5816118bd565b8352600196909601959183019183016115d2565b5091880151919650909350505080821115611612578283fd5b5061161f85828601611453565b9150509250929050565b60008060006060848603121561163d578081fd5b833567ffffffffffffffff80821115611654578283fd5b818601915086601f830112611667578283fd5b81356020611677611404836117e4565b8083825282820191508286018b848660051b8901011115611696578788fd5b8796505b848710156116c15780356116ad816118bd565b83526001969096019591830191830161169a565b50975050870135925050808211156116d7578283fd5b506116e4868287016113e4565b9250506116f3604085016113d4565b90509250925092565b60006020828403121561170d578081fd5b81516114cc816118d5565b600060208284031215611729578081fd5b5035919050565b600060208284031215611741578081fd5b5051919050565b6000806040838503121561175a578182fd5b823591506020830135611500816118bd565b6000806040838503121561177e578182fd5b505080516020909101519092909150565b6001600160a01b039384168152919092166020820152604081019190915260600190565b604051601f8201601f1916810167ffffffffffffffff811182821017156117dc576117dc6118a7565b604052919050565b600067ffffffffffffffff8211156117fe576117fe6118a7565b5060051b60200190565b6000821982111561181b5761181b611891565b500190565b60008261183b57634e487b7160e01b81526012600452602481fd5b500490565b600081600019048311821515161561185a5761185a611891565b500290565b60008282101561187157611871611891565b500390565b600060001982141561188a5761188a611891565b5060010190565b634e487b7160e01b600052601160045260246000fd5b634e487b7160e01b600052604160045260246000fd5b6001600160a01b03811681146118d257600080fd5b50565b80151581146118d257600080fdfea2646970667358221220ac83d72a5040caa63334e2813b26d019c33a5bf563f6d4525538b4b6c032bd6164736f6c63430008030033",
  "linkReferences": {},
  "deployedLinkReferences": {}
}