{
  "_format": "hh-sol-artifact-1",
  "contractName": "CrossMarginTradingTest",
  "sourceName": "contracts/tests/CrossMarginTradingTest.sol",
  "abi": [
    {
      "inputs": [
        {
          "internalType": "address",
          "name": "_roles",
          "type": "address"
        }
      ],
      "stateMutability": "nonpayable",
      "type": "constructor"
    },
    {
      "anonymous": false,
      "inputs": [
        {
          "indexed": false,
          "internalType": "address",
          "name": "account",
          "type": "address"
        }
      ],
      "name": "AccountLiquidated",
      "type": "event"
    },
    {
      "anonymous": false,
      "inputs": [
        {
          "indexed": false,
          "internalType": "uint256",
          "name": "amount",
          "type": "uint256"
        }
      ],
      "name": "LiquidationShortfall",
      "type": "event"
    },
    {
      "inputs": [],
      "name": "MAINTAINER_CUT_PERCENT",
      "outputs": [
        {
          "internalType": "uint256",
          "name": "",
          "type": "uint256"
        }
      ],
      "stateMutability": "view",
      "type": "function"
    },
    {
      "inputs": [],
      "name": "UPDATE_MAX_PEG_AMOUNT",
      "outputs": [
        {
          "internalType": "uint256",
          "name": "",
          "type": "uint256"
        }
      ],
      "stateMutability": "view",
      "type": "function"
    },
    {
      "inputs": [],
      "name": "UPDATE_MIN_PEG_AMOUNT",
      "outputs": [
        {
          "internalType": "uint256",
          "name": "",
          "type": "uint256"
        }
      ],
      "stateMutability": "view",
      "type": "function"
    },
    {
      "inputs": [],
      "name": "UPDATE_RATE_PERMIL",
      "outputs": [
        {
          "internalType": "uint256",
          "name": "",
          "type": "uint256"
        }
      ],
      "stateMutability": "view",
      "type": "function"
    },
    {
      "inputs": [],
      "name": "avgLiquidationPerCall",
      "outputs": [
        {
          "internalType": "uint256",
          "name": "",
          "type": "uint256"
        }
      ],
      "stateMutability": "view",
      "type": "function"
    },
    {
      "inputs": [],
      "name": "coolingOffPeriod",
      "outputs": [
        {
          "internalType": "uint256",
          "name": "",
          "type": "uint256"
        }
      ],
      "stateMutability": "view",
      "type": "function"
    },
    {
      "inputs": [
        {
          "internalType": "address[]",
          "name": "liquidatedAccounts",
          "type": "address[]"
        }
      ],
      "name": "disburseLiqStakeAttacks",
      "outputs": [],
      "stateMutability": "nonpayable",
      "type": "function"
    },
    {
      "inputs": [],
      "name": "failureThreshold",
      "outputs": [
        {
          "internalType": "uint256",
          "name": "",
          "type": "uint256"
        }
      ],
      "stateMutability": "view",
      "type": "function"
    },
    {
      "inputs": [
        {
          "internalType": "address",
          "name": "trader",
          "type": "address"
        }
      ],
      "name": "getBorrowAmounts",
      "outputs": [
        {
          "internalType": "address[]",
          "name": "borrowTokens",
          "type": "address[]"
        },
        {
          "internalType": "uint256[]",
          "name": "borrowAmounts",
          "type": "uint256[]"
        }
      ],
      "stateMutability": "view",
      "type": "function"
    },
    {
      "inputs": [
        {
          "internalType": "address",
          "name": "token",
          "type": "address"
        },
        {
          "internalType": "uint256",
          "name": "inAmount",
          "type": "uint256"
        },
        {
          "internalType": "bool",
          "name": "forceCurBlock",
          "type": "bool"
        }
      ],
      "name": "getCurrentPriceInPeg",
      "outputs": [
        {
          "internalType": "uint256",
          "name": "",
          "type": "uint256"
        }
      ],
      "stateMutability": "nonpayable",
      "type": "function"
    },
    {
      "inputs": [
        {
          "internalType": "address",
          "name": "trader",
          "type": "address"
        }
      ],
      "name": "getHoldingAmounts",
      "outputs": [
        {
          "internalType": "address[]",
          "name": "holdingTokens",
          "type": "address[]"
        },
        {
          "internalType": "uint256[]",
          "name": "holdingAmounts",
          "type": "uint256[]"
        }
      ],
      "stateMutability": "view",
      "type": "function"
    },
    {
      "inputs": [
        {
          "internalType": "address",
          "name": "trader",
          "type": "address"
        }
      ],
      "name": "getLastDepositBlock",
      "outputs": [
        {
          "internalType": "uint256",
          "name": "",
          "type": "uint256"
        }
      ],
      "stateMutability": "view",
      "type": "function"
    },
    {
      "inputs": [],
      "name": "leveragePercent",
      "outputs": [
        {
          "internalType": "uint256",
          "name": "",
          "type": "uint256"
        }
      ],
      "stateMutability": "view",
      "type": "function"
    },
    {
      "inputs": [],
      "name": "liqStakeAttackWindow",
      "outputs": [
        {
          "internalType": "uint256",
          "name": "",
          "type": "uint256"
        }
      ],
      "stateMutability": "view",
      "type": "function"
    },
    {
      "inputs": [
        {
          "internalType": "address[]",
          "name": "liquidationCandidates",
          "type": "address[]"
        }
      ],
      "name": "liquidate",
      "outputs": [
        {
          "internalType": "uint256",
          "name": "maintainerCut",
          "type": "uint256"
        }
      ],
      "stateMutability": "nonpayable",
      "type": "function"
    },
    {
      "inputs": [],
      "name": "liquidationThresholdPercent",
      "outputs": [
        {
          "internalType": "uint256",
          "name": "",
          "type": "uint256"
        }
      ],
      "stateMutability": "view",
      "type": "function"
    },
    {
      "inputs": [
        {
          "internalType": "uint256",
          "name": "",
          "type": "uint256"
        }
      ],
      "name": "mainCharacterCache",
      "outputs": [
        {
          "internalType": "address",
          "name": "",
          "type": "address"
        }
      ],
      "stateMutability": "view",
      "type": "function"
    },
    {
      "inputs": [
        {
          "internalType": "address",
          "name": "",
          "type": "address"
        }
      ],
      "name": "maintenanceFailures",
      "outputs": [
        {
          "internalType": "uint256",
          "name": "",
          "type": "uint256"
        }
      ],
      "stateMutability": "view",
      "type": "function"
    },
    {
      "inputs": [],
      "name": "peg",
      "outputs": [
        {
          "internalType": "address",
          "name": "",
          "type": "address"
        }
      ],
      "stateMutability": "view",
      "type": "function"
    },
    {
      "inputs": [],
      "name": "priceUpdateWindow",
      "outputs": [
        {
          "internalType": "uint16",
          "name": "",
          "type": "uint16"
        }
      ],
      "stateMutability": "view",
      "type": "function"
    },
    {
      "inputs": [
        {
          "internalType": "address",
          "name": "trader",
          "type": "address"
        },
        {
          "internalType": "address",
          "name": "borrowToken",
          "type": "address"
        },
        {
          "internalType": "uint256",
          "name": "borrowAmount",
          "type": "uint256"
        }
      ],
      "name": "registerBorrow",
      "outputs": [],
      "stateMutability": "nonpayable",
      "type": "function"
    },
    {
      "inputs": [
        {
          "internalType": "address",
          "name": "trader",
          "type": "address"
        },
        {
          "internalType": "address",
          "name": "token",
          "type": "address"
        },
        {
          "internalType": "uint256",
          "name": "depositAmount",
          "type": "uint256"
        }
      ],
      "name": "registerDeposit",
      "outputs": [
        {
          "internalType": "uint256",
          "name": "extinguishableDebt",
          "type": "uint256"
        }
      ],
      "stateMutability": "nonpayable",
      "type": "function"
    },
    {
      "inputs": [
        {
          "internalType": "address",
          "name": "trader",
          "type": "address"
        }
      ],
      "name": "registerLiquidation",
      "outputs": [],
      "stateMutability": "nonpayable",
      "type": "function"
    },
    {
      "inputs": [
        {
          "internalType": "address",
          "name": "trader",
          "type": "address"
        },
        {
          "internalType": "address",
          "name": "depositToken",
          "type": "address"
        },
        {
          "internalType": "uint256",
          "name": "depositAmount",
          "type": "uint256"
        },
        {
          "internalType": "address",
          "name": "borrowToken",
          "type": "address"
        },
        {
          "internalType": "uint256",
          "name": "withdrawAmount",
          "type": "uint256"
        }
      ],
      "name": "registerOvercollateralizedBorrow",
      "outputs": [],
      "stateMutability": "nonpayable",
      "type": "function"
    },
    {
      "inputs": [
        {
          "internalType": "address",
          "name": "trader",
          "type": "address"
        },
        {
          "internalType": "address",
          "name": "tokenFrom",
          "type": "address"
        },
        {
          "internalType": "address",
          "name": "tokenTo",
          "type": "address"
        },
        {
          "internalType": "uint256",
          "name": "inAmount",
          "type": "uint256"
        },
        {
          "internalType": "uint256",
          "name": "outAmount",
          "type": "uint256"
        }
      ],
      "name": "registerTradeAndBorrow",
      "outputs": [
        {
          "internalType": "uint256",
          "name": "extinguishableDebt",
          "type": "uint256"
        },
        {
          "internalType": "uint256",
          "name": "borrowAmount",
          "type": "uint256"
        }
      ],
      "stateMutability": "nonpayable",
      "type": "function"
    },
    {
      "inputs": [
        {
          "internalType": "address",
          "name": "trader",
          "type": "address"
        },
        {
          "internalType": "address",
          "name": "withdrawToken",
          "type": "address"
        },
        {
          "internalType": "uint256",
          "name": "withdrawAmount",
          "type": "uint256"
        }
      ],
      "name": "registerWithdrawal",
      "outputs": [],
      "stateMutability": "nonpayable",
      "type": "function"
    },
    {
      "inputs": [
        {
          "internalType": "address",
          "name": "",
          "type": "address"
        },
        {
          "internalType": "uint256",
          "name": "",
          "type": "uint256"
        }
      ],
      "name": "roleCache",
      "outputs": [
        {
          "internalType": "bool",
          "name": "",
          "type": "bool"
        }
      ],
      "stateMutability": "view",
      "type": "function"
    },
    {
      "inputs": [],
      "name": "roles",
      "outputs": [
        {
          "internalType": "contract Roles",
          "name": "",
          "type": "address"
        }
      ],
      "stateMutability": "view",
      "type": "function"
    },
    {
      "inputs": [
        {
          "internalType": "uint256",
          "name": "blocks",
          "type": "uint256"
        }
      ],
      "name": "setCoolingOffPeriod",
      "outputs": [],
      "stateMutability": "nonpayable",
      "type": "function"
    },
    {
      "inputs": [
        {
          "internalType": "uint256",
          "name": "threshFactor",
          "type": "uint256"
        }
      ],
      "name": "setFailureThreshold",
      "outputs": [],
      "stateMutability": "nonpayable",
      "type": "function"
    },
    {
      "inputs": [
        {
          "internalType": "uint256",
          "name": "_leveragePercent",
          "type": "uint256"
        }
      ],
      "name": "setLeverage",
      "outputs": [],
      "stateMutability": "nonpayable",
      "type": "function"
    },
    {
      "inputs": [
        {
          "internalType": "uint256",
          "name": "window",
          "type": "uint256"
        }
      ],
      "name": "setLiqStakeAttackWindow",
      "outputs": [],
      "stateMutability": "nonpayable",
      "type": "function"
    },
    {
      "inputs": [
        {
          "internalType": "address[]",
          "name": "path",
          "type": "address[]"
        },
        {
          "internalType": "address[]",
          "name": "tokens",
          "type": "address[]"
        }
      ],
      "name": "setLiquidationPath",
      "outputs": [],
      "stateMutability": "nonpayable",
      "type": "function"
    },
    {
      "inputs": [
        {
          "internalType": "uint256",
          "name": "threshold",
          "type": "uint256"
        }
      ],
      "name": "setLiquidationThresholdPercent",
      "outputs": [],
      "stateMutability": "nonpayable",
      "type": "function"
    },
    {
      "inputs": [
        {
          "internalType": "uint256",
          "name": "cut",
          "type": "uint256"
        }
      ],
      "name": "setMaintainerCutPercent",
      "outputs": [],
      "stateMutability": "nonpayable",
      "type": "function"
    },
    {
      "inputs": [
        {
          "internalType": "uint16",
          "name": "window",
          "type": "uint16"
        }
      ],
      "name": "setPriceUpdateWindow",
      "outputs": [],
      "stateMutability": "nonpayable",
      "type": "function"
    },
    {
      "inputs": [
        {
          "internalType": "address",
          "name": "token",
          "type": "address"
        },
        {
          "internalType": "uint256",
          "name": "cap",
          "type": "uint256"
        }
      ],
      "name": "setTokenCap",
      "outputs": [],
      "stateMutability": "nonpayable",
      "type": "function"
    },
    {
      "inputs": [
        {
          "internalType": "uint256",
          "name": "amount",
          "type": "uint256"
        }
      ],
      "name": "setUpdateMaxPegAmount",
      "outputs": [],
      "stateMutability": "nonpayable",
      "type": "function"
    },
    {
      "inputs": [
        {
          "internalType": "uint256",
          "name": "amount",
          "type": "uint256"
        }
      ],
      "name": "setUpdateMinPegAmount",
      "outputs": [],
      "stateMutability": "nonpayable",
      "type": "function"
    },
    {
      "inputs": [
        {
          "internalType": "uint256",
          "name": "rate",
          "type": "uint256"
        }
      ],
      "name": "setUpdateRate",
      "outputs": [],
      "stateMutability": "nonpayable",
      "type": "function"
    },
    {
      "inputs": [
        {
          "internalType": "address",
          "name": "",
          "type": "address"
        }
      ],
      "name": "stakeAttackRecords",
      "outputs": [
        {
          "internalType": "uint256",
          "name": "blockNum",
          "type": "uint256"
        },
        {
          "internalType": "address",
          "name": "loser",
          "type": "address"
        },
        {
          "internalType": "uint256",
          "name": "amount",
          "type": "uint256"
        },
        {
          "internalType": "address",
          "name": "stakeAttacker",
          "type": "address"
        }
      ],
      "stateMutability": "view",
      "type": "function"
    },
    {
      "inputs": [
        {
          "internalType": "address",
          "name": "",
          "type": "address"
        }
      ],
      "name": "tokenCaps",
      "outputs": [
        {
          "internalType": "uint256",
          "name": "",
          "type": "uint256"
        }
      ],
      "stateMutability": "view",
      "type": "function"
    },
    {
      "inputs": [
        {
          "internalType": "address",
          "name": "",
          "type": "address"
        }
      ],
      "name": "tokenPrices",
      "outputs": [
        {
          "internalType": "uint256",
          "name": "blockLastUpdated",
          "type": "uint256"
        },
        {
          "internalType": "uint256",
          "name": "tokenPer1k",
          "type": "uint256"
        }
      ],
      "stateMutability": "view",
      "type": "function"
    },
    {
      "inputs": [
        {
          "internalType": "address",
          "name": "",
          "type": "address"
        }
      ],
      "name": "totalLong",
      "outputs": [
        {
          "internalType": "uint256",
          "name": "",
          "type": "uint256"
        }
      ],
      "stateMutability": "view",
      "type": "function"
    },
    {
      "inputs": [
        {
          "internalType": "address",
          "name": "",
          "type": "address"
        }
      ],
      "name": "totalShort",
      "outputs": [
        {
          "internalType": "uint256",
          "name": "",
          "type": "uint256"
        }
      ],
      "stateMutability": "view",
      "type": "function"
    },
    {
      "inputs": [
        {
          "internalType": "uint256",
          "name": "role",
          "type": "uint256"
        }
      ],
      "name": "updateMainCharacterCache",
      "outputs": [],
      "stateMutability": "nonpayable",
      "type": "function"
    },
    {
      "inputs": [
        {
          "internalType": "uint256",
          "name": "role",
          "type": "uint256"
        },
        {
          "internalType": "address",
          "name": "contr",
          "type": "address"
        }
      ],
      "name": "updateRoleCache",
      "outputs": [],
      "stateMutability": "nonpayable",
      "type": "function"
    },
    {
      "inputs": [
        {
          "internalType": "address",
          "name": "token",
          "type": "address"
        },
        {
          "internalType": "uint256",
          "name": "inAmount",
          "type": "uint256"
        }
      ],
      "name": "viewCurrentPriceInPeg",
      "outputs": [
        {
          "internalType": "uint256",
          "name": "",
          "type": "uint256"
        }
      ],
      "stateMutability": "view",
      "type": "function"
    },
    {
      "inputs": [
        {
          "internalType": "address",
          "name": "trader",
          "type": "address"
        }
      ],
      "name": "viewHoldingsInPeg",
      "outputs": [
        {
          "internalType": "uint256",
          "name": "",
          "type": "uint256"
        }
      ],
      "stateMutability": "view",
      "type": "function"
    },
    {
      "inputs": [
        {
          "internalType": "address",
          "name": "trader",
          "type": "address"
        }
      ],
      "name": "viewLoanInPeg",
      "outputs": [
        {
          "internalType": "uint256",
          "name": "amount",
          "type": "uint256"
        }
      ],
      "stateMutability": "view",
      "type": "function"
    }
  ],
  "bytecode": "0x60c06040526003805461ffff19166008179055605060045561c35060059081556103e8600655600a601481905560158290556016919091556017553480156200004757600080fd5b5060405162005f4a38038062005f4a8339810160408190526200006a9162000108565b60108181816001600160a01b038116620000d55760405162461bcd60e51b815260206004820152602260248201527f506c656173652070726f766964652076616c696420726f6c6573206164647265604482015261737360f01b606482015260840160405180910390fd5b6001600160601b0319606091821b811660805291901b1660a0525050606e6008555061012c6007556000600d5562000138565b6000602082840312156200011a578081fd5b81516001600160a01b038116811462000131578182fd5b9392505050565b60805160601c60a05160601c615d99620001b1600039600081816103ed015281816109ff01528181610fbe01528181612411015281816125b801528181612d6e0152818161500e01526151510152600081816104dc0152818161083b01528181611a1d01528181613186015261321f0152615d996000f3fe608060405234801561001057600080fd5b50600436106103365760003560e01c806352a664d9116101b2578063a75697a5116100f9578063d510c535116100a2578063e9c3f77d1161007c578063e9c3f77d1461079e578063eac29dd6146107c7578063f99fd97c146107f0578063f9c7aece1461080357610336565b8063d510c53514610758578063db2d904d1461076b578063e0f3871f1461077e57610336565b8063bc44dcbc116100d3578063bc44dcbc14610712578063c73afac214610732578063d0eb66531461074557610336565b8063a75697a514610672578063a985994b14610692578063badb5048146106a557610336565b80637a1a04df1161015b578063a17ab52711610135578063a17ab52714610643578063a371891914610656578063a53ac0d91461066957610336565b80637a1a04df146105e95780637d100e8414610627578063a00891591461063057610336565b806360b3fa401161018c57806360b3fa40146105ba5780636585b5a6146105cd57806379575b23146105d657610336565b806352a664d91461058b578063538edb291461059e57806354554b58146105a757610336565b8063288ddbdc116102815780633ed456fa1161022a578063447d52ba11610204578063447d52ba14610553578063498d55eb146105665780634aa4aca314610579578063519bda851461058257610336565b80633ed456fa146104fe5780633ffc17c01461051f578063409fdb721461053257610336565b8063320d2fa01161025b578063320d2fa0146104bb5780633500aa0b146104c4578063392f5f64146104d757610336565b8063288ddbdc14610496578063299cf2d2146104a95780632febaa74146104b257610336565b80631d47e4a3116102e35780631f692a64116102bd5780631f692a6414610427578063204120bc1461043a57806320c271261461047657610336565b80631d47e4a3146103c25780631d84cc18146103d55780631f1cb62b146103e857610336565b806310d584341161031457806310d584341461038957806316317e7e1461039c57806319fa00e1146103af57610336565b8063071060a61461033b57806307c2017514610350578063093a483a14610363575b600080fd5b61034e610349366004615a90565b61080c565b005b61034e61035e3660046158e0565b610903565b610376610371366004615847565b6109fb565b6040519081526020015b60405180910390f35b61034e610397366004615a90565b610b61565b61034e6103aa366004615a90565b610be4565b61034e6103bd366004615a90565b610c62565b61034e6103d0366004615847565b610ce0565b61034e6103e33660046157ed565b610dc1565b61040f7f000000000000000000000000000000000000000000000000000000000000000081565b6040516001600160a01b039091168152602001610380565b61037661043536600461571b565b610e95565b61046161044836600461571b565b6002602052600090815260409020805460019091015482565b60408051928352602083019190915201610380565b61037661048436600461571b565b600c6020526000908152604090205481565b61034e6104a436600461591b565b610eca565b61037660055481565b610376600d5481565b61037660085481565b6104616104d2366004615753565b61148e565b61040f7f000000000000000000000000000000000000000000000000000000000000000081565b60035461050c9061ffff1681565b60405161ffff9091168152602001610380565b61034e61052d366004615a90565b6117e9565b61054561054036600461571b565b611867565b604051610380929190615b58565b61034e610561366004615ac0565b6119de565b61034e6105743660046157ad565b611aed565b61037660155481565b61037660045481565b6103766105993660046157ad565b611ba7565b61037660165481565b61034e6105b5366004615a90565b611cee565b6103766105c836600461589f565b611d6c565b61037660145481565b61034e6105e4366004615a90565b611e2a565b6106176105f7366004615847565b600160209081526000928352604080842090915290825290205460ff1681565b6040519015158152602001610380565b61037660175481565b61034e61063e366004615a6e565b611ea8565b61037661065136600461571b565b611f56565b61034e610664366004615a90565b611f7e565b61037660075481565b61037661068036600461571b565b60126020526000908152604090205481565b6103766106a03660046158e0565b611ffc565b6106e76106b336600461571b565b601360205260009081526040902080546001820154600283015460039093015491926001600160a01b039182169290911684565b604080519485526001600160a01b039384166020860152840191909152166060820152608001610380565b61037661072036600461571b565b600b6020526000908152604090205481565b61034e610740366004615a90565b61278e565b61034e6107533660046157ad565b61280c565b61054561076636600461571b565b6128c0565b61034e61077936600461571b565b612b04565b61037661078c36600461571b565b600a6020526000908152604090205481565b61040f6107ac366004615a90565b6000602081905290815260409020546001600160a01b031681565b6103766107d536600461571b565b6001600160a01b031660009081526009602052604090205490565b61034e6107fe366004615a90565b612c35565b61037660065481565b6040517fb4ed0b6d000000000000000000000000000000000000000000000000000000008152600481018290527f00000000000000000000000000000000000000000000000000000000000000006001600160a01b03169063b4ed0b6d9060240160206040518083038186803b15801561088557600080fd5b505afa158015610899573d6000803e3d6000fd5b505050506040513d601f19601f820116820180604052508101906108bd9190615737565b60009182526020829052604090912080547fffffffffffffffffffffffff0000000000000000000000000000000000000000166001600160a01b03909216919091179055565b60005b80825111156109f757600082828151811061093157634e487b7160e01b600052603260045260246000fd5b60200260200101519050600060136000836001600160a01b03166001600160a01b03168152602001908152602001600020905060155481600001546109769190615c74565b4311156109e25761098681612cb3565b506001600160a01b03821660009081526013602052604081208181556001810180547fffffffffffffffffffffffff00000000000000000000000000000000000000009081169091556002820192909255600301805490911690555b505080806109ef90615cf9565b915050610906565b5050565b60007f00000000000000000000000000000000000000000000000000000000000000006001600160a01b0316836001600160a01b03161415610a3e575080610b5b565b6001600160a01b03831660009081526002602081815260408084209283018054825181850281018501909352808352939493610b19938893929190830182828015610ab257602002820191906000526020600020905b81546001600160a01b03168152600190910190602001808311610a94575b505050505084600401805480602002602001604051908101604052809291908181526020018280548015610b0f57602002820191906000526020600020905b81546001600160a01b03168152600190910190602001808311610af1575b5050505050612f76565b905060008160018351610b2c9190615ccb565b81518110610b4a57634e487b7160e01b600052603260045260246000fd5b602002602001015190508093505050505b92915050565b33610b6a613182565b6001600160a01b03161480610b8e575033610b8361321b565b6001600160a01b0316145b610bdf5760405162461bcd60e51b815260206004820152601e60248201527f526f6c65733a2063616c6c6572206973206e6f7420746865206f776e6572000060448201526064015b60405180910390fd5b601755565b33610bed613182565b6001600160a01b03161480610c11575033610c0661321b565b6001600160a01b0316145b610c5d5760405162461bcd60e51b815260206004820152601e60248201527f526f6c65733a2063616c6c6572206973206e6f7420746865206f776e657200006044820152606401610bd6565b600855565b33610c6b613182565b6001600160a01b03161480610c8f575033610c8461321b565b6001600160a01b0316145b610cdb5760405162461bcd60e51b815260206004820152601e60248201527f526f6c65733a2063616c6c6572206973206e6f7420746865206f776e657200006044820152606401610bd6565b600655565b33610ce9613182565b6001600160a01b03161480610d0d575033610d0261321b565b6001600160a01b0316145b80610d3357503360009081526001602090815260408083206009845290915290205460ff165b610da55760405162461bcd60e51b815260206004820152603960248201527f43616c6c6572206973206e6f7420746865206f776e65722c206578656375746f60448201527f72206f7220617574686f72697a656420616374697661746f72000000000000006064820152608401610bd6565b6001600160a01b039091166000908152600a6020526040902055565b3360009081526001602090815260408083206004845290915290205460ff16610e525760405162461bcd60e51b815260206004820152602a60248201527f43616c6c696e6720636f6e7472616374206e6f7420617574686f72697a65642060448201527f746f206465706f736974000000000000000000000000000000000000000000006064820152608401610bd6565b6001600160a01b0385166000908152600960205260409020610e7581868661328c565b610e8081848461335d565b610e8b81848461348a565b4390555050505050565b6001600160a01b0381166000908152600960205260408120610ec160018201600283016003840161361c565b9150505b919050565b33610ed3613182565b6001600160a01b03161480610ef7575033610eec61321b565b6001600160a01b0316145b80610f1d57503360009081526001602090815260408083206009845290915290205460ff165b610f8f5760405162461bcd60e51b815260206004820152603960248201527f43616c6c6572206973206e6f7420746865206f776e65722c206578656375746f60448201527f72206f7220617574686f72697a656420616374697661746f72000000000000006064820152608401610bd6565b600081600081518110610fb257634e487b7160e01b600052603260045260246000fd5b602002602001015190507f00000000000000000000000000000000000000000000000000000000000000006001600160a01b0316816001600160a01b031614611489576001600160a01b0381166000908152600260205260409020835167ffffffffffffffff81111561103557634e487b7160e01b600052604160045260246000fd5b60405190808252806020026020018201604052801561105e578160200160208202803683370190505b5080516110759160028401916020909101906155d2565b50835167ffffffffffffffff81111561109e57634e487b7160e01b600052604160045260246000fd5b6040519080825280602002602001820160405280156110c7578160200160208202803683370190505b5080516110de9160038401916020909101906155d2565b50825167ffffffffffffffff81111561110757634e487b7160e01b600052604160045260246000fd5b604051908082528060200260200182016040528015611130578160200160208202803683370190505b5080516111479160048401916020909101906155d2565b50825167ffffffffffffffff81111561117057634e487b7160e01b600052604160045260246000fd5b604051908082528060200260200182016040528015611199578160200160208202803683370190505b5080516111b09160058401916020909101906155d2565b5060005b80855111156112ec578481815181106111dd57634e487b7160e01b600052603260045260246000fd5b602002602001015182600201828154811061120857634e487b7160e01b600052603260045260246000fd5b9060005260206000200160006101000a8154816001600160a01b0302191690836001600160a01b031602179055508460018287516112469190615ccb565b6112509190615ccb565b8151811061126e57634e487b7160e01b600052603260045260246000fd5b602002602001015182600301828154811061129957634e487b7160e01b600052603260045260246000fd5b600091825260209091200180547fffffffffffffffffffffffff0000000000000000000000000000000000000000166001600160a01b0392909216919091179055806112e481615cf9565b9150506111b4565b5060005b80845111156114285783818151811061131957634e487b7160e01b600052603260045260246000fd5b602002602001015182600401828154811061134457634e487b7160e01b600052603260045260246000fd5b9060005260206000200160006101000a8154816001600160a01b0302191690836001600160a01b031602179055508360018286516113829190615ccb565b61138c9190615ccb565b815181106113aa57634e487b7160e01b600052603260045260246000fd5b60200260200101518260050182815481106113d557634e487b7160e01b600052603260045260246000fd5b600091825260209091200180547fffffffffffffffffffffffff0000000000000000000000000000000000000000166001600160a01b03929092169190911790558061142081615cf9565b9150506112f0565b50600061143f683635c9adc5dea0000086866136a0565b905060008160008151811061146457634e487b7160e01b600052603260045260246000fd5b602002602001015190506114858382683635c9adc5dea000006103e86138ae565b5050505b505050565b33600090815260016020908152604080832060048452909152812054819060ff166115215760405162461bcd60e51b815260206004820152603960248201527f43616c6c696e6720636f6e7472616374206973206e6f7420616e20617574686f60448201527f72697a6564206d617267696e20747261646572206167656e74000000000000006064820152608401610bd6565b6001600160a01b038088166000908152600960209081526040808320938916835260028401909152902054156115b2576001600160a01b0386166000908152600282016020526040902054611577908590613925565b925061158481878561393d565b6001600160a01b0386166000908152600b6020526040812080548592906115ac908490615ccb565b90915550505b6001600160a01b0387166000908152600c6020526040812080548792906115da908490615ccb565b909155506115ea90508385615ccb565b6001600160a01b0387166000908152600c602052604081208054909190611612908490615c74565b90915550506001600160a01b0386166000908152600c6020908152604080832054600a9092529091205410156116b05760405162461bcd60e51b815260206004820152603960248201527f457863656564696e6720676c6f62616c206578706f737572652063617020746f60448201527f20746f6b656e202d2d2074727920616761696e206c61746572000000000000006064820152608401610bd6565b6001600160a01b038716600090815260058201602052604090205485908111156117d057506001600160a01b03871660009081526005820160205260409020546116fa8187615ccb565b6001600160a01b0389166000908152600b6020526040812080549295508592909190611727908490615c74565b90915550506001600160a01b0388166000908152600b6020908152604080832054600a9092529091205410156117c55760405162461bcd60e51b815260206004820152603960248201527f457863656564696e6720676c6f62616c206578706f737572652063617020746f60448201527f20746f6b656e202d2d2074727920616761696e206c61746572000000000000006064820152608401610bd6565b6117d0828985613c23565b6117dd8289898489613f5a565b50509550959350505050565b336117f2613182565b6001600160a01b0316148061181657503361180b61321b565b6001600160a01b0316145b6118625760405162461bcd60e51b815260206004820152601e60248201527f526f6c65733a2063616c6c6572206973206e6f7420746865206f776e657200006044820152606401610bd6565b600555565b6001600160a01b0381166000908152600960209081526040918290206004810180548451818502810185019095528085526060948594909291908301828280156118da57602002820191906000526020600020905b81546001600160a01b031681526001909101906020018083116118bc575b5050506004840154929550505067ffffffffffffffff81111561190d57634e487b7160e01b600052604160045260246000fd5b604051908082528060200260200182016040528015611936578160200160208202803683370190505b50915060005b80845111156119d757600084828151811061196757634e487b7160e01b600052603260045260246000fd5b60200260200101519050826005016000826001600160a01b03166001600160a01b03168152602001908152602001600020548483815181106119b957634e487b7160e01b600052603260045260246000fd5b602090810291909101015250806119cf81615cf9565b91505061193c565b5050915091565b6040517f93552a3d000000000000000000000000000000000000000000000000000000008152600481018390526001600160a01b0382811660248301527f000000000000000000000000000000000000000000000000000000000000000016906393552a3d9060440160206040518083038186803b158015611a5f57600080fd5b505afa158015611a73573d6000803e3d6000fd5b505050506040513d601f19601f82011682018060405250810190611a979190615a0f565b6001600160a01b039190911660009081526001602090815260408083209483529390529190912080547fffffffffffffffffffffffffffffffffffffffffffffffffffffffffffffff0016911515919091179055565b3360009081526001602090815260408083206004845290915290205460ff16611b7e5760405162461bcd60e51b815260206004820152602a60248201527f43616c6c696e6720636f6e7472616374206e6f7420617574686f72697a65642060448201527f746f206465706f736974000000000000000000000000000000000000000000006064820152608401610bd6565b6001600160a01b0383166000908152600960205260409020611ba181848461335d565b50505050565b3360009081526001602090815260408083206004845290915281205460ff16611c385760405162461bcd60e51b815260206004820152602a60248201527f43616c6c696e6720636f6e7472616374206e6f7420617574686f72697a65642060448201527f746f206465706f736974000000000000000000000000000000000000000000006064820152608401610bd6565b6001600160a01b03808516600090815260096020908152604080832043815593871683526002840190915290205415611ccc576001600160a01b0384166000908152600282016020526040902054611c91908490613925565b9150611c9e81858461393d565b6001600160a01b0384166000908152600b602052604081208054849290611cc6908490615ccb565b90915550505b6000611cd88385615ccb565b9050611ce582868361328c565b50509392505050565b33611cf7613182565b6001600160a01b03161480611d1b575033611d1061321b565b6001600160a01b0316145b611d675760405162461bcd60e51b815260206004820152601e60248201527f526f6c65733a2063616c6c6572206973206e6f7420746865206f776e657200006044820152606401610bd6565b600455565b6001600160a01b03831660009081526002602052604081208215611dc257600354815461ffff90911690611da09043615ccb565b1115611db857611db08585613fad565b915050611e23565b611db085856109fb565b6001810154611dd557611db08585613fad565b600354815461ffff90911690611deb9043615ccb565b1115611dfd57611dfb8585613fad565b505b6001810154611e1585683635c9adc5dea00000615cac565b611e1f9190615c8c565b9150505b9392505050565b33611e33613182565b6001600160a01b03161480611e57575033611e4c61321b565b6001600160a01b0316145b611ea35760405162461bcd60e51b815260206004820152601e60248201527f526f6c65733a2063616c6c6572206973206e6f7420746865206f776e657200006044820152606401610bd6565b600755565b33611eb1613182565b6001600160a01b03161480611ed5575033611eca61321b565b6001600160a01b0316145b611f215760405162461bcd60e51b815260206004820152601e60248201527f526f6c65733a2063616c6c6572206973206e6f7420746865206f776e657200006044820152606401610bd6565b600380547fffffffffffffffffffffffffffffffffffffffffffffffffffffffffffff00001661ffff92909216919091179055565b6001600160a01b0381166000908152600960205260408120610ec16004820160058301613fde565b33611f87613182565b6001600160a01b03161480611fab575033611fa061321b565b6001600160a01b0316145b611ff75760405162461bcd60e51b815260206004820152601e60248201527f526f6c65733a2063616c6c6572206973206e6f7420746865206f776e657200006044820152606401610bd6565b601555565b60003332146120735760405162461bcd60e51b815260206004820152603a60248201527f43757272656e746c79206e6f20696e7465726d656469617269657320616c6c6f60448201527f77656420666f7220746869732066756e6374696f6e2063616c6c0000000000006064820152608401610bd6565b60006120b0606b60009081526020527f2dc7a963308417ad45132da282495eb244f38a7db03940a4d808be607669c622546001600160a01b031690565b6040517f7b23cbce0000000000000000000000000000000000000000000000000000000081523360048201526001600160a01b039190911690637b23cbce90602401602060405180830381600087803b15801561210c57600080fd5b505af1158015612120573d6000803e3d6000fd5b505050506040513d601f19601f820116820180604052508101906121449190615a0f565b9050600081806121575750612157614069565b90506121638483614149565b9250600061216f6146cb565b9050600061217b6147a7565b9050816064601654606461218f9190615c74565b6121999084615cac565b6121a39190615c8c565b111561220c577f3555ffae7677eb42103f0b9e11b61c758f452fae446684dec7a363dd38ab58fc82606460165460646121dc9190615c74565b6121e69085615cac565b6121f09190615c8c565b6121fa9190615ccb565b60405190815260200160405180910390a15b6000836122bd57606b60009081526020527f2dc7a963308417ad45132da282495eb244f38a7db03940a4d808be607669c622546001600160a01b03166001600160a01b0316631a38de1d6040518163ffffffff1660e01b8152600401602060405180830381600087803b15801561228257600080fd5b505af1158015612296573d6000803e3d6000fd5b505050506040513d601f19601f820116820180604052508101906122ba9190615737565b90505b60005b601154811015612523576000601182815481106122ed57634e487b7160e01b600052603260045260246000fd5b60009182526020808320909101546001600160a01b03168083526009909152604082209092509061231f826001614880565b9050600061232e836001614893565b905060006064601654836123429190615cac565b61234c9190615c8c565b9050612358818d615c74565b9b50896123c5576001600160a01b03858116600090815260136020526040902060028101839055600381018054337fffffffffffffffffffffffff000000000000000000000000000000000000000091821617909155438255600190910180549091169189169190911790555b6123cf8282615c74565b83106124c657606560009081526020527f4a7203f705e51df4a56139a9b86b4a0970bed7ab7a3446eaffe2289989c1645c546001600160a01b031663d9caed127f0000000000000000000000000000000000000000000000000000000000000000878461243c8789615ccb565b6124469190615ccb565b6040517fffffffff0000000000000000000000000000000000000000000000000000000060e086901b1681526001600160a01b0393841660048201529290911660248301526044820152606401600060405180830381600087803b1580156124ad57600080fd5b505af11580156124c1573d6000803e3d6000fd5b505050505b6040516001600160a01b03861681527f1d2cc4c8661a04a00b4e727426220501b36d85bb330947642c2d4320667028cf9060200160405180910390a161250b846148aa565b5050505050808061251b90615cf9565b9150506122c0565b5060648660145460636125369190615cac565b6125409190615c74565b61254a9190615c8c565b601455831561262c57606560009081526020527f4a7203f705e51df4a56139a9b86b4a0970bed7ab7a3446eaffe2289989c1645c546001600160a01b03166040517fd9caed120000000000000000000000000000000000000000000000000000000081526001600160a01b037f00000000000000000000000000000000000000000000000000000000000000008116600483015233602483015260448201899052919091169063d9caed1290606401600060405180830381600087803b15801561261357600080fd5b505af1158015612627573d6000803e3d6000fd5b505050505b6000612669606b60009081526020527f2dc7a963308417ad45132da282495eb244f38a7db03940a4d808be607669c622546001600160a01b031690565b6001600160a01b0316631a38de1d6040518163ffffffff1660e01b8152600401602060405180830381600087803b1580156126a357600080fd5b505af11580156126b7573d6000803e3d6000fd5b505050506040513d601f19601f820116820180604052508101906126db9190615737565b90508515612755576001600160a01b038116600090815260126020526040902054871015612736576001600160a01b0381166000908152601260205260408120805489929061272b908490615ccb565b909155506127509050565b6001600160a01b0381166000908152601260205260408120555b612783565b6001600160a01b0381166000908152601260205260408120805489929061277d908490615c74565b90915550505b505050505050919050565b33612797613182565b6001600160a01b031614806127bb5750336127b061321b565b6001600160a01b0316145b6128075760405162461bcd60e51b815260206004820152601e60248201527f526f6c65733a2063616c6c6572206973206e6f7420746865206f776e657200006044820152606401610bd6565b601655565b3360009081526001602090815260408083206004845290915290205460ff1661289d5760405162461bcd60e51b815260206004820152602a60248201527f43616c6c696e6720636f6e7472616374206e6f7420617574686f72697a65642060448201527f746f206465706f736974000000000000000000000000000000000000000000006064820152608401610bd6565b6001600160a01b0383166000908152600960205260409020611ba181848461348a565b6001600160a01b03811660009081526009602090815260409182902060018101805484518185028101850190955280855260609485949092919083018282801561293357602002820191906000526020600020905b81546001600160a01b03168152600190910190602001808311612915575b5050506001840154929550505067ffffffffffffffff81111561296657634e487b7160e01b600052604160045260246000fd5b60405190808252806020026020018201604052801561298f578160200160208202803683370190505b50915060005b80845111156119d75760008482815181106129c057634e487b7160e01b600052603260045260246000fd5b60200260200101519050612a05606660009081526020527f422cccb7cea5c0e46f340bb7b21b81debac329f72e31669c20ff0f3a05cc2b5b546001600160a01b031690565b6001600160a01b03828116600081815260028701602090815260408083205460038a01909252918290205491517f76668b670000000000000000000000000000000000000000000000000000000081526004810191909152602481019290925260448201529116906376668b679060640160206040518083038186803b158015612a8e57600080fd5b505afa158015612aa2573d6000803e3d6000fd5b505050506040513d601f19601f82011682018060405250810190612ac69190615aa8565b848381518110612ae657634e487b7160e01b600052603260045260246000fd5b60209081029190910101525080612afc81615cf9565b915050612995565b3360009081526001602090815260408083206004845290915290205460ff16612b955760405162461bcd60e51b815260206004820152603960248201527f43616c6c696e6720636f6e7472616374206973206e6f7420616e20617574686f60448201527f72697a6564206d617267696e20747261646572206167656e74000000000000006064820152608401610bd6565b6001600160a01b038116600090815260096020526040812090612bb9908290614893565b15612c2c5760405162461bcd60e51b815260206004820152602b60248201527f43616e2774206c69717569646174652063757272656e746c7920626f72726f7760448201527f696e67206163636f756e740000000000000000000000000000000000000000006064820152608401610bd6565b6109f7816148aa565b33612c3e613182565b6001600160a01b03161480612c62575033612c5761321b565b6001600160a01b0316145b612cae5760405162461bcd60e51b815260206004820152601e60248201527f526f6c65733a2063616c6c6572206973206e6f7420746865206f776e657200006044820152606401610bd6565b600d55565b600281015460009015610ec5578154600090612cdb90612cd39043615ccb565b601554613925565b90506000601554828560020154612cf29190615cac565b612cfc9190615c8c565b9050612d39606560009081526020527f4a7203f705e51df4a56139a9b86b4a0970bed7ab7a3446eaffe2289989c1645c546001600160a01b031690565b60038501546040517fd9caed120000000000000000000000000000000000000000000000000000000081526001600160a01b037f00000000000000000000000000000000000000000000000000000000000000008116600483015291821660248201526044810184905291169063d9caed1290606401600060405180830381600087803b158015612dc957600080fd5b505af1158015612ddd573d6000803e3d6000fd5b505050506000612e1e606b60009081526020527f2dc7a963308417ad45132da282495eb244f38a7db03940a4d808be607669c622546001600160a01b031690565b9050600060145483836001600160a01b0316630ad691506040518163ffffffff1660e01b815260040160206040518083038186803b158015612e5f57600080fd5b505afa158015612e73573d6000803e3d6000fd5b505050506040513d601f19601f82011682018060405250810190612e979190615aa8565b612ea19190615cac565b612eab9190615c8c565b600187015460038801546040517f0a45bc1b0000000000000000000000000000000000000000000000000000000081526001600160a01b039283166004820152602481018490529082166044820152919250831690630a45bc1b90606401602060405180830381600087803b158015612f2357600080fd5b505af1158015612f37573d6000803e3d6000fd5b505050506040513d601f19601f82011682018060405250810190612f5b9190615aa8565b50828660020154612f6c9190615ccb565b9695505050505050565b6060600183511015612fca5760405162461bcd60e51b815260206004820152601260248201527f706169727320697320746f6f2073686f727400000000000000000000000000006044820152606401610bd6565b815167ffffffffffffffff811115612ff257634e487b7160e01b600052604160045260246000fd5b60405190808252806020026020018201604052801561301b578160200160208202803683370190505b509050838160008151811061304057634e487b7160e01b600052603260045260246000fd5b60200260200101818152505060005b6001835161305d9190615ccb565b81101561317a57600084828151811061308657634e487b7160e01b600052603260045260246000fd5b602002602001015190506000806130f8838786815181106130b757634e487b7160e01b600052603260045260246000fd5b6020026020010151888760016130cd9190615c74565b815181106130eb57634e487b7160e01b600052603260045260246000fd5b6020026020010151614a58565b9150915061312e85858151811061311f57634e487b7160e01b600052603260045260246000fd5b60200260200101518383614b35565b8561313a866001615c74565b8151811061315857634e487b7160e01b600052603260045260246000fd5b602002602001018181525050505050808061317290615cf9565b91505061304f565b509392505050565b60007f00000000000000000000000000000000000000000000000000000000000000006001600160a01b0316638da5cb5b6040518163ffffffff1660e01b815260040160206040518083038186803b1580156131dd57600080fd5b505afa1580156131f1573d6000803e3d6000fd5b505050506040513d601f19601f820116820180604052508101906132159190615737565b90505b90565b60007f00000000000000000000000000000000000000000000000000000000000000006001600160a01b031663c34c08e56040518163ffffffff1660e01b8152600401602060405180830381600087803b15801561327857600080fd5b505af11580156131f1573d6000803e3d6000fd5b613297838383614c7c565b6001600160a01b0382166000908152600c6020526040812080548392906132bf908490615c74565b90915550506001600160a01b0382166000908152600c6020908152604080832054600a9092529091205410156114895760405162461bcd60e51b815260206004820152603960248201527f457863656564696e6720676c6f62616c206578706f737572652063617020746f60448201527f20746f6b656e202d2d2074727920616761696e206c61746572000000000000006064820152608401610bd6565b6001600160a01b0382166000908152600b602052604081208054839290613385908490615c74565b90915550506001600160a01b0382166000908152600c6020526040812080548392906133b2908490615c74565b90915550506001600160a01b0382166000908152600b6020908152604080832054600a909252909120541080159061340d57506001600160a01b0382166000908152600c6020908152604080832054600a9092529091205410155b61347f5760405162461bcd60e51b815260206004820152603960248201527f457863656564696e6720676c6f62616c206578706f737572652063617020746f60448201527f20746f6b656e202d2d2074727920616761696e206c61746572000000000000006064820152608401610bd6565b611489838383613c23565b600d5483546134999190615c74565b43116135335760405162461bcd60e51b815260206004820152605260248201527f546f2070726576656e742061747461636b7320796f75206d757374207761697460448201527f20756e74696c20796f757220636f6f6c696e67206f666620706572696f64206960648201527f73206f76657220746f2077697468647261770000000000000000000000000000608482015260a401610bd6565b6001600160a01b0382166000908152600c60205260408120805483929061355b908490615ccb565b90915550506001600160a01b0382166000908152600584016020526040902054613586908290615ccb565b6001600160a01b03831660009081526005850160205260409020556135aa83614d1b565b6114895760405162461bcd60e51b815260206004820152602660248201527f4163636f756e742062616c616e636520697320746f6f206c6f7720746f20776960448201527f74686472617700000000000000000000000000000000000000000000000000006064820152608401610bd6565b8254600090815b81811015611ce557600086828154811061364d57634e487b7160e01b600052603260045260246000fd5b60009182526020808320909101546001600160a01b03168083529088905260409091205490915061368090829087614d6b565b61368a9085615c74565b935050808061369890615cf9565b915050613623565b60606001835110156136f45760405162461bcd60e51b815260206004820152601260248201527f706169727320697320746f6f2073686f727400000000000000000000000000006044820152606401610bd6565b815167ffffffffffffffff81111561371c57634e487b7160e01b600052604160045260246000fd5b604051908082528060200260200182016040528015613745578160200160208202803683370190505b5090508381600183516137589190615ccb565b8151811061377657634e487b7160e01b600052603260045260246000fd5b6020026020010181815250506000600183516137929190615ccb565b90505b801561317a576000846137a9600184615ccb565b815181106137c757634e487b7160e01b600052603260045260246000fd5b6020026020010151905060008061382c83876001876137e69190615ccb565b8151811061380457634e487b7160e01b600052603260045260246000fd5b60200260200101518887815181106130eb57634e487b7160e01b600052603260045260246000fd5b9150915061386285858151811061385357634e487b7160e01b600052603260045260246000fd5b60200260200101518383614e7a565b8561386e600187615ccb565b8151811061388c57634e487b7160e01b600052603260045260246000fd5b60200260200101818152505050505080806138a690615ce2565b915050613795565b60006138bb836001615c74565b6138ce85683635c9adc5dea00000615cac565b6138d89190615c8c565b90506103e86138e78383615cac565b6138f3846103e8615ccb565b87600101546139029190615cac565b61390c9190615c74565b6139169190615c8c565b85600101819055505050505050565b600081831115613936575080610b5b565b5081610b5b565b60008061397b606660009081526020527f422cccb7cea5c0e46f340bb7b21b81debac329f72e31669c20ff0f3a05cc2b5b546001600160a01b031690565b6001600160a01b03858116600081815260028901602090815260408083205460038c01909252918290205491517fe695fa6800000000000000000000000000000000000000000000000000000000815260048101919091526024810192909252604482015291169063e695fa68906064016040805180830381600087803b158015613a0557600080fd5b505af1158015613a19573d6000803e3d6000fd5b505050506040513d601f19601f82011682018060405250810190613a3d9190615aef565b90925090506000613a4e8484615ccb565b6001600160a01b0386166000908152600288016020908152604080832084905560058a01909152902054909150613a86908590615ccb565b6001600160a01b03861660009081526005880160205260409020558015613ac9576001600160a01b03851660009081526003870160205260409020829055611485565b6001600160a01b038516600090815260038701602052604081208190556001870154815b80821115613bbd576000896001018281548110613b1a57634e487b7160e01b600052603260045260246000fd5b6000918252602090912001546001600160a01b0390811691508916811415613b455760019350613baa565b8315613baa57808a600101600184613b5d9190615ccb565b81548110613b7b57634e487b7160e01b600052603260045260246000fd5b9060005260206000200160006101000a8154816001600160a01b0302191690836001600160a01b031602179055505b5080613bb581615cf9565b915050613aed565b5087600101805480613bdf57634e487b7160e01b600052603160045260246000fd5b600082815260209020810160001990810180547fffffffffffffffffffffffff00000000000000000000000000000000000000001690550190555050505050505050565b6001600160a01b0382166000908152600384016020526040902054613d8a576001838101805491820181556000908152602090200180547fffffffffffffffffffffffff0000000000000000000000000000000000000000166001600160a01b038416179055613cc4606660009081526020527f422cccb7cea5c0e46f340bb7b21b81debac329f72e31669c20ff0f3a05cc2b5b546001600160a01b031690565b6040517f46c87f800000000000000000000000000000000000000000000000000000000081526001600160a01b03848116600483015291909116906346c87f8090602401602060405180830381600087803b158015613d2257600080fd5b505af1158015613d36573d6000803e3d6000fd5b505050506040513d601f19601f82011682018060405250810190613d5a9190615aa8565b6001600160a01b038316600090815260038501602090815260408083209390935560028601905220819055613ed4565b600080613dc8606660009081526020527f422cccb7cea5c0e46f340bb7b21b81debac329f72e31669c20ff0f3a05cc2b5b546001600160a01b031690565b6001600160a01b03858116600081815260028901602090815260408083205460038c01909252918290205491517fe695fa6800000000000000000000000000000000000000000000000000000000815260048101919091526024810192909252604482015291169063e695fa68906064016040805180830381600087803b158015613e5257600080fd5b505af1158015613e66573d6000803e3d6000fd5b505050506040513d601f19601f82011682018060405250810190613e8a9190615aef565b6001600160a01b038616600090815260038801602052604090208190559092509050613eb68383615c74565b6001600160a01b038516600090815260028701602052604090205550505b613edf838383614c7c565b613ee883614d1b565b6114895760405162461bcd60e51b815260206004820152602260248201527f43616e277420626f72726f773a20696e73756666696369656e742062616c616e60448201527f63650000000000000000000000000000000000000000000000000000000000006064820152608401610bd6565b6001600160a01b0384166000908152600586016020526040902054613f80908390615ccb565b6001600160a01b0385166000908152600587016020526040902055613fa6858483614c7c565b5050505050565b60008115613fd8576001600160a01b0383166000908152600260205260409020613fd8908380614fbd565b50919050565b8154600090815b8181101561406157600085828154811061400f57634e487b7160e01b600052603260045260246000fd5b60009182526020808320909101546001600160a01b0316808352908790526040909120549091506140419082906109fb565b61404b9085615c74565b935050808061405990615cf9565b915050613fe5565b505092915050565b6000806140a7606b60009081526020527f2dc7a963308417ad45132da282495eb244f38a7db03940a4d808be607669c622546001600160a01b031690565b6001600160a01b031663b0411f466040518163ffffffff1660e01b8152600401604080518083038186803b1580156140de57600080fd5b505afa1580156140f2573d6000803e3d6000fd5b505050506040513d601f19601f820116820180604052508101906141169190615872565b5090506014546017546141299190615cac565b6001600160a01b0390911660009081526012602052604090205411905090565b60408051600080825260208201928390529051909161416b91600f91906155d2565b506040805160008152602081019182905251614189916010916155d2565b5060408051600081526020810191829052516141a7916011916155d2565b5060005b80845111156146c45760008482815181106141d657634e487b7160e01b600052603260045260246000fd5b60200260200101519050600060096000836001600160a01b03166001600160a01b03168152602001908152602001600020905061421281614fd2565b1561467a576011805460018101825560009182527f31ecc21a745e3968a04e9570e4425bc18fa8019c68028196b546d1669c200c680180547fffffffffffffffffffffffff0000000000000000000000000000000000000000166001600160a01b0385161790555b60048201548110156143b25760008260040182815481106142ab57634e487b7160e01b600052603260045260246000fd5b60009182526020808320909101546001600160a01b0316808352600e90915260409091206002810154919250904314614367576001600160a01b0382166000818152600586016020526040812054600180850191909155818455436002850155600f805491820181559091527f8d1108e10bcb7c27dddfc02ed9d693a074039d026cf4ea4240b40f7d581ac8020180547fffffffffffffffffffffffff000000000000000000000000000000000000000016909117905561439d565b6001600160a01b038216600090815260058501602052604081205460018301805491929091614397908490615c74565b90915550505b505080806143aa90615cf9565b91505061427a565b5060005b60018201548110156146785760008260010182815481106143e757634e487b7160e01b600052603260045260246000fd5b60009182526020808320909101546001600160a01b0316808352600e9091526040822090925090614449606660009081526020527f422cccb7cea5c0e46f340bb7b21b81debac329f72e31669c20ff0f3a05cc2b5b546001600160a01b031690565b6001600160a01b03848116600081815260028901602090815260408083205460038c01909252918290205491517fe695fa6800000000000000000000000000000000000000000000000000000000815260048101919091526024810192909252604482015291169063e695fa68906064016040805180830381600087803b1580156144d357600080fd5b505af11580156144e7573d6000803e3d6000fd5b505050506040513d601f19601f8201168201806040525081019061450b9190615aef565b509050614549606660009081526020527f422cccb7cea5c0e46f340bb7b21b81debac329f72e31669c20ff0f3a05cc2b5b546001600160a01b031690565b6040517f2a6a897b0000000000000000000000000000000000000000000000000000000081526001600160a01b038581166004830152602482018490529190911690632a6a897b90604401600060405180830381600087803b1580156145ae57600080fd5b505af11580156145c2573d6000803e3d6000fd5b505050504382600201541461464857600060018381018290558284554360028501556010805491820181559091527f1b6847dc741a1b0cd08d278845f9d819d87b734759afb55fe2de5cb82a9ae6720180547fffffffffffffffffffffffff0000000000000000000000000000000000000000166001600160a01b038516179055614662565b8082600001600082825461465c9190615c74565b90915550505b505050808061467090615cf9565b9150506143b6565b505b6001600160a01b038216600090815260136020526040902085156146ae576146a181612cb3565b6146ab9086615c74565b94505b50505080806146bc90615cf9565b9150506141ab565b5092915050565b6000805b600f5481101561479a576000600f82815481106146fc57634e487b7160e01b600052603260045260246000fd5b60009182526020808320909101546001600160a01b0316808352600e90915260409091208054600182015492935090911115614785578054600182015460009161474591615ccb565b9050614751838261500a565b61475b9086615c74565b6001600160a01b0384166000908152600e6020526040812081815560018101829055600201559450505b5050808061479290615cf9565b9150506146cf565b50613218600f600061564f565b6000805b601054811015614873576000601082815481106147d857634e487b7160e01b600052603260045260246000fd5b60009182526020808320909101546001600160a01b0316808352600e9091526040909120600181015481549293509091111561485e5761482b82826001015483600001546148269190615ccb565b61514d565b6148359085615c74565b6001600160a01b0383166000908152600e60205260408120818155600181018290556002015593505b5050808061486b90615cf9565b9150506147ab565b506132186010600061564f565b6000611e238360040184600501846152c5565b6000611e2383600101846002018560030185615349565b600181015460005b8082111561495f5760008360010182815481106148df57634e487b7160e01b600052603260045260246000fd5b60009182526020808320909101546001600160a01b0316808352600287018252604080842054600b9093528320805491945091929061491f908490615ccb565b90915550506001600160a01b031660009081526002840160209081526040808320839055600386019091528120558061495781615cf9565b9150506148b2565b5050600481015460005b80821115614a3b57600083600401828154811061499657634e487b7160e01b600052603260045260246000fd5b60009182526020808320909101546001600160a01b0316808352600587018252604080842054600c909352832080549194509192906149d6908490615ccb565b90915550506001600160a01b03166000908152600584016020908152604080832083905560068601909152902080547fffffffffffffffffffffffffffffffffffffffffffffffffffffffffffffff0016905580614a3381615cf9565b915050614969565b50614a4a60018301600061564f565b6109f760048301600061564f565b6000806000614a6785856153d8565b509050600080876001600160a01b0316630902f1ac6040518163ffffffff1660e01b815260040160606040518083038186803b158015614aa657600080fd5b505afa158015614aba573d6000803e3d6000fd5b505050506040513d601f19601f82011682018060405250810190614ade9190615a2b565b506dffffffffffffffffffffffffffff1691506dffffffffffffffffffffffffffff169150826001600160a01b0316876001600160a01b031614614b23578082614b26565b81815b90999098509650505050505050565b6000808411614bac5760405162461bcd60e51b815260206004820152602b60248201527f556e697377617056324c6962726172793a20494e53554646494349454e545f4960448201527f4e5055545f414d4f554e540000000000000000000000000000000000000000006064820152608401610bd6565b600083118015614bbc5750600082115b614c2e5760405162461bcd60e51b815260206004820152602860248201527f556e697377617056324c6962726172793a20494e53554646494349454e545f4c60448201527f49515549444954590000000000000000000000000000000000000000000000006064820152608401610bd6565b6000614c3c856103e5615cac565b90506000614c4a8483615cac565b9050600082614c5b876103e8615cac565b614c659190615c74565b9050614c718183615c8c565b979650505050505050565b6001600160a01b038216600090815260068401602052604090205460ff16614ce757600483018054600181018255600091825260209091200180547fffffffffffffffffffffffff0000000000000000000000000000000000000000166001600160a01b0384161790555b6001600160a01b038216600090815260058401602052604081208054839290614d11908490615c74565b9091555050505050565b600080614d29836000614893565b90506000614d38846000614880565b905060075482614d489190615cac565b6064600754614d579190615ccb565b614d619083615cac565b1015949350505050565b600080614da9606660009081526020527f422cccb7cea5c0e46f340bb7b21b81debac329f72e31669c20ff0f3a05cc2b5b546001600160a01b031690565b6040517f14189db20000000000000000000000000000000000000000000000000000000081526001600160a01b03878116600483015291909116906314189db29060240160206040518083038186803b158015614e0557600080fd5b505afa158015614e19573d6000803e3d6000fd5b505050506040513d601f19601f82011682018060405250810190614e3d9190615aa8565b6001600160a01b03861660009081526020859052604081205491925090614e648387615cac565b614e6e9190615c8c565b9050612f6c86826109fb565b6000808411614ef15760405162461bcd60e51b815260206004820152602c60248201527f556e697377617056324c6962726172793a20494e53554646494349454e545f4f60448201527f55545055545f414d4f554e5400000000000000000000000000000000000000006064820152608401610bd6565b600083118015614f015750600082115b614f735760405162461bcd60e51b815260206004820152602860248201527f556e697377617056324c6962726172793a20494e53554646494349454e545f4c60448201527f49515549444954590000000000000000000000000000000000000000000000006064820152608401610bd6565b6000614f7f8585615cac565b614f8b906103e8615cac565b905060006103e5614f9c8786615ccb565b614fa69190615ccb565b9050614fb28183615c8c565b612f6c906001615c74565b614fcb8383836004546138ae565b5050439055565b600080614fe0836001614893565b90506000614fef846001614880565b905081600854614fff9190615cac565b614d61826064615cac565b60007f00000000000000000000000000000000000000000000000000000000000000006001600160a01b0316836001600160a01b0316141561504d575080610b5b565b6001600160a01b0383166000908152600260205260408120906150a1606760009081526020527f682158d08466d11c566d5712d4396197fdd67e65be71d83c97ef719ec468867b546001600160a01b031690565b6001600160a01b031663808f671385600085600201866004016040518563ffffffff1660e01b81526004016150d99493929190615bd0565b600060405180830381600087803b1580156150f357600080fd5b505af1158015615107573d6000803e3d6000fd5b505050506040513d6000823e601f3d9081017fffffffffffffffffffffffffffffffffffffffffffffffffffffffffffffffe0168201604052610b19919081019061597c565b60007f00000000000000000000000000000000000000000000000000000000000000006001600160a01b0316836001600160a01b03161415615190575080610b5b565b6001600160a01b0383166000908152600260205260408120906151e4606760009081526020527f682158d08466d11c566d5712d4396197fdd67e65be71d83c97ef719ec468867b546001600160a01b031690565b6001600160a01b0316634a2975998560001985600301866005016040518563ffffffff1660e01b815260040161521d9493929190615bd0565b600060405180830381600087803b15801561523757600080fd5b505af115801561524b573d6000803e3d6000fd5b505050506040513d6000823e601f3d9081017fffffffffffffffffffffffffffffffffffffffffffffffffffffffffffffffe0168201604052615291919081019061597c565b9050806000815181106152b457634e487b7160e01b600052603260045260246000fd5b602002602001015192505050610b5b565b8254600090815b81811015611ce55760008682815481106152f657634e487b7160e01b600052603260045260246000fd5b60009182526020808320909101546001600160a01b03168083529088905260409091205490915061532990829087611d6c565b6153339085615c74565b935050808061534190615cf9565b9150506152cc565b8354600090815b818110156153ce57600087828154811061537a57634e487b7160e01b600052603260045260246000fd5b60009182526020808320909101546001600160a01b0316808352908990526040909120549091506153ae90829088886154c2565b6153b89085615c74565b93505080806153c690615cf9565b915050615350565b5050949350505050565b600080826001600160a01b0316846001600160a01b0316141561543d5760405162461bcd60e51b815260206004820152601260248201527f4964656e746963616c20616464726573732100000000000000000000000000006044820152606401610bd6565b826001600160a01b0316846001600160a01b03161061545d578284615460565b83835b90925090506001600160a01b0382166154bb5760405162461bcd60e51b815260206004820152600d60248201527f5a65726f206164647265737321000000000000000000000000000000000000006044820152606401610bd6565b9250929050565b600080615500606660009081526020527f422cccb7cea5c0e46f340bb7b21b81debac329f72e31669c20ff0f3a05cc2b5b546001600160a01b031690565b6040517f14189db20000000000000000000000000000000000000000000000000000000081526001600160a01b03888116600483015291909116906314189db29060240160206040518083038186803b15801561555c57600080fd5b505afa158015615570573d6000803e3d6000fd5b505050506040513d601f19601f820116820180604052508101906155949190615aa8565b6001600160a01b038716600090815260208690526040812054919250906155bb8388615cac565b6155c59190615c8c565b9050614c71878286611d6c565b82805482825590600052602060002090810192821561563f579160200282015b8281111561563f57825182547fffffffffffffffffffffffff0000000000000000000000000000000000000000166001600160a01b039091161782556020909201916001909101906155f2565b5061564b929150615670565b5090565b508054600082559060005260206000209081019061566d9190615670565b50565b5b8082111561564b5760008155600101615671565b600082601f830112615695578081fd5b813560206156aa6156a583615c50565b615c01565b80838252828201915082860187848660051b89010111156156c9578586fd5b855b858110156156f05781356156de81615d40565b845292840192908401906001016156cb565b5090979650505050505050565b80516dffffffffffffffffffffffffffff81168114610ec557600080fd5b60006020828403121561572c578081fd5b8135611e2381615d40565b600060208284031215615748578081fd5b8151611e2381615d40565b600080600080600060a0868803121561576a578081fd5b853561577581615d40565b9450602086013561578581615d40565b9350604086013561579581615d40565b94979396509394606081013594506080013592915050565b6000806000606084860312156157c1578283fd5b83356157cc81615d40565b925060208401356157dc81615d40565b929592945050506040919091013590565b600080600080600060a08688031215615804578081fd5b853561580f81615d40565b9450602086013561581f81615d40565b935060408601359250606086013561583681615d40565b949793965091946080013592915050565b60008060408385031215615859578182fd5b823561586481615d40565b946020939093013593505050565b60008060408385031215615884578182fd5b825161588f81615d40565b6020939093015192949293505050565b6000806000606084860312156158b3578283fd5b83356158be81615d40565b92506020840135915060408401356158d581615d55565b809150509250925092565b6000602082840312156158f1578081fd5b813567ffffffffffffffff811115615907578182fd5b61591384828501615685565b949350505050565b6000806040838503121561592d578182fd5b823567ffffffffffffffff80821115615944578384fd5b61595086838701615685565b93506020850135915080821115615965578283fd5b5061597285828601615685565b9150509250929050565b6000602080838503121561598e578182fd5b825167ffffffffffffffff8111156159a4578283fd5b8301601f810185136159b4578283fd5b80516159c26156a582615c50565b80828252848201915084840188868560051b87010111156159e1578687fd5b8694505b83851015615a035780518352600194909401939185019185016159e5565b50979650505050505050565b600060208284031215615a20578081fd5b8151611e2381615d55565b600080600060608486031215615a3f578081fd5b615a48846156fd565b9250615a56602085016156fd565b9150604084015163ffffffff811681146158d5578182fd5b600060208284031215615a7f578081fd5b813561ffff81168114611e23578182fd5b600060208284031215615aa1578081fd5b5035919050565b600060208284031215615ab9578081fd5b5051919050565b60008060408385031215615ad2578182fd5b823591506020830135615ae481615d40565b809150509250929050565b60008060408385031215615b01578182fd5b505080516020909101519092909150565b6000815480845260208085019450838352808320835b83811015615b4d5781546001600160a01b031687529582019560019182019101615b28565b509495945050505050565b604080825283519082018190526000906020906060840190828701845b82811015615b9c5781516001600160a01b0316845260208401935090840190600101615b75565b50505083810382850152845180825285830191830190845b818110156156f057835183529284019291840191600101615bb4565b600085825284602083015260806040830152615bef6080830185615b12565b8281036060840152614c718185615b12565b604051601f82017fffffffffffffffffffffffffffffffffffffffffffffffffffffffffffffffe016810167ffffffffffffffff81118282101715615c4857615c48615d2a565b604052919050565b600067ffffffffffffffff821115615c6a57615c6a615d2a565b5060051b60200190565b60008219821115615c8757615c87615d14565b500190565b600082615ca757634e487b7160e01b81526012600452602481fd5b500490565b6000816000190483118215151615615cc657615cc6615d14565b500290565b600082821015615cdd57615cdd615d14565b500390565b600081615cf157615cf1615d14565b506000190190565b6000600019821415615d0d57615d0d615d14565b5060010190565b634e487b7160e01b600052601160045260246000fd5b634e487b7160e01b600052604160045260246000fd5b6001600160a01b038116811461566d57600080fd5b801515811461566d57600080fdfea26469706673582212209e3d0eba61c61fda6d9fcdac74f657e2a605392ce3b107c3d4ac503de383c60064736f6c63430008030033",
  "linkReferences": {},
  "deployedLinkReferences": {}
}