{
  "_format": "hh-sol-artifact-1",
  "contractName": "CrossMarginTradingTest",
  "sourceName": "contracts/tests/CrossMarginTradingTest.sol",
  "abi": [
    {
      "inputs": [
        {
          "internalType": "address",
          "name": "_roles",
          "type": "address"
        }
      ],
      "stateMutability": "nonpayable",
      "type": "constructor"
    },
    {
      "anonymous": false,
      "inputs": [
        {
          "indexed": false,
          "internalType": "address",
          "name": "account",
          "type": "address"
        }
      ],
      "name": "AccountLiquidated",
      "type": "event"
    },
    {
      "anonymous": false,
      "inputs": [
        {
          "indexed": false,
          "internalType": "uint256",
          "name": "amount",
          "type": "uint256"
        }
      ],
      "name": "LiquidationShortfall",
      "type": "event"
    },
    {
      "anonymous": false,
      "inputs": [
        {
          "indexed": true,
          "internalType": "address",
          "name": "previousOwner",
          "type": "address"
        },
        {
          "indexed": true,
          "internalType": "address",
          "name": "newOwner",
          "type": "address"
        }
      ],
      "name": "OwnershipTransferred",
      "type": "event"
    },
    {
      "inputs": [],
      "name": "ADMIN",
      "outputs": [
        {
          "internalType": "uint16",
          "name": "",
          "type": "uint16"
        }
      ],
      "stateMutability": "view",
      "type": "function"
    },
    {
      "inputs": [],
      "name": "AUTHORIZED_FUND_TRADER",
      "outputs": [
        {
          "internalType": "uint16",
          "name": "",
          "type": "uint16"
        }
      ],
      "stateMutability": "view",
      "type": "function"
    },
    {
      "inputs": [],
      "name": "BORROWER",
      "outputs": [
        {
          "internalType": "uint16",
          "name": "",
          "type": "uint16"
        }
      ],
      "stateMutability": "view",
      "type": "function"
    },
    {
      "inputs": [],
      "name": "CONFIDENT_UPDATE_RATE_PERMIL",
      "outputs": [
        {
          "internalType": "uint256",
          "name": "",
          "type": "uint256"
        }
      ],
      "stateMutability": "view",
      "type": "function"
    },
    {
      "inputs": [],
      "name": "FEE_CONTROLLER",
      "outputs": [
        {
          "internalType": "uint16",
          "name": "",
          "type": "uint16"
        }
      ],
      "stateMutability": "view",
      "type": "function"
    },
    {
      "inputs": [],
      "name": "FEE_SOURCE",
      "outputs": [
        {
          "internalType": "uint16",
          "name": "",
          "type": "uint16"
        }
      ],
      "stateMutability": "view",
      "type": "function"
    },
    {
      "inputs": [],
      "name": "FUND",
      "outputs": [
        {
          "internalType": "uint16",
          "name": "",
          "type": "uint16"
        }
      ],
      "stateMutability": "view",
      "type": "function"
    },
    {
      "inputs": [],
      "name": "INCENTIVE_DISTRIBUTION",
      "outputs": [
        {
          "internalType": "uint16",
          "name": "",
          "type": "uint16"
        }
      ],
      "stateMutability": "view",
      "type": "function"
    },
    {
      "inputs": [],
      "name": "INCENTIVE_REPORTER",
      "outputs": [
        {
          "internalType": "uint16",
          "name": "",
          "type": "uint16"
        }
      ],
      "stateMutability": "view",
      "type": "function"
    },
    {
      "inputs": [],
      "name": "LENDING",
      "outputs": [
        {
          "internalType": "uint16",
          "name": "",
          "type": "uint16"
        }
      ],
      "stateMutability": "view",
      "type": "function"
    },
    {
      "inputs": [],
      "name": "LIQUIDATOR",
      "outputs": [
        {
          "internalType": "uint16",
          "name": "",
          "type": "uint16"
        }
      ],
      "stateMutability": "view",
      "type": "function"
    },
    {
      "inputs": [],
      "name": "MAINTAINER_CUT_PERCENT",
      "outputs": [
        {
          "internalType": "uint256",
          "name": "",
          "type": "uint256"
        }
      ],
      "stateMutability": "view",
      "type": "function"
    },
    {
      "inputs": [],
      "name": "MARGIN_CALLER",
      "outputs": [
        {
          "internalType": "uint16",
          "name": "",
          "type": "uint16"
        }
      ],
      "stateMutability": "view",
      "type": "function"
    },
    {
      "inputs": [],
      "name": "MARGIN_TRADER",
      "outputs": [
        {
          "internalType": "uint16",
          "name": "",
          "type": "uint16"
        }
      ],
      "stateMutability": "view",
      "type": "function"
    },
    {
      "inputs": [],
      "name": "MARGIN_TRADING",
      "outputs": [
        {
          "internalType": "uint16",
          "name": "",
          "type": "uint16"
        }
      ],
      "stateMutability": "view",
      "type": "function"
    },
    {
      "inputs": [],
      "name": "PRICE_CONTROLLER",
      "outputs": [
        {
          "internalType": "uint16",
          "name": "",
          "type": "uint16"
        }
      ],
      "stateMutability": "view",
      "type": "function"
    },
    {
      "inputs": [],
      "name": "ROUTER",
      "outputs": [
        {
          "internalType": "uint16",
          "name": "",
          "type": "uint16"
        }
      ],
      "stateMutability": "view",
      "type": "function"
    },
    {
      "inputs": [],
      "name": "STAKE_PENALIZER",
      "outputs": [
        {
          "internalType": "uint16",
          "name": "",
          "type": "uint16"
        }
      ],
      "stateMutability": "view",
      "type": "function"
    },
    {
      "inputs": [],
      "name": "TEPID_UPDATE_RATE_PERMIL",
      "outputs": [
        {
          "internalType": "uint256",
          "name": "",
          "type": "uint256"
        }
      ],
      "stateMutability": "view",
      "type": "function"
    },
    {
      "inputs": [],
      "name": "TOKEN_ACTIVATOR",
      "outputs": [
        {
          "internalType": "uint16",
          "name": "",
          "type": "uint16"
        }
      ],
      "stateMutability": "view",
      "type": "function"
    },
    {
      "inputs": [],
      "name": "TOKEN_ADMIN",
      "outputs": [
        {
          "internalType": "uint16",
          "name": "",
          "type": "uint16"
        }
      ],
      "stateMutability": "view",
      "type": "function"
    },
    {
      "inputs": [],
      "name": "UNI",
      "outputs": [
        {
          "internalType": "address",
          "name": "",
          "type": "address"
        }
      ],
      "stateMutability": "view",
      "type": "function"
    },
    {
      "inputs": [],
      "name": "WITHDRAWER",
      "outputs": [
        {
          "internalType": "uint16",
          "name": "",
          "type": "uint16"
        }
      ],
      "stateMutability": "view",
      "type": "function"
    },
    {
      "inputs": [],
      "name": "avgLiquidationPerBlock",
      "outputs": [
        {
          "internalType": "uint256",
          "name": "",
          "type": "uint256"
        }
      ],
      "stateMutability": "view",
      "type": "function"
    },
    {
      "inputs": [],
      "name": "coolingOffPeriod",
      "outputs": [
        {
          "internalType": "uint256",
          "name": "",
          "type": "uint256"
        }
      ],
      "stateMutability": "view",
      "type": "function"
    },
    {
      "inputs": [
        {
          "internalType": "address[]",
          "name": "liquidatedAccounts",
          "type": "address[]"
        }
      ],
      "name": "disburseLiqStakeAttacks",
      "outputs": [],
      "stateMutability": "nonpayable",
      "type": "function"
    },
    {
      "inputs": [],
      "name": "failureThreshold",
      "outputs": [
        {
          "internalType": "uint256",
          "name": "",
          "type": "uint256"
        }
      ],
      "stateMutability": "view",
      "type": "function"
    },
    {
      "inputs": [
        {
          "internalType": "address",
          "name": "token",
          "type": "address"
        },
        {
          "internalType": "uint256",
          "name": "inAmount",
          "type": "uint256"
        }
      ],
      "name": "forcePriceUpdate",
      "outputs": [
        {
          "internalType": "uint256",
          "name": "",
          "type": "uint256"
        }
      ],
      "stateMutability": "nonpayable",
      "type": "function"
    },
    {
      "inputs": [
        {
          "internalType": "address",
          "name": "trader",
          "type": "address"
        }
      ],
      "name": "getBorrowAmounts",
      "outputs": [
        {
          "internalType": "address[]",
          "name": "borrowTokens",
          "type": "address[]"
        },
        {
          "internalType": "uint256[]",
          "name": "borrowAmounts",
          "type": "uint256[]"
        }
      ],
      "stateMutability": "view",
      "type": "function"
    },
    {
      "inputs": [
        {
          "internalType": "address",
          "name": "trader",
          "type": "address"
        }
      ],
      "name": "getHoldingAmounts",
      "outputs": [
        {
          "internalType": "address[]",
          "name": "holdingTokens",
          "type": "address[]"
        },
        {
          "internalType": "uint256[]",
          "name": "holdingAmounts",
          "type": "uint256[]"
        }
      ],
      "stateMutability": "view",
      "type": "function"
    },
    {
      "inputs": [
        {
          "internalType": "address",
          "name": "trader",
          "type": "address"
        }
      ],
      "name": "getLastDepositBlock",
      "outputs": [
        {
          "internalType": "uint256",
          "name": "",
          "type": "uint256"
        }
      ],
      "stateMutability": "view",
      "type": "function"
    },
    {
      "inputs": [],
      "name": "leverage",
      "outputs": [
        {
          "internalType": "uint256",
          "name": "",
          "type": "uint256"
        }
      ],
      "stateMutability": "view",
      "type": "function"
    },
    {
      "inputs": [],
      "name": "liqStakeAttackWindow",
      "outputs": [
        {
          "internalType": "uint256",
          "name": "",
          "type": "uint256"
        }
      ],
      "stateMutability": "view",
      "type": "function"
    },
    {
      "inputs": [
        {
          "internalType": "address[]",
          "name": "liquidationCandidates",
          "type": "address[]"
        }
      ],
      "name": "liquidate",
      "outputs": [
        {
          "internalType": "uint256",
          "name": "maintainerCut",
          "type": "uint256"
        }
      ],
      "stateMutability": "nonpayable",
      "type": "function"
    },
    {
      "inputs": [],
      "name": "liquidationThresholdPercent",
      "outputs": [
        {
          "internalType": "uint256",
          "name": "",
          "type": "uint256"
        }
      ],
      "stateMutability": "view",
      "type": "function"
    },
    {
      "inputs": [
        {
          "internalType": "uint16",
          "name": "",
          "type": "uint16"
        }
      ],
      "name": "mainCharacterCache",
      "outputs": [
        {
          "internalType": "address",
          "name": "",
          "type": "address"
        }
      ],
      "stateMutability": "view",
      "type": "function"
    },
    {
      "inputs": [
        {
          "internalType": "address",
          "name": "",
          "type": "address"
        }
      ],
      "name": "maintenanceFailures",
      "outputs": [
        {
          "internalType": "uint256",
          "name": "",
          "type": "uint256"
        }
      ],
      "stateMutability": "view",
      "type": "function"
    },
    {
      "inputs": [],
      "name": "owner",
      "outputs": [
        {
          "internalType": "address",
          "name": "",
          "type": "address"
        }
      ],
      "stateMutability": "view",
      "type": "function"
    },
    {
      "inputs": [],
      "name": "peg",
      "outputs": [
        {
          "internalType": "address",
          "name": "",
          "type": "address"
        }
      ],
      "stateMutability": "view",
      "type": "function"
    },
    {
      "inputs": [],
      "name": "priceUpdateWindow",
      "outputs": [
        {
          "internalType": "uint16",
          "name": "",
          "type": "uint16"
        }
      ],
      "stateMutability": "view",
      "type": "function"
    },
    {
      "inputs": [
        {
          "internalType": "address",
          "name": "trader",
          "type": "address"
        },
        {
          "internalType": "address",
          "name": "borrowToken",
          "type": "address"
        },
        {
          "internalType": "uint256",
          "name": "borrowAmount",
          "type": "uint256"
        }
      ],
      "name": "registerBorrow",
      "outputs": [],
      "stateMutability": "nonpayable",
      "type": "function"
    },
    {
      "inputs": [
        {
          "internalType": "address",
          "name": "trader",
          "type": "address"
        },
        {
          "internalType": "address",
          "name": "token",
          "type": "address"
        },
        {
          "internalType": "uint256",
          "name": "depositAmount",
          "type": "uint256"
        }
      ],
      "name": "registerDeposit",
      "outputs": [
        {
          "internalType": "uint256",
          "name": "extinguishableDebt",
          "type": "uint256"
        }
      ],
      "stateMutability": "nonpayable",
      "type": "function"
    },
    {
      "inputs": [
        {
          "internalType": "address",
          "name": "trader",
          "type": "address"
        }
      ],
      "name": "registerLiquidation",
      "outputs": [],
      "stateMutability": "nonpayable",
      "type": "function"
    },
    {
      "inputs": [
        {
          "internalType": "address",
          "name": "trader",
          "type": "address"
        },
        {
          "internalType": "address",
          "name": "tokenFrom",
          "type": "address"
        },
        {
          "internalType": "address",
          "name": "tokenTo",
          "type": "address"
        },
        {
          "internalType": "uint256",
          "name": "inAmount",
          "type": "uint256"
        },
        {
          "internalType": "uint256",
          "name": "outAmount",
          "type": "uint256"
        }
      ],
      "name": "registerTradeAndBorrow",
      "outputs": [
        {
          "internalType": "uint256",
          "name": "extinguishableDebt",
          "type": "uint256"
        },
        {
          "internalType": "uint256",
          "name": "borrowAmount",
          "type": "uint256"
        }
      ],
      "stateMutability": "nonpayable",
      "type": "function"
    },
    {
      "inputs": [
        {
          "internalType": "address",
          "name": "trader",
          "type": "address"
        },
        {
          "internalType": "address",
          "name": "withdrawToken",
          "type": "address"
        },
        {
          "internalType": "uint256",
          "name": "withdrawAmount",
          "type": "uint256"
        }
      ],
      "name": "registerWithdrawal",
      "outputs": [],
      "stateMutability": "nonpayable",
      "type": "function"
    },
    {
      "inputs": [],
      "name": "renounceOwnership",
      "outputs": [],
      "stateMutability": "nonpayable",
      "type": "function"
    },
    {
      "inputs": [
        {
          "internalType": "address",
          "name": "",
          "type": "address"
        },
        {
          "internalType": "uint16",
          "name": "",
          "type": "uint16"
        }
      ],
      "name": "roleCache",
      "outputs": [
        {
          "internalType": "bool",
          "name": "",
          "type": "bool"
        }
      ],
      "stateMutability": "view",
      "type": "function"
    },
    {
      "inputs": [],
      "name": "roles",
      "outputs": [
        {
          "internalType": "contract Roles",
          "name": "",
          "type": "address"
        }
      ],
      "stateMutability": "view",
      "type": "function"
    },
    {
      "inputs": [
        {
          "internalType": "uint256",
          "name": "rate",
          "type": "uint256"
        }
      ],
      "name": "setConfidentUpdateRate",
      "outputs": [],
      "stateMutability": "nonpayable",
      "type": "function"
    },
    {
      "inputs": [
        {
          "internalType": "uint256",
          "name": "blocks",
          "type": "uint256"
        }
      ],
      "name": "setCoolingOffPeriod",
      "outputs": [],
      "stateMutability": "nonpayable",
      "type": "function"
    },
    {
      "inputs": [
        {
          "internalType": "uint256",
          "name": "threshFactor",
          "type": "uint256"
        }
      ],
      "name": "setFailureThreshold",
      "outputs": [],
      "stateMutability": "nonpayable",
      "type": "function"
    },
    {
      "inputs": [
        {
          "internalType": "uint256",
          "name": "_leverage",
          "type": "uint256"
        }
      ],
      "name": "setLeverage",
      "outputs": [],
      "stateMutability": "nonpayable",
      "type": "function"
    },
    {
      "inputs": [
        {
          "internalType": "uint256",
          "name": "window",
          "type": "uint256"
        }
      ],
      "name": "setLiqStakeAttackWindow",
      "outputs": [],
      "stateMutability": "nonpayable",
      "type": "function"
    },
    {
      "inputs": [
        {
          "internalType": "address[]",
          "name": "path",
          "type": "address[]"
        }
      ],
      "name": "setLiquidationPath",
      "outputs": [],
      "stateMutability": "nonpayable",
      "type": "function"
    },
    {
      "inputs": [
        {
          "internalType": "uint256",
          "name": "threshold",
          "type": "uint256"
        }
      ],
      "name": "setLiquidationThresholdPercent",
      "outputs": [],
      "stateMutability": "nonpayable",
      "type": "function"
    },
    {
      "inputs": [
        {
          "internalType": "uint256",
          "name": "cut",
          "type": "uint256"
        }
      ],
      "name": "setMaintainerCutPercent",
      "outputs": [],
      "stateMutability": "nonpayable",
      "type": "function"
    },
    {
      "inputs": [
        {
          "internalType": "uint16",
          "name": "window",
          "type": "uint16"
        }
      ],
      "name": "setPriceUpdateWindow",
      "outputs": [],
      "stateMutability": "nonpayable",
      "type": "function"
    },
    {
      "inputs": [
        {
          "internalType": "uint256",
          "name": "rate",
          "type": "uint256"
        }
      ],
      "name": "setTepidUpdateRate",
      "outputs": [],
      "stateMutability": "nonpayable",
      "type": "function"
    },
    {
      "inputs": [
        {
          "internalType": "address",
          "name": "token",
          "type": "address"
        },
        {
          "internalType": "uint256",
          "name": "cap",
          "type": "uint256"
        }
      ],
      "name": "setTokenCap",
      "outputs": [],
      "stateMutability": "nonpayable",
      "type": "function"
    },
    {
      "inputs": [
        {
          "internalType": "uint256",
          "name": "amount",
          "type": "uint256"
        }
      ],
      "name": "setUpdateMaxPegAmount",
      "outputs": [],
      "stateMutability": "nonpayable",
      "type": "function"
    },
    {
      "inputs": [
        {
          "internalType": "uint256",
          "name": "amount",
          "type": "uint256"
        }
      ],
      "name": "setUpdateMinPegAmount",
      "outputs": [],
      "stateMutability": "nonpayable",
      "type": "function"
    },
    {
      "inputs": [
        {
          "internalType": "address",
          "name": "",
          "type": "address"
        }
      ],
      "name": "stakeAttackRecords",
      "outputs": [
        {
          "internalType": "uint256",
          "name": "blockNum",
          "type": "uint256"
        },
        {
          "internalType": "address",
          "name": "loser",
          "type": "address"
        },
        {
          "internalType": "uint256",
          "name": "amount",
          "type": "uint256"
        },
        {
          "internalType": "address",
          "name": "stakeAttacker",
          "type": "address"
        }
      ],
      "stateMutability": "view",
      "type": "function"
    },
    {
      "inputs": [
        {
          "internalType": "address",
          "name": "",
          "type": "address"
        }
      ],
      "name": "tokenCaps",
      "outputs": [
        {
          "internalType": "uint256",
          "name": "",
          "type": "uint256"
        }
      ],
      "stateMutability": "view",
      "type": "function"
    },
    {
      "inputs": [
        {
          "internalType": "address",
          "name": "",
          "type": "address"
        }
      ],
      "name": "tokenPrices",
      "outputs": [
        {
          "internalType": "uint256",
          "name": "blockLastUpdated",
          "type": "uint256"
        },
        {
          "internalType": "uint256",
          "name": "tokenPer1k",
          "type": "uint256"
        }
      ],
      "stateMutability": "view",
      "type": "function"
    },
    {
      "inputs": [
        {
          "internalType": "address",
          "name": "",
          "type": "address"
        }
      ],
      "name": "totalLong",
      "outputs": [
        {
          "internalType": "uint256",
          "name": "",
          "type": "uint256"
        }
      ],
      "stateMutability": "view",
      "type": "function"
    },
    {
      "inputs": [
        {
          "internalType": "address",
          "name": "",
          "type": "address"
        }
      ],
      "name": "totalShort",
      "outputs": [
        {
          "internalType": "uint256",
          "name": "",
          "type": "uint256"
        }
      ],
      "stateMutability": "view",
      "type": "function"
    },
    {
      "inputs": [
        {
          "internalType": "address",
          "name": "newOwner",
          "type": "address"
        }
      ],
      "name": "transferOwnership",
      "outputs": [],
      "stateMutability": "nonpayable",
      "type": "function"
    },
    {
      "inputs": [
        {
          "internalType": "uint16",
          "name": "role",
          "type": "uint16"
        }
      ],
      "name": "updateMainCharacterCache",
      "outputs": [],
      "stateMutability": "nonpayable",
      "type": "function"
    },
    {
      "inputs": [
        {
          "internalType": "uint16",
          "name": "role",
          "type": "uint16"
        },
        {
          "internalType": "address",
          "name": "contr",
          "type": "address"
        }
      ],
      "name": "updateRoleCache",
      "outputs": [],
      "stateMutability": "nonpayable",
      "type": "function"
    },
    {
      "inputs": [
        {
          "internalType": "address",
          "name": "trader",
          "type": "address"
        }
      ],
      "name": "viewLoanInPeg",
      "outputs": [
        {
          "internalType": "uint256",
          "name": "amount",
          "type": "uint256"
        }
      ],
      "stateMutability": "view",
      "type": "function"
    }
  ],
  "bytecode": "0x60806040526006805461ffff19166008908117909155601460075561028a905561c3506009556103e8600a908155601881905560056019819055601a55601b553480156200004c57600080fd5b5060405162005bb638038062005bb68339810160408190526200006f9162000110565b60108181816000620000806200010c565b600080546001600160a01b0319166001600160a01b0383169081178255604051929350917f8be0079c531659141344cd1fd0a4f28419497f9722a3daafe3b4186f6b6457e0908290a350600180546001600160a01b039283166001600160a01b031991821617909155600480549390921692169190911790555050606e600c5550600060115562000140565b3390565b60006020828403121562000122578081fd5b81516001600160a01b038116811462000139578182fd5b9392505050565b615a6680620001506000396000f3fe608060405234801561001057600080fd5b50600436106104725760003560e01c80636cd5cd6011610250578063b448165211610150578063d1efebfe116100c8578063e0f3871f11610097578063f171c6011161007c578063f171c60114610865578063f2fde38b14610878578063f99fd97c1461088b57610472565b8063e0f3871f1461083f578063eac29dd61461085257610472565b8063d1efebfe14610809578063d510c53514610811578063d5d7ed7f14610824578063db2d904d1461082c57610472565b8063c3c9fcd91161011f578063c76139d011610104578063c76139d0146107e6578063cacf8d45146107ee578063d0eb6653146107f657610472565b8063c3c9fcd9146107cb578063c73afac2146107d357610472565b8063b448165214610762578063badb504814610775578063bc44dcbc14610798578063c34316c3146107ab57610472565b80639d01b86c116101e3578063a3718919116101b2578063a94c7c3411610197578063a94c7c341461073f578063a985994b14610747578063a9cc05361461075a57610472565b8063a371891914610719578063a75697a51461072c57610472565b80639d01b86c146106ee5780639dfc0c16146106f6578063a0089159146106fe578063a0098d691461071157610472565b80637d100e841161021f5780637d100e84146106ce57806381ca6600146106d657806383a49c7c146106de5780638da5cb5b146106e657610472565b80636cd5cd601461068d5780636cd7bc4b146106a0578063715018a6146106b357806379575b23146106bb57610472565b80632febaa741161037657806346b88796116102ee57806352a664d9116102bd578063541bcb76116102a2578063541bcb76146106755780635c275a391461067d578063669419841461068557610472565b806352a664d91461065a578063538edb291461066d57610472565b806346b887961461062f57806348fb27b814610637578063498d55eb1461063f5780634aa4aca31461065257610472565b80633500aa0b116103455780633ed456fa1161032a5780633ed456fa146105f35780633ffc17c0146105fb578063409fdb721461060e57610472565b80633500aa0b146105d8578063392f5f64146105eb57610472565b80632febaa74146105ad578063320d2fa0146105b557806332fe7b26146105bd578063333080c0146105c557610472565b80631f1cb62b1161040957806320e8d819116103d85780632a0acc6a116103bd5780632a0acc6a146105955780632c86d98e1461059d5780632fe94def146105a557610472565b806320e8d8191461056f578063232c765b1461058257610472565b80631f1cb62b146105065780631f692a641461051b578063204120bc1461053b57806320c271261461055c57610472565b806319fa00e11161044557806319fa00e1146104d05780631b669507146104e35780631bc5d81d146104eb5780631d47e4a3146104f357610472565b8063065d570f1461047757806307c201751461049557806310d58434146104aa57806316317e7e146104bd575b600080fd5b61047f61089e565b60405161048c9190615774565b60405180910390f35b6104a86104a3366004614fc3565b6108a3565b005b6104a86104b8366004615155565b61096d565b6104a86104cb366004615155565b6109ee565b6104a86104de366004615155565b610a66565b61047f610ade565b61047f610ae3565b6104a8610501366004614f6b565b610ae8565b61050e610b50565b60405161048c919061521d565b61052e610529366004614e65565b610b6c565b60405161048c91906157ad565b61054e610549366004614e65565b610bae565b60405161048c929190615816565b61052e61056a366004614e65565b610bc7565b6104a861057d36600461511f565b610bd9565b61052e610590366004614f6b565b610cea565b61047f610cff565b61052e610d04565b61047f610d0a565b61052e610d0f565b61052e610d15565b61047f610d1b565b6104a86105d3366004615155565b610d20565b61054e6105e6366004614e9d565b610d98565b61050e6110ac565b61047f6110c8565b6104a8610609366004615155565b6110d2565b61062161061c366004614e65565b61114a565b60405161048c929190615373565b61047f611340565b61047f611345565b6104a861064d366004614ef7565b61134a565b61052e6114d9565b61052e610668366004614ef7565b6114df565b61052e6116a0565b61050e6116a6565b61047f6116be565b61047f6116c3565b6104a861069b366004615105565b6116c8565b6104a86106ae366004614fc3565b6117c7565b6104a8611d69565b6104a86106c9366004615155565b611e4b565b61052e611ec3565b61047f611ec9565b61047f611ece565b61050e611ed3565b61052e611ef0565b61052e611ef6565b6104a861070c366004615105565b611efc565b61047f611fa4565b6104a8610727366004615155565b611fa9565b61052e61073a366004614e65565b612021565b61047f612033565b61052e610755366004614fc3565b612038565b61047f6125fa565b61050e610770366004615105565b6125ff565b610788610783366004614e65565b612627565b60405161048c94939291906157e2565b61052e6107a6366004614e65565b612668565b6107be6107b9366004614f37565b61267a565b60405161048c91906153c9565b61052e61269a565b6104a86107e1366004615155565b6126a0565b61047f612718565b61047f61271d565b6104a8610804366004614ef7565b612722565b61047f6128a1565b61062161081f366004614e65565b6128a6565b61047f612b24565b6104a861083a366004614e65565b612b29565b61052e61084d366004614e65565b612cc9565b61052e610860366004614e65565b612cdb565b6104a8610873366004615155565b612d03565b6104a8610886366004614e65565b612d7b565b6104a8610899366004615155565b612ec8565b600381565b60005b8082511115610969576000601760008484815181106108ee577f4e487b7100000000000000000000000000000000000000000000000000000000600052603260045260246000fd5b602002602001015173ffffffffffffffffffffffffffffffffffffffff1673ffffffffffffffffffffffffffffffffffffffff168152602001908152602001600020905060195481600001546109449190615897565b4311156109565761095481612f40565b505b508061096181615977565b9150506108a6565b5050565b6109756131fd565b73ffffffffffffffffffffffffffffffffffffffff16610993611ed3565b73ffffffffffffffffffffffffffffffffffffffff16146109e9576040517f08c379a00000000000000000000000000000000000000000000000000000000081526004016109e090615628565b60405180910390fd5b601b55565b6109f66131fd565b73ffffffffffffffffffffffffffffffffffffffff16610a14611ed3565b73ffffffffffffffffffffffffffffffffffffffff1614610a61576040517f08c379a00000000000000000000000000000000000000000000000000000000081526004016109e090615628565b600c55565b610a6e6131fd565b73ffffffffffffffffffffffffffffffffffffffff16610a8c611ed3565b73ffffffffffffffffffffffffffffffffffffffff1614610ad9576040517f08c379a00000000000000000000000000000000000000000000000000000000081526004016109e090615628565b600a55565b600a81565b600881565b610af133613201565b610b27576040517f08c379a00000000000000000000000000000000000000000000000000000000081526004016109e0906153d4565b73ffffffffffffffffffffffffffffffffffffffff9091166000908152600e6020526040902055565b60045473ffffffffffffffffffffffffffffffffffffffff1681565b73ffffffffffffffffffffffffffffffffffffffff81166000908152600d60205260408120610ba5600182016002830160038401613238565b9150505b919050565b6005602052600090815260409020805460019091015482565b60106020526000908152604090205481565b6001546040517fd87fefd200000000000000000000000000000000000000000000000000000000815273ffffffffffffffffffffffffffffffffffffffff9091169063d87fefd290610c319085908590600401615783565b60206040518083038186803b158015610c4957600080fd5b505afa158015610c5d573d6000803e3d6000fd5b505050506040513d601f19601f82011682018060405250810190610c8191906150e5565b73ffffffffffffffffffffffffffffffffffffffff909116600090815260036020908152604080832061ffff90951683529390529190912080549115157fffffffffffffffffffffffffffffffffffffffffffffffffffffffffffffff00909216919091179055565b6000610cf683836132e8565b90505b92915050565b606b81565b600b5481565b606981565b60115481565b600c5481565b606781565b610d286131fd565b73ffffffffffffffffffffffffffffffffffffffff16610d46611ed3565b73ffffffffffffffffffffffffffffffffffffffff1614610d93576040517f08c379a00000000000000000000000000000000000000000000000000000000081526004016109e090615628565b600755565b600080610da433613326565b610dda576040517f08c379a00000000000000000000000000000000000000000000000000000000081526004016109e090615431565b73ffffffffffffffffffffffffffffffffffffffff8088166000908152600d6020908152604080832093891683526002840190915290205415610e925773ffffffffffffffffffffffffffffffffffffffff86166000908152600282016020526040902054610e4a90859061335d565b9250610e57818785613375565b73ffffffffffffffffffffffffffffffffffffffff86166000908152600f602052604081208054859290610e8c908490615925565b90915550505b73ffffffffffffffffffffffffffffffffffffffff871660009081526010602052604081208054879290610ec7908490615925565b90915550610ed790508385615925565b73ffffffffffffffffffffffffffffffffffffffff871660009081526010602052604081208054909190610f0c908490615897565b909155505073ffffffffffffffffffffffffffffffffffffffff8616600090815260106020908152604080832054600e909252909120541015610f7b576040517f08c379a00000000000000000000000000000000000000000000000000000000081526004016109e09061565d565b73ffffffffffffffffffffffffffffffffffffffff871660009081526005820160205260409020548590811115611093575073ffffffffffffffffffffffffffffffffffffffff87166000908152600582016020526040902054610fdf8187615925565b73ffffffffffffffffffffffffffffffffffffffff89166000908152600f6020526040812080549295508592909190611019908490615897565b909155505073ffffffffffffffffffffffffffffffffffffffff88166000908152600f6020908152604080832054600e909252909120541015611088576040517f08c379a00000000000000000000000000000000000000000000000000000000081526004016109e09061565d565b6110938289856135b7565b6110a08289898489613841565b50509550959350505050565b60015473ffffffffffffffffffffffffffffffffffffffff1681565b60065461ffff1681565b6110da6131fd565b73ffffffffffffffffffffffffffffffffffffffff166110f8611ed3565b73ffffffffffffffffffffffffffffffffffffffff1614611145576040517f08c379a00000000000000000000000000000000000000000000000000000000081526004016109e090615628565b600955565b73ffffffffffffffffffffffffffffffffffffffff81166000908152600d60209081526040918290206004810180548451818502810185019095528085526060948594909291908301828280156111d757602002820191906000526020600020905b815473ffffffffffffffffffffffffffffffffffffffff1681526001909101906020018083116111ac575b5050506004840154929550505067ffffffffffffffff811115611223577f4e487b7100000000000000000000000000000000000000000000000000000000600052604160045260246000fd5b60405190808252806020026020018201604052801561124c578160200160208202803683370190505b50915060005b8084511115611339576000848281518110611296577f4e487b7100000000000000000000000000000000000000000000000000000000600052603260045260246000fd5b602002602001015190508260050160008273ffffffffffffffffffffffffffffffffffffffff1673ffffffffffffffffffffffffffffffffffffffff1681526020019081526020016000205484838151811061131b577f4e487b7100000000000000000000000000000000000000000000000000000000600052603260045260246000fd5b6020908102919091010152508061133181615977565b915050611252565b5050915091565b600681565b606681565b61135333613326565b611389576040517f08c379a00000000000000000000000000000000000000000000000000000000081526004016109e090615717565b73ffffffffffffffffffffffffffffffffffffffff82166000908152600f6020526040812080548392906113be908490615897565b909155505073ffffffffffffffffffffffffffffffffffffffff8216600090815260106020526040812080548392906113f8908490615897565b909155505073ffffffffffffffffffffffffffffffffffffffff82166000908152600f6020908152604080832054600e909252909120541080159061146d575073ffffffffffffffffffffffffffffffffffffffff8216600090815260106020908152604080832054600e9092529091205410155b6114a3576040517f08c379a00000000000000000000000000000000000000000000000000000000081526004016109e09061565d565b73ffffffffffffffffffffffffffffffffffffffff83166000908152600d602052604090206114d38184846135b7565b50505050565b60195481565b60006114ea33613326565b611520576040517f08c379a00000000000000000000000000000000000000000000000000000000081526004016109e090615717565b73ffffffffffffffffffffffffffffffffffffffff8085166000908152600d60209081526040808320938716835260028401909152902054156115d85773ffffffffffffffffffffffffffffffffffffffff8416600090815260028201602052604090205461159090849061335d565b915061159d818584613375565b73ffffffffffffffffffffffffffffffffffffffff84166000908152600f6020526040812080548492906115d2908490615925565b90915550505b60006115e48385615925565b90506115f18286836138ae565b73ffffffffffffffffffffffffffffffffffffffff851660009081526010602052604081208054839290611626908490615897565b909155505073ffffffffffffffffffffffffffffffffffffffff8516600090815260106020908152604080832054600e909252909120541015611695576040517f08c379a00000000000000000000000000000000000000000000000000000000081526004016109e09061565d565b504390559392505050565b601a5481565b735c69bee701ef814a2b6a3edd4b1652cb9cc5aa6f81565b606581565b600181565b6001546040517f3c9c8f9c00000000000000000000000000000000000000000000000000000000815273ffffffffffffffffffffffffffffffffffffffff90911690633c9c8f9c9061171e908490600401615774565b60206040518083038186803b15801561173657600080fd5b505afa15801561174a573d6000803e3d6000fd5b505050506040513d601f19601f8201168201806040525081019061176e9190614e81565b61ffff91909116600090815260026020526040902080547fffffffffffffffffffffffff00000000000000000000000000000000000000001673ffffffffffffffffffffffffffffffffffffffff909216919091179055565b6117d033613201565b611806576040517f08c379a00000000000000000000000000000000000000000000000000000000081526004016109e0906154eb565b600081600081518110611842577f4e487b7100000000000000000000000000000000000000000000000000000000600052603260045260246000fd5b60200260200101519050815167ffffffffffffffff81111561188d577f4e487b7100000000000000000000000000000000000000000000000000000000600052604160045260246000fd5b6040519080825280602002602001820160405280156118b6578160200160208202803683370190505b5073ffffffffffffffffffffffffffffffffffffffff8216600090815260056020908152604090912082516118f5936002909201929190910190614d9a565b50815167ffffffffffffffff811115611937577f4e487b7100000000000000000000000000000000000000000000000000000000600052604160045260246000fd5b604051908082528060200260200182016040528015611960578160200160208202803683370190505b5073ffffffffffffffffffffffffffffffffffffffff82166000908152600560209081526040909120825161199f936003909201929190910190614d9a565b5060005b8061ffff1683511115611bf657828161ffff16815181106119ed577f4e487b7100000000000000000000000000000000000000000000000000000000600052603260045260246000fd5b6020026020010151600560008473ffffffffffffffffffffffffffffffffffffffff1673ffffffffffffffffffffffffffffffffffffffff1681526020019081526020016000206002018261ffff1681548110611a73577f4e487b7100000000000000000000000000000000000000000000000000000000600052603260045260246000fd5b9060005260206000200160006101000a81548173ffffffffffffffffffffffffffffffffffffffff021916908373ffffffffffffffffffffffffffffffffffffffff1602179055508260018261ffff168551611acf9190615925565b611ad99190615925565b81518110611b10577f4e487b7100000000000000000000000000000000000000000000000000000000600052603260045260246000fd5b6020026020010151600560008473ffffffffffffffffffffffffffffffffffffffff1673ffffffffffffffffffffffffffffffffffffffff1681526020019081526020016000206003018261ffff1681548110611b96577f4e487b7100000000000000000000000000000000000000000000000000000000600052603260045260246000fd5b600091825260209091200180547fffffffffffffffffffffffff00000000000000000000000000000000000000001673ffffffffffffffffffffffffffffffffffffffff9290921691909117905580611bee8161593c565b9150506119a3565b506000611c01613953565b73ffffffffffffffffffffffffffffffffffffffff1663192128b2735c69bee701ef814a2b6a3edd4b1652cb9cc5aa6f683635c9adc5dea00000866040518463ffffffff1660e01b8152600401611c5a9392919061526f565b60006040518083038186803b158015611c7257600080fd5b505afa158015611c86573d6000803e3d6000fd5b505050506040513d6000823e601f3d9081017fffffffffffffffffffffffffffffffffffffffffffffffffffffffffffffffe0168201604052611ccc9190810190615061565b9050600081600081518110611d0a577f4e487b7100000000000000000000000000000000000000000000000000000000600052603260045260246000fd5b602002602001015190506114d3600560008573ffffffffffffffffffffffffffffffffffffffff1673ffffffffffffffffffffffffffffffffffffffff16815260200190815260200160002082683635c9adc5dea000006103e8613998565b611d716131fd565b73ffffffffffffffffffffffffffffffffffffffff16611d8f611ed3565b73ffffffffffffffffffffffffffffffffffffffff1614611ddc576040517f08c379a00000000000000000000000000000000000000000000000000000000081526004016109e090615628565b6000805460405173ffffffffffffffffffffffffffffffffffffffff909116907f8be0079c531659141344cd1fd0a4f28419497f9722a3daafe3b4186f6b6457e0908390a3600080547fffffffffffffffffffffffff0000000000000000000000000000000000000000169055565b611e536131fd565b73ffffffffffffffffffffffffffffffffffffffff16611e71611ed3565b73ffffffffffffffffffffffffffffffffffffffff1614611ebe576040517f08c379a00000000000000000000000000000000000000000000000000000000081526004016109e090615628565b600b55565b601b5481565b606a81565b600981565b60005473ffffffffffffffffffffffffffffffffffffffff165b90565b60185481565b60085481565b611f046131fd565b73ffffffffffffffffffffffffffffffffffffffff16611f22611ed3565b73ffffffffffffffffffffffffffffffffffffffff1614611f6f576040517f08c379a00000000000000000000000000000000000000000000000000000000081526004016109e090615628565b600680547fffffffffffffffffffffffffffffffffffffffffffffffffffffffffffff00001661ffff92909216919091179055565b600281565b611fb16131fd565b73ffffffffffffffffffffffffffffffffffffffff16611fcf611ed3565b73ffffffffffffffffffffffffffffffffffffffff161461201c576040517f08c379a00000000000000000000000000000000000000000000000000000000081526004016109e090615628565b601955565b60166020526000908152604090205481565b600581565b600080612043613a0f565b73ffffffffffffffffffffffffffffffffffffffff16637b23cbce336040518263ffffffff1660e01b815260040161207b919061521d565b602060405180830381600087803b15801561209557600080fd5b505af11580156120a9573d6000803e3d6000fd5b505050506040513d601f19601f820116820180604052508101906120cd91906150e5565b9050600081806120e057506120e0613a54565b905060006120ee8584613b1b565b905080935060006120fd6140ee565b905060006121096141fd565b9050816064601a54606461211d9190615897565b61212790846158e8565b61213191906158af565b1115612178577f3555ffae7677eb42103f0b9e11b61c758f452fae446684dec7a363dd38ab58fc6121628383615925565b60405161216f91906157ad565b60405180910390a15b60008461220957612187613a0f565b73ffffffffffffffffffffffffffffffffffffffff16631a38de1d6040518163ffffffff1660e01b8152600401602060405180830381600087803b1580156121ce57600080fd5b505af11580156121e2573d6000803e3d6000fd5b505050506040513d601f19601f820116820180604052508101906122069190614e81565b90505b60005b60155481101561245f57600060158281548110612252577f4e487b7100000000000000000000000000000000000000000000000000000000600052603260045260246000fd5b600091825260208083209091015473ffffffffffffffffffffffffffffffffffffffff16808352600d9091526040822090925090612291826001614309565b905060006122a083600161431c565b905060006064601a54836122b491906158e8565b6122be91906158af565b90506122ca818e615897565b9c508a6123445773ffffffffffffffffffffffffffffffffffffffff858116600090815260176020526040902060028101839055600381018054337fffffffffffffffffffffffff000000000000000000000000000000000000000091821617909155438255600190910180549091169189169190911790555b61234e8282615897565b83106124075761235c614333565b60045473ffffffffffffffffffffffffffffffffffffffff9182169163d9caed129116878461238b8789615925565b6123959190615925565b6040518463ffffffff1660e01b81526004016123b39392919061523e565b602060405180830381600087803b1580156123cd57600080fd5b505af11580156123e1573d6000803e3d6000fd5b505050506040513d601f19601f8201168201806040525081019061240591906150e5565b505b7f1d2cc4c8661a04a00b4e727426220501b36d85bb330947642c2d4320667028cf85604051612436919061521d565b60405180910390a161244784614378565b5050505050808061245790615977565b91505061220c565b50606487601854606361247291906158e8565b61247c9190615897565b61248691906158af565b6018556000612493613a0f565b73ffffffffffffffffffffffffffffffffffffffff16631a38de1d6040518163ffffffff1660e01b8152600401602060405180830381600087803b1580156124da57600080fd5b505af11580156124ee573d6000803e3d6000fd5b505050506040513d601f19601f820116820180604052508101906125129190614e81565b905086156125b35773ffffffffffffffffffffffffffffffffffffffff81166000908152601660205260409020548810156125875773ffffffffffffffffffffffffffffffffffffffff8116600090815260166020526040812080548a929061257c908490615925565b909155506125ae9050565b73ffffffffffffffffffffffffffffffffffffffff81166000908152601660205260408120555b6125ee565b73ffffffffffffffffffffffffffffffffffffffff8116600090815260166020526040812080548a92906125e8908490615897565b90915550505b50505050505050919050565b606881565b60026020526000908152604090205473ffffffffffffffffffffffffffffffffffffffff1681565b6017602052600090815260409020805460018201546002830154600390930154919273ffffffffffffffffffffffffffffffffffffffff9182169290911684565b600f6020526000908152604090205481565b600360209081526000928352604080842090915290825290205460ff1681565b60075481565b6126a86131fd565b73ffffffffffffffffffffffffffffffffffffffff166126c6611ed3565b73ffffffffffffffffffffffffffffffffffffffff1614612713576040517f08c379a00000000000000000000000000000000000000000000000000000000081526004016109e090615628565b601a55565b606c81565b600481565b61272b33613326565b612761576040517f08c379a00000000000000000000000000000000000000000000000000000000081526004016109e090615717565b73ffffffffffffffffffffffffffffffffffffffff83166000908152600d6020526040902060115481546127959190615897565b43116127cd576040517f08c379a00000000000000000000000000000000000000000000000000000000081526004016109e0906155a5565b73ffffffffffffffffffffffffffffffffffffffff831660009081526010602052604081208054849290612802908490615925565b909155505073ffffffffffffffffffffffffffffffffffffffff8316600090815260058201602052604090205461283a908390615925565b73ffffffffffffffffffffffffffffffffffffffff8416600090815260058301602052604090205561286b8161458c565b6114d3576040517f08c379a00000000000000000000000000000000000000000000000000000000081526004016109e090615548565b606d81565b73ffffffffffffffffffffffffffffffffffffffff81166000908152600d602090815260409182902060018101805484518185028101850190955280855260609485949092919083018282801561293357602002820191906000526020600020905b815473ffffffffffffffffffffffffffffffffffffffff168152600190910190602001808311612908575b5050506001840154929550505067ffffffffffffffff81111561297f577f4e487b7100000000000000000000000000000000000000000000000000000000600052604160045260246000fd5b6040519080825280602002602001820160405280156129a8578160200160208202803683370190505b50915060005b80845111156113395760008482815181106129f2577f4e487b7100000000000000000000000000000000000000000000000000000000600052603260045260246000fd5b60200260200101519050612a046145dc565b73ffffffffffffffffffffffffffffffffffffffff828116600090815260028601602090815260408083205460038901909252918290205491517f687680ed000000000000000000000000000000000000000000000000000000008152939092169263687680ed92612a7d9290918691906004016157b6565b60206040518083038186803b158015612a9557600080fd5b505afa158015612aa9573d6000803e3d6000fd5b505050506040513d601f19601f82011682018060405250810190612acd919061516d565b848381518110612b06577f4e487b7100000000000000000000000000000000000000000000000000000000600052603260045260246000fd5b60209081029190910101525080612b1c81615977565b9150506129ae565b600781565b612b3233613326565b612b68576040517f08c379a00000000000000000000000000000000000000000000000000000000081526004016109e090615431565b73ffffffffffffffffffffffffffffffffffffffff81166000908152600d60205260408120905b600182015462ffffff82161015612cbf576000826001018262ffffff1681548110612be3577f4e487b7100000000000000000000000000000000000000000000000000000000600052603260045260246000fd5b60009182526020909120015473ffffffffffffffffffffffffffffffffffffffff169050612c0f6145dc565b73ffffffffffffffffffffffffffffffffffffffff8281166000908152600286016020526040908190205490517f2a6a897b0000000000000000000000000000000000000000000000000000000081529290911691632a6a897b91612c79918591906004016152ad565b600060405180830381600087803b158015612c9357600080fd5b505af1158015612ca7573d6000803e3d6000fd5b50505050508080612cb79061595e565b915050612b8f565b5061096981614378565b600e6020526000908152604090205481565b73ffffffffffffffffffffffffffffffffffffffff166000908152600d602052604090205490565b612d0b6131fd565b73ffffffffffffffffffffffffffffffffffffffff16612d29611ed3565b73ffffffffffffffffffffffffffffffffffffffff1614612d76576040517f08c379a00000000000000000000000000000000000000000000000000000000081526004016109e090615628565b600855565b612d836131fd565b73ffffffffffffffffffffffffffffffffffffffff16612da1611ed3565b73ffffffffffffffffffffffffffffffffffffffff1614612dee576040517f08c379a00000000000000000000000000000000000000000000000000000000081526004016109e090615628565b73ffffffffffffffffffffffffffffffffffffffff8116612e3b576040517f08c379a00000000000000000000000000000000000000000000000000000000081526004016109e09061548e565b6000805460405173ffffffffffffffffffffffffffffffffffffffff808516939216917f8be0079c531659141344cd1fd0a4f28419497f9722a3daafe3b4186f6b6457e091a3600080547fffffffffffffffffffffffff00000000000000000000000000000000000000001673ffffffffffffffffffffffffffffffffffffffff92909216919091179055565b612ed06131fd565b73ffffffffffffffffffffffffffffffffffffffff16612eee611ed3565b73ffffffffffffffffffffffffffffffffffffffff1614612f3b576040517f08c379a00000000000000000000000000000000000000000000000000000000081526004016109e090615628565b601155565b600281015460009015610ba9578154600090612f6890612f609043615925565b60195461335d565b90506000601954828560020154612f7f91906158e8565b612f8991906158af565b9050612f93614333565b6004805460038701546040517fd9caed1200000000000000000000000000000000000000000000000000000000815273ffffffffffffffffffffffffffffffffffffffff9485169463d9caed1294612ff4948216939091169187910161523e565b602060405180830381600087803b15801561300e57600080fd5b505af1158015613022573d6000803e3d6000fd5b505050506040513d601f19601f8201168201806040525081019061304691906150e5565b506000613051613a0f565b90506000601854838373ffffffffffffffffffffffffffffffffffffffff16630ad691506040518163ffffffff1660e01b815260040160206040518083038186803b15801561309f57600080fd5b505afa1580156130b3573d6000803e3d6000fd5b505050506040513d601f19601f820116820180604052508101906130d7919061516d565b6130e191906158e8565b6130eb91906158af565b600187015460038801546040517f0a45bc1b00000000000000000000000000000000000000000000000000000000815292935073ffffffffffffffffffffffffffffffffffffffff80861693630a45bc1b93613152939083169287929116906004016152d3565b602060405180830381600087803b15801561316c57600080fd5b505af1158015613180573d6000803e3d6000fd5b505050506040513d601f19601f820116820180604052508101906131a4919061516d565b506000600287018190556003870180547fffffffffffffffffffffffff000000000000000000000000000000000000000090811690915590875560018701805490911690556131f38386615925565b9695505050505050565b3390565b73ffffffffffffffffffffffffffffffffffffffff1660009081526003602090815260408083206009845290915290205460ff1690565b6000805b84548110156132e0576000858281548110613280577f4e487b7100000000000000000000000000000000000000000000000000000000600052603260045260246000fd5b600091825260208083209091015473ffffffffffffffffffffffffffffffffffffffff16808352908790526040909120549091506132c090829086614621565b6132ca9084615897565b92505080806132d890615977565b91505061323c565b509392505050565b600081156133205773ffffffffffffffffffffffffffffffffffffffff8316600090815260056020526040902061332090838061470a565b50919050565b73ffffffffffffffffffffffffffffffffffffffff1660009081526003602090815260408083206004845290915290205460ff1690565b60008183111561336e575080610cf9565b5081610cf9565b61337d6145dc565b73ffffffffffffffffffffffffffffffffffffffff838116600090815260028601602090815260408083205460038901909252918290205491517fe695fa68000000000000000000000000000000000000000000000000000000008152939092169263e695fa68926133f69290918791906004016157b6565b602060405180830381600087803b15801561341057600080fd5b505af1158015613424573d6000803e3d6000fd5b505050506040513d601f19601f82011682018060405250810190613448919061516d565b73ffffffffffffffffffffffffffffffffffffffff83166000908152600285016020526040902081905561347d908290615925565b73ffffffffffffffffffffffffffffffffffffffff8316600090815260028501602090815260408083209390935560058601905220546134be908290615925565b73ffffffffffffffffffffffffffffffffffffffff831660009081526005850160209081526040808320939093556002860190522054156135b2576135016145dc565b73ffffffffffffffffffffffffffffffffffffffff1663e5ea6606836040518263ffffffff1660e01b8152600401613539919061521d565b60206040518083038186803b15801561355157600080fd5b505afa158015613565573d6000803e3d6000fd5b505050506040513d601f19601f82011682018060405250810190613589919061516d565b73ffffffffffffffffffffffffffffffffffffffff831660009081526003850160205260409020555b505050565b6135c1838361471f565b61361e576001838101805491820181556000908152602090200180547fffffffffffffffffffffffff00000000000000000000000000000000000000001673ffffffffffffffffffffffffffffffffffffffff841617905561371a565b6136266145dc565b73ffffffffffffffffffffffffffffffffffffffff838116600090815260028601602090815260408083205460038901909252918290205491517fe695fa68000000000000000000000000000000000000000000000000000000008152939092169263e695fa689261369f9290918791906004016157b6565b602060405180830381600087803b1580156136b957600080fd5b505af11580156136cd573d6000803e3d6000fd5b505050506040513d601f19601f820116820180604052508101906136f1919061516d565b73ffffffffffffffffffffffffffffffffffffffff831660009081526002850160205260409020555b6137226145dc565b73ffffffffffffffffffffffffffffffffffffffff1663e5ea6606836040518263ffffffff1660e01b815260040161375a919061521d565b60206040518083038186803b15801561377257600080fd5b505afa158015613786573d6000803e3d6000fd5b505050506040513d601f19601f820116820180604052508101906137aa919061516d565b73ffffffffffffffffffffffffffffffffffffffff8316600090815260038501602090815260408083209390935560028601905290812080548392906137f1908490615897565b9091555061380290508383836138ae565b61380b8361458c565b6135b2576040517f08c379a00000000000000000000000000000000000000000000000000000000081526004016109e0906156ba565b73ffffffffffffffffffffffffffffffffffffffff84166000908152600586016020526040902054613874908390615925565b73ffffffffffffffffffffffffffffffffffffffff851660009081526005870160205260409020556138a78584836138ae565b5050505050565b6138b8838361474d565b61391257600483018054600181018255600091825260209091200180547fffffffffffffffffffffffff00000000000000000000000000000000000000001673ffffffffffffffffffffffffffffffffffffffff84161790555b73ffffffffffffffffffffffffffffffffffffffff8216600090815260058401602052604081208054839290613949908490615897565b9091555050505050565b606760005260026020527f5202c08c707bcafbdba40c5749401bdc48ea45d1e2a9b7478770e7d3035be4cf5473ffffffffffffffffffffffffffffffffffffffff1690565b60006139a5836001615897565b6139b885683635c9adc5dea000006158e8565b6139c291906158af565b90506103e86139d183836158e8565b6139dd846103e8615925565b87600101546139ec91906158e8565b6139f69190615897565b613a0091906158af565b85600101819055505050505050565b606b60005260026020527f3d0bf07b66e03df2d56279777ed45fe038722a291b477c7255885aec2d54652a5473ffffffffffffffffffffffffffffffffffffffff1690565b600080613a5f613a0f565b73ffffffffffffffffffffffffffffffffffffffff1663b0411f466040518163ffffffff1660e01b8152600401604080518083038186803b158015613aa357600080fd5b505afa158015613ab7573d6000803e3d6000fd5b505050506040513d601f19601f82011682018060405250810190613adb9190614f96565b509050601854601b54613aee91906158e8565b73ffffffffffffffffffffffffffffffffffffffff90911660009081526016602052604090205411905090565b604080516000808252602082019283905290519091613b3d9160139190614d9a565b506040805160008152602081019182905251613b5b91601491614d9a565b506040805160008152602081019182905251613b7991601591614d9a565b5060005b80845111156140e7576000848281518110613bc1577f4e487b7100000000000000000000000000000000000000000000000000000000600052603260045260246000fd5b602002602001015190506000600d60008373ffffffffffffffffffffffffffffffffffffffff1673ffffffffffffffffffffffffffffffffffffffff1681526020019081526020016000209050613c178161477c565b15614090576015805460018101825560009182527f55f448fdea98c4d29eb340757ef0a66cd03dbb9538908a6a81d96026b71ec4750180547fffffffffffffffffffffffff00000000000000000000000000000000000000001673ffffffffffffffffffffffffffffffffffffffff85161790555b6004820154811015613e04576000826004018281548110613cd6577f4e487b7100000000000000000000000000000000000000000000000000000000600052603260045260246000fd5b600091825260208083209091015473ffffffffffffffffffffffffffffffffffffffff16808352601290915260409091206002810154919250904314613dac5773ffffffffffffffffffffffffffffffffffffffff821660008181526005860160205260408120546001808501919091558184554360028501556013805491820181559091527f66de8ffda797e3de9c05e8fc57b3bf0ec28a930d40b0d285d93c06501cf6a0900180547fffffffffffffffffffffffff0000000000000000000000000000000000000000169091179055613def565b73ffffffffffffffffffffffffffffffffffffffff8216600090815260058501602052604081205460018301805491929091613de9908490615897565b90915550505b50508080613dfc90615977565b915050613c8c565b5060005b600182015481101561408e576000826001018281548110613e52577f4e487b7100000000000000000000000000000000000000000000000000000000600052603260045260246000fd5b600091825260208083209091015473ffffffffffffffffffffffffffffffffffffffff1680835260129091526040822090925090613e8e6145dc565b73ffffffffffffffffffffffffffffffffffffffff848116600090815260028801602090815260408083205460038b01909252918290205491517fe695fa68000000000000000000000000000000000000000000000000000000008152939092169263e695fa6892613f079290918891906004016157b6565b602060405180830381600087803b158015613f2157600080fd5b505af1158015613f35573d6000803e3d6000fd5b505050506040513d601f19601f82011682018060405250810190613f59919061516d565b9050613f636145dc565b73ffffffffffffffffffffffffffffffffffffffff16632a6a897b84836040518363ffffffff1660e01b8152600401613f9d9291906152ad565b600060405180830381600087803b158015613fb757600080fd5b505af1158015613fcb573d6000803e3d6000fd5b505050504382600201541461405e57600060018381018290558284554360028501556014805491820181559091527fce6d7b5282bd9a3661ae061feed1dbda4e52ab073b1f9285be6e155d9c38d4ec0180547fffffffffffffffffffffffff00000000000000000000000000000000000000001673ffffffffffffffffffffffffffffffffffffffff8516179055614078565b808260000160008282546140729190615897565b90915550505b505050808061408690615977565b915050613e08565b505b73ffffffffffffffffffffffffffffffffffffffff8216600090815260176020526040902085156140d1576140c481612f40565b6140ce9086615897565b94505b50505080806140df90615977565b915050613b7d565b5092915050565b6000805b6013548110156141f057600060138281548110614138577f4e487b7100000000000000000000000000000000000000000000000000000000600052603260045260246000fd5b600091825260208083209091015473ffffffffffffffffffffffffffffffffffffffff168083526012909152604090912080546001820154929350909111156141db578054600182015460009161418e91615925565b905061419a83826147b4565b6141a49086615897565b73ffffffffffffffffffffffffffffffffffffffff8416600090815260126020526040812081815560018101829055600201559450505b505080806141e890615977565b9150506140f2565b50611eed60136000614e24565b6000805b6014548110156142fc57600060148281548110614247577f4e487b7100000000000000000000000000000000000000000000000000000000600052603260045260246000fd5b600091825260208083209091015473ffffffffffffffffffffffffffffffffffffffff168083526012909152604090912060018101548154929350909111156142e7576142a782826001015483600001546142a29190615925565b6147b4565b6142b19085615897565b73ffffffffffffffffffffffffffffffffffffffff83166000908152601260205260408120818155600181018290556002015593505b505080806142f490615977565b915050614201565b50611eed60146000614e24565b6000610cf6836004018460050184614942565b6000610cf6836001018460020185600301856149ea565b606560005260026020527f0bb0d0c2a399402027fb0eaada47a2c630983f3dd97f193c64f3e30465d04ec35473ffffffffffffffffffffffffffffffffffffffff1690565b60005b600182015481101561445f5760008260010182815481106143c5577f4e487b7100000000000000000000000000000000000000000000000000000000600052603260045260246000fd5b600091825260208083209091015473ffffffffffffffffffffffffffffffffffffffff16808352600286018252604080842054600f90935283208054919450919290614412908490615925565b909155505073ffffffffffffffffffffffffffffffffffffffff1660009081526002830160209081526040808320839055600385019091528120558061445781615977565b91505061437b565b5060005b600482015481101561456c5760008260040182815481106144ad577f4e487b7100000000000000000000000000000000000000000000000000000000600052603260045260246000fd5b600091825260208083209091015473ffffffffffffffffffffffffffffffffffffffff168083526005860182526040808420546010909352832080549194509192906144fa908490615925565b909155505073ffffffffffffffffffffffffffffffffffffffff166000908152600583016020908152604080832083905560068501909152902080547fffffffffffffffffffffffffffffffffffffffffffffffffffffffffffffff001690558061456481615977565b915050614463565b5061457b600182016000614e24565b614589600482016000614e24565b50565b60008061459a83600061431c565b905060006145a9846000614309565b9050600b54826145b991906158e8565b6001600b546145c89190615925565b6145d290836158e8565b1015949350505050565b606660005260026020527fc22bc11c71fccd17556f61a8a760aaab7e80d32405436c9a793b10ce8880ed245473ffffffffffffffffffffffffffffffffffffffff1690565b60008061462c6145dc565b73ffffffffffffffffffffffffffffffffffffffff1663e5ea6606866040518263ffffffff1660e01b8152600401614664919061521d565b60206040518083038186803b15801561467c57600080fd5b505afa158015614690573d6000803e3d6000fd5b505050506040513d601f19601f820116820180604052508101906146b4919061516d565b73ffffffffffffffffffffffffffffffffffffffff8616600090815260208590526040812054919250906146e883876158e8565b6146f291906158af565b90506146fe8682614a9c565b925050505b9392505050565b614718838383600854613998565b5050439055565b73ffffffffffffffffffffffffffffffffffffffff1660009081526003919091016020526040902054151590565b73ffffffffffffffffffffffffffffffffffffffff166000908152600691909101602052604090205460ff1690565b60008061478a83600161431c565b90506000614799846001614309565b905081600c546147a991906158e8565b6145d28260646158e8565b60045460009073ffffffffffffffffffffffffffffffffffffffff848116911614156147e1575080610cf9565b73ffffffffffffffffffffffffffffffffffffffff831660009081526005602052604081209061480f613953565b73ffffffffffffffffffffffffffffffffffffffff16630d873d5e735c69bee701ef814a2b6a3edd4b1652cb9cc5aa6f866000866002016040518563ffffffff1660e01b81526004016148659493929190615338565b600060405180830381600087803b15801561487f57600080fd5b505af1158015614893573d6000803e3d6000fd5b505050506040513d6000823e601f3d9081017fffffffffffffffffffffffffffffffffffffffffffffffffffffffffffffffe01682016040526148d99190810190615061565b9050600081600183516148ec9190615925565b81518110614923577f4e487b7100000000000000000000000000000000000000000000000000000000600052603260045260246000fd5b6020026020010151905061493883868361470a565b9250610cf9915050565b6000805b84548110156132e057600085828154811061498a577f4e487b7100000000000000000000000000000000000000000000000000000000600052603260045260246000fd5b600091825260208083209091015473ffffffffffffffffffffffffffffffffffffffff16808352908790526040909120549091506149ca90829086614c1b565b6149d49084615897565b92505080806149e290615977565b915050614946565b6000805b8554811015614a93576000868281548110614a32577f4e487b7100000000000000000000000000000000000000000000000000000000600052603260045260246000fd5b600091825260208083209091015473ffffffffffffffffffffffffffffffffffffffff1680835290889052604090912054909150614a739082908787614cb1565b614a7d9084615897565b9250508080614a8b90615977565b9150506149ee565b50949350505050565b60045460009073ffffffffffffffffffffffffffffffffffffffff84811691161415614ac9575080610cf9565b73ffffffffffffffffffffffffffffffffffffffff8316600090815260056020526040812090614af7613953565b73ffffffffffffffffffffffffffffffffffffffff1663bb7b9c76735c69bee701ef814a2b6a3edd4b1652cb9cc5aa6f86856002016040518463ffffffff1660e01b8152600401614b4a93929190615303565b60006040518083038186803b158015614b6257600080fd5b505afa158015614b76573d6000803e3d6000fd5b505050506040513d6000823e601f3d9081017fffffffffffffffffffffffffffffffffffffffffffffffffffffffffffffffe0168201604052614bbc9190810190615061565b905060008160018351614bcf9190615925565b81518110614c06577f4e487b7100000000000000000000000000000000000000000000000000000000600052603260045260246000fd5b60200260200101519050809350505050610cf9565b73ffffffffffffffffffffffffffffffffffffffff83166000908152600560205260408120600654815461ffff90911690614c569043615925565b1180614c6b5750828015614c6b575080544314155b80614c7857506001810154155b15614c8f57614c8785856132e8565b915050614703565b6001810154614ca785683635c9adc5dea000006158e8565b614c8791906158af565b600080614cbc6145dc565b73ffffffffffffffffffffffffffffffffffffffff1663e5ea6606876040518263ffffffff1660e01b8152600401614cf4919061521d565b60206040518083038186803b158015614d0c57600080fd5b505afa158015614d20573d6000803e3d6000fd5b505050506040513d601f19601f82011682018060405250810190614d44919061516d565b73ffffffffffffffffffffffffffffffffffffffff871660009081526020869052604081205491925090614d7883886158e8565b614d8291906158af565b9050614d8f878286614c1b565b979650505050505050565b828054828255906000526020600020908101928215614e14579160200282015b82811115614e1457825182547fffffffffffffffffffffffff00000000000000000000000000000000000000001673ffffffffffffffffffffffffffffffffffffffff909116178255602090920191600190910190614dba565b50614e20929150614e3e565b5090565b508054600082559060005260206000209081019061458991905b5b80821115614e205760008155600101614e3f565b803561ffff81168114610ba957600080fd5b600060208284031215614e76578081fd5b813561470381615a0e565b600060208284031215614e92578081fd5b815161470381615a0e565b600080600080600060a08688031215614eb4578081fd5b8535614ebf81615a0e565b94506020860135614ecf81615a0e565b93506040860135614edf81615a0e565b94979396509394606081013594506080013592915050565b600080600060608486031215614f0b578283fd5b8335614f1681615a0e565b92506020840135614f2681615a0e565b929592945050506040919091013590565b60008060408385031215614f49578182fd5b8235614f5481615a0e565b9150614f6260208401614e53565b90509250929050565b60008060408385031215614f7d578182fd5b8235614f8881615a0e565b946020939093013593505050565b60008060408385031215614fa8578182fd5b8251614fb381615a0e565b6020939093015192949293505050565b60006020808385031215614fd5578182fd5b823567ffffffffffffffff811115614feb578283fd5b8301601f81018513614ffb578283fd5b803561500e61500982615873565b615824565b818152838101908385018584028501860189101561502a578687fd5b8694505b8385101561505557803561504181615a0e565b83526001949094019391850191850161502e565b50979650505050505050565b60006020808385031215615073578182fd5b825167ffffffffffffffff811115615089578283fd5b8301601f81018513615099578283fd5b80516150a761500982615873565b81815283810190838501858402850186018910156150c3578687fd5b8694505b838510156150555780518352600194909401939185019185016150c7565b6000602082840312156150f6578081fd5b81518015158114614703578182fd5b600060208284031215615116578081fd5b610cf682614e53565b60008060408385031215615131578182fd5b61513a83614e53565b9150602083013561514a81615a0e565b809150509250929050565b600060208284031215615166578081fd5b5035919050565b60006020828403121561517e578081fd5b5051919050565b6000815180845260208085019450808401835b838110156151ca57815173ffffffffffffffffffffffffffffffffffffffff1687529582019590820190600101615198565b509495945050505050565b6000815480845260208085019450838352808320835b838110156151ca57815473ffffffffffffffffffffffffffffffffffffffff16875295820195600191820191016151eb565b73ffffffffffffffffffffffffffffffffffffffff91909116815260200190565b73ffffffffffffffffffffffffffffffffffffffff9384168152919092166020820152604081019190915260600190565b600073ffffffffffffffffffffffffffffffffffffffff85168252836020830152606060408301526152a46060830184615185565b95945050505050565b73ffffffffffffffffffffffffffffffffffffffff929092168252602082015260400190565b73ffffffffffffffffffffffffffffffffffffffff93841681526020810192909252909116604082015260600190565b600073ffffffffffffffffffffffffffffffffffffffff85168252836020830152606060408301526152a460608301846151d5565b600073ffffffffffffffffffffffffffffffffffffffff86168252846020830152836040830152608060608301526131f360808301846151d5565b6000604082526153866040830185615185565b828103602084810191909152845180835285820192820190845b818110156153bc578451835293830193918301916001016153a0565b5090979650505050505050565b901515815260200190565b60208082526026908201527f43616c6c6572206e6f7420617574686f72697a656420746f2073657420746f6b60408201527f656e206361700000000000000000000000000000000000000000000000000000606082015260800190565b60208082526039908201527f43616c6c696e6720636f6e7472616374206973206e6f7420616e20617574686f60408201527f72697a6564206d617267696e20747261646572206167656e7400000000000000606082015260800190565b60208082526026908201527f4f776e61626c653a206e6577206f776e657220697320746865207a65726f206160408201527f6464726573730000000000000000000000000000000000000000000000000000606082015260800190565b60208082526021908201527f6e6f7420617574686f72697a656420746f20736574206c656e64696e6720636160408201527f7000000000000000000000000000000000000000000000000000000000000000606082015260800190565b60208082526026908201527f4163636f756e742062616c616e636520697320746f6f206c6f7720746f20776960408201527f7468647261770000000000000000000000000000000000000000000000000000606082015260800190565b60208082526052908201527f546f2070726576656e742061747461636b7320796f75206d757374207761697460408201527f20756e74696c20796f757220636f6f6c696e67206f666620706572696f64206960608201527f73206f76657220746f2077697468647261770000000000000000000000000000608082015260a00190565b6020808252818101527f4f776e61626c653a2063616c6c6572206973206e6f7420746865206f776e6572604082015260600190565b60208082526039908201527f457863656564696e6720676c6f62616c206578706f737572652063617020746f60408201527f20746f6b656e202d2d2074727920616761696e206c6174657200000000000000606082015260800190565b60208082526022908201527f43616e277420626f72726f773a20696e73756666696369656e742062616c616e60408201527f6365000000000000000000000000000000000000000000000000000000000000606082015260800190565b6020808252602a908201527f43616c6c696e6720636f6e7472616374206e6f7420617574686f72697a65642060408201527f746f206465706f73697400000000000000000000000000000000000000000000606082015260800190565b61ffff91909116815260200190565b61ffff92909216825273ffffffffffffffffffffffffffffffffffffffff16602082015260400190565b90815260200190565b92835273ffffffffffffffffffffffffffffffffffffffff919091166020830152604082015260600190565b93845273ffffffffffffffffffffffffffffffffffffffff9283166020850152604084019190915216606082015260800190565b918252602082015260400190565b604051601f82017fffffffffffffffffffffffffffffffffffffffffffffffffffffffffffffffe016810167ffffffffffffffff8111828210171561586b5761586b6159df565b604052919050565b600067ffffffffffffffff82111561588d5761588d6159df565b5060209081020190565b600082198211156158aa576158aa6159b0565b500190565b6000826158e3577f4e487b710000000000000000000000000000000000000000000000000000000081526012600452602481fd5b500490565b6000817fffffffffffffffffffffffffffffffffffffffffffffffffffffffffffffffff0483118215151615615920576159206159b0565b500290565b600082821015615937576159376159b0565b500390565b600061ffff80831681811415615954576159546159b0565b6001019392505050565b600062ffffff80831681811415615954576159546159b0565b60007fffffffffffffffffffffffffffffffffffffffffffffffffffffffffffffffff8214156159a9576159a96159b0565b5060010190565b7f4e487b7100000000000000000000000000000000000000000000000000000000600052601160045260246000fd5b7f4e487b7100000000000000000000000000000000000000000000000000000000600052604160045260246000fd5b73ffffffffffffffffffffffffffffffffffffffff8116811461458957600080fdfea2646970667358221220d978666731d04661e810784528821305c01e3a80ef6c1c3574592ec7ad2ffc7664736f6c63430008010033",
  "linkReferences": {},
  "deployedLinkReferences": {}
}