{
  "_format": "hh-sol-artifact-1",
  "contractName": "TokenAdmin",
  "sourceName": "contracts/TokenAdmin.sol",
  "abi": [
    {
      "inputs": [
        {
          "internalType": "uint256",
          "name": "lendingTargetPortion",
          "type": "uint256"
        },
        {
          "internalType": "uint256",
          "name": "borrowingTargetPortion",
          "type": "uint256"
        },
        {
          "internalType": "address",
          "name": "_roles",
          "type": "address"
        }
      ],
      "stateMutability": "nonpayable",
      "type": "constructor"
    },
    {
      "inputs": [
        {
          "internalType": "address",
          "name": "token",
          "type": "address"
        },
        {
          "internalType": "uint256",
          "name": "exposureCap",
          "type": "uint256"
        },
        {
          "internalType": "uint256",
          "name": "lendingBuffer",
          "type": "uint256"
        },
        {
          "internalType": "uint256",
          "name": "incentiveWeight",
          "type": "uint256"
        },
        {
          "internalType": "bytes32",
          "name": "amms",
          "type": "bytes32"
        },
        {
          "internalType": "address[]",
          "name": "liquidationTokens",
          "type": "address[]"
        }
      ],
      "name": "activateToken",
      "outputs": [],
      "stateMutability": "nonpayable",
      "type": "function"
    },
    {
      "inputs": [
        {
          "internalType": "address",
          "name": "token",
          "type": "address"
        },
        {
          "internalType": "uint256",
          "name": "aprPercent",
          "type": "uint256"
        }
      ],
      "name": "changeHourlyYieldAPR",
      "outputs": [],
      "stateMutability": "nonpayable",
      "type": "function"
    },
    {
      "inputs": [
        {
          "internalType": "address",
          "name": "token",
          "type": "address"
        },
        {
          "internalType": "uint256",
          "name": "lendingBuffer",
          "type": "uint256"
        }
      ],
      "name": "changeLendingBuffer",
      "outputs": [],
      "stateMutability": "nonpayable",
      "type": "function"
    },
    {
      "inputs": [
        {
          "internalType": "address",
          "name": "token",
          "type": "address"
        },
        {
          "internalType": "uint256",
          "name": "exposureCap",
          "type": "uint256"
        }
      ],
      "name": "changeTokenCap",
      "outputs": [],
      "stateMutability": "nonpayable",
      "type": "function"
    },
    {
      "inputs": [
        {
          "internalType": "address",
          "name": "token",
          "type": "address"
        },
        {
          "internalType": "uint256",
          "name": "tokenWeight",
          "type": "uint256"
        }
      ],
      "name": "changeTokenIncentiveWeight",
      "outputs": [],
      "stateMutability": "nonpayable",
      "type": "function"
    },
    {
      "inputs": [
        {
          "internalType": "uint256",
          "name": "",
          "type": "uint256"
        }
      ],
      "name": "incentiveTokens",
      "outputs": [
        {
          "internalType": "address",
          "name": "",
          "type": "address"
        }
      ],
      "stateMutability": "view",
      "type": "function"
    },
    {
      "inputs": [],
      "name": "initHourlyYieldAPRPercent",
      "outputs": [
        {
          "internalType": "uint256",
          "name": "",
          "type": "uint256"
        }
      ],
      "stateMutability": "view",
      "type": "function"
    },
    {
      "inputs": [
        {
          "internalType": "uint256",
          "name": "",
          "type": "uint256"
        }
      ],
      "name": "mainCharacterCache",
      "outputs": [
        {
          "internalType": "address",
          "name": "",
          "type": "address"
        }
      ],
      "stateMutability": "view",
      "type": "function"
    },
    {
      "inputs": [],
      "name": "nextTrancheIndex",
      "outputs": [
        {
          "internalType": "uint8",
          "name": "",
          "type": "uint8"
        }
      ],
      "stateMutability": "view",
      "type": "function"
    },
    {
      "inputs": [
        {
          "internalType": "address",
          "name": "",
          "type": "address"
        },
        {
          "internalType": "uint256",
          "name": "",
          "type": "uint256"
        }
      ],
      "name": "roleCache",
      "outputs": [
        {
          "internalType": "bool",
          "name": "",
          "type": "bool"
        }
      ],
      "stateMutability": "view",
      "type": "function"
    },
    {
      "inputs": [],
      "name": "roles",
      "outputs": [
        {
          "internalType": "contract Roles",
          "name": "",
          "type": "address"
        }
      ],
      "stateMutability": "view",
      "type": "function"
    },
    {
      "inputs": [
        {
          "internalType": "uint256",
          "name": "portion",
          "type": "uint256"
        }
      ],
      "name": "setBorrowingTargetPortion",
      "outputs": [],
      "stateMutability": "nonpayable",
      "type": "function"
    },
    {
      "inputs": [
        {
          "internalType": "uint256",
          "name": "value",
          "type": "uint256"
        }
      ],
      "name": "setInitHourlyYieldAPR",
      "outputs": [],
      "stateMutability": "nonpayable",
      "type": "function"
    },
    {
      "inputs": [
        {
          "internalType": "uint256",
          "name": "portion",
          "type": "uint256"
        }
      ],
      "name": "setLendingTargetPortion",
      "outputs": [],
      "stateMutability": "nonpayable",
      "type": "function"
    },
    {
      "inputs": [
        {
          "internalType": "address",
          "name": "",
          "type": "address"
        }
      ],
      "name": "tokenBorrowingTranches",
      "outputs": [
        {
          "internalType": "uint8",
          "name": "",
          "type": "uint8"
        }
      ],
      "stateMutability": "view",
      "type": "function"
    },
    {
      "inputs": [
        {
          "internalType": "address",
          "name": "",
          "type": "address"
        }
      ],
      "name": "tokenLendingTranches",
      "outputs": [
        {
          "internalType": "uint8",
          "name": "",
          "type": "uint8"
        }
      ],
      "stateMutability": "view",
      "type": "function"
    },
    {
      "inputs": [
        {
          "internalType": "address",
          "name": "",
          "type": "address"
        }
      ],
      "name": "tokenWeights",
      "outputs": [
        {
          "internalType": "uint256",
          "name": "",
          "type": "uint256"
        }
      ],
      "stateMutability": "view",
      "type": "function"
    },
    {
      "inputs": [],
      "name": "totalBorrowingTargetPortion",
      "outputs": [
        {
          "internalType": "uint256",
          "name": "",
          "type": "uint256"
        }
      ],
      "stateMutability": "view",
      "type": "function"
    },
    {
      "inputs": [],
      "name": "totalLendingTargetPortion",
      "outputs": [
        {
          "internalType": "uint256",
          "name": "",
          "type": "uint256"
        }
      ],
      "stateMutability": "view",
      "type": "function"
    },
    {
      "inputs": [],
      "name": "totalTokenWeights",
      "outputs": [
        {
          "internalType": "uint256",
          "name": "",
          "type": "uint256"
        }
      ],
      "stateMutability": "view",
      "type": "function"
    },
    {
      "inputs": [
        {
          "internalType": "uint256",
          "name": "role",
          "type": "uint256"
        }
      ],
      "name": "updateMainCharacterCache",
      "outputs": [],
      "stateMutability": "nonpayable",
      "type": "function"
    },
    {
      "inputs": [
        {
          "internalType": "uint256",
          "name": "role",
          "type": "uint256"
        },
        {
          "internalType": "address",
          "name": "contr",
          "type": "address"
        }
      ],
      "name": "updateRoleCache",
      "outputs": [],
      "stateMutability": "nonpayable",
      "type": "function"
    }
  ],
  "bytecode": "0x60a06040526009805460ff191660141790556001600a5534801561002257600080fd5b5060405162001f5a38038062001f5a833981016040819052610043916100c8565b806001600160a01b0381166100a95760405162461bcd60e51b815260206004820152602260248201527f506c656173652070726f766964652076616c696420726f6c6573206164647265604482015261737360f01b606482015260840160405180910390fd5b60601b6001600160601b0319166080525060029190915560035561010c565b6000806000606084860312156100dc578283fd5b83516020850151604086015191945092506001600160a01b0381168114610101578182fd5b809150509250925092565b60805160601c611e136200014760003960008181610219015281816103eb015281816106f90152818161185901526118f10152611e136000f3fe608060405234801561001057600080fd5b50600436106101825760003560e01c80637a1a04df116100d8578063bc2b28af1161008c578063e15ac98a11610066578063e15ac98a14610373578063e9c3f77d14610386578063f1c27000146103af57610182565b8063bc2b28af1461034e578063dc8f5fac14610357578063dcc756041461036057610182565b8063a7cce85c116100bd578063a7cce85c14610308578063ab2f3ad41461031b578063b5f1fb511461033b57610182565b80637a1a04df146102a75780637bad080a146102e557610182565b8063447d52ba1161013a5780635654cfc1116101145780635654cfc1146102785780635be072f21461028b57806361a3f9351461029e57610182565b8063447d52ba1461023b5780634dd7c0561461024e578063543eeef91461026157610182565b80631531841b1161016b5780631531841b146101d65780632a3e4dc2146101e9578063392f5f641461021457610182565b8063071060a6146101875780630c977ed21461019c575b600080fd5b61019a610195366004611c64565b6103bc565b005b6101bf6101aa366004611b37565b60086020526000908152604090205460ff1681565b60405160ff90911681526020015b60405180910390f35b61019a6101e4366004611b6f565b6104b3565b6101fc6101f7366004611c64565b610690565b6040516001600160a01b0390911681526020016101cd565b6101fc7f000000000000000000000000000000000000000000000000000000000000000081565b61019a610249366004611c7c565b6106ba565b61019a61025c366004611b6f565b6107ab565b61026a60035481565b6040519081526020016101cd565b61019a610286366004611b6f565b61089f565b61019a610299366004611c64565b610993565b61026a600a5481565b6102d56102b5366004611b6f565b600160209081526000928352604080842090915290825290205460ff1681565b60405190151581526020016101cd565b6101bf6102f3366004611b37565b60076020526000908152604090205460ff1681565b61019a610316366004611c64565b610a11565b61026a610329366004611b37565b60056020526000908152604090205481565b61019a610349366004611b9a565b610a8f565b61026a60025481565b61026a60065481565b61019a61036e366004611c64565b6116d7565b61019a610381366004611b6f565b611755565b6101fc610394366004611c64565b6000602081905290815260409020546001600160a01b031681565b6009546101bf9060ff1681565b6040517fb4ed0b6d000000000000000000000000000000000000000000000000000000008152600481018290527f00000000000000000000000000000000000000000000000000000000000000006001600160a01b03169063b4ed0b6d9060240160206040518083038186803b15801561043557600080fd5b505afa158015610449573d6000803e3d6000fd5b505050506040513d601f19601f8201168201806040525081019061046d9190611b53565b60009182526020829052604090912080547fffffffffffffffffffffffff0000000000000000000000000000000000000000166001600160a01b03909216919091179055565b336104bc611855565b6001600160a01b031614806104e05750336104d56118ed565b6001600160a01b0316145b6105315760405162461bcd60e51b815260206004820152601e60248201527f526f6c65733a2063616c6c6572206973206e6f7420746865206f776e6572000060448201526064015b60405180910390fd5b606660009081526020527f422cccb7cea5c0e46f340bb7b21b81debac329f72e31669c20ff0f3a05cc2b5b546001600160a01b03166040517fd2b489340000000000000000000000000000000000000000000000000000000081526001600160a01b03848116600483015260248201849052919091169063d2b4893490604401600060405180830381600087803b1580156105cb57600080fd5b505af11580156105df573d6000803e3d6000fd5b50506068600090815260205250507faa071f48f62aaaa1f6320aaa7bd2ad2d552d05160892c14d699d38c9920d5f99546040517f1d47e4a30000000000000000000000000000000000000000000000000000000081526001600160a01b0384811660048301526024820184905290911690631d47e4a3906044015b600060405180830381600087803b15801561067457600080fd5b505af1158015610688573d6000803e3d6000fd5b505050505050565b600481815481106106a057600080fd5b6000918252602090912001546001600160a01b0316905081565b6040517f93552a3d000000000000000000000000000000000000000000000000000000008152600481018390526001600160a01b0382811660248301527f000000000000000000000000000000000000000000000000000000000000000016906393552a3d9060440160206040518083038186803b15801561073b57600080fd5b505afa15801561074f573d6000803e3d6000fd5b505050506040513d601f19601f820116820180604052508101906107739190611c44565b6001600160a01b0391909116600090815260016020908152604080832094835293905291909120805460ff1916911515919091179055565b336107b4611855565b6001600160a01b031614806107d85750336107cd6118ed565b6001600160a01b0316145b6108245760405162461bcd60e51b815260206004820152601e60248201527f526f6c65733a2063616c6c6572206973206e6f7420746865206f776e657200006044820152606401610528565b606660009081526020527f422cccb7cea5c0e46f340bb7b21b81debac329f72e31669c20ff0f3a05cc2b5b546040517ff90889c90000000000000000000000000000000000000000000000000000000081526001600160a01b038481166004830152602482018490529091169063f90889c99060440161065a565b336108a8611855565b6001600160a01b031614806108cc5750336108c16118ed565b6001600160a01b0316145b6109185760405162461bcd60e51b815260206004820152601e60248201527f526f6c65733a2063616c6c6572206973206e6f7420746865206f776e657200006044820152606401610528565b606660009081526020527f422cccb7cea5c0e46f340bb7b21b81debac329f72e31669c20ff0f3a05cc2b5b546040517fa387832f0000000000000000000000000000000000000000000000000000000081526001600160a01b038481166004830152602482018490529091169063a387832f9060440161065a565b3361099c611855565b6001600160a01b031614806109c05750336109b56118ed565b6001600160a01b0316145b610a0c5760405162461bcd60e51b815260206004820152601e60248201527f526f6c65733a2063616c6c6572206973206e6f7420746865206f776e657200006044820152606401610528565b600255565b33610a1a611855565b6001600160a01b03161480610a3e575033610a336118ed565b6001600160a01b0316145b610a8a5760405162461bcd60e51b815260206004820152601e60248201527f526f6c65733a2063616c6c6572206973206e6f7420746865206f776e657200006044820152606401610528565b600a55565b33610a98611855565b6001600160a01b03161480610abc575033610ab16118ed565b6001600160a01b0316145b610b085760405162461bcd60e51b815260206004820152601e60248201527f526f6c65733a2063616c6c6572206973206e6f7420746865206f776e657200006044820152606401610528565b606660009081526020527f422cccb7cea5c0e46f340bb7b21b81debac329f72e31669c20ff0f3a05cc2b5b546001600160a01b03166040517f797384b20000000000000000000000000000000000000000000000000000000081526001600160a01b038981166004830152919091169063797384b29060240160206040518083038186803b158015610b9957600080fd5b505afa158015610bad573d6000803e3d6000fd5b505050506040513d601f19601f82011682018060405250810190610bd19190611c44565b15610c1e5760405162461bcd60e51b815260206004820152601760248201527f546f6b656e20616c7265616479206973206163746976650000000000000000006044820152606401610528565b606660009081526020527f422cccb7cea5c0e46f340bb7b21b81debac329f72e31669c20ff0f3a05cc2b5b546001600160a01b03166040517f4b86daab0000000000000000000000000000000000000000000000000000000081526001600160a01b0389811660048301529190911690634b86daab90602401600060405180830381600087803b158015610cb157600080fd5b505af1158015610cc5573d6000803e3d6000fd5b50506068600090815260205250507faa071f48f62aaaa1f6320aaa7bd2ad2d552d05160892c14d699d38c9920d5f99546001600160a01b03166040517f1d47e4a30000000000000000000000000000000000000000000000000000000081526001600160a01b038981166004830152602482018990529190911690631d47e4a390604401600060405180830381600087803b158015610d6357600080fd5b505af1158015610d77573d6000803e3d6000fd5b50506066600090815260205250507f422cccb7cea5c0e46f340bb7b21b81debac329f72e31669c20ff0f3a05cc2b5b546001600160a01b03166040517fd2b489340000000000000000000000000000000000000000000000000000000081526001600160a01b03898116600483015260248201899052919091169063d2b4893490604401600060405180830381600087803b158015610e1557600080fd5b505af1158015610e29573d6000803e3d6000fd5b50506066600090815260205250507f422cccb7cea5c0e46f340bb7b21b81debac329f72e31669c20ff0f3a05cc2b5b546001600160a01b03166040517fa387832f0000000000000000000000000000000000000000000000000000000081526001600160a01b03898116600483015260248201889052919091169063a387832f90604401600060405180830381600087803b158015610ec757600080fd5b505af1158015610edb573d6000803e3d6000fd5b50506066600090815260205250507f422cccb7cea5c0e46f340bb7b21b81debac329f72e31669c20ff0f3a05cc2b5b546001600160a01b0316600a546040517ff90889c90000000000000000000000000000000000000000000000000000000081526001600160a01b038a81166004830152602482019290925291169063f90889c990604401600060405180830381600087803b158015610f7b57600080fd5b505af1158015610f8f573d6000803e3d6000fd5b50506066600090815260205250507f422cccb7cea5c0e46f340bb7b21b81debac329f72e31669c20ff0f3a05cc2b5b546001600160a01b03166040517fcc4b26a30000000000000000000000000000000000000000000000000000000081526001600160a01b038981166004830152919091169063cc4b26a390602401600060405180830381600087803b15801561102657600080fd5b505af115801561103a573d6000803e3d6000fd5b5050505060008411156116ce5783600660008282546110599190611d03565b90915550506001600160a01b03871660009081526005602052604081208590556110b4606c60009081526020527f3c1fcba39712202dbd455253568bf32dd0a3bedb5c3ff0de4b22d4e45e50dc92546001600160a01b031690565b905060006110c48660025461195e565b6009546040517f2908244700000000000000000000000000000000000000000000000000000000815260ff9091166004820152602481018290529091506001600160a01b03831690632908244790604401600060405180830381600087803b15801561112f57600080fd5b505af1158015611143573d6000803e3d6000fd5b50506009546001600160a01b038c166000908152600760205260409020805460ff191660ff909216919091179055506111af9050606660009081526020527f422cccb7cea5c0e46f340bb7b21b81debac329f72e31669c20ff0f3a05cc2b5b546001600160a01b031690565b6009546040517f2864f4010000000000000000000000000000000000000000000000000000000081526001600160a01b038c8116600483015260ff9092166024820152911690632864f40190604401600060405180830381600087803b15801561121857600080fd5b505af115801561122c573d6000803e3d6000fd5b50506009805460ff1692509050600061124483611d8f565b91906101000a81548160ff021916908360ff16021790555050600061126b8760035461195e565b6009546040517f2908244700000000000000000000000000000000000000000000000000000000815260ff9091166004820152602481018290529091506001600160a01b03841690632908244790604401600060405180830381600087803b1580156112d657600080fd5b505af11580156112ea573d6000803e3d6000fd5b50506009546001600160a01b038d166000908152600860205260409020805460ff191660ff909216919091179055506113569050606760009081526020527f682158d08466d11c566d5712d4396197fdd67e65be71d83c97ef719ec468867b546001600160a01b031690565b6009546040517f2864f4010000000000000000000000000000000000000000000000000000000081526001600160a01b038d8116600483015260ff9092166024820152911690632864f40190604401600060405180830381600087803b1580156113bf57600080fd5b505af11580156113d3573d6000803e3d6000fd5b50506009805460ff169250905060006113eb83611d8f565b91906101000a81548160ff021916908360ff1602179055505061140d8361197f565b6004805460018101825560009182527f8a35acfbc15ff81a39ae7d344fd709f28e8600b4aa8c65c6b64bfe7fe36bd19b0180547fffffffffffffffffffffffff0000000000000000000000000000000000000000166001600160a01b038d1690811790915590869086908161149257634e487b7160e01b600052603260045260246000fd5b90506020020160208101906114a79190611b37565b6001600160a01b03161480156115b05750606860009081526020527faa071f48f62aaaa1f6320aaa7bd2ad2d552d05160892c14d699d38c9920d5f99546001600160a01b03166001600160a01b0316631f1cb62b6040518163ffffffff1660e01b815260040160206040518083038186803b15801561152557600080fd5b505afa158015611539573d6000803e3d6000fd5b505050506040513d601f19601f8201168201806040525081019061155d9190611b53565b6001600160a01b03168585611573600182611d78565b81811061159057634e487b7160e01b600052603260045260246000fd5b90506020020160208101906115a59190611b37565b6001600160a01b0316145b6116225760405162461bcd60e51b815260206004820152603860248201527f496e76616c6964206c69717569646174696f6e546f6b656e73202d2d2073686f60448201527f756c6420676f2066726f6d20746f6b656e20746f2070656700000000000000006064820152608401610528565b606860009081526020527faa071f48f62aaaa1f6320aaa7bd2ad2d552d05160892c14d699d38c9920d5f99546040517f2b23f8570000000000000000000000000000000000000000000000000000000081526001600160a01b0390911690632b23f8579061169890899089908990600401611cab565b600060405180830381600087803b1580156116b257600080fd5b505af11580156116c6573d6000803e3d6000fd5b505050505050505b50505050505050565b336116e0611855565b6001600160a01b031614806117045750336116f96118ed565b6001600160a01b0316145b6117505760405162461bcd60e51b815260206004820152601e60248201527f526f6c65733a2063616c6c6572206973206e6f7420746865206f776e657200006044820152606401610528565b600355565b3361175e611855565b6001600160a01b031614806117825750336117776118ed565b6001600160a01b0316145b6117ce5760405162461bcd60e51b815260206004820152601e60248201527f526f6c65733a2063616c6c6572206973206e6f7420746865206f776e657200006044820152606401610528565b6001600160a01b0382166000908152600560205260409020546006546117f5908390611d03565b6117ff9190611d78565b6006556001600160a01b0382811660009081526005602090815260408220849055606c8252527f3c1fcba39712202dbd455253568bf32dd0a3bedb5c3ff0de4b22d4e45e50dc9254611851911661197f565b5050565b60007f00000000000000000000000000000000000000000000000000000000000000006001600160a01b0316638da5cb5b6040518163ffffffff1660e01b815260040160206040518083038186803b1580156118b057600080fd5b505afa1580156118c4573d6000803e3d6000fd5b505050506040513d601f19601f820116820180604052508101906118e89190611b53565b905090565b60007f00000000000000000000000000000000000000000000000000000000000000006001600160a01b031663c34c08e56040518163ffffffff1660e01b8152600401602060405180830381600087803b15801561194a57600080fd5b505af11580156118c4573d6000803e3d6000fd5b60065460009061196e8385611d3b565b6119789190611d1b565b9392505050565b60005b60045460ff8216101561185157600060048260ff16815481106119b557634e487b7160e01b600052603260045260246000fd5b60009182526020808320909101546001600160a01b03168083526005909152604082205460025491935091906119ec90839061195e565b6001600160a01b03848116600090815260076020526040908190205490517f5a66895600000000000000000000000000000000000000000000000000000000815260ff909116600482015260248101839052919250861690635a66895690604401600060405180830381600087803b158015611a6757600080fd5b505af1158015611a7b573d6000803e3d6000fd5b505050506000611a8d8360035461195e565b6001600160a01b03858116600090815260086020526040908190205490517f5a66895600000000000000000000000000000000000000000000000000000000815260ff909116600482015260248101839052919250871690635a66895690604401600060405180830381600087803b158015611b0857600080fd5b505af1158015611b1c573d6000803e3d6000fd5b50505050505050508080611b2f90611d8f565b915050611982565b600060208284031215611b48578081fd5b813561197881611dc5565b600060208284031215611b64578081fd5b815161197881611dc5565b60008060408385031215611b81578081fd5b8235611b8c81611dc5565b946020939093013593505050565b600080600080600080600060c0888a031215611bb4578283fd5b8735611bbf81611dc5565b96506020880135955060408801359450606088013593506080880135925060a088013567ffffffffffffffff80821115611bf7578384fd5b818a0191508a601f830112611c0a578384fd5b813581811115611c18578485fd5b8b60208260051b8501011115611c2c578485fd5b60208301945080935050505092959891949750929550565b600060208284031215611c55578081fd5b81518015158114611978578182fd5b600060208284031215611c75578081fd5b5035919050565b60008060408385031215611c8e578182fd5b823591506020830135611ca081611dc5565b809150509250929050565b83815260406020808301829052908201839052600090849060608401835b86811015611cf7578335611cdc81611dc5565b6001600160a01b031682529282019290820190600101611cc9565b50979650505050505050565b60008219821115611d1657611d16611daf565b500190565b600082611d3657634e487b7160e01b81526012600452602481fd5b500490565b6000817fffffffffffffffffffffffffffffffffffffffffffffffffffffffffffffffff0483118215151615611d7357611d73611daf565b500290565b600082821015611d8a57611d8a611daf565b500390565b600060ff821660ff811415611da657611da6611daf565b60010192915050565b634e487b7160e01b600052601160045260246000fd5b6001600160a01b0381168114611dda57600080fd5b5056fea2646970667358221220776e30318c51f66ad3de9118174be294dc589a70f91623fb7fe626b86ab1fd6f64736f6c63430008030033",
  "linkReferences": {},
  "deployedLinkReferences": {}
}