{
  "_format": "hh-sol-artifact-1",
  "contractName": "TokenAdmin",
  "sourceName": "contracts/TokenAdmin.sol",
  "abi": [
    {
      "inputs": [
        {
          "internalType": "uint256",
          "name": "lendingTargetPortion",
          "type": "uint256"
        },
        {
          "internalType": "uint256",
          "name": "borrowingTargetPortion",
          "type": "uint256"
        },
        {
          "internalType": "address",
          "name": "_roles",
          "type": "address"
        }
      ],
      "stateMutability": "nonpayable",
      "type": "constructor"
    },
    {
      "inputs": [
        {
          "internalType": "address",
          "name": "token",
          "type": "address"
        },
        {
          "internalType": "uint256",
          "name": "exposureCap",
          "type": "uint256"
        },
        {
          "internalType": "uint256",
          "name": "lendingBuffer",
          "type": "uint256"
        },
        {
          "internalType": "uint256",
          "name": "incentiveWeight",
          "type": "uint256"
        },
        {
          "internalType": "address[]",
          "name": "liquidationPairs",
          "type": "address[]"
        },
        {
          "internalType": "address[]",
          "name": "liquidationTokens",
          "type": "address[]"
        }
      ],
      "name": "activateToken",
      "outputs": [],
      "stateMutability": "nonpayable",
      "type": "function"
    },
    {
      "inputs": [
        {
          "internalType": "address",
          "name": "token",
          "type": "address"
        },
        {
          "internalType": "uint256",
          "name": "aprPercent",
          "type": "uint256"
        }
      ],
      "name": "changeHourlyYieldAPR",
      "outputs": [],
      "stateMutability": "nonpayable",
      "type": "function"
    },
    {
      "inputs": [
        {
          "internalType": "address",
          "name": "token",
          "type": "address"
        },
        {
          "internalType": "uint256",
          "name": "lendingBuffer",
          "type": "uint256"
        }
      ],
      "name": "changeLendingBuffer",
      "outputs": [],
      "stateMutability": "nonpayable",
      "type": "function"
    },
    {
      "inputs": [
        {
          "internalType": "address",
          "name": "token",
          "type": "address"
        },
        {
          "internalType": "uint256",
          "name": "exposureCap",
          "type": "uint256"
        }
      ],
      "name": "changeTokenCap",
      "outputs": [],
      "stateMutability": "nonpayable",
      "type": "function"
    },
    {
      "inputs": [
        {
          "internalType": "address",
          "name": "token",
          "type": "address"
        },
        {
          "internalType": "uint256",
          "name": "tokenWeight",
          "type": "uint256"
        }
      ],
      "name": "changeTokenIncentiveWeight",
      "outputs": [],
      "stateMutability": "nonpayable",
      "type": "function"
    },
    {
      "inputs": [
        {
          "internalType": "uint256",
          "name": "",
          "type": "uint256"
        }
      ],
      "name": "incentiveTokens",
      "outputs": [
        {
          "internalType": "address",
          "name": "",
          "type": "address"
        }
      ],
      "stateMutability": "view",
      "type": "function"
    },
    {
      "inputs": [],
      "name": "initHourlyYieldAPRPercent",
      "outputs": [
        {
          "internalType": "uint256",
          "name": "",
          "type": "uint256"
        }
      ],
      "stateMutability": "view",
      "type": "function"
    },
    {
      "inputs": [
        {
          "internalType": "uint256",
          "name": "",
          "type": "uint256"
        }
      ],
      "name": "mainCharacterCache",
      "outputs": [
        {
          "internalType": "address",
          "name": "",
          "type": "address"
        }
      ],
      "stateMutability": "view",
      "type": "function"
    },
    {
      "inputs": [],
      "name": "nextTrancheIndex",
      "outputs": [
        {
          "internalType": "uint8",
          "name": "",
          "type": "uint8"
        }
      ],
      "stateMutability": "view",
      "type": "function"
    },
    {
      "inputs": [
        {
          "internalType": "address",
          "name": "",
          "type": "address"
        },
        {
          "internalType": "uint256",
          "name": "",
          "type": "uint256"
        }
      ],
      "name": "roleCache",
      "outputs": [
        {
          "internalType": "bool",
          "name": "",
          "type": "bool"
        }
      ],
      "stateMutability": "view",
      "type": "function"
    },
    {
      "inputs": [],
      "name": "roles",
      "outputs": [
        {
          "internalType": "contract Roles",
          "name": "",
          "type": "address"
        }
      ],
      "stateMutability": "view",
      "type": "function"
    },
    {
      "inputs": [
        {
          "internalType": "uint256",
          "name": "portion",
          "type": "uint256"
        }
      ],
      "name": "setBorrowingTargetPortion",
      "outputs": [],
      "stateMutability": "nonpayable",
      "type": "function"
    },
    {
      "inputs": [
        {
          "internalType": "uint256",
          "name": "value",
          "type": "uint256"
        }
      ],
      "name": "setInitHourlyYieldAPR",
      "outputs": [],
      "stateMutability": "nonpayable",
      "type": "function"
    },
    {
      "inputs": [
        {
          "internalType": "uint256",
          "name": "portion",
          "type": "uint256"
        }
      ],
      "name": "setLendingTargetPortion",
      "outputs": [],
      "stateMutability": "nonpayable",
      "type": "function"
    },
    {
      "inputs": [
        {
          "internalType": "address",
          "name": "",
          "type": "address"
        }
      ],
      "name": "tokenBorrowingTranches",
      "outputs": [
        {
          "internalType": "uint8",
          "name": "",
          "type": "uint8"
        }
      ],
      "stateMutability": "view",
      "type": "function"
    },
    {
      "inputs": [
        {
          "internalType": "address",
          "name": "",
          "type": "address"
        }
      ],
      "name": "tokenLendingTranches",
      "outputs": [
        {
          "internalType": "uint8",
          "name": "",
          "type": "uint8"
        }
      ],
      "stateMutability": "view",
      "type": "function"
    },
    {
      "inputs": [
        {
          "internalType": "address",
          "name": "",
          "type": "address"
        }
      ],
      "name": "tokenWeights",
      "outputs": [
        {
          "internalType": "uint256",
          "name": "",
          "type": "uint256"
        }
      ],
      "stateMutability": "view",
      "type": "function"
    },
    {
      "inputs": [],
      "name": "totalBorrowingTargetPortion",
      "outputs": [
        {
          "internalType": "uint256",
          "name": "",
          "type": "uint256"
        }
      ],
      "stateMutability": "view",
      "type": "function"
    },
    {
      "inputs": [],
      "name": "totalLendingTargetPortion",
      "outputs": [
        {
          "internalType": "uint256",
          "name": "",
          "type": "uint256"
        }
      ],
      "stateMutability": "view",
      "type": "function"
    },
    {
      "inputs": [],
      "name": "totalTokenWeights",
      "outputs": [
        {
          "internalType": "uint256",
          "name": "",
          "type": "uint256"
        }
      ],
      "stateMutability": "view",
      "type": "function"
    },
    {
      "inputs": [
        {
          "internalType": "uint256",
          "name": "role",
          "type": "uint256"
        }
      ],
      "name": "updateMainCharacterCache",
      "outputs": [],
      "stateMutability": "nonpayable",
      "type": "function"
    },
    {
      "inputs": [
        {
          "internalType": "uint256",
          "name": "role",
          "type": "uint256"
        },
        {
          "internalType": "address",
          "name": "contr",
          "type": "address"
        }
      ],
      "name": "updateRoleCache",
      "outputs": [],
      "stateMutability": "nonpayable",
      "type": "function"
    }
  ],
  "bytecode": "0x60a06040526009805460ff19166014179055600a80553480156200002257600080fd5b506040516200219c3803806200219c8339810160408190526200004591620000cc565b806001600160a01b038116620000ac5760405162461bcd60e51b815260206004820152602260248201527f506c656173652070726f766964652076616c696420726f6c6573206164647265604482015261737360f01b606482015260840160405180910390fd5b60601b6001600160601b0319166080525060029190915560035562000112565b600080600060608486031215620000e1578283fd5b83516020850151604086015191945092506001600160a01b038116811462000107578182fd5b809150509250925092565b60805160601c61204f6200014d60003960008181610219015281816103eb01528181610713015281816119ec0152611a84015261204f6000f3fe608060405234801561001057600080fd5b50600436106101825760003560e01c80637a1a04df116100d8578063bf5313521161008c578063e15ac98a11610066578063e15ac98a14610373578063e9c3f77d14610386578063f1c27000146103af57610182565b8063bf53135214610344578063dc8f5fac14610357578063dcc756041461036057610182565b8063a7cce85c116100bd578063a7cce85c14610308578063ab2f3ad41461031b578063bc2b28af1461033b57610182565b80637a1a04df146102a75780637bad080a146102e557610182565b8063447d52ba1161013a5780635654cfc1116101145780635654cfc1146102785780635be072f21461028b57806361a3f9351461029e57610182565b8063447d52ba1461023b5780634dd7c0561461024e578063543eeef91461026157610182565b80631531841b1161016b5780631531841b146101d65780632a3e4dc2146101e9578063392f5f641461021457610182565b8063071060a6146101875780630c977ed21461019c575b600080fd5b61019a610195366004611e4c565b6103bc565b005b6101bf6101aa366004611d2d565b60086020526000908152604090205460ff1681565b60405160ff90911681526020015b60405180910390f35b61019a6101e4366004611d65565b6104b3565b6101fc6101f7366004611e4c565b6106aa565b6040516001600160a01b0390911681526020016101cd565b6101fc7f000000000000000000000000000000000000000000000000000000000000000081565b61019a610249366004611e64565b6106d4565b61019a61025c366004611d65565b6107e3565b61026a60035481565b6040519081526020016101cd565b61019a610286366004611d65565b6108f1565b61019a610299366004611e4c565b6109ff565b61026a600a5481565b6102d56102b5366004611d65565b600160209081526000928352604080842090915290825290205460ff1681565b60405190151581526020016101cd565b6101bf6102f3366004611d2d565b60076020526000908152604090205460ff1681565b61019a610316366004611e4c565b610a97565b61026a610329366004611d2d565b60056020526000908152604090205481565b61026a60025481565b61019a610352366004611d90565b610b2f565b61026a60065481565b61019a61036e366004611e4c565b611836565b61019a610381366004611d65565b6118ce565b6101fc610394366004611e4c565b6000602081905290815260409020546001600160a01b031681565b6009546101bf9060ff1681565b6040517fb4ed0b6d000000000000000000000000000000000000000000000000000000008152600481018290527f00000000000000000000000000000000000000000000000000000000000000006001600160a01b03169063b4ed0b6d9060240160206040518083038186803b15801561043557600080fd5b505afa158015610449573d6000803e3d6000fd5b505050506040513d601f19601f8201168201806040525081019061046d9190611d49565b60009182526020829052604090912080547fffffffffffffffffffffffff0000000000000000000000000000000000000000166001600160a01b03909216919091179055565b336104bc6119e8565b6001600160a01b031614806104e05750336104d5611a80565b6001600160a01b0316145b61054b576040517f08c379a000000000000000000000000000000000000000000000000000000000815260206004820152601e60248201527f526f6c65733a2063616c6c6572206973206e6f7420746865206f776e6572000060448201526064015b60405180910390fd5b606660009081526020527f422cccb7cea5c0e46f340bb7b21b81debac329f72e31669c20ff0f3a05cc2b5b546001600160a01b03166040517fd2b489340000000000000000000000000000000000000000000000000000000081526001600160a01b03848116600483015260248201849052919091169063d2b4893490604401600060405180830381600087803b1580156105e557600080fd5b505af11580156105f9573d6000803e3d6000fd5b50506068600090815260205250507faa071f48f62aaaa1f6320aaa7bd2ad2d552d05160892c14d699d38c9920d5f99546040517f1d47e4a30000000000000000000000000000000000000000000000000000000081526001600160a01b0384811660048301526024820184905290911690631d47e4a3906044015b600060405180830381600087803b15801561068e57600080fd5b505af11580156106a2573d6000803e3d6000fd5b505050505050565b600481815481106106ba57600080fd5b6000918252602090912001546001600160a01b0316905081565b6040517f93552a3d000000000000000000000000000000000000000000000000000000008152600481018390526001600160a01b0382811660248301527f000000000000000000000000000000000000000000000000000000000000000016906393552a3d9060440160206040518083038186803b15801561075557600080fd5b505afa158015610769573d6000803e3d6000fd5b505050506040513d601f19601f8201168201806040525081019061078d9190611e2c565b6001600160a01b039190911660009081526001602090815260408083209483529390529190912080547fffffffffffffffffffffffffffffffffffffffffffffffffffffffffffffff0016911515919091179055565b336107ec6119e8565b6001600160a01b03161480610810575033610805611a80565b6001600160a01b0316145b610876576040517f08c379a000000000000000000000000000000000000000000000000000000000815260206004820152601e60248201527f526f6c65733a2063616c6c6572206973206e6f7420746865206f776e657200006044820152606401610542565b606660009081526020527f422cccb7cea5c0e46f340bb7b21b81debac329f72e31669c20ff0f3a05cc2b5b546040517ff90889c90000000000000000000000000000000000000000000000000000000081526001600160a01b038481166004830152602482018490529091169063f90889c990604401610674565b336108fa6119e8565b6001600160a01b0316148061091e575033610913611a80565b6001600160a01b0316145b610984576040517f08c379a000000000000000000000000000000000000000000000000000000000815260206004820152601e60248201527f526f6c65733a2063616c6c6572206973206e6f7420746865206f776e657200006044820152606401610542565b606660009081526020527f422cccb7cea5c0e46f340bb7b21b81debac329f72e31669c20ff0f3a05cc2b5b546040517fa387832f0000000000000000000000000000000000000000000000000000000081526001600160a01b038481166004830152602482018490529091169063a387832f90604401610674565b33610a086119e8565b6001600160a01b03161480610a2c575033610a21611a80565b6001600160a01b0316145b610a92576040517f08c379a000000000000000000000000000000000000000000000000000000000815260206004820152601e60248201527f526f6c65733a2063616c6c6572206973206e6f7420746865206f776e657200006044820152606401610542565b600255565b33610aa06119e8565b6001600160a01b03161480610ac4575033610ab9611a80565b6001600160a01b0316145b610b2a576040517f08c379a000000000000000000000000000000000000000000000000000000000815260206004820152601e60248201527f526f6c65733a2063616c6c6572206973206e6f7420746865206f776e657200006044820152606401610542565b600a55565b33610b386119e8565b6001600160a01b03161480610b5c575033610b51611a80565b6001600160a01b0316145b610bc2576040517f08c379a000000000000000000000000000000000000000000000000000000000815260206004820152601e60248201527f526f6c65733a2063616c6c6572206973206e6f7420746865206f776e657200006044820152606401610542565b606660009081526020527f422cccb7cea5c0e46f340bb7b21b81debac329f72e31669c20ff0f3a05cc2b5b546001600160a01b03166040517f797384b20000000000000000000000000000000000000000000000000000000081526001600160a01b038a81166004830152919091169063797384b29060240160206040518083038186803b158015610c5357600080fd5b505afa158015610c67573d6000803e3d6000fd5b505050506040513d601f19601f82011682018060405250810190610c8b9190611e2c565b15610cf2576040517f08c379a000000000000000000000000000000000000000000000000000000000815260206004820152601760248201527f546f6b656e20616c7265616479206973206163746976650000000000000000006044820152606401610542565b606660009081526020527f422cccb7cea5c0e46f340bb7b21b81debac329f72e31669c20ff0f3a05cc2b5b546001600160a01b03166040517f4b86daab0000000000000000000000000000000000000000000000000000000081526001600160a01b038a811660048301529190911690634b86daab90602401600060405180830381600087803b158015610d8557600080fd5b505af1158015610d99573d6000803e3d6000fd5b50506068600090815260205250507faa071f48f62aaaa1f6320aaa7bd2ad2d552d05160892c14d699d38c9920d5f99546001600160a01b03166040517f1d47e4a30000000000000000000000000000000000000000000000000000000081526001600160a01b038a81166004830152602482018a90529190911690631d47e4a390604401600060405180830381600087803b158015610e3757600080fd5b505af1158015610e4b573d6000803e3d6000fd5b50506066600090815260205250507f422cccb7cea5c0e46f340bb7b21b81debac329f72e31669c20ff0f3a05cc2b5b546001600160a01b03166040517fd2b489340000000000000000000000000000000000000000000000000000000081526001600160a01b038a81166004830152602482018a9052919091169063d2b4893490604401600060405180830381600087803b158015610ee957600080fd5b505af1158015610efd573d6000803e3d6000fd5b50506066600090815260205250507f422cccb7cea5c0e46f340bb7b21b81debac329f72e31669c20ff0f3a05cc2b5b546001600160a01b03166040517fa387832f0000000000000000000000000000000000000000000000000000000081526001600160a01b038a8116600483015260248201899052919091169063a387832f90604401600060405180830381600087803b158015610f9b57600080fd5b505af1158015610faf573d6000803e3d6000fd5b50506066600090815260205250507f422cccb7cea5c0e46f340bb7b21b81debac329f72e31669c20ff0f3a05cc2b5b546001600160a01b0316600a546040517ff90889c90000000000000000000000000000000000000000000000000000000081526001600160a01b038b81166004830152602482019290925291169063f90889c990604401600060405180830381600087803b15801561104f57600080fd5b505af1158015611063573d6000803e3d6000fd5b50506066600090815260205250507f422cccb7cea5c0e46f340bb7b21b81debac329f72e31669c20ff0f3a05cc2b5b546001600160a01b03166040517fcc4b26a30000000000000000000000000000000000000000000000000000000081526001600160a01b038a81166004830152919091169063cc4b26a390602401600060405180830381600087803b1580156110fa57600080fd5b505af115801561110e573d6000803e3d6000fd5b50505050600085111561182c57846006600082825461112d9190611f0d565b90915550506001600160a01b0388166000908152600560205260408120869055611188606c60009081526020527f3c1fcba39712202dbd455253568bf32dd0a3bedb5c3ff0de4b22d4e45e50dc92546001600160a01b031690565b9050600061119887600254611af1565b6009546040517f2908244700000000000000000000000000000000000000000000000000000000815260ff9091166004820152602481018290529091506001600160a01b03831690632908244790604401600060405180830381600087803b15801561120357600080fd5b505af1158015611217573d6000803e3d6000fd5b50506009546001600160a01b038d16600090815260076020526040902080547fffffffffffffffffffffffffffffffffffffffffffffffffffffffffffffff001660ff909216919091179055506112a19050606660009081526020527f422cccb7cea5c0e46f340bb7b21b81debac329f72e31669c20ff0f3a05cc2b5b546001600160a01b031690565b6009546040517f2864f4010000000000000000000000000000000000000000000000000000000081526001600160a01b038d8116600483015260ff9092166024820152911690632864f40190604401600060405180830381600087803b15801561130a57600080fd5b505af115801561131e573d6000803e3d6000fd5b50506009805460ff1692509050600061133683611fb2565b91906101000a81548160ff021916908360ff16021790555050600061135d88600354611af1565b6009546040517f2908244700000000000000000000000000000000000000000000000000000000815260ff9091166004820152602481018290529091506001600160a01b03841690632908244790604401600060405180830381600087803b1580156113c857600080fd5b505af11580156113dc573d6000803e3d6000fd5b50506009546001600160a01b038e16600090815260086020526040902080547fffffffffffffffffffffffffffffffffffffffffffffffffffffffffffffff001660ff909216919091179055506114669050606760009081526020527f682158d08466d11c566d5712d4396197fdd67e65be71d83c97ef719ec468867b546001600160a01b031690565b6009546040517f2864f4010000000000000000000000000000000000000000000000000000000081526001600160a01b038e8116600483015260ff9092166024820152911690632864f40190604401600060405180830381600087803b1580156114cf57600080fd5b505af11580156114e3573d6000803e3d6000fd5b50506009805460ff169250905060006114fb83611fb2565b91906101000a81548160ff021916908360ff1602179055505061151d83611b12565b6004805460018101825560009182527f8a35acfbc15ff81a39ae7d344fd709f28e8600b4aa8c65c6b64bfe7fe36bd19b0180547fffffffffffffffffffffffff0000000000000000000000000000000000000000166001600160a01b038e169081179091559086908690816115bb577f4e487b7100000000000000000000000000000000000000000000000000000000600052603260045260246000fd5b90506020020160208101906115d09190611d2d565b6001600160a01b03161480156116f25750606860009081526020527faa071f48f62aaaa1f6320aaa7bd2ad2d552d05160892c14d699d38c9920d5f99546001600160a01b03166001600160a01b0316631f1cb62b6040518163ffffffff1660e01b815260040160206040518083038186803b15801561164e57600080fd5b505afa158015611662573d6000803e3d6000fd5b505050506040513d601f19601f820116820180604052508101906116869190611d49565b6001600160a01b0316858561169c600182611f9b565b8181106116d2577f4e487b7100000000000000000000000000000000000000000000000000000000600052603260045260246000fd5b90506020020160208101906116e79190611d2d565b6001600160a01b0316145b61177e576040517f08c379a000000000000000000000000000000000000000000000000000000000815260206004820152603860248201527f496e76616c6964206c69717569646174696f6e546f6b656e73202d2d2073686f60448201527f756c6420676f2066726f6d20746f6b656e20746f2070656700000000000000006064820152608401610542565b606860009081526020527faa071f48f62aaaa1f6320aaa7bd2ad2d552d05160892c14d699d38c9920d5f99546040517f288ddbdc0000000000000000000000000000000000000000000000000000000081526001600160a01b039091169063288ddbdc906117f6908a908a908a908a90600401611edb565b600060405180830381600087803b15801561181057600080fd5b505af1158015611824573d6000803e3d6000fd5b505050505050505b5050505050505050565b3361183f6119e8565b6001600160a01b03161480611863575033611858611a80565b6001600160a01b0316145b6118c9576040517f08c379a000000000000000000000000000000000000000000000000000000000815260206004820152601e60248201527f526f6c65733a2063616c6c6572206973206e6f7420746865206f776e657200006044820152606401610542565b600355565b336118d76119e8565b6001600160a01b031614806118fb5750336118f0611a80565b6001600160a01b0316145b611961576040517f08c379a000000000000000000000000000000000000000000000000000000000815260206004820152601e60248201527f526f6c65733a2063616c6c6572206973206e6f7420746865206f776e657200006044820152606401610542565b6001600160a01b038216600090815260056020526040902054600654611988908390611f0d565b6119929190611f9b565b6006556001600160a01b0382811660009081526005602090815260408220849055606c8252527f3c1fcba39712202dbd455253568bf32dd0a3bedb5c3ff0de4b22d4e45e50dc92546119e49116611b12565b5050565b60007f00000000000000000000000000000000000000000000000000000000000000006001600160a01b0316638da5cb5b6040518163ffffffff1660e01b815260040160206040518083038186803b158015611a4357600080fd5b505afa158015611a57573d6000803e3d6000fd5b505050506040513d601f19601f82011682018060405250810190611a7b9190611d49565b905090565b60007f00000000000000000000000000000000000000000000000000000000000000006001600160a01b031663c34c08e56040518163ffffffff1660e01b8152600401602060405180830381600087803b158015611add57600080fd5b505af1158015611a57573d6000803e3d6000fd5b600654600090611b018385611f5e565b611b0b9190611f25565b9392505050565b60005b60045460ff821610156119e457600060048260ff1681548110611b61577f4e487b7100000000000000000000000000000000000000000000000000000000600052603260045260246000fd5b60009182526020808320909101546001600160a01b0316808352600590915260408220546002549193509190611b98908390611af1565b6001600160a01b03848116600090815260076020526040908190205490517f5a66895600000000000000000000000000000000000000000000000000000000815260ff909116600482015260248101839052919250861690635a66895690604401600060405180830381600087803b158015611c1357600080fd5b505af1158015611c27573d6000803e3d6000fd5b505050506000611c3983600354611af1565b6001600160a01b03858116600090815260086020526040908190205490517f5a66895600000000000000000000000000000000000000000000000000000000815260ff909116600482015260248101839052919250871690635a66895690604401600060405180830381600087803b158015611cb457600080fd5b505af1158015611cc8573d6000803e3d6000fd5b50505050505050508080611cdb90611fb2565b915050611b15565b60008083601f840112611cf4578182fd5b50813567ffffffffffffffff811115611d0b578182fd5b6020830191508360208260051b8501011115611d2657600080fd5b9250929050565b600060208284031215611d3e578081fd5b8135611b0b81612001565b600060208284031215611d5a578081fd5b8151611b0b81612001565b60008060408385031215611d77578081fd5b8235611d8281612001565b946020939093013593505050565b60008060008060008060008060c0898b031215611dab578384fd5b8835611db681612001565b9750602089013596506040890135955060608901359450608089013567ffffffffffffffff80821115611de7578586fd5b611df38c838d01611ce3565b909650945060a08b0135915080821115611e0b578384fd5b50611e188b828c01611ce3565b999c989b5096995094979396929594505050565b600060208284031215611e3d578081fd5b81518015158114611b0b578182fd5b600060208284031215611e5d578081fd5b5035919050565b60008060408385031215611e76578182fd5b823591506020830135611e8881612001565b809150509250929050565b60008284526020808501945082825b85811015611ed0578135611eb581612001565b6001600160a01b031687529582019590820190600101611ea2565b509495945050505050565b600060408252611eef604083018688611e93565b8281036020840152611f02818587611e93565b979650505050505050565b60008219821115611f2057611f20611fd2565b500190565b600082611f59577f4e487b710000000000000000000000000000000000000000000000000000000081526012600452602481fd5b500490565b6000817fffffffffffffffffffffffffffffffffffffffffffffffffffffffffffffffff0483118215151615611f9657611f96611fd2565b500290565b600082821015611fad57611fad611fd2565b500390565b600060ff821660ff811415611fc957611fc9611fd2565b60010192915050565b7f4e487b7100000000000000000000000000000000000000000000000000000000600052601160045260246000fd5b6001600160a01b038116811461201657600080fd5b5056fea26469706673582212203e6b832382561a0ec23db85ea1de4503cf8951e1aa916b8431d09afabcc8cb5964736f6c63430008030033",
  "linkReferences": {},
  "deployedLinkReferences": {}
}