{
  "_format": "hh-sol-artifact-1",
  "contractName": "TokenAdmin",
  "sourceName": "contracts/TokenAdmin.sol",
  "abi": [
    {
      "inputs": [
        {
          "internalType": "uint256",
          "name": "lendingTargetPortion",
          "type": "uint256"
        },
        {
          "internalType": "uint256",
          "name": "borrowingTargetPortion",
          "type": "uint256"
        },
        {
          "internalType": "address",
          "name": "_roles",
          "type": "address"
        }
      ],
      "stateMutability": "nonpayable",
      "type": "constructor"
    },
    {
      "inputs": [
        {
          "internalType": "address",
          "name": "token",
          "type": "address"
        },
        {
          "internalType": "uint256",
          "name": "exposureCap",
          "type": "uint256"
        },
        {
          "internalType": "uint256",
          "name": "lendingBuffer",
          "type": "uint256"
        },
        {
          "internalType": "uint256",
          "name": "incentiveWeight",
          "type": "uint256"
        },
        {
          "internalType": "bytes32",
          "name": "amms",
          "type": "bytes32"
        },
        {
          "internalType": "address[]",
          "name": "liquidationTokens",
          "type": "address[]"
        }
      ],
      "name": "activateToken",
      "outputs": [],
      "stateMutability": "nonpayable",
      "type": "function"
    },
    {
      "inputs": [
        {
          "internalType": "address",
          "name": "token",
          "type": "address"
        },
        {
          "internalType": "uint256",
          "name": "aprPercent",
          "type": "uint256"
        }
      ],
      "name": "changeHourlyYieldAPR",
      "outputs": [],
      "stateMutability": "nonpayable",
      "type": "function"
    },
    {
      "inputs": [
        {
          "internalType": "address",
          "name": "token",
          "type": "address"
        },
        {
          "internalType": "uint256",
          "name": "lendingBuffer",
          "type": "uint256"
        }
      ],
      "name": "changeLendingBuffer",
      "outputs": [],
      "stateMutability": "nonpayable",
      "type": "function"
    },
    {
      "inputs": [
        {
          "internalType": "address",
          "name": "token",
          "type": "address"
        },
        {
          "internalType": "uint256",
          "name": "exposureCap",
          "type": "uint256"
        }
      ],
      "name": "changeTokenCap",
      "outputs": [],
      "stateMutability": "nonpayable",
      "type": "function"
    },
    {
      "inputs": [
        {
          "internalType": "address",
          "name": "token",
          "type": "address"
        },
        {
          "internalType": "uint256",
          "name": "tokenWeight",
          "type": "uint256"
        }
      ],
      "name": "changeTokenIncentiveWeight",
      "outputs": [],
      "stateMutability": "nonpayable",
      "type": "function"
    },
    {
      "inputs": [
        {
          "internalType": "uint256",
          "name": "",
          "type": "uint256"
        }
      ],
      "name": "incentiveTokens",
      "outputs": [
        {
          "internalType": "address",
          "name": "",
          "type": "address"
        }
      ],
      "stateMutability": "view",
      "type": "function"
    },
    {
      "inputs": [],
      "name": "initHourlyYieldAPRPercent",
      "outputs": [
        {
          "internalType": "uint256",
          "name": "",
          "type": "uint256"
        }
      ],
      "stateMutability": "view",
      "type": "function"
    },
    {
      "inputs": [
        {
          "internalType": "uint256",
          "name": "",
          "type": "uint256"
        }
      ],
      "name": "mainCharacterCache",
      "outputs": [
        {
          "internalType": "address",
          "name": "",
          "type": "address"
        }
      ],
      "stateMutability": "view",
      "type": "function"
    },
    {
      "inputs": [],
      "name": "nextTrancheIndex",
      "outputs": [
        {
          "internalType": "uint8",
          "name": "",
          "type": "uint8"
        }
      ],
      "stateMutability": "view",
      "type": "function"
    },
    {
      "inputs": [
        {
          "internalType": "address",
          "name": "",
          "type": "address"
        },
        {
          "internalType": "uint256",
          "name": "",
          "type": "uint256"
        }
      ],
      "name": "roleCache",
      "outputs": [
        {
          "internalType": "bool",
          "name": "",
          "type": "bool"
        }
      ],
      "stateMutability": "view",
      "type": "function"
    },
    {
      "inputs": [],
      "name": "roles",
      "outputs": [
        {
          "internalType": "contract Roles",
          "name": "",
          "type": "address"
        }
      ],
      "stateMutability": "view",
      "type": "function"
    },
    {
      "inputs": [
        {
          "internalType": "uint256",
          "name": "portion",
          "type": "uint256"
        }
      ],
      "name": "setBorrowingTargetPortion",
      "outputs": [],
      "stateMutability": "nonpayable",
      "type": "function"
    },
    {
      "inputs": [
        {
          "internalType": "uint256",
          "name": "value",
          "type": "uint256"
        }
      ],
      "name": "setInitHourlyYieldAPR",
      "outputs": [],
      "stateMutability": "nonpayable",
      "type": "function"
    },
    {
      "inputs": [
        {
          "internalType": "uint256",
          "name": "portion",
          "type": "uint256"
        }
      ],
      "name": "setLendingTargetPortion",
      "outputs": [],
      "stateMutability": "nonpayable",
      "type": "function"
    },
    {
      "inputs": [
        {
          "internalType": "address",
          "name": "",
          "type": "address"
        }
      ],
      "name": "tokenBorrowingTranches",
      "outputs": [
        {
          "internalType": "uint8",
          "name": "",
          "type": "uint8"
        }
      ],
      "stateMutability": "view",
      "type": "function"
    },
    {
      "inputs": [
        {
          "internalType": "address",
          "name": "",
          "type": "address"
        }
      ],
      "name": "tokenLendingTranches",
      "outputs": [
        {
          "internalType": "uint8",
          "name": "",
          "type": "uint8"
        }
      ],
      "stateMutability": "view",
      "type": "function"
    },
    {
      "inputs": [
        {
          "internalType": "address",
          "name": "",
          "type": "address"
        }
      ],
      "name": "tokenWeights",
      "outputs": [
        {
          "internalType": "uint256",
          "name": "",
          "type": "uint256"
        }
      ],
      "stateMutability": "view",
      "type": "function"
    },
    {
      "inputs": [],
      "name": "totalBorrowingTargetPortion",
      "outputs": [
        {
          "internalType": "uint256",
          "name": "",
          "type": "uint256"
        }
      ],
      "stateMutability": "view",
      "type": "function"
    },
    {
      "inputs": [],
      "name": "totalLendingTargetPortion",
      "outputs": [
        {
          "internalType": "uint256",
          "name": "",
          "type": "uint256"
        }
      ],
      "stateMutability": "view",
      "type": "function"
    },
    {
      "inputs": [],
      "name": "totalTokenWeights",
      "outputs": [
        {
          "internalType": "uint256",
          "name": "",
          "type": "uint256"
        }
      ],
      "stateMutability": "view",
      "type": "function"
    },
    {
      "inputs": [
        {
          "internalType": "uint256",
          "name": "role",
          "type": "uint256"
        }
      ],
      "name": "updateMainCharacterCache",
      "outputs": [],
      "stateMutability": "nonpayable",
      "type": "function"
    },
    {
      "inputs": [
        {
          "internalType": "uint256",
          "name": "role",
          "type": "uint256"
        },
        {
          "internalType": "address",
          "name": "contr",
          "type": "address"
        }
      ],
      "name": "updateRoleCache",
      "outputs": [],
      "stateMutability": "nonpayable",
      "type": "function"
    }
  ],
  "bytecode": "0x60a06040526009805460ff19166014179055600a805534801561002157600080fd5b5060405162001dc738038062001dc7833981016040819052610042916100c7565b806001600160a01b0381166100a85760405162461bcd60e51b815260206004820152602260248201527f506c656173652070726f766964652076616c696420726f6c6573206164647265604482015261737360f01b606482015260840160405180910390fd5b60601b6001600160601b0319166080525060029190915560035561010b565b6000806000606084860312156100db578283fd5b83516020850151604086015191945092506001600160a01b0381168114610100578182fd5b809150509250925092565b60805160601c611c816200014660003960008181610219015281816103eb015281816106bc0152818161171701526117af0152611c816000f3fe608060405234801561001057600080fd5b50600436106101825760003560e01c80637a1a04df116100d8578063bc2b28af1161008c578063e15ac98a11610066578063e15ac98a14610373578063e9c3f77d14610386578063f1c27000146103af57610182565b8063bc2b28af1461034e578063dc8f5fac14610357578063dcc756041461036057610182565b8063a7cce85c116100bd578063a7cce85c14610308578063ab2f3ad41461031b578063b5f1fb511461033b57610182565b80637a1a04df146102a75780637bad080a146102e557610182565b8063447d52ba1161013a5780635654cfc1116101145780635654cfc1146102785780635be072f21461028b57806361a3f9351461029e57610182565b8063447d52ba1461023b5780634dd7c0561461024e578063543eeef91461026157610182565b80631531841b1161016b5780631531841b146101d65780632a3e4dc2146101e9578063392f5f641461021457610182565b8063071060a6146101875780630c977ed21461019c575b600080fd5b61019a610195366004611af0565b6103bc565b005b6101bf6101aa3660046119c3565b60086020526000908152604090205460ff1681565b60405160ff90911681526020015b60405180910390f35b61019a6101e43660046119fb565b6104a8565b6101fc6101f7366004611af0565b610653565b6040516001600160a01b0390911681526020016101cd565b6101fc7f000000000000000000000000000000000000000000000000000000000000000081565b61019a610249366004611b08565b61067d565b61019a61025c3660046119fb565b61076e565b61026a60035481565b6040519081526020016101cd565b61019a6102863660046119fb565b610849565b61019a610299366004611af0565b610924565b61026a600a5481565b6102d56102b53660046119fb565b600160209081526000928352604080842090915290825290205460ff1681565b60405190151581526020016101cd565b6101bf6102f33660046119c3565b60076020526000908152604090205460ff1681565b61019a610316366004611af0565b6109a2565b61026a6103293660046119c3565b60056020526000908152604090205481565b61019a610349366004611a26565b610a20565b61026a60025481565b61026a60065481565b61019a61036e366004611af0565b611595565b61019a6103813660046119fb565b611613565b6101fc610394366004611af0565b6000602081905290815260409020546001600160a01b031681565b6009546101bf9060ff1681565b6040517fb4ed0b6d000000000000000000000000000000000000000000000000000000008152600481018290527f00000000000000000000000000000000000000000000000000000000000000006001600160a01b03169063b4ed0b6d9060240160206040518083038186803b15801561043557600080fd5b505afa158015610449573d6000803e3d6000fd5b505050506040513d601f19601f8201168201806040525081019061046d91906119df565b600091825260208290526040909120805473ffffffffffffffffffffffffffffffffffffffff19166001600160a01b03909216919091179055565b336104b1611713565b6001600160a01b031614806104d55750336104ca6117ab565b6001600160a01b0316145b6105265760405162461bcd60e51b815260206004820152601e60248201527f526f6c65733a2063616c6c6572206973206e6f7420746865206f776e6572000060448201526064015b60405180910390fd5b606660009081526020527f422cccb7cea5c0e46f340bb7b21b81debac329f72e31669c20ff0f3a05cc2b5b546001600160a01b03166040516334ad224d60e21b81526001600160a01b03848116600483015260248201849052919091169063d2b4893490604401600060405180830381600087803b1580156105a757600080fd5b505af11580156105bb573d6000803e3d6000fd5b50506068600090815260205250507faa071f48f62aaaa1f6320aaa7bd2ad2d552d05160892c14d699d38c9920d5f9954604051631d47e4a360e01b81526001600160a01b0384811660048301526024820184905290911690631d47e4a3906044015b600060405180830381600087803b15801561063757600080fd5b505af115801561064b573d6000803e3d6000fd5b505050505050565b6004818154811061066357600080fd5b6000918252602090912001546001600160a01b0316905081565b6040517f93552a3d000000000000000000000000000000000000000000000000000000008152600481018390526001600160a01b0382811660248301527f000000000000000000000000000000000000000000000000000000000000000016906393552a3d9060440160206040518083038186803b1580156106fe57600080fd5b505afa158015610712573d6000803e3d6000fd5b505050506040513d601f19601f820116820180604052508101906107369190611ad0565b6001600160a01b0391909116600090815260016020908152604080832094835293905291909120805460ff1916911515919091179055565b33610777611713565b6001600160a01b0316148061079b5750336107906117ab565b6001600160a01b0316145b6107e75760405162461bcd60e51b815260206004820152601e60248201527f526f6c65733a2063616c6c6572206973206e6f7420746865206f776e65720000604482015260640161051d565b606660009081526020527f422cccb7cea5c0e46f340bb7b21b81debac329f72e31669c20ff0f3a05cc2b5b5460405163f90889c960e01b81526001600160a01b038481166004830152602482018490529091169063f90889c99060440161061d565b33610852611713565b6001600160a01b0316148061087657503361086b6117ab565b6001600160a01b0316145b6108c25760405162461bcd60e51b815260206004820152601e60248201527f526f6c65733a2063616c6c6572206973206e6f7420746865206f776e65720000604482015260640161051d565b606660009081526020527f422cccb7cea5c0e46f340bb7b21b81debac329f72e31669c20ff0f3a05cc2b5b5460405163a387832f60e01b81526001600160a01b038481166004830152602482018490529091169063a387832f9060440161061d565b3361092d611713565b6001600160a01b031614806109515750336109466117ab565b6001600160a01b0316145b61099d5760405162461bcd60e51b815260206004820152601e60248201527f526f6c65733a2063616c6c6572206973206e6f7420746865206f776e65720000604482015260640161051d565b600255565b336109ab611713565b6001600160a01b031614806109cf5750336109c46117ab565b6001600160a01b0316145b610a1b5760405162461bcd60e51b815260206004820152601e60248201527f526f6c65733a2063616c6c6572206973206e6f7420746865206f776e65720000604482015260640161051d565b600a55565b33610a29611713565b6001600160a01b03161480610a4d575033610a426117ab565b6001600160a01b0316145b610a995760405162461bcd60e51b815260206004820152601e60248201527f526f6c65733a2063616c6c6572206973206e6f7420746865206f776e65720000604482015260640161051d565b606660009081526020527f422cccb7cea5c0e46f340bb7b21b81debac329f72e31669c20ff0f3a05cc2b5b546001600160a01b03166040517f797384b20000000000000000000000000000000000000000000000000000000081526001600160a01b038981166004830152919091169063797384b29060240160206040518083038186803b158015610b2a57600080fd5b505afa158015610b3e573d6000803e3d6000fd5b505050506040513d601f19601f82011682018060405250810190610b629190611ad0565b15610baf5760405162461bcd60e51b815260206004820152601760248201527f546f6b656e20616c726561647920697320616374697665000000000000000000604482015260640161051d565b606660009081526020527f422cccb7cea5c0e46f340bb7b21b81debac329f72e31669c20ff0f3a05cc2b5b546001600160a01b03166040517f4b86daab0000000000000000000000000000000000000000000000000000000081526001600160a01b0389811660048301529190911690634b86daab90602401600060405180830381600087803b158015610c4257600080fd5b505af1158015610c56573d6000803e3d6000fd5b50506068600090815260205250507faa071f48f62aaaa1f6320aaa7bd2ad2d552d05160892c14d699d38c9920d5f99546001600160a01b0316604051631d47e4a360e01b81526001600160a01b038981166004830152602482018990529190911690631d47e4a390604401600060405180830381600087803b158015610cdb57600080fd5b505af1158015610cef573d6000803e3d6000fd5b50506066600090815260205250507f422cccb7cea5c0e46f340bb7b21b81debac329f72e31669c20ff0f3a05cc2b5b546001600160a01b03166040516334ad224d60e21b81526001600160a01b03898116600483015260248201899052919091169063d2b4893490604401600060405180830381600087803b158015610d7457600080fd5b505af1158015610d88573d6000803e3d6000fd5b50506066600090815260205250507f422cccb7cea5c0e46f340bb7b21b81debac329f72e31669c20ff0f3a05cc2b5b546001600160a01b031660405163a387832f60e01b81526001600160a01b03898116600483015260248201889052919091169063a387832f90604401600060405180830381600087803b158015610e0d57600080fd5b505af1158015610e21573d6000803e3d6000fd5b50506066600090815260205250507f422cccb7cea5c0e46f340bb7b21b81debac329f72e31669c20ff0f3a05cc2b5b546001600160a01b0316600a5460405163f90889c960e01b81526001600160a01b038a81166004830152602482019290925291169063f90889c990604401600060405180830381600087803b158015610ea857600080fd5b505af1158015610ebc573d6000803e3d6000fd5b50506066600090815260205250507f422cccb7cea5c0e46f340bb7b21b81debac329f72e31669c20ff0f3a05cc2b5b546001600160a01b03166040517fcc4b26a30000000000000000000000000000000000000000000000000000000081526001600160a01b038981166004830152919091169063cc4b26a390602401600060405180830381600087803b158015610f5357600080fd5b505af1158015610f67573d6000803e3d6000fd5b50505050600084111561158c578360066000828254610f869190611b8f565b90915550506001600160a01b0387166000908152600560205260408120859055610fe1606c60009081526020527f3c1fcba39712202dbd455253568bf32dd0a3bedb5c3ff0de4b22d4e45e50dc92546001600160a01b031690565b90506000610ff18660025461181c565b600954604051632908244760e01b815260ff9091166004820152602481018290529091506001600160a01b03831690632908244790604401600060405180830381600087803b15801561104357600080fd5b505af1158015611057573d6000803e3d6000fd5b50506009546001600160a01b038c166000908152600760205260409020805460ff191660ff909216919091179055506110c39050606660009081526020527f422cccb7cea5c0e46f340bb7b21b81debac329f72e31669c20ff0f3a05cc2b5b546001600160a01b031690565b600954604051632864f40160e01b81526001600160a01b038c8116600483015260ff9092166024820152911690632864f40190604401600060405180830381600087803b15801561111357600080fd5b505af1158015611127573d6000803e3d6000fd5b50506009805460ff1692509050600061113f83611bfd565b91906101000a81548160ff021916908360ff1602179055505060006111668760035461181c565b600954604051632908244760e01b815260ff9091166004820152602481018290529091506001600160a01b03841690632908244790604401600060405180830381600087803b1580156111b857600080fd5b505af11580156111cc573d6000803e3d6000fd5b50506009546001600160a01b038d166000908152600860205260409020805460ff191660ff909216919091179055506112389050606760009081526020527f682158d08466d11c566d5712d4396197fdd67e65be71d83c97ef719ec468867b546001600160a01b031690565b600954604051632864f40160e01b81526001600160a01b038d8116600483015260ff9092166024820152911690632864f40190604401600060405180830381600087803b15801561128857600080fd5b505af115801561129c573d6000803e3d6000fd5b50506009805460ff169250905060006112b483611bfd565b91906101000a81548160ff021916908360ff160217905550506112d68361183d565b6004805460018101825560009182527f8a35acfbc15ff81a39ae7d344fd709f28e8600b4aa8c65c6b64bfe7fe36bd19b01805473ffffffffffffffffffffffffffffffffffffffff19166001600160a01b038d1690811790915590869086908161135057634e487b7160e01b600052603260045260246000fd5b905060200201602081019061136591906119c3565b6001600160a01b031614801561146e5750606860009081526020527faa071f48f62aaaa1f6320aaa7bd2ad2d552d05160892c14d699d38c9920d5f99546001600160a01b03166001600160a01b0316631f1cb62b6040518163ffffffff1660e01b815260040160206040518083038186803b1580156113e357600080fd5b505afa1580156113f7573d6000803e3d6000fd5b505050506040513d601f19601f8201168201806040525081019061141b91906119df565b6001600160a01b03168585611431600182611be6565b81811061144e57634e487b7160e01b600052603260045260246000fd5b905060200201602081019061146391906119c3565b6001600160a01b0316145b6114e05760405162461bcd60e51b815260206004820152603860248201527f496e76616c6964206c69717569646174696f6e546f6b656e73202d2d2073686f60448201527f756c6420676f2066726f6d20746f6b656e20746f207065670000000000000000606482015260840161051d565b606860009081526020527faa071f48f62aaaa1f6320aaa7bd2ad2d552d05160892c14d699d38c9920d5f99546040517f2b23f8570000000000000000000000000000000000000000000000000000000081526001600160a01b0390911690632b23f8579061155690899089908990600401611b37565b600060405180830381600087803b15801561157057600080fd5b505af1158015611584573d6000803e3d6000fd5b505050505050505b50505050505050565b3361159e611713565b6001600160a01b031614806115c25750336115b76117ab565b6001600160a01b0316145b61160e5760405162461bcd60e51b815260206004820152601e60248201527f526f6c65733a2063616c6c6572206973206e6f7420746865206f776e65720000604482015260640161051d565b600355565b3361161c611713565b6001600160a01b031614806116405750336116356117ab565b6001600160a01b0316145b61168c5760405162461bcd60e51b815260206004820152601e60248201527f526f6c65733a2063616c6c6572206973206e6f7420746865206f776e65720000604482015260640161051d565b6001600160a01b0382166000908152600560205260409020546006546116b3908390611b8f565b6116bd9190611be6565b6006556001600160a01b0382811660009081526005602090815260408220849055606c8252527f3c1fcba39712202dbd455253568bf32dd0a3bedb5c3ff0de4b22d4e45e50dc925461170f911661183d565b5050565b60007f00000000000000000000000000000000000000000000000000000000000000006001600160a01b0316638da5cb5b6040518163ffffffff1660e01b815260040160206040518083038186803b15801561176e57600080fd5b505afa158015611782573d6000803e3d6000fd5b505050506040513d601f19601f820116820180604052508101906117a691906119df565b905090565b60007f00000000000000000000000000000000000000000000000000000000000000006001600160a01b031663c34c08e56040518163ffffffff1660e01b8152600401602060405180830381600087803b15801561180857600080fd5b505af1158015611782573d6000803e3d6000fd5b60065460009061182c8385611bc7565b6118369190611ba7565b9392505050565b60005b60045460ff8216101561170f57600060048260ff168154811061187357634e487b7160e01b600052603260045260246000fd5b60009182526020808320909101546001600160a01b03168083526005909152604082205460025491935091906118aa90839061181c565b6001600160a01b0384811660009081526007602052604090819020549051632d3344ab60e11b815260ff909116600482015260248101839052919250861690635a66895690604401600060405180830381600087803b15801561190c57600080fd5b505af1158015611920573d6000803e3d6000fd5b5050505060006119328360035461181c565b6001600160a01b0385811660009081526008602052604090819020549051632d3344ab60e11b815260ff909116600482015260248101839052919250871690635a66895690604401600060405180830381600087803b15801561199457600080fd5b505af11580156119a8573d6000803e3d6000fd5b505050505050505080806119bb90611bfd565b915050611840565b6000602082840312156119d4578081fd5b813561183681611c33565b6000602082840312156119f0578081fd5b815161183681611c33565b60008060408385031215611a0d578081fd5b8235611a1881611c33565b946020939093013593505050565b600080600080600080600060c0888a031215611a40578283fd5b8735611a4b81611c33565b96506020880135955060408801359450606088013593506080880135925060a088013567ffffffffffffffff80821115611a83578384fd5b818a0191508a601f830112611a96578384fd5b813581811115611aa4578485fd5b8b60208260051b8501011115611ab8578485fd5b60208301945080935050505092959891949750929550565b600060208284031215611ae1578081fd5b81518015158114611836578182fd5b600060208284031215611b01578081fd5b5035919050565b60008060408385031215611b1a578182fd5b823591506020830135611b2c81611c33565b809150509250929050565b83815260406020808301829052908201839052600090849060608401835b86811015611b83578335611b6881611c33565b6001600160a01b031682529282019290820190600101611b55565b50979650505050505050565b60008219821115611ba257611ba2611c1d565b500190565b600082611bc257634e487b7160e01b81526012600452602481fd5b500490565b6000816000190483118215151615611be157611be1611c1d565b500290565b600082821015611bf857611bf8611c1d565b500390565b600060ff821660ff811415611c1457611c14611c1d565b60010192915050565b634e487b7160e01b600052601160045260246000fd5b6001600160a01b0381168114611c4857600080fd5b5056fea2646970667358221220e202af3ca5c335d89d3a908915c2592cf4d54bb9b3b7b4996deb5094babf88b464736f6c63430008030033",
  "linkReferences": {},
  "deployedLinkReferences": {}
}