{
  "_format": "hh-sol-artifact-1",
  "contractName": "TokenAdmin",
  "sourceName": "contracts/TokenAdmin.sol",
  "abi": [
    {
      "inputs": [
        {
          "internalType": "uint256",
          "name": "lendingTargetPortion",
          "type": "uint256"
        },
        {
          "internalType": "uint256",
          "name": "borrowingTargetPortion",
          "type": "uint256"
        },
        {
          "internalType": "address",
          "name": "_roles",
          "type": "address"
        }
      ],
      "stateMutability": "nonpayable",
      "type": "constructor"
    },
    {
      "anonymous": false,
      "inputs": [
        {
          "indexed": true,
          "internalType": "address",
          "name": "previousOwner",
          "type": "address"
        },
        {
          "indexed": true,
          "internalType": "address",
          "name": "newOwner",
          "type": "address"
        }
      ],
      "name": "OwnershipTransferred",
      "type": "event"
    },
    {
      "inputs": [],
      "name": "ADMIN",
      "outputs": [
        {
          "internalType": "uint16",
          "name": "",
          "type": "uint16"
        }
      ],
      "stateMutability": "view",
      "type": "function"
    },
    {
      "inputs": [],
      "name": "AUTHORIZED_FUND_TRADER",
      "outputs": [
        {
          "internalType": "uint16",
          "name": "",
          "type": "uint16"
        }
      ],
      "stateMutability": "view",
      "type": "function"
    },
    {
      "inputs": [],
      "name": "BORROWER",
      "outputs": [
        {
          "internalType": "uint16",
          "name": "",
          "type": "uint16"
        }
      ],
      "stateMutability": "view",
      "type": "function"
    },
    {
      "inputs": [],
      "name": "FEE_CONTROLLER",
      "outputs": [
        {
          "internalType": "uint16",
          "name": "",
          "type": "uint16"
        }
      ],
      "stateMutability": "view",
      "type": "function"
    },
    {
      "inputs": [],
      "name": "FEE_SOURCE",
      "outputs": [
        {
          "internalType": "uint16",
          "name": "",
          "type": "uint16"
        }
      ],
      "stateMutability": "view",
      "type": "function"
    },
    {
      "inputs": [],
      "name": "FUND",
      "outputs": [
        {
          "internalType": "uint16",
          "name": "",
          "type": "uint16"
        }
      ],
      "stateMutability": "view",
      "type": "function"
    },
    {
      "inputs": [],
      "name": "INCENTIVE_DISTRIBUTION",
      "outputs": [
        {
          "internalType": "uint16",
          "name": "",
          "type": "uint16"
        }
      ],
      "stateMutability": "view",
      "type": "function"
    },
    {
      "inputs": [],
      "name": "INCENTIVE_REPORTER",
      "outputs": [
        {
          "internalType": "uint16",
          "name": "",
          "type": "uint16"
        }
      ],
      "stateMutability": "view",
      "type": "function"
    },
    {
      "inputs": [],
      "name": "LENDING",
      "outputs": [
        {
          "internalType": "uint16",
          "name": "",
          "type": "uint16"
        }
      ],
      "stateMutability": "view",
      "type": "function"
    },
    {
      "inputs": [],
      "name": "LIQUIDATOR",
      "outputs": [
        {
          "internalType": "uint16",
          "name": "",
          "type": "uint16"
        }
      ],
      "stateMutability": "view",
      "type": "function"
    },
    {
      "inputs": [],
      "name": "MARGIN_CALLER",
      "outputs": [
        {
          "internalType": "uint16",
          "name": "",
          "type": "uint16"
        }
      ],
      "stateMutability": "view",
      "type": "function"
    },
    {
      "inputs": [],
      "name": "MARGIN_TRADER",
      "outputs": [
        {
          "internalType": "uint16",
          "name": "",
          "type": "uint16"
        }
      ],
      "stateMutability": "view",
      "type": "function"
    },
    {
      "inputs": [],
      "name": "MARGIN_TRADING",
      "outputs": [
        {
          "internalType": "uint16",
          "name": "",
          "type": "uint16"
        }
      ],
      "stateMutability": "view",
      "type": "function"
    },
    {
      "inputs": [],
      "name": "PRICE_CONTROLLER",
      "outputs": [
        {
          "internalType": "uint16",
          "name": "",
          "type": "uint16"
        }
      ],
      "stateMutability": "view",
      "type": "function"
    },
    {
      "inputs": [],
      "name": "ROUTER",
      "outputs": [
        {
          "internalType": "uint16",
          "name": "",
          "type": "uint16"
        }
      ],
      "stateMutability": "view",
      "type": "function"
    },
    {
      "inputs": [],
      "name": "STAKE_PENALIZER",
      "outputs": [
        {
          "internalType": "uint16",
          "name": "",
          "type": "uint16"
        }
      ],
      "stateMutability": "view",
      "type": "function"
    },
    {
      "inputs": [],
      "name": "TOKEN_ACTIVATOR",
      "outputs": [
        {
          "internalType": "uint16",
          "name": "",
          "type": "uint16"
        }
      ],
      "stateMutability": "view",
      "type": "function"
    },
    {
      "inputs": [],
      "name": "TOKEN_ADMIN",
      "outputs": [
        {
          "internalType": "uint16",
          "name": "",
          "type": "uint16"
        }
      ],
      "stateMutability": "view",
      "type": "function"
    },
    {
      "inputs": [],
      "name": "WITHDRAWER",
      "outputs": [
        {
          "internalType": "uint16",
          "name": "",
          "type": "uint16"
        }
      ],
      "stateMutability": "view",
      "type": "function"
    },
    {
      "inputs": [
        {
          "internalType": "address",
          "name": "token",
          "type": "address"
        },
        {
          "internalType": "uint256",
          "name": "exposureCap",
          "type": "uint256"
        },
        {
          "internalType": "uint256",
          "name": "lendingBuffer",
          "type": "uint256"
        },
        {
          "internalType": "uint256",
          "name": "incentiveWeight",
          "type": "uint256"
        },
        {
          "internalType": "address[]",
          "name": "liquidationPath",
          "type": "address[]"
        }
      ],
      "name": "activateToken",
      "outputs": [],
      "stateMutability": "nonpayable",
      "type": "function"
    },
    {
      "inputs": [
        {
          "internalType": "address",
          "name": "token",
          "type": "address"
        },
        {
          "internalType": "uint256",
          "name": "aprPercent",
          "type": "uint256"
        }
      ],
      "name": "changeHourlyYieldAPR",
      "outputs": [],
      "stateMutability": "nonpayable",
      "type": "function"
    },
    {
      "inputs": [
        {
          "internalType": "address",
          "name": "token",
          "type": "address"
        },
        {
          "internalType": "uint256",
          "name": "lendingBuffer",
          "type": "uint256"
        }
      ],
      "name": "changeLendingBuffer",
      "outputs": [],
      "stateMutability": "nonpayable",
      "type": "function"
    },
    {
      "inputs": [
        {
          "internalType": "address",
          "name": "token",
          "type": "address"
        },
        {
          "internalType": "uint256",
          "name": "exposureCap",
          "type": "uint256"
        }
      ],
      "name": "changeTokenCap",
      "outputs": [],
      "stateMutability": "nonpayable",
      "type": "function"
    },
    {
      "inputs": [
        {
          "internalType": "address",
          "name": "token",
          "type": "address"
        },
        {
          "internalType": "uint256",
          "name": "tokenWeight",
          "type": "uint256"
        }
      ],
      "name": "changeTokenIncentiveWeight",
      "outputs": [],
      "stateMutability": "nonpayable",
      "type": "function"
    },
    {
      "inputs": [
        {
          "internalType": "uint256",
          "name": "",
          "type": "uint256"
        }
      ],
      "name": "incentiveTokens",
      "outputs": [
        {
          "internalType": "address",
          "name": "",
          "type": "address"
        }
      ],
      "stateMutability": "view",
      "type": "function"
    },
    {
      "inputs": [],
      "name": "initHourlyYieldAPRPercent",
      "outputs": [
        {
          "internalType": "uint256",
          "name": "",
          "type": "uint256"
        }
      ],
      "stateMutability": "view",
      "type": "function"
    },
    {
      "inputs": [
        {
          "internalType": "uint16",
          "name": "",
          "type": "uint16"
        }
      ],
      "name": "mainCharacterCache",
      "outputs": [
        {
          "internalType": "address",
          "name": "",
          "type": "address"
        }
      ],
      "stateMutability": "view",
      "type": "function"
    },
    {
      "inputs": [],
      "name": "nextTrancheIndex",
      "outputs": [
        {
          "internalType": "uint8",
          "name": "",
          "type": "uint8"
        }
      ],
      "stateMutability": "view",
      "type": "function"
    },
    {
      "inputs": [],
      "name": "owner",
      "outputs": [
        {
          "internalType": "address",
          "name": "",
          "type": "address"
        }
      ],
      "stateMutability": "view",
      "type": "function"
    },
    {
      "inputs": [
        {
          "internalType": "address",
          "name": "property",
          "type": "address"
        },
        {
          "internalType": "address",
          "name": "newOwner",
          "type": "address"
        }
      ],
      "name": "relinquishOwnership",
      "outputs": [],
      "stateMutability": "nonpayable",
      "type": "function"
    },
    {
      "inputs": [],
      "name": "renounceOwnership",
      "outputs": [],
      "stateMutability": "nonpayable",
      "type": "function"
    },
    {
      "inputs": [
        {
          "internalType": "address",
          "name": "",
          "type": "address"
        },
        {
          "internalType": "uint16",
          "name": "",
          "type": "uint16"
        }
      ],
      "name": "roleCache",
      "outputs": [
        {
          "internalType": "bool",
          "name": "",
          "type": "bool"
        }
      ],
      "stateMutability": "view",
      "type": "function"
    },
    {
      "inputs": [],
      "name": "roles",
      "outputs": [
        {
          "internalType": "contract Roles",
          "name": "",
          "type": "address"
        }
      ],
      "stateMutability": "view",
      "type": "function"
    },
    {
      "inputs": [
        {
          "internalType": "uint256",
          "name": "portion",
          "type": "uint256"
        }
      ],
      "name": "setBorrowingTargetPortion",
      "outputs": [],
      "stateMutability": "nonpayable",
      "type": "function"
    },
    {
      "inputs": [
        {
          "internalType": "uint256",
          "name": "value",
          "type": "uint256"
        }
      ],
      "name": "setInitHourlyYieldAPR",
      "outputs": [],
      "stateMutability": "nonpayable",
      "type": "function"
    },
    {
      "inputs": [
        {
          "internalType": "uint256",
          "name": "portion",
          "type": "uint256"
        }
      ],
      "name": "setLendingTargetPortion",
      "outputs": [],
      "stateMutability": "nonpayable",
      "type": "function"
    },
    {
      "inputs": [
        {
          "internalType": "address",
          "name": "",
          "type": "address"
        }
      ],
      "name": "tokenBorrowingTranches",
      "outputs": [
        {
          "internalType": "uint8",
          "name": "",
          "type": "uint8"
        }
      ],
      "stateMutability": "view",
      "type": "function"
    },
    {
      "inputs": [
        {
          "internalType": "address",
          "name": "",
          "type": "address"
        }
      ],
      "name": "tokenLendingTranches",
      "outputs": [
        {
          "internalType": "uint8",
          "name": "",
          "type": "uint8"
        }
      ],
      "stateMutability": "view",
      "type": "function"
    },
    {
      "inputs": [
        {
          "internalType": "address",
          "name": "",
          "type": "address"
        }
      ],
      "name": "tokenWeights",
      "outputs": [
        {
          "internalType": "uint256",
          "name": "",
          "type": "uint256"
        }
      ],
      "stateMutability": "view",
      "type": "function"
    },
    {
      "inputs": [],
      "name": "totalBorrowingTargetPortion",
      "outputs": [
        {
          "internalType": "uint256",
          "name": "",
          "type": "uint256"
        }
      ],
      "stateMutability": "view",
      "type": "function"
    },
    {
      "inputs": [],
      "name": "totalLendingTargetPortion",
      "outputs": [
        {
          "internalType": "uint256",
          "name": "",
          "type": "uint256"
        }
      ],
      "stateMutability": "view",
      "type": "function"
    },
    {
      "inputs": [],
      "name": "totalTokenWeights",
      "outputs": [
        {
          "internalType": "uint256",
          "name": "",
          "type": "uint256"
        }
      ],
      "stateMutability": "view",
      "type": "function"
    },
    {
      "inputs": [
        {
          "internalType": "address",
          "name": "newOwner",
          "type": "address"
        }
      ],
      "name": "transferOwnership",
      "outputs": [],
      "stateMutability": "nonpayable",
      "type": "function"
    },
    {
      "inputs": [
        {
          "internalType": "uint16",
          "name": "role",
          "type": "uint16"
        }
      ],
      "name": "updateMainCharacterCache",
      "outputs": [],
      "stateMutability": "nonpayable",
      "type": "function"
    },
    {
      "inputs": [
        {
          "internalType": "uint16",
          "name": "role",
          "type": "uint16"
        },
        {
          "internalType": "address",
          "name": "contr",
          "type": "address"
        }
      ],
      "name": "updateRoleCache",
      "outputs": [],
      "stateMutability": "nonpayable",
      "type": "function"
    }
  ],
  "bytecode": "0x6080604052600b805460ff19166014179055600a600c553480156200002357600080fd5b506040516200264b3803806200264b8339810160408190526200004691620000cd565b600080546001600160a01b0319166001600160a01b0383161781556200006b620000c9565b600380546001600160a01b0319166001600160a01b038316908117909155604051919250906000907f8be0079c531659141344cd1fd0a4f28419497f9722a3daafe3b4186f6b6457e0908290a3505060049190915560055562000113565b3390565b600080600060608486031215620000e2578283fd5b83516020850151604086015191945092506001600160a01b038116811462000108578182fd5b809150509250925092565b61252880620001236000396000f3fe608060405234801561001057600080fd5b50600436106102ff5760003560e01c8063715018a61161019c578063b72b6501116100ee578063d5d7ed7f11610097578063e15ac98a11610071578063e15ac98a14610550578063f1c2700014610563578063f2fde38b1461056b576102ff565b8063d5d7ed7f1461052d578063dc8f5fac14610535578063dcc756041461053d576102ff565b8063c76139d0116100c8578063c76139d014610515578063cacf8d451461051d578063d1efebfe14610525576102ff565b8063b72b6501146104da578063bc2b28af146104ed578063c34316c3146104f5576102ff565b8063a0098d6911610150578063a9cc05361161012a578063a9cc0536146104ac578063ab2f3ad4146104b4578063b4481652146104c7576102ff565b8063a0098d6914610489578063a7cce85c14610491578063a94c7c34146104a4576102ff565b806381ca66001161018157806381ca66001461047157806383a49c7c146104795780638da5cb5b14610481576102ff565b8063715018a6146104565780637bad080a1461045e576102ff565b8063392f5f64116102555780635654cfc11161020957806361a3f935116101e357806361a3f93514610433578063669419841461043b5780636cd5cd6014610443576102ff565b80635654cfc1146104055780635be072f2146104185780635c275a391461042b576102ff565b806348fb27b81161023a57806348fb27b8146103d55780634dd7c056146103dd578063543eeef9146103f0576102ff565b8063392f5f64146103c557806346b88796146103cd576102ff565b80631bc5d81d116102b75780632a3e4dc2116102915780632a3e4dc2146103955780632fe94def146103b557806332fe7b26146103bd576102ff565b80631bc5d81d1461037257806320e8d8191461037a5780632a0acc6a1461038d576102ff565b80631135bb7b116102e85780631135bb7b146103425780631531841b146103575780631b6695071461036a576102ff565b8063065d570f146103045780630c977ed214610322575b600080fd5b61030c61057e565b6040516103199190612347565b60405180910390f35b610335610330366004611efa565b610583565b6040516103199190612389565b610355610350366004611f32565b610598565b005b610355610365366004611f9e565b61069c565b61030c6107c5565b61030c6107ca565b610355610388366004612119565b6107cf565b61030c6108e0565b6103a86103a3366004612134565b6108e5565b604051610319919061214c565b61030c61091c565b61030c610921565b6103a8610926565b61030c610942565b61030c610947565b6103556103eb366004611f9e565b61094c565b6103f8610a01565b6040516103199190612380565b610355610413366004611f9e565b610a07565b610355610426366004612134565b610abc565b61030c610b34565b6103f8610b39565b61030c610b3f565b6103556104513660046120ff565b610b44565b610355610c43565b61033561046c366004611efa565b610d25565b61030c610d3a565b61030c610d3f565b6103a8610d44565b61030c610d60565b61035561049f366004612134565b610d65565b61030c610ddd565b61030c610de2565b6103f86104c2366004611efa565b610de7565b6103a86104d53660046120ff565b610df9565b6103556104e8366004611fc9565b610e21565b6103f8611861565b610508610503366004611f6a565b611867565b6040516103199190612216565b61030c611887565b61030c61188c565b61030c611891565b61030c611896565b6103f861189b565b61035561054b366004612134565b6118a1565b61035561055e366004611f9e565b611919565b610335611a09565b610355610579366004611efa565b611a12565b600381565b600a6020526000908152604090205460ff1681565b6105a0611b60565b73ffffffffffffffffffffffffffffffffffffffff166105be610d44565b73ffffffffffffffffffffffffffffffffffffffff1614610614576040517f08c379a000000000000000000000000000000000000000000000000000000000815260040161060b90612312565b60405180910390fd5b6040517ff2fde38b00000000000000000000000000000000000000000000000000000000815273ffffffffffffffffffffffffffffffffffffffff83169063f2fde38b9061066690849060040161214c565b600060405180830381600087803b15801561068057600080fd5b505af1158015610694573d6000803e3d6000fd5b505050505050565b6106a4611b60565b73ffffffffffffffffffffffffffffffffffffffff166106c2610d44565b73ffffffffffffffffffffffffffffffffffffffff161461070f576040517f08c379a000000000000000000000000000000000000000000000000000000000815260040161060b90612312565b610717611b64565b73ffffffffffffffffffffffffffffffffffffffff1663d2b4893483836040518363ffffffff1660e01b815260040161075192919061216d565b600060405180830381600087803b15801561076b57600080fd5b505af115801561077f573d6000803e3d6000fd5b5050505061078b611ba9565b73ffffffffffffffffffffffffffffffffffffffff16631d47e4a383836040518363ffffffff1660e01b815260040161066692919061216d565b600a81565b600881565b6000546040517fd87fefd200000000000000000000000000000000000000000000000000000000815273ffffffffffffffffffffffffffffffffffffffff9091169063d87fefd2906108279085908590600401612356565b60206040518083038186803b15801561083f57600080fd5b505afa158015610853573d6000803e3d6000fd5b505050506040513d601f19601f8201168201806040525081019061087791906120df565b73ffffffffffffffffffffffffffffffffffffffff909116600090815260026020908152604080832061ffff90951683529390529190912080549115157fffffffffffffffffffffffffffffffffffffffffffffffffffffffffffffff00909216919091179055565b606b81565b600681815481106108f557600080fd5b60009182526020909120015473ffffffffffffffffffffffffffffffffffffffff16905081565b606981565b606781565b60005473ffffffffffffffffffffffffffffffffffffffff1681565b600681565b606681565b610954611b60565b73ffffffffffffffffffffffffffffffffffffffff16610972610d44565b73ffffffffffffffffffffffffffffffffffffffff16146109bf576040517f08c379a000000000000000000000000000000000000000000000000000000000815260040161060b90612312565b6109c7611b64565b73ffffffffffffffffffffffffffffffffffffffff1663f90889c983836040518363ffffffff1660e01b815260040161066692919061216d565b60055481565b610a0f611b60565b73ffffffffffffffffffffffffffffffffffffffff16610a2d610d44565b73ffffffffffffffffffffffffffffffffffffffff1614610a7a576040517f08c379a000000000000000000000000000000000000000000000000000000000815260040161060b90612312565b610a82611b64565b73ffffffffffffffffffffffffffffffffffffffff1663a387832f83836040518363ffffffff1660e01b815260040161066692919061216d565b610ac4611b60565b73ffffffffffffffffffffffffffffffffffffffff16610ae2610d44565b73ffffffffffffffffffffffffffffffffffffffff1614610b2f576040517f08c379a000000000000000000000000000000000000000000000000000000000815260040161060b90612312565b600455565b606581565b600c5481565b600181565b6000546040517f3c9c8f9c00000000000000000000000000000000000000000000000000000000815273ffffffffffffffffffffffffffffffffffffffff90911690633c9c8f9c90610b9a908490600401612347565b60206040518083038186803b158015610bb257600080fd5b505afa158015610bc6573d6000803e3d6000fd5b505050506040513d601f19601f82011682018060405250810190610bea9190611f16565b61ffff91909116600090815260016020526040902080547fffffffffffffffffffffffff00000000000000000000000000000000000000001673ffffffffffffffffffffffffffffffffffffffff909216919091179055565b610c4b611b60565b73ffffffffffffffffffffffffffffffffffffffff16610c69610d44565b73ffffffffffffffffffffffffffffffffffffffff1614610cb6576040517f08c379a000000000000000000000000000000000000000000000000000000000815260040161060b90612312565b60035460405160009173ffffffffffffffffffffffffffffffffffffffff16907f8be0079c531659141344cd1fd0a4f28419497f9722a3daafe3b4186f6b6457e0908390a3600380547fffffffffffffffffffffffff0000000000000000000000000000000000000000169055565b60096020526000908152604090205460ff1681565b606a81565b600981565b60035473ffffffffffffffffffffffffffffffffffffffff1690565b600281565b610d6d611b60565b73ffffffffffffffffffffffffffffffffffffffff16610d8b610d44565b73ffffffffffffffffffffffffffffffffffffffff1614610dd8576040517f08c379a000000000000000000000000000000000000000000000000000000000815260040161060b90612312565b600c55565b600581565b606881565b60076020526000908152604090205481565b60016020526000908152604090205473ffffffffffffffffffffffffffffffffffffffff1681565b610e29611b60565b73ffffffffffffffffffffffffffffffffffffffff16610e47610d44565b73ffffffffffffffffffffffffffffffffffffffff1614610e94576040517f08c379a000000000000000000000000000000000000000000000000000000000815260040161060b90612312565b610e9c611bee565b73ffffffffffffffffffffffffffffffffffffffff16635acf6903866040518263ffffffff1660e01b8152600401610ed4919061214c565b60206040518083038186803b158015610eec57600080fd5b505afa158015610f00573d6000803e3d6000fd5b505050506040513d601f19601f82011682018060405250810190610f2491906120df565b15610f5b576040517f08c379a000000000000000000000000000000000000000000000000000000000815260040161060b906122db565b610f63611bee565b73ffffffffffffffffffffffffffffffffffffffff16630d1ce2d2866040518263ffffffff1660e01b8152600401610f9b919061214c565b600060405180830381600087803b158015610fb557600080fd5b505af1158015610fc9573d6000803e3d6000fd5b50505050610fd5611ba9565b73ffffffffffffffffffffffffffffffffffffffff16631d47e4a386866040518363ffffffff1660e01b815260040161100f92919061216d565b600060405180830381600087803b15801561102957600080fd5b505af115801561103d573d6000803e3d6000fd5b50505050611049611b64565b73ffffffffffffffffffffffffffffffffffffffff1663d2b4893486866040518363ffffffff1660e01b815260040161108392919061216d565b600060405180830381600087803b15801561109d57600080fd5b505af11580156110b1573d6000803e3d6000fd5b505050506110bd611b64565b73ffffffffffffffffffffffffffffffffffffffff1663a387832f86856040518363ffffffff1660e01b81526004016110f792919061216d565b600060405180830381600087803b15801561111157600080fd5b505af1158015611125573d6000803e3d6000fd5b50505050611131611b64565b73ffffffffffffffffffffffffffffffffffffffff1663f90889c986600c546040518363ffffffff1660e01b815260040161116d92919061216d565b600060405180830381600087803b15801561118757600080fd5b505af115801561119b573d6000803e3d6000fd5b505050506111a7611b64565b73ffffffffffffffffffffffffffffffffffffffff1663cc4b26a3866040518263ffffffff1660e01b81526004016111df919061214c565b600060405180830381600087803b1580156111f957600080fd5b505af115801561120d573d6000803e3d6000fd5b50505050600082111561185a57816008600082825461122c91906123aa565b909155505073ffffffffffffffffffffffffffffffffffffffff85166000908152600760205260408120839055611261611c33565b9050600061127184600454611c78565b600b546040517f430c39e400000000000000000000000000000000000000000000000000000000815291925073ffffffffffffffffffffffffffffffffffffffff84169163430c39e4916112cf9160ff909116908590600401612397565b600060405180830381600087803b1580156112e957600080fd5b505af11580156112fd573d6000803e3d6000fd5b5050600b5473ffffffffffffffffffffffffffffffffffffffff8a16600090815260096020526040902080547fffffffffffffffffffffffffffffffffffffffffffffffffffffffffffffff001660ff909216919091179055506113619050611b64565b600b546040517f2864f40100000000000000000000000000000000000000000000000000000000815273ffffffffffffffffffffffffffffffffffffffff9290921691632864f401916113bc918b9160ff1690600401612193565b600060405180830381600087803b1580156113d657600080fd5b505af11580156113ea573d6000803e3d6000fd5b5050600b805460ff169250905060006114028361244f565b91906101000a81548160ff021916908360ff16021790555050600061142985600554611c78565b600b546040517f430c39e400000000000000000000000000000000000000000000000000000000815291925073ffffffffffffffffffffffffffffffffffffffff85169163430c39e4916114879160ff909116908590600401612397565b600060405180830381600087803b1580156114a157600080fd5b505af11580156114b5573d6000803e3d6000fd5b5050600b5473ffffffffffffffffffffffffffffffffffffffff8b166000908152600a6020526040902080547fffffffffffffffffffffffffffffffffffffffffffffffffffffffffffffff001660ff909216919091179055506115199050611c99565b600b546040517f2864f40100000000000000000000000000000000000000000000000000000000815273ffffffffffffffffffffffffffffffffffffffff9290921691632864f40191611574918c9160ff1690600401612193565b600060405180830381600087803b15801561158e57600080fd5b505af11580156115a2573d6000803e3d6000fd5b5050600b805460ff169250905060006115ba8361244f565b91906101000a81548160ff021916908360ff160217905550506115dc83611cde565b6006805460018101825560009182527ff652222313e28459528d920b65115c16c04f3efc82aaedc97be59f3f377c0d3f0180547fffffffffffffffffffffffff00000000000000000000000000000000000000001673ffffffffffffffffffffffffffffffffffffffff8b16908117909155855190918691611687577f4e487b7100000000000000000000000000000000000000000000000000000000600052603260045260246000fd5b602002602001015173ffffffffffffffffffffffffffffffffffffffff161480156117ae57506116b5611ba9565b73ffffffffffffffffffffffffffffffffffffffff16631f1cb62b6040518163ffffffff1660e01b815260040160206040518083038186803b1580156116fa57600080fd5b505afa15801561170e573d6000803e3d6000fd5b505050506040513d601f19601f820116820180604052508101906117329190611f16565b73ffffffffffffffffffffffffffffffffffffffff1684600186516117579190612438565b8151811061178e577f4e487b7100000000000000000000000000000000000000000000000000000000600052603260045260246000fd5b602002602001015173ffffffffffffffffffffffffffffffffffffffff16145b6117e4576040517f08c379a000000000000000000000000000000000000000000000000000000000815260040161060b9061227e565b6117ec611ba9565b73ffffffffffffffffffffffffffffffffffffffff16636cd7bc4b856040518263ffffffff1660e01b815260040161182491906121bc565b600060405180830381600087803b15801561183e57600080fd5b505af1158015611852573d6000803e3d6000fd5b505050505050505b5050505050565b60045481565b600260209081526000928352604080842090915290825290205460ff1681565b606c81565b600481565b606d81565b600781565b60085481565b6118a9611b60565b73ffffffffffffffffffffffffffffffffffffffff166118c7610d44565b73ffffffffffffffffffffffffffffffffffffffff1614611914576040517f08c379a000000000000000000000000000000000000000000000000000000000815260040161060b90612312565b600555565b611921611b60565b73ffffffffffffffffffffffffffffffffffffffff1661193f610d44565b73ffffffffffffffffffffffffffffffffffffffff161461198c576040517f08c379a000000000000000000000000000000000000000000000000000000000815260040161060b90612312565b73ffffffffffffffffffffffffffffffffffffffff82166000908152600760205260409020546008546119c09083906123aa565b6119ca9190612438565b60085573ffffffffffffffffffffffffffffffffffffffff82166000908152600760205260409020819055611a05611a00611c33565b611cde565b5050565b600b5460ff1681565b611a1a611b60565b73ffffffffffffffffffffffffffffffffffffffff16611a38610d44565b73ffffffffffffffffffffffffffffffffffffffff1614611a85576040517f08c379a000000000000000000000000000000000000000000000000000000000815260040161060b90612312565b73ffffffffffffffffffffffffffffffffffffffff8116611ad2576040517f08c379a000000000000000000000000000000000000000000000000000000000815260040161060b90612221565b60035460405173ffffffffffffffffffffffffffffffffffffffff8084169216907f8be0079c531659141344cd1fd0a4f28419497f9722a3daafe3b4186f6b6457e090600090a3600380547fffffffffffffffffffffffff00000000000000000000000000000000000000001673ffffffffffffffffffffffffffffffffffffffff92909216919091179055565b3390565b606660005260016020527f8a7727369fa1a496cab5c3debb1ff9323f499df74f8bfc03a975054ef960ee6d5473ffffffffffffffffffffffffffffffffffffffff1690565b606860005260016020527ff284ef79b1311865905aedf2d88775d1e3bf6a2b09002616cb4dc1af77e578f45473ffffffffffffffffffffffffffffffffffffffff1690565b606560005260016020527f6def5a300acb6fcaa0dab3a41e9d6457b5147a641e641380f8cc4bf5308b16fe5473ffffffffffffffffffffffffffffffffffffffff1690565b606c60005260016020527fd80c728dcb954e7539257f5b9090fa0c83e482d978be864c61ec2b155c05c2525473ffffffffffffffffffffffffffffffffffffffff1690565b600854600090611c8883856123fb565b611c9291906123c2565b9392505050565b606760005260016020527f3df8f088882f8b9ec191c0c401507a494987ab757ec0bcd484b0f744e1857e895473ffffffffffffffffffffffffffffffffffffffff1690565b60005b60065460ff82161015611a0557600060068260ff1681548110611d2d577f4e487b7100000000000000000000000000000000000000000000000000000000600052603260045260246000fd5b600091825260208083209091015473ffffffffffffffffffffffffffffffffffffffff16808352600790915260408220546004549193509190611d71908390611c78565b73ffffffffffffffffffffffffffffffffffffffff848116600090815260096020526040908190205490517f19f51afb000000000000000000000000000000000000000000000000000000008152929350908716916319f51afb91611de09160ff909116908590600401612397565b600060405180830381600087803b158015611dfa57600080fd5b505af1158015611e0e573d6000803e3d6000fd5b505050506000611e2083600554611c78565b73ffffffffffffffffffffffffffffffffffffffff8581166000908152600a6020526040908190205490517f19f51afb000000000000000000000000000000000000000000000000000000008152929350908816916319f51afb91611e8f9160ff909116908590600401612397565b600060405180830381600087803b158015611ea957600080fd5b505af1158015611ebd573d6000803e3d6000fd5b50505050505050508080611ed09061244f565b915050611ce1565b8035611ee3816124cd565b919050565b803561ffff81168114611ee357600080fd5b600060208284031215611f0b578081fd5b8135611c92816124cd565b600060208284031215611f27578081fd5b8151611c92816124cd565b60008060408385031215611f44578081fd5b8235611f4f816124cd565b91506020830135611f5f816124cd565b809150509250929050565b60008060408385031215611f7c578182fd5b8235611f87816124cd565b9150611f9560208401611ee8565b90509250929050565b60008060408385031215611fb0578182fd5b8235611fbb816124cd565b946020939093013593505050565b600080600080600060a08688031215611fe0578081fd5b8535611feb816124cd565b945060208681013594506040870135935060608701359250608087013567ffffffffffffffff8082111561201d578384fd5b818901915089601f830112612030578384fd5b8135818111156120425761204261249e565b8381026040517fffffffffffffffffffffffffffffffffffffffffffffffffffffffffffffffe0603f830116810181811085821117156120845761208461249e565b604052828152858101935084860182860187018e10156120a2578788fd5b8795505b838610156120cb576120b781611ed8565b8552600195909501949386019386016120a6565b508096505050505050509295509295909350565b6000602082840312156120f0578081fd5b81518015158114611c92578182fd5b600060208284031215612110578081fd5b611c9282611ee8565b6000806040838503121561212b578182fd5b611f4f83611ee8565b600060208284031215612145578081fd5b5035919050565b73ffffffffffffffffffffffffffffffffffffffff91909116815260200190565b73ffffffffffffffffffffffffffffffffffffffff929092168252602082015260400190565b73ffffffffffffffffffffffffffffffffffffffff92909216825260ff16602082015260400190565b6020808252825182820181905260009190848201906040850190845b8181101561220a57835173ffffffffffffffffffffffffffffffffffffffff16835292840192918401916001016121d8565b50909695505050505050565b901515815260200190565b60208082526026908201527f4f776e61626c653a206e6577206f776e657220697320746865207a65726f206160408201527f6464726573730000000000000000000000000000000000000000000000000000606082015260800190565b60208082526036908201527f496e76616c6964206c69717569646174696f6e50617468202d2d2073686f756c60408201527f6420676f2066726f6d20746f6b656e20746f2070656700000000000000000000606082015260800190565b60208082526017908201527f546f6b656e20616c726561647920697320616374697665000000000000000000604082015260600190565b6020808252818101527f4f776e61626c653a2063616c6c6572206973206e6f7420746865206f776e6572604082015260600190565b61ffff91909116815260200190565b61ffff92909216825273ffffffffffffffffffffffffffffffffffffffff16602082015260400190565b90815260200190565b60ff91909116815260200190565b60ff929092168252602082015260400190565b600082198211156123bd576123bd61246f565b500190565b6000826123f6577f4e487b710000000000000000000000000000000000000000000000000000000081526012600452602481fd5b500490565b6000817fffffffffffffffffffffffffffffffffffffffffffffffffffffffffffffffff04831182151516156124335761243361246f565b500290565b60008282101561244a5761244a61246f565b500390565b600060ff821660ff8114156124665761246661246f565b60010192915050565b7f4e487b7100000000000000000000000000000000000000000000000000000000600052601160045260246000fd5b7f4e487b7100000000000000000000000000000000000000000000000000000000600052604160045260246000fd5b73ffffffffffffffffffffffffffffffffffffffff811681146124ef57600080fd5b5056fea2646970667358221220b282030f074b765a20a24bc4066995e9938f20bdde3a9f8b068c3c9ef5f2cdf164736f6c63430008010033",
  "linkReferences": {},
  "deployedLinkReferences": {}
}