{
  "_format": "hh-sol-artifact-1",
  "contractName": "Roles",
  "sourceName": "contracts/Roles.sol",
  "abi": [
    {
      "inputs": [],
      "stateMutability": "nonpayable",
      "type": "constructor"
    },
    {
      "anonymous": false,
      "inputs": [
        {
          "indexed": true,
          "internalType": "address",
          "name": "previousOwner",
          "type": "address"
        },
        {
          "indexed": true,
          "internalType": "address",
          "name": "newOwner",
          "type": "address"
        }
      ],
      "name": "OwnershipTransferred",
      "type": "event"
    },
    {
      "inputs": [],
      "name": "executor",
      "outputs": [
        {
          "internalType": "address",
          "name": "exec",
          "type": "address"
        }
      ],
      "stateMutability": "nonpayable",
      "type": "function"
    },
    {
      "inputs": [
        {
          "internalType": "uint256",
          "name": "role",
          "type": "uint256"
        },
        {
          "internalType": "address",
          "name": "contr",
          "type": "address"
        }
      ],
      "name": "getRole",
      "outputs": [
        {
          "internalType": "bool",
          "name": "",
          "type": "bool"
        }
      ],
      "stateMutability": "view",
      "type": "function"
    },
    {
      "inputs": [
        {
          "internalType": "uint256",
          "name": "role",
          "type": "uint256"
        },
        {
          "internalType": "address",
          "name": "actor",
          "type": "address"
        }
      ],
      "name": "giveRole",
      "outputs": [],
      "stateMutability": "nonpayable",
      "type": "function"
    },
    {
      "inputs": [
        {
          "internalType": "uint256",
          "name": "",
          "type": "uint256"
        }
      ],
      "name": "mainCharacters",
      "outputs": [
        {
          "internalType": "address",
          "name": "",
          "type": "address"
        }
      ],
      "stateMutability": "view",
      "type": "function"
    },
    {
      "inputs": [],
      "name": "owner",
      "outputs": [
        {
          "internalType": "address",
          "name": "",
          "type": "address"
        }
      ],
      "stateMutability": "view",
      "type": "function"
    },
    {
      "inputs": [
        {
          "internalType": "uint256",
          "name": "role",
          "type": "uint256"
        },
        {
          "internalType": "address",
          "name": "actor",
          "type": "address"
        }
      ],
      "name": "removeRole",
      "outputs": [],
      "stateMutability": "nonpayable",
      "type": "function"
    },
    {
      "inputs": [],
      "name": "renounceOwnership",
      "outputs": [],
      "stateMutability": "nonpayable",
      "type": "function"
    },
    {
      "inputs": [
        {
          "internalType": "address",
          "name": "",
          "type": "address"
        },
        {
          "internalType": "uint256",
          "name": "",
          "type": "uint256"
        }
      ],
      "name": "roles",
      "outputs": [
        {
          "internalType": "bool",
          "name": "",
          "type": "bool"
        }
      ],
      "stateMutability": "view",
      "type": "function"
    },
    {
      "inputs": [
        {
          "internalType": "uint256",
          "name": "role",
          "type": "uint256"
        },
        {
          "internalType": "address",
          "name": "actor",
          "type": "address"
        }
      ],
      "name": "setMainCharacter",
      "outputs": [],
      "stateMutability": "nonpayable",
      "type": "function"
    },
    {
      "inputs": [
        {
          "internalType": "address",
          "name": "newOwner",
          "type": "address"
        }
      ],
      "name": "transferOwnership",
      "outputs": [],
      "stateMutability": "nonpayable",
      "type": "function"
    }
  ],
  "bytecode": "0x608060405234801561001057600080fd5b50600080546001600160a01b031916339081178255604051909182917f8be0079c531659141344cd1fd0a4f28419497f9722a3daafe3b4186f6b6457e0908290a35033600090815260016020818152604080842060098552909152909120805460ff19169091179055610890806100886000396000f3fe608060405234801561001057600080fd5b50600436106100be5760003560e01c806393552a3d11610076578063c34c08e51161005b578063c34c08e51461019f578063f0723d97146101a7578063f2fde38b146101d5576100be565b806393552a3d14610130578063b4ed0b6d14610176576100be565b80634d537769116100a75780634d537769146100eb578063715018a6146100fe5780638da5cb5b14610106576100be565b806325398f83146100c35780633238405b146100d8575b600080fd5b6100d66100d1366004610813565b6101e8565b005b6100d66100e6366004610813565b6102df565b6100d66100f9366004610813565b6103cc565b6100d66104d4565b6000546001600160a01b03165b6040516001600160a01b0390911681526020015b60405180910390f35b61016661013e366004610813565b6001600160a01b03166000908152600160209081526040808320938352929052205460ff1690565b6040519015158152602001610127565b6101136101843660046107fb565b6002602052600090815260409020546001600160a01b031681565b610113610590565b6101666101b53660046107d0565b600160209081526000928352604080842090915290825290205460ff1681565b6100d66101e3366004610791565b610648565b336101fb6000546001600160a01b031690565b6001600160a01b0316148061021f575033610214610590565b6001600160a01b0316145b8061025e57506103ea60005260026020527fdbe5cd5858d8b8ba8ddaf6817490b63aa346482dc8fac5b92758c8d2c1b98153546001600160a01b031633145b6102af5760405162461bcd60e51b815260206004820152601e60248201527f526f6c65733a2063616c6c6572206973206e6f7420746865206f776e6572000060448201526064015b60405180910390fd5b6001600160a01b03166000908152600160208181526040808420948452939052919020805460ff19169091179055565b336102f26000546001600160a01b031690565b6001600160a01b0316148061031657503361030b610590565b6001600160a01b0316145b8061035557506103ea60005260026020527fdbe5cd5858d8b8ba8ddaf6817490b63aa346482dc8fac5b92758c8d2c1b98153546001600160a01b031633145b6103a15760405162461bcd60e51b815260206004820152601e60248201527f526f6c65733a2063616c6c6572206973206e6f7420746865206f776e6572000060448201526064016102a6565b6001600160a01b0316600090815260016020908152604080832093835292905220805460ff19169055565b336103df6000546001600160a01b031690565b6001600160a01b031614806104035750336103f8610590565b6001600160a01b0316145b8061044257506103ea60005260026020527fdbe5cd5858d8b8ba8ddaf6817490b63aa346482dc8fac5b92758c8d2c1b98153546001600160a01b031633145b61048e5760405162461bcd60e51b815260206004820152601e60248201527f526f6c65733a2063616c6c6572206973206e6f7420746865206f776e6572000060448201526064016102a6565b60009182526002602052604090912080547fffffffffffffffffffffffff0000000000000000000000000000000000000000166001600160a01b03909216919091179055565b6000546001600160a01b0316331461052e5760405162461bcd60e51b815260206004820181905260248201527f4f776e61626c653a2063616c6c6572206973206e6f7420746865206f776e657260448201526064016102a6565b600080546040516001600160a01b03909116907f8be0079c531659141344cd1fd0a4f28419497f9722a3daafe3b4186f6b6457e0908390a3600080547fffffffffffffffffffffffff0000000000000000000000000000000000000000169055565b6103ea600090815260026020527fdbe5cd5858d8b8ba8ddaf6817490b63aa346482dc8fac5b92758c8d2c1b98153546001600160a01b0316801561064457806001600160a01b0316636b60a09b6040518163ffffffff1660e01b8152600401602060405180830381600087803b15801561060957600080fd5b505af115801561061d573d6000803e3d6000fd5b505050506040513d601f19601f8201168201806040525081019061064191906107b4565b91505b5090565b6000546001600160a01b031633146106a25760405162461bcd60e51b815260206004820181905260248201527f4f776e61626c653a2063616c6c6572206973206e6f7420746865206f776e657260448201526064016102a6565b6001600160a01b03811661071e5760405162461bcd60e51b815260206004820152602660248201527f4f776e61626c653a206e6577206f776e657220697320746865207a65726f206160448201527f646472657373000000000000000000000000000000000000000000000000000060648201526084016102a6565b600080546040516001600160a01b03808516939216917f8be0079c531659141344cd1fd0a4f28419497f9722a3daafe3b4186f6b6457e091a3600080547fffffffffffffffffffffffff0000000000000000000000000000000000000000166001600160a01b0392909216919091179055565b6000602082840312156107a2578081fd5b81356107ad81610842565b9392505050565b6000602082840312156107c5578081fd5b81516107ad81610842565b600080604083850312156107e2578081fd5b82356107ed81610842565b946020939093013593505050565b60006020828403121561080c578081fd5b5035919050565b60008060408385031215610825578182fd5b82359150602083013561083781610842565b809150509250929050565b6001600160a01b038116811461085757600080fd5b5056fea26469706673582212201e90aadee0f816f46c6714f6aafdc63d0e396be60c1dea5350066b9d1fbc5a6a64736f6c63430008030033",
  "linkReferences": {},
  "deployedLinkReferences": {}
}