{
  "_format": "hh-sol-artifact-1",
  "contractName": "Roles",
  "sourceName": "contracts/Roles.sol",
  "abi": [
    {
      "inputs": [],
      "stateMutability": "nonpayable",
      "type": "constructor"
    },
    {
      "anonymous": false,
      "inputs": [
        {
          "indexed": true,
          "internalType": "address",
          "name": "previousOwner",
          "type": "address"
        },
        {
          "indexed": true,
          "internalType": "address",
          "name": "newOwner",
          "type": "address"
        }
      ],
      "name": "OwnershipTransferred",
      "type": "event"
    },
    {
      "inputs": [],
      "name": "executor",
      "outputs": [
        {
          "internalType": "address",
          "name": "exec",
          "type": "address"
        }
      ],
      "stateMutability": "nonpayable",
      "type": "function"
    },
    {
      "inputs": [
        {
          "internalType": "uint256",
          "name": "role",
          "type": "uint256"
        },
        {
          "internalType": "address",
          "name": "contr",
          "type": "address"
        }
      ],
      "name": "getRole",
      "outputs": [
        {
          "internalType": "bool",
          "name": "",
          "type": "bool"
        }
      ],
      "stateMutability": "view",
      "type": "function"
    },
    {
      "inputs": [
        {
          "internalType": "uint256",
          "name": "role",
          "type": "uint256"
        },
        {
          "internalType": "address",
          "name": "actor",
          "type": "address"
        }
      ],
      "name": "giveRole",
      "outputs": [],
      "stateMutability": "nonpayable",
      "type": "function"
    },
    {
      "inputs": [
        {
          "internalType": "uint256",
          "name": "",
          "type": "uint256"
        }
      ],
      "name": "mainCharacters",
      "outputs": [
        {
          "internalType": "address",
          "name": "",
          "type": "address"
        }
      ],
      "stateMutability": "view",
      "type": "function"
    },
    {
      "inputs": [],
      "name": "owner",
      "outputs": [
        {
          "internalType": "address",
          "name": "",
          "type": "address"
        }
      ],
      "stateMutability": "view",
      "type": "function"
    },
    {
      "inputs": [
        {
          "internalType": "uint256",
          "name": "role",
          "type": "uint256"
        },
        {
          "internalType": "address",
          "name": "actor",
          "type": "address"
        }
      ],
      "name": "removeRole",
      "outputs": [],
      "stateMutability": "nonpayable",
      "type": "function"
    },
    {
      "inputs": [],
      "name": "renounceOwnership",
      "outputs": [],
      "stateMutability": "nonpayable",
      "type": "function"
    },
    {
      "inputs": [
        {
          "internalType": "address",
          "name": "",
          "type": "address"
        },
        {
          "internalType": "uint256",
          "name": "",
          "type": "uint256"
        }
      ],
      "name": "roles",
      "outputs": [
        {
          "internalType": "bool",
          "name": "",
          "type": "bool"
        }
      ],
      "stateMutability": "view",
      "type": "function"
    },
    {
      "inputs": [
        {
          "internalType": "uint256",
          "name": "role",
          "type": "uint256"
        },
        {
          "internalType": "address",
          "name": "actor",
          "type": "address"
        }
      ],
      "name": "setMainCharacter",
      "outputs": [],
      "stateMutability": "nonpayable",
      "type": "function"
    },
    {
      "inputs": [
        {
          "internalType": "address",
          "name": "newOwner",
          "type": "address"
        }
      ],
      "name": "transferOwnership",
      "outputs": [],
      "stateMutability": "nonpayable",
      "type": "function"
    }
  ],
  "bytecode": "0x608060405234801561001057600080fd5b50600080546001600160a01b031916339081178255604051909182917f8be0079c531659141344cd1fd0a4f28419497f9722a3daafe3b4186f6b6457e0908290a35033600090815260016020818152604080842060098552909152909120805460ff19169091179055610794806100886000396000f3fe608060405234801561001057600080fd5b506004361061009e5760003560e01c806393552a3d1161006657806393552a3d14610110578063b4ed0b6d14610156578063c34c08e51461017f578063f0723d9714610187578063f2fde38b146101b55761009e565b806325398f83146100a35780633238405b146100b85780634d537769146100cb578063715018a6146100de5780638da5cb5b146100e6575b600080fd5b6100b66100b13660046106c0565b6101c8565b005b6100b66100c63660046106c0565b610281565b6100b66100d93660046106c0565b61032c565b6100b66103da565b6000546001600160a01b03165b6040516001600160a01b0390911681526020015b60405180910390f35b61014661011e3660046106c0565b6001600160a01b03166000908152600160209081526040808320938352929052205460ff1690565b6040519015158152602001610107565b6100f36101643660046106a8565b6002602052600090815260409020546001600160a01b031681565b6100f361047e565b61014661019536600461067d565b600160209081526000928352604080842090915290825290205460ff1681565b6100b66101c336600461063e565b610524565b336101db6000546001600160a01b031690565b6001600160a01b031614806101ff5750336101f461047e565b6001600160a01b0316145b8061022c57506103ea600052600260205260008051602061073f833981519152546001600160a01b031633145b6102515760405162461bcd60e51b8152600401610248906106ef565b60405180910390fd5b6001600160a01b03166000908152600160208181526040808420948452939052919020805460ff19169091179055565b336102946000546001600160a01b031690565b6001600160a01b031614806102b85750336102ad61047e565b6001600160a01b0316145b806102e557506103ea600052600260205260008051602061073f833981519152546001600160a01b031633145b6103015760405162461bcd60e51b8152600401610248906106ef565b6001600160a01b0316600090815260016020908152604080832093835292905220805460ff19169055565b3361033f6000546001600160a01b031690565b6001600160a01b0316148061036357503361035861047e565b6001600160a01b0316145b8061039057506103ea600052600260205260008051602061073f833981519152546001600160a01b031633145b6103ac5760405162461bcd60e51b8152600401610248906106ef565b60009182526002602052604090912080546001600160a01b0319166001600160a01b03909216919091179055565b6000546001600160a01b031633146104345760405162461bcd60e51b815260206004820181905260248201527f4f776e61626c653a2063616c6c6572206973206e6f7420746865206f776e65726044820152606401610248565b600080546040516001600160a01b03909116907f8be0079c531659141344cd1fd0a4f28419497f9722a3daafe3b4186f6b6457e0908390a3600080546001600160a01b0319169055565b6103ea6000908152600260205260008051602061073f833981519152546001600160a01b0316801561052057806001600160a01b0316636b60a09b6040518163ffffffff1660e01b8152600401602060405180830381600087803b1580156104e557600080fd5b505af11580156104f9573d6000803e3d6000fd5b505050506040513d601f19601f8201168201806040525081019061051d9190610661565b91505b5090565b6000546001600160a01b0316331461057e5760405162461bcd60e51b815260206004820181905260248201527f4f776e61626c653a2063616c6c6572206973206e6f7420746865206f776e65726044820152606401610248565b6001600160a01b0381166105e35760405162461bcd60e51b815260206004820152602660248201527f4f776e61626c653a206e6577206f776e657220697320746865207a65726f206160448201526564647265737360d01b6064820152608401610248565b600080546040516001600160a01b03808516939216917f8be0079c531659141344cd1fd0a4f28419497f9722a3daafe3b4186f6b6457e091a3600080546001600160a01b0319166001600160a01b0392909216919091179055565b60006020828403121561064f578081fd5b813561065a81610726565b9392505050565b600060208284031215610672578081fd5b815161065a81610726565b6000806040838503121561068f578081fd5b823561069a81610726565b946020939093013593505050565b6000602082840312156106b9578081fd5b5035919050565b600080604083850312156106d2578182fd5b8235915060208301356106e481610726565b809150509250929050565b6020808252601e908201527f526f6c65733a2063616c6c6572206973206e6f7420746865206f776e65720000604082015260600190565b6001600160a01b038116811461073b57600080fd5b5056fedbe5cd5858d8b8ba8ddaf6817490b63aa346482dc8fac5b92758c8d2c1b98153a264697066735822122082f7c9bb5120a82c47d13907083ff700f0f0e11147fbe90e18f81e9a793f5c7d64736f6c63430008030033",
  "linkReferences": {},
  "deployedLinkReferences": {}
}